{
  "address": "0x57979ADA61b06eb5BFeB9E84467abA9F6950949d",
  "abi": [
    {
      "inputs": [
        {
          "components": [
            {
              "internalType": "uint24",
              "name": "feeTier",
              "type": "uint24"
            },
            {
              "internalType": "address",
              "name": "token0",
              "type": "address"
            },
            {
              "internalType": "address",
              "name": "token1",
              "type": "address"
            },
            {
              "internalType": "bool",
              "name": "isMarginZero",
              "type": "bool"
            }
          ],
          "internalType": "struct DataType.InitializationParams",
          "name": "_initializationParams",
          "type": "tuple"
        },
        {
          "internalType": "address",
          "name": "_positionManager",
          "type": "address"
        },
        {
          "internalType": "address",
          "name": "_factory",
          "type": "address"
        },
        {
          "internalType": "address",
          "name": "_swapRouter",
          "type": "address"
        }
      ],
      "stateMutability": "nonpayable",
      "type": "constructor"
    },
    {
      "anonymous": false,
      "inputs": [
        {
          "indexed": false,
          "internalType": "uint256",
          "name": "vaultId",
          "type": "uint256"
        },
        {
          "indexed": false,
          "internalType": "int256",
          "name": "a0",
          "type": "int256"
        },
        {
          "indexed": false,
          "internalType": "int256",
          "name": "a1",
          "type": "int256"
        },
        {
          "indexed": false,
          "internalType": "uint160",
          "name": "sqrtPrice",
          "type": "uint160"
        },
        {
          "indexed": false,
          "internalType": "bytes",
          "name": "metadata",
          "type": "bytes"
        }
      ],
      "name": "PositionUpdated",
      "type": "event"
    },
    {
      "anonymous": false,
      "inputs": [
        {
          "indexed": false,
          "internalType": "uint256",
          "name": "vaultId",
          "type": "uint256"
        },
        {
          "indexed": false,
          "internalType": "address",
          "name": "owner",
          "type": "address"
        }
      ],
      "name": "VaultCreated",
      "type": "event"
    },
    {
      "inputs": [
        {
          "components": [
            {
              "internalType": "uint256",
              "name": "collateral0",
              "type": "uint256"
            },
            {
              "internalType": "uint256",
              "name": "collateral1",
              "type": "uint256"
            },
            {
              "internalType": "uint256",
              "name": "debt0",
              "type": "uint256"
            },
            {
              "internalType": "uint256",
              "name": "debt1",
              "type": "uint256"
            },
            {
              "components": [
                {
                  "internalType": "bool",
                  "name": "isCollateral",
                  "type": "bool"
                },
                {
                  "internalType": "uint128",
                  "name": "liquidity",
                  "type": "uint128"
                },
                {
                  "internalType": "int24",
                  "name": "lowerTick",
                  "type": "int24"
                },
                {
                  "internalType": "int24",
                  "name": "upperTick",
                  "type": "int24"
                }
              ],
              "internalType": "struct DataType.LPT[]",
              "name": "lpts",
              "type": "tuple[]"
            }
          ],
          "internalType": "struct DataType.Position",
          "name": "_position",
          "type": "tuple"
        }
      ],
      "name": "calculateRequiredCollateral",
      "outputs": [
        {
          "internalType": "int256",
          "name": "",
          "type": "int256"
        }
      ],
      "stateMutability": "view",
      "type": "function"
    },
    {
      "inputs": [
        {
          "internalType": "uint256",
          "name": "_vaultId",
          "type": "uint256"
        }
      ],
      "name": "checkLiquidatable",
      "outputs": [
        {
          "internalType": "bool",
          "name": "",
          "type": "bool"
        }
      ],
      "stateMutability": "nonpayable",
      "type": "function"
    },
    {
      "inputs": [
        {
          "internalType": "uint256",
          "name": "_vaultId",
          "type": "uint256"
        },
        {
          "components": [
            {
              "internalType": "bool",
              "name": "reduceOnly",
              "type": "bool"
            },
            {
              "internalType": "bool",
              "name": "swapAnyway",
              "type": "bool"
            },
            {
              "internalType": "bool",
              "name": "quoterMode",
              "type": "bool"
            },
            {
              "internalType": "bool",
              "name": "isQuoteZero",
              "type": "bool"
            }
          ],
          "internalType": "struct DataType.TradeOption",
          "name": "_tradeOption",
          "type": "tuple"
        },
        {
          "components": [
            {
              "internalType": "uint256",
              "name": "price",
              "type": "uint256"
            },
            {
              "internalType": "uint256",
              "name": "slippageTorelance",
              "type": "uint256"
            },
            {
              "internalType": "uint256",
              "name": "swapRatio",
              "type": "uint256"
            },
            {
              "internalType": "bytes",
              "name": "metadata",
              "type": "bytes"
            }
          ],
          "internalType": "struct DataType.ClosePositionOption",
          "name": "_closePositionOptions",
          "type": "tuple"
        }
      ],
      "name": "closePosition",
      "outputs": [
        {
          "internalType": "uint256",
          "name": "vaultId",
          "type": "uint256"
        }
      ],
      "stateMutability": "nonpayable",
      "type": "function"
    },
    {
      "inputs": [],
      "name": "context",
      "outputs": [
        {
          "internalType": "address",
          "name": "token0",
          "type": "address"
        },
        {
          "internalType": "address",
          "name": "token1",
          "type": "address"
        },
        {
          "internalType": "uint24",
          "name": "feeTier",
          "type": "uint24"
        },
        {
          "internalType": "address",
          "name": "positionManager",
          "type": "address"
        },
        {
          "internalType": "address",
          "name": "swapRouter",
          "type": "address"
        },
        {
          "internalType": "address",
          "name": "uniswapPool",
          "type": "address"
        },
        {
          "internalType": "bool",
          "name": "isMarginZero",
          "type": "bool"
        },
        {
          "components": [
            {
              "internalType": "uint256",
              "name": "totalDeposited",
              "type": "uint256"
            },
            {
              "internalType": "uint256",
              "name": "totalBorrowed",
              "type": "uint256"
            },
            {
              "internalType": "uint256",
              "name": "collateralScaler",
              "type": "uint256"
            },
            {
              "internalType": "uint256",
              "name": "debtScaler",
              "type": "uint256"
            }
          ],
          "internalType": "struct BaseToken.TokenState",
          "name": "tokenState0",
          "type": "tuple"
        },
        {
          "components": [
            {
              "internalType": "uint256",
              "name": "totalDeposited",
              "type": "uint256"
            },
            {
              "internalType": "uint256",
              "name": "totalBorrowed",
              "type": "uint256"
            },
            {
              "internalType": "uint256",
              "name": "collateralScaler",
              "type": "uint256"
            },
            {
              "internalType": "uint256",
              "name": "debtScaler",
              "type": "uint256"
            }
          ],
          "internalType": "struct BaseToken.TokenState",
          "name": "tokenState1",
          "type": "tuple"
        }
      ],
      "stateMutability": "view",
      "type": "function"
    },
    {
      "inputs": [
        {
          "internalType": "bytes[]",
          "name": "_data",
          "type": "bytes[]"
        }
      ],
      "name": "forceClose",
      "outputs": [],
      "stateMutability": "nonpayable",
      "type": "function"
    },
    {
      "inputs": [],
      "name": "getCurrentTick",
      "outputs": [
        {
          "internalType": "int24",
          "name": "tick",
          "type": "int24"
        }
      ],
      "stateMutability": "view",
      "type": "function"
    },
    {
      "inputs": [
        {
          "internalType": "bytes32",
          "name": "_rangeId",
          "type": "bytes32"
        }
      ],
      "name": "getDailyPremium",
      "outputs": [
        {
          "internalType": "uint256",
          "name": "",
          "type": "uint256"
        }
      ],
      "stateMutability": "view",
      "type": "function"
    },
    {
      "inputs": [],
      "name": "getIsMarginZero",
      "outputs": [
        {
          "internalType": "bool",
          "name": "",
          "type": "bool"
        }
      ],
      "stateMutability": "view",
      "type": "function"
    },
    {
      "inputs": [
        {
          "internalType": "uint256",
          "name": "_vaultId",
          "type": "uint256"
        }
      ],
      "name": "getPosition",
      "outputs": [
        {
          "components": [
            {
              "internalType": "uint256",
              "name": "collateral0",
              "type": "uint256"
            },
            {
              "internalType": "uint256",
              "name": "collateral1",
              "type": "uint256"
            },
            {
              "internalType": "uint256",
              "name": "debt0",
              "type": "uint256"
            },
            {
              "internalType": "uint256",
              "name": "debt1",
              "type": "uint256"
            },
            {
              "components": [
                {
                  "internalType": "bool",
                  "name": "isCollateral",
                  "type": "bool"
                },
                {
                  "internalType": "uint128",
                  "name": "liquidity",
                  "type": "uint128"
                },
                {
                  "internalType": "int24",
                  "name": "lowerTick",
                  "type": "int24"
                },
                {
                  "internalType": "int24",
                  "name": "upperTick",
                  "type": "int24"
                }
              ],
              "internalType": "struct DataType.LPT[]",
              "name": "lpts",
              "type": "tuple[]"
            }
          ],
          "internalType": "struct DataType.Position",
          "name": "position",
          "type": "tuple"
        }
      ],
      "stateMutability": "nonpayable",
      "type": "function"
    },
    {
      "inputs": [
        {
          "components": [
            {
              "internalType": "uint256",
              "name": "collateral0",
              "type": "uint256"
            },
            {
              "internalType": "uint256",
              "name": "collateral1",
              "type": "uint256"
            },
            {
              "internalType": "uint256",
              "name": "debt0",
              "type": "uint256"
            },
            {
              "internalType": "uint256",
              "name": "debt1",
              "type": "uint256"
            },
            {
              "components": [
                {
                  "internalType": "bool",
                  "name": "isCollateral",
                  "type": "bool"
                },
                {
                  "internalType": "uint128",
                  "name": "liquidity",
                  "type": "uint128"
                },
                {
                  "internalType": "int24",
                  "name": "lowerTick",
                  "type": "int24"
                },
                {
                  "internalType": "int24",
                  "name": "upperTick",
                  "type": "int24"
                }
              ],
              "internalType": "struct DataType.LPT[]",
              "name": "lpts",
              "type": "tuple[]"
            }
          ],
          "internalType": "struct DataType.Position",
          "name": "_position",
          "type": "tuple"
        },
        {
          "internalType": "uint256",
          "name": "_price",
          "type": "uint256"
        },
        {
          "internalType": "uint256",
          "name": "_slippageTorelance",
          "type": "uint256"
        },
        {
          "internalType": "uint256",
          "name": "_swapRatio",
          "type": "uint256"
        }
      ],
      "name": "getPositionUpdatesToClose",
      "outputs": [
        {
          "components": [
            {
              "internalType": "enum DataType.PositionUpdateType",
              "name": "positionUpdateType",
              "type": "uint8"
            },
            {
              "internalType": "bool",
              "name": "zeroForOne",
              "type": "bool"
            },
            {
              "internalType": "uint128",
              "name": "liquidity",
              "type": "uint128"
            },
            {
              "internalType": "int24",
              "name": "lowerTick",
              "type": "int24"
            },
            {
              "internalType": "int24",
              "name": "upperTick",
              "type": "int24"
            },
            {
              "internalType": "uint256",
              "name": "param0",
              "type": "uint256"
            },
            {
              "internalType": "uint256",
              "name": "param1",
              "type": "uint256"
            }
          ],
          "internalType": "struct DataType.PositionUpdate[]",
          "name": "positionUpdates",
          "type": "tuple[]"
        }
      ],
      "stateMutability": "view",
      "type": "function"
    },
    {
      "inputs": [
        {
          "components": [
            {
              "internalType": "uint256",
              "name": "collateral0",
              "type": "uint256"
            },
            {
              "internalType": "uint256",
              "name": "collateral1",
              "type": "uint256"
            },
            {
              "internalType": "uint256",
              "name": "debt0",
              "type": "uint256"
            },
            {
              "internalType": "uint256",
              "name": "debt1",
              "type": "uint256"
            },
            {
              "components": [
                {
                  "internalType": "bool",
                  "name": "isCollateral",
                  "type": "bool"
                },
                {
                  "internalType": "uint128",
                  "name": "liquidity",
                  "type": "uint128"
                },
                {
                  "internalType": "int24",
                  "name": "lowerTick",
                  "type": "int24"
                },
                {
                  "internalType": "int24",
                  "name": "upperTick",
                  "type": "int24"
                }
              ],
              "internalType": "struct DataType.LPT[]",
              "name": "lpts",
              "type": "tuple[]"
            }
          ],
          "internalType": "struct DataType.Position",
          "name": "_position",
          "type": "tuple"
        },
        {
          "internalType": "uint256",
          "name": "_price",
          "type": "uint256"
        },
        {
          "internalType": "uint256",
          "name": "_slippageTorelance",
          "type": "uint256"
        },
        {
          "internalType": "bool",
          "name": "_isQuoteZero",
          "type": "bool"
        }
      ],
      "name": "getPositionUpdatesToOpen",
      "outputs": [
        {
          "components": [
            {
              "internalType": "enum DataType.PositionUpdateType",
              "name": "positionUpdateType",
              "type": "uint8"
            },
            {
              "internalType": "bool",
              "name": "zeroForOne",
              "type": "bool"
            },
            {
              "internalType": "uint128",
              "name": "liquidity",
              "type": "uint128"
            },
            {
              "internalType": "int24",
              "name": "lowerTick",
              "type": "int24"
            },
            {
              "internalType": "int24",
              "name": "upperTick",
              "type": "int24"
            },
            {
              "internalType": "uint256",
              "name": "param0",
              "type": "uint256"
            },
            {
              "internalType": "uint256",
              "name": "param1",
              "type": "uint256"
            }
          ],
          "internalType": "struct DataType.PositionUpdate[]",
          "name": "positionUpdates",
          "type": "tuple[]"
        },
        {
          "internalType": "uint256",
          "name": "_buffer0",
          "type": "uint256"
        },
        {
          "internalType": "uint256",
          "name": "_buffer1",
          "type": "uint256"
        }
      ],
      "stateMutability": "view",
      "type": "function"
    },
    {
      "inputs": [],
      "name": "getPrice",
      "outputs": [
        {
          "internalType": "uint256",
          "name": "",
          "type": "uint256"
        }
      ],
      "stateMutability": "view",
      "type": "function"
    },
    {
      "inputs": [
        {
          "internalType": "bytes32",
          "name": "_rangeId",
          "type": "bytes32"
        }
      ],
      "name": "getRange",
      "outputs": [
        {
          "components": [
            {
              "internalType": "uint256",
              "name": "tokenId",
              "type": "uint256"
            },
            {
              "internalType": "int24",
              "name": "lowerTick",
              "type": "int24"
            },
            {
              "internalType": "int24",
              "name": "upperTick",
              "type": "int24"
            },
            {
              "internalType": "uint128",
              "name": "borrowedLiquidity",
              "type": "uint128"
            },
            {
              "internalType": "uint256",
              "name": "premiumGrowthForBorrower",
              "type": "uint256"
            },
            {
              "internalType": "uint256",
              "name": "premiumGrowthForLender",
              "type": "uint256"
            },
            {
              "internalType": "uint256",
              "name": "fee0Growth",
              "type": "uint256"
            },
            {
              "internalType": "uint256",
              "name": "fee1Growth",
              "type": "uint256"
            },
            {
              "internalType": "uint256",
              "name": "lastTouchedTimestamp",
              "type": "uint256"
            }
          ],
          "internalType": "struct DataType.PerpStatus",
          "name": "",
          "type": "tuple"
        }
      ],
      "stateMutability": "view",
      "type": "function"
    },
    {
      "inputs": [],
      "name": "getSqrtPrice",
      "outputs": [
        {
          "internalType": "uint160",
          "name": "sqrtPriceX96",
          "type": "uint160"
        }
      ],
      "stateMutability": "view",
      "type": "function"
    },
    {
      "inputs": [],
      "name": "getTWAP",
      "outputs": [
        {
          "internalType": "uint256",
          "name": "",
          "type": "uint256"
        }
      ],
      "stateMutability": "view",
      "type": "function"
    },
    {
      "inputs": [],
      "name": "getTWAPSqrtPrice",
      "outputs": [
        {
          "internalType": "uint160",
          "name": "sqrtPriceX96",
          "type": "uint160"
        }
      ],
      "stateMutability": "view",
      "type": "function"
    },
    {
      "inputs": [
        {
          "internalType": "uint256",
          "name": "_vaultId",
          "type": "uint256"
        }
      ],
      "name": "getVault",
      "outputs": [
        {
          "components": [
            {
              "internalType": "uint256",
              "name": "vaultId",
              "type": "uint256"
            },
            {
              "internalType": "address",
              "name": "owner",
              "type": "address"
            },
            {
              "internalType": "bool",
              "name": "isClosed",
              "type": "bool"
            },
            {
              "components": [
                {
                  "internalType": "uint256",
                  "name": "collateralAmountNotInMarket",
                  "type": "uint256"
                },
                {
                  "internalType": "uint256",
                  "name": "collateralAmount",
                  "type": "uint256"
                },
                {
                  "internalType": "uint256",
                  "name": "debtAmount",
                  "type": "uint256"
                }
              ],
              "internalType": "struct BaseToken.AccountState",
              "name": "balance0",
              "type": "tuple"
            },
            {
              "components": [
                {
                  "internalType": "uint256",
                  "name": "collateralAmountNotInMarket",
                  "type": "uint256"
                },
                {
                  "internalType": "uint256",
                  "name": "collateralAmount",
                  "type": "uint256"
                },
                {
                  "internalType": "uint256",
                  "name": "debtAmount",
                  "type": "uint256"
                }
              ],
              "internalType": "struct BaseToken.AccountState",
              "name": "balance1",
              "type": "tuple"
            },
            {
              "components": [
                {
                  "internalType": "bool",
                  "name": "isCollateral",
                  "type": "bool"
                },
                {
                  "internalType": "bytes32",
                  "name": "rangeId",
                  "type": "bytes32"
                },
                {
                  "internalType": "uint128",
                  "name": "liquidityAmount",
                  "type": "uint128"
                },
                {
                  "internalType": "uint256",
                  "name": "premiumGrowthLast",
                  "type": "uint256"
                },
                {
                  "internalType": "uint256",
                  "name": "fee0Last",
                  "type": "uint256"
                },
                {
                  "internalType": "uint256",
                  "name": "fee1Last",
                  "type": "uint256"
                }
              ],
              "internalType": "struct DataType.LPTState[]",
              "name": "lpts",
              "type": "tuple[]"
            }
          ],
          "internalType": "struct DataType.Vault",
          "name": "",
          "type": "tuple"
        }
      ],
      "stateMutability": "view",
      "type": "function"
    },
    {
      "inputs": [
        {
          "internalType": "uint256",
          "name": "_vaultId",
          "type": "uint256"
        }
      ],
      "name": "getVaultStatus",
      "outputs": [
        {
          "components": [
            {
              "components": [
                {
                  "internalType": "uint256",
                  "name": "collateralValue",
                  "type": "uint256"
                },
                {
                  "internalType": "uint256",
                  "name": "debtValue",
                  "type": "uint256"
                },
                {
                  "internalType": "int256",
                  "name": "premiumValue",
                  "type": "int256"
                }
              ],
              "internalType": "struct DataType.VaultStatusValue",
              "name": "values",
              "type": "tuple"
            },
            {
              "components": [
                {
                  "internalType": "uint256",
                  "name": "collateralAmount0",
                  "type": "uint256"
                },
                {
                  "internalType": "uint256",
                  "name": "collateralAmount1",
                  "type": "uint256"
                },
                {
                  "internalType": "uint256",
                  "name": "debtAmount0",
                  "type": "uint256"
                },
                {
                  "internalType": "uint256",
                  "name": "debtAmount1",
                  "type": "uint256"
                },
                {
                  "internalType": "uint256",
                  "name": "receivedTradeAmount0",
                  "type": "uint256"
                },
                {
                  "internalType": "uint256",
                  "name": "receivedTradeAmount1",
                  "type": "uint256"
                },
                {
                  "internalType": "uint256",
                  "name": "receivedPremium",
                  "type": "uint256"
                },
                {
                  "internalType": "uint256",
                  "name": "paidpremium",
                  "type": "uint256"
                }
              ],
              "internalType": "struct DataType.VaultStatusAmount",
              "name": "amounts",
              "type": "tuple"
            }
          ],
          "internalType": "struct DataType.VaultStatus",
          "name": "",
          "type": "tuple"
        }
      ],
      "stateMutability": "nonpayable",
      "type": "function"
    },
    {
      "inputs": [],
      "name": "lastTouchedTimestamp",
      "outputs": [
        {
          "internalType": "uint256",
          "name": "",
          "type": "uint256"
        }
      ],
      "stateMutability": "view",
      "type": "function"
    },
    {
      "inputs": [
        {
          "internalType": "uint256",
          "name": "_vaultId",
          "type": "uint256"
        },
        {
          "components": [
            {
              "internalType": "uint256",
              "name": "price",
              "type": "uint256"
            },
            {
              "internalType": "uint256",
              "name": "slippageTorelance",
              "type": "uint256"
            },
            {
              "internalType": "uint256",
              "name": "swapRatio",
              "type": "uint256"
            },
            {
              "internalType": "bool",
              "name": "swapAnyway",
              "type": "bool"
            }
          ],
          "internalType": "struct DataType.LiquidationOption",
          "name": "_liquidationOption",
          "type": "tuple"
        }
      ],
      "name": "liquidate",
      "outputs": [],
      "stateMutability": "nonpayable",
      "type": "function"
    },
    {
      "inputs": [
        {
          "internalType": "uint256",
          "name": "_vaultId",
          "type": "uint256"
        },
        {
          "components": [
            {
              "internalType": "enum DataType.PositionUpdateType",
              "name": "positionUpdateType",
              "type": "uint8"
            },
            {
              "internalType": "bool",
              "name": "zeroForOne",
              "type": "bool"
            },
            {
              "internalType": "uint128",
              "name": "liquidity",
              "type": "uint128"
            },
            {
              "internalType": "int24",
              "name": "lowerTick",
              "type": "int24"
            },
            {
              "internalType": "int24",
              "name": "upperTick",
              "type": "int24"
            },
            {
              "internalType": "uint256",
              "name": "param0",
              "type": "uint256"
            },
            {
              "internalType": "uint256",
              "name": "param1",
              "type": "uint256"
            }
          ],
          "internalType": "struct DataType.PositionUpdate[]",
          "name": "_positionUpdates",
          "type": "tuple[]"
        },
        {
          "internalType": "bool",
          "name": "_swapAnyway",
          "type": "bool"
        }
      ],
      "name": "liquidate",
      "outputs": [],
      "stateMutability": "nonpayable",
      "type": "function"
    },
    {
      "inputs": [
        {
          "internalType": "uint256",
          "name": "_vaultId",
          "type": "uint256"
        },
        {
          "components": [
            {
              "internalType": "uint256",
              "name": "collateral0",
              "type": "uint256"
            },
            {
              "internalType": "uint256",
              "name": "collateral1",
              "type": "uint256"
            },
            {
              "internalType": "uint256",
              "name": "debt0",
              "type": "uint256"
            },
            {
              "internalType": "uint256",
              "name": "debt1",
              "type": "uint256"
            },
            {
              "components": [
                {
                  "internalType": "bool",
                  "name": "isCollateral",
                  "type": "bool"
                },
                {
                  "internalType": "uint128",
                  "name": "liquidity",
                  "type": "uint128"
                },
                {
                  "internalType": "int24",
                  "name": "lowerTick",
                  "type": "int24"
                },
                {
                  "internalType": "int24",
                  "name": "upperTick",
                  "type": "int24"
                }
              ],
              "internalType": "struct DataType.LPT[]",
              "name": "lpts",
              "type": "tuple[]"
            }
          ],
          "internalType": "struct DataType.Position",
          "name": "_position",
          "type": "tuple"
        },
        {
          "components": [
            {
              "internalType": "bool",
              "name": "reduceOnly",
              "type": "bool"
            },
            {
              "internalType": "bool",
              "name": "swapAnyway",
              "type": "bool"
            },
            {
              "internalType": "bool",
              "name": "quoterMode",
              "type": "bool"
            },
            {
              "internalType": "bool",
              "name": "isQuoteZero",
              "type": "bool"
            }
          ],
          "internalType": "struct DataType.TradeOption",
          "name": "_tradeOption",
          "type": "tuple"
        },
        {
          "components": [
            {
              "internalType": "uint256",
              "name": "price",
              "type": "uint256"
            },
            {
              "internalType": "uint256",
              "name": "slippageTorelance",
              "type": "uint256"
            },
            {
              "internalType": "uint256",
              "name": "bufferRatio",
              "type": "uint256"
            },
            {
              "internalType": "uint256",
              "name": "maximumBufferAmount0",
              "type": "uint256"
            },
            {
              "internalType": "uint256",
              "name": "maximumBufferAmount1",
              "type": "uint256"
            },
            {
              "internalType": "bytes",
              "name": "metadata",
              "type": "bytes"
            }
          ],
          "internalType": "struct DataType.OpenPositionOption",
          "name": "_openPositionOptions",
          "type": "tuple"
        }
      ],
      "name": "openPosition",
      "outputs": [
        {
          "internalType": "uint256",
          "name": "vaultId",
          "type": "uint256"
        }
      ],
      "stateMutability": "nonpayable",
      "type": "function"
    },
    {
      "inputs": [],
      "name": "operator",
      "outputs": [
        {
          "internalType": "address",
          "name": "",
          "type": "address"
        }
      ],
      "stateMutability": "view",
      "type": "function"
    },
    {
      "inputs": [],
      "name": "oraclePeriod",
      "outputs": [
        {
          "internalType": "uint256",
          "name": "",
          "type": "uint256"
        }
      ],
      "stateMutability": "view",
      "type": "function"
    },
    {
      "inputs": [
        {
          "internalType": "uint256",
          "name": "_oraclePeriod",
          "type": "uint256"
        }
      ],
      "name": "setOperator",
      "outputs": [],
      "stateMutability": "nonpayable",
      "type": "function"
    },
    {
      "inputs": [
        {
          "internalType": "address",
          "name": "_newOperator",
          "type": "address"
        }
      ],
      "name": "setOperator",
      "outputs": [],
      "stateMutability": "nonpayable",
      "type": "function"
    },
    {
      "inputs": [
        {
          "components": [
            {
              "internalType": "uint256",
              "name": "baseRate",
              "type": "uint256"
            },
            {
              "internalType": "uint256",
              "name": "kinkRate",
              "type": "uint256"
            },
            {
              "internalType": "uint256",
              "name": "slope1",
              "type": "uint256"
            },
            {
              "internalType": "uint256",
              "name": "slope2",
              "type": "uint256"
            }
          ],
          "internalType": "struct InterestCalculator.IRMParams",
          "name": "_irmParams",
          "type": "tuple"
        },
        {
          "components": [
            {
              "internalType": "uint256",
              "name": "baseRate",
              "type": "uint256"
            },
            {
              "internalType": "uint256",
              "name": "kinkRate",
              "type": "uint256"
            },
            {
              "internalType": "uint256",
              "name": "slope1",
              "type": "uint256"
            },
            {
              "internalType": "uint256",
              "name": "slope2",
              "type": "uint256"
            }
          ],
          "internalType": "struct InterestCalculator.IRMParams",
          "name": "_premiumParams",
          "type": "tuple"
        }
      ],
      "name": "updateDRMParams",
      "outputs": [],
      "stateMutability": "nonpayable",
      "type": "function"
    },
    {
      "inputs": [
        {
          "components": [
            {
              "internalType": "uint256",
              "name": "baseRate",
              "type": "uint256"
            },
            {
              "internalType": "uint256",
              "name": "kinkRate",
              "type": "uint256"
            },
            {
              "internalType": "uint256",
              "name": "slope1",
              "type": "uint256"
            },
            {
              "internalType": "uint256",
              "name": "slope2",
              "type": "uint256"
            }
          ],
          "internalType": "struct InterestCalculator.IRMParams",
          "name": "_irmParams",
          "type": "tuple"
        }
      ],
      "name": "updateIRMParams",
      "outputs": [],
      "stateMutability": "nonpayable",
      "type": "function"
    },
    {
      "inputs": [
        {
          "internalType": "uint256",
          "name": "_vaultId",
          "type": "uint256"
        },
        {
          "components": [
            {
              "internalType": "enum DataType.PositionUpdateType",
              "name": "positionUpdateType",
              "type": "uint8"
            },
            {
              "internalType": "bool",
              "name": "zeroForOne",
              "type": "bool"
            },
            {
              "internalType": "uint128",
              "name": "liquidity",
              "type": "uint128"
            },
            {
              "internalType": "int24",
              "name": "lowerTick",
              "type": "int24"
            },
            {
              "internalType": "int24",
              "name": "upperTick",
              "type": "int24"
            },
            {
              "internalType": "uint256",
              "name": "param0",
              "type": "uint256"
            },
            {
              "internalType": "uint256",
              "name": "param1",
              "type": "uint256"
            }
          ],
          "internalType": "struct DataType.PositionUpdate[]",
          "name": "_positionUpdates",
          "type": "tuple[]"
        },
        {
          "internalType": "uint256",
          "name": "_buffer0",
          "type": "uint256"
        },
        {
          "internalType": "uint256",
          "name": "_buffer1",
          "type": "uint256"
        },
        {
          "components": [
            {
              "internalType": "bool",
              "name": "reduceOnly",
              "type": "bool"
            },
            {
              "internalType": "bool",
              "name": "swapAnyway",
              "type": "bool"
            },
            {
              "internalType": "bool",
              "name": "quoterMode",
              "type": "bool"
            },
            {
              "internalType": "bool",
              "name": "isQuoteZero",
              "type": "bool"
            }
          ],
          "internalType": "struct DataType.TradeOption",
          "name": "_tradeOption",
          "type": "tuple"
        },
        {
          "internalType": "bytes",
          "name": "_metadata",
          "type": "bytes"
        }
      ],
      "name": "updatePosition",
      "outputs": [
        {
          "internalType": "uint256",
          "name": "vaultId",
          "type": "uint256"
        }
      ],
      "stateMutability": "nonpayable",
      "type": "function"
    },
    {
      "inputs": [],
      "name": "vaultIdCount",
      "outputs": [
        {
          "internalType": "uint256",
          "name": "",
          "type": "uint256"
        }
      ],
      "stateMutability": "view",
      "type": "function"
    },
    {
      "inputs": [
        {
          "internalType": "uint256",
          "name": "",
          "type": "uint256"
        }
      ],
      "name": "vaults",
      "outputs": [
        {
          "internalType": "uint256",
          "name": "vaultId",
          "type": "uint256"
        },
        {
          "internalType": "address",
          "name": "owner",
          "type": "address"
        },
        {
          "internalType": "bool",
          "name": "isClosed",
          "type": "bool"
        },
        {
          "components": [
            {
              "internalType": "uint256",
              "name": "collateralAmountNotInMarket",
              "type": "uint256"
            },
            {
              "internalType": "uint256",
              "name": "collateralAmount",
              "type": "uint256"
            },
            {
              "internalType": "uint256",
              "name": "debtAmount",
              "type": "uint256"
            }
          ],
          "internalType": "struct BaseToken.AccountState",
          "name": "balance0",
          "type": "tuple"
        },
        {
          "components": [
            {
              "internalType": "uint256",
              "name": "collateralAmountNotInMarket",
              "type": "uint256"
            },
            {
              "internalType": "uint256",
              "name": "collateralAmount",
              "type": "uint256"
            },
            {
              "internalType": "uint256",
              "name": "debtAmount",
              "type": "uint256"
            }
          ],
          "internalType": "struct BaseToken.AccountState",
          "name": "balance1",
          "type": "tuple"
        }
      ],
      "stateMutability": "view",
      "type": "function"
    }
  ],
  "transactionHash": "0xce66a9a9b22fed5d1c43a48c81f18cdb3147c3e3c6eed46a0d898ebea1760751",
  "args": [
    {
      "feeTier": 500,
      "token0": "0x6466232Bf77e70bEa2535393DC9B2b0d94ea3C22",
      "token1": "0xF61Cffd6071a8DB7cD5E8DF1D3A5450D9903cF1c",
      "isMarginZero": false
    },
    "0xC36442b4a4522E871399CD717aBDD847Ab11FE88",
    "0x1F98431c8aD98523631AE4a59f267346ea31F984",
    "0xE592427A0AEce92De3Edee1F18E0157C05861564"
  ],
  "solcInputHash": "c126093cd6d293804fd2d4f4f0a644a3",
  "bytecode": "0x60806040523480156200001157600080fd5b50604051620061ee380380620061ee833981016040819052620000349162000512565b835160078054602080880151600680546001600160a01b03199081166001600160a01b0393841617918290556040808c015162ffffff60a01b19909616600160a01b62ffffff998a16810291909117831696851696909617968790556060808d0151600a805460ff60a01b191691151589029190911790556008805484168d8716179055600980549093168a861617909255805191820181529183168152918516828401529290930490931690820152859185918591859190620001059084908390620003b0811b62001ad817901c565b600a80546001600160a01b0319166001600160a01b039283161790556001600490815560065460405163095ea7b360e01b815292169163095ea7b391620001539188916000199101620005e1565b602060405180830381600087803b1580156200016e57600080fd5b505af115801562000183573d6000803e3d6000fd5b505050506040513d601f19601f82011682018060405250810190620001a99190620004ee565b5060075460405163095ea7b360e01b81526001600160a01b039091169063095ea7b390620001e090879060001990600401620005e1565b602060405180830381600087803b158015620001fb57600080fd5b505af115801562000210573d6000803e3d6000fd5b505050506040513d601f19601f82011682018060405250810190620002369190620004ee565b5060065460405163095ea7b360e01b81526001600160a01b039091169063095ea7b3906200026d90859060001990600401620005e1565b602060405180830381600087803b1580156200028857600080fd5b505af11580156200029d573d6000803e3d6000fd5b505050506040513d601f19601f82011682018060405250810190620002c39190620004ee565b5060075460405163095ea7b360e01b81526001600160a01b039091169063095ea7b390620002fa90859060001990600401620005e1565b602060405180830381600087803b1580156200031557600080fd5b505af11580156200032a573d6000803e3d6000fd5b505050506040513d601f19601f82011682018060405250810190620003509190620004ee565b506200036b6006600501620004a860201b62001bbc1760201c565b620003856006600901620004a860201b62001bbc1760201c565b5050426002555050602080546001600160a01b031916331790555050603c60015550620005fa915050565b600081602001516001600160a01b031682600001516001600160a01b031610620003d957600080fd5b50805160208083015160409384015184516001600160a01b0394851681850152939091168385015262ffffff166060808401919091528351808403820181526080840185528051908301207fff0000000000000000000000000000000000000000000000000000000000000060a085015294901b6001600160601b03191660a183015260b58201939093527fe34f199b19b2b4f47f68442619d555527d244f78a3297ea89325f843f87b8b5460d5808301919091528251808303909101815260f5909101909152805191012090565b670de0b6b3a764000060028201819055600390910155565b80516001600160a01b0381168114620004d857600080fd5b919050565b80518015158114620004d857600080fd5b60006020828403121562000500578081fd5b6200050b82620004dd565b9392505050565b60008060008084860360e081121562000529578384fd5b608081121562000537578384fd5b50604051608081016001600160401b03811182821017156200055557fe5b604052855162ffffff811681146200056b578485fd5b81526200057b60208701620004c0565b60208201526200058e60408701620004c0565b6040820152620005a160608701620004dd565b60608201529350620005b660808601620004c0565b9250620005c660a08601620004c0565b9150620005d660c08601620004c0565b905092959194509250565b6001600160a01b03929092168252602082015260400190565b615be4806200060a6000396000f3fe608060405234801561001057600080fd5b50600436106101e55760003560e01c8063687157731161010f578063b3ab15fb116100a2578063e1af1a3611610071578063e1af1a361461041a578063e6b94fc71461042d578063eb02c30114610440578063f64c90df14610460576101e5565b8063b3ab15fb146103c2578063cb3c9a53146103d5578063cf1d121b146103dd578063d0496d6a146103fd576101e5565b806398d5fdca116100de57806398d5fdca146103725780639b5e6b7e1461037a5780639e03060b1461038d578063b35b7942146103af576101e5565b8063687157731461031357806386e6862d146103265780638c64ea4a1461032e5780639403b63414610352576101e5565b80633e1297151161018757806353aad1d91161015657806353aad1d9146102ce578063570ca735146102e357806362e0929f146102f857806365b5f6e314610300576101e5565b80633e1297151461027357806342189c8f1461029357806349ebb77d1461029b5780634f7cbc79146102bb576101e5565b80631cb05304116101c35780631cb053041461023d57806326d8d4f914610250578063275892a21461025857806333a9d06014610260576101e5565b8063013216f5146101ea578063059430021461021357806305ecd00314610228575b600080fd5b6101fd6101f836600461483b565b610473565b60405161020a9190615688565b60405180910390f35b610226610221366004614d8b565b610510565b005b610230610545565b60405161020a919061552b565b61023061024b3660046148c6565b610574565b61023061059a565b6102306105a0565b61022661026e366004614891565b6105a6565b61028661028136600461483b565b610612565b60405161020a91906154f9565b610230610626565b6102ae6102a936600461483b565b61062c565b60405161020a91906157b1565b6102266102c936600461483b565b610811565b6102d6610840565b60405161020a919061551d565b6102eb6108c9565b60405161020a9190615440565b6102866108d8565b61022661030e36600461476f565b6108e8565b610226610321366004614876565b610971565b6102eb6109b9565b61034161033c36600461483b565b610a42565b60405161020a9594939291906159f4565b61036561036036600461483b565b610abe565b60405161020a9190615831565b610230610bff565b61023061038836600461483b565b610c1b565b6103a061039b36600461499a565b610cfd565b60405161020a939291906154d4565b6102266103bd366004614ca4565b610f53565b6102266103d0366004614753565b6113e0565b6102eb61142c565b6103f06103eb3660046149fa565b6114ca565b60405161020a91906154c1565b6104056116ff565b60405161020a99989796959493929190615454565b610230610428366004614ef9565b61179a565b61023061043b366004614cfc565b6117d8565b61045361044e36600461483b565b6119e3565b60405161020a919061570f565b61023061046e366004614e0e565b6119fd565b61047b613f89565b50600081815260036020818152604092839020835161012081018552815481526001820154600281810b810b810b9483019490945263010000008104840b840b840b95820195909552600160301b9094046001600160801b031660608501529081015460808401529081015460a0830152600481015460c0830152600581015460e0830152600601546101008201525b919050565b600061052f61051e846119e3565b8351602085015160408601516114ca565b905061054083828460600151610f53565b505050565b600a5460009061056f90600160a01b900460ff1661056161142c565b6001600160a01b0316611bd4565b905090565b60006105948261058261142c565b600a54600160a01b900460ff16611c9c565b92915050565b60045481565b60025481565b6020546001600160a01b031633146105d95760405162461bcd60e51b81526004016105d09061561f565b60405180910390fd5b8151601b55602080830151601c55604080840151601d55606093840151601e558251601755908201516018558101516019550151601a55565b600061061d82611cd3565b61059482611ed8565b60015481565b610634613fe4565b600061063e6109b9565b905061064983611cd3565b6000838152600560208181526040808420815160c0810183528154815260018201546001600160a01b03811682860152600160a01b900460ff1615158184015282516060808201855260028401548252600384015482870152600484015482860152808301919091528351908101845294820154855260068201548585015260078201548584015260808101949094526008810180548351818602810186019094528084529495919460a08701949192909184015b828210156107745760008481526020908190206040805160c08101825260068602909201805460ff16151583526001808201548486015260028201546001600160801b03169284019290925260038101546060840152600481015460808401526005015460a083015290835290920191016106fe565b50505091525050604051632e22696560e11b815273F4dadEFBE891FF08305226c1129ad972563Ea45C91635c44d2ca916107b991906003906006908790600401615902565b6101606040518083038186803b1580156107d257600080fd5b505af41580156107e6573d6000803e3d6000fd5b505050506040513d601f19601f8201168201806040525081019061080a9190614a4b565b9392505050565b6020546001600160a01b0316331461083b5760405162461bcd60e51b81526004016105d09061561f565b600155565b600a5460408051633850c7bd60e01b815290516000926001600160a01b031691633850c7bd9160048281019260e0929190829003018186803b15801561088557600080fd5b505afa158015610899573d6000803e3d6000fd5b505050506040513d601f19601f820116820180604052508101906108bd9190614b85565b50939695505050505050565b6020546001600160a01b031681565b600a54600160a01b900460ff1690565b6020546001600160a01b031633146109125760405162461bcd60e51b81526004016105d09061561f565b60005b815181101561096d5760008083838151811061092d57fe5b60200260200101518060200190518101906109489190614c60565b9150915061095582611cd3565b6109628282600080611fa3565b505050600101610915565b5050565b6020546001600160a01b0316331461099b5760405162461bcd60e51b81526004016105d09061561f565b80516013556020810151601455604081015160155560600151601655565b600a5460408051633850c7bd60e01b815290516000926001600160a01b031691633850c7bd9160048281019260e0929190829003018186803b1580156109fe57600080fd5b505afa158015610a12573d6000803e3d6000fd5b505050506040513d601f19601f82011682018060405250810190610a369190614b85565b50949695505050505050565b600560208181526000928352604092839020805460018201548551606080820188526002850154825260038501548287015260048501548289015287519081018852958401548652600684015494860194909452600790920154948401949094526001600160a01b03811692600160a01b90910460ff16919085565b610ac6614009565b6000828152600560208181526040808420815160c0810183528154815260018201546001600160a01b03811682860152600160a01b900460ff1615158184015282516060808201855260028401548252600384015482870152600484015482860152808301919091528351908101845294820154855260068201548585015260078201548584015260808101949094526008810180548351818602810186019094528084529495919460a08701949192909184015b82821015610bf15760008481526020908190206040805160c08101825260068602909201805460ff16151583526001808201548486015260028201546001600160801b03169284019290925260038101546060840152600481015460808401526005015460a08301529083529092019101610b7b565b505050915250909392505050565b600a5460009061056f90600160a01b900460ff166105616109b9565b60408051610120810182526006546001600160a01b039081168252600754808216602080850191909152600160a01b9182900462ffffff168486015260085483166060808601919091526009548416608080870191909152600a5494851660a08701529290930460ff16151560c085015284518083018652600b548152600c5481830152600d5481870152600e548185015260e085015284519182018552600f5482526010548282015260115482860152601254928201929092526101008301526000848152600390915291822061059491601791610cf86109b9565b612143565b60606000806000734Fe445408Ba708F42A7E62716aA939455A4E638D638af272d8896040518263ffffffff1660e01b8152600401610d3b91906156fc565b60006040518083038186803b158015610d5357600080fd5b505af4158015610d67573d6000803e3d6000fd5b505050506040513d6000823e601f3d908101601f19168201604052610d8f91908101906147f7565b9094509050600080734Fe445408Ba708F42A7E62716aA939455A4E638D638303e8cb8b610dba6109b9565b6040518363ffffffff1660e01b8152600401610dd7929190615787565b604080518083038186803b158015610dee57600080fd5b505af4158015610e02573d6000803e3d6000fd5b505050506040513d601f19601f82011682018060405250810190610e269190614853565b915091508615610ebd576000610e3d828b8b6122a9565b90506000821315610eaf576040805160e0810190915280600a81526001602082015260006040820181905260608201819052608082015260a0810184905260c0018290528751889086908110610e8f57fe5b6020908102919091010152610ea481846122fd565b955060009450610eb7565b829550600094505b50610f46565b6000610eca838b8b612362565b90506000831315610f3c576040805160e0810190915280600a81526000602082018190526040820181905260608201819052608082015260a0810185905260c0018290528751889086908110610f1c57fe5b602090810291909101015260009550610f3581836122fd565b9450610f44565b600095508194505b505b5050509450945094915050565b610f5c83611cd3565b610f6583611ed8565b610f815760405162461bcd60e51b81526004016105d09061556d565b600a54600154604051632b44ebb960e21b8152600092730fdb9aF7Be1e5BD282679B57317E0cd257C6A1629263ad13aee492610fca926001600160a01b03169190600401615504565b604080518083038186803b158015610fe157600080fd5b505af4158015610ff5573d6000803e3d6000fd5b505050506040513d601f19601f820116820180604052508101906110199190614c1b565b506000858152600560208181526040808420815160c0810183528154815260018201546001600160a01b03811682860152600160a01b900460ff16151581840152825160608082018552600284015482526003840154828701526004840154828601528083019190915283519081018452948201548552600682015485850152600782015485840152608081019490945260088101805483518186028101860190945280845296975094959394909360a0860193879084015b828210156111485760008481526020908190206040805160c08101825260068602909201805460ff16151583526001808201548486015260028201546001600160801b03169284019290925260038101546060840152600481015460808401526005015460a083015290835290920191016110d2565b5050509152505060405163571e620160e11b815273F4dadEFBE891FF08305226c1129ad972563Ea45C9163ae3cc4029161118d91906003906006908890600401615902565b60206040518083038186803b1580156111a557600080fd5b505af41580156111b9573d6000803e3d6000fd5b505050506040513d601f19601f820116820180604052508101906111dd9190614c48565b905060006111f0868660c8850487611fa3565b6000878152600560208181526040808420815160c0810183528154815260018201546001600160a01b03811682860152600160a01b900460ff1615158184015282516060808201855260028401548252600384015482870152600484015482860152808301919091528351908101845294820154855260068201548585015260078201548584015260808101949094526008810180548351818602810186019094528084529697509395909460a0870194929384015b8282101561131c5760008481526020908190206040805160c08101825260068602909201805460ff16151583526001808201548486015260028201546001600160801b03169284019290925260038101546060840152600481015460808401526005015460a083015290835290920191016112a6565b5050509152505060405163571e620160e11b815273F4dadEFBE891FF08305226c1129ad972563Ea45C9163ae3cc4029161136191906003906006908990600401615902565b60206040518083038186803b15801561137957600080fd5b505af415801561138d573d6000803e3d6000fd5b505050506040513d601f19601f820116820180604052508101906113b19190614c48565b156113ce5760405162461bcd60e51b81526004016105d090615551565b6113d83382612395565b505050505050565b6020546001600160a01b0316331461140a5760405162461bcd60e51b81526004016105d09061561f565b602080546001600160a01b0319166001600160a01b0392909216919091179055565b600a54600154604051632b44ebb960e21b8152600092730fdb9aF7Be1e5BD282679B57317E0cd257C6A1629263ad13aee492611475926001600160a01b03169190600401615504565b604080518083038186803b15801561148c57600080fd5b505af41580156114a0573d6000803e3d6000fd5b505050506040513d601f19601f820116820180604052508101906114c49190614c1b565b50919050565b60606000734Fe445408Ba708F42A7E62716aA939455A4E638D631039a4f3876040518263ffffffff1660e01b815260040161150591906156fc565b60006040518083038186803b15801561151d57600080fd5b505af4158015611531573d6000803e3d6000fd5b505050506040513d6000823e601f3d908101601f1916820160405261155991908101906147f7565b9092509050600080734Fe445408Ba708F42A7E62716aA939455A4E638D6328b29bee896115846109b9565b6040518363ffffffff1660e01b81526004016115a1929190615787565b604080518083038186803b1580156115b857600080fd5b505af41580156115cc573d6000803e3d6000fd5b505050506040513d601f19601f820116820180604052508101906115f09190614853565b91509150600082121561167857600061160d8360000389896123cf565b6040805160e08101909152909150806009815260016020820152600060408201819052606082018190526080820181905260a090910190606490869003890204815260200160648389020481525085858151811061166757fe5b6020026020010181905250506116f4565b60008112156116f4576000611691826000038989612402565b6040805160e08101825260098152600060208201819052918101829052606081018290526080810182905291925060a082019060649085900389020481526020016064838902048152508585815181106116e757fe5b6020026020010181905250505b505050949350505050565b600654600754600854600954600a546040805160808082018352600b548252600c54602080840191909152600d5483850152600e5460608085019190915284519283018552600f5483526010549183019190915260115493820193909352601254928101929092526001600160a01b039687169680871696600160a01b9081900462ffffff169682169582169491821693910460ff16919089565b6000806117ba6117a9866119e3565b8451602086015160408701516114ca565b90506117cf85826000808888606001516117d8565b95945050505050565b60006117e387611cd3565b60006117f3888560400151612435565b9092509050851561181657600654611816906001600160a01b0316333089612515565b841561183457600754611834906001600160a01b0316333088612515565b600080734310c279228Cb1f8d5CEb725eBDf15cf4526a773636728565784600660038d8b6040518663ffffffff1660e01b8152600401611878959493929190615947565b604080518083038186803b15801561188f57600080fd5b505af41580156118a3573d6000803e3d6000fd5b505050506040513d601f19601f820116820180604052508101906118c79190614853565b915091508560400151156118df576118df8282612665565b6118e884611ed8565b156119055760405162461bcd60e51b81526004016105d0906155a6565b818812156119255760405162461bcd60e51b81526004016105d0906155e7565b808712156119455760405162461bcd60e51b81526004016105d090615603565b8188131561196d5760065461196d906001600160a01b0316336119688b86612676565b6126db565b8087131561199057600754611990906001600160a01b0316336119688a85612676565b7fabc710e8ab5c8f4ea5d70ef0f4c50f12dd4804fa7e04ce65aa8c813197b64bea8483836119bc6109b9565b896040516119ce959493929190615a2d565b60405180910390a15050509695505050505050565b6119eb614056565b6119f482611cd3565b61059482612829565b600080600080611a1b87866000015187602001518960600151610cfd565b92509250925060648560400151830281611a3157fe5b049150846060015160001480611a4b575081856060015110155b611a675760405162461bcd60e51b81526004016105d090615534565b60808501511580611a7c575080856080015110155b611a985760405162461bcd60e51b81526004016105d090615589565b611aca888460648860400151860281611aad57fe5b0460648960400151860281611abe57fe5b048a8a60a001516117d8565b93505050505b949350505050565b600081602001516001600160a01b031682600001516001600160a01b031610611b0057600080fd5b50805160208083015160409384015184516001600160a01b0394851681850152939091168385015262ffffff166060808401919091528351808403820181526080840185528051908301206001600160f81b031960a085015294901b6bffffffffffffffffffffffff191660a183015260b58201939093527fe34f199b19b2b4f47f68442619d555527d244f78a3297ea89325f843f87b8b5460d5808301919091528251808303909101815260f5909101909152805191012090565b670de0b6b3a764000060028201819055600390910155565b6000670de0b6b3a76400008315611c3c57611bfd838483600160c01b81611bf757fe5b046129f5565b915081611c1c576ec097ce7bc90715b34b9f1000000000915050610594565b816ec097ce7bc90715b34b9f100000000081611c3457fe5b049150611c5d565b600160601b81611c518586600160601b6129f5565b0281611c5957fe5b0491505b6ec097ce7bc90715b34b9f1000000000821115611c8b576ec097ce7bc90715b34b9f10000000009150611c95565b81611c9557600191505b5092915050565b600080611caa858585612aa4565b90506000611cb9868686612bd1565b9150508160648281611cc757fe5b05039695505050505050565b6000818152600560205260408120905b6008820154811015611e0a5760408051610120810182526006546001600160a01b03908116825260075480821660208085019190915262ffffff600160a01b9283900416848601526008805484166060808701919091526009548516608080880191909152600a5495861660a088015260ff9490950493909316151560c086015285518085018752600b548152600c5481840152600d5481880152600e548185015260e086015285519384018652600f5484526010549184019190915260115494830194909452601254908201526101008201529083018054611e0292601792909160039160009187908110611dd557fe5b9060005260206000209060060201600101548152602001908152602001600020611dfd6109b9565b612d81565b600101611ce3565b506040805160808101825260135481526014546020820152601554918101919091526016546060820152600254611e4391600691612ec5565b600255604051633925559360e11b8152734310c279228Cb1f8d5CEb725eBDf15cf4526a7739063724aab2690611e83906006908590600390600401615672565b604080518083038186803b158015611e9a57600080fd5b505af4158015611eae573d6000803e3d6000fd5b505050506040513d601f19601f82011682018060405250810190611ed29190614853565b50505050565b600a54600154604051632b44ebb960e21b81526000928392730fdb9aF7Be1e5BD282679B57317E0cd257C6A1629263ad13aee492611f24926001600160a01b0390911691600401615504565b604080518083038186803b158015611f3b57600080fd5b505af4158015611f4f573d6000803e3d6000fd5b505050506040513d601f19601f82011682018060405250810190611f739190614c1b565b5090506000611f98611f8485612829565b600a548490600160a01b900460ff16611c9c565b600012949350505050565b6000611fae85611cd3565b600085815260056020908152604080832081516080810183526001815286151593810193909352828201849052600a54600160a01b900460ff16151560608401529051636728565760e01b81529092918291734310c279228Cb1f8d5CEb725eBDf15cf4526a773916367285657916120339187916006916003918e9190600401615947565b604080518083038186803b15801561204a57600080fd5b505af415801561205e573d6000803e3d6000fd5b505050506040513d601f19601f820116820180604052508101906120829190614853565b60009182039350810391508212156120ac5760405162461bcd60e51b81526004016105d0906155e7565b80600013156120cd5760405162461bcd60e51b81526004016105d090615603565b600a54600160a01b900460ff16156120f2576120e98287612fff565b94509150612101565b6120fc8187612fff565b945090505b816000121561211d5761211b600b6002850184600061301f565b505b80600012156116f457612137600f6005850183600061301f565b50505050949350505050565b6001820154600090600160301b90046001600160801b03161561229e57600061216c858561307e565b60a086015160018601549192506000916122299161219c918a9190600281810b9163010000009004900b8761311b565b6040805161012081018252885481526001890154600281810b810b810b602084015263010000008204810b810b810b93830193909352600160301b90046001600160801b03166060820152908801546080820152600388015460a0820152600488015460c0820152600588015460e0820152600688015461010082015261222490899061337a565b613421565b905060006122908760c001516122758a6004016040518060800160405290816000820154815260200160018201548152602001600282015481526020016003820154815250508661343e565b60018901548890600281810b9163010000009004900b6134b3565b919091019250611ad0915050565b506000949350505050565b600a54600090600160a01b900460ff16156122df57600061271083810185025b04905064e8d4a510008582025b0491505061080a565b600061271083810385025b049050808564e8d4a5100002816122d657fe5b60008282018183128015906123125750838112155b80612327575060008312801561232757508381125b61080a5760405162461bcd60e51b8152600401808060200182810382526021815260200180615b496021913960400191505060405180910390fd5b600a54600090600160a01b900460ff161561238657600061271083810385026122ea565b600061271083810185026122c9565b600a5461096d90600160a01b900460ff166123bb576007546001600160a01b03166123c8565b6006546001600160a01b03165b83836126db565b600a54600090600160a01b900460ff16156123f357600061271083810185026122ea565b600061271083810385026122c9565b600a54600090600160a01b900460ff161561242657600061271083810385026122c9565b600061271083810185026122ea565b600080836124ba576004805460018082019092556000818152600560205260409081902082815590920180546001600160a01b03191633179081905591519093507fbf3e9c93de94306b70ac5b9411edf475545815333bf651b894b9eada6482c594916124ad9185916001600160a01b0316906159dd565b60405180910390a16124fe565b6000848152600560205260409020600101548492506001600160a01b03163314806124e25750825b6124fe5760405162461bcd60e51b81526004016105d090615656565b5060008181526005602052604090205b9250929050565b604080516001600160a01b0385811660248301528481166044830152606480830185905283518084039091018152608490920183526020820180516001600160e01b03166323b872dd60e01b178152925182516000948594938a169392918291908083835b602083106125995780518252601f19909201916020918201910161257a565b6001836020036101000a0380198251168184511680821785525050505050509050019150506000604051808303816000865af19150503d80600081146125fb576040519150601f19603f3d011682016040523d82523d6000602084013e612600565b606091505b509150915081801561262e57508051158061262e575080806020019051602081101561262b57600080fd5b50515b6113d8576040805162461bcd60e51b815260206004820152600360248201526229aa2360e91b604482015290519081900360640190fd5b602051828152816020820152604081fd5b600081830381831280159061268b5750838113155b806126a057506000831280156126a057508381135b61080a5760405162461bcd60e51b8152600401808060200182810382526024815260200180615b8b6024913960400191505060405180910390fd5b604080516001600160a01b038481166024830152604480830185905283518084039091018152606490920183526020820180516001600160e01b031663a9059cbb60e01b1781529251825160009485949389169392918291908083835b602083106127575780518252601f199092019160209182019101612738565b6001836020036101000a0380198251168184511680821785525050505050509050019150506000604051808303816000865af19150503d80600081146127b9576040519150601f19603f3d011682016040523d82523d6000602084013e6127be565b606091505b50915091508180156127ec5750805115806127ec57508080602001905160208110156127e957600080fd5b50515b612822576040805162461bcd60e51b815260206004820152600260248201526114d560f21b604482015290519081900360640190fd5b5050505050565b612831614056565b6000828152600560208181526040808420815160c0810183528154815260018201546001600160a01b03811682860152600160a01b900460ff161515818401528251606080820185526002840154825260038401548287015260048401548286015280830191909152835190810184529482015485526006820154858501526007820154858401526080810194909452600881018054835181860281018601909452808452919360a08601939290879084015b8282101561295a5760008481526020908190206040805160c08101825260068602909201805460ff16151583526001808201548486015260028201546001600160801b03169284019290925260038101546060840152600481015460808401526005015460a083015290835290920191016128e4565b505050915250506040516349ad1ba560e01b815290915073F4dadEFBE891FF08305226c1129ad972563Ea45C906349ad1ba5906129a19084906003906006906004016158d8565b60006040518083038186803b1580156129b957600080fd5b505af41580156129cd573d6000803e3d6000fd5b505050506040513d6000823e601f3d908101601f1916820160405261080a91908101906148f8565b6000808060001985870986860292508281109083900303905080612a2b5760008411612a2057600080fd5b50829004905061080a565b808411612a3757600080fd5b6000848688096000868103871696879004966002600389028118808a02820302808a02820302808a02820302808a02820302808a02820302808a02909103029181900381900460010186841190950394909402919094039290920491909117919091029150509392505050565b6001600160ff1b036305f5e1006001600160a01b03630554c99f85028116829004916306a9fc0786029091160460005b866080015151811015612b8f57600087608001518281518110612af357fe5b602002602001015190508060000151612b85576000612b286002836040015184606001510160020b81612b2257fe5b0561354b565b9050846001600160a01b0316816001600160a01b03161080612b5b5750806001600160a01b0316846001600160a01b0316105b15612b67575050612b87565b6000612b748a838a61387d565b905080871315612b82578096505b50505b505b600101612ad4565b506000612b9d87838761387d565b905080841315612bab578093505b506000612bb987848761387d565b905080841315612bc7578093505b5050509392505050565b8251602084015160408501516060860151600093849390929091845b896080015151811015612d0c5760008a608001518281518110612c0c57fe5b602002602001015190506000612c25826040015161354b565b90506000612c36836060015161354b565b8351909150158015612c5a57508b6001600160a01b0316826001600160a01b031611155b8015612c785750806001600160a01b03168c6001600160a01b031611155b15612cc957600160601b612c8f846040015161354b565b612c9c856060015161354b565b0384602001516001600160801b0316026001600160a01b031681612cbc57fe5b0485019450505050612d04565b600080612cdc8e85858860200151613899565b8651919350915015612cf5579881019897880197612cfe565b96810196958601955b50505050505b600101612bed565b506000612d22888a6001600160a01b0316611bd4565b90508715612d5157670de0b6b3a76400008482020485019650670de0b6b3a76400008282020483019550612d74565b83670de0b6b3a76400008683020401965081670de0b6b3a7640000848302040195505b5050505050935093915050565b81600601544211612d9157611ed2565b6001820154600160301b90046001600160801b031615612e9557600062015180612dbd86868686612143565b846006015442030281612dcc57fe5b049050612de681846002015461393590919063ffffffff16565b6002848101829055600185015460408051610120810182528754815282840b840b840b602082015263010000008304840b840b90930b90830152600160301b90046001600160801b0316606082018190526080820192909252600385015460a0820152600485015460c0820152600585015460e08201526006850154610100820152612e8e91612e8391849190612e7e90899061398f565b6139b1565b600385015490613935565b6003840155505b60a08301516001830154612eb9918691600281810b9163010000009004900b6139c7565b42600683015550505050565b6000814211612ed557508061080a565b604080516101208101825285546001600160a01b0390811682526001870154808216602080850191909152600160a01b9182900462ffffff16848601526002890154831660608086019190915260038a0154841660808087019190915260048b015494851660a08701529290930460ff16151560c08501528451808301865260058a0154815260068a01548183015260078a01548187015260088a01548185015260e08501528451918201855260098901548252600a89015490820152600b88015493810193909352600c870154908301526101008101919091526000906301e1338090612fcd908690612fc890613bae565b61343e565b8442030281612fd857fe5b049050612fe86005860182613bea565b612ff56009860182613bea565b5042949350505050565b6000808284106130145750508082038161250e565b50600090508261250e565b600081156130685761303e83670de0b6b3a764000087600201546139b1565b60018501549091506130509082613935565b600185015584546130619082613935565b8555611ad0565b83546130749084613935565b8455949350505050565b6001810154604080516101208101825283548152600283810b810b810b602083015263010000008404810b810b810b92820192909252600160301b9092046001600160801b031660608301819052908301546080830152600383015460a0830152600483015460c0830152600583015460e0830152600683015461010083015260009161080a9190670de0b6b3a764000090612e7e90879061398f565b600080856001600160a01b031663f30583996040518163ffffffff1660e01b815260040160206040518083038186803b15801561315757600080fd5b505afa15801561316b573d6000803e3d6000fd5b505050506040513d601f19601f8201168201806040525081019061318f9190614c48565b90506000866001600160a01b031663461413196040518163ffffffff1660e01b815260040160206040518083038186803b1580156131cc57600080fd5b505afa1580156131e0573d6000803e3d6000fd5b505050506040513d601f19601f820116820180604052508101906132049190614c48565b90506000876001600160a01b0316633850c7bd6040518163ffffffff1660e01b815260040160e06040518083038186803b15801561324157600080fd5b505afa158015613255573d6000803e3d6000fd5b505050506040513d601f19601f820116820180604052508101906132799190614b85565b50505050509150506000806132a56132918b8b613c5e565b61329b8c8b613c5e565b8b8b878a8a613d2a565b91509150600089896040516020016132be929190615423565b60405160208183030381529060405280519060200120905061336a6133198d6000016040518060800160405290816000820154815260200160018201548152602001600282015481526020016003820154815250508a61343e565b8d600801600084815260200190815260200160002060405180608001604052908160008201548152602001600182015481526020016002820154815260200160038201548152505085858a8a613da7565b9c9b505050505050505050505050565b6060820151815160405163133f757160e31b815260009283926001600160a01b03909116916399fbab88916133b19160040161552b565b6101806040518083038186803b1580156133ca57600080fd5b505afa1580156133de573d6000803e3d6000fd5b505050506040513d601f19601f820116820180604052508101906134029190614fae565b50506001600160801b039092169a505050505050505050505092915050565b60008183670de0b6b3a7640000028161343657fe5b049392505050565b8151602083015160009190831161346d57670de0b6b3a7640000846040015184028161346657fe5b040161080a565b670de0b6b3a764000084604001518560200151028161348857fe5b0481019050670de0b6b3a764000084602001518403856060015102816134aa57fe5b04019392505050565b60008060006134dc866134c58761354b565b6134ce8761354b565b670de0b6b3a7640000613899565b9150915060006134f589886001600160a01b0316611bd4565b9050881561351957826135118383670de0b6b3a76400006139b1565b019350613531565b8161352d8483670de0b6b3a76400006139b1565b0193505b670de0b6b3a7640000848902049998505050505050505050565b60008060008360020b12613562578260020b61356a565b8260020b6000035b9050620d89e88111156135a8576040805162461bcd60e51b81526020600482015260016024820152601560fa1b604482015290519081900360640190fd5b6000600182166135bc57600160801b6135ce565b6ffffcb933bd6fad37aa2d162d1a5940015b70ffffffffffffffffffffffffffffffffff1690506002821615613602576ffff97272373d413259a46990580e213a0260801c5b6004821615613621576ffff2e50f5f656932ef12357cf3c7fdcc0260801c5b6008821615613640576fffe5caca7e10e4e61c3624eaa0941cd00260801c5b601082161561365f576fffcb9843d60f6159c9db58835c9266440260801c5b602082161561367e576fff973b41fa98c081472e6896dfb254c00260801c5b604082161561369d576fff2ea16466c96a3843ec78b326b528610260801c5b60808216156136bc576ffe5dee046a99a2a811c461f1969c30530260801c5b6101008216156136dc576ffcbe86c7900a88aedcffc83b479aa3a40260801c5b6102008216156136fc576ff987a7253ac413176f2b074cf7815e540260801c5b61040082161561371c576ff3392b0822b70005940c7a398e4b70f30260801c5b61080082161561373c576fe7159475a2c29b7443b29c7fa6e889d90260801c5b61100082161561375c576fd097f3bdfd2022b8845ad8f792aa58250260801c5b61200082161561377c576fa9f746462d870fdf8a65dc1f90e061e50260801c5b61400082161561379c576f70d869a156d2a1b890bb3df62baf32f70260801c5b6180008216156137bc576f31be135f97d08fd981231505542fcfa60260801c5b620100008216156137dd576f09aa508b5b7a84e1c677de54f3e99bc90260801c5b620200008216156137fd576e5d6af8dedb81196699c329225ee6040260801c5b6204000082161561381c576d2216e584f5fa1ea926041bedfe980260801c5b62080000821615613839576b048a170391f7dc42444e8fa20260801c5b60008460020b131561385457806000198161385057fe5b0490505b64010000000081061561386857600161386b565b60005b60ff16602082901c0192505050919050565b600080600061388d868686612bd1565b90039695505050505050565b600080836001600160a01b0316856001600160a01b031611156138ba579293925b846001600160a01b0316866001600160a01b0316116138e5576138de858585613e25565b915061392c565b836001600160a01b0316866001600160a01b0316101561391e5761390a868585613e25565b9150613917858785613e8e565b905061392c565b613929858585613e8e565b90505b94509492505050565b60008282018381101561080a576040805162461bcd60e51b815260206004820152601b60248201527f536166654d6174683a206164646974696f6e206f766572666c6f770000000000604482015290519081900360640190fd5b600081606001516001600160801b03166139a9848461337a565b019392505050565b6000611ad0826139c18686613ed1565b90613f2a565b6000836001600160a01b031663f30583996040518163ffffffff1660e01b815260040160206040518083038186803b158015613a0257600080fd5b505afa158015613a16573d6000803e3d6000fd5b505050506040513d601f19601f82011682018060405250810190613a3a9190614c48565b90506000846001600160a01b031663461413196040518163ffffffff1660e01b815260040160206040518083038186803b158015613a7757600080fd5b505afa158015613a8b573d6000803e3d6000fd5b505050506040513d601f19601f82011682018060405250810190613aaf9190614c48565b90506000856001600160a01b0316633850c7bd6040518163ffffffff1660e01b815260040160e06040518083038186803b158015613aec57600080fd5b505afa158015613b00573d6000803e3d6000fd5b505050506040513d601f19601f82011682018060405250810190613b249190614b85565b5050505050915050600080613b50613b3c8989613c5e565b613b468a89613c5e565b8989878a8a613d2a565b9150915060008787604051602001613b69929190615423565b60408051601f19818403018152918152815160209283012060009081526008909c01909152909920918255600182015560028101939093555060039091015550505050565b60e081015151600090613bca5750670de0b6b3a764000061050b565b60e0820151602081015190516105949190670de0b6b3a7640000906139b1565b8154613bf55761096d565b613c16826003015482670de0b6b3a764000001670de0b6b3a76400006139b1565b600383015560018201548254600091613c31918491906139b1565b670de0b6b3a7640000019050613c54836002015482670de0b6b3a76400006139b1565b6002840155505050565b613c66614085565b6000806000856001600160a01b031663f30dba93866040518263ffffffff1660e01b8152600401613c97919061551d565b6101006040518083038186803b158015613cb057600080fd5b505afa158015613cc4573d6000803e3d6000fd5b505050506040513d601f19601f82011682018060405250810190613ce89190614adb565b975050505094509450505080613d105760405162461bcd60e51b81526004016105d0906155c2565b506040805180820190915291825260208201529392505050565b6000806000808860020b8760020b12613d4b575050885160208a0151613d5b565b5050885160208a01519085039084035b6000808960020b8960020b1215613d7a575050895160208b0151613d8a565b5050895160208b01519087039086035b92909603959095039a949093039290920397509195505050505050565b60008060008760400151851115613ddb578760400151850388600001518803670de0b6b3a76400000281613dd757fe5b0491505b8760600151841115613e0a578760600151840388602001518703670de0b6b3a76400000281613e0657fe5b0490505b671bc16d674ec80000910188020490505b9695505050505050565b6000826001600160a01b0316846001600160a01b03161115613e45579192915b836001600160a01b0316613e7e606060ff16846001600160801b0316901b8686036001600160a01b0316866001600160a01b03166129f5565b81613e8557fe5b04949350505050565b6000826001600160a01b0316846001600160a01b03161115613eae579192915b611ad0826001600160801b03168585036001600160a01b0316600160601b6129f5565b600082613ee057506000610594565b82820282848281613eed57fe5b041461080a5760405162461bcd60e51b8152600401808060200182810382526021815260200180615b6a6021913960400191505060405180910390fd5b6000808211613f80576040805162461bcd60e51b815260206004820152601a60248201527f536166654d6174683a206469766973696f6e206279207a65726f000000000000604482015290519081900360640190fd5b81838161343657fe5b60405180610120016040528060008152602001600060020b8152602001600060020b815260200160006001600160801b0316815260200160008152602001600081526020016000815260200160008152602001600081525090565b6040518060400160405280613ff761409f565b81526020016140046140c0565b905290565b6040518060c001604052806000815260200160006001600160a01b0316815260200160001515815260200161403c61409f565b815260200161404961409f565b8152602001606081525090565b6040518060a0016040528060008152602001600081526020016000815260200160008152602001606081525090565b604051806040016040528060008152602001600081525090565b60405180606001604052806000815260200160008152602001600081525090565b60405180610100016040528060008152602001600081526020016000815260200160008152602001600081526020016000815260200160008152602001600081525090565b805161050b81615af1565b600082601f830112614120578081fd5b8151602061413561413083615ac8565b615aa5565b82815281810190858301608080860288018501891015614153578687fd5b865b868110156141e45781838b03121561416b578788fd5b604080518381018181106001600160401b038211171561418757fe5b8252845161419481615b09565b8152848801516141a381615b33565b81890152848201516141b481615b24565b80838301525060609150818501516141cb81615b24565b9181019190915285529385019391810191600101614155565b509198975050505050505050565b600082601f830112614202578081fd5b8135602061421261413083615ac8565b8281528181019085830160e080860288018501891015614230578687fd5b865b868110156141e45781838b031215614248578788fd5b604080518381018181106001600160401b038211171561426457fe5b825261426f85614444565b815261427c8886016143ca565b8882015261428b828601614718565b828201526060915061429e82860161445a565b82820152608091506142b182860161445a565b9181019190915260a0848101359082015260c0808501359082015285529385019391810191600101614232565b600082601f8301126142ee578081fd5b815160206142fe61413083615ac8565b8281528181019085830160e08086028801850189101561431c578687fd5b865b868110156141e45781838b031215614334578788fd5b604080518381018181106001600160401b038211171561435057fe5b825261435b8561444f565b81526143688886016143d5565b88820152614377828601614723565b828201526060915061438a828601614465565b828201526080915061439d828601614465565b9181019190915260a0848101519082015260c080850151908201528552938501939181019160010161431e565b803561050b81615b09565b805161050b81615b09565b600082601f8301126143f0578081fd5b81356001600160401b0381111561440357fe5b614416601f8201601f1916602001615aa5565b81815284602083860101111561442a578283fd5b816020850160208301379081016020019190915292915050565b803561050b81615b17565b805161050b81615b17565b803561050b81615b24565b805161050b81615b24565b600060808284031215614481578081fd5b604051608081018181106001600160401b038211171561449d57fe5b8060405250809150823581526020830135602082015260408301356040820152606083013560608201525092915050565b600060a082840312156144df578081fd5b6040805160a081016001600160401b0382821081831117156144fd57fe5b818452829450853583526020915081860135828401528386013584840152606080870135818501526080808801358381111561453857600080fd5b8801601f81018a1361454957600080fd5b803561455761413082615ac8565b81815286810190838801858402850189018e101561457457600080fd5b600094505b838510156145f95785818f03121561459057600080fd5b8a518681018181108a821117156145a357fe5b8c5281356145b081615b09565b8152818a01356145bf81615b33565b818b0152818c01356145d081615b24565b818d0152818801356145e181615b24565b81890152835260019490940193918801918501614579565b5080858a01525050505050505050505092915050565b600060808284031215614620578081fd5b604051608081018181106001600160401b038211171561463c57fe5b604052905080823561464d81615b09565b8152602083013561465d81615b09565b6020820152604083013561467081615b09565b6040820152606083013561468381615b09565b6060919091015292915050565b60006101008083850312156146a3578182fd5b604051908101906001600160401b03821181831017156146bf57fe5b81604052809250835181526020840151602082015260408401516040820152606084015160608201526080840151608082015260a084015160a082015260c084015160c082015260e084015160e0820152505092915050565b803561050b81615b33565b805161050b81615b33565b805161ffff8116811461050b57600080fd5b805162ffffff8116811461050b57600080fd5b600060208284031215614764578081fd5b813561080a81615af1565b60006020808385031215614781578182fd5b82356001600160401b03811115614796578283fd5b8301601f810185136147a6578283fd5b80356147b461413082615ac8565b81815283810190838501865b848110156147e9576147d78a8884358901016143e0565b845292860192908601906001016147c0565b509098975050505050505050565b60008060408385031215614809578081fd5b82516001600160401b0381111561481e578182fd5b61482a858286016142de565b925050602083015190509250929050565b60006020828403121561484c578081fd5b5035919050565b60008060408385031215614865578182fd5b505080516020909101519092909150565b600060808284031215614887578081fd5b61080a8383614470565b60008061010083850312156148a4578182fd5b6148ae8484614470565b91506148bd8460808501614470565b90509250929050565b6000602082840312156148d7578081fd5b81356001600160401b038111156148ec578182fd5b611ad0848285016144ce565b600060208284031215614909578081fd5b81516001600160401b038082111561491f578283fd5b9083019060a08286031215614932578283fd5b60405160a08101818110838211171561494757fe5b80604052508251815260208301516020820152604083015160408201526060830151606082015260808301518281111561497f578485fd5b61498b87828601614110565b60808301525095945050505050565b600080600080608085870312156149af578182fd5b84356001600160401b038111156149c4578283fd5b6149d0878288016144ce565b945050602085013592506040850135915060608501356149ef81615b09565b939692955090935050565b60008060008060808587031215614a0f578182fd5b84356001600160401b03811115614a24578283fd5b614a30878288016144ce565b97602087013597506040870135966060013595509350505050565b6000818303610160811215614a5e578182fd5b604051604081016001600160401b038282108183111715614a7b57fe5b816040526060841215614a8c578485fd5b60a0830193508184108185111715614aa057fe5b508260405284518152602085015160608301526040850151608083015280825250614ace8560608601614690565b6020820152949350505050565b600080600080600080600080610100898b031215614af7578586fd5b8851614b0281615b33565b80985050602089015180600f0b8114614b19578687fd5b80975050604089015195506060890151945060808901518060060b8114614b3e578485fd5b60a08a0151909450614b4f81615af1565b60c08a015190935063ffffffff81168114614b68578283fd5b9150614b7660e08a016143d5565b90509295985092959890939650565b600080600080600080600060e0888a031215614b9f578081fd5b8751614baa81615af1565b6020890151909750614bbb81615b24565b9550614bc96040890161472e565b9450614bd76060890161472e565b9350614be56080890161472e565b925060a088015160ff81168114614bfa578182fd5b60c0890151909250614c0b81615b09565b8091505092959891949750929550565b60008060408385031215614c2d578182fd5b8251614c3881615af1565b6020939093015192949293505050565b600060208284031215614c59578081fd5b5051919050565b60008060408385031215614c72578182fd5b8251915060208301516001600160401b03811115614c8e578182fd5b614c9a858286016142de565b9150509250929050565b600080600060608486031215614cb8578081fd5b8335925060208401356001600160401b03811115614cd4578182fd5b614ce0868287016141f2565b9250506040840135614cf181615b09565b809150509250925092565b6000806000806000806101208789031215614d15578384fd5b8635955060208701356001600160401b0380821115614d32578586fd5b614d3e8a838b016141f2565b96506040890135955060608901359450614d5b8a60808b0161460f565b9350610100890135915080821115614d71578283fd5b50614d7e89828a016143e0565b9150509295509295509295565b60008082840360a0811215614d9e578283fd5b833592506080601f1982011215614db3578182fd5b50604051608081018181106001600160401b0382111715614dd057fe5b80604052506020840135815260408401356020820152606084013560408201526080840135614dfe81615b09565b6060820152919491935090915050565b60008060008060e08587031215614e23578182fd5b8435935060208501356001600160401b0380821115614e40578384fd5b614e4c888389016144ce565b9450614e5b886040890161460f565b935060c0870135915080821115614e70578283fd5b9086019060c08289031215614e83578283fd5b60405160c081018181108382111715614e9857fe5b8060405250823581526020830135602082015260408301356040820152606083013560608201526080830135608082015260a083013582811115614eda578485fd5b614ee68a8286016143e0565b60a0830152509598949750929550505050565b600080600060c08486031215614f0d578081fd5b83359250614f1e856020860161460f565b915060a08401356001600160401b0380821115614f39578283fd5b9085019060808288031215614f4c578283fd5b604051608081018181108382111715614f6157fe5b8060405250823581526020830135602082015260408301356040820152606083013582811115614f8f578485fd5b614f9b898286016143e0565b6060830152508093505050509250925092565b6000806000806000806000806000806000806101808d8f031215614fd0578586fd5b8c516bffffffffffffffffffffffff81168114614feb578687fd5b9b50614ff960208e01614105565b9a5061500760408e01614105565b995061501560608e01614105565b985061502360808e01614740565b975061503160a08e01614465565b965061503f60c08e01614465565b955061504d60e08e01614723565b94506101008d015193506101208d0151925061506c6101408e01614723565b915061507b6101608e01614723565b90509295989b509295989b509295989b565b6001600160a01b03169052565b6000815180845260208085019450808401835b838110156150d3576150c0878351615241565b60e09690960195908201906001016150ad565b509495945050505050565b15159052565b8051825260208082015190830152604090810151910152565b6151108261510b8354615ae5565b61508d565b60018101546001600160a01b0361512c6020850182841661508d565b6151416040850162ffffff8460a01c1661541a565b61514e6002840154615ae5565b915061515d606085018361508d565b61516a6003840154615ae5565b9150615179608085018361508d565b6004830154915061518f60a0850182841661508d565b506151a360c0840160ff8360a01c166150de565b506151b460e0830160058301615344565b61096d610160830160098301615344565b805115158252602081015160208301526001600160801b036040820151166040830152606081015160608301526080810151608083015260a081015160a08301525050565b8051151582526001600160801b036020820151166020830152604081015160020b6040830152606081015160020b60608301525050565b8051600b811061524d57fe5b808352506020810151151560208301526001600160801b036040820151166040830152606081015160020b6060830152608081015160020b608083015260a081015160a083015260c081015160c08301525050565b600060a083018251845260208084015181860152604084015160408601526060840151606086015260808085015160a08288015283815180865260c08901915084830195508692505b80831015615312576152fe82875161520a565b9484019460019290920191908301906152eb565b50979650505050505050565b805182526020810151602083015260408101516040830152606081015160608301525050565b80548252600181015460208301526002810154604083015260030154606090910152565b600061014080840183518552602060018060a01b0381860151168187015260408501511515604087015260608501516153a460608801826150e4565b50608085015160c06153b8818901836150e4565b60a08701516101208901959095528451938490526101608801948301938692505b80831015615400576153ec8686516151c5565b9481019493830193600192909201916153d9565b5093979650505050505050565b6001600160801b03169052565b62ffffff169052565b600292830b60e890811b82529190920b901b600382015260060190565b6001600160a01b0391909116815260200190565b6001600160a01b038a81168252898116602083015262ffffff8916604083015287811660608301528681166080830152851660a082015283151560c08201526101e081016154a560e083018561531e565b6154b361016083018461531e565b9a9950505050505050505050565b60006020825261080a602083018461509a565b6000606082526154e7606083018661509a565b60208301949094525060400152919050565b901515815260200190565b6001600160a01b03929092168252602082015260400190565b60029190910b815260200190565b90815260200190565b60208082526003908201526204348360ec1b604082015260600190565b602080825260029082015261503760f01b604082015260600190565b602080825260029082015261140d60f21b604082015260600190565b60208082526003908201526243483160e81b604082015260600190565b602080825260029082015261503360f01b604082015260600190565b6020808252600b908201526a1a5b9a5d1a585b1a5e995960aa1b604082015260600190565b602080825260029082015261503560f01b604082015260600190565b602080825260029082015261281b60f11b604082015260600190565b60208082526017908201527f63616c6c6572206d757374206265206f70657261746f72000000000000000000604082015260600190565b602080825260029082015261281960f11b604082015260600190565b9283526020830191909152604082015260600190565b60006101208201905082518252602083015160020b6020830152604083015160020b604083015260608301516156c1606084018261540d565b506080830151608083015260a083015160a083015260c083015160c083015260e083015160e083015261010080840151818401525092915050565b60006020825261080a60208301846152a2565b6000602080835260c083018451828501528185015160408501526040850151606085015260608501516080818187015280870151915060a08087015282825180855260e08801915085840194508693505b808410156153125761577382865161520a565b938501936001939093019290820190615760565b60006040825261579a60408301856152a2565b905060018060a01b03831660208301529392505050565b60006101608201905082518051835260208101516020840152604081015160408401525060208301518051606084015260208101516080840152604081015160a0840152606081015160c0840152608081015160e084015260a081015161010084015260c081015161012084015260e08101516101408401525092915050565b60006020808352610160830184518285015260018060a01b0382860151166040850152604085015115156060850152606085015161587260808601826150e4565b50608085015161588560e08601826150e4565b5060a08501516101408581015280519182905282019083906101808601905b808310156158cd576158b78285516151c5565b60c08201915084840193506001830192506158a4565b509695505050505050565b60006102208083526158ec81840187615368565b915050836020830152611ad060408301846150fd565b600061024080835261591681840188615368565b91505084602083015261592c60408301856150fd565b6001600160a01b039290921661022091909101529392505050565b6000610100808301888452602088818601528760408601528260608601528192508651808352610120860193508188019250845b818110156159a15761598e858551615241565b60e094909401939282019260010161597b565b5050855115156080860152850151151560a0850152506040840151151560c0840152606090930151151560e09092019190915250949350505050565b9182526001600160a01b0316602082015260400190565b8581526001600160a01b038516602082015283151560408201526101208101615a2060608301856150e4565b613e1b60c08301846150e4565b60008682526020868184015285604084015260018060a01b038516606084015260a0608084015283518060a0850152825b81811015615a7a5785810183015185820160c001528201615a5e565b81811115615a8b578360c083870101525b50601f01601f19169290920160c001979650505050505050565b6040518181016001600160401b0381118282101715615ac057fe5b604052919050565b60006001600160401b03821115615adb57fe5b5060209081020190565b6001600160a01b031690565b6001600160a01b0381168114615b0657600080fd5b50565b8015158114615b0657600080fd5b600b8110615b0657600080fd5b8060020b8114615b0657600080fd5b6001600160801b0381168114615b0657600080fdfe5369676e6564536166654d6174683a206164646974696f6e206f766572666c6f77536166654d6174683a206d756c7469706c69636174696f6e206f766572666c6f775369676e6564536166654d6174683a207375627472616374696f6e206f766572666c6f77a264697066735822122033864bf709de70cd796e1c082a3475118064bce6aad41ebfa788b510b1dcf4a364736f6c63430007060033",
  "deployedBytecode": "0x608060405234801561001057600080fd5b50600436106101e55760003560e01c8063687157731161010f578063b3ab15fb116100a2578063e1af1a3611610071578063e1af1a361461041a578063e6b94fc71461042d578063eb02c30114610440578063f64c90df14610460576101e5565b8063b3ab15fb146103c2578063cb3c9a53146103d5578063cf1d121b146103dd578063d0496d6a146103fd576101e5565b806398d5fdca116100de57806398d5fdca146103725780639b5e6b7e1461037a5780639e03060b1461038d578063b35b7942146103af576101e5565b8063687157731461031357806386e6862d146103265780638c64ea4a1461032e5780639403b63414610352576101e5565b80633e1297151161018757806353aad1d91161015657806353aad1d9146102ce578063570ca735146102e357806362e0929f146102f857806365b5f6e314610300576101e5565b80633e1297151461027357806342189c8f1461029357806349ebb77d1461029b5780634f7cbc79146102bb576101e5565b80631cb05304116101c35780631cb053041461023d57806326d8d4f914610250578063275892a21461025857806333a9d06014610260576101e5565b8063013216f5146101ea578063059430021461021357806305ecd00314610228575b600080fd5b6101fd6101f836600461483b565b610473565b60405161020a9190615688565b60405180910390f35b610226610221366004614d8b565b610510565b005b610230610545565b60405161020a919061552b565b61023061024b3660046148c6565b610574565b61023061059a565b6102306105a0565b61022661026e366004614891565b6105a6565b61028661028136600461483b565b610612565b60405161020a91906154f9565b610230610626565b6102ae6102a936600461483b565b61062c565b60405161020a91906157b1565b6102266102c936600461483b565b610811565b6102d6610840565b60405161020a919061551d565b6102eb6108c9565b60405161020a9190615440565b6102866108d8565b61022661030e36600461476f565b6108e8565b610226610321366004614876565b610971565b6102eb6109b9565b61034161033c36600461483b565b610a42565b60405161020a9594939291906159f4565b61036561036036600461483b565b610abe565b60405161020a9190615831565b610230610bff565b61023061038836600461483b565b610c1b565b6103a061039b36600461499a565b610cfd565b60405161020a939291906154d4565b6102266103bd366004614ca4565b610f53565b6102266103d0366004614753565b6113e0565b6102eb61142c565b6103f06103eb3660046149fa565b6114ca565b60405161020a91906154c1565b6104056116ff565b60405161020a99989796959493929190615454565b610230610428366004614ef9565b61179a565b61023061043b366004614cfc565b6117d8565b61045361044e36600461483b565b6119e3565b60405161020a919061570f565b61023061046e366004614e0e565b6119fd565b61047b613f89565b50600081815260036020818152604092839020835161012081018552815481526001820154600281810b810b810b9483019490945263010000008104840b840b840b95820195909552600160301b9094046001600160801b031660608501529081015460808401529081015460a0830152600481015460c0830152600581015460e0830152600601546101008201525b919050565b600061052f61051e846119e3565b8351602085015160408601516114ca565b905061054083828460600151610f53565b505050565b600a5460009061056f90600160a01b900460ff1661056161142c565b6001600160a01b0316611bd4565b905090565b60006105948261058261142c565b600a54600160a01b900460ff16611c9c565b92915050565b60045481565b60025481565b6020546001600160a01b031633146105d95760405162461bcd60e51b81526004016105d09061561f565b60405180910390fd5b8151601b55602080830151601c55604080840151601d55606093840151601e558251601755908201516018558101516019550151601a55565b600061061d82611cd3565b61059482611ed8565b60015481565b610634613fe4565b600061063e6109b9565b905061064983611cd3565b6000838152600560208181526040808420815160c0810183528154815260018201546001600160a01b03811682860152600160a01b900460ff1615158184015282516060808201855260028401548252600384015482870152600484015482860152808301919091528351908101845294820154855260068201548585015260078201548584015260808101949094526008810180548351818602810186019094528084529495919460a08701949192909184015b828210156107745760008481526020908190206040805160c08101825260068602909201805460ff16151583526001808201548486015260028201546001600160801b03169284019290925260038101546060840152600481015460808401526005015460a083015290835290920191016106fe565b50505091525050604051632e22696560e11b815273__$b4a4919001844372a79711112cfb20c2b9$__91635c44d2ca916107b991906003906006908790600401615902565b6101606040518083038186803b1580156107d257600080fd5b505af41580156107e6573d6000803e3d6000fd5b505050506040513d601f19601f8201168201806040525081019061080a9190614a4b565b9392505050565b6020546001600160a01b0316331461083b5760405162461bcd60e51b81526004016105d09061561f565b600155565b600a5460408051633850c7bd60e01b815290516000926001600160a01b031691633850c7bd9160048281019260e0929190829003018186803b15801561088557600080fd5b505afa158015610899573d6000803e3d6000fd5b505050506040513d601f19601f820116820180604052508101906108bd9190614b85565b50939695505050505050565b6020546001600160a01b031681565b600a54600160a01b900460ff1690565b6020546001600160a01b031633146109125760405162461bcd60e51b81526004016105d09061561f565b60005b815181101561096d5760008083838151811061092d57fe5b60200260200101518060200190518101906109489190614c60565b9150915061095582611cd3565b6109628282600080611fa3565b505050600101610915565b5050565b6020546001600160a01b0316331461099b5760405162461bcd60e51b81526004016105d09061561f565b80516013556020810151601455604081015160155560600151601655565b600a5460408051633850c7bd60e01b815290516000926001600160a01b031691633850c7bd9160048281019260e0929190829003018186803b1580156109fe57600080fd5b505afa158015610a12573d6000803e3d6000fd5b505050506040513d601f19601f82011682018060405250810190610a369190614b85565b50949695505050505050565b600560208181526000928352604092839020805460018201548551606080820188526002850154825260038501548287015260048501548289015287519081018852958401548652600684015494860194909452600790920154948401949094526001600160a01b03811692600160a01b90910460ff16919085565b610ac6614009565b6000828152600560208181526040808420815160c0810183528154815260018201546001600160a01b03811682860152600160a01b900460ff1615158184015282516060808201855260028401548252600384015482870152600484015482860152808301919091528351908101845294820154855260068201548585015260078201548584015260808101949094526008810180548351818602810186019094528084529495919460a08701949192909184015b82821015610bf15760008481526020908190206040805160c08101825260068602909201805460ff16151583526001808201548486015260028201546001600160801b03169284019290925260038101546060840152600481015460808401526005015460a08301529083529092019101610b7b565b505050915250909392505050565b600a5460009061056f90600160a01b900460ff166105616109b9565b60408051610120810182526006546001600160a01b039081168252600754808216602080850191909152600160a01b9182900462ffffff168486015260085483166060808601919091526009548416608080870191909152600a5494851660a08701529290930460ff16151560c085015284518083018652600b548152600c5481830152600d5481870152600e548185015260e085015284519182018552600f5482526010548282015260115482860152601254928201929092526101008301526000848152600390915291822061059491601791610cf86109b9565b612143565b6060600080600073__$7ffffda71c6e7abde662efb5427d8d1c5d$__638af272d8896040518263ffffffff1660e01b8152600401610d3b91906156fc565b60006040518083038186803b158015610d5357600080fd5b505af4158015610d67573d6000803e3d6000fd5b505050506040513d6000823e601f3d908101601f19168201604052610d8f91908101906147f7565b909450905060008073__$7ffffda71c6e7abde662efb5427d8d1c5d$__638303e8cb8b610dba6109b9565b6040518363ffffffff1660e01b8152600401610dd7929190615787565b604080518083038186803b158015610dee57600080fd5b505af4158015610e02573d6000803e3d6000fd5b505050506040513d601f19601f82011682018060405250810190610e269190614853565b915091508615610ebd576000610e3d828b8b6122a9565b90506000821315610eaf576040805160e0810190915280600a81526001602082015260006040820181905260608201819052608082015260a0810184905260c0018290528751889086908110610e8f57fe5b6020908102919091010152610ea481846122fd565b955060009450610eb7565b829550600094505b50610f46565b6000610eca838b8b612362565b90506000831315610f3c576040805160e0810190915280600a81526000602082018190526040820181905260608201819052608082015260a0810185905260c0018290528751889086908110610f1c57fe5b602090810291909101015260009550610f3581836122fd565b9450610f44565b600095508194505b505b5050509450945094915050565b610f5c83611cd3565b610f6583611ed8565b610f815760405162461bcd60e51b81526004016105d09061556d565b600a54600154604051632b44ebb960e21b815260009273__$33c292c158d5f9ac43a728d8230e22b075$__9263ad13aee492610fca926001600160a01b03169190600401615504565b604080518083038186803b158015610fe157600080fd5b505af4158015610ff5573d6000803e3d6000fd5b505050506040513d601f19601f820116820180604052508101906110199190614c1b565b506000858152600560208181526040808420815160c0810183528154815260018201546001600160a01b03811682860152600160a01b900460ff16151581840152825160608082018552600284015482526003840154828701526004840154828601528083019190915283519081018452948201548552600682015485850152600782015485840152608081019490945260088101805483518186028101860190945280845296975094959394909360a0860193879084015b828210156111485760008481526020908190206040805160c08101825260068602909201805460ff16151583526001808201548486015260028201546001600160801b03169284019290925260038101546060840152600481015460808401526005015460a083015290835290920191016110d2565b5050509152505060405163571e620160e11b815273__$b4a4919001844372a79711112cfb20c2b9$__9163ae3cc4029161118d91906003906006908890600401615902565b60206040518083038186803b1580156111a557600080fd5b505af41580156111b9573d6000803e3d6000fd5b505050506040513d601f19601f820116820180604052508101906111dd9190614c48565b905060006111f0868660c8850487611fa3565b6000878152600560208181526040808420815160c0810183528154815260018201546001600160a01b03811682860152600160a01b900460ff1615158184015282516060808201855260028401548252600384015482870152600484015482860152808301919091528351908101845294820154855260068201548585015260078201548584015260808101949094526008810180548351818602810186019094528084529697509395909460a0870194929384015b8282101561131c5760008481526020908190206040805160c08101825260068602909201805460ff16151583526001808201548486015260028201546001600160801b03169284019290925260038101546060840152600481015460808401526005015460a083015290835290920191016112a6565b5050509152505060405163571e620160e11b815273__$b4a4919001844372a79711112cfb20c2b9$__9163ae3cc4029161136191906003906006908990600401615902565b60206040518083038186803b15801561137957600080fd5b505af415801561138d573d6000803e3d6000fd5b505050506040513d601f19601f820116820180604052508101906113b19190614c48565b156113ce5760405162461bcd60e51b81526004016105d090615551565b6113d83382612395565b505050505050565b6020546001600160a01b0316331461140a5760405162461bcd60e51b81526004016105d09061561f565b602080546001600160a01b0319166001600160a01b0392909216919091179055565b600a54600154604051632b44ebb960e21b815260009273__$33c292c158d5f9ac43a728d8230e22b075$__9263ad13aee492611475926001600160a01b03169190600401615504565b604080518083038186803b15801561148c57600080fd5b505af41580156114a0573d6000803e3d6000fd5b505050506040513d601f19601f820116820180604052508101906114c49190614c1b565b50919050565b6060600073__$7ffffda71c6e7abde662efb5427d8d1c5d$__631039a4f3876040518263ffffffff1660e01b815260040161150591906156fc565b60006040518083038186803b15801561151d57600080fd5b505af4158015611531573d6000803e3d6000fd5b505050506040513d6000823e601f3d908101601f1916820160405261155991908101906147f7565b909250905060008073__$7ffffda71c6e7abde662efb5427d8d1c5d$__6328b29bee896115846109b9565b6040518363ffffffff1660e01b81526004016115a1929190615787565b604080518083038186803b1580156115b857600080fd5b505af41580156115cc573d6000803e3d6000fd5b505050506040513d601f19601f820116820180604052508101906115f09190614853565b91509150600082121561167857600061160d8360000389896123cf565b6040805160e08101909152909150806009815260016020820152600060408201819052606082018190526080820181905260a090910190606490869003890204815260200160648389020481525085858151811061166757fe5b6020026020010181905250506116f4565b60008112156116f4576000611691826000038989612402565b6040805160e08101825260098152600060208201819052918101829052606081018290526080810182905291925060a082019060649085900389020481526020016064838902048152508585815181106116e757fe5b6020026020010181905250505b505050949350505050565b600654600754600854600954600a546040805160808082018352600b548252600c54602080840191909152600d5483850152600e5460608085019190915284519283018552600f5483526010549183019190915260115493820193909352601254928101929092526001600160a01b039687169680871696600160a01b9081900462ffffff169682169582169491821693910460ff16919089565b6000806117ba6117a9866119e3565b8451602086015160408701516114ca565b90506117cf85826000808888606001516117d8565b95945050505050565b60006117e387611cd3565b60006117f3888560400151612435565b9092509050851561181657600654611816906001600160a01b0316333089612515565b841561183457600754611834906001600160a01b0316333088612515565b60008073__$da03e66f624374a74ff67f4d42d7f52632$__636728565784600660038d8b6040518663ffffffff1660e01b8152600401611878959493929190615947565b604080518083038186803b15801561188f57600080fd5b505af41580156118a3573d6000803e3d6000fd5b505050506040513d601f19601f820116820180604052508101906118c79190614853565b915091508560400151156118df576118df8282612665565b6118e884611ed8565b156119055760405162461bcd60e51b81526004016105d0906155a6565b818812156119255760405162461bcd60e51b81526004016105d0906155e7565b808712156119455760405162461bcd60e51b81526004016105d090615603565b8188131561196d5760065461196d906001600160a01b0316336119688b86612676565b6126db565b8087131561199057600754611990906001600160a01b0316336119688a85612676565b7fabc710e8ab5c8f4ea5d70ef0f4c50f12dd4804fa7e04ce65aa8c813197b64bea8483836119bc6109b9565b896040516119ce959493929190615a2d565b60405180910390a15050509695505050505050565b6119eb614056565b6119f482611cd3565b61059482612829565b600080600080611a1b87866000015187602001518960600151610cfd565b92509250925060648560400151830281611a3157fe5b049150846060015160001480611a4b575081856060015110155b611a675760405162461bcd60e51b81526004016105d090615534565b60808501511580611a7c575080856080015110155b611a985760405162461bcd60e51b81526004016105d090615589565b611aca888460648860400151860281611aad57fe5b0460648960400151860281611abe57fe5b048a8a60a001516117d8565b93505050505b949350505050565b600081602001516001600160a01b031682600001516001600160a01b031610611b0057600080fd5b50805160208083015160409384015184516001600160a01b0394851681850152939091168385015262ffffff166060808401919091528351808403820181526080840185528051908301206001600160f81b031960a085015294901b6bffffffffffffffffffffffff191660a183015260b58201939093527fe34f199b19b2b4f47f68442619d555527d244f78a3297ea89325f843f87b8b5460d5808301919091528251808303909101815260f5909101909152805191012090565b670de0b6b3a764000060028201819055600390910155565b6000670de0b6b3a76400008315611c3c57611bfd838483600160c01b81611bf757fe5b046129f5565b915081611c1c576ec097ce7bc90715b34b9f1000000000915050610594565b816ec097ce7bc90715b34b9f100000000081611c3457fe5b049150611c5d565b600160601b81611c518586600160601b6129f5565b0281611c5957fe5b0491505b6ec097ce7bc90715b34b9f1000000000821115611c8b576ec097ce7bc90715b34b9f10000000009150611c95565b81611c9557600191505b5092915050565b600080611caa858585612aa4565b90506000611cb9868686612bd1565b9150508160648281611cc757fe5b05039695505050505050565b6000818152600560205260408120905b6008820154811015611e0a5760408051610120810182526006546001600160a01b03908116825260075480821660208085019190915262ffffff600160a01b9283900416848601526008805484166060808701919091526009548516608080880191909152600a5495861660a088015260ff9490950493909316151560c086015285518085018752600b548152600c5481840152600d5481880152600e548185015260e086015285519384018652600f5484526010549184019190915260115494830194909452601254908201526101008201529083018054611e0292601792909160039160009187908110611dd557fe5b9060005260206000209060060201600101548152602001908152602001600020611dfd6109b9565b612d81565b600101611ce3565b506040805160808101825260135481526014546020820152601554918101919091526016546060820152600254611e4391600691612ec5565b600255604051633925559360e11b815273__$da03e66f624374a74ff67f4d42d7f52632$__9063724aab2690611e83906006908590600390600401615672565b604080518083038186803b158015611e9a57600080fd5b505af4158015611eae573d6000803e3d6000fd5b505050506040513d601f19601f82011682018060405250810190611ed29190614853565b50505050565b600a54600154604051632b44ebb960e21b8152600092839273__$33c292c158d5f9ac43a728d8230e22b075$__9263ad13aee492611f24926001600160a01b0390911691600401615504565b604080518083038186803b158015611f3b57600080fd5b505af4158015611f4f573d6000803e3d6000fd5b505050506040513d601f19601f82011682018060405250810190611f739190614c1b565b5090506000611f98611f8485612829565b600a548490600160a01b900460ff16611c9c565b600012949350505050565b6000611fae85611cd3565b600085815260056020908152604080832081516080810183526001815286151593810193909352828201849052600a54600160a01b900460ff16151560608401529051636728565760e01b8152909291829173__$da03e66f624374a74ff67f4d42d7f52632$__916367285657916120339187916006916003918e9190600401615947565b604080518083038186803b15801561204a57600080fd5b505af415801561205e573d6000803e3d6000fd5b505050506040513d601f19601f820116820180604052508101906120829190614853565b60009182039350810391508212156120ac5760405162461bcd60e51b81526004016105d0906155e7565b80600013156120cd5760405162461bcd60e51b81526004016105d090615603565b600a54600160a01b900460ff16156120f2576120e98287612fff565b94509150612101565b6120fc8187612fff565b945090505b816000121561211d5761211b600b6002850184600061301f565b505b80600012156116f457612137600f6005850183600061301f565b50505050949350505050565b6001820154600090600160301b90046001600160801b03161561229e57600061216c858561307e565b60a086015160018601549192506000916122299161219c918a9190600281810b9163010000009004900b8761311b565b6040805161012081018252885481526001890154600281810b810b810b602084015263010000008204810b810b810b93830193909352600160301b90046001600160801b03166060820152908801546080820152600388015460a0820152600488015460c0820152600588015460e0820152600688015461010082015261222490899061337a565b613421565b905060006122908760c001516122758a6004016040518060800160405290816000820154815260200160018201548152602001600282015481526020016003820154815250508661343e565b60018901548890600281810b9163010000009004900b6134b3565b919091019250611ad0915050565b506000949350505050565b600a54600090600160a01b900460ff16156122df57600061271083810185025b04905064e8d4a510008582025b0491505061080a565b600061271083810385025b049050808564e8d4a5100002816122d657fe5b60008282018183128015906123125750838112155b80612327575060008312801561232757508381125b61080a5760405162461bcd60e51b8152600401808060200182810382526021815260200180615b496021913960400191505060405180910390fd5b600a54600090600160a01b900460ff161561238657600061271083810385026122ea565b600061271083810185026122c9565b600a5461096d90600160a01b900460ff166123bb576007546001600160a01b03166123c8565b6006546001600160a01b03165b83836126db565b600a54600090600160a01b900460ff16156123f357600061271083810185026122ea565b600061271083810385026122c9565b600a54600090600160a01b900460ff161561242657600061271083810385026122c9565b600061271083810185026122ea565b600080836124ba576004805460018082019092556000818152600560205260409081902082815590920180546001600160a01b03191633179081905591519093507fbf3e9c93de94306b70ac5b9411edf475545815333bf651b894b9eada6482c594916124ad9185916001600160a01b0316906159dd565b60405180910390a16124fe565b6000848152600560205260409020600101548492506001600160a01b03163314806124e25750825b6124fe5760405162461bcd60e51b81526004016105d090615656565b5060008181526005602052604090205b9250929050565b604080516001600160a01b0385811660248301528481166044830152606480830185905283518084039091018152608490920183526020820180516001600160e01b03166323b872dd60e01b178152925182516000948594938a169392918291908083835b602083106125995780518252601f19909201916020918201910161257a565b6001836020036101000a0380198251168184511680821785525050505050509050019150506000604051808303816000865af19150503d80600081146125fb576040519150601f19603f3d011682016040523d82523d6000602084013e612600565b606091505b509150915081801561262e57508051158061262e575080806020019051602081101561262b57600080fd5b50515b6113d8576040805162461bcd60e51b815260206004820152600360248201526229aa2360e91b604482015290519081900360640190fd5b602051828152816020820152604081fd5b600081830381831280159061268b5750838113155b806126a057506000831280156126a057508381135b61080a5760405162461bcd60e51b8152600401808060200182810382526024815260200180615b8b6024913960400191505060405180910390fd5b604080516001600160a01b038481166024830152604480830185905283518084039091018152606490920183526020820180516001600160e01b031663a9059cbb60e01b1781529251825160009485949389169392918291908083835b602083106127575780518252601f199092019160209182019101612738565b6001836020036101000a0380198251168184511680821785525050505050509050019150506000604051808303816000865af19150503d80600081146127b9576040519150601f19603f3d011682016040523d82523d6000602084013e6127be565b606091505b50915091508180156127ec5750805115806127ec57508080602001905160208110156127e957600080fd5b50515b612822576040805162461bcd60e51b815260206004820152600260248201526114d560f21b604482015290519081900360640190fd5b5050505050565b612831614056565b6000828152600560208181526040808420815160c0810183528154815260018201546001600160a01b03811682860152600160a01b900460ff161515818401528251606080820185526002840154825260038401548287015260048401548286015280830191909152835190810184529482015485526006820154858501526007820154858401526080810194909452600881018054835181860281018601909452808452919360a08601939290879084015b8282101561295a5760008481526020908190206040805160c08101825260068602909201805460ff16151583526001808201548486015260028201546001600160801b03169284019290925260038101546060840152600481015460808401526005015460a083015290835290920191016128e4565b505050915250506040516349ad1ba560e01b815290915073__$b4a4919001844372a79711112cfb20c2b9$__906349ad1ba5906129a19084906003906006906004016158d8565b60006040518083038186803b1580156129b957600080fd5b505af41580156129cd573d6000803e3d6000fd5b505050506040513d6000823e601f3d908101601f1916820160405261080a91908101906148f8565b6000808060001985870986860292508281109083900303905080612a2b5760008411612a2057600080fd5b50829004905061080a565b808411612a3757600080fd5b6000848688096000868103871696879004966002600389028118808a02820302808a02820302808a02820302808a02820302808a02820302808a02909103029181900381900460010186841190950394909402919094039290920491909117919091029150509392505050565b6001600160ff1b036305f5e1006001600160a01b03630554c99f85028116829004916306a9fc0786029091160460005b866080015151811015612b8f57600087608001518281518110612af357fe5b602002602001015190508060000151612b85576000612b286002836040015184606001510160020b81612b2257fe5b0561354b565b9050846001600160a01b0316816001600160a01b03161080612b5b5750806001600160a01b0316846001600160a01b0316105b15612b67575050612b87565b6000612b748a838a61387d565b905080871315612b82578096505b50505b505b600101612ad4565b506000612b9d87838761387d565b905080841315612bab578093505b506000612bb987848761387d565b905080841315612bc7578093505b5050509392505050565b8251602084015160408501516060860151600093849390929091845b896080015151811015612d0c5760008a608001518281518110612c0c57fe5b602002602001015190506000612c25826040015161354b565b90506000612c36836060015161354b565b8351909150158015612c5a57508b6001600160a01b0316826001600160a01b031611155b8015612c785750806001600160a01b03168c6001600160a01b031611155b15612cc957600160601b612c8f846040015161354b565b612c9c856060015161354b565b0384602001516001600160801b0316026001600160a01b031681612cbc57fe5b0485019450505050612d04565b600080612cdc8e85858860200151613899565b8651919350915015612cf5579881019897880197612cfe565b96810196958601955b50505050505b600101612bed565b506000612d22888a6001600160a01b0316611bd4565b90508715612d5157670de0b6b3a76400008482020485019650670de0b6b3a76400008282020483019550612d74565b83670de0b6b3a76400008683020401965081670de0b6b3a7640000848302040195505b5050505050935093915050565b81600601544211612d9157611ed2565b6001820154600160301b90046001600160801b031615612e9557600062015180612dbd86868686612143565b846006015442030281612dcc57fe5b049050612de681846002015461393590919063ffffffff16565b6002848101829055600185015460408051610120810182528754815282840b840b840b602082015263010000008304840b840b90930b90830152600160301b90046001600160801b0316606082018190526080820192909252600385015460a0820152600485015460c0820152600585015460e08201526006850154610100820152612e8e91612e8391849190612e7e90899061398f565b6139b1565b600385015490613935565b6003840155505b60a08301516001830154612eb9918691600281810b9163010000009004900b6139c7565b42600683015550505050565b6000814211612ed557508061080a565b604080516101208101825285546001600160a01b0390811682526001870154808216602080850191909152600160a01b9182900462ffffff16848601526002890154831660608086019190915260038a0154841660808087019190915260048b015494851660a08701529290930460ff16151560c08501528451808301865260058a0154815260068a01548183015260078a01548187015260088a01548185015260e08501528451918201855260098901548252600a89015490820152600b88015493810193909352600c870154908301526101008101919091526000906301e1338090612fcd908690612fc890613bae565b61343e565b8442030281612fd857fe5b049050612fe86005860182613bea565b612ff56009860182613bea565b5042949350505050565b6000808284106130145750508082038161250e565b50600090508261250e565b600081156130685761303e83670de0b6b3a764000087600201546139b1565b60018501549091506130509082613935565b600185015584546130619082613935565b8555611ad0565b83546130749084613935565b8455949350505050565b6001810154604080516101208101825283548152600283810b810b810b602083015263010000008404810b810b810b92820192909252600160301b9092046001600160801b031660608301819052908301546080830152600383015460a0830152600483015460c0830152600583015460e0830152600683015461010083015260009161080a9190670de0b6b3a764000090612e7e90879061398f565b600080856001600160a01b031663f30583996040518163ffffffff1660e01b815260040160206040518083038186803b15801561315757600080fd5b505afa15801561316b573d6000803e3d6000fd5b505050506040513d601f19601f8201168201806040525081019061318f9190614c48565b90506000866001600160a01b031663461413196040518163ffffffff1660e01b815260040160206040518083038186803b1580156131cc57600080fd5b505afa1580156131e0573d6000803e3d6000fd5b505050506040513d601f19601f820116820180604052508101906132049190614c48565b90506000876001600160a01b0316633850c7bd6040518163ffffffff1660e01b815260040160e06040518083038186803b15801561324157600080fd5b505afa158015613255573d6000803e3d6000fd5b505050506040513d601f19601f820116820180604052508101906132799190614b85565b50505050509150506000806132a56132918b8b613c5e565b61329b8c8b613c5e565b8b8b878a8a613d2a565b91509150600089896040516020016132be929190615423565b60405160208183030381529060405280519060200120905061336a6133198d6000016040518060800160405290816000820154815260200160018201548152602001600282015481526020016003820154815250508a61343e565b8d600801600084815260200190815260200160002060405180608001604052908160008201548152602001600182015481526020016002820154815260200160038201548152505085858a8a613da7565b9c9b505050505050505050505050565b6060820151815160405163133f757160e31b815260009283926001600160a01b03909116916399fbab88916133b19160040161552b565b6101806040518083038186803b1580156133ca57600080fd5b505afa1580156133de573d6000803e3d6000fd5b505050506040513d601f19601f820116820180604052508101906134029190614fae565b50506001600160801b039092169a505050505050505050505092915050565b60008183670de0b6b3a7640000028161343657fe5b049392505050565b8151602083015160009190831161346d57670de0b6b3a7640000846040015184028161346657fe5b040161080a565b670de0b6b3a764000084604001518560200151028161348857fe5b0481019050670de0b6b3a764000084602001518403856060015102816134aa57fe5b04019392505050565b60008060006134dc866134c58761354b565b6134ce8761354b565b670de0b6b3a7640000613899565b9150915060006134f589886001600160a01b0316611bd4565b9050881561351957826135118383670de0b6b3a76400006139b1565b019350613531565b8161352d8483670de0b6b3a76400006139b1565b0193505b670de0b6b3a7640000848902049998505050505050505050565b60008060008360020b12613562578260020b61356a565b8260020b6000035b9050620d89e88111156135a8576040805162461bcd60e51b81526020600482015260016024820152601560fa1b604482015290519081900360640190fd5b6000600182166135bc57600160801b6135ce565b6ffffcb933bd6fad37aa2d162d1a5940015b70ffffffffffffffffffffffffffffffffff1690506002821615613602576ffff97272373d413259a46990580e213a0260801c5b6004821615613621576ffff2e50f5f656932ef12357cf3c7fdcc0260801c5b6008821615613640576fffe5caca7e10e4e61c3624eaa0941cd00260801c5b601082161561365f576fffcb9843d60f6159c9db58835c9266440260801c5b602082161561367e576fff973b41fa98c081472e6896dfb254c00260801c5b604082161561369d576fff2ea16466c96a3843ec78b326b528610260801c5b60808216156136bc576ffe5dee046a99a2a811c461f1969c30530260801c5b6101008216156136dc576ffcbe86c7900a88aedcffc83b479aa3a40260801c5b6102008216156136fc576ff987a7253ac413176f2b074cf7815e540260801c5b61040082161561371c576ff3392b0822b70005940c7a398e4b70f30260801c5b61080082161561373c576fe7159475a2c29b7443b29c7fa6e889d90260801c5b61100082161561375c576fd097f3bdfd2022b8845ad8f792aa58250260801c5b61200082161561377c576fa9f746462d870fdf8a65dc1f90e061e50260801c5b61400082161561379c576f70d869a156d2a1b890bb3df62baf32f70260801c5b6180008216156137bc576f31be135f97d08fd981231505542fcfa60260801c5b620100008216156137dd576f09aa508b5b7a84e1c677de54f3e99bc90260801c5b620200008216156137fd576e5d6af8dedb81196699c329225ee6040260801c5b6204000082161561381c576d2216e584f5fa1ea926041bedfe980260801c5b62080000821615613839576b048a170391f7dc42444e8fa20260801c5b60008460020b131561385457806000198161385057fe5b0490505b64010000000081061561386857600161386b565b60005b60ff16602082901c0192505050919050565b600080600061388d868686612bd1565b90039695505050505050565b600080836001600160a01b0316856001600160a01b031611156138ba579293925b846001600160a01b0316866001600160a01b0316116138e5576138de858585613e25565b915061392c565b836001600160a01b0316866001600160a01b0316101561391e5761390a868585613e25565b9150613917858785613e8e565b905061392c565b613929858585613e8e565b90505b94509492505050565b60008282018381101561080a576040805162461bcd60e51b815260206004820152601b60248201527f536166654d6174683a206164646974696f6e206f766572666c6f770000000000604482015290519081900360640190fd5b600081606001516001600160801b03166139a9848461337a565b019392505050565b6000611ad0826139c18686613ed1565b90613f2a565b6000836001600160a01b031663f30583996040518163ffffffff1660e01b815260040160206040518083038186803b158015613a0257600080fd5b505afa158015613a16573d6000803e3d6000fd5b505050506040513d601f19601f82011682018060405250810190613a3a9190614c48565b90506000846001600160a01b031663461413196040518163ffffffff1660e01b815260040160206040518083038186803b158015613a7757600080fd5b505afa158015613a8b573d6000803e3d6000fd5b505050506040513d601f19601f82011682018060405250810190613aaf9190614c48565b90506000856001600160a01b0316633850c7bd6040518163ffffffff1660e01b815260040160e06040518083038186803b158015613aec57600080fd5b505afa158015613b00573d6000803e3d6000fd5b505050506040513d601f19601f82011682018060405250810190613b249190614b85565b5050505050915050600080613b50613b3c8989613c5e565b613b468a89613c5e565b8989878a8a613d2a565b9150915060008787604051602001613b69929190615423565b60408051601f19818403018152918152815160209283012060009081526008909c01909152909920918255600182015560028101939093555060039091015550505050565b60e081015151600090613bca5750670de0b6b3a764000061050b565b60e0820151602081015190516105949190670de0b6b3a7640000906139b1565b8154613bf55761096d565b613c16826003015482670de0b6b3a764000001670de0b6b3a76400006139b1565b600383015560018201548254600091613c31918491906139b1565b670de0b6b3a7640000019050613c54836002015482670de0b6b3a76400006139b1565b6002840155505050565b613c66614085565b6000806000856001600160a01b031663f30dba93866040518263ffffffff1660e01b8152600401613c97919061551d565b6101006040518083038186803b158015613cb057600080fd5b505afa158015613cc4573d6000803e3d6000fd5b505050506040513d601f19601f82011682018060405250810190613ce89190614adb565b975050505094509450505080613d105760405162461bcd60e51b81526004016105d0906155c2565b506040805180820190915291825260208201529392505050565b6000806000808860020b8760020b12613d4b575050885160208a0151613d5b565b5050885160208a01519085039084035b6000808960020b8960020b1215613d7a575050895160208b0151613d8a565b5050895160208b01519087039086035b92909603959095039a949093039290920397509195505050505050565b60008060008760400151851115613ddb578760400151850388600001518803670de0b6b3a76400000281613dd757fe5b0491505b8760600151841115613e0a578760600151840388602001518703670de0b6b3a76400000281613e0657fe5b0490505b671bc16d674ec80000910188020490505b9695505050505050565b6000826001600160a01b0316846001600160a01b03161115613e45579192915b836001600160a01b0316613e7e606060ff16846001600160801b0316901b8686036001600160a01b0316866001600160a01b03166129f5565b81613e8557fe5b04949350505050565b6000826001600160a01b0316846001600160a01b03161115613eae579192915b611ad0826001600160801b03168585036001600160a01b0316600160601b6129f5565b600082613ee057506000610594565b82820282848281613eed57fe5b041461080a5760405162461bcd60e51b8152600401808060200182810382526021815260200180615b6a6021913960400191505060405180910390fd5b6000808211613f80576040805162461bcd60e51b815260206004820152601a60248201527f536166654d6174683a206469766973696f6e206279207a65726f000000000000604482015290519081900360640190fd5b81838161343657fe5b60405180610120016040528060008152602001600060020b8152602001600060020b815260200160006001600160801b0316815260200160008152602001600081526020016000815260200160008152602001600081525090565b6040518060400160405280613ff761409f565b81526020016140046140c0565b905290565b6040518060c001604052806000815260200160006001600160a01b0316815260200160001515815260200161403c61409f565b815260200161404961409f565b8152602001606081525090565b6040518060a0016040528060008152602001600081526020016000815260200160008152602001606081525090565b604051806040016040528060008152602001600081525090565b60405180606001604052806000815260200160008152602001600081525090565b60405180610100016040528060008152602001600081526020016000815260200160008152602001600081526020016000815260200160008152602001600081525090565b805161050b81615af1565b600082601f830112614120578081fd5b8151602061413561413083615ac8565b615aa5565b82815281810190858301608080860288018501891015614153578687fd5b865b868110156141e45781838b03121561416b578788fd5b604080518381018181106001600160401b038211171561418757fe5b8252845161419481615b09565b8152848801516141a381615b33565b81890152848201516141b481615b24565b80838301525060609150818501516141cb81615b24565b9181019190915285529385019391810191600101614155565b509198975050505050505050565b600082601f830112614202578081fd5b8135602061421261413083615ac8565b8281528181019085830160e080860288018501891015614230578687fd5b865b868110156141e45781838b031215614248578788fd5b604080518381018181106001600160401b038211171561426457fe5b825261426f85614444565b815261427c8886016143ca565b8882015261428b828601614718565b828201526060915061429e82860161445a565b82820152608091506142b182860161445a565b9181019190915260a0848101359082015260c0808501359082015285529385019391810191600101614232565b600082601f8301126142ee578081fd5b815160206142fe61413083615ac8565b8281528181019085830160e08086028801850189101561431c578687fd5b865b868110156141e45781838b031215614334578788fd5b604080518381018181106001600160401b038211171561435057fe5b825261435b8561444f565b81526143688886016143d5565b88820152614377828601614723565b828201526060915061438a828601614465565b828201526080915061439d828601614465565b9181019190915260a0848101519082015260c080850151908201528552938501939181019160010161431e565b803561050b81615b09565b805161050b81615b09565b600082601f8301126143f0578081fd5b81356001600160401b0381111561440357fe5b614416601f8201601f1916602001615aa5565b81815284602083860101111561442a578283fd5b816020850160208301379081016020019190915292915050565b803561050b81615b17565b805161050b81615b17565b803561050b81615b24565b805161050b81615b24565b600060808284031215614481578081fd5b604051608081018181106001600160401b038211171561449d57fe5b8060405250809150823581526020830135602082015260408301356040820152606083013560608201525092915050565b600060a082840312156144df578081fd5b6040805160a081016001600160401b0382821081831117156144fd57fe5b818452829450853583526020915081860135828401528386013584840152606080870135818501526080808801358381111561453857600080fd5b8801601f81018a1361454957600080fd5b803561455761413082615ac8565b81815286810190838801858402850189018e101561457457600080fd5b600094505b838510156145f95785818f03121561459057600080fd5b8a518681018181108a821117156145a357fe5b8c5281356145b081615b09565b8152818a01356145bf81615b33565b818b0152818c01356145d081615b24565b818d0152818801356145e181615b24565b81890152835260019490940193918801918501614579565b5080858a01525050505050505050505092915050565b600060808284031215614620578081fd5b604051608081018181106001600160401b038211171561463c57fe5b604052905080823561464d81615b09565b8152602083013561465d81615b09565b6020820152604083013561467081615b09565b6040820152606083013561468381615b09565b6060919091015292915050565b60006101008083850312156146a3578182fd5b604051908101906001600160401b03821181831017156146bf57fe5b81604052809250835181526020840151602082015260408401516040820152606084015160608201526080840151608082015260a084015160a082015260c084015160c082015260e084015160e0820152505092915050565b803561050b81615b33565b805161050b81615b33565b805161ffff8116811461050b57600080fd5b805162ffffff8116811461050b57600080fd5b600060208284031215614764578081fd5b813561080a81615af1565b60006020808385031215614781578182fd5b82356001600160401b03811115614796578283fd5b8301601f810185136147a6578283fd5b80356147b461413082615ac8565b81815283810190838501865b848110156147e9576147d78a8884358901016143e0565b845292860192908601906001016147c0565b509098975050505050505050565b60008060408385031215614809578081fd5b82516001600160401b0381111561481e578182fd5b61482a858286016142de565b925050602083015190509250929050565b60006020828403121561484c578081fd5b5035919050565b60008060408385031215614865578182fd5b505080516020909101519092909150565b600060808284031215614887578081fd5b61080a8383614470565b60008061010083850312156148a4578182fd5b6148ae8484614470565b91506148bd8460808501614470565b90509250929050565b6000602082840312156148d7578081fd5b81356001600160401b038111156148ec578182fd5b611ad0848285016144ce565b600060208284031215614909578081fd5b81516001600160401b038082111561491f578283fd5b9083019060a08286031215614932578283fd5b60405160a08101818110838211171561494757fe5b80604052508251815260208301516020820152604083015160408201526060830151606082015260808301518281111561497f578485fd5b61498b87828601614110565b60808301525095945050505050565b600080600080608085870312156149af578182fd5b84356001600160401b038111156149c4578283fd5b6149d0878288016144ce565b945050602085013592506040850135915060608501356149ef81615b09565b939692955090935050565b60008060008060808587031215614a0f578182fd5b84356001600160401b03811115614a24578283fd5b614a30878288016144ce565b97602087013597506040870135966060013595509350505050565b6000818303610160811215614a5e578182fd5b604051604081016001600160401b038282108183111715614a7b57fe5b816040526060841215614a8c578485fd5b60a0830193508184108185111715614aa057fe5b508260405284518152602085015160608301526040850151608083015280825250614ace8560608601614690565b6020820152949350505050565b600080600080600080600080610100898b031215614af7578586fd5b8851614b0281615b33565b80985050602089015180600f0b8114614b19578687fd5b80975050604089015195506060890151945060808901518060060b8114614b3e578485fd5b60a08a0151909450614b4f81615af1565b60c08a015190935063ffffffff81168114614b68578283fd5b9150614b7660e08a016143d5565b90509295985092959890939650565b600080600080600080600060e0888a031215614b9f578081fd5b8751614baa81615af1565b6020890151909750614bbb81615b24565b9550614bc96040890161472e565b9450614bd76060890161472e565b9350614be56080890161472e565b925060a088015160ff81168114614bfa578182fd5b60c0890151909250614c0b81615b09565b8091505092959891949750929550565b60008060408385031215614c2d578182fd5b8251614c3881615af1565b6020939093015192949293505050565b600060208284031215614c59578081fd5b5051919050565b60008060408385031215614c72578182fd5b8251915060208301516001600160401b03811115614c8e578182fd5b614c9a858286016142de565b9150509250929050565b600080600060608486031215614cb8578081fd5b8335925060208401356001600160401b03811115614cd4578182fd5b614ce0868287016141f2565b9250506040840135614cf181615b09565b809150509250925092565b6000806000806000806101208789031215614d15578384fd5b8635955060208701356001600160401b0380821115614d32578586fd5b614d3e8a838b016141f2565b96506040890135955060608901359450614d5b8a60808b0161460f565b9350610100890135915080821115614d71578283fd5b50614d7e89828a016143e0565b9150509295509295509295565b60008082840360a0811215614d9e578283fd5b833592506080601f1982011215614db3578182fd5b50604051608081018181106001600160401b0382111715614dd057fe5b80604052506020840135815260408401356020820152606084013560408201526080840135614dfe81615b09565b6060820152919491935090915050565b60008060008060e08587031215614e23578182fd5b8435935060208501356001600160401b0380821115614e40578384fd5b614e4c888389016144ce565b9450614e5b886040890161460f565b935060c0870135915080821115614e70578283fd5b9086019060c08289031215614e83578283fd5b60405160c081018181108382111715614e9857fe5b8060405250823581526020830135602082015260408301356040820152606083013560608201526080830135608082015260a083013582811115614eda578485fd5b614ee68a8286016143e0565b60a0830152509598949750929550505050565b600080600060c08486031215614f0d578081fd5b83359250614f1e856020860161460f565b915060a08401356001600160401b0380821115614f39578283fd5b9085019060808288031215614f4c578283fd5b604051608081018181108382111715614f6157fe5b8060405250823581526020830135602082015260408301356040820152606083013582811115614f8f578485fd5b614f9b898286016143e0565b6060830152508093505050509250925092565b6000806000806000806000806000806000806101808d8f031215614fd0578586fd5b8c516bffffffffffffffffffffffff81168114614feb578687fd5b9b50614ff960208e01614105565b9a5061500760408e01614105565b995061501560608e01614105565b985061502360808e01614740565b975061503160a08e01614465565b965061503f60c08e01614465565b955061504d60e08e01614723565b94506101008d015193506101208d0151925061506c6101408e01614723565b915061507b6101608e01614723565b90509295989b509295989b509295989b565b6001600160a01b03169052565b6000815180845260208085019450808401835b838110156150d3576150c0878351615241565b60e09690960195908201906001016150ad565b509495945050505050565b15159052565b8051825260208082015190830152604090810151910152565b6151108261510b8354615ae5565b61508d565b60018101546001600160a01b0361512c6020850182841661508d565b6151416040850162ffffff8460a01c1661541a565b61514e6002840154615ae5565b915061515d606085018361508d565b61516a6003840154615ae5565b9150615179608085018361508d565b6004830154915061518f60a0850182841661508d565b506151a360c0840160ff8360a01c166150de565b506151b460e0830160058301615344565b61096d610160830160098301615344565b805115158252602081015160208301526001600160801b036040820151166040830152606081015160608301526080810151608083015260a081015160a08301525050565b8051151582526001600160801b036020820151166020830152604081015160020b6040830152606081015160020b60608301525050565b8051600b811061524d57fe5b808352506020810151151560208301526001600160801b036040820151166040830152606081015160020b6060830152608081015160020b608083015260a081015160a083015260c081015160c08301525050565b600060a083018251845260208084015181860152604084015160408601526060840151606086015260808085015160a08288015283815180865260c08901915084830195508692505b80831015615312576152fe82875161520a565b9484019460019290920191908301906152eb565b50979650505050505050565b805182526020810151602083015260408101516040830152606081015160608301525050565b80548252600181015460208301526002810154604083015260030154606090910152565b600061014080840183518552602060018060a01b0381860151168187015260408501511515604087015260608501516153a460608801826150e4565b50608085015160c06153b8818901836150e4565b60a08701516101208901959095528451938490526101608801948301938692505b80831015615400576153ec8686516151c5565b9481019493830193600192909201916153d9565b5093979650505050505050565b6001600160801b03169052565b62ffffff169052565b600292830b60e890811b82529190920b901b600382015260060190565b6001600160a01b0391909116815260200190565b6001600160a01b038a81168252898116602083015262ffffff8916604083015287811660608301528681166080830152851660a082015283151560c08201526101e081016154a560e083018561531e565b6154b361016083018461531e565b9a9950505050505050505050565b60006020825261080a602083018461509a565b6000606082526154e7606083018661509a565b60208301949094525060400152919050565b901515815260200190565b6001600160a01b03929092168252602082015260400190565b60029190910b815260200190565b90815260200190565b60208082526003908201526204348360ec1b604082015260600190565b602080825260029082015261503760f01b604082015260600190565b602080825260029082015261140d60f21b604082015260600190565b60208082526003908201526243483160e81b604082015260600190565b602080825260029082015261503360f01b604082015260600190565b6020808252600b908201526a1a5b9a5d1a585b1a5e995960aa1b604082015260600190565b602080825260029082015261503560f01b604082015260600190565b602080825260029082015261281b60f11b604082015260600190565b60208082526017908201527f63616c6c6572206d757374206265206f70657261746f72000000000000000000604082015260600190565b602080825260029082015261281960f11b604082015260600190565b9283526020830191909152604082015260600190565b60006101208201905082518252602083015160020b6020830152604083015160020b604083015260608301516156c1606084018261540d565b506080830151608083015260a083015160a083015260c083015160c083015260e083015160e083015261010080840151818401525092915050565b60006020825261080a60208301846152a2565b6000602080835260c083018451828501528185015160408501526040850151606085015260608501516080818187015280870151915060a08087015282825180855260e08801915085840194508693505b808410156153125761577382865161520a565b938501936001939093019290820190615760565b60006040825261579a60408301856152a2565b905060018060a01b03831660208301529392505050565b60006101608201905082518051835260208101516020840152604081015160408401525060208301518051606084015260208101516080840152604081015160a0840152606081015160c0840152608081015160e084015260a081015161010084015260c081015161012084015260e08101516101408401525092915050565b60006020808352610160830184518285015260018060a01b0382860151166040850152604085015115156060850152606085015161587260808601826150e4565b50608085015161588560e08601826150e4565b5060a08501516101408581015280519182905282019083906101808601905b808310156158cd576158b78285516151c5565b60c08201915084840193506001830192506158a4565b509695505050505050565b60006102208083526158ec81840187615368565b915050836020830152611ad060408301846150fd565b600061024080835261591681840188615368565b91505084602083015261592c60408301856150fd565b6001600160a01b039290921661022091909101529392505050565b6000610100808301888452602088818601528760408601528260608601528192508651808352610120860193508188019250845b818110156159a15761598e858551615241565b60e094909401939282019260010161597b565b5050855115156080860152850151151560a0850152506040840151151560c0840152606090930151151560e09092019190915250949350505050565b9182526001600160a01b0316602082015260400190565b8581526001600160a01b038516602082015283151560408201526101208101615a2060608301856150e4565b613e1b60c08301846150e4565b60008682526020868184015285604084015260018060a01b038516606084015260a0608084015283518060a0850152825b81811015615a7a5785810183015185820160c001528201615a5e565b81811115615a8b578360c083870101525b50601f01601f19169290920160c001979650505050505050565b6040518181016001600160401b0381118282101715615ac057fe5b604052919050565b60006001600160401b03821115615adb57fe5b5060209081020190565b6001600160a01b031690565b6001600160a01b0381168114615b0657600080fd5b50565b8015158114615b0657600080fd5b600b8110615b0657600080fd5b8060020b8114615b0657600080fd5b6001600160801b0381168114615b0657600080fdfe5369676e6564536166654d6174683a206164646974696f6e206f766572666c6f77536166654d6174683a206d756c7469706c69636174696f6e206f766572666c6f775369676e6564536166654d6174683a207375627472616374696f6e206f766572666c6f77a264697066735822122033864bf709de70cd796e1c082a3475118064bce6aad41ebfa788b510b1dcf4a364736f6c63430007060033",
  "libraries": {
    "LPTMath": "0x0fdb9aF7Be1e5BD282679B57317E0cd257C6A162",
    "PositionUpdater": "0x4310c279228Cb1f8d5CEb725eBDf15cf4526a773",
    "VaultLib": "0xF4dadEFBE891FF08305226c1129ad972563Ea45C",
    "PositionLib": "0x4Fe445408Ba708F42A7E62716aA939455A4E638D"
  },
  "devdoc": {
    "kind": "dev",
    "methods": {
      "checkLiquidatable(uint256)": {
        "params": {
          "_vaultId": "vault id"
        }
      },
      "forceClose(bytes[])": {
        "params": {
          "_data": "vaults data to close position"
        }
      },
      "getVaultStatus(uint256)": {
        "params": {
          "_vaultId": "vault id"
        }
      },
      "liquidate(uint256,(uint8,bool,uint128,int24,int24,uint256,uint256)[],bool)": {
        "params": {
          "_positionUpdates": "parameters to update position",
          "_vaultId": "vault id"
        }
      },
      "updatePosition(uint256,(uint8,bool,uint128,int24,int24,uint256,uint256)[],uint256,uint256,(bool,bool,bool,bool),bytes)": {
        "params": {
          "_buffer0": "max amount of token0 to send",
          "_buffer1": "max amount of token1 to send",
          "_positionUpdates": "parameters to update position",
          "_vaultId": "vault id"
        }
      }
    },
    "version": 1
  },
  "userdoc": {
    "kind": "user",
    "methods": {
      "checkLiquidatable(uint256)": {
        "notice": "Returns the flag whether a vault can be liquidated or not."
      },
      "forceClose(bytes[])": {
        "notice": "Contract owner can close positions"
      },
      "getPrice()": {
        "notice": "Gets current price of underlying token by margin token."
      },
      "getTWAP()": {
        "notice": "Gets Time Weighted Average Price of underlying token by margin token."
      },
      "getVaultStatus(uint256)": {
        "notice": "Returns collateral value and debt value."
      },
      "liquidate(uint256,(uint8,bool,uint128,int24,int24,uint256,uint256)[],bool)": {
        "notice": "Anyone can liquidates the vault if its required collateral value is positive."
      },
      "updatePosition(uint256,(uint8,bool,uint128,int24,int24,uint256,uint256)[],uint256,uint256,(bool,bool,bool,bool),bytes)": {
        "notice": "Update position in a vault."
      }
    },
    "version": 1
  },
  "storageLayout": {
    "storage": [
      {
        "astId": 9065,
        "contract": "src/ControllerHelper.sol:ControllerHelper",
        "label": "_initialized",
        "offset": 0,
        "slot": "0",
        "type": "t_bool"
      },
      {
        "astId": 9068,
        "contract": "src/ControllerHelper.sol:ControllerHelper",
        "label": "_initializing",
        "offset": 1,
        "slot": "0",
        "type": "t_bool"
      },
      {
        "astId": 12457,
        "contract": "src/ControllerHelper.sol:ControllerHelper",
        "label": "oraclePeriod",
        "offset": 0,
        "slot": "1",
        "type": "t_uint256"
      },
      {
        "astId": 12459,
        "contract": "src/ControllerHelper.sol:ControllerHelper",
        "label": "lastTouchedTimestamp",
        "offset": 0,
        "slot": "2",
        "type": "t_uint256"
      },
      {
        "astId": 12463,
        "contract": "src/ControllerHelper.sol:ControllerHelper",
        "label": "ranges",
        "offset": 0,
        "slot": "3",
        "type": "t_mapping(t_bytes32,t_struct(PerpStatus)14920_storage)"
      },
      {
        "astId": 12465,
        "contract": "src/ControllerHelper.sol:ControllerHelper",
        "label": "vaultIdCount",
        "offset": 0,
        "slot": "4",
        "type": "t_uint256"
      },
      {
        "astId": 12469,
        "contract": "src/ControllerHelper.sol:ControllerHelper",
        "label": "vaults",
        "offset": 0,
        "slot": "5",
        "type": "t_mapping(t_uint256,t_struct(Vault)14947_storage)"
      },
      {
        "astId": 12471,
        "contract": "src/ControllerHelper.sol:ControllerHelper",
        "label": "context",
        "offset": 0,
        "slot": "6",
        "type": "t_struct(Context)14966_storage"
      },
      {
        "astId": 12473,
        "contract": "src/ControllerHelper.sol:ControllerHelper",
        "label": "irmParams",
        "offset": 0,
        "slot": "19",
        "type": "t_struct(IRMParams)15152_storage"
      },
      {
        "astId": 12475,
        "contract": "src/ControllerHelper.sol:ControllerHelper",
        "label": "dpmParams",
        "offset": 0,
        "slot": "23",
        "type": "t_struct(DPMParams)15143_storage"
      },
      {
        "astId": 12477,
        "contract": "src/ControllerHelper.sol:ControllerHelper",
        "label": "operator",
        "offset": 0,
        "slot": "32",
        "type": "t_address"
      }
    ],
    "types": {
      "t_address": {
        "encoding": "inplace",
        "label": "address",
        "numberOfBytes": "20"
      },
      "t_array(t_struct(LPTState)14933_storage)dyn_storage": {
        "base": "t_struct(LPTState)14933_storage",
        "encoding": "dynamic_array",
        "label": "struct DataType.LPTState[]",
        "numberOfBytes": "32"
      },
      "t_bool": {
        "encoding": "inplace",
        "label": "bool",
        "numberOfBytes": "1"
      },
      "t_bytes32": {
        "encoding": "inplace",
        "label": "bytes32",
        "numberOfBytes": "32"
      },
      "t_int24": {
        "encoding": "inplace",
        "label": "int24",
        "numberOfBytes": "3"
      },
      "t_mapping(t_bytes32,t_struct(PerpStatus)14920_storage)": {
        "encoding": "mapping",
        "key": "t_bytes32",
        "label": "mapping(bytes32 => struct DataType.PerpStatus)",
        "numberOfBytes": "32",
        "value": "t_struct(PerpStatus)14920_storage"
      },
      "t_mapping(t_bytes32,t_struct(TickSnapshot)15129_storage)": {
        "encoding": "mapping",
        "key": "t_bytes32",
        "label": "mapping(bytes32 => struct InterestCalculator.TickSnapshot)",
        "numberOfBytes": "32",
        "value": "t_struct(TickSnapshot)15129_storage"
      },
      "t_mapping(t_uint256,t_struct(Vault)14947_storage)": {
        "encoding": "mapping",
        "key": "t_uint256",
        "label": "mapping(uint256 => struct DataType.Vault)",
        "numberOfBytes": "32",
        "value": "t_struct(Vault)14947_storage"
      },
      "t_struct(AccountState)14450_storage": {
        "encoding": "inplace",
        "label": "struct BaseToken.AccountState",
        "members": [
          {
            "astId": 14445,
            "contract": "src/ControllerHelper.sol:ControllerHelper",
            "label": "collateralAmountNotInMarket",
            "offset": 0,
            "slot": "0",
            "type": "t_uint256"
          },
          {
            "astId": 14447,
            "contract": "src/ControllerHelper.sol:ControllerHelper",
            "label": "collateralAmount",
            "offset": 0,
            "slot": "1",
            "type": "t_uint256"
          },
          {
            "astId": 14449,
            "contract": "src/ControllerHelper.sol:ControllerHelper",
            "label": "debtAmount",
            "offset": 0,
            "slot": "2",
            "type": "t_uint256"
          }
        ],
        "numberOfBytes": "96"
      },
      "t_struct(Context)14966_storage": {
        "encoding": "inplace",
        "label": "struct DataType.Context",
        "members": [
          {
            "astId": 14949,
            "contract": "src/ControllerHelper.sol:ControllerHelper",
            "label": "token0",
            "offset": 0,
            "slot": "0",
            "type": "t_address"
          },
          {
            "astId": 14951,
            "contract": "src/ControllerHelper.sol:ControllerHelper",
            "label": "token1",
            "offset": 0,
            "slot": "1",
            "type": "t_address"
          },
          {
            "astId": 14953,
            "contract": "src/ControllerHelper.sol:ControllerHelper",
            "label": "feeTier",
            "offset": 20,
            "slot": "1",
            "type": "t_uint24"
          },
          {
            "astId": 14955,
            "contract": "src/ControllerHelper.sol:ControllerHelper",
            "label": "positionManager",
            "offset": 0,
            "slot": "2",
            "type": "t_address"
          },
          {
            "astId": 14957,
            "contract": "src/ControllerHelper.sol:ControllerHelper",
            "label": "swapRouter",
            "offset": 0,
            "slot": "3",
            "type": "t_address"
          },
          {
            "astId": 14959,
            "contract": "src/ControllerHelper.sol:ControllerHelper",
            "label": "uniswapPool",
            "offset": 0,
            "slot": "4",
            "type": "t_address"
          },
          {
            "astId": 14961,
            "contract": "src/ControllerHelper.sol:ControllerHelper",
            "label": "isMarginZero",
            "offset": 20,
            "slot": "4",
            "type": "t_bool"
          },
          {
            "astId": 14963,
            "contract": "src/ControllerHelper.sol:ControllerHelper",
            "label": "tokenState0",
            "offset": 0,
            "slot": "5",
            "type": "t_struct(TokenState)14443_storage"
          },
          {
            "astId": 14965,
            "contract": "src/ControllerHelper.sol:ControllerHelper",
            "label": "tokenState1",
            "offset": 0,
            "slot": "9",
            "type": "t_struct(TokenState)14443_storage"
          }
        ],
        "numberOfBytes": "416"
      },
      "t_struct(DPMParams)15143_storage": {
        "encoding": "inplace",
        "label": "struct InterestCalculator.DPMParams",
        "members": [
          {
            "astId": 15136,
            "contract": "src/ControllerHelper.sol:ControllerHelper",
            "label": "premiumParams",
            "offset": 0,
            "slot": "0",
            "type": "t_struct(IRMParams)15152_storage"
          },
          {
            "astId": 15138,
            "contract": "src/ControllerHelper.sol:ControllerHelper",
            "label": "irmParams",
            "offset": 0,
            "slot": "4",
            "type": "t_struct(IRMParams)15152_storage"
          },
          {
            "astId": 15142,
            "contract": "src/ControllerHelper.sol:ControllerHelper",
            "label": "snapshots",
            "offset": 0,
            "slot": "8",
            "type": "t_mapping(t_bytes32,t_struct(TickSnapshot)15129_storage)"
          }
        ],
        "numberOfBytes": "288"
      },
      "t_struct(IRMParams)15152_storage": {
        "encoding": "inplace",
        "label": "struct InterestCalculator.IRMParams",
        "members": [
          {
            "astId": 15145,
            "contract": "src/ControllerHelper.sol:ControllerHelper",
            "label": "baseRate",
            "offset": 0,
            "slot": "0",
            "type": "t_uint256"
          },
          {
            "astId": 15147,
            "contract": "src/ControllerHelper.sol:ControllerHelper",
            "label": "kinkRate",
            "offset": 0,
            "slot": "1",
            "type": "t_uint256"
          },
          {
            "astId": 15149,
            "contract": "src/ControllerHelper.sol:ControllerHelper",
            "label": "slope1",
            "offset": 0,
            "slot": "2",
            "type": "t_uint256"
          },
          {
            "astId": 15151,
            "contract": "src/ControllerHelper.sol:ControllerHelper",
            "label": "slope2",
            "offset": 0,
            "slot": "3",
            "type": "t_uint256"
          }
        ],
        "numberOfBytes": "128"
      },
      "t_struct(LPTState)14933_storage": {
        "encoding": "inplace",
        "label": "struct DataType.LPTState",
        "members": [
          {
            "astId": 14922,
            "contract": "src/ControllerHelper.sol:ControllerHelper",
            "label": "isCollateral",
            "offset": 0,
            "slot": "0",
            "type": "t_bool"
          },
          {
            "astId": 14924,
            "contract": "src/ControllerHelper.sol:ControllerHelper",
            "label": "rangeId",
            "offset": 0,
            "slot": "1",
            "type": "t_bytes32"
          },
          {
            "astId": 14926,
            "contract": "src/ControllerHelper.sol:ControllerHelper",
            "label": "liquidityAmount",
            "offset": 0,
            "slot": "2",
            "type": "t_uint128"
          },
          {
            "astId": 14928,
            "contract": "src/ControllerHelper.sol:ControllerHelper",
            "label": "premiumGrowthLast",
            "offset": 0,
            "slot": "3",
            "type": "t_uint256"
          },
          {
            "astId": 14930,
            "contract": "src/ControllerHelper.sol:ControllerHelper",
            "label": "fee0Last",
            "offset": 0,
            "slot": "4",
            "type": "t_uint256"
          },
          {
            "astId": 14932,
            "contract": "src/ControllerHelper.sol:ControllerHelper",
            "label": "fee1Last",
            "offset": 0,
            "slot": "5",
            "type": "t_uint256"
          }
        ],
        "numberOfBytes": "192"
      },
      "t_struct(PerpStatus)14920_storage": {
        "encoding": "inplace",
        "label": "struct DataType.PerpStatus",
        "members": [
          {
            "astId": 14903,
            "contract": "src/ControllerHelper.sol:ControllerHelper",
            "label": "tokenId",
            "offset": 0,
            "slot": "0",
            "type": "t_uint256"
          },
          {
            "astId": 14905,
            "contract": "src/ControllerHelper.sol:ControllerHelper",
            "label": "lowerTick",
            "offset": 0,
            "slot": "1",
            "type": "t_int24"
          },
          {
            "astId": 14907,
            "contract": "src/ControllerHelper.sol:ControllerHelper",
            "label": "upperTick",
            "offset": 3,
            "slot": "1",
            "type": "t_int24"
          },
          {
            "astId": 14909,
            "contract": "src/ControllerHelper.sol:ControllerHelper",
            "label": "borrowedLiquidity",
            "offset": 6,
            "slot": "1",
            "type": "t_uint128"
          },
          {
            "astId": 14911,
            "contract": "src/ControllerHelper.sol:ControllerHelper",
            "label": "premiumGrowthForBorrower",
            "offset": 0,
            "slot": "2",
            "type": "t_uint256"
          },
          {
            "astId": 14913,
            "contract": "src/ControllerHelper.sol:ControllerHelper",
            "label": "premiumGrowthForLender",
            "offset": 0,
            "slot": "3",
            "type": "t_uint256"
          },
          {
            "astId": 14915,
            "contract": "src/ControllerHelper.sol:ControllerHelper",
            "label": "fee0Growth",
            "offset": 0,
            "slot": "4",
            "type": "t_uint256"
          },
          {
            "astId": 14917,
            "contract": "src/ControllerHelper.sol:ControllerHelper",
            "label": "fee1Growth",
            "offset": 0,
            "slot": "5",
            "type": "t_uint256"
          },
          {
            "astId": 14919,
            "contract": "src/ControllerHelper.sol:ControllerHelper",
            "label": "lastTouchedTimestamp",
            "offset": 0,
            "slot": "6",
            "type": "t_uint256"
          }
        ],
        "numberOfBytes": "224"
      },
      "t_struct(TickSnapshot)15129_storage": {
        "encoding": "inplace",
        "label": "struct InterestCalculator.TickSnapshot",
        "members": [
          {
            "astId": 15122,
            "contract": "src/ControllerHelper.sol:ControllerHelper",
            "label": "lastFeeGrowthInside0X128",
            "offset": 0,
            "slot": "0",
            "type": "t_uint256"
          },
          {
            "astId": 15124,
            "contract": "src/ControllerHelper.sol:ControllerHelper",
            "label": "lastFeeGrowthInside1X128",
            "offset": 0,
            "slot": "1",
            "type": "t_uint256"
          },
          {
            "astId": 15126,
            "contract": "src/ControllerHelper.sol:ControllerHelper",
            "label": "lastFeeGrowthGlobal0X128",
            "offset": 0,
            "slot": "2",
            "type": "t_uint256"
          },
          {
            "astId": 15128,
            "contract": "src/ControllerHelper.sol:ControllerHelper",
            "label": "lastFeeGrowthGlobal1X128",
            "offset": 0,
            "slot": "3",
            "type": "t_uint256"
          }
        ],
        "numberOfBytes": "128"
      },
      "t_struct(TokenState)14443_storage": {
        "encoding": "inplace",
        "label": "struct BaseToken.TokenState",
        "members": [
          {
            "astId": 14436,
            "contract": "src/ControllerHelper.sol:ControllerHelper",
            "label": "totalDeposited",
            "offset": 0,
            "slot": "0",
            "type": "t_uint256"
          },
          {
            "astId": 14438,
            "contract": "src/ControllerHelper.sol:ControllerHelper",
            "label": "totalBorrowed",
            "offset": 0,
            "slot": "1",
            "type": "t_uint256"
          },
          {
            "astId": 14440,
            "contract": "src/ControllerHelper.sol:ControllerHelper",
            "label": "collateralScaler",
            "offset": 0,
            "slot": "2",
            "type": "t_uint256"
          },
          {
            "astId": 14442,
            "contract": "src/ControllerHelper.sol:ControllerHelper",
            "label": "debtScaler",
            "offset": 0,
            "slot": "3",
            "type": "t_uint256"
          }
        ],
        "numberOfBytes": "128"
      },
      "t_struct(Vault)14947_storage": {
        "encoding": "inplace",
        "label": "struct DataType.Vault",
        "members": [
          {
            "astId": 14935,
            "contract": "src/ControllerHelper.sol:ControllerHelper",
            "label": "vaultId",
            "offset": 0,
            "slot": "0",
            "type": "t_uint256"
          },
          {
            "astId": 14937,
            "contract": "src/ControllerHelper.sol:ControllerHelper",
            "label": "owner",
            "offset": 0,
            "slot": "1",
            "type": "t_address"
          },
          {
            "astId": 14939,
            "contract": "src/ControllerHelper.sol:ControllerHelper",
            "label": "isClosed",
            "offset": 20,
            "slot": "1",
            "type": "t_bool"
          },
          {
            "astId": 14941,
            "contract": "src/ControllerHelper.sol:ControllerHelper",
            "label": "balance0",
            "offset": 0,
            "slot": "2",
            "type": "t_struct(AccountState)14450_storage"
          },
          {
            "astId": 14943,
            "contract": "src/ControllerHelper.sol:ControllerHelper",
            "label": "balance1",
            "offset": 0,
            "slot": "5",
            "type": "t_struct(AccountState)14450_storage"
          },
          {
            "astId": 14946,
            "contract": "src/ControllerHelper.sol:ControllerHelper",
            "label": "lpts",
            "offset": 0,
            "slot": "8",
            "type": "t_array(t_struct(LPTState)14933_storage)dyn_storage"
          }
        ],
        "numberOfBytes": "288"
      },
      "t_uint128": {
        "encoding": "inplace",
        "label": "uint128",
        "numberOfBytes": "16"
      },
      "t_uint24": {
        "encoding": "inplace",
        "label": "uint24",
        "numberOfBytes": "3"
      },
      "t_uint256": {
        "encoding": "inplace",
        "label": "uint256",
        "numberOfBytes": "32"
      }
    }
  }
}