{
  "address": "0x59a60084fD2eaBf360d1d9875BA2E164c47c7c31",
  "abi": [
    {
      "inputs": [],
      "stateMutability": "nonpayable",
      "type": "constructor"
    },
    {
      "anonymous": false,
      "inputs": [
        {
          "indexed": false,
          "internalType": "uint256",
          "name": "vaultId",
          "type": "uint256"
        },
        {
          "indexed": false,
          "internalType": "int256",
          "name": "a0",
          "type": "int256"
        },
        {
          "indexed": false,
          "internalType": "int256",
          "name": "a1",
          "type": "int256"
        },
        {
          "indexed": false,
          "internalType": "uint160",
          "name": "sqrtPrice",
          "type": "uint160"
        },
        {
          "components": [
            {
              "internalType": "uint256",
              "name": "subVaultIndex",
              "type": "uint256"
            },
            {
              "internalType": "bytes",
              "name": "metadata",
              "type": "bytes"
            }
          ],
          "indexed": false,
          "internalType": "struct DataType.MetaData",
          "name": "metadata",
          "type": "tuple"
        }
      ],
      "name": "PositionUpdated",
      "type": "event"
    },
    {
      "anonymous": false,
      "inputs": [
        {
          "indexed": false,
          "internalType": "uint256",
          "name": "vaultId",
          "type": "uint256"
        },
        {
          "indexed": false,
          "internalType": "address",
          "name": "owner",
          "type": "address"
        }
      ],
      "name": "VaultCreated",
      "type": "event"
    },
    {
      "inputs": [
        {
          "internalType": "uint256",
          "name": "_vaultId",
          "type": "uint256"
        },
        {
          "components": [
            {
              "internalType": "uint256",
              "name": "subVaultIndex",
              "type": "uint256"
            },
            {
              "internalType": "uint256",
              "name": "collateral0",
              "type": "uint256"
            },
            {
              "internalType": "uint256",
              "name": "collateral1",
              "type": "uint256"
            },
            {
              "internalType": "uint256",
              "name": "debt0",
              "type": "uint256"
            },
            {
              "internalType": "uint256",
              "name": "debt1",
              "type": "uint256"
            },
            {
              "components": [
                {
                  "internalType": "bool",
                  "name": "isCollateral",
                  "type": "bool"
                },
                {
                  "internalType": "uint128",
                  "name": "liquidity",
                  "type": "uint128"
                },
                {
                  "internalType": "int24",
                  "name": "lowerTick",
                  "type": "int24"
                },
                {
                  "internalType": "int24",
                  "name": "upperTick",
                  "type": "int24"
                }
              ],
              "internalType": "struct DataType.LPT[]",
              "name": "lpts",
              "type": "tuple[]"
            }
          ],
          "internalType": "struct DataType.Position",
          "name": "_position",
          "type": "tuple"
        }
      ],
      "name": "calculateMinCollateral",
      "outputs": [
        {
          "internalType": "int256",
          "name": "",
          "type": "int256"
        }
      ],
      "stateMutability": "view",
      "type": "function"
    },
    {
      "inputs": [
        {
          "internalType": "bytes32",
          "name": "_rangeId",
          "type": "bytes32"
        }
      ],
      "name": "calculateYearlyPremium",
      "outputs": [
        {
          "internalType": "uint256",
          "name": "",
          "type": "uint256"
        }
      ],
      "stateMutability": "view",
      "type": "function"
    },
    {
      "inputs": [
        {
          "internalType": "uint256",
          "name": "_vaultId",
          "type": "uint256"
        }
      ],
      "name": "checkLiquidatable",
      "outputs": [
        {
          "internalType": "bool",
          "name": "",
          "type": "bool"
        }
      ],
      "stateMutability": "nonpayable",
      "type": "function"
    },
    {
      "inputs": [
        {
          "internalType": "uint256",
          "name": "_vaultId",
          "type": "uint256"
        },
        {
          "internalType": "uint256",
          "name": "_subVaultIndex",
          "type": "uint256"
        },
        {
          "components": [
            {
              "internalType": "bool",
              "name": "reduceOnly",
              "type": "bool"
            },
            {
              "internalType": "bool",
              "name": "swapAnyway",
              "type": "bool"
            },
            {
              "internalType": "bool",
              "name": "quoterMode",
              "type": "bool"
            },
            {
              "internalType": "bool",
              "name": "isQuoteZero",
              "type": "bool"
            },
            {
              "internalType": "int256",
              "name": "targetMarginAmount0",
              "type": "int256"
            },
            {
              "internalType": "int256",
              "name": "targetMarginAmount1",
              "type": "int256"
            }
          ],
          "internalType": "struct DataType.TradeOption",
          "name": "_tradeOption",
          "type": "tuple"
        },
        {
          "components": [
            {
              "internalType": "uint256",
              "name": "price",
              "type": "uint256"
            },
            {
              "internalType": "uint256",
              "name": "slippageTorelance",
              "type": "uint256"
            },
            {
              "internalType": "uint256",
              "name": "swapRatio",
              "type": "uint256"
            },
            {
              "components": [
                {
                  "internalType": "uint256",
                  "name": "subVaultIndex",
                  "type": "uint256"
                },
                {
                  "internalType": "bytes",
                  "name": "metadata",
                  "type": "bytes"
                }
              ],
              "internalType": "struct DataType.MetaData",
              "name": "metadata",
              "type": "tuple"
            }
          ],
          "internalType": "struct DataType.ClosePositionOption",
          "name": "_closePositionOptions",
          "type": "tuple"
        }
      ],
      "name": "closeSubVault",
      "outputs": [
        {
          "internalType": "uint256",
          "name": "vaultId",
          "type": "uint256"
        }
      ],
      "stateMutability": "nonpayable",
      "type": "function"
    },
    {
      "inputs": [
        {
          "internalType": "uint256",
          "name": "_vaultId",
          "type": "uint256"
        },
        {
          "components": [
            {
              "internalType": "bool",
              "name": "reduceOnly",
              "type": "bool"
            },
            {
              "internalType": "bool",
              "name": "swapAnyway",
              "type": "bool"
            },
            {
              "internalType": "bool",
              "name": "quoterMode",
              "type": "bool"
            },
            {
              "internalType": "bool",
              "name": "isQuoteZero",
              "type": "bool"
            },
            {
              "internalType": "int256",
              "name": "targetMarginAmount0",
              "type": "int256"
            },
            {
              "internalType": "int256",
              "name": "targetMarginAmount1",
              "type": "int256"
            }
          ],
          "internalType": "struct DataType.TradeOption",
          "name": "_tradeOption",
          "type": "tuple"
        },
        {
          "components": [
            {
              "internalType": "uint256",
              "name": "price",
              "type": "uint256"
            },
            {
              "internalType": "uint256",
              "name": "slippageTorelance",
              "type": "uint256"
            },
            {
              "internalType": "uint256",
              "name": "swapRatio",
              "type": "uint256"
            },
            {
              "components": [
                {
                  "internalType": "uint256",
                  "name": "subVaultIndex",
                  "type": "uint256"
                },
                {
                  "internalType": "bytes",
                  "name": "metadata",
                  "type": "bytes"
                }
              ],
              "internalType": "struct DataType.MetaData",
              "name": "metadata",
              "type": "tuple"
            }
          ],
          "internalType": "struct DataType.ClosePositionOption",
          "name": "_closePositionOptions",
          "type": "tuple"
        }
      ],
      "name": "closeVault",
      "outputs": [
        {
          "internalType": "uint256",
          "name": "vaultId",
          "type": "uint256"
        }
      ],
      "stateMutability": "nonpayable",
      "type": "function"
    },
    {
      "inputs": [],
      "name": "dpmParams",
      "outputs": [
        {
          "components": [
            {
              "internalType": "uint256",
              "name": "baseRate",
              "type": "uint256"
            },
            {
              "internalType": "uint256",
              "name": "kinkRate",
              "type": "uint256"
            },
            {
              "internalType": "uint256",
              "name": "slope1",
              "type": "uint256"
            },
            {
              "internalType": "uint256",
              "name": "slope2",
              "type": "uint256"
            }
          ],
          "internalType": "struct InterestCalculator.IRMParams",
          "name": "premiumParams",
          "type": "tuple"
        },
        {
          "components": [
            {
              "internalType": "uint256",
              "name": "baseRate",
              "type": "uint256"
            },
            {
              "internalType": "uint256",
              "name": "kinkRate",
              "type": "uint256"
            },
            {
              "internalType": "uint256",
              "name": "slope1",
              "type": "uint256"
            },
            {
              "internalType": "uint256",
              "name": "slope2",
              "type": "uint256"
            }
          ],
          "internalType": "struct InterestCalculator.IRMParams",
          "name": "irmParams",
          "type": "tuple"
        }
      ],
      "stateMutability": "view",
      "type": "function"
    },
    {
      "inputs": [
        {
          "internalType": "bytes[]",
          "name": "_data",
          "type": "bytes[]"
        }
      ],
      "name": "forceClose",
      "outputs": [],
      "stateMutability": "nonpayable",
      "type": "function"
    },
    {
      "inputs": [],
      "name": "getAssetStatus",
      "outputs": [
        {
          "internalType": "uint256",
          "name": "",
          "type": "uint256"
        },
        {
          "internalType": "uint256",
          "name": "",
          "type": "uint256"
        },
        {
          "internalType": "uint256",
          "name": "",
          "type": "uint256"
        },
        {
          "internalType": "uint256",
          "name": "",
          "type": "uint256"
        },
        {
          "internalType": "uint256",
          "name": "",
          "type": "uint256"
        },
        {
          "internalType": "uint256",
          "name": "",
          "type": "uint256"
        }
      ],
      "stateMutability": "view",
      "type": "function"
    },
    {
      "inputs": [],
      "name": "getContext",
      "outputs": [
        {
          "internalType": "bool",
          "name": "",
          "type": "bool"
        },
        {
          "internalType": "uint256",
          "name": "",
          "type": "uint256"
        },
        {
          "internalType": "uint256",
          "name": "",
          "type": "uint256"
        }
      ],
      "stateMutability": "view",
      "type": "function"
    },
    {
      "inputs": [
        {
          "internalType": "bytes32",
          "name": "_rangeId",
          "type": "bytes32"
        }
      ],
      "name": "getLPTStatus",
      "outputs": [
        {
          "internalType": "uint256",
          "name": "",
          "type": "uint256"
        },
        {
          "internalType": "uint256",
          "name": "",
          "type": "uint256"
        },
        {
          "internalType": "uint256",
          "name": "",
          "type": "uint256"
        }
      ],
      "stateMutability": "view",
      "type": "function"
    },
    {
      "inputs": [
        {
          "internalType": "uint256",
          "name": "_vaultId",
          "type": "uint256"
        }
      ],
      "name": "getPosition",
      "outputs": [
        {
          "components": [
            {
              "internalType": "uint256",
              "name": "subVaultIndex",
              "type": "uint256"
            },
            {
              "internalType": "uint256",
              "name": "collateral0",
              "type": "uint256"
            },
            {
              "internalType": "uint256",
              "name": "collateral1",
              "type": "uint256"
            },
            {
              "internalType": "uint256",
              "name": "debt0",
              "type": "uint256"
            },
            {
              "internalType": "uint256",
              "name": "debt1",
              "type": "uint256"
            },
            {
              "components": [
                {
                  "internalType": "bool",
                  "name": "isCollateral",
                  "type": "bool"
                },
                {
                  "internalType": "uint128",
                  "name": "liquidity",
                  "type": "uint128"
                },
                {
                  "internalType": "int24",
                  "name": "lowerTick",
                  "type": "int24"
                },
                {
                  "internalType": "int24",
                  "name": "upperTick",
                  "type": "int24"
                }
              ],
              "internalType": "struct DataType.LPT[]",
              "name": "lpts",
              "type": "tuple[]"
            }
          ],
          "internalType": "struct DataType.Position[]",
          "name": "",
          "type": "tuple[]"
        }
      ],
      "stateMutability": "nonpayable",
      "type": "function"
    },
    {
      "inputs": [],
      "name": "getPrice",
      "outputs": [
        {
          "internalType": "uint256",
          "name": "",
          "type": "uint256"
        }
      ],
      "stateMutability": "view",
      "type": "function"
    },
    {
      "inputs": [
        {
          "internalType": "bytes32",
          "name": "_rangeId",
          "type": "bytes32"
        }
      ],
      "name": "getRange",
      "outputs": [
        {
          "components": [
            {
              "internalType": "uint256",
              "name": "tokenId",
              "type": "uint256"
            },
            {
              "internalType": "int24",
              "name": "lowerTick",
              "type": "int24"
            },
            {
              "internalType": "int24",
              "name": "upperTick",
              "type": "int24"
            },
            {
              "internalType": "uint128",
              "name": "borrowedLiquidity",
              "type": "uint128"
            },
            {
              "internalType": "uint256",
              "name": "premiumGrowthForBorrower",
              "type": "uint256"
            },
            {
              "internalType": "uint256",
              "name": "premiumGrowthForLender",
              "type": "uint256"
            },
            {
              "internalType": "uint256",
              "name": "fee0Growth",
              "type": "uint256"
            },
            {
              "internalType": "uint256",
              "name": "fee1Growth",
              "type": "uint256"
            },
            {
              "internalType": "uint256",
              "name": "lastTouchedTimestamp",
              "type": "uint256"
            }
          ],
          "internalType": "struct DataType.PerpStatus",
          "name": "",
          "type": "tuple"
        }
      ],
      "stateMutability": "view",
      "type": "function"
    },
    {
      "inputs": [],
      "name": "getSqrtPrice",
      "outputs": [
        {
          "internalType": "uint160",
          "name": "sqrtPriceX96",
          "type": "uint160"
        }
      ],
      "stateMutability": "view",
      "type": "function"
    },
    {
      "inputs": [
        {
          "internalType": "uint256",
          "name": "_subVaultId",
          "type": "uint256"
        }
      ],
      "name": "getSubVault",
      "outputs": [
        {
          "components": [
            {
              "components": [
                {
                  "internalType": "uint256",
                  "name": "collateralAmountNotInMarket",
                  "type": "uint256"
                },
                {
                  "internalType": "uint256",
                  "name": "collateralAmount",
                  "type": "uint256"
                },
                {
                  "internalType": "uint256",
                  "name": "debtAmount",
                  "type": "uint256"
                }
              ],
              "internalType": "struct BaseToken.AccountState",
              "name": "balance0",
              "type": "tuple"
            },
            {
              "components": [
                {
                  "internalType": "uint256",
                  "name": "collateralAmountNotInMarket",
                  "type": "uint256"
                },
                {
                  "internalType": "uint256",
                  "name": "collateralAmount",
                  "type": "uint256"
                },
                {
                  "internalType": "uint256",
                  "name": "debtAmount",
                  "type": "uint256"
                }
              ],
              "internalType": "struct BaseToken.AccountState",
              "name": "balance1",
              "type": "tuple"
            },
            {
              "components": [
                {
                  "internalType": "bool",
                  "name": "isCollateral",
                  "type": "bool"
                },
                {
                  "internalType": "bytes32",
                  "name": "rangeId",
                  "type": "bytes32"
                },
                {
                  "internalType": "uint128",
                  "name": "liquidityAmount",
                  "type": "uint128"
                },
                {
                  "internalType": "uint256",
                  "name": "premiumGrowthLast",
                  "type": "uint256"
                },
                {
                  "internalType": "uint256",
                  "name": "fee0Last",
                  "type": "uint256"
                },
                {
                  "internalType": "uint256",
                  "name": "fee1Last",
                  "type": "uint256"
                }
              ],
              "internalType": "struct DataType.LPTState[]",
              "name": "lpts",
              "type": "tuple[]"
            }
          ],
          "internalType": "struct DataType.SubVault",
          "name": "",
          "type": "tuple"
        }
      ],
      "stateMutability": "view",
      "type": "function"
    },
    {
      "inputs": [],
      "name": "getTWAP",
      "outputs": [
        {
          "internalType": "uint256",
          "name": "",
          "type": "uint256"
        }
      ],
      "stateMutability": "view",
      "type": "function"
    },
    {
      "inputs": [],
      "name": "getTWAPSqrtPrice",
      "outputs": [
        {
          "internalType": "uint160",
          "name": "sqrtPriceX96",
          "type": "uint160"
        }
      ],
      "stateMutability": "view",
      "type": "function"
    },
    {
      "inputs": [
        {
          "internalType": "uint256",
          "name": "_vaultId",
          "type": "uint256"
        }
      ],
      "name": "getVault",
      "outputs": [
        {
          "components": [
            {
              "internalType": "uint256",
              "name": "vaultId",
              "type": "uint256"
            },
            {
              "internalType": "address",
              "name": "owner",
              "type": "address"
            },
            {
              "internalType": "uint256",
              "name": "marginAmount0",
              "type": "uint256"
            },
            {
              "internalType": "uint256",
              "name": "marginAmount1",
              "type": "uint256"
            },
            {
              "internalType": "uint256[]",
              "name": "subVaults",
              "type": "uint256[]"
            }
          ],
          "internalType": "struct DataType.Vault",
          "name": "",
          "type": "tuple"
        }
      ],
      "stateMutability": "view",
      "type": "function"
    },
    {
      "inputs": [
        {
          "internalType": "uint256",
          "name": "_vaultId",
          "type": "uint256"
        }
      ],
      "name": "getVaultStatus",
      "outputs": [
        {
          "components": [
            {
              "internalType": "uint256",
              "name": "marginValue",
              "type": "uint256"
            },
            {
              "internalType": "int256",
              "name": "minCollateral",
              "type": "int256"
            },
            {
              "components": [
                {
                  "components": [
                    {
                      "internalType": "uint256",
                      "name": "collateralValue",
                      "type": "uint256"
                    },
                    {
                      "internalType": "uint256",
                      "name": "debtValue",
                      "type": "uint256"
                    },
                    {
                      "internalType": "int256",
                      "name": "premiumValue",
                      "type": "int256"
                    }
                  ],
                  "internalType": "struct DataType.VaultStatusValue",
                  "name": "values",
                  "type": "tuple"
                },
                {
                  "components": [
                    {
                      "internalType": "uint256",
                      "name": "collateralAmount0",
                      "type": "uint256"
                    },
                    {
                      "internalType": "uint256",
                      "name": "collateralAmount1",
                      "type": "uint256"
                    },
                    {
                      "internalType": "uint256",
                      "name": "debtAmount0",
                      "type": "uint256"
                    },
                    {
                      "internalType": "uint256",
                      "name": "debtAmount1",
                      "type": "uint256"
                    },
                    {
                      "internalType": "uint256",
                      "name": "receivedTradeAmount0",
                      "type": "uint256"
                    },
                    {
                      "internalType": "uint256",
                      "name": "receivedTradeAmount1",
                      "type": "uint256"
                    },
                    {
                      "internalType": "uint256",
                      "name": "receivedPremium",
                      "type": "uint256"
                    },
                    {
                      "internalType": "uint256",
                      "name": "paidpremium",
                      "type": "uint256"
                    }
                  ],
                  "internalType": "struct DataType.VaultStatusAmount",
                  "name": "amount",
                  "type": "tuple"
                }
              ],
              "internalType": "struct DataType.SubVaultStatus[]",
              "name": "subVaults",
              "type": "tuple[]"
            }
          ],
          "internalType": "struct DataType.VaultStatus",
          "name": "",
          "type": "tuple"
        }
      ],
      "stateMutability": "nonpayable",
      "type": "function"
    },
    {
      "inputs": [
        {
          "components": [
            {
              "internalType": "uint24",
              "name": "feeTier",
              "type": "uint24"
            },
            {
              "internalType": "address",
              "name": "token0",
              "type": "address"
            },
            {
              "internalType": "address",
              "name": "token1",
              "type": "address"
            },
            {
              "internalType": "bool",
              "name": "isMarginZero",
              "type": "bool"
            }
          ],
          "internalType": "struct DataType.InitializationParams",
          "name": "_initializationParams",
          "type": "tuple"
        },
        {
          "internalType": "address",
          "name": "_positionManager",
          "type": "address"
        },
        {
          "internalType": "address",
          "name": "_factory",
          "type": "address"
        },
        {
          "internalType": "address",
          "name": "_swapRouter",
          "type": "address"
        }
      ],
      "name": "initialize",
      "outputs": [],
      "stateMutability": "nonpayable",
      "type": "function"
    },
    {
      "inputs": [],
      "name": "irmParams",
      "outputs": [
        {
          "internalType": "uint256",
          "name": "baseRate",
          "type": "uint256"
        },
        {
          "internalType": "uint256",
          "name": "kinkRate",
          "type": "uint256"
        },
        {
          "internalType": "uint256",
          "name": "slope1",
          "type": "uint256"
        },
        {
          "internalType": "uint256",
          "name": "slope2",
          "type": "uint256"
        }
      ],
      "stateMutability": "view",
      "type": "function"
    },
    {
      "inputs": [],
      "name": "lastTouchedTimestamp",
      "outputs": [
        {
          "internalType": "uint256",
          "name": "",
          "type": "uint256"
        }
      ],
      "stateMutability": "view",
      "type": "function"
    },
    {
      "inputs": [
        {
          "internalType": "uint256",
          "name": "_vaultId",
          "type": "uint256"
        },
        {
          "components": [
            {
              "internalType": "uint256",
              "name": "price",
              "type": "uint256"
            },
            {
              "internalType": "uint256",
              "name": "slippageTorelance",
              "type": "uint256"
            },
            {
              "internalType": "uint256",
              "name": "swapRatio",
              "type": "uint256"
            },
            {
              "internalType": "bool",
              "name": "swapAnyway",
              "type": "bool"
            }
          ],
          "internalType": "struct DataType.LiquidationOption",
          "name": "_liquidationOption",
          "type": "tuple"
        }
      ],
      "name": "liquidate",
      "outputs": [],
      "stateMutability": "nonpayable",
      "type": "function"
    },
    {
      "inputs": [
        {
          "internalType": "uint256",
          "name": "_vaultId",
          "type": "uint256"
        },
        {
          "components": [
            {
              "internalType": "uint256",
              "name": "subVaultIndex",
              "type": "uint256"
            },
            {
              "internalType": "uint256",
              "name": "collateral0",
              "type": "uint256"
            },
            {
              "internalType": "uint256",
              "name": "collateral1",
              "type": "uint256"
            },
            {
              "internalType": "uint256",
              "name": "debt0",
              "type": "uint256"
            },
            {
              "internalType": "uint256",
              "name": "debt1",
              "type": "uint256"
            },
            {
              "components": [
                {
                  "internalType": "bool",
                  "name": "isCollateral",
                  "type": "bool"
                },
                {
                  "internalType": "uint128",
                  "name": "liquidity",
                  "type": "uint128"
                },
                {
                  "internalType": "int24",
                  "name": "lowerTick",
                  "type": "int24"
                },
                {
                  "internalType": "int24",
                  "name": "upperTick",
                  "type": "int24"
                }
              ],
              "internalType": "struct DataType.LPT[]",
              "name": "lpts",
              "type": "tuple[]"
            }
          ],
          "internalType": "struct DataType.Position",
          "name": "_position",
          "type": "tuple"
        },
        {
          "components": [
            {
              "internalType": "bool",
              "name": "reduceOnly",
              "type": "bool"
            },
            {
              "internalType": "bool",
              "name": "swapAnyway",
              "type": "bool"
            },
            {
              "internalType": "bool",
              "name": "quoterMode",
              "type": "bool"
            },
            {
              "internalType": "bool",
              "name": "isQuoteZero",
              "type": "bool"
            },
            {
              "internalType": "int256",
              "name": "targetMarginAmount0",
              "type": "int256"
            },
            {
              "internalType": "int256",
              "name": "targetMarginAmount1",
              "type": "int256"
            }
          ],
          "internalType": "struct DataType.TradeOption",
          "name": "_tradeOption",
          "type": "tuple"
        },
        {
          "components": [
            {
              "internalType": "uint256",
              "name": "price",
              "type": "uint256"
            },
            {
              "internalType": "uint256",
              "name": "slippageTorelance",
              "type": "uint256"
            },
            {
              "internalType": "uint256",
              "name": "bufferAmount0",
              "type": "uint256"
            },
            {
              "internalType": "uint256",
              "name": "bufferAmount1",
              "type": "uint256"
            },
            {
              "components": [
                {
                  "internalType": "uint256",
                  "name": "subVaultIndex",
                  "type": "uint256"
                },
                {
                  "internalType": "bytes",
                  "name": "metadata",
                  "type": "bytes"
                }
              ],
              "internalType": "struct DataType.MetaData",
              "name": "metadata",
              "type": "tuple"
            }
          ],
          "internalType": "struct DataType.OpenPositionOption",
          "name": "_openPositionOptions",
          "type": "tuple"
        }
      ],
      "name": "openPosition",
      "outputs": [
        {
          "internalType": "uint256",
          "name": "vaultId",
          "type": "uint256"
        }
      ],
      "stateMutability": "nonpayable",
      "type": "function"
    },
    {
      "inputs": [],
      "name": "operator",
      "outputs": [
        {
          "internalType": "address",
          "name": "",
          "type": "address"
        }
      ],
      "stateMutability": "view",
      "type": "function"
    },
    {
      "inputs": [
        {
          "internalType": "address",
          "name": "_newOperator",
          "type": "address"
        }
      ],
      "name": "setOperator",
      "outputs": [],
      "stateMutability": "nonpayable",
      "type": "function"
    },
    {
      "inputs": [
        {
          "components": [
            {
              "internalType": "uint256",
              "name": "baseRate",
              "type": "uint256"
            },
            {
              "internalType": "uint256",
              "name": "kinkRate",
              "type": "uint256"
            },
            {
              "internalType": "uint256",
              "name": "slope1",
              "type": "uint256"
            },
            {
              "internalType": "uint256",
              "name": "slope2",
              "type": "uint256"
            }
          ],
          "internalType": "struct InterestCalculator.IRMParams",
          "name": "_irmParams",
          "type": "tuple"
        },
        {
          "components": [
            {
              "internalType": "uint256",
              "name": "baseRate",
              "type": "uint256"
            },
            {
              "internalType": "uint256",
              "name": "kinkRate",
              "type": "uint256"
            },
            {
              "internalType": "uint256",
              "name": "slope1",
              "type": "uint256"
            },
            {
              "internalType": "uint256",
              "name": "slope2",
              "type": "uint256"
            }
          ],
          "internalType": "struct InterestCalculator.IRMParams",
          "name": "_premiumParams",
          "type": "tuple"
        }
      ],
      "name": "updateDRMParams",
      "outputs": [],
      "stateMutability": "nonpayable",
      "type": "function"
    },
    {
      "inputs": [
        {
          "components": [
            {
              "internalType": "uint256",
              "name": "baseRate",
              "type": "uint256"
            },
            {
              "internalType": "uint256",
              "name": "kinkRate",
              "type": "uint256"
            },
            {
              "internalType": "uint256",
              "name": "slope1",
              "type": "uint256"
            },
            {
              "internalType": "uint256",
              "name": "slope2",
              "type": "uint256"
            }
          ],
          "internalType": "struct InterestCalculator.IRMParams",
          "name": "_irmParams",
          "type": "tuple"
        }
      ],
      "name": "updateIRMParams",
      "outputs": [],
      "stateMutability": "nonpayable",
      "type": "function"
    },
    {
      "inputs": [
        {
          "internalType": "uint256",
          "name": "_vaultId",
          "type": "uint256"
        },
        {
          "components": [
            {
              "internalType": "enum DataType.PositionUpdateType",
              "name": "positionUpdateType",
              "type": "uint8"
            },
            {
              "internalType": "uint256",
              "name": "subVaultIndex",
              "type": "uint256"
            },
            {
              "internalType": "bool",
              "name": "zeroForOne",
              "type": "bool"
            },
            {
              "internalType": "uint128",
              "name": "liquidity",
              "type": "uint128"
            },
            {
              "internalType": "int24",
              "name": "lowerTick",
              "type": "int24"
            },
            {
              "internalType": "int24",
              "name": "upperTick",
              "type": "int24"
            },
            {
              "internalType": "uint256",
              "name": "param0",
              "type": "uint256"
            },
            {
              "internalType": "uint256",
              "name": "param1",
              "type": "uint256"
            }
          ],
          "internalType": "struct DataType.PositionUpdate[]",
          "name": "_positionUpdates",
          "type": "tuple[]"
        },
        {
          "internalType": "uint256",
          "name": "_buffer0",
          "type": "uint256"
        },
        {
          "internalType": "uint256",
          "name": "_buffer1",
          "type": "uint256"
        },
        {
          "components": [
            {
              "internalType": "bool",
              "name": "reduceOnly",
              "type": "bool"
            },
            {
              "internalType": "bool",
              "name": "swapAnyway",
              "type": "bool"
            },
            {
              "internalType": "bool",
              "name": "quoterMode",
              "type": "bool"
            },
            {
              "internalType": "bool",
              "name": "isQuoteZero",
              "type": "bool"
            },
            {
              "internalType": "int256",
              "name": "targetMarginAmount0",
              "type": "int256"
            },
            {
              "internalType": "int256",
              "name": "targetMarginAmount1",
              "type": "int256"
            }
          ],
          "internalType": "struct DataType.TradeOption",
          "name": "_tradeOption",
          "type": "tuple"
        },
        {
          "components": [
            {
              "internalType": "uint256",
              "name": "subVaultIndex",
              "type": "uint256"
            },
            {
              "internalType": "bytes",
              "name": "metadata",
              "type": "bytes"
            }
          ],
          "internalType": "struct DataType.MetaData",
          "name": "_metadata",
          "type": "tuple"
        }
      ],
      "name": "updatePosition",
      "outputs": [
        {
          "internalType": "uint256",
          "name": "vaultId",
          "type": "uint256"
        }
      ],
      "stateMutability": "nonpayable",
      "type": "function"
    }
  ],
  "transactionHash": "0x547f0e69ab23c3f5b91c2b53a628738d1677902274bda113c7efa684fe05bf78",
  "args": [],
  "solcInputHash": "d197fd8b597ec91ad876c7e6a3d23a22",
  "bytecode": "0x608060405234801561001057600080fd5b50615f0980620000216000396000f3fe608060405234801561001057600080fd5b50600436106101cf5760003560e01c806365b5f6e3116101045780639ecac92c116100a2578063cb3c9a5311610071578063cb3c9a5314610400578063eb02c30114610408578063ee6097f014610428578063fea9a2c21461043b576101cf565b80639ecac92c146103a5578063b3ab15fb146103b8578063c04ed3d3146103cb578063c3ef9ea1146103ed576101cf565b8063859a9c80116100de578063859a9c801461036257806386e6862d146103755780639403b6341461037d57806398d5fdca1461039d576101cf565b806365b5f6e314610329578063687157731461033c5780636fc245331461034f576101cf565b806330050fbd11610171578063456157161161014b57806345615716146102c257806349ebb77d146102dc57806351be57d3146102fc578063570ca73514610314576101cf565b806330050fbd1461026f57806333a9d0601461028f5780633e129715146102a2576101cf565b806305ecd003116101ad57806305ecd00314610228578063127f0f071461023d5780631c2d487e14610254578063275892a214610267576101cf565b8063012a883f146101d4578063013216f5146101f35780630594300214610213575b600080fd5b6101dc61044e565b6040516101ea929190615766565b60405180910390f35b610206610201366004614770565b6104ab565b6040516101ea9190615782565b610226610221366004614d94565b610547565b005b610230610613565b6040516101ea91906155e2565b610245610642565b6040516101ea939291906155bc565b610230610262366004614f8a565b61065c565b6102306106cd565b61028261027d366004614770565b6106d3565b6040516101ea919061585c565b61022661029d3660046147de565b6107e2565b6102b56102b0366004614770565b61084e565b6040516101ea91906155b1565b6102ca610868565b6040516101ea96959493929190615d87565b6102ef6102ea366004614770565b6109b4565b6040516101ea9190615910565b610304610b05565b6040516101ea9493929190615d6c565b61031c610b14565b6040516101ea919061544c565b610226610337366004614620565b610b23565b61022661034a3660046147c3565b610bad565b61023061035d366004614e51565b610bf5565b610230610370366004614c10565b610ccb565b61031c610ef2565b61039061038b366004614770565b610f7b565b6040516101ea91906159e1565b610230611022565b6102306103b3366004614f34565b61103e565b6102266103c6366004614604565b611054565b6103de6103d9366004614770565b6110a0565b6040516101ea93929190615d56565b6102306103fb366004614e17565b611192565b61031c611248565b61041b610416366004614770565b6112e7565b6040516101ea9190615479565b610226610436366004614813565b6112fb565b610230610449366004614770565b6116c2565b60408051608080820183526018548252601954602080840191909152601a5483850152601b5460608085019190915284519283018552601c548352601d5491830191909152601e5493820193909352601f54928101929092529082565b6104b3613d41565b5060008181526002602081815260409283902083516101208101855281548152600182015480850b850b850b9382019390935263010000008304840b840b840b94810194909452600160301b9091046001600160801b03166060840152908101546080830152600381015460a0830152600481015460c0830152600581015460e0830152600601546101008201525b919050565b60007305a8e395E2f08F95B2dA5c1c578781F0bf7a530A63ffc4b1ad61056c856112e7565b8460400151610579610ef2565b6040518463ffffffff1660e01b815260040161059793929190615536565b60006040518083038186803b1580156105af57600080fd5b505af41580156105c3573d6000803e3d6000fd5b505050506040513d6000823e601f3d908101601f191682016040526105eb91908101906146a8565b90506105fc838284606001516117ad565b61060e82600001518360200151611b16565b505050565b600a5460009061063d90600160a01b900460ff1661062f611248565b6001600160a01b0316611b5e565b905090565b600a54600354600b54600160a01b90920460ff1692909190565b604080516001808252818301909252600091829190816020015b61067e613d9c565b81526020019060019003908161067657905050905061069d8686611c26565b816000815181106106aa57fe5b60200260200101819052506106c186828686611d83565b9150505b949350505050565b60015481565b6106db613dd2565b6000828152600560208181526040808420815160c0810183528154606080830191825260018401546080840152600284015460a08401529082528351908101845260038301548152600483015481860152948201548584015280840194909452600681018054835181860281018601855281815295969295938701949192909184015b828210156107d45760008481526020908190206040805160c08101825260068602909201805460ff16151583526001808201548486015260028201546001600160801b03169284019290925260038101546060840152600481015460808401526005015460a0830152908352909201910161075e565b505050915250909392505050565b6021546001600160a01b031633146108155760405162461bcd60e51b815260040161080c9061569c565b60405180910390fd5b8151601c55602080830151601d55604080840151601e55606093840151601f55825160185590820151601955810151601a550151601b55565b600061085982611e35565b61086282611e75565b92915050565b60408051608081018252600c548152600d546020820152600e5491810191909152600f546060820152600090819081908190819081906108a7906120f1565b60408051608081018252600c548152600d546020820152600e5491810191909152600f5460608201526108d99061210e565b60408051608081018252600c548152600d546020820152600e5491810191909152600f54606082015261090b9061212b565b604080516080810182526010548152601154602082015260125491810191909152601354606082015261093d906120f1565b604080516080810182526010548152601154602082015260125491810191909152601354606082015261096f9061210e565b60408051608081018252601054815260115460208201526012549181019190915260135460608201526109a19061212b565b949b939a50919850965094509092509050565b6109bc613dff565b60006109c6610ef2565b90506109d183611e35565b600083815260046020818152604092839020835160a0810185528154815260018201546001600160a01b031681840152600282015481860152600382015460608201529281018054855181850281018501909652808652939491936080860193830182828015610a6057602002820191906000526020600020905b815481526020019060010190808311610a4c575b505050919092525050604051635d8d458360e11b8152738157fC4b49e7D04Dc08f41b04f945e7fB55d149A9263bb1a8b069250610aaa916005906002906006908890600401615af0565b60006040518083038186803b158015610ac257600080fd5b505af4158015610ad6573d6000803e3d6000fd5b505050506040513d6000823e601f3d908101601f19168201604052610afe9190810190614903565b9392505050565b60145460155460165460175484565b6021546001600160a01b031681565b6021546001600160a01b03163314610b4d5760405162461bcd60e51b815260040161080c9061569c565b60005b8151811015610ba957600080838381518110610b6857fe5b6020026020010151806020019051810190610b839190614bcc565b91509150610b918282612166565b610b9e8282600080612384565b505050600101610b50565b5050565b6021546001600160a01b03163314610bd75760405162461bcd60e51b815260040161080c9061569c565b80516014556020810151601555604081015160165560600151601755565b6000807305a8e395E2f08F95B2dA5c1c578781F0bf7a530A63b5b49eb2868660600151610c20610ef2565b6040518463ffffffff1660e01b8152600401610c3e939291906157f6565b60006040518083038186803b158015610c5657600080fd5b505af4158015610c6a573d6000803e3d6000fd5b505050506040513d6000823e601f3d908101601f19168201604052610c9291908101906146a8565b9050610cae868285604001518660600151888860800151610ccb565b9150610cc283600001518460200151611b16565b50949350505050565b60008415610ceb57600654610ceb906001600160a01b0316333088612513565b8315610d0957600754610d09906001600160a01b0316333087612513565b610d138787612166565b6000610d23888560400151612663565b80925081935050506000807366875F5cdC87d61F869a6682b6681f7efce3617363c827d03e846005600660028e8c6040518763ffffffff1660e01b8152600401610d7296959493929190615b60565b604080518083038186803b158015610d8957600080fd5b505af4158015610d9d573d6000803e3d6000fd5b505050506040513d601f19601f82011682018060405250810190610dc191906147a0565b91509150856040015115610dd957610dd98282612743565b610de284611e75565b15610dff5760405162461bcd60e51b815260040161080c90615623565b81881215610e1f5760405162461bcd60e51b815260040161080c90615664565b80871215610e3f5760405162461bcd60e51b815260040161080c90615680565b81881315610e6f576000610e538984612754565b600654909150610e6d906001600160a01b031633836127b9565b505b80871315610e9f576000610e838883612754565b600754909150610e9d906001600160a01b031633836127b9565b505b7fcbcf11b4e5b631d29d66836bdd88114c58da1486109efcc4390bb2444c68a873848383610ecb610ef2565b89604051610edd959493929190615bf5565b60405180910390a15050509695505050505050565b600a5460408051633850c7bd60e01b815290516000926001600160a01b031691633850c7bd9160048281019260e0929190829003018186803b158015610f3757600080fd5b505afa158015610f4b573d6000803e3d6000fd5b505050506040513d601f19601f82011682018060405250810190610f6f9190614b09565b50949695505050505050565b610f83613e20565b600082815260046020818152604092839020835160a0810185528154815260018201546001600160a01b03168184015260028201548186015260038201546060820152928101805485518185028101850190965280865293949193608086019383018282801561101257602002820191906000526020600020905b815481526020019060010190808311610ffe575b5050505050815250509050919050565b600a5460009061063d90600160a01b900460ff1661062f610ef2565b60006106c58461104d86612900565b8585611d83565b6021546001600160a01b0316331461107e5760405162461bcd60e51b815260040161080c9061569c565b602180546001600160a01b0319166001600160a01b0392909216919091179055565b60408051610140810182526006546001600160a01b039081168252600754808216602080850191909152600160a01b9182900462ffffff168486015260085483166060808601919091526009548416608080870191909152600a5494851660a08701529290930460ff16151560c0850152600b5460e085015284518083018652600c548152600d5481830152600e5481870152600f548185015261010085015284519182018552601054825260115482820152601254828601526013549282019290925261012083015260008481526002909152918220829182916111859190612a39565b9250925092509193909250565b60007300662b0d6A5e3F26e875aC97d814382B69FEbC9363efac871e6111c06111ba86612900565b85612afe565b6111c8610ef2565b600a5460405160e085901b6001600160e01b03191681526111f8939291600160a01b900460ff1690600401615829565b60206040518083038186803b15801561121057600080fd5b505af4158015611224573d6000803e3d6000fd5b505050506040513d601f19601f82011682018060405250810190610afe9190614788565b600a54604051632b44ebb960e21b8152600091731De1BA840E05426A62A7FC67Ce4381E3A34508909163ad13aee491611292916001600160a01b0390911690603c90600401615460565b604080518083038186803b1580156112a957600080fd5b505af41580156112bd573d6000803e3d6000fd5b505050506040513d601f19601f820116820180604052508101906112e19190614b9f565b50919050565b60606112f282611e35565b61086282612900565b600054610100900460ff16806113145750611314612bc1565b80611322575060005460ff16155b61135d5760405162461bcd60e51b815260040180806020018281038252602e815260200180615e61602e913960400191505060405180910390fd5b600054610100900460ff16158015611388576000805460ff1961ff0019909116610100171660011790555b845160078054602080890151600680546001600160a01b03199081166001600160a01b0393841617918290556040808d015162ffffff60a01b19909616600160a01b62ffffff998a16810291909117831696851696909617968790556060808e0151600a805460ff60a01b191691151589029190911790556008805484168e8716179055600980549093168b8616179092558051918201815291831681529185169282019290925291909204909216908201526114458482612bd2565b600a80546001600160a01b0319166001600160a01b0392831617905560016003819055600b5560065460405163095ea7b360e01b815291169063095ea7b39061149690889060001990600401615460565b602060405180830381600087803b1580156114b057600080fd5b505af11580156114c4573d6000803e3d6000fd5b505050506040513d601f19601f820116820180604052508101906114e89190614754565b5060075460405163095ea7b360e01b81526001600160a01b039091169063095ea7b39061151d90889060001990600401615460565b602060405180830381600087803b15801561153757600080fd5b505af115801561154b573d6000803e3d6000fd5b505050506040513d601f19601f8201168201806040525081019061156f9190614754565b5060065460405163095ea7b360e01b81526001600160a01b039091169063095ea7b3906115a490869060001990600401615460565b602060405180830381600087803b1580156115be57600080fd5b505af11580156115d2573d6000803e3d6000fd5b505050506040513d601f19601f820116820180604052508101906115f69190614754565b5060075460405163095ea7b360e01b81526001600160a01b039091169063095ea7b39061162b90869060001990600401615460565b602060405180830381600087803b15801561164557600080fd5b505af1158015611659573d6000803e3d6000fd5b505050506040513d601f19601f8201168201806040525081019061167d9190614754565b50611688600c612cb6565b6116926010612cb6565b5042600155602180546001600160a01b0319163317905580156116bb576000805461ff00191690555b5050505050565b60408051610140810182526006546001600160a01b039081168252600754808216602080850191909152600160a01b9182900462ffffff168486015260085483166060808601919091526009548416608080870191909152600a5494851660a08701529290930460ff16151560c0850152600b5460e085015284518083018652600c548152600d5481830152600e5481870152600f548185015261010085015284519182018552601054825260115482820152601254828601526013549282019290925261012083015260008481526002909152918220610862916018916117a8610ef2565b612cce565b6117b78383612166565b6117c083611e75565b6117dc5760405162461bcd60e51b815260040161080c90615607565b600a54604051632b44ebb960e21b8152600091731De1BA840E05426A62A7FC67Ce4381E3A34508909163ad13aee491611826916001600160a01b0390911690603c90600401615460565b604080518083038186803b15801561183d57600080fd5b505af4158015611851573d6000803e3d6000fd5b505050506040513d601f19601f820116820180604052508101906118759190614b9f565b506000858152600460208181526040808420815160a0810183528154815260018201546001600160a01b031681850152600282015481840152600382015460608201529381018054835181860281018601909452808452969750949593949093608086019383018282801561190957602002820191906000526020600020905b8154815260200190600101908083116118f5575b5050509190925250506040516313f17ee160e01b8152738157fC4b49e7D04Dc08f41b04f945e7fB55d149A926313f17ee19250611953916005906002906006908990600401615af0565b60206040518083038186803b15801561196b57600080fd5b505af415801561197f573d6000803e3d6000fd5b505050506040513d601f19601f820116820180604052508101906119a39190614788565b905060006119b6868660c8850487612384565b600087815260046020818152604092839020835160a0810185528154815260018201546001600160a01b0316818401526002820154818601526003820154606082015292810180548551818502810185019096528086529596509294909360808601939092909190830182828015611a4d57602002820191906000526020600020905b815481526020019060010190808311611a39575b5050509190925250506040516313f17ee160e01b8152738157fC4b49e7D04Dc08f41b04f945e7fB55d149A926313f17ee19250611a97916005906002906006908a90600401615af0565b60206040518083038186803b158015611aaf57600080fd5b505af4158015611ac3573d6000803e3d6000fd5b505050506040513d601f19601f82011682018060405250810190611ae79190614788565b15611b045760405162461bcd60e51b815260040161080c906155eb565b611b0e3382612e34565b505050505050565b6000611b20611022565b90508061271083810385020411158015611b4257506127108281018402048111155b61060e5760405162461bcd60e51b815260040161080c906156d3565b6000670de0b6b3a76400008315611bc657611b87838483600160c01b81611b8157fe5b04612e6e565b915081611ba6576ec097ce7bc90715b34b9f1000000000915050610862565b816ec097ce7bc90715b34b9f100000000081611bbe57fe5b049150611be7565b600160601b81611bdb8586600160601b612e6e565b0281611be357fe5b0491505b6ec097ce7bc90715b34b9f1000000000821115611c15576ec097ce7bc90715b34b9f10000000009150611c1f565b81611c1f57600191505b5092915050565b611c2e613d9c565b6000838152600460208181526040808420815160a0810183528154815260018201546001600160a01b031681850152600282015481840152600382015460608201529381018054835181860281018601909452808452919360808601939290830182828015611cbc57602002820191906000526020600020905b815481526020019060010190808311611ca8575b5050505050815250509050738157fC4b49e7D04Dc08f41b04f945e7fB55d149A634d476673846005600085608001518881518110611cf657fe5b60200260200101518152602001908152602001600020600260066040518563ffffffff1660e01b8152600401611d2f9493929190615c83565b60006040518083038186803b158015611d4757600080fd5b505af4158015611d5b573d6000803e3d6000fd5b505050506040513d6000823e601f3d908101601f191682016040526106c591908101906148d1565b6000807305a8e395E2f08F95B2dA5c1c578781F0bf7a530A63ffc4b1ad868560400151611dae610ef2565b6040518463ffffffff1660e01b8152600401611dcc93929190615536565b60006040518083038186803b158015611de457600080fd5b505af4158015611df8573d6000803e3d6000fd5b505050506040513d6000823e601f3d908101601f19168201604052611e2091908101906146a8565b9050610cae8682600080888860600151610ccb565b60408051600080825260208201909252611e7291839190611e6c565b611e59613e58565b815260200190600190039081611e515790505b50612166565b50565b600a54604051632b44ebb960e21b81526000918291731De1BA840E05426A62A7FC67Ce4381E3A34508909163ad13aee491611ebf916001600160a01b031690603c90600401615460565b604080518083038186803b158015611ed657600080fd5b505af4158015611eea573d6000803e3d6000fd5b505050506040513d601f19601f82011682018060405250810190611f0e9190614b9f565b50905060007300662b0d6A5e3F26e875aC97d814382B69FEbC9363efac871e611f3e611f3987612900565b612f1d565b600a5460405160e084901b6001600160e01b0319168152611f7092918791600160a01b90910460ff1690600401615829565b60206040518083038186803b158015611f8857600080fd5b505af4158015611f9c573d6000803e3d6000fd5b505050506040513d601f19601f82011682018060405250810190611fc09190614788565b600085815260046020818152604092839020835160a0810185528154815260018201546001600160a01b031681840152600282015481860152600382015460608201529281018054855181850281018501909652808652959650929490936080860193909290919083018282801561205757602002820191906000526020600020905b815481526020019060010190808311612043575b505050919092525050604051632907623d60e01b8152738157fC4b49e7D04Dc08f41b04f945e7fB55d149A92632907623d925061209991600690600401615b3c565b60206040518083038186803b1580156120b157600080fd5b505af41580156120c5573d6000803e3d6000fd5b505050506040513d601f19601f820116820180604052508101906120e99190614788565b129392505050565b600061086282600001518360400151670de0b6b3a764000061311a565b600061086282602001518360600151670de0b6b3a764000061311a565b80516000906121435750670de0b6b3a7640000610542565b61086261214f8361210e565b670de0b6b3a7640000612161856120f1565b61311a565b6000828152600460208181526040808420815160a0810183528154815260018201546001600160a01b0316818501526002820154818401526003820154606082015293810180548351818602810186019094528084529193608086019392908301828280156121f457602002820191906000526020600020905b8154815260200190600101908083116121e0575b50505050508152505090507304821dcCDBC6905EbeBD839f93F5eaE1f2eA9De063adcc5dbf8260056002600687601861222b610ef2565b6040518863ffffffff1660e01b815260040161224d9796959493929190615a87565b60006040518083038186803b15801561226557600080fd5b505af4158015612279573d6000803e3d6000fd5b505060015460405163725acfd160e01b81527304821dcCDBC6905EbeBD839f93F5eaE1f2eA9De0935063725acfd192506122bc916006916014919060040161570c565b60206040518083038186803b1580156122d457600080fd5b505af41580156122e8573d6000803e3d6000fd5b505050506040513d601f19601f8201168201806040525081019061230c9190614788565b6001556040516302cae5fb60e51b81527366875F5cdC87d61F869a6682b6681f7efce361739063595cbf609061234f90600690859060059060029060040161572e565b60006040518083038186803b15801561236757600080fd5b505af415801561237b573d6000803e3d6000fd5b50505050505050565b6000806004600087815260200190815260200160002090506000807366875F5cdC87d61F869a6682b6681f7efce3617363c827d03e846005600660028c6040518060c001604052806001151581526020018d15158152602001600015158152602001600660040160149054906101000a900460ff161515815260200160011981526020016001198152506040518763ffffffff1660e01b815260040161242f96959493929190615b60565b604080518083038186803b15801561244657600080fd5b505af415801561245a573d6000803e3d6000fd5b505050506040513d601f19601f8201168201806040525081019061247e91906147a0565b91509150816000146124a25760405162461bcd60e51b815260040161080c90615664565b80156124c05760405162461bcd60e51b815260040161080c90615680565b600a54600160a01b900460ff16156124ef576124e0836002015487613130565b60028501919091559350612508565b6124fd836003015487613130565b600385019190915593505b505050949350505050565b604080516001600160a01b0385811660248301528481166044830152606480830185905283518084039091018152608490920183526020820180516001600160e01b03166323b872dd60e01b178152925182516000948594938a169392918291908083835b602083106125975780518252601f199092019160209182019101612578565b6001836020036101000a0380198251168184511680821785525050505050509050019150506000604051808303816000865af19150503d80600081146125f9576040519150601f19603f3d011682016040523d82523d6000602084013e6125fe565b606091505b509150915081801561262c57508051158061262c575080806020019051602081101561262957600080fd5b50515b611b0e576040805162461bcd60e51b815260206004820152600360248201526229aa2360e91b604482015290519081900360640190fd5b600080836126e8576003805460018082019092556000818152600460205260409081902082815590920180546001600160a01b03191633179081905591519093507fbf3e9c93de94306b70ac5b9411edf475545815333bf651b894b9eada6482c594916126db9185916001600160a01b031690615bde565b60405180910390a161272c565b6000848152600460205260409020600101548492506001600160a01b03163314806127105750825b61272c5760405162461bcd60e51b815260040161080c906156f0565b5060008181526004602052604090205b9250929050565b602051828152816020820152604081fd5b60008183038183128015906127695750838113155b8061277e575060008312801561277e57508381135b610afe5760405162461bcd60e51b8152600401808060200182810382526024815260200180615eb06024913960400191505060405180910390fd5b604080516001600160a01b038481166024830152604480830185905283518084039091018152606490920183526020820180516001600160e01b031663a9059cbb60e01b1781529251825160009485949389169392918291908083835b602083106128355780518252601f199092019160209182019101612816565b6001836020036101000a0380198251168184511680821785525050505050509050019150506000604051808303816000865af19150503d8060008114612897576040519150601f19603f3d011682016040523d82523d6000602084013e61289c565b606091505b50915091508180156128ca5750805115806128ca57508080602001905160208110156128c757600080fd5b50515b6116bb576040805162461bcd60e51b815260206004820152600260248201526114d560f21b604482015290519081900360640190fd5b6000818152600460208181526040808420815160a0810183528154815260018201546001600160a01b0316818501526002820154818401526003820154606082810191909152948201805484518187028101870190955280855295969591949293608086019390929083018282801561299857602002820191906000526020600020905b815481526020019060010190808311612984575b5050509190925250506040516325619d4960e21b8152919250738157fC4b49e7D04Dc08f41b04f945e7fB55d149A91639586752491506129e5908490600590600290600690600401615a57565b60006040518083038186803b1580156129fd57600080fd5b505af4158015612a11573d6000803e3d6000fd5b505050506040513d6000823e601f3d908101601f19168201604052610afe91908101906146da565b6040805161012081018252825481526001830154600281810b810b810b602084015263010000008204810b810b810b93830193909352600160301b90046001600160801b03166060820152908201546080820152600382015460a0820152600482015460c0820152600582015460e0820152600682015461010082015260009081908190612ac8908690613150565b6001850154600160301b90046001600160801b0316612ae78787613172565b9194506001600160801b0316925090509250925092565b612b06613d9c565b600083516001016001600160401b0381118015612b2257600080fd5b50604051908082528060200260200182016040528015612b5c57816020015b612b49613d9c565b815260200190600190039081612b415790505b50905060005b8451811015612b9e57848181518110612b7757fe5b6020026020010151828281518110612b8b57fe5b6020908102919091010152600101612b62565b508281855181518110612bad57fe5b60200260200101819052506106c581612f1d565b6000612bcc3061320f565b15905090565b600081602001516001600160a01b031682600001516001600160a01b031610612bfa57600080fd5b50805160208083015160409384015184516001600160a01b0394851681850152939091168385015262ffffff166060808401919091528351808403820181526080840185528051908301206001600160f81b031960a085015294901b6bffffffffffffffffffffffff191660a183015260b58201939093527fe34f199b19b2b4f47f68442619d555527d244f78a3297ea89325f843f87b8b5460d5808301919091528251808303909101815260f5909101909152805191012090565b670de0b6b3a764000060028201819055600390910155565b6001820154600090600160301b90046001600160801b031615612e29576000612cf78585613172565b60a08601516001860154919250600091612db491612d27918a9190600281810b9163010000009004900b87613215565b6040805161012081018252885481526001890154600281810b810b810b602084015263010000008204810b810b810b93830193909352600160301b90046001600160801b03166060820152908801546080820152600388015460a0820152600488015460c0820152600588015460e08201526006880154610100820152612daf908990613476565b61351d565b90506000612e1b8760c00151612e008a6004016040518060800160405290816000820154815260200160018201548152602001600282015481526020016003820154815250508661353a565b60018901548890600281810b9163010000009004900b6135af565b9190910192506106c5915050565b506000949350505050565b600a54610ba990600160a01b900460ff16612e5a576007546001600160a01b0316612e67565b6006546001600160a01b03165b83836127b9565b6000808060001985870986860292508281109083900303905080612ea45760008411612e9957600080fd5b508290049050610afe565b808411612eb057600080fd5b6000848688096000868103871696879004966002600389028118808a02820302808a02820302808a02820302808a02820302808a02820302808a02909103029181900381900460010186841190950394909402919094039290920491909117919091029150509392505050565b612f25613d9c565b6000805b8351811015612f5c57838181518110612f3e57fe5b602002602001015160a0015151820191508080600101915050612f29565b506000816001600160401b0381118015612f7557600080fd5b50604051908082528060200260200182016040528015612faf57816020015b612f9c613e9e565b815260200190600190039081612f945790505b5090506040518060c001604052806000815260200160008152602001600081526020016000815260200160008152602001828152509250600080600090505b85518110156131115785818151811061300357fe5b60200260200101516020015185602001818151019150818152505085818151811061302a57fe5b60200260200101516040015185604001818151019150818152505085818151811061305157fe5b60200260200101516060015185606001818151019150818152505085818151811061307857fe5b60200260200101516080015185608001818151019150818152505060005b8682815181106130a257fe5b602002602001015160a0015151811015613108578682815181106130c257fe5b602002602001015160a0015181815181106130d957fe5b60200260200101518660a0015184815181106130f157fe5b602090810291909101015260019283019201613096565b50600101612fee565b50505050919050565b60006106c58261312a8686613647565b906136a0565b6000808284106131455750508082038161273c565b50600090508261273c565b600081606001516001600160801b031661316a8484613476565b019392505050565b6001810154604080516101208101825283548152600283810b810b810b602083015263010000008404810b810b810b92820192909252600160301b9092046001600160801b031660608301819052908301546080830152600383015460a0830152600483015460c0830152600583015460e08301526006830154610100830152600091610afe9190670de0b6b3a764000090612161908790613150565b3b151590565b600080856001600160a01b031663f30583996040518163ffffffff1660e01b815260040160206040518083038186803b15801561325157600080fd5b505afa158015613265573d6000803e3d6000fd5b505050506040513d601f19601f820116820180604052508101906132899190614788565b90506000866001600160a01b031663461413196040518163ffffffff1660e01b815260040160206040518083038186803b1580156132c657600080fd5b505afa1580156132da573d6000803e3d6000fd5b505050506040513d601f19601f820116820180604052508101906132fe9190614788565b90506000876001600160a01b0316633850c7bd6040518163ffffffff1660e01b815260040160e06040518083038186803b15801561333b57600080fd5b505afa15801561334f573d6000803e3d6000fd5b505050506040513d601f19601f820116820180604052508101906133739190614b09565b505050505091505060008061339f61338b8b8b6136ff565b6133958c8b6136ff565b8b8b878a8a6137cb565b91509150600089896040516020016133b892919061542f565b6040516020818303038152906040528051906020012090506134646134138d6000016040518060800160405290816000820154815260200160018201548152602001600282015481526020016003820154815250508a61353a565b8d600801600084815260200190815260200160002060405180608001604052908160008201548152602001600182015481526020016002820154815260200160038201548152505085858a8a613848565b96505050505050505b95945050505050565b6060820151815160405163133f757160e31b815260009283926001600160a01b03909116916399fbab88916134ad916004016155e2565b6101806040518083038186803b1580156134c657600080fd5b505afa1580156134da573d6000803e3d6000fd5b505050506040513d601f19601f820116820180604052508101906134fe9190614feb565b50506001600160801b039092169a505050505050505050505092915050565b60008183670de0b6b3a7640000028161353257fe5b049392505050565b8151602083015160009190831161356957670de0b6b3a7640000846040015184028161356257fe5b0401610afe565b670de0b6b3a764000084604001518560200151028161358457fe5b0481019050670de0b6b3a764000084602001518403856060015102816135a657fe5b04019392505050565b60008060006135d8866135c1876138c7565b6135ca876138c7565b670de0b6b3a7640000613bf9565b9150915060006135f189886001600160a01b0316611b5e565b90508815613615578261360d8383670de0b6b3a764000061311a565b01935061362d565b816136298483670de0b6b3a764000061311a565b0193505b670de0b6b3a7640000848902049998505050505050505050565b60008261365657506000610862565b8282028284828161366357fe5b0414610afe5760405162461bcd60e51b8152600401808060200182810382526021815260200180615e8f6021913960400191505060405180910390fd5b60008082116136f6576040805162461bcd60e51b815260206004820152601a60248201527f536166654d6174683a206469766973696f6e206279207a65726f000000000000604482015290519081900360640190fd5b81838161353257fe5b613707613ec5565b6000806000856001600160a01b031663f30dba93866040518263ffffffff1660e01b815260040161373891906155d4565b6101006040518083038186803b15801561375157600080fd5b505afa158015613765573d6000803e3d6000fd5b505050506040513d601f19601f820116820180604052508101906137899190614a5f565b9750505050945094505050806137b15760405162461bcd60e51b815260040161080c9061563f565b506040805180820190915291825260208201529392505050565b6000806000808860020b8760020b126137ec575050885160208a01516137fc565b5050885160208a01519085039084035b6000808960020b8960020b121561381b575050895160208b015161382b565b5050895160208b01519087039086035b92909603959095039a949093039290920397509195505050505050565b6000806000876040015185111561387c578760400151850388600001518803670de0b6b3a7640000028161387857fe5b0491505b87606001518411156138ab578760600151840388602001518703670de0b6b3a764000002816138a757fe5b0490505b671bc16d674ec800008282018a02049998505050505050505050565b60008060008360020b126138de578260020b6138e6565b8260020b6000035b9050620d89e8811115613924576040805162461bcd60e51b81526020600482015260016024820152601560fa1b604482015290519081900360640190fd5b60006001821661393857600160801b61394a565b6ffffcb933bd6fad37aa2d162d1a5940015b70ffffffffffffffffffffffffffffffffff169050600282161561397e576ffff97272373d413259a46990580e213a0260801c5b600482161561399d576ffff2e50f5f656932ef12357cf3c7fdcc0260801c5b60088216156139bc576fffe5caca7e10e4e61c3624eaa0941cd00260801c5b60108216156139db576fffcb9843d60f6159c9db58835c9266440260801c5b60208216156139fa576fff973b41fa98c081472e6896dfb254c00260801c5b6040821615613a19576fff2ea16466c96a3843ec78b326b528610260801c5b6080821615613a38576ffe5dee046a99a2a811c461f1969c30530260801c5b610100821615613a58576ffcbe86c7900a88aedcffc83b479aa3a40260801c5b610200821615613a78576ff987a7253ac413176f2b074cf7815e540260801c5b610400821615613a98576ff3392b0822b70005940c7a398e4b70f30260801c5b610800821615613ab8576fe7159475a2c29b7443b29c7fa6e889d90260801c5b611000821615613ad8576fd097f3bdfd2022b8845ad8f792aa58250260801c5b612000821615613af8576fa9f746462d870fdf8a65dc1f90e061e50260801c5b614000821615613b18576f70d869a156d2a1b890bb3df62baf32f70260801c5b618000821615613b38576f31be135f97d08fd981231505542fcfa60260801c5b62010000821615613b59576f09aa508b5b7a84e1c677de54f3e99bc90260801c5b62020000821615613b79576e5d6af8dedb81196699c329225ee6040260801c5b62040000821615613b98576d2216e584f5fa1ea926041bedfe980260801c5b62080000821615613bb5576b048a170391f7dc42444e8fa20260801c5b60008460020b1315613bd0578060001981613bcc57fe5b0490505b640100000000810615613be4576001613be7565b60005b60ff16602082901c0192505050919050565b600080836001600160a01b0316856001600160a01b03161115613c1a579293925b846001600160a01b0316866001600160a01b031611613c4557613c3e858585613c95565b9150613c8c565b836001600160a01b0316866001600160a01b03161015613c7e57613c6a868585613c95565b9150613c77858785613cfe565b9050613c8c565b613c89858585613cfe565b90505b94509492505050565b6000826001600160a01b0316846001600160a01b03161115613cb5579192915b836001600160a01b0316613cee606060ff16846001600160801b0316901b8686036001600160a01b0316866001600160a01b0316612e6e565b81613cf557fe5b04949350505050565b6000826001600160a01b0316846001600160a01b03161115613d1e579192915b6106c5826001600160801b03168585036001600160a01b0316600160601b612e6e565b60405180610120016040528060008152602001600060020b8152602001600060020b815260200160006001600160801b0316815260200160008152602001600081526020016000815260200160008152602001600081525090565b6040518060c001604052806000815260200160008152602001600081526020016000815260200160008152602001606081525090565b6040518060600160405280613de5613edf565b8152602001613df2613edf565b8152602001606081525090565b60405180606001604052806000815260200160008152602001606081525090565b6040518060a001604052806000815260200160006001600160a01b031681526020016000815260200160008152602001606081525090565b604080516101008101909152806000815260006020820181905260408201819052606082018190526080820181905260a0820181905260c0820181905260e09091015290565b60408051608081018252600080825260208201819052918101829052606081019190915290565b604051806040016040528060008152602001600081525090565b60405180606001604052806000815260200160008152602001600081525090565b803561054281615dfb565b805161054281615dfb565b600082601f830112613f26578081fd5b81356020613f3b613f3683615dd2565b615daf565b82815281810190858301608080860288018501891015613f59578687fd5b865b86811015613fea5781838b031215613f71578788fd5b604080518381018181106001600160401b0382111715613f8d57fe5b82528435613f9a81615e10565b815284880135613fa981615e3a565b8189015284820135613fba81615e2b565b8083830152506060915081850135613fd181615e2b565b9181019190915285529385019391810191600101613f5b565b509198975050505050505050565b600082601f830112614008578081fd5b81516020614018613f3683615dd2565b82815281810190858301608080860288018501891015614036578687fd5b865b86811015613fea5781838b03121561404e578788fd5b604080518381018181106001600160401b038211171561406a57fe5b8252845161407781615e10565b81528488015161408681615e3a565b818901528482015161409781615e2b565b80838301525060609150818501516140ae81615e2b565b9181019190915285529385019391810191600101614038565b600082601f8301126140d7578081fd5b815160206140e7613f3683615dd2565b8281528181019085830161010080860288018501891015614106578687fd5b865b86811015613fea5781838b03121561411e578788fd5b604080518381018181106001600160401b038211171561413a57fe5b825261414585614245565b8152878501518882015261415a8286016141cb565b828201526060915061416d8286016145dc565b828201526080915061418082860161425b565b8282015260a0915061419382860161425b565b9181019190915260c0848101519082015260e0808501519082015285529385019391810191600101614108565b803561054281615e10565b805161054281615e10565b600082601f8301126141e6578081fd5b81356001600160401b038111156141f957fe5b61420c601f8201601f1916602001615daf565b818152846020838601011115614220578283fd5b816020850160208301379081016020019190915292915050565b803561054281615e1e565b805161054281615e1e565b803561054281615e2b565b805161054281615e2b565b600060808284031215614277578081fd5b604051608081016001600160401b03828210818311171561429457fe5b8160405282935084358352602085013560208401526040850135604084015260608501359150808211156142c757600080fd5b506142d48582860161433f565b6060830152505092915050565b6000608082840312156142f2578081fd5b604051608081018181106001600160401b038211171561430e57fe5b8060405250809150823581526020830135602082015260408301356040820152606083013560608201525092915050565b600060408284031215614350578081fd5b604051604081016001600160401b03828210818311171561436d57fe5b8160405282935084358352602085013591508082111561438c57600080fd5b50614399858286016141d6565b6020830152505092915050565b600060c082840312156143b7578081fd5b60405160c081016001600160401b0382821081831117156143d457fe5b81604052829350843583526020850135602084015260408501356040840152606085013560608401526080850135608084015260a085013591508082111561441b57600080fd5b5061442885828601613f16565b60a0830152505092915050565b600060c08284031215614446578081fd5b60405160c081016001600160401b03828210818311171561446357fe5b81604052829350845183526020850151602084015260408501516040840152606085015160608401526080850151608084015260a08501519150808211156144aa57600080fd5b5061442885828601613ff8565b600060c082840312156144c8578081fd5b60405160c081018181106001600160401b03821117156144e457fe5b60405290508082356144f581615e10565b8152602083013561450581615e10565b6020820152604083013561451881615e10565b6040820152614529606084016141c0565b60608201526080830135608082015260a083013560a08201525092915050565b600061010080838503121561455c578182fd5b604051908101906001600160401b038211818310171561457857fe5b81604052809250835181526020840151602082015260408401516040820152606084015160608201526080840151608082015260a084015160a082015260c084015160c082015260e084015160e0820152505092915050565b803561054281615e3a565b805161054281615e3a565b805161ffff8116811461054257600080fd5b805161054281615e4f565b600060208284031215614615578081fd5b8135610afe81615dfb565b60006020808385031215614632578182fd5b82356001600160401b03811115614647578283fd5b8301601f81018513614657578283fd5b8035614665613f3682615dd2565b81815283810190838501865b8481101561469a576146888a8884358901016141d6565b84529286019290860190600101614671565b509098975050505050505050565b6000602082840312156146b9578081fd5b81516001600160401b038111156146ce578182fd5b6106c5848285016140c7565b600060208083850312156146ec578182fd5b82516001600160401b03811115614701578283fd5b8301601f81018513614711578283fd5b805161471f613f3682615dd2565b81815283810190838501865b8481101561469a576147428a888451890101614435565b8452928601929086019060010161472b565b600060208284031215614765578081fd5b8151610afe81615e10565b600060208284031215614781578081fd5b5035919050565b600060208284031215614799578081fd5b5051919050565b600080604083850312156147b2578081fd5b505080516020909101519092909150565b6000608082840312156147d4578081fd5b610afe83836142e1565b60008061010083850312156147f1578182fd5b6147fb84846142e1565b915061480a84608085016142e1565b90509250929050565b60008060008084860360e0811215614829578283fd5b6080811215614836578283fd5b50604051608081018181106001600160401b038211171561485357fe5b604052853561486181615e4f565b8152602086013561487181615dfb565b6020820152604086013561488481615dfb565b6040820152606086013561489781615e10565b606082015293506148aa60808601613f00565b92506148b860a08601613f00565b91506148c660c08601613f00565b905092959194509250565b6000602082840312156148e2578081fd5b81516001600160401b038111156148f7578182fd5b6106c584828501614435565b60006020808385031215614915578182fd5b82516001600160401b038082111561492b578384fd5b908401906060828703121561493e578384fd5b6040805160608101818110848211171561495457fe5b82528351815284840151858201528382015183811115614972578687fd5b80850194505087601f850112614986578586fd5b8351614994613f3682615dd2565b8181528681019086880161016080850289018a018d10156149b3578a8bfd5b8a98505b84891015614a4a57818d03818112156149ce578b8cfd5b87518881018181108b821117156149e157fe5b808a5260608312156149f1578d8efd5b60a0820192508083108b84111715614a0557fe5b828a52845181528c850151606083015289850151608083015280825250614a2f8f60608601614549565b818d01528552506001989098019792890192908101906149b7565b50509383019390935250979650505050505050565b600080600080600080600080610100898b031215614a7b578586fd5b8851614a8681615e3a565b80985050602089015180600f0b8114614a9d578687fd5b80975050604089015195506060890151945060808901518060060b8114614ac2578485fd5b60a08a0151909450614ad381615dfb565b60c08a015190935063ffffffff81168114614aec578283fd5b9150614afa60e08a016141cb565b90509295985092959890939650565b600080600080600080600060e0888a031215614b23578081fd5b8751614b2e81615dfb565b6020890151909750614b3f81615e2b565b9550614b4d604089016145e7565b9450614b5b606089016145e7565b9350614b69608089016145e7565b925060a088015160ff81168114614b7e578182fd5b60c0890151909250614b8f81615e10565b8091505092959891949750929550565b60008060408385031215614bb1578182fd5b8251614bbc81615dfb565b6020939093015192949293505050565b60008060408385031215614bde578182fd5b8251915060208301516001600160401b03811115614bfa578182fd5b614c06858286016140c7565b9150509250929050565b6000806000806000806101608789031215614c29578384fd5b8635955060208701356001600160401b0380821115614c46578586fd5b818901915089601f830112614c59578586fd5b8135614c67613f3682615dd2565b80828252602082019150602085018d602061010086028801011115614c8a57898afd5b8995505b83861015614d4457610100818f031215614ca657898afd5b60405161010081018181108782111715614cbc57fe5b604052614cc88261423a565b815260208201356020820152614ce0604083016141c0565b6040820152614cf1606083016145d1565b6060820152614d0260808301614250565b6080820152614d1360a08301614250565b60a082015260c0828101359082015260e0808301359082015283526001959095019460209092019161010001614c8e565b50985050506040890135955060608901359450614d648a60808b016144b7565b9350610140890135915080821115614d7a578283fd5b50614d8789828a0161433f565b9150509295509295509295565b60008082840360a0811215614da7578283fd5b833592506080601f1982011215614dbc578182fd5b50604051608081018181106001600160401b0382111715614dd957fe5b80604052506020840135815260408401356020820152606084013560408201526080840135614e0781615e10565b6060820152919491935090915050565b60008060408385031215614e29578182fd5b8235915060208301356001600160401b03811115614e45578182fd5b614c06858286016143a6565b6000806000806101208587031215614e67578182fd5b8435935060208501356001600160401b0380821115614e84578384fd5b614e90888389016143a6565b9450614e9f88604089016144b7565b9350610100870135915080821115614eb5578283fd5b9086019060a08289031215614ec8578283fd5b60405160a081018181108382111715614edd57fe5b806040525082358152602083013560208201526040830135604082015260608301356060820152608083013582811115614f15578485fd5b614f218a82860161433f565b6080830152509598949750929550505050565b60008060006101008486031215614f49578081fd5b83359250614f5a85602086016144b7565b915060e08401356001600160401b03811115614f74578182fd5b614f8086828701614266565b9150509250925092565b6000806000806101208587031215614fa0578182fd5b8435935060208501359250614fb886604087016144b7565b91506101008501356001600160401b03811115614fd3578182fd5b614fdf87828801614266565b91505092959194509250565b6000806000806000806000806000806000806101808d8f03121561500d578586fd5b8c516bffffffffffffffffffffffff81168114615028578687fd5b9b5061503660208e01613f0b565b9a5061504460408e01613f0b565b995061505260608e01613f0b565b985061506060808e016145f9565b975061506e60a08e0161425b565b965061507c60c08e0161425b565b955061508a60e08e016145dc565b94506101008d015193506101208d015192506150a96101408e016145dc565b91506150b86101608e016145dc565b90509295989b509295989b509295989b565b6001600160a01b03169052565b6000815180845260208085019450808401835b838110156151795781518051600d811061510057fe5b88528084015184890152604080820151151590890152606080820151615128828b0182615419565b505060808082015161513c828b018261518a565b505060a080820151615150828b018261518a565b505060c0818101519089015260e0908101519088015261010090960195908201906001016150ea565b509495945050505050565b15159052565b60020b9052565b8051825260208082015190830152604090810151910152565b805482526001810154602083015260020154604090910152565b6151d7826151d28354615def565b6150ca565b60018101546001600160a01b036151f3602085018284166150ca565b6152086040850162ffffff8460a01c16615426565b6152156002840154615def565b915061522460608501836150ca565b6152316003840154615def565b915061524060808501836150ca565b6004830154915061525660a085018284166150ca565b5061526a60c0840160ff8360a01c16615184565b50600581015460e08301526152866101008301600683016152bd565b610ba96101808301600a83016152bd565b805182526020810151602083015260408101516040830152606081015160608301525050565b80548252600181015460208301526002810154604083015260030154606090910152565b8051151582526001600160801b036020820151166020830152604081015160020b6040830152606081015160020b60608301525050565b600060c08301825184526020808401518186015260408401516040860152606084015160608601526080808501518187015260a085015160c060a088015283815180865260e08901915084830195508692505b808310156153925761537e8287516152e1565b94840194600192909201919083019061536b565b50979650505050505050565b805182526020808201516001600160a01b031681840152604080830151908401526060808301519084015260808083015160a0918501829052805191850182905260009290810191839060c08701905b8083101561540e57845182529383019360019290920191908301906153ee565b509695505050505050565b6001600160801b03169052565b62ffffff169052565b600292830b60e890811b82529190920b901b600382015260060190565b6001600160a01b0391909116815260200190565b6001600160a01b03929092168252602082015260400190565b60208082528251828201819052600091906040908185019080840286018301878501865b8381101561469a57888303603f1901855281518051845287810151888501528681015187850152606080820151908501526080808201518186015260a09182015160c0928601839052805192860183905289019160e08601918b915b808310156155205761550c8486516152e1565b938b019392810192600192909201916154f9565b505050958801959350509086019060010161549d565b60006060820160608352808651808352608085019150602092506080838202860101838901855b8381101561558b57607f19888403018552615579838351615318565b9486019492509085019060010161555d565b505092850196909652506001600160a01b03939093166040909201919091525092915050565b901515815260200190565b92151583526020830191909152604082015260600190565b60029190910b815260200190565b90815260200190565b602080825260029082015261503760f01b604082015260600190565b602080825260029082015261140d60f21b604082015260600190565b602080825260029082015261503360f01b604082015260600190565b6020808252600b908201526a1a5b9a5d1a585b1a5e995960aa1b604082015260600190565b602080825260029082015261503560f01b604082015260600190565b602080825260029082015261281b60f11b604082015260600190565b60208082526017908201527f63616c6c6572206d757374206265206f70657261746f72000000000000000000604082015260600190565b60208082526003908201526221a41960e91b604082015260600190565b602080825260029082015261281960f11b604082015260600190565b83815260c0810161572060208301856152bd565b8260a0830152949350505050565b600061026061573d83886151c4565b806102008401526157508184018761539e565b6102208401959095525050610240015292915050565b61010081016157758285615297565b610afe6080830184615297565b60006101208201905082518252602083015160020b6020830152604083015160020b604083015260608301516157bb6060840182615419565b506080830151608083015260a083015160a083015260c083015160c083015260e083015160e083015261010080840151818401525092915050565b6000606082526158096060830186615318565b9315156020830152506001600160a01b0391909116604090910152919050565b60006060825261583c6060830186615318565b6001600160a01b0394909416602083015250901515604090910152919050565b6000602080835261010083016158758285018651615191565b81850151608061588781870183615191565b60408781015160e08881015280519485905285019390925085906101208801905b808310156159035785518051151583528781015188840152858101516001600160801b03168684015260608082015190840152848101518584015260a09081015190830152948601946001929092019160c0909101906158a8565b5098975050505050505050565b60006020808352608080840185518386015282860151604081818801528088015191506060808189015283835180865260a09550858a0191508785019450885b818110156159d15785518051805185528a8101518b86015286015186850152890151805185850152808a01518985015280860151888501528481015160c0808601919091528982015160e080870191909152898301516101008701529082015161012086015201516101408401529488019461016090920191600101615950565b50909a9950505050505050505050565b6000602080835260c0830184518285015260018060a01b03828601511660408501526040850151606085015260608501516080850152608085015160a08086015281815180845260e08701915084830193508592505b8083101561540e5783518252928401926001929092019190840190615a37565b6000610260808352615a6b8184018861539e565b91505084602083015283604083015261346d60608301846151c4565b60006102c0808352615a9b8184018b61539e565b9050886020840152876040840152615ab660608401886151c4565b828103610260840152615ac981876150d7565b61028084019590955250506001600160a01b03919091166102a09091015295945050505050565b6000610280808352615b048184018961539e565b915050856020830152846040830152615b2060608301856151c4565b6001600160a01b03929092166102609190910152949350505050565b6000610220808352615b508184018661539e565b915050610afe60208301846151c4565b6000610160888352876020840152866040840152856060840152806080840152615b8c818401866150d7565b9150508251151560a08301526020830151151560c08301526040830151151560e083015260608301511515610100830152608083015161012083015260a0830151610140830152979650505050505050565b9182526001600160a01b0316602082015260400190565b60008682526020868184015285604084015260018060a01b038516606084015260a06080840152835160a084015280840151604060c085015280518060e0860152835b81811015615c555782810184015186820161010001528301615c38565b81811115615c67578461010083880101525b50601f01601f1916939093016101000198975050505050505050565b6000610260868352602081818501526103408401615ca3838601896151aa565b60039250615cb76102c08601848a016151aa565b60e0610320860152600688810180549283905285528285209185906103608801905b80831015615d395760ff855416151582526001850154868301526001600160801b03600286015416604083015286850154606083015260048501546080830152600585015460a083015260c0820191508385019450600183019250615cd9565b5080965050505050505083604083015261346d60608301846151c4565b9283526020830191909152604082015260600190565b93845260208401929092526040830152606082015260800190565b958652602086019490945260408501929092526060840152608083015260a082015260c00190565b6040518181016001600160401b0381118282101715615dca57fe5b604052919050565b60006001600160401b03821115615de557fe5b5060209081020190565b6001600160a01b031690565b6001600160a01b0381168114611e7257600080fd5b8015158114611e7257600080fd5b600d8110611e7257600080fd5b8060020b8114611e7257600080fd5b6001600160801b0381168114611e7257600080fd5b62ffffff81168114611e7257600080fdfe496e697469616c697a61626c653a20636f6e747261637420697320616c726561647920696e697469616c697a6564536166654d6174683a206d756c7469706c69636174696f6e206f766572666c6f775369676e6564536166654d6174683a207375627472616374696f6e206f766572666c6f77a2646970667358221220d17e904650f995bbebe31cb2916ff245383a32d8fa4d9ba5d84b342cbae3c12464736f6c63430007060033",
  "deployedBytecode": "0x608060405234801561001057600080fd5b50600436106101cf5760003560e01c806365b5f6e3116101045780639ecac92c116100a2578063cb3c9a5311610071578063cb3c9a5314610400578063eb02c30114610408578063ee6097f014610428578063fea9a2c21461043b576101cf565b80639ecac92c146103a5578063b3ab15fb146103b8578063c04ed3d3146103cb578063c3ef9ea1146103ed576101cf565b8063859a9c80116100de578063859a9c801461036257806386e6862d146103755780639403b6341461037d57806398d5fdca1461039d576101cf565b806365b5f6e314610329578063687157731461033c5780636fc245331461034f576101cf565b806330050fbd11610171578063456157161161014b57806345615716146102c257806349ebb77d146102dc57806351be57d3146102fc578063570ca73514610314576101cf565b806330050fbd1461026f57806333a9d0601461028f5780633e129715146102a2576101cf565b806305ecd003116101ad57806305ecd00314610228578063127f0f071461023d5780631c2d487e14610254578063275892a214610267576101cf565b8063012a883f146101d4578063013216f5146101f35780630594300214610213575b600080fd5b6101dc61044e565b6040516101ea929190615766565b60405180910390f35b610206610201366004614770565b6104ab565b6040516101ea9190615782565b610226610221366004614d94565b610547565b005b610230610613565b6040516101ea91906155e2565b610245610642565b6040516101ea939291906155bc565b610230610262366004614f8a565b61065c565b6102306106cd565b61028261027d366004614770565b6106d3565b6040516101ea919061585c565b61022661029d3660046147de565b6107e2565b6102b56102b0366004614770565b61084e565b6040516101ea91906155b1565b6102ca610868565b6040516101ea96959493929190615d87565b6102ef6102ea366004614770565b6109b4565b6040516101ea9190615910565b610304610b05565b6040516101ea9493929190615d6c565b61031c610b14565b6040516101ea919061544c565b610226610337366004614620565b610b23565b61022661034a3660046147c3565b610bad565b61023061035d366004614e51565b610bf5565b610230610370366004614c10565b610ccb565b61031c610ef2565b61039061038b366004614770565b610f7b565b6040516101ea91906159e1565b610230611022565b6102306103b3366004614f34565b61103e565b6102266103c6366004614604565b611054565b6103de6103d9366004614770565b6110a0565b6040516101ea93929190615d56565b6102306103fb366004614e17565b611192565b61031c611248565b61041b610416366004614770565b6112e7565b6040516101ea9190615479565b610226610436366004614813565b6112fb565b610230610449366004614770565b6116c2565b60408051608080820183526018548252601954602080840191909152601a5483850152601b5460608085019190915284519283018552601c548352601d5491830191909152601e5493820193909352601f54928101929092529082565b6104b3613d41565b5060008181526002602081815260409283902083516101208101855281548152600182015480850b850b850b9382019390935263010000008304840b840b840b94810194909452600160301b9091046001600160801b03166060840152908101546080830152600381015460a0830152600481015460c0830152600581015460e0830152600601546101008201525b919050565b600073__$7ffffda71c6e7abde662efb5427d8d1c5d$__63ffc4b1ad61056c856112e7565b8460400151610579610ef2565b6040518463ffffffff1660e01b815260040161059793929190615536565b60006040518083038186803b1580156105af57600080fd5b505af41580156105c3573d6000803e3d6000fd5b505050506040513d6000823e601f3d908101601f191682016040526105eb91908101906146a8565b90506105fc838284606001516117ad565b61060e82600001518360200151611b16565b505050565b600a5460009061063d90600160a01b900460ff1661062f611248565b6001600160a01b0316611b5e565b905090565b600a54600354600b54600160a01b90920460ff1692909190565b604080516001808252818301909252600091829190816020015b61067e613d9c565b81526020019060019003908161067657905050905061069d8686611c26565b816000815181106106aa57fe5b60200260200101819052506106c186828686611d83565b9150505b949350505050565b60015481565b6106db613dd2565b6000828152600560208181526040808420815160c0810183528154606080830191825260018401546080840152600284015460a08401529082528351908101845260038301548152600483015481860152948201548584015280840194909452600681018054835181860281018601855281815295969295938701949192909184015b828210156107d45760008481526020908190206040805160c08101825260068602909201805460ff16151583526001808201548486015260028201546001600160801b03169284019290925260038101546060840152600481015460808401526005015460a0830152908352909201910161075e565b505050915250909392505050565b6021546001600160a01b031633146108155760405162461bcd60e51b815260040161080c9061569c565b60405180910390fd5b8151601c55602080830151601d55604080840151601e55606093840151601f55825160185590820151601955810151601a550151601b55565b600061085982611e35565b61086282611e75565b92915050565b60408051608081018252600c548152600d546020820152600e5491810191909152600f546060820152600090819081908190819081906108a7906120f1565b60408051608081018252600c548152600d546020820152600e5491810191909152600f5460608201526108d99061210e565b60408051608081018252600c548152600d546020820152600e5491810191909152600f54606082015261090b9061212b565b604080516080810182526010548152601154602082015260125491810191909152601354606082015261093d906120f1565b604080516080810182526010548152601154602082015260125491810191909152601354606082015261096f9061210e565b60408051608081018252601054815260115460208201526012549181019190915260135460608201526109a19061212b565b949b939a50919850965094509092509050565b6109bc613dff565b60006109c6610ef2565b90506109d183611e35565b600083815260046020818152604092839020835160a0810185528154815260018201546001600160a01b031681840152600282015481860152600382015460608201529281018054855181850281018501909652808652939491936080860193830182828015610a6057602002820191906000526020600020905b815481526020019060010190808311610a4c575b505050919092525050604051635d8d458360e11b815273__$b4a4919001844372a79711112cfb20c2b9$__9263bb1a8b069250610aaa916005906002906006908890600401615af0565b60006040518083038186803b158015610ac257600080fd5b505af4158015610ad6573d6000803e3d6000fd5b505050506040513d6000823e601f3d908101601f19168201604052610afe9190810190614903565b9392505050565b60145460155460165460175484565b6021546001600160a01b031681565b6021546001600160a01b03163314610b4d5760405162461bcd60e51b815260040161080c9061569c565b60005b8151811015610ba957600080838381518110610b6857fe5b6020026020010151806020019051810190610b839190614bcc565b91509150610b918282612166565b610b9e8282600080612384565b505050600101610b50565b5050565b6021546001600160a01b03163314610bd75760405162461bcd60e51b815260040161080c9061569c565b80516014556020810151601555604081015160165560600151601755565b60008073__$7ffffda71c6e7abde662efb5427d8d1c5d$__63b5b49eb2868660600151610c20610ef2565b6040518463ffffffff1660e01b8152600401610c3e939291906157f6565b60006040518083038186803b158015610c5657600080fd5b505af4158015610c6a573d6000803e3d6000fd5b505050506040513d6000823e601f3d908101601f19168201604052610c9291908101906146a8565b9050610cae868285604001518660600151888860800151610ccb565b9150610cc283600001518460200151611b16565b50949350505050565b60008415610ceb57600654610ceb906001600160a01b0316333088612513565b8315610d0957600754610d09906001600160a01b0316333087612513565b610d138787612166565b6000610d23888560400151612663565b809250819350505060008073__$da03e66f624374a74ff67f4d42d7f52632$__63c827d03e846005600660028e8c6040518763ffffffff1660e01b8152600401610d7296959493929190615b60565b604080518083038186803b158015610d8957600080fd5b505af4158015610d9d573d6000803e3d6000fd5b505050506040513d601f19601f82011682018060405250810190610dc191906147a0565b91509150856040015115610dd957610dd98282612743565b610de284611e75565b15610dff5760405162461bcd60e51b815260040161080c90615623565b81881215610e1f5760405162461bcd60e51b815260040161080c90615664565b80871215610e3f5760405162461bcd60e51b815260040161080c90615680565b81881315610e6f576000610e538984612754565b600654909150610e6d906001600160a01b031633836127b9565b505b80871315610e9f576000610e838883612754565b600754909150610e9d906001600160a01b031633836127b9565b505b7fcbcf11b4e5b631d29d66836bdd88114c58da1486109efcc4390bb2444c68a873848383610ecb610ef2565b89604051610edd959493929190615bf5565b60405180910390a15050509695505050505050565b600a5460408051633850c7bd60e01b815290516000926001600160a01b031691633850c7bd9160048281019260e0929190829003018186803b158015610f3757600080fd5b505afa158015610f4b573d6000803e3d6000fd5b505050506040513d601f19601f82011682018060405250810190610f6f9190614b09565b50949695505050505050565b610f83613e20565b600082815260046020818152604092839020835160a0810185528154815260018201546001600160a01b03168184015260028201548186015260038201546060820152928101805485518185028101850190965280865293949193608086019383018282801561101257602002820191906000526020600020905b815481526020019060010190808311610ffe575b5050505050815250509050919050565b600a5460009061063d90600160a01b900460ff1661062f610ef2565b60006106c58461104d86612900565b8585611d83565b6021546001600160a01b0316331461107e5760405162461bcd60e51b815260040161080c9061569c565b602180546001600160a01b0319166001600160a01b0392909216919091179055565b60408051610140810182526006546001600160a01b039081168252600754808216602080850191909152600160a01b9182900462ffffff168486015260085483166060808601919091526009548416608080870191909152600a5494851660a08701529290930460ff16151560c0850152600b5460e085015284518083018652600c548152600d5481830152600e5481870152600f548185015261010085015284519182018552601054825260115482820152601254828601526013549282019290925261012083015260008481526002909152918220829182916111859190612a39565b9250925092509193909250565b600073__$7b20982d3145d53f5ce6a72dcbae702d03$__63efac871e6111c06111ba86612900565b85612afe565b6111c8610ef2565b600a5460405160e085901b6001600160e01b03191681526111f8939291600160a01b900460ff1690600401615829565b60206040518083038186803b15801561121057600080fd5b505af4158015611224573d6000803e3d6000fd5b505050506040513d601f19601f82011682018060405250810190610afe9190614788565b600a54604051632b44ebb960e21b815260009173__$33c292c158d5f9ac43a728d8230e22b075$__9163ad13aee491611292916001600160a01b0390911690603c90600401615460565b604080518083038186803b1580156112a957600080fd5b505af41580156112bd573d6000803e3d6000fd5b505050506040513d601f19601f820116820180604052508101906112e19190614b9f565b50919050565b60606112f282611e35565b61086282612900565b600054610100900460ff16806113145750611314612bc1565b80611322575060005460ff16155b61135d5760405162461bcd60e51b815260040180806020018281038252602e815260200180615e61602e913960400191505060405180910390fd5b600054610100900460ff16158015611388576000805460ff1961ff0019909116610100171660011790555b845160078054602080890151600680546001600160a01b03199081166001600160a01b0393841617918290556040808d015162ffffff60a01b19909616600160a01b62ffffff998a16810291909117831696851696909617968790556060808e0151600a805460ff60a01b191691151589029190911790556008805484168e8716179055600980549093168b8616179092558051918201815291831681529185169282019290925291909204909216908201526114458482612bd2565b600a80546001600160a01b0319166001600160a01b0392831617905560016003819055600b5560065460405163095ea7b360e01b815291169063095ea7b39061149690889060001990600401615460565b602060405180830381600087803b1580156114b057600080fd5b505af11580156114c4573d6000803e3d6000fd5b505050506040513d601f19601f820116820180604052508101906114e89190614754565b5060075460405163095ea7b360e01b81526001600160a01b039091169063095ea7b39061151d90889060001990600401615460565b602060405180830381600087803b15801561153757600080fd5b505af115801561154b573d6000803e3d6000fd5b505050506040513d601f19601f8201168201806040525081019061156f9190614754565b5060065460405163095ea7b360e01b81526001600160a01b039091169063095ea7b3906115a490869060001990600401615460565b602060405180830381600087803b1580156115be57600080fd5b505af11580156115d2573d6000803e3d6000fd5b505050506040513d601f19601f820116820180604052508101906115f69190614754565b5060075460405163095ea7b360e01b81526001600160a01b039091169063095ea7b39061162b90869060001990600401615460565b602060405180830381600087803b15801561164557600080fd5b505af1158015611659573d6000803e3d6000fd5b505050506040513d601f19601f8201168201806040525081019061167d9190614754565b50611688600c612cb6565b6116926010612cb6565b5042600155602180546001600160a01b0319163317905580156116bb576000805461ff00191690555b5050505050565b60408051610140810182526006546001600160a01b039081168252600754808216602080850191909152600160a01b9182900462ffffff168486015260085483166060808601919091526009548416608080870191909152600a5494851660a08701529290930460ff16151560c0850152600b5460e085015284518083018652600c548152600d5481830152600e5481870152600f548185015261010085015284519182018552601054825260115482820152601254828601526013549282019290925261012083015260008481526002909152918220610862916018916117a8610ef2565b612cce565b6117b78383612166565b6117c083611e75565b6117dc5760405162461bcd60e51b815260040161080c90615607565b600a54604051632b44ebb960e21b815260009173__$33c292c158d5f9ac43a728d8230e22b075$__9163ad13aee491611826916001600160a01b0390911690603c90600401615460565b604080518083038186803b15801561183d57600080fd5b505af4158015611851573d6000803e3d6000fd5b505050506040513d601f19601f820116820180604052508101906118759190614b9f565b506000858152600460208181526040808420815160a0810183528154815260018201546001600160a01b031681850152600282015481840152600382015460608201529381018054835181860281018601909452808452969750949593949093608086019383018282801561190957602002820191906000526020600020905b8154815260200190600101908083116118f5575b5050509190925250506040516313f17ee160e01b815273__$b4a4919001844372a79711112cfb20c2b9$__926313f17ee19250611953916005906002906006908990600401615af0565b60206040518083038186803b15801561196b57600080fd5b505af415801561197f573d6000803e3d6000fd5b505050506040513d601f19601f820116820180604052508101906119a39190614788565b905060006119b6868660c8850487612384565b600087815260046020818152604092839020835160a0810185528154815260018201546001600160a01b0316818401526002820154818601526003820154606082015292810180548551818502810185019096528086529596509294909360808601939092909190830182828015611a4d57602002820191906000526020600020905b815481526020019060010190808311611a39575b5050509190925250506040516313f17ee160e01b815273__$b4a4919001844372a79711112cfb20c2b9$__926313f17ee19250611a97916005906002906006908a90600401615af0565b60206040518083038186803b158015611aaf57600080fd5b505af4158015611ac3573d6000803e3d6000fd5b505050506040513d601f19601f82011682018060405250810190611ae79190614788565b15611b045760405162461bcd60e51b815260040161080c906155eb565b611b0e3382612e34565b505050505050565b6000611b20611022565b90508061271083810385020411158015611b4257506127108281018402048111155b61060e5760405162461bcd60e51b815260040161080c906156d3565b6000670de0b6b3a76400008315611bc657611b87838483600160c01b81611b8157fe5b04612e6e565b915081611ba6576ec097ce7bc90715b34b9f1000000000915050610862565b816ec097ce7bc90715b34b9f100000000081611bbe57fe5b049150611be7565b600160601b81611bdb8586600160601b612e6e565b0281611be357fe5b0491505b6ec097ce7bc90715b34b9f1000000000821115611c15576ec097ce7bc90715b34b9f10000000009150611c1f565b81611c1f57600191505b5092915050565b611c2e613d9c565b6000838152600460208181526040808420815160a0810183528154815260018201546001600160a01b031681850152600282015481840152600382015460608201529381018054835181860281018601909452808452919360808601939290830182828015611cbc57602002820191906000526020600020905b815481526020019060010190808311611ca8575b505050505081525050905073__$b4a4919001844372a79711112cfb20c2b9$__634d476673846005600085608001518881518110611cf657fe5b60200260200101518152602001908152602001600020600260066040518563ffffffff1660e01b8152600401611d2f9493929190615c83565b60006040518083038186803b158015611d4757600080fd5b505af4158015611d5b573d6000803e3d6000fd5b505050506040513d6000823e601f3d908101601f191682016040526106c591908101906148d1565b60008073__$7ffffda71c6e7abde662efb5427d8d1c5d$__63ffc4b1ad868560400151611dae610ef2565b6040518463ffffffff1660e01b8152600401611dcc93929190615536565b60006040518083038186803b158015611de457600080fd5b505af4158015611df8573d6000803e3d6000fd5b505050506040513d6000823e601f3d908101601f19168201604052611e2091908101906146a8565b9050610cae8682600080888860600151610ccb565b60408051600080825260208201909252611e7291839190611e6c565b611e59613e58565b815260200190600190039081611e515790505b50612166565b50565b600a54604051632b44ebb960e21b8152600091829173__$33c292c158d5f9ac43a728d8230e22b075$__9163ad13aee491611ebf916001600160a01b031690603c90600401615460565b604080518083038186803b158015611ed657600080fd5b505af4158015611eea573d6000803e3d6000fd5b505050506040513d601f19601f82011682018060405250810190611f0e9190614b9f565b509050600073__$7b20982d3145d53f5ce6a72dcbae702d03$__63efac871e611f3e611f3987612900565b612f1d565b600a5460405160e084901b6001600160e01b0319168152611f7092918791600160a01b90910460ff1690600401615829565b60206040518083038186803b158015611f8857600080fd5b505af4158015611f9c573d6000803e3d6000fd5b505050506040513d601f19601f82011682018060405250810190611fc09190614788565b600085815260046020818152604092839020835160a0810185528154815260018201546001600160a01b031681840152600282015481860152600382015460608201529281018054855181850281018501909652808652959650929490936080860193909290919083018282801561205757602002820191906000526020600020905b815481526020019060010190808311612043575b505050919092525050604051632907623d60e01b815273__$b4a4919001844372a79711112cfb20c2b9$__92632907623d925061209991600690600401615b3c565b60206040518083038186803b1580156120b157600080fd5b505af41580156120c5573d6000803e3d6000fd5b505050506040513d601f19601f820116820180604052508101906120e99190614788565b129392505050565b600061086282600001518360400151670de0b6b3a764000061311a565b600061086282602001518360600151670de0b6b3a764000061311a565b80516000906121435750670de0b6b3a7640000610542565b61086261214f8361210e565b670de0b6b3a7640000612161856120f1565b61311a565b6000828152600460208181526040808420815160a0810183528154815260018201546001600160a01b0316818501526002820154818401526003820154606082015293810180548351818602810186019094528084529193608086019392908301828280156121f457602002820191906000526020600020905b8154815260200190600101908083116121e0575b505050505081525050905073__$d48eea142f8e4946a86e978d6ec5b9f014$__63adcc5dbf8260056002600687601861222b610ef2565b6040518863ffffffff1660e01b815260040161224d9796959493929190615a87565b60006040518083038186803b15801561226557600080fd5b505af4158015612279573d6000803e3d6000fd5b505060015460405163725acfd160e01b815273__$d48eea142f8e4946a86e978d6ec5b9f014$__935063725acfd192506122bc916006916014919060040161570c565b60206040518083038186803b1580156122d457600080fd5b505af41580156122e8573d6000803e3d6000fd5b505050506040513d601f19601f8201168201806040525081019061230c9190614788565b6001556040516302cae5fb60e51b815273__$da03e66f624374a74ff67f4d42d7f52632$__9063595cbf609061234f90600690859060059060029060040161572e565b60006040518083038186803b15801561236757600080fd5b505af415801561237b573d6000803e3d6000fd5b50505050505050565b60008060046000878152602001908152602001600020905060008073__$da03e66f624374a74ff67f4d42d7f52632$__63c827d03e846005600660028c6040518060c001604052806001151581526020018d15158152602001600015158152602001600660040160149054906101000a900460ff161515815260200160011981526020016001198152506040518763ffffffff1660e01b815260040161242f96959493929190615b60565b604080518083038186803b15801561244657600080fd5b505af415801561245a573d6000803e3d6000fd5b505050506040513d601f19601f8201168201806040525081019061247e91906147a0565b91509150816000146124a25760405162461bcd60e51b815260040161080c90615664565b80156124c05760405162461bcd60e51b815260040161080c90615680565b600a54600160a01b900460ff16156124ef576124e0836002015487613130565b60028501919091559350612508565b6124fd836003015487613130565b600385019190915593505b505050949350505050565b604080516001600160a01b0385811660248301528481166044830152606480830185905283518084039091018152608490920183526020820180516001600160e01b03166323b872dd60e01b178152925182516000948594938a169392918291908083835b602083106125975780518252601f199092019160209182019101612578565b6001836020036101000a0380198251168184511680821785525050505050509050019150506000604051808303816000865af19150503d80600081146125f9576040519150601f19603f3d011682016040523d82523d6000602084013e6125fe565b606091505b509150915081801561262c57508051158061262c575080806020019051602081101561262957600080fd5b50515b611b0e576040805162461bcd60e51b815260206004820152600360248201526229aa2360e91b604482015290519081900360640190fd5b600080836126e8576003805460018082019092556000818152600460205260409081902082815590920180546001600160a01b03191633179081905591519093507fbf3e9c93de94306b70ac5b9411edf475545815333bf651b894b9eada6482c594916126db9185916001600160a01b031690615bde565b60405180910390a161272c565b6000848152600460205260409020600101548492506001600160a01b03163314806127105750825b61272c5760405162461bcd60e51b815260040161080c906156f0565b5060008181526004602052604090205b9250929050565b602051828152816020820152604081fd5b60008183038183128015906127695750838113155b8061277e575060008312801561277e57508381135b610afe5760405162461bcd60e51b8152600401808060200182810382526024815260200180615eb06024913960400191505060405180910390fd5b604080516001600160a01b038481166024830152604480830185905283518084039091018152606490920183526020820180516001600160e01b031663a9059cbb60e01b1781529251825160009485949389169392918291908083835b602083106128355780518252601f199092019160209182019101612816565b6001836020036101000a0380198251168184511680821785525050505050509050019150506000604051808303816000865af19150503d8060008114612897576040519150601f19603f3d011682016040523d82523d6000602084013e61289c565b606091505b50915091508180156128ca5750805115806128ca57508080602001905160208110156128c757600080fd5b50515b6116bb576040805162461bcd60e51b815260206004820152600260248201526114d560f21b604482015290519081900360640190fd5b6000818152600460208181526040808420815160a0810183528154815260018201546001600160a01b0316818501526002820154818401526003820154606082810191909152948201805484518187028101870190955280855295969591949293608086019390929083018282801561299857602002820191906000526020600020905b815481526020019060010190808311612984575b5050509190925250506040516325619d4960e21b815291925073__$b4a4919001844372a79711112cfb20c2b9$__91639586752491506129e5908490600590600290600690600401615a57565b60006040518083038186803b1580156129fd57600080fd5b505af4158015612a11573d6000803e3d6000fd5b505050506040513d6000823e601f3d908101601f19168201604052610afe91908101906146da565b6040805161012081018252825481526001830154600281810b810b810b602084015263010000008204810b810b810b93830193909352600160301b90046001600160801b03166060820152908201546080820152600382015460a0820152600482015460c0820152600582015460e0820152600682015461010082015260009081908190612ac8908690613150565b6001850154600160301b90046001600160801b0316612ae78787613172565b9194506001600160801b0316925090509250925092565b612b06613d9c565b600083516001016001600160401b0381118015612b2257600080fd5b50604051908082528060200260200182016040528015612b5c57816020015b612b49613d9c565b815260200190600190039081612b415790505b50905060005b8451811015612b9e57848181518110612b7757fe5b6020026020010151828281518110612b8b57fe5b6020908102919091010152600101612b62565b508281855181518110612bad57fe5b60200260200101819052506106c581612f1d565b6000612bcc3061320f565b15905090565b600081602001516001600160a01b031682600001516001600160a01b031610612bfa57600080fd5b50805160208083015160409384015184516001600160a01b0394851681850152939091168385015262ffffff166060808401919091528351808403820181526080840185528051908301206001600160f81b031960a085015294901b6bffffffffffffffffffffffff191660a183015260b58201939093527fe34f199b19b2b4f47f68442619d555527d244f78a3297ea89325f843f87b8b5460d5808301919091528251808303909101815260f5909101909152805191012090565b670de0b6b3a764000060028201819055600390910155565b6001820154600090600160301b90046001600160801b031615612e29576000612cf78585613172565b60a08601516001860154919250600091612db491612d27918a9190600281810b9163010000009004900b87613215565b6040805161012081018252885481526001890154600281810b810b810b602084015263010000008204810b810b810b93830193909352600160301b90046001600160801b03166060820152908801546080820152600388015460a0820152600488015460c0820152600588015460e08201526006880154610100820152612daf908990613476565b61351d565b90506000612e1b8760c00151612e008a6004016040518060800160405290816000820154815260200160018201548152602001600282015481526020016003820154815250508661353a565b60018901548890600281810b9163010000009004900b6135af565b9190910192506106c5915050565b506000949350505050565b600a54610ba990600160a01b900460ff16612e5a576007546001600160a01b0316612e67565b6006546001600160a01b03165b83836127b9565b6000808060001985870986860292508281109083900303905080612ea45760008411612e9957600080fd5b508290049050610afe565b808411612eb057600080fd5b6000848688096000868103871696879004966002600389028118808a02820302808a02820302808a02820302808a02820302808a02820302808a02909103029181900381900460010186841190950394909402919094039290920491909117919091029150509392505050565b612f25613d9c565b6000805b8351811015612f5c57838181518110612f3e57fe5b602002602001015160a0015151820191508080600101915050612f29565b506000816001600160401b0381118015612f7557600080fd5b50604051908082528060200260200182016040528015612faf57816020015b612f9c613e9e565b815260200190600190039081612f945790505b5090506040518060c001604052806000815260200160008152602001600081526020016000815260200160008152602001828152509250600080600090505b85518110156131115785818151811061300357fe5b60200260200101516020015185602001818151019150818152505085818151811061302a57fe5b60200260200101516040015185604001818151019150818152505085818151811061305157fe5b60200260200101516060015185606001818151019150818152505085818151811061307857fe5b60200260200101516080015185608001818151019150818152505060005b8682815181106130a257fe5b602002602001015160a0015151811015613108578682815181106130c257fe5b602002602001015160a0015181815181106130d957fe5b60200260200101518660a0015184815181106130f157fe5b602090810291909101015260019283019201613096565b50600101612fee565b50505050919050565b60006106c58261312a8686613647565b906136a0565b6000808284106131455750508082038161273c565b50600090508261273c565b600081606001516001600160801b031661316a8484613476565b019392505050565b6001810154604080516101208101825283548152600283810b810b810b602083015263010000008404810b810b810b92820192909252600160301b9092046001600160801b031660608301819052908301546080830152600383015460a0830152600483015460c0830152600583015460e08301526006830154610100830152600091610afe9190670de0b6b3a764000090612161908790613150565b3b151590565b600080856001600160a01b031663f30583996040518163ffffffff1660e01b815260040160206040518083038186803b15801561325157600080fd5b505afa158015613265573d6000803e3d6000fd5b505050506040513d601f19601f820116820180604052508101906132899190614788565b90506000866001600160a01b031663461413196040518163ffffffff1660e01b815260040160206040518083038186803b1580156132c657600080fd5b505afa1580156132da573d6000803e3d6000fd5b505050506040513d601f19601f820116820180604052508101906132fe9190614788565b90506000876001600160a01b0316633850c7bd6040518163ffffffff1660e01b815260040160e06040518083038186803b15801561333b57600080fd5b505afa15801561334f573d6000803e3d6000fd5b505050506040513d601f19601f820116820180604052508101906133739190614b09565b505050505091505060008061339f61338b8b8b6136ff565b6133958c8b6136ff565b8b8b878a8a6137cb565b91509150600089896040516020016133b892919061542f565b6040516020818303038152906040528051906020012090506134646134138d6000016040518060800160405290816000820154815260200160018201548152602001600282015481526020016003820154815250508a61353a565b8d600801600084815260200190815260200160002060405180608001604052908160008201548152602001600182015481526020016002820154815260200160038201548152505085858a8a613848565b96505050505050505b95945050505050565b6060820151815160405163133f757160e31b815260009283926001600160a01b03909116916399fbab88916134ad916004016155e2565b6101806040518083038186803b1580156134c657600080fd5b505afa1580156134da573d6000803e3d6000fd5b505050506040513d601f19601f820116820180604052508101906134fe9190614feb565b50506001600160801b039092169a505050505050505050505092915050565b60008183670de0b6b3a7640000028161353257fe5b049392505050565b8151602083015160009190831161356957670de0b6b3a7640000846040015184028161356257fe5b0401610afe565b670de0b6b3a764000084604001518560200151028161358457fe5b0481019050670de0b6b3a764000084602001518403856060015102816135a657fe5b04019392505050565b60008060006135d8866135c1876138c7565b6135ca876138c7565b670de0b6b3a7640000613bf9565b9150915060006135f189886001600160a01b0316611b5e565b90508815613615578261360d8383670de0b6b3a764000061311a565b01935061362d565b816136298483670de0b6b3a764000061311a565b0193505b670de0b6b3a7640000848902049998505050505050505050565b60008261365657506000610862565b8282028284828161366357fe5b0414610afe5760405162461bcd60e51b8152600401808060200182810382526021815260200180615e8f6021913960400191505060405180910390fd5b60008082116136f6576040805162461bcd60e51b815260206004820152601a60248201527f536166654d6174683a206469766973696f6e206279207a65726f000000000000604482015290519081900360640190fd5b81838161353257fe5b613707613ec5565b6000806000856001600160a01b031663f30dba93866040518263ffffffff1660e01b815260040161373891906155d4565b6101006040518083038186803b15801561375157600080fd5b505afa158015613765573d6000803e3d6000fd5b505050506040513d601f19601f820116820180604052508101906137899190614a5f565b9750505050945094505050806137b15760405162461bcd60e51b815260040161080c9061563f565b506040805180820190915291825260208201529392505050565b6000806000808860020b8760020b126137ec575050885160208a01516137fc565b5050885160208a01519085039084035b6000808960020b8960020b121561381b575050895160208b015161382b565b5050895160208b01519087039086035b92909603959095039a949093039290920397509195505050505050565b6000806000876040015185111561387c578760400151850388600001518803670de0b6b3a7640000028161387857fe5b0491505b87606001518411156138ab578760600151840388602001518703670de0b6b3a764000002816138a757fe5b0490505b671bc16d674ec800008282018a02049998505050505050505050565b60008060008360020b126138de578260020b6138e6565b8260020b6000035b9050620d89e8811115613924576040805162461bcd60e51b81526020600482015260016024820152601560fa1b604482015290519081900360640190fd5b60006001821661393857600160801b61394a565b6ffffcb933bd6fad37aa2d162d1a5940015b70ffffffffffffffffffffffffffffffffff169050600282161561397e576ffff97272373d413259a46990580e213a0260801c5b600482161561399d576ffff2e50f5f656932ef12357cf3c7fdcc0260801c5b60088216156139bc576fffe5caca7e10e4e61c3624eaa0941cd00260801c5b60108216156139db576fffcb9843d60f6159c9db58835c9266440260801c5b60208216156139fa576fff973b41fa98c081472e6896dfb254c00260801c5b6040821615613a19576fff2ea16466c96a3843ec78b326b528610260801c5b6080821615613a38576ffe5dee046a99a2a811c461f1969c30530260801c5b610100821615613a58576ffcbe86c7900a88aedcffc83b479aa3a40260801c5b610200821615613a78576ff987a7253ac413176f2b074cf7815e540260801c5b610400821615613a98576ff3392b0822b70005940c7a398e4b70f30260801c5b610800821615613ab8576fe7159475a2c29b7443b29c7fa6e889d90260801c5b611000821615613ad8576fd097f3bdfd2022b8845ad8f792aa58250260801c5b612000821615613af8576fa9f746462d870fdf8a65dc1f90e061e50260801c5b614000821615613b18576f70d869a156d2a1b890bb3df62baf32f70260801c5b618000821615613b38576f31be135f97d08fd981231505542fcfa60260801c5b62010000821615613b59576f09aa508b5b7a84e1c677de54f3e99bc90260801c5b62020000821615613b79576e5d6af8dedb81196699c329225ee6040260801c5b62040000821615613b98576d2216e584f5fa1ea926041bedfe980260801c5b62080000821615613bb5576b048a170391f7dc42444e8fa20260801c5b60008460020b1315613bd0578060001981613bcc57fe5b0490505b640100000000810615613be4576001613be7565b60005b60ff16602082901c0192505050919050565b600080836001600160a01b0316856001600160a01b03161115613c1a579293925b846001600160a01b0316866001600160a01b031611613c4557613c3e858585613c95565b9150613c8c565b836001600160a01b0316866001600160a01b03161015613c7e57613c6a868585613c95565b9150613c77858785613cfe565b9050613c8c565b613c89858585613cfe565b90505b94509492505050565b6000826001600160a01b0316846001600160a01b03161115613cb5579192915b836001600160a01b0316613cee606060ff16846001600160801b0316901b8686036001600160a01b0316866001600160a01b0316612e6e565b81613cf557fe5b04949350505050565b6000826001600160a01b0316846001600160a01b03161115613d1e579192915b6106c5826001600160801b03168585036001600160a01b0316600160601b612e6e565b60405180610120016040528060008152602001600060020b8152602001600060020b815260200160006001600160801b0316815260200160008152602001600081526020016000815260200160008152602001600081525090565b6040518060c001604052806000815260200160008152602001600081526020016000815260200160008152602001606081525090565b6040518060600160405280613de5613edf565b8152602001613df2613edf565b8152602001606081525090565b60405180606001604052806000815260200160008152602001606081525090565b6040518060a001604052806000815260200160006001600160a01b031681526020016000815260200160008152602001606081525090565b604080516101008101909152806000815260006020820181905260408201819052606082018190526080820181905260a0820181905260c0820181905260e09091015290565b60408051608081018252600080825260208201819052918101829052606081019190915290565b604051806040016040528060008152602001600081525090565b60405180606001604052806000815260200160008152602001600081525090565b803561054281615dfb565b805161054281615dfb565b600082601f830112613f26578081fd5b81356020613f3b613f3683615dd2565b615daf565b82815281810190858301608080860288018501891015613f59578687fd5b865b86811015613fea5781838b031215613f71578788fd5b604080518381018181106001600160401b0382111715613f8d57fe5b82528435613f9a81615e10565b815284880135613fa981615e3a565b8189015284820135613fba81615e2b565b8083830152506060915081850135613fd181615e2b565b9181019190915285529385019391810191600101613f5b565b509198975050505050505050565b600082601f830112614008578081fd5b81516020614018613f3683615dd2565b82815281810190858301608080860288018501891015614036578687fd5b865b86811015613fea5781838b03121561404e578788fd5b604080518381018181106001600160401b038211171561406a57fe5b8252845161407781615e10565b81528488015161408681615e3a565b818901528482015161409781615e2b565b80838301525060609150818501516140ae81615e2b565b9181019190915285529385019391810191600101614038565b600082601f8301126140d7578081fd5b815160206140e7613f3683615dd2565b8281528181019085830161010080860288018501891015614106578687fd5b865b86811015613fea5781838b03121561411e578788fd5b604080518381018181106001600160401b038211171561413a57fe5b825261414585614245565b8152878501518882015261415a8286016141cb565b828201526060915061416d8286016145dc565b828201526080915061418082860161425b565b8282015260a0915061419382860161425b565b9181019190915260c0848101519082015260e0808501519082015285529385019391810191600101614108565b803561054281615e10565b805161054281615e10565b600082601f8301126141e6578081fd5b81356001600160401b038111156141f957fe5b61420c601f8201601f1916602001615daf565b818152846020838601011115614220578283fd5b816020850160208301379081016020019190915292915050565b803561054281615e1e565b805161054281615e1e565b803561054281615e2b565b805161054281615e2b565b600060808284031215614277578081fd5b604051608081016001600160401b03828210818311171561429457fe5b8160405282935084358352602085013560208401526040850135604084015260608501359150808211156142c757600080fd5b506142d48582860161433f565b6060830152505092915050565b6000608082840312156142f2578081fd5b604051608081018181106001600160401b038211171561430e57fe5b8060405250809150823581526020830135602082015260408301356040820152606083013560608201525092915050565b600060408284031215614350578081fd5b604051604081016001600160401b03828210818311171561436d57fe5b8160405282935084358352602085013591508082111561438c57600080fd5b50614399858286016141d6565b6020830152505092915050565b600060c082840312156143b7578081fd5b60405160c081016001600160401b0382821081831117156143d457fe5b81604052829350843583526020850135602084015260408501356040840152606085013560608401526080850135608084015260a085013591508082111561441b57600080fd5b5061442885828601613f16565b60a0830152505092915050565b600060c08284031215614446578081fd5b60405160c081016001600160401b03828210818311171561446357fe5b81604052829350845183526020850151602084015260408501516040840152606085015160608401526080850151608084015260a08501519150808211156144aa57600080fd5b5061442885828601613ff8565b600060c082840312156144c8578081fd5b60405160c081018181106001600160401b03821117156144e457fe5b60405290508082356144f581615e10565b8152602083013561450581615e10565b6020820152604083013561451881615e10565b6040820152614529606084016141c0565b60608201526080830135608082015260a083013560a08201525092915050565b600061010080838503121561455c578182fd5b604051908101906001600160401b038211818310171561457857fe5b81604052809250835181526020840151602082015260408401516040820152606084015160608201526080840151608082015260a084015160a082015260c084015160c082015260e084015160e0820152505092915050565b803561054281615e3a565b805161054281615e3a565b805161ffff8116811461054257600080fd5b805161054281615e4f565b600060208284031215614615578081fd5b8135610afe81615dfb565b60006020808385031215614632578182fd5b82356001600160401b03811115614647578283fd5b8301601f81018513614657578283fd5b8035614665613f3682615dd2565b81815283810190838501865b8481101561469a576146888a8884358901016141d6565b84529286019290860190600101614671565b509098975050505050505050565b6000602082840312156146b9578081fd5b81516001600160401b038111156146ce578182fd5b6106c5848285016140c7565b600060208083850312156146ec578182fd5b82516001600160401b03811115614701578283fd5b8301601f81018513614711578283fd5b805161471f613f3682615dd2565b81815283810190838501865b8481101561469a576147428a888451890101614435565b8452928601929086019060010161472b565b600060208284031215614765578081fd5b8151610afe81615e10565b600060208284031215614781578081fd5b5035919050565b600060208284031215614799578081fd5b5051919050565b600080604083850312156147b2578081fd5b505080516020909101519092909150565b6000608082840312156147d4578081fd5b610afe83836142e1565b60008061010083850312156147f1578182fd5b6147fb84846142e1565b915061480a84608085016142e1565b90509250929050565b60008060008084860360e0811215614829578283fd5b6080811215614836578283fd5b50604051608081018181106001600160401b038211171561485357fe5b604052853561486181615e4f565b8152602086013561487181615dfb565b6020820152604086013561488481615dfb565b6040820152606086013561489781615e10565b606082015293506148aa60808601613f00565b92506148b860a08601613f00565b91506148c660c08601613f00565b905092959194509250565b6000602082840312156148e2578081fd5b81516001600160401b038111156148f7578182fd5b6106c584828501614435565b60006020808385031215614915578182fd5b82516001600160401b038082111561492b578384fd5b908401906060828703121561493e578384fd5b6040805160608101818110848211171561495457fe5b82528351815284840151858201528382015183811115614972578687fd5b80850194505087601f850112614986578586fd5b8351614994613f3682615dd2565b8181528681019086880161016080850289018a018d10156149b3578a8bfd5b8a98505b84891015614a4a57818d03818112156149ce578b8cfd5b87518881018181108b821117156149e157fe5b808a5260608312156149f1578d8efd5b60a0820192508083108b84111715614a0557fe5b828a52845181528c850151606083015289850151608083015280825250614a2f8f60608601614549565b818d01528552506001989098019792890192908101906149b7565b50509383019390935250979650505050505050565b600080600080600080600080610100898b031215614a7b578586fd5b8851614a8681615e3a565b80985050602089015180600f0b8114614a9d578687fd5b80975050604089015195506060890151945060808901518060060b8114614ac2578485fd5b60a08a0151909450614ad381615dfb565b60c08a015190935063ffffffff81168114614aec578283fd5b9150614afa60e08a016141cb565b90509295985092959890939650565b600080600080600080600060e0888a031215614b23578081fd5b8751614b2e81615dfb565b6020890151909750614b3f81615e2b565b9550614b4d604089016145e7565b9450614b5b606089016145e7565b9350614b69608089016145e7565b925060a088015160ff81168114614b7e578182fd5b60c0890151909250614b8f81615e10565b8091505092959891949750929550565b60008060408385031215614bb1578182fd5b8251614bbc81615dfb565b6020939093015192949293505050565b60008060408385031215614bde578182fd5b8251915060208301516001600160401b03811115614bfa578182fd5b614c06858286016140c7565b9150509250929050565b6000806000806000806101608789031215614c29578384fd5b8635955060208701356001600160401b0380821115614c46578586fd5b818901915089601f830112614c59578586fd5b8135614c67613f3682615dd2565b80828252602082019150602085018d602061010086028801011115614c8a57898afd5b8995505b83861015614d4457610100818f031215614ca657898afd5b60405161010081018181108782111715614cbc57fe5b604052614cc88261423a565b815260208201356020820152614ce0604083016141c0565b6040820152614cf1606083016145d1565b6060820152614d0260808301614250565b6080820152614d1360a08301614250565b60a082015260c0828101359082015260e0808301359082015283526001959095019460209092019161010001614c8e565b50985050506040890135955060608901359450614d648a60808b016144b7565b9350610140890135915080821115614d7a578283fd5b50614d8789828a0161433f565b9150509295509295509295565b60008082840360a0811215614da7578283fd5b833592506080601f1982011215614dbc578182fd5b50604051608081018181106001600160401b0382111715614dd957fe5b80604052506020840135815260408401356020820152606084013560408201526080840135614e0781615e10565b6060820152919491935090915050565b60008060408385031215614e29578182fd5b8235915060208301356001600160401b03811115614e45578182fd5b614c06858286016143a6565b6000806000806101208587031215614e67578182fd5b8435935060208501356001600160401b0380821115614e84578384fd5b614e90888389016143a6565b9450614e9f88604089016144b7565b9350610100870135915080821115614eb5578283fd5b9086019060a08289031215614ec8578283fd5b60405160a081018181108382111715614edd57fe5b806040525082358152602083013560208201526040830135604082015260608301356060820152608083013582811115614f15578485fd5b614f218a82860161433f565b6080830152509598949750929550505050565b60008060006101008486031215614f49578081fd5b83359250614f5a85602086016144b7565b915060e08401356001600160401b03811115614f74578182fd5b614f8086828701614266565b9150509250925092565b6000806000806101208587031215614fa0578182fd5b8435935060208501359250614fb886604087016144b7565b91506101008501356001600160401b03811115614fd3578182fd5b614fdf87828801614266565b91505092959194509250565b6000806000806000806000806000806000806101808d8f03121561500d578586fd5b8c516bffffffffffffffffffffffff81168114615028578687fd5b9b5061503660208e01613f0b565b9a5061504460408e01613f0b565b995061505260608e01613f0b565b985061506060808e016145f9565b975061506e60a08e0161425b565b965061507c60c08e0161425b565b955061508a60e08e016145dc565b94506101008d015193506101208d015192506150a96101408e016145dc565b91506150b86101608e016145dc565b90509295989b509295989b509295989b565b6001600160a01b03169052565b6000815180845260208085019450808401835b838110156151795781518051600d811061510057fe5b88528084015184890152604080820151151590890152606080820151615128828b0182615419565b505060808082015161513c828b018261518a565b505060a080820151615150828b018261518a565b505060c0818101519089015260e0908101519088015261010090960195908201906001016150ea565b509495945050505050565b15159052565b60020b9052565b8051825260208082015190830152604090810151910152565b805482526001810154602083015260020154604090910152565b6151d7826151d28354615def565b6150ca565b60018101546001600160a01b036151f3602085018284166150ca565b6152086040850162ffffff8460a01c16615426565b6152156002840154615def565b915061522460608501836150ca565b6152316003840154615def565b915061524060808501836150ca565b6004830154915061525660a085018284166150ca565b5061526a60c0840160ff8360a01c16615184565b50600581015460e08301526152866101008301600683016152bd565b610ba96101808301600a83016152bd565b805182526020810151602083015260408101516040830152606081015160608301525050565b80548252600181015460208301526002810154604083015260030154606090910152565b8051151582526001600160801b036020820151166020830152604081015160020b6040830152606081015160020b60608301525050565b600060c08301825184526020808401518186015260408401516040860152606084015160608601526080808501518187015260a085015160c060a088015283815180865260e08901915084830195508692505b808310156153925761537e8287516152e1565b94840194600192909201919083019061536b565b50979650505050505050565b805182526020808201516001600160a01b031681840152604080830151908401526060808301519084015260808083015160a0918501829052805191850182905260009290810191839060c08701905b8083101561540e57845182529383019360019290920191908301906153ee565b509695505050505050565b6001600160801b03169052565b62ffffff169052565b600292830b60e890811b82529190920b901b600382015260060190565b6001600160a01b0391909116815260200190565b6001600160a01b03929092168252602082015260400190565b60208082528251828201819052600091906040908185019080840286018301878501865b8381101561469a57888303603f1901855281518051845287810151888501528681015187850152606080820151908501526080808201518186015260a09182015160c0928601839052805192860183905289019160e08601918b915b808310156155205761550c8486516152e1565b938b019392810192600192909201916154f9565b505050958801959350509086019060010161549d565b60006060820160608352808651808352608085019150602092506080838202860101838901855b8381101561558b57607f19888403018552615579838351615318565b9486019492509085019060010161555d565b505092850196909652506001600160a01b03939093166040909201919091525092915050565b901515815260200190565b92151583526020830191909152604082015260600190565b60029190910b815260200190565b90815260200190565b602080825260029082015261503760f01b604082015260600190565b602080825260029082015261140d60f21b604082015260600190565b602080825260029082015261503360f01b604082015260600190565b6020808252600b908201526a1a5b9a5d1a585b1a5e995960aa1b604082015260600190565b602080825260029082015261503560f01b604082015260600190565b602080825260029082015261281b60f11b604082015260600190565b60208082526017908201527f63616c6c6572206d757374206265206f70657261746f72000000000000000000604082015260600190565b60208082526003908201526221a41960e91b604082015260600190565b602080825260029082015261281960f11b604082015260600190565b83815260c0810161572060208301856152bd565b8260a0830152949350505050565b600061026061573d83886151c4565b806102008401526157508184018761539e565b6102208401959095525050610240015292915050565b61010081016157758285615297565b610afe6080830184615297565b60006101208201905082518252602083015160020b6020830152604083015160020b604083015260608301516157bb6060840182615419565b506080830151608083015260a083015160a083015260c083015160c083015260e083015160e083015261010080840151818401525092915050565b6000606082526158096060830186615318565b9315156020830152506001600160a01b0391909116604090910152919050565b60006060825261583c6060830186615318565b6001600160a01b0394909416602083015250901515604090910152919050565b6000602080835261010083016158758285018651615191565b81850151608061588781870183615191565b60408781015160e08881015280519485905285019390925085906101208801905b808310156159035785518051151583528781015188840152858101516001600160801b03168684015260608082015190840152848101518584015260a09081015190830152948601946001929092019160c0909101906158a8565b5098975050505050505050565b60006020808352608080840185518386015282860151604081818801528088015191506060808189015283835180865260a09550858a0191508785019450885b818110156159d15785518051805185528a8101518b86015286015186850152890151805185850152808a01518985015280860151888501528481015160c0808601919091528982015160e080870191909152898301516101008701529082015161012086015201516101408401529488019461016090920191600101615950565b50909a9950505050505050505050565b6000602080835260c0830184518285015260018060a01b03828601511660408501526040850151606085015260608501516080850152608085015160a08086015281815180845260e08701915084830193508592505b8083101561540e5783518252928401926001929092019190840190615a37565b6000610260808352615a6b8184018861539e565b91505084602083015283604083015261346d60608301846151c4565b60006102c0808352615a9b8184018b61539e565b9050886020840152876040840152615ab660608401886151c4565b828103610260840152615ac981876150d7565b61028084019590955250506001600160a01b03919091166102a09091015295945050505050565b6000610280808352615b048184018961539e565b915050856020830152846040830152615b2060608301856151c4565b6001600160a01b03929092166102609190910152949350505050565b6000610220808352615b508184018661539e565b915050610afe60208301846151c4565b6000610160888352876020840152866040840152856060840152806080840152615b8c818401866150d7565b9150508251151560a08301526020830151151560c08301526040830151151560e083015260608301511515610100830152608083015161012083015260a0830151610140830152979650505050505050565b9182526001600160a01b0316602082015260400190565b60008682526020868184015285604084015260018060a01b038516606084015260a06080840152835160a084015280840151604060c085015280518060e0860152835b81811015615c555782810184015186820161010001528301615c38565b81811115615c67578461010083880101525b50601f01601f1916939093016101000198975050505050505050565b6000610260868352602081818501526103408401615ca3838601896151aa565b60039250615cb76102c08601848a016151aa565b60e0610320860152600688810180549283905285528285209185906103608801905b80831015615d395760ff855416151582526001850154868301526001600160801b03600286015416604083015286850154606083015260048501546080830152600585015460a083015260c0820191508385019450600183019250615cd9565b5080965050505050505083604083015261346d60608301846151c4565b9283526020830191909152604082015260600190565b93845260208401929092526040830152606082015260800190565b958652602086019490945260408501929092526060840152608083015260a082015260c00190565b6040518181016001600160401b0381118282101715615dca57fe5b604052919050565b60006001600160401b03821115615de557fe5b5060209081020190565b6001600160a01b031690565b6001600160a01b0381168114611e7257600080fd5b8015158114611e7257600080fd5b600d8110611e7257600080fd5b8060020b8114611e7257600080fd5b6001600160801b0381168114611e7257600080fd5b62ffffff81168114611e7257600080fdfe496e697469616c697a61626c653a20636f6e747261637420697320616c726561647920696e697469616c697a6564536166654d6174683a206d756c7469706c69636174696f6e206f766572666c6f775369676e6564536166654d6174683a207375627472616374696f6e206f766572666c6f77a2646970667358221220d17e904650f995bbebe31cb2916ff245383a32d8fa4d9ba5d84b342cbae3c12464736f6c63430007060033",
  "libraries": {
    "LPTMath": "0x1De1BA840E05426A62A7FC67Ce4381E3A3450890",
    "PositionUpdater": "0x66875F5cdC87d61F869a6682b6681f7efce36173",
    "VaultLib": "0x8157fC4b49e7D04Dc08f41b04f945e7fB55d149A",
    "PositionLib": "0x05a8e395E2f08F95B2dA5c1c578781F0bf7a530A",
    "PositionCalculator": "0x00662b0d6A5e3F26e875aC97d814382B69FEbC93",
    "InterestCalculator": "0x04821dcCDBC6905EbeBD839f93F5eaE1f2eA9De0"
  },
  "devdoc": {
    "kind": "dev",
    "methods": {
      "calculateMinCollateral(uint256,(uint256,uint256,uint256,uint256,uint256,(bool,uint128,int24,int24)[]))": {
        "params": {
          "_position": "position you wanna add to the vault",
          "_vaultId": "vault id"
        },
        "returns": {
          "_0": "minCollateral minimal amount of collateral to keep positions."
        }
      },
      "checkLiquidatable(uint256)": {
        "params": {
          "_vaultId": "vault id"
        }
      },
      "forceClose(bytes[])": {
        "params": {
          "_data": "vaults data to close position"
        }
      },
      "getVaultStatus(uint256)": {
        "params": {
          "_vaultId": "vault id"
        }
      },
      "updatePosition(uint256,(uint8,uint256,bool,uint128,int24,int24,uint256,uint256)[],uint256,uint256,(bool,bool,bool,bool,int256,int256),(uint256,bytes))": {
        "params": {
          "_buffer0": "max amount of token0 to send",
          "_buffer1": "max amount of token1 to send",
          "_positionUpdates": "parameters to update position",
          "_vaultId": "vault id"
        }
      }
    },
    "version": 1
  },
  "userdoc": {
    "kind": "user",
    "methods": {
      "calculateMinCollateral(uint256,(uint256,uint256,uint256,uint256,uint256,(bool,uint128,int24,int24)[]))": {
        "notice": "Calculates Min. Collateral of the vault."
      },
      "checkLiquidatable(uint256)": {
        "notice": "Returns the flag whether a vault can be liquidated or not."
      },
      "closeSubVault(uint256,uint256,(bool,bool,bool,bool,int256,int256),(uint256,uint256,uint256,(uint256,bytes)))": {
        "notice": "Closes position in sub-vault."
      },
      "closeVault(uint256,(bool,bool,bool,bool,int256,int256),(uint256,uint256,uint256,(uint256,bytes)))": {
        "notice": "Closes all positions in a vault."
      },
      "forceClose(bytes[])": {
        "notice": "Contract owner can close positions"
      },
      "getPrice()": {
        "notice": "Gets current price of underlying token by margin token."
      },
      "getTWAP()": {
        "notice": "Gets Time Weighted Average Price of underlying token by margin token."
      },
      "getVaultStatus(uint256)": {
        "notice": "Returns collateral value and debt value."
      },
      "liquidate(uint256,(uint256,uint256,uint256,bool))": {
        "notice": "Liquidates a vault."
      },
      "openPosition(uint256,(uint256,uint256,uint256,uint256,uint256,(bool,uint128,int24,int24)[]),(bool,bool,bool,bool,int256,int256),(uint256,uint256,uint256,uint256,(uint256,bytes)))": {
        "notice": "Opens new position."
      },
      "updatePosition(uint256,(uint8,uint256,bool,uint128,int24,int24,uint256,uint256)[],uint256,uint256,(bool,bool,bool,bool,int256,int256),(uint256,bytes))": {
        "notice": "Update position in a vault."
      }
    },
    "version": 1
  },
  "storageLayout": {
    "storage": [
      {
        "astId": 1001,
        "contract": "src/ControllerHelper.sol:ControllerHelper",
        "label": "_initialized",
        "offset": 0,
        "slot": "0",
        "type": "t_bool"
      },
      {
        "astId": 1004,
        "contract": "src/ControllerHelper.sol:ControllerHelper",
        "label": "_initializing",
        "offset": 1,
        "slot": "0",
        "type": "t_bool"
      },
      {
        "astId": 4396,
        "contract": "src/ControllerHelper.sol:ControllerHelper",
        "label": "lastTouchedTimestamp",
        "offset": 0,
        "slot": "1",
        "type": "t_uint256"
      },
      {
        "astId": 4400,
        "contract": "src/ControllerHelper.sol:ControllerHelper",
        "label": "ranges",
        "offset": 0,
        "slot": "2",
        "type": "t_mapping(t_bytes32,t_struct(PerpStatus)6496_storage)"
      },
      {
        "astId": 4402,
        "contract": "src/ControllerHelper.sol:ControllerHelper",
        "label": "vaultIdCount",
        "offset": 0,
        "slot": "3",
        "type": "t_uint256"
      },
      {
        "astId": 4406,
        "contract": "src/ControllerHelper.sol:ControllerHelper",
        "label": "vaults",
        "offset": 0,
        "slot": "4",
        "type": "t_mapping(t_uint256,t_struct(Vault)6529_storage)"
      },
      {
        "astId": 4410,
        "contract": "src/ControllerHelper.sol:ControllerHelper",
        "label": "subVaults",
        "offset": 0,
        "slot": "5",
        "type": "t_mapping(t_uint256,t_struct(SubVault)6517_storage)"
      },
      {
        "astId": 4412,
        "contract": "src/ControllerHelper.sol:ControllerHelper",
        "label": "context",
        "offset": 0,
        "slot": "6",
        "type": "t_struct(Context)6550_storage"
      },
      {
        "astId": 4414,
        "contract": "src/ControllerHelper.sol:ControllerHelper",
        "label": "irmParams",
        "offset": 0,
        "slot": "20",
        "type": "t_struct(IRMParams)6758_storage"
      },
      {
        "astId": 4416,
        "contract": "src/ControllerHelper.sol:ControllerHelper",
        "label": "dpmParams",
        "offset": 0,
        "slot": "24",
        "type": "t_struct(DPMParams)6749_storage"
      },
      {
        "astId": 4418,
        "contract": "src/ControllerHelper.sol:ControllerHelper",
        "label": "operator",
        "offset": 0,
        "slot": "33",
        "type": "t_address"
      }
    ],
    "types": {
      "t_address": {
        "encoding": "inplace",
        "label": "address",
        "numberOfBytes": "20"
      },
      "t_array(t_struct(LPTState)6509_storage)dyn_storage": {
        "base": "t_struct(LPTState)6509_storage",
        "encoding": "dynamic_array",
        "label": "struct DataType.LPTState[]",
        "numberOfBytes": "32"
      },
      "t_array(t_uint256)dyn_storage": {
        "base": "t_uint256",
        "encoding": "dynamic_array",
        "label": "uint256[]",
        "numberOfBytes": "32"
      },
      "t_bool": {
        "encoding": "inplace",
        "label": "bool",
        "numberOfBytes": "1"
      },
      "t_bytes32": {
        "encoding": "inplace",
        "label": "bytes32",
        "numberOfBytes": "32"
      },
      "t_int24": {
        "encoding": "inplace",
        "label": "int24",
        "numberOfBytes": "3"
      },
      "t_mapping(t_bytes32,t_struct(PerpStatus)6496_storage)": {
        "encoding": "mapping",
        "key": "t_bytes32",
        "label": "mapping(bytes32 => struct DataType.PerpStatus)",
        "numberOfBytes": "32",
        "value": "t_struct(PerpStatus)6496_storage"
      },
      "t_mapping(t_bytes32,t_struct(TickSnapshot)6735_storage)": {
        "encoding": "mapping",
        "key": "t_bytes32",
        "label": "mapping(bytes32 => struct InterestCalculator.TickSnapshot)",
        "numberOfBytes": "32",
        "value": "t_struct(TickSnapshot)6735_storage"
      },
      "t_mapping(t_uint256,t_struct(SubVault)6517_storage)": {
        "encoding": "mapping",
        "key": "t_uint256",
        "label": "mapping(uint256 => struct DataType.SubVault)",
        "numberOfBytes": "32",
        "value": "t_struct(SubVault)6517_storage"
      },
      "t_mapping(t_uint256,t_struct(Vault)6529_storage)": {
        "encoding": "mapping",
        "key": "t_uint256",
        "label": "mapping(uint256 => struct DataType.Vault)",
        "numberOfBytes": "32",
        "value": "t_struct(Vault)6529_storage"
      },
      "t_struct(AccountState)5996_storage": {
        "encoding": "inplace",
        "label": "struct BaseToken.AccountState",
        "members": [
          {
            "astId": 5991,
            "contract": "src/ControllerHelper.sol:ControllerHelper",
            "label": "collateralAmountNotInMarket",
            "offset": 0,
            "slot": "0",
            "type": "t_uint256"
          },
          {
            "astId": 5993,
            "contract": "src/ControllerHelper.sol:ControllerHelper",
            "label": "collateralAmount",
            "offset": 0,
            "slot": "1",
            "type": "t_uint256"
          },
          {
            "astId": 5995,
            "contract": "src/ControllerHelper.sol:ControllerHelper",
            "label": "debtAmount",
            "offset": 0,
            "slot": "2",
            "type": "t_uint256"
          }
        ],
        "numberOfBytes": "96"
      },
      "t_struct(Context)6550_storage": {
        "encoding": "inplace",
        "label": "struct DataType.Context",
        "members": [
          {
            "astId": 6531,
            "contract": "src/ControllerHelper.sol:ControllerHelper",
            "label": "token0",
            "offset": 0,
            "slot": "0",
            "type": "t_address"
          },
          {
            "astId": 6533,
            "contract": "src/ControllerHelper.sol:ControllerHelper",
            "label": "token1",
            "offset": 0,
            "slot": "1",
            "type": "t_address"
          },
          {
            "astId": 6535,
            "contract": "src/ControllerHelper.sol:ControllerHelper",
            "label": "feeTier",
            "offset": 20,
            "slot": "1",
            "type": "t_uint24"
          },
          {
            "astId": 6537,
            "contract": "src/ControllerHelper.sol:ControllerHelper",
            "label": "positionManager",
            "offset": 0,
            "slot": "2",
            "type": "t_address"
          },
          {
            "astId": 6539,
            "contract": "src/ControllerHelper.sol:ControllerHelper",
            "label": "swapRouter",
            "offset": 0,
            "slot": "3",
            "type": "t_address"
          },
          {
            "astId": 6541,
            "contract": "src/ControllerHelper.sol:ControllerHelper",
            "label": "uniswapPool",
            "offset": 0,
            "slot": "4",
            "type": "t_address"
          },
          {
            "astId": 6543,
            "contract": "src/ControllerHelper.sol:ControllerHelper",
            "label": "isMarginZero",
            "offset": 20,
            "slot": "4",
            "type": "t_bool"
          },
          {
            "astId": 6545,
            "contract": "src/ControllerHelper.sol:ControllerHelper",
            "label": "nextSubVaultId",
            "offset": 0,
            "slot": "5",
            "type": "t_uint256"
          },
          {
            "astId": 6547,
            "contract": "src/ControllerHelper.sol:ControllerHelper",
            "label": "tokenState0",
            "offset": 0,
            "slot": "6",
            "type": "t_struct(TokenState)5989_storage"
          },
          {
            "astId": 6549,
            "contract": "src/ControllerHelper.sol:ControllerHelper",
            "label": "tokenState1",
            "offset": 0,
            "slot": "10",
            "type": "t_struct(TokenState)5989_storage"
          }
        ],
        "numberOfBytes": "448"
      },
      "t_struct(DPMParams)6749_storage": {
        "encoding": "inplace",
        "label": "struct InterestCalculator.DPMParams",
        "members": [
          {
            "astId": 6742,
            "contract": "src/ControllerHelper.sol:ControllerHelper",
            "label": "premiumParams",
            "offset": 0,
            "slot": "0",
            "type": "t_struct(IRMParams)6758_storage"
          },
          {
            "astId": 6744,
            "contract": "src/ControllerHelper.sol:ControllerHelper",
            "label": "irmParams",
            "offset": 0,
            "slot": "4",
            "type": "t_struct(IRMParams)6758_storage"
          },
          {
            "astId": 6748,
            "contract": "src/ControllerHelper.sol:ControllerHelper",
            "label": "snapshots",
            "offset": 0,
            "slot": "8",
            "type": "t_mapping(t_bytes32,t_struct(TickSnapshot)6735_storage)"
          }
        ],
        "numberOfBytes": "288"
      },
      "t_struct(IRMParams)6758_storage": {
        "encoding": "inplace",
        "label": "struct InterestCalculator.IRMParams",
        "members": [
          {
            "astId": 6751,
            "contract": "src/ControllerHelper.sol:ControllerHelper",
            "label": "baseRate",
            "offset": 0,
            "slot": "0",
            "type": "t_uint256"
          },
          {
            "astId": 6753,
            "contract": "src/ControllerHelper.sol:ControllerHelper",
            "label": "kinkRate",
            "offset": 0,
            "slot": "1",
            "type": "t_uint256"
          },
          {
            "astId": 6755,
            "contract": "src/ControllerHelper.sol:ControllerHelper",
            "label": "slope1",
            "offset": 0,
            "slot": "2",
            "type": "t_uint256"
          },
          {
            "astId": 6757,
            "contract": "src/ControllerHelper.sol:ControllerHelper",
            "label": "slope2",
            "offset": 0,
            "slot": "3",
            "type": "t_uint256"
          }
        ],
        "numberOfBytes": "128"
      },
      "t_struct(LPTState)6509_storage": {
        "encoding": "inplace",
        "label": "struct DataType.LPTState",
        "members": [
          {
            "astId": 6498,
            "contract": "src/ControllerHelper.sol:ControllerHelper",
            "label": "isCollateral",
            "offset": 0,
            "slot": "0",
            "type": "t_bool"
          },
          {
            "astId": 6500,
            "contract": "src/ControllerHelper.sol:ControllerHelper",
            "label": "rangeId",
            "offset": 0,
            "slot": "1",
            "type": "t_bytes32"
          },
          {
            "astId": 6502,
            "contract": "src/ControllerHelper.sol:ControllerHelper",
            "label": "liquidityAmount",
            "offset": 0,
            "slot": "2",
            "type": "t_uint128"
          },
          {
            "astId": 6504,
            "contract": "src/ControllerHelper.sol:ControllerHelper",
            "label": "premiumGrowthLast",
            "offset": 0,
            "slot": "3",
            "type": "t_uint256"
          },
          {
            "astId": 6506,
            "contract": "src/ControllerHelper.sol:ControllerHelper",
            "label": "fee0Last",
            "offset": 0,
            "slot": "4",
            "type": "t_uint256"
          },
          {
            "astId": 6508,
            "contract": "src/ControllerHelper.sol:ControllerHelper",
            "label": "fee1Last",
            "offset": 0,
            "slot": "5",
            "type": "t_uint256"
          }
        ],
        "numberOfBytes": "192"
      },
      "t_struct(PerpStatus)6496_storage": {
        "encoding": "inplace",
        "label": "struct DataType.PerpStatus",
        "members": [
          {
            "astId": 6479,
            "contract": "src/ControllerHelper.sol:ControllerHelper",
            "label": "tokenId",
            "offset": 0,
            "slot": "0",
            "type": "t_uint256"
          },
          {
            "astId": 6481,
            "contract": "src/ControllerHelper.sol:ControllerHelper",
            "label": "lowerTick",
            "offset": 0,
            "slot": "1",
            "type": "t_int24"
          },
          {
            "astId": 6483,
            "contract": "src/ControllerHelper.sol:ControllerHelper",
            "label": "upperTick",
            "offset": 3,
            "slot": "1",
            "type": "t_int24"
          },
          {
            "astId": 6485,
            "contract": "src/ControllerHelper.sol:ControllerHelper",
            "label": "borrowedLiquidity",
            "offset": 6,
            "slot": "1",
            "type": "t_uint128"
          },
          {
            "astId": 6487,
            "contract": "src/ControllerHelper.sol:ControllerHelper",
            "label": "premiumGrowthForBorrower",
            "offset": 0,
            "slot": "2",
            "type": "t_uint256"
          },
          {
            "astId": 6489,
            "contract": "src/ControllerHelper.sol:ControllerHelper",
            "label": "premiumGrowthForLender",
            "offset": 0,
            "slot": "3",
            "type": "t_uint256"
          },
          {
            "astId": 6491,
            "contract": "src/ControllerHelper.sol:ControllerHelper",
            "label": "fee0Growth",
            "offset": 0,
            "slot": "4",
            "type": "t_uint256"
          },
          {
            "astId": 6493,
            "contract": "src/ControllerHelper.sol:ControllerHelper",
            "label": "fee1Growth",
            "offset": 0,
            "slot": "5",
            "type": "t_uint256"
          },
          {
            "astId": 6495,
            "contract": "src/ControllerHelper.sol:ControllerHelper",
            "label": "lastTouchedTimestamp",
            "offset": 0,
            "slot": "6",
            "type": "t_uint256"
          }
        ],
        "numberOfBytes": "224"
      },
      "t_struct(SubVault)6517_storage": {
        "encoding": "inplace",
        "label": "struct DataType.SubVault",
        "members": [
          {
            "astId": 6511,
            "contract": "src/ControllerHelper.sol:ControllerHelper",
            "label": "balance0",
            "offset": 0,
            "slot": "0",
            "type": "t_struct(AccountState)5996_storage"
          },
          {
            "astId": 6513,
            "contract": "src/ControllerHelper.sol:ControllerHelper",
            "label": "balance1",
            "offset": 0,
            "slot": "3",
            "type": "t_struct(AccountState)5996_storage"
          },
          {
            "astId": 6516,
            "contract": "src/ControllerHelper.sol:ControllerHelper",
            "label": "lpts",
            "offset": 0,
            "slot": "6",
            "type": "t_array(t_struct(LPTState)6509_storage)dyn_storage"
          }
        ],
        "numberOfBytes": "224"
      },
      "t_struct(TickSnapshot)6735_storage": {
        "encoding": "inplace",
        "label": "struct InterestCalculator.TickSnapshot",
        "members": [
          {
            "astId": 6728,
            "contract": "src/ControllerHelper.sol:ControllerHelper",
            "label": "lastFeeGrowthInside0X128",
            "offset": 0,
            "slot": "0",
            "type": "t_uint256"
          },
          {
            "astId": 6730,
            "contract": "src/ControllerHelper.sol:ControllerHelper",
            "label": "lastFeeGrowthInside1X128",
            "offset": 0,
            "slot": "1",
            "type": "t_uint256"
          },
          {
            "astId": 6732,
            "contract": "src/ControllerHelper.sol:ControllerHelper",
            "label": "lastFeeGrowthGlobal0X128",
            "offset": 0,
            "slot": "2",
            "type": "t_uint256"
          },
          {
            "astId": 6734,
            "contract": "src/ControllerHelper.sol:ControllerHelper",
            "label": "lastFeeGrowthGlobal1X128",
            "offset": 0,
            "slot": "3",
            "type": "t_uint256"
          }
        ],
        "numberOfBytes": "128"
      },
      "t_struct(TokenState)5989_storage": {
        "encoding": "inplace",
        "label": "struct BaseToken.TokenState",
        "members": [
          {
            "astId": 5982,
            "contract": "src/ControllerHelper.sol:ControllerHelper",
            "label": "totalDeposited",
            "offset": 0,
            "slot": "0",
            "type": "t_uint256"
          },
          {
            "astId": 5984,
            "contract": "src/ControllerHelper.sol:ControllerHelper",
            "label": "totalBorrowed",
            "offset": 0,
            "slot": "1",
            "type": "t_uint256"
          },
          {
            "astId": 5986,
            "contract": "src/ControllerHelper.sol:ControllerHelper",
            "label": "collateralScaler",
            "offset": 0,
            "slot": "2",
            "type": "t_uint256"
          },
          {
            "astId": 5988,
            "contract": "src/ControllerHelper.sol:ControllerHelper",
            "label": "debtScaler",
            "offset": 0,
            "slot": "3",
            "type": "t_uint256"
          }
        ],
        "numberOfBytes": "128"
      },
      "t_struct(Vault)6529_storage": {
        "encoding": "inplace",
        "label": "struct DataType.Vault",
        "members": [
          {
            "astId": 6519,
            "contract": "src/ControllerHelper.sol:ControllerHelper",
            "label": "vaultId",
            "offset": 0,
            "slot": "0",
            "type": "t_uint256"
          },
          {
            "astId": 6521,
            "contract": "src/ControllerHelper.sol:ControllerHelper",
            "label": "owner",
            "offset": 0,
            "slot": "1",
            "type": "t_address"
          },
          {
            "astId": 6523,
            "contract": "src/ControllerHelper.sol:ControllerHelper",
            "label": "marginAmount0",
            "offset": 0,
            "slot": "2",
            "type": "t_uint256"
          },
          {
            "astId": 6525,
            "contract": "src/ControllerHelper.sol:ControllerHelper",
            "label": "marginAmount1",
            "offset": 0,
            "slot": "3",
            "type": "t_uint256"
          },
          {
            "astId": 6528,
            "contract": "src/ControllerHelper.sol:ControllerHelper",
            "label": "subVaults",
            "offset": 0,
            "slot": "4",
            "type": "t_array(t_uint256)dyn_storage"
          }
        ],
        "numberOfBytes": "160"
      },
      "t_uint128": {
        "encoding": "inplace",
        "label": "uint128",
        "numberOfBytes": "16"
      },
      "t_uint24": {
        "encoding": "inplace",
        "label": "uint24",
        "numberOfBytes": "3"
      },
      "t_uint256": {
        "encoding": "inplace",
        "label": "uint256",
        "numberOfBytes": "32"
      }
    }
  }
}