{
  "address": "0xbE8913aba2ff26254d1518975f9D3AE9061E70F1",
  "abi": [
    {
      "inputs": [],
      "stateMutability": "nonpayable",
      "type": "constructor"
    },
    {
      "anonymous": false,
      "inputs": [
        {
          "indexed": false,
          "internalType": "uint256",
          "name": "vaultId",
          "type": "uint256"
        },
        {
          "indexed": false,
          "internalType": "int256",
          "name": "a0",
          "type": "int256"
        },
        {
          "indexed": false,
          "internalType": "int256",
          "name": "a1",
          "type": "int256"
        },
        {
          "indexed": false,
          "internalType": "uint160",
          "name": "sqrtPrice",
          "type": "uint160"
        },
        {
          "indexed": false,
          "internalType": "bytes",
          "name": "metadata",
          "type": "bytes"
        }
      ],
      "name": "PositionUpdated",
      "type": "event"
    },
    {
      "anonymous": false,
      "inputs": [
        {
          "indexed": false,
          "internalType": "uint256",
          "name": "vaultId",
          "type": "uint256"
        },
        {
          "indexed": false,
          "internalType": "address",
          "name": "owner",
          "type": "address"
        }
      ],
      "name": "VaultCreated",
      "type": "event"
    },
    {
      "inputs": [
        {
          "internalType": "bytes32",
          "name": "_rangeId",
          "type": "bytes32"
        }
      ],
      "name": "calculateYearlyPremium",
      "outputs": [
        {
          "internalType": "uint256",
          "name": "",
          "type": "uint256"
        }
      ],
      "stateMutability": "view",
      "type": "function"
    },
    {
      "inputs": [
        {
          "internalType": "uint256",
          "name": "_vaultId",
          "type": "uint256"
        }
      ],
      "name": "checkLiquidatable",
      "outputs": [
        {
          "internalType": "bool",
          "name": "",
          "type": "bool"
        }
      ],
      "stateMutability": "nonpayable",
      "type": "function"
    },
    {
      "inputs": [
        {
          "internalType": "uint256",
          "name": "_vaultId",
          "type": "uint256"
        },
        {
          "components": [
            {
              "internalType": "uint256",
              "name": "subVaultIndex",
              "type": "uint256"
            },
            {
              "internalType": "uint256",
              "name": "collateral0",
              "type": "uint256"
            },
            {
              "internalType": "uint256",
              "name": "collateral1",
              "type": "uint256"
            },
            {
              "internalType": "uint256",
              "name": "debt0",
              "type": "uint256"
            },
            {
              "internalType": "uint256",
              "name": "debt1",
              "type": "uint256"
            },
            {
              "components": [
                {
                  "internalType": "bool",
                  "name": "isCollateral",
                  "type": "bool"
                },
                {
                  "internalType": "uint128",
                  "name": "liquidity",
                  "type": "uint128"
                },
                {
                  "internalType": "int24",
                  "name": "lowerTick",
                  "type": "int24"
                },
                {
                  "internalType": "int24",
                  "name": "upperTick",
                  "type": "int24"
                }
              ],
              "internalType": "struct DataType.LPT[]",
              "name": "lpts",
              "type": "tuple[]"
            }
          ],
          "internalType": "struct DataType.Position[]",
          "name": "_positions",
          "type": "tuple[]"
        },
        {
          "components": [
            {
              "internalType": "bool",
              "name": "reduceOnly",
              "type": "bool"
            },
            {
              "internalType": "bool",
              "name": "swapAnyway",
              "type": "bool"
            },
            {
              "internalType": "bool",
              "name": "quoterMode",
              "type": "bool"
            },
            {
              "internalType": "bool",
              "name": "isQuoteZero",
              "type": "bool"
            },
            {
              "internalType": "int256",
              "name": "targetMarginAmount0",
              "type": "int256"
            },
            {
              "internalType": "int256",
              "name": "targetMarginAmount1",
              "type": "int256"
            }
          ],
          "internalType": "struct DataType.TradeOption",
          "name": "_tradeOption",
          "type": "tuple"
        },
        {
          "components": [
            {
              "internalType": "uint256",
              "name": "lowerSqrtPrice",
              "type": "uint256"
            },
            {
              "internalType": "uint256",
              "name": "upperSqrtPrice",
              "type": "uint256"
            },
            {
              "internalType": "uint256",
              "name": "swapRatio",
              "type": "uint256"
            },
            {
              "internalType": "bytes",
              "name": "metadata",
              "type": "bytes"
            }
          ],
          "internalType": "struct DataType.ClosePositionOption",
          "name": "_closePositionOptions",
          "type": "tuple"
        }
      ],
      "name": "closePosition",
      "outputs": [],
      "stateMutability": "nonpayable",
      "type": "function"
    },
    {
      "inputs": [
        {
          "internalType": "uint256",
          "name": "_vaultId",
          "type": "uint256"
        },
        {
          "internalType": "uint256",
          "name": "_subVaultIndex",
          "type": "uint256"
        },
        {
          "components": [
            {
              "internalType": "bool",
              "name": "reduceOnly",
              "type": "bool"
            },
            {
              "internalType": "bool",
              "name": "swapAnyway",
              "type": "bool"
            },
            {
              "internalType": "bool",
              "name": "quoterMode",
              "type": "bool"
            },
            {
              "internalType": "bool",
              "name": "isQuoteZero",
              "type": "bool"
            },
            {
              "internalType": "int256",
              "name": "targetMarginAmount0",
              "type": "int256"
            },
            {
              "internalType": "int256",
              "name": "targetMarginAmount1",
              "type": "int256"
            }
          ],
          "internalType": "struct DataType.TradeOption",
          "name": "_tradeOption",
          "type": "tuple"
        },
        {
          "components": [
            {
              "internalType": "uint256",
              "name": "lowerSqrtPrice",
              "type": "uint256"
            },
            {
              "internalType": "uint256",
              "name": "upperSqrtPrice",
              "type": "uint256"
            },
            {
              "internalType": "uint256",
              "name": "swapRatio",
              "type": "uint256"
            },
            {
              "internalType": "bytes",
              "name": "metadata",
              "type": "bytes"
            }
          ],
          "internalType": "struct DataType.ClosePositionOption",
          "name": "_closePositionOptions",
          "type": "tuple"
        }
      ],
      "name": "closeSubVault",
      "outputs": [],
      "stateMutability": "nonpayable",
      "type": "function"
    },
    {
      "inputs": [
        {
          "internalType": "uint256",
          "name": "_vaultId",
          "type": "uint256"
        },
        {
          "components": [
            {
              "internalType": "bool",
              "name": "reduceOnly",
              "type": "bool"
            },
            {
              "internalType": "bool",
              "name": "swapAnyway",
              "type": "bool"
            },
            {
              "internalType": "bool",
              "name": "quoterMode",
              "type": "bool"
            },
            {
              "internalType": "bool",
              "name": "isQuoteZero",
              "type": "bool"
            },
            {
              "internalType": "int256",
              "name": "targetMarginAmount0",
              "type": "int256"
            },
            {
              "internalType": "int256",
              "name": "targetMarginAmount1",
              "type": "int256"
            }
          ],
          "internalType": "struct DataType.TradeOption",
          "name": "_tradeOption",
          "type": "tuple"
        },
        {
          "components": [
            {
              "internalType": "uint256",
              "name": "lowerSqrtPrice",
              "type": "uint256"
            },
            {
              "internalType": "uint256",
              "name": "upperSqrtPrice",
              "type": "uint256"
            },
            {
              "internalType": "uint256",
              "name": "swapRatio",
              "type": "uint256"
            },
            {
              "internalType": "bytes",
              "name": "metadata",
              "type": "bytes"
            }
          ],
          "internalType": "struct DataType.ClosePositionOption",
          "name": "_closePositionOptions",
          "type": "tuple"
        }
      ],
      "name": "closeVault",
      "outputs": [],
      "stateMutability": "nonpayable",
      "type": "function"
    },
    {
      "inputs": [],
      "name": "dpmParams",
      "outputs": [
        {
          "components": [
            {
              "internalType": "uint256",
              "name": "baseRate",
              "type": "uint256"
            },
            {
              "internalType": "uint256",
              "name": "kinkRate",
              "type": "uint256"
            },
            {
              "internalType": "uint256",
              "name": "slope1",
              "type": "uint256"
            },
            {
              "internalType": "uint256",
              "name": "slope2",
              "type": "uint256"
            }
          ],
          "internalType": "struct InterestCalculator.IRMParams",
          "name": "premiumParams",
          "type": "tuple"
        },
        {
          "components": [
            {
              "internalType": "uint256",
              "name": "baseRate",
              "type": "uint256"
            },
            {
              "internalType": "uint256",
              "name": "kinkRate",
              "type": "uint256"
            },
            {
              "internalType": "uint256",
              "name": "slope1",
              "type": "uint256"
            },
            {
              "internalType": "uint256",
              "name": "slope2",
              "type": "uint256"
            }
          ],
          "internalType": "struct InterestCalculator.IRMParams",
          "name": "irmParams",
          "type": "tuple"
        }
      ],
      "stateMutability": "view",
      "type": "function"
    },
    {
      "inputs": [
        {
          "internalType": "bytes[]",
          "name": "_data",
          "type": "bytes[]"
        }
      ],
      "name": "forceClose",
      "outputs": [],
      "stateMutability": "nonpayable",
      "type": "function"
    },
    {
      "inputs": [],
      "name": "getAssetStatus",
      "outputs": [
        {
          "internalType": "uint256",
          "name": "",
          "type": "uint256"
        },
        {
          "internalType": "uint256",
          "name": "",
          "type": "uint256"
        },
        {
          "internalType": "uint256",
          "name": "",
          "type": "uint256"
        },
        {
          "internalType": "uint256",
          "name": "",
          "type": "uint256"
        },
        {
          "internalType": "uint256",
          "name": "",
          "type": "uint256"
        },
        {
          "internalType": "uint256",
          "name": "",
          "type": "uint256"
        }
      ],
      "stateMutability": "view",
      "type": "function"
    },
    {
      "inputs": [],
      "name": "getContext",
      "outputs": [
        {
          "internalType": "bool",
          "name": "",
          "type": "bool"
        },
        {
          "internalType": "uint256",
          "name": "",
          "type": "uint256"
        },
        {
          "internalType": "uint256",
          "name": "",
          "type": "uint256"
        },
        {
          "internalType": "address",
          "name": "",
          "type": "address"
        },
        {
          "internalType": "uint256",
          "name": "",
          "type": "uint256"
        },
        {
          "internalType": "uint256",
          "name": "",
          "type": "uint256"
        }
      ],
      "stateMutability": "view",
      "type": "function"
    },
    {
      "inputs": [
        {
          "internalType": "bytes32",
          "name": "_rangeId",
          "type": "bytes32"
        }
      ],
      "name": "getLPTStatus",
      "outputs": [
        {
          "internalType": "uint256",
          "name": "",
          "type": "uint256"
        },
        {
          "internalType": "uint256",
          "name": "",
          "type": "uint256"
        },
        {
          "internalType": "uint256",
          "name": "",
          "type": "uint256"
        }
      ],
      "stateMutability": "view",
      "type": "function"
    },
    {
      "inputs": [
        {
          "internalType": "uint256",
          "name": "_vaultId",
          "type": "uint256"
        }
      ],
      "name": "getPosition",
      "outputs": [
        {
          "components": [
            {
              "internalType": "uint256",
              "name": "subVaultIndex",
              "type": "uint256"
            },
            {
              "internalType": "uint256",
              "name": "collateral0",
              "type": "uint256"
            },
            {
              "internalType": "uint256",
              "name": "collateral1",
              "type": "uint256"
            },
            {
              "internalType": "uint256",
              "name": "debt0",
              "type": "uint256"
            },
            {
              "internalType": "uint256",
              "name": "debt1",
              "type": "uint256"
            },
            {
              "components": [
                {
                  "internalType": "bool",
                  "name": "isCollateral",
                  "type": "bool"
                },
                {
                  "internalType": "uint128",
                  "name": "liquidity",
                  "type": "uint128"
                },
                {
                  "internalType": "int24",
                  "name": "lowerTick",
                  "type": "int24"
                },
                {
                  "internalType": "int24",
                  "name": "upperTick",
                  "type": "int24"
                }
              ],
              "internalType": "struct DataType.LPT[]",
              "name": "lpts",
              "type": "tuple[]"
            }
          ],
          "internalType": "struct DataType.Position[]",
          "name": "",
          "type": "tuple[]"
        }
      ],
      "stateMutability": "view",
      "type": "function"
    },
    {
      "inputs": [
        {
          "internalType": "bytes32",
          "name": "_rangeId",
          "type": "bytes32"
        }
      ],
      "name": "getRange",
      "outputs": [
        {
          "components": [
            {
              "internalType": "uint256",
              "name": "tokenId",
              "type": "uint256"
            },
            {
              "internalType": "int24",
              "name": "lowerTick",
              "type": "int24"
            },
            {
              "internalType": "int24",
              "name": "upperTick",
              "type": "int24"
            },
            {
              "internalType": "uint128",
              "name": "borrowedLiquidity",
              "type": "uint128"
            },
            {
              "internalType": "uint256",
              "name": "premiumGrowthForBorrower",
              "type": "uint256"
            },
            {
              "internalType": "uint256",
              "name": "premiumGrowthForLender",
              "type": "uint256"
            },
            {
              "internalType": "uint256",
              "name": "fee0Growth",
              "type": "uint256"
            },
            {
              "internalType": "uint256",
              "name": "fee1Growth",
              "type": "uint256"
            },
            {
              "internalType": "uint256",
              "name": "lastTouchedTimestamp",
              "type": "uint256"
            }
          ],
          "internalType": "struct DataType.PerpStatus",
          "name": "",
          "type": "tuple"
        }
      ],
      "stateMutability": "view",
      "type": "function"
    },
    {
      "inputs": [],
      "name": "getSqrtPrice",
      "outputs": [
        {
          "internalType": "uint160",
          "name": "sqrtPriceX96",
          "type": "uint160"
        }
      ],
      "stateMutability": "view",
      "type": "function"
    },
    {
      "inputs": [
        {
          "internalType": "uint256",
          "name": "_subVaultId",
          "type": "uint256"
        }
      ],
      "name": "getSubVault",
      "outputs": [
        {
          "components": [
            {
              "internalType": "uint256",
              "name": "id",
              "type": "uint256"
            },
            {
              "internalType": "bool",
              "name": "isCompound",
              "type": "bool"
            },
            {
              "internalType": "uint256",
              "name": "collateralAmount0",
              "type": "uint256"
            },
            {
              "internalType": "uint256",
              "name": "collateralAmount1",
              "type": "uint256"
            },
            {
              "internalType": "uint256",
              "name": "debtAmount0",
              "type": "uint256"
            },
            {
              "internalType": "uint256",
              "name": "debtAmount1",
              "type": "uint256"
            },
            {
              "components": [
                {
                  "internalType": "uint256",
                  "name": "collateralAmount",
                  "type": "uint256"
                },
                {
                  "internalType": "uint256",
                  "name": "debtAmount",
                  "type": "uint256"
                }
              ],
              "internalType": "struct BaseToken.AccountState",
              "name": "balance0",
              "type": "tuple"
            },
            {
              "components": [
                {
                  "internalType": "uint256",
                  "name": "collateralAmount",
                  "type": "uint256"
                },
                {
                  "internalType": "uint256",
                  "name": "debtAmount",
                  "type": "uint256"
                }
              ],
              "internalType": "struct BaseToken.AccountState",
              "name": "balance1",
              "type": "tuple"
            },
            {
              "components": [
                {
                  "internalType": "bool",
                  "name": "isCollateral",
                  "type": "bool"
                },
                {
                  "internalType": "bytes32",
                  "name": "rangeId",
                  "type": "bytes32"
                },
                {
                  "internalType": "uint128",
                  "name": "liquidityAmount",
                  "type": "uint128"
                },
                {
                  "internalType": "uint256",
                  "name": "premiumGrowthLast",
                  "type": "uint256"
                },
                {
                  "internalType": "uint256",
                  "name": "fee0Last",
                  "type": "uint256"
                },
                {
                  "internalType": "uint256",
                  "name": "fee1Last",
                  "type": "uint256"
                }
              ],
              "internalType": "struct DataType.LPTState[]",
              "name": "lpts",
              "type": "tuple[]"
            }
          ],
          "internalType": "struct DataType.SubVault",
          "name": "",
          "type": "tuple"
        }
      ],
      "stateMutability": "view",
      "type": "function"
    },
    {
      "inputs": [
        {
          "internalType": "uint256",
          "name": "_vaultId",
          "type": "uint256"
        }
      ],
      "name": "getVault",
      "outputs": [
        {
          "components": [
            {
              "internalType": "uint256",
              "name": "vaultId",
              "type": "uint256"
            },
            {
              "internalType": "address",
              "name": "owner",
              "type": "address"
            },
            {
              "internalType": "uint256",
              "name": "marginAmount0",
              "type": "uint256"
            },
            {
              "internalType": "uint256",
              "name": "marginAmount1",
              "type": "uint256"
            },
            {
              "internalType": "uint256[]",
              "name": "subVaults",
              "type": "uint256[]"
            }
          ],
          "internalType": "struct DataType.Vault",
          "name": "",
          "type": "tuple"
        }
      ],
      "stateMutability": "view",
      "type": "function"
    },
    {
      "inputs": [
        {
          "internalType": "uint256",
          "name": "_vaultId",
          "type": "uint256"
        }
      ],
      "name": "getVaultStatus",
      "outputs": [
        {
          "components": [
            {
              "internalType": "int256",
              "name": "positionValue",
              "type": "int256"
            },
            {
              "internalType": "int256",
              "name": "marginValue",
              "type": "int256"
            },
            {
              "internalType": "int256",
              "name": "minCollateral",
              "type": "int256"
            },
            {
              "components": [
                {
                  "components": [
                    {
                      "internalType": "uint256",
                      "name": "collateralValue",
                      "type": "uint256"
                    },
                    {
                      "internalType": "uint256",
                      "name": "debtValue",
                      "type": "uint256"
                    },
                    {
                      "internalType": "int256",
                      "name": "premiumValue",
                      "type": "int256"
                    }
                  ],
                  "internalType": "struct DataType.VaultStatusValue",
                  "name": "values",
                  "type": "tuple"
                },
                {
                  "components": [
                    {
                      "internalType": "uint256",
                      "name": "collateralAmount0",
                      "type": "uint256"
                    },
                    {
                      "internalType": "uint256",
                      "name": "collateralAmount1",
                      "type": "uint256"
                    },
                    {
                      "internalType": "uint256",
                      "name": "debtAmount0",
                      "type": "uint256"
                    },
                    {
                      "internalType": "uint256",
                      "name": "debtAmount1",
                      "type": "uint256"
                    },
                    {
                      "internalType": "uint256",
                      "name": "receivedTradeAmount0",
                      "type": "uint256"
                    },
                    {
                      "internalType": "uint256",
                      "name": "receivedTradeAmount1",
                      "type": "uint256"
                    },
                    {
                      "internalType": "uint256",
                      "name": "receivedPremium",
                      "type": "uint256"
                    },
                    {
                      "internalType": "uint256",
                      "name": "paidpremium",
                      "type": "uint256"
                    }
                  ],
                  "internalType": "struct DataType.VaultStatusAmount",
                  "name": "amount",
                  "type": "tuple"
                }
              ],
              "internalType": "struct DataType.SubVaultStatus[]",
              "name": "subVaults",
              "type": "tuple[]"
            }
          ],
          "internalType": "struct DataType.VaultStatus",
          "name": "",
          "type": "tuple"
        }
      ],
      "stateMutability": "nonpayable",
      "type": "function"
    },
    {
      "inputs": [
        {
          "components": [
            {
              "internalType": "uint24",
              "name": "feeTier",
              "type": "uint24"
            },
            {
              "internalType": "address",
              "name": "token0",
              "type": "address"
            },
            {
              "internalType": "address",
              "name": "token1",
              "type": "address"
            },
            {
              "internalType": "bool",
              "name": "isMarginZero",
              "type": "bool"
            }
          ],
          "internalType": "struct DataType.InitializationParams",
          "name": "_initializationParams",
          "type": "tuple"
        },
        {
          "internalType": "address",
          "name": "_positionManager",
          "type": "address"
        },
        {
          "internalType": "address",
          "name": "_factory",
          "type": "address"
        },
        {
          "internalType": "address",
          "name": "_swapRouter",
          "type": "address"
        }
      ],
      "name": "initialize",
      "outputs": [],
      "stateMutability": "nonpayable",
      "type": "function"
    },
    {
      "inputs": [],
      "name": "irmParams",
      "outputs": [
        {
          "internalType": "uint256",
          "name": "baseRate",
          "type": "uint256"
        },
        {
          "internalType": "uint256",
          "name": "kinkRate",
          "type": "uint256"
        },
        {
          "internalType": "uint256",
          "name": "slope1",
          "type": "uint256"
        },
        {
          "internalType": "uint256",
          "name": "slope2",
          "type": "uint256"
        }
      ],
      "stateMutability": "view",
      "type": "function"
    },
    {
      "inputs": [],
      "name": "lastTouchedTimestamp",
      "outputs": [
        {
          "internalType": "uint256",
          "name": "",
          "type": "uint256"
        }
      ],
      "stateMutability": "view",
      "type": "function"
    },
    {
      "inputs": [
        {
          "internalType": "uint256",
          "name": "_vaultId",
          "type": "uint256"
        },
        {
          "components": [
            {
              "internalType": "uint256",
              "name": "lowerSqrtPrice",
              "type": "uint256"
            },
            {
              "internalType": "uint256",
              "name": "upperSqrtPrice",
              "type": "uint256"
            },
            {
              "internalType": "uint256",
              "name": "swapRatio",
              "type": "uint256"
            },
            {
              "internalType": "bool",
              "name": "swapAnyway",
              "type": "bool"
            }
          ],
          "internalType": "struct DataType.LiquidationOption",
          "name": "_liquidationOption",
          "type": "tuple"
        }
      ],
      "name": "liquidate",
      "outputs": [],
      "stateMutability": "nonpayable",
      "type": "function"
    },
    {
      "inputs": [
        {
          "internalType": "uint256",
          "name": "_vaultId",
          "type": "uint256"
        },
        {
          "components": [
            {
              "internalType": "uint256",
              "name": "subVaultIndex",
              "type": "uint256"
            },
            {
              "internalType": "uint256",
              "name": "collateral0",
              "type": "uint256"
            },
            {
              "internalType": "uint256",
              "name": "collateral1",
              "type": "uint256"
            },
            {
              "internalType": "uint256",
              "name": "debt0",
              "type": "uint256"
            },
            {
              "internalType": "uint256",
              "name": "debt1",
              "type": "uint256"
            },
            {
              "components": [
                {
                  "internalType": "bool",
                  "name": "isCollateral",
                  "type": "bool"
                },
                {
                  "internalType": "uint128",
                  "name": "liquidity",
                  "type": "uint128"
                },
                {
                  "internalType": "int24",
                  "name": "lowerTick",
                  "type": "int24"
                },
                {
                  "internalType": "int24",
                  "name": "upperTick",
                  "type": "int24"
                }
              ],
              "internalType": "struct DataType.LPT[]",
              "name": "lpts",
              "type": "tuple[]"
            }
          ],
          "internalType": "struct DataType.Position",
          "name": "_position",
          "type": "tuple"
        },
        {
          "components": [
            {
              "internalType": "bool",
              "name": "reduceOnly",
              "type": "bool"
            },
            {
              "internalType": "bool",
              "name": "swapAnyway",
              "type": "bool"
            },
            {
              "internalType": "bool",
              "name": "quoterMode",
              "type": "bool"
            },
            {
              "internalType": "bool",
              "name": "isQuoteZero",
              "type": "bool"
            },
            {
              "internalType": "int256",
              "name": "targetMarginAmount0",
              "type": "int256"
            },
            {
              "internalType": "int256",
              "name": "targetMarginAmount1",
              "type": "int256"
            }
          ],
          "internalType": "struct DataType.TradeOption",
          "name": "_tradeOption",
          "type": "tuple"
        },
        {
          "components": [
            {
              "internalType": "uint256",
              "name": "lowerSqrtPrice",
              "type": "uint256"
            },
            {
              "internalType": "uint256",
              "name": "upperSqrtPrice",
              "type": "uint256"
            },
            {
              "internalType": "uint256",
              "name": "bufferAmount0",
              "type": "uint256"
            },
            {
              "internalType": "uint256",
              "name": "bufferAmount1",
              "type": "uint256"
            },
            {
              "internalType": "bytes",
              "name": "metadata",
              "type": "bytes"
            }
          ],
          "internalType": "struct DataType.OpenPositionOption",
          "name": "_openPositionOptions",
          "type": "tuple"
        }
      ],
      "name": "openPosition",
      "outputs": [
        {
          "internalType": "uint256",
          "name": "vaultId",
          "type": "uint256"
        }
      ],
      "stateMutability": "nonpayable",
      "type": "function"
    },
    {
      "inputs": [],
      "name": "operator",
      "outputs": [
        {
          "internalType": "address",
          "name": "",
          "type": "address"
        }
      ],
      "stateMutability": "view",
      "type": "function"
    },
    {
      "inputs": [
        {
          "internalType": "address",
          "name": "_newOperator",
          "type": "address"
        }
      ],
      "name": "setOperator",
      "outputs": [],
      "stateMutability": "nonpayable",
      "type": "function"
    },
    {
      "inputs": [
        {
          "components": [
            {
              "internalType": "uint256",
              "name": "baseRate",
              "type": "uint256"
            },
            {
              "internalType": "uint256",
              "name": "kinkRate",
              "type": "uint256"
            },
            {
              "internalType": "uint256",
              "name": "slope1",
              "type": "uint256"
            },
            {
              "internalType": "uint256",
              "name": "slope2",
              "type": "uint256"
            }
          ],
          "internalType": "struct InterestCalculator.IRMParams",
          "name": "_irmParams",
          "type": "tuple"
        },
        {
          "components": [
            {
              "internalType": "uint256",
              "name": "baseRate",
              "type": "uint256"
            },
            {
              "internalType": "uint256",
              "name": "kinkRate",
              "type": "uint256"
            },
            {
              "internalType": "uint256",
              "name": "slope1",
              "type": "uint256"
            },
            {
              "internalType": "uint256",
              "name": "slope2",
              "type": "uint256"
            }
          ],
          "internalType": "struct InterestCalculator.IRMParams",
          "name": "_premiumParams",
          "type": "tuple"
        }
      ],
      "name": "updateDRMParams",
      "outputs": [],
      "stateMutability": "nonpayable",
      "type": "function"
    },
    {
      "inputs": [
        {
          "components": [
            {
              "internalType": "uint256",
              "name": "baseRate",
              "type": "uint256"
            },
            {
              "internalType": "uint256",
              "name": "kinkRate",
              "type": "uint256"
            },
            {
              "internalType": "uint256",
              "name": "slope1",
              "type": "uint256"
            },
            {
              "internalType": "uint256",
              "name": "slope2",
              "type": "uint256"
            }
          ],
          "internalType": "struct InterestCalculator.IRMParams",
          "name": "_irmParams",
          "type": "tuple"
        }
      ],
      "name": "updateIRMParams",
      "outputs": [],
      "stateMutability": "nonpayable",
      "type": "function"
    },
    {
      "inputs": [
        {
          "internalType": "uint256",
          "name": "_vaultId",
          "type": "uint256"
        },
        {
          "components": [
            {
              "internalType": "enum DataType.PositionUpdateType",
              "name": "positionUpdateType",
              "type": "uint8"
            },
            {
              "internalType": "uint256",
              "name": "subVaultIndex",
              "type": "uint256"
            },
            {
              "internalType": "bool",
              "name": "zeroForOne",
              "type": "bool"
            },
            {
              "internalType": "uint128",
              "name": "liquidity",
              "type": "uint128"
            },
            {
              "internalType": "int24",
              "name": "lowerTick",
              "type": "int24"
            },
            {
              "internalType": "int24",
              "name": "upperTick",
              "type": "int24"
            },
            {
              "internalType": "uint256",
              "name": "param0",
              "type": "uint256"
            },
            {
              "internalType": "uint256",
              "name": "param1",
              "type": "uint256"
            }
          ],
          "internalType": "struct DataType.PositionUpdate[]",
          "name": "_positionUpdates",
          "type": "tuple[]"
        },
        {
          "internalType": "uint256",
          "name": "_buffer0",
          "type": "uint256"
        },
        {
          "internalType": "uint256",
          "name": "_buffer1",
          "type": "uint256"
        },
        {
          "components": [
            {
              "internalType": "bool",
              "name": "reduceOnly",
              "type": "bool"
            },
            {
              "internalType": "bool",
              "name": "swapAnyway",
              "type": "bool"
            },
            {
              "internalType": "bool",
              "name": "quoterMode",
              "type": "bool"
            },
            {
              "internalType": "bool",
              "name": "isQuoteZero",
              "type": "bool"
            },
            {
              "internalType": "int256",
              "name": "targetMarginAmount0",
              "type": "int256"
            },
            {
              "internalType": "int256",
              "name": "targetMarginAmount1",
              "type": "int256"
            }
          ],
          "internalType": "struct DataType.TradeOption",
          "name": "_tradeOption",
          "type": "tuple"
        },
        {
          "internalType": "bytes",
          "name": "_metadata",
          "type": "bytes"
        }
      ],
      "name": "updatePosition",
      "outputs": [
        {
          "internalType": "uint256",
          "name": "vaultId",
          "type": "uint256"
        }
      ],
      "stateMutability": "nonpayable",
      "type": "function"
    },
    {
      "inputs": [
        {
          "internalType": "uint256",
          "name": "_amount0",
          "type": "uint256"
        },
        {
          "internalType": "uint256",
          "name": "_amount1",
          "type": "uint256"
        }
      ],
      "name": "withdrawProtocolFee",
      "outputs": [],
      "stateMutability": "nonpayable",
      "type": "function"
    }
  ],
  "transactionHash": "0x37a43de0b259562de3579d9c1b6fff9411bb3d51a9d7cdb9a239346a98422bec",
  "args": [],
  "solcInputHash": "65b5d80da832e8b098b0e946421f6b5a",
  "bytecode": "0x608060405234801561001057600080fd5b50615abd80620000216000396000f3fe608060405234801561001057600080fd5b50600436106101a95760003560e01c806351be57d3116100f9578063b3ab15fb11610097578063e40fdefd11610071578063e40fdefd146103cd578063eb02c301146103e0578063ee6097f014610400578063fea9a2c214610413576101a9565b8063b3ab15fb14610385578063c04ed3d314610398578063c72d8a11146103ba576101a9565b806365b5f6e3116100d357806365b5f6e314610337578063687157731461034a57806386e6862d1461035d5780639403b63414610365576101a9565b806351be57d3146102f7578063570ca7351461030f5780635ea897a614610324576101a9565b806330050fbd116101665780633743d142116101405780633743d1421461028a5780633e1297151461029d57806345615716146102bd57806349ebb77d146102d7576101a9565b806330050fbd1461024457806333a9d060146102645780633615fcb614610277576101a9565b8063012a883f146101ae578063013216f5146101cd57806305943002146101ed578063127f0f0714610202578063275892a21461021c57806329cc751714610231575b600080fd5b6101b6610426565b6040516101c4929190615425565b60405180910390f35b6101e06101db3660046143d6565b61047f565b6040516101c49190615441565b6102006101fb3660046149a6565b61051b565b005b61020a6105fa565b6040516101c496959493929190615285565b610224610623565b6040516101c49190615893565b61020061023f3660046148d7565b610629565b6102576102523660046143d6565b6106fa565b6040516101c491906154e8565b61020061027236600461442c565b610836565b610200610285366004614b83565b6108a1565b610200610298366004614b62565b61090b565b6102b06102ab3660046143d6565b6109b5565b6040516101c4919061527a565b6102c5610a63565b6040516101c49695949392919061595c565b6102ea6102e53660046143d6565b610baf565b6040516101c49190615572565b6102ff610d00565b6040516101c49493929190615941565b610317610d0f565b6040516101c49190615110565b610200610332366004614b0c565b610d1e565b610200610345366004614300565b610d3a565b610200610358366004614411565b610e53565b610317610e9b565b6103786103733660046143d6565b610f24565b6040516101c4919061564c565b6102006103933660046142e4565b610fcb565b6103ab6103a63660046143d6565b61102a565b6040516101c49392919061592b565b6102246103c8366004614a29565b61112e565b6102246103db366004614753565b611204565b6103f36103ee3660046143d6565b6114b2565b6040516101c4919061513d565b61020061040e366004614461565b6114bd565b6102246104213660046143d6565b611883565b6040805160808082018352601a548252601b54602080840191909152601c5483850152601d5460608085019190915284519283018552601e548352601f5483830152905493820193909352602154928101929092529082565b610487613aea565b5060008181526002602081815260409283902083516101208101855281548152600182015480850b850b850b9382019390935263010000008304840b840b840b94810194909452600160301b9091046001600160801b03166060840152908101546080830152600381015460a0830152600481015460c0830152600581015460e0830152600601546101008201525b919050565b610523611980565b6000733f2d3733012d06be425C9560C37eFe163897482463b1a3252b610548856114b2565b600a546040860151600160a01b90910460ff1690610564610e9b565b6040518563ffffffff1660e01b815260040161058394939291906151fa565b60006040518083038186803b15801561059b57600080fd5b505af41580156105af573d6000803e3d6000fd5b505050506040513d6000823e601f3d908101601f191682016040526105d79190810190614388565b90506105e38382611a14565b6105f582600001518360200151611aa1565b505050565b600a54600354600b5460145460155460ff600160a01b860416946001600160a01b031692939495565b60015481565b6000733f2d3733012d06be425C9560C37eFe163897482463b1a3252b8585606001518560400151610658610e9b565b6040518563ffffffff1660e01b815260040161067794939291906151fa565b60006040518083038186803b15801561068f57600080fd5b505af41580156106a3573d6000803e3d6000fd5b505050506040513d6000823e601f3d908101601f191682016040526106cb9190810190614388565b90506106e08582600080878760600151611204565b506106f382600001518360200151611aa1565b5050505050565b610702613b45565b600082815260056020818152604080842081516101208101835281548152600182015460ff1615158185015260028201548184015260038201546060820152600482015460808201529381015460a0850152815180830183526006820154815260078201548185015260c0850152815180830183526008820154815260098201548185015260e0850152600a81018054835181860281018601909452808452949591946101008701949192909184015b828210156108285760008481526020908190206040805160c08101825260068602909201805460ff16151583526001808201548486015260028201546001600160801b03169284019290925260038101546060840152600481015460808401526005015460a083015290835290920191016107b2565b505050915250909392505050565b6023546001600160a01b031633146108695760405162461bcd60e51b81526004016108609061535b565b60405180910390fd5b8151601e55602080830151601f5560408084015182556060938401516021558251601a5590820151601b55810151601c550151601d55565b6108a9611980565b604080516001808252818301909252600091816020015b6108c8613b9f565b8152602001906001900390816108c05790505090506108e78585611ae2565b816000815181106108f457fe5b60200260200101819052506106f385828585610629565b6023546001600160a01b031633146109355760405162461bcd60e51b81526004016108609061535b565b601454821180159061094957506015548111155b6109655760405162461bcd60e51b8152600401610860906152e2565b601480548390039055601580548290039055811561099457600654610994906001600160a01b03163384611dc7565b80156109b1576007546109b1906001600160a01b03163383611dc7565b5050565b60006109c082611f0e565b600082815260046020819052604091829020915163194a268960e21b815273720dbcA8c9cF6eEA37C93A96fC2d3517e5019F20926365289a2492610a0d926005916006916002910161576a565b60206040518083038186803b158015610a2557600080fd5b505af4158015610a39573d6000803e3d6000fd5b505050506040513d601f19601f82011682018060405250810190610a5d91906143ba565b92915050565b60408051608081018252600c548152600d546020820152600e5491810191909152600f54606082015260009081908190819081908190610aa290611f4e565b60408051608081018252600c548152600d546020820152600e5491810191909152600f546060820152610ad490611f6b565b60408051608081018252600c548152600d546020820152600e5491810191909152600f546060820152610b0690611f88565b6040805160808101825260105481526011546020820152601254918101919091526013546060820152610b3890611f4e565b6040805160808101825260105481526011546020820152601254918101919091526013546060820152610b6a90611f6b565b6040805160808101825260105481526011546020820152601254918101919091526013546060820152610b9c90611f88565b949b939a50919850965094509092509050565b610bb7613bd5565b6000610bc1610e9b565b9050610bcc83611f0e565b600083815260046020818152604092839020835160a0810185528154815260018201546001600160a01b031681840152600282015481860152600382015460608201529281018054855181850281018501909652808652939491936080860193830182828015610c5b57602002820191906000526020600020905b815481526020019060010190808311610c47575b505050919092525050604051635d8d458360e11b815273c102928c29bF67be7948d5b8B52e1Fd01FC915BF9263bb1a8b069250610ca591600590600290600690889060040161571e565b60006040518083038186803b158015610cbd57600080fd5b505af4158015610cd1573d6000803e3d6000fd5b505050506040513d6000823e601f3d908101601f19168201604052610cf9919081019061451f565b9392505050565b60165460175460185460195484565b6023546001600160a01b031681565b610d26611980565b6105f583610d3385611fc3565b8484610629565b6023546001600160a01b03163314610d645760405162461bcd60e51b81526004016108609061535b565b60005b81518110156109b157600080838381518110610d7f57fe5b6020026020010151806020019051810190610d9a919061470f565b91509150610da88282612158565b60008281526004602081905260408083209051637882621360e11b815273720dbcA8c9cF6eEA37C93A96fC2d3517e5019F209363f104c42693610df893926005926006926002928a929101615855565b60206040518083038186803b158015610e1057600080fd5b505af4158015610e24573d6000803e3d6000fd5b505050506040513d601f19601f82011682018060405250810190610e4891906146f7565b505050600101610d67565b6023546001600160a01b03163314610e7d5760405162461bcd60e51b81526004016108609061535b565b80516016556020810151601755604081015160185560600151601955565b600a5460408051633850c7bd60e01b815290516000926001600160a01b031691633850c7bd9160048281019260e0929190829003018186803b158015610ee057600080fd5b505afa158015610ef4573d6000803e3d6000fd5b505050506040513d601f19601f82011682018060405250810190610f189190614661565b50949695505050505050565b610f2c613bfd565b600082815260046020818152604092839020835160a0810185528154815260018201546001600160a01b031681840152600282015481860152600382015460608201529281018054855181850281018501909652808652939491936080860193830182828015610fbb57602002820191906000526020600020905b815481526020019060010190808311610fa7575b5050505050815250509050919050565b6023546001600160a01b03163314610ff55760405162461bcd60e51b81526004016108609061535b565b6001600160a01b03811661100857600080fd5b602380546001600160a01b0319166001600160a01b0392909216919091179055565b60408051610180810182526006546001600160a01b039081168252600754808216602080850191909152600160a01b9182900462ffffff168486015260085483166060808601919091526009548416608080870191909152600a5494851660a08701529290930460ff16151560c0850152600b5460e085015284518083018652600c548152600d5481830152600e5481870152600f548185015261010085015284519182018552601054825260115482820152601254828601526013549282019290925261012083015260145461014083015260155461016083015260008481526002909152918220829182916111219190612375565b9250925092509193909250565b600080733f2d3733012d06be425C9560C37eFe163897482463b5b49eb2868660600151611159610e9b565b6040518463ffffffff1660e01b8152600401611177939291906154b5565b60006040518083038186803b15801561118f57600080fd5b505af41580156111a3573d6000803e3d6000fd5b505050506040513d6000823e601f3d908101601f191682016040526111cb9190810190614388565b90506111e7868285604001518660600151888860800151611204565b91506111fb83600001518460200151611aa1565b50949350505050565b60006112108787612158565b841561122e5760065461122e906001600160a01b031633308861243a565b831561124c5760075461124c906001600160a01b031633308761243a565b600061125c88856040015161258a565b809250819350505060008073dA40923CA749A0aA46daB46d6dBa0674ee951b1e63c827d03e846005600660028e8c6040518763ffffffff1660e01b81526004016112ab969594939291906157a4565b604080518083038186803b1580156112c257600080fd5b505af41580156112d6573d6000803e3d6000fd5b505050506040513d601f19601f820116820180604052508101906112fa91906143ee565b91509150856040015115611312576113128282612669565b60405163194a268960e21b815273720dbcA8c9cF6eEA37C93A96fC2d3517e5019F20906365289a249061135290869060059060069060029060040161576a565b60206040518083038186803b15801561136a57600080fd5b505af415801561137e573d6000803e3d6000fd5b505050506040513d601f19601f820116820180604052508101906113a291906143ba565b156113bf5760405162461bcd60e51b8152600401610860906152c6565b818812156113df5760405162461bcd60e51b815260040161086090615323565b808712156113ff5760405162461bcd60e51b81526004016108609061533f565b8188131561142f576000611413898461267a565b60065490915061142d906001600160a01b03163383611dc7565b505b8087131561145f576000611443888361267a565b60075490915061145d906001600160a01b03163383611dc7565b505b7fabc710e8ab5c8f4ea5d70ef0f4c50f12dd4804fa7e04ce65aa8c813197b64bea84838361148b610e9b565b8960405161149d9594939291906158b3565b60405180910390a15050509695505050505050565b6060610a5d82611fc3565b600054610100900460ff16806114d657506114d66126df565b806114e4575060005460ff16155b61151f5760405162461bcd60e51b815260040180806020018281038252602e815260200180615a36602e913960400191505060405180910390fd5b600054610100900460ff1615801561154a576000805460ff1961ff0019909116610100171660011790555b845160078054602080890151600680546001600160a01b03199081166001600160a01b0393841617918290556040808d015162ffffff60a01b19909616600160a01b62ffffff998a16810291909117831696851696909617968790556060808e0151600a805460ff60a01b191691151589029190911790556008805484168e8716179055600980549093168b86161790925580519182018152918316815291851692820192909252919092049092169082015261160784826126f0565b600a80546001600160a01b0319166001600160a01b0392831617905560016003819055600b5560065460405163095ea7b360e01b815291169063095ea7b39061165890889060001990600401615124565b602060405180830381600087803b15801561167257600080fd5b505af1158015611686573d6000803e3d6000fd5b505050506040513d601f19601f820116820180604052508101906116aa91906143ba565b5060075460405163095ea7b360e01b81526001600160a01b039091169063095ea7b3906116df90889060001990600401615124565b602060405180830381600087803b1580156116f957600080fd5b505af115801561170d573d6000803e3d6000fd5b505050506040513d601f19601f8201168201806040525081019061173191906143ba565b5060065460405163095ea7b360e01b81526001600160a01b039091169063095ea7b39061176690869060001990600401615124565b602060405180830381600087803b15801561178057600080fd5b505af1158015611794573d6000803e3d6000fd5b505050506040513d601f19601f820116820180604052508101906117b891906143ba565b5060075460405163095ea7b360e01b81526001600160a01b039091169063095ea7b3906117ed90869060001990600401615124565b602060405180830381600087803b15801561180757600080fd5b505af115801561181b573d6000803e3d6000fd5b505050506040513d601f19601f8201168201806040525081019061183f91906143ba565b5061184a600c6127d4565b61185460106127d4565b5042600155602380546001600160a01b0319163317905580156106f3576000805461ff00191690555050505050565b60408051610180810182526006546001600160a01b039081168252600754808216602080850191909152600160a01b9182900462ffffff168486015260085483166060808601919091526009548416608080870191909152600a5494851660a08701529290930460ff16151560c0850152600b5460e085015284518083018652600c548152600d5481830152600e5481870152600f548185015261010085015284519182018552601054825260115482820152601254828601526013549282019290925261012083015260145461014083015260155461016083015260008481526002909152918220610a5d91601a9161197b610e9b565b6127ec565b60015460405163725acfd160e01b81527381b4E53Fa101455C3c519098b0470c159Eed89059163725acfd1916119bf91600691601691906004016153cb565b60206040518083038186803b1580156119d757600080fd5b505af41580156119eb573d6000803e3d6000fd5b505050506040513d601f19601f82011682018060405250810190611a0f91906146f7565b600155565b611a1e8282612158565b60008281526004602081905260409182902091516349b3bd7960e11b815273720dbcA8c9cF6eEA37C93A96fC2d3517e5019F20926393677af292611a6d92600591879160069160029101615822565b60006040518083038186803b158015611a8557600080fd5b505af4158015611a99573d6000803e3d6000fd5b505050505050565b6000611aab610e9b565b6001600160a01b03169050808311158015611ac65750818111155b6105f55760405162461bcd60e51b815260040161086090615392565b611aea613b9f565b6000838152600460208181526040808420815160a0810183528154815260018201546001600160a01b031681850152600282015481840152600382015460608201529381018054835181860281018601909452808452919360808601939290830182828015611b7857602002820191906000526020600020905b815481526020019060010190808311611b64575b5050505050815250509050611dbf836005600084608001518781518110611b9b57fe5b6020908102919091018101518252818101929092526040908101600090812082516101208101845281548152600182015460ff161515818601526002820154818501526003820154606082015260048201546080820152600582015460a0820152835180850185526006830154815260078301548187015260c0820152835180850185526008830154815260098301548187015260e0820152600a8201805485518188028101880190965280865291959294610100870194909391929184015b82821015611cd15760008481526020908190206040805160c08101825260068602909201805460ff16151583526001808201548486015260028201546001600160801b03169284019290925260038101546060840152600481015460808401526005015460a08301529083529092019101611c5b565b5050509152505060408051610180810182526006546001600160a01b039081168252600754808216602080850191909152600160a01b9182900462ffffff168486015260085483166060808601919091526009548416608080870191909152600a5494851660a08701529290930460ff16151560c0850152600b5460e085015284518083018652600c548152600d5481830152600e5481870152600f5481850152610100850152845191820185526010548252601154908201526012549381019390935260135490830152610120810191909152601454610140820152601554610160820152600290612952565b949350505050565b604080516001600160a01b038481166024830152604480830185905283518084039091018152606490920183526020820180516001600160e01b031663a9059cbb60e01b1781529251825160009485949389169392918291908083835b60208310611e435780518252601f199092019160209182019101611e24565b6001836020036101000a0380198251168184511680821785525050505050509050019150506000604051808303816000865af19150503d8060008114611ea5576040519150601f19603f3d011682016040523d82523d6000602084013e611eaa565b606091505b5091509150818015611ed8575080511580611ed85750808060200190516020811015611ed557600080fd5b50515b6106f3576040805162461bcd60e51b815260206004820152600260248201526114d560f21b604482015290519081900360640190fd5b60408051600080825260208201909252611f4b91839190611f45565b611f32613c35565b815260200190600190039081611f2a5790505b50612158565b50565b6000610a5d82600001518360400151670de0b6b3a7640000612c02565b6000610a5d82602001518360600151670de0b6b3a7640000612c02565b8051600090611fa05750670de0b6b3a7640000610516565b610a5d611fac83611f6b565b670de0b6b3a7640000611fbe85611f4e565b612c02565b6000818152600460208181526040808420815160a0810183528154815260018201546001600160a01b0316818501526002820154818401526003820154606082810191909152948201805484518187028101870190955280855295969591949293608086019390929083018282801561205b57602002820191906000526020600020905b815481526020019060010190808311612047575b50505091909252505060408051610180810182526006546001600160a01b039081168252600754808216602080850191909152600160a01b9182900462ffffff168486015260085483166060808601919091526009548416608080870191909152600a5494851660a08701529290930460ff16151560c0850152600b5460e085015284518083018652600c548152600d5481830152600e5481870152600f5481850152610100850152845191820185526010548252601154908201526012549381019390935260135490830152610120810191909152601454610140820152601554610160820152919250610cf991839150600590600290612c21565b6000828152600460208181526040808420815160a0810183528154815260018201546001600160a01b0316818501526002820154818401526003820154606082015293810180548351818602810186019094528084529193608086019392908301828280156121e657602002820191906000526020600020905b8154815260200190600101908083116121d2575b50505050508152505090507381b4E53Fa101455C3c519098b0470c159Eed8905639be7ca3f8260056002600687601a61221d610e9b565b6040518863ffffffff1660e01b815260040161223f97969594939291906156c2565b60006040518083038186803b15801561225757600080fd5b505af415801561226b573d6000803e3d6000fd5b505060015460405163725acfd160e01b81527381b4E53Fa101455C3c519098b0470c159Eed8905935063725acfd192506122ae91600691601691906004016153cb565b60206040518083038186803b1580156122c657600080fd5b505af41580156122da573d6000803e3d6000fd5b505050506040513d601f19601f820116820180604052508101906122fe91906146f7565b60015560405162d85ecd60e61b815273dA40923CA749A0aA46daB46d6dBa0674ee951b1e90633617b340906123409060069085906005906002906004016153ed565b60006040518083038186803b15801561235857600080fd5b505af415801561236c573d6000803e3d6000fd5b50505050505050565b6040805161012081018252825481526001830154600281810b810b810b602084015263010000008204810b810b810b93830193909352600160301b90046001600160801b03166060820152908201546080820152600382015460a0820152600482015460c0820152600582015460e0820152600682015461010082015260009081908190612404908690612e06565b6001850154600160301b90046001600160801b03166124238787612e28565b9194506001600160801b0316925090509250925092565b604080516001600160a01b0385811660248301528481166044830152606480830185905283518084039091018152608490920183526020820180516001600160e01b03166323b872dd60e01b178152925182516000948594938a169392918291908083835b602083106124be5780518252601f19909201916020918201910161249f565b6001836020036101000a0380198251168184511680821785525050505050509050019150506000604051808303816000865af19150503d8060008114612520576040519150601f19603f3d011682016040523d82523d6000602084013e612525565b606091505b5091509150818015612553575080511580612553575080806020019051602081101561255057600080fd5b50515b611a99576040805162461bcd60e51b815260206004820152600360248201526229aa2360e91b604482015290519081900360640190fd5b6000808361260f576003805460018082019092556000818152600460205260409081902082815590920180546001600160a01b03191633179081905591519093507fbf3e9c93de94306b70ac5b9411edf475545815333bf651b894b9eada6482c594916126029185916001600160a01b03169061589c565b60405180910390a1612653565b6000848152600460205260409020600101548492506001600160a01b03163314806126375750825b6126535760405162461bcd60e51b8152600401610860906153af565b5060008181526004602052604090209250929050565b602051828152816020820152604081fd5b600081830381831280159061268f5750838113155b806126a457506000831280156126a457508381135b610cf95760405162461bcd60e51b8152600401808060200182810382526024815260200180615a646024913960400191505060405180910390fd5b60006126ea30612ec5565b15905090565b600081602001516001600160a01b031682600001516001600160a01b03161061271857600080fd5b50805160208083015160409384015184516001600160a01b0394851681850152939091168385015262ffffff166060808401919091528351808403820181526080840185528051908301206001600160f81b031960a085015294901b6bffffffffffffffffffffffff191660a183015260b58201939093527fe34f199b19b2b4f47f68442619d555527d244f78a3297ea89325f843f87b8b5460d5808301919091528251808303909101815260f5909101909152805191012090565b670de0b6b3a764000060028201819055600390910155565b6001820154600090600160301b90046001600160801b0316156129475760006128158585612e28565b60a086015160018601549192506000916128d291612845918a9190600281810b9163010000009004900b87612ecb565b6040805161012081018252885481526001890154600281810b810b810b602084015263010000008204810b810b810b93830193909352600160301b90046001600160801b03166060820152908801546080820152600388015460a0820152600488015460c0820152600588015460e082015260068801546101008201526128cd90899061312a565b6131d1565b905060006129398760c0015161291e8a600401604051806080016040529081600082015481526020016001820154815260200160028201548152602001600382015481525050866131ee565b60018901548890600281810b9163010000009004900b613263565b919091019250611dbf915050565b506000949350505050565b61295a613b9f565b6000846101000151516001600160401b038111801561297857600080fd5b506040519080825280602002602001820160405280156129b257816020015b61299f613c7b565b8152602001906001900390816129975790505b50905060005b85610100015151811015612b1057600086610100015182815181106129d957fe5b6020908102919091018101518101516000818152888352604090819020815161012081018352815481526001820154600281810b810b810b9683019690965263010000008104860b860b860b82850152600160301b90046001600160801b0316606082015293810154608080860191909152600382015460a0860152600482015460c0860152600582015460e0860152600690910154610100808601919091528251918201909252908a01518051929450909182919086908110612a9957fe5b602002602001015160000151151581526020018961010001518581518110612abd57fe5b6020026020010151604001516001600160801b03168152602001826020015160020b8152602001826040015160020b815250848481518110612afb57fe5b602090810291909101015250506001016129b8565b50846020015115612bba576040518060c00160405280878152602001612b488760c001518661010001516132fb90919063ffffffff16565b8152602001612b698760e001518661012001516132fb90919063ffffffff16565b8152602001612b8a8760c0015186610100015161331890919063ffffffff16565b8152602001612bab8760e0015186610120015161331890919063ffffffff16565b815260200182905291506111fb565b6040518060c001604052808781526020018660400151815260200186606001518152602001866080015181526020018660a00151815260200182815250915050949350505050565b828202811515841585830485141716612c1a57600080fd5b0492915050565b60608460800151516001600160401b0381118015612c3e57600080fd5b50604051908082528060200260200182016040528015612c7857816020015b612c65613b9f565b815260200190600190039081612c5d5790505b50905060005b8560800151518110156111fb57612de78186600089608001518581518110612ca257fe5b6020908102919091018101518252818101929092526040908101600090812082516101208101845281548152600182015460ff161515818601526002820154818501526003820154606082015260048201546080820152600582015460a0820152835180850185526006830154815260078301548187015260c0820152835180850185526008830154815260098301548187015260e0820152600a8201805485518188028101880190965280865291959294610100870194909391929184015b82821015612dd85760008481526020908190206040805160c08101825260068602909201805460ff16151583526001808201548486015260028201546001600160801b03169284019290925260038101546060840152600481015460808401526005015460a08301529083529092019101612d62565b50505050815250508686612952565b828281518110612df357fe5b6020908102919091010152600101612c7e565b600081606001516001600160801b0316612e20848461312a565b019392505050565b6001810154604080516101208101825283548152600283810b810b810b602083015263010000008404810b810b810b92820192909252600160301b9092046001600160801b031660608301819052908301546080830152600383015460a0830152600483015460c0830152600583015460e08301526006830154610100830152600091610cf99190670de0b6b3a764000090611fbe908790612e06565b3b151590565b600080856001600160a01b031663f30583996040518163ffffffff1660e01b815260040160206040518083038186803b158015612f0757600080fd5b505afa158015612f1b573d6000803e3d6000fd5b505050506040513d601f19601f82011682018060405250810190612f3f91906146f7565b90506000866001600160a01b031663461413196040518163ffffffff1660e01b815260040160206040518083038186803b158015612f7c57600080fd5b505afa158015612f90573d6000803e3d6000fd5b505050506040513d601f19601f82011682018060405250810190612fb491906146f7565b90506000876001600160a01b0316633850c7bd6040518163ffffffff1660e01b815260040160e06040518083038186803b158015612ff157600080fd5b505afa158015613005573d6000803e3d6000fd5b505050506040513d601f19601f820116820180604052508101906130299190614661565b50505050509150506000806130556130418b8b613335565b61304b8c8b613335565b8b8b878a8a613401565b915091506000898960405160200161306e9291906150f3565b60405160208183030381529060405280519060200120905061311a6130c98d6000016040518060800160405290816000820154815260200160018201548152602001600282015481526020016003820154815250508a6131ee565b8d600801600084815260200190815260200160002060405180608001604052908160008201548152602001600182015481526020016002820154815260200160038201548152505085858a8a61347e565b9c9b505050505050505050505050565b6060820151815160405163133f757160e31b815260009283926001600160a01b03909116916399fbab889161316191600401615893565b6101806040518083038186803b15801561317a57600080fd5b505afa15801561318e573d6000803e3d6000fd5b505050506040513d601f19601f820116820180604052508101906131b29190614bd8565b50506001600160801b039092169a505050505050505050505092915050565b60008183670de0b6b3a764000002816131e657fe5b049392505050565b8151602083015160009190831161321d57670de0b6b3a7640000846040015184028161321657fe5b0401610cf9565b670de0b6b3a764000084604001518560200151028161323857fe5b0481019050670de0b6b3a7640000846020015184038560600151028161325a57fe5b04019392505050565b600080600061328c86613275876134fd565b61327e876134fd565b670de0b6b3a764000061382f565b9150915060006132a589886001600160a01b03166138cb565b905088156132c957826132c18383670de0b6b3a7640000612c02565b0193506132e1565b816132dd8483670de0b6b3a7640000612c02565b0193505b670de0b6b3a7640000848902049998505050505050505050565b6000610cf982600001518460400151670de0b6b3a7640000612c02565b6000610cf982602001518460600151670de0b6b3a7640000612c02565b61333d613ca2565b6000806000856001600160a01b031663f30dba93866040518263ffffffff1660e01b815260040161336e91906152b8565b6101006040518083038186803b15801561338757600080fd5b505afa15801561339b573d6000803e3d6000fd5b505050506040513d601f19601f820116820180604052508101906133bf91906145b7565b9750505050945094505050806133e75760405162461bcd60e51b8152600401610860906152fe565b506040805180820190915291825260208201529392505050565b6000806000808860020b8760020b12613422575050885160208a0151613432565b5050885160208a01519085039084035b6000808960020b8960020b1215613451575050895160208b0151613461565b5050895160208b01519087039086035b92909603959095039a949093039290920397509195505050505050565b600080600087604001518511156134b2578760400151850388600001518803670de0b6b3a764000002816134ae57fe5b0491505b87606001518411156134e1578760600151840388602001518703670de0b6b3a764000002816134dd57fe5b0490505b671bc16d674ec800008282018a02049998505050505050505050565b60008060008360020b12613514578260020b61351c565b8260020b6000035b9050620d89e881111561355a576040805162461bcd60e51b81526020600482015260016024820152601560fa1b604482015290519081900360640190fd5b60006001821661356e57600160801b613580565b6ffffcb933bd6fad37aa2d162d1a5940015b70ffffffffffffffffffffffffffffffffff16905060028216156135b4576ffff97272373d413259a46990580e213a0260801c5b60048216156135d3576ffff2e50f5f656932ef12357cf3c7fdcc0260801c5b60088216156135f2576fffe5caca7e10e4e61c3624eaa0941cd00260801c5b6010821615613611576fffcb9843d60f6159c9db58835c9266440260801c5b6020821615613630576fff973b41fa98c081472e6896dfb254c00260801c5b604082161561364f576fff2ea16466c96a3843ec78b326b528610260801c5b608082161561366e576ffe5dee046a99a2a811c461f1969c30530260801c5b61010082161561368e576ffcbe86c7900a88aedcffc83b479aa3a40260801c5b6102008216156136ae576ff987a7253ac413176f2b074cf7815e540260801c5b6104008216156136ce576ff3392b0822b70005940c7a398e4b70f30260801c5b6108008216156136ee576fe7159475a2c29b7443b29c7fa6e889d90260801c5b61100082161561370e576fd097f3bdfd2022b8845ad8f792aa58250260801c5b61200082161561372e576fa9f746462d870fdf8a65dc1f90e061e50260801c5b61400082161561374e576f70d869a156d2a1b890bb3df62baf32f70260801c5b61800082161561376e576f31be135f97d08fd981231505542fcfa60260801c5b6201000082161561378f576f09aa508b5b7a84e1c677de54f3e99bc90260801c5b620200008216156137af576e5d6af8dedb81196699c329225ee6040260801c5b620400008216156137ce576d2216e584f5fa1ea926041bedfe980260801c5b620800008216156137eb576b048a170391f7dc42444e8fa20260801c5b60008460020b131561380657806000198161380257fe5b0490505b64010000000081061561381a57600161381d565b60005b60ff16602082901c0192505050919050565b600080836001600160a01b0316856001600160a01b03161115613850579293925b846001600160a01b0316866001600160a01b03161161387b57613874858585613993565b91506138c2565b836001600160a01b0316866001600160a01b031610156138b4576138a0868585613993565b91506138ad8587856139fc565b90506138c2565b6138bf8585856139fc565b90505b94509492505050565b6000670de0b6b3a76400008315613933576138f4838483600160c01b816138ee57fe5b04613a3b565b915081613913576ec097ce7bc90715b34b9f1000000000915050610a5d565b816ec097ce7bc90715b34b9f10000000008161392b57fe5b049150613954565b600160601b816139488586600160601b613a3b565b028161395057fe5b0491505b6ec097ce7bc90715b34b9f1000000000821115613982576ec097ce7bc90715b34b9f1000000000915061398c565b8161398c57600191505b5092915050565b6000826001600160a01b0316846001600160a01b031611156139b3579192915b836001600160a01b03166139ec606060ff16846001600160801b0316901b8686036001600160a01b0316866001600160a01b0316613a3b565b816139f357fe5b04949350505050565b6000826001600160a01b0316846001600160a01b03161115613a1c579192915b611dbf826001600160801b03168585036001600160a01b0316600160601b5b6000808060001985870986860292508281109083900303905080613a715760008411613a6657600080fd5b508290049050610cf9565b808411613a7d57600080fd5b6000848688096000868103871696879004966002600389028118808a02820302808a02820302808a02820302808a02820302808a02820302808a02909103029181900381900460010186841190950394909402919094039290920491909117919091029150509392505050565b60405180610120016040528060008152602001600060020b8152602001600060020b815260200160006001600160801b0316815260200160008152602001600081526020016000815260200160008152602001600081525090565b6040518061012001604052806000815260200160001515815260200160008152602001600081526020016000815260200160008152602001613b85613ca2565b8152602001613b92613ca2565b8152602001606081525090565b6040518060c001604052806000815260200160008152602001600081526020016000815260200160008152602001606081525090565b6040518060800160405280600081526020016000815260200160008152602001606081525090565b6040518060a001604052806000815260200160006001600160a01b031681526020016000815260200160008152602001606081525090565b604080516101008101909152806000815260006020820181905260408201819052606082018190526080820181905260a0820181905260c0820181905260e09091015290565b60408051608081018252600080825260208201819052918101829052606081019190915290565b604051806040016040528060008152602001600081525090565b8035610516816159d0565b8051610516816159d0565b600082601f830112613ce2578081fd5b81356020613cf7613cf2836159a7565b615984565b82815281810190858301608080860288018501891015613d15578687fd5b865b86811015613da65781838b031215613d2d578788fd5b604080518381018181106001600160401b0382111715613d4957fe5b82528435613d56816159e5565b815284880135613d6581615a0f565b8189015284820135613d7681615a00565b8083830152506060915081850135613d8d81615a00565b9181019190915285529385019391810191600101613d17565b509198975050505050505050565b600082601f830112613dc4578081fd5b81516020613dd4613cf2836159a7565b8281528181019085830161010080860288018501891015613df3578687fd5b865b86811015613da65781838b031215613e0b578788fd5b604080518381018181106001600160401b0382111715613e2757fe5b8252613e328561400e565b81528785015188820152613e47828601613f94565b8282015260609150613e5a8286016142bc565b8282015260809150613e6d828601614024565b8282015260a09150613e80828601614024565b9181019190915260c0848101519082015260e0808501519082015285529385019391810191600101613df5565b600082601f830112613ebd578081fd5b81516020613ecd613cf2836159a7565b8281528181019085830161016080860288018501891015613eec578687fd5b865b86811015613da657828a0382811215613f05578889fd5b604080518181016001600160401b038282108183111715613f2257fe5b8184526060851215613f32578c8dfd5b60a0830194508185108186111715613f4657fe5b508383528651815289870151606083015282870151608083015280825250613f718d60608801614229565b818a0152875250509385019391810191600101613eee565b8035610516816159e5565b8051610516816159e5565b600082601f830112613faf578081fd5b81356001600160401b03811115613fc257fe5b613fd5601f8201601f1916602001615984565b818152846020838601011115613fe9578283fd5b816020850160208301379081016020019190915292915050565b8035610516816159f3565b8051610516816159f3565b803561051681615a00565b805161051681615a00565b600060808284031215614040578081fd5b604051608081016001600160401b03828210818311171561405d57fe5b81604052829350843583526020850135602084015260408501356040840152606085013591508082111561409057600080fd5b5061409d85828601613f9f565b6060830152505092915050565b6000608082840312156140bb578081fd5b604051608081018181106001600160401b03821117156140d757fe5b8060405250809150823581526020830135602082015260408301356040820152606083013560608201525092915050565b600060c08284031215614119578081fd5b60405160c081016001600160401b03828210818311171561413657fe5b81604052829350843583526020850135602084015260408501356040840152606085013560608401526080850135608084015260a085013591508082111561417d57600080fd5b5061418a85828601613cd2565b60a0830152505092915050565b600060c082840312156141a8578081fd5b60405160c081018181106001600160401b03821117156141c457fe5b60405290508082356141d5816159e5565b815260208301356141e5816159e5565b602082015260408301356141f8816159e5565b604082015261420960608401613f89565b60608201526080830135608082015260a083013560a08201525092915050565b600061010080838503121561423c578182fd5b604051908101906001600160401b038211818310171561425857fe5b81604052809250835181526020840151602082015260408401516040820152606084015160608201526080840151608082015260a084015160a082015260c084015160c082015260e084015160e0820152505092915050565b803561051681615a0f565b805161051681615a0f565b805161ffff8116811461051657600080fd5b805161051681615a24565b6000602082840312156142f5578081fd5b8135610cf9816159d0565b60006020808385031215614312578182fd5b82356001600160401b03811115614327578283fd5b8301601f81018513614337578283fd5b8035614345613cf2826159a7565b81815283810190838501865b8481101561437a576143688a888435890101613f9f565b84529286019290860190600101614351565b509098975050505050505050565b600060208284031215614399578081fd5b81516001600160401b038111156143ae578182fd5b611dbf84828501613db4565b6000602082840312156143cb578081fd5b8151610cf9816159e5565b6000602082840312156143e7578081fd5b5035919050565b60008060408385031215614400578081fd5b505080516020909101519092909150565b600060808284031215614422578081fd5b610cf983836140aa565b600080610100838503121561443f578182fd5b61444984846140aa565b915061445884608085016140aa565b90509250929050565b60008060008084860360e0811215614477578283fd5b6080811215614484578283fd5b50604051608081018181106001600160401b03821117156144a157fe5b60405285356144af81615a24565b815260208601356144bf816159d0565b602082015260408601356144d2816159d0565b604082015260608601356144e5816159e5565b606082015293506144f860808601613cbc565b925061450660a08601613cbc565b915061451460c08601613cbc565b905092959194509250565b600060208284031215614530578081fd5b81516001600160401b0380821115614546578283fd5b9083019060808286031215614559578283fd5b60405160808101818110838211171561456e57fe5b806040525082518152602083015160208201526040830151604082015260608301518281111561459c578485fd5b6145a887828601613ead565b60608301525095945050505050565b600080600080600080600080610100898b0312156145d3578586fd5b88516145de81615a0f565b80985050602089015180600f0b81146145f5578687fd5b80975050604089015195506060890151945060808901518060060b811461461a578485fd5b60a08a015190945061462b816159d0565b60c08a015190935063ffffffff81168114614644578283fd5b915061465260e08a01613f94565b90509295985092959890939650565b600080600080600080600060e0888a03121561467b578081fd5b8751614686816159d0565b602089015190975061469781615a00565b95506146a5604089016142c7565b94506146b3606089016142c7565b93506146c1608089016142c7565b925060a088015160ff811681146146d6578182fd5b60c08901519092506146e7816159e5565b8091505092959891949750929550565b600060208284031215614708578081fd5b5051919050565b60008060408385031215614721578182fd5b8251915060208301516001600160401b0381111561473d578182fd5b61474985828601613db4565b9150509250929050565b600080600080600080610160878903121561476c578384fd5b8635955060208701356001600160401b0380821115614789578586fd5b818901915089601f83011261479c578586fd5b81356147aa613cf2826159a7565b80828252602082019150602085018d6020610100860288010111156147cd57898afd5b8995505b8386101561488757610100818f0312156147e957898afd5b604051610100810181811087821117156147ff57fe5b60405261480b82614003565b81526020820135602082015261482360408301613f89565b6040820152614834606083016142b1565b606082015261484560808301614019565b608082015261485660a08301614019565b60a082015260c0828101359082015260e08083013590820152835260019590950194602090920191610100016147d1565b509850505060408901359550606089013594506148a78a60808b01614197565b93506101408901359150808211156148bd578283fd5b506148ca89828a01613f9f565b9150509295509295509295565b60008060008061012085870312156148ed578182fd5b843593506020808601356001600160401b038082111561490b578485fd5b818801915088601f83011261491e578485fd5b813561492c613cf2826159a7565b81815284810190848601885b848110156149615761494f8e8984358a0101614108565b84529287019290870190600101614938565b50508098505050506149768960408a01614197565b945061010088013592508083111561498c578384fd5b505061499a8782880161402f565b91505092959194509250565b60008082840360a08112156149b9578283fd5b833592506080601f19820112156149ce578182fd5b50604051608081018181106001600160401b03821117156149eb57fe5b80604052506020840135815260408401356020820152606084013560408201526080840135614a19816159e5565b6060820152919491935090915050565b6000806000806101208587031215614a3f578182fd5b8435935060208501356001600160401b0380821115614a5c578384fd5b614a6888838901614108565b9450614a778860408901614197565b9350610100870135915080821115614a8d578283fd5b9086019060a08289031215614aa0578283fd5b60405160a081018181108382111715614ab557fe5b806040525082358152602083013560208201526040830135604082015260608301356060820152608083013582811115614aed578485fd5b614af98a828601613f9f565b6080830152509598949750929550505050565b60008060006101008486031215614b21578081fd5b83359250614b328560208601614197565b915060e08401356001600160401b03811115614b4c578182fd5b614b588682870161402f565b9150509250925092565b60008060408385031215614b74578182fd5b50508035926020909101359150565b6000806000806101208587031215614b99578182fd5b8435935060208501359250614bb18660408701614197565b91506101008501356001600160401b03811115614bcc578182fd5b61499a8782880161402f565b6000806000806000806000806000806000806101808d8f031215614bfa578586fd5b8c516bffffffffffffffffffffffff81168114614c15578687fd5b9b50614c2360208e01613cc7565b9a50614c3160408e01613cc7565b9950614c3f60608e01613cc7565b9850614c4d60808e016142d9565b9750614c5b60a08e01614024565b9650614c6960c08e01614024565b9550614c7760e08e016142bc565b94506101008d015193506101208d01519250614c966101408e016142bc565b9150614ca56101608e016142bc565b90509295989b509295989b509295989b565b6001600160a01b03169052565b6000815180845260208085019450808401835b83811015614d3257815180511515885283810151848901526040808201516001600160801b031690890152606080820151908901526080808201519089015260a0908101519088015260c09096019590820190600101614cd7565b509495945050505050565b6000815180845260208085019450808401835b83811015614d325781518051600d8110614d6657fe5b88528084015184890152604080820151151590890152606080820151614d8e828b01826150dd565b5050608080820151614da2828b0182614de5565b505060a080820151614db6828b0182614de5565b505060c0818101519089015260e090810151908801526101009096019590820190600101614d50565b15159052565b60020b9052565b80518252602090810151910152565b614e0e82614e0983546159c4565b614cb7565b60018101546001600160a01b03614e2a60208501828416614cb7565b614e3f6040850162ffffff8460a01c166150ea565b614e4c60028401546159c4565b9150614e5b6060850183614cb7565b614e6860038401546159c4565b9150614e776080850183614cb7565b60048301549150614e8d60a08501828416614cb7565b50614ea160c0840160ff8360a01c16614ddf565b50600581015460e0830152614ebd610100830160068301614f0c565b614ece6101808301600a8301614f0c565b600e810154610200830152600f015461022090910152565b805182526020810151602083015260408101516040830152606081015160608301525050565b80548252600181015460208301526002810154604083015260030154606090910152565b8051151582526001600160801b036020820151166020830152604081015160020b6040830152606081015160020b60608301525050565b600060c08301825184526020808401518186015260408401516040860152606084015160608601526080808501518187015260a085015160c060a088015283815180865260e08901915084830195508692505b80831015614fe157614fcd828751614f30565b948401946001929092019190830190614fba565b50979650505050505050565b805182526020808201516001600160a01b031681840152604080830151908401526060808301519084015260808083015160a0918501829052805191850182905260009290810191839060c08701905b8083101561505d578451825293830193600192909201919083019061503d565b509695505050505050565b600060a0830182548452600180600160a01b03818501541660208181880152600286015460408801526003860154606088015260048601915060a0608088015283825480865260c08901915083875282872095508693505b80841015614fe157855482529484019492840192908201906150c0565b6001600160801b03169052565b62ffffff169052565b600292830b60e890811b82529190920b901b600382015260060190565b6001600160a01b0391909116815260200190565b6001600160a01b03929092168252602082015260400190565b60208082528251828201819052600091906040908185019080840286018301878501865b8381101561437a57888303603f1901855281518051845287810151888501528681015187850152606080820151908501526080808201518186015260a09182015160c0928601839052805192860183905289019160e08601918b915b808310156151e4576151d0848651614f30565b938b019392810192600192909201916151bd565b5050509588019593505090860190600101615161565b6000608082016080835280875180835260a0850191506020925060a0838202860101838a01855b8381101561524f57609f1988840301855261523d838351614f67565b94860194925090850190600101615221565b50509715159285019290925250505060408101929092526001600160a01b0316606090910152919050565b901515815260200190565b9515158652602086019490945260408501929092526001600160a01b03166060840152608083015260a082015260c00190565b60029190910b815260200190565b602080825260029082015261503360f01b604082015260600190565b6020808252600290820152610a0760f31b604082015260600190565b6020808252600b908201526a1a5b9a5d1a585b1a5e995960aa1b604082015260600190565b602080825260029082015261503560f01b604082015260600190565b602080825260029082015261281b60f11b604082015260600190565b60208082526017908201527f63616c6c6572206d757374206265206f70657261746f72000000000000000000604082015260600190565b60208082526003908201526221a41960e91b604082015260600190565b602080825260029082015261281960f11b604082015260600190565b83815260c081016153df6020830185614f0c565b8260a0830152949350505050565b60006102a06153fc8388614dfb565b8061024084015261540f81840187614fed565b6102608401959095525050610280015292915050565b61010081016154348285614ee6565b610cf96080830184614ee6565b60006101208201905082518252602083015160020b6020830152604083015160020b6040830152606083015161547a60608401826150dd565b506080830151608083015260a083015160a083015260c083015160c083015260e083015160e083015261010080840151818401525092915050565b6000606082526154c86060830186614f67565b9315156020830152506001600160a01b0391909116604090910152919050565b6000602082528251602083015260208301516155076040840182614ddf565b506040830151606083015260608301516080830152608083015160a083015260a083015160c083015260c083015161554260e0840182614dec565b5060e0830151615556610120840182614dec565b5061010083015161016083810152611dbf610180840182614cc4565b6000602080835260a0808401855183860152828601516040818188015280880151915060608281890152808901519250608080818a015284845180875260c09650868b0191508886019550895b8181101561563b5786518051805185528b8101518c860152870151878501528a0151805186850152808b015185850152808701518a85015285810151898501528481015160e0808601919091528a82015161010086015289820151610120860152015161014084015295890195610160909201916001016155bf565b50909b9a5050505050505050505050565b6000602080835260c0830184518285015260018060a01b03828601511660408501526040850151606085015260608501516080850152608085015160a08086015281815180845260e08701915084830193508592505b8083101561505d57835182529284019260019290920191908401906156a2565b600060e082526156d560e083018a614fed565b88602084015287604084015286606084015282810360808401526156f98187614d3d565b60a084019590955250506001600160a01b039190911660c09091015295945050505050565b60006102c080835261573281840189614fed565b91505085602083015284604083015261574e6060830185614dfb565b6001600160a01b03929092166102a09190910152949350505050565b60006102a080835261577e81840188615068565b9150508460208301526157946040830185614dfb565b8261028083015295945050505050565b60006101608883528760208401528660408401528560608401528060808401526157d081840186614d3d565b9150508251151560a08301526020830151151560c08301526040830151151560e083015260608301511515610100830152608083015161012083015260a0830151610140830152979650505050505050565b600086825285602083015260a0604083015261584160a0830186614d3d565b606083019490945250608001529392505050565b600087825286602083015285604083015284606083015260c0608083015261588060c0830185614d3d565b90508260a0830152979650505050505050565b90815260200190565b9182526001600160a01b0316602082015260400190565b60008682526020868184015285604084015260018060a01b038516606084015260a0608084015283518060a0850152825b818110156159005785810183015185820160c0015282016158e4565b81811115615911578360c083870101525b50601f01601f19169290920160c001979650505050505050565b9283526020830191909152604082015260600190565b93845260208401929092526040830152606082015260800190565b958652602086019490945260408501929092526060840152608083015260a082015260c00190565b6040518181016001600160401b038111828210171561599f57fe5b604052919050565b60006001600160401b038211156159ba57fe5b5060209081020190565b6001600160a01b031690565b6001600160a01b0381168114611f4b57600080fd5b8015158114611f4b57600080fd5b600d8110611f4b57600080fd5b8060020b8114611f4b57600080fd5b6001600160801b0381168114611f4b57600080fd5b62ffffff81168114611f4b57600080fdfe496e697469616c697a61626c653a20636f6e747261637420697320616c726561647920696e697469616c697a65645369676e6564536166654d6174683a207375627472616374696f6e206f766572666c6f77a26469706673582212202ae1f0cbc8eb930edc5d7289c0a119b8195cfedc52116af023e7ac4230af10d964736f6c63430007060033",
  "deployedBytecode": "0x608060405234801561001057600080fd5b50600436106101a95760003560e01c806351be57d3116100f9578063b3ab15fb11610097578063e40fdefd11610071578063e40fdefd146103cd578063eb02c301146103e0578063ee6097f014610400578063fea9a2c214610413576101a9565b8063b3ab15fb14610385578063c04ed3d314610398578063c72d8a11146103ba576101a9565b806365b5f6e3116100d357806365b5f6e314610337578063687157731461034a57806386e6862d1461035d5780639403b63414610365576101a9565b806351be57d3146102f7578063570ca7351461030f5780635ea897a614610324576101a9565b806330050fbd116101665780633743d142116101405780633743d1421461028a5780633e1297151461029d57806345615716146102bd57806349ebb77d146102d7576101a9565b806330050fbd1461024457806333a9d060146102645780633615fcb614610277576101a9565b8063012a883f146101ae578063013216f5146101cd57806305943002146101ed578063127f0f0714610202578063275892a21461021c57806329cc751714610231575b600080fd5b6101b6610426565b6040516101c4929190615425565b60405180910390f35b6101e06101db3660046143d6565b61047f565b6040516101c49190615441565b6102006101fb3660046149a6565b61051b565b005b61020a6105fa565b6040516101c496959493929190615285565b610224610623565b6040516101c49190615893565b61020061023f3660046148d7565b610629565b6102576102523660046143d6565b6106fa565b6040516101c491906154e8565b61020061027236600461442c565b610836565b610200610285366004614b83565b6108a1565b610200610298366004614b62565b61090b565b6102b06102ab3660046143d6565b6109b5565b6040516101c4919061527a565b6102c5610a63565b6040516101c49695949392919061595c565b6102ea6102e53660046143d6565b610baf565b6040516101c49190615572565b6102ff610d00565b6040516101c49493929190615941565b610317610d0f565b6040516101c49190615110565b610200610332366004614b0c565b610d1e565b610200610345366004614300565b610d3a565b610200610358366004614411565b610e53565b610317610e9b565b6103786103733660046143d6565b610f24565b6040516101c4919061564c565b6102006103933660046142e4565b610fcb565b6103ab6103a63660046143d6565b61102a565b6040516101c49392919061592b565b6102246103c8366004614a29565b61112e565b6102246103db366004614753565b611204565b6103f36103ee3660046143d6565b6114b2565b6040516101c4919061513d565b61020061040e366004614461565b6114bd565b6102246104213660046143d6565b611883565b6040805160808082018352601a548252601b54602080840191909152601c5483850152601d5460608085019190915284519283018552601e548352601f5483830152905493820193909352602154928101929092529082565b610487613aea565b5060008181526002602081815260409283902083516101208101855281548152600182015480850b850b850b9382019390935263010000008304840b840b840b94810194909452600160301b9091046001600160801b03166060840152908101546080830152600381015460a0830152600481015460c0830152600581015460e0830152600601546101008201525b919050565b610523611980565b600073__$7ffffda71c6e7abde662efb5427d8d1c5d$__63b1a3252b610548856114b2565b600a546040860151600160a01b90910460ff1690610564610e9b565b6040518563ffffffff1660e01b815260040161058394939291906151fa565b60006040518083038186803b15801561059b57600080fd5b505af41580156105af573d6000803e3d6000fd5b505050506040513d6000823e601f3d908101601f191682016040526105d79190810190614388565b90506105e38382611a14565b6105f582600001518360200151611aa1565b505050565b600a54600354600b5460145460155460ff600160a01b860416946001600160a01b031692939495565b60015481565b600073__$7ffffda71c6e7abde662efb5427d8d1c5d$__63b1a3252b8585606001518560400151610658610e9b565b6040518563ffffffff1660e01b815260040161067794939291906151fa565b60006040518083038186803b15801561068f57600080fd5b505af41580156106a3573d6000803e3d6000fd5b505050506040513d6000823e601f3d908101601f191682016040526106cb9190810190614388565b90506106e08582600080878760600151611204565b506106f382600001518360200151611aa1565b5050505050565b610702613b45565b600082815260056020818152604080842081516101208101835281548152600182015460ff1615158185015260028201548184015260038201546060820152600482015460808201529381015460a0850152815180830183526006820154815260078201548185015260c0850152815180830183526008820154815260098201548185015260e0850152600a81018054835181860281018601909452808452949591946101008701949192909184015b828210156108285760008481526020908190206040805160c08101825260068602909201805460ff16151583526001808201548486015260028201546001600160801b03169284019290925260038101546060840152600481015460808401526005015460a083015290835290920191016107b2565b505050915250909392505050565b6023546001600160a01b031633146108695760405162461bcd60e51b81526004016108609061535b565b60405180910390fd5b8151601e55602080830151601f5560408084015182556060938401516021558251601a5590820151601b55810151601c550151601d55565b6108a9611980565b604080516001808252818301909252600091816020015b6108c8613b9f565b8152602001906001900390816108c05790505090506108e78585611ae2565b816000815181106108f457fe5b60200260200101819052506106f385828585610629565b6023546001600160a01b031633146109355760405162461bcd60e51b81526004016108609061535b565b601454821180159061094957506015548111155b6109655760405162461bcd60e51b8152600401610860906152e2565b601480548390039055601580548290039055811561099457600654610994906001600160a01b03163384611dc7565b80156109b1576007546109b1906001600160a01b03163383611dc7565b5050565b60006109c082611f0e565b600082815260046020819052604091829020915163194a268960e21b815273__$a1fa80d38d689cae49e54718da49b6432c$__926365289a2492610a0d926005916006916002910161576a565b60206040518083038186803b158015610a2557600080fd5b505af4158015610a39573d6000803e3d6000fd5b505050506040513d601f19601f82011682018060405250810190610a5d91906143ba565b92915050565b60408051608081018252600c548152600d546020820152600e5491810191909152600f54606082015260009081908190819081908190610aa290611f4e565b60408051608081018252600c548152600d546020820152600e5491810191909152600f546060820152610ad490611f6b565b60408051608081018252600c548152600d546020820152600e5491810191909152600f546060820152610b0690611f88565b6040805160808101825260105481526011546020820152601254918101919091526013546060820152610b3890611f4e565b6040805160808101825260105481526011546020820152601254918101919091526013546060820152610b6a90611f6b565b6040805160808101825260105481526011546020820152601254918101919091526013546060820152610b9c90611f88565b949b939a50919850965094509092509050565b610bb7613bd5565b6000610bc1610e9b565b9050610bcc83611f0e565b600083815260046020818152604092839020835160a0810185528154815260018201546001600160a01b031681840152600282015481860152600382015460608201529281018054855181850281018501909652808652939491936080860193830182828015610c5b57602002820191906000526020600020905b815481526020019060010190808311610c47575b505050919092525050604051635d8d458360e11b815273__$b4a4919001844372a79711112cfb20c2b9$__9263bb1a8b069250610ca591600590600290600690889060040161571e565b60006040518083038186803b158015610cbd57600080fd5b505af4158015610cd1573d6000803e3d6000fd5b505050506040513d6000823e601f3d908101601f19168201604052610cf9919081019061451f565b9392505050565b60165460175460185460195484565b6023546001600160a01b031681565b610d26611980565b6105f583610d3385611fc3565b8484610629565b6023546001600160a01b03163314610d645760405162461bcd60e51b81526004016108609061535b565b60005b81518110156109b157600080838381518110610d7f57fe5b6020026020010151806020019051810190610d9a919061470f565b91509150610da88282612158565b60008281526004602081905260408083209051637882621360e11b815273__$a1fa80d38d689cae49e54718da49b6432c$__9363f104c42693610df893926005926006926002928a929101615855565b60206040518083038186803b158015610e1057600080fd5b505af4158015610e24573d6000803e3d6000fd5b505050506040513d601f19601f82011682018060405250810190610e4891906146f7565b505050600101610d67565b6023546001600160a01b03163314610e7d5760405162461bcd60e51b81526004016108609061535b565b80516016556020810151601755604081015160185560600151601955565b600a5460408051633850c7bd60e01b815290516000926001600160a01b031691633850c7bd9160048281019260e0929190829003018186803b158015610ee057600080fd5b505afa158015610ef4573d6000803e3d6000fd5b505050506040513d601f19601f82011682018060405250810190610f189190614661565b50949695505050505050565b610f2c613bfd565b600082815260046020818152604092839020835160a0810185528154815260018201546001600160a01b031681840152600282015481860152600382015460608201529281018054855181850281018501909652808652939491936080860193830182828015610fbb57602002820191906000526020600020905b815481526020019060010190808311610fa7575b5050505050815250509050919050565b6023546001600160a01b03163314610ff55760405162461bcd60e51b81526004016108609061535b565b6001600160a01b03811661100857600080fd5b602380546001600160a01b0319166001600160a01b0392909216919091179055565b60408051610180810182526006546001600160a01b039081168252600754808216602080850191909152600160a01b9182900462ffffff168486015260085483166060808601919091526009548416608080870191909152600a5494851660a08701529290930460ff16151560c0850152600b5460e085015284518083018652600c548152600d5481830152600e5481870152600f548185015261010085015284519182018552601054825260115482820152601254828601526013549282019290925261012083015260145461014083015260155461016083015260008481526002909152918220829182916111219190612375565b9250925092509193909250565b60008073__$7ffffda71c6e7abde662efb5427d8d1c5d$__63b5b49eb2868660600151611159610e9b565b6040518463ffffffff1660e01b8152600401611177939291906154b5565b60006040518083038186803b15801561118f57600080fd5b505af41580156111a3573d6000803e3d6000fd5b505050506040513d6000823e601f3d908101601f191682016040526111cb9190810190614388565b90506111e7868285604001518660600151888860800151611204565b91506111fb83600001518460200151611aa1565b50949350505050565b60006112108787612158565b841561122e5760065461122e906001600160a01b031633308861243a565b831561124c5760075461124c906001600160a01b031633308761243a565b600061125c88856040015161258a565b809250819350505060008073__$da03e66f624374a74ff67f4d42d7f52632$__63c827d03e846005600660028e8c6040518763ffffffff1660e01b81526004016112ab969594939291906157a4565b604080518083038186803b1580156112c257600080fd5b505af41580156112d6573d6000803e3d6000fd5b505050506040513d601f19601f820116820180604052508101906112fa91906143ee565b91509150856040015115611312576113128282612669565b60405163194a268960e21b815273__$a1fa80d38d689cae49e54718da49b6432c$__906365289a249061135290869060059060069060029060040161576a565b60206040518083038186803b15801561136a57600080fd5b505af415801561137e573d6000803e3d6000fd5b505050506040513d601f19601f820116820180604052508101906113a291906143ba565b156113bf5760405162461bcd60e51b8152600401610860906152c6565b818812156113df5760405162461bcd60e51b815260040161086090615323565b808712156113ff5760405162461bcd60e51b81526004016108609061533f565b8188131561142f576000611413898461267a565b60065490915061142d906001600160a01b03163383611dc7565b505b8087131561145f576000611443888361267a565b60075490915061145d906001600160a01b03163383611dc7565b505b7fabc710e8ab5c8f4ea5d70ef0f4c50f12dd4804fa7e04ce65aa8c813197b64bea84838361148b610e9b565b8960405161149d9594939291906158b3565b60405180910390a15050509695505050505050565b6060610a5d82611fc3565b600054610100900460ff16806114d657506114d66126df565b806114e4575060005460ff16155b61151f5760405162461bcd60e51b815260040180806020018281038252602e815260200180615a36602e913960400191505060405180910390fd5b600054610100900460ff1615801561154a576000805460ff1961ff0019909116610100171660011790555b845160078054602080890151600680546001600160a01b03199081166001600160a01b0393841617918290556040808d015162ffffff60a01b19909616600160a01b62ffffff998a16810291909117831696851696909617968790556060808e0151600a805460ff60a01b191691151589029190911790556008805484168e8716179055600980549093168b86161790925580519182018152918316815291851692820192909252919092049092169082015261160784826126f0565b600a80546001600160a01b0319166001600160a01b0392831617905560016003819055600b5560065460405163095ea7b360e01b815291169063095ea7b39061165890889060001990600401615124565b602060405180830381600087803b15801561167257600080fd5b505af1158015611686573d6000803e3d6000fd5b505050506040513d601f19601f820116820180604052508101906116aa91906143ba565b5060075460405163095ea7b360e01b81526001600160a01b039091169063095ea7b3906116df90889060001990600401615124565b602060405180830381600087803b1580156116f957600080fd5b505af115801561170d573d6000803e3d6000fd5b505050506040513d601f19601f8201168201806040525081019061173191906143ba565b5060065460405163095ea7b360e01b81526001600160a01b039091169063095ea7b39061176690869060001990600401615124565b602060405180830381600087803b15801561178057600080fd5b505af1158015611794573d6000803e3d6000fd5b505050506040513d601f19601f820116820180604052508101906117b891906143ba565b5060075460405163095ea7b360e01b81526001600160a01b039091169063095ea7b3906117ed90869060001990600401615124565b602060405180830381600087803b15801561180757600080fd5b505af115801561181b573d6000803e3d6000fd5b505050506040513d601f19601f8201168201806040525081019061183f91906143ba565b5061184a600c6127d4565b61185460106127d4565b5042600155602380546001600160a01b0319163317905580156106f3576000805461ff00191690555050505050565b60408051610180810182526006546001600160a01b039081168252600754808216602080850191909152600160a01b9182900462ffffff168486015260085483166060808601919091526009548416608080870191909152600a5494851660a08701529290930460ff16151560c0850152600b5460e085015284518083018652600c548152600d5481830152600e5481870152600f548185015261010085015284519182018552601054825260115482820152601254828601526013549282019290925261012083015260145461014083015260155461016083015260008481526002909152918220610a5d91601a9161197b610e9b565b6127ec565b60015460405163725acfd160e01b815273__$d48eea142f8e4946a86e978d6ec5b9f014$__9163725acfd1916119bf91600691601691906004016153cb565b60206040518083038186803b1580156119d757600080fd5b505af41580156119eb573d6000803e3d6000fd5b505050506040513d601f19601f82011682018060405250810190611a0f91906146f7565b600155565b611a1e8282612158565b60008281526004602081905260409182902091516349b3bd7960e11b815273__$a1fa80d38d689cae49e54718da49b6432c$__926393677af292611a6d92600591879160069160029101615822565b60006040518083038186803b158015611a8557600080fd5b505af4158015611a99573d6000803e3d6000fd5b505050505050565b6000611aab610e9b565b6001600160a01b03169050808311158015611ac65750818111155b6105f55760405162461bcd60e51b815260040161086090615392565b611aea613b9f565b6000838152600460208181526040808420815160a0810183528154815260018201546001600160a01b031681850152600282015481840152600382015460608201529381018054835181860281018601909452808452919360808601939290830182828015611b7857602002820191906000526020600020905b815481526020019060010190808311611b64575b5050505050815250509050611dbf836005600084608001518781518110611b9b57fe5b6020908102919091018101518252818101929092526040908101600090812082516101208101845281548152600182015460ff161515818601526002820154818501526003820154606082015260048201546080820152600582015460a0820152835180850185526006830154815260078301548187015260c0820152835180850185526008830154815260098301548187015260e0820152600a8201805485518188028101880190965280865291959294610100870194909391929184015b82821015611cd15760008481526020908190206040805160c08101825260068602909201805460ff16151583526001808201548486015260028201546001600160801b03169284019290925260038101546060840152600481015460808401526005015460a08301529083529092019101611c5b565b5050509152505060408051610180810182526006546001600160a01b039081168252600754808216602080850191909152600160a01b9182900462ffffff168486015260085483166060808601919091526009548416608080870191909152600a5494851660a08701529290930460ff16151560c0850152600b5460e085015284518083018652600c548152600d5481830152600e5481870152600f5481850152610100850152845191820185526010548252601154908201526012549381019390935260135490830152610120810191909152601454610140820152601554610160820152600290612952565b949350505050565b604080516001600160a01b038481166024830152604480830185905283518084039091018152606490920183526020820180516001600160e01b031663a9059cbb60e01b1781529251825160009485949389169392918291908083835b60208310611e435780518252601f199092019160209182019101611e24565b6001836020036101000a0380198251168184511680821785525050505050509050019150506000604051808303816000865af19150503d8060008114611ea5576040519150601f19603f3d011682016040523d82523d6000602084013e611eaa565b606091505b5091509150818015611ed8575080511580611ed85750808060200190516020811015611ed557600080fd5b50515b6106f3576040805162461bcd60e51b815260206004820152600260248201526114d560f21b604482015290519081900360640190fd5b60408051600080825260208201909252611f4b91839190611f45565b611f32613c35565b815260200190600190039081611f2a5790505b50612158565b50565b6000610a5d82600001518360400151670de0b6b3a7640000612c02565b6000610a5d82602001518360600151670de0b6b3a7640000612c02565b8051600090611fa05750670de0b6b3a7640000610516565b610a5d611fac83611f6b565b670de0b6b3a7640000611fbe85611f4e565b612c02565b6000818152600460208181526040808420815160a0810183528154815260018201546001600160a01b0316818501526002820154818401526003820154606082810191909152948201805484518187028101870190955280855295969591949293608086019390929083018282801561205b57602002820191906000526020600020905b815481526020019060010190808311612047575b50505091909252505060408051610180810182526006546001600160a01b039081168252600754808216602080850191909152600160a01b9182900462ffffff168486015260085483166060808601919091526009548416608080870191909152600a5494851660a08701529290930460ff16151560c0850152600b5460e085015284518083018652600c548152600d5481830152600e5481870152600f5481850152610100850152845191820185526010548252601154908201526012549381019390935260135490830152610120810191909152601454610140820152601554610160820152919250610cf991839150600590600290612c21565b6000828152600460208181526040808420815160a0810183528154815260018201546001600160a01b0316818501526002820154818401526003820154606082015293810180548351818602810186019094528084529193608086019392908301828280156121e657602002820191906000526020600020905b8154815260200190600101908083116121d2575b505050505081525050905073__$d48eea142f8e4946a86e978d6ec5b9f014$__639be7ca3f8260056002600687601a61221d610e9b565b6040518863ffffffff1660e01b815260040161223f97969594939291906156c2565b60006040518083038186803b15801561225757600080fd5b505af415801561226b573d6000803e3d6000fd5b505060015460405163725acfd160e01b815273__$d48eea142f8e4946a86e978d6ec5b9f014$__935063725acfd192506122ae91600691601691906004016153cb565b60206040518083038186803b1580156122c657600080fd5b505af41580156122da573d6000803e3d6000fd5b505050506040513d601f19601f820116820180604052508101906122fe91906146f7565b60015560405162d85ecd60e61b815273__$da03e66f624374a74ff67f4d42d7f52632$__90633617b340906123409060069085906005906002906004016153ed565b60006040518083038186803b15801561235857600080fd5b505af415801561236c573d6000803e3d6000fd5b50505050505050565b6040805161012081018252825481526001830154600281810b810b810b602084015263010000008204810b810b810b93830193909352600160301b90046001600160801b03166060820152908201546080820152600382015460a0820152600482015460c0820152600582015460e0820152600682015461010082015260009081908190612404908690612e06565b6001850154600160301b90046001600160801b03166124238787612e28565b9194506001600160801b0316925090509250925092565b604080516001600160a01b0385811660248301528481166044830152606480830185905283518084039091018152608490920183526020820180516001600160e01b03166323b872dd60e01b178152925182516000948594938a169392918291908083835b602083106124be5780518252601f19909201916020918201910161249f565b6001836020036101000a0380198251168184511680821785525050505050509050019150506000604051808303816000865af19150503d8060008114612520576040519150601f19603f3d011682016040523d82523d6000602084013e612525565b606091505b5091509150818015612553575080511580612553575080806020019051602081101561255057600080fd5b50515b611a99576040805162461bcd60e51b815260206004820152600360248201526229aa2360e91b604482015290519081900360640190fd5b6000808361260f576003805460018082019092556000818152600460205260409081902082815590920180546001600160a01b03191633179081905591519093507fbf3e9c93de94306b70ac5b9411edf475545815333bf651b894b9eada6482c594916126029185916001600160a01b03169061589c565b60405180910390a1612653565b6000848152600460205260409020600101548492506001600160a01b03163314806126375750825b6126535760405162461bcd60e51b8152600401610860906153af565b5060008181526004602052604090209250929050565b602051828152816020820152604081fd5b600081830381831280159061268f5750838113155b806126a457506000831280156126a457508381135b610cf95760405162461bcd60e51b8152600401808060200182810382526024815260200180615a646024913960400191505060405180910390fd5b60006126ea30612ec5565b15905090565b600081602001516001600160a01b031682600001516001600160a01b03161061271857600080fd5b50805160208083015160409384015184516001600160a01b0394851681850152939091168385015262ffffff166060808401919091528351808403820181526080840185528051908301206001600160f81b031960a085015294901b6bffffffffffffffffffffffff191660a183015260b58201939093527fe34f199b19b2b4f47f68442619d555527d244f78a3297ea89325f843f87b8b5460d5808301919091528251808303909101815260f5909101909152805191012090565b670de0b6b3a764000060028201819055600390910155565b6001820154600090600160301b90046001600160801b0316156129475760006128158585612e28565b60a086015160018601549192506000916128d291612845918a9190600281810b9163010000009004900b87612ecb565b6040805161012081018252885481526001890154600281810b810b810b602084015263010000008204810b810b810b93830193909352600160301b90046001600160801b03166060820152908801546080820152600388015460a0820152600488015460c0820152600588015460e082015260068801546101008201526128cd90899061312a565b6131d1565b905060006129398760c0015161291e8a600401604051806080016040529081600082015481526020016001820154815260200160028201548152602001600382015481525050866131ee565b60018901548890600281810b9163010000009004900b613263565b919091019250611dbf915050565b506000949350505050565b61295a613b9f565b6000846101000151516001600160401b038111801561297857600080fd5b506040519080825280602002602001820160405280156129b257816020015b61299f613c7b565b8152602001906001900390816129975790505b50905060005b85610100015151811015612b1057600086610100015182815181106129d957fe5b6020908102919091018101518101516000818152888352604090819020815161012081018352815481526001820154600281810b810b810b9683019690965263010000008104860b860b860b82850152600160301b90046001600160801b0316606082015293810154608080860191909152600382015460a0860152600482015460c0860152600582015460e0860152600690910154610100808601919091528251918201909252908a01518051929450909182919086908110612a9957fe5b602002602001015160000151151581526020018961010001518581518110612abd57fe5b6020026020010151604001516001600160801b03168152602001826020015160020b8152602001826040015160020b815250848481518110612afb57fe5b602090810291909101015250506001016129b8565b50846020015115612bba576040518060c00160405280878152602001612b488760c001518661010001516132fb90919063ffffffff16565b8152602001612b698760e001518661012001516132fb90919063ffffffff16565b8152602001612b8a8760c0015186610100015161331890919063ffffffff16565b8152602001612bab8760e0015186610120015161331890919063ffffffff16565b815260200182905291506111fb565b6040518060c001604052808781526020018660400151815260200186606001518152602001866080015181526020018660a00151815260200182815250915050949350505050565b828202811515841585830485141716612c1a57600080fd5b0492915050565b60608460800151516001600160401b0381118015612c3e57600080fd5b50604051908082528060200260200182016040528015612c7857816020015b612c65613b9f565b815260200190600190039081612c5d5790505b50905060005b8560800151518110156111fb57612de78186600089608001518581518110612ca257fe5b6020908102919091018101518252818101929092526040908101600090812082516101208101845281548152600182015460ff161515818601526002820154818501526003820154606082015260048201546080820152600582015460a0820152835180850185526006830154815260078301548187015260c0820152835180850185526008830154815260098301548187015260e0820152600a8201805485518188028101880190965280865291959294610100870194909391929184015b82821015612dd85760008481526020908190206040805160c08101825260068602909201805460ff16151583526001808201548486015260028201546001600160801b03169284019290925260038101546060840152600481015460808401526005015460a08301529083529092019101612d62565b50505050815250508686612952565b828281518110612df357fe5b6020908102919091010152600101612c7e565b600081606001516001600160801b0316612e20848461312a565b019392505050565b6001810154604080516101208101825283548152600283810b810b810b602083015263010000008404810b810b810b92820192909252600160301b9092046001600160801b031660608301819052908301546080830152600383015460a0830152600483015460c0830152600583015460e08301526006830154610100830152600091610cf99190670de0b6b3a764000090611fbe908790612e06565b3b151590565b600080856001600160a01b031663f30583996040518163ffffffff1660e01b815260040160206040518083038186803b158015612f0757600080fd5b505afa158015612f1b573d6000803e3d6000fd5b505050506040513d601f19601f82011682018060405250810190612f3f91906146f7565b90506000866001600160a01b031663461413196040518163ffffffff1660e01b815260040160206040518083038186803b158015612f7c57600080fd5b505afa158015612f90573d6000803e3d6000fd5b505050506040513d601f19601f82011682018060405250810190612fb491906146f7565b90506000876001600160a01b0316633850c7bd6040518163ffffffff1660e01b815260040160e06040518083038186803b158015612ff157600080fd5b505afa158015613005573d6000803e3d6000fd5b505050506040513d601f19601f820116820180604052508101906130299190614661565b50505050509150506000806130556130418b8b613335565b61304b8c8b613335565b8b8b878a8a613401565b915091506000898960405160200161306e9291906150f3565b60405160208183030381529060405280519060200120905061311a6130c98d6000016040518060800160405290816000820154815260200160018201548152602001600282015481526020016003820154815250508a6131ee565b8d600801600084815260200190815260200160002060405180608001604052908160008201548152602001600182015481526020016002820154815260200160038201548152505085858a8a61347e565b9c9b505050505050505050505050565b6060820151815160405163133f757160e31b815260009283926001600160a01b03909116916399fbab889161316191600401615893565b6101806040518083038186803b15801561317a57600080fd5b505afa15801561318e573d6000803e3d6000fd5b505050506040513d601f19601f820116820180604052508101906131b29190614bd8565b50506001600160801b039092169a505050505050505050505092915050565b60008183670de0b6b3a764000002816131e657fe5b049392505050565b8151602083015160009190831161321d57670de0b6b3a7640000846040015184028161321657fe5b0401610cf9565b670de0b6b3a764000084604001518560200151028161323857fe5b0481019050670de0b6b3a7640000846020015184038560600151028161325a57fe5b04019392505050565b600080600061328c86613275876134fd565b61327e876134fd565b670de0b6b3a764000061382f565b9150915060006132a589886001600160a01b03166138cb565b905088156132c957826132c18383670de0b6b3a7640000612c02565b0193506132e1565b816132dd8483670de0b6b3a7640000612c02565b0193505b670de0b6b3a7640000848902049998505050505050505050565b6000610cf982600001518460400151670de0b6b3a7640000612c02565b6000610cf982602001518460600151670de0b6b3a7640000612c02565b61333d613ca2565b6000806000856001600160a01b031663f30dba93866040518263ffffffff1660e01b815260040161336e91906152b8565b6101006040518083038186803b15801561338757600080fd5b505afa15801561339b573d6000803e3d6000fd5b505050506040513d601f19601f820116820180604052508101906133bf91906145b7565b9750505050945094505050806133e75760405162461bcd60e51b8152600401610860906152fe565b506040805180820190915291825260208201529392505050565b6000806000808860020b8760020b12613422575050885160208a0151613432565b5050885160208a01519085039084035b6000808960020b8960020b1215613451575050895160208b0151613461565b5050895160208b01519087039086035b92909603959095039a949093039290920397509195505050505050565b600080600087604001518511156134b2578760400151850388600001518803670de0b6b3a764000002816134ae57fe5b0491505b87606001518411156134e1578760600151840388602001518703670de0b6b3a764000002816134dd57fe5b0490505b671bc16d674ec800008282018a02049998505050505050505050565b60008060008360020b12613514578260020b61351c565b8260020b6000035b9050620d89e881111561355a576040805162461bcd60e51b81526020600482015260016024820152601560fa1b604482015290519081900360640190fd5b60006001821661356e57600160801b613580565b6ffffcb933bd6fad37aa2d162d1a5940015b70ffffffffffffffffffffffffffffffffff16905060028216156135b4576ffff97272373d413259a46990580e213a0260801c5b60048216156135d3576ffff2e50f5f656932ef12357cf3c7fdcc0260801c5b60088216156135f2576fffe5caca7e10e4e61c3624eaa0941cd00260801c5b6010821615613611576fffcb9843d60f6159c9db58835c9266440260801c5b6020821615613630576fff973b41fa98c081472e6896dfb254c00260801c5b604082161561364f576fff2ea16466c96a3843ec78b326b528610260801c5b608082161561366e576ffe5dee046a99a2a811c461f1969c30530260801c5b61010082161561368e576ffcbe86c7900a88aedcffc83b479aa3a40260801c5b6102008216156136ae576ff987a7253ac413176f2b074cf7815e540260801c5b6104008216156136ce576ff3392b0822b70005940c7a398e4b70f30260801c5b6108008216156136ee576fe7159475a2c29b7443b29c7fa6e889d90260801c5b61100082161561370e576fd097f3bdfd2022b8845ad8f792aa58250260801c5b61200082161561372e576fa9f746462d870fdf8a65dc1f90e061e50260801c5b61400082161561374e576f70d869a156d2a1b890bb3df62baf32f70260801c5b61800082161561376e576f31be135f97d08fd981231505542fcfa60260801c5b6201000082161561378f576f09aa508b5b7a84e1c677de54f3e99bc90260801c5b620200008216156137af576e5d6af8dedb81196699c329225ee6040260801c5b620400008216156137ce576d2216e584f5fa1ea926041bedfe980260801c5b620800008216156137eb576b048a170391f7dc42444e8fa20260801c5b60008460020b131561380657806000198161380257fe5b0490505b64010000000081061561381a57600161381d565b60005b60ff16602082901c0192505050919050565b600080836001600160a01b0316856001600160a01b03161115613850579293925b846001600160a01b0316866001600160a01b03161161387b57613874858585613993565b91506138c2565b836001600160a01b0316866001600160a01b031610156138b4576138a0868585613993565b91506138ad8587856139fc565b90506138c2565b6138bf8585856139fc565b90505b94509492505050565b6000670de0b6b3a76400008315613933576138f4838483600160c01b816138ee57fe5b04613a3b565b915081613913576ec097ce7bc90715b34b9f1000000000915050610a5d565b816ec097ce7bc90715b34b9f10000000008161392b57fe5b049150613954565b600160601b816139488586600160601b613a3b565b028161395057fe5b0491505b6ec097ce7bc90715b34b9f1000000000821115613982576ec097ce7bc90715b34b9f1000000000915061398c565b8161398c57600191505b5092915050565b6000826001600160a01b0316846001600160a01b031611156139b3579192915b836001600160a01b03166139ec606060ff16846001600160801b0316901b8686036001600160a01b0316866001600160a01b0316613a3b565b816139f357fe5b04949350505050565b6000826001600160a01b0316846001600160a01b03161115613a1c579192915b611dbf826001600160801b03168585036001600160a01b0316600160601b5b6000808060001985870986860292508281109083900303905080613a715760008411613a6657600080fd5b508290049050610cf9565b808411613a7d57600080fd5b6000848688096000868103871696879004966002600389028118808a02820302808a02820302808a02820302808a02820302808a02820302808a02909103029181900381900460010186841190950394909402919094039290920491909117919091029150509392505050565b60405180610120016040528060008152602001600060020b8152602001600060020b815260200160006001600160801b0316815260200160008152602001600081526020016000815260200160008152602001600081525090565b6040518061012001604052806000815260200160001515815260200160008152602001600081526020016000815260200160008152602001613b85613ca2565b8152602001613b92613ca2565b8152602001606081525090565b6040518060c001604052806000815260200160008152602001600081526020016000815260200160008152602001606081525090565b6040518060800160405280600081526020016000815260200160008152602001606081525090565b6040518060a001604052806000815260200160006001600160a01b031681526020016000815260200160008152602001606081525090565b604080516101008101909152806000815260006020820181905260408201819052606082018190526080820181905260a0820181905260c0820181905260e09091015290565b60408051608081018252600080825260208201819052918101829052606081019190915290565b604051806040016040528060008152602001600081525090565b8035610516816159d0565b8051610516816159d0565b600082601f830112613ce2578081fd5b81356020613cf7613cf2836159a7565b615984565b82815281810190858301608080860288018501891015613d15578687fd5b865b86811015613da65781838b031215613d2d578788fd5b604080518381018181106001600160401b0382111715613d4957fe5b82528435613d56816159e5565b815284880135613d6581615a0f565b8189015284820135613d7681615a00565b8083830152506060915081850135613d8d81615a00565b9181019190915285529385019391810191600101613d17565b509198975050505050505050565b600082601f830112613dc4578081fd5b81516020613dd4613cf2836159a7565b8281528181019085830161010080860288018501891015613df3578687fd5b865b86811015613da65781838b031215613e0b578788fd5b604080518381018181106001600160401b0382111715613e2757fe5b8252613e328561400e565b81528785015188820152613e47828601613f94565b8282015260609150613e5a8286016142bc565b8282015260809150613e6d828601614024565b8282015260a09150613e80828601614024565b9181019190915260c0848101519082015260e0808501519082015285529385019391810191600101613df5565b600082601f830112613ebd578081fd5b81516020613ecd613cf2836159a7565b8281528181019085830161016080860288018501891015613eec578687fd5b865b86811015613da657828a0382811215613f05578889fd5b604080518181016001600160401b038282108183111715613f2257fe5b8184526060851215613f32578c8dfd5b60a0830194508185108186111715613f4657fe5b508383528651815289870151606083015282870151608083015280825250613f718d60608801614229565b818a0152875250509385019391810191600101613eee565b8035610516816159e5565b8051610516816159e5565b600082601f830112613faf578081fd5b81356001600160401b03811115613fc257fe5b613fd5601f8201601f1916602001615984565b818152846020838601011115613fe9578283fd5b816020850160208301379081016020019190915292915050565b8035610516816159f3565b8051610516816159f3565b803561051681615a00565b805161051681615a00565b600060808284031215614040578081fd5b604051608081016001600160401b03828210818311171561405d57fe5b81604052829350843583526020850135602084015260408501356040840152606085013591508082111561409057600080fd5b5061409d85828601613f9f565b6060830152505092915050565b6000608082840312156140bb578081fd5b604051608081018181106001600160401b03821117156140d757fe5b8060405250809150823581526020830135602082015260408301356040820152606083013560608201525092915050565b600060c08284031215614119578081fd5b60405160c081016001600160401b03828210818311171561413657fe5b81604052829350843583526020850135602084015260408501356040840152606085013560608401526080850135608084015260a085013591508082111561417d57600080fd5b5061418a85828601613cd2565b60a0830152505092915050565b600060c082840312156141a8578081fd5b60405160c081018181106001600160401b03821117156141c457fe5b60405290508082356141d5816159e5565b815260208301356141e5816159e5565b602082015260408301356141f8816159e5565b604082015261420960608401613f89565b60608201526080830135608082015260a083013560a08201525092915050565b600061010080838503121561423c578182fd5b604051908101906001600160401b038211818310171561425857fe5b81604052809250835181526020840151602082015260408401516040820152606084015160608201526080840151608082015260a084015160a082015260c084015160c082015260e084015160e0820152505092915050565b803561051681615a0f565b805161051681615a0f565b805161ffff8116811461051657600080fd5b805161051681615a24565b6000602082840312156142f5578081fd5b8135610cf9816159d0565b60006020808385031215614312578182fd5b82356001600160401b03811115614327578283fd5b8301601f81018513614337578283fd5b8035614345613cf2826159a7565b81815283810190838501865b8481101561437a576143688a888435890101613f9f565b84529286019290860190600101614351565b509098975050505050505050565b600060208284031215614399578081fd5b81516001600160401b038111156143ae578182fd5b611dbf84828501613db4565b6000602082840312156143cb578081fd5b8151610cf9816159e5565b6000602082840312156143e7578081fd5b5035919050565b60008060408385031215614400578081fd5b505080516020909101519092909150565b600060808284031215614422578081fd5b610cf983836140aa565b600080610100838503121561443f578182fd5b61444984846140aa565b915061445884608085016140aa565b90509250929050565b60008060008084860360e0811215614477578283fd5b6080811215614484578283fd5b50604051608081018181106001600160401b03821117156144a157fe5b60405285356144af81615a24565b815260208601356144bf816159d0565b602082015260408601356144d2816159d0565b604082015260608601356144e5816159e5565b606082015293506144f860808601613cbc565b925061450660a08601613cbc565b915061451460c08601613cbc565b905092959194509250565b600060208284031215614530578081fd5b81516001600160401b0380821115614546578283fd5b9083019060808286031215614559578283fd5b60405160808101818110838211171561456e57fe5b806040525082518152602083015160208201526040830151604082015260608301518281111561459c578485fd5b6145a887828601613ead565b60608301525095945050505050565b600080600080600080600080610100898b0312156145d3578586fd5b88516145de81615a0f565b80985050602089015180600f0b81146145f5578687fd5b80975050604089015195506060890151945060808901518060060b811461461a578485fd5b60a08a015190945061462b816159d0565b60c08a015190935063ffffffff81168114614644578283fd5b915061465260e08a01613f94565b90509295985092959890939650565b600080600080600080600060e0888a03121561467b578081fd5b8751614686816159d0565b602089015190975061469781615a00565b95506146a5604089016142c7565b94506146b3606089016142c7565b93506146c1608089016142c7565b925060a088015160ff811681146146d6578182fd5b60c08901519092506146e7816159e5565b8091505092959891949750929550565b600060208284031215614708578081fd5b5051919050565b60008060408385031215614721578182fd5b8251915060208301516001600160401b0381111561473d578182fd5b61474985828601613db4565b9150509250929050565b600080600080600080610160878903121561476c578384fd5b8635955060208701356001600160401b0380821115614789578586fd5b818901915089601f83011261479c578586fd5b81356147aa613cf2826159a7565b80828252602082019150602085018d6020610100860288010111156147cd57898afd5b8995505b8386101561488757610100818f0312156147e957898afd5b604051610100810181811087821117156147ff57fe5b60405261480b82614003565b81526020820135602082015261482360408301613f89565b6040820152614834606083016142b1565b606082015261484560808301614019565b608082015261485660a08301614019565b60a082015260c0828101359082015260e08083013590820152835260019590950194602090920191610100016147d1565b509850505060408901359550606089013594506148a78a60808b01614197565b93506101408901359150808211156148bd578283fd5b506148ca89828a01613f9f565b9150509295509295509295565b60008060008061012085870312156148ed578182fd5b843593506020808601356001600160401b038082111561490b578485fd5b818801915088601f83011261491e578485fd5b813561492c613cf2826159a7565b81815284810190848601885b848110156149615761494f8e8984358a0101614108565b84529287019290870190600101614938565b50508098505050506149768960408a01614197565b945061010088013592508083111561498c578384fd5b505061499a8782880161402f565b91505092959194509250565b60008082840360a08112156149b9578283fd5b833592506080601f19820112156149ce578182fd5b50604051608081018181106001600160401b03821117156149eb57fe5b80604052506020840135815260408401356020820152606084013560408201526080840135614a19816159e5565b6060820152919491935090915050565b6000806000806101208587031215614a3f578182fd5b8435935060208501356001600160401b0380821115614a5c578384fd5b614a6888838901614108565b9450614a778860408901614197565b9350610100870135915080821115614a8d578283fd5b9086019060a08289031215614aa0578283fd5b60405160a081018181108382111715614ab557fe5b806040525082358152602083013560208201526040830135604082015260608301356060820152608083013582811115614aed578485fd5b614af98a828601613f9f565b6080830152509598949750929550505050565b60008060006101008486031215614b21578081fd5b83359250614b328560208601614197565b915060e08401356001600160401b03811115614b4c578182fd5b614b588682870161402f565b9150509250925092565b60008060408385031215614b74578182fd5b50508035926020909101359150565b6000806000806101208587031215614b99578182fd5b8435935060208501359250614bb18660408701614197565b91506101008501356001600160401b03811115614bcc578182fd5b61499a8782880161402f565b6000806000806000806000806000806000806101808d8f031215614bfa578586fd5b8c516bffffffffffffffffffffffff81168114614c15578687fd5b9b50614c2360208e01613cc7565b9a50614c3160408e01613cc7565b9950614c3f60608e01613cc7565b9850614c4d60808e016142d9565b9750614c5b60a08e01614024565b9650614c6960c08e01614024565b9550614c7760e08e016142bc565b94506101008d015193506101208d01519250614c966101408e016142bc565b9150614ca56101608e016142bc565b90509295989b509295989b509295989b565b6001600160a01b03169052565b6000815180845260208085019450808401835b83811015614d3257815180511515885283810151848901526040808201516001600160801b031690890152606080820151908901526080808201519089015260a0908101519088015260c09096019590820190600101614cd7565b509495945050505050565b6000815180845260208085019450808401835b83811015614d325781518051600d8110614d6657fe5b88528084015184890152604080820151151590890152606080820151614d8e828b01826150dd565b5050608080820151614da2828b0182614de5565b505060a080820151614db6828b0182614de5565b505060c0818101519089015260e090810151908801526101009096019590820190600101614d50565b15159052565b60020b9052565b80518252602090810151910152565b614e0e82614e0983546159c4565b614cb7565b60018101546001600160a01b03614e2a60208501828416614cb7565b614e3f6040850162ffffff8460a01c166150ea565b614e4c60028401546159c4565b9150614e5b6060850183614cb7565b614e6860038401546159c4565b9150614e776080850183614cb7565b60048301549150614e8d60a08501828416614cb7565b50614ea160c0840160ff8360a01c16614ddf565b50600581015460e0830152614ebd610100830160068301614f0c565b614ece6101808301600a8301614f0c565b600e810154610200830152600f015461022090910152565b805182526020810151602083015260408101516040830152606081015160608301525050565b80548252600181015460208301526002810154604083015260030154606090910152565b8051151582526001600160801b036020820151166020830152604081015160020b6040830152606081015160020b60608301525050565b600060c08301825184526020808401518186015260408401516040860152606084015160608601526080808501518187015260a085015160c060a088015283815180865260e08901915084830195508692505b80831015614fe157614fcd828751614f30565b948401946001929092019190830190614fba565b50979650505050505050565b805182526020808201516001600160a01b031681840152604080830151908401526060808301519084015260808083015160a0918501829052805191850182905260009290810191839060c08701905b8083101561505d578451825293830193600192909201919083019061503d565b509695505050505050565b600060a0830182548452600180600160a01b03818501541660208181880152600286015460408801526003860154606088015260048601915060a0608088015283825480865260c08901915083875282872095508693505b80841015614fe157855482529484019492840192908201906150c0565b6001600160801b03169052565b62ffffff169052565b600292830b60e890811b82529190920b901b600382015260060190565b6001600160a01b0391909116815260200190565b6001600160a01b03929092168252602082015260400190565b60208082528251828201819052600091906040908185019080840286018301878501865b8381101561437a57888303603f1901855281518051845287810151888501528681015187850152606080820151908501526080808201518186015260a09182015160c0928601839052805192860183905289019160e08601918b915b808310156151e4576151d0848651614f30565b938b019392810192600192909201916151bd565b5050509588019593505090860190600101615161565b6000608082016080835280875180835260a0850191506020925060a0838202860101838a01855b8381101561524f57609f1988840301855261523d838351614f67565b94860194925090850190600101615221565b50509715159285019290925250505060408101929092526001600160a01b0316606090910152919050565b901515815260200190565b9515158652602086019490945260408501929092526001600160a01b03166060840152608083015260a082015260c00190565b60029190910b815260200190565b602080825260029082015261503360f01b604082015260600190565b6020808252600290820152610a0760f31b604082015260600190565b6020808252600b908201526a1a5b9a5d1a585b1a5e995960aa1b604082015260600190565b602080825260029082015261503560f01b604082015260600190565b602080825260029082015261281b60f11b604082015260600190565b60208082526017908201527f63616c6c6572206d757374206265206f70657261746f72000000000000000000604082015260600190565b60208082526003908201526221a41960e91b604082015260600190565b602080825260029082015261281960f11b604082015260600190565b83815260c081016153df6020830185614f0c565b8260a0830152949350505050565b60006102a06153fc8388614dfb565b8061024084015261540f81840187614fed565b6102608401959095525050610280015292915050565b61010081016154348285614ee6565b610cf96080830184614ee6565b60006101208201905082518252602083015160020b6020830152604083015160020b6040830152606083015161547a60608401826150dd565b506080830151608083015260a083015160a083015260c083015160c083015260e083015160e083015261010080840151818401525092915050565b6000606082526154c86060830186614f67565b9315156020830152506001600160a01b0391909116604090910152919050565b6000602082528251602083015260208301516155076040840182614ddf565b506040830151606083015260608301516080830152608083015160a083015260a083015160c083015260c083015161554260e0840182614dec565b5060e0830151615556610120840182614dec565b5061010083015161016083810152611dbf610180840182614cc4565b6000602080835260a0808401855183860152828601516040818188015280880151915060608281890152808901519250608080818a015284845180875260c09650868b0191508886019550895b8181101561563b5786518051805185528b8101518c860152870151878501528a0151805186850152808b015185850152808701518a85015285810151898501528481015160e0808601919091528a82015161010086015289820151610120860152015161014084015295890195610160909201916001016155bf565b50909b9a5050505050505050505050565b6000602080835260c0830184518285015260018060a01b03828601511660408501526040850151606085015260608501516080850152608085015160a08086015281815180845260e08701915084830193508592505b8083101561505d57835182529284019260019290920191908401906156a2565b600060e082526156d560e083018a614fed565b88602084015287604084015286606084015282810360808401526156f98187614d3d565b60a084019590955250506001600160a01b039190911660c09091015295945050505050565b60006102c080835261573281840189614fed565b91505085602083015284604083015261574e6060830185614dfb565b6001600160a01b03929092166102a09190910152949350505050565b60006102a080835261577e81840188615068565b9150508460208301526157946040830185614dfb565b8261028083015295945050505050565b60006101608883528760208401528660408401528560608401528060808401526157d081840186614d3d565b9150508251151560a08301526020830151151560c08301526040830151151560e083015260608301511515610100830152608083015161012083015260a0830151610140830152979650505050505050565b600086825285602083015260a0604083015261584160a0830186614d3d565b606083019490945250608001529392505050565b600087825286602083015285604083015284606083015260c0608083015261588060c0830185614d3d565b90508260a0830152979650505050505050565b90815260200190565b9182526001600160a01b0316602082015260400190565b60008682526020868184015285604084015260018060a01b038516606084015260a0608084015283518060a0850152825b818110156159005785810183015185820160c0015282016158e4565b81811115615911578360c083870101525b50601f01601f19169290920160c001979650505050505050565b9283526020830191909152604082015260600190565b93845260208401929092526040830152606082015260800190565b958652602086019490945260408501929092526060840152608083015260a082015260c00190565b6040518181016001600160401b038111828210171561599f57fe5b604052919050565b60006001600160401b038211156159ba57fe5b5060209081020190565b6001600160a01b031690565b6001600160a01b0381168114611f4b57600080fd5b8015158114611f4b57600080fd5b600d8110611f4b57600080fd5b8060020b8114611f4b57600080fd5b6001600160801b0381168114611f4b57600080fd5b62ffffff81168114611f4b57600080fdfe496e697469616c697a61626c653a20636f6e747261637420697320616c726561647920696e697469616c697a65645369676e6564536166654d6174683a207375627472616374696f6e206f766572666c6f77a26469706673582212202ae1f0cbc8eb930edc5d7289c0a119b8195cfedc52116af023e7ac4230af10d964736f6c63430007060033",
  "libraries": {
    "LiquidationLogic": "0x720dbcA8c9cF6eEA37C93A96fC2d3517e5019F20",
    "PositionUpdater": "0xdA40923CA749A0aA46daB46d6dBa0674ee951b1e",
    "VaultLib": "0xc102928c29bF67be7948d5b8B52e1Fd01FC915BF",
    "PositionLib": "0x3f2d3733012d06be425C9560C37eFe1638974824",
    "PositionCalculator": "0x4609A12c95Dec1Af0a96B41e16495008e6c39a64",
    "InterestCalculator": "0x81b4E53Fa101455C3c519098b0470c159Eed8905"
  },
  "devdoc": {
    "kind": "dev",
    "methods": {
      "checkLiquidatable(uint256)": {
        "params": {
          "_vaultId": "vault id"
        }
      },
      "forceClose(bytes[])": {
        "params": {
          "_data": "vaults data to close position"
        }
      },
      "getVaultStatus(uint256)": {
        "params": {
          "_vaultId": "vault id"
        }
      },
      "updatePosition(uint256,(uint8,uint256,bool,uint128,int24,int24,uint256,uint256)[],uint256,uint256,(bool,bool,bool,bool,int256,int256),bytes)": {
        "params": {
          "_buffer0": "max amount of token0 to send",
          "_buffer1": "max amount of token1 to send",
          "_positionUpdates": "parameters to update position",
          "_vaultId": "vault id"
        }
      }
    },
    "version": 1
  },
  "userdoc": {
    "kind": "user",
    "methods": {
      "checkLiquidatable(uint256)": {
        "notice": "Returns the flag whether a vault can be liquidated or not."
      },
      "closePosition(uint256,(uint256,uint256,uint256,uint256,uint256,(bool,uint128,int24,int24)[])[],(bool,bool,bool,bool,int256,int256),(uint256,uint256,uint256,bytes))": {
        "notice": "Closes position partially."
      },
      "closeSubVault(uint256,uint256,(bool,bool,bool,bool,int256,int256),(uint256,uint256,uint256,bytes))": {
        "notice": "Closes all positions in sub-vault."
      },
      "closeVault(uint256,(bool,bool,bool,bool,int256,int256),(uint256,uint256,uint256,bytes))": {
        "notice": "Closes all positions in a vault."
      },
      "forceClose(bytes[])": {
        "notice": "Contract owner can close positions"
      },
      "getSqrtPrice()": {
        "notice": "Gets square root of current underlying token price by quote token."
      },
      "getVaultStatus(uint256)": {
        "notice": "Returns collateral value and debt value."
      },
      "liquidate(uint256,(uint256,uint256,uint256,bool))": {
        "notice": "Liquidates a vault."
      },
      "openPosition(uint256,(uint256,uint256,uint256,uint256,uint256,(bool,uint128,int24,int24)[]),(bool,bool,bool,bool,int256,int256),(uint256,uint256,uint256,uint256,bytes))": {
        "notice": "Opens new position."
      },
      "updatePosition(uint256,(uint8,uint256,bool,uint128,int24,int24,uint256,uint256)[],uint256,uint256,(bool,bool,bool,bool,int256,int256),bytes)": {
        "notice": "Update position in a vault."
      }
    },
    "version": 1
  },
  "storageLayout": {
    "storage": [
      {
        "astId": 9065,
        "contract": "src/ControllerHelper.sol:ControllerHelper",
        "label": "_initialized",
        "offset": 0,
        "slot": "0",
        "type": "t_bool"
      },
      {
        "astId": 9068,
        "contract": "src/ControllerHelper.sol:ControllerHelper",
        "label": "_initializing",
        "offset": 1,
        "slot": "0",
        "type": "t_bool"
      },
      {
        "astId": 12442,
        "contract": "src/ControllerHelper.sol:ControllerHelper",
        "label": "lastTouchedTimestamp",
        "offset": 0,
        "slot": "1",
        "type": "t_uint256"
      },
      {
        "astId": 12446,
        "contract": "src/ControllerHelper.sol:ControllerHelper",
        "label": "ranges",
        "offset": 0,
        "slot": "2",
        "type": "t_mapping(t_bytes32,t_struct(PerpStatus)14543_storage)"
      },
      {
        "astId": 12448,
        "contract": "src/ControllerHelper.sol:ControllerHelper",
        "label": "vaultIdCount",
        "offset": 0,
        "slot": "3",
        "type": "t_uint256"
      },
      {
        "astId": 12452,
        "contract": "src/ControllerHelper.sol:ControllerHelper",
        "label": "vaults",
        "offset": 0,
        "slot": "4",
        "type": "t_mapping(t_uint256,t_struct(Vault)14588_storage)"
      },
      {
        "astId": 12456,
        "contract": "src/ControllerHelper.sol:ControllerHelper",
        "label": "subVaults",
        "offset": 0,
        "slot": "5",
        "type": "t_mapping(t_uint256,t_struct(SubVault)14576_storage)"
      },
      {
        "astId": 12458,
        "contract": "src/ControllerHelper.sol:ControllerHelper",
        "label": "context",
        "offset": 0,
        "slot": "6",
        "type": "t_struct(Context)14613_storage"
      },
      {
        "astId": 12460,
        "contract": "src/ControllerHelper.sol:ControllerHelper",
        "label": "irmParams",
        "offset": 0,
        "slot": "22",
        "type": "t_struct(IRMParams)14813_storage"
      },
      {
        "astId": 12462,
        "contract": "src/ControllerHelper.sol:ControllerHelper",
        "label": "dpmParams",
        "offset": 0,
        "slot": "26",
        "type": "t_struct(DPMParams)14804_storage"
      },
      {
        "astId": 12464,
        "contract": "src/ControllerHelper.sol:ControllerHelper",
        "label": "operator",
        "offset": 0,
        "slot": "35",
        "type": "t_address"
      }
    ],
    "types": {
      "t_address": {
        "encoding": "inplace",
        "label": "address",
        "numberOfBytes": "20"
      },
      "t_array(t_struct(LPTState)14556_storage)dyn_storage": {
        "base": "t_struct(LPTState)14556_storage",
        "encoding": "dynamic_array",
        "label": "struct DataType.LPTState[]",
        "numberOfBytes": "32"
      },
      "t_array(t_uint256)dyn_storage": {
        "base": "t_uint256",
        "encoding": "dynamic_array",
        "label": "uint256[]",
        "numberOfBytes": "32"
      },
      "t_bool": {
        "encoding": "inplace",
        "label": "bool",
        "numberOfBytes": "1"
      },
      "t_bytes32": {
        "encoding": "inplace",
        "label": "bytes32",
        "numberOfBytes": "32"
      },
      "t_int24": {
        "encoding": "inplace",
        "label": "int24",
        "numberOfBytes": "3"
      },
      "t_mapping(t_bytes32,t_struct(PerpStatus)14543_storage)": {
        "encoding": "mapping",
        "key": "t_bytes32",
        "label": "mapping(bytes32 => struct DataType.PerpStatus)",
        "numberOfBytes": "32",
        "value": "t_struct(PerpStatus)14543_storage"
      },
      "t_mapping(t_bytes32,t_struct(TickSnapshot)14790_storage)": {
        "encoding": "mapping",
        "key": "t_bytes32",
        "label": "mapping(bytes32 => struct InterestCalculator.TickSnapshot)",
        "numberOfBytes": "32",
        "value": "t_struct(TickSnapshot)14790_storage"
      },
      "t_mapping(t_uint256,t_struct(SubVault)14576_storage)": {
        "encoding": "mapping",
        "key": "t_uint256",
        "label": "mapping(uint256 => struct DataType.SubVault)",
        "numberOfBytes": "32",
        "value": "t_struct(SubVault)14576_storage"
      },
      "t_mapping(t_uint256,t_struct(Vault)14588_storage)": {
        "encoding": "mapping",
        "key": "t_uint256",
        "label": "mapping(uint256 => struct DataType.Vault)",
        "numberOfBytes": "32",
        "value": "t_struct(Vault)14588_storage"
      },
      "t_struct(AccountState)13942_storage": {
        "encoding": "inplace",
        "label": "struct BaseToken.AccountState",
        "members": [
          {
            "astId": 13939,
            "contract": "src/ControllerHelper.sol:ControllerHelper",
            "label": "collateralAmount",
            "offset": 0,
            "slot": "0",
            "type": "t_uint256"
          },
          {
            "astId": 13941,
            "contract": "src/ControllerHelper.sol:ControllerHelper",
            "label": "debtAmount",
            "offset": 0,
            "slot": "1",
            "type": "t_uint256"
          }
        ],
        "numberOfBytes": "64"
      },
      "t_struct(Context)14613_storage": {
        "encoding": "inplace",
        "label": "struct DataType.Context",
        "members": [
          {
            "astId": 14590,
            "contract": "src/ControllerHelper.sol:ControllerHelper",
            "label": "token0",
            "offset": 0,
            "slot": "0",
            "type": "t_address"
          },
          {
            "astId": 14592,
            "contract": "src/ControllerHelper.sol:ControllerHelper",
            "label": "token1",
            "offset": 0,
            "slot": "1",
            "type": "t_address"
          },
          {
            "astId": 14594,
            "contract": "src/ControllerHelper.sol:ControllerHelper",
            "label": "feeTier",
            "offset": 20,
            "slot": "1",
            "type": "t_uint24"
          },
          {
            "astId": 14596,
            "contract": "src/ControllerHelper.sol:ControllerHelper",
            "label": "positionManager",
            "offset": 0,
            "slot": "2",
            "type": "t_address"
          },
          {
            "astId": 14598,
            "contract": "src/ControllerHelper.sol:ControllerHelper",
            "label": "swapRouter",
            "offset": 0,
            "slot": "3",
            "type": "t_address"
          },
          {
            "astId": 14600,
            "contract": "src/ControllerHelper.sol:ControllerHelper",
            "label": "uniswapPool",
            "offset": 0,
            "slot": "4",
            "type": "t_address"
          },
          {
            "astId": 14602,
            "contract": "src/ControllerHelper.sol:ControllerHelper",
            "label": "isMarginZero",
            "offset": 20,
            "slot": "4",
            "type": "t_bool"
          },
          {
            "astId": 14604,
            "contract": "src/ControllerHelper.sol:ControllerHelper",
            "label": "nextSubVaultId",
            "offset": 0,
            "slot": "5",
            "type": "t_uint256"
          },
          {
            "astId": 14606,
            "contract": "src/ControllerHelper.sol:ControllerHelper",
            "label": "tokenState0",
            "offset": 0,
            "slot": "6",
            "type": "t_struct(TokenState)13937_storage"
          },
          {
            "astId": 14608,
            "contract": "src/ControllerHelper.sol:ControllerHelper",
            "label": "tokenState1",
            "offset": 0,
            "slot": "10",
            "type": "t_struct(TokenState)13937_storage"
          },
          {
            "astId": 14610,
            "contract": "src/ControllerHelper.sol:ControllerHelper",
            "label": "accumuratedProtocolFee0",
            "offset": 0,
            "slot": "14",
            "type": "t_uint256"
          },
          {
            "astId": 14612,
            "contract": "src/ControllerHelper.sol:ControllerHelper",
            "label": "accumuratedProtocolFee1",
            "offset": 0,
            "slot": "15",
            "type": "t_uint256"
          }
        ],
        "numberOfBytes": "512"
      },
      "t_struct(DPMParams)14804_storage": {
        "encoding": "inplace",
        "label": "struct InterestCalculator.DPMParams",
        "members": [
          {
            "astId": 14797,
            "contract": "src/ControllerHelper.sol:ControllerHelper",
            "label": "premiumParams",
            "offset": 0,
            "slot": "0",
            "type": "t_struct(IRMParams)14813_storage"
          },
          {
            "astId": 14799,
            "contract": "src/ControllerHelper.sol:ControllerHelper",
            "label": "irmParams",
            "offset": 0,
            "slot": "4",
            "type": "t_struct(IRMParams)14813_storage"
          },
          {
            "astId": 14803,
            "contract": "src/ControllerHelper.sol:ControllerHelper",
            "label": "snapshots",
            "offset": 0,
            "slot": "8",
            "type": "t_mapping(t_bytes32,t_struct(TickSnapshot)14790_storage)"
          }
        ],
        "numberOfBytes": "288"
      },
      "t_struct(IRMParams)14813_storage": {
        "encoding": "inplace",
        "label": "struct InterestCalculator.IRMParams",
        "members": [
          {
            "astId": 14806,
            "contract": "src/ControllerHelper.sol:ControllerHelper",
            "label": "baseRate",
            "offset": 0,
            "slot": "0",
            "type": "t_uint256"
          },
          {
            "astId": 14808,
            "contract": "src/ControllerHelper.sol:ControllerHelper",
            "label": "kinkRate",
            "offset": 0,
            "slot": "1",
            "type": "t_uint256"
          },
          {
            "astId": 14810,
            "contract": "src/ControllerHelper.sol:ControllerHelper",
            "label": "slope1",
            "offset": 0,
            "slot": "2",
            "type": "t_uint256"
          },
          {
            "astId": 14812,
            "contract": "src/ControllerHelper.sol:ControllerHelper",
            "label": "slope2",
            "offset": 0,
            "slot": "3",
            "type": "t_uint256"
          }
        ],
        "numberOfBytes": "128"
      },
      "t_struct(LPTState)14556_storage": {
        "encoding": "inplace",
        "label": "struct DataType.LPTState",
        "members": [
          {
            "astId": 14545,
            "contract": "src/ControllerHelper.sol:ControllerHelper",
            "label": "isCollateral",
            "offset": 0,
            "slot": "0",
            "type": "t_bool"
          },
          {
            "astId": 14547,
            "contract": "src/ControllerHelper.sol:ControllerHelper",
            "label": "rangeId",
            "offset": 0,
            "slot": "1",
            "type": "t_bytes32"
          },
          {
            "astId": 14549,
            "contract": "src/ControllerHelper.sol:ControllerHelper",
            "label": "liquidityAmount",
            "offset": 0,
            "slot": "2",
            "type": "t_uint128"
          },
          {
            "astId": 14551,
            "contract": "src/ControllerHelper.sol:ControllerHelper",
            "label": "premiumGrowthLast",
            "offset": 0,
            "slot": "3",
            "type": "t_uint256"
          },
          {
            "astId": 14553,
            "contract": "src/ControllerHelper.sol:ControllerHelper",
            "label": "fee0Last",
            "offset": 0,
            "slot": "4",
            "type": "t_uint256"
          },
          {
            "astId": 14555,
            "contract": "src/ControllerHelper.sol:ControllerHelper",
            "label": "fee1Last",
            "offset": 0,
            "slot": "5",
            "type": "t_uint256"
          }
        ],
        "numberOfBytes": "192"
      },
      "t_struct(PerpStatus)14543_storage": {
        "encoding": "inplace",
        "label": "struct DataType.PerpStatus",
        "members": [
          {
            "astId": 14526,
            "contract": "src/ControllerHelper.sol:ControllerHelper",
            "label": "tokenId",
            "offset": 0,
            "slot": "0",
            "type": "t_uint256"
          },
          {
            "astId": 14528,
            "contract": "src/ControllerHelper.sol:ControllerHelper",
            "label": "lowerTick",
            "offset": 0,
            "slot": "1",
            "type": "t_int24"
          },
          {
            "astId": 14530,
            "contract": "src/ControllerHelper.sol:ControllerHelper",
            "label": "upperTick",
            "offset": 3,
            "slot": "1",
            "type": "t_int24"
          },
          {
            "astId": 14532,
            "contract": "src/ControllerHelper.sol:ControllerHelper",
            "label": "borrowedLiquidity",
            "offset": 6,
            "slot": "1",
            "type": "t_uint128"
          },
          {
            "astId": 14534,
            "contract": "src/ControllerHelper.sol:ControllerHelper",
            "label": "premiumGrowthForBorrower",
            "offset": 0,
            "slot": "2",
            "type": "t_uint256"
          },
          {
            "astId": 14536,
            "contract": "src/ControllerHelper.sol:ControllerHelper",
            "label": "premiumGrowthForLender",
            "offset": 0,
            "slot": "3",
            "type": "t_uint256"
          },
          {
            "astId": 14538,
            "contract": "src/ControllerHelper.sol:ControllerHelper",
            "label": "fee0Growth",
            "offset": 0,
            "slot": "4",
            "type": "t_uint256"
          },
          {
            "astId": 14540,
            "contract": "src/ControllerHelper.sol:ControllerHelper",
            "label": "fee1Growth",
            "offset": 0,
            "slot": "5",
            "type": "t_uint256"
          },
          {
            "astId": 14542,
            "contract": "src/ControllerHelper.sol:ControllerHelper",
            "label": "lastTouchedTimestamp",
            "offset": 0,
            "slot": "6",
            "type": "t_uint256"
          }
        ],
        "numberOfBytes": "224"
      },
      "t_struct(SubVault)14576_storage": {
        "encoding": "inplace",
        "label": "struct DataType.SubVault",
        "members": [
          {
            "astId": 14558,
            "contract": "src/ControllerHelper.sol:ControllerHelper",
            "label": "id",
            "offset": 0,
            "slot": "0",
            "type": "t_uint256"
          },
          {
            "astId": 14560,
            "contract": "src/ControllerHelper.sol:ControllerHelper",
            "label": "isCompound",
            "offset": 0,
            "slot": "1",
            "type": "t_bool"
          },
          {
            "astId": 14562,
            "contract": "src/ControllerHelper.sol:ControllerHelper",
            "label": "collateralAmount0",
            "offset": 0,
            "slot": "2",
            "type": "t_uint256"
          },
          {
            "astId": 14564,
            "contract": "src/ControllerHelper.sol:ControllerHelper",
            "label": "collateralAmount1",
            "offset": 0,
            "slot": "3",
            "type": "t_uint256"
          },
          {
            "astId": 14566,
            "contract": "src/ControllerHelper.sol:ControllerHelper",
            "label": "debtAmount0",
            "offset": 0,
            "slot": "4",
            "type": "t_uint256"
          },
          {
            "astId": 14568,
            "contract": "src/ControllerHelper.sol:ControllerHelper",
            "label": "debtAmount1",
            "offset": 0,
            "slot": "5",
            "type": "t_uint256"
          },
          {
            "astId": 14570,
            "contract": "src/ControllerHelper.sol:ControllerHelper",
            "label": "balance0",
            "offset": 0,
            "slot": "6",
            "type": "t_struct(AccountState)13942_storage"
          },
          {
            "astId": 14572,
            "contract": "src/ControllerHelper.sol:ControllerHelper",
            "label": "balance1",
            "offset": 0,
            "slot": "8",
            "type": "t_struct(AccountState)13942_storage"
          },
          {
            "astId": 14575,
            "contract": "src/ControllerHelper.sol:ControllerHelper",
            "label": "lpts",
            "offset": 0,
            "slot": "10",
            "type": "t_array(t_struct(LPTState)14556_storage)dyn_storage"
          }
        ],
        "numberOfBytes": "352"
      },
      "t_struct(TickSnapshot)14790_storage": {
        "encoding": "inplace",
        "label": "struct InterestCalculator.TickSnapshot",
        "members": [
          {
            "astId": 14783,
            "contract": "src/ControllerHelper.sol:ControllerHelper",
            "label": "lastFeeGrowthInside0X128",
            "offset": 0,
            "slot": "0",
            "type": "t_uint256"
          },
          {
            "astId": 14785,
            "contract": "src/ControllerHelper.sol:ControllerHelper",
            "label": "lastFeeGrowthInside1X128",
            "offset": 0,
            "slot": "1",
            "type": "t_uint256"
          },
          {
            "astId": 14787,
            "contract": "src/ControllerHelper.sol:ControllerHelper",
            "label": "lastFeeGrowthGlobal0X128",
            "offset": 0,
            "slot": "2",
            "type": "t_uint256"
          },
          {
            "astId": 14789,
            "contract": "src/ControllerHelper.sol:ControllerHelper",
            "label": "lastFeeGrowthGlobal1X128",
            "offset": 0,
            "slot": "3",
            "type": "t_uint256"
          }
        ],
        "numberOfBytes": "128"
      },
      "t_struct(TokenState)13937_storage": {
        "encoding": "inplace",
        "label": "struct BaseToken.TokenState",
        "members": [
          {
            "astId": 13930,
            "contract": "src/ControllerHelper.sol:ControllerHelper",
            "label": "totalDeposited",
            "offset": 0,
            "slot": "0",
            "type": "t_uint256"
          },
          {
            "astId": 13932,
            "contract": "src/ControllerHelper.sol:ControllerHelper",
            "label": "totalBorrowed",
            "offset": 0,
            "slot": "1",
            "type": "t_uint256"
          },
          {
            "astId": 13934,
            "contract": "src/ControllerHelper.sol:ControllerHelper",
            "label": "collateralScaler",
            "offset": 0,
            "slot": "2",
            "type": "t_uint256"
          },
          {
            "astId": 13936,
            "contract": "src/ControllerHelper.sol:ControllerHelper",
            "label": "debtScaler",
            "offset": 0,
            "slot": "3",
            "type": "t_uint256"
          }
        ],
        "numberOfBytes": "128"
      },
      "t_struct(Vault)14588_storage": {
        "encoding": "inplace",
        "label": "struct DataType.Vault",
        "members": [
          {
            "astId": 14578,
            "contract": "src/ControllerHelper.sol:ControllerHelper",
            "label": "vaultId",
            "offset": 0,
            "slot": "0",
            "type": "t_uint256"
          },
          {
            "astId": 14580,
            "contract": "src/ControllerHelper.sol:ControllerHelper",
            "label": "owner",
            "offset": 0,
            "slot": "1",
            "type": "t_address"
          },
          {
            "astId": 14582,
            "contract": "src/ControllerHelper.sol:ControllerHelper",
            "label": "marginAmount0",
            "offset": 0,
            "slot": "2",
            "type": "t_uint256"
          },
          {
            "astId": 14584,
            "contract": "src/ControllerHelper.sol:ControllerHelper",
            "label": "marginAmount1",
            "offset": 0,
            "slot": "3",
            "type": "t_uint256"
          },
          {
            "astId": 14587,
            "contract": "src/ControllerHelper.sol:ControllerHelper",
            "label": "subVaults",
            "offset": 0,
            "slot": "4",
            "type": "t_array(t_uint256)dyn_storage"
          }
        ],
        "numberOfBytes": "160"
      },
      "t_uint128": {
        "encoding": "inplace",
        "label": "uint128",
        "numberOfBytes": "16"
      },
      "t_uint24": {
        "encoding": "inplace",
        "label": "uint24",
        "numberOfBytes": "3"
      },
      "t_uint256": {
        "encoding": "inplace",
        "label": "uint256",
        "numberOfBytes": "32"
      }
    }
  }
}