{
  "address": "0x2018C5c90E9602417847BC5B598050e7909691a7",
  "abi": [
    {
      "inputs": [
        {
          "internalType": "contract Controller",
          "name": "_controller",
          "type": "address"
        }
      ],
      "stateMutability": "nonpayable",
      "type": "constructor"
    },
    {
      "inputs": [
        {
          "components": [
            {
              "internalType": "uint256",
              "name": "collateral0",
              "type": "uint256"
            },
            {
              "internalType": "uint256",
              "name": "collateral1",
              "type": "uint256"
            },
            {
              "internalType": "uint256",
              "name": "debt0",
              "type": "uint256"
            },
            {
              "internalType": "uint256",
              "name": "debt1",
              "type": "uint256"
            },
            {
              "components": [
                {
                  "internalType": "bool",
                  "name": "isCollateral",
                  "type": "bool"
                },
                {
                  "internalType": "uint128",
                  "name": "liquidity",
                  "type": "uint128"
                },
                {
                  "internalType": "int24",
                  "name": "lowerTick",
                  "type": "int24"
                },
                {
                  "internalType": "int24",
                  "name": "upperTick",
                  "type": "int24"
                }
              ],
              "internalType": "struct DataType.LPT[]",
              "name": "lpts",
              "type": "tuple[]"
            }
          ],
          "internalType": "struct DataType.Position",
          "name": "_position",
          "type": "tuple"
        }
      ],
      "name": "calculateRequiredCollateral",
      "outputs": [
        {
          "internalType": "int256",
          "name": "",
          "type": "int256"
        }
      ],
      "stateMutability": "view",
      "type": "function"
    },
    {
      "inputs": [
        {
          "components": [
            {
              "internalType": "uint256",
              "name": "collateral0",
              "type": "uint256"
            },
            {
              "internalType": "uint256",
              "name": "collateral1",
              "type": "uint256"
            },
            {
              "internalType": "uint256",
              "name": "debt0",
              "type": "uint256"
            },
            {
              "internalType": "uint256",
              "name": "debt1",
              "type": "uint256"
            },
            {
              "components": [
                {
                  "internalType": "bool",
                  "name": "isCollateral",
                  "type": "bool"
                },
                {
                  "internalType": "uint128",
                  "name": "liquidity",
                  "type": "uint128"
                },
                {
                  "internalType": "int24",
                  "name": "lowerTick",
                  "type": "int24"
                },
                {
                  "internalType": "int24",
                  "name": "upperTick",
                  "type": "int24"
                }
              ],
              "internalType": "struct DataType.LPT[]",
              "name": "lpts",
              "type": "tuple[]"
            }
          ],
          "internalType": "struct DataType.Position",
          "name": "_position",
          "type": "tuple"
        },
        {
          "internalType": "uint256",
          "name": "_limitPrice",
          "type": "uint256"
        },
        {
          "internalType": "uint256",
          "name": "_aaa",
          "type": "uint256"
        }
      ],
      "name": "getPositionUpdatesToClose",
      "outputs": [
        {
          "components": [
            {
              "internalType": "enum DataType.PositionUpdateType",
              "name": "positionUpdateType",
              "type": "uint8"
            },
            {
              "internalType": "bool",
              "name": "zeroForOne",
              "type": "bool"
            },
            {
              "internalType": "uint128",
              "name": "liquidity",
              "type": "uint128"
            },
            {
              "internalType": "int24",
              "name": "lowerTick",
              "type": "int24"
            },
            {
              "internalType": "int24",
              "name": "upperTick",
              "type": "int24"
            },
            {
              "internalType": "uint256",
              "name": "param0",
              "type": "uint256"
            },
            {
              "internalType": "uint256",
              "name": "param1",
              "type": "uint256"
            }
          ],
          "internalType": "struct DataType.PositionUpdate[]",
          "name": "positionUpdates",
          "type": "tuple[]"
        },
        {
          "internalType": "uint256",
          "name": "_buffer0",
          "type": "uint256"
        },
        {
          "internalType": "uint256",
          "name": "_buffer1",
          "type": "uint256"
        }
      ],
      "stateMutability": "view",
      "type": "function"
    },
    {
      "inputs": [
        {
          "components": [
            {
              "internalType": "uint256",
              "name": "collateral0",
              "type": "uint256"
            },
            {
              "internalType": "uint256",
              "name": "collateral1",
              "type": "uint256"
            },
            {
              "internalType": "uint256",
              "name": "debt0",
              "type": "uint256"
            },
            {
              "internalType": "uint256",
              "name": "debt1",
              "type": "uint256"
            },
            {
              "components": [
                {
                  "internalType": "bool",
                  "name": "isCollateral",
                  "type": "bool"
                },
                {
                  "internalType": "uint128",
                  "name": "liquidity",
                  "type": "uint128"
                },
                {
                  "internalType": "int24",
                  "name": "lowerTick",
                  "type": "int24"
                },
                {
                  "internalType": "int24",
                  "name": "upperTick",
                  "type": "int24"
                }
              ],
              "internalType": "struct DataType.LPT[]",
              "name": "lpts",
              "type": "tuple[]"
            }
          ],
          "internalType": "struct DataType.Position",
          "name": "_position",
          "type": "tuple"
        },
        {
          "internalType": "uint256",
          "name": "_limitPrice",
          "type": "uint256"
        }
      ],
      "name": "getPositionUpdatesToOpen",
      "outputs": [
        {
          "components": [
            {
              "internalType": "enum DataType.PositionUpdateType",
              "name": "positionUpdateType",
              "type": "uint8"
            },
            {
              "internalType": "bool",
              "name": "zeroForOne",
              "type": "bool"
            },
            {
              "internalType": "uint128",
              "name": "liquidity",
              "type": "uint128"
            },
            {
              "internalType": "int24",
              "name": "lowerTick",
              "type": "int24"
            },
            {
              "internalType": "int24",
              "name": "upperTick",
              "type": "int24"
            },
            {
              "internalType": "uint256",
              "name": "param0",
              "type": "uint256"
            },
            {
              "internalType": "uint256",
              "name": "param1",
              "type": "uint256"
            }
          ],
          "internalType": "struct DataType.PositionUpdate[]",
          "name": "positionUpdates",
          "type": "tuple[]"
        },
        {
          "internalType": "uint256",
          "name": "_buffer0",
          "type": "uint256"
        },
        {
          "internalType": "uint256",
          "name": "_buffer1",
          "type": "uint256"
        }
      ],
      "stateMutability": "view",
      "type": "function"
    }
  ],
  "transactionHash": "0x645a92af1f0005d103b0c221ef9e7f4b25447732294bcb586df7f2c378ac027e",
  "args": [
    "0x5e5Be5353Fbc5B00eaEC367BD4155F75F9bDf628"
  ],
  "solcInputHash": "fd57214ffe08477cc4fe036111c9a30e",
  "bytecode": "0x608060405234801561001057600080fd5b50604051611f8b380380611f8b83398101604081905261002f91610054565b600080546001600160a01b0319166001600160a01b0392909216919091179055610082565b600060208284031215610065578081fd5b81516001600160a01b038116811461007b578182fd5b9392505050565b611efa806100916000396000f3fe608060405234801561001057600080fd5b50600436106100415760003560e01c80631cb053041461004657806340126c231461006f578063dfd41d8c14610091575b600080fd5b610059610054366004611c90565b6100a4565b6040516100669190611e2c565b60405180910390f35b61008261007d366004611cc3565b6101c3565b60405161006693929190611d75565b61008261009f366004611d06565b6103ec565b6000805460408051636824b6b560e11b8152905183926001600160a01b03169163d0496d6a916004808301926101e0929190829003018186803b1580156100ea57600080fd5b505afa1580156100fe573d6000803e3d6000fd5b505050506040513d601f19601f820116820180604052508101906101229190611bb0565b505096505050505050506101ba8360008054906101000a90046001600160a01b03166001600160a01b031663cb3c9a536040518163ffffffff1660e01b815260040160206040518083038186803b15801561017c57600080fd5b505afa158015610190573d6000803e3d6000fd5b505050506040513d601f19601f820116820180604052508101906101b49190611d52565b836105b2565b9150505b919050565b606060008060006101d3866105eb565b809250819550505060008061026b8860008054906101000a90046001600160a01b03166001600160a01b03166386e6862d6040518163ffffffff1660e01b815260040160206040518083038186803b15801561022e57600080fd5b505afa158015610242573d6000803e3d6000fd5b505050506040513d601f19601f820116820180604052508101906102669190611d52565b6108a6565b9150915060008054906101000a90046001600160a01b03166001600160a01b03166362e0929f6040518163ffffffff1660e01b815260040160206040518083038186803b1580156102bb57600080fd5b505afa1580156102cf573d6000803e3d6000fd5b505050506040513d601f19601f820116820180604052508101906102f39190611c74565b1561036f57600061030482896108c6565b6040805160e0810190915290915080600981526001602082015260006040820181905260608201819052608082015260a0810184905260c001829052875188908690811061034e57fe5b6020908102919091010152610363818461097a565b955060009450506103e2565b600061037b83896109df565b6040805160e0810190915290915080600981526000602082018190526040820181905260608201819052608082015260a0810185905260c00182905287518890869081106103c557fe5b6020908102919091010152600095506103de818361097a565b9450505b5050509250925092565b606060008060006103fc87610a89565b80925081955050506000806104948960008054906101000a90046001600160a01b03166001600160a01b03166386e6862d6040518163ffffffff1660e01b815260040160206040518083038186803b15801561045757600080fd5b505afa15801561046b573d6000803e3d6000fd5b505050506040513d601f19601f8201168201806040525081019061048f9190611d52565b610d42565b9150915060008212156105235760006104b0836000038a6109df565b6040805160e08101909152909150806008815260016020820152600060408201819052606082018190526080820181905260a0909101906064908690038b020481526020016064838b020481525087858151811061050a57fe5b60200260200101819052506000955060009450506105a6565b60008112156105a657600061053b826000038a6108c6565b6040805160e08101825260088152600060208201819052918101829052606081018290526080810182905291925060a08201906064908590038b020481526020016064838b020481525087858151811061059157fe5b60200260200101819052506000955060009450505b50505093509350939050565b6000806105c0858585610d57565b905060006105cf868686610e84565b91505081606482816105dd57fe5b0503925050505b9392505050565b606060006105f883611034565b60010167ffffffffffffffff8111801561061157600080fd5b5060405190808252806020026020018201604052801561064b57816020015b610638611956565b8152602001906001900390816106305790505b5091506000805b8460800151518110156107005760008560800151828151811061067157fe5b6020026020010151905080600001516106f7576040805160e08101909152806006815260200160001515815260200182602001516001600160801b03168152602001826040015160020b8152602001826060015160020b81526020016000815260200160008152508584815181106106e557fe5b60209081029190910101526001909201915b50600101610652565b508351151580610714575060008460200151115b1561076f576040805160e08101825260008082526020808301829052928201819052606082018190526080820152855160a08201529085015160c0820152835184908390811061076057fe5b60209081029190910101526001015b600084604001511180610786575060008460600151115b156107e7576040805160e08101825260028152600060208201819052818301819052606080830182905260808301919091529186015160a08201529085015160c082015283518490839081106107d857fe5b60209081029190910101526001015b90506001810160005b84608001515181101561089f5760008560800151828151811061080f57fe5b60200260200101519050806000015115610896576040805160e08101909152806004815260200160001515815260200182602001516001600160801b03168152602001826040015160020b8152602001826060015160020b815260200160008152602001600081525085848151811061088457fe5b60209081029190910101526001909201915b506001016107f0565b5050915091565b6000806108bb6108b461107a565b85856110e7565b915091509250929050565b60008060009054906101000a90046001600160a01b03166001600160a01b03166362e0929f6040518163ffffffff1660e01b815260040160206040518083038186803b15801561091557600080fd5b505afa158015610929573d6000803e3d6000fd5b505050506040513d601f19601f8201168201806040525081019061094d9190611c74565b156109645764e8d4a510008383025b049050610974565b818364e8d4a51000028161095c57fe5b92915050565b600082820181831280159061098f5750838112155b806109a457506000831280156109a457508381125b6105e45760405162461bcd60e51b8152600401808060200182810382526021815260200180611e806021913960400191505060405180910390fd5b60008060009054906101000a90046001600160a01b03166001600160a01b03166362e0929f6040518163ffffffff1660e01b815260040160206040518083038186803b158015610a2e57600080fd5b505afa158015610a42573d6000803e3d6000fd5b505050506040513d601f19601f82011682018060405250810190610a669190611c74565b15610a7b57818364e8d4a51000028161095c57fe5b64e8d4a5100083830261095c565b60606000610a9683611034565b60010167ffffffffffffffff81118015610aaf57600080fd5b50604051908082528060200260200182016040528015610ae957816020015b610ad6611956565b815260200190600190039081610ace5790505b5091506000805b846080015151811015610b9f57600085608001518281518110610b0f57fe5b60200260200101519050806000015115610b96576040805160e08101909152806005815260200160001515815260200182602001516001600160801b03168152602001826040015160020b8152602001826060015160020b8152602001600081526020016000815250858481518110610b8457fe5b60209081029190910101526001909201915b50600101610af0565b5090506001810160005b846080015151811015610c5757600085608001518281518110610bc857fe5b602002602001015190508060000151610c4e576040805160e08101909152806007815260200160001515815260200182602001516001600160801b03168152602001826040015160020b8152602001826060015160020b8152602001600081526020016000815250858481518110610c3c57fe5b60209081029190910101526001909201915b50600101610ba9565b508351151580610c6b575060008460200151115b15610cc7576040805160e0810182526001815260006020808301829052928201819052606082018190526080820152855160a08201529085015160c08201528351849083908110610cb857fe5b60209081029190910101526001015b600084604001511180610cde575060008460600151115b15610d3c576040805160e08101825260038152600060208201819052818301819052606080830182905260808301919091529186015160a08201529085015160c08201528351849083908110610d3057fe5b60200260200101819052505b50915091565b6000806108bb84610d5161107a565b856110e7565b6001600160ff1b036305f5e1006001600160a01b03630554c99f85028116829004916306a9fc0786029091160460005b866080015151811015610e4257600087608001518281518110610da657fe5b602002602001015190508060000151610e38576000610ddb6002836040015184606001510160020b81610dd557fe5b056112dc565b9050846001600160a01b0316816001600160a01b03161080610e0e5750806001600160a01b0316846001600160a01b0316105b15610e1a575050610e3a565b6000610e278a838a61160e565b905080871315610e35578096505b50505b505b600101610d87565b506000610e5087838761160e565b905080841315610e5e578093505b506000610e6c87848761160e565b905080841315610e7a578093505b5050509392505050565b8251602084015160408501516060860151600093849390929091845b896080015151811015610fbf5760008a608001518281518110610ebf57fe5b602002602001015190506000610ed882604001516112dc565b90506000610ee983606001516112dc565b8351909150158015610f0d57508b6001600160a01b0316826001600160a01b031611155b8015610f2b5750806001600160a01b03168c6001600160a01b031611155b15610f7c57600160601b610f4284604001516112dc565b610f4f85606001516112dc565b0384602001516001600160801b0316026001600160a01b031681610f6f57fe5b0485019450505050610fb7565b600080610f8f8e8585886020015161162a565b8651919350915015610fa8579881019897880197610fb1565b96810196958601955b50505050505b600101610ea0565b506000610fd5888a6001600160a01b03166116c6565b9050871561100457670de0b6b3a76400008482020485019650670de0b6b3a76400008282020483019550611027565b83670de0b6b3a76400008683020401965081670de0b6b3a7640000848302040195505b5050505050935093915050565b608081015151815115158061104d575060008260200151115b15611056576001015b60008260400151118061106d575060008260600151115b156101be57600101919050565b611082611994565b60408051600080825260208201909252816110b3565b6110a06119c3565b8152602001906001900390816110985790505b5090506040518060a00160405280600081526020016000815260200160008152602001600081526020018281525091505090565b825160009081906110f990829061178e565b915061111285602001518261178e90919063ffffffff16565b905061112b85604001518361097a90919063ffffffff16565b915061114485606001518261097a90919063ffffffff16565b845190915061115490839061097a565b915061116d84602001518261097a90919063ffffffff16565b905061118684604001518361178e90919063ffffffff16565b915061119f84606001518261178e90919063ffffffff16565b905060005b856080015151811015611245576000866080015182815181106111c357fe5b602002602001015190506000806111f8876111e185604001516112dc565b6111ee86606001516112dc565b866020015161162a565b84519193509150156112215761120e868361178e565b955061121a858261178e565b945061123a565b61122b868361097a565b9550611237858261097a565b94505b5050506001016111a4565b5060005b8460800151518110156112d35760008560800151828151811061126857fe5b60200260200101519050600080611286876111e185604001516112dc565b84519193509150156112af5761129c868361097a565b95506112a8858261097a565b94506112c8565b6112b9868361178e565b95506112c5858261178e565b94505b505050600101611249565b50935093915050565b60008060008360020b126112f3578260020b6112fb565b8260020b6000035b9050620d89e8811115611339576040805162461bcd60e51b81526020600482015260016024820152601560fa1b604482015290519081900360640190fd5b60006001821661134d57600160801b61135f565b6ffffcb933bd6fad37aa2d162d1a5940015b70ffffffffffffffffffffffffffffffffff1690506002821615611393576ffff97272373d413259a46990580e213a0260801c5b60048216156113b2576ffff2e50f5f656932ef12357cf3c7fdcc0260801c5b60088216156113d1576fffe5caca7e10e4e61c3624eaa0941cd00260801c5b60108216156113f0576fffcb9843d60f6159c9db58835c9266440260801c5b602082161561140f576fff973b41fa98c081472e6896dfb254c00260801c5b604082161561142e576fff2ea16466c96a3843ec78b326b528610260801c5b608082161561144d576ffe5dee046a99a2a811c461f1969c30530260801c5b61010082161561146d576ffcbe86c7900a88aedcffc83b479aa3a40260801c5b61020082161561148d576ff987a7253ac413176f2b074cf7815e540260801c5b6104008216156114ad576ff3392b0822b70005940c7a398e4b70f30260801c5b6108008216156114cd576fe7159475a2c29b7443b29c7fa6e889d90260801c5b6110008216156114ed576fd097f3bdfd2022b8845ad8f792aa58250260801c5b61200082161561150d576fa9f746462d870fdf8a65dc1f90e061e50260801c5b61400082161561152d576f70d869a156d2a1b890bb3df62baf32f70260801c5b61800082161561154d576f31be135f97d08fd981231505542fcfa60260801c5b6201000082161561156e576f09aa508b5b7a84e1c677de54f3e99bc90260801c5b6202000082161561158e576e5d6af8dedb81196699c329225ee6040260801c5b620400008216156115ad576d2216e584f5fa1ea926041bedfe980260801c5b620800008216156115ca576b048a170391f7dc42444e8fa20260801c5b60008460020b13156115e55780600019816115e157fe5b0490505b6401000000008106156115f95760016115fc565b60005b60ff16602082901c0192505050919050565b600080600061161e868686610e84565b90039695505050505050565b600080836001600160a01b0316856001600160a01b0316111561164b579293925b846001600160a01b0316866001600160a01b0316116116765761166f8585856117f3565b91506116bd565b836001600160a01b0316866001600160a01b031610156116af5761169b8685856117f3565b91506116a885878561185c565b90506116bd565b6116ba85858561185c565b90505b94509492505050565b6000670de0b6b3a7640000831561172e576116ef838483600160c01b816116e957fe5b046118a7565b91508161170e576ec097ce7bc90715b34b9f1000000000915050610974565b816ec097ce7bc90715b34b9f10000000008161172657fe5b04915061174f565b600160601b816117438586600160601b6118a7565b028161174b57fe5b0491505b6ec097ce7bc90715b34b9f100000000082111561177d576ec097ce7bc90715b34b9f10000000009150611787565b8161178757600191505b5092915050565b60008183038183128015906117a35750838113155b806117b857506000831280156117b857508381135b6105e45760405162461bcd60e51b8152600401808060200182810382526024815260200180611ea16024913960400191505060405180910390fd5b6000826001600160a01b0316846001600160a01b03161115611813579192915b836001600160a01b031661184c606060ff16846001600160801b0316901b8686036001600160a01b0316866001600160a01b03166118a7565b8161185357fe5b04949350505050565b6000826001600160a01b0316846001600160a01b0316111561187c579192915b61189f826001600160801b03168585036001600160a01b0316600160601b6118a7565b949350505050565b60008080600019858709868602925082811090839003039050806118dd57600084116118d257600080fd5b5082900490506105e4565b8084116118e957600080fd5b6000848688096000868103871696879004966002600389028118808a02820302808a02820302808a02820302808a02820302808a02820302808a02909103029181900381900460010186841190950394909402919094039290920491909117919091029150509392505050565b6040805160e08101909152806000815260006020820181905260408201819052606082018190526080820181905260a0820181905260c09091015290565b6040518060a0016040528060008152602001600081526020016000815260200160008152602001606081525090565b60408051608081018252600080825260208201819052918101829052606081019190915290565b8035600281900b81146101be57600080fd5b600060a08284031215611a0d578081fd5b6040805160a0810167ffffffffffffffff8282108183111715611a2c57fe5b8184528294508535835260209150818601358284015283860135848401526060808701358185015260808088013583811115611a6757600080fd5b8801601f81018a13611a7857600080fd5b803584811115611a8457fe5b611a918687830201611e35565b81815286810190838801858402850189018e1015611aae57600080fd5b600094505b83851015611b3b5785818f031215611aca57600080fd5b8a518681018181108a82111715611add57fe5b8c528135611aea81611e71565b8152818a01356001600160801b0381168114611b0557600080fd5b818b0152611b14828d016119ea565b8c820152611b238883016119ea565b81890152835260019490940193918801918501611ab3565b5080858a01525050505050505050505092915050565b600060808284031215611b62578081fd5b6040516080810181811067ffffffffffffffff82111715611b7f57fe5b8060405250809150825181526020830151602082015260408301516040820152606083015160608201525092915050565b60008060008060008060008060006101e08a8c031215611bce578485fd5b8951611bd981611e59565b60208b0151909950611bea81611e59565b60408b015190985062ffffff81168114611c02578586fd5b60608b0151909750611c1381611e59565b60808b0151909650611c2481611e59565b60a08b0151909550611c3581611e59565b60c08b0151909450611c4681611e71565b9250611c558b60e08c01611b51565b9150611c658b6101608c01611b51565b90509295985092959850929598565b600060208284031215611c85578081fd5b81516105e481611e71565b600060208284031215611ca1578081fd5b813567ffffffffffffffff811115611cb7578182fd5b61189f848285016119fc565b60008060408385031215611cd5578182fd5b823567ffffffffffffffff811115611ceb578283fd5b611cf7858286016119fc565b95602094909401359450505050565b600080600060608486031215611d1a578283fd5b833567ffffffffffffffff811115611d30578384fd5b611d3c868287016119fc565b9660208601359650604090950135949350505050565b600060208284031215611d63578081fd5b81516105e481611e59565b60020b9052565b6060808252845182820181905260009190608090818501906020808a01865b83811015611e115781518051600a8110611daa57fe5b8652808401511515848701526040808201516001600160801b03169087015287810151611dd989880182611d6e565b5086810151611dea88880182611d6e565b5060a0818101519087015260c0908101519086015260e09094019390820190600101611d94565b50508601979097526040909401949094525090949350505050565b90815260200190565b60405181810167ffffffffffffffff81118282101715611e5157fe5b604052919050565b6001600160a01b0381168114611e6e57600080fd5b50565b8015158114611e6e57600080fdfe5369676e6564536166654d6174683a206164646974696f6e206f766572666c6f775369676e6564536166654d6174683a207375627472616374696f6e206f766572666c6f77a2646970667358221220e7cf17259d0002433ed3cd177eaca02413e0021e658173b308cb380efd4ebb2d64736f6c63430007060033",
  "devdoc": {
    "kind": "dev",
    "methods": {},
    "version": 1
  },
  "userdoc": {
    "kind": "user",
    "methods": {},
    "version": 1
  },
  "storageLayout": {
    "storage": [
      {
        "astId": 13610,
        "contract": "src/ControllerHelper.sol:ControllerHelper",
        "label": "controller",
        "offset": 0,
        "slot": "0",
        "type": "t_contract(Controller)13593"
      }
    ],
    "types": {
      "t_contract(Controller)13593": {
        "encoding": "inplace",
        "label": "contract Controller",
        "numberOfBytes": "20"
      }
    }
  }
}