{
  "address": "0x0E3be33a870b5B39eb417A935e80714Ec33Ccf5b",
  "abi": [
    {
      "inputs": [],
      "stateMutability": "nonpayable",
      "type": "constructor"
    },
    {
      "anonymous": false,
      "inputs": [
        {
          "indexed": false,
          "internalType": "uint256",
          "name": "vaultId",
          "type": "uint256"
        },
        {
          "indexed": false,
          "internalType": "int256",
          "name": "a0",
          "type": "int256"
        },
        {
          "indexed": false,
          "internalType": "int256",
          "name": "a1",
          "type": "int256"
        },
        {
          "indexed": false,
          "internalType": "uint160",
          "name": "sqrtPrice",
          "type": "uint160"
        },
        {
          "components": [
            {
              "internalType": "uint256",
              "name": "subVaultIndex",
              "type": "uint256"
            },
            {
              "internalType": "bytes",
              "name": "metadata",
              "type": "bytes"
            }
          ],
          "indexed": false,
          "internalType": "struct DataType.MetaData",
          "name": "metadata",
          "type": "tuple"
        }
      ],
      "name": "PositionUpdated",
      "type": "event"
    },
    {
      "anonymous": false,
      "inputs": [
        {
          "indexed": false,
          "internalType": "uint256",
          "name": "vaultId",
          "type": "uint256"
        },
        {
          "indexed": false,
          "internalType": "address",
          "name": "owner",
          "type": "address"
        }
      ],
      "name": "VaultCreated",
      "type": "event"
    },
    {
      "inputs": [
        {
          "internalType": "bytes32",
          "name": "_rangeId",
          "type": "bytes32"
        }
      ],
      "name": "calculateYearlyPremium",
      "outputs": [
        {
          "internalType": "uint256",
          "name": "",
          "type": "uint256"
        }
      ],
      "stateMutability": "view",
      "type": "function"
    },
    {
      "inputs": [
        {
          "internalType": "uint256",
          "name": "_vaultId",
          "type": "uint256"
        }
      ],
      "name": "checkLiquidatable",
      "outputs": [
        {
          "internalType": "bool",
          "name": "",
          "type": "bool"
        }
      ],
      "stateMutability": "nonpayable",
      "type": "function"
    },
    {
      "inputs": [
        {
          "internalType": "uint256",
          "name": "_vaultId",
          "type": "uint256"
        },
        {
          "components": [
            {
              "internalType": "uint256",
              "name": "subVaultIndex",
              "type": "uint256"
            },
            {
              "internalType": "uint256",
              "name": "collateral0",
              "type": "uint256"
            },
            {
              "internalType": "uint256",
              "name": "collateral1",
              "type": "uint256"
            },
            {
              "internalType": "uint256",
              "name": "debt0",
              "type": "uint256"
            },
            {
              "internalType": "uint256",
              "name": "debt1",
              "type": "uint256"
            },
            {
              "components": [
                {
                  "internalType": "bool",
                  "name": "isCollateral",
                  "type": "bool"
                },
                {
                  "internalType": "uint128",
                  "name": "liquidity",
                  "type": "uint128"
                },
                {
                  "internalType": "int24",
                  "name": "lowerTick",
                  "type": "int24"
                },
                {
                  "internalType": "int24",
                  "name": "upperTick",
                  "type": "int24"
                }
              ],
              "internalType": "struct DataType.LPT[]",
              "name": "lpts",
              "type": "tuple[]"
            }
          ],
          "internalType": "struct DataType.Position[]",
          "name": "_positions",
          "type": "tuple[]"
        },
        {
          "components": [
            {
              "internalType": "bool",
              "name": "reduceOnly",
              "type": "bool"
            },
            {
              "internalType": "bool",
              "name": "swapAnyway",
              "type": "bool"
            },
            {
              "internalType": "bool",
              "name": "quoterMode",
              "type": "bool"
            },
            {
              "internalType": "bool",
              "name": "isQuoteZero",
              "type": "bool"
            },
            {
              "internalType": "int256",
              "name": "targetMarginAmount0",
              "type": "int256"
            },
            {
              "internalType": "int256",
              "name": "targetMarginAmount1",
              "type": "int256"
            }
          ],
          "internalType": "struct DataType.TradeOption",
          "name": "_tradeOption",
          "type": "tuple"
        },
        {
          "components": [
            {
              "internalType": "uint256",
              "name": "lowerSqrtPrice",
              "type": "uint256"
            },
            {
              "internalType": "uint256",
              "name": "upperSqrtPrice",
              "type": "uint256"
            },
            {
              "internalType": "bool",
              "name": "isZeroForOne",
              "type": "bool"
            },
            {
              "internalType": "uint256",
              "name": "swapAmount",
              "type": "uint256"
            },
            {
              "components": [
                {
                  "internalType": "uint256",
                  "name": "subVaultIndex",
                  "type": "uint256"
                },
                {
                  "internalType": "bytes",
                  "name": "metadata",
                  "type": "bytes"
                }
              ],
              "internalType": "struct DataType.MetaData",
              "name": "metadata",
              "type": "tuple"
            }
          ],
          "internalType": "struct DataType.ClosePositionOption",
          "name": "_closePositionOptions",
          "type": "tuple"
        }
      ],
      "name": "closePosition",
      "outputs": [],
      "stateMutability": "nonpayable",
      "type": "function"
    },
    {
      "inputs": [
        {
          "internalType": "uint256",
          "name": "_vaultId",
          "type": "uint256"
        },
        {
          "internalType": "uint256",
          "name": "_subVaultIndex",
          "type": "uint256"
        },
        {
          "components": [
            {
              "internalType": "bool",
              "name": "reduceOnly",
              "type": "bool"
            },
            {
              "internalType": "bool",
              "name": "swapAnyway",
              "type": "bool"
            },
            {
              "internalType": "bool",
              "name": "quoterMode",
              "type": "bool"
            },
            {
              "internalType": "bool",
              "name": "isQuoteZero",
              "type": "bool"
            },
            {
              "internalType": "int256",
              "name": "targetMarginAmount0",
              "type": "int256"
            },
            {
              "internalType": "int256",
              "name": "targetMarginAmount1",
              "type": "int256"
            }
          ],
          "internalType": "struct DataType.TradeOption",
          "name": "_tradeOption",
          "type": "tuple"
        },
        {
          "components": [
            {
              "internalType": "uint256",
              "name": "lowerSqrtPrice",
              "type": "uint256"
            },
            {
              "internalType": "uint256",
              "name": "upperSqrtPrice",
              "type": "uint256"
            },
            {
              "internalType": "bool",
              "name": "isZeroForOne",
              "type": "bool"
            },
            {
              "internalType": "uint256",
              "name": "swapAmount",
              "type": "uint256"
            },
            {
              "components": [
                {
                  "internalType": "uint256",
                  "name": "subVaultIndex",
                  "type": "uint256"
                },
                {
                  "internalType": "bytes",
                  "name": "metadata",
                  "type": "bytes"
                }
              ],
              "internalType": "struct DataType.MetaData",
              "name": "metadata",
              "type": "tuple"
            }
          ],
          "internalType": "struct DataType.ClosePositionOption",
          "name": "_closePositionOptions",
          "type": "tuple"
        }
      ],
      "name": "closeSubVault",
      "outputs": [],
      "stateMutability": "nonpayable",
      "type": "function"
    },
    {
      "inputs": [
        {
          "internalType": "uint256",
          "name": "_vaultId",
          "type": "uint256"
        },
        {
          "components": [
            {
              "internalType": "bool",
              "name": "reduceOnly",
              "type": "bool"
            },
            {
              "internalType": "bool",
              "name": "swapAnyway",
              "type": "bool"
            },
            {
              "internalType": "bool",
              "name": "quoterMode",
              "type": "bool"
            },
            {
              "internalType": "bool",
              "name": "isQuoteZero",
              "type": "bool"
            },
            {
              "internalType": "int256",
              "name": "targetMarginAmount0",
              "type": "int256"
            },
            {
              "internalType": "int256",
              "name": "targetMarginAmount1",
              "type": "int256"
            }
          ],
          "internalType": "struct DataType.TradeOption",
          "name": "_tradeOption",
          "type": "tuple"
        },
        {
          "components": [
            {
              "internalType": "uint256",
              "name": "lowerSqrtPrice",
              "type": "uint256"
            },
            {
              "internalType": "uint256",
              "name": "upperSqrtPrice",
              "type": "uint256"
            },
            {
              "internalType": "bool",
              "name": "isZeroForOne",
              "type": "bool"
            },
            {
              "internalType": "uint256",
              "name": "swapAmount",
              "type": "uint256"
            },
            {
              "components": [
                {
                  "internalType": "uint256",
                  "name": "subVaultIndex",
                  "type": "uint256"
                },
                {
                  "internalType": "bytes",
                  "name": "metadata",
                  "type": "bytes"
                }
              ],
              "internalType": "struct DataType.MetaData",
              "name": "metadata",
              "type": "tuple"
            }
          ],
          "internalType": "struct DataType.ClosePositionOption",
          "name": "_closePositionOptions",
          "type": "tuple"
        }
      ],
      "name": "closeVault",
      "outputs": [],
      "stateMutability": "nonpayable",
      "type": "function"
    },
    {
      "inputs": [],
      "name": "dpmParams",
      "outputs": [
        {
          "components": [
            {
              "internalType": "uint256",
              "name": "baseRate",
              "type": "uint256"
            },
            {
              "internalType": "uint256",
              "name": "kinkRate",
              "type": "uint256"
            },
            {
              "internalType": "uint256",
              "name": "slope1",
              "type": "uint256"
            },
            {
              "internalType": "uint256",
              "name": "slope2",
              "type": "uint256"
            }
          ],
          "internalType": "struct InterestCalculator.IRMParams",
          "name": "premiumParams",
          "type": "tuple"
        },
        {
          "components": [
            {
              "internalType": "uint256",
              "name": "baseRate",
              "type": "uint256"
            },
            {
              "internalType": "uint256",
              "name": "kinkRate",
              "type": "uint256"
            },
            {
              "internalType": "uint256",
              "name": "slope1",
              "type": "uint256"
            },
            {
              "internalType": "uint256",
              "name": "slope2",
              "type": "uint256"
            }
          ],
          "internalType": "struct InterestCalculator.IRMParams",
          "name": "irmParams",
          "type": "tuple"
        }
      ],
      "stateMutability": "view",
      "type": "function"
    },
    {
      "inputs": [
        {
          "internalType": "bytes[]",
          "name": "_data",
          "type": "bytes[]"
        }
      ],
      "name": "forceClose",
      "outputs": [],
      "stateMutability": "nonpayable",
      "type": "function"
    },
    {
      "inputs": [],
      "name": "getAssetStatus",
      "outputs": [
        {
          "internalType": "uint256",
          "name": "",
          "type": "uint256"
        },
        {
          "internalType": "uint256",
          "name": "",
          "type": "uint256"
        },
        {
          "internalType": "uint256",
          "name": "",
          "type": "uint256"
        },
        {
          "internalType": "uint256",
          "name": "",
          "type": "uint256"
        },
        {
          "internalType": "uint256",
          "name": "",
          "type": "uint256"
        },
        {
          "internalType": "uint256",
          "name": "",
          "type": "uint256"
        }
      ],
      "stateMutability": "view",
      "type": "function"
    },
    {
      "inputs": [],
      "name": "getContext",
      "outputs": [
        {
          "internalType": "bool",
          "name": "",
          "type": "bool"
        },
        {
          "internalType": "uint256",
          "name": "",
          "type": "uint256"
        },
        {
          "internalType": "uint256",
          "name": "",
          "type": "uint256"
        },
        {
          "internalType": "address",
          "name": "",
          "type": "address"
        },
        {
          "internalType": "uint256",
          "name": "",
          "type": "uint256"
        },
        {
          "internalType": "uint256",
          "name": "",
          "type": "uint256"
        }
      ],
      "stateMutability": "view",
      "type": "function"
    },
    {
      "inputs": [
        {
          "internalType": "bytes32",
          "name": "_rangeId",
          "type": "bytes32"
        }
      ],
      "name": "getLPTStatus",
      "outputs": [
        {
          "internalType": "uint256",
          "name": "",
          "type": "uint256"
        },
        {
          "internalType": "uint256",
          "name": "",
          "type": "uint256"
        },
        {
          "internalType": "uint256",
          "name": "",
          "type": "uint256"
        }
      ],
      "stateMutability": "view",
      "type": "function"
    },
    {
      "inputs": [
        {
          "internalType": "uint256",
          "name": "_vaultId",
          "type": "uint256"
        }
      ],
      "name": "getPosition",
      "outputs": [
        {
          "components": [
            {
              "internalType": "uint256",
              "name": "subVaultIndex",
              "type": "uint256"
            },
            {
              "internalType": "uint256",
              "name": "collateral0",
              "type": "uint256"
            },
            {
              "internalType": "uint256",
              "name": "collateral1",
              "type": "uint256"
            },
            {
              "internalType": "uint256",
              "name": "debt0",
              "type": "uint256"
            },
            {
              "internalType": "uint256",
              "name": "debt1",
              "type": "uint256"
            },
            {
              "components": [
                {
                  "internalType": "bool",
                  "name": "isCollateral",
                  "type": "bool"
                },
                {
                  "internalType": "uint128",
                  "name": "liquidity",
                  "type": "uint128"
                },
                {
                  "internalType": "int24",
                  "name": "lowerTick",
                  "type": "int24"
                },
                {
                  "internalType": "int24",
                  "name": "upperTick",
                  "type": "int24"
                }
              ],
              "internalType": "struct DataType.LPT[]",
              "name": "lpts",
              "type": "tuple[]"
            }
          ],
          "internalType": "struct DataType.Position[]",
          "name": "",
          "type": "tuple[]"
        }
      ],
      "stateMutability": "nonpayable",
      "type": "function"
    },
    {
      "inputs": [
        {
          "internalType": "bytes32",
          "name": "_rangeId",
          "type": "bytes32"
        }
      ],
      "name": "getRange",
      "outputs": [
        {
          "components": [
            {
              "internalType": "uint256",
              "name": "tokenId",
              "type": "uint256"
            },
            {
              "internalType": "int24",
              "name": "lowerTick",
              "type": "int24"
            },
            {
              "internalType": "int24",
              "name": "upperTick",
              "type": "int24"
            },
            {
              "internalType": "uint128",
              "name": "borrowedLiquidity",
              "type": "uint128"
            },
            {
              "internalType": "uint256",
              "name": "premiumGrowthForBorrower",
              "type": "uint256"
            },
            {
              "internalType": "uint256",
              "name": "premiumGrowthForLender",
              "type": "uint256"
            },
            {
              "internalType": "uint256",
              "name": "fee0Growth",
              "type": "uint256"
            },
            {
              "internalType": "uint256",
              "name": "fee1Growth",
              "type": "uint256"
            },
            {
              "internalType": "uint256",
              "name": "lastTouchedTimestamp",
              "type": "uint256"
            }
          ],
          "internalType": "struct DataType.PerpStatus",
          "name": "",
          "type": "tuple"
        }
      ],
      "stateMutability": "view",
      "type": "function"
    },
    {
      "inputs": [],
      "name": "getSqrtPrice",
      "outputs": [
        {
          "internalType": "uint160",
          "name": "sqrtPriceX96",
          "type": "uint160"
        }
      ],
      "stateMutability": "view",
      "type": "function"
    },
    {
      "inputs": [
        {
          "internalType": "uint256",
          "name": "_subVaultId",
          "type": "uint256"
        }
      ],
      "name": "getSubVault",
      "outputs": [
        {
          "components": [
            {
              "components": [
                {
                  "internalType": "uint256",
                  "name": "collateralAmount",
                  "type": "uint256"
                },
                {
                  "internalType": "uint256",
                  "name": "debtAmount",
                  "type": "uint256"
                },
                {
                  "internalType": "uint256",
                  "name": "collateralEntryAmount",
                  "type": "uint256"
                }
              ],
              "internalType": "struct BaseToken.AccountState",
              "name": "balance0",
              "type": "tuple"
            },
            {
              "components": [
                {
                  "internalType": "uint256",
                  "name": "collateralAmount",
                  "type": "uint256"
                },
                {
                  "internalType": "uint256",
                  "name": "debtAmount",
                  "type": "uint256"
                },
                {
                  "internalType": "uint256",
                  "name": "collateralEntryAmount",
                  "type": "uint256"
                }
              ],
              "internalType": "struct BaseToken.AccountState",
              "name": "balance1",
              "type": "tuple"
            },
            {
              "components": [
                {
                  "internalType": "bool",
                  "name": "isCollateral",
                  "type": "bool"
                },
                {
                  "internalType": "bytes32",
                  "name": "rangeId",
                  "type": "bytes32"
                },
                {
                  "internalType": "uint128",
                  "name": "liquidityAmount",
                  "type": "uint128"
                },
                {
                  "internalType": "uint256",
                  "name": "premiumGrowthLast",
                  "type": "uint256"
                },
                {
                  "internalType": "uint256",
                  "name": "fee0Last",
                  "type": "uint256"
                },
                {
                  "internalType": "uint256",
                  "name": "fee1Last",
                  "type": "uint256"
                }
              ],
              "internalType": "struct DataType.LPTState[]",
              "name": "lpts",
              "type": "tuple[]"
            }
          ],
          "internalType": "struct DataType.SubVault",
          "name": "",
          "type": "tuple"
        }
      ],
      "stateMutability": "view",
      "type": "function"
    },
    {
      "inputs": [
        {
          "internalType": "uint256",
          "name": "_vaultId",
          "type": "uint256"
        }
      ],
      "name": "getVault",
      "outputs": [
        {
          "components": [
            {
              "internalType": "uint256",
              "name": "vaultId",
              "type": "uint256"
            },
            {
              "internalType": "address",
              "name": "owner",
              "type": "address"
            },
            {
              "internalType": "uint256",
              "name": "marginAmount0",
              "type": "uint256"
            },
            {
              "internalType": "uint256",
              "name": "marginAmount1",
              "type": "uint256"
            },
            {
              "internalType": "uint256[]",
              "name": "subVaults",
              "type": "uint256[]"
            }
          ],
          "internalType": "struct DataType.Vault",
          "name": "",
          "type": "tuple"
        }
      ],
      "stateMutability": "view",
      "type": "function"
    },
    {
      "inputs": [
        {
          "internalType": "uint256",
          "name": "_vaultId",
          "type": "uint256"
        }
      ],
      "name": "getVaultStatus",
      "outputs": [
        {
          "components": [
            {
              "internalType": "uint256",
              "name": "marginValue",
              "type": "uint256"
            },
            {
              "internalType": "int256",
              "name": "minCollateral",
              "type": "int256"
            },
            {
              "components": [
                {
                  "components": [
                    {
                      "internalType": "uint256",
                      "name": "collateralValue",
                      "type": "uint256"
                    },
                    {
                      "internalType": "uint256",
                      "name": "debtValue",
                      "type": "uint256"
                    },
                    {
                      "internalType": "int256",
                      "name": "premiumValue",
                      "type": "int256"
                    }
                  ],
                  "internalType": "struct DataType.VaultStatusValue",
                  "name": "values",
                  "type": "tuple"
                },
                {
                  "components": [
                    {
                      "internalType": "uint256",
                      "name": "collateralAmount0",
                      "type": "uint256"
                    },
                    {
                      "internalType": "uint256",
                      "name": "collateralAmount1",
                      "type": "uint256"
                    },
                    {
                      "internalType": "uint256",
                      "name": "debtAmount0",
                      "type": "uint256"
                    },
                    {
                      "internalType": "uint256",
                      "name": "debtAmount1",
                      "type": "uint256"
                    },
                    {
                      "internalType": "uint256",
                      "name": "receivedTradeAmount0",
                      "type": "uint256"
                    },
                    {
                      "internalType": "uint256",
                      "name": "receivedTradeAmount1",
                      "type": "uint256"
                    },
                    {
                      "internalType": "uint256",
                      "name": "receivedPremium",
                      "type": "uint256"
                    },
                    {
                      "internalType": "uint256",
                      "name": "paidpremium",
                      "type": "uint256"
                    }
                  ],
                  "internalType": "struct DataType.VaultStatusAmount",
                  "name": "amount",
                  "type": "tuple"
                }
              ],
              "internalType": "struct DataType.SubVaultStatus[]",
              "name": "subVaults",
              "type": "tuple[]"
            }
          ],
          "internalType": "struct DataType.VaultStatus",
          "name": "",
          "type": "tuple"
        }
      ],
      "stateMutability": "nonpayable",
      "type": "function"
    },
    {
      "inputs": [
        {
          "components": [
            {
              "internalType": "uint24",
              "name": "feeTier",
              "type": "uint24"
            },
            {
              "internalType": "address",
              "name": "token0",
              "type": "address"
            },
            {
              "internalType": "address",
              "name": "token1",
              "type": "address"
            },
            {
              "internalType": "bool",
              "name": "isMarginZero",
              "type": "bool"
            }
          ],
          "internalType": "struct DataType.InitializationParams",
          "name": "_initializationParams",
          "type": "tuple"
        },
        {
          "internalType": "address",
          "name": "_positionManager",
          "type": "address"
        },
        {
          "internalType": "address",
          "name": "_factory",
          "type": "address"
        },
        {
          "internalType": "address",
          "name": "_swapRouter",
          "type": "address"
        }
      ],
      "name": "initialize",
      "outputs": [],
      "stateMutability": "nonpayable",
      "type": "function"
    },
    {
      "inputs": [],
      "name": "irmParams",
      "outputs": [
        {
          "internalType": "uint256",
          "name": "baseRate",
          "type": "uint256"
        },
        {
          "internalType": "uint256",
          "name": "kinkRate",
          "type": "uint256"
        },
        {
          "internalType": "uint256",
          "name": "slope1",
          "type": "uint256"
        },
        {
          "internalType": "uint256",
          "name": "slope2",
          "type": "uint256"
        }
      ],
      "stateMutability": "view",
      "type": "function"
    },
    {
      "inputs": [],
      "name": "lastTouchedTimestamp",
      "outputs": [
        {
          "internalType": "uint256",
          "name": "",
          "type": "uint256"
        }
      ],
      "stateMutability": "view",
      "type": "function"
    },
    {
      "inputs": [
        {
          "internalType": "uint256",
          "name": "_vaultId",
          "type": "uint256"
        },
        {
          "components": [
            {
              "internalType": "uint256",
              "name": "lowerSqrtPrice",
              "type": "uint256"
            },
            {
              "internalType": "uint256",
              "name": "upperSqrtPrice",
              "type": "uint256"
            },
            {
              "internalType": "bool",
              "name": "isZeroForOne",
              "type": "bool"
            },
            {
              "internalType": "uint256",
              "name": "swapAmount",
              "type": "uint256"
            },
            {
              "internalType": "bool",
              "name": "swapAnyway",
              "type": "bool"
            }
          ],
          "internalType": "struct DataType.LiquidationOption",
          "name": "_liquidationOption",
          "type": "tuple"
        }
      ],
      "name": "liquidate",
      "outputs": [],
      "stateMutability": "nonpayable",
      "type": "function"
    },
    {
      "inputs": [
        {
          "internalType": "uint256",
          "name": "_vaultId",
          "type": "uint256"
        },
        {
          "components": [
            {
              "internalType": "uint256",
              "name": "subVaultIndex",
              "type": "uint256"
            },
            {
              "internalType": "uint256",
              "name": "collateral0",
              "type": "uint256"
            },
            {
              "internalType": "uint256",
              "name": "collateral1",
              "type": "uint256"
            },
            {
              "internalType": "uint256",
              "name": "debt0",
              "type": "uint256"
            },
            {
              "internalType": "uint256",
              "name": "debt1",
              "type": "uint256"
            },
            {
              "components": [
                {
                  "internalType": "bool",
                  "name": "isCollateral",
                  "type": "bool"
                },
                {
                  "internalType": "uint128",
                  "name": "liquidity",
                  "type": "uint128"
                },
                {
                  "internalType": "int24",
                  "name": "lowerTick",
                  "type": "int24"
                },
                {
                  "internalType": "int24",
                  "name": "upperTick",
                  "type": "int24"
                }
              ],
              "internalType": "struct DataType.LPT[]",
              "name": "lpts",
              "type": "tuple[]"
            }
          ],
          "internalType": "struct DataType.Position",
          "name": "_position",
          "type": "tuple"
        },
        {
          "components": [
            {
              "internalType": "bool",
              "name": "reduceOnly",
              "type": "bool"
            },
            {
              "internalType": "bool",
              "name": "swapAnyway",
              "type": "bool"
            },
            {
              "internalType": "bool",
              "name": "quoterMode",
              "type": "bool"
            },
            {
              "internalType": "bool",
              "name": "isQuoteZero",
              "type": "bool"
            },
            {
              "internalType": "int256",
              "name": "targetMarginAmount0",
              "type": "int256"
            },
            {
              "internalType": "int256",
              "name": "targetMarginAmount1",
              "type": "int256"
            }
          ],
          "internalType": "struct DataType.TradeOption",
          "name": "_tradeOption",
          "type": "tuple"
        },
        {
          "components": [
            {
              "internalType": "uint256",
              "name": "lowerSqrtPrice",
              "type": "uint256"
            },
            {
              "internalType": "uint256",
              "name": "upperSqrtPrice",
              "type": "uint256"
            },
            {
              "internalType": "uint256",
              "name": "bufferAmount0",
              "type": "uint256"
            },
            {
              "internalType": "uint256",
              "name": "bufferAmount1",
              "type": "uint256"
            },
            {
              "internalType": "int256",
              "name": "swapAmount",
              "type": "int256"
            },
            {
              "components": [
                {
                  "internalType": "uint256",
                  "name": "subVaultIndex",
                  "type": "uint256"
                },
                {
                  "internalType": "bytes",
                  "name": "metadata",
                  "type": "bytes"
                }
              ],
              "internalType": "struct DataType.MetaData",
              "name": "metadata",
              "type": "tuple"
            }
          ],
          "internalType": "struct DataType.OpenPositionOption",
          "name": "_openPositionOptions",
          "type": "tuple"
        }
      ],
      "name": "openPosition",
      "outputs": [
        {
          "internalType": "uint256",
          "name": "vaultId",
          "type": "uint256"
        }
      ],
      "stateMutability": "nonpayable",
      "type": "function"
    },
    {
      "inputs": [],
      "name": "operator",
      "outputs": [
        {
          "internalType": "address",
          "name": "",
          "type": "address"
        }
      ],
      "stateMutability": "view",
      "type": "function"
    },
    {
      "inputs": [
        {
          "internalType": "address",
          "name": "_newOperator",
          "type": "address"
        }
      ],
      "name": "setOperator",
      "outputs": [],
      "stateMutability": "nonpayable",
      "type": "function"
    },
    {
      "inputs": [
        {
          "components": [
            {
              "internalType": "uint256",
              "name": "baseRate",
              "type": "uint256"
            },
            {
              "internalType": "uint256",
              "name": "kinkRate",
              "type": "uint256"
            },
            {
              "internalType": "uint256",
              "name": "slope1",
              "type": "uint256"
            },
            {
              "internalType": "uint256",
              "name": "slope2",
              "type": "uint256"
            }
          ],
          "internalType": "struct InterestCalculator.IRMParams",
          "name": "_irmParams",
          "type": "tuple"
        },
        {
          "components": [
            {
              "internalType": "uint256",
              "name": "baseRate",
              "type": "uint256"
            },
            {
              "internalType": "uint256",
              "name": "kinkRate",
              "type": "uint256"
            },
            {
              "internalType": "uint256",
              "name": "slope1",
              "type": "uint256"
            },
            {
              "internalType": "uint256",
              "name": "slope2",
              "type": "uint256"
            }
          ],
          "internalType": "struct InterestCalculator.IRMParams",
          "name": "_premiumParams",
          "type": "tuple"
        }
      ],
      "name": "updateDRMParams",
      "outputs": [],
      "stateMutability": "nonpayable",
      "type": "function"
    },
    {
      "inputs": [
        {
          "components": [
            {
              "internalType": "uint256",
              "name": "baseRate",
              "type": "uint256"
            },
            {
              "internalType": "uint256",
              "name": "kinkRate",
              "type": "uint256"
            },
            {
              "internalType": "uint256",
              "name": "slope1",
              "type": "uint256"
            },
            {
              "internalType": "uint256",
              "name": "slope2",
              "type": "uint256"
            }
          ],
          "internalType": "struct InterestCalculator.IRMParams",
          "name": "_irmParams",
          "type": "tuple"
        }
      ],
      "name": "updateIRMParams",
      "outputs": [],
      "stateMutability": "nonpayable",
      "type": "function"
    },
    {
      "inputs": [
        {
          "internalType": "uint256",
          "name": "_vaultId",
          "type": "uint256"
        },
        {
          "components": [
            {
              "internalType": "enum DataType.PositionUpdateType",
              "name": "positionUpdateType",
              "type": "uint8"
            },
            {
              "internalType": "uint256",
              "name": "subVaultIndex",
              "type": "uint256"
            },
            {
              "internalType": "bool",
              "name": "zeroForOne",
              "type": "bool"
            },
            {
              "internalType": "uint128",
              "name": "liquidity",
              "type": "uint128"
            },
            {
              "internalType": "int24",
              "name": "lowerTick",
              "type": "int24"
            },
            {
              "internalType": "int24",
              "name": "upperTick",
              "type": "int24"
            },
            {
              "internalType": "uint256",
              "name": "param0",
              "type": "uint256"
            },
            {
              "internalType": "uint256",
              "name": "param1",
              "type": "uint256"
            }
          ],
          "internalType": "struct DataType.PositionUpdate[]",
          "name": "_positionUpdates",
          "type": "tuple[]"
        },
        {
          "internalType": "uint256",
          "name": "_buffer0",
          "type": "uint256"
        },
        {
          "internalType": "uint256",
          "name": "_buffer1",
          "type": "uint256"
        },
        {
          "components": [
            {
              "internalType": "bool",
              "name": "reduceOnly",
              "type": "bool"
            },
            {
              "internalType": "bool",
              "name": "swapAnyway",
              "type": "bool"
            },
            {
              "internalType": "bool",
              "name": "quoterMode",
              "type": "bool"
            },
            {
              "internalType": "bool",
              "name": "isQuoteZero",
              "type": "bool"
            },
            {
              "internalType": "int256",
              "name": "targetMarginAmount0",
              "type": "int256"
            },
            {
              "internalType": "int256",
              "name": "targetMarginAmount1",
              "type": "int256"
            }
          ],
          "internalType": "struct DataType.TradeOption",
          "name": "_tradeOption",
          "type": "tuple"
        },
        {
          "components": [
            {
              "internalType": "uint256",
              "name": "subVaultIndex",
              "type": "uint256"
            },
            {
              "internalType": "bytes",
              "name": "metadata",
              "type": "bytes"
            }
          ],
          "internalType": "struct DataType.MetaData",
          "name": "_metadata",
          "type": "tuple"
        }
      ],
      "name": "updatePosition",
      "outputs": [
        {
          "internalType": "uint256",
          "name": "vaultId",
          "type": "uint256"
        }
      ],
      "stateMutability": "nonpayable",
      "type": "function"
    },
    {
      "inputs": [
        {
          "internalType": "uint256",
          "name": "_amount0",
          "type": "uint256"
        },
        {
          "internalType": "uint256",
          "name": "_amount1",
          "type": "uint256"
        }
      ],
      "name": "withdrawProtocolFee",
      "outputs": [],
      "stateMutability": "nonpayable",
      "type": "function"
    }
  ],
  "transactionHash": "0xbeaa02ae92bb355d6bae487660bbe75f388e4ee9c02af340e708a22ab436f279",
  "args": [],
  "solcInputHash": "fd2dd3dc62478959ba1e884e778e8426",
  "bytecode": "0x608060405234801561001057600080fd5b5061570780620000216000396000f3fe608060405234801561001057600080fd5b50600436106101a95760003560e01c8063570ca735116100f9578063b3ab15fb11610097578063cd22534611610071578063cd225346146103cd578063eb02c301146103e0578063ee6097f014610400578063fea9a2c214610413576101a9565b8063b3ab15fb14610385578063c04ed3d314610398578063c13c0f80146103ba576101a9565b8063859a9c80116100d3578063859a9c801461033757806386e6862d1461034a5780639403b63414610352578063a0d0259614610372576101a9565b8063570ca735146102fc57806365b5f6e3146103115780636871577314610324576101a9565b806330050fbd116101665780633e129715116101405780633e1297151461028a57806345615716146102aa57806349ebb77d146102c457806351be57d3146102e4576101a9565b806330050fbd1461024457806333a9d060146102645780633743d14214610277576101a9565b8063012a883f146101ae578063013216f5146101cd578063127f0f07146101ed578063191269e714610207578063275892a2146102275780632bef96521461022f575b600080fd5b6101b6610426565b6040516101c4929190614f22565b60405180910390f35b6101e06101db366004613e1f565b61047f565b6040516101c49190614f3e565b6101f561051b565b6040516101c496959493929190614d82565b61021a610215366004614579565b610544565b6040516101c491906153d3565b61021a610617565b61024261023d3660046146dd565b61061d565b005b610257610252366004613e1f565b610686565b6040516101c49190614fd7565b610242610272366004613e75565b610795565b6102426102853660046146bc565b610800565b61029d610298366004613e1f565b6108aa565b6040516101c49190614d77565b6102b2610958565b6040516101c496959493929190615585565b6102d76102d2366004613e1f565b610aa4565b6040516101c4919061508b565b6102ec610bf5565b6040516101c4949392919061556a565b610304610c04565b6040516101c49190614c20565b61024261031f366004613ccf565b610c13565b610242610332366004613e5a565b610d2c565b61021a610345366004614292565b610d74565b610304611022565b610365610360366004613e1f565b6110ab565b6040516101c4919061515c565b610242610380366004614416565b611152565b610242610393366004613cb3565b611213565b6103ab6103a6366004613e1f565b611272565b6040516101c493929190615554565b6102426103c8366004614666565b611376565b6102426103db3660046144e5565b61138f565b6103f36103ee366004613e1f565b61144e565b6040516101c49190614c4d565b61024261040e366004613eaa565b611462565b61021a610421366004613e1f565b611828565b6040805160808082018352601a548252601b54602080840191909152601c5483850152601d5460608085019190915284519283018552601e548352601f5483830152905493820193909352602154928101929092529082565b610487613401565b5060008181526002602081815260409283902083516101208101855281548152600182015480850b850b850b9382019390935263010000008304840b840b840b94810194909452600160301b9091046001600160801b03166060840152908101546080830152600381015460a0830152600481015460c0830152600581015460e0830152600601546101008201525b919050565b600a54600354600b5460145460155460ff600160a01b860416946001600160a01b031692939495565b60608201516080820151604051637c3cf7b560e01b8152600092839273bB896C2D284A8443d5c6E0C5A4948c53B00a075a92637c3cf7b59261058a928a92600401614fb2565b60006040518083038186803b1580156105a257600080fd5b505af41580156105b6573d6000803e3d6000fd5b505050506040513d6000823e601f3d908101601f191682016040526105de9190810190613d57565b90506105fa868285604001518660600151888860a00151610d74565b915061060e83600001518460200151611925565b50949350505050565b60015481565b604080516001808252818301909252600091816020015b61063c61345c565b81526020019060019003908161063457905050905061065b8585611966565b8160008151811061066857fe5b602002602001018190525061067f85828585611152565b5050505050565b61068e613492565b6000828152600560208181526040808420815160c0810183528154606080830191825260018401546080840152600284015460a08401529082528351908101845260038301548152600483015481860152948201548584015280840194909452600681018054835181860281018601855281815295969295938701949192909184015b828210156107875760008481526020908190206040805160c08101825260068602909201805460ff16151583526001808201548486015260028201546001600160801b03169284019290925260038101546060840152600481015460808401526005015460a08301529083529092019101610711565b505050915250909392505050565b6023546001600160a01b031633146107c85760405162461bcd60e51b81526004016107bf90614e58565b60405180910390fd5b8151601e55602080830151601f5560408084015182556060938401516021558251601a5590820151601b55810151601c550151601d55565b6023546001600160a01b0316331461082a5760405162461bcd60e51b81526004016107bf90614e58565b601454821180159061083e57506015548111155b61085a5760405162461bcd60e51b81526004016107bf90614ddf565b601480548390039055601580548290039055811561088957600654610889906001600160a01b03163384611acb565b80156108a6576007546108a6906001600160a01b03163383611acb565b5050565b60006108b582611c12565b600082815260046020819052604091829020915163194a268960e21b81527390F0f5cF6d501C1801c7adf73E3C0E5ffB43D55D926365289a249261090292600591600691600291016152aa565b60206040518083038186803b15801561091a57600080fd5b505af415801561092e573d6000803e3d6000fd5b505050506040513d601f19601f820116820180604052508101906109529190613e03565b92915050565b60408051608081018252600c548152600d546020820152600e5491810191909152600f5460608201526000908190819081908190819061099790611c52565b60408051608081018252600c548152600d546020820152600e5491810191909152600f5460608201526109c990611c6f565b60408051608081018252600c548152600d546020820152600e5491810191909152600f5460608201526109fb90611c8c565b6040805160808101825260105481526011546020820152601254918101919091526013546060820152610a2d90611c52565b6040805160808101825260105481526011546020820152601254918101919091526013546060820152610a5f90611c6f565b6040805160808101825260105481526011546020820152601254918101919091526013546060820152610a9190611c8c565b949b939a50919850965094509092509050565b610aac6134bf565b6000610ab6611022565b9050610ac183611c12565b600083815260046020818152604092839020835160a0810185528154815260018201546001600160a01b031681840152600282015481860152600382015460608201529281018054855181850281018501909652808652939491936080860193830182828015610b5057602002820191906000526020600020905b815481526020019060010190808311610b3c575b505050919092525050604051635d8d458360e11b8152738e0480aDd38E64E8c4CF3FB6F47Eb00bFd4375cC9263bb1a8b069250610b9a91600590600290600690889060040161525e565b60006040518083038186803b158015610bb257600080fd5b505af4158015610bc6573d6000803e3d6000fd5b505050506040513d6000823e601f3d908101601f19168201604052610bee9190810190613f9a565b9392505050565b60165460175460185460195484565b6023546001600160a01b031681565b6023546001600160a01b03163314610c3d5760405162461bcd60e51b81526004016107bf90614e58565b60005b81518110156108a657600080838381518110610c5857fe5b6020026020010151806020019051810190610c73919061424e565b91509150610c818282611cc7565b60008281526004602081905260408083209051637882621360e11b81527390F0f5cF6d501C1801c7adf73E3C0E5ffB43D55D9363f104c42693610cd193926005926006926002928a929101615395565b60206040518083038186803b158015610ce957600080fd5b505af4158015610cfd573d6000803e3d6000fd5b505050506040513d601f19601f82011682018060405250810190610d219190614236565b505050600101610c40565b6023546001600160a01b03163314610d565760405162461bcd60e51b81526004016107bf90614e58565b80516016556020810151601755604081015160185560600151601955565b60008415610d9457600654610d94906001600160a01b0316333088611ee4565b8315610db257600754610db2906001600160a01b0316333087611ee4565b610dbc8787611cc7565b6000610dcc88856040015161203c565b8092508193505050600080733229AeBedc747e9235240B2f5A9eCE88b748d86a63c827d03e846005600660028e8c6040518763ffffffff1660e01b8152600401610e1b969594939291906152e4565b604080518083038186803b158015610e3257600080fd5b505af4158015610e46573d6000803e3d6000fd5b505050506040513d601f19601f82011682018060405250810190610e6a9190613e37565b91509150856040015115610e8257610e82828261211b565b60405163194a268960e21b81527390F0f5cF6d501C1801c7adf73E3C0E5ffB43D55D906365289a2490610ec29086906005906006906002906004016152aa565b60206040518083038186803b158015610eda57600080fd5b505af4158015610eee573d6000803e3d6000fd5b505050506040513d601f19601f82011682018060405250810190610f129190613e03565b15610f2f5760405162461bcd60e51b81526004016107bf90614dc3565b81881215610f4f5760405162461bcd60e51b81526004016107bf90614e20565b80871215610f6f5760405162461bcd60e51b81526004016107bf90614e3c565b81881315610f9f576000610f83898461212c565b600654909150610f9d906001600160a01b03163383611acb565b505b80871315610fcf576000610fb3888361212c565b600754909150610fcd906001600160a01b03163383611acb565b505b7fcbcf11b4e5b631d29d66836bdd88114c58da1486109efcc4390bb2444c68a873848383610ffb611022565b8960405161100d9594939291906153f3565b60405180910390a15050509695505050505050565b600a5460408051633850c7bd60e01b815290516000926001600160a01b031691633850c7bd9160048281019260e0929190829003018186803b15801561106757600080fd5b505afa15801561107b573d6000803e3d6000fd5b505050506040513d601f19601f8201168201806040525081019061109f91906141a0565b50949695505050505050565b6110b36134e0565b600082815260046020818152604092839020835160a0810185528154815260018201546001600160a01b03168184015260028201548186015260038201546060820152928101805485518185028101850190965280865293949193608086019383018282801561114257602002820191906000526020600020905b81548152602001906001019080831161112e575b5050505050815250509050919050565b604080820151606083015191516342f98fa360e01b815260009273bB896C2D284A8443d5c6E0C5A4948c53B00a075a926342f98fa39261119792899291600401614d0a565b60006040518083038186803b1580156111af57600080fd5b505af41580156111c3573d6000803e3d6000fd5b505050506040513d6000823e601f3d908101601f191682016040526111eb9190810190613d57565b90506112008582600080878760800151610d74565b5061067f82600001518360200151611925565b6023546001600160a01b0316331461123d5760405162461bcd60e51b81526004016107bf90614e58565b6001600160a01b03811661125057600080fd5b602380546001600160a01b0319166001600160a01b0392909216919091179055565b60408051610180810182526006546001600160a01b039081168252600754808216602080850191909152600160a01b9182900462ffffff168486015260085483166060808601919091526009548416608080870191909152600a5494851660a08701529290930460ff16151560c0850152600b5460e085015284518083018652600c548152600d5481830152600e5481870152600f548185015261010085015284519182018552601054825260115482820152601254828601526013549282019290925261012083015260145461014083015260155461016083015260008481526002909152918220829182916113699190612191565b9250925092509193909250565b61138a8361138385612256565b8484611152565b505050565b600073bB896C2D284A8443d5c6E0C5A4948c53B00a075a6342f98fa36113b48561144e565b846040015185606001516040518463ffffffff1660e01b81526004016113dc93929190614d0a565b60006040518083038186803b1580156113f457600080fd5b505af4158015611408573d6000803e3d6000fd5b505050506040513d6000823e601f3d908101601f191682016040526114309190810190613d57565b905061143c838261238f565b61138a82600001518360200151611925565b606061145982611c12565b61095282612256565b600054610100900460ff168061147b575061147b612414565b80611489575060005460ff16155b6114c45760405162461bcd60e51b815260040180806020018281038252602e81526020018061565f602e913960400191505060405180910390fd5b600054610100900460ff161580156114ef576000805460ff1961ff0019909116610100171660011790555b845160078054602080890151600680546001600160a01b03199081166001600160a01b0393841617918290556040808d015162ffffff60a01b19909616600160a01b62ffffff998a16810291909117831696851696909617968790556060808e0151600a805460ff60a01b191691151589029190911790556008805484168e8716179055600980549093168b8616179092558051918201815291831681529185169282019290925291909204909216908201526115ac8482612425565b600a80546001600160a01b0319166001600160a01b0392831617905560016003819055600b5560065460405163095ea7b360e01b815291169063095ea7b3906115fd90889060001990600401614c34565b602060405180830381600087803b15801561161757600080fd5b505af115801561162b573d6000803e3d6000fd5b505050506040513d601f19601f8201168201806040525081019061164f9190613e03565b5060075460405163095ea7b360e01b81526001600160a01b039091169063095ea7b39061168490889060001990600401614c34565b602060405180830381600087803b15801561169e57600080fd5b505af11580156116b2573d6000803e3d6000fd5b505050506040513d601f19601f820116820180604052508101906116d69190613e03565b5060065460405163095ea7b360e01b81526001600160a01b039091169063095ea7b39061170b90869060001990600401614c34565b602060405180830381600087803b15801561172557600080fd5b505af1158015611739573d6000803e3d6000fd5b505050506040513d601f19601f8201168201806040525081019061175d9190613e03565b5060075460405163095ea7b360e01b81526001600160a01b039091169063095ea7b39061179290869060001990600401614c34565b602060405180830381600087803b1580156117ac57600080fd5b505af11580156117c0573d6000803e3d6000fd5b505050506040513d601f19601f820116820180604052508101906117e49190613e03565b506117ef600c612509565b6117f96010612509565b5042600155602380546001600160a01b03191633179055801561067f576000805461ff00191690555050505050565b60408051610180810182526006546001600160a01b039081168252600754808216602080850191909152600160a01b9182900462ffffff168486015260085483166060808601919091526009548416608080870191909152600a5494851660a08701529290930460ff16151560c0850152600b5460e085015284518083018652600c548152600d5481830152600e5481870152600f54818501526101008501528451918201855260105482526011548282015260125482860152601354928201929092526101208301526014546101408301526015546101608301526000848152600290915291822061095291601a91611920611022565b612521565b600061192f611022565b6001600160a01b0316905080831115801561194a5750818111155b61138a5760405162461bcd60e51b81526004016107bf90614e8f565b61196e61345c565b6000838152600460208181526040808420815160a0810183528154815260018201546001600160a01b0316818501526002820154818401526003820154606082015293810180548351818602810186019094528084529193608086019392908301828280156119fc57602002820191906000526020600020905b8154815260200190600101908083116119e8575b5050505050815250509050738e0480aDd38E64E8c4CF3FB6F47Eb00bFd4375cC634d476673846005600085608001518881518110611a3657fe5b60200260200101518152602001908152602001600020600260066040518563ffffffff1660e01b8152600401611a6f9493929190615481565b60006040518083038186803b158015611a8757600080fd5b505af4158015611a9b573d6000803e3d6000fd5b505050506040513d6000823e601f3d908101601f19168201604052611ac39190810190613f68565b949350505050565b604080516001600160a01b038481166024830152604480830185905283518084039091018152606490920183526020820180516001600160e01b031663a9059cbb60e01b1781529251825160009485949389169392918291908083835b60208310611b475780518252601f199092019160209182019101611b28565b6001836020036101000a0380198251168184511680821785525050505050509050019150506000604051808303816000865af19150503d8060008114611ba9576040519150601f19603f3d011682016040523d82523d6000602084013e611bae565b606091505b5091509150818015611bdc575080511580611bdc5750808060200190516020811015611bd957600080fd5b50515b61067f576040805162461bcd60e51b815260206004820152600260248201526114d560f21b604482015290519081900360640190fd5b60408051600080825260208201909252611c4f91839190611c49565b611c36613518565b815260200190600190039081611c2e5790505b50611cc7565b50565b600061095282600001518360400151670de0b6b3a7640000612687565b600061095282602001518360600151670de0b6b3a7640000612687565b8051600090611ca45750670de0b6b3a7640000610516565b610952611cb083611c6f565b670de0b6b3a7640000611cc285611c52565b612687565b6000828152600460208181526040808420815160a0810183528154815260018201546001600160a01b031681850152600282015481840152600382015460608201529381018054835181860281018601909452808452919360808601939290830182828015611d5557602002820191906000526020600020905b815481526020019060010190808311611d41575b505050505081525050905073e418524c04877f74391C798E6A56dCFB08905659639be7ca3f8260056002600687601a611d8c611022565b6040518863ffffffff1660e01b8152600401611dae9796959493929190615202565b60006040518083038186803b158015611dc657600080fd5b505af4158015611dda573d6000803e3d6000fd5b505060015460405163725acfd160e01b815273e418524c04877f74391C798E6A56dCFB08905659935063725acfd19250611e1d9160069160169190600401614ec8565b60206040518083038186803b158015611e3557600080fd5b505af4158015611e49573d6000803e3d6000fd5b505050506040513d601f19601f82011682018060405250810190611e6d9190614236565b60015560405162d85ecd60e61b8152733229AeBedc747e9235240B2f5A9eCE88b748d86a90633617b34090611eaf906006908590600590600290600401614eea565b60006040518083038186803b158015611ec757600080fd5b505af4158015611edb573d6000803e3d6000fd5b50505050505050565b604080516001600160a01b0385811660248301528481166044830152606480830185905283518084039091018152608490920183526020820180516001600160e01b03166323b872dd60e01b178152925182516000948594938a169392918291908083835b60208310611f685780518252601f199092019160209182019101611f49565b6001836020036101000a0380198251168184511680821785525050505050509050019150506000604051808303816000865af19150503d8060008114611fca576040519150601f19603f3d011682016040523d82523d6000602084013e611fcf565b606091505b5091509150818015611ffd575080511580611ffd5750808060200190516020811015611ffa57600080fd5b50515b612034576040805162461bcd60e51b815260206004820152600360248201526229aa2360e91b604482015290519081900360640190fd5b505050505050565b600080836120c1576003805460018082019092556000818152600460205260409081902082815590920180546001600160a01b03191633179081905591519093507fbf3e9c93de94306b70ac5b9411edf475545815333bf651b894b9eada6482c594916120b49185916001600160a01b0316906153dc565b60405180910390a1612105565b6000848152600460205260409020600101548492506001600160a01b03163314806120e95750825b6121055760405162461bcd60e51b81526004016107bf90614eac565b5060008181526004602052604090209250929050565b602051828152816020820152604081fd5b60008183038183128015906121415750838113155b80612156575060008312801561215657508381135b610bee5760405162461bcd60e51b81526004018080602001828103825260248152602001806156ae6024913960400191505060405180910390fd5b6040805161012081018252825481526001830154600281810b810b810b602084015263010000008204810b810b810b93830193909352600160301b90046001600160801b03166060820152908201546080820152600382015460a0820152600482015460c0820152600582015460e082015260068201546101008201526000908190819061222090869061269d565b6001850154600160301b90046001600160801b031661223f87876126bf565b9194506001600160801b0316925090509250925092565b6000818152600460208181526040808420815160a0810183528154815260018201546001600160a01b031681850152600282015481840152600382015460608281019190915294820180548451818702810187019095528085529596959194929360808601939092908301828280156122ee57602002820191906000526020600020905b8154815260200190600101908083116122da575b5050509190925250506040516325619d4960e21b8152919250738e0480aDd38E64E8c4CF3FB6F47Eb00bFd4375cC916395867524915061233b9084906005906002906006906004016151d2565b60006040518083038186803b15801561235357600080fd5b505af4158015612367573d6000803e3d6000fd5b505050506040513d6000823e601f3d908101601f19168201604052610bee9190810190613d89565b6123998282611cc7565b60008281526004602081905260409182902091516349b3bd7960e11b81527390F0f5cF6d501C1801c7adf73E3C0E5ffB43D55D926393677af2926123e892600591879160069160029101615362565b60006040518083038186803b15801561240057600080fd5b505af4158015612034573d6000803e3d6000fd5b600061241f3061275c565b15905090565b600081602001516001600160a01b031682600001516001600160a01b03161061244d57600080fd5b50805160208083015160409384015184516001600160a01b0394851681850152939091168385015262ffffff166060808401919091528351808403820181526080840185528051908301206001600160f81b031960a085015294901b6bffffffffffffffffffffffff191660a183015260b58201939093527fe34f199b19b2b4f47f68442619d555527d244f78a3297ea89325f843f87b8b5460d5808301919091528251808303909101815260f5909101909152805191012090565b670de0b6b3a764000060028201819055600390910155565b6001820154600090600160301b90046001600160801b03161561267c57600061254a85856126bf565b60a086015160018601549192506000916126079161257a918a9190600281810b9163010000009004900b87612762565b6040805161012081018252885481526001890154600281810b810b810b602084015263010000008204810b810b810b93830193909352600160301b90046001600160801b03166060820152908801546080820152600388015460a0820152600488015460c0820152600588015460e082015260068801546101008201526126029089906129c3565b612a6a565b9050600061266e8760c001516126538a60040160405180608001604052908160008201548152602001600182015481526020016002820154815260200160038201548152505086612a87565b60018901548890600281810b9163010000009004900b612afc565b919091019250611ac3915050565b506000949350505050565b6000611ac3826126978686612b94565b90612bed565b600081606001516001600160801b03166126b784846129c3565b019392505050565b6001810154604080516101208101825283548152600283810b810b810b602083015263010000008404810b810b810b92820192909252600160301b9092046001600160801b031660608301819052908301546080830152600383015460a0830152600483015460c0830152600583015460e08301526006830154610100830152600091610bee9190670de0b6b3a764000090611cc290879061269d565b3b151590565b600080856001600160a01b031663f30583996040518163ffffffff1660e01b815260040160206040518083038186803b15801561279e57600080fd5b505afa1580156127b2573d6000803e3d6000fd5b505050506040513d601f19601f820116820180604052508101906127d69190614236565b90506000866001600160a01b031663461413196040518163ffffffff1660e01b815260040160206040518083038186803b15801561281357600080fd5b505afa158015612827573d6000803e3d6000fd5b505050506040513d601f19601f8201168201806040525081019061284b9190614236565b90506000876001600160a01b0316633850c7bd6040518163ffffffff1660e01b815260040160e06040518083038186803b15801561288857600080fd5b505afa15801561289c573d6000803e3d6000fd5b505050506040513d601f19601f820116820180604052508101906128c091906141a0565b50505050509150506000806128ec6128d88b8b612c4c565b6128e28c8b612c4c565b8b8b878a8a612d18565b9150915060008989604051602001612905929190614c03565b6040516020818303038152906040528051906020012090506129b16129608d6000016040518060800160405290816000820154815260200160018201548152602001600282015481526020016003820154815250508a612a87565b8d600801600084815260200190815260200160002060405180608001604052908160008201548152602001600182015481526020016002820154815260200160038201548152505085858a8a612d95565b96505050505050505b95945050505050565b6060820151815160405163133f757160e31b815260009283926001600160a01b03909116916399fbab88916129fa916004016153d3565b6101806040518083038186803b158015612a1357600080fd5b505afa158015612a27573d6000803e3d6000fd5b505050506040513d601f19601f82011682018060405250810190612a4b9190614732565b50506001600160801b039092169a505050505050505050505092915050565b60008183670de0b6b3a76400000281612a7f57fe5b049392505050565b81516020830151600091908311612ab657670de0b6b3a76400008460400151840281612aaf57fe5b0401610bee565b670de0b6b3a7640000846040015185602001510281612ad157fe5b0481019050670de0b6b3a76400008460200151840385606001510281612af357fe5b04019392505050565b6000806000612b2586612b0e87612e14565b612b1787612e14565b670de0b6b3a7640000613146565b915091506000612b3e89886001600160a01b03166131e2565b90508815612b625782612b5a8383670de0b6b3a7640000612687565b019350612b7a565b81612b768483670de0b6b3a7640000612687565b0193505b670de0b6b3a7640000848902049998505050505050505050565b600082612ba357506000610952565b82820282848281612bb057fe5b0414610bee5760405162461bcd60e51b815260040180806020018281038252602181526020018061568d6021913960400191505060405180910390fd5b6000808211612c43576040805162461bcd60e51b815260206004820152601a60248201527f536166654d6174683a206469766973696f6e206279207a65726f000000000000604482015290519081900360640190fd5b818381612a7f57fe5b612c5461355e565b6000806000856001600160a01b031663f30dba93866040518263ffffffff1660e01b8152600401612c859190614db5565b6101006040518083038186803b158015612c9e57600080fd5b505afa158015612cb2573d6000803e3d6000fd5b505050506040513d601f19601f82011682018060405250810190612cd691906140f6565b975050505094509450505080612cfe5760405162461bcd60e51b81526004016107bf90614dfb565b506040805180820190915291825260208201529392505050565b6000806000808860020b8760020b12612d39575050885160208a0151612d49565b5050885160208a01519085039084035b6000808960020b8960020b1215612d68575050895160208b0151612d78565b5050895160208b01519087039086035b92909603959095039a949093039290920397509195505050505050565b60008060008760400151851115612dc9578760400151850388600001518803670de0b6b3a76400000281612dc557fe5b0491505b8760600151841115612df8578760600151840388602001518703670de0b6b3a76400000281612df457fe5b0490505b671bc16d674ec800008282018a02049998505050505050505050565b60008060008360020b12612e2b578260020b612e33565b8260020b6000035b9050620d89e8811115612e71576040805162461bcd60e51b81526020600482015260016024820152601560fa1b604482015290519081900360640190fd5b600060018216612e8557600160801b612e97565b6ffffcb933bd6fad37aa2d162d1a5940015b70ffffffffffffffffffffffffffffffffff1690506002821615612ecb576ffff97272373d413259a46990580e213a0260801c5b6004821615612eea576ffff2e50f5f656932ef12357cf3c7fdcc0260801c5b6008821615612f09576fffe5caca7e10e4e61c3624eaa0941cd00260801c5b6010821615612f28576fffcb9843d60f6159c9db58835c9266440260801c5b6020821615612f47576fff973b41fa98c081472e6896dfb254c00260801c5b6040821615612f66576fff2ea16466c96a3843ec78b326b528610260801c5b6080821615612f85576ffe5dee046a99a2a811c461f1969c30530260801c5b610100821615612fa5576ffcbe86c7900a88aedcffc83b479aa3a40260801c5b610200821615612fc5576ff987a7253ac413176f2b074cf7815e540260801c5b610400821615612fe5576ff3392b0822b70005940c7a398e4b70f30260801c5b610800821615613005576fe7159475a2c29b7443b29c7fa6e889d90260801c5b611000821615613025576fd097f3bdfd2022b8845ad8f792aa58250260801c5b612000821615613045576fa9f746462d870fdf8a65dc1f90e061e50260801c5b614000821615613065576f70d869a156d2a1b890bb3df62baf32f70260801c5b618000821615613085576f31be135f97d08fd981231505542fcfa60260801c5b620100008216156130a6576f09aa508b5b7a84e1c677de54f3e99bc90260801c5b620200008216156130c6576e5d6af8dedb81196699c329225ee6040260801c5b620400008216156130e5576d2216e584f5fa1ea926041bedfe980260801c5b62080000821615613102576b048a170391f7dc42444e8fa20260801c5b60008460020b131561311d57806000198161311957fe5b0490505b640100000000810615613131576001613134565b60005b60ff16602082901c0192505050919050565b600080836001600160a01b0316856001600160a01b03161115613167579293925b846001600160a01b0316866001600160a01b0316116131925761318b8585856132aa565b91506131d9565b836001600160a01b0316866001600160a01b031610156131cb576131b78685856132aa565b91506131c4858785613313565b90506131d9565b6131d6858585613313565b90505b94509492505050565b6000670de0b6b3a7640000831561324a5761320b838483600160c01b8161320557fe5b04613352565b91508161322a576ec097ce7bc90715b34b9f1000000000915050610952565b816ec097ce7bc90715b34b9f10000000008161324257fe5b04915061326b565b600160601b8161325f8586600160601b613352565b028161326757fe5b0491505b6ec097ce7bc90715b34b9f1000000000821115613299576ec097ce7bc90715b34b9f100000000091506132a3565b816132a357600191505b5092915050565b6000826001600160a01b0316846001600160a01b031611156132ca579192915b836001600160a01b0316613303606060ff16846001600160801b0316901b8686036001600160a01b0316866001600160a01b0316613352565b8161330a57fe5b04949350505050565b6000826001600160a01b0316846001600160a01b03161115613333579192915b611ac3826001600160801b03168585036001600160a01b0316600160601b5b6000808060001985870986860292508281109083900303905080613388576000841161337d57600080fd5b508290049050610bee565b80841161339457600080fd5b6000848688096000868103871696879004966002600389028118808a02820302808a02820302808a02820302808a02820302808a02820302808a02909103029181900381900460010186841190950394909402919094039290920491909117919091029150509392505050565b60405180610120016040528060008152602001600060020b8152602001600060020b815260200160006001600160801b0316815260200160008152602001600081526020016000815260200160008152602001600081525090565b6040518060c001604052806000815260200160008152602001600081526020016000815260200160008152602001606081525090565b60405180606001604052806134a5613578565b81526020016134b2613578565b8152602001606081525090565b60405180606001604052806000815260200160008152602001606081525090565b6040518060a001604052806000815260200160006001600160a01b031681526020016000815260200160008152602001606081525090565b604080516101008101909152806000815260006020820181905260408201819052606082018190526080820181905260a0820181905260c0820181905260e09091015290565b604051806040016040528060008152602001600081525090565b60405180606001604052806000815260200160008152602001600081525090565b8035610516816155f9565b8051610516816155f9565b600082601f8301126135bf578081fd5b813560206135d46135cf836155d0565b6155ad565b828152818101908583016080808602880185018910156135f2578687fd5b865b868110156136835781838b03121561360a578788fd5b604080518381018181106001600160401b038211171561362657fe5b825284356136338161560e565b81528488013561364281615638565b818901528482013561365381615629565b808383015250606091508185013561366a81615629565b91810191909152855293850193918101916001016135f4565b509198975050505050505050565b600082601f8301126136a1578081fd5b815160206136b16135cf836155d0565b828152818101908583016080808602880185018910156136cf578687fd5b865b868110156136835781838b0312156136e7578788fd5b604080518381018181106001600160401b038211171561370357fe5b825284516137108161560e565b81528488015161371f81615638565b818901528482015161373081615629565b808383015250606091508185015161374781615629565b91810191909152855293850193918101916001016136d1565b600082601f830112613770578081fd5b815160206137806135cf836155d0565b828152818101908583016101008086028801850189101561379f578687fd5b865b868110156136835781838b0312156137b7578788fd5b604080518381018181106001600160401b03821117156137d357fe5b82526137de856138de565b815287850151888201526137f3828601613864565b8282015260609150613806828601613c8b565b82820152608091506138198286016138f4565b8282015260a0915061382c8286016138f4565b9181019190915260c0848101519082015260e08085015190820152855293850193918101916001016137a1565b80356105168161560e565b80516105168161560e565b600082601f83011261387f578081fd5b81356001600160401b0381111561389257fe5b6138a5601f8201601f19166020016155ad565b8181528460208386010111156138b9578283fd5b816020850160208301379081016020019190915292915050565b80356105168161561c565b80516105168161561c565b803561051681615629565b805161051681615629565b600060a08284031215613910578081fd5b60405160a081016001600160401b03828210818311171561392d57fe5b816040528293508435835260208501356020840152604085013591506139528261560e565b81604084015260608501356060840152608085013591508082111561397657600080fd5b50613983858286016139ee565b6080830152505092915050565b6000608082840312156139a1578081fd5b604051608081018181106001600160401b03821117156139bd57fe5b8060405250809150823581526020830135602082015260408301356040820152606083013560608201525092915050565b6000604082840312156139ff578081fd5b604051604081016001600160401b038282108183111715613a1c57fe5b81604052829350843583526020850135915080821115613a3b57600080fd5b50613a488582860161386f565b6020830152505092915050565b600060c08284031215613a66578081fd5b60405160c081016001600160401b038282108183111715613a8357fe5b81604052829350843583526020850135602084015260408501356040840152606085013560608401526080850135608084015260a0850135915080821115613aca57600080fd5b50613ad7858286016135af565b60a0830152505092915050565b600060c08284031215613af5578081fd5b60405160c081016001600160401b038282108183111715613b1257fe5b81604052829350845183526020850151602084015260408501516040840152606085015160608401526080850151608084015260a0850151915080821115613b5957600080fd5b50613ad785828601613691565b600060c08284031215613b77578081fd5b60405160c081018181106001600160401b0382111715613b9357fe5b6040529050808235613ba48161560e565b81526020830135613bb48161560e565b60208201526040830135613bc78161560e565b6040820152613bd860608401613859565b60608201526080830135608082015260a083013560a08201525092915050565b6000610100808385031215613c0b578182fd5b604051908101906001600160401b0382118183101715613c2757fe5b81604052809250835181526020840151602082015260408401516040820152606084015160608201526080840151608082015260a084015160a082015260c084015160c082015260e084015160e0820152505092915050565b803561051681615638565b805161051681615638565b805161ffff8116811461051657600080fd5b80516105168161564d565b600060208284031215613cc4578081fd5b8135610bee816155f9565b60006020808385031215613ce1578182fd5b82356001600160401b03811115613cf6578283fd5b8301601f81018513613d06578283fd5b8035613d146135cf826155d0565b81815283810190838501865b84811015613d4957613d378a88843589010161386f565b84529286019290860190600101613d20565b509098975050505050505050565b600060208284031215613d68578081fd5b81516001600160401b03811115613d7d578182fd5b611ac384828501613760565b60006020808385031215613d9b578182fd5b82516001600160401b03811115613db0578283fd5b8301601f81018513613dc0578283fd5b8051613dce6135cf826155d0565b81815283810190838501865b84811015613d4957613df18a888451890101613ae4565b84529286019290860190600101613dda565b600060208284031215613e14578081fd5b8151610bee8161560e565b600060208284031215613e30578081fd5b5035919050565b60008060408385031215613e49578081fd5b505080516020909101519092909150565b600060808284031215613e6b578081fd5b610bee8383613990565b6000806101008385031215613e88578182fd5b613e928484613990565b9150613ea18460808501613990565b90509250929050565b60008060008084860360e0811215613ec0578283fd5b6080811215613ecd578283fd5b50604051608081018181106001600160401b0382111715613eea57fe5b6040528535613ef88161564d565b81526020860135613f08816155f9565b60208201526040860135613f1b816155f9565b60408201526060860135613f2e8161560e565b60608201529350613f4160808601613599565b9250613f4f60a08601613599565b9150613f5d60c08601613599565b905092959194509250565b600060208284031215613f79578081fd5b81516001600160401b03811115613f8e578182fd5b611ac384828501613ae4565b60006020808385031215613fac578182fd5b82516001600160401b0380821115613fc2578384fd5b9084019060608287031215613fd5578384fd5b60408051606081018181108482111715613feb57fe5b82528351815284840151858201528382015183811115614009578687fd5b80850194505087601f85011261401d578586fd5b835161402b6135cf826155d0565b8181528681019086880161016080850289018a018d101561404a578a8bfd5b8a98505b848910156140e157818d0381811215614065578b8cfd5b87518881018181108b8211171561407857fe5b808a526060831215614088578d8efd5b60a0820192508083108b8411171561409c57fe5b828a52845181528c8501516060830152898501516080830152808252506140c68f60608601613bf8565b818d015285525060019890980197928901929081019061404e565b50509383019390935250979650505050505050565b600080600080600080600080610100898b031215614112578586fd5b885161411d81615638565b80985050602089015180600f0b8114614134578687fd5b80975050604089015195506060890151945060808901518060060b8114614159578485fd5b60a08a015190945061416a816155f9565b60c08a015190935063ffffffff81168114614183578283fd5b915061419160e08a01613864565b90509295985092959890939650565b600080600080600080600060e0888a0312156141ba578081fd5b87516141c5816155f9565b60208901519097506141d681615629565b95506141e460408901613c96565b94506141f260608901613c96565b935061420060808901613c96565b925060a088015160ff81168114614215578182fd5b60c08901519092506142268161560e565b8091505092959891949750929550565b600060208284031215614247578081fd5b5051919050565b60008060408385031215614260578182fd5b8251915060208301516001600160401b0381111561427c578182fd5b61428885828601613760565b9150509250929050565b60008060008060008061016087890312156142ab578384fd5b8635955060208701356001600160401b03808211156142c8578586fd5b818901915089601f8301126142db578586fd5b81356142e96135cf826155d0565b80828252602082019150602085018d60206101008602880101111561430c57898afd5b8995505b838610156143c657610100818f03121561432857898afd5b6040516101008101818110878211171561433e57fe5b60405261434a826138d3565b81526020820135602082015261436260408301613859565b604082015261437360608301613c80565b6060820152614384608083016138e9565b608082015261439560a083016138e9565b60a082015260c0828101359082015260e0808301359082015283526001959095019460209092019161010001614310565b509850505060408901359550606089013594506143e68a60808b01613b66565b93506101408901359150808211156143fc578283fd5b5061440989828a016139ee565b9150509295509295509295565b600080600080610120858703121561442c578182fd5b843593506020808601356001600160401b038082111561444a578485fd5b818801915088601f83011261445d578485fd5b813561446b6135cf826155d0565b81815284810190848601885b848110156144a05761448e8e8984358a0101613a55565b84529287019290870190600101614477565b50508098505050506144b58960408a01613b66565b94506101008801359250808311156144cb578384fd5b50506144d9878288016138ff565b91505092959194509250565b60008082840360c08112156144f8578283fd5b8335925060a0601f198201121561450d578182fd5b5060405160a081018181106001600160401b038211171561452a57fe5b80604052506020840135815260408401356020820152606084013561454e8161560e565b60408201526080840135606082015261456960a08501613859565b6080820152809150509250929050565b600080600080610120858703121561458f578182fd5b8435935060208501356001600160401b03808211156145ac578384fd5b6145b888838901613a55565b94506145c78860408901613b66565b93506101008701359150808211156145dd578283fd5b9086019060c082890312156145f0578283fd5b60405160c08101818110838211171561460557fe5b8060405250823581526020830135602082015260408301356040820152606083013560608201526080830135608082015260a083013582811115614647578485fd5b6146538a8286016139ee565b60a0830152509598949750929550505050565b6000806000610100848603121561467b578081fd5b8335925061468c8560208601613b66565b915060e08401356001600160401b038111156146a6578182fd5b6146b2868287016138ff565b9150509250925092565b600080604083850312156146ce578182fd5b50508035926020909101359150565b60008060008061012085870312156146f3578182fd5b843593506020850135925061470b8660408701613b66565b91506101008501356001600160401b03811115614726578182fd5b6144d9878288016138ff565b6000806000806000806000806000806000806101808d8f031215614754578586fd5b8c516bffffffffffffffffffffffff8116811461476f578687fd5b9b5061477d60208e016135a4565b9a5061478b60408e016135a4565b995061479960608e016135a4565b98506147a760808e01613ca8565b97506147b560a08e016138f4565b96506147c360c08e016138f4565b95506147d160e08e01613c8b565b94506101008d015193506101208d015192506147f06101408e01613c8b565b91506147ff6101608e01613c8b565b90509295989b509295989b509295989b565b6001600160a01b03169052565b6000815180845260208085019450808401835b838110156148c05781518051600d811061484757fe5b8852808401518489015260408082015115159089015260608082015161486f828b0182614bed565b5050608080820151614883828b01826148d1565b505060a080820151614897828b01826148d1565b505060c0818101519089015260e090810151908801526101009096019590820190600101614831565b509495945050505050565b15159052565b60020b9052565b8051825260208082015190830152604090810151910152565b805482526001810154602083015260020154604090910152565b61491e8261491983546155ed565b614811565b60018101546001600160a01b0361493a60208501828416614811565b61494f6040850162ffffff8460a01c16614bfa565b61495c60028401546155ed565b915061496b6060850183614811565b61497860038401546155ed565b91506149876080850183614811565b6004830154915061499d60a08501828416614811565b506149b160c0840160ff8360a01c166148cb565b50600581015460e08301526149cd610100830160068301614a1c565b6149de6101808301600a8301614a1c565b600e810154610200830152600f015461022090910152565b805182526020810151602083015260408101516040830152606081015160608301525050565b80548252600181015460208301526002810154604083015260030154606090910152565b8051151582526001600160801b036020820151166020830152604081015160020b6040830152606081015160020b60608301525050565b600060c08301825184526020808401518186015260408401516040860152606084015160608601526080808501518187015260a085015160c060a088015283815180865260e08901915084830195508692505b80831015614af157614add828751614a40565b948401946001929092019190830190614aca565b50979650505050505050565b805182526020808201516001600160a01b031681840152604080830151908401526060808301519084015260808083015160a0918501829052805191850182905260009290810191839060c08701905b80831015614b6d5784518252938301936001929092019190830190614b4d565b509695505050505050565b600060a0830182548452600180600160a01b03818501541660208181880152600286015460408801526003860154606088015260048601915060a0608088015283825480865260c08901915083875282872095508693505b80841015614af15785548252948401949284019290820190614bd0565b6001600160801b03169052565b62ffffff169052565b600292830b60e890811b82529190920b901b600382015260060190565b6001600160a01b0391909116815260200190565b6001600160a01b03929092168252602082015260400190565b60208082528251828201819052600091906040908185019080840286018301878501865b83811015613d4957888303603f1901855281518051845287810151888501528681015187850152606080820151908501526080808201518186015260a09182015160c0928601839052805192860183905289019160e08601918b915b80831015614cf457614ce0848651614a40565b938b01939281019260019290920191614ccd565b5050509588019593505090860190600101614c71565b60006060820160608352808651808352608085019150602092506080838202860101838901855b83811015614d5f57607f19888403018552614d4d838351614a77565b94860194925090850190600101614d31565b50509615159285019290925250505060400152919050565b901515815260200190565b9515158652602086019490945260408501929092526001600160a01b03166060840152608083015260a082015260c00190565b60029190910b815260200190565b602080825260029082015261503360f01b604082015260600190565b6020808252600290820152610a0760f31b604082015260600190565b6020808252600b908201526a1a5b9a5d1a585b1a5e995960aa1b604082015260600190565b602080825260029082015261503560f01b604082015260600190565b602080825260029082015261281b60f11b604082015260600190565b60208082526017908201527f63616c6c6572206d757374206265206f70657261746f72000000000000000000604082015260600190565b60208082526003908201526221a41960e91b604082015260600190565b602080825260029082015261281960f11b604082015260600190565b83815260c08101614edc6020830185614a1c565b8260a0830152949350505050565b60006102a0614ef9838861490b565b80610240840152614f0c81840187614afd565b6102608401959095525050610280015292915050565b6101008101614f3182856149f6565b610bee60808301846149f6565b60006101208201905082518252602083015160020b6020830152604083015160020b60408301526060830151614f776060840182614bed565b506080830151608083015260a083015160a083015260c083015160c083015260e083015160e083015261010080840151818401525092915050565b600060608252614fc56060830186614a77565b93151560208301525060400152919050565b600060208083526101008301614ff082850186516148d8565b818501516080615002818701836148d8565b60408781015160e08881015280519485905285019390925085906101208801905b8083101561507e5785518051151583528781015188840152858101516001600160801b03168684015260608082015190840152848101518584015260a09081015190830152948601946001929092019160c090910190615023565b5098975050505050505050565b60006020808352608080840185518386015282860151604081818801528088015191506060808189015283835180865260a09550858a0191508785019450885b8181101561514c5785518051805185528a8101518b86015286015186850152890151805185850152808a01518985015280860151888501528481015160c0808601919091528982015160e0808701919091528983015161010087015290820151610120860152015161014084015294880194610160909201916001016150cb565b50909a9950505050505050505050565b6000602080835260c0830184518285015260018060a01b03828601511660408501526040850151606085015260608501516080850152608085015160a08086015281815180845260e08701915084830193508592505b80831015614b6d57835182529284019260019290920191908401906151b2565b60006102a08083526151e681840188614afd565b9150508460208301528360408301526129ba606083018461490b565b600060e0825261521560e083018a614afd565b8860208401528760408401528660608401528281036080840152615239818761481e565b60a084019590955250506001600160a01b039190911660c09091015295945050505050565b60006102c080835261527281840189614afd565b91505085602083015284604083015261528e606083018561490b565b6001600160a01b03929092166102a09190910152949350505050565b60006102a08083526152be81840188614b78565b9150508460208301526152d4604083018561490b565b8261028083015295945050505050565b60006101608883528760208401528660408401528560608401528060808401526153108184018661481e565b9150508251151560a08301526020830151151560c08301526040830151151560e083015260608301511515610100830152608083015161012083015260a0830151610140830152979650505050505050565b600086825285602083015260a0604083015261538160a083018661481e565b606083019490945250608001529392505050565b600087825286602083015285604083015284606083015260c060808301526153c060c083018561481e565b90508260a0830152979650505050505050565b90815260200190565b9182526001600160a01b0316602082015260400190565b60008682526020868184015285604084015260018060a01b038516606084015260a06080840152835160a084015280840151604060c085015280518060e0860152835b818110156154535782810184015186820161010001528301615436565b81811115615465578461010083880101525b50601f01601f1916939093016101000198975050505050505050565b60006102a08683526020818185015261038084016154a1838601896148f1565b600392506154b56103008601848a016148f1565b60e0610360860152600688810180549283905285528285209185906103a08801905b808310156155375760ff855416151582526001850154868301526001600160801b03600286015416604083015286850154606083015260048501546080830152600585015460a083015260c08201915083850194506001830192506154d7565b508096505050505050508360408301526129ba606083018461490b565b9283526020830191909152604082015260600190565b93845260208401929092526040830152606082015260800190565b958652602086019490945260408501929092526060840152608083015260a082015260c00190565b6040518181016001600160401b03811182821017156155c857fe5b604052919050565b60006001600160401b038211156155e357fe5b5060209081020190565b6001600160a01b031690565b6001600160a01b0381168114611c4f57600080fd5b8015158114611c4f57600080fd5b600d8110611c4f57600080fd5b8060020b8114611c4f57600080fd5b6001600160801b0381168114611c4f57600080fd5b62ffffff81168114611c4f57600080fdfe496e697469616c697a61626c653a20636f6e747261637420697320616c726561647920696e697469616c697a6564536166654d6174683a206d756c7469706c69636174696f6e206f766572666c6f775369676e6564536166654d6174683a207375627472616374696f6e206f766572666c6f77a26469706673582212206061b9f3c3d30945b6fad0795267e16104583d303b789e2fe574d711ea801b4364736f6c63430007060033",
  "deployedBytecode": "0x608060405234801561001057600080fd5b50600436106101a95760003560e01c8063570ca735116100f9578063b3ab15fb11610097578063cd22534611610071578063cd225346146103cd578063eb02c301146103e0578063ee6097f014610400578063fea9a2c214610413576101a9565b8063b3ab15fb14610385578063c04ed3d314610398578063c13c0f80146103ba576101a9565b8063859a9c80116100d3578063859a9c801461033757806386e6862d1461034a5780639403b63414610352578063a0d0259614610372576101a9565b8063570ca735146102fc57806365b5f6e3146103115780636871577314610324576101a9565b806330050fbd116101665780633e129715116101405780633e1297151461028a57806345615716146102aa57806349ebb77d146102c457806351be57d3146102e4576101a9565b806330050fbd1461024457806333a9d060146102645780633743d14214610277576101a9565b8063012a883f146101ae578063013216f5146101cd578063127f0f07146101ed578063191269e714610207578063275892a2146102275780632bef96521461022f575b600080fd5b6101b6610426565b6040516101c4929190614f22565b60405180910390f35b6101e06101db366004613e1f565b61047f565b6040516101c49190614f3e565b6101f561051b565b6040516101c496959493929190614d82565b61021a610215366004614579565b610544565b6040516101c491906153d3565b61021a610617565b61024261023d3660046146dd565b61061d565b005b610257610252366004613e1f565b610686565b6040516101c49190614fd7565b610242610272366004613e75565b610795565b6102426102853660046146bc565b610800565b61029d610298366004613e1f565b6108aa565b6040516101c49190614d77565b6102b2610958565b6040516101c496959493929190615585565b6102d76102d2366004613e1f565b610aa4565b6040516101c4919061508b565b6102ec610bf5565b6040516101c4949392919061556a565b610304610c04565b6040516101c49190614c20565b61024261031f366004613ccf565b610c13565b610242610332366004613e5a565b610d2c565b61021a610345366004614292565b610d74565b610304611022565b610365610360366004613e1f565b6110ab565b6040516101c4919061515c565b610242610380366004614416565b611152565b610242610393366004613cb3565b611213565b6103ab6103a6366004613e1f565b611272565b6040516101c493929190615554565b6102426103c8366004614666565b611376565b6102426103db3660046144e5565b61138f565b6103f36103ee366004613e1f565b61144e565b6040516101c49190614c4d565b61024261040e366004613eaa565b611462565b61021a610421366004613e1f565b611828565b6040805160808082018352601a548252601b54602080840191909152601c5483850152601d5460608085019190915284519283018552601e548352601f5483830152905493820193909352602154928101929092529082565b610487613401565b5060008181526002602081815260409283902083516101208101855281548152600182015480850b850b850b9382019390935263010000008304840b840b840b94810194909452600160301b9091046001600160801b03166060840152908101546080830152600381015460a0830152600481015460c0830152600581015460e0830152600601546101008201525b919050565b600a54600354600b5460145460155460ff600160a01b860416946001600160a01b031692939495565b60608201516080820151604051637c3cf7b560e01b8152600092839273__$7ffffda71c6e7abde662efb5427d8d1c5d$__92637c3cf7b59261058a928a92600401614fb2565b60006040518083038186803b1580156105a257600080fd5b505af41580156105b6573d6000803e3d6000fd5b505050506040513d6000823e601f3d908101601f191682016040526105de9190810190613d57565b90506105fa868285604001518660600151888860a00151610d74565b915061060e83600001518460200151611925565b50949350505050565b60015481565b604080516001808252818301909252600091816020015b61063c61345c565b81526020019060019003908161063457905050905061065b8585611966565b8160008151811061066857fe5b602002602001018190525061067f85828585611152565b5050505050565b61068e613492565b6000828152600560208181526040808420815160c0810183528154606080830191825260018401546080840152600284015460a08401529082528351908101845260038301548152600483015481860152948201548584015280840194909452600681018054835181860281018601855281815295969295938701949192909184015b828210156107875760008481526020908190206040805160c08101825260068602909201805460ff16151583526001808201548486015260028201546001600160801b03169284019290925260038101546060840152600481015460808401526005015460a08301529083529092019101610711565b505050915250909392505050565b6023546001600160a01b031633146107c85760405162461bcd60e51b81526004016107bf90614e58565b60405180910390fd5b8151601e55602080830151601f5560408084015182556060938401516021558251601a5590820151601b55810151601c550151601d55565b6023546001600160a01b0316331461082a5760405162461bcd60e51b81526004016107bf90614e58565b601454821180159061083e57506015548111155b61085a5760405162461bcd60e51b81526004016107bf90614ddf565b601480548390039055601580548290039055811561088957600654610889906001600160a01b03163384611acb565b80156108a6576007546108a6906001600160a01b03163383611acb565b5050565b60006108b582611c12565b600082815260046020819052604091829020915163194a268960e21b815273__$a1fa80d38d689cae49e54718da49b6432c$__926365289a249261090292600591600691600291016152aa565b60206040518083038186803b15801561091a57600080fd5b505af415801561092e573d6000803e3d6000fd5b505050506040513d601f19601f820116820180604052508101906109529190613e03565b92915050565b60408051608081018252600c548152600d546020820152600e5491810191909152600f5460608201526000908190819081908190819061099790611c52565b60408051608081018252600c548152600d546020820152600e5491810191909152600f5460608201526109c990611c6f565b60408051608081018252600c548152600d546020820152600e5491810191909152600f5460608201526109fb90611c8c565b6040805160808101825260105481526011546020820152601254918101919091526013546060820152610a2d90611c52565b6040805160808101825260105481526011546020820152601254918101919091526013546060820152610a5f90611c6f565b6040805160808101825260105481526011546020820152601254918101919091526013546060820152610a9190611c8c565b949b939a50919850965094509092509050565b610aac6134bf565b6000610ab6611022565b9050610ac183611c12565b600083815260046020818152604092839020835160a0810185528154815260018201546001600160a01b031681840152600282015481860152600382015460608201529281018054855181850281018501909652808652939491936080860193830182828015610b5057602002820191906000526020600020905b815481526020019060010190808311610b3c575b505050919092525050604051635d8d458360e11b815273__$b4a4919001844372a79711112cfb20c2b9$__9263bb1a8b069250610b9a91600590600290600690889060040161525e565b60006040518083038186803b158015610bb257600080fd5b505af4158015610bc6573d6000803e3d6000fd5b505050506040513d6000823e601f3d908101601f19168201604052610bee9190810190613f9a565b9392505050565b60165460175460185460195484565b6023546001600160a01b031681565b6023546001600160a01b03163314610c3d5760405162461bcd60e51b81526004016107bf90614e58565b60005b81518110156108a657600080838381518110610c5857fe5b6020026020010151806020019051810190610c73919061424e565b91509150610c818282611cc7565b60008281526004602081905260408083209051637882621360e11b815273__$a1fa80d38d689cae49e54718da49b6432c$__9363f104c42693610cd193926005926006926002928a929101615395565b60206040518083038186803b158015610ce957600080fd5b505af4158015610cfd573d6000803e3d6000fd5b505050506040513d601f19601f82011682018060405250810190610d219190614236565b505050600101610c40565b6023546001600160a01b03163314610d565760405162461bcd60e51b81526004016107bf90614e58565b80516016556020810151601755604081015160185560600151601955565b60008415610d9457600654610d94906001600160a01b0316333088611ee4565b8315610db257600754610db2906001600160a01b0316333087611ee4565b610dbc8787611cc7565b6000610dcc88856040015161203c565b809250819350505060008073__$da03e66f624374a74ff67f4d42d7f52632$__63c827d03e846005600660028e8c6040518763ffffffff1660e01b8152600401610e1b969594939291906152e4565b604080518083038186803b158015610e3257600080fd5b505af4158015610e46573d6000803e3d6000fd5b505050506040513d601f19601f82011682018060405250810190610e6a9190613e37565b91509150856040015115610e8257610e82828261211b565b60405163194a268960e21b815273__$a1fa80d38d689cae49e54718da49b6432c$__906365289a2490610ec29086906005906006906002906004016152aa565b60206040518083038186803b158015610eda57600080fd5b505af4158015610eee573d6000803e3d6000fd5b505050506040513d601f19601f82011682018060405250810190610f129190613e03565b15610f2f5760405162461bcd60e51b81526004016107bf90614dc3565b81881215610f4f5760405162461bcd60e51b81526004016107bf90614e20565b80871215610f6f5760405162461bcd60e51b81526004016107bf90614e3c565b81881315610f9f576000610f83898461212c565b600654909150610f9d906001600160a01b03163383611acb565b505b80871315610fcf576000610fb3888361212c565b600754909150610fcd906001600160a01b03163383611acb565b505b7fcbcf11b4e5b631d29d66836bdd88114c58da1486109efcc4390bb2444c68a873848383610ffb611022565b8960405161100d9594939291906153f3565b60405180910390a15050509695505050505050565b600a5460408051633850c7bd60e01b815290516000926001600160a01b031691633850c7bd9160048281019260e0929190829003018186803b15801561106757600080fd5b505afa15801561107b573d6000803e3d6000fd5b505050506040513d601f19601f8201168201806040525081019061109f91906141a0565b50949695505050505050565b6110b36134e0565b600082815260046020818152604092839020835160a0810185528154815260018201546001600160a01b03168184015260028201548186015260038201546060820152928101805485518185028101850190965280865293949193608086019383018282801561114257602002820191906000526020600020905b81548152602001906001019080831161112e575b5050505050815250509050919050565b604080820151606083015191516342f98fa360e01b815260009273__$7ffffda71c6e7abde662efb5427d8d1c5d$__926342f98fa39261119792899291600401614d0a565b60006040518083038186803b1580156111af57600080fd5b505af41580156111c3573d6000803e3d6000fd5b505050506040513d6000823e601f3d908101601f191682016040526111eb9190810190613d57565b90506112008582600080878760800151610d74565b5061067f82600001518360200151611925565b6023546001600160a01b0316331461123d5760405162461bcd60e51b81526004016107bf90614e58565b6001600160a01b03811661125057600080fd5b602380546001600160a01b0319166001600160a01b0392909216919091179055565b60408051610180810182526006546001600160a01b039081168252600754808216602080850191909152600160a01b9182900462ffffff168486015260085483166060808601919091526009548416608080870191909152600a5494851660a08701529290930460ff16151560c0850152600b5460e085015284518083018652600c548152600d5481830152600e5481870152600f548185015261010085015284519182018552601054825260115482820152601254828601526013549282019290925261012083015260145461014083015260155461016083015260008481526002909152918220829182916113699190612191565b9250925092509193909250565b61138a8361138385612256565b8484611152565b505050565b600073__$7ffffda71c6e7abde662efb5427d8d1c5d$__6342f98fa36113b48561144e565b846040015185606001516040518463ffffffff1660e01b81526004016113dc93929190614d0a565b60006040518083038186803b1580156113f457600080fd5b505af4158015611408573d6000803e3d6000fd5b505050506040513d6000823e601f3d908101601f191682016040526114309190810190613d57565b905061143c838261238f565b61138a82600001518360200151611925565b606061145982611c12565b61095282612256565b600054610100900460ff168061147b575061147b612414565b80611489575060005460ff16155b6114c45760405162461bcd60e51b815260040180806020018281038252602e81526020018061565f602e913960400191505060405180910390fd5b600054610100900460ff161580156114ef576000805460ff1961ff0019909116610100171660011790555b845160078054602080890151600680546001600160a01b03199081166001600160a01b0393841617918290556040808d015162ffffff60a01b19909616600160a01b62ffffff998a16810291909117831696851696909617968790556060808e0151600a805460ff60a01b191691151589029190911790556008805484168e8716179055600980549093168b8616179092558051918201815291831681529185169282019290925291909204909216908201526115ac8482612425565b600a80546001600160a01b0319166001600160a01b0392831617905560016003819055600b5560065460405163095ea7b360e01b815291169063095ea7b3906115fd90889060001990600401614c34565b602060405180830381600087803b15801561161757600080fd5b505af115801561162b573d6000803e3d6000fd5b505050506040513d601f19601f8201168201806040525081019061164f9190613e03565b5060075460405163095ea7b360e01b81526001600160a01b039091169063095ea7b39061168490889060001990600401614c34565b602060405180830381600087803b15801561169e57600080fd5b505af11580156116b2573d6000803e3d6000fd5b505050506040513d601f19601f820116820180604052508101906116d69190613e03565b5060065460405163095ea7b360e01b81526001600160a01b039091169063095ea7b39061170b90869060001990600401614c34565b602060405180830381600087803b15801561172557600080fd5b505af1158015611739573d6000803e3d6000fd5b505050506040513d601f19601f8201168201806040525081019061175d9190613e03565b5060075460405163095ea7b360e01b81526001600160a01b039091169063095ea7b39061179290869060001990600401614c34565b602060405180830381600087803b1580156117ac57600080fd5b505af11580156117c0573d6000803e3d6000fd5b505050506040513d601f19601f820116820180604052508101906117e49190613e03565b506117ef600c612509565b6117f96010612509565b5042600155602380546001600160a01b03191633179055801561067f576000805461ff00191690555050505050565b60408051610180810182526006546001600160a01b039081168252600754808216602080850191909152600160a01b9182900462ffffff168486015260085483166060808601919091526009548416608080870191909152600a5494851660a08701529290930460ff16151560c0850152600b5460e085015284518083018652600c548152600d5481830152600e5481870152600f54818501526101008501528451918201855260105482526011548282015260125482860152601354928201929092526101208301526014546101408301526015546101608301526000848152600290915291822061095291601a91611920611022565b612521565b600061192f611022565b6001600160a01b0316905080831115801561194a5750818111155b61138a5760405162461bcd60e51b81526004016107bf90614e8f565b61196e61345c565b6000838152600460208181526040808420815160a0810183528154815260018201546001600160a01b0316818501526002820154818401526003820154606082015293810180548351818602810186019094528084529193608086019392908301828280156119fc57602002820191906000526020600020905b8154815260200190600101908083116119e8575b505050505081525050905073__$b4a4919001844372a79711112cfb20c2b9$__634d476673846005600085608001518881518110611a3657fe5b60200260200101518152602001908152602001600020600260066040518563ffffffff1660e01b8152600401611a6f9493929190615481565b60006040518083038186803b158015611a8757600080fd5b505af4158015611a9b573d6000803e3d6000fd5b505050506040513d6000823e601f3d908101601f19168201604052611ac39190810190613f68565b949350505050565b604080516001600160a01b038481166024830152604480830185905283518084039091018152606490920183526020820180516001600160e01b031663a9059cbb60e01b1781529251825160009485949389169392918291908083835b60208310611b475780518252601f199092019160209182019101611b28565b6001836020036101000a0380198251168184511680821785525050505050509050019150506000604051808303816000865af19150503d8060008114611ba9576040519150601f19603f3d011682016040523d82523d6000602084013e611bae565b606091505b5091509150818015611bdc575080511580611bdc5750808060200190516020811015611bd957600080fd5b50515b61067f576040805162461bcd60e51b815260206004820152600260248201526114d560f21b604482015290519081900360640190fd5b60408051600080825260208201909252611c4f91839190611c49565b611c36613518565b815260200190600190039081611c2e5790505b50611cc7565b50565b600061095282600001518360400151670de0b6b3a7640000612687565b600061095282602001518360600151670de0b6b3a7640000612687565b8051600090611ca45750670de0b6b3a7640000610516565b610952611cb083611c6f565b670de0b6b3a7640000611cc285611c52565b612687565b6000828152600460208181526040808420815160a0810183528154815260018201546001600160a01b031681850152600282015481840152600382015460608201529381018054835181860281018601909452808452919360808601939290830182828015611d5557602002820191906000526020600020905b815481526020019060010190808311611d41575b505050505081525050905073__$d48eea142f8e4946a86e978d6ec5b9f014$__639be7ca3f8260056002600687601a611d8c611022565b6040518863ffffffff1660e01b8152600401611dae9796959493929190615202565b60006040518083038186803b158015611dc657600080fd5b505af4158015611dda573d6000803e3d6000fd5b505060015460405163725acfd160e01b815273__$d48eea142f8e4946a86e978d6ec5b9f014$__935063725acfd19250611e1d9160069160169190600401614ec8565b60206040518083038186803b158015611e3557600080fd5b505af4158015611e49573d6000803e3d6000fd5b505050506040513d601f19601f82011682018060405250810190611e6d9190614236565b60015560405162d85ecd60e61b815273__$da03e66f624374a74ff67f4d42d7f52632$__90633617b34090611eaf906006908590600590600290600401614eea565b60006040518083038186803b158015611ec757600080fd5b505af4158015611edb573d6000803e3d6000fd5b50505050505050565b604080516001600160a01b0385811660248301528481166044830152606480830185905283518084039091018152608490920183526020820180516001600160e01b03166323b872dd60e01b178152925182516000948594938a169392918291908083835b60208310611f685780518252601f199092019160209182019101611f49565b6001836020036101000a0380198251168184511680821785525050505050509050019150506000604051808303816000865af19150503d8060008114611fca576040519150601f19603f3d011682016040523d82523d6000602084013e611fcf565b606091505b5091509150818015611ffd575080511580611ffd5750808060200190516020811015611ffa57600080fd5b50515b612034576040805162461bcd60e51b815260206004820152600360248201526229aa2360e91b604482015290519081900360640190fd5b505050505050565b600080836120c1576003805460018082019092556000818152600460205260409081902082815590920180546001600160a01b03191633179081905591519093507fbf3e9c93de94306b70ac5b9411edf475545815333bf651b894b9eada6482c594916120b49185916001600160a01b0316906153dc565b60405180910390a1612105565b6000848152600460205260409020600101548492506001600160a01b03163314806120e95750825b6121055760405162461bcd60e51b81526004016107bf90614eac565b5060008181526004602052604090209250929050565b602051828152816020820152604081fd5b60008183038183128015906121415750838113155b80612156575060008312801561215657508381135b610bee5760405162461bcd60e51b81526004018080602001828103825260248152602001806156ae6024913960400191505060405180910390fd5b6040805161012081018252825481526001830154600281810b810b810b602084015263010000008204810b810b810b93830193909352600160301b90046001600160801b03166060820152908201546080820152600382015460a0820152600482015460c0820152600582015460e082015260068201546101008201526000908190819061222090869061269d565b6001850154600160301b90046001600160801b031661223f87876126bf565b9194506001600160801b0316925090509250925092565b6000818152600460208181526040808420815160a0810183528154815260018201546001600160a01b031681850152600282015481840152600382015460608281019190915294820180548451818702810187019095528085529596959194929360808601939092908301828280156122ee57602002820191906000526020600020905b8154815260200190600101908083116122da575b5050509190925250506040516325619d4960e21b815291925073__$b4a4919001844372a79711112cfb20c2b9$__916395867524915061233b9084906005906002906006906004016151d2565b60006040518083038186803b15801561235357600080fd5b505af4158015612367573d6000803e3d6000fd5b505050506040513d6000823e601f3d908101601f19168201604052610bee9190810190613d89565b6123998282611cc7565b60008281526004602081905260409182902091516349b3bd7960e11b815273__$a1fa80d38d689cae49e54718da49b6432c$__926393677af2926123e892600591879160069160029101615362565b60006040518083038186803b15801561240057600080fd5b505af4158015612034573d6000803e3d6000fd5b600061241f3061275c565b15905090565b600081602001516001600160a01b031682600001516001600160a01b03161061244d57600080fd5b50805160208083015160409384015184516001600160a01b0394851681850152939091168385015262ffffff166060808401919091528351808403820181526080840185528051908301206001600160f81b031960a085015294901b6bffffffffffffffffffffffff191660a183015260b58201939093527fe34f199b19b2b4f47f68442619d555527d244f78a3297ea89325f843f87b8b5460d5808301919091528251808303909101815260f5909101909152805191012090565b670de0b6b3a764000060028201819055600390910155565b6001820154600090600160301b90046001600160801b03161561267c57600061254a85856126bf565b60a086015160018601549192506000916126079161257a918a9190600281810b9163010000009004900b87612762565b6040805161012081018252885481526001890154600281810b810b810b602084015263010000008204810b810b810b93830193909352600160301b90046001600160801b03166060820152908801546080820152600388015460a0820152600488015460c0820152600588015460e082015260068801546101008201526126029089906129c3565b612a6a565b9050600061266e8760c001516126538a60040160405180608001604052908160008201548152602001600182015481526020016002820154815260200160038201548152505086612a87565b60018901548890600281810b9163010000009004900b612afc565b919091019250611ac3915050565b506000949350505050565b6000611ac3826126978686612b94565b90612bed565b600081606001516001600160801b03166126b784846129c3565b019392505050565b6001810154604080516101208101825283548152600283810b810b810b602083015263010000008404810b810b810b92820192909252600160301b9092046001600160801b031660608301819052908301546080830152600383015460a0830152600483015460c0830152600583015460e08301526006830154610100830152600091610bee9190670de0b6b3a764000090611cc290879061269d565b3b151590565b600080856001600160a01b031663f30583996040518163ffffffff1660e01b815260040160206040518083038186803b15801561279e57600080fd5b505afa1580156127b2573d6000803e3d6000fd5b505050506040513d601f19601f820116820180604052508101906127d69190614236565b90506000866001600160a01b031663461413196040518163ffffffff1660e01b815260040160206040518083038186803b15801561281357600080fd5b505afa158015612827573d6000803e3d6000fd5b505050506040513d601f19601f8201168201806040525081019061284b9190614236565b90506000876001600160a01b0316633850c7bd6040518163ffffffff1660e01b815260040160e06040518083038186803b15801561288857600080fd5b505afa15801561289c573d6000803e3d6000fd5b505050506040513d601f19601f820116820180604052508101906128c091906141a0565b50505050509150506000806128ec6128d88b8b612c4c565b6128e28c8b612c4c565b8b8b878a8a612d18565b9150915060008989604051602001612905929190614c03565b6040516020818303038152906040528051906020012090506129b16129608d6000016040518060800160405290816000820154815260200160018201548152602001600282015481526020016003820154815250508a612a87565b8d600801600084815260200190815260200160002060405180608001604052908160008201548152602001600182015481526020016002820154815260200160038201548152505085858a8a612d95565b96505050505050505b95945050505050565b6060820151815160405163133f757160e31b815260009283926001600160a01b03909116916399fbab88916129fa916004016153d3565b6101806040518083038186803b158015612a1357600080fd5b505afa158015612a27573d6000803e3d6000fd5b505050506040513d601f19601f82011682018060405250810190612a4b9190614732565b50506001600160801b039092169a505050505050505050505092915050565b60008183670de0b6b3a76400000281612a7f57fe5b049392505050565b81516020830151600091908311612ab657670de0b6b3a76400008460400151840281612aaf57fe5b0401610bee565b670de0b6b3a7640000846040015185602001510281612ad157fe5b0481019050670de0b6b3a76400008460200151840385606001510281612af357fe5b04019392505050565b6000806000612b2586612b0e87612e14565b612b1787612e14565b670de0b6b3a7640000613146565b915091506000612b3e89886001600160a01b03166131e2565b90508815612b625782612b5a8383670de0b6b3a7640000612687565b019350612b7a565b81612b768483670de0b6b3a7640000612687565b0193505b670de0b6b3a7640000848902049998505050505050505050565b600082612ba357506000610952565b82820282848281612bb057fe5b0414610bee5760405162461bcd60e51b815260040180806020018281038252602181526020018061568d6021913960400191505060405180910390fd5b6000808211612c43576040805162461bcd60e51b815260206004820152601a60248201527f536166654d6174683a206469766973696f6e206279207a65726f000000000000604482015290519081900360640190fd5b818381612a7f57fe5b612c5461355e565b6000806000856001600160a01b031663f30dba93866040518263ffffffff1660e01b8152600401612c859190614db5565b6101006040518083038186803b158015612c9e57600080fd5b505afa158015612cb2573d6000803e3d6000fd5b505050506040513d601f19601f82011682018060405250810190612cd691906140f6565b975050505094509450505080612cfe5760405162461bcd60e51b81526004016107bf90614dfb565b506040805180820190915291825260208201529392505050565b6000806000808860020b8760020b12612d39575050885160208a0151612d49565b5050885160208a01519085039084035b6000808960020b8960020b1215612d68575050895160208b0151612d78565b5050895160208b01519087039086035b92909603959095039a949093039290920397509195505050505050565b60008060008760400151851115612dc9578760400151850388600001518803670de0b6b3a76400000281612dc557fe5b0491505b8760600151841115612df8578760600151840388602001518703670de0b6b3a76400000281612df457fe5b0490505b671bc16d674ec800008282018a02049998505050505050505050565b60008060008360020b12612e2b578260020b612e33565b8260020b6000035b9050620d89e8811115612e71576040805162461bcd60e51b81526020600482015260016024820152601560fa1b604482015290519081900360640190fd5b600060018216612e8557600160801b612e97565b6ffffcb933bd6fad37aa2d162d1a5940015b70ffffffffffffffffffffffffffffffffff1690506002821615612ecb576ffff97272373d413259a46990580e213a0260801c5b6004821615612eea576ffff2e50f5f656932ef12357cf3c7fdcc0260801c5b6008821615612f09576fffe5caca7e10e4e61c3624eaa0941cd00260801c5b6010821615612f28576fffcb9843d60f6159c9db58835c9266440260801c5b6020821615612f47576fff973b41fa98c081472e6896dfb254c00260801c5b6040821615612f66576fff2ea16466c96a3843ec78b326b528610260801c5b6080821615612f85576ffe5dee046a99a2a811c461f1969c30530260801c5b610100821615612fa5576ffcbe86c7900a88aedcffc83b479aa3a40260801c5b610200821615612fc5576ff987a7253ac413176f2b074cf7815e540260801c5b610400821615612fe5576ff3392b0822b70005940c7a398e4b70f30260801c5b610800821615613005576fe7159475a2c29b7443b29c7fa6e889d90260801c5b611000821615613025576fd097f3bdfd2022b8845ad8f792aa58250260801c5b612000821615613045576fa9f746462d870fdf8a65dc1f90e061e50260801c5b614000821615613065576f70d869a156d2a1b890bb3df62baf32f70260801c5b618000821615613085576f31be135f97d08fd981231505542fcfa60260801c5b620100008216156130a6576f09aa508b5b7a84e1c677de54f3e99bc90260801c5b620200008216156130c6576e5d6af8dedb81196699c329225ee6040260801c5b620400008216156130e5576d2216e584f5fa1ea926041bedfe980260801c5b62080000821615613102576b048a170391f7dc42444e8fa20260801c5b60008460020b131561311d57806000198161311957fe5b0490505b640100000000810615613131576001613134565b60005b60ff16602082901c0192505050919050565b600080836001600160a01b0316856001600160a01b03161115613167579293925b846001600160a01b0316866001600160a01b0316116131925761318b8585856132aa565b91506131d9565b836001600160a01b0316866001600160a01b031610156131cb576131b78685856132aa565b91506131c4858785613313565b90506131d9565b6131d6858585613313565b90505b94509492505050565b6000670de0b6b3a7640000831561324a5761320b838483600160c01b8161320557fe5b04613352565b91508161322a576ec097ce7bc90715b34b9f1000000000915050610952565b816ec097ce7bc90715b34b9f10000000008161324257fe5b04915061326b565b600160601b8161325f8586600160601b613352565b028161326757fe5b0491505b6ec097ce7bc90715b34b9f1000000000821115613299576ec097ce7bc90715b34b9f100000000091506132a3565b816132a357600191505b5092915050565b6000826001600160a01b0316846001600160a01b031611156132ca579192915b836001600160a01b0316613303606060ff16846001600160801b0316901b8686036001600160a01b0316866001600160a01b0316613352565b8161330a57fe5b04949350505050565b6000826001600160a01b0316846001600160a01b03161115613333579192915b611ac3826001600160801b03168585036001600160a01b0316600160601b5b6000808060001985870986860292508281109083900303905080613388576000841161337d57600080fd5b508290049050610bee565b80841161339457600080fd5b6000848688096000868103871696879004966002600389028118808a02820302808a02820302808a02820302808a02820302808a02820302808a02909103029181900381900460010186841190950394909402919094039290920491909117919091029150509392505050565b60405180610120016040528060008152602001600060020b8152602001600060020b815260200160006001600160801b0316815260200160008152602001600081526020016000815260200160008152602001600081525090565b6040518060c001604052806000815260200160008152602001600081526020016000815260200160008152602001606081525090565b60405180606001604052806134a5613578565b81526020016134b2613578565b8152602001606081525090565b60405180606001604052806000815260200160008152602001606081525090565b6040518060a001604052806000815260200160006001600160a01b031681526020016000815260200160008152602001606081525090565b604080516101008101909152806000815260006020820181905260408201819052606082018190526080820181905260a0820181905260c0820181905260e09091015290565b604051806040016040528060008152602001600081525090565b60405180606001604052806000815260200160008152602001600081525090565b8035610516816155f9565b8051610516816155f9565b600082601f8301126135bf578081fd5b813560206135d46135cf836155d0565b6155ad565b828152818101908583016080808602880185018910156135f2578687fd5b865b868110156136835781838b03121561360a578788fd5b604080518381018181106001600160401b038211171561362657fe5b825284356136338161560e565b81528488013561364281615638565b818901528482013561365381615629565b808383015250606091508185013561366a81615629565b91810191909152855293850193918101916001016135f4565b509198975050505050505050565b600082601f8301126136a1578081fd5b815160206136b16135cf836155d0565b828152818101908583016080808602880185018910156136cf578687fd5b865b868110156136835781838b0312156136e7578788fd5b604080518381018181106001600160401b038211171561370357fe5b825284516137108161560e565b81528488015161371f81615638565b818901528482015161373081615629565b808383015250606091508185015161374781615629565b91810191909152855293850193918101916001016136d1565b600082601f830112613770578081fd5b815160206137806135cf836155d0565b828152818101908583016101008086028801850189101561379f578687fd5b865b868110156136835781838b0312156137b7578788fd5b604080518381018181106001600160401b03821117156137d357fe5b82526137de856138de565b815287850151888201526137f3828601613864565b8282015260609150613806828601613c8b565b82820152608091506138198286016138f4565b8282015260a0915061382c8286016138f4565b9181019190915260c0848101519082015260e08085015190820152855293850193918101916001016137a1565b80356105168161560e565b80516105168161560e565b600082601f83011261387f578081fd5b81356001600160401b0381111561389257fe5b6138a5601f8201601f19166020016155ad565b8181528460208386010111156138b9578283fd5b816020850160208301379081016020019190915292915050565b80356105168161561c565b80516105168161561c565b803561051681615629565b805161051681615629565b600060a08284031215613910578081fd5b60405160a081016001600160401b03828210818311171561392d57fe5b816040528293508435835260208501356020840152604085013591506139528261560e565b81604084015260608501356060840152608085013591508082111561397657600080fd5b50613983858286016139ee565b6080830152505092915050565b6000608082840312156139a1578081fd5b604051608081018181106001600160401b03821117156139bd57fe5b8060405250809150823581526020830135602082015260408301356040820152606083013560608201525092915050565b6000604082840312156139ff578081fd5b604051604081016001600160401b038282108183111715613a1c57fe5b81604052829350843583526020850135915080821115613a3b57600080fd5b50613a488582860161386f565b6020830152505092915050565b600060c08284031215613a66578081fd5b60405160c081016001600160401b038282108183111715613a8357fe5b81604052829350843583526020850135602084015260408501356040840152606085013560608401526080850135608084015260a0850135915080821115613aca57600080fd5b50613ad7858286016135af565b60a0830152505092915050565b600060c08284031215613af5578081fd5b60405160c081016001600160401b038282108183111715613b1257fe5b81604052829350845183526020850151602084015260408501516040840152606085015160608401526080850151608084015260a0850151915080821115613b5957600080fd5b50613ad785828601613691565b600060c08284031215613b77578081fd5b60405160c081018181106001600160401b0382111715613b9357fe5b6040529050808235613ba48161560e565b81526020830135613bb48161560e565b60208201526040830135613bc78161560e565b6040820152613bd860608401613859565b60608201526080830135608082015260a083013560a08201525092915050565b6000610100808385031215613c0b578182fd5b604051908101906001600160401b0382118183101715613c2757fe5b81604052809250835181526020840151602082015260408401516040820152606084015160608201526080840151608082015260a084015160a082015260c084015160c082015260e084015160e0820152505092915050565b803561051681615638565b805161051681615638565b805161ffff8116811461051657600080fd5b80516105168161564d565b600060208284031215613cc4578081fd5b8135610bee816155f9565b60006020808385031215613ce1578182fd5b82356001600160401b03811115613cf6578283fd5b8301601f81018513613d06578283fd5b8035613d146135cf826155d0565b81815283810190838501865b84811015613d4957613d378a88843589010161386f565b84529286019290860190600101613d20565b509098975050505050505050565b600060208284031215613d68578081fd5b81516001600160401b03811115613d7d578182fd5b611ac384828501613760565b60006020808385031215613d9b578182fd5b82516001600160401b03811115613db0578283fd5b8301601f81018513613dc0578283fd5b8051613dce6135cf826155d0565b81815283810190838501865b84811015613d4957613df18a888451890101613ae4565b84529286019290860190600101613dda565b600060208284031215613e14578081fd5b8151610bee8161560e565b600060208284031215613e30578081fd5b5035919050565b60008060408385031215613e49578081fd5b505080516020909101519092909150565b600060808284031215613e6b578081fd5b610bee8383613990565b6000806101008385031215613e88578182fd5b613e928484613990565b9150613ea18460808501613990565b90509250929050565b60008060008084860360e0811215613ec0578283fd5b6080811215613ecd578283fd5b50604051608081018181106001600160401b0382111715613eea57fe5b6040528535613ef88161564d565b81526020860135613f08816155f9565b60208201526040860135613f1b816155f9565b60408201526060860135613f2e8161560e565b60608201529350613f4160808601613599565b9250613f4f60a08601613599565b9150613f5d60c08601613599565b905092959194509250565b600060208284031215613f79578081fd5b81516001600160401b03811115613f8e578182fd5b611ac384828501613ae4565b60006020808385031215613fac578182fd5b82516001600160401b0380821115613fc2578384fd5b9084019060608287031215613fd5578384fd5b60408051606081018181108482111715613feb57fe5b82528351815284840151858201528382015183811115614009578687fd5b80850194505087601f85011261401d578586fd5b835161402b6135cf826155d0565b8181528681019086880161016080850289018a018d101561404a578a8bfd5b8a98505b848910156140e157818d0381811215614065578b8cfd5b87518881018181108b8211171561407857fe5b808a526060831215614088578d8efd5b60a0820192508083108b8411171561409c57fe5b828a52845181528c8501516060830152898501516080830152808252506140c68f60608601613bf8565b818d015285525060019890980197928901929081019061404e565b50509383019390935250979650505050505050565b600080600080600080600080610100898b031215614112578586fd5b885161411d81615638565b80985050602089015180600f0b8114614134578687fd5b80975050604089015195506060890151945060808901518060060b8114614159578485fd5b60a08a015190945061416a816155f9565b60c08a015190935063ffffffff81168114614183578283fd5b915061419160e08a01613864565b90509295985092959890939650565b600080600080600080600060e0888a0312156141ba578081fd5b87516141c5816155f9565b60208901519097506141d681615629565b95506141e460408901613c96565b94506141f260608901613c96565b935061420060808901613c96565b925060a088015160ff81168114614215578182fd5b60c08901519092506142268161560e565b8091505092959891949750929550565b600060208284031215614247578081fd5b5051919050565b60008060408385031215614260578182fd5b8251915060208301516001600160401b0381111561427c578182fd5b61428885828601613760565b9150509250929050565b60008060008060008061016087890312156142ab578384fd5b8635955060208701356001600160401b03808211156142c8578586fd5b818901915089601f8301126142db578586fd5b81356142e96135cf826155d0565b80828252602082019150602085018d60206101008602880101111561430c57898afd5b8995505b838610156143c657610100818f03121561432857898afd5b6040516101008101818110878211171561433e57fe5b60405261434a826138d3565b81526020820135602082015261436260408301613859565b604082015261437360608301613c80565b6060820152614384608083016138e9565b608082015261439560a083016138e9565b60a082015260c0828101359082015260e0808301359082015283526001959095019460209092019161010001614310565b509850505060408901359550606089013594506143e68a60808b01613b66565b93506101408901359150808211156143fc578283fd5b5061440989828a016139ee565b9150509295509295509295565b600080600080610120858703121561442c578182fd5b843593506020808601356001600160401b038082111561444a578485fd5b818801915088601f83011261445d578485fd5b813561446b6135cf826155d0565b81815284810190848601885b848110156144a05761448e8e8984358a0101613a55565b84529287019290870190600101614477565b50508098505050506144b58960408a01613b66565b94506101008801359250808311156144cb578384fd5b50506144d9878288016138ff565b91505092959194509250565b60008082840360c08112156144f8578283fd5b8335925060a0601f198201121561450d578182fd5b5060405160a081018181106001600160401b038211171561452a57fe5b80604052506020840135815260408401356020820152606084013561454e8161560e565b60408201526080840135606082015261456960a08501613859565b6080820152809150509250929050565b600080600080610120858703121561458f578182fd5b8435935060208501356001600160401b03808211156145ac578384fd5b6145b888838901613a55565b94506145c78860408901613b66565b93506101008701359150808211156145dd578283fd5b9086019060c082890312156145f0578283fd5b60405160c08101818110838211171561460557fe5b8060405250823581526020830135602082015260408301356040820152606083013560608201526080830135608082015260a083013582811115614647578485fd5b6146538a8286016139ee565b60a0830152509598949750929550505050565b6000806000610100848603121561467b578081fd5b8335925061468c8560208601613b66565b915060e08401356001600160401b038111156146a6578182fd5b6146b2868287016138ff565b9150509250925092565b600080604083850312156146ce578182fd5b50508035926020909101359150565b60008060008061012085870312156146f3578182fd5b843593506020850135925061470b8660408701613b66565b91506101008501356001600160401b03811115614726578182fd5b6144d9878288016138ff565b6000806000806000806000806000806000806101808d8f031215614754578586fd5b8c516bffffffffffffffffffffffff8116811461476f578687fd5b9b5061477d60208e016135a4565b9a5061478b60408e016135a4565b995061479960608e016135a4565b98506147a760808e01613ca8565b97506147b560a08e016138f4565b96506147c360c08e016138f4565b95506147d160e08e01613c8b565b94506101008d015193506101208d015192506147f06101408e01613c8b565b91506147ff6101608e01613c8b565b90509295989b509295989b509295989b565b6001600160a01b03169052565b6000815180845260208085019450808401835b838110156148c05781518051600d811061484757fe5b8852808401518489015260408082015115159089015260608082015161486f828b0182614bed565b5050608080820151614883828b01826148d1565b505060a080820151614897828b01826148d1565b505060c0818101519089015260e090810151908801526101009096019590820190600101614831565b509495945050505050565b15159052565b60020b9052565b8051825260208082015190830152604090810151910152565b805482526001810154602083015260020154604090910152565b61491e8261491983546155ed565b614811565b60018101546001600160a01b0361493a60208501828416614811565b61494f6040850162ffffff8460a01c16614bfa565b61495c60028401546155ed565b915061496b6060850183614811565b61497860038401546155ed565b91506149876080850183614811565b6004830154915061499d60a08501828416614811565b506149b160c0840160ff8360a01c166148cb565b50600581015460e08301526149cd610100830160068301614a1c565b6149de6101808301600a8301614a1c565b600e810154610200830152600f015461022090910152565b805182526020810151602083015260408101516040830152606081015160608301525050565b80548252600181015460208301526002810154604083015260030154606090910152565b8051151582526001600160801b036020820151166020830152604081015160020b6040830152606081015160020b60608301525050565b600060c08301825184526020808401518186015260408401516040860152606084015160608601526080808501518187015260a085015160c060a088015283815180865260e08901915084830195508692505b80831015614af157614add828751614a40565b948401946001929092019190830190614aca565b50979650505050505050565b805182526020808201516001600160a01b031681840152604080830151908401526060808301519084015260808083015160a0918501829052805191850182905260009290810191839060c08701905b80831015614b6d5784518252938301936001929092019190830190614b4d565b509695505050505050565b600060a0830182548452600180600160a01b03818501541660208181880152600286015460408801526003860154606088015260048601915060a0608088015283825480865260c08901915083875282872095508693505b80841015614af15785548252948401949284019290820190614bd0565b6001600160801b03169052565b62ffffff169052565b600292830b60e890811b82529190920b901b600382015260060190565b6001600160a01b0391909116815260200190565b6001600160a01b03929092168252602082015260400190565b60208082528251828201819052600091906040908185019080840286018301878501865b83811015613d4957888303603f1901855281518051845287810151888501528681015187850152606080820151908501526080808201518186015260a09182015160c0928601839052805192860183905289019160e08601918b915b80831015614cf457614ce0848651614a40565b938b01939281019260019290920191614ccd565b5050509588019593505090860190600101614c71565b60006060820160608352808651808352608085019150602092506080838202860101838901855b83811015614d5f57607f19888403018552614d4d838351614a77565b94860194925090850190600101614d31565b50509615159285019290925250505060400152919050565b901515815260200190565b9515158652602086019490945260408501929092526001600160a01b03166060840152608083015260a082015260c00190565b60029190910b815260200190565b602080825260029082015261503360f01b604082015260600190565b6020808252600290820152610a0760f31b604082015260600190565b6020808252600b908201526a1a5b9a5d1a585b1a5e995960aa1b604082015260600190565b602080825260029082015261503560f01b604082015260600190565b602080825260029082015261281b60f11b604082015260600190565b60208082526017908201527f63616c6c6572206d757374206265206f70657261746f72000000000000000000604082015260600190565b60208082526003908201526221a41960e91b604082015260600190565b602080825260029082015261281960f11b604082015260600190565b83815260c08101614edc6020830185614a1c565b8260a0830152949350505050565b60006102a0614ef9838861490b565b80610240840152614f0c81840187614afd565b6102608401959095525050610280015292915050565b6101008101614f3182856149f6565b610bee60808301846149f6565b60006101208201905082518252602083015160020b6020830152604083015160020b60408301526060830151614f776060840182614bed565b506080830151608083015260a083015160a083015260c083015160c083015260e083015160e083015261010080840151818401525092915050565b600060608252614fc56060830186614a77565b93151560208301525060400152919050565b600060208083526101008301614ff082850186516148d8565b818501516080615002818701836148d8565b60408781015160e08881015280519485905285019390925085906101208801905b8083101561507e5785518051151583528781015188840152858101516001600160801b03168684015260608082015190840152848101518584015260a09081015190830152948601946001929092019160c090910190615023565b5098975050505050505050565b60006020808352608080840185518386015282860151604081818801528088015191506060808189015283835180865260a09550858a0191508785019450885b8181101561514c5785518051805185528a8101518b86015286015186850152890151805185850152808a01518985015280860151888501528481015160c0808601919091528982015160e0808701919091528983015161010087015290820151610120860152015161014084015294880194610160909201916001016150cb565b50909a9950505050505050505050565b6000602080835260c0830184518285015260018060a01b03828601511660408501526040850151606085015260608501516080850152608085015160a08086015281815180845260e08701915084830193508592505b80831015614b6d57835182529284019260019290920191908401906151b2565b60006102a08083526151e681840188614afd565b9150508460208301528360408301526129ba606083018461490b565b600060e0825261521560e083018a614afd565b8860208401528760408401528660608401528281036080840152615239818761481e565b60a084019590955250506001600160a01b039190911660c09091015295945050505050565b60006102c080835261527281840189614afd565b91505085602083015284604083015261528e606083018561490b565b6001600160a01b03929092166102a09190910152949350505050565b60006102a08083526152be81840188614b78565b9150508460208301526152d4604083018561490b565b8261028083015295945050505050565b60006101608883528760208401528660408401528560608401528060808401526153108184018661481e565b9150508251151560a08301526020830151151560c08301526040830151151560e083015260608301511515610100830152608083015161012083015260a0830151610140830152979650505050505050565b600086825285602083015260a0604083015261538160a083018661481e565b606083019490945250608001529392505050565b600087825286602083015285604083015284606083015260c060808301526153c060c083018561481e565b90508260a0830152979650505050505050565b90815260200190565b9182526001600160a01b0316602082015260400190565b60008682526020868184015285604084015260018060a01b038516606084015260a06080840152835160a084015280840151604060c085015280518060e0860152835b818110156154535782810184015186820161010001528301615436565b81811115615465578461010083880101525b50601f01601f1916939093016101000198975050505050505050565b60006102a08683526020818185015261038084016154a1838601896148f1565b600392506154b56103008601848a016148f1565b60e0610360860152600688810180549283905285528285209185906103a08801905b808310156155375760ff855416151582526001850154868301526001600160801b03600286015416604083015286850154606083015260048501546080830152600585015460a083015260c08201915083850194506001830192506154d7565b508096505050505050508360408301526129ba606083018461490b565b9283526020830191909152604082015260600190565b93845260208401929092526040830152606082015260800190565b958652602086019490945260408501929092526060840152608083015260a082015260c00190565b6040518181016001600160401b03811182821017156155c857fe5b604052919050565b60006001600160401b038211156155e357fe5b5060209081020190565b6001600160a01b031690565b6001600160a01b0381168114611c4f57600080fd5b8015158114611c4f57600080fd5b600d8110611c4f57600080fd5b8060020b8114611c4f57600080fd5b6001600160801b0381168114611c4f57600080fd5b62ffffff81168114611c4f57600080fdfe496e697469616c697a61626c653a20636f6e747261637420697320616c726561647920696e697469616c697a6564536166654d6174683a206d756c7469706c69636174696f6e206f766572666c6f775369676e6564536166654d6174683a207375627472616374696f6e206f766572666c6f77a26469706673582212206061b9f3c3d30945b6fad0795267e16104583d303b789e2fe574d711ea801b4364736f6c63430007060033",
  "libraries": {
    "LiquidationLogic": "0x90F0f5cF6d501C1801c7adf73E3C0E5ffB43D55D",
    "PositionUpdater": "0x3229AeBedc747e9235240B2f5A9eCE88b748d86a",
    "VaultLib": "0x8e0480aDd38E64E8c4CF3FB6F47Eb00bFd4375cC",
    "PositionLib": "0xbB896C2D284A8443d5c6E0C5A4948c53B00a075a",
    "PositionCalculator": "0x055d1F4B85A414A573b1d8B1D4A21F85c5a97740",
    "InterestCalculator": "0xe418524c04877f74391C798E6A56dCFB08905659"
  },
  "devdoc": {
    "kind": "dev",
    "methods": {
      "checkLiquidatable(uint256)": {
        "params": {
          "_vaultId": "vault id"
        }
      },
      "forceClose(bytes[])": {
        "params": {
          "_data": "vaults data to close position"
        }
      },
      "getVaultStatus(uint256)": {
        "params": {
          "_vaultId": "vault id"
        }
      },
      "updatePosition(uint256,(uint8,uint256,bool,uint128,int24,int24,uint256,uint256)[],uint256,uint256,(bool,bool,bool,bool,int256,int256),(uint256,bytes))": {
        "params": {
          "_buffer0": "max amount of token0 to send",
          "_buffer1": "max amount of token1 to send",
          "_positionUpdates": "parameters to update position",
          "_vaultId": "vault id"
        }
      }
    },
    "version": 1
  },
  "userdoc": {
    "kind": "user",
    "methods": {
      "checkLiquidatable(uint256)": {
        "notice": "Returns the flag whether a vault can be liquidated or not."
      },
      "closePosition(uint256,(uint256,uint256,uint256,uint256,uint256,(bool,uint128,int24,int24)[])[],(bool,bool,bool,bool,int256,int256),(uint256,uint256,bool,uint256,(uint256,bytes)))": {
        "notice": "Closes position partially."
      },
      "closeSubVault(uint256,uint256,(bool,bool,bool,bool,int256,int256),(uint256,uint256,bool,uint256,(uint256,bytes)))": {
        "notice": "Closes all positions in sub-vault."
      },
      "closeVault(uint256,(bool,bool,bool,bool,int256,int256),(uint256,uint256,bool,uint256,(uint256,bytes)))": {
        "notice": "Closes all positions in a vault."
      },
      "forceClose(bytes[])": {
        "notice": "Contract owner can close positions"
      },
      "getSqrtPrice()": {
        "notice": "Gets square root of current underlying token price by quote token."
      },
      "getVaultStatus(uint256)": {
        "notice": "Returns collateral value and debt value."
      },
      "liquidate(uint256,(uint256,uint256,bool,uint256,bool))": {
        "notice": "Liquidates a vault."
      },
      "openPosition(uint256,(uint256,uint256,uint256,uint256,uint256,(bool,uint128,int24,int24)[]),(bool,bool,bool,bool,int256,int256),(uint256,uint256,uint256,uint256,int256,(uint256,bytes)))": {
        "notice": "Opens new position."
      },
      "updatePosition(uint256,(uint8,uint256,bool,uint128,int24,int24,uint256,uint256)[],uint256,uint256,(bool,bool,bool,bool,int256,int256),(uint256,bytes))": {
        "notice": "Update position in a vault."
      }
    },
    "version": 1
  },
  "storageLayout": {
    "storage": [
      {
        "astId": 1001,
        "contract": "src/ControllerHelper.sol:ControllerHelper",
        "label": "_initialized",
        "offset": 0,
        "slot": "0",
        "type": "t_bool"
      },
      {
        "astId": 1004,
        "contract": "src/ControllerHelper.sol:ControllerHelper",
        "label": "_initializing",
        "offset": 1,
        "slot": "0",
        "type": "t_bool"
      },
      {
        "astId": 4378,
        "contract": "src/ControllerHelper.sol:ControllerHelper",
        "label": "lastTouchedTimestamp",
        "offset": 0,
        "slot": "1",
        "type": "t_uint256"
      },
      {
        "astId": 4382,
        "contract": "src/ControllerHelper.sol:ControllerHelper",
        "label": "ranges",
        "offset": 0,
        "slot": "2",
        "type": "t_mapping(t_bytes32,t_struct(PerpStatus)6384_storage)"
      },
      {
        "astId": 4384,
        "contract": "src/ControllerHelper.sol:ControllerHelper",
        "label": "vaultIdCount",
        "offset": 0,
        "slot": "3",
        "type": "t_uint256"
      },
      {
        "astId": 4388,
        "contract": "src/ControllerHelper.sol:ControllerHelper",
        "label": "vaults",
        "offset": 0,
        "slot": "4",
        "type": "t_mapping(t_uint256,t_struct(Vault)6417_storage)"
      },
      {
        "astId": 4392,
        "contract": "src/ControllerHelper.sol:ControllerHelper",
        "label": "subVaults",
        "offset": 0,
        "slot": "5",
        "type": "t_mapping(t_uint256,t_struct(SubVault)6405_storage)"
      },
      {
        "astId": 4394,
        "contract": "src/ControllerHelper.sol:ControllerHelper",
        "label": "context",
        "offset": 0,
        "slot": "6",
        "type": "t_struct(Context)6442_storage"
      },
      {
        "astId": 4396,
        "contract": "src/ControllerHelper.sol:ControllerHelper",
        "label": "irmParams",
        "offset": 0,
        "slot": "22",
        "type": "t_struct(IRMParams)6651_storage"
      },
      {
        "astId": 4398,
        "contract": "src/ControllerHelper.sol:ControllerHelper",
        "label": "dpmParams",
        "offset": 0,
        "slot": "26",
        "type": "t_struct(DPMParams)6642_storage"
      },
      {
        "astId": 4400,
        "contract": "src/ControllerHelper.sol:ControllerHelper",
        "label": "operator",
        "offset": 0,
        "slot": "35",
        "type": "t_address"
      }
    ],
    "types": {
      "t_address": {
        "encoding": "inplace",
        "label": "address",
        "numberOfBytes": "20"
      },
      "t_array(t_struct(LPTState)6397_storage)dyn_storage": {
        "base": "t_struct(LPTState)6397_storage",
        "encoding": "dynamic_array",
        "label": "struct DataType.LPTState[]",
        "numberOfBytes": "32"
      },
      "t_array(t_uint256)dyn_storage": {
        "base": "t_uint256",
        "encoding": "dynamic_array",
        "label": "uint256[]",
        "numberOfBytes": "32"
      },
      "t_bool": {
        "encoding": "inplace",
        "label": "bool",
        "numberOfBytes": "1"
      },
      "t_bytes32": {
        "encoding": "inplace",
        "label": "bytes32",
        "numberOfBytes": "32"
      },
      "t_int24": {
        "encoding": "inplace",
        "label": "int24",
        "numberOfBytes": "3"
      },
      "t_mapping(t_bytes32,t_struct(PerpStatus)6384_storage)": {
        "encoding": "mapping",
        "key": "t_bytes32",
        "label": "mapping(bytes32 => struct DataType.PerpStatus)",
        "numberOfBytes": "32",
        "value": "t_struct(PerpStatus)6384_storage"
      },
      "t_mapping(t_bytes32,t_struct(TickSnapshot)6628_storage)": {
        "encoding": "mapping",
        "key": "t_bytes32",
        "label": "mapping(bytes32 => struct InterestCalculator.TickSnapshot)",
        "numberOfBytes": "32",
        "value": "t_struct(TickSnapshot)6628_storage"
      },
      "t_mapping(t_uint256,t_struct(SubVault)6405_storage)": {
        "encoding": "mapping",
        "key": "t_uint256",
        "label": "mapping(uint256 => struct DataType.SubVault)",
        "numberOfBytes": "32",
        "value": "t_struct(SubVault)6405_storage"
      },
      "t_mapping(t_uint256,t_struct(Vault)6417_storage)": {
        "encoding": "mapping",
        "key": "t_uint256",
        "label": "mapping(uint256 => struct DataType.Vault)",
        "numberOfBytes": "32",
        "value": "t_struct(Vault)6417_storage"
      },
      "t_struct(AccountState)5858_storage": {
        "encoding": "inplace",
        "label": "struct BaseToken.AccountState",
        "members": [
          {
            "astId": 5853,
            "contract": "src/ControllerHelper.sol:ControllerHelper",
            "label": "collateralAmount",
            "offset": 0,
            "slot": "0",
            "type": "t_uint256"
          },
          {
            "astId": 5855,
            "contract": "src/ControllerHelper.sol:ControllerHelper",
            "label": "debtAmount",
            "offset": 0,
            "slot": "1",
            "type": "t_uint256"
          },
          {
            "astId": 5857,
            "contract": "src/ControllerHelper.sol:ControllerHelper",
            "label": "collateralEntryAmount",
            "offset": 0,
            "slot": "2",
            "type": "t_uint256"
          }
        ],
        "numberOfBytes": "96"
      },
      "t_struct(Context)6442_storage": {
        "encoding": "inplace",
        "label": "struct DataType.Context",
        "members": [
          {
            "astId": 6419,
            "contract": "src/ControllerHelper.sol:ControllerHelper",
            "label": "token0",
            "offset": 0,
            "slot": "0",
            "type": "t_address"
          },
          {
            "astId": 6421,
            "contract": "src/ControllerHelper.sol:ControllerHelper",
            "label": "token1",
            "offset": 0,
            "slot": "1",
            "type": "t_address"
          },
          {
            "astId": 6423,
            "contract": "src/ControllerHelper.sol:ControllerHelper",
            "label": "feeTier",
            "offset": 20,
            "slot": "1",
            "type": "t_uint24"
          },
          {
            "astId": 6425,
            "contract": "src/ControllerHelper.sol:ControllerHelper",
            "label": "positionManager",
            "offset": 0,
            "slot": "2",
            "type": "t_address"
          },
          {
            "astId": 6427,
            "contract": "src/ControllerHelper.sol:ControllerHelper",
            "label": "swapRouter",
            "offset": 0,
            "slot": "3",
            "type": "t_address"
          },
          {
            "astId": 6429,
            "contract": "src/ControllerHelper.sol:ControllerHelper",
            "label": "uniswapPool",
            "offset": 0,
            "slot": "4",
            "type": "t_address"
          },
          {
            "astId": 6431,
            "contract": "src/ControllerHelper.sol:ControllerHelper",
            "label": "isMarginZero",
            "offset": 20,
            "slot": "4",
            "type": "t_bool"
          },
          {
            "astId": 6433,
            "contract": "src/ControllerHelper.sol:ControllerHelper",
            "label": "nextSubVaultId",
            "offset": 0,
            "slot": "5",
            "type": "t_uint256"
          },
          {
            "astId": 6435,
            "contract": "src/ControllerHelper.sol:ControllerHelper",
            "label": "tokenState0",
            "offset": 0,
            "slot": "6",
            "type": "t_struct(TokenState)5851_storage"
          },
          {
            "astId": 6437,
            "contract": "src/ControllerHelper.sol:ControllerHelper",
            "label": "tokenState1",
            "offset": 0,
            "slot": "10",
            "type": "t_struct(TokenState)5851_storage"
          },
          {
            "astId": 6439,
            "contract": "src/ControllerHelper.sol:ControllerHelper",
            "label": "accumuratedProtocolFee0",
            "offset": 0,
            "slot": "14",
            "type": "t_uint256"
          },
          {
            "astId": 6441,
            "contract": "src/ControllerHelper.sol:ControllerHelper",
            "label": "accumuratedProtocolFee1",
            "offset": 0,
            "slot": "15",
            "type": "t_uint256"
          }
        ],
        "numberOfBytes": "512"
      },
      "t_struct(DPMParams)6642_storage": {
        "encoding": "inplace",
        "label": "struct InterestCalculator.DPMParams",
        "members": [
          {
            "astId": 6635,
            "contract": "src/ControllerHelper.sol:ControllerHelper",
            "label": "premiumParams",
            "offset": 0,
            "slot": "0",
            "type": "t_struct(IRMParams)6651_storage"
          },
          {
            "astId": 6637,
            "contract": "src/ControllerHelper.sol:ControllerHelper",
            "label": "irmParams",
            "offset": 0,
            "slot": "4",
            "type": "t_struct(IRMParams)6651_storage"
          },
          {
            "astId": 6641,
            "contract": "src/ControllerHelper.sol:ControllerHelper",
            "label": "snapshots",
            "offset": 0,
            "slot": "8",
            "type": "t_mapping(t_bytes32,t_struct(TickSnapshot)6628_storage)"
          }
        ],
        "numberOfBytes": "288"
      },
      "t_struct(IRMParams)6651_storage": {
        "encoding": "inplace",
        "label": "struct InterestCalculator.IRMParams",
        "members": [
          {
            "astId": 6644,
            "contract": "src/ControllerHelper.sol:ControllerHelper",
            "label": "baseRate",
            "offset": 0,
            "slot": "0",
            "type": "t_uint256"
          },
          {
            "astId": 6646,
            "contract": "src/ControllerHelper.sol:ControllerHelper",
            "label": "kinkRate",
            "offset": 0,
            "slot": "1",
            "type": "t_uint256"
          },
          {
            "astId": 6648,
            "contract": "src/ControllerHelper.sol:ControllerHelper",
            "label": "slope1",
            "offset": 0,
            "slot": "2",
            "type": "t_uint256"
          },
          {
            "astId": 6650,
            "contract": "src/ControllerHelper.sol:ControllerHelper",
            "label": "slope2",
            "offset": 0,
            "slot": "3",
            "type": "t_uint256"
          }
        ],
        "numberOfBytes": "128"
      },
      "t_struct(LPTState)6397_storage": {
        "encoding": "inplace",
        "label": "struct DataType.LPTState",
        "members": [
          {
            "astId": 6386,
            "contract": "src/ControllerHelper.sol:ControllerHelper",
            "label": "isCollateral",
            "offset": 0,
            "slot": "0",
            "type": "t_bool"
          },
          {
            "astId": 6388,
            "contract": "src/ControllerHelper.sol:ControllerHelper",
            "label": "rangeId",
            "offset": 0,
            "slot": "1",
            "type": "t_bytes32"
          },
          {
            "astId": 6390,
            "contract": "src/ControllerHelper.sol:ControllerHelper",
            "label": "liquidityAmount",
            "offset": 0,
            "slot": "2",
            "type": "t_uint128"
          },
          {
            "astId": 6392,
            "contract": "src/ControllerHelper.sol:ControllerHelper",
            "label": "premiumGrowthLast",
            "offset": 0,
            "slot": "3",
            "type": "t_uint256"
          },
          {
            "astId": 6394,
            "contract": "src/ControllerHelper.sol:ControllerHelper",
            "label": "fee0Last",
            "offset": 0,
            "slot": "4",
            "type": "t_uint256"
          },
          {
            "astId": 6396,
            "contract": "src/ControllerHelper.sol:ControllerHelper",
            "label": "fee1Last",
            "offset": 0,
            "slot": "5",
            "type": "t_uint256"
          }
        ],
        "numberOfBytes": "192"
      },
      "t_struct(PerpStatus)6384_storage": {
        "encoding": "inplace",
        "label": "struct DataType.PerpStatus",
        "members": [
          {
            "astId": 6367,
            "contract": "src/ControllerHelper.sol:ControllerHelper",
            "label": "tokenId",
            "offset": 0,
            "slot": "0",
            "type": "t_uint256"
          },
          {
            "astId": 6369,
            "contract": "src/ControllerHelper.sol:ControllerHelper",
            "label": "lowerTick",
            "offset": 0,
            "slot": "1",
            "type": "t_int24"
          },
          {
            "astId": 6371,
            "contract": "src/ControllerHelper.sol:ControllerHelper",
            "label": "upperTick",
            "offset": 3,
            "slot": "1",
            "type": "t_int24"
          },
          {
            "astId": 6373,
            "contract": "src/ControllerHelper.sol:ControllerHelper",
            "label": "borrowedLiquidity",
            "offset": 6,
            "slot": "1",
            "type": "t_uint128"
          },
          {
            "astId": 6375,
            "contract": "src/ControllerHelper.sol:ControllerHelper",
            "label": "premiumGrowthForBorrower",
            "offset": 0,
            "slot": "2",
            "type": "t_uint256"
          },
          {
            "astId": 6377,
            "contract": "src/ControllerHelper.sol:ControllerHelper",
            "label": "premiumGrowthForLender",
            "offset": 0,
            "slot": "3",
            "type": "t_uint256"
          },
          {
            "astId": 6379,
            "contract": "src/ControllerHelper.sol:ControllerHelper",
            "label": "fee0Growth",
            "offset": 0,
            "slot": "4",
            "type": "t_uint256"
          },
          {
            "astId": 6381,
            "contract": "src/ControllerHelper.sol:ControllerHelper",
            "label": "fee1Growth",
            "offset": 0,
            "slot": "5",
            "type": "t_uint256"
          },
          {
            "astId": 6383,
            "contract": "src/ControllerHelper.sol:ControllerHelper",
            "label": "lastTouchedTimestamp",
            "offset": 0,
            "slot": "6",
            "type": "t_uint256"
          }
        ],
        "numberOfBytes": "224"
      },
      "t_struct(SubVault)6405_storage": {
        "encoding": "inplace",
        "label": "struct DataType.SubVault",
        "members": [
          {
            "astId": 6399,
            "contract": "src/ControllerHelper.sol:ControllerHelper",
            "label": "balance0",
            "offset": 0,
            "slot": "0",
            "type": "t_struct(AccountState)5858_storage"
          },
          {
            "astId": 6401,
            "contract": "src/ControllerHelper.sol:ControllerHelper",
            "label": "balance1",
            "offset": 0,
            "slot": "3",
            "type": "t_struct(AccountState)5858_storage"
          },
          {
            "astId": 6404,
            "contract": "src/ControllerHelper.sol:ControllerHelper",
            "label": "lpts",
            "offset": 0,
            "slot": "6",
            "type": "t_array(t_struct(LPTState)6397_storage)dyn_storage"
          }
        ],
        "numberOfBytes": "224"
      },
      "t_struct(TickSnapshot)6628_storage": {
        "encoding": "inplace",
        "label": "struct InterestCalculator.TickSnapshot",
        "members": [
          {
            "astId": 6621,
            "contract": "src/ControllerHelper.sol:ControllerHelper",
            "label": "lastFeeGrowthInside0X128",
            "offset": 0,
            "slot": "0",
            "type": "t_uint256"
          },
          {
            "astId": 6623,
            "contract": "src/ControllerHelper.sol:ControllerHelper",
            "label": "lastFeeGrowthInside1X128",
            "offset": 0,
            "slot": "1",
            "type": "t_uint256"
          },
          {
            "astId": 6625,
            "contract": "src/ControllerHelper.sol:ControllerHelper",
            "label": "lastFeeGrowthGlobal0X128",
            "offset": 0,
            "slot": "2",
            "type": "t_uint256"
          },
          {
            "astId": 6627,
            "contract": "src/ControllerHelper.sol:ControllerHelper",
            "label": "lastFeeGrowthGlobal1X128",
            "offset": 0,
            "slot": "3",
            "type": "t_uint256"
          }
        ],
        "numberOfBytes": "128"
      },
      "t_struct(TokenState)5851_storage": {
        "encoding": "inplace",
        "label": "struct BaseToken.TokenState",
        "members": [
          {
            "astId": 5844,
            "contract": "src/ControllerHelper.sol:ControllerHelper",
            "label": "totalDeposited",
            "offset": 0,
            "slot": "0",
            "type": "t_uint256"
          },
          {
            "astId": 5846,
            "contract": "src/ControllerHelper.sol:ControllerHelper",
            "label": "totalBorrowed",
            "offset": 0,
            "slot": "1",
            "type": "t_uint256"
          },
          {
            "astId": 5848,
            "contract": "src/ControllerHelper.sol:ControllerHelper",
            "label": "collateralScaler",
            "offset": 0,
            "slot": "2",
            "type": "t_uint256"
          },
          {
            "astId": 5850,
            "contract": "src/ControllerHelper.sol:ControllerHelper",
            "label": "debtScaler",
            "offset": 0,
            "slot": "3",
            "type": "t_uint256"
          }
        ],
        "numberOfBytes": "128"
      },
      "t_struct(Vault)6417_storage": {
        "encoding": "inplace",
        "label": "struct DataType.Vault",
        "members": [
          {
            "astId": 6407,
            "contract": "src/ControllerHelper.sol:ControllerHelper",
            "label": "vaultId",
            "offset": 0,
            "slot": "0",
            "type": "t_uint256"
          },
          {
            "astId": 6409,
            "contract": "src/ControllerHelper.sol:ControllerHelper",
            "label": "owner",
            "offset": 0,
            "slot": "1",
            "type": "t_address"
          },
          {
            "astId": 6411,
            "contract": "src/ControllerHelper.sol:ControllerHelper",
            "label": "marginAmount0",
            "offset": 0,
            "slot": "2",
            "type": "t_uint256"
          },
          {
            "astId": 6413,
            "contract": "src/ControllerHelper.sol:ControllerHelper",
            "label": "marginAmount1",
            "offset": 0,
            "slot": "3",
            "type": "t_uint256"
          },
          {
            "astId": 6416,
            "contract": "src/ControllerHelper.sol:ControllerHelper",
            "label": "subVaults",
            "offset": 0,
            "slot": "4",
            "type": "t_array(t_uint256)dyn_storage"
          }
        ],
        "numberOfBytes": "160"
      },
      "t_uint128": {
        "encoding": "inplace",
        "label": "uint128",
        "numberOfBytes": "16"
      },
      "t_uint24": {
        "encoding": "inplace",
        "label": "uint24",
        "numberOfBytes": "3"
      },
      "t_uint256": {
        "encoding": "inplace",
        "label": "uint256",
        "numberOfBytes": "32"
      }
    }
  }
}