{
  "address": "0x36Ad38C356c28E3fef8F19Cbc56E55e5AbafDC4b",
  "abi": [
    {
      "inputs": [
        {
          "components": [
            {
              "internalType": "uint24",
              "name": "feeTier",
              "type": "uint24"
            },
            {
              "internalType": "address",
              "name": "token0",
              "type": "address"
            },
            {
              "internalType": "address",
              "name": "token1",
              "type": "address"
            },
            {
              "internalType": "bool",
              "name": "isMarginZero",
              "type": "bool"
            }
          ],
          "internalType": "struct DataType.InitializationParams",
          "name": "_initializationParams",
          "type": "tuple"
        },
        {
          "internalType": "address",
          "name": "_positionManager",
          "type": "address"
        },
        {
          "internalType": "address",
          "name": "_factory",
          "type": "address"
        },
        {
          "internalType": "address",
          "name": "_swapRouter",
          "type": "address"
        }
      ],
      "stateMutability": "nonpayable",
      "type": "constructor"
    },
    {
      "anonymous": false,
      "inputs": [
        {
          "indexed": false,
          "internalType": "uint256",
          "name": "vaultId",
          "type": "uint256"
        },
        {
          "indexed": false,
          "internalType": "address",
          "name": "owner",
          "type": "address"
        }
      ],
      "name": "VaultCreated",
      "type": "event"
    },
    {
      "inputs": [
        {
          "components": [
            {
              "internalType": "uint256",
              "name": "collateral0",
              "type": "uint256"
            },
            {
              "internalType": "uint256",
              "name": "collateral1",
              "type": "uint256"
            },
            {
              "internalType": "uint256",
              "name": "debt0",
              "type": "uint256"
            },
            {
              "internalType": "uint256",
              "name": "debt1",
              "type": "uint256"
            },
            {
              "components": [
                {
                  "internalType": "bool",
                  "name": "isCollateral",
                  "type": "bool"
                },
                {
                  "internalType": "uint128",
                  "name": "liquidity",
                  "type": "uint128"
                },
                {
                  "internalType": "int24",
                  "name": "lowerTick",
                  "type": "int24"
                },
                {
                  "internalType": "int24",
                  "name": "upperTick",
                  "type": "int24"
                }
              ],
              "internalType": "struct DataType.LPT[]",
              "name": "lpts",
              "type": "tuple[]"
            }
          ],
          "internalType": "struct DataType.Position",
          "name": "_position",
          "type": "tuple"
        }
      ],
      "name": "calculateRequiredCollateral",
      "outputs": [
        {
          "internalType": "int256",
          "name": "",
          "type": "int256"
        }
      ],
      "stateMutability": "view",
      "type": "function"
    },
    {
      "inputs": [
        {
          "internalType": "uint256",
          "name": "_vaultId",
          "type": "uint256"
        }
      ],
      "name": "checkLiquidatable",
      "outputs": [
        {
          "internalType": "bool",
          "name": "",
          "type": "bool"
        }
      ],
      "stateMutability": "nonpayable",
      "type": "function"
    },
    {
      "inputs": [
        {
          "internalType": "uint256",
          "name": "_vaultId",
          "type": "uint256"
        },
        {
          "components": [
            {
              "internalType": "bool",
              "name": "reduceOnly",
              "type": "bool"
            },
            {
              "internalType": "bool",
              "name": "swapAnyway",
              "type": "bool"
            },
            {
              "internalType": "bool",
              "name": "quoterMode",
              "type": "bool"
            },
            {
              "internalType": "bool",
              "name": "isQuoteZero",
              "type": "bool"
            }
          ],
          "internalType": "struct DataType.TradeOption",
          "name": "_tradeOption",
          "type": "tuple"
        },
        {
          "components": [
            {
              "internalType": "uint256",
              "name": "price",
              "type": "uint256"
            },
            {
              "internalType": "uint256",
              "name": "slippageTorelance",
              "type": "uint256"
            },
            {
              "internalType": "uint256",
              "name": "swapRatio",
              "type": "uint256"
            }
          ],
          "internalType": "struct DataType.ClosePositionOption",
          "name": "_closePositionOptions",
          "type": "tuple"
        }
      ],
      "name": "closePosition",
      "outputs": [
        {
          "internalType": "uint256",
          "name": "vaultId",
          "type": "uint256"
        }
      ],
      "stateMutability": "nonpayable",
      "type": "function"
    },
    {
      "inputs": [],
      "name": "context",
      "outputs": [
        {
          "internalType": "address",
          "name": "token0",
          "type": "address"
        },
        {
          "internalType": "address",
          "name": "token1",
          "type": "address"
        },
        {
          "internalType": "uint24",
          "name": "feeTier",
          "type": "uint24"
        },
        {
          "internalType": "address",
          "name": "positionManager",
          "type": "address"
        },
        {
          "internalType": "address",
          "name": "swapRouter",
          "type": "address"
        },
        {
          "internalType": "address",
          "name": "uniswapPool",
          "type": "address"
        },
        {
          "internalType": "bool",
          "name": "isMarginZero",
          "type": "bool"
        },
        {
          "components": [
            {
              "internalType": "uint256",
              "name": "totalDeposited",
              "type": "uint256"
            },
            {
              "internalType": "uint256",
              "name": "totalBorrowed",
              "type": "uint256"
            },
            {
              "internalType": "uint256",
              "name": "collateralScaler",
              "type": "uint256"
            },
            {
              "internalType": "uint256",
              "name": "debtScaler",
              "type": "uint256"
            }
          ],
          "internalType": "struct BaseToken.TokenState",
          "name": "tokenState0",
          "type": "tuple"
        },
        {
          "components": [
            {
              "internalType": "uint256",
              "name": "totalDeposited",
              "type": "uint256"
            },
            {
              "internalType": "uint256",
              "name": "totalBorrowed",
              "type": "uint256"
            },
            {
              "internalType": "uint256",
              "name": "collateralScaler",
              "type": "uint256"
            },
            {
              "internalType": "uint256",
              "name": "debtScaler",
              "type": "uint256"
            }
          ],
          "internalType": "struct BaseToken.TokenState",
          "name": "tokenState1",
          "type": "tuple"
        }
      ],
      "stateMutability": "view",
      "type": "function"
    },
    {
      "inputs": [
        {
          "internalType": "bytes[]",
          "name": "_data",
          "type": "bytes[]"
        }
      ],
      "name": "forceClose",
      "outputs": [],
      "stateMutability": "nonpayable",
      "type": "function"
    },
    {
      "inputs": [],
      "name": "getCurrentTick",
      "outputs": [
        {
          "internalType": "int24",
          "name": "tick",
          "type": "int24"
        }
      ],
      "stateMutability": "view",
      "type": "function"
    },
    {
      "inputs": [],
      "name": "getIsMarginZero",
      "outputs": [
        {
          "internalType": "bool",
          "name": "",
          "type": "bool"
        }
      ],
      "stateMutability": "view",
      "type": "function"
    },
    {
      "inputs": [
        {
          "internalType": "uint256",
          "name": "_vaultId",
          "type": "uint256"
        }
      ],
      "name": "getPosition",
      "outputs": [
        {
          "components": [
            {
              "internalType": "uint256",
              "name": "collateral0",
              "type": "uint256"
            },
            {
              "internalType": "uint256",
              "name": "collateral1",
              "type": "uint256"
            },
            {
              "internalType": "uint256",
              "name": "debt0",
              "type": "uint256"
            },
            {
              "internalType": "uint256",
              "name": "debt1",
              "type": "uint256"
            },
            {
              "components": [
                {
                  "internalType": "bool",
                  "name": "isCollateral",
                  "type": "bool"
                },
                {
                  "internalType": "uint128",
                  "name": "liquidity",
                  "type": "uint128"
                },
                {
                  "internalType": "int24",
                  "name": "lowerTick",
                  "type": "int24"
                },
                {
                  "internalType": "int24",
                  "name": "upperTick",
                  "type": "int24"
                }
              ],
              "internalType": "struct DataType.LPT[]",
              "name": "lpts",
              "type": "tuple[]"
            }
          ],
          "internalType": "struct DataType.Position",
          "name": "position",
          "type": "tuple"
        }
      ],
      "stateMutability": "nonpayable",
      "type": "function"
    },
    {
      "inputs": [
        {
          "components": [
            {
              "internalType": "uint256",
              "name": "collateral0",
              "type": "uint256"
            },
            {
              "internalType": "uint256",
              "name": "collateral1",
              "type": "uint256"
            },
            {
              "internalType": "uint256",
              "name": "debt0",
              "type": "uint256"
            },
            {
              "internalType": "uint256",
              "name": "debt1",
              "type": "uint256"
            },
            {
              "components": [
                {
                  "internalType": "bool",
                  "name": "isCollateral",
                  "type": "bool"
                },
                {
                  "internalType": "uint128",
                  "name": "liquidity",
                  "type": "uint128"
                },
                {
                  "internalType": "int24",
                  "name": "lowerTick",
                  "type": "int24"
                },
                {
                  "internalType": "int24",
                  "name": "upperTick",
                  "type": "int24"
                }
              ],
              "internalType": "struct DataType.LPT[]",
              "name": "lpts",
              "type": "tuple[]"
            }
          ],
          "internalType": "struct DataType.Position",
          "name": "_position",
          "type": "tuple"
        },
        {
          "internalType": "uint256",
          "name": "_price",
          "type": "uint256"
        },
        {
          "internalType": "uint256",
          "name": "_slippageTorelance",
          "type": "uint256"
        },
        {
          "internalType": "uint256",
          "name": "_swapRatio",
          "type": "uint256"
        }
      ],
      "name": "getPositionUpdatesToClose",
      "outputs": [
        {
          "components": [
            {
              "internalType": "enum DataType.PositionUpdateType",
              "name": "positionUpdateType",
              "type": "uint8"
            },
            {
              "internalType": "bool",
              "name": "zeroForOne",
              "type": "bool"
            },
            {
              "internalType": "uint128",
              "name": "liquidity",
              "type": "uint128"
            },
            {
              "internalType": "int24",
              "name": "lowerTick",
              "type": "int24"
            },
            {
              "internalType": "int24",
              "name": "upperTick",
              "type": "int24"
            },
            {
              "internalType": "uint256",
              "name": "param0",
              "type": "uint256"
            },
            {
              "internalType": "uint256",
              "name": "param1",
              "type": "uint256"
            }
          ],
          "internalType": "struct DataType.PositionUpdate[]",
          "name": "positionUpdates",
          "type": "tuple[]"
        }
      ],
      "stateMutability": "view",
      "type": "function"
    },
    {
      "inputs": [
        {
          "components": [
            {
              "internalType": "uint256",
              "name": "collateral0",
              "type": "uint256"
            },
            {
              "internalType": "uint256",
              "name": "collateral1",
              "type": "uint256"
            },
            {
              "internalType": "uint256",
              "name": "debt0",
              "type": "uint256"
            },
            {
              "internalType": "uint256",
              "name": "debt1",
              "type": "uint256"
            },
            {
              "components": [
                {
                  "internalType": "bool",
                  "name": "isCollateral",
                  "type": "bool"
                },
                {
                  "internalType": "uint128",
                  "name": "liquidity",
                  "type": "uint128"
                },
                {
                  "internalType": "int24",
                  "name": "lowerTick",
                  "type": "int24"
                },
                {
                  "internalType": "int24",
                  "name": "upperTick",
                  "type": "int24"
                }
              ],
              "internalType": "struct DataType.LPT[]",
              "name": "lpts",
              "type": "tuple[]"
            }
          ],
          "internalType": "struct DataType.Position",
          "name": "_position",
          "type": "tuple"
        },
        {
          "internalType": "uint256",
          "name": "_price",
          "type": "uint256"
        },
        {
          "internalType": "uint256",
          "name": "_slippageTorelance",
          "type": "uint256"
        },
        {
          "internalType": "bool",
          "name": "_isQuoteZero",
          "type": "bool"
        }
      ],
      "name": "getPositionUpdatesToOpen",
      "outputs": [
        {
          "components": [
            {
              "internalType": "enum DataType.PositionUpdateType",
              "name": "positionUpdateType",
              "type": "uint8"
            },
            {
              "internalType": "bool",
              "name": "zeroForOne",
              "type": "bool"
            },
            {
              "internalType": "uint128",
              "name": "liquidity",
              "type": "uint128"
            },
            {
              "internalType": "int24",
              "name": "lowerTick",
              "type": "int24"
            },
            {
              "internalType": "int24",
              "name": "upperTick",
              "type": "int24"
            },
            {
              "internalType": "uint256",
              "name": "param0",
              "type": "uint256"
            },
            {
              "internalType": "uint256",
              "name": "param1",
              "type": "uint256"
            }
          ],
          "internalType": "struct DataType.PositionUpdate[]",
          "name": "positionUpdates",
          "type": "tuple[]"
        },
        {
          "internalType": "uint256",
          "name": "_buffer0",
          "type": "uint256"
        },
        {
          "internalType": "uint256",
          "name": "_buffer1",
          "type": "uint256"
        }
      ],
      "stateMutability": "view",
      "type": "function"
    },
    {
      "inputs": [],
      "name": "getPrice",
      "outputs": [
        {
          "internalType": "uint256",
          "name": "",
          "type": "uint256"
        }
      ],
      "stateMutability": "view",
      "type": "function"
    },
    {
      "inputs": [
        {
          "internalType": "bytes32",
          "name": "_rangeId",
          "type": "bytes32"
        }
      ],
      "name": "getRange",
      "outputs": [
        {
          "components": [
            {
              "internalType": "uint256",
              "name": "tokenId",
              "type": "uint256"
            },
            {
              "internalType": "int24",
              "name": "lowerTick",
              "type": "int24"
            },
            {
              "internalType": "int24",
              "name": "upperTick",
              "type": "int24"
            },
            {
              "internalType": "uint128",
              "name": "borrowedLiquidity",
              "type": "uint128"
            },
            {
              "internalType": "uint256",
              "name": "premiumGrowthForBorrower",
              "type": "uint256"
            },
            {
              "internalType": "uint256",
              "name": "premiumGrowthForLender",
              "type": "uint256"
            },
            {
              "internalType": "uint256",
              "name": "fee0Growth",
              "type": "uint256"
            },
            {
              "internalType": "uint256",
              "name": "fee1Growth",
              "type": "uint256"
            },
            {
              "internalType": "uint256",
              "name": "lastTouchedTimestamp",
              "type": "uint256"
            }
          ],
          "internalType": "struct DataType.PerpStatus",
          "name": "",
          "type": "tuple"
        }
      ],
      "stateMutability": "view",
      "type": "function"
    },
    {
      "inputs": [],
      "name": "getSqrtPrice",
      "outputs": [
        {
          "internalType": "uint160",
          "name": "sqrtPriceX96",
          "type": "uint160"
        }
      ],
      "stateMutability": "view",
      "type": "function"
    },
    {
      "inputs": [],
      "name": "getTWAP",
      "outputs": [
        {
          "internalType": "uint256",
          "name": "",
          "type": "uint256"
        }
      ],
      "stateMutability": "view",
      "type": "function"
    },
    {
      "inputs": [],
      "name": "getTWAPSqrtPrice",
      "outputs": [
        {
          "internalType": "uint160",
          "name": "sqrtPriceX96",
          "type": "uint160"
        }
      ],
      "stateMutability": "view",
      "type": "function"
    },
    {
      "inputs": [
        {
          "internalType": "uint256",
          "name": "_vaultId",
          "type": "uint256"
        }
      ],
      "name": "getVault",
      "outputs": [
        {
          "components": [
            {
              "internalType": "uint256",
              "name": "vaultId",
              "type": "uint256"
            },
            {
              "internalType": "address",
              "name": "owner",
              "type": "address"
            },
            {
              "internalType": "bool",
              "name": "isClosed",
              "type": "bool"
            },
            {
              "components": [
                {
                  "internalType": "uint256",
                  "name": "collateralAmountNotInMarket",
                  "type": "uint256"
                },
                {
                  "internalType": "uint256",
                  "name": "collateralAmount",
                  "type": "uint256"
                },
                {
                  "internalType": "uint256",
                  "name": "debtAmount",
                  "type": "uint256"
                }
              ],
              "internalType": "struct BaseToken.AccountState",
              "name": "balance0",
              "type": "tuple"
            },
            {
              "components": [
                {
                  "internalType": "uint256",
                  "name": "collateralAmountNotInMarket",
                  "type": "uint256"
                },
                {
                  "internalType": "uint256",
                  "name": "collateralAmount",
                  "type": "uint256"
                },
                {
                  "internalType": "uint256",
                  "name": "debtAmount",
                  "type": "uint256"
                }
              ],
              "internalType": "struct BaseToken.AccountState",
              "name": "balance1",
              "type": "tuple"
            },
            {
              "components": [
                {
                  "internalType": "bool",
                  "name": "isCollateral",
                  "type": "bool"
                },
                {
                  "internalType": "bytes32",
                  "name": "rangeId",
                  "type": "bytes32"
                },
                {
                  "internalType": "uint128",
                  "name": "liquidityAmount",
                  "type": "uint128"
                },
                {
                  "internalType": "uint256",
                  "name": "premiumGrowthLast",
                  "type": "uint256"
                },
                {
                  "internalType": "uint256",
                  "name": "fee0Last",
                  "type": "uint256"
                },
                {
                  "internalType": "uint256",
                  "name": "fee1Last",
                  "type": "uint256"
                }
              ],
              "internalType": "struct DataType.LPTState[]",
              "name": "lpts",
              "type": "tuple[]"
            }
          ],
          "internalType": "struct DataType.Vault",
          "name": "",
          "type": "tuple"
        }
      ],
      "stateMutability": "view",
      "type": "function"
    },
    {
      "inputs": [
        {
          "internalType": "uint256",
          "name": "_vaultId",
          "type": "uint256"
        }
      ],
      "name": "getVaultStatus",
      "outputs": [
        {
          "internalType": "uint256",
          "name": "",
          "type": "uint256"
        },
        {
          "internalType": "uint256",
          "name": "",
          "type": "uint256"
        }
      ],
      "stateMutability": "nonpayable",
      "type": "function"
    },
    {
      "inputs": [],
      "name": "lastTouchedTimestamp",
      "outputs": [
        {
          "internalType": "uint256",
          "name": "",
          "type": "uint256"
        }
      ],
      "stateMutability": "view",
      "type": "function"
    },
    {
      "inputs": [
        {
          "internalType": "uint256",
          "name": "_vaultId",
          "type": "uint256"
        },
        {
          "components": [
            {
              "internalType": "uint256",
              "name": "price",
              "type": "uint256"
            },
            {
              "internalType": "uint256",
              "name": "slippageTorelance",
              "type": "uint256"
            },
            {
              "internalType": "uint256",
              "name": "swapRatio",
              "type": "uint256"
            },
            {
              "internalType": "bool",
              "name": "swapAnyway",
              "type": "bool"
            }
          ],
          "internalType": "struct DataType.LiquidationOption",
          "name": "_liquidationOption",
          "type": "tuple"
        }
      ],
      "name": "liquidate",
      "outputs": [],
      "stateMutability": "nonpayable",
      "type": "function"
    },
    {
      "inputs": [
        {
          "internalType": "uint256",
          "name": "_vaultId",
          "type": "uint256"
        },
        {
          "components": [
            {
              "internalType": "enum DataType.PositionUpdateType",
              "name": "positionUpdateType",
              "type": "uint8"
            },
            {
              "internalType": "bool",
              "name": "zeroForOne",
              "type": "bool"
            },
            {
              "internalType": "uint128",
              "name": "liquidity",
              "type": "uint128"
            },
            {
              "internalType": "int24",
              "name": "lowerTick",
              "type": "int24"
            },
            {
              "internalType": "int24",
              "name": "upperTick",
              "type": "int24"
            },
            {
              "internalType": "uint256",
              "name": "param0",
              "type": "uint256"
            },
            {
              "internalType": "uint256",
              "name": "param1",
              "type": "uint256"
            }
          ],
          "internalType": "struct DataType.PositionUpdate[]",
          "name": "_positionUpdates",
          "type": "tuple[]"
        },
        {
          "internalType": "bool",
          "name": "_swapAnyway",
          "type": "bool"
        }
      ],
      "name": "liquidate",
      "outputs": [],
      "stateMutability": "nonpayable",
      "type": "function"
    },
    {
      "inputs": [
        {
          "internalType": "uint256",
          "name": "_vaultId",
          "type": "uint256"
        },
        {
          "components": [
            {
              "internalType": "uint256",
              "name": "collateral0",
              "type": "uint256"
            },
            {
              "internalType": "uint256",
              "name": "collateral1",
              "type": "uint256"
            },
            {
              "internalType": "uint256",
              "name": "debt0",
              "type": "uint256"
            },
            {
              "internalType": "uint256",
              "name": "debt1",
              "type": "uint256"
            },
            {
              "components": [
                {
                  "internalType": "bool",
                  "name": "isCollateral",
                  "type": "bool"
                },
                {
                  "internalType": "uint128",
                  "name": "liquidity",
                  "type": "uint128"
                },
                {
                  "internalType": "int24",
                  "name": "lowerTick",
                  "type": "int24"
                },
                {
                  "internalType": "int24",
                  "name": "upperTick",
                  "type": "int24"
                }
              ],
              "internalType": "struct DataType.LPT[]",
              "name": "lpts",
              "type": "tuple[]"
            }
          ],
          "internalType": "struct DataType.Position",
          "name": "_position",
          "type": "tuple"
        },
        {
          "components": [
            {
              "internalType": "bool",
              "name": "reduceOnly",
              "type": "bool"
            },
            {
              "internalType": "bool",
              "name": "swapAnyway",
              "type": "bool"
            },
            {
              "internalType": "bool",
              "name": "quoterMode",
              "type": "bool"
            },
            {
              "internalType": "bool",
              "name": "isQuoteZero",
              "type": "bool"
            }
          ],
          "internalType": "struct DataType.TradeOption",
          "name": "_tradeOption",
          "type": "tuple"
        },
        {
          "components": [
            {
              "internalType": "uint256",
              "name": "price",
              "type": "uint256"
            },
            {
              "internalType": "uint256",
              "name": "slippageTorelance",
              "type": "uint256"
            },
            {
              "internalType": "uint256",
              "name": "bufferRatio",
              "type": "uint256"
            },
            {
              "internalType": "uint256",
              "name": "maximumBufferAmount0",
              "type": "uint256"
            },
            {
              "internalType": "uint256",
              "name": "maximumBufferAmount1",
              "type": "uint256"
            }
          ],
          "internalType": "struct DataType.OpenPositionOption",
          "name": "_openPositionOptions",
          "type": "tuple"
        }
      ],
      "name": "openPosition",
      "outputs": [
        {
          "internalType": "uint256",
          "name": "vaultId",
          "type": "uint256"
        }
      ],
      "stateMutability": "nonpayable",
      "type": "function"
    },
    {
      "inputs": [],
      "name": "operator",
      "outputs": [
        {
          "internalType": "address",
          "name": "",
          "type": "address"
        }
      ],
      "stateMutability": "view",
      "type": "function"
    },
    {
      "inputs": [],
      "name": "oraclePeriod",
      "outputs": [
        {
          "internalType": "uint256",
          "name": "",
          "type": "uint256"
        }
      ],
      "stateMutability": "view",
      "type": "function"
    },
    {
      "inputs": [
        {
          "internalType": "uint256",
          "name": "_oraclePeriod",
          "type": "uint256"
        }
      ],
      "name": "setOperator",
      "outputs": [],
      "stateMutability": "nonpayable",
      "type": "function"
    },
    {
      "inputs": [
        {
          "internalType": "address",
          "name": "_newOperator",
          "type": "address"
        }
      ],
      "name": "setOperator",
      "outputs": [],
      "stateMutability": "nonpayable",
      "type": "function"
    },
    {
      "inputs": [
        {
          "components": [
            {
              "internalType": "uint256",
              "name": "baseRate",
              "type": "uint256"
            },
            {
              "internalType": "uint256",
              "name": "kinkRate",
              "type": "uint256"
            },
            {
              "internalType": "uint256",
              "name": "slope1",
              "type": "uint256"
            },
            {
              "internalType": "uint256",
              "name": "slope2",
              "type": "uint256"
            }
          ],
          "internalType": "struct InterestCalculator.IRMParams",
          "name": "_irmParams",
          "type": "tuple"
        },
        {
          "components": [
            {
              "internalType": "uint256",
              "name": "baseRate",
              "type": "uint256"
            },
            {
              "internalType": "uint256",
              "name": "kinkRate",
              "type": "uint256"
            },
            {
              "internalType": "uint256",
              "name": "slope1",
              "type": "uint256"
            },
            {
              "internalType": "uint256",
              "name": "slope2",
              "type": "uint256"
            }
          ],
          "internalType": "struct InterestCalculator.IRMParams",
          "name": "_premiumParams",
          "type": "tuple"
        }
      ],
      "name": "updateDRMParams",
      "outputs": [],
      "stateMutability": "nonpayable",
      "type": "function"
    },
    {
      "inputs": [
        {
          "components": [
            {
              "internalType": "uint256",
              "name": "baseRate",
              "type": "uint256"
            },
            {
              "internalType": "uint256",
              "name": "kinkRate",
              "type": "uint256"
            },
            {
              "internalType": "uint256",
              "name": "slope1",
              "type": "uint256"
            },
            {
              "internalType": "uint256",
              "name": "slope2",
              "type": "uint256"
            }
          ],
          "internalType": "struct InterestCalculator.IRMParams",
          "name": "_irmParams",
          "type": "tuple"
        }
      ],
      "name": "updateIRMParams",
      "outputs": [],
      "stateMutability": "nonpayable",
      "type": "function"
    },
    {
      "inputs": [
        {
          "internalType": "uint256",
          "name": "_vaultId",
          "type": "uint256"
        },
        {
          "components": [
            {
              "internalType": "enum DataType.PositionUpdateType",
              "name": "positionUpdateType",
              "type": "uint8"
            },
            {
              "internalType": "bool",
              "name": "zeroForOne",
              "type": "bool"
            },
            {
              "internalType": "uint128",
              "name": "liquidity",
              "type": "uint128"
            },
            {
              "internalType": "int24",
              "name": "lowerTick",
              "type": "int24"
            },
            {
              "internalType": "int24",
              "name": "upperTick",
              "type": "int24"
            },
            {
              "internalType": "uint256",
              "name": "param0",
              "type": "uint256"
            },
            {
              "internalType": "uint256",
              "name": "param1",
              "type": "uint256"
            }
          ],
          "internalType": "struct DataType.PositionUpdate[]",
          "name": "_positionUpdates",
          "type": "tuple[]"
        },
        {
          "internalType": "uint256",
          "name": "_buffer0",
          "type": "uint256"
        },
        {
          "internalType": "uint256",
          "name": "_buffer1",
          "type": "uint256"
        },
        {
          "components": [
            {
              "internalType": "bool",
              "name": "reduceOnly",
              "type": "bool"
            },
            {
              "internalType": "bool",
              "name": "swapAnyway",
              "type": "bool"
            },
            {
              "internalType": "bool",
              "name": "quoterMode",
              "type": "bool"
            },
            {
              "internalType": "bool",
              "name": "isQuoteZero",
              "type": "bool"
            }
          ],
          "internalType": "struct DataType.TradeOption",
          "name": "_tradeOption",
          "type": "tuple"
        }
      ],
      "name": "updatePosition",
      "outputs": [
        {
          "internalType": "uint256",
          "name": "vaultId",
          "type": "uint256"
        }
      ],
      "stateMutability": "nonpayable",
      "type": "function"
    },
    {
      "inputs": [],
      "name": "vaultIdCount",
      "outputs": [
        {
          "internalType": "uint256",
          "name": "",
          "type": "uint256"
        }
      ],
      "stateMutability": "view",
      "type": "function"
    },
    {
      "inputs": [
        {
          "internalType": "uint256",
          "name": "",
          "type": "uint256"
        }
      ],
      "name": "vaults",
      "outputs": [
        {
          "internalType": "uint256",
          "name": "vaultId",
          "type": "uint256"
        },
        {
          "internalType": "address",
          "name": "owner",
          "type": "address"
        },
        {
          "internalType": "bool",
          "name": "isClosed",
          "type": "bool"
        },
        {
          "components": [
            {
              "internalType": "uint256",
              "name": "collateralAmountNotInMarket",
              "type": "uint256"
            },
            {
              "internalType": "uint256",
              "name": "collateralAmount",
              "type": "uint256"
            },
            {
              "internalType": "uint256",
              "name": "debtAmount",
              "type": "uint256"
            }
          ],
          "internalType": "struct BaseToken.AccountState",
          "name": "balance0",
          "type": "tuple"
        },
        {
          "components": [
            {
              "internalType": "uint256",
              "name": "collateralAmountNotInMarket",
              "type": "uint256"
            },
            {
              "internalType": "uint256",
              "name": "collateralAmount",
              "type": "uint256"
            },
            {
              "internalType": "uint256",
              "name": "debtAmount",
              "type": "uint256"
            }
          ],
          "internalType": "struct BaseToken.AccountState",
          "name": "balance1",
          "type": "tuple"
        }
      ],
      "stateMutability": "view",
      "type": "function"
    }
  ],
  "transactionHash": "0xbb9b7537bc0a2e96e6c1fc7a6d9292ea4ee28ad18185b2ec155cc5210ae6a0a0",
  "args": [
    {
      "feeTier": 500,
      "token0": "0x6466232Bf77e70bEa2535393DC9B2b0d94ea3C22",
      "token1": "0xF61Cffd6071a8DB7cD5E8DF1D3A5450D9903cF1c",
      "isMarginZero": false
    },
    "0xC36442b4a4522E871399CD717aBDD847Ab11FE88",
    "0x1F98431c8aD98523631AE4a59f267346ea31F984",
    "0xE592427A0AEce92De3Edee1F18E0157C05861564"
  ],
  "solcInputHash": "dd2f62ed864686cc799d88bd6fe6be46",
  "bytecode": "0x60806040523480156200001157600080fd5b50604051620063d1380380620063d1833981016040819052620000349162000512565b835160078054602080880151600680546001600160a01b03199081166001600160a01b0393841617918290556040808c015162ffffff60a01b19909616600160a01b62ffffff998a16810291909117831696851696909617968790556060808d0151600a805460ff60a01b191691151589029190911790556008805484168d8716179055600980549093168a861617909255805191820181529183168152918516828401529290930490931690820152859185918591859190620001059084908390620003b0811b620015bf17901c565b600a80546001600160a01b0319166001600160a01b039283161790556001600490815560065460405163095ea7b360e01b815292169163095ea7b391620001539188916000199101620005e1565b602060405180830381600087803b1580156200016e57600080fd5b505af115801562000183573d6000803e3d6000fd5b505050506040513d601f19601f82011682018060405250810190620001a99190620004ee565b5060075460405163095ea7b360e01b81526001600160a01b039091169063095ea7b390620001e090879060001990600401620005e1565b602060405180830381600087803b158015620001fb57600080fd5b505af115801562000210573d6000803e3d6000fd5b505050506040513d601f19601f82011682018060405250810190620002369190620004ee565b5060065460405163095ea7b360e01b81526001600160a01b039091169063095ea7b3906200026d90859060001990600401620005e1565b602060405180830381600087803b1580156200028857600080fd5b505af11580156200029d573d6000803e3d6000fd5b505050506040513d601f19601f82011682018060405250810190620002c39190620004ee565b5060075460405163095ea7b360e01b81526001600160a01b039091169063095ea7b390620002fa90859060001990600401620005e1565b602060405180830381600087803b1580156200031557600080fd5b505af11580156200032a573d6000803e3d6000fd5b505050506040513d601f19601f82011682018060405250810190620003509190620004ee565b506200036b6006600501620004a860201b620016a31760201c565b620003856006600901620004a860201b620016a31760201c565b5050426002555050602080546001600160a01b031916331790555050603c60015550620005fa915050565b600081602001516001600160a01b031682600001516001600160a01b031610620003d957600080fd5b50805160208083015160409384015184516001600160a01b0394851681850152939091168385015262ffffff166060808401919091528351808403820181526080840185528051908301207fff0000000000000000000000000000000000000000000000000000000000000060a085015294901b6001600160601b03191660a183015260b58201939093527fe34f199b19b2b4f47f68442619d555527d244f78a3297ea89325f843f87b8b5460d5808301919091528251808303909101815260f5909101909152805191012090565b670de0b6b3a764000060028201819055600390910155565b80516001600160a01b0381168114620004d857600080fd5b919050565b80518015158114620004d857600080fd5b60006020828403121562000500578081fd5b6200050b82620004dd565b9392505050565b60008060008084860360e081121562000529578384fd5b608081121562000537578384fd5b50604051608081016001600160401b03811182821017156200055557fe5b604052855162ffffff811681146200056b578485fd5b81526200057b60208701620004c0565b60208201526200058e60408701620004c0565b6040820152620005a160608701620004dd565b60608201529350620005b660808601620004c0565b9250620005c660a08601620004c0565b9150620005d660c08601620004c0565b905092959194509250565b6001600160a01b03929092168252602082015260400190565b615dc7806200060a6000396000f3fe608060405234801561001057600080fd5b50600436106101da5760003560e01c80636871577311610104578063b35b7942116100a2578063cf1d121b11610071578063cf1d121b146103e6578063d0496d6a14610406578063eb02c30114610423578063f709ea4714610443576101da565b8063b35b7942146103a5578063b3ab15fb146103b8578063ba398d1f146103cb578063cb3c9a53146103de576101da565b80638c64ea4a116100de5780638c64ea4a146103375780639403b6341461035b57806398d5fdca1461037b5780639e03060b14610383576101da565b806368715773146103095780636d66d0081461031c57806386e6862d1461032f576101da565b80633e1297151161017c57806353aad1d91161014b57806353aad1d9146102c4578063570ca735146102d957806362e0929f146102ee57806365b5f6e3146102f6576101da565b80633e1297151461026857806342189c8f1461028857806349ebb77d146102905780634f7cbc79146102b1576101da565b80631cb05304116101b85780631cb053041461023257806326d8d4f914610245578063275892a21461024d57806333a9d06014610255576101da565b8063013216f5146101df578063059430021461020857806305ecd0031461021d575b600080fd5b6101f26101ed366004614bf2565b610456565b6040516101ff9190615959565b60405180910390f35b61021b61021636600461516f565b6104f3565b005b610225610528565b6040516101ff91906157fc565b610225610240366004614c7d565b610557565b61022561057d565b610225610583565b61021b610263366004614c48565b610589565b61027b610276366004614bf2565b6105f5565b6040516101ff91906157ca565b610225610609565b6102a361029e366004614bf2565b61060f565b6040516101ff929190615c7a565b61021b6102bf366004614bf2565b610641565b6102cc610670565b6040516101ff91906157ee565b6102e16106f9565b6040516101ff9190615711565b61027b610708565b61021b610304366004614b1a565b610718565b61021b610317366004614c2d565b6107a1565b61022561032a366004615105565b6107e9565b6102e16109ad565b61034a610345366004614bf2565b610a36565b6040516101ff959493929190615c41565b61036e610369366004614bf2565b610ab2565b6040516101ff9190615a7e565b610225610bf3565b610396610391366004614d51565b610c0f565b6040516101ff939291906157a5565b61021b6103b33660046150ad565b610d4d565b61021b6103c6366004614afe565b6111da565b6102256103d93660046152b0565b611226565b6102e1611261565b6103f96103f4366004614db1565b6112ff565b6040516101ff9190615792565b61040e611434565b6040516101ff99989796959493929190615725565b610436610431366004614bf2565b6114cf565b6040516101ff91906159cd565b6102256104513660046151f2565b6114e9565b61045e614511565b50600081815260036020818152604092839020835161012081018552815481526001820154600281810b810b810b9483019490945263010000008104840b840b840b95820195909552600160301b9094046001600160801b031660608501529081015460808401529081015460a0830152600481015460c0830152600581015460e0830152600601546101008201525b919050565b6000610512610501846114cf565b8351602085015160408601516112ff565b905061052383828460600151610d4d565b505050565b600a5460009061055290600160a01b900460ff16610544611261565b6001600160a01b03166116bb565b905090565b600061057782610565611261565b600a54600160a01b900460ff16611783565b92915050565b60045481565b60025481565b6020546001600160a01b031633146105bc5760405162461bcd60e51b81526004016105b3906158f0565b60405180910390fd5b8151601b55602080830151601c55604080840151601d55606093840151601e558251601755908201516018558101516019550151601a55565b6000610600826117ba565b610577826119bf565b60015481565b600080600061061c6109ad565b9050610627846117ba565b6000806106348684611a8a565b9095509350505050915091565b6020546001600160a01b0316331461066b5760405162461bcd60e51b81526004016105b3906158f0565b600155565b600a5460408051633850c7bd60e01b815290516000926001600160a01b031691633850c7bd9160048281019260e0929190829003018186803b1580156106b557600080fd5b505afa1580156106c9573d6000803e3d6000fd5b505050506040513d601f19601f820116820180604052508101906106ed9190614eac565b50939695505050505050565b6020546001600160a01b031681565b600a54600160a01b900460ff1690565b6020546001600160a01b031633146107425760405162461bcd60e51b81526004016105b3906158f0565b60005b815181101561079d5760008083838151811061075d57fe5b60200260200101518060200190518101906107789190614f87565b91509150610785826117ba565b6107928282600080611cee565b505050600101610745565b5050565b6020546001600160a01b031633146107cb5760405162461bcd60e51b81526004016105b3906158f0565b80516013556020810151601455604081015160155560600151601655565b60006107f4866117ba565b6000610804878460400151611e8e565b9092509050841561082757600654610827906001600160a01b0316333088611f6d565b831561084557600754610845906001600160a01b0316333087611f6d565b60008073757b1867A79C49404414a3b9dC9B3687EB3C3d1c636728565784600660038c8a6040518663ffffffff1660e01b8152600401610889959493929190615b94565b604080518083038186803b1580156108a057600080fd5b505af41580156108b4573d6000803e3d6000fd5b505050506040513d601f19601f820116820180604052508101906108d89190614c0a565b915091508460400151156108f0576108f082826120bd565b6108f9846119bf565b156109165760405162461bcd60e51b81526004016105b390615877565b818712156109365760405162461bcd60e51b81526004016105b3906158b8565b808612156109565760405162461bcd60e51b81526004016105b3906158d4565b8187131561097e5760065461097e906001600160a01b0316336109798a866120ce565b612133565b808613156109a1576007546109a1906001600160a01b03163361097989856120ce565b50505095945050505050565b600a5460408051633850c7bd60e01b815290516000926001600160a01b031691633850c7bd9160048281019260e0929190829003018186803b1580156109f257600080fd5b505afa158015610a06573d6000803e3d6000fd5b505050506040513d601f19601f82011682018060405250810190610a2a9190614eac565b50949695505050505050565b600560208181526000928352604092839020805460018201548551606080820188526002850154825260038501548287015260048501548289015287519081018852958401548652600684015494860194909452600790920154948401949094526001600160a01b03811692600160a01b90910460ff16919085565b610aba61456c565b6000828152600560208181526040808420815160c0810183528154815260018201546001600160a01b03811682860152600160a01b900460ff1615158184015282516060808201855260028401548252600384015482870152600484015482860152808301919091528351908101845294820154855260068201548585015260078201548584015260808101949094526008810180548351818602810186019094528084529495919460a08701949192909184015b82821015610be55760008481526020908190206040805160c08101825260068602909201805460ff16151583526001808201548486015260028201546001600160801b03169284019290925260038101546060840152600481015460808401526005015460a08301529083529092019101610b6f565b505050915250909392505050565b600a5460009061055290600160a01b900460ff166105446109ad565b60606000806000610c1f88612281565b9094509050600080610c388a610c336109ad565b61253c565b915091508615610cc3576000610c4f828b8b61255c565b90506000821315610cad576040805160e0810190915280600a81526001602082015260006040820181905260608201819052608082015260a0810184905260c0018290528751889086908110610ca157fe5b60200260200101819052505b610cb781846125b0565b95506000945050610d40565b6000610cd0838b8b612615565b90506000831315610d2e576040805160e0810190915280600a81526000602082018190526040820181905260608201819052608082015260a0810185905260c0018290528751889086908110610d2257fe5b60200260200101819052505b60009550610d3c81836125b0565b9450505b5050509450945094915050565b610d56836117ba565b610d5f836119bf565b610d7b5760405162461bcd60e51b81526004016105b39061583e565b600a54600154604051632b44ebb960e21b8152600092733435f7cDF13bec164Ee44257218cB8412ada74ee9263ad13aee492610dc4926001600160a01b031691906004016157d5565b604080518083038186803b158015610ddb57600080fd5b505af4158015610def573d6000803e3d6000fd5b505050506040513d601f19601f82011682018060405250810190610e139190614f42565b506000858152600560208181526040808420815160c0810183528154815260018201546001600160a01b03811682860152600160a01b900460ff16151581840152825160608082018552600284015482526003840154828701526004840154828601528083019190915283519081018452948201548552600682015485850152600782015485840152608081019490945260088101805483518186028101860190945280845296975094959394909360a0860193879084015b82821015610f425760008481526020908190206040805160c08101825260068602909201805460ff16151583526001808201548486015260028201546001600160801b03169284019290925260038101546060840152600481015460808401526005015460a08301529083529092019101610ecc565b5050509152505060405163571e620160e11b815273D15b9881668554933F713afba3B01a8Ac0709e309163ae3cc40291610f8791906003906006908890600401615b4f565b60206040518083038186803b158015610f9f57600080fd5b505af4158015610fb3573d6000803e3d6000fd5b505050506040513d601f19601f82011682018060405250810190610fd79190614f6f565b90506000610fea868660c8850487611cee565b6000878152600560208181526040808420815160c0810183528154815260018201546001600160a01b03811682860152600160a01b900460ff1615158184015282516060808201855260028401548252600384015482870152600484015482860152808301919091528351908101845294820154855260068201548585015260078201548584015260808101949094526008810180548351818602810186019094528084529697509395909460a0870194929384015b828210156111165760008481526020908190206040805160c08101825260068602909201805460ff16151583526001808201548486015260028201546001600160801b03169284019290925260038101546060840152600481015460808401526005015460a083015290835290920191016110a0565b5050509152505060405163571e620160e11b815273D15b9881668554933F713afba3B01a8Ac0709e309163ae3cc4029161115b91906003906006908990600401615b4f565b60206040518083038186803b15801561117357600080fd5b505af4158015611187573d6000803e3d6000fd5b505050506040513d601f19601f820116820180604052508101906111ab9190614f6f565b156111c85760405162461bcd60e51b81526004016105b390615822565b6111d23382612648565b505050505050565b6020546001600160a01b031633146112045760405162461bcd60e51b81526004016105b3906158f0565b602080546001600160a01b0319166001600160a01b0392909216919091179055565b600080611246611235866114cf565b8451602086015160408701516112ff565b90506112568582600080886107e9565b9150505b9392505050565b600a54600154604051632b44ebb960e21b8152600092733435f7cDF13bec164Ee44257218cB8412ada74ee9263ad13aee4926112aa926001600160a01b031691906004016157d5565b604080518083038186803b1580156112c157600080fd5b505af41580156112d5573d6000803e3d6000fd5b505050506040513d601f19601f820116820180604052508101906112f99190614f42565b50919050565b6060600061130c86612682565b9092509050600080611325886113206109ad565b612965565b9150915060008212156113ad57600061134283600003898961297a565b6040805160e08101909152909150806009815260016020820152600060408201819052606082018190526080820181905260a090910190606490869003890204815260200160648389020481525085858151811061139c57fe5b602002602001018190525050611429565b60008112156114295760006113c68260000389896129ad565b6040805160e08101825260098152600060208201819052918101829052606081018290526080810182905291925060a0820190606490859003890204815260200160648389020481525085858151811061141c57fe5b6020026020010181905250505b505050949350505050565b600654600754600854600954600a546040805160808082018352600b548252600c54602080840191909152600d5483850152600e5460608085019190915284519283018552600f5483526010549183019190915260115493820193909352601254928101929092526001600160a01b039687169680871696600160a01b9081900462ffffff169682169582169491821693910460ff16919089565b6114d76145b9565b6114e0826117ba565b610577826129e0565b60008060008061150787866000015187602001518960600151610c0f565b9250925092506064856040015183028161151d57fe5b049150846060015160001480611537575081856060015110155b6115535760405162461bcd60e51b81526004016105b390615805565b60808501511580611568575080856080015110155b6115845760405162461bcd60e51b81526004016105b39061585a565b6115b188846064886040015186028161159957fe5b04606489604001518602816115aa57fe5b048a6107e9565b93505050505b949350505050565b600081602001516001600160a01b031682600001516001600160a01b0316106115e757600080fd5b50805160208083015160409384015184516001600160a01b0394851681850152939091168385015262ffffff166060808401919091528351808403820181526080840185528051908301206001600160f81b031960a085015294901b6bffffffffffffffffffffffff191660a183015260b58201939093527fe34f199b19b2b4f47f68442619d555527d244f78a3297ea89325f843f87b8b5460d5808301919091528251808303909101815260f5909101909152805191012090565b670de0b6b3a764000060028201819055600390910155565b6000670de0b6b3a76400008315611723576116e4838483600160c01b816116de57fe5b04612bac565b915081611703576ec097ce7bc90715b34b9f1000000000915050610577565b816ec097ce7bc90715b34b9f10000000008161171b57fe5b049150611744565b600160601b816117388586600160601b612bac565b028161174057fe5b0491505b6ec097ce7bc90715b34b9f1000000000821115611772576ec097ce7bc90715b34b9f1000000000915061177c565b8161177c57600191505b5092915050565b600080611791858585612c5b565b905060006117a0868686612d88565b91505081606482816117ae57fe5b05039695505050505050565b6000818152600560205260408120905b60088201548110156118f15760408051610120810182526006546001600160a01b03908116825260075480821660208085019190915262ffffff600160a01b9283900416848601526008805484166060808701919091526009548516608080880191909152600a5495861660a088015260ff9490950493909316151560c086015285518085018752600b548152600c5481840152600d5481880152600e548185015260e086015285519384018652600f54845260105491840191909152601154948301949094526012549082015261010082015290830180546118e9926017929091600391600091879081106118bc57fe5b90600052602060002090600602016001015481526020019081526020016000206118e46109ad565b612f38565b6001016117ca565b50604080516080810182526013548152601454602082015260155491810191909152601654606082015260025461192a916006916131a5565b600255604051636ce6130b60e01b815273757b1867A79C49404414a3b9dC9B3687EB3C3d1c90636ce6130b9061196a906006908590600390600401615943565b604080518083038186803b15801561198157600080fd5b505af4158015611995573d6000803e3d6000fd5b505050506040513d601f19601f820116820180604052508101906119b99190614c0a565b50505050565b600a54600154604051632b44ebb960e21b81526000928392733435f7cDF13bec164Ee44257218cB8412ada74ee9263ad13aee492611a0b926001600160a01b03909116916004016157d5565b604080518083038186803b158015611a2257600080fd5b505af4158015611a36573d6000803e3d6000fd5b505050506040513d601f19601f82011682018060405250810190611a5a9190614f42565b5090506000611a7f611a6b856129e0565b600a548490600160a01b900460ff16611783565b600012949350505050565b6000828152600560208181526040808420815160c0810183528154815260018201546001600160a01b03811682860152600160a01b900460ff16151581840152825160608082018552600284015482526003840154828701526004840154828601528083019190915283519081018452948201548552600682015485850152600782015485840152608081019490945260088101805483518186028101860190945280845286958695909460a086019390929091879084015b82821015611bb95760008481526020908190206040805160c08101825260068602909201805460ff16151583526001808201548486015260028201546001600160801b03169284019290925260038101546060840152600481015460808401526005015460a08301529083529092019101611b43565b50505091525050604051631f10af0f60e21b815290915073D15b9881668554933F713afba3B01a8Ac0709e3090637c42bc3c90611c029084906003906006908a90600401615b4f565b60206040518083038186803b158015611c1a57600080fd5b505af4158015611c2e573d6000803e3d6000fd5b505050506040513d601f19601f82011682018060405250810190611c529190614f6f565b60405163571e620160e11b815273D15b9881668554933F713afba3B01a8Ac0709e309063ae3cc40290611c919085906003906006908b90600401615b4f565b60206040518083038186803b158015611ca957600080fd5b505af4158015611cbd573d6000803e3d6000fd5b505050506040513d601f19601f82011682018060405250810190611ce19190614f6f565b92509250505b9250929050565b6000611cf9856117ba565b600085815260056020908152604080832081516080810183526001815286151593810193909352828201849052600a54600160a01b900460ff16151560608401529051636728565760e01b8152909291829173757b1867A79C49404414a3b9dC9B3687EB3C3d1c91636728565791611d7e9187916006916003918e9190600401615b94565b604080518083038186803b158015611d9557600080fd5b505af4158015611da9573d6000803e3d6000fd5b505050506040513d601f19601f82011682018060405250810190611dcd9190614c0a565b6000918203935081039150821215611df75760405162461bcd60e51b81526004016105b3906158b8565b8060001315611e185760405162461bcd60e51b81526004016105b3906158d4565b600a54600160a01b900460ff1615611e3d57611e3482876132df565b94509150611e4c565b611e4781876132df565b945090505b8160001215611e6857611e66600b600285018460006132ff565b505b806000121561142957611e82600f600585018360006132ff565b50505050949350505050565b60008083611f13576004805460018082019092556000818152600560205260409081902082815590920180546001600160a01b03191633179081905591519093507fbf3e9c93de94306b70ac5b9411edf475545815333bf651b894b9eada6482c59491611f069185916001600160a01b031690615c2a565b60405180910390a1611f57565b6000848152600560205260409020600101548492506001600160a01b0316331480611f3b5750825b611f575760405162461bcd60e51b81526004016105b390615927565b5060008181526005602052604090209250929050565b604080516001600160a01b0385811660248301528481166044830152606480830185905283518084039091018152608490920183526020820180516001600160e01b03166323b872dd60e01b178152925182516000948594938a169392918291908083835b60208310611ff15780518252601f199092019160209182019101611fd2565b6001836020036101000a0380198251168184511680821785525050505050509050019150506000604051808303816000865af19150503d8060008114612053576040519150601f19603f3d011682016040523d82523d6000602084013e612058565b606091505b5091509150818015612086575080511580612086575080806020019051602081101561208357600080fd5b50515b6111d2576040805162461bcd60e51b815260206004820152600360248201526229aa2360e91b604482015290519081900360640190fd5b602051828152816020820152604081fd5b60008183038183128015906120e35750838113155b806120f857506000831280156120f857508381135b61125a5760405162461bcd60e51b8152600401808060200182810382526024815260200180615d6e6024913960400191505060405180910390fd5b604080516001600160a01b038481166024830152604480830185905283518084039091018152606490920183526020820180516001600160e01b031663a9059cbb60e01b1781529251825160009485949389169392918291908083835b602083106121af5780518252601f199092019160209182019101612190565b6001836020036101000a0380198251168184511680821785525050505050509050019150506000604051808303816000865af19150503d8060008114612211576040519150601f19603f3d011682016040523d82523d6000602084013e612216565b606091505b5091509150818015612244575080511580612244575080806020019051602081101561224157600080fd5b50515b61227a576040805162461bcd60e51b815260206004820152600260248201526114d560f21b604482015290519081900360640190fd5b5050505050565b6060600061228e8361335e565b6001016001600160401b03811180156122a657600080fd5b506040519080825280602002602001820160405280156122e057816020015b6122cd6145e8565b8152602001906001900390816122c55790505b5091506000805b8460800151518110156123955760008560800151828151811061230657fe5b60200260200101519050806000015161238c576040805160e08101909152806007815260200160001515815260200182602001516001600160801b03168152602001826040015160020b8152602001826060015160020b815260200160008152602001600081525085848151811061237a57fe5b60209081029190910101526001909201915b506001016122e7565b5083511515806123a9575060008460200151115b15612405576040805160e0810182526001815260006020808301829052928201819052606082018190526080820152855160a08201529085015160c082015283518490839081106123f657fe5b60209081029190910101526001015b60008460400151118061241c575060008460600151115b1561247d576040805160e08101825260038152600060208201819052818301819052606080830182905260808301919091529186015160a08201529085015160c0820152835184908390811061246e57fe5b60209081029190910101526001015b90506001810160005b846080015151811015612535576000856080015182815181106124a557fe5b6020026020010151905080600001511561252c576040805160e08101909152806005815260200160001515815260200182602001516001600160801b03168152602001826040015160020b8152602001826060015160020b815260200160008152602001600081525085848151811061251a57fe5b60209081029190910101526001909201915b50600101612486565b5050915091565b60008061255161254a6133a4565b8585613411565b915091509250929050565b600a54600090600160a01b900460ff161561259257600061271083810185025b04905064e8d4a510008582025b0491505061125a565b600061271083810385025b049050808564e8d4a51000028161258957fe5b60008282018183128015906125c55750838112155b806125da57506000831280156125da57508381125b61125a5760405162461bcd60e51b8152600401808060200182810382526021815260200180615d2c6021913960400191505060405180910390fd5b600a54600090600160a01b900460ff1615612639576000612710838103850261259d565b6000612710838101850261257c565b600a5461079d90600160a01b900460ff1661266e576007546001600160a01b031661267b565b6006546001600160a01b03165b8383612133565b6060600061268f8361335e565b6001016001600160401b03811180156126a757600080fd5b506040519080825280602002602001820160405280156126e157816020015b6126ce6145e8565b8152602001906001900390816126c65790505b5091506000805b8460800151518110156127975760008560800151828151811061270757fe5b6020026020010151905080600001511561278e576040805160e08101909152806006815260200160001515815260200182602001516001600160801b03168152602001826040015160020b8152602001826060015160020b815260200160008152602001600081525085848151811061277c57fe5b60209081029190910101526001909201915b506001016126e8565b5090506001810160005b84608001515181101561284f576000856080015182815181106127c057fe5b602002602001015190508060000151612846576040805160e08101909152806008815260200160001515815260200182602001516001600160801b03168152602001826040015160020b8152602001826060015160020b815260200160008152602001600081525085848151811061283457fe5b60209081029190910101526001909201915b506001016127a1565b508351151580612863575060008460200151115b156128d8576040805160e08101909152806002815260006020820181905260408201819052606082018190526080820152855160a090910190600a90600c02048152602001600a8660200151600c02816128b957fe5b048152508382815181106128c957fe5b60209081029190910101526001015b6000846040015111806128ef575060008460600151115b1561295f576040805160e081018252600481526000602082018190528183018190526060820181905260808201529085015160a0820190600a90600c02048152602001600a8660600151600c028161294357fe5b0481525083828151811061295357fe5b60200260200101819052505b50915091565b600080612551846129746133a4565b85613411565b600a54600090600160a01b900460ff161561299e576000612710838101850261259d565b6000612710838103850261257c565b600a54600090600160a01b900460ff16156129d1576000612710838103850261257c565b6000612710838101850261259d565b6129e86145b9565b6000828152600560208181526040808420815160c0810183528154815260018201546001600160a01b03811682860152600160a01b900460ff161515818401528251606080820185526002840154825260038401548287015260048401548286015280830191909152835190810184529482015485526006820154858501526007820154858401526080810194909452600881018054835181860281018601909452808452919360a08601939290879084015b82821015612b115760008481526020908190206040805160c08101825260068602909201805460ff16151583526001808201548486015260028201546001600160801b03169284019290925260038101546060840152600481015460808401526005015460a08301529083529092019101612a9b565b505050915250506040516349ad1ba560e01b815290915073D15b9881668554933F713afba3B01a8Ac0709e30906349ad1ba590612b58908490600390600690600401615b25565b60006040518083038186803b158015612b7057600080fd5b505af4158015612b84573d6000803e3d6000fd5b505050506040513d6000823e601f3d908101601f1916820160405261125a9190810190614caf565b6000808060001985870986860292508281109083900303905080612be25760008411612bd757600080fd5b50829004905061125a565b808411612bee57600080fd5b6000848688096000868103871696879004966002600389028118808a02820302808a02820302808a02820302808a02820302808a02820302808a02909103029181900381900460010186841190950394909402919094039290920491909117919091029150509392505050565b6001600160ff1b036305f5e1006001600160a01b03630554c99f85028116829004916306a9fc0786029091160460005b866080015151811015612d4657600087608001518281518110612caa57fe5b602002602001015190508060000151612d3c576000612cdf6002836040015184606001510160020b81612cd957fe5b05613606565b9050846001600160a01b0316816001600160a01b03161080612d125750806001600160a01b0316846001600160a01b0316105b15612d1e575050612d3e565b6000612d2b8a838a613938565b905080871315612d39578096505b50505b505b600101612c8b565b506000612d54878387613938565b905080841315612d62578093505b506000612d70878487613938565b905080841315612d7e578093505b5050509392505050565b8251602084015160408501516060860151600093849390929091845b896080015151811015612ec35760008a608001518281518110612dc357fe5b602002602001015190506000612ddc8260400151613606565b90506000612ded8360600151613606565b8351909150158015612e1157508b6001600160a01b0316826001600160a01b031611155b8015612e2f5750806001600160a01b03168c6001600160a01b031611155b15612e8057600160601b612e468460400151613606565b612e538560600151613606565b0384602001516001600160801b0316026001600160a01b031681612e7357fe5b0485019450505050612ebb565b600080612e938e85858860200151613954565b8651919350915015612eac579881019897880197612eb5565b96810196958601955b50505050505b600101612da4565b506000612ed9888a6001600160a01b03166116bb565b90508715612f0857670de0b6b3a76400008482020485019650670de0b6b3a76400008282020483019550612f2b565b83670de0b6b3a76400008683020401965081670de0b6b3a7640000848302040195505b5050505050935093915050565b81600601544211612f48576119b9565b6001820154600160301b90046001600160801b031615613175576000612f6e84846139f0565b60a0850151600185015491925060009161302b91612f9e91899190600281810b9163010000009004900b87613a8d565b6040805161012081018252875481526001880154600281810b810b810b602084015263010000008204810b810b810b93830193909352600160301b90046001600160801b03166060820152908701546080820152600387015460a0820152600487015460c0820152600587015460e08201526006870154610100820152613026908890613cec565b613d93565b905060006130928660c001516130778960040160405180608001604052908160008201548152602001600182015481526020016002820154815260200160038201548152505086613db0565b60018801548790600281810b9163010000009004900b613e25565b9050620151808183018660060154420302816130aa57fe5b0491506130c4828660020154613ebd90919063ffffffff16565b6002868101829055600187015460408051610120810182528954815282840b840b840b602082015263010000008304840b840b90930b90830152600160301b90046001600160801b0316606082018190526080820192909252600387015460a0820152600487015460c0820152600587015460e0820152600687015461010082015261316c916131619185919061315c908b90613f17565b613f39565b600387015490613ebd565b60038601555050505b60a08301516001830154613199918691600281810b9163010000009004900b613f4f565b42600683015550505050565b60008142116131b557508061125a565b604080516101208101825285546001600160a01b0390811682526001870154808216602080850191909152600160a01b9182900462ffffff16848601526002890154831660608086019190915260038a0154841660808087019190915260048b015494851660a08701529290930460ff16151560c08501528451808301865260058a0154815260068a01548183015260078a01548187015260088a01548185015260e08501528451918201855260098901548252600a89015490820152600b88015493810193909352600c870154908301526101008101919091526000906301e13380906132ad9086906132a890614136565b613db0565b84420302816132b857fe5b0490506132c86005860182614172565b6132d56009860182614172565b5042949350505050565b6000808284106132f457505080820381611ce7565b506000905082611ce7565b600081156133485761331e83670de0b6b3a76400008760020154613f39565b60018501549091506133309082613ebd565b600185015584546133419082613ebd565b85556115b7565b83546133549084613ebd565b8455949350505050565b6080810151518151151580613377575060008260200151115b15613380576001015b600082604001511180613397575060008260600151115b156104ee57600101919050565b6133ac6145b9565b60408051600080825260208201909252816133dd565b6133ca614626565b8152602001906001900390816133c25790505b5090506040518060a00160405280600081526020016000815260200160008152602001600081526020018281525091505090565b825160009081906134239082906120ce565b915061343c8560200151826120ce90919063ffffffff16565b90506134558560400151836125b090919063ffffffff16565b915061346e8560600151826125b090919063ffffffff16565b845190915061347e9083906125b0565b91506134978460200151826125b090919063ffffffff16565b90506134b08460400151836120ce90919063ffffffff16565b91506134c98460600151826120ce90919063ffffffff16565b905060005b85608001515181101561356f576000866080015182815181106134ed57fe5b602002602001015190506000806135228761350b8560400151613606565b6135188660600151613606565b8660200151613954565b845191935091501561354b5761353886836120ce565b955061354485826120ce565b9450613564565b61355586836125b0565b955061356185826125b0565b94505b5050506001016134ce565b5060005b8460800151518110156135fd5760008560800151828151811061359257fe5b602002602001015190506000806135b08761350b8560400151613606565b84519193509150156135d9576135c686836125b0565b95506135d285826125b0565b94506135f2565b6135e386836120ce565b95506135ef85826120ce565b94505b505050600101613573565b50935093915050565b60008060008360020b1261361d578260020b613625565b8260020b6000035b9050620d89e8811115613663576040805162461bcd60e51b81526020600482015260016024820152601560fa1b604482015290519081900360640190fd5b60006001821661367757600160801b613689565b6ffffcb933bd6fad37aa2d162d1a5940015b70ffffffffffffffffffffffffffffffffff16905060028216156136bd576ffff97272373d413259a46990580e213a0260801c5b60048216156136dc576ffff2e50f5f656932ef12357cf3c7fdcc0260801c5b60088216156136fb576fffe5caca7e10e4e61c3624eaa0941cd00260801c5b601082161561371a576fffcb9843d60f6159c9db58835c9266440260801c5b6020821615613739576fff973b41fa98c081472e6896dfb254c00260801c5b6040821615613758576fff2ea16466c96a3843ec78b326b528610260801c5b6080821615613777576ffe5dee046a99a2a811c461f1969c30530260801c5b610100821615613797576ffcbe86c7900a88aedcffc83b479aa3a40260801c5b6102008216156137b7576ff987a7253ac413176f2b074cf7815e540260801c5b6104008216156137d7576ff3392b0822b70005940c7a398e4b70f30260801c5b6108008216156137f7576fe7159475a2c29b7443b29c7fa6e889d90260801c5b611000821615613817576fd097f3bdfd2022b8845ad8f792aa58250260801c5b612000821615613837576fa9f746462d870fdf8a65dc1f90e061e50260801c5b614000821615613857576f70d869a156d2a1b890bb3df62baf32f70260801c5b618000821615613877576f31be135f97d08fd981231505542fcfa60260801c5b62010000821615613898576f09aa508b5b7a84e1c677de54f3e99bc90260801c5b620200008216156138b8576e5d6af8dedb81196699c329225ee6040260801c5b620400008216156138d7576d2216e584f5fa1ea926041bedfe980260801c5b620800008216156138f4576b048a170391f7dc42444e8fa20260801c5b60008460020b131561390f57806000198161390b57fe5b0490505b640100000000810615613923576001613926565b60005b60ff16602082901c0192505050919050565b6000806000613948868686612d88565b90039695505050505050565b600080836001600160a01b0316856001600160a01b03161115613975579293925b846001600160a01b0316866001600160a01b0316116139a0576139998585856141e6565b91506139e7565b836001600160a01b0316866001600160a01b031610156139d9576139c58685856141e6565b91506139d285878561424f565b90506139e7565b6139e485858561424f565b90505b94509492505050565b6001810154604080516101208101825283548152600283810b810b810b602083015263010000008404810b810b810b92820192909252600160301b9092046001600160801b031660608301819052908301546080830152600383015460a0830152600483015460c0830152600583015460e0830152600683015461010083015260009161125a9190670de0b6b3a76400009061315c908790613f17565b600080856001600160a01b031663f30583996040518163ffffffff1660e01b815260040160206040518083038186803b158015613ac957600080fd5b505afa158015613add573d6000803e3d6000fd5b505050506040513d601f19601f82011682018060405250810190613b019190614f6f565b90506000866001600160a01b031663461413196040518163ffffffff1660e01b815260040160206040518083038186803b158015613b3e57600080fd5b505afa158015613b52573d6000803e3d6000fd5b505050506040513d601f19601f82011682018060405250810190613b769190614f6f565b90506000876001600160a01b0316633850c7bd6040518163ffffffff1660e01b815260040160e06040518083038186803b158015613bb357600080fd5b505afa158015613bc7573d6000803e3d6000fd5b505050506040513d601f19601f82011682018060405250810190613beb9190614eac565b5050505050915050600080613c17613c038b8b614292565b613c0d8c8b614292565b8b8b878a8a61435e565b9150915060008989604051602001613c309291906156f4565b604051602081830303815290604052805190602001209050613cdc613c8b8d6000016040518060800160405290816000820154815260200160018201548152602001600282015481526020016003820154815250508a613db0565b8d600801600084815260200190815260200160002060405180608001604052908160008201548152602001600182015481526020016002820154815260200160038201548152505085858a8a6143db565b9c9b505050505050505050505050565b6060820151815160405163133f757160e31b815260009283926001600160a01b03909116916399fbab8891613d23916004016157fc565b6101806040518083038186803b158015613d3c57600080fd5b505afa158015613d50573d6000803e3d6000fd5b505050506040513d601f19601f82011682018060405250810190613d749190615332565b50506001600160801b039092169a505050505050505050505092915050565b60008183670de0b6b3a76400000281613da857fe5b049392505050565b81516020830151600091908311613ddf57670de0b6b3a76400008460400151840281613dd857fe5b040161125a565b670de0b6b3a7640000846040015185602001510281613dfa57fe5b0481019050670de0b6b3a76400008460200151840385606001510281613e1c57fe5b04019392505050565b6000806000613e4e86613e3787613606565b613e4087613606565b670de0b6b3a7640000613954565b915091506000613e6789886001600160a01b03166116bb565b90508815613e8b5782613e838383670de0b6b3a7640000613f39565b019350613ea3565b81613e9f8483670de0b6b3a7640000613f39565b0193505b670de0b6b3a7640000848902049998505050505050505050565b60008282018381101561125a576040805162461bcd60e51b815260206004820152601b60248201527f536166654d6174683a206164646974696f6e206f766572666c6f770000000000604482015290519081900360640190fd5b600081606001516001600160801b0316613f318484613cec565b019392505050565b60006115b782613f498686614459565b906144b2565b6000836001600160a01b031663f30583996040518163ffffffff1660e01b815260040160206040518083038186803b158015613f8a57600080fd5b505afa158015613f9e573d6000803e3d6000fd5b505050506040513d601f19601f82011682018060405250810190613fc29190614f6f565b90506000846001600160a01b031663461413196040518163ffffffff1660e01b815260040160206040518083038186803b158015613fff57600080fd5b505afa158015614013573d6000803e3d6000fd5b505050506040513d601f19601f820116820180604052508101906140379190614f6f565b90506000856001600160a01b0316633850c7bd6040518163ffffffff1660e01b815260040160e06040518083038186803b15801561407457600080fd5b505afa158015614088573d6000803e3d6000fd5b505050506040513d601f19601f820116820180604052508101906140ac9190614eac565b50505050509150506000806140d86140c48989614292565b6140ce8a89614292565b8989878a8a61435e565b91509150600087876040516020016140f19291906156f4565b60408051601f19818403018152918152815160209283012060009081526008909c01909152909920918255600182015560028101939093555060039091015550505050565b60e0810151516000906141525750670de0b6b3a76400006104ee565b60e0820151602081015190516105779190670de0b6b3a764000090613f39565b815461417d5761079d565b61419e826003015482670de0b6b3a764000001670de0b6b3a7640000613f39565b6003830155600182015482546000916141b991849190613f39565b670de0b6b3a76400000190506141dc836002015482670de0b6b3a7640000613f39565b6002840155505050565b6000826001600160a01b0316846001600160a01b03161115614206579192915b836001600160a01b031661423f606060ff16846001600160801b0316901b8686036001600160a01b0316866001600160a01b0316612bac565b8161424657fe5b04949350505050565b6000826001600160a01b0316846001600160a01b0316111561426f579192915b6115b7826001600160801b03168585036001600160a01b0316600160601b612bac565b61429a61464d565b6000806000856001600160a01b031663f30dba93866040518263ffffffff1660e01b81526004016142cb91906157ee565b6101006040518083038186803b1580156142e457600080fd5b505afa1580156142f8573d6000803e3d6000fd5b505050506040513d601f19601f8201168201806040525081019061431c9190614e02565b9750505050945094505050806143445760405162461bcd60e51b81526004016105b390615893565b506040805180820190915291825260208201529392505050565b6000806000808860020b8760020b1261437f575050885160208a015161438f565b5050885160208a01519085039084035b6000808960020b8960020b12156143ae575050895160208b01516143be565b5050895160208b01519087039086035b92909603959095039a949093039290920397509195505050505050565b6000806000876040015185111561440f578760400151850388600001518803670de0b6b3a7640000028161440b57fe5b0491505b876060015184111561443e578760600151840388602001518703670de0b6b3a7640000028161443a57fe5b0490505b671bc16d674ec80000910188020490505b9695505050505050565b60008261446857506000610577565b8282028284828161447557fe5b041461125a5760405162461bcd60e51b8152600401808060200182810382526021815260200180615d4d6021913960400191505060405180910390fd5b6000808211614508576040805162461bcd60e51b815260206004820152601a60248201527f536166654d6174683a206469766973696f6e206279207a65726f000000000000604482015290519081900360640190fd5b818381613da857fe5b60405180610120016040528060008152602001600060020b8152602001600060020b815260200160006001600160801b0316815260200160008152602001600081526020016000815260200160008152602001600081525090565b6040518060c001604052806000815260200160006001600160a01b0316815260200160001515815260200161459f614667565b81526020016145ac614667565b8152602001606081525090565b6040518060a0016040528060008152602001600081526020016000815260200160008152602001606081525090565b6040805160e08101909152806000815260006020820181905260408201819052606082018190526080820181905260a0820181905260c09091015290565b60408051608081018252600080825260208201819052918101829052606081019190915290565b604051806040016040528060008152602001600081525090565b60405180606001604052806000815260200160008152602001600081525090565b80516104ee81615cd4565b600082601f8301126146a3578081fd5b815160206146b86146b383615cab565b615c88565b828152818101908583016080808602880185018910156146d6578687fd5b865b868110156147675781838b0312156146ee578788fd5b604080518381018181106001600160401b038211171561470a57fe5b8252845161471781615cec565b81528488015161472681615d16565b818901528482015161473781615d07565b808383015250606091508185015161474e81615d07565b91810191909152855293850193918101916001016146d8565b509198975050505050505050565b600082601f830112614785578081fd5b813560206147956146b383615cab565b8281528181019085830160e0808602880185018910156147b3578687fd5b865b868110156147675781838b0312156147cb578788fd5b604080518381018181106001600160401b03821117156147e757fe5b82526147f285614877565b81526147ff888601614861565b8882015261480e828601614ac3565b828201526060915061482182860161488d565b828201526080915061483482860161488d565b9181019190915260a0848101359082015260c08085013590820152855293850193918101916001016147b5565b80356104ee81615cec565b80516104ee81615cec565b80356104ee81615cfa565b80516104ee81615cfa565b80356104ee81615d07565b80516104ee81615d07565b6000608082840312156148b4578081fd5b604051608081018181106001600160401b03821117156148d057fe5b8060405250809150823581526020830135602082015260408301356040820152606083013560608201525092915050565b600060a08284031215614912578081fd5b6040805160a081016001600160401b03828210818311171561493057fe5b818452829450853583526020915081860135828401528386013584840152606080870135818501526080808801358381111561496b57600080fd5b8801601f81018a1361497c57600080fd5b803561498a6146b382615cab565b81815286810190838801858402850189018e10156149a757600080fd5b600094505b83851015614a2c5785818f0312156149c357600080fd5b8a518681018181108a821117156149d657fe5b8c5281356149e381615cec565b8152818a01356149f281615d16565b818b0152818c0135614a0381615d07565b818d015281880135614a1481615d07565b818901528352600194909401939188019185016149ac565b5080858a01525050505050505050505092915050565b600060808284031215614a53578081fd5b604051608081018181106001600160401b0382111715614a6f57fe5b6040529050808235614a8081615cec565b81526020830135614a9081615cec565b60208201526040830135614aa381615cec565b60408201526060830135614ab681615cec565b6060919091015292915050565b80356104ee81615d16565b80516104ee81615d16565b805161ffff811681146104ee57600080fd5b805162ffffff811681146104ee57600080fd5b600060208284031215614b0f578081fd5b813561125a81615cd4565b60006020808385031215614b2c578182fd5b82356001600160401b0380821115614b42578384fd5b8185019150601f8681840112614b56578485fd5b8235614b646146b382615cab565b81815285810190858701885b84811015614be257813588018c603f820112614b8a578a8bfd5b89810135604089821115614b9a57fe5b614bab828a01601f19168d01615c88565b8281528f82848601011115614bbe578d8efd5b828285018e8301379182018c018d9052508552509288019290880190600101614b70565b50909a9950505050505050505050565b600060208284031215614c03578081fd5b5035919050565b60008060408385031215614c1c578081fd5b505080516020909101519092909150565b600060808284031215614c3e578081fd5b61125a83836148a3565b6000806101008385031215614c5b578182fd5b614c6584846148a3565b9150614c7484608085016148a3565b90509250929050565b600060208284031215614c8e578081fd5b81356001600160401b03811115614ca3578182fd5b6115b784828501614901565b600060208284031215614cc0578081fd5b81516001600160401b0380821115614cd6578283fd5b9083019060a08286031215614ce9578283fd5b60405160a081018181108382111715614cfe57fe5b806040525082518152602083015160208201526040830151604082015260608301516060820152608083015182811115614d36578485fd5b614d4287828601614693565b60808301525095945050505050565b60008060008060808587031215614d66578182fd5b84356001600160401b03811115614d7b578283fd5b614d8787828801614901565b94505060208501359250604085013591506060850135614da681615cec565b939692955090935050565b60008060008060808587031215614dc6578182fd5b84356001600160401b03811115614ddb578283fd5b614de787828801614901565b97602087013597506040870135966060013595509350505050565b600080600080600080600080610100898b031215614e1e578586fd5b8851614e2981615d16565b80985050602089015180600f0b8114614e40578687fd5b80975050604089015195506060890151945060808901518060060b8114614e65578485fd5b60a08a0151909450614e7681615cd4565b60c08a015190935063ffffffff81168114614e8f578283fd5b9150614e9d60e08a0161486c565b90509295985092959890939650565b600080600080600080600060e0888a031215614ec6578081fd5b8751614ed181615cd4565b6020890151909750614ee281615d07565b9550614ef060408901614ad9565b9450614efe60608901614ad9565b9350614f0c60808901614ad9565b925060a088015160ff81168114614f21578182fd5b60c0890151909250614f3281615cec565b8091505092959891949750929550565b60008060408385031215614f54578182fd5b8251614f5f81615cd4565b6020939093015192949293505050565b600060208284031215614f80578081fd5b5051919050565b6000806040808486031215614f9a578283fd5b835192506020808501516001600160401b0380821115614fb8578485fd5b818701915087601f830112614fcb578485fd5b8151614fd96146b382615cab565b8181528481019084860160e0808502870188018d1015614ff757898afd5b8996505b8487101561509b5780828e03121561501157898afd5b8851818101818110888211171561502457fe5b8a5261502f83614882565b815261503c89840161486c565b8982015261504b8a8401614ace565b8a820152606061505c818501614898565b90820152608061506d848201614898565b9082015260a0838101519082015260c080840151908201528452600196909601959287019290810190614ffb565b50989b909a5098505050505050505050565b6000806000606084860312156150c1578081fd5b8335925060208401356001600160401b038111156150dd578182fd5b6150e986828701614775565b92505060408401356150fa81615cec565b809150509250925092565b6000806000806000610100868803121561511d578283fd5b8535945060208601356001600160401b03811115615139578384fd5b61514588828901614775565b94505060408601359250606086013591506151638760808801614a42565b90509295509295909350565b60008082840360a0811215615182578283fd5b833592506080601f1982011215615197578182fd5b50604051608081018181106001600160401b03821117156151b457fe5b806040525060208401358152604084013560208201526060840135604082015260808401356151e281615cec565b6060820152919491935090915050565b600080600080848603610160811215615209578283fd5b8535945060208601356001600160401b0380821115615226578485fd5b61523289838a01614901565b95506152418960408a01614a42565b945060a060bf1984011215615254578384fd5b604051925060a083019150828210818311171561526d57fe5b50604090815260c0870135825260e08701356020830152610100870135908201526101208601356060820152610140909501356080860152509194909350909190565b60008060008385036101008112156152c6578182fd5b843593506152d78660208701614a42565b92506060609f19820112156152ea578182fd5b50604051606081018181106001600160401b038211171561530757fe5b806040525060a0850135815260c0850135602082015260e08501356040820152809150509250925092565b6000806000806000806000806000806000806101808d8f031215615354578586fd5b8c516bffffffffffffffffffffffff8116811461536f578687fd5b9b5061537d60208e01614688565b9a5061538b60408e01614688565b995061539960608e01614688565b98506153a760808e01614aeb565b97506153b560a08e01614898565b96506153c360c08e01614898565b95506153d160e08e01614ace565b94506101008d015193506101208d015192506153f06101408e01614ace565b91506153ff6101608e01614ace565b90509295989b509295989b509295989b565b6001600160a01b03169052565b6000815180845260208085019450808401835b838110156154575761544487835161558e565b60e0969096019590820190600101615431565b509495945050505050565b15159052565b8051825260208082015190830152604090810151910152565b6154948261548f8354615cc8565b615411565b60018101546001600160a01b036154b060208501828416615411565b6154c56040850162ffffff8460a01c166156eb565b6154d26002840154615cc8565b91506154e16060850183615411565b6154ee6003840154615cc8565b91506154fd6080850183615411565b6004830154915061551360a08501828416615411565b5061552760c0840160ff8360a01c16615462565b5061553860e0830160058301615615565b61079d610160830160098301615615565b805115158252602081015160208301526001600160801b036040820151166040830152606081015160608301526080810151608083015260a081015160a08301525050565b8051600b811061559a57fe5b808352506020810151151560208301526001600160801b036040820151166040830152606081015160020b6060830152608081015160020b608083015260a081015160a083015260c081015160c08301525050565b805182526020810151602083015260408101516040830152606081015160608301525050565b80548252600181015460208301526002810154604083015260030154606090910152565b600061014080840183518552602060018060a01b0381860151168187015260408501511515604087015260608501516156756060880182615468565b50608085015160c061568981890183615468565b60a08701516101208901959095528451938490526101608801948301938692505b808310156156d1576156bd868651615549565b9481019493830193600192909201916156aa565b5093979650505050505050565b6001600160801b03169052565b62ffffff169052565b600292830b60e890811b82529190920b901b600382015260060190565b6001600160a01b0391909116815260200190565b6001600160a01b038a81168252898116602083015262ffffff8916604083015287811660608301528681166080830152851660a082015283151560c08201526101e0810161577660e08301856155ef565b6157846101608301846155ef565b9a9950505050505050505050565b60006020825261125a602083018461541e565b6000606082526157b8606083018661541e565b60208301949094525060400152919050565b901515815260200190565b6001600160a01b03929092168252602082015260400190565b60029190910b815260200190565b90815260200190565b60208082526003908201526204348360ec1b604082015260600190565b602080825260029082015261503760f01b604082015260600190565b602080825260029082015261140d60f21b604082015260600190565b60208082526003908201526243483160e81b604082015260600190565b602080825260029082015261503360f01b604082015260600190565b6020808252600b908201526a1a5b9a5d1a585b1a5e995960aa1b604082015260600190565b602080825260029082015261503560f01b604082015260600190565b602080825260029082015261281b60f11b604082015260600190565b60208082526017908201527f63616c6c6572206d757374206265206f70657261746f72000000000000000000604082015260600190565b602080825260029082015261281960f11b604082015260600190565b9283526020830191909152604082015260600190565b60006101208201905082518252602083015160020b6020830152604083015160020b6040830152606083015161599260608401826156de565b506080830151608083015260a083015160a083015260c083015160c083015260e083015160e083015261010080840151818401525092915050565b6000602080835260c083018451828501528185015160408181870152808701519150606082818801528088015192506080838189015280890151935060a08089015284845180875260e08a01915087860196508895505b80861015615a70578651805115158352888101516001600160801b03168984015285810151600290810b8785015290850151900b84830152958701956001959095019490820190615a24565b509998505050505050505050565b60006020808352610160830184518285015260018060a01b03828601511660408501526040850151151560608501526060850151615abf6080860182615468565b506080850151615ad260e0860182615468565b5060a08501516101408581015280519182905282019083906101808601905b80831015615b1a57615b04828551615549565b60c0820191508484019350600183019250615af1565b509695505050505050565b6000610220808352615b3981840187615639565b9150508360208301526115b76040830184615481565b6000610240808352615b6381840188615639565b915050846020830152615b796040830185615481565b6001600160a01b039290921661022091909101529392505050565b6000610100808301888452602088818601528760408601528260608601528192508651808352610120860193508188019250845b81811015615bee57615bdb85855161558e565b60e0949094019392820192600101615bc8565b5050855115156080860152850151151560a0850152506040840151151560c0840152606090930151151560e09092019190915250949350505050565b9182526001600160a01b0316602082015260400190565b8581526001600160a01b038516602082015283151560408201526101208101615c6d6060830185615468565b61444f60c0830184615468565b918252602082015260400190565b6040518181016001600160401b0381118282101715615ca357fe5b604052919050565b60006001600160401b03821115615cbe57fe5b5060209081020190565b6001600160a01b031690565b6001600160a01b0381168114615ce957600080fd5b50565b8015158114615ce957600080fd5b600b8110615ce957600080fd5b8060020b8114615ce957600080fd5b6001600160801b0381168114615ce957600080fdfe5369676e6564536166654d6174683a206164646974696f6e206f766572666c6f77536166654d6174683a206d756c7469706c69636174696f6e206f766572666c6f775369676e6564536166654d6174683a207375627472616374696f6e206f766572666c6f77a26469706673582212202cf479633f8ace1f3c62d5905d63c0f9e998a589af112d507846fba2ddf8166764736f6c63430007060033",
  "deployedBytecode": "0x608060405234801561001057600080fd5b50600436106101da5760003560e01c80636871577311610104578063b35b7942116100a2578063cf1d121b11610071578063cf1d121b146103e6578063d0496d6a14610406578063eb02c30114610423578063f709ea4714610443576101da565b8063b35b7942146103a5578063b3ab15fb146103b8578063ba398d1f146103cb578063cb3c9a53146103de576101da565b80638c64ea4a116100de5780638c64ea4a146103375780639403b6341461035b57806398d5fdca1461037b5780639e03060b14610383576101da565b806368715773146103095780636d66d0081461031c57806386e6862d1461032f576101da565b80633e1297151161017c57806353aad1d91161014b57806353aad1d9146102c4578063570ca735146102d957806362e0929f146102ee57806365b5f6e3146102f6576101da565b80633e1297151461026857806342189c8f1461028857806349ebb77d146102905780634f7cbc79146102b1576101da565b80631cb05304116101b85780631cb053041461023257806326d8d4f914610245578063275892a21461024d57806333a9d06014610255576101da565b8063013216f5146101df578063059430021461020857806305ecd0031461021d575b600080fd5b6101f26101ed366004614bf2565b610456565b6040516101ff9190615959565b60405180910390f35b61021b61021636600461516f565b6104f3565b005b610225610528565b6040516101ff91906157fc565b610225610240366004614c7d565b610557565b61022561057d565b610225610583565b61021b610263366004614c48565b610589565b61027b610276366004614bf2565b6105f5565b6040516101ff91906157ca565b610225610609565b6102a361029e366004614bf2565b61060f565b6040516101ff929190615c7a565b61021b6102bf366004614bf2565b610641565b6102cc610670565b6040516101ff91906157ee565b6102e16106f9565b6040516101ff9190615711565b61027b610708565b61021b610304366004614b1a565b610718565b61021b610317366004614c2d565b6107a1565b61022561032a366004615105565b6107e9565b6102e16109ad565b61034a610345366004614bf2565b610a36565b6040516101ff959493929190615c41565b61036e610369366004614bf2565b610ab2565b6040516101ff9190615a7e565b610225610bf3565b610396610391366004614d51565b610c0f565b6040516101ff939291906157a5565b61021b6103b33660046150ad565b610d4d565b61021b6103c6366004614afe565b6111da565b6102256103d93660046152b0565b611226565b6102e1611261565b6103f96103f4366004614db1565b6112ff565b6040516101ff9190615792565b61040e611434565b6040516101ff99989796959493929190615725565b610436610431366004614bf2565b6114cf565b6040516101ff91906159cd565b6102256104513660046151f2565b6114e9565b61045e614511565b50600081815260036020818152604092839020835161012081018552815481526001820154600281810b810b810b9483019490945263010000008104840b840b840b95820195909552600160301b9094046001600160801b031660608501529081015460808401529081015460a0830152600481015460c0830152600581015460e0830152600601546101008201525b919050565b6000610512610501846114cf565b8351602085015160408601516112ff565b905061052383828460600151610d4d565b505050565b600a5460009061055290600160a01b900460ff16610544611261565b6001600160a01b03166116bb565b905090565b600061057782610565611261565b600a54600160a01b900460ff16611783565b92915050565b60045481565b60025481565b6020546001600160a01b031633146105bc5760405162461bcd60e51b81526004016105b3906158f0565b60405180910390fd5b8151601b55602080830151601c55604080840151601d55606093840151601e558251601755908201516018558101516019550151601a55565b6000610600826117ba565b610577826119bf565b60015481565b600080600061061c6109ad565b9050610627846117ba565b6000806106348684611a8a565b9095509350505050915091565b6020546001600160a01b0316331461066b5760405162461bcd60e51b81526004016105b3906158f0565b600155565b600a5460408051633850c7bd60e01b815290516000926001600160a01b031691633850c7bd9160048281019260e0929190829003018186803b1580156106b557600080fd5b505afa1580156106c9573d6000803e3d6000fd5b505050506040513d601f19601f820116820180604052508101906106ed9190614eac565b50939695505050505050565b6020546001600160a01b031681565b600a54600160a01b900460ff1690565b6020546001600160a01b031633146107425760405162461bcd60e51b81526004016105b3906158f0565b60005b815181101561079d5760008083838151811061075d57fe5b60200260200101518060200190518101906107789190614f87565b91509150610785826117ba565b6107928282600080611cee565b505050600101610745565b5050565b6020546001600160a01b031633146107cb5760405162461bcd60e51b81526004016105b3906158f0565b80516013556020810151601455604081015160155560600151601655565b60006107f4866117ba565b6000610804878460400151611e8e565b9092509050841561082757600654610827906001600160a01b0316333088611f6d565b831561084557600754610845906001600160a01b0316333087611f6d565b60008073__$da03e66f624374a74ff67f4d42d7f52632$__636728565784600660038c8a6040518663ffffffff1660e01b8152600401610889959493929190615b94565b604080518083038186803b1580156108a057600080fd5b505af41580156108b4573d6000803e3d6000fd5b505050506040513d601f19601f820116820180604052508101906108d89190614c0a565b915091508460400151156108f0576108f082826120bd565b6108f9846119bf565b156109165760405162461bcd60e51b81526004016105b390615877565b818712156109365760405162461bcd60e51b81526004016105b3906158b8565b808612156109565760405162461bcd60e51b81526004016105b3906158d4565b8187131561097e5760065461097e906001600160a01b0316336109798a866120ce565b612133565b808613156109a1576007546109a1906001600160a01b03163361097989856120ce565b50505095945050505050565b600a5460408051633850c7bd60e01b815290516000926001600160a01b031691633850c7bd9160048281019260e0929190829003018186803b1580156109f257600080fd5b505afa158015610a06573d6000803e3d6000fd5b505050506040513d601f19601f82011682018060405250810190610a2a9190614eac565b50949695505050505050565b600560208181526000928352604092839020805460018201548551606080820188526002850154825260038501548287015260048501548289015287519081018852958401548652600684015494860194909452600790920154948401949094526001600160a01b03811692600160a01b90910460ff16919085565b610aba61456c565b6000828152600560208181526040808420815160c0810183528154815260018201546001600160a01b03811682860152600160a01b900460ff1615158184015282516060808201855260028401548252600384015482870152600484015482860152808301919091528351908101845294820154855260068201548585015260078201548584015260808101949094526008810180548351818602810186019094528084529495919460a08701949192909184015b82821015610be55760008481526020908190206040805160c08101825260068602909201805460ff16151583526001808201548486015260028201546001600160801b03169284019290925260038101546060840152600481015460808401526005015460a08301529083529092019101610b6f565b505050915250909392505050565b600a5460009061055290600160a01b900460ff166105446109ad565b60606000806000610c1f88612281565b9094509050600080610c388a610c336109ad565b61253c565b915091508615610cc3576000610c4f828b8b61255c565b90506000821315610cad576040805160e0810190915280600a81526001602082015260006040820181905260608201819052608082015260a0810184905260c0018290528751889086908110610ca157fe5b60200260200101819052505b610cb781846125b0565b95506000945050610d40565b6000610cd0838b8b612615565b90506000831315610d2e576040805160e0810190915280600a81526000602082018190526040820181905260608201819052608082015260a0810185905260c0018290528751889086908110610d2257fe5b60200260200101819052505b60009550610d3c81836125b0565b9450505b5050509450945094915050565b610d56836117ba565b610d5f836119bf565b610d7b5760405162461bcd60e51b81526004016105b39061583e565b600a54600154604051632b44ebb960e21b815260009273__$33c292c158d5f9ac43a728d8230e22b075$__9263ad13aee492610dc4926001600160a01b031691906004016157d5565b604080518083038186803b158015610ddb57600080fd5b505af4158015610def573d6000803e3d6000fd5b505050506040513d601f19601f82011682018060405250810190610e139190614f42565b506000858152600560208181526040808420815160c0810183528154815260018201546001600160a01b03811682860152600160a01b900460ff16151581840152825160608082018552600284015482526003840154828701526004840154828601528083019190915283519081018452948201548552600682015485850152600782015485840152608081019490945260088101805483518186028101860190945280845296975094959394909360a0860193879084015b82821015610f425760008481526020908190206040805160c08101825260068602909201805460ff16151583526001808201548486015260028201546001600160801b03169284019290925260038101546060840152600481015460808401526005015460a08301529083529092019101610ecc565b5050509152505060405163571e620160e11b815273__$b4a4919001844372a79711112cfb20c2b9$__9163ae3cc40291610f8791906003906006908890600401615b4f565b60206040518083038186803b158015610f9f57600080fd5b505af4158015610fb3573d6000803e3d6000fd5b505050506040513d601f19601f82011682018060405250810190610fd79190614f6f565b90506000610fea868660c8850487611cee565b6000878152600560208181526040808420815160c0810183528154815260018201546001600160a01b03811682860152600160a01b900460ff1615158184015282516060808201855260028401548252600384015482870152600484015482860152808301919091528351908101845294820154855260068201548585015260078201548584015260808101949094526008810180548351818602810186019094528084529697509395909460a0870194929384015b828210156111165760008481526020908190206040805160c08101825260068602909201805460ff16151583526001808201548486015260028201546001600160801b03169284019290925260038101546060840152600481015460808401526005015460a083015290835290920191016110a0565b5050509152505060405163571e620160e11b815273__$b4a4919001844372a79711112cfb20c2b9$__9163ae3cc4029161115b91906003906006908990600401615b4f565b60206040518083038186803b15801561117357600080fd5b505af4158015611187573d6000803e3d6000fd5b505050506040513d601f19601f820116820180604052508101906111ab9190614f6f565b156111c85760405162461bcd60e51b81526004016105b390615822565b6111d23382612648565b505050505050565b6020546001600160a01b031633146112045760405162461bcd60e51b81526004016105b3906158f0565b602080546001600160a01b0319166001600160a01b0392909216919091179055565b600080611246611235866114cf565b8451602086015160408701516112ff565b90506112568582600080886107e9565b9150505b9392505050565b600a54600154604051632b44ebb960e21b815260009273__$33c292c158d5f9ac43a728d8230e22b075$__9263ad13aee4926112aa926001600160a01b031691906004016157d5565b604080518083038186803b1580156112c157600080fd5b505af41580156112d5573d6000803e3d6000fd5b505050506040513d601f19601f820116820180604052508101906112f99190614f42565b50919050565b6060600061130c86612682565b9092509050600080611325886113206109ad565b612965565b9150915060008212156113ad57600061134283600003898961297a565b6040805160e08101909152909150806009815260016020820152600060408201819052606082018190526080820181905260a090910190606490869003890204815260200160648389020481525085858151811061139c57fe5b602002602001018190525050611429565b60008112156114295760006113c68260000389896129ad565b6040805160e08101825260098152600060208201819052918101829052606081018290526080810182905291925060a0820190606490859003890204815260200160648389020481525085858151811061141c57fe5b6020026020010181905250505b505050949350505050565b600654600754600854600954600a546040805160808082018352600b548252600c54602080840191909152600d5483850152600e5460608085019190915284519283018552600f5483526010549183019190915260115493820193909352601254928101929092526001600160a01b039687169680871696600160a01b9081900462ffffff169682169582169491821693910460ff16919089565b6114d76145b9565b6114e0826117ba565b610577826129e0565b60008060008061150787866000015187602001518960600151610c0f565b9250925092506064856040015183028161151d57fe5b049150846060015160001480611537575081856060015110155b6115535760405162461bcd60e51b81526004016105b390615805565b60808501511580611568575080856080015110155b6115845760405162461bcd60e51b81526004016105b39061585a565b6115b188846064886040015186028161159957fe5b04606489604001518602816115aa57fe5b048a6107e9565b93505050505b949350505050565b600081602001516001600160a01b031682600001516001600160a01b0316106115e757600080fd5b50805160208083015160409384015184516001600160a01b0394851681850152939091168385015262ffffff166060808401919091528351808403820181526080840185528051908301206001600160f81b031960a085015294901b6bffffffffffffffffffffffff191660a183015260b58201939093527fe34f199b19b2b4f47f68442619d555527d244f78a3297ea89325f843f87b8b5460d5808301919091528251808303909101815260f5909101909152805191012090565b670de0b6b3a764000060028201819055600390910155565b6000670de0b6b3a76400008315611723576116e4838483600160c01b816116de57fe5b04612bac565b915081611703576ec097ce7bc90715b34b9f1000000000915050610577565b816ec097ce7bc90715b34b9f10000000008161171b57fe5b049150611744565b600160601b816117388586600160601b612bac565b028161174057fe5b0491505b6ec097ce7bc90715b34b9f1000000000821115611772576ec097ce7bc90715b34b9f1000000000915061177c565b8161177c57600191505b5092915050565b600080611791858585612c5b565b905060006117a0868686612d88565b91505081606482816117ae57fe5b05039695505050505050565b6000818152600560205260408120905b60088201548110156118f15760408051610120810182526006546001600160a01b03908116825260075480821660208085019190915262ffffff600160a01b9283900416848601526008805484166060808701919091526009548516608080880191909152600a5495861660a088015260ff9490950493909316151560c086015285518085018752600b548152600c5481840152600d5481880152600e548185015260e086015285519384018652600f54845260105491840191909152601154948301949094526012549082015261010082015290830180546118e9926017929091600391600091879081106118bc57fe5b90600052602060002090600602016001015481526020019081526020016000206118e46109ad565b612f38565b6001016117ca565b50604080516080810182526013548152601454602082015260155491810191909152601654606082015260025461192a916006916131a5565b600255604051636ce6130b60e01b815273__$da03e66f624374a74ff67f4d42d7f52632$__90636ce6130b9061196a906006908590600390600401615943565b604080518083038186803b15801561198157600080fd5b505af4158015611995573d6000803e3d6000fd5b505050506040513d601f19601f820116820180604052508101906119b99190614c0a565b50505050565b600a54600154604051632b44ebb960e21b8152600092839273__$33c292c158d5f9ac43a728d8230e22b075$__9263ad13aee492611a0b926001600160a01b03909116916004016157d5565b604080518083038186803b158015611a2257600080fd5b505af4158015611a36573d6000803e3d6000fd5b505050506040513d601f19601f82011682018060405250810190611a5a9190614f42565b5090506000611a7f611a6b856129e0565b600a548490600160a01b900460ff16611783565b600012949350505050565b6000828152600560208181526040808420815160c0810183528154815260018201546001600160a01b03811682860152600160a01b900460ff16151581840152825160608082018552600284015482526003840154828701526004840154828601528083019190915283519081018452948201548552600682015485850152600782015485840152608081019490945260088101805483518186028101860190945280845286958695909460a086019390929091879084015b82821015611bb95760008481526020908190206040805160c08101825260068602909201805460ff16151583526001808201548486015260028201546001600160801b03169284019290925260038101546060840152600481015460808401526005015460a08301529083529092019101611b43565b50505091525050604051631f10af0f60e21b815290915073__$b4a4919001844372a79711112cfb20c2b9$__90637c42bc3c90611c029084906003906006908a90600401615b4f565b60206040518083038186803b158015611c1a57600080fd5b505af4158015611c2e573d6000803e3d6000fd5b505050506040513d601f19601f82011682018060405250810190611c529190614f6f565b60405163571e620160e11b815273__$b4a4919001844372a79711112cfb20c2b9$__9063ae3cc40290611c919085906003906006908b90600401615b4f565b60206040518083038186803b158015611ca957600080fd5b505af4158015611cbd573d6000803e3d6000fd5b505050506040513d601f19601f82011682018060405250810190611ce19190614f6f565b92509250505b9250929050565b6000611cf9856117ba565b600085815260056020908152604080832081516080810183526001815286151593810193909352828201849052600a54600160a01b900460ff16151560608401529051636728565760e01b8152909291829173__$da03e66f624374a74ff67f4d42d7f52632$__91636728565791611d7e9187916006916003918e9190600401615b94565b604080518083038186803b158015611d9557600080fd5b505af4158015611da9573d6000803e3d6000fd5b505050506040513d601f19601f82011682018060405250810190611dcd9190614c0a565b6000918203935081039150821215611df75760405162461bcd60e51b81526004016105b3906158b8565b8060001315611e185760405162461bcd60e51b81526004016105b3906158d4565b600a54600160a01b900460ff1615611e3d57611e3482876132df565b94509150611e4c565b611e4781876132df565b945090505b8160001215611e6857611e66600b600285018460006132ff565b505b806000121561142957611e82600f600585018360006132ff565b50505050949350505050565b60008083611f13576004805460018082019092556000818152600560205260409081902082815590920180546001600160a01b03191633179081905591519093507fbf3e9c93de94306b70ac5b9411edf475545815333bf651b894b9eada6482c59491611f069185916001600160a01b031690615c2a565b60405180910390a1611f57565b6000848152600560205260409020600101548492506001600160a01b0316331480611f3b5750825b611f575760405162461bcd60e51b81526004016105b390615927565b5060008181526005602052604090209250929050565b604080516001600160a01b0385811660248301528481166044830152606480830185905283518084039091018152608490920183526020820180516001600160e01b03166323b872dd60e01b178152925182516000948594938a169392918291908083835b60208310611ff15780518252601f199092019160209182019101611fd2565b6001836020036101000a0380198251168184511680821785525050505050509050019150506000604051808303816000865af19150503d8060008114612053576040519150601f19603f3d011682016040523d82523d6000602084013e612058565b606091505b5091509150818015612086575080511580612086575080806020019051602081101561208357600080fd5b50515b6111d2576040805162461bcd60e51b815260206004820152600360248201526229aa2360e91b604482015290519081900360640190fd5b602051828152816020820152604081fd5b60008183038183128015906120e35750838113155b806120f857506000831280156120f857508381135b61125a5760405162461bcd60e51b8152600401808060200182810382526024815260200180615d6e6024913960400191505060405180910390fd5b604080516001600160a01b038481166024830152604480830185905283518084039091018152606490920183526020820180516001600160e01b031663a9059cbb60e01b1781529251825160009485949389169392918291908083835b602083106121af5780518252601f199092019160209182019101612190565b6001836020036101000a0380198251168184511680821785525050505050509050019150506000604051808303816000865af19150503d8060008114612211576040519150601f19603f3d011682016040523d82523d6000602084013e612216565b606091505b5091509150818015612244575080511580612244575080806020019051602081101561224157600080fd5b50515b61227a576040805162461bcd60e51b815260206004820152600260248201526114d560f21b604482015290519081900360640190fd5b5050505050565b6060600061228e8361335e565b6001016001600160401b03811180156122a657600080fd5b506040519080825280602002602001820160405280156122e057816020015b6122cd6145e8565b8152602001906001900390816122c55790505b5091506000805b8460800151518110156123955760008560800151828151811061230657fe5b60200260200101519050806000015161238c576040805160e08101909152806007815260200160001515815260200182602001516001600160801b03168152602001826040015160020b8152602001826060015160020b815260200160008152602001600081525085848151811061237a57fe5b60209081029190910101526001909201915b506001016122e7565b5083511515806123a9575060008460200151115b15612405576040805160e0810182526001815260006020808301829052928201819052606082018190526080820152855160a08201529085015160c082015283518490839081106123f657fe5b60209081029190910101526001015b60008460400151118061241c575060008460600151115b1561247d576040805160e08101825260038152600060208201819052818301819052606080830182905260808301919091529186015160a08201529085015160c0820152835184908390811061246e57fe5b60209081029190910101526001015b90506001810160005b846080015151811015612535576000856080015182815181106124a557fe5b6020026020010151905080600001511561252c576040805160e08101909152806005815260200160001515815260200182602001516001600160801b03168152602001826040015160020b8152602001826060015160020b815260200160008152602001600081525085848151811061251a57fe5b60209081029190910101526001909201915b50600101612486565b5050915091565b60008061255161254a6133a4565b8585613411565b915091509250929050565b600a54600090600160a01b900460ff161561259257600061271083810185025b04905064e8d4a510008582025b0491505061125a565b600061271083810385025b049050808564e8d4a51000028161258957fe5b60008282018183128015906125c55750838112155b806125da57506000831280156125da57508381125b61125a5760405162461bcd60e51b8152600401808060200182810382526021815260200180615d2c6021913960400191505060405180910390fd5b600a54600090600160a01b900460ff1615612639576000612710838103850261259d565b6000612710838101850261257c565b600a5461079d90600160a01b900460ff1661266e576007546001600160a01b031661267b565b6006546001600160a01b03165b8383612133565b6060600061268f8361335e565b6001016001600160401b03811180156126a757600080fd5b506040519080825280602002602001820160405280156126e157816020015b6126ce6145e8565b8152602001906001900390816126c65790505b5091506000805b8460800151518110156127975760008560800151828151811061270757fe5b6020026020010151905080600001511561278e576040805160e08101909152806006815260200160001515815260200182602001516001600160801b03168152602001826040015160020b8152602001826060015160020b815260200160008152602001600081525085848151811061277c57fe5b60209081029190910101526001909201915b506001016126e8565b5090506001810160005b84608001515181101561284f576000856080015182815181106127c057fe5b602002602001015190508060000151612846576040805160e08101909152806008815260200160001515815260200182602001516001600160801b03168152602001826040015160020b8152602001826060015160020b815260200160008152602001600081525085848151811061283457fe5b60209081029190910101526001909201915b506001016127a1565b508351151580612863575060008460200151115b156128d8576040805160e08101909152806002815260006020820181905260408201819052606082018190526080820152855160a090910190600a90600c02048152602001600a8660200151600c02816128b957fe5b048152508382815181106128c957fe5b60209081029190910101526001015b6000846040015111806128ef575060008460600151115b1561295f576040805160e081018252600481526000602082018190528183018190526060820181905260808201529085015160a0820190600a90600c02048152602001600a8660600151600c028161294357fe5b0481525083828151811061295357fe5b60200260200101819052505b50915091565b600080612551846129746133a4565b85613411565b600a54600090600160a01b900460ff161561299e576000612710838101850261259d565b6000612710838103850261257c565b600a54600090600160a01b900460ff16156129d1576000612710838103850261257c565b6000612710838101850261259d565b6129e86145b9565b6000828152600560208181526040808420815160c0810183528154815260018201546001600160a01b03811682860152600160a01b900460ff161515818401528251606080820185526002840154825260038401548287015260048401548286015280830191909152835190810184529482015485526006820154858501526007820154858401526080810194909452600881018054835181860281018601909452808452919360a08601939290879084015b82821015612b115760008481526020908190206040805160c08101825260068602909201805460ff16151583526001808201548486015260028201546001600160801b03169284019290925260038101546060840152600481015460808401526005015460a08301529083529092019101612a9b565b505050915250506040516349ad1ba560e01b815290915073__$b4a4919001844372a79711112cfb20c2b9$__906349ad1ba590612b58908490600390600690600401615b25565b60006040518083038186803b158015612b7057600080fd5b505af4158015612b84573d6000803e3d6000fd5b505050506040513d6000823e601f3d908101601f1916820160405261125a9190810190614caf565b6000808060001985870986860292508281109083900303905080612be25760008411612bd757600080fd5b50829004905061125a565b808411612bee57600080fd5b6000848688096000868103871696879004966002600389028118808a02820302808a02820302808a02820302808a02820302808a02820302808a02909103029181900381900460010186841190950394909402919094039290920491909117919091029150509392505050565b6001600160ff1b036305f5e1006001600160a01b03630554c99f85028116829004916306a9fc0786029091160460005b866080015151811015612d4657600087608001518281518110612caa57fe5b602002602001015190508060000151612d3c576000612cdf6002836040015184606001510160020b81612cd957fe5b05613606565b9050846001600160a01b0316816001600160a01b03161080612d125750806001600160a01b0316846001600160a01b0316105b15612d1e575050612d3e565b6000612d2b8a838a613938565b905080871315612d39578096505b50505b505b600101612c8b565b506000612d54878387613938565b905080841315612d62578093505b506000612d70878487613938565b905080841315612d7e578093505b5050509392505050565b8251602084015160408501516060860151600093849390929091845b896080015151811015612ec35760008a608001518281518110612dc357fe5b602002602001015190506000612ddc8260400151613606565b90506000612ded8360600151613606565b8351909150158015612e1157508b6001600160a01b0316826001600160a01b031611155b8015612e2f5750806001600160a01b03168c6001600160a01b031611155b15612e8057600160601b612e468460400151613606565b612e538560600151613606565b0384602001516001600160801b0316026001600160a01b031681612e7357fe5b0485019450505050612ebb565b600080612e938e85858860200151613954565b8651919350915015612eac579881019897880197612eb5565b96810196958601955b50505050505b600101612da4565b506000612ed9888a6001600160a01b03166116bb565b90508715612f0857670de0b6b3a76400008482020485019650670de0b6b3a76400008282020483019550612f2b565b83670de0b6b3a76400008683020401965081670de0b6b3a7640000848302040195505b5050505050935093915050565b81600601544211612f48576119b9565b6001820154600160301b90046001600160801b031615613175576000612f6e84846139f0565b60a0850151600185015491925060009161302b91612f9e91899190600281810b9163010000009004900b87613a8d565b6040805161012081018252875481526001880154600281810b810b810b602084015263010000008204810b810b810b93830193909352600160301b90046001600160801b03166060820152908701546080820152600387015460a0820152600487015460c0820152600587015460e08201526006870154610100820152613026908890613cec565b613d93565b905060006130928660c001516130778960040160405180608001604052908160008201548152602001600182015481526020016002820154815260200160038201548152505086613db0565b60018801548790600281810b9163010000009004900b613e25565b9050620151808183018660060154420302816130aa57fe5b0491506130c4828660020154613ebd90919063ffffffff16565b6002868101829055600187015460408051610120810182528954815282840b840b840b602082015263010000008304840b840b90930b90830152600160301b90046001600160801b0316606082018190526080820192909252600387015460a0820152600487015460c0820152600587015460e0820152600687015461010082015261316c916131619185919061315c908b90613f17565b613f39565b600387015490613ebd565b60038601555050505b60a08301516001830154613199918691600281810b9163010000009004900b613f4f565b42600683015550505050565b60008142116131b557508061125a565b604080516101208101825285546001600160a01b0390811682526001870154808216602080850191909152600160a01b9182900462ffffff16848601526002890154831660608086019190915260038a0154841660808087019190915260048b015494851660a08701529290930460ff16151560c08501528451808301865260058a0154815260068a01548183015260078a01548187015260088a01548185015260e08501528451918201855260098901548252600a89015490820152600b88015493810193909352600c870154908301526101008101919091526000906301e13380906132ad9086906132a890614136565b613db0565b84420302816132b857fe5b0490506132c86005860182614172565b6132d56009860182614172565b5042949350505050565b6000808284106132f457505080820381611ce7565b506000905082611ce7565b600081156133485761331e83670de0b6b3a76400008760020154613f39565b60018501549091506133309082613ebd565b600185015584546133419082613ebd565b85556115b7565b83546133549084613ebd565b8455949350505050565b6080810151518151151580613377575060008260200151115b15613380576001015b600082604001511180613397575060008260600151115b156104ee57600101919050565b6133ac6145b9565b60408051600080825260208201909252816133dd565b6133ca614626565b8152602001906001900390816133c25790505b5090506040518060a00160405280600081526020016000815260200160008152602001600081526020018281525091505090565b825160009081906134239082906120ce565b915061343c8560200151826120ce90919063ffffffff16565b90506134558560400151836125b090919063ffffffff16565b915061346e8560600151826125b090919063ffffffff16565b845190915061347e9083906125b0565b91506134978460200151826125b090919063ffffffff16565b90506134b08460400151836120ce90919063ffffffff16565b91506134c98460600151826120ce90919063ffffffff16565b905060005b85608001515181101561356f576000866080015182815181106134ed57fe5b602002602001015190506000806135228761350b8560400151613606565b6135188660600151613606565b8660200151613954565b845191935091501561354b5761353886836120ce565b955061354485826120ce565b9450613564565b61355586836125b0565b955061356185826125b0565b94505b5050506001016134ce565b5060005b8460800151518110156135fd5760008560800151828151811061359257fe5b602002602001015190506000806135b08761350b8560400151613606565b84519193509150156135d9576135c686836125b0565b95506135d285826125b0565b94506135f2565b6135e386836120ce565b95506135ef85826120ce565b94505b505050600101613573565b50935093915050565b60008060008360020b1261361d578260020b613625565b8260020b6000035b9050620d89e8811115613663576040805162461bcd60e51b81526020600482015260016024820152601560fa1b604482015290519081900360640190fd5b60006001821661367757600160801b613689565b6ffffcb933bd6fad37aa2d162d1a5940015b70ffffffffffffffffffffffffffffffffff16905060028216156136bd576ffff97272373d413259a46990580e213a0260801c5b60048216156136dc576ffff2e50f5f656932ef12357cf3c7fdcc0260801c5b60088216156136fb576fffe5caca7e10e4e61c3624eaa0941cd00260801c5b601082161561371a576fffcb9843d60f6159c9db58835c9266440260801c5b6020821615613739576fff973b41fa98c081472e6896dfb254c00260801c5b6040821615613758576fff2ea16466c96a3843ec78b326b528610260801c5b6080821615613777576ffe5dee046a99a2a811c461f1969c30530260801c5b610100821615613797576ffcbe86c7900a88aedcffc83b479aa3a40260801c5b6102008216156137b7576ff987a7253ac413176f2b074cf7815e540260801c5b6104008216156137d7576ff3392b0822b70005940c7a398e4b70f30260801c5b6108008216156137f7576fe7159475a2c29b7443b29c7fa6e889d90260801c5b611000821615613817576fd097f3bdfd2022b8845ad8f792aa58250260801c5b612000821615613837576fa9f746462d870fdf8a65dc1f90e061e50260801c5b614000821615613857576f70d869a156d2a1b890bb3df62baf32f70260801c5b618000821615613877576f31be135f97d08fd981231505542fcfa60260801c5b62010000821615613898576f09aa508b5b7a84e1c677de54f3e99bc90260801c5b620200008216156138b8576e5d6af8dedb81196699c329225ee6040260801c5b620400008216156138d7576d2216e584f5fa1ea926041bedfe980260801c5b620800008216156138f4576b048a170391f7dc42444e8fa20260801c5b60008460020b131561390f57806000198161390b57fe5b0490505b640100000000810615613923576001613926565b60005b60ff16602082901c0192505050919050565b6000806000613948868686612d88565b90039695505050505050565b600080836001600160a01b0316856001600160a01b03161115613975579293925b846001600160a01b0316866001600160a01b0316116139a0576139998585856141e6565b91506139e7565b836001600160a01b0316866001600160a01b031610156139d9576139c58685856141e6565b91506139d285878561424f565b90506139e7565b6139e485858561424f565b90505b94509492505050565b6001810154604080516101208101825283548152600283810b810b810b602083015263010000008404810b810b810b92820192909252600160301b9092046001600160801b031660608301819052908301546080830152600383015460a0830152600483015460c0830152600583015460e0830152600683015461010083015260009161125a9190670de0b6b3a76400009061315c908790613f17565b600080856001600160a01b031663f30583996040518163ffffffff1660e01b815260040160206040518083038186803b158015613ac957600080fd5b505afa158015613add573d6000803e3d6000fd5b505050506040513d601f19601f82011682018060405250810190613b019190614f6f565b90506000866001600160a01b031663461413196040518163ffffffff1660e01b815260040160206040518083038186803b158015613b3e57600080fd5b505afa158015613b52573d6000803e3d6000fd5b505050506040513d601f19601f82011682018060405250810190613b769190614f6f565b90506000876001600160a01b0316633850c7bd6040518163ffffffff1660e01b815260040160e06040518083038186803b158015613bb357600080fd5b505afa158015613bc7573d6000803e3d6000fd5b505050506040513d601f19601f82011682018060405250810190613beb9190614eac565b5050505050915050600080613c17613c038b8b614292565b613c0d8c8b614292565b8b8b878a8a61435e565b9150915060008989604051602001613c309291906156f4565b604051602081830303815290604052805190602001209050613cdc613c8b8d6000016040518060800160405290816000820154815260200160018201548152602001600282015481526020016003820154815250508a613db0565b8d600801600084815260200190815260200160002060405180608001604052908160008201548152602001600182015481526020016002820154815260200160038201548152505085858a8a6143db565b9c9b505050505050505050505050565b6060820151815160405163133f757160e31b815260009283926001600160a01b03909116916399fbab8891613d23916004016157fc565b6101806040518083038186803b158015613d3c57600080fd5b505afa158015613d50573d6000803e3d6000fd5b505050506040513d601f19601f82011682018060405250810190613d749190615332565b50506001600160801b039092169a505050505050505050505092915050565b60008183670de0b6b3a76400000281613da857fe5b049392505050565b81516020830151600091908311613ddf57670de0b6b3a76400008460400151840281613dd857fe5b040161125a565b670de0b6b3a7640000846040015185602001510281613dfa57fe5b0481019050670de0b6b3a76400008460200151840385606001510281613e1c57fe5b04019392505050565b6000806000613e4e86613e3787613606565b613e4087613606565b670de0b6b3a7640000613954565b915091506000613e6789886001600160a01b03166116bb565b90508815613e8b5782613e838383670de0b6b3a7640000613f39565b019350613ea3565b81613e9f8483670de0b6b3a7640000613f39565b0193505b670de0b6b3a7640000848902049998505050505050505050565b60008282018381101561125a576040805162461bcd60e51b815260206004820152601b60248201527f536166654d6174683a206164646974696f6e206f766572666c6f770000000000604482015290519081900360640190fd5b600081606001516001600160801b0316613f318484613cec565b019392505050565b60006115b782613f498686614459565b906144b2565b6000836001600160a01b031663f30583996040518163ffffffff1660e01b815260040160206040518083038186803b158015613f8a57600080fd5b505afa158015613f9e573d6000803e3d6000fd5b505050506040513d601f19601f82011682018060405250810190613fc29190614f6f565b90506000846001600160a01b031663461413196040518163ffffffff1660e01b815260040160206040518083038186803b158015613fff57600080fd5b505afa158015614013573d6000803e3d6000fd5b505050506040513d601f19601f820116820180604052508101906140379190614f6f565b90506000856001600160a01b0316633850c7bd6040518163ffffffff1660e01b815260040160e06040518083038186803b15801561407457600080fd5b505afa158015614088573d6000803e3d6000fd5b505050506040513d601f19601f820116820180604052508101906140ac9190614eac565b50505050509150506000806140d86140c48989614292565b6140ce8a89614292565b8989878a8a61435e565b91509150600087876040516020016140f19291906156f4565b60408051601f19818403018152918152815160209283012060009081526008909c01909152909920918255600182015560028101939093555060039091015550505050565b60e0810151516000906141525750670de0b6b3a76400006104ee565b60e0820151602081015190516105779190670de0b6b3a764000090613f39565b815461417d5761079d565b61419e826003015482670de0b6b3a764000001670de0b6b3a7640000613f39565b6003830155600182015482546000916141b991849190613f39565b670de0b6b3a76400000190506141dc836002015482670de0b6b3a7640000613f39565b6002840155505050565b6000826001600160a01b0316846001600160a01b03161115614206579192915b836001600160a01b031661423f606060ff16846001600160801b0316901b8686036001600160a01b0316866001600160a01b0316612bac565b8161424657fe5b04949350505050565b6000826001600160a01b0316846001600160a01b0316111561426f579192915b6115b7826001600160801b03168585036001600160a01b0316600160601b612bac565b61429a61464d565b6000806000856001600160a01b031663f30dba93866040518263ffffffff1660e01b81526004016142cb91906157ee565b6101006040518083038186803b1580156142e457600080fd5b505afa1580156142f8573d6000803e3d6000fd5b505050506040513d601f19601f8201168201806040525081019061431c9190614e02565b9750505050945094505050806143445760405162461bcd60e51b81526004016105b390615893565b506040805180820190915291825260208201529392505050565b6000806000808860020b8760020b1261437f575050885160208a015161438f565b5050885160208a01519085039084035b6000808960020b8960020b12156143ae575050895160208b01516143be565b5050895160208b01519087039086035b92909603959095039a949093039290920397509195505050505050565b6000806000876040015185111561440f578760400151850388600001518803670de0b6b3a7640000028161440b57fe5b0491505b876060015184111561443e578760600151840388602001518703670de0b6b3a7640000028161443a57fe5b0490505b671bc16d674ec80000910188020490505b9695505050505050565b60008261446857506000610577565b8282028284828161447557fe5b041461125a5760405162461bcd60e51b8152600401808060200182810382526021815260200180615d4d6021913960400191505060405180910390fd5b6000808211614508576040805162461bcd60e51b815260206004820152601a60248201527f536166654d6174683a206469766973696f6e206279207a65726f000000000000604482015290519081900360640190fd5b818381613da857fe5b60405180610120016040528060008152602001600060020b8152602001600060020b815260200160006001600160801b0316815260200160008152602001600081526020016000815260200160008152602001600081525090565b6040518060c001604052806000815260200160006001600160a01b0316815260200160001515815260200161459f614667565b81526020016145ac614667565b8152602001606081525090565b6040518060a0016040528060008152602001600081526020016000815260200160008152602001606081525090565b6040805160e08101909152806000815260006020820181905260408201819052606082018190526080820181905260a0820181905260c09091015290565b60408051608081018252600080825260208201819052918101829052606081019190915290565b604051806040016040528060008152602001600081525090565b60405180606001604052806000815260200160008152602001600081525090565b80516104ee81615cd4565b600082601f8301126146a3578081fd5b815160206146b86146b383615cab565b615c88565b828152818101908583016080808602880185018910156146d6578687fd5b865b868110156147675781838b0312156146ee578788fd5b604080518381018181106001600160401b038211171561470a57fe5b8252845161471781615cec565b81528488015161472681615d16565b818901528482015161473781615d07565b808383015250606091508185015161474e81615d07565b91810191909152855293850193918101916001016146d8565b509198975050505050505050565b600082601f830112614785578081fd5b813560206147956146b383615cab565b8281528181019085830160e0808602880185018910156147b3578687fd5b865b868110156147675781838b0312156147cb578788fd5b604080518381018181106001600160401b03821117156147e757fe5b82526147f285614877565b81526147ff888601614861565b8882015261480e828601614ac3565b828201526060915061482182860161488d565b828201526080915061483482860161488d565b9181019190915260a0848101359082015260c08085013590820152855293850193918101916001016147b5565b80356104ee81615cec565b80516104ee81615cec565b80356104ee81615cfa565b80516104ee81615cfa565b80356104ee81615d07565b80516104ee81615d07565b6000608082840312156148b4578081fd5b604051608081018181106001600160401b03821117156148d057fe5b8060405250809150823581526020830135602082015260408301356040820152606083013560608201525092915050565b600060a08284031215614912578081fd5b6040805160a081016001600160401b03828210818311171561493057fe5b818452829450853583526020915081860135828401528386013584840152606080870135818501526080808801358381111561496b57600080fd5b8801601f81018a1361497c57600080fd5b803561498a6146b382615cab565b81815286810190838801858402850189018e10156149a757600080fd5b600094505b83851015614a2c5785818f0312156149c357600080fd5b8a518681018181108a821117156149d657fe5b8c5281356149e381615cec565b8152818a01356149f281615d16565b818b0152818c0135614a0381615d07565b818d015281880135614a1481615d07565b818901528352600194909401939188019185016149ac565b5080858a01525050505050505050505092915050565b600060808284031215614a53578081fd5b604051608081018181106001600160401b0382111715614a6f57fe5b6040529050808235614a8081615cec565b81526020830135614a9081615cec565b60208201526040830135614aa381615cec565b60408201526060830135614ab681615cec565b6060919091015292915050565b80356104ee81615d16565b80516104ee81615d16565b805161ffff811681146104ee57600080fd5b805162ffffff811681146104ee57600080fd5b600060208284031215614b0f578081fd5b813561125a81615cd4565b60006020808385031215614b2c578182fd5b82356001600160401b0380821115614b42578384fd5b8185019150601f8681840112614b56578485fd5b8235614b646146b382615cab565b81815285810190858701885b84811015614be257813588018c603f820112614b8a578a8bfd5b89810135604089821115614b9a57fe5b614bab828a01601f19168d01615c88565b8281528f82848601011115614bbe578d8efd5b828285018e8301379182018c018d9052508552509288019290880190600101614b70565b50909a9950505050505050505050565b600060208284031215614c03578081fd5b5035919050565b60008060408385031215614c1c578081fd5b505080516020909101519092909150565b600060808284031215614c3e578081fd5b61125a83836148a3565b6000806101008385031215614c5b578182fd5b614c6584846148a3565b9150614c7484608085016148a3565b90509250929050565b600060208284031215614c8e578081fd5b81356001600160401b03811115614ca3578182fd5b6115b784828501614901565b600060208284031215614cc0578081fd5b81516001600160401b0380821115614cd6578283fd5b9083019060a08286031215614ce9578283fd5b60405160a081018181108382111715614cfe57fe5b806040525082518152602083015160208201526040830151604082015260608301516060820152608083015182811115614d36578485fd5b614d4287828601614693565b60808301525095945050505050565b60008060008060808587031215614d66578182fd5b84356001600160401b03811115614d7b578283fd5b614d8787828801614901565b94505060208501359250604085013591506060850135614da681615cec565b939692955090935050565b60008060008060808587031215614dc6578182fd5b84356001600160401b03811115614ddb578283fd5b614de787828801614901565b97602087013597506040870135966060013595509350505050565b600080600080600080600080610100898b031215614e1e578586fd5b8851614e2981615d16565b80985050602089015180600f0b8114614e40578687fd5b80975050604089015195506060890151945060808901518060060b8114614e65578485fd5b60a08a0151909450614e7681615cd4565b60c08a015190935063ffffffff81168114614e8f578283fd5b9150614e9d60e08a0161486c565b90509295985092959890939650565b600080600080600080600060e0888a031215614ec6578081fd5b8751614ed181615cd4565b6020890151909750614ee281615d07565b9550614ef060408901614ad9565b9450614efe60608901614ad9565b9350614f0c60808901614ad9565b925060a088015160ff81168114614f21578182fd5b60c0890151909250614f3281615cec565b8091505092959891949750929550565b60008060408385031215614f54578182fd5b8251614f5f81615cd4565b6020939093015192949293505050565b600060208284031215614f80578081fd5b5051919050565b6000806040808486031215614f9a578283fd5b835192506020808501516001600160401b0380821115614fb8578485fd5b818701915087601f830112614fcb578485fd5b8151614fd96146b382615cab565b8181528481019084860160e0808502870188018d1015614ff757898afd5b8996505b8487101561509b5780828e03121561501157898afd5b8851818101818110888211171561502457fe5b8a5261502f83614882565b815261503c89840161486c565b8982015261504b8a8401614ace565b8a820152606061505c818501614898565b90820152608061506d848201614898565b9082015260a0838101519082015260c080840151908201528452600196909601959287019290810190614ffb565b50989b909a5098505050505050505050565b6000806000606084860312156150c1578081fd5b8335925060208401356001600160401b038111156150dd578182fd5b6150e986828701614775565b92505060408401356150fa81615cec565b809150509250925092565b6000806000806000610100868803121561511d578283fd5b8535945060208601356001600160401b03811115615139578384fd5b61514588828901614775565b94505060408601359250606086013591506151638760808801614a42565b90509295509295909350565b60008082840360a0811215615182578283fd5b833592506080601f1982011215615197578182fd5b50604051608081018181106001600160401b03821117156151b457fe5b806040525060208401358152604084013560208201526060840135604082015260808401356151e281615cec565b6060820152919491935090915050565b600080600080848603610160811215615209578283fd5b8535945060208601356001600160401b0380821115615226578485fd5b61523289838a01614901565b95506152418960408a01614a42565b945060a060bf1984011215615254578384fd5b604051925060a083019150828210818311171561526d57fe5b50604090815260c0870135825260e08701356020830152610100870135908201526101208601356060820152610140909501356080860152509194909350909190565b60008060008385036101008112156152c6578182fd5b843593506152d78660208701614a42565b92506060609f19820112156152ea578182fd5b50604051606081018181106001600160401b038211171561530757fe5b806040525060a0850135815260c0850135602082015260e08501356040820152809150509250925092565b6000806000806000806000806000806000806101808d8f031215615354578586fd5b8c516bffffffffffffffffffffffff8116811461536f578687fd5b9b5061537d60208e01614688565b9a5061538b60408e01614688565b995061539960608e01614688565b98506153a760808e01614aeb565b97506153b560a08e01614898565b96506153c360c08e01614898565b95506153d160e08e01614ace565b94506101008d015193506101208d015192506153f06101408e01614ace565b91506153ff6101608e01614ace565b90509295989b509295989b509295989b565b6001600160a01b03169052565b6000815180845260208085019450808401835b838110156154575761544487835161558e565b60e0969096019590820190600101615431565b509495945050505050565b15159052565b8051825260208082015190830152604090810151910152565b6154948261548f8354615cc8565b615411565b60018101546001600160a01b036154b060208501828416615411565b6154c56040850162ffffff8460a01c166156eb565b6154d26002840154615cc8565b91506154e16060850183615411565b6154ee6003840154615cc8565b91506154fd6080850183615411565b6004830154915061551360a08501828416615411565b5061552760c0840160ff8360a01c16615462565b5061553860e0830160058301615615565b61079d610160830160098301615615565b805115158252602081015160208301526001600160801b036040820151166040830152606081015160608301526080810151608083015260a081015160a08301525050565b8051600b811061559a57fe5b808352506020810151151560208301526001600160801b036040820151166040830152606081015160020b6060830152608081015160020b608083015260a081015160a083015260c081015160c08301525050565b805182526020810151602083015260408101516040830152606081015160608301525050565b80548252600181015460208301526002810154604083015260030154606090910152565b600061014080840183518552602060018060a01b0381860151168187015260408501511515604087015260608501516156756060880182615468565b50608085015160c061568981890183615468565b60a08701516101208901959095528451938490526101608801948301938692505b808310156156d1576156bd868651615549565b9481019493830193600192909201916156aa565b5093979650505050505050565b6001600160801b03169052565b62ffffff169052565b600292830b60e890811b82529190920b901b600382015260060190565b6001600160a01b0391909116815260200190565b6001600160a01b038a81168252898116602083015262ffffff8916604083015287811660608301528681166080830152851660a082015283151560c08201526101e0810161577660e08301856155ef565b6157846101608301846155ef565b9a9950505050505050505050565b60006020825261125a602083018461541e565b6000606082526157b8606083018661541e565b60208301949094525060400152919050565b901515815260200190565b6001600160a01b03929092168252602082015260400190565b60029190910b815260200190565b90815260200190565b60208082526003908201526204348360ec1b604082015260600190565b602080825260029082015261503760f01b604082015260600190565b602080825260029082015261140d60f21b604082015260600190565b60208082526003908201526243483160e81b604082015260600190565b602080825260029082015261503360f01b604082015260600190565b6020808252600b908201526a1a5b9a5d1a585b1a5e995960aa1b604082015260600190565b602080825260029082015261503560f01b604082015260600190565b602080825260029082015261281b60f11b604082015260600190565b60208082526017908201527f63616c6c6572206d757374206265206f70657261746f72000000000000000000604082015260600190565b602080825260029082015261281960f11b604082015260600190565b9283526020830191909152604082015260600190565b60006101208201905082518252602083015160020b6020830152604083015160020b6040830152606083015161599260608401826156de565b506080830151608083015260a083015160a083015260c083015160c083015260e083015160e083015261010080840151818401525092915050565b6000602080835260c083018451828501528185015160408181870152808701519150606082818801528088015192506080838189015280890151935060a08089015284845180875260e08a01915087860196508895505b80861015615a70578651805115158352888101516001600160801b03168984015285810151600290810b8785015290850151900b84830152958701956001959095019490820190615a24565b509998505050505050505050565b60006020808352610160830184518285015260018060a01b03828601511660408501526040850151151560608501526060850151615abf6080860182615468565b506080850151615ad260e0860182615468565b5060a08501516101408581015280519182905282019083906101808601905b80831015615b1a57615b04828551615549565b60c0820191508484019350600183019250615af1565b509695505050505050565b6000610220808352615b3981840187615639565b9150508360208301526115b76040830184615481565b6000610240808352615b6381840188615639565b915050846020830152615b796040830185615481565b6001600160a01b039290921661022091909101529392505050565b6000610100808301888452602088818601528760408601528260608601528192508651808352610120860193508188019250845b81811015615bee57615bdb85855161558e565b60e0949094019392820192600101615bc8565b5050855115156080860152850151151560a0850152506040840151151560c0840152606090930151151560e09092019190915250949350505050565b9182526001600160a01b0316602082015260400190565b8581526001600160a01b038516602082015283151560408201526101208101615c6d6060830185615468565b61444f60c0830184615468565b918252602082015260400190565b6040518181016001600160401b0381118282101715615ca357fe5b604052919050565b60006001600160401b03821115615cbe57fe5b5060209081020190565b6001600160a01b031690565b6001600160a01b0381168114615ce957600080fd5b50565b8015158114615ce957600080fd5b600b8110615ce957600080fd5b8060020b8114615ce957600080fd5b6001600160801b0381168114615ce957600080fdfe5369676e6564536166654d6174683a206164646974696f6e206f766572666c6f77536166654d6174683a206d756c7469706c69636174696f6e206f766572666c6f775369676e6564536166654d6174683a207375627472616374696f6e206f766572666c6f77a26469706673582212202cf479633f8ace1f3c62d5905d63c0f9e998a589af112d507846fba2ddf8166764736f6c63430007060033",
  "libraries": {
    "LPTMath": "0x3435f7cDF13bec164Ee44257218cB8412ada74ee",
    "PositionUpdater": "0x757b1867A79C49404414a3b9dC9B3687EB3C3d1c",
    "VaultLib": "0xD15b9881668554933F713afba3B01a8Ac0709e30"
  },
  "devdoc": {
    "kind": "dev",
    "methods": {
      "checkLiquidatable(uint256)": {
        "params": {
          "_vaultId": "vault id"
        }
      },
      "forceClose(bytes[])": {
        "params": {
          "_data": "vaults data to close position"
        }
      },
      "getVaultStatus(uint256)": {
        "params": {
          "_vaultId": "vault id"
        }
      },
      "liquidate(uint256,(uint8,bool,uint128,int24,int24,uint256,uint256)[],bool)": {
        "params": {
          "_positionUpdates": "parameters to update position",
          "_vaultId": "vault id"
        }
      },
      "updatePosition(uint256,(uint8,bool,uint128,int24,int24,uint256,uint256)[],uint256,uint256,(bool,bool,bool,bool))": {
        "params": {
          "_buffer0": "max amount of token0 to send",
          "_buffer1": "max amount of token1 to send",
          "_positionUpdates": "parameters to update position",
          "_vaultId": "vault id"
        }
      }
    },
    "version": 1
  },
  "userdoc": {
    "kind": "user",
    "methods": {
      "checkLiquidatable(uint256)": {
        "notice": "Returns the flag whether a vault can be liquidated or not."
      },
      "forceClose(bytes[])": {
        "notice": "Contract owner can close positions"
      },
      "getPrice()": {
        "notice": "Gets current price of underlying token by margin token."
      },
      "getTWAP()": {
        "notice": "Gets Time Weighted Average Price of underlying token by margin token."
      },
      "getVaultStatus(uint256)": {
        "notice": "Returns collateral value and debt value."
      },
      "liquidate(uint256,(uint8,bool,uint128,int24,int24,uint256,uint256)[],bool)": {
        "notice": "Anyone can liquidates the vault if its required collateral value is positive."
      },
      "updatePosition(uint256,(uint8,bool,uint128,int24,int24,uint256,uint256)[],uint256,uint256,(bool,bool,bool,bool))": {
        "notice": "Update position in a vault."
      }
    },
    "version": 1
  },
  "storageLayout": {
    "storage": [
      {
        "astId": 9065,
        "contract": "src/ControllerHelper.sol:ControllerHelper",
        "label": "_initialized",
        "offset": 0,
        "slot": "0",
        "type": "t_bool"
      },
      {
        "astId": 9068,
        "contract": "src/ControllerHelper.sol:ControllerHelper",
        "label": "_initializing",
        "offset": 1,
        "slot": "0",
        "type": "t_bool"
      },
      {
        "astId": 12457,
        "contract": "src/ControllerHelper.sol:ControllerHelper",
        "label": "oraclePeriod",
        "offset": 0,
        "slot": "1",
        "type": "t_uint256"
      },
      {
        "astId": 12459,
        "contract": "src/ControllerHelper.sol:ControllerHelper",
        "label": "lastTouchedTimestamp",
        "offset": 0,
        "slot": "2",
        "type": "t_uint256"
      },
      {
        "astId": 12463,
        "contract": "src/ControllerHelper.sol:ControllerHelper",
        "label": "ranges",
        "offset": 0,
        "slot": "3",
        "type": "t_mapping(t_bytes32,t_struct(PerpStatus)14889_storage)"
      },
      {
        "astId": 12465,
        "contract": "src/ControllerHelper.sol:ControllerHelper",
        "label": "vaultIdCount",
        "offset": 0,
        "slot": "4",
        "type": "t_uint256"
      },
      {
        "astId": 12469,
        "contract": "src/ControllerHelper.sol:ControllerHelper",
        "label": "vaults",
        "offset": 0,
        "slot": "5",
        "type": "t_mapping(t_uint256,t_struct(Vault)14916_storage)"
      },
      {
        "astId": 12471,
        "contract": "src/ControllerHelper.sol:ControllerHelper",
        "label": "context",
        "offset": 0,
        "slot": "6",
        "type": "t_struct(Context)14935_storage"
      },
      {
        "astId": 12473,
        "contract": "src/ControllerHelper.sol:ControllerHelper",
        "label": "irmParams",
        "offset": 0,
        "slot": "19",
        "type": "t_struct(IRMParams)15088_storage"
      },
      {
        "astId": 12475,
        "contract": "src/ControllerHelper.sol:ControllerHelper",
        "label": "dpmParams",
        "offset": 0,
        "slot": "23",
        "type": "t_struct(DPMParams)15079_storage"
      },
      {
        "astId": 12477,
        "contract": "src/ControllerHelper.sol:ControllerHelper",
        "label": "operator",
        "offset": 0,
        "slot": "32",
        "type": "t_address"
      }
    ],
    "types": {
      "t_address": {
        "encoding": "inplace",
        "label": "address",
        "numberOfBytes": "20"
      },
      "t_array(t_struct(LPTState)14902_storage)dyn_storage": {
        "base": "t_struct(LPTState)14902_storage",
        "encoding": "dynamic_array",
        "label": "struct DataType.LPTState[]",
        "numberOfBytes": "32"
      },
      "t_bool": {
        "encoding": "inplace",
        "label": "bool",
        "numberOfBytes": "1"
      },
      "t_bytes32": {
        "encoding": "inplace",
        "label": "bytes32",
        "numberOfBytes": "32"
      },
      "t_int24": {
        "encoding": "inplace",
        "label": "int24",
        "numberOfBytes": "3"
      },
      "t_mapping(t_bytes32,t_struct(PerpStatus)14889_storage)": {
        "encoding": "mapping",
        "key": "t_bytes32",
        "label": "mapping(bytes32 => struct DataType.PerpStatus)",
        "numberOfBytes": "32",
        "value": "t_struct(PerpStatus)14889_storage"
      },
      "t_mapping(t_bytes32,t_struct(TickSnapshot)15065_storage)": {
        "encoding": "mapping",
        "key": "t_bytes32",
        "label": "mapping(bytes32 => struct InterestCalculator.TickSnapshot)",
        "numberOfBytes": "32",
        "value": "t_struct(TickSnapshot)15065_storage"
      },
      "t_mapping(t_uint256,t_struct(Vault)14916_storage)": {
        "encoding": "mapping",
        "key": "t_uint256",
        "label": "mapping(uint256 => struct DataType.Vault)",
        "numberOfBytes": "32",
        "value": "t_struct(Vault)14916_storage"
      },
      "t_struct(AccountState)14419_storage": {
        "encoding": "inplace",
        "label": "struct BaseToken.AccountState",
        "members": [
          {
            "astId": 14414,
            "contract": "src/ControllerHelper.sol:ControllerHelper",
            "label": "collateralAmountNotInMarket",
            "offset": 0,
            "slot": "0",
            "type": "t_uint256"
          },
          {
            "astId": 14416,
            "contract": "src/ControllerHelper.sol:ControllerHelper",
            "label": "collateralAmount",
            "offset": 0,
            "slot": "1",
            "type": "t_uint256"
          },
          {
            "astId": 14418,
            "contract": "src/ControllerHelper.sol:ControllerHelper",
            "label": "debtAmount",
            "offset": 0,
            "slot": "2",
            "type": "t_uint256"
          }
        ],
        "numberOfBytes": "96"
      },
      "t_struct(Context)14935_storage": {
        "encoding": "inplace",
        "label": "struct DataType.Context",
        "members": [
          {
            "astId": 14918,
            "contract": "src/ControllerHelper.sol:ControllerHelper",
            "label": "token0",
            "offset": 0,
            "slot": "0",
            "type": "t_address"
          },
          {
            "astId": 14920,
            "contract": "src/ControllerHelper.sol:ControllerHelper",
            "label": "token1",
            "offset": 0,
            "slot": "1",
            "type": "t_address"
          },
          {
            "astId": 14922,
            "contract": "src/ControllerHelper.sol:ControllerHelper",
            "label": "feeTier",
            "offset": 20,
            "slot": "1",
            "type": "t_uint24"
          },
          {
            "astId": 14924,
            "contract": "src/ControllerHelper.sol:ControllerHelper",
            "label": "positionManager",
            "offset": 0,
            "slot": "2",
            "type": "t_address"
          },
          {
            "astId": 14926,
            "contract": "src/ControllerHelper.sol:ControllerHelper",
            "label": "swapRouter",
            "offset": 0,
            "slot": "3",
            "type": "t_address"
          },
          {
            "astId": 14928,
            "contract": "src/ControllerHelper.sol:ControllerHelper",
            "label": "uniswapPool",
            "offset": 0,
            "slot": "4",
            "type": "t_address"
          },
          {
            "astId": 14930,
            "contract": "src/ControllerHelper.sol:ControllerHelper",
            "label": "isMarginZero",
            "offset": 20,
            "slot": "4",
            "type": "t_bool"
          },
          {
            "astId": 14932,
            "contract": "src/ControllerHelper.sol:ControllerHelper",
            "label": "tokenState0",
            "offset": 0,
            "slot": "5",
            "type": "t_struct(TokenState)14412_storage"
          },
          {
            "astId": 14934,
            "contract": "src/ControllerHelper.sol:ControllerHelper",
            "label": "tokenState1",
            "offset": 0,
            "slot": "9",
            "type": "t_struct(TokenState)14412_storage"
          }
        ],
        "numberOfBytes": "416"
      },
      "t_struct(DPMParams)15079_storage": {
        "encoding": "inplace",
        "label": "struct InterestCalculator.DPMParams",
        "members": [
          {
            "astId": 15072,
            "contract": "src/ControllerHelper.sol:ControllerHelper",
            "label": "premiumParams",
            "offset": 0,
            "slot": "0",
            "type": "t_struct(IRMParams)15088_storage"
          },
          {
            "astId": 15074,
            "contract": "src/ControllerHelper.sol:ControllerHelper",
            "label": "irmParams",
            "offset": 0,
            "slot": "4",
            "type": "t_struct(IRMParams)15088_storage"
          },
          {
            "astId": 15078,
            "contract": "src/ControllerHelper.sol:ControllerHelper",
            "label": "snapshots",
            "offset": 0,
            "slot": "8",
            "type": "t_mapping(t_bytes32,t_struct(TickSnapshot)15065_storage)"
          }
        ],
        "numberOfBytes": "288"
      },
      "t_struct(IRMParams)15088_storage": {
        "encoding": "inplace",
        "label": "struct InterestCalculator.IRMParams",
        "members": [
          {
            "astId": 15081,
            "contract": "src/ControllerHelper.sol:ControllerHelper",
            "label": "baseRate",
            "offset": 0,
            "slot": "0",
            "type": "t_uint256"
          },
          {
            "astId": 15083,
            "contract": "src/ControllerHelper.sol:ControllerHelper",
            "label": "kinkRate",
            "offset": 0,
            "slot": "1",
            "type": "t_uint256"
          },
          {
            "astId": 15085,
            "contract": "src/ControllerHelper.sol:ControllerHelper",
            "label": "slope1",
            "offset": 0,
            "slot": "2",
            "type": "t_uint256"
          },
          {
            "astId": 15087,
            "contract": "src/ControllerHelper.sol:ControllerHelper",
            "label": "slope2",
            "offset": 0,
            "slot": "3",
            "type": "t_uint256"
          }
        ],
        "numberOfBytes": "128"
      },
      "t_struct(LPTState)14902_storage": {
        "encoding": "inplace",
        "label": "struct DataType.LPTState",
        "members": [
          {
            "astId": 14891,
            "contract": "src/ControllerHelper.sol:ControllerHelper",
            "label": "isCollateral",
            "offset": 0,
            "slot": "0",
            "type": "t_bool"
          },
          {
            "astId": 14893,
            "contract": "src/ControllerHelper.sol:ControllerHelper",
            "label": "rangeId",
            "offset": 0,
            "slot": "1",
            "type": "t_bytes32"
          },
          {
            "astId": 14895,
            "contract": "src/ControllerHelper.sol:ControllerHelper",
            "label": "liquidityAmount",
            "offset": 0,
            "slot": "2",
            "type": "t_uint128"
          },
          {
            "astId": 14897,
            "contract": "src/ControllerHelper.sol:ControllerHelper",
            "label": "premiumGrowthLast",
            "offset": 0,
            "slot": "3",
            "type": "t_uint256"
          },
          {
            "astId": 14899,
            "contract": "src/ControllerHelper.sol:ControllerHelper",
            "label": "fee0Last",
            "offset": 0,
            "slot": "4",
            "type": "t_uint256"
          },
          {
            "astId": 14901,
            "contract": "src/ControllerHelper.sol:ControllerHelper",
            "label": "fee1Last",
            "offset": 0,
            "slot": "5",
            "type": "t_uint256"
          }
        ],
        "numberOfBytes": "192"
      },
      "t_struct(PerpStatus)14889_storage": {
        "encoding": "inplace",
        "label": "struct DataType.PerpStatus",
        "members": [
          {
            "astId": 14872,
            "contract": "src/ControllerHelper.sol:ControllerHelper",
            "label": "tokenId",
            "offset": 0,
            "slot": "0",
            "type": "t_uint256"
          },
          {
            "astId": 14874,
            "contract": "src/ControllerHelper.sol:ControllerHelper",
            "label": "lowerTick",
            "offset": 0,
            "slot": "1",
            "type": "t_int24"
          },
          {
            "astId": 14876,
            "contract": "src/ControllerHelper.sol:ControllerHelper",
            "label": "upperTick",
            "offset": 3,
            "slot": "1",
            "type": "t_int24"
          },
          {
            "astId": 14878,
            "contract": "src/ControllerHelper.sol:ControllerHelper",
            "label": "borrowedLiquidity",
            "offset": 6,
            "slot": "1",
            "type": "t_uint128"
          },
          {
            "astId": 14880,
            "contract": "src/ControllerHelper.sol:ControllerHelper",
            "label": "premiumGrowthForBorrower",
            "offset": 0,
            "slot": "2",
            "type": "t_uint256"
          },
          {
            "astId": 14882,
            "contract": "src/ControllerHelper.sol:ControllerHelper",
            "label": "premiumGrowthForLender",
            "offset": 0,
            "slot": "3",
            "type": "t_uint256"
          },
          {
            "astId": 14884,
            "contract": "src/ControllerHelper.sol:ControllerHelper",
            "label": "fee0Growth",
            "offset": 0,
            "slot": "4",
            "type": "t_uint256"
          },
          {
            "astId": 14886,
            "contract": "src/ControllerHelper.sol:ControllerHelper",
            "label": "fee1Growth",
            "offset": 0,
            "slot": "5",
            "type": "t_uint256"
          },
          {
            "astId": 14888,
            "contract": "src/ControllerHelper.sol:ControllerHelper",
            "label": "lastTouchedTimestamp",
            "offset": 0,
            "slot": "6",
            "type": "t_uint256"
          }
        ],
        "numberOfBytes": "224"
      },
      "t_struct(TickSnapshot)15065_storage": {
        "encoding": "inplace",
        "label": "struct InterestCalculator.TickSnapshot",
        "members": [
          {
            "astId": 15058,
            "contract": "src/ControllerHelper.sol:ControllerHelper",
            "label": "lastFeeGrowthInside0X128",
            "offset": 0,
            "slot": "0",
            "type": "t_uint256"
          },
          {
            "astId": 15060,
            "contract": "src/ControllerHelper.sol:ControllerHelper",
            "label": "lastFeeGrowthInside1X128",
            "offset": 0,
            "slot": "1",
            "type": "t_uint256"
          },
          {
            "astId": 15062,
            "contract": "src/ControllerHelper.sol:ControllerHelper",
            "label": "lastFeeGrowthGlobal0X128",
            "offset": 0,
            "slot": "2",
            "type": "t_uint256"
          },
          {
            "astId": 15064,
            "contract": "src/ControllerHelper.sol:ControllerHelper",
            "label": "lastFeeGrowthGlobal1X128",
            "offset": 0,
            "slot": "3",
            "type": "t_uint256"
          }
        ],
        "numberOfBytes": "128"
      },
      "t_struct(TokenState)14412_storage": {
        "encoding": "inplace",
        "label": "struct BaseToken.TokenState",
        "members": [
          {
            "astId": 14405,
            "contract": "src/ControllerHelper.sol:ControllerHelper",
            "label": "totalDeposited",
            "offset": 0,
            "slot": "0",
            "type": "t_uint256"
          },
          {
            "astId": 14407,
            "contract": "src/ControllerHelper.sol:ControllerHelper",
            "label": "totalBorrowed",
            "offset": 0,
            "slot": "1",
            "type": "t_uint256"
          },
          {
            "astId": 14409,
            "contract": "src/ControllerHelper.sol:ControllerHelper",
            "label": "collateralScaler",
            "offset": 0,
            "slot": "2",
            "type": "t_uint256"
          },
          {
            "astId": 14411,
            "contract": "src/ControllerHelper.sol:ControllerHelper",
            "label": "debtScaler",
            "offset": 0,
            "slot": "3",
            "type": "t_uint256"
          }
        ],
        "numberOfBytes": "128"
      },
      "t_struct(Vault)14916_storage": {
        "encoding": "inplace",
        "label": "struct DataType.Vault",
        "members": [
          {
            "astId": 14904,
            "contract": "src/ControllerHelper.sol:ControllerHelper",
            "label": "vaultId",
            "offset": 0,
            "slot": "0",
            "type": "t_uint256"
          },
          {
            "astId": 14906,
            "contract": "src/ControllerHelper.sol:ControllerHelper",
            "label": "owner",
            "offset": 0,
            "slot": "1",
            "type": "t_address"
          },
          {
            "astId": 14908,
            "contract": "src/ControllerHelper.sol:ControllerHelper",
            "label": "isClosed",
            "offset": 20,
            "slot": "1",
            "type": "t_bool"
          },
          {
            "astId": 14910,
            "contract": "src/ControllerHelper.sol:ControllerHelper",
            "label": "balance0",
            "offset": 0,
            "slot": "2",
            "type": "t_struct(AccountState)14419_storage"
          },
          {
            "astId": 14912,
            "contract": "src/ControllerHelper.sol:ControllerHelper",
            "label": "balance1",
            "offset": 0,
            "slot": "5",
            "type": "t_struct(AccountState)14419_storage"
          },
          {
            "astId": 14915,
            "contract": "src/ControllerHelper.sol:ControllerHelper",
            "label": "lpts",
            "offset": 0,
            "slot": "8",
            "type": "t_array(t_struct(LPTState)14902_storage)dyn_storage"
          }
        ],
        "numberOfBytes": "288"
      },
      "t_uint128": {
        "encoding": "inplace",
        "label": "uint128",
        "numberOfBytes": "16"
      },
      "t_uint24": {
        "encoding": "inplace",
        "label": "uint24",
        "numberOfBytes": "3"
      },
      "t_uint256": {
        "encoding": "inplace",
        "label": "uint256",
        "numberOfBytes": "32"
      }
    }
  }
}