{
  "address": "0x5e5Be5353Fbc5B00eaEC367BD4155F75F9bDf628",
  "abi": [
    {
      "inputs": [
        {
          "components": [
            {
              "internalType": "uint24",
              "name": "feeTier",
              "type": "uint24"
            },
            {
              "internalType": "address",
              "name": "token0",
              "type": "address"
            },
            {
              "internalType": "address",
              "name": "token1",
              "type": "address"
            },
            {
              "internalType": "bool",
              "name": "isMarginZero",
              "type": "bool"
            }
          ],
          "internalType": "struct DataType.InitializationParams",
          "name": "_initializationParams",
          "type": "tuple"
        },
        {
          "internalType": "address",
          "name": "_positionManager",
          "type": "address"
        },
        {
          "internalType": "address",
          "name": "_factory",
          "type": "address"
        },
        {
          "internalType": "address",
          "name": "_swapRouter",
          "type": "address"
        }
      ],
      "stateMutability": "nonpayable",
      "type": "constructor"
    },
    {
      "anonymous": false,
      "inputs": [
        {
          "indexed": false,
          "internalType": "uint256",
          "name": "vaultId",
          "type": "uint256"
        }
      ],
      "name": "VaultCreated",
      "type": "event"
    },
    {
      "inputs": [
        {
          "internalType": "uint256",
          "name": "_vaultId",
          "type": "uint256"
        }
      ],
      "name": "checkLiquidatable",
      "outputs": [
        {
          "internalType": "bool",
          "name": "",
          "type": "bool"
        }
      ],
      "stateMutability": "view",
      "type": "function"
    },
    {
      "inputs": [],
      "name": "context",
      "outputs": [
        {
          "internalType": "address",
          "name": "token0",
          "type": "address"
        },
        {
          "internalType": "address",
          "name": "token1",
          "type": "address"
        },
        {
          "internalType": "uint24",
          "name": "feeTier",
          "type": "uint24"
        },
        {
          "internalType": "address",
          "name": "positionManager",
          "type": "address"
        },
        {
          "internalType": "address",
          "name": "swapRouter",
          "type": "address"
        },
        {
          "internalType": "address",
          "name": "uniswapPool",
          "type": "address"
        },
        {
          "internalType": "bool",
          "name": "isMarginZero",
          "type": "bool"
        },
        {
          "components": [
            {
              "internalType": "uint256",
              "name": "totalDeposited",
              "type": "uint256"
            },
            {
              "internalType": "uint256",
              "name": "totalBorrowed",
              "type": "uint256"
            },
            {
              "internalType": "uint256",
              "name": "collateralScaler",
              "type": "uint256"
            },
            {
              "internalType": "uint256",
              "name": "debtScaler",
              "type": "uint256"
            }
          ],
          "internalType": "struct BaseToken.TokenState",
          "name": "tokenState0",
          "type": "tuple"
        },
        {
          "components": [
            {
              "internalType": "uint256",
              "name": "totalDeposited",
              "type": "uint256"
            },
            {
              "internalType": "uint256",
              "name": "totalBorrowed",
              "type": "uint256"
            },
            {
              "internalType": "uint256",
              "name": "collateralScaler",
              "type": "uint256"
            },
            {
              "internalType": "uint256",
              "name": "debtScaler",
              "type": "uint256"
            }
          ],
          "internalType": "struct BaseToken.TokenState",
          "name": "tokenState1",
          "type": "tuple"
        }
      ],
      "stateMutability": "view",
      "type": "function"
    },
    {
      "inputs": [
        {
          "internalType": "bytes[]",
          "name": "_data",
          "type": "bytes[]"
        }
      ],
      "name": "forceClose",
      "outputs": [],
      "stateMutability": "nonpayable",
      "type": "function"
    },
    {
      "inputs": [],
      "name": "getCurrentTick",
      "outputs": [
        {
          "internalType": "int24",
          "name": "tick",
          "type": "int24"
        }
      ],
      "stateMutability": "view",
      "type": "function"
    },
    {
      "inputs": [],
      "name": "getIsMarginZero",
      "outputs": [
        {
          "internalType": "bool",
          "name": "",
          "type": "bool"
        }
      ],
      "stateMutability": "view",
      "type": "function"
    },
    {
      "inputs": [
        {
          "internalType": "uint256",
          "name": "_vaultId",
          "type": "uint256"
        }
      ],
      "name": "getPosition",
      "outputs": [
        {
          "components": [
            {
              "internalType": "uint256",
              "name": "collateral0",
              "type": "uint256"
            },
            {
              "internalType": "uint256",
              "name": "collateral1",
              "type": "uint256"
            },
            {
              "internalType": "uint256",
              "name": "debt0",
              "type": "uint256"
            },
            {
              "internalType": "uint256",
              "name": "debt1",
              "type": "uint256"
            },
            {
              "components": [
                {
                  "internalType": "bool",
                  "name": "isCollateral",
                  "type": "bool"
                },
                {
                  "internalType": "uint128",
                  "name": "liquidity",
                  "type": "uint128"
                },
                {
                  "internalType": "int24",
                  "name": "lowerTick",
                  "type": "int24"
                },
                {
                  "internalType": "int24",
                  "name": "upperTick",
                  "type": "int24"
                }
              ],
              "internalType": "struct DataType.LPT[]",
              "name": "lpts",
              "type": "tuple[]"
            }
          ],
          "internalType": "struct DataType.Position",
          "name": "position",
          "type": "tuple"
        }
      ],
      "stateMutability": "nonpayable",
      "type": "function"
    },
    {
      "inputs": [],
      "name": "getPrice",
      "outputs": [
        {
          "internalType": "uint256",
          "name": "",
          "type": "uint256"
        }
      ],
      "stateMutability": "view",
      "type": "function"
    },
    {
      "inputs": [
        {
          "internalType": "bytes32",
          "name": "_rangeId",
          "type": "bytes32"
        }
      ],
      "name": "getRange",
      "outputs": [
        {
          "components": [
            {
              "internalType": "uint256",
              "name": "tokenId",
              "type": "uint256"
            },
            {
              "internalType": "int24",
              "name": "lowerTick",
              "type": "int24"
            },
            {
              "internalType": "int24",
              "name": "upperTick",
              "type": "int24"
            },
            {
              "internalType": "uint128",
              "name": "borrowedLiquidity",
              "type": "uint128"
            },
            {
              "internalType": "uint256",
              "name": "premiumGrowthForBorrower",
              "type": "uint256"
            },
            {
              "internalType": "uint256",
              "name": "premiumGrowthForLender",
              "type": "uint256"
            },
            {
              "internalType": "uint256",
              "name": "fee0Growth",
              "type": "uint256"
            },
            {
              "internalType": "uint256",
              "name": "fee1Growth",
              "type": "uint256"
            },
            {
              "internalType": "uint256",
              "name": "lastTouchedTimestamp",
              "type": "uint256"
            }
          ],
          "internalType": "struct DataType.PerpStatus",
          "name": "",
          "type": "tuple"
        }
      ],
      "stateMutability": "view",
      "type": "function"
    },
    {
      "inputs": [],
      "name": "getSqrtPrice",
      "outputs": [
        {
          "internalType": "uint160",
          "name": "sqrtPriceX96",
          "type": "uint160"
        }
      ],
      "stateMutability": "view",
      "type": "function"
    },
    {
      "inputs": [],
      "name": "getTWAP",
      "outputs": [
        {
          "internalType": "uint256",
          "name": "",
          "type": "uint256"
        }
      ],
      "stateMutability": "view",
      "type": "function"
    },
    {
      "inputs": [],
      "name": "getTWAPSqrtPrice",
      "outputs": [
        {
          "internalType": "uint160",
          "name": "sqrtPriceX96",
          "type": "uint160"
        }
      ],
      "stateMutability": "view",
      "type": "function"
    },
    {
      "inputs": [
        {
          "internalType": "uint256",
          "name": "_vaultId",
          "type": "uint256"
        }
      ],
      "name": "getVault",
      "outputs": [
        {
          "components": [
            {
              "internalType": "uint256",
              "name": "vaultId",
              "type": "uint256"
            },
            {
              "internalType": "address",
              "name": "owner",
              "type": "address"
            },
            {
              "internalType": "bool",
              "name": "isClosed",
              "type": "bool"
            },
            {
              "components": [
                {
                  "internalType": "uint256",
                  "name": "collateralAmountNotInMarket",
                  "type": "uint256"
                },
                {
                  "internalType": "uint256",
                  "name": "collateralAmount",
                  "type": "uint256"
                },
                {
                  "internalType": "uint256",
                  "name": "debtAmount",
                  "type": "uint256"
                }
              ],
              "internalType": "struct BaseToken.AccountState",
              "name": "balance0",
              "type": "tuple"
            },
            {
              "components": [
                {
                  "internalType": "uint256",
                  "name": "collateralAmountNotInMarket",
                  "type": "uint256"
                },
                {
                  "internalType": "uint256",
                  "name": "collateralAmount",
                  "type": "uint256"
                },
                {
                  "internalType": "uint256",
                  "name": "debtAmount",
                  "type": "uint256"
                }
              ],
              "internalType": "struct BaseToken.AccountState",
              "name": "balance1",
              "type": "tuple"
            },
            {
              "components": [
                {
                  "internalType": "bool",
                  "name": "isCollateral",
                  "type": "bool"
                },
                {
                  "internalType": "bytes32",
                  "name": "rangeId",
                  "type": "bytes32"
                },
                {
                  "internalType": "uint128",
                  "name": "liquidityAmount",
                  "type": "uint128"
                },
                {
                  "internalType": "uint256",
                  "name": "premiumGrowthLast",
                  "type": "uint256"
                },
                {
                  "internalType": "uint256",
                  "name": "fee0Last",
                  "type": "uint256"
                },
                {
                  "internalType": "uint256",
                  "name": "fee1Last",
                  "type": "uint256"
                }
              ],
              "internalType": "struct DataType.LPTState[]",
              "name": "lpts",
              "type": "tuple[]"
            }
          ],
          "internalType": "struct DataType.Vault",
          "name": "",
          "type": "tuple"
        }
      ],
      "stateMutability": "view",
      "type": "function"
    },
    {
      "inputs": [
        {
          "internalType": "uint256",
          "name": "_vaultId",
          "type": "uint256"
        }
      ],
      "name": "getVaultStatus",
      "outputs": [
        {
          "internalType": "uint256",
          "name": "",
          "type": "uint256"
        },
        {
          "internalType": "uint256",
          "name": "",
          "type": "uint256"
        }
      ],
      "stateMutability": "nonpayable",
      "type": "function"
    },
    {
      "inputs": [],
      "name": "lastTouchedTimestamp",
      "outputs": [
        {
          "internalType": "uint256",
          "name": "",
          "type": "uint256"
        }
      ],
      "stateMutability": "view",
      "type": "function"
    },
    {
      "inputs": [
        {
          "internalType": "uint256",
          "name": "_vaultId",
          "type": "uint256"
        },
        {
          "components": [
            {
              "internalType": "enum DataType.PositionUpdateType",
              "name": "positionUpdateType",
              "type": "uint8"
            },
            {
              "internalType": "bool",
              "name": "zeroForOne",
              "type": "bool"
            },
            {
              "internalType": "uint128",
              "name": "liquidity",
              "type": "uint128"
            },
            {
              "internalType": "int24",
              "name": "lowerTick",
              "type": "int24"
            },
            {
              "internalType": "int24",
              "name": "upperTick",
              "type": "int24"
            },
            {
              "internalType": "uint256",
              "name": "param0",
              "type": "uint256"
            },
            {
              "internalType": "uint256",
              "name": "param1",
              "type": "uint256"
            }
          ],
          "internalType": "struct DataType.PositionUpdate[]",
          "name": "_positionUpdates",
          "type": "tuple[]"
        }
      ],
      "name": "liquidate",
      "outputs": [],
      "stateMutability": "nonpayable",
      "type": "function"
    },
    {
      "inputs": [],
      "name": "operator",
      "outputs": [
        {
          "internalType": "address",
          "name": "",
          "type": "address"
        }
      ],
      "stateMutability": "view",
      "type": "function"
    },
    {
      "inputs": [
        {
          "internalType": "address",
          "name": "_newOperator",
          "type": "address"
        }
      ],
      "name": "setOperator",
      "outputs": [],
      "stateMutability": "nonpayable",
      "type": "function"
    },
    {
      "inputs": [
        {
          "components": [
            {
              "internalType": "uint256",
              "name": "baseRate",
              "type": "uint256"
            },
            {
              "internalType": "uint256",
              "name": "kinkRate",
              "type": "uint256"
            },
            {
              "internalType": "uint256",
              "name": "slope1",
              "type": "uint256"
            },
            {
              "internalType": "uint256",
              "name": "slope2",
              "type": "uint256"
            }
          ],
          "internalType": "struct InterestCalculator.IRMParams",
          "name": "_irmParams",
          "type": "tuple"
        },
        {
          "components": [
            {
              "internalType": "uint256",
              "name": "baseRate",
              "type": "uint256"
            },
            {
              "internalType": "uint256",
              "name": "kinkRate",
              "type": "uint256"
            },
            {
              "internalType": "uint256",
              "name": "slope1",
              "type": "uint256"
            },
            {
              "internalType": "uint256",
              "name": "slope2",
              "type": "uint256"
            }
          ],
          "internalType": "struct InterestCalculator.IRMParams",
          "name": "_premiumParams",
          "type": "tuple"
        }
      ],
      "name": "updateDRMParams",
      "outputs": [],
      "stateMutability": "nonpayable",
      "type": "function"
    },
    {
      "inputs": [
        {
          "components": [
            {
              "internalType": "uint256",
              "name": "baseRate",
              "type": "uint256"
            },
            {
              "internalType": "uint256",
              "name": "kinkRate",
              "type": "uint256"
            },
            {
              "internalType": "uint256",
              "name": "slope1",
              "type": "uint256"
            },
            {
              "internalType": "uint256",
              "name": "slope2",
              "type": "uint256"
            }
          ],
          "internalType": "struct InterestCalculator.IRMParams",
          "name": "_irmParams",
          "type": "tuple"
        }
      ],
      "name": "updateIRMParams",
      "outputs": [],
      "stateMutability": "nonpayable",
      "type": "function"
    },
    {
      "inputs": [
        {
          "internalType": "uint256",
          "name": "_vaultId",
          "type": "uint256"
        },
        {
          "components": [
            {
              "internalType": "enum DataType.PositionUpdateType",
              "name": "positionUpdateType",
              "type": "uint8"
            },
            {
              "internalType": "bool",
              "name": "zeroForOne",
              "type": "bool"
            },
            {
              "internalType": "uint128",
              "name": "liquidity",
              "type": "uint128"
            },
            {
              "internalType": "int24",
              "name": "lowerTick",
              "type": "int24"
            },
            {
              "internalType": "int24",
              "name": "upperTick",
              "type": "int24"
            },
            {
              "internalType": "uint256",
              "name": "param0",
              "type": "uint256"
            },
            {
              "internalType": "uint256",
              "name": "param1",
              "type": "uint256"
            }
          ],
          "internalType": "struct DataType.PositionUpdate[]",
          "name": "_positionUpdates",
          "type": "tuple[]"
        },
        {
          "internalType": "uint256",
          "name": "_buffer0",
          "type": "uint256"
        },
        {
          "internalType": "uint256",
          "name": "_buffer1",
          "type": "uint256"
        }
      ],
      "name": "updatePosition",
      "outputs": [
        {
          "internalType": "uint256",
          "name": "vaultId",
          "type": "uint256"
        }
      ],
      "stateMutability": "nonpayable",
      "type": "function"
    },
    {
      "inputs": [],
      "name": "vaultIdCount",
      "outputs": [
        {
          "internalType": "uint256",
          "name": "",
          "type": "uint256"
        }
      ],
      "stateMutability": "view",
      "type": "function"
    },
    {
      "inputs": [
        {
          "internalType": "uint256",
          "name": "",
          "type": "uint256"
        }
      ],
      "name": "vaults",
      "outputs": [
        {
          "internalType": "uint256",
          "name": "vaultId",
          "type": "uint256"
        },
        {
          "internalType": "address",
          "name": "owner",
          "type": "address"
        },
        {
          "internalType": "bool",
          "name": "isClosed",
          "type": "bool"
        },
        {
          "components": [
            {
              "internalType": "uint256",
              "name": "collateralAmountNotInMarket",
              "type": "uint256"
            },
            {
              "internalType": "uint256",
              "name": "collateralAmount",
              "type": "uint256"
            },
            {
              "internalType": "uint256",
              "name": "debtAmount",
              "type": "uint256"
            }
          ],
          "internalType": "struct BaseToken.AccountState",
          "name": "balance0",
          "type": "tuple"
        },
        {
          "components": [
            {
              "internalType": "uint256",
              "name": "collateralAmountNotInMarket",
              "type": "uint256"
            },
            {
              "internalType": "uint256",
              "name": "collateralAmount",
              "type": "uint256"
            },
            {
              "internalType": "uint256",
              "name": "debtAmount",
              "type": "uint256"
            }
          ],
          "internalType": "struct BaseToken.AccountState",
          "name": "balance1",
          "type": "tuple"
        }
      ],
      "stateMutability": "view",
      "type": "function"
    }
  ],
  "transactionHash": "0x0f2e983ebdb5869eb34b9cbbca7b22b9adc2d4311b4b7923e8c05cfec8cb543c",
  "args": [
    {
      "feeTier": 500,
      "token0": "0x6466232Bf77e70bEa2535393DC9B2b0d94ea3C22",
      "token1": "0xF61Cffd6071a8DB7cD5E8DF1D3A5450D9903cF1c",
      "isMarginZero": false
    },
    "0xC36442b4a4522E871399CD717aBDD847Ab11FE88",
    "0x1F98431c8aD98523631AE4a59f267346ea31F984",
    "0xE592427A0AEce92De3Edee1F18E0157C05861564"
  ],
  "solcInputHash": "fd57214ffe08477cc4fe036111c9a30e",
  "bytecode": "0x60806040523480156200001157600080fd5b5060405162004d1538038062004d158339810160408190526200003491620004ff565b835160068054602080880151600580546001600160a01b03199081166001600160a01b0393841617918290556040808c015162ffffff60a01b19909616600160a01b62ffffff998a16810291909117831696851696909617968790556060808d01516009805460ff60a01b191691151589029190911790556007805484168d8716179055600880549093168a86161790925580519182018152918316815291851682840152929093049093169082015290620000fd90849083906200039d811b62000cb517901c565b600980546001600160a01b0319166001600160a01b03928316179055600160035560055460405163095ea7b360e01b815291169063095ea7b3906200014b90879060001990600401620005ce565b602060405180830381600087803b1580156200016657600080fd5b505af11580156200017b573d6000803e3d6000fd5b505050506040513d601f19601f82011682018060405250810190620001a19190620004db565b5060065460405163095ea7b360e01b81526001600160a01b039091169063095ea7b390620001d890879060001990600401620005ce565b602060405180830381600087803b158015620001f357600080fd5b505af115801562000208573d6000803e3d6000fd5b505050506040513d601f19601f820116820180604052508101906200022e9190620004db565b5060055460405163095ea7b360e01b81526001600160a01b039091169063095ea7b3906200026590859060001990600401620005ce565b602060405180830381600087803b1580156200028057600080fd5b505af115801562000295573d6000803e3d6000fd5b505050506040513d601f19601f82011682018060405250810190620002bb9190620004db565b5060065460405163095ea7b360e01b81526001600160a01b039091169063095ea7b390620002f290859060001990600401620005ce565b602060405180830381600087803b1580156200030d57600080fd5b505af115801562000322573d6000803e3d6000fd5b505050506040513d601f19601f82011682018060405250810190620003489190620004db565b5062000362600580016200049560201b62000d991760201c565b6200037c60056009016200049560201b62000d991760201c565b5050426001555050601f80546001600160a01b0319163317905550620005e7565b600081602001516001600160a01b031682600001516001600160a01b031610620003c657600080fd5b50805160208083015160409384015184516001600160a01b0394851681850152939091168385015262ffffff166060808401919091528351808403820181526080840185528051908301207fff0000000000000000000000000000000000000000000000000000000000000060a085015294901b6001600160601b03191660a183015260b58201939093527fe34f199b19b2b4f47f68442619d555527d244f78a3297ea89325f843f87b8b5460d5808301919091528251808303909101815260f5909101909152805191012090565b670de0b6b3a764000060028201819055600390910155565b80516001600160a01b0381168114620004c557600080fd5b919050565b80518015158114620004c557600080fd5b600060208284031215620004ed578081fd5b620004f882620004ca565b9392505050565b60008060008084860360e081121562000516578384fd5b608081121562000524578384fd5b50604051608081016001600160401b03811182821017156200054257fe5b604052855162ffffff8116811462000558578485fd5b81526200056860208701620004ad565b60208201526200057b60408701620004ad565b60408201526200058e60608701620004ca565b60608201529350620005a360808601620004ad565b9250620005b360a08601620004ad565b9150620005c360c08601620004ad565b905092959194509250565b6001600160a01b03929092168252602082015260400190565b61471e80620005f76000396000f3fe608060405234801561001057600080fd5b50600436106101425760003560e01c806365b5f6e3116100b857806398d5fdca1161007c57806398d5fdca146102a25780639b688ee4146102aa578063b3ab15fb146102bd578063cb3c9a53146102d0578063d0496d6a146102d8578063eb02c301146102f557610142565b806365b5f6e314610230578063687157731461024357806386e6862d146102565780638c64ea4a1461025e5780639403b6341461028257610142565b80633e1297151161010a5780633e129715146101aa57806342011209146101ca57806349ebb77d146101dd57806353aad1d9146101fe578063570ca7351461021357806362e0929f1461022857610142565b8063013216f51461014757806305ecd0031461017057806326d8d4f914610185578063275892a21461018d57806333a9d06014610195575b600080fd5b61015a610155366004613961565b610315565b60405161016791906142b1565b60405180910390f35b6101786103b1565b60405161016791906145b1565b6101786103e0565b6101786103e6565b6101a86101a33660046139b7565b6103ec565b005b6101bd6101b8366004613961565b610458565b6040516101679190614197565b6101786101d8366004613d80565b610469565b6101f06101eb366004613961565b610614565b6040516101679291906145f3565b610206610646565b60405161016791906141bb565b61021b6106cf565b6040516101679190614116565b6101bd6106de565b6101a861023e366004613888565b6106ee565b6101a861025136600461399c565b610775565b61021b6107bd565b61027161026c366004613961565b610846565b6040516101679594939291906145ba565b610295610290366004613961565b6108c2565b60405161016791906143d6565b610178610a00565b6101a86102b8366004613c14565b610a1c565b6101a86102cb36600461386c565b610b15565b61021b610b61565b6102e0610c00565b6040516101679998979695949392919061412a565b610308610303366004613961565b610c9b565b6040516101679190614325565b61031d6134a3565b5060008181526002602081815260409283902083516101208101855281548152600182015480850b850b850b9382019390935263010000008304840b840b840b94810194909452600160301b9091046001600160801b03166060840152908101546080830152600381015460a0830152600481015460c0830152600581015460e0830152600601546101008201525b919050565b6009546000906103db90600160a01b900460ff166103cd610b61565b6001600160a01b0316610db1565b905090565b60035481565b60015481565b601f546001600160a01b0316331461041f5760405162461bcd60e51b81526004016104169061425e565b60405180910390fd5b8151601a55602080830151601b55604080840151601c55606093840151601d558251601655908201516017558101516018550151601955565b600061046382610e79565b92915050565b600061047485610f42565b600061047f866111db565b909250905083156104a2576005546104a2906001600160a01b03163330876112a4565b82156104c0576006546104c0906001600160a01b03163330866112a4565b6000807370a78990d223cA6d214A63bB96D6D5d664ac2F4E632b17ca3984600560028b60006040518663ffffffff1660e01b81526004016105059594939291906144ec565b604080518083038186803b15801561051c57600080fd5b505af4158015610530573d6000803e3d6000fd5b505050506040513d601f19601f820116820180604052508101906105549190613979565b9150915061056184610e79565b1561057e5760405162461bcd60e51b8152600401610416906141e5565b8186121561059e5760405162461bcd60e51b815260040161041690614226565b808512156105be5760405162461bcd60e51b815260040161041690614242565b818613156105e6576005546105e6906001600160a01b0316336105e189866113fc565b611468565b8085131561060957600654610609906001600160a01b0316336105e188856113fc565b505050949350505050565b60008060006106216107bd565b905061062c84610f42565b60008061063986846115b6565b9095509350505050915091565b60095460408051633850c7bd60e01b815290516000926001600160a01b031691633850c7bd9160048281019260e0929190829003018186803b15801561068b57600080fd5b505afa15801561069f573d6000803e3d6000fd5b505050506040513d601f19601f820116820180604052508101906106c39190613b39565b50939695505050505050565b601f546001600160a01b031681565b600954600160a01b900460ff1690565b601f546001600160a01b031633146107185760405162461bcd60e51b81526004016104169061425e565b60005b81518110156107715760008083838151811061073357fe5b602002602001015180602001905181019061074e9190613c59565b9150915061075b82610f42565b610767828260006115d8565b505060010161071b565b5050565b601f546001600160a01b0316331461079f5760405162461bcd60e51b81526004016104169061425e565b80516012556020810151601355604081015160145560600151601555565b60095460408051633850c7bd60e01b815290516000926001600160a01b031691633850c7bd9160048281019260e0929190829003018186803b15801561080257600080fd5b505afa158015610816573d6000803e3d6000fd5b505050506040513d601f19601f8201168201806040525081019061083a9190613b39565b50949695505050505050565b600460208181526000928352604092839020805460018201548551606080820188526002850154825260038501548287015295840154818801528651958601875260058401548652600684015494860194909452600790920154948401949094526001600160a01b03811692600160a01b90910460ff16919085565b6108ca6134fe565b6000828152600460208181526040808420815160c0810183528154815260018201546001600160a01b03811682860152600160a01b900460ff1615158184015282516060808201855260028401548252600384015482870152958301548185015285820152825194850183526005820154855260068201548585015260078201548584015260808101949094526008810180548351818602810186019094528084529495919460a08701949192909184015b828210156109f25760008481526020908190206040805160c08101825260068602909201805460ff16151583526001808201548486015260028201546001600160801b03169284019290925260038101546060840152600481015460808401526005015460a0830152908352909201910161097c565b505050915250909392505050565b6009546000906103db90600160a01b900460ff166103cd6107bd565b610a2582610f42565b610a2e82610e79565b610a4a5760405162461bcd60e51b8152600401610416906141c9565b600954604051632b44ebb960e21b81526000917359969c45E5f03C613cC58A85Cb149dDE2E39297d9163ad13aee491610a94916001600160a01b0390911690603c906004016141a2565b604080518083038186803b158015610aab57600080fd5b505af4158015610abf573d6000803e3d6000fd5b505050506040513d601f19601f82011682018060405250810190610ae39190613bcf565b5090506000610af28483611774565b9050610b02848460c884046115d8565b610b0f3360c88304611940565b50505050565b601f546001600160a01b03163314610b3f5760405162461bcd60e51b81526004016104169061425e565b601f80546001600160a01b0319166001600160a01b0392909216919091179055565b600954604051632b44ebb960e21b81526000917359969c45E5f03C613cC58A85Cb149dDE2E39297d9163ad13aee491610bab916001600160a01b0390911690603c906004016141a2565b604080518083038186803b158015610bc257600080fd5b505af4158015610bd6573d6000803e3d6000fd5b505050506040513d601f19601f82011682018060405250810190610bfa9190613bcf565b50919050565b6005546006546007546008546009546040805160808082018352600a548252600b54602080840191909152600c5483850152600d5460608085019190915284519283018552600e548352600f549183019190915260105493820193909352601154928101929092526001600160a01b039687169680871696600160a01b9081900462ffffff169682169582169491821693910460ff16919089565b610ca361354b565b610cac82610f42565b6104638261197a565b600081602001516001600160a01b031682600001516001600160a01b031610610cdd57600080fd5b50805160208083015160409384015184516001600160a01b0394851681850152939091168385015262ffffff166060808401919091528351808403820181526080840185528051908301206001600160f81b031960a085015294901b6bffffffffffffffffffffffff191660a183015260b58201939093527fe34f199b19b2b4f47f68442619d555527d244f78a3297ea89325f843f87b8b5460d5808301919091528251808303909101815260f5909101909152805191012090565b670de0b6b3a764000060028201819055600390910155565b6000670de0b6b3a76400008315610e1957610dda838483600160c01b81610dd457fe5b04611b43565b915081610df9576ec097ce7bc90715b34b9f1000000000915050610463565b816ec097ce7bc90715b34b9f100000000081610e1157fe5b049150610e3a565b600160601b81610e2e8586600160601b611b43565b0281610e3657fe5b0491505b6ec097ce7bc90715b34b9f1000000000821115610e68576ec097ce7bc90715b34b9f10000000009150610e72565b81610e7257600191505b5092915050565b600954604051632b44ebb960e21b815260009182917359969c45E5f03C613cC58A85Cb149dDE2E39297d9163ad13aee491610ec3916001600160a01b031690603c906004016141a2565b604080518083038186803b158015610eda57600080fd5b505af4158015610eee573d6000803e3d6000fd5b505050506040513d601f19601f82011682018060405250810190610f129190613bcf565b5090506000610f37610f238561197a565b6009548490600160a01b900460ff16611bf2565b600012949350505050565b6000818152600460208181526040808420815160c0810183528154815260018201546001600160a01b03811682860152600160a01b900460ff161515818401528251606080820185526002840154825260038401548287015295830154818501528582015282519485018352600582015485526006820154858501526007820154858401526080810194909452600881018054835181860281018601909452808452919360a08601939290879084015b828210156110685760008481526020908190206040805160c08101825260068602909201805460ff16151583526001808201548486015260028201546001600160801b03169284019290925260038101546060840152600481015460808401526005015460a08301529083529092019101610ff2565b5050505081525050905060005b8160a001515181101561119b5760408051610120810182526005546001600160a01b039081168252600654808216602080850191909152600160a01b9182900462ffffff16848601526007548316606080860191909152600854841660808087019190915260095494851660a0808801919091529390940460ff16151560c086015285518085018752600a548152600b5481840152600c5481880152600d548183015260e086015285519384018652600e548452600f549184019190915260105494830194909452601154938201939093526101008201529083015180516111939260169290916002916000918790811061116c57fe5b602002602001015160200151815260200190815260200160002061118e6107bd565b611c29565b600101611075565b5060408051608081018252601254815260135460208201526014549181019190915260155460608201526001546111d491600591611ee4565b6001555050565b60008082611254576003805460018082019092556000818152600460205260409081902082815590920180546001600160a01b0319163317905590519092507f4111fcee61908834830adf60a520ba26d09f02fa4e00cfe3d2c134e32f3f8696906112479084906145b1565b60405180910390a1611290565b6000838152600460205260409020600101548392506001600160a01b031633146112905760405162461bcd60e51b815260040161041690614295565b506000818152600460205260409020915091565b604080516001600160a01b0385811660248301528481166044830152606480830185905283518084039091018152608490920183526020820180516001600160e01b03166323b872dd60e01b178152925182516000948594938a169392918291908083835b602083106113285780518252601f199092019160209182019101611309565b6001836020036101000a0380198251168184511680821785525050505050509050019150506000604051808303816000865af19150503d806000811461138a576040519150601f19603f3d011682016040523d82523d6000602084013e61138f565b606091505b50915091508180156113bd5750805115806113bd57508080602001905160208110156113ba57600080fd5b50515b6113f4576040805162461bcd60e51b815260206004820152600360248201526229aa2360e91b604482015290519081900360640190fd5b505050505050565b60008183038183128015906114115750838113155b80611426575060008312801561142657508381135b6114615760405162461bcd60e51b81526004018080602001828103825260248152602001806146c56024913960400191505060405180910390fd5b9392505050565b604080516001600160a01b038481166024830152604480830185905283518084039091018152606490920183526020820180516001600160e01b031663a9059cbb60e01b1781529251825160009485949389169392918291908083835b602083106114e45780518252601f1990920191602091820191016114c5565b6001836020036101000a0380198251168184511680821785525050505050509050019150506000604051808303816000865af19150503d8060008114611546576040519150601f19603f3d011682016040523d82523d6000602084013e61154b565b606091505b5091509150818015611579575080511580611579575080806020019051602081101561157657600080fd5b50515b6115af576040805162461bcd60e51b815260206004820152600260248201526114d560f21b604482015290519081900360640190fd5b5050505050565b6000806115c3848461201e565b6115cd8585611774565b915091509250929050565b6115e183610f42565b60008381526004602081905260408083209051632b17ca3960e01b815290929182917370a78990d223cA6d214A63bB96D6D5d664ac2F4E91632b17ca39916116369187916005916002918c91600191016144ec565b604080518083038186803b15801561164d57600080fd5b505af4158015611661573d6000803e3d6000fd5b505050506040513d601f19601f820116820180604052508101906116859190613979565b9150915061169286610e79565b156116af5760405162461bcd60e51b8152600401610416906141e5565b81600012156116d05760405162461bcd60e51b815260040161041690614226565b80600012156116f15760405162461bcd60e51b815260040161041690614242565b816000131561172f57600954600160a01b900460ff16156117195761171682856113fc565b91505b61172d600a60028501600085810390612192565b505b80600013156113f457600954600160a01b900460ff16156117575761175481856113fc565b90505b61176b600e60058501600084810390612192565b50505050505050565b6000828152600460208181526040808420815160c0810183528154815260018201546001600160a01b03811682860152600160a01b900460ff161515818401528251606080820185526002840154825260038401548287015295830154818501528582015282519485018352600582015485526006820154858501526007820154858401526080810194909452600881018054835181860281018601909452808452869594929360a086019390929190879084015b8282101561189f5760008481526020908190206040805160c08101825260068602909201805460ff16151583526001808201548486015260028201546001600160801b03169284019290925260038101546060840152600481015460808401526005015460a08301529083529092019101611829565b5050509152505060405163571e620160e11b81529091507333237217b284d551a483D8471ACe538c807A23d89063ae3cc402906118e890849060029060059089906004016144a7565b60206040518083038186803b15801561190057600080fd5b505af4158015611914573d6000803e3d6000fd5b505050506040513d601f19601f820116820180604052508101906119389190613bfc565b949350505050565b60095461077190600160a01b900460ff16611966576006546001600160a01b0316611973565b6005546001600160a01b03165b8383611468565b61198261354b565b6000828152600460208181526040808420815160c0810183528154815260018201546001600160a01b03811682860152600160a01b900460ff161515818401528251606080820185526002840154825260038401548287015295830154818501528582015282519485018352600582015485526006820154858501526007820154858401526080810194909452600881018054835181860281018601909452808452919360a08601939290879084015b82821015611aa85760008481526020908190206040805160c08101825260068602909201805460ff16151583526001808201548486015260028201546001600160801b03169284019290925260038101546060840152600481015460808401526005015460a08301529083529092019101611a32565b505050915250506040516349ad1ba560e01b81529091507333237217b284d551a483D8471ACe538c807A23d8906349ad1ba590611aef90849060029060059060040161447d565b60006040518083038186803b158015611b0757600080fd5b505af4158015611b1b573d6000803e3d6000fd5b505050506040513d6000823e601f3d908101601f1916820160405261146191908101906139ec565b6000808060001985870986860292508281109083900303905080611b795760008411611b6e57600080fd5b508290049050611461565b808411611b8557600080fd5b6000848688096000868103871696879004966002600389028118808a02820302808a02820302808a02820302808a02820302808a02820302808a02909103029181900381900460010186841190950394909402919094039290920491909117919091029150509392505050565b600080611c008585856121f1565b90506000611c0f86868661231e565b9150508160648281611c1d57fe5b05039695505050505050565b81600601544211611c3957610b0f565b6001820154600160301b90046001600160801b031615611eaa57611c5d60016124ce565b6000611c698484612512565b9050611c7560026124ce565b60a08401516001840154600091611d2e91611ca1918991600281810b9163010000009004900b876125af565b6040805161012081018252875481526001880154600281810b810b810b602084015263010000008204810b810b810b93830193909352600160301b90046001600160801b03166060820152908701546080820152600387015460a0820152600487015460c0820152600587015460e08201526006870154610100820152611d2990889061280e565b6128c6565b9050611d3a60036124ce565b6000611d9f8660c00151611d8489600401604051806080016040529081600082015481526020016001820154815260200160028201548152602001600382015481525050866128e3565b60018801548790600281810b9163010000009004900b612958565b9050611dab60046124ce565b62015180818301866006015442030281611dc157fe5b049150611dd460058660020154846129f0565b6002850154611de39083612a44565b6002860155611df260066124ce565b6001850154604080516101208101825287548152600283810b810b810b602083015263010000008404810b810b810b92820192909252600160301b9092046001600160801b031660608301819052908701546080830152600387015460a0830152600487015460c0830152600587015460e08301526006870154610100830152611e9791611e8c918591611e87908b90612a9e565b612ac0565b600387015490612a44565b6003860155611ea660076124ce565b5050505b60a08301516001830154611ece918691600281810b9163010000009004900b612ad6565b611ed860076124ce565b42600683015550505050565b6000814211611ef4575080611461565b604080516101208101825285546001600160a01b0390811682526001870154808216602080850191909152600160a01b9182900462ffffff16848601526002890154831660608086019190915260038a0154841660808087019190915260048b015494851660a08701529290930460ff16151560c08501528451808301865260058a0154815260068a01548183015260078a01548187015260088a01548185015260e08501528451918201855260098901548252600a89015490820152600b88015493810193909352600c870154908301526101008101919091526000906301e1338090611fec908690611fe790612cbd565b6128e3565b8442030281611ff757fe5b0490506120076005860182612cf9565b6120146009860182612cf9565b5042949350505050565b6000828152600460208181526040808420815160c0810183528154815260018201546001600160a01b03811682860152600160a01b900460ff161515818401528251606080820185526002840154825260038401548287015295830154818501528582015282519485018352600582015485526006820154858501526007820154858401526080810194909452600881018054835181860281018601909452808452869594929360a086019390929190879084015b828210156121495760008481526020908190206040805160c08101825260068602909201805460ff16151583526001808201548486015260028201546001600160801b03169284019290925260038101546060840152600481015460808401526005015460a083015290835290920191016120d3565b50505091525050604051631f10af0f60e21b81529091507333237217b284d551a483D8471ACe538c807A23d890637c42bc3c906118e890849060029060059089906004016144a7565b600081156121db576121b183670de0b6b3a76400008760020154612ac0565b60018501549091506121c39082612a44565b600185015584546121d49082612a44565b8555611938565b83546121e79084612a44565b8455949350505050565b6001600160ff1b036305f5e1006001600160a01b03630554c99f85028116829004916306a9fc0786029091160460005b8660800151518110156122dc5760008760800151828151811061224057fe5b6020026020010151905080600001516122d25760006122756002836040015184606001510160020b8161226f57fe5b05612d6d565b9050846001600160a01b0316816001600160a01b031610806122a85750806001600160a01b0316846001600160a01b0316105b156122b45750506122d4565b60006122c18a838a61309f565b9050808713156122cf578096505b50505b505b600101612221565b5060006122ea87838761309f565b9050808413156122f8578093505b50600061230687848761309f565b905080841315612314578093505b5050509392505050565b8251602084015160408501516060860151600093849390929091845b8960800151518110156124595760008a60800151828151811061235957fe5b6020026020010151905060006123728260400151612d6d565b905060006123838360600151612d6d565b83519091501580156123a757508b6001600160a01b0316826001600160a01b031611155b80156123c55750806001600160a01b03168c6001600160a01b031611155b1561241657600160601b6123dc8460400151612d6d565b6123e98560600151612d6d565b0384602001516001600160801b0316026001600160a01b03168161240957fe5b0485019450505050612451565b6000806124298e858588602001516130bb565b865191935091501561244257988101989788019761244b565b96810196958601955b50505050505b60010161233a565b50600061246f888a6001600160a01b0316610db1565b9050871561249e57670de0b6b3a76400008482020485019650670de0b6b3a764000082820204830195506124c1565b83670de0b6b3a76400008683020401965081670de0b6b3a7640000848302040195505b5050505050935093915050565b6040805160248082018490528251808303909101815260449091019091526020810180516001600160e01b031663f5b1bba960e01b17905261250f90613157565b50565b6001810154604080516101208101825283548152600283810b810b810b602083015263010000008404810b810b810b92820192909252600160301b9092046001600160801b031660608301819052908301546080830152600383015460a0830152600483015460c0830152600583015460e083015260068301546101008301526000916114619190670de0b6b3a764000090611e87908790612a9e565b600080856001600160a01b031663f30583996040518163ffffffff1660e01b815260040160206040518083038186803b1580156125eb57600080fd5b505afa1580156125ff573d6000803e3d6000fd5b505050506040513d601f19601f820116820180604052508101906126239190613bfc565b90506000866001600160a01b031663461413196040518163ffffffff1660e01b815260040160206040518083038186803b15801561266057600080fd5b505afa158015612674573d6000803e3d6000fd5b505050506040513d601f19601f820116820180604052508101906126989190613bfc565b90506000876001600160a01b0316633850c7bd6040518163ffffffff1660e01b815260040160e06040518083038186803b1580156126d557600080fd5b505afa1580156126e9573d6000803e3d6000fd5b505050506040513d601f19601f8201168201806040525081019061270d9190613b39565b50505050509150506000806127396127258b8b613178565b61272f8c8b613178565b8b8b878a8a613244565b91509150600089896040516020016127529291906140f9565b6040516020818303038152906040528051906020012090506127fe6127ad8d6000016040518060800160405290816000820154815260200160018201548152602001600282015481526020016003820154815250508a6128e3565b8d600801600084815260200190815260200160002060405180608001604052908160008201548152602001600182015481526020016002820154815260200160038201548152505085858a8a6132c1565b9c9b505050505050505050505050565b600061281a600a6124ce565b6060830151825160405163133f757160e31b81526000926001600160a01b0316916399fbab889161284e91906004016145b1565b6101806040518083038186803b15801561286757600080fd5b505afa15801561287b573d6000803e3d6000fd5b505050506040513d601f19601f8201168201806040525081019061289f9190613dd5565b505050509750505050505050506128b6600b6124ce565b6001600160801b03169392505050565b60008183670de0b6b3a764000002816128db57fe5b049392505050565b8151602083015160009190831161291257670de0b6b3a7640000846040015184028161290b57fe5b0401611461565b670de0b6b3a764000084604001518560200151028161292d57fe5b0481019050670de0b6b3a7640000846020015184038560600151028161294f57fe5b04019392505050565b60008060006129818661296a87612d6d565b61297387612d6d565b670de0b6b3a76400006130bb565b91509150600061299a89886001600160a01b0316610db1565b905088156129be57826129b68383670de0b6b3a7640000612ac0565b0193506129d6565b816129d28483670de0b6b3a7640000612ac0565b0193505b670de0b6b3a7640000848902049998505050505050505050565b60408051602481018590526044810184905260648082018490528251808303909101815260849091019091526020810180516001600160e01b03166339e0829d60e21b179052612a3f90613157565b505050565b600082820183811015611461576040805162461bcd60e51b815260206004820152601b60248201527f536166654d6174683a206164646974696f6e206f766572666c6f770000000000604482015290519081900360640190fd5b600081606001516001600160801b0316612ab8848461280e565b019392505050565b600061193882612ad0868661333f565b90613398565b6000836001600160a01b031663f30583996040518163ffffffff1660e01b815260040160206040518083038186803b158015612b1157600080fd5b505afa158015612b25573d6000803e3d6000fd5b505050506040513d601f19601f82011682018060405250810190612b499190613bfc565b90506000846001600160a01b031663461413196040518163ffffffff1660e01b815260040160206040518083038186803b158015612b8657600080fd5b505afa158015612b9a573d6000803e3d6000fd5b505050506040513d601f19601f82011682018060405250810190612bbe9190613bfc565b90506000856001600160a01b0316633850c7bd6040518163ffffffff1660e01b815260040160e06040518083038186803b158015612bfb57600080fd5b505afa158015612c0f573d6000803e3d6000fd5b505050506040513d601f19601f82011682018060405250810190612c339190613b39565b5050505050915050600080612c5f612c4b8989613178565b612c558a89613178565b8989878a8a613244565b9150915060008787604051602001612c789291906140f9565b60408051601f19818403018152918152815160209283012060009081526008909c01909152909920918255600182015560028101939093555060039091015550505050565b60e081015151600090612cd95750670de0b6b3a76400006103ac565b60e0820151602081015190516104639190670de0b6b3a764000090612ac0565b8154612d0457610771565b612d25826003015482670de0b6b3a764000001670de0b6b3a7640000612ac0565b600383015560018201548254600091612d4091849190612ac0565b670de0b6b3a7640000019050612d63836002015482670de0b6b3a7640000612ac0565b6002840155505050565b60008060008360020b12612d84578260020b612d8c565b8260020b6000035b9050620d89e8811115612dca576040805162461bcd60e51b81526020600482015260016024820152601560fa1b604482015290519081900360640190fd5b600060018216612dde57600160801b612df0565b6ffffcb933bd6fad37aa2d162d1a5940015b70ffffffffffffffffffffffffffffffffff1690506002821615612e24576ffff97272373d413259a46990580e213a0260801c5b6004821615612e43576ffff2e50f5f656932ef12357cf3c7fdcc0260801c5b6008821615612e62576fffe5caca7e10e4e61c3624eaa0941cd00260801c5b6010821615612e81576fffcb9843d60f6159c9db58835c9266440260801c5b6020821615612ea0576fff973b41fa98c081472e6896dfb254c00260801c5b6040821615612ebf576fff2ea16466c96a3843ec78b326b528610260801c5b6080821615612ede576ffe5dee046a99a2a811c461f1969c30530260801c5b610100821615612efe576ffcbe86c7900a88aedcffc83b479aa3a40260801c5b610200821615612f1e576ff987a7253ac413176f2b074cf7815e540260801c5b610400821615612f3e576ff3392b0822b70005940c7a398e4b70f30260801c5b610800821615612f5e576fe7159475a2c29b7443b29c7fa6e889d90260801c5b611000821615612f7e576fd097f3bdfd2022b8845ad8f792aa58250260801c5b612000821615612f9e576fa9f746462d870fdf8a65dc1f90e061e50260801c5b614000821615612fbe576f70d869a156d2a1b890bb3df62baf32f70260801c5b618000821615612fde576f31be135f97d08fd981231505542fcfa60260801c5b62010000821615612fff576f09aa508b5b7a84e1c677de54f3e99bc90260801c5b6202000082161561301f576e5d6af8dedb81196699c329225ee6040260801c5b6204000082161561303e576d2216e584f5fa1ea926041bedfe980260801c5b6208000082161561305b576b048a170391f7dc42444e8fa20260801c5b60008460020b131561307657806000198161307257fe5b0490505b64010000000081061561308a57600161308d565b60005b60ff16602082901c0192505050919050565b60008060006130af86868661231e565b90039695505050505050565b600080836001600160a01b0316856001600160a01b031611156130dc579293925b846001600160a01b0316866001600160a01b031611613107576131008585856133f7565b915061314e565b836001600160a01b0316866001600160a01b031610156131405761312c8685856133f7565b9150613139858785613460565b905061314e565b61314b858585613460565b90505b94509492505050565b80516a636f6e736f6c652e6c6f67602083016000808483855afa5050505050565b61318061357a565b6000806000856001600160a01b031663f30dba93866040518263ffffffff1660e01b81526004016131b191906141bb565b6101006040518083038186803b1580156131ca57600080fd5b505afa1580156131de573d6000803e3d6000fd5b505050506040513d601f19601f820116820180604052508101906132029190613a8f565b97505050509450945050508061322a5760405162461bcd60e51b815260040161041690614201565b506040805180820190915291825260208201529392505050565b6000806000808860020b8760020b12613265575050885160208a0151613275565b5050885160208a01519085039084035b6000808960020b8960020b1215613294575050895160208b01516132a4565b5050895160208b01519087039086035b92909603959095039a949093039290920397509195505050505050565b600080600087604001518511156132f5578760400151850388600001518803670de0b6b3a764000002816132f157fe5b0491505b8760600151841115613324578760600151840388602001518703670de0b6b3a7640000028161332057fe5b0490505b671bc16d674ec80000910188020490505b9695505050505050565b60008261334e57506000610463565b8282028284828161335b57fe5b04146114615760405162461bcd60e51b81526004018080602001828103825260218152602001806146a46021913960400191505060405180910390fd5b60008082116133ee576040805162461bcd60e51b815260206004820152601a60248201527f536166654d6174683a206469766973696f6e206279207a65726f000000000000604482015290519081900360640190fd5b8183816128db57fe5b6000826001600160a01b0316846001600160a01b03161115613417579192915b836001600160a01b0316613450606060ff16846001600160801b0316901b8686036001600160a01b0316866001600160a01b0316611b43565b8161345757fe5b04949350505050565b6000826001600160a01b0316846001600160a01b03161115613480579192915b611938826001600160801b03168585036001600160a01b0316600160601b611b43565b60405180610120016040528060008152602001600060020b8152602001600060020b815260200160006001600160801b0316815260200160008152602001600081526020016000815260200160008152602001600081525090565b6040518060c001604052806000815260200160006001600160a01b03168152602001600015158152602001613531613594565b815260200161353e613594565b8152602001606081525090565b6040518060a0016040528060008152602001600081526020016000815260200160008152602001606081525090565b604051806040016040528060008152602001600081525090565b60405180606001604052806000815260200160008152602001600081525090565b80516103ac8161464f565b600082601f8301126135d0578081fd5b815160206135e56135e083614625565b614601565b82815281810190858301608080860288018501891015613603578687fd5b865b868110156136955781838b03121561361b578788fd5b6040805183810181811067ffffffffffffffff8211171561363857fe5b8252845161364581614664565b8152848801516136548161468e565b81890152848201516136658161467f565b808383015250606091508185015161367c8161467f565b9181019190915285529385019391810191600101613605565b509198975050505050505050565b600082601f8301126136b3578081fd5b813560206136c36135e083614625565b8281528181019085830160e0808602880185018910156136e1578687fd5b865b868110156136955781838b0312156136f9578788fd5b6040805183810181811067ffffffffffffffff8211171561371657fe5b8252613721856137a6565b815261372e888601613790565b8882015261373d828601613831565b82820152606091506137508286016137bc565b82820152608091506137638286016137bc565b9181019190915260a0848101359082015260c08085013590820152855293850193918101916001016136e3565b80356103ac81614664565b80516103ac81614664565b80356103ac81614672565b80516103ac81614672565b80356103ac8161467f565b80516103ac8161467f565b6000608082840312156137e3578081fd5b6040516080810181811067ffffffffffffffff8211171561380057fe5b8060405250809150823581526020830135602082015260408301356040820152606083013560608201525092915050565b80356103ac8161468e565b80516103ac8161468e565b805161ffff811681146103ac57600080fd5b805162ffffff811681146103ac57600080fd5b60006020828403121561387d578081fd5b81356114618161464f565b6000602080838503121561389a578182fd5b823567ffffffffffffffff808211156138b1578384fd5b8185019150601f86818401126138c5578485fd5b82356138d36135e082614625565b81815285810190858701885b8481101561395157813588018c603f8201126138f9578a8bfd5b8981013560408982111561390957fe5b61391a828a01601f19168d01614601565b8281528f8284860101111561392d578d8efd5b828285018e8301379182018c018d90525085525092880192908801906001016138df565b50909a9950505050505050505050565b600060208284031215613972578081fd5b5035919050565b6000806040838503121561398b578081fd5b505080516020909101519092909150565b6000608082840312156139ad578081fd5b61146183836137d2565b60008061010083850312156139ca578182fd5b6139d484846137d2565b91506139e384608085016137d2565b90509250929050565b6000602082840312156139fd578081fd5b815167ffffffffffffffff80821115613a14578283fd5b9083019060a08286031215613a27578283fd5b60405160a081018181108382111715613a3c57fe5b806040525082518152602083015160208201526040830151604082015260608301516060820152608083015182811115613a74578485fd5b613a80878286016135c0565b60808301525095945050505050565b600080600080600080600080610100898b031215613aab578384fd5b8851613ab68161468e565b80985050602089015180600f0b8114613acd578485fd5b80975050604089015195506060890151945060808901518060060b8114613af2578485fd5b60a08a0151909450613b038161464f565b60c08a015190935063ffffffff81168114613b1c578283fd5b9150613b2a60e08a0161379b565b90509295985092959890939650565b600080600080600080600060e0888a031215613b53578081fd5b8751613b5e8161464f565b6020890151909750613b6f8161467f565b9550613b7d60408901613847565b9450613b8b60608901613847565b9350613b9960808901613847565b925060a088015160ff81168114613bae578182fd5b60c0890151909250613bbf81614664565b8091505092959891949750929550565b60008060408385031215613be1578182fd5b8251613bec8161464f565b6020939093015192949293505050565b600060208284031215613c0d578081fd5b5051919050565b60008060408385031215613c26578182fd5b82359150602083013567ffffffffffffffff811115613c43578182fd5b613c4f858286016136a3565b9150509250929050565b6000806040808486031215613c6c578283fd5b8351925060208085015167ffffffffffffffff80821115613c8b578485fd5b818701915087601f830112613c9e578485fd5b8151613cac6135e082614625565b8181528481019084860160e0808502870188018d1015613cca57898afd5b8996505b84871015613d6e5780828e031215613ce457898afd5b88518181018181108882111715613cf757fe5b8a52613d02836137b1565b8152613d0f89840161379b565b89820152613d1e8a840161383c565b8a8201526060613d2f8185016137c7565b908201526080613d408482016137c7565b9082015260a0838101519082015260c080840151908201528452600196909601959287019290810190613cce565b50989b909a5098505050505050505050565b60008060008060808587031215613d95578182fd5b84359350602085013567ffffffffffffffff811115613db2578283fd5b613dbe878288016136a3565b949794965050505060408301359260600135919050565b6000806000806000806000806000806000806101808d8f031215613df7578586fd5b8c516bffffffffffffffffffffffff81168114613e12578687fd5b9b50613e2060208e016135b5565b9a50613e2e60408e016135b5565b9950613e3c60608e016135b5565b9850613e4a60808e01613859565b9750613e5860a08e016137c7565b9650613e6660c08e016137c7565b9550613e7460e08e0161383c565b94506101008d015193506101208d01519250613e936101408e0161383c565b9150613ea26101608e0161383c565b90509295989b509295989b509295989b565b6001600160a01b03169052565b15159052565b60020b9052565b8051825260208082015190830152604090810151910152565b613efa82613ef58354614643565b613eb4565b60018101546001600160a01b03613f1660208501828416613eb4565b613f2b6040850162ffffff8460a01c166140f0565b613f386002840154614643565b9150613f476060850183613eb4565b613f546003840154614643565b9150613f636080850183613eb4565b60048301549150613f7960a08501828416613eb4565b50613f8d60c0840160ff8360a01c16613ec1565b50613f9e60e083016005830161401a565b61077161016083016009830161401a565b805115158252602081015160208301526001600160801b036040820151166040830152606081015160608301526080810151608083015260a081015160a08301525050565b805182526020810151602083015260408101516040830152606081015160608301525050565b80548252600181015460208301526002810154604083015260030154606090910152565b600061014080840183518552602060018060a01b03818601511681870152604085015115156040870152606085015161407a6060880182613ece565b50608085015160c061408e81890183613ece565b60a08701516101208901959095528451938490526101608801948301938692505b808310156140d6576140c2868651613faf565b9481019493830193600192909201916140af565b5093979650505050505050565b6001600160801b03169052565b62ffffff169052565b600292830b60e890811b82529190920b901b600382015260060190565b6001600160a01b0391909116815260200190565b6001600160a01b038a81168252898116602083015262ffffff8916604083015287811660608301528681166080830152851660a082015283151560c08201526101e0810161417b60e0830185613ff4565b614189610160830184613ff4565b9a9950505050505050505050565b901515815260200190565b6001600160a01b03929092168252602082015260400190565b60029190910b815260200190565b602080825260029082015261140d60f21b604082015260600190565b602080825260029082015261503360f01b604082015260600190565b6020808252600b908201526a1a5b9a5d1a585b1a5e995960aa1b604082015260600190565b602080825260029082015261503560f01b604082015260600190565b602080825260029082015261281b60f11b604082015260600190565b60208082526017908201527f63616c6c6572206d757374206265206f70657261746f72000000000000000000604082015260600190565b602080825260029082015261281960f11b604082015260600190565b60006101208201905082518252602083015160020b6020830152604083015160020b604083015260608301516142ea60608401826140e3565b506080830151608083015260a083015160a083015260c083015160c083015260e083015160e083015261010080840151818401525092915050565b6000602080835260c083018451828501528185015160408181870152808701519150606082818801528088015192506080838189015280890151935060a08089015284845180875260e08a01915087860196508895505b808610156143c8578651805115158352888101516001600160801b03168984015285810151600290810b8785015290850151900b8483015295870195600195909501949082019061437c565b509998505050505050505050565b60006020808352610160830184518285015260018060a01b038286015116604085015260408501511515606085015260608501516144176080860182613ece565b50608085015161442a60e0860182613ece565b5060a08501516101408581015280519182905282019083906101808601905b808310156144725761445c828551613faf565b60c0820191508484019350600183019250614449565b509695505050505050565b60006102208083526144918184018761403e565b9150508360208301526119386040830184613ee7565b60006102408083526144bb8184018861403e565b9150508460208301526144d16040830185613ee7565b6001600160a01b039290921661022091909101529392505050565b600060a080830188845260208881860152604088818701526060848188015283895180865260c095508589019150848b01885b828110156145985781518051600a811061453557fe5b855280880151151588860152868101516001600160801b0316878601528581015161456287870182613ec7565b5060808082015161457582880182613ec7565b5050808a0151858b01528801518885015260e0909301929086019060010161451f565b5050508096505050505050506133356080830184613ec1565b90815260200190565b8581526001600160a01b0385166020820152831515604082015261012081016145e66060830185613ece565b61333560c0830184613ece565b918252602082015260400190565b60405181810167ffffffffffffffff8111828210171561461d57fe5b604052919050565b600067ffffffffffffffff82111561463957fe5b5060209081020190565b6001600160a01b031690565b6001600160a01b038116811461250f57600080fd5b801515811461250f57600080fd5b600a811061250f57600080fd5b8060020b811461250f57600080fd5b6001600160801b038116811461250f57600080fdfe536166654d6174683a206d756c7469706c69636174696f6e206f766572666c6f775369676e6564536166654d6174683a207375627472616374696f6e206f766572666c6f77a26469706673582212204606febc0085e9aafaee276a96b0fd9a7cc7cf054152898914dcd66734c293e464736f6c63430007060033",
  "deployedBytecode": "0x608060405234801561001057600080fd5b50600436106101425760003560e01c806365b5f6e3116100b857806398d5fdca1161007c57806398d5fdca146102a25780639b688ee4146102aa578063b3ab15fb146102bd578063cb3c9a53146102d0578063d0496d6a146102d8578063eb02c301146102f557610142565b806365b5f6e314610230578063687157731461024357806386e6862d146102565780638c64ea4a1461025e5780639403b6341461028257610142565b80633e1297151161010a5780633e129715146101aa57806342011209146101ca57806349ebb77d146101dd57806353aad1d9146101fe578063570ca7351461021357806362e0929f1461022857610142565b8063013216f51461014757806305ecd0031461017057806326d8d4f914610185578063275892a21461018d57806333a9d06014610195575b600080fd5b61015a610155366004613961565b610315565b60405161016791906142b1565b60405180910390f35b6101786103b1565b60405161016791906145b1565b6101786103e0565b6101786103e6565b6101a86101a33660046139b7565b6103ec565b005b6101bd6101b8366004613961565b610458565b6040516101679190614197565b6101786101d8366004613d80565b610469565b6101f06101eb366004613961565b610614565b6040516101679291906145f3565b610206610646565b60405161016791906141bb565b61021b6106cf565b6040516101679190614116565b6101bd6106de565b6101a861023e366004613888565b6106ee565b6101a861025136600461399c565b610775565b61021b6107bd565b61027161026c366004613961565b610846565b6040516101679594939291906145ba565b610295610290366004613961565b6108c2565b60405161016791906143d6565b610178610a00565b6101a86102b8366004613c14565b610a1c565b6101a86102cb36600461386c565b610b15565b61021b610b61565b6102e0610c00565b6040516101679998979695949392919061412a565b610308610303366004613961565b610c9b565b6040516101679190614325565b61031d6134a3565b5060008181526002602081815260409283902083516101208101855281548152600182015480850b850b850b9382019390935263010000008304840b840b840b94810194909452600160301b9091046001600160801b03166060840152908101546080830152600381015460a0830152600481015460c0830152600581015460e0830152600601546101008201525b919050565b6009546000906103db90600160a01b900460ff166103cd610b61565b6001600160a01b0316610db1565b905090565b60035481565b60015481565b601f546001600160a01b0316331461041f5760405162461bcd60e51b81526004016104169061425e565b60405180910390fd5b8151601a55602080830151601b55604080840151601c55606093840151601d558251601655908201516017558101516018550151601955565b600061046382610e79565b92915050565b600061047485610f42565b600061047f866111db565b909250905083156104a2576005546104a2906001600160a01b03163330876112a4565b82156104c0576006546104c0906001600160a01b03163330866112a4565b60008073__$da03e66f624374a74ff67f4d42d7f52632$__632b17ca3984600560028b60006040518663ffffffff1660e01b81526004016105059594939291906144ec565b604080518083038186803b15801561051c57600080fd5b505af4158015610530573d6000803e3d6000fd5b505050506040513d601f19601f820116820180604052508101906105549190613979565b9150915061056184610e79565b1561057e5760405162461bcd60e51b8152600401610416906141e5565b8186121561059e5760405162461bcd60e51b815260040161041690614226565b808512156105be5760405162461bcd60e51b815260040161041690614242565b818613156105e6576005546105e6906001600160a01b0316336105e189866113fc565b611468565b8085131561060957600654610609906001600160a01b0316336105e188856113fc565b505050949350505050565b60008060006106216107bd565b905061062c84610f42565b60008061063986846115b6565b9095509350505050915091565b60095460408051633850c7bd60e01b815290516000926001600160a01b031691633850c7bd9160048281019260e0929190829003018186803b15801561068b57600080fd5b505afa15801561069f573d6000803e3d6000fd5b505050506040513d601f19601f820116820180604052508101906106c39190613b39565b50939695505050505050565b601f546001600160a01b031681565b600954600160a01b900460ff1690565b601f546001600160a01b031633146107185760405162461bcd60e51b81526004016104169061425e565b60005b81518110156107715760008083838151811061073357fe5b602002602001015180602001905181019061074e9190613c59565b9150915061075b82610f42565b610767828260006115d8565b505060010161071b565b5050565b601f546001600160a01b0316331461079f5760405162461bcd60e51b81526004016104169061425e565b80516012556020810151601355604081015160145560600151601555565b60095460408051633850c7bd60e01b815290516000926001600160a01b031691633850c7bd9160048281019260e0929190829003018186803b15801561080257600080fd5b505afa158015610816573d6000803e3d6000fd5b505050506040513d601f19601f8201168201806040525081019061083a9190613b39565b50949695505050505050565b600460208181526000928352604092839020805460018201548551606080820188526002850154825260038501548287015295840154818801528651958601875260058401548652600684015494860194909452600790920154948401949094526001600160a01b03811692600160a01b90910460ff16919085565b6108ca6134fe565b6000828152600460208181526040808420815160c0810183528154815260018201546001600160a01b03811682860152600160a01b900460ff1615158184015282516060808201855260028401548252600384015482870152958301548185015285820152825194850183526005820154855260068201548585015260078201548584015260808101949094526008810180548351818602810186019094528084529495919460a08701949192909184015b828210156109f25760008481526020908190206040805160c08101825260068602909201805460ff16151583526001808201548486015260028201546001600160801b03169284019290925260038101546060840152600481015460808401526005015460a0830152908352909201910161097c565b505050915250909392505050565b6009546000906103db90600160a01b900460ff166103cd6107bd565b610a2582610f42565b610a2e82610e79565b610a4a5760405162461bcd60e51b8152600401610416906141c9565b600954604051632b44ebb960e21b815260009173__$33c292c158d5f9ac43a728d8230e22b075$__9163ad13aee491610a94916001600160a01b0390911690603c906004016141a2565b604080518083038186803b158015610aab57600080fd5b505af4158015610abf573d6000803e3d6000fd5b505050506040513d601f19601f82011682018060405250810190610ae39190613bcf565b5090506000610af28483611774565b9050610b02848460c884046115d8565b610b0f3360c88304611940565b50505050565b601f546001600160a01b03163314610b3f5760405162461bcd60e51b81526004016104169061425e565b601f80546001600160a01b0319166001600160a01b0392909216919091179055565b600954604051632b44ebb960e21b815260009173__$33c292c158d5f9ac43a728d8230e22b075$__9163ad13aee491610bab916001600160a01b0390911690603c906004016141a2565b604080518083038186803b158015610bc257600080fd5b505af4158015610bd6573d6000803e3d6000fd5b505050506040513d601f19601f82011682018060405250810190610bfa9190613bcf565b50919050565b6005546006546007546008546009546040805160808082018352600a548252600b54602080840191909152600c5483850152600d5460608085019190915284519283018552600e548352600f549183019190915260105493820193909352601154928101929092526001600160a01b039687169680871696600160a01b9081900462ffffff169682169582169491821693910460ff16919089565b610ca361354b565b610cac82610f42565b6104638261197a565b600081602001516001600160a01b031682600001516001600160a01b031610610cdd57600080fd5b50805160208083015160409384015184516001600160a01b0394851681850152939091168385015262ffffff166060808401919091528351808403820181526080840185528051908301206001600160f81b031960a085015294901b6bffffffffffffffffffffffff191660a183015260b58201939093527fe34f199b19b2b4f47f68442619d555527d244f78a3297ea89325f843f87b8b5460d5808301919091528251808303909101815260f5909101909152805191012090565b670de0b6b3a764000060028201819055600390910155565b6000670de0b6b3a76400008315610e1957610dda838483600160c01b81610dd457fe5b04611b43565b915081610df9576ec097ce7bc90715b34b9f1000000000915050610463565b816ec097ce7bc90715b34b9f100000000081610e1157fe5b049150610e3a565b600160601b81610e2e8586600160601b611b43565b0281610e3657fe5b0491505b6ec097ce7bc90715b34b9f1000000000821115610e68576ec097ce7bc90715b34b9f10000000009150610e72565b81610e7257600191505b5092915050565b600954604051632b44ebb960e21b8152600091829173__$33c292c158d5f9ac43a728d8230e22b075$__9163ad13aee491610ec3916001600160a01b031690603c906004016141a2565b604080518083038186803b158015610eda57600080fd5b505af4158015610eee573d6000803e3d6000fd5b505050506040513d601f19601f82011682018060405250810190610f129190613bcf565b5090506000610f37610f238561197a565b6009548490600160a01b900460ff16611bf2565b600012949350505050565b6000818152600460208181526040808420815160c0810183528154815260018201546001600160a01b03811682860152600160a01b900460ff161515818401528251606080820185526002840154825260038401548287015295830154818501528582015282519485018352600582015485526006820154858501526007820154858401526080810194909452600881018054835181860281018601909452808452919360a08601939290879084015b828210156110685760008481526020908190206040805160c08101825260068602909201805460ff16151583526001808201548486015260028201546001600160801b03169284019290925260038101546060840152600481015460808401526005015460a08301529083529092019101610ff2565b5050505081525050905060005b8160a001515181101561119b5760408051610120810182526005546001600160a01b039081168252600654808216602080850191909152600160a01b9182900462ffffff16848601526007548316606080860191909152600854841660808087019190915260095494851660a0808801919091529390940460ff16151560c086015285518085018752600a548152600b5481840152600c5481880152600d548183015260e086015285519384018652600e548452600f549184019190915260105494830194909452601154938201939093526101008201529083015180516111939260169290916002916000918790811061116c57fe5b602002602001015160200151815260200190815260200160002061118e6107bd565b611c29565b600101611075565b5060408051608081018252601254815260135460208201526014549181019190915260155460608201526001546111d491600591611ee4565b6001555050565b60008082611254576003805460018082019092556000818152600460205260409081902082815590920180546001600160a01b0319163317905590519092507f4111fcee61908834830adf60a520ba26d09f02fa4e00cfe3d2c134e32f3f8696906112479084906145b1565b60405180910390a1611290565b6000838152600460205260409020600101548392506001600160a01b031633146112905760405162461bcd60e51b815260040161041690614295565b506000818152600460205260409020915091565b604080516001600160a01b0385811660248301528481166044830152606480830185905283518084039091018152608490920183526020820180516001600160e01b03166323b872dd60e01b178152925182516000948594938a169392918291908083835b602083106113285780518252601f199092019160209182019101611309565b6001836020036101000a0380198251168184511680821785525050505050509050019150506000604051808303816000865af19150503d806000811461138a576040519150601f19603f3d011682016040523d82523d6000602084013e61138f565b606091505b50915091508180156113bd5750805115806113bd57508080602001905160208110156113ba57600080fd5b50515b6113f4576040805162461bcd60e51b815260206004820152600360248201526229aa2360e91b604482015290519081900360640190fd5b505050505050565b60008183038183128015906114115750838113155b80611426575060008312801561142657508381135b6114615760405162461bcd60e51b81526004018080602001828103825260248152602001806146c56024913960400191505060405180910390fd5b9392505050565b604080516001600160a01b038481166024830152604480830185905283518084039091018152606490920183526020820180516001600160e01b031663a9059cbb60e01b1781529251825160009485949389169392918291908083835b602083106114e45780518252601f1990920191602091820191016114c5565b6001836020036101000a0380198251168184511680821785525050505050509050019150506000604051808303816000865af19150503d8060008114611546576040519150601f19603f3d011682016040523d82523d6000602084013e61154b565b606091505b5091509150818015611579575080511580611579575080806020019051602081101561157657600080fd5b50515b6115af576040805162461bcd60e51b815260206004820152600260248201526114d560f21b604482015290519081900360640190fd5b5050505050565b6000806115c3848461201e565b6115cd8585611774565b915091509250929050565b6115e183610f42565b60008381526004602081905260408083209051632b17ca3960e01b8152909291829173__$da03e66f624374a74ff67f4d42d7f52632$__91632b17ca39916116369187916005916002918c91600191016144ec565b604080518083038186803b15801561164d57600080fd5b505af4158015611661573d6000803e3d6000fd5b505050506040513d601f19601f820116820180604052508101906116859190613979565b9150915061169286610e79565b156116af5760405162461bcd60e51b8152600401610416906141e5565b81600012156116d05760405162461bcd60e51b815260040161041690614226565b80600012156116f15760405162461bcd60e51b815260040161041690614242565b816000131561172f57600954600160a01b900460ff16156117195761171682856113fc565b91505b61172d600a60028501600085810390612192565b505b80600013156113f457600954600160a01b900460ff16156117575761175481856113fc565b90505b61176b600e60058501600084810390612192565b50505050505050565b6000828152600460208181526040808420815160c0810183528154815260018201546001600160a01b03811682860152600160a01b900460ff161515818401528251606080820185526002840154825260038401548287015295830154818501528582015282519485018352600582015485526006820154858501526007820154858401526080810194909452600881018054835181860281018601909452808452869594929360a086019390929190879084015b8282101561189f5760008481526020908190206040805160c08101825260068602909201805460ff16151583526001808201548486015260028201546001600160801b03169284019290925260038101546060840152600481015460808401526005015460a08301529083529092019101611829565b5050509152505060405163571e620160e11b815290915073__$b4a4919001844372a79711112cfb20c2b9$__9063ae3cc402906118e890849060029060059089906004016144a7565b60206040518083038186803b15801561190057600080fd5b505af4158015611914573d6000803e3d6000fd5b505050506040513d601f19601f820116820180604052508101906119389190613bfc565b949350505050565b60095461077190600160a01b900460ff16611966576006546001600160a01b0316611973565b6005546001600160a01b03165b8383611468565b61198261354b565b6000828152600460208181526040808420815160c0810183528154815260018201546001600160a01b03811682860152600160a01b900460ff161515818401528251606080820185526002840154825260038401548287015295830154818501528582015282519485018352600582015485526006820154858501526007820154858401526080810194909452600881018054835181860281018601909452808452919360a08601939290879084015b82821015611aa85760008481526020908190206040805160c08101825260068602909201805460ff16151583526001808201548486015260028201546001600160801b03169284019290925260038101546060840152600481015460808401526005015460a08301529083529092019101611a32565b505050915250506040516349ad1ba560e01b815290915073__$b4a4919001844372a79711112cfb20c2b9$__906349ad1ba590611aef90849060029060059060040161447d565b60006040518083038186803b158015611b0757600080fd5b505af4158015611b1b573d6000803e3d6000fd5b505050506040513d6000823e601f3d908101601f1916820160405261146191908101906139ec565b6000808060001985870986860292508281109083900303905080611b795760008411611b6e57600080fd5b508290049050611461565b808411611b8557600080fd5b6000848688096000868103871696879004966002600389028118808a02820302808a02820302808a02820302808a02820302808a02820302808a02909103029181900381900460010186841190950394909402919094039290920491909117919091029150509392505050565b600080611c008585856121f1565b90506000611c0f86868661231e565b9150508160648281611c1d57fe5b05039695505050505050565b81600601544211611c3957610b0f565b6001820154600160301b90046001600160801b031615611eaa57611c5d60016124ce565b6000611c698484612512565b9050611c7560026124ce565b60a08401516001840154600091611d2e91611ca1918991600281810b9163010000009004900b876125af565b6040805161012081018252875481526001880154600281810b810b810b602084015263010000008204810b810b810b93830193909352600160301b90046001600160801b03166060820152908701546080820152600387015460a0820152600487015460c0820152600587015460e08201526006870154610100820152611d2990889061280e565b6128c6565b9050611d3a60036124ce565b6000611d9f8660c00151611d8489600401604051806080016040529081600082015481526020016001820154815260200160028201548152602001600382015481525050866128e3565b60018801548790600281810b9163010000009004900b612958565b9050611dab60046124ce565b62015180818301866006015442030281611dc157fe5b049150611dd460058660020154846129f0565b6002850154611de39083612a44565b6002860155611df260066124ce565b6001850154604080516101208101825287548152600283810b810b810b602083015263010000008404810b810b810b92820192909252600160301b9092046001600160801b031660608301819052908701546080830152600387015460a0830152600487015460c0830152600587015460e08301526006870154610100830152611e9791611e8c918591611e87908b90612a9e565b612ac0565b600387015490612a44565b6003860155611ea660076124ce565b5050505b60a08301516001830154611ece918691600281810b9163010000009004900b612ad6565b611ed860076124ce565b42600683015550505050565b6000814211611ef4575080611461565b604080516101208101825285546001600160a01b0390811682526001870154808216602080850191909152600160a01b9182900462ffffff16848601526002890154831660608086019190915260038a0154841660808087019190915260048b015494851660a08701529290930460ff16151560c08501528451808301865260058a0154815260068a01548183015260078a01548187015260088a01548185015260e08501528451918201855260098901548252600a89015490820152600b88015493810193909352600c870154908301526101008101919091526000906301e1338090611fec908690611fe790612cbd565b6128e3565b8442030281611ff757fe5b0490506120076005860182612cf9565b6120146009860182612cf9565b5042949350505050565b6000828152600460208181526040808420815160c0810183528154815260018201546001600160a01b03811682860152600160a01b900460ff161515818401528251606080820185526002840154825260038401548287015295830154818501528582015282519485018352600582015485526006820154858501526007820154858401526080810194909452600881018054835181860281018601909452808452869594929360a086019390929190879084015b828210156121495760008481526020908190206040805160c08101825260068602909201805460ff16151583526001808201548486015260028201546001600160801b03169284019290925260038101546060840152600481015460808401526005015460a083015290835290920191016120d3565b50505091525050604051631f10af0f60e21b815290915073__$b4a4919001844372a79711112cfb20c2b9$__90637c42bc3c906118e890849060029060059089906004016144a7565b600081156121db576121b183670de0b6b3a76400008760020154612ac0565b60018501549091506121c39082612a44565b600185015584546121d49082612a44565b8555611938565b83546121e79084612a44565b8455949350505050565b6001600160ff1b036305f5e1006001600160a01b03630554c99f85028116829004916306a9fc0786029091160460005b8660800151518110156122dc5760008760800151828151811061224057fe5b6020026020010151905080600001516122d25760006122756002836040015184606001510160020b8161226f57fe5b05612d6d565b9050846001600160a01b0316816001600160a01b031610806122a85750806001600160a01b0316846001600160a01b0316105b156122b45750506122d4565b60006122c18a838a61309f565b9050808713156122cf578096505b50505b505b600101612221565b5060006122ea87838761309f565b9050808413156122f8578093505b50600061230687848761309f565b905080841315612314578093505b5050509392505050565b8251602084015160408501516060860151600093849390929091845b8960800151518110156124595760008a60800151828151811061235957fe5b6020026020010151905060006123728260400151612d6d565b905060006123838360600151612d6d565b83519091501580156123a757508b6001600160a01b0316826001600160a01b031611155b80156123c55750806001600160a01b03168c6001600160a01b031611155b1561241657600160601b6123dc8460400151612d6d565b6123e98560600151612d6d565b0384602001516001600160801b0316026001600160a01b03168161240957fe5b0485019450505050612451565b6000806124298e858588602001516130bb565b865191935091501561244257988101989788019761244b565b96810196958601955b50505050505b60010161233a565b50600061246f888a6001600160a01b0316610db1565b9050871561249e57670de0b6b3a76400008482020485019650670de0b6b3a764000082820204830195506124c1565b83670de0b6b3a76400008683020401965081670de0b6b3a7640000848302040195505b5050505050935093915050565b6040805160248082018490528251808303909101815260449091019091526020810180516001600160e01b031663f5b1bba960e01b17905261250f90613157565b50565b6001810154604080516101208101825283548152600283810b810b810b602083015263010000008404810b810b810b92820192909252600160301b9092046001600160801b031660608301819052908301546080830152600383015460a0830152600483015460c0830152600583015460e083015260068301546101008301526000916114619190670de0b6b3a764000090611e87908790612a9e565b600080856001600160a01b031663f30583996040518163ffffffff1660e01b815260040160206040518083038186803b1580156125eb57600080fd5b505afa1580156125ff573d6000803e3d6000fd5b505050506040513d601f19601f820116820180604052508101906126239190613bfc565b90506000866001600160a01b031663461413196040518163ffffffff1660e01b815260040160206040518083038186803b15801561266057600080fd5b505afa158015612674573d6000803e3d6000fd5b505050506040513d601f19601f820116820180604052508101906126989190613bfc565b90506000876001600160a01b0316633850c7bd6040518163ffffffff1660e01b815260040160e06040518083038186803b1580156126d557600080fd5b505afa1580156126e9573d6000803e3d6000fd5b505050506040513d601f19601f8201168201806040525081019061270d9190613b39565b50505050509150506000806127396127258b8b613178565b61272f8c8b613178565b8b8b878a8a613244565b91509150600089896040516020016127529291906140f9565b6040516020818303038152906040528051906020012090506127fe6127ad8d6000016040518060800160405290816000820154815260200160018201548152602001600282015481526020016003820154815250508a6128e3565b8d600801600084815260200190815260200160002060405180608001604052908160008201548152602001600182015481526020016002820154815260200160038201548152505085858a8a6132c1565b9c9b505050505050505050505050565b600061281a600a6124ce565b6060830151825160405163133f757160e31b81526000926001600160a01b0316916399fbab889161284e91906004016145b1565b6101806040518083038186803b15801561286757600080fd5b505afa15801561287b573d6000803e3d6000fd5b505050506040513d601f19601f8201168201806040525081019061289f9190613dd5565b505050509750505050505050506128b6600b6124ce565b6001600160801b03169392505050565b60008183670de0b6b3a764000002816128db57fe5b049392505050565b8151602083015160009190831161291257670de0b6b3a7640000846040015184028161290b57fe5b0401611461565b670de0b6b3a764000084604001518560200151028161292d57fe5b0481019050670de0b6b3a7640000846020015184038560600151028161294f57fe5b04019392505050565b60008060006129818661296a87612d6d565b61297387612d6d565b670de0b6b3a76400006130bb565b91509150600061299a89886001600160a01b0316610db1565b905088156129be57826129b68383670de0b6b3a7640000612ac0565b0193506129d6565b816129d28483670de0b6b3a7640000612ac0565b0193505b670de0b6b3a7640000848902049998505050505050505050565b60408051602481018590526044810184905260648082018490528251808303909101815260849091019091526020810180516001600160e01b03166339e0829d60e21b179052612a3f90613157565b505050565b600082820183811015611461576040805162461bcd60e51b815260206004820152601b60248201527f536166654d6174683a206164646974696f6e206f766572666c6f770000000000604482015290519081900360640190fd5b600081606001516001600160801b0316612ab8848461280e565b019392505050565b600061193882612ad0868661333f565b90613398565b6000836001600160a01b031663f30583996040518163ffffffff1660e01b815260040160206040518083038186803b158015612b1157600080fd5b505afa158015612b25573d6000803e3d6000fd5b505050506040513d601f19601f82011682018060405250810190612b499190613bfc565b90506000846001600160a01b031663461413196040518163ffffffff1660e01b815260040160206040518083038186803b158015612b8657600080fd5b505afa158015612b9a573d6000803e3d6000fd5b505050506040513d601f19601f82011682018060405250810190612bbe9190613bfc565b90506000856001600160a01b0316633850c7bd6040518163ffffffff1660e01b815260040160e06040518083038186803b158015612bfb57600080fd5b505afa158015612c0f573d6000803e3d6000fd5b505050506040513d601f19601f82011682018060405250810190612c339190613b39565b5050505050915050600080612c5f612c4b8989613178565b612c558a89613178565b8989878a8a613244565b9150915060008787604051602001612c789291906140f9565b60408051601f19818403018152918152815160209283012060009081526008909c01909152909920918255600182015560028101939093555060039091015550505050565b60e081015151600090612cd95750670de0b6b3a76400006103ac565b60e0820151602081015190516104639190670de0b6b3a764000090612ac0565b8154612d0457610771565b612d25826003015482670de0b6b3a764000001670de0b6b3a7640000612ac0565b600383015560018201548254600091612d4091849190612ac0565b670de0b6b3a7640000019050612d63836002015482670de0b6b3a7640000612ac0565b6002840155505050565b60008060008360020b12612d84578260020b612d8c565b8260020b6000035b9050620d89e8811115612dca576040805162461bcd60e51b81526020600482015260016024820152601560fa1b604482015290519081900360640190fd5b600060018216612dde57600160801b612df0565b6ffffcb933bd6fad37aa2d162d1a5940015b70ffffffffffffffffffffffffffffffffff1690506002821615612e24576ffff97272373d413259a46990580e213a0260801c5b6004821615612e43576ffff2e50f5f656932ef12357cf3c7fdcc0260801c5b6008821615612e62576fffe5caca7e10e4e61c3624eaa0941cd00260801c5b6010821615612e81576fffcb9843d60f6159c9db58835c9266440260801c5b6020821615612ea0576fff973b41fa98c081472e6896dfb254c00260801c5b6040821615612ebf576fff2ea16466c96a3843ec78b326b528610260801c5b6080821615612ede576ffe5dee046a99a2a811c461f1969c30530260801c5b610100821615612efe576ffcbe86c7900a88aedcffc83b479aa3a40260801c5b610200821615612f1e576ff987a7253ac413176f2b074cf7815e540260801c5b610400821615612f3e576ff3392b0822b70005940c7a398e4b70f30260801c5b610800821615612f5e576fe7159475a2c29b7443b29c7fa6e889d90260801c5b611000821615612f7e576fd097f3bdfd2022b8845ad8f792aa58250260801c5b612000821615612f9e576fa9f746462d870fdf8a65dc1f90e061e50260801c5b614000821615612fbe576f70d869a156d2a1b890bb3df62baf32f70260801c5b618000821615612fde576f31be135f97d08fd981231505542fcfa60260801c5b62010000821615612fff576f09aa508b5b7a84e1c677de54f3e99bc90260801c5b6202000082161561301f576e5d6af8dedb81196699c329225ee6040260801c5b6204000082161561303e576d2216e584f5fa1ea926041bedfe980260801c5b6208000082161561305b576b048a170391f7dc42444e8fa20260801c5b60008460020b131561307657806000198161307257fe5b0490505b64010000000081061561308a57600161308d565b60005b60ff16602082901c0192505050919050565b60008060006130af86868661231e565b90039695505050505050565b600080836001600160a01b0316856001600160a01b031611156130dc579293925b846001600160a01b0316866001600160a01b031611613107576131008585856133f7565b915061314e565b836001600160a01b0316866001600160a01b031610156131405761312c8685856133f7565b9150613139858785613460565b905061314e565b61314b858585613460565b90505b94509492505050565b80516a636f6e736f6c652e6c6f67602083016000808483855afa5050505050565b61318061357a565b6000806000856001600160a01b031663f30dba93866040518263ffffffff1660e01b81526004016131b191906141bb565b6101006040518083038186803b1580156131ca57600080fd5b505afa1580156131de573d6000803e3d6000fd5b505050506040513d601f19601f820116820180604052508101906132029190613a8f565b97505050509450945050508061322a5760405162461bcd60e51b815260040161041690614201565b506040805180820190915291825260208201529392505050565b6000806000808860020b8760020b12613265575050885160208a0151613275565b5050885160208a01519085039084035b6000808960020b8960020b1215613294575050895160208b01516132a4565b5050895160208b01519087039086035b92909603959095039a949093039290920397509195505050505050565b600080600087604001518511156132f5578760400151850388600001518803670de0b6b3a764000002816132f157fe5b0491505b8760600151841115613324578760600151840388602001518703670de0b6b3a7640000028161332057fe5b0490505b671bc16d674ec80000910188020490505b9695505050505050565b60008261334e57506000610463565b8282028284828161335b57fe5b04146114615760405162461bcd60e51b81526004018080602001828103825260218152602001806146a46021913960400191505060405180910390fd5b60008082116133ee576040805162461bcd60e51b815260206004820152601a60248201527f536166654d6174683a206469766973696f6e206279207a65726f000000000000604482015290519081900360640190fd5b8183816128db57fe5b6000826001600160a01b0316846001600160a01b03161115613417579192915b836001600160a01b0316613450606060ff16846001600160801b0316901b8686036001600160a01b0316866001600160a01b0316611b43565b8161345757fe5b04949350505050565b6000826001600160a01b0316846001600160a01b03161115613480579192915b611938826001600160801b03168585036001600160a01b0316600160601b611b43565b60405180610120016040528060008152602001600060020b8152602001600060020b815260200160006001600160801b0316815260200160008152602001600081526020016000815260200160008152602001600081525090565b6040518060c001604052806000815260200160006001600160a01b03168152602001600015158152602001613531613594565b815260200161353e613594565b8152602001606081525090565b6040518060a0016040528060008152602001600081526020016000815260200160008152602001606081525090565b604051806040016040528060008152602001600081525090565b60405180606001604052806000815260200160008152602001600081525090565b80516103ac8161464f565b600082601f8301126135d0578081fd5b815160206135e56135e083614625565b614601565b82815281810190858301608080860288018501891015613603578687fd5b865b868110156136955781838b03121561361b578788fd5b6040805183810181811067ffffffffffffffff8211171561363857fe5b8252845161364581614664565b8152848801516136548161468e565b81890152848201516136658161467f565b808383015250606091508185015161367c8161467f565b9181019190915285529385019391810191600101613605565b509198975050505050505050565b600082601f8301126136b3578081fd5b813560206136c36135e083614625565b8281528181019085830160e0808602880185018910156136e1578687fd5b865b868110156136955781838b0312156136f9578788fd5b6040805183810181811067ffffffffffffffff8211171561371657fe5b8252613721856137a6565b815261372e888601613790565b8882015261373d828601613831565b82820152606091506137508286016137bc565b82820152608091506137638286016137bc565b9181019190915260a0848101359082015260c08085013590820152855293850193918101916001016136e3565b80356103ac81614664565b80516103ac81614664565b80356103ac81614672565b80516103ac81614672565b80356103ac8161467f565b80516103ac8161467f565b6000608082840312156137e3578081fd5b6040516080810181811067ffffffffffffffff8211171561380057fe5b8060405250809150823581526020830135602082015260408301356040820152606083013560608201525092915050565b80356103ac8161468e565b80516103ac8161468e565b805161ffff811681146103ac57600080fd5b805162ffffff811681146103ac57600080fd5b60006020828403121561387d578081fd5b81356114618161464f565b6000602080838503121561389a578182fd5b823567ffffffffffffffff808211156138b1578384fd5b8185019150601f86818401126138c5578485fd5b82356138d36135e082614625565b81815285810190858701885b8481101561395157813588018c603f8201126138f9578a8bfd5b8981013560408982111561390957fe5b61391a828a01601f19168d01614601565b8281528f8284860101111561392d578d8efd5b828285018e8301379182018c018d90525085525092880192908801906001016138df565b50909a9950505050505050505050565b600060208284031215613972578081fd5b5035919050565b6000806040838503121561398b578081fd5b505080516020909101519092909150565b6000608082840312156139ad578081fd5b61146183836137d2565b60008061010083850312156139ca578182fd5b6139d484846137d2565b91506139e384608085016137d2565b90509250929050565b6000602082840312156139fd578081fd5b815167ffffffffffffffff80821115613a14578283fd5b9083019060a08286031215613a27578283fd5b60405160a081018181108382111715613a3c57fe5b806040525082518152602083015160208201526040830151604082015260608301516060820152608083015182811115613a74578485fd5b613a80878286016135c0565b60808301525095945050505050565b600080600080600080600080610100898b031215613aab578384fd5b8851613ab68161468e565b80985050602089015180600f0b8114613acd578485fd5b80975050604089015195506060890151945060808901518060060b8114613af2578485fd5b60a08a0151909450613b038161464f565b60c08a015190935063ffffffff81168114613b1c578283fd5b9150613b2a60e08a0161379b565b90509295985092959890939650565b600080600080600080600060e0888a031215613b53578081fd5b8751613b5e8161464f565b6020890151909750613b6f8161467f565b9550613b7d60408901613847565b9450613b8b60608901613847565b9350613b9960808901613847565b925060a088015160ff81168114613bae578182fd5b60c0890151909250613bbf81614664565b8091505092959891949750929550565b60008060408385031215613be1578182fd5b8251613bec8161464f565b6020939093015192949293505050565b600060208284031215613c0d578081fd5b5051919050565b60008060408385031215613c26578182fd5b82359150602083013567ffffffffffffffff811115613c43578182fd5b613c4f858286016136a3565b9150509250929050565b6000806040808486031215613c6c578283fd5b8351925060208085015167ffffffffffffffff80821115613c8b578485fd5b818701915087601f830112613c9e578485fd5b8151613cac6135e082614625565b8181528481019084860160e0808502870188018d1015613cca57898afd5b8996505b84871015613d6e5780828e031215613ce457898afd5b88518181018181108882111715613cf757fe5b8a52613d02836137b1565b8152613d0f89840161379b565b89820152613d1e8a840161383c565b8a8201526060613d2f8185016137c7565b908201526080613d408482016137c7565b9082015260a0838101519082015260c080840151908201528452600196909601959287019290810190613cce565b50989b909a5098505050505050505050565b60008060008060808587031215613d95578182fd5b84359350602085013567ffffffffffffffff811115613db2578283fd5b613dbe878288016136a3565b949794965050505060408301359260600135919050565b6000806000806000806000806000806000806101808d8f031215613df7578586fd5b8c516bffffffffffffffffffffffff81168114613e12578687fd5b9b50613e2060208e016135b5565b9a50613e2e60408e016135b5565b9950613e3c60608e016135b5565b9850613e4a60808e01613859565b9750613e5860a08e016137c7565b9650613e6660c08e016137c7565b9550613e7460e08e0161383c565b94506101008d015193506101208d01519250613e936101408e0161383c565b9150613ea26101608e0161383c565b90509295989b509295989b509295989b565b6001600160a01b03169052565b15159052565b60020b9052565b8051825260208082015190830152604090810151910152565b613efa82613ef58354614643565b613eb4565b60018101546001600160a01b03613f1660208501828416613eb4565b613f2b6040850162ffffff8460a01c166140f0565b613f386002840154614643565b9150613f476060850183613eb4565b613f546003840154614643565b9150613f636080850183613eb4565b60048301549150613f7960a08501828416613eb4565b50613f8d60c0840160ff8360a01c16613ec1565b50613f9e60e083016005830161401a565b61077161016083016009830161401a565b805115158252602081015160208301526001600160801b036040820151166040830152606081015160608301526080810151608083015260a081015160a08301525050565b805182526020810151602083015260408101516040830152606081015160608301525050565b80548252600181015460208301526002810154604083015260030154606090910152565b600061014080840183518552602060018060a01b03818601511681870152604085015115156040870152606085015161407a6060880182613ece565b50608085015160c061408e81890183613ece565b60a08701516101208901959095528451938490526101608801948301938692505b808310156140d6576140c2868651613faf565b9481019493830193600192909201916140af565b5093979650505050505050565b6001600160801b03169052565b62ffffff169052565b600292830b60e890811b82529190920b901b600382015260060190565b6001600160a01b0391909116815260200190565b6001600160a01b038a81168252898116602083015262ffffff8916604083015287811660608301528681166080830152851660a082015283151560c08201526101e0810161417b60e0830185613ff4565b614189610160830184613ff4565b9a9950505050505050505050565b901515815260200190565b6001600160a01b03929092168252602082015260400190565b60029190910b815260200190565b602080825260029082015261140d60f21b604082015260600190565b602080825260029082015261503360f01b604082015260600190565b6020808252600b908201526a1a5b9a5d1a585b1a5e995960aa1b604082015260600190565b602080825260029082015261503560f01b604082015260600190565b602080825260029082015261281b60f11b604082015260600190565b60208082526017908201527f63616c6c6572206d757374206265206f70657261746f72000000000000000000604082015260600190565b602080825260029082015261281960f11b604082015260600190565b60006101208201905082518252602083015160020b6020830152604083015160020b604083015260608301516142ea60608401826140e3565b506080830151608083015260a083015160a083015260c083015160c083015260e083015160e083015261010080840151818401525092915050565b6000602080835260c083018451828501528185015160408181870152808701519150606082818801528088015192506080838189015280890151935060a08089015284845180875260e08a01915087860196508895505b808610156143c8578651805115158352888101516001600160801b03168984015285810151600290810b8785015290850151900b8483015295870195600195909501949082019061437c565b509998505050505050505050565b60006020808352610160830184518285015260018060a01b038286015116604085015260408501511515606085015260608501516144176080860182613ece565b50608085015161442a60e0860182613ece565b5060a08501516101408581015280519182905282019083906101808601905b808310156144725761445c828551613faf565b60c0820191508484019350600183019250614449565b509695505050505050565b60006102208083526144918184018761403e565b9150508360208301526119386040830184613ee7565b60006102408083526144bb8184018861403e565b9150508460208301526144d16040830185613ee7565b6001600160a01b039290921661022091909101529392505050565b600060a080830188845260208881860152604088818701526060848188015283895180865260c095508589019150848b01885b828110156145985781518051600a811061453557fe5b855280880151151588860152868101516001600160801b0316878601528581015161456287870182613ec7565b5060808082015161457582880182613ec7565b5050808a0151858b01528801518885015260e0909301929086019060010161451f565b5050508096505050505050506133356080830184613ec1565b90815260200190565b8581526001600160a01b0385166020820152831515604082015261012081016145e66060830185613ece565b61333560c0830184613ece565b918252602082015260400190565b60405181810167ffffffffffffffff8111828210171561461d57fe5b604052919050565b600067ffffffffffffffff82111561463957fe5b5060209081020190565b6001600160a01b031690565b6001600160a01b038116811461250f57600080fd5b801515811461250f57600080fd5b600a811061250f57600080fd5b8060020b811461250f57600080fd5b6001600160801b038116811461250f57600080fdfe536166654d6174683a206d756c7469706c69636174696f6e206f766572666c6f775369676e6564536166654d6174683a207375627472616374696f6e206f766572666c6f77a26469706673582212204606febc0085e9aafaee276a96b0fd9a7cc7cf054152898914dcd66734c293e464736f6c63430007060033",
  "libraries": {
    "LPTMath": "0x59969c45E5f03C613cC58A85Cb149dDE2E39297d",
    "PositionUpdater": "0x70a78990d223cA6d214A63bB96D6D5d664ac2F4E",
    "VaultLib": "0x33237217b284d551a483D8471ACe538c807A23d8"
  },
  "devdoc": {
    "kind": "dev",
    "methods": {
      "checkLiquidatable(uint256)": {
        "params": {
          "_vaultId": "vault id"
        }
      },
      "forceClose(bytes[])": {
        "params": {
          "_data": "vaults data to close position"
        }
      },
      "getVaultStatus(uint256)": {
        "params": {
          "_vaultId": "vault id"
        }
      },
      "liquidate(uint256,(uint8,bool,uint128,int24,int24,uint256,uint256)[])": {
        "params": {
          "_positionUpdates": "parameters to update position",
          "_vaultId": "vault id"
        }
      },
      "updatePosition(uint256,(uint8,bool,uint128,int24,int24,uint256,uint256)[],uint256,uint256)": {
        "params": {
          "_buffer0": "max amount of token0 to send",
          "_buffer1": "max amount of token1 to send",
          "_positionUpdates": "parameters to update position",
          "_vaultId": "vault id"
        }
      }
    },
    "version": 1
  },
  "userdoc": {
    "kind": "user",
    "methods": {
      "checkLiquidatable(uint256)": {
        "notice": "Returns the flag whether a vault can be liquidated or not."
      },
      "forceClose(bytes[])": {
        "notice": "Contract owner can close positions"
      },
      "getPrice()": {
        "notice": "Gets current price of underlying token by margin token."
      },
      "getTWAP()": {
        "notice": "Gets Time Weighted Average Price of underlying token by margin token."
      },
      "getVaultStatus(uint256)": {
        "notice": "Returns collateral value and debt value."
      },
      "liquidate(uint256,(uint8,bool,uint128,int24,int24,uint256,uint256)[])": {
        "notice": "Anyone can liquidates the vault if its required collateral value is positive."
      },
      "updatePosition(uint256,(uint8,bool,uint128,int24,int24,uint256,uint256)[],uint256,uint256)": {
        "notice": "Update position in a vault."
      }
    },
    "notice": "Error Codes P1: caller must be vault owner P2: caller must be vault owner P3: must not be liquidatable P4: must be liquidatable P5: no enough token0 P6: no enough token1",
    "version": 1
  },
  "storageLayout": {
    "storage": [
      {
        "astId": 9065,
        "contract": "src/Controller.sol:Controller",
        "label": "_initialized",
        "offset": 0,
        "slot": "0",
        "type": "t_bool"
      },
      {
        "astId": 9068,
        "contract": "src/Controller.sol:Controller",
        "label": "_initializing",
        "offset": 1,
        "slot": "0",
        "type": "t_bool"
      },
      {
        "astId": 12456,
        "contract": "src/Controller.sol:Controller",
        "label": "lastTouchedTimestamp",
        "offset": 0,
        "slot": "1",
        "type": "t_uint256"
      },
      {
        "astId": 12460,
        "contract": "src/Controller.sol:Controller",
        "label": "ranges",
        "offset": 0,
        "slot": "2",
        "type": "t_mapping(t_bytes32,t_struct(PerpStatus)14468_storage)"
      },
      {
        "astId": 12462,
        "contract": "src/Controller.sol:Controller",
        "label": "vaultIdCount",
        "offset": 0,
        "slot": "3",
        "type": "t_uint256"
      },
      {
        "astId": 12466,
        "contract": "src/Controller.sol:Controller",
        "label": "vaults",
        "offset": 0,
        "slot": "4",
        "type": "t_mapping(t_uint256,t_struct(Vault)14495_storage)"
      },
      {
        "astId": 12468,
        "contract": "src/Controller.sol:Controller",
        "label": "context",
        "offset": 0,
        "slot": "5",
        "type": "t_struct(Context)14514_storage"
      },
      {
        "astId": 12470,
        "contract": "src/Controller.sol:Controller",
        "label": "irmParams",
        "offset": 0,
        "slot": "18",
        "type": "t_struct(IRMParams)14631_storage"
      },
      {
        "astId": 12472,
        "contract": "src/Controller.sol:Controller",
        "label": "dpmParams",
        "offset": 0,
        "slot": "22",
        "type": "t_struct(DPMParams)14622_storage"
      },
      {
        "astId": 12474,
        "contract": "src/Controller.sol:Controller",
        "label": "operator",
        "offset": 0,
        "slot": "31",
        "type": "t_address"
      }
    ],
    "types": {
      "t_address": {
        "encoding": "inplace",
        "label": "address",
        "numberOfBytes": "20"
      },
      "t_array(t_struct(LPTState)14481_storage)dyn_storage": {
        "base": "t_struct(LPTState)14481_storage",
        "encoding": "dynamic_array",
        "label": "struct DataType.LPTState[]",
        "numberOfBytes": "32"
      },
      "t_bool": {
        "encoding": "inplace",
        "label": "bool",
        "numberOfBytes": "1"
      },
      "t_bytes32": {
        "encoding": "inplace",
        "label": "bytes32",
        "numberOfBytes": "32"
      },
      "t_int24": {
        "encoding": "inplace",
        "label": "int24",
        "numberOfBytes": "3"
      },
      "t_mapping(t_bytes32,t_struct(PerpStatus)14468_storage)": {
        "encoding": "mapping",
        "key": "t_bytes32",
        "label": "mapping(bytes32 => struct DataType.PerpStatus)",
        "numberOfBytes": "32",
        "value": "t_struct(PerpStatus)14468_storage"
      },
      "t_mapping(t_bytes32,t_struct(TickSnapshot)14608_storage)": {
        "encoding": "mapping",
        "key": "t_bytes32",
        "label": "mapping(bytes32 => struct InterestCalculator.TickSnapshot)",
        "numberOfBytes": "32",
        "value": "t_struct(TickSnapshot)14608_storage"
      },
      "t_mapping(t_uint256,t_struct(Vault)14495_storage)": {
        "encoding": "mapping",
        "key": "t_uint256",
        "label": "mapping(uint256 => struct DataType.Vault)",
        "numberOfBytes": "32",
        "value": "t_struct(Vault)14495_storage"
      },
      "t_struct(AccountState)14044_storage": {
        "encoding": "inplace",
        "label": "struct BaseToken.AccountState",
        "members": [
          {
            "astId": 14039,
            "contract": "src/Controller.sol:Controller",
            "label": "collateralAmountNotInMarket",
            "offset": 0,
            "slot": "0",
            "type": "t_uint256"
          },
          {
            "astId": 14041,
            "contract": "src/Controller.sol:Controller",
            "label": "collateralAmount",
            "offset": 0,
            "slot": "1",
            "type": "t_uint256"
          },
          {
            "astId": 14043,
            "contract": "src/Controller.sol:Controller",
            "label": "debtAmount",
            "offset": 0,
            "slot": "2",
            "type": "t_uint256"
          }
        ],
        "numberOfBytes": "96"
      },
      "t_struct(Context)14514_storage": {
        "encoding": "inplace",
        "label": "struct DataType.Context",
        "members": [
          {
            "astId": 14497,
            "contract": "src/Controller.sol:Controller",
            "label": "token0",
            "offset": 0,
            "slot": "0",
            "type": "t_address"
          },
          {
            "astId": 14499,
            "contract": "src/Controller.sol:Controller",
            "label": "token1",
            "offset": 0,
            "slot": "1",
            "type": "t_address"
          },
          {
            "astId": 14501,
            "contract": "src/Controller.sol:Controller",
            "label": "feeTier",
            "offset": 20,
            "slot": "1",
            "type": "t_uint24"
          },
          {
            "astId": 14503,
            "contract": "src/Controller.sol:Controller",
            "label": "positionManager",
            "offset": 0,
            "slot": "2",
            "type": "t_address"
          },
          {
            "astId": 14505,
            "contract": "src/Controller.sol:Controller",
            "label": "swapRouter",
            "offset": 0,
            "slot": "3",
            "type": "t_address"
          },
          {
            "astId": 14507,
            "contract": "src/Controller.sol:Controller",
            "label": "uniswapPool",
            "offset": 0,
            "slot": "4",
            "type": "t_address"
          },
          {
            "astId": 14509,
            "contract": "src/Controller.sol:Controller",
            "label": "isMarginZero",
            "offset": 20,
            "slot": "4",
            "type": "t_bool"
          },
          {
            "astId": 14511,
            "contract": "src/Controller.sol:Controller",
            "label": "tokenState0",
            "offset": 0,
            "slot": "5",
            "type": "t_struct(TokenState)14037_storage"
          },
          {
            "astId": 14513,
            "contract": "src/Controller.sol:Controller",
            "label": "tokenState1",
            "offset": 0,
            "slot": "9",
            "type": "t_struct(TokenState)14037_storage"
          }
        ],
        "numberOfBytes": "416"
      },
      "t_struct(DPMParams)14622_storage": {
        "encoding": "inplace",
        "label": "struct InterestCalculator.DPMParams",
        "members": [
          {
            "astId": 14615,
            "contract": "src/Controller.sol:Controller",
            "label": "premiumParams",
            "offset": 0,
            "slot": "0",
            "type": "t_struct(IRMParams)14631_storage"
          },
          {
            "astId": 14617,
            "contract": "src/Controller.sol:Controller",
            "label": "irmParams",
            "offset": 0,
            "slot": "4",
            "type": "t_struct(IRMParams)14631_storage"
          },
          {
            "astId": 14621,
            "contract": "src/Controller.sol:Controller",
            "label": "snapshots",
            "offset": 0,
            "slot": "8",
            "type": "t_mapping(t_bytes32,t_struct(TickSnapshot)14608_storage)"
          }
        ],
        "numberOfBytes": "288"
      },
      "t_struct(IRMParams)14631_storage": {
        "encoding": "inplace",
        "label": "struct InterestCalculator.IRMParams",
        "members": [
          {
            "astId": 14624,
            "contract": "src/Controller.sol:Controller",
            "label": "baseRate",
            "offset": 0,
            "slot": "0",
            "type": "t_uint256"
          },
          {
            "astId": 14626,
            "contract": "src/Controller.sol:Controller",
            "label": "kinkRate",
            "offset": 0,
            "slot": "1",
            "type": "t_uint256"
          },
          {
            "astId": 14628,
            "contract": "src/Controller.sol:Controller",
            "label": "slope1",
            "offset": 0,
            "slot": "2",
            "type": "t_uint256"
          },
          {
            "astId": 14630,
            "contract": "src/Controller.sol:Controller",
            "label": "slope2",
            "offset": 0,
            "slot": "3",
            "type": "t_uint256"
          }
        ],
        "numberOfBytes": "128"
      },
      "t_struct(LPTState)14481_storage": {
        "encoding": "inplace",
        "label": "struct DataType.LPTState",
        "members": [
          {
            "astId": 14470,
            "contract": "src/Controller.sol:Controller",
            "label": "isCollateral",
            "offset": 0,
            "slot": "0",
            "type": "t_bool"
          },
          {
            "astId": 14472,
            "contract": "src/Controller.sol:Controller",
            "label": "rangeId",
            "offset": 0,
            "slot": "1",
            "type": "t_bytes32"
          },
          {
            "astId": 14474,
            "contract": "src/Controller.sol:Controller",
            "label": "liquidityAmount",
            "offset": 0,
            "slot": "2",
            "type": "t_uint128"
          },
          {
            "astId": 14476,
            "contract": "src/Controller.sol:Controller",
            "label": "premiumGrowthLast",
            "offset": 0,
            "slot": "3",
            "type": "t_uint256"
          },
          {
            "astId": 14478,
            "contract": "src/Controller.sol:Controller",
            "label": "fee0Last",
            "offset": 0,
            "slot": "4",
            "type": "t_uint256"
          },
          {
            "astId": 14480,
            "contract": "src/Controller.sol:Controller",
            "label": "fee1Last",
            "offset": 0,
            "slot": "5",
            "type": "t_uint256"
          }
        ],
        "numberOfBytes": "192"
      },
      "t_struct(PerpStatus)14468_storage": {
        "encoding": "inplace",
        "label": "struct DataType.PerpStatus",
        "members": [
          {
            "astId": 14451,
            "contract": "src/Controller.sol:Controller",
            "label": "tokenId",
            "offset": 0,
            "slot": "0",
            "type": "t_uint256"
          },
          {
            "astId": 14453,
            "contract": "src/Controller.sol:Controller",
            "label": "lowerTick",
            "offset": 0,
            "slot": "1",
            "type": "t_int24"
          },
          {
            "astId": 14455,
            "contract": "src/Controller.sol:Controller",
            "label": "upperTick",
            "offset": 3,
            "slot": "1",
            "type": "t_int24"
          },
          {
            "astId": 14457,
            "contract": "src/Controller.sol:Controller",
            "label": "borrowedLiquidity",
            "offset": 6,
            "slot": "1",
            "type": "t_uint128"
          },
          {
            "astId": 14459,
            "contract": "src/Controller.sol:Controller",
            "label": "premiumGrowthForBorrower",
            "offset": 0,
            "slot": "2",
            "type": "t_uint256"
          },
          {
            "astId": 14461,
            "contract": "src/Controller.sol:Controller",
            "label": "premiumGrowthForLender",
            "offset": 0,
            "slot": "3",
            "type": "t_uint256"
          },
          {
            "astId": 14463,
            "contract": "src/Controller.sol:Controller",
            "label": "fee0Growth",
            "offset": 0,
            "slot": "4",
            "type": "t_uint256"
          },
          {
            "astId": 14465,
            "contract": "src/Controller.sol:Controller",
            "label": "fee1Growth",
            "offset": 0,
            "slot": "5",
            "type": "t_uint256"
          },
          {
            "astId": 14467,
            "contract": "src/Controller.sol:Controller",
            "label": "lastTouchedTimestamp",
            "offset": 0,
            "slot": "6",
            "type": "t_uint256"
          }
        ],
        "numberOfBytes": "224"
      },
      "t_struct(TickSnapshot)14608_storage": {
        "encoding": "inplace",
        "label": "struct InterestCalculator.TickSnapshot",
        "members": [
          {
            "astId": 14601,
            "contract": "src/Controller.sol:Controller",
            "label": "lastFeeGrowthInside0X128",
            "offset": 0,
            "slot": "0",
            "type": "t_uint256"
          },
          {
            "astId": 14603,
            "contract": "src/Controller.sol:Controller",
            "label": "lastFeeGrowthInside1X128",
            "offset": 0,
            "slot": "1",
            "type": "t_uint256"
          },
          {
            "astId": 14605,
            "contract": "src/Controller.sol:Controller",
            "label": "lastFeeGrowthGlobal0X128",
            "offset": 0,
            "slot": "2",
            "type": "t_uint256"
          },
          {
            "astId": 14607,
            "contract": "src/Controller.sol:Controller",
            "label": "lastFeeGrowthGlobal1X128",
            "offset": 0,
            "slot": "3",
            "type": "t_uint256"
          }
        ],
        "numberOfBytes": "128"
      },
      "t_struct(TokenState)14037_storage": {
        "encoding": "inplace",
        "label": "struct BaseToken.TokenState",
        "members": [
          {
            "astId": 14030,
            "contract": "src/Controller.sol:Controller",
            "label": "totalDeposited",
            "offset": 0,
            "slot": "0",
            "type": "t_uint256"
          },
          {
            "astId": 14032,
            "contract": "src/Controller.sol:Controller",
            "label": "totalBorrowed",
            "offset": 0,
            "slot": "1",
            "type": "t_uint256"
          },
          {
            "astId": 14034,
            "contract": "src/Controller.sol:Controller",
            "label": "collateralScaler",
            "offset": 0,
            "slot": "2",
            "type": "t_uint256"
          },
          {
            "astId": 14036,
            "contract": "src/Controller.sol:Controller",
            "label": "debtScaler",
            "offset": 0,
            "slot": "3",
            "type": "t_uint256"
          }
        ],
        "numberOfBytes": "128"
      },
      "t_struct(Vault)14495_storage": {
        "encoding": "inplace",
        "label": "struct DataType.Vault",
        "members": [
          {
            "astId": 14483,
            "contract": "src/Controller.sol:Controller",
            "label": "vaultId",
            "offset": 0,
            "slot": "0",
            "type": "t_uint256"
          },
          {
            "astId": 14485,
            "contract": "src/Controller.sol:Controller",
            "label": "owner",
            "offset": 0,
            "slot": "1",
            "type": "t_address"
          },
          {
            "astId": 14487,
            "contract": "src/Controller.sol:Controller",
            "label": "isClosed",
            "offset": 20,
            "slot": "1",
            "type": "t_bool"
          },
          {
            "astId": 14489,
            "contract": "src/Controller.sol:Controller",
            "label": "balance0",
            "offset": 0,
            "slot": "2",
            "type": "t_struct(AccountState)14044_storage"
          },
          {
            "astId": 14491,
            "contract": "src/Controller.sol:Controller",
            "label": "balance1",
            "offset": 0,
            "slot": "5",
            "type": "t_struct(AccountState)14044_storage"
          },
          {
            "astId": 14494,
            "contract": "src/Controller.sol:Controller",
            "label": "lpts",
            "offset": 0,
            "slot": "8",
            "type": "t_array(t_struct(LPTState)14481_storage)dyn_storage"
          }
        ],
        "numberOfBytes": "288"
      },
      "t_uint128": {
        "encoding": "inplace",
        "label": "uint128",
        "numberOfBytes": "16"
      },
      "t_uint24": {
        "encoding": "inplace",
        "label": "uint24",
        "numberOfBytes": "3"
      },
      "t_uint256": {
        "encoding": "inplace",
        "label": "uint256",
        "numberOfBytes": "32"
      }
    }
  }
}