{
  "address": "0x8CFa357Bca040eaA80321c8a33415cDAB072ceDa",
  "abi": [
    {
      "inputs": [],
      "stateMutability": "nonpayable",
      "type": "constructor"
    },
    {
      "anonymous": false,
      "inputs": [
        {
          "indexed": false,
          "internalType": "uint256",
          "name": "vaultId",
          "type": "uint256"
        },
        {
          "indexed": false,
          "internalType": "int256",
          "name": "a0",
          "type": "int256"
        },
        {
          "indexed": false,
          "internalType": "int256",
          "name": "a1",
          "type": "int256"
        },
        {
          "indexed": false,
          "internalType": "uint160",
          "name": "sqrtPrice",
          "type": "uint160"
        },
        {
          "indexed": false,
          "internalType": "bytes",
          "name": "metadata",
          "type": "bytes"
        }
      ],
      "name": "PositionUpdated",
      "type": "event"
    },
    {
      "anonymous": false,
      "inputs": [
        {
          "indexed": false,
          "internalType": "uint256",
          "name": "vaultId",
          "type": "uint256"
        },
        {
          "indexed": false,
          "internalType": "address",
          "name": "owner",
          "type": "address"
        }
      ],
      "name": "VaultCreated",
      "type": "event"
    },
    {
      "inputs": [
        {
          "components": [
            {
              "internalType": "uint256",
              "name": "collateral0",
              "type": "uint256"
            },
            {
              "internalType": "uint256",
              "name": "collateral1",
              "type": "uint256"
            },
            {
              "internalType": "uint256",
              "name": "debt0",
              "type": "uint256"
            },
            {
              "internalType": "uint256",
              "name": "debt1",
              "type": "uint256"
            },
            {
              "components": [
                {
                  "internalType": "bool",
                  "name": "isCollateral",
                  "type": "bool"
                },
                {
                  "internalType": "uint128",
                  "name": "liquidity",
                  "type": "uint128"
                },
                {
                  "internalType": "int24",
                  "name": "lowerTick",
                  "type": "int24"
                },
                {
                  "internalType": "int24",
                  "name": "upperTick",
                  "type": "int24"
                }
              ],
              "internalType": "struct DataType.LPT[]",
              "name": "lpts",
              "type": "tuple[]"
            }
          ],
          "internalType": "struct DataType.Position",
          "name": "_position",
          "type": "tuple"
        }
      ],
      "name": "calculateRequiredCollateral",
      "outputs": [
        {
          "internalType": "int256",
          "name": "",
          "type": "int256"
        }
      ],
      "stateMutability": "view",
      "type": "function"
    },
    {
      "inputs": [
        {
          "internalType": "bytes32",
          "name": "_rangeId",
          "type": "bytes32"
        }
      ],
      "name": "calculateYearlyPremium",
      "outputs": [
        {
          "internalType": "uint256",
          "name": "",
          "type": "uint256"
        }
      ],
      "stateMutability": "view",
      "type": "function"
    },
    {
      "inputs": [
        {
          "internalType": "uint256",
          "name": "_vaultId",
          "type": "uint256"
        }
      ],
      "name": "checkLiquidatable",
      "outputs": [
        {
          "internalType": "bool",
          "name": "",
          "type": "bool"
        }
      ],
      "stateMutability": "nonpayable",
      "type": "function"
    },
    {
      "inputs": [
        {
          "internalType": "uint256",
          "name": "_vaultId",
          "type": "uint256"
        },
        {
          "components": [
            {
              "internalType": "bool",
              "name": "reduceOnly",
              "type": "bool"
            },
            {
              "internalType": "bool",
              "name": "swapAnyway",
              "type": "bool"
            },
            {
              "internalType": "bool",
              "name": "quoterMode",
              "type": "bool"
            },
            {
              "internalType": "bool",
              "name": "isQuoteZero",
              "type": "bool"
            }
          ],
          "internalType": "struct DataType.TradeOption",
          "name": "_tradeOption",
          "type": "tuple"
        },
        {
          "components": [
            {
              "internalType": "uint256",
              "name": "price",
              "type": "uint256"
            },
            {
              "internalType": "uint256",
              "name": "slippageTorelance",
              "type": "uint256"
            },
            {
              "internalType": "uint256",
              "name": "swapRatio",
              "type": "uint256"
            },
            {
              "internalType": "bytes",
              "name": "metadata",
              "type": "bytes"
            }
          ],
          "internalType": "struct DataType.ClosePositionOption",
          "name": "_closePositionOptions",
          "type": "tuple"
        }
      ],
      "name": "closePosition",
      "outputs": [
        {
          "internalType": "uint256",
          "name": "vaultId",
          "type": "uint256"
        }
      ],
      "stateMutability": "nonpayable",
      "type": "function"
    },
    {
      "inputs": [],
      "name": "context",
      "outputs": [
        {
          "internalType": "address",
          "name": "token0",
          "type": "address"
        },
        {
          "internalType": "address",
          "name": "token1",
          "type": "address"
        },
        {
          "internalType": "uint24",
          "name": "feeTier",
          "type": "uint24"
        },
        {
          "internalType": "address",
          "name": "positionManager",
          "type": "address"
        },
        {
          "internalType": "address",
          "name": "swapRouter",
          "type": "address"
        },
        {
          "internalType": "address",
          "name": "uniswapPool",
          "type": "address"
        },
        {
          "internalType": "bool",
          "name": "isMarginZero",
          "type": "bool"
        },
        {
          "components": [
            {
              "internalType": "uint256",
              "name": "totalDeposited",
              "type": "uint256"
            },
            {
              "internalType": "uint256",
              "name": "totalBorrowed",
              "type": "uint256"
            },
            {
              "internalType": "uint256",
              "name": "collateralScaler",
              "type": "uint256"
            },
            {
              "internalType": "uint256",
              "name": "debtScaler",
              "type": "uint256"
            }
          ],
          "internalType": "struct BaseToken.TokenState",
          "name": "tokenState0",
          "type": "tuple"
        },
        {
          "components": [
            {
              "internalType": "uint256",
              "name": "totalDeposited",
              "type": "uint256"
            },
            {
              "internalType": "uint256",
              "name": "totalBorrowed",
              "type": "uint256"
            },
            {
              "internalType": "uint256",
              "name": "collateralScaler",
              "type": "uint256"
            },
            {
              "internalType": "uint256",
              "name": "debtScaler",
              "type": "uint256"
            }
          ],
          "internalType": "struct BaseToken.TokenState",
          "name": "tokenState1",
          "type": "tuple"
        }
      ],
      "stateMutability": "view",
      "type": "function"
    },
    {
      "inputs": [
        {
          "internalType": "bytes[]",
          "name": "_data",
          "type": "bytes[]"
        }
      ],
      "name": "forceClose",
      "outputs": [],
      "stateMutability": "nonpayable",
      "type": "function"
    },
    {
      "inputs": [],
      "name": "getCurrentTick",
      "outputs": [
        {
          "internalType": "int24",
          "name": "tick",
          "type": "int24"
        }
      ],
      "stateMutability": "view",
      "type": "function"
    },
    {
      "inputs": [],
      "name": "getIsMarginZero",
      "outputs": [
        {
          "internalType": "bool",
          "name": "",
          "type": "bool"
        }
      ],
      "stateMutability": "view",
      "type": "function"
    },
    {
      "inputs": [
        {
          "internalType": "uint256",
          "name": "_vaultId",
          "type": "uint256"
        }
      ],
      "name": "getPosition",
      "outputs": [
        {
          "components": [
            {
              "internalType": "uint256",
              "name": "collateral0",
              "type": "uint256"
            },
            {
              "internalType": "uint256",
              "name": "collateral1",
              "type": "uint256"
            },
            {
              "internalType": "uint256",
              "name": "debt0",
              "type": "uint256"
            },
            {
              "internalType": "uint256",
              "name": "debt1",
              "type": "uint256"
            },
            {
              "components": [
                {
                  "internalType": "bool",
                  "name": "isCollateral",
                  "type": "bool"
                },
                {
                  "internalType": "uint128",
                  "name": "liquidity",
                  "type": "uint128"
                },
                {
                  "internalType": "int24",
                  "name": "lowerTick",
                  "type": "int24"
                },
                {
                  "internalType": "int24",
                  "name": "upperTick",
                  "type": "int24"
                }
              ],
              "internalType": "struct DataType.LPT[]",
              "name": "lpts",
              "type": "tuple[]"
            }
          ],
          "internalType": "struct DataType.Position",
          "name": "position",
          "type": "tuple"
        }
      ],
      "stateMutability": "nonpayable",
      "type": "function"
    },
    {
      "inputs": [
        {
          "components": [
            {
              "internalType": "uint256",
              "name": "collateral0",
              "type": "uint256"
            },
            {
              "internalType": "uint256",
              "name": "collateral1",
              "type": "uint256"
            },
            {
              "internalType": "uint256",
              "name": "debt0",
              "type": "uint256"
            },
            {
              "internalType": "uint256",
              "name": "debt1",
              "type": "uint256"
            },
            {
              "components": [
                {
                  "internalType": "bool",
                  "name": "isCollateral",
                  "type": "bool"
                },
                {
                  "internalType": "uint128",
                  "name": "liquidity",
                  "type": "uint128"
                },
                {
                  "internalType": "int24",
                  "name": "lowerTick",
                  "type": "int24"
                },
                {
                  "internalType": "int24",
                  "name": "upperTick",
                  "type": "int24"
                }
              ],
              "internalType": "struct DataType.LPT[]",
              "name": "lpts",
              "type": "tuple[]"
            }
          ],
          "internalType": "struct DataType.Position",
          "name": "_position",
          "type": "tuple"
        },
        {
          "internalType": "uint256",
          "name": "_swapRatio",
          "type": "uint256"
        },
        {
          "internalType": "uint160",
          "name": "_sqrtPrice",
          "type": "uint160"
        }
      ],
      "name": "getPositionUpdatesToClose",
      "outputs": [
        {
          "components": [
            {
              "internalType": "enum DataType.PositionUpdateType",
              "name": "positionUpdateType",
              "type": "uint8"
            },
            {
              "internalType": "bool",
              "name": "zeroForOne",
              "type": "bool"
            },
            {
              "internalType": "uint128",
              "name": "liquidity",
              "type": "uint128"
            },
            {
              "internalType": "int24",
              "name": "lowerTick",
              "type": "int24"
            },
            {
              "internalType": "int24",
              "name": "upperTick",
              "type": "int24"
            },
            {
              "internalType": "uint256",
              "name": "param0",
              "type": "uint256"
            },
            {
              "internalType": "uint256",
              "name": "param1",
              "type": "uint256"
            }
          ],
          "internalType": "struct DataType.PositionUpdate[]",
          "name": "positionUpdates",
          "type": "tuple[]"
        }
      ],
      "stateMutability": "pure",
      "type": "function"
    },
    {
      "inputs": [
        {
          "components": [
            {
              "internalType": "uint256",
              "name": "collateral0",
              "type": "uint256"
            },
            {
              "internalType": "uint256",
              "name": "collateral1",
              "type": "uint256"
            },
            {
              "internalType": "uint256",
              "name": "debt0",
              "type": "uint256"
            },
            {
              "internalType": "uint256",
              "name": "debt1",
              "type": "uint256"
            },
            {
              "components": [
                {
                  "internalType": "bool",
                  "name": "isCollateral",
                  "type": "bool"
                },
                {
                  "internalType": "uint128",
                  "name": "liquidity",
                  "type": "uint128"
                },
                {
                  "internalType": "int24",
                  "name": "lowerTick",
                  "type": "int24"
                },
                {
                  "internalType": "int24",
                  "name": "upperTick",
                  "type": "int24"
                }
              ],
              "internalType": "struct DataType.LPT[]",
              "name": "lpts",
              "type": "tuple[]"
            }
          ],
          "internalType": "struct DataType.Position",
          "name": "_position",
          "type": "tuple"
        },
        {
          "internalType": "bool",
          "name": "_isQuoteZero",
          "type": "bool"
        },
        {
          "internalType": "uint160",
          "name": "_sqrtPrice",
          "type": "uint160"
        }
      ],
      "name": "getPositionUpdatesToOpen",
      "outputs": [
        {
          "components": [
            {
              "internalType": "enum DataType.PositionUpdateType",
              "name": "positionUpdateType",
              "type": "uint8"
            },
            {
              "internalType": "bool",
              "name": "zeroForOne",
              "type": "bool"
            },
            {
              "internalType": "uint128",
              "name": "liquidity",
              "type": "uint128"
            },
            {
              "internalType": "int24",
              "name": "lowerTick",
              "type": "int24"
            },
            {
              "internalType": "int24",
              "name": "upperTick",
              "type": "int24"
            },
            {
              "internalType": "uint256",
              "name": "param0",
              "type": "uint256"
            },
            {
              "internalType": "uint256",
              "name": "param1",
              "type": "uint256"
            }
          ],
          "internalType": "struct DataType.PositionUpdate[]",
          "name": "positionUpdates",
          "type": "tuple[]"
        }
      ],
      "stateMutability": "pure",
      "type": "function"
    },
    {
      "inputs": [],
      "name": "getPrice",
      "outputs": [
        {
          "internalType": "uint256",
          "name": "",
          "type": "uint256"
        }
      ],
      "stateMutability": "view",
      "type": "function"
    },
    {
      "inputs": [
        {
          "internalType": "bytes32",
          "name": "_rangeId",
          "type": "bytes32"
        }
      ],
      "name": "getRange",
      "outputs": [
        {
          "components": [
            {
              "internalType": "uint256",
              "name": "tokenId",
              "type": "uint256"
            },
            {
              "internalType": "int24",
              "name": "lowerTick",
              "type": "int24"
            },
            {
              "internalType": "int24",
              "name": "upperTick",
              "type": "int24"
            },
            {
              "internalType": "uint128",
              "name": "borrowedLiquidity",
              "type": "uint128"
            },
            {
              "internalType": "uint256",
              "name": "premiumGrowthForBorrower",
              "type": "uint256"
            },
            {
              "internalType": "uint256",
              "name": "premiumGrowthForLender",
              "type": "uint256"
            },
            {
              "internalType": "uint256",
              "name": "fee0Growth",
              "type": "uint256"
            },
            {
              "internalType": "uint256",
              "name": "fee1Growth",
              "type": "uint256"
            },
            {
              "internalType": "uint256",
              "name": "lastTouchedTimestamp",
              "type": "uint256"
            }
          ],
          "internalType": "struct DataType.PerpStatus",
          "name": "",
          "type": "tuple"
        }
      ],
      "stateMutability": "view",
      "type": "function"
    },
    {
      "inputs": [],
      "name": "getSqrtPrice",
      "outputs": [
        {
          "internalType": "uint160",
          "name": "sqrtPriceX96",
          "type": "uint160"
        }
      ],
      "stateMutability": "view",
      "type": "function"
    },
    {
      "inputs": [],
      "name": "getTWAP",
      "outputs": [
        {
          "internalType": "uint256",
          "name": "",
          "type": "uint256"
        }
      ],
      "stateMutability": "view",
      "type": "function"
    },
    {
      "inputs": [],
      "name": "getTWAPSqrtPrice",
      "outputs": [
        {
          "internalType": "uint160",
          "name": "sqrtPriceX96",
          "type": "uint160"
        }
      ],
      "stateMutability": "view",
      "type": "function"
    },
    {
      "inputs": [
        {
          "internalType": "uint256",
          "name": "_vaultId",
          "type": "uint256"
        }
      ],
      "name": "getVault",
      "outputs": [
        {
          "components": [
            {
              "internalType": "uint256",
              "name": "vaultId",
              "type": "uint256"
            },
            {
              "internalType": "address",
              "name": "owner",
              "type": "address"
            },
            {
              "internalType": "bool",
              "name": "isClosed",
              "type": "bool"
            },
            {
              "components": [
                {
                  "internalType": "uint256",
                  "name": "collateralAmountNotInMarket",
                  "type": "uint256"
                },
                {
                  "internalType": "uint256",
                  "name": "collateralAmount",
                  "type": "uint256"
                },
                {
                  "internalType": "uint256",
                  "name": "debtAmount",
                  "type": "uint256"
                }
              ],
              "internalType": "struct BaseToken.AccountState",
              "name": "balance0",
              "type": "tuple"
            },
            {
              "components": [
                {
                  "internalType": "uint256",
                  "name": "collateralAmountNotInMarket",
                  "type": "uint256"
                },
                {
                  "internalType": "uint256",
                  "name": "collateralAmount",
                  "type": "uint256"
                },
                {
                  "internalType": "uint256",
                  "name": "debtAmount",
                  "type": "uint256"
                }
              ],
              "internalType": "struct BaseToken.AccountState",
              "name": "balance1",
              "type": "tuple"
            },
            {
              "components": [
                {
                  "internalType": "bool",
                  "name": "isCollateral",
                  "type": "bool"
                },
                {
                  "internalType": "bytes32",
                  "name": "rangeId",
                  "type": "bytes32"
                },
                {
                  "internalType": "uint128",
                  "name": "liquidityAmount",
                  "type": "uint128"
                },
                {
                  "internalType": "uint256",
                  "name": "premiumGrowthLast",
                  "type": "uint256"
                },
                {
                  "internalType": "uint256",
                  "name": "fee0Last",
                  "type": "uint256"
                },
                {
                  "internalType": "uint256",
                  "name": "fee1Last",
                  "type": "uint256"
                }
              ],
              "internalType": "struct DataType.LPTState[]",
              "name": "lpts",
              "type": "tuple[]"
            }
          ],
          "internalType": "struct DataType.Vault",
          "name": "",
          "type": "tuple"
        }
      ],
      "stateMutability": "view",
      "type": "function"
    },
    {
      "inputs": [
        {
          "internalType": "uint256",
          "name": "_vaultId",
          "type": "uint256"
        }
      ],
      "name": "getVaultStatus",
      "outputs": [
        {
          "components": [
            {
              "components": [
                {
                  "internalType": "uint256",
                  "name": "collateralValue",
                  "type": "uint256"
                },
                {
                  "internalType": "uint256",
                  "name": "debtValue",
                  "type": "uint256"
                },
                {
                  "internalType": "int256",
                  "name": "premiumValue",
                  "type": "int256"
                }
              ],
              "internalType": "struct DataType.VaultStatusValue",
              "name": "values",
              "type": "tuple"
            },
            {
              "components": [
                {
                  "internalType": "uint256",
                  "name": "collateralAmount0",
                  "type": "uint256"
                },
                {
                  "internalType": "uint256",
                  "name": "collateralAmount1",
                  "type": "uint256"
                },
                {
                  "internalType": "uint256",
                  "name": "debtAmount0",
                  "type": "uint256"
                },
                {
                  "internalType": "uint256",
                  "name": "debtAmount1",
                  "type": "uint256"
                },
                {
                  "internalType": "uint256",
                  "name": "receivedTradeAmount0",
                  "type": "uint256"
                },
                {
                  "internalType": "uint256",
                  "name": "receivedTradeAmount1",
                  "type": "uint256"
                },
                {
                  "internalType": "uint256",
                  "name": "receivedPremium",
                  "type": "uint256"
                },
                {
                  "internalType": "uint256",
                  "name": "paidpremium",
                  "type": "uint256"
                }
              ],
              "internalType": "struct DataType.VaultStatusAmount",
              "name": "amounts",
              "type": "tuple"
            }
          ],
          "internalType": "struct DataType.VaultStatus",
          "name": "",
          "type": "tuple"
        }
      ],
      "stateMutability": "nonpayable",
      "type": "function"
    },
    {
      "inputs": [
        {
          "components": [
            {
              "internalType": "uint24",
              "name": "feeTier",
              "type": "uint24"
            },
            {
              "internalType": "address",
              "name": "token0",
              "type": "address"
            },
            {
              "internalType": "address",
              "name": "token1",
              "type": "address"
            },
            {
              "internalType": "bool",
              "name": "isMarginZero",
              "type": "bool"
            }
          ],
          "internalType": "struct DataType.InitializationParams",
          "name": "_initializationParams",
          "type": "tuple"
        },
        {
          "internalType": "address",
          "name": "_positionManager",
          "type": "address"
        },
        {
          "internalType": "address",
          "name": "_factory",
          "type": "address"
        },
        {
          "internalType": "address",
          "name": "_swapRouter",
          "type": "address"
        }
      ],
      "name": "initialize",
      "outputs": [],
      "stateMutability": "nonpayable",
      "type": "function"
    },
    {
      "inputs": [],
      "name": "lastTouchedTimestamp",
      "outputs": [
        {
          "internalType": "uint256",
          "name": "",
          "type": "uint256"
        }
      ],
      "stateMutability": "view",
      "type": "function"
    },
    {
      "inputs": [
        {
          "internalType": "uint256",
          "name": "_vaultId",
          "type": "uint256"
        },
        {
          "components": [
            {
              "internalType": "uint256",
              "name": "price",
              "type": "uint256"
            },
            {
              "internalType": "uint256",
              "name": "slippageTorelance",
              "type": "uint256"
            },
            {
              "internalType": "uint256",
              "name": "swapRatio",
              "type": "uint256"
            },
            {
              "internalType": "bool",
              "name": "swapAnyway",
              "type": "bool"
            }
          ],
          "internalType": "struct DataType.LiquidationOption",
          "name": "_liquidationOption",
          "type": "tuple"
        }
      ],
      "name": "liquidate",
      "outputs": [],
      "stateMutability": "nonpayable",
      "type": "function"
    },
    {
      "inputs": [
        {
          "internalType": "uint256",
          "name": "_vaultId",
          "type": "uint256"
        },
        {
          "components": [
            {
              "internalType": "enum DataType.PositionUpdateType",
              "name": "positionUpdateType",
              "type": "uint8"
            },
            {
              "internalType": "bool",
              "name": "zeroForOne",
              "type": "bool"
            },
            {
              "internalType": "uint128",
              "name": "liquidity",
              "type": "uint128"
            },
            {
              "internalType": "int24",
              "name": "lowerTick",
              "type": "int24"
            },
            {
              "internalType": "int24",
              "name": "upperTick",
              "type": "int24"
            },
            {
              "internalType": "uint256",
              "name": "param0",
              "type": "uint256"
            },
            {
              "internalType": "uint256",
              "name": "param1",
              "type": "uint256"
            }
          ],
          "internalType": "struct DataType.PositionUpdate[]",
          "name": "_positionUpdates",
          "type": "tuple[]"
        },
        {
          "internalType": "bool",
          "name": "_swapAnyway",
          "type": "bool"
        }
      ],
      "name": "liquidate",
      "outputs": [],
      "stateMutability": "nonpayable",
      "type": "function"
    },
    {
      "inputs": [
        {
          "internalType": "uint256",
          "name": "_vaultId",
          "type": "uint256"
        },
        {
          "components": [
            {
              "internalType": "uint256",
              "name": "collateral0",
              "type": "uint256"
            },
            {
              "internalType": "uint256",
              "name": "collateral1",
              "type": "uint256"
            },
            {
              "internalType": "uint256",
              "name": "debt0",
              "type": "uint256"
            },
            {
              "internalType": "uint256",
              "name": "debt1",
              "type": "uint256"
            },
            {
              "components": [
                {
                  "internalType": "bool",
                  "name": "isCollateral",
                  "type": "bool"
                },
                {
                  "internalType": "uint128",
                  "name": "liquidity",
                  "type": "uint128"
                },
                {
                  "internalType": "int24",
                  "name": "lowerTick",
                  "type": "int24"
                },
                {
                  "internalType": "int24",
                  "name": "upperTick",
                  "type": "int24"
                }
              ],
              "internalType": "struct DataType.LPT[]",
              "name": "lpts",
              "type": "tuple[]"
            }
          ],
          "internalType": "struct DataType.Position",
          "name": "_position",
          "type": "tuple"
        },
        {
          "components": [
            {
              "internalType": "bool",
              "name": "reduceOnly",
              "type": "bool"
            },
            {
              "internalType": "bool",
              "name": "swapAnyway",
              "type": "bool"
            },
            {
              "internalType": "bool",
              "name": "quoterMode",
              "type": "bool"
            },
            {
              "internalType": "bool",
              "name": "isQuoteZero",
              "type": "bool"
            }
          ],
          "internalType": "struct DataType.TradeOption",
          "name": "_tradeOption",
          "type": "tuple"
        },
        {
          "components": [
            {
              "internalType": "uint256",
              "name": "price",
              "type": "uint256"
            },
            {
              "internalType": "uint256",
              "name": "slippageTorelance",
              "type": "uint256"
            },
            {
              "internalType": "uint256",
              "name": "bufferAmount0",
              "type": "uint256"
            },
            {
              "internalType": "uint256",
              "name": "bufferAmount1",
              "type": "uint256"
            },
            {
              "internalType": "bytes",
              "name": "metadata",
              "type": "bytes"
            }
          ],
          "internalType": "struct DataType.OpenPositionOption",
          "name": "_openPositionOptions",
          "type": "tuple"
        }
      ],
      "name": "openPosition",
      "outputs": [
        {
          "internalType": "uint256",
          "name": "vaultId",
          "type": "uint256"
        }
      ],
      "stateMutability": "nonpayable",
      "type": "function"
    },
    {
      "inputs": [],
      "name": "operator",
      "outputs": [
        {
          "internalType": "address",
          "name": "",
          "type": "address"
        }
      ],
      "stateMutability": "view",
      "type": "function"
    },
    {
      "inputs": [
        {
          "internalType": "address",
          "name": "_newOperator",
          "type": "address"
        }
      ],
      "name": "setOperator",
      "outputs": [],
      "stateMutability": "nonpayable",
      "type": "function"
    },
    {
      "inputs": [
        {
          "components": [
            {
              "internalType": "uint256",
              "name": "baseRate",
              "type": "uint256"
            },
            {
              "internalType": "uint256",
              "name": "kinkRate",
              "type": "uint256"
            },
            {
              "internalType": "uint256",
              "name": "slope1",
              "type": "uint256"
            },
            {
              "internalType": "uint256",
              "name": "slope2",
              "type": "uint256"
            }
          ],
          "internalType": "struct InterestCalculator.IRMParams",
          "name": "_irmParams",
          "type": "tuple"
        },
        {
          "components": [
            {
              "internalType": "uint256",
              "name": "baseRate",
              "type": "uint256"
            },
            {
              "internalType": "uint256",
              "name": "kinkRate",
              "type": "uint256"
            },
            {
              "internalType": "uint256",
              "name": "slope1",
              "type": "uint256"
            },
            {
              "internalType": "uint256",
              "name": "slope2",
              "type": "uint256"
            }
          ],
          "internalType": "struct InterestCalculator.IRMParams",
          "name": "_premiumParams",
          "type": "tuple"
        }
      ],
      "name": "updateDRMParams",
      "outputs": [],
      "stateMutability": "nonpayable",
      "type": "function"
    },
    {
      "inputs": [
        {
          "components": [
            {
              "internalType": "uint256",
              "name": "baseRate",
              "type": "uint256"
            },
            {
              "internalType": "uint256",
              "name": "kinkRate",
              "type": "uint256"
            },
            {
              "internalType": "uint256",
              "name": "slope1",
              "type": "uint256"
            },
            {
              "internalType": "uint256",
              "name": "slope2",
              "type": "uint256"
            }
          ],
          "internalType": "struct InterestCalculator.IRMParams",
          "name": "_irmParams",
          "type": "tuple"
        }
      ],
      "name": "updateIRMParams",
      "outputs": [],
      "stateMutability": "nonpayable",
      "type": "function"
    },
    {
      "inputs": [
        {
          "internalType": "uint256",
          "name": "_vaultId",
          "type": "uint256"
        },
        {
          "components": [
            {
              "internalType": "enum DataType.PositionUpdateType",
              "name": "positionUpdateType",
              "type": "uint8"
            },
            {
              "internalType": "bool",
              "name": "zeroForOne",
              "type": "bool"
            },
            {
              "internalType": "uint128",
              "name": "liquidity",
              "type": "uint128"
            },
            {
              "internalType": "int24",
              "name": "lowerTick",
              "type": "int24"
            },
            {
              "internalType": "int24",
              "name": "upperTick",
              "type": "int24"
            },
            {
              "internalType": "uint256",
              "name": "param0",
              "type": "uint256"
            },
            {
              "internalType": "uint256",
              "name": "param1",
              "type": "uint256"
            }
          ],
          "internalType": "struct DataType.PositionUpdate[]",
          "name": "_positionUpdates",
          "type": "tuple[]"
        },
        {
          "internalType": "uint256",
          "name": "_buffer0",
          "type": "uint256"
        },
        {
          "internalType": "uint256",
          "name": "_buffer1",
          "type": "uint256"
        },
        {
          "components": [
            {
              "internalType": "bool",
              "name": "reduceOnly",
              "type": "bool"
            },
            {
              "internalType": "bool",
              "name": "swapAnyway",
              "type": "bool"
            },
            {
              "internalType": "bool",
              "name": "quoterMode",
              "type": "bool"
            },
            {
              "internalType": "bool",
              "name": "isQuoteZero",
              "type": "bool"
            }
          ],
          "internalType": "struct DataType.TradeOption",
          "name": "_tradeOption",
          "type": "tuple"
        },
        {
          "internalType": "bytes",
          "name": "_metadata",
          "type": "bytes"
        }
      ],
      "name": "updatePosition",
      "outputs": [
        {
          "internalType": "uint256",
          "name": "vaultId",
          "type": "uint256"
        }
      ],
      "stateMutability": "nonpayable",
      "type": "function"
    },
    {
      "inputs": [],
      "name": "vaultIdCount",
      "outputs": [
        {
          "internalType": "uint256",
          "name": "",
          "type": "uint256"
        }
      ],
      "stateMutability": "view",
      "type": "function"
    }
  ],
  "transactionHash": "0x13b09d2747b605606bfa3c28081348474e51a056d73b548161bf2a1c21e7d553",
  "args": [],
  "solcInputHash": "d29e7d57faa80dfc6631e15ae3a98b3d",
  "bytecode": "0x608060405234801561001057600080fd5b50615d7580620000216000396000f3fe608060405234801561001057600080fd5b50600436106101cf5760003560e01c80636a131b9111610104578063cb3c9a53116100a2578063e6b94fc711610071578063e6b94fc7146103c9578063eb02c301146103dc578063ee6097f0146103fc578063fea9a2c21461040f576101cf565b8063cb3c9a531461037e578063cc2c135314610386578063d0496d6a14610399578063e1af1a36146103b6576101cf565b80639403b634116100de5780639403b6341461033057806398d5fdca14610350578063b35b794214610358578063b3ab15fb1461036b576101cf565b80636a131b91146102f557806383e3ab121461031557806386e6862d14610328576101cf565b80633e12971511610171578063570ca7351161014b578063570ca735146102b257806362e0929f146102c757806365b5f6e3146102cf57806368715773146102e2576101cf565b80633e1297151461025d57806349ebb77d1461027d57806353aad1d91461029d576101cf565b80631cb05304116101ad5780631cb053041461022757806326d8d4f91461023a578063275892a21461024257806333a9d0601461024a576101cf565b8063013216f5146101d457806305943002146101fd57806305ecd00314610212575b600080fd5b6101e76101e2366004614952565b610422565b6040516101f4919061580e565b60405180910390f35b61021061020b366004614f52565b6104be565b005b61021a61058a565b6040516101f491906156ce565b61021a610235366004614a9b565b6105b9565b61021a6105df565b61021a6105e5565b6102106102583660046149a8565b6105eb565b61027061026b366004614952565b610657565b6040516101f491906156a1565b61029061028b366004614952565b61066b565b6040516101f49190615960565b6102a561084d565b6040516101f491906156ac565b6102ba6108d6565b6040516101f491906155b9565b6102706108e5565b6102106102dd36600461487c565b6108f5565b6102106102f036600461498d565b61097f565b610308610303366004614bd0565b6109c7565b6040516101f49190615653565b61021a610323366004614fd5565b610a61565b6102ba610b37565b61034361033e366004614952565b610bc0565b6040516101f491906159e0565b61021a610cfe565b610210610366366004614e76565b610d1a565b610210610379366004614860565b6111a3565b6102ba6111ef565b610308610394366004614b6f565b61128e565b6103a16112cc565b6040516101f4999897969594939291906155cd565b61021a6103c43660046150b6565b611367565b61021a6103d7366004614ec3565b61143d565b6103ef6103ea366004614952565b611649565b6040516101f49190615882565b61021061040a3660046149dd565b611663565b61021a61041d366004614952565b611a25565b61042a614055565b5060008181526002602081815260409283902083516101208101855281548152600182015480850b850b850b9382019390935263010000008304840b840b840b94810194909452600160301b9091046001600160801b03166060840152908101546080830152600381015460a0830152600481015460c0830152600581015460e0830152600601546101008201525b919050565b600073b924d276260EA5949FEAC471d8Eeb2691fbEE74B635960a9826104e385611649565b84604001516104f0610b37565b6040518463ffffffff1660e01b815260040161050e9392919061592d565b60006040518083038186803b15801561052657600080fd5b505af415801561053a573d6000803e3d6000fd5b505050506040513d6000823e601f3d908101601f191682016040526105629190810190614904565b905061057383828460600151610d1a565b61058582600001518360200151611b07565b505050565b6009546000906105b490600160a01b900460ff166105a66111ef565b6001600160a01b0316611b4f565b905090565b60006105d9826105c76111ef565b600954600160a01b900460ff16611c17565b92915050565b60035481565b60015481565b601f546001600160a01b0316331461061e5760405162461bcd60e51b815260040161061590615788565b60405180910390fd5b8151601a55602080830151601b55604080840151601c55606093840151601d558251601655908201516017558101516018550151601955565b600061066282611c4e565b6105d982611c8e565b6106736140b0565b600061067d610b37565b905061068883611c4e565b6000838152600460208181526040808420815160c0810183528154815260018201546001600160a01b03811682860152600160a01b900460ff1615158184015282516060808201855260028401548252600384015482870152958301548185015285820152825194850183526005820154855260068201548585015260078201548584015260808101949094526008810180548351818602810186019094528084529495919460a08701949192909184015b828210156107b05760008481526020908190206040805160c08101825260068602909201805460ff16151583526001808201548486015260028201546001600160801b03169284019290925260038101546060840152600481015460808401526005015460a0830152908352909201910161073a565b50505091525050604051632e22696560e11b815273A86Cef964Ca0Eac925759A589F140cD462B603B891635c44d2ca916107f591906002906005908790600401615ab1565b6101606040518083038186803b15801561080e57600080fd5b505af4158015610822573d6000803e3d6000fd5b505050506040513d601f19601f820116820180604052508101906108469190614c1d565b9392505050565b60095460408051633850c7bd60e01b815290516000926001600160a01b031691633850c7bd9160048281019260e0929190829003018186803b15801561089257600080fd5b505afa1580156108a6573d6000803e3d6000fd5b505050506040513d601f19601f820116820180604052508101906108ca9190614d57565b50939695505050505050565b601f546001600160a01b031681565b600954600160a01b900460ff1690565b601f546001600160a01b0316331461091f5760405162461bcd60e51b815260040161061590615788565b60005b815181101561097b5760008083838151811061093a57fe5b60200260200101518060200190518101906109559190614e32565b915091506109638282611d57565b610970828260008061208a565b505050600101610922565b5050565b601f546001600160a01b031633146109a95760405162461bcd60e51b815260040161061590615788565b80516012556020810151601355604081015160145560600151601555565b604051632cb054c160e11b815260609073b924d276260EA5949FEAC471d8Eeb2691fbEE74B90635960a98290610a059087908790879060040161592d565b60006040518083038186803b158015610a1d57600080fd5b505af4158015610a31573d6000803e3d6000fd5b505050506040513d6000823e601f3d908101601f19168201604052610a599190810190614904565b949350505050565b60008073b924d276260EA5949FEAC471d8Eeb2691fbEE74B63b5b49eb2868660600151610a8c610b37565b6040518463ffffffff1660e01b8152600401610aaa939291906158fa565b60006040518083038186803b158015610ac257600080fd5b505af4158015610ad6573d6000803e3d6000fd5b505050506040513d6000823e601f3d908101601f19168201604052610afe9190810190614904565b9050610b1a86828560400151866060015188886080015161143d565b9150610b2e83600001518460200151611b07565b50949350505050565b60095460408051633850c7bd60e01b815290516000926001600160a01b031691633850c7bd9160048281019260e0929190829003018186803b158015610b7c57600080fd5b505afa158015610b90573d6000803e3d6000fd5b505050506040513d601f19601f82011682018060405250810190610bb49190614d57565b50949695505050505050565b610bc86140d5565b6000828152600460208181526040808420815160c0810183528154815260018201546001600160a01b03811682860152600160a01b900460ff1615158184015282516060808201855260028401548252600384015482870152958301548185015285820152825194850183526005820154855260068201548585015260078201548584015260808101949094526008810180548351818602810186019094528084529495919460a08701949192909184015b82821015610cf05760008481526020908190206040805160c08101825260068602909201805460ff16151583526001808201548486015260028201546001600160801b03169284019290925260038101546060840152600481015460808401526005015460a08301529083529092019101610c7a565b505050915250909392505050565b6009546000906105b490600160a01b900460ff166105a6610b37565b610d248383611d57565b610d2d83611c8e565b610d495760405162461bcd60e51b8152600401610615906156f3565b600954604051632b44ebb960e21b815260009173673301f5c1702b9f6D995f849737aA6b2d8fd4ce9163ad13aee491610d93916001600160a01b0390911690603c9060040161563a565b604080518083038186803b158015610daa57600080fd5b505af4158015610dbe573d6000803e3d6000fd5b505050506040513d601f19601f82011682018060405250810190610de29190614ded565b506000858152600460208181526040808420815160c0810183528154815260018201546001600160a01b03811682860152600160a01b900460ff16151581840152825160608082018552600284015482526003840154828701529583015481850152858201528251948501835260058201548552600682015485850152600782015485840152608081019490945260088101805483518186028101860190945280845296975094959394909360a0860193879084015b82821015610f0e5760008481526020908190206040805160c08101825260068602909201805460ff16151583526001808201548486015260028201546001600160801b03169284019290925260038101546060840152600481015460808401526005015460a08301529083529092019101610e98565b5050509152505060405163571e620160e11b815273A86Cef964Ca0Eac925759A589F140cD462B603B89163ae3cc40291610f5391906002906005908890600401615ab1565b60206040518083038186803b158015610f6b57600080fd5b505af4158015610f7f573d6000803e3d6000fd5b505050506040513d601f19601f82011682018060405250810190610fa39190614e1a565b90506000610fb6868660c885048761208a565b6000878152600460208181526040808420815160c0810183528154815260018201546001600160a01b03811682860152600160a01b900460ff1615158184015282516060808201855260028401548252600384015482870152958301548185015285820152825194850183526005820154855260068201548585015260078201548584015260808101949094526008810180548351818602810186019094528084529697509395909460a0870194929384015b828210156110df5760008481526020908190206040805160c08101825260068602909201805460ff16151583526001808201548486015260028201546001600160801b03169284019290925260038101546060840152600481015460808401526005015460a08301529083529092019101611069565b5050509152505060405163571e620160e11b815273A86Cef964Ca0Eac925759A589F140cD462B603B89163ae3cc4029161112491906002906005908990600401615ab1565b60206040518083038186803b15801561113c57600080fd5b505af4158015611150573d6000803e3d6000fd5b505050506040513d601f19601f820116820180604052508101906111749190614e1a565b156111915760405162461bcd60e51b8152600401610615906156d7565b61119b338261221e565b505050505050565b601f546001600160a01b031633146111cd5760405162461bcd60e51b815260040161061590615788565b601f80546001600160a01b0319166001600160a01b0392909216919091179055565b600954604051632b44ebb960e21b815260009173673301f5c1702b9f6D995f849737aA6b2d8fd4ce9163ad13aee491611239916001600160a01b0390911690603c9060040161563a565b604080518083038186803b15801561125057600080fd5b505af4158015611264573d6000803e3d6000fd5b505050506040513d601f19601f820116820180604052508101906112889190614ded565b50919050565b604051635ada4f5960e11b815260609073b924d276260EA5949FEAC471d8Eeb2691fbEE74B9063b5b49eb290610a05908790879087906004016158fa565b6005546006546007546008546009546040805160808082018352600a548252600b54602080840191909152600c5483850152600d5460608085019190915284519283018552600e548352600f549183019190915260105493820193909352601154928101929092526001600160a01b039687169680871696600160a01b9081900462ffffff169682169582169491821693910460ff16919089565b60008073b924d276260EA5949FEAC471d8Eeb2691fbEE74B635960a98261138d87611649565b856040015161139a610b37565b6040518463ffffffff1660e01b81526004016113b89392919061592d565b60006040518083038186803b1580156113d057600080fd5b505af41580156113e4573d6000803e3d6000fd5b505050506040513d6000823e601f3d908101601f1916820160405261140c9190810190614904565b9050611421858260008088886060015161143d565b915061143583600001518460200151611b07565b509392505050565b60006114498787611d57565b6000611459888560400151612258565b9092509050851561147c5760055461147c906001600160a01b0316333089612338565b841561149a5760065461149a906001600160a01b0316333088612338565b600080739031FAD1eD17F9060B950207b3d50Fd06D256F55636728565784600560028d8b6040518663ffffffff1660e01b81526004016114de959493929190615af6565b604080518083038186803b1580156114f557600080fd5b505af4158015611509573d6000803e3d6000fd5b505050506040513d601f19601f8201168201806040525081019061152d919061496a565b91509150856040015115611545576115458282612488565b61154e84611c8e565b1561156b5760405162461bcd60e51b81526004016106159061570f565b8188121561158b5760405162461bcd60e51b815260040161061590615750565b808712156115ab5760405162461bcd60e51b81526004016106159061576c565b818813156115d3576005546115d3906001600160a01b0316336115ce8b86612499565b6124fe565b808713156115f6576006546115f6906001600160a01b0316336115ce8a85612499565b7fabc710e8ab5c8f4ea5d70ef0f4c50f12dd4804fa7e04ce65aa8c813197b64bea848383611622610b37565b89604051611634959493929190615ba3565b60405180910390a15050509695505050505050565b611651614122565b61165a82611c4e565b6105d982612645565b600054610100900460ff168061167c575061167c61280e565b8061168a575060005460ff16155b6116c55760405162461bcd60e51b815260040180806020018281038252602e815260200180615ccd602e913960400191505060405180910390fd5b600054610100900460ff161580156116f0576000805460ff1961ff0019909116610100171660011790555b845160068054602080890151600580546001600160a01b03199081166001600160a01b0393841617918290556040808d015162ffffff60a01b19909616600160a01b62ffffff998a16810291909117831696851696909617968790556060808e01516009805460ff60a01b191691151589029190911790556007805484168e8716179055600880549093168b8616179092558051918201815291831681529185169282019290925291909204909216908201526117ad848261281f565b600980546001600160a01b0319166001600160a01b03928316179055600160035560055460405163095ea7b360e01b815291169063095ea7b3906117f99088906000199060040161563a565b602060405180830381600087803b15801561181357600080fd5b505af1158015611827573d6000803e3d6000fd5b505050506040513d601f19601f8201168201806040525081019061184b9190614936565b5060065460405163095ea7b360e01b81526001600160a01b039091169063095ea7b3906118809088906000199060040161563a565b602060405180830381600087803b15801561189a57600080fd5b505af11580156118ae573d6000803e3d6000fd5b505050506040513d601f19601f820116820180604052508101906118d29190614936565b5060055460405163095ea7b360e01b81526001600160a01b039091169063095ea7b3906119079086906000199060040161563a565b602060405180830381600087803b15801561192157600080fd5b505af1158015611935573d6000803e3d6000fd5b505050506040513d601f19601f820116820180604052508101906119599190614936565b5060065460405163095ea7b360e01b81526001600160a01b039091169063095ea7b39061198e9086906000199060040161563a565b602060405180830381600087803b1580156119a857600080fd5b505af11580156119bc573d6000803e3d6000fd5b505050506040513d601f19601f820116820180604052508101906119e09190614936565b506119eb600a612903565b6119f5600e612903565b5042600155601f80546001600160a01b031916331790558015611a1e576000805461ff00191690555b5050505050565b60408051610120810182526005546001600160a01b039081168252600654808216602080850191909152600160a01b9182900462ffffff16848601526007548316606080860191909152600854841660808087019190915260095494851660a08701529290930460ff16151560c085015284518083018652600a548152600b5481830152600c5481870152600d548185015260e085015284519182018552600e548252600f54828201526010548286015260115492820192909252610100830152600084815260029091529182206105d991601691611b02610b37565b61291b565b6000611b11610cfe565b90508061271083810385020411158015611b3357506127108281018402048111155b6105855760405162461bcd60e51b8152600401610615906157bf565b6000670de0b6b3a76400008315611bb757611b78838483600160c01b81611b7257fe5b04612a81565b915081611b97576ec097ce7bc90715b34b9f10000000009150506105d9565b816ec097ce7bc90715b34b9f100000000081611baf57fe5b049150611bd8565b600160601b81611bcc8586600160601b612a81565b0281611bd457fe5b0491505b6ec097ce7bc90715b34b9f1000000000821115611c06576ec097ce7bc90715b34b9f10000000009150611c10565b81611c1057600191505b5092915050565b600080611c25858585612b30565b90506000611c34868686612c4f565b9150508160648281611c4257fe5b05039695505050505050565b60408051600080825260208201909252611c8b91839190611c85565b611c72614151565b815260200190600190039081611c6a5790505b50611d57565b50565b600954604051632b44ebb960e21b8152600091829173673301f5c1702b9f6D995f849737aA6b2d8fd4ce9163ad13aee491611cd8916001600160a01b031690603c9060040161563a565b604080518083038186803b158015611cef57600080fd5b505af4158015611d03573d6000803e3d6000fd5b505050506040513d601f19601f82011682018060405250810190611d279190614ded565b5090506000611d4c611d3885612645565b6009548490600160a01b900460ff16611c17565b600012949350505050565b6000828152600460205260408120905b6008820154811015611e915760408051610120810182526005546001600160a01b03908116825260065480821660208085019190915262ffffff600160a01b928390041684860152600754831660608086019190915260088054851660808088019190915260095495861660a088015260ff9490950493909316151560c086015285518085018752600a548152600b5481840152600c5481880152600d548183015260e086015285519384018652600e548452600f549184019190915260105494830194909452601154938201939093526101008201529083018054611e8992601692909160029160009187908110611e5c57fe5b9060005260206000209060060201600101548152602001908152602001600020611e84610b37565b612dff565b600101611d67565b5060005b8251811015611fdc576000611ed8848381518110611eaf57fe5b602002602001015160600151858481518110611ec757fe5b602002602001015160800151612f45565b600081815260026020526040902054909150611ef45750611fd4565b60408051610120810182526005546001600160a01b039081168252600654808216602080850191909152600160a01b9182900462ffffff16848601526007548316606080860191909152600854841660808087019190915260095494851660a08701529290930460ff16151560c085015284518083018652600a548152600b5481830152600c5481870152600d548185015260e085015284519182018552600e548252600f548282015260105482860152601154928201929092526101008301526000848152600290915291909120611fd291601691611e84610b37565b505b600101611e95565b50604080516080810182526012548152601354602082015260145491810191909152601554606082015260015461201591600591612f78565b600155604051633925559360e11b8152739031FAD1eD17F9060B950207b3d50Fd06D256F559063724aab26906120559060059085906002906004016157f8565b60006040518083038186803b15801561206d57600080fd5b505af4158015612081573d6000803e3d6000fd5b50505050505050565b600084815260046020818152604080842081516080810183526001815286151593810193909352828201859052600954600160a01b900460ff16151560608401529051636728565760e01b8152909284928392739031FAD1eD17F9060B950207b3d50Fd06D256F559263672856579261210d9288926005926002928f9201615af6565b604080518083038186803b15801561212457600080fd5b505af4158015612138573d6000803e3d6000fd5b505050506040513d601f19601f8201168201806040525081019061215c919061496a565b60009182039350810391508212156121865760405162461bcd60e51b815260040161061590615750565b80600013156121a75760405162461bcd60e51b81526004016106159061576c565b600954600160a01b900460ff16156121cc576121c382876130b2565b945091506121db565b6121d681876130b2565b945090505b81600012156121f7576121f5600a600285018460006130d2565b505b806000121561221357612211600e600585018360006130d2565b505b505050949350505050565b60095461097b90600160a01b900460ff16612244576006546001600160a01b0316612251565b6005546001600160a01b03165b83836124fe565b600080836122dd576003805460018082019092556000818152600460205260409081902082815590920180546001600160a01b03191633179081905591519093507fbf3e9c93de94306b70ac5b9411edf475545815333bf651b894b9eada6482c594916122d09185916001600160a01b031690615b8c565b60405180910390a1612321565b6000848152600460205260409020600101548492506001600160a01b03163314806123055750825b6123215760405162461bcd60e51b8152600401610615906157dc565b5060008181526004602052604090205b9250929050565b604080516001600160a01b0385811660248301528481166044830152606480830185905283518084039091018152608490920183526020820180516001600160e01b03166323b872dd60e01b178152925182516000948594938a169392918291908083835b602083106123bc5780518252601f19909201916020918201910161239d565b6001836020036101000a0380198251168184511680821785525050505050509050019150506000604051808303816000865af19150503d806000811461241e576040519150601f19603f3d011682016040523d82523d6000602084013e612423565b606091505b5091509150818015612451575080511580612451575080806020019051602081101561244e57600080fd5b50515b61119b576040805162461bcd60e51b815260206004820152600360248201526229aa2360e91b604482015290519081900360640190fd5b602051828152816020820152604081fd5b60008183038183128015906124ae5750838113155b806124c357506000831280156124c357508381135b6108465760405162461bcd60e51b8152600401808060200182810382526024815260200180615d1c6024913960400191505060405180910390fd5b604080516001600160a01b038481166024830152604480830185905283518084039091018152606490920183526020820180516001600160e01b031663a9059cbb60e01b1781529251825160009485949389169392918291908083835b6020831061257a5780518252601f19909201916020918201910161255b565b6001836020036101000a0380198251168184511680821785525050505050509050019150506000604051808303816000865af19150503d80600081146125dc576040519150601f19603f3d011682016040523d82523d6000602084013e6125e1565b606091505b509150915081801561260f57508051158061260f575080806020019051602081101561260c57600080fd5b50515b611a1e576040805162461bcd60e51b815260206004820152600260248201526114d560f21b604482015290519081900360640190fd5b61264d614122565b6000828152600460208181526040808420815160c0810183528154815260018201546001600160a01b03811682860152600160a01b900460ff161515818401528251606080820185526002840154825260038401548287015295830154818501528582015282519485018352600582015485526006820154858501526007820154858401526080810194909452600881018054835181860281018601909452808452919360a08601939290879084015b828210156127735760008481526020908190206040805160c08101825260068602909201805460ff16151583526001808201548486015260028201546001600160801b03169284019290925260038101546060840152600481015460808401526005015460a083015290835290920191016126fd565b505050915250506040516349ad1ba560e01b815290915073A86Cef964Ca0Eac925759A589F140cD462B603B8906349ad1ba5906127ba908490600290600590600401615a87565b60006040518083038186803b1580156127d257600080fd5b505af41580156127e6573d6000803e3d6000fd5b505050506040513d6000823e601f3d908101601f191682016040526108469190810190614acd565b600061281930613131565b15905090565b600081602001516001600160a01b031682600001516001600160a01b03161061284757600080fd5b50805160208083015160409384015184516001600160a01b0394851681850152939091168385015262ffffff166060808401919091528351808403820181526080840185528051908301206001600160f81b031960a085015294901b6bffffffffffffffffffffffff191660a183015260b58201939093527fe34f199b19b2b4f47f68442619d555527d244f78a3297ea89325f843f87b8b5460d5808301919091528251808303909101815260f5909101909152805191012090565b670de0b6b3a764000060028201819055600390910155565b6001820154600090600160301b90046001600160801b031615612a765760006129448585613137565b60a08601516001860154919250600091612a0191612974918a9190600281810b9163010000009004900b876131d4565b6040805161012081018252885481526001890154600281810b810b810b602084015263010000008204810b810b810b93830193909352600160301b90046001600160801b03166060820152908801546080820152600388015460a0820152600488015460c0820152600588015460e082015260068801546101008201526129fc908990613433565b6134da565b90506000612a688760c00151612a4d8a600401604051806080016040529081600082015481526020016001820154815260200160028201548152602001600382015481525050866134f7565b60018901548890600281810b9163010000009004900b61356c565b919091019250610a59915050565b506000949350505050565b6000808060001985870986860292508281109083900303905080612ab75760008411612aac57600080fd5b508290049050610846565b808411612ac357600080fd5b6000848688096000868103871696879004966002600389028118808a02820302808a02820302808a02820302808a02820302808a02820302808a02909103029181900381900460010186841190950394909402919094039290920491909117919091029150509392505050565b6001600160ff1b036305f5e1006001600160a01b03630554c99f85028116829004916306a9fc0786029091160460005b866080015151811015612c0d57600087608001518281518110612b7f57fe5b602002602001015190508060000151612c03576000612ba682606001518360400151613604565b9050846001600160a01b0316816001600160a01b03161080612bd95750806001600160a01b0316846001600160a01b0316105b15612be5575050612c05565b6000612bf28a838a613616565b905080871315612c00578096505b50505b505b600101612b60565b506000612c1b878387613616565b905080841315612c29578093505b506000612c37878487613616565b905080841315612c45578093505b5050509392505050565b8251602084015160408501516060860151600093849390929091845b896080015151811015612d8a5760008a608001518281518110612c8a57fe5b602002602001015190506000612ca38260400151613632565b90506000612cb48360600151613632565b8351909150158015612cd857508b6001600160a01b0316826001600160a01b031611155b8015612cf65750806001600160a01b03168c6001600160a01b031611155b15612d4757600160601b612d0d8460400151613632565b612d1a8560600151613632565b0384602001516001600160801b0316026001600160a01b031681612d3a57fe5b0485019450505050612d82565b600080612d5a8e85858860200151613964565b8651919350915015612d73579881019897880197612d7c565b96810196958601955b50505050505b600101612c6b565b506000612da0888a6001600160a01b0316611b4f565b90508715612dcf57670de0b6b3a76400008482020485019650670de0b6b3a76400008282020483019550612df2565b83670de0b6b3a76400008683020401965081670de0b6b3a7640000848302040195505b5050505050935093915050565b81600601544211612e0f57612f3f565b6001820154600160301b90046001600160801b031615612f145760006301e13380612e3c8686868661291b565b846006015442030281612e4b57fe5b049050612e65818460020154613a0090919063ffffffff16565b6002848101829055600185015460408051610120810182528754815282840b840b840b602082015263010000008304840b840b90930b90830152600160301b90046001600160801b0316606082018190526080820192909252600385015460a0820152600485015460c0820152600585015460e08201526006850154610100820152612f0d91612f0291849190612efd908990613a5a565b613a7c565b600385015490613a00565b6003840155505b60a08301516001830154612f38918691600281810b9163010000009004900b613a92565b4260068301555b50505050565b60008282604051602001612f5a9291906156ba565b60405160208183030381529060405280519060200120905092915050565b6000814211612f88575080610846565b604080516101208101825285546001600160a01b0390811682526001870154808216602080850191909152600160a01b9182900462ffffff16848601526002890154831660608086019190915260038a0154841660808087019190915260048b015494851660a08701529290930460ff16151560c08501528451808301865260058a0154815260068a01548183015260078a01548187015260088a01548185015260e08501528451918201855260098901548252600a89015490820152600b88015493810193909352600c870154908301526101008101919091526000906301e133809061308090869061307b90613c79565b6134f7565b844203028161308b57fe5b04905061309b6005860182613cb5565b6130a86009860182613cb5565b5042949350505050565b6000808284106130c757505080820381612331565b506000905082612331565b6000811561311b576130f183670de0b6b3a76400008760020154613a7c565b60018501549091506131039082613a00565b600185015584546131149082613a00565b8555610a59565b83546131279084613a00565b8455949350505050565b3b151590565b6001810154604080516101208101825283548152600283810b810b810b602083015263010000008404810b810b810b92820192909252600160301b9092046001600160801b031660608301819052908301546080830152600383015460a0830152600483015460c0830152600583015460e083015260068301546101008301526000916108469190670de0b6b3a764000090612efd908790613a5a565b600080856001600160a01b031663f30583996040518163ffffffff1660e01b815260040160206040518083038186803b15801561321057600080fd5b505afa158015613224573d6000803e3d6000fd5b505050506040513d601f19601f820116820180604052508101906132489190614e1a565b90506000866001600160a01b031663461413196040518163ffffffff1660e01b815260040160206040518083038186803b15801561328557600080fd5b505afa158015613299573d6000803e3d6000fd5b505050506040513d601f19601f820116820180604052508101906132bd9190614e1a565b90506000876001600160a01b0316633850c7bd6040518163ffffffff1660e01b815260040160e06040518083038186803b1580156132fa57600080fd5b505afa15801561330e573d6000803e3d6000fd5b505050506040513d601f19601f820116820180604052508101906133329190614d57565b505050505091505060008061335e61334a8b8b613d29565b6133548c8b613d29565b8b8b878a8a613df5565b915091506000898960405160200161337792919061559c565b6040516020818303038152906040528051906020012090506134236133d28d6000016040518060800160405290816000820154815260200160018201548152602001600282015481526020016003820154815250508a6134f7565b8d600801600084815260200190815260200160002060405180608001604052908160008201548152602001600182015481526020016002820154815260200160038201548152505085858a8a613e72565b9c9b505050505050505050505050565b6060820151815160405163133f757160e31b815260009283926001600160a01b03909116916399fbab889161346a916004016156ce565b6101806040518083038186803b15801561348357600080fd5b505afa158015613497573d6000803e3d6000fd5b505050506040513d601f19601f820116820180604052508101906134bb919061516b565b50506001600160801b039092169a505050505050505050505092915050565b60008183670de0b6b3a764000002816134ef57fe5b049392505050565b8151602083015160009190831161352657670de0b6b3a7640000846040015184028161351f57fe5b0401610846565b670de0b6b3a764000084604001518560200151028161354157fe5b0481019050670de0b6b3a7640000846020015184038560600151028161356357fe5b04019392505050565b60008060006135958661357e87613632565b61358787613632565b670de0b6b3a7640000613964565b9150915060006135ae89886001600160a01b0316611b4f565b905088156135d257826135ca8383670de0b6b3a7640000613a7c565b0193506135ea565b816135e68483670de0b6b3a7640000613a7c565b0193505b670de0b6b3a7640000848902049998505050505050505050565b60006108466002848401810b05613632565b6000806000613626868686612c4f565b90039695505050505050565b60008060008360020b12613649578260020b613651565b8260020b6000035b9050620d89e881111561368f576040805162461bcd60e51b81526020600482015260016024820152601560fa1b604482015290519081900360640190fd5b6000600182166136a357600160801b6136b5565b6ffffcb933bd6fad37aa2d162d1a5940015b70ffffffffffffffffffffffffffffffffff16905060028216156136e9576ffff97272373d413259a46990580e213a0260801c5b6004821615613708576ffff2e50f5f656932ef12357cf3c7fdcc0260801c5b6008821615613727576fffe5caca7e10e4e61c3624eaa0941cd00260801c5b6010821615613746576fffcb9843d60f6159c9db58835c9266440260801c5b6020821615613765576fff973b41fa98c081472e6896dfb254c00260801c5b6040821615613784576fff2ea16466c96a3843ec78b326b528610260801c5b60808216156137a3576ffe5dee046a99a2a811c461f1969c30530260801c5b6101008216156137c3576ffcbe86c7900a88aedcffc83b479aa3a40260801c5b6102008216156137e3576ff987a7253ac413176f2b074cf7815e540260801c5b610400821615613803576ff3392b0822b70005940c7a398e4b70f30260801c5b610800821615613823576fe7159475a2c29b7443b29c7fa6e889d90260801c5b611000821615613843576fd097f3bdfd2022b8845ad8f792aa58250260801c5b612000821615613863576fa9f746462d870fdf8a65dc1f90e061e50260801c5b614000821615613883576f70d869a156d2a1b890bb3df62baf32f70260801c5b6180008216156138a3576f31be135f97d08fd981231505542fcfa60260801c5b620100008216156138c4576f09aa508b5b7a84e1c677de54f3e99bc90260801c5b620200008216156138e4576e5d6af8dedb81196699c329225ee6040260801c5b62040000821615613903576d2216e584f5fa1ea926041bedfe980260801c5b62080000821615613920576b048a170391f7dc42444e8fa20260801c5b60008460020b131561393b57806000198161393757fe5b0490505b64010000000081061561394f576001613952565b60005b60ff16602082901c0192505050919050565b600080836001600160a01b0316856001600160a01b03161115613985579293925b846001600160a01b0316866001600160a01b0316116139b0576139a9858585613ef1565b91506139f7565b836001600160a01b0316866001600160a01b031610156139e9576139d5868585613ef1565b91506139e2858785613f5a565b90506139f7565b6139f4858585613f5a565b90505b94509492505050565b600082820183811015610846576040805162461bcd60e51b815260206004820152601b60248201527f536166654d6174683a206164646974696f6e206f766572666c6f770000000000604482015290519081900360640190fd5b600081606001516001600160801b0316613a748484613433565b019392505050565b6000610a5982613a8c8686613f9d565b90613ff6565b6000836001600160a01b031663f30583996040518163ffffffff1660e01b815260040160206040518083038186803b158015613acd57600080fd5b505afa158015613ae1573d6000803e3d6000fd5b505050506040513d601f19601f82011682018060405250810190613b059190614e1a565b90506000846001600160a01b031663461413196040518163ffffffff1660e01b815260040160206040518083038186803b158015613b4257600080fd5b505afa158015613b56573d6000803e3d6000fd5b505050506040513d601f19601f82011682018060405250810190613b7a9190614e1a565b90506000856001600160a01b0316633850c7bd6040518163ffffffff1660e01b815260040160e06040518083038186803b158015613bb757600080fd5b505afa158015613bcb573d6000803e3d6000fd5b505050506040513d601f19601f82011682018060405250810190613bef9190614d57565b5050505050915050600080613c1b613c078989613d29565b613c118a89613d29565b8989878a8a613df5565b9150915060008787604051602001613c3492919061559c565b60408051601f19818403018152918152815160209283012060009081526008909c01909152909920918255600182015560028101939093555060039091015550505050565b60e081015151600090613c955750670de0b6b3a76400006104b9565b60e0820151602081015190516105d99190670de0b6b3a764000090613a7c565b8154613cc05761097b565b613ce1826003015482670de0b6b3a764000001670de0b6b3a7640000613a7c565b600383015560018201548254600091613cfc91849190613a7c565b670de0b6b3a7640000019050613d1f836002015482670de0b6b3a7640000613a7c565b6002840155505050565b613d3161418f565b6000806000856001600160a01b031663f30dba93866040518263ffffffff1660e01b8152600401613d6291906156ac565b6101006040518083038186803b158015613d7b57600080fd5b505afa158015613d8f573d6000803e3d6000fd5b505050506040513d601f19601f82011682018060405250810190613db39190614cad565b975050505094509450505080613ddb5760405162461bcd60e51b81526004016106159061572b565b506040805180820190915291825260208201529392505050565b6000806000808860020b8760020b12613e16575050885160208a0151613e26565b5050885160208a01519085039084035b6000808960020b8960020b1215613e45575050895160208b0151613e55565b5050895160208b01519087039086035b92909603959095039a949093039290920397509195505050505050565b60008060008760400151851115613ea6578760400151850388600001518803670de0b6b3a76400000281613ea257fe5b0491505b8760600151841115613ed5578760600151840388602001518703670de0b6b3a76400000281613ed157fe5b0490505b671bc16d674ec800008282018a02049998505050505050505050565b6000826001600160a01b0316846001600160a01b03161115613f11579192915b836001600160a01b0316613f4a606060ff16846001600160801b0316901b8686036001600160a01b0316866001600160a01b0316612a81565b81613f5157fe5b04949350505050565b6000826001600160a01b0316846001600160a01b03161115613f7a579192915b610a59826001600160801b03168585036001600160a01b0316600160601b612a81565b600082613fac575060006105d9565b82820282848281613fb957fe5b04146108465760405162461bcd60e51b8152600401808060200182810382526021815260200180615cfb6021913960400191505060405180910390fd5b600080821161404c576040805162461bcd60e51b815260206004820152601a60248201527f536166654d6174683a206469766973696f6e206279207a65726f000000000000604482015290519081900360640190fd5b8183816134ef57fe5b60405180610120016040528060008152602001600060020b8152602001600060020b815260200160006001600160801b0316815260200160008152602001600081526020016000815260200160008152602001600081525090565b60405180604001604052806140c36141a9565b81526020016140d06141ca565b905290565b6040518060c001604052806000815260200160006001600160a01b031681526020016000151581526020016141086141a9565b81526020016141156141a9565b8152602001606081525090565b6040518060a0016040528060008152602001600081526020016000815260200160008152602001606081525090565b6040805160e08101909152806000815260006020820181905260408201819052606082018190526080820181905260a0820181905260c09091015290565b604051806040016040528060008152602001600081525090565b60405180606001604052806000815260200160008152602001600081525090565b60405180610100016040528060008152602001600081526020016000815260200160008152602001600081526020016000815260200160008152602001600081525090565b80356104b981615c67565b80516104b981615c67565b600082601f830112614235578081fd5b8151602061424a61424583615c3e565b615c1b565b82815281810190858301608080860288018501891015614268578687fd5b865b868110156142f95781838b031215614280578788fd5b604080518381018181106001600160401b038211171561429c57fe5b825284516142a981615c7c565b8152848801516142b881615ca6565b81890152848201516142c981615c97565b80838301525060609150818501516142e081615c97565b918101919091528552938501939181019160010161426a565b509198975050505050505050565b600082601f830112614317578081fd5b8135602061432761424583615c3e565b8281528181019085830160e080860288018501891015614345578687fd5b865b868110156142f95781838b03121561435d578788fd5b604080518381018181106001600160401b038211171561437957fe5b825261438485614559565b81526143918886016144df565b888201526143a082860161482d565b82820152606091506143b382860161456f565b82820152608091506143c682860161456f565b9181019190915260a0848101359082015260c0808501359082015285529385019391810191600101614347565b600082601f830112614403578081fd5b8151602061441361424583615c3e565b8281528181019085830160e080860288018501891015614431578687fd5b865b868110156142f95781838b031215614449578788fd5b604080518381018181106001600160401b038211171561446557fe5b825261447085614564565b815261447d8886016144ea565b8882015261448c828601614838565b828201526060915061449f82860161457a565b82820152608091506144b282860161457a565b9181019190915260a0848101519082015260c0808501519082015285529385019391810191600101614433565b80356104b981615c7c565b80516104b981615c7c565b600082601f830112614505578081fd5b81356001600160401b0381111561451857fe5b61452b601f8201601f1916602001615c1b565b81815284602083860101111561453f578283fd5b816020850160208301379081016020019190915292915050565b80356104b981615c8a565b80516104b981615c8a565b80356104b981615c97565b80516104b981615c97565b600060808284031215614596578081fd5b604051608081018181106001600160401b03821117156145b257fe5b8060405250809150823581526020830135602082015260408301356040820152606083013560608201525092915050565b600060a082840312156145f4578081fd5b6040805160a081016001600160401b03828210818311171561461257fe5b818452829450853583526020915081860135828401528386013584840152606080870135818501526080808801358381111561464d57600080fd5b8801601f81018a1361465e57600080fd5b803561466c61424582615c3e565b81815286810190838801858402850189018e101561468957600080fd5b600094505b8385101561470e5785818f0312156146a557600080fd5b8a518681018181108a821117156146b857fe5b8c5281356146c581615c7c565b8152818a01356146d481615ca6565b818b0152818c01356146e581615c97565b818d0152818801356146f681615c97565b8189015283526001949094019391880191850161468e565b5080858a01525050505050505050505092915050565b600060808284031215614735578081fd5b604051608081018181106001600160401b038211171561475157fe5b604052905080823561476281615c7c565b8152602083013561477281615c7c565b6020820152604083013561478581615c7c565b6040820152606083013561479881615c7c565b6060919091015292915050565b60006101008083850312156147b8578182fd5b604051908101906001600160401b03821181831017156147d457fe5b81604052809250835181526020840151602082015260408401516040820152606084015160608201526080840151608082015260a084015160a082015260c084015160c082015260e084015160e0820152505092915050565b80356104b981615ca6565b80516104b981615ca6565b805161ffff811681146104b957600080fd5b80516104b981615cbb565b600060208284031215614871578081fd5b813561084681615c67565b6000602080838503121561488e578182fd5b82356001600160401b038111156148a3578283fd5b8301601f810185136148b3578283fd5b80356148c161424582615c3e565b81815283810190838501865b848110156148f6576148e48a8884358901016144f5565b845292860192908601906001016148cd565b509098975050505050505050565b600060208284031215614915578081fd5b81516001600160401b0381111561492a578182fd5b610a59848285016143f3565b600060208284031215614947578081fd5b815161084681615c7c565b600060208284031215614963578081fd5b5035919050565b6000806040838503121561497c578081fd5b505080516020909101519092909150565b60006080828403121561499e578081fd5b6108468383614585565b60008061010083850312156149bb578182fd5b6149c58484614585565b91506149d48460808501614585565b90509250929050565b60008060008084860360e08112156149f3578283fd5b6080811215614a00578283fd5b50604051608081018181106001600160401b0382111715614a1d57fe5b6040528535614a2b81615cbb565b81526020860135614a3b81615c67565b60208201526040860135614a4e81615c67565b60408201526060860135614a6181615c7c565b60608201529350614a746080860161420f565b9250614a8260a0860161420f565b9150614a9060c0860161420f565b905092959194509250565b600060208284031215614aac578081fd5b81356001600160401b03811115614ac1578182fd5b610a59848285016145e3565b600060208284031215614ade578081fd5b81516001600160401b0380821115614af4578283fd5b9083019060a08286031215614b07578283fd5b60405160a081018181108382111715614b1c57fe5b806040525082518152602083015160208201526040830151604082015260608301516060820152608083015182811115614b54578485fd5b614b6087828601614225565b60808301525095945050505050565b600080600060608486031215614b83578081fd5b83356001600160401b03811115614b98578182fd5b614ba4868287016145e3565b9350506020840135614bb581615c7c565b91506040840135614bc581615c67565b809150509250925092565b600080600060608486031215614be4578081fd5b83356001600160401b03811115614bf9578182fd5b614c05868287016145e3565b935050602084013591506040840135614bc581615c67565b6000818303610160811215614c30578182fd5b604051604081016001600160401b038282108183111715614c4d57fe5b816040526060841215614c5e578485fd5b60a0830193508184108185111715614c7257fe5b508260405284518152602085015160608301526040850151608083015280825250614ca085606086016147a5565b6020820152949350505050565b600080600080600080600080610100898b031215614cc9578586fd5b8851614cd481615ca6565b80985050602089015180600f0b8114614ceb578687fd5b80975050604089015195506060890151945060808901518060060b8114614d10578485fd5b60a08a0151909450614d2181615c67565b60c08a015190935063ffffffff81168114614d3a578283fd5b9150614d4860e08a016144ea565b90509295985092959890939650565b600080600080600080600060e0888a031215614d71578081fd5b8751614d7c81615c67565b6020890151909750614d8d81615c97565b9550614d9b60408901614843565b9450614da960608901614843565b9350614db760808901614843565b925060a088015160ff81168114614dcc578182fd5b60c0890151909250614ddd81615c7c565b8091505092959891949750929550565b60008060408385031215614dff578182fd5b8251614e0a81615c67565b6020939093015192949293505050565b600060208284031215614e2b578081fd5b5051919050565b60008060408385031215614e44578182fd5b8251915060208301516001600160401b03811115614e60578182fd5b614e6c858286016143f3565b9150509250929050565b600080600060608486031215614e8a578081fd5b8335925060208401356001600160401b03811115614ea6578182fd5b614eb286828701614307565b9250506040840135614bc581615c7c565b6000806000806000806101208789031215614edc578384fd5b8635955060208701356001600160401b0380821115614ef9578586fd5b614f058a838b01614307565b96506040890135955060608901359450614f228a60808b01614724565b9350610100890135915080821115614f38578283fd5b50614f4589828a016144f5565b9150509295509295509295565b60008082840360a0811215614f65578283fd5b833592506080601f1982011215614f7a578182fd5b50604051608081018181106001600160401b0382111715614f9757fe5b80604052506020840135815260408401356020820152606084013560408201526080840135614fc581615c7c565b6060820152919491935090915050565b60008060008060e08587031215614fea578182fd5b8435935060208501356001600160401b0380821115615007578384fd5b615013888389016145e3565b94506150228860408901614724565b935060c0870135915080821115615037578283fd5b9086019060a0828903121561504a578283fd5b60405160a08101818110838211171561505f57fe5b806040525082358152602083013560208201526040830135604082015260608301356060820152608083013582811115615097578485fd5b6150a38a8286016144f5565b6080830152509598949750929550505050565b600080600060c084860312156150ca578081fd5b833592506150db8560208601614724565b915060a08401356001600160401b03808211156150f6578283fd5b9085019060808288031215615109578283fd5b60405160808101818110838211171561511e57fe5b806040525082358152602083013560208201526040830135604082015260608301358281111561514c578485fd5b615158898286016144f5565b6060830152508093505050509250925092565b6000806000806000806000806000806000806101808d8f03121561518d578586fd5b8c516bffffffffffffffffffffffff811681146151a8578687fd5b9b506151b660208e0161421a565b9a506151c460408e0161421a565b99506151d260608e0161421a565b98506151e060808e01614855565b97506151ee60a08e0161457a565b96506151fc60c08e0161457a565b955061520a60e08e01614838565b94506101008d015193506101208d015192506152296101408e01614838565b91506152386101608e01614838565b90509295989b509295989b509295989b565b6001600160a01b03169052565b15159052565b8051825260208082015190830152604090810151910152565b615289826152848354615c5b565b61524a565b60018101546001600160a01b036152a56020850182841661524a565b6152ba6040850162ffffff8460a01c16615593565b6152c76002840154615c5b565b91506152d6606085018361524a565b6152e36003840154615c5b565b91506152f2608085018361524a565b6004830154915061530860a0850182841661524a565b5061531c60c0840160ff8360a01c16615257565b5061532d60e08301600583016154bd565b61097b6101608301600983016154bd565b805115158252602081015160208301526001600160801b036040820151166040830152606081015160608301526080810151608083015260a081015160a08301525050565b8051151582526001600160801b036020820151166020830152604081015160020b6040830152606081015160020b60608301525050565b8051600b81106153c657fe5b808352506020810151151560208301526001600160801b036040820151166040830152606081015160020b6060830152608081015160020b608083015260a081015160a083015260c081015160c08301525050565b600060a083018251845260208084015181860152604084015160408601526060840151606086015260808085015160a08288015283815180865260c08901915084830195508692505b8083101561548b57615477828751615383565b948401946001929092019190830190615464565b50979650505050505050565b805182526020810151602083015260408101516040830152606081015160608301525050565b80548252600181015460208301526002810154604083015260030154606090910152565b600061014080840183518552602060018060a01b03818601511681870152604085015115156040870152606085015161551d606088018261525d565b50608085015160c06155318189018361525d565b60a08701516101208901959095528451938490526101608801948301938692505b808310156155795761556586865161533e565b948101949383019360019290920191615552565b5093979650505050505050565b6001600160801b03169052565b62ffffff169052565b600292830b60e890811b82529190920b901b600382015260060190565b6001600160a01b0391909116815260200190565b6001600160a01b038a81168252898116602083015262ffffff8916604083015287811660608301528681166080830152851660a082015283151560c08201526101e0810161561e60e0830185615497565b61562c610160830184615497565b9a9950505050505050505050565b6001600160a01b03929092168252602082015260400190565b6020808252825182820181905260009190848201906040850190845b81811015615695576156828385516153ba565b9284019260e0929092019160010161566f565b50909695505050505050565b901515815260200190565b60029190910b815260200190565b600292830b8152910b602082015260400190565b90815260200190565b602080825260029082015261503760f01b604082015260600190565b602080825260029082015261140d60f21b604082015260600190565b602080825260029082015261503360f01b604082015260600190565b6020808252600b908201526a1a5b9a5d1a585b1a5e995960aa1b604082015260600190565b602080825260029082015261503560f01b604082015260600190565b602080825260029082015261281b60f11b604082015260600190565b60208082526017908201527f63616c6c6572206d757374206265206f70657261746f72000000000000000000604082015260600190565b60208082526003908201526221a41960e91b604082015260600190565b602080825260029082015261281960f11b604082015260600190565b9283526020830191909152604082015260600190565b60006101208201905082518252602083015160020b6020830152604083015160020b604083015260608301516158476060840182615586565b506080830151608083015260a083015160a083015260c083015160c083015260e083015160e083015261010080840151818401525092915050565b6000602080835260c083018451828501528185015160408501526040850151606085015260608501516080818187015280870151915060a08087015282825180855260e08801915085840194508693505b8084101561548b576158e6828651615383565b9385019360019390930192908201906158d3565b60006060825261590d606083018661541b565b9315156020830152506001600160a01b0391909116604090910152919050565b600060608252615940606083018661541b565b6020830194909452506001600160a01b0391909116604090910152919050565b60006101608201905082518051835260208101516020840152604081015160408401525060208301518051606084015260208101516080840152604081015160a0840152606081015160c0840152608081015160e084015260a081015161010084015260c081015161012084015260e08101516101408401525092915050565b60006020808352610160830184518285015260018060a01b03828601511660408501526040850151151560608501526060850151615a21608086018261525d565b506080850151615a3460e086018261525d565b5060a08501516101408581015280519182905282019083906101808601905b80831015615a7c57615a6682855161533e565b60c0820191508484019350600183019250615a53565b509695505050505050565b6000610220808352615a9b818401876154e1565b915050836020830152610a596040830184615276565b6000610240808352615ac5818401886154e1565b915050846020830152615adb6040830185615276565b6001600160a01b039290921661022091909101529392505050565b6000610100808301888452602088818601528760408601528260608601528192508651808352610120860193508188019250845b81811015615b5057615b3d8585516153ba565b60e0949094019392820192600101615b2a565b5050855115156080860152850151151560a0850152506040840151151560c0840152606090930151151560e09092019190915250949350505050565b9182526001600160a01b0316602082015260400190565b60008682526020868184015285604084015260018060a01b038516606084015260a0608084015283518060a0850152825b81811015615bf05785810183015185820160c001528201615bd4565b81811115615c01578360c083870101525b50601f01601f19169290920160c001979650505050505050565b6040518181016001600160401b0381118282101715615c3657fe5b604052919050565b60006001600160401b03821115615c5157fe5b5060209081020190565b6001600160a01b031690565b6001600160a01b0381168114611c8b57600080fd5b8015158114611c8b57600080fd5b600b8110611c8b57600080fd5b8060020b8114611c8b57600080fd5b6001600160801b0381168114611c8b57600080fd5b62ffffff81168114611c8b57600080fdfe496e697469616c697a61626c653a20636f6e747261637420697320616c726561647920696e697469616c697a6564536166654d6174683a206d756c7469706c69636174696f6e206f766572666c6f775369676e6564536166654d6174683a207375627472616374696f6e206f766572666c6f77a2646970667358221220a9dcf9eff4a670e39b966eb5aa79ec7028b90493e5490a38c9fb090369e3b63964736f6c63430007060033",
  "deployedBytecode": "0x608060405234801561001057600080fd5b50600436106101cf5760003560e01c80636a131b9111610104578063cb3c9a53116100a2578063e6b94fc711610071578063e6b94fc7146103c9578063eb02c301146103dc578063ee6097f0146103fc578063fea9a2c21461040f576101cf565b8063cb3c9a531461037e578063cc2c135314610386578063d0496d6a14610399578063e1af1a36146103b6576101cf565b80639403b634116100de5780639403b6341461033057806398d5fdca14610350578063b35b794214610358578063b3ab15fb1461036b576101cf565b80636a131b91146102f557806383e3ab121461031557806386e6862d14610328576101cf565b80633e12971511610171578063570ca7351161014b578063570ca735146102b257806362e0929f146102c757806365b5f6e3146102cf57806368715773146102e2576101cf565b80633e1297151461025d57806349ebb77d1461027d57806353aad1d91461029d576101cf565b80631cb05304116101ad5780631cb053041461022757806326d8d4f91461023a578063275892a21461024257806333a9d0601461024a576101cf565b8063013216f5146101d457806305943002146101fd57806305ecd00314610212575b600080fd5b6101e76101e2366004614952565b610422565b6040516101f4919061580e565b60405180910390f35b61021061020b366004614f52565b6104be565b005b61021a61058a565b6040516101f491906156ce565b61021a610235366004614a9b565b6105b9565b61021a6105df565b61021a6105e5565b6102106102583660046149a8565b6105eb565b61027061026b366004614952565b610657565b6040516101f491906156a1565b61029061028b366004614952565b61066b565b6040516101f49190615960565b6102a561084d565b6040516101f491906156ac565b6102ba6108d6565b6040516101f491906155b9565b6102706108e5565b6102106102dd36600461487c565b6108f5565b6102106102f036600461498d565b61097f565b610308610303366004614bd0565b6109c7565b6040516101f49190615653565b61021a610323366004614fd5565b610a61565b6102ba610b37565b61034361033e366004614952565b610bc0565b6040516101f491906159e0565b61021a610cfe565b610210610366366004614e76565b610d1a565b610210610379366004614860565b6111a3565b6102ba6111ef565b610308610394366004614b6f565b61128e565b6103a16112cc565b6040516101f4999897969594939291906155cd565b61021a6103c43660046150b6565b611367565b61021a6103d7366004614ec3565b61143d565b6103ef6103ea366004614952565b611649565b6040516101f49190615882565b61021061040a3660046149dd565b611663565b61021a61041d366004614952565b611a25565b61042a614055565b5060008181526002602081815260409283902083516101208101855281548152600182015480850b850b850b9382019390935263010000008304840b840b840b94810194909452600160301b9091046001600160801b03166060840152908101546080830152600381015460a0830152600481015460c0830152600581015460e0830152600601546101008201525b919050565b600073__$7ffffda71c6e7abde662efb5427d8d1c5d$__635960a9826104e385611649565b84604001516104f0610b37565b6040518463ffffffff1660e01b815260040161050e9392919061592d565b60006040518083038186803b15801561052657600080fd5b505af415801561053a573d6000803e3d6000fd5b505050506040513d6000823e601f3d908101601f191682016040526105629190810190614904565b905061057383828460600151610d1a565b61058582600001518360200151611b07565b505050565b6009546000906105b490600160a01b900460ff166105a66111ef565b6001600160a01b0316611b4f565b905090565b60006105d9826105c76111ef565b600954600160a01b900460ff16611c17565b92915050565b60035481565b60015481565b601f546001600160a01b0316331461061e5760405162461bcd60e51b815260040161061590615788565b60405180910390fd5b8151601a55602080830151601b55604080840151601c55606093840151601d558251601655908201516017558101516018550151601955565b600061066282611c4e565b6105d982611c8e565b6106736140b0565b600061067d610b37565b905061068883611c4e565b6000838152600460208181526040808420815160c0810183528154815260018201546001600160a01b03811682860152600160a01b900460ff1615158184015282516060808201855260028401548252600384015482870152958301548185015285820152825194850183526005820154855260068201548585015260078201548584015260808101949094526008810180548351818602810186019094528084529495919460a08701949192909184015b828210156107b05760008481526020908190206040805160c08101825260068602909201805460ff16151583526001808201548486015260028201546001600160801b03169284019290925260038101546060840152600481015460808401526005015460a0830152908352909201910161073a565b50505091525050604051632e22696560e11b815273__$b4a4919001844372a79711112cfb20c2b9$__91635c44d2ca916107f591906002906005908790600401615ab1565b6101606040518083038186803b15801561080e57600080fd5b505af4158015610822573d6000803e3d6000fd5b505050506040513d601f19601f820116820180604052508101906108469190614c1d565b9392505050565b60095460408051633850c7bd60e01b815290516000926001600160a01b031691633850c7bd9160048281019260e0929190829003018186803b15801561089257600080fd5b505afa1580156108a6573d6000803e3d6000fd5b505050506040513d601f19601f820116820180604052508101906108ca9190614d57565b50939695505050505050565b601f546001600160a01b031681565b600954600160a01b900460ff1690565b601f546001600160a01b0316331461091f5760405162461bcd60e51b815260040161061590615788565b60005b815181101561097b5760008083838151811061093a57fe5b60200260200101518060200190518101906109559190614e32565b915091506109638282611d57565b610970828260008061208a565b505050600101610922565b5050565b601f546001600160a01b031633146109a95760405162461bcd60e51b815260040161061590615788565b80516012556020810151601355604081015160145560600151601555565b604051632cb054c160e11b815260609073__$7ffffda71c6e7abde662efb5427d8d1c5d$__90635960a98290610a059087908790879060040161592d565b60006040518083038186803b158015610a1d57600080fd5b505af4158015610a31573d6000803e3d6000fd5b505050506040513d6000823e601f3d908101601f19168201604052610a599190810190614904565b949350505050565b60008073__$7ffffda71c6e7abde662efb5427d8d1c5d$__63b5b49eb2868660600151610a8c610b37565b6040518463ffffffff1660e01b8152600401610aaa939291906158fa565b60006040518083038186803b158015610ac257600080fd5b505af4158015610ad6573d6000803e3d6000fd5b505050506040513d6000823e601f3d908101601f19168201604052610afe9190810190614904565b9050610b1a86828560400151866060015188886080015161143d565b9150610b2e83600001518460200151611b07565b50949350505050565b60095460408051633850c7bd60e01b815290516000926001600160a01b031691633850c7bd9160048281019260e0929190829003018186803b158015610b7c57600080fd5b505afa158015610b90573d6000803e3d6000fd5b505050506040513d601f19601f82011682018060405250810190610bb49190614d57565b50949695505050505050565b610bc86140d5565b6000828152600460208181526040808420815160c0810183528154815260018201546001600160a01b03811682860152600160a01b900460ff1615158184015282516060808201855260028401548252600384015482870152958301548185015285820152825194850183526005820154855260068201548585015260078201548584015260808101949094526008810180548351818602810186019094528084529495919460a08701949192909184015b82821015610cf05760008481526020908190206040805160c08101825260068602909201805460ff16151583526001808201548486015260028201546001600160801b03169284019290925260038101546060840152600481015460808401526005015460a08301529083529092019101610c7a565b505050915250909392505050565b6009546000906105b490600160a01b900460ff166105a6610b37565b610d248383611d57565b610d2d83611c8e565b610d495760405162461bcd60e51b8152600401610615906156f3565b600954604051632b44ebb960e21b815260009173__$33c292c158d5f9ac43a728d8230e22b075$__9163ad13aee491610d93916001600160a01b0390911690603c9060040161563a565b604080518083038186803b158015610daa57600080fd5b505af4158015610dbe573d6000803e3d6000fd5b505050506040513d601f19601f82011682018060405250810190610de29190614ded565b506000858152600460208181526040808420815160c0810183528154815260018201546001600160a01b03811682860152600160a01b900460ff16151581840152825160608082018552600284015482526003840154828701529583015481850152858201528251948501835260058201548552600682015485850152600782015485840152608081019490945260088101805483518186028101860190945280845296975094959394909360a0860193879084015b82821015610f0e5760008481526020908190206040805160c08101825260068602909201805460ff16151583526001808201548486015260028201546001600160801b03169284019290925260038101546060840152600481015460808401526005015460a08301529083529092019101610e98565b5050509152505060405163571e620160e11b815273__$b4a4919001844372a79711112cfb20c2b9$__9163ae3cc40291610f5391906002906005908890600401615ab1565b60206040518083038186803b158015610f6b57600080fd5b505af4158015610f7f573d6000803e3d6000fd5b505050506040513d601f19601f82011682018060405250810190610fa39190614e1a565b90506000610fb6868660c885048761208a565b6000878152600460208181526040808420815160c0810183528154815260018201546001600160a01b03811682860152600160a01b900460ff1615158184015282516060808201855260028401548252600384015482870152958301548185015285820152825194850183526005820154855260068201548585015260078201548584015260808101949094526008810180548351818602810186019094528084529697509395909460a0870194929384015b828210156110df5760008481526020908190206040805160c08101825260068602909201805460ff16151583526001808201548486015260028201546001600160801b03169284019290925260038101546060840152600481015460808401526005015460a08301529083529092019101611069565b5050509152505060405163571e620160e11b815273__$b4a4919001844372a79711112cfb20c2b9$__9163ae3cc4029161112491906002906005908990600401615ab1565b60206040518083038186803b15801561113c57600080fd5b505af4158015611150573d6000803e3d6000fd5b505050506040513d601f19601f820116820180604052508101906111749190614e1a565b156111915760405162461bcd60e51b8152600401610615906156d7565b61119b338261221e565b505050505050565b601f546001600160a01b031633146111cd5760405162461bcd60e51b815260040161061590615788565b601f80546001600160a01b0319166001600160a01b0392909216919091179055565b600954604051632b44ebb960e21b815260009173__$33c292c158d5f9ac43a728d8230e22b075$__9163ad13aee491611239916001600160a01b0390911690603c9060040161563a565b604080518083038186803b15801561125057600080fd5b505af4158015611264573d6000803e3d6000fd5b505050506040513d601f19601f820116820180604052508101906112889190614ded565b50919050565b604051635ada4f5960e11b815260609073__$7ffffda71c6e7abde662efb5427d8d1c5d$__9063b5b49eb290610a05908790879087906004016158fa565b6005546006546007546008546009546040805160808082018352600a548252600b54602080840191909152600c5483850152600d5460608085019190915284519283018552600e548352600f549183019190915260105493820193909352601154928101929092526001600160a01b039687169680871696600160a01b9081900462ffffff169682169582169491821693910460ff16919089565b60008073__$7ffffda71c6e7abde662efb5427d8d1c5d$__635960a98261138d87611649565b856040015161139a610b37565b6040518463ffffffff1660e01b81526004016113b89392919061592d565b60006040518083038186803b1580156113d057600080fd5b505af41580156113e4573d6000803e3d6000fd5b505050506040513d6000823e601f3d908101601f1916820160405261140c9190810190614904565b9050611421858260008088886060015161143d565b915061143583600001518460200151611b07565b509392505050565b60006114498787611d57565b6000611459888560400151612258565b9092509050851561147c5760055461147c906001600160a01b0316333089612338565b841561149a5760065461149a906001600160a01b0316333088612338565b60008073__$da03e66f624374a74ff67f4d42d7f52632$__636728565784600560028d8b6040518663ffffffff1660e01b81526004016114de959493929190615af6565b604080518083038186803b1580156114f557600080fd5b505af4158015611509573d6000803e3d6000fd5b505050506040513d601f19601f8201168201806040525081019061152d919061496a565b91509150856040015115611545576115458282612488565b61154e84611c8e565b1561156b5760405162461bcd60e51b81526004016106159061570f565b8188121561158b5760405162461bcd60e51b815260040161061590615750565b808712156115ab5760405162461bcd60e51b81526004016106159061576c565b818813156115d3576005546115d3906001600160a01b0316336115ce8b86612499565b6124fe565b808713156115f6576006546115f6906001600160a01b0316336115ce8a85612499565b7fabc710e8ab5c8f4ea5d70ef0f4c50f12dd4804fa7e04ce65aa8c813197b64bea848383611622610b37565b89604051611634959493929190615ba3565b60405180910390a15050509695505050505050565b611651614122565b61165a82611c4e565b6105d982612645565b600054610100900460ff168061167c575061167c61280e565b8061168a575060005460ff16155b6116c55760405162461bcd60e51b815260040180806020018281038252602e815260200180615ccd602e913960400191505060405180910390fd5b600054610100900460ff161580156116f0576000805460ff1961ff0019909116610100171660011790555b845160068054602080890151600580546001600160a01b03199081166001600160a01b0393841617918290556040808d015162ffffff60a01b19909616600160a01b62ffffff998a16810291909117831696851696909617968790556060808e01516009805460ff60a01b191691151589029190911790556007805484168e8716179055600880549093168b8616179092558051918201815291831681529185169282019290925291909204909216908201526117ad848261281f565b600980546001600160a01b0319166001600160a01b03928316179055600160035560055460405163095ea7b360e01b815291169063095ea7b3906117f99088906000199060040161563a565b602060405180830381600087803b15801561181357600080fd5b505af1158015611827573d6000803e3d6000fd5b505050506040513d601f19601f8201168201806040525081019061184b9190614936565b5060065460405163095ea7b360e01b81526001600160a01b039091169063095ea7b3906118809088906000199060040161563a565b602060405180830381600087803b15801561189a57600080fd5b505af11580156118ae573d6000803e3d6000fd5b505050506040513d601f19601f820116820180604052508101906118d29190614936565b5060055460405163095ea7b360e01b81526001600160a01b039091169063095ea7b3906119079086906000199060040161563a565b602060405180830381600087803b15801561192157600080fd5b505af1158015611935573d6000803e3d6000fd5b505050506040513d601f19601f820116820180604052508101906119599190614936565b5060065460405163095ea7b360e01b81526001600160a01b039091169063095ea7b39061198e9086906000199060040161563a565b602060405180830381600087803b1580156119a857600080fd5b505af11580156119bc573d6000803e3d6000fd5b505050506040513d601f19601f820116820180604052508101906119e09190614936565b506119eb600a612903565b6119f5600e612903565b5042600155601f80546001600160a01b031916331790558015611a1e576000805461ff00191690555b5050505050565b60408051610120810182526005546001600160a01b039081168252600654808216602080850191909152600160a01b9182900462ffffff16848601526007548316606080860191909152600854841660808087019190915260095494851660a08701529290930460ff16151560c085015284518083018652600a548152600b5481830152600c5481870152600d548185015260e085015284519182018552600e548252600f54828201526010548286015260115492820192909252610100830152600084815260029091529182206105d991601691611b02610b37565b61291b565b6000611b11610cfe565b90508061271083810385020411158015611b3357506127108281018402048111155b6105855760405162461bcd60e51b8152600401610615906157bf565b6000670de0b6b3a76400008315611bb757611b78838483600160c01b81611b7257fe5b04612a81565b915081611b97576ec097ce7bc90715b34b9f10000000009150506105d9565b816ec097ce7bc90715b34b9f100000000081611baf57fe5b049150611bd8565b600160601b81611bcc8586600160601b612a81565b0281611bd457fe5b0491505b6ec097ce7bc90715b34b9f1000000000821115611c06576ec097ce7bc90715b34b9f10000000009150611c10565b81611c1057600191505b5092915050565b600080611c25858585612b30565b90506000611c34868686612c4f565b9150508160648281611c4257fe5b05039695505050505050565b60408051600080825260208201909252611c8b91839190611c85565b611c72614151565b815260200190600190039081611c6a5790505b50611d57565b50565b600954604051632b44ebb960e21b8152600091829173__$33c292c158d5f9ac43a728d8230e22b075$__9163ad13aee491611cd8916001600160a01b031690603c9060040161563a565b604080518083038186803b158015611cef57600080fd5b505af4158015611d03573d6000803e3d6000fd5b505050506040513d601f19601f82011682018060405250810190611d279190614ded565b5090506000611d4c611d3885612645565b6009548490600160a01b900460ff16611c17565b600012949350505050565b6000828152600460205260408120905b6008820154811015611e915760408051610120810182526005546001600160a01b03908116825260065480821660208085019190915262ffffff600160a01b928390041684860152600754831660608086019190915260088054851660808088019190915260095495861660a088015260ff9490950493909316151560c086015285518085018752600a548152600b5481840152600c5481880152600d548183015260e086015285519384018652600e548452600f549184019190915260105494830194909452601154938201939093526101008201529083018054611e8992601692909160029160009187908110611e5c57fe5b9060005260206000209060060201600101548152602001908152602001600020611e84610b37565b612dff565b600101611d67565b5060005b8251811015611fdc576000611ed8848381518110611eaf57fe5b602002602001015160600151858481518110611ec757fe5b602002602001015160800151612f45565b600081815260026020526040902054909150611ef45750611fd4565b60408051610120810182526005546001600160a01b039081168252600654808216602080850191909152600160a01b9182900462ffffff16848601526007548316606080860191909152600854841660808087019190915260095494851660a08701529290930460ff16151560c085015284518083018652600a548152600b5481830152600c5481870152600d548185015260e085015284519182018552600e548252600f548282015260105482860152601154928201929092526101008301526000848152600290915291909120611fd291601691611e84610b37565b505b600101611e95565b50604080516080810182526012548152601354602082015260145491810191909152601554606082015260015461201591600591612f78565b600155604051633925559360e11b815273__$da03e66f624374a74ff67f4d42d7f52632$__9063724aab26906120559060059085906002906004016157f8565b60006040518083038186803b15801561206d57600080fd5b505af4158015612081573d6000803e3d6000fd5b50505050505050565b600084815260046020818152604080842081516080810183526001815286151593810193909352828201859052600954600160a01b900460ff16151560608401529051636728565760e01b815290928492839273__$da03e66f624374a74ff67f4d42d7f52632$__9263672856579261210d9288926005926002928f9201615af6565b604080518083038186803b15801561212457600080fd5b505af4158015612138573d6000803e3d6000fd5b505050506040513d601f19601f8201168201806040525081019061215c919061496a565b60009182039350810391508212156121865760405162461bcd60e51b815260040161061590615750565b80600013156121a75760405162461bcd60e51b81526004016106159061576c565b600954600160a01b900460ff16156121cc576121c382876130b2565b945091506121db565b6121d681876130b2565b945090505b81600012156121f7576121f5600a600285018460006130d2565b505b806000121561221357612211600e600585018360006130d2565b505b505050949350505050565b60095461097b90600160a01b900460ff16612244576006546001600160a01b0316612251565b6005546001600160a01b03165b83836124fe565b600080836122dd576003805460018082019092556000818152600460205260409081902082815590920180546001600160a01b03191633179081905591519093507fbf3e9c93de94306b70ac5b9411edf475545815333bf651b894b9eada6482c594916122d09185916001600160a01b031690615b8c565b60405180910390a1612321565b6000848152600460205260409020600101548492506001600160a01b03163314806123055750825b6123215760405162461bcd60e51b8152600401610615906157dc565b5060008181526004602052604090205b9250929050565b604080516001600160a01b0385811660248301528481166044830152606480830185905283518084039091018152608490920183526020820180516001600160e01b03166323b872dd60e01b178152925182516000948594938a169392918291908083835b602083106123bc5780518252601f19909201916020918201910161239d565b6001836020036101000a0380198251168184511680821785525050505050509050019150506000604051808303816000865af19150503d806000811461241e576040519150601f19603f3d011682016040523d82523d6000602084013e612423565b606091505b5091509150818015612451575080511580612451575080806020019051602081101561244e57600080fd5b50515b61119b576040805162461bcd60e51b815260206004820152600360248201526229aa2360e91b604482015290519081900360640190fd5b602051828152816020820152604081fd5b60008183038183128015906124ae5750838113155b806124c357506000831280156124c357508381135b6108465760405162461bcd60e51b8152600401808060200182810382526024815260200180615d1c6024913960400191505060405180910390fd5b604080516001600160a01b038481166024830152604480830185905283518084039091018152606490920183526020820180516001600160e01b031663a9059cbb60e01b1781529251825160009485949389169392918291908083835b6020831061257a5780518252601f19909201916020918201910161255b565b6001836020036101000a0380198251168184511680821785525050505050509050019150506000604051808303816000865af19150503d80600081146125dc576040519150601f19603f3d011682016040523d82523d6000602084013e6125e1565b606091505b509150915081801561260f57508051158061260f575080806020019051602081101561260c57600080fd5b50515b611a1e576040805162461bcd60e51b815260206004820152600260248201526114d560f21b604482015290519081900360640190fd5b61264d614122565b6000828152600460208181526040808420815160c0810183528154815260018201546001600160a01b03811682860152600160a01b900460ff161515818401528251606080820185526002840154825260038401548287015295830154818501528582015282519485018352600582015485526006820154858501526007820154858401526080810194909452600881018054835181860281018601909452808452919360a08601939290879084015b828210156127735760008481526020908190206040805160c08101825260068602909201805460ff16151583526001808201548486015260028201546001600160801b03169284019290925260038101546060840152600481015460808401526005015460a083015290835290920191016126fd565b505050915250506040516349ad1ba560e01b815290915073__$b4a4919001844372a79711112cfb20c2b9$__906349ad1ba5906127ba908490600290600590600401615a87565b60006040518083038186803b1580156127d257600080fd5b505af41580156127e6573d6000803e3d6000fd5b505050506040513d6000823e601f3d908101601f191682016040526108469190810190614acd565b600061281930613131565b15905090565b600081602001516001600160a01b031682600001516001600160a01b03161061284757600080fd5b50805160208083015160409384015184516001600160a01b0394851681850152939091168385015262ffffff166060808401919091528351808403820181526080840185528051908301206001600160f81b031960a085015294901b6bffffffffffffffffffffffff191660a183015260b58201939093527fe34f199b19b2b4f47f68442619d555527d244f78a3297ea89325f843f87b8b5460d5808301919091528251808303909101815260f5909101909152805191012090565b670de0b6b3a764000060028201819055600390910155565b6001820154600090600160301b90046001600160801b031615612a765760006129448585613137565b60a08601516001860154919250600091612a0191612974918a9190600281810b9163010000009004900b876131d4565b6040805161012081018252885481526001890154600281810b810b810b602084015263010000008204810b810b810b93830193909352600160301b90046001600160801b03166060820152908801546080820152600388015460a0820152600488015460c0820152600588015460e082015260068801546101008201526129fc908990613433565b6134da565b90506000612a688760c00151612a4d8a600401604051806080016040529081600082015481526020016001820154815260200160028201548152602001600382015481525050866134f7565b60018901548890600281810b9163010000009004900b61356c565b919091019250610a59915050565b506000949350505050565b6000808060001985870986860292508281109083900303905080612ab75760008411612aac57600080fd5b508290049050610846565b808411612ac357600080fd5b6000848688096000868103871696879004966002600389028118808a02820302808a02820302808a02820302808a02820302808a02820302808a02909103029181900381900460010186841190950394909402919094039290920491909117919091029150509392505050565b6001600160ff1b036305f5e1006001600160a01b03630554c99f85028116829004916306a9fc0786029091160460005b866080015151811015612c0d57600087608001518281518110612b7f57fe5b602002602001015190508060000151612c03576000612ba682606001518360400151613604565b9050846001600160a01b0316816001600160a01b03161080612bd95750806001600160a01b0316846001600160a01b0316105b15612be5575050612c05565b6000612bf28a838a613616565b905080871315612c00578096505b50505b505b600101612b60565b506000612c1b878387613616565b905080841315612c29578093505b506000612c37878487613616565b905080841315612c45578093505b5050509392505050565b8251602084015160408501516060860151600093849390929091845b896080015151811015612d8a5760008a608001518281518110612c8a57fe5b602002602001015190506000612ca38260400151613632565b90506000612cb48360600151613632565b8351909150158015612cd857508b6001600160a01b0316826001600160a01b031611155b8015612cf65750806001600160a01b03168c6001600160a01b031611155b15612d4757600160601b612d0d8460400151613632565b612d1a8560600151613632565b0384602001516001600160801b0316026001600160a01b031681612d3a57fe5b0485019450505050612d82565b600080612d5a8e85858860200151613964565b8651919350915015612d73579881019897880197612d7c565b96810196958601955b50505050505b600101612c6b565b506000612da0888a6001600160a01b0316611b4f565b90508715612dcf57670de0b6b3a76400008482020485019650670de0b6b3a76400008282020483019550612df2565b83670de0b6b3a76400008683020401965081670de0b6b3a7640000848302040195505b5050505050935093915050565b81600601544211612e0f57612f3f565b6001820154600160301b90046001600160801b031615612f145760006301e13380612e3c8686868661291b565b846006015442030281612e4b57fe5b049050612e65818460020154613a0090919063ffffffff16565b6002848101829055600185015460408051610120810182528754815282840b840b840b602082015263010000008304840b840b90930b90830152600160301b90046001600160801b0316606082018190526080820192909252600385015460a0820152600485015460c0820152600585015460e08201526006850154610100820152612f0d91612f0291849190612efd908990613a5a565b613a7c565b600385015490613a00565b6003840155505b60a08301516001830154612f38918691600281810b9163010000009004900b613a92565b4260068301555b50505050565b60008282604051602001612f5a9291906156ba565b60405160208183030381529060405280519060200120905092915050565b6000814211612f88575080610846565b604080516101208101825285546001600160a01b0390811682526001870154808216602080850191909152600160a01b9182900462ffffff16848601526002890154831660608086019190915260038a0154841660808087019190915260048b015494851660a08701529290930460ff16151560c08501528451808301865260058a0154815260068a01548183015260078a01548187015260088a01548185015260e08501528451918201855260098901548252600a89015490820152600b88015493810193909352600c870154908301526101008101919091526000906301e133809061308090869061307b90613c79565b6134f7565b844203028161308b57fe5b04905061309b6005860182613cb5565b6130a86009860182613cb5565b5042949350505050565b6000808284106130c757505080820381612331565b506000905082612331565b6000811561311b576130f183670de0b6b3a76400008760020154613a7c565b60018501549091506131039082613a00565b600185015584546131149082613a00565b8555610a59565b83546131279084613a00565b8455949350505050565b3b151590565b6001810154604080516101208101825283548152600283810b810b810b602083015263010000008404810b810b810b92820192909252600160301b9092046001600160801b031660608301819052908301546080830152600383015460a0830152600483015460c0830152600583015460e083015260068301546101008301526000916108469190670de0b6b3a764000090612efd908790613a5a565b600080856001600160a01b031663f30583996040518163ffffffff1660e01b815260040160206040518083038186803b15801561321057600080fd5b505afa158015613224573d6000803e3d6000fd5b505050506040513d601f19601f820116820180604052508101906132489190614e1a565b90506000866001600160a01b031663461413196040518163ffffffff1660e01b815260040160206040518083038186803b15801561328557600080fd5b505afa158015613299573d6000803e3d6000fd5b505050506040513d601f19601f820116820180604052508101906132bd9190614e1a565b90506000876001600160a01b0316633850c7bd6040518163ffffffff1660e01b815260040160e06040518083038186803b1580156132fa57600080fd5b505afa15801561330e573d6000803e3d6000fd5b505050506040513d601f19601f820116820180604052508101906133329190614d57565b505050505091505060008061335e61334a8b8b613d29565b6133548c8b613d29565b8b8b878a8a613df5565b915091506000898960405160200161337792919061559c565b6040516020818303038152906040528051906020012090506134236133d28d6000016040518060800160405290816000820154815260200160018201548152602001600282015481526020016003820154815250508a6134f7565b8d600801600084815260200190815260200160002060405180608001604052908160008201548152602001600182015481526020016002820154815260200160038201548152505085858a8a613e72565b9c9b505050505050505050505050565b6060820151815160405163133f757160e31b815260009283926001600160a01b03909116916399fbab889161346a916004016156ce565b6101806040518083038186803b15801561348357600080fd5b505afa158015613497573d6000803e3d6000fd5b505050506040513d601f19601f820116820180604052508101906134bb919061516b565b50506001600160801b039092169a505050505050505050505092915050565b60008183670de0b6b3a764000002816134ef57fe5b049392505050565b8151602083015160009190831161352657670de0b6b3a7640000846040015184028161351f57fe5b0401610846565b670de0b6b3a764000084604001518560200151028161354157fe5b0481019050670de0b6b3a7640000846020015184038560600151028161356357fe5b04019392505050565b60008060006135958661357e87613632565b61358787613632565b670de0b6b3a7640000613964565b9150915060006135ae89886001600160a01b0316611b4f565b905088156135d257826135ca8383670de0b6b3a7640000613a7c565b0193506135ea565b816135e68483670de0b6b3a7640000613a7c565b0193505b670de0b6b3a7640000848902049998505050505050505050565b60006108466002848401810b05613632565b6000806000613626868686612c4f565b90039695505050505050565b60008060008360020b12613649578260020b613651565b8260020b6000035b9050620d89e881111561368f576040805162461bcd60e51b81526020600482015260016024820152601560fa1b604482015290519081900360640190fd5b6000600182166136a357600160801b6136b5565b6ffffcb933bd6fad37aa2d162d1a5940015b70ffffffffffffffffffffffffffffffffff16905060028216156136e9576ffff97272373d413259a46990580e213a0260801c5b6004821615613708576ffff2e50f5f656932ef12357cf3c7fdcc0260801c5b6008821615613727576fffe5caca7e10e4e61c3624eaa0941cd00260801c5b6010821615613746576fffcb9843d60f6159c9db58835c9266440260801c5b6020821615613765576fff973b41fa98c081472e6896dfb254c00260801c5b6040821615613784576fff2ea16466c96a3843ec78b326b528610260801c5b60808216156137a3576ffe5dee046a99a2a811c461f1969c30530260801c5b6101008216156137c3576ffcbe86c7900a88aedcffc83b479aa3a40260801c5b6102008216156137e3576ff987a7253ac413176f2b074cf7815e540260801c5b610400821615613803576ff3392b0822b70005940c7a398e4b70f30260801c5b610800821615613823576fe7159475a2c29b7443b29c7fa6e889d90260801c5b611000821615613843576fd097f3bdfd2022b8845ad8f792aa58250260801c5b612000821615613863576fa9f746462d870fdf8a65dc1f90e061e50260801c5b614000821615613883576f70d869a156d2a1b890bb3df62baf32f70260801c5b6180008216156138a3576f31be135f97d08fd981231505542fcfa60260801c5b620100008216156138c4576f09aa508b5b7a84e1c677de54f3e99bc90260801c5b620200008216156138e4576e5d6af8dedb81196699c329225ee6040260801c5b62040000821615613903576d2216e584f5fa1ea926041bedfe980260801c5b62080000821615613920576b048a170391f7dc42444e8fa20260801c5b60008460020b131561393b57806000198161393757fe5b0490505b64010000000081061561394f576001613952565b60005b60ff16602082901c0192505050919050565b600080836001600160a01b0316856001600160a01b03161115613985579293925b846001600160a01b0316866001600160a01b0316116139b0576139a9858585613ef1565b91506139f7565b836001600160a01b0316866001600160a01b031610156139e9576139d5868585613ef1565b91506139e2858785613f5a565b90506139f7565b6139f4858585613f5a565b90505b94509492505050565b600082820183811015610846576040805162461bcd60e51b815260206004820152601b60248201527f536166654d6174683a206164646974696f6e206f766572666c6f770000000000604482015290519081900360640190fd5b600081606001516001600160801b0316613a748484613433565b019392505050565b6000610a5982613a8c8686613f9d565b90613ff6565b6000836001600160a01b031663f30583996040518163ffffffff1660e01b815260040160206040518083038186803b158015613acd57600080fd5b505afa158015613ae1573d6000803e3d6000fd5b505050506040513d601f19601f82011682018060405250810190613b059190614e1a565b90506000846001600160a01b031663461413196040518163ffffffff1660e01b815260040160206040518083038186803b158015613b4257600080fd5b505afa158015613b56573d6000803e3d6000fd5b505050506040513d601f19601f82011682018060405250810190613b7a9190614e1a565b90506000856001600160a01b0316633850c7bd6040518163ffffffff1660e01b815260040160e06040518083038186803b158015613bb757600080fd5b505afa158015613bcb573d6000803e3d6000fd5b505050506040513d601f19601f82011682018060405250810190613bef9190614d57565b5050505050915050600080613c1b613c078989613d29565b613c118a89613d29565b8989878a8a613df5565b9150915060008787604051602001613c3492919061559c565b60408051601f19818403018152918152815160209283012060009081526008909c01909152909920918255600182015560028101939093555060039091015550505050565b60e081015151600090613c955750670de0b6b3a76400006104b9565b60e0820151602081015190516105d99190670de0b6b3a764000090613a7c565b8154613cc05761097b565b613ce1826003015482670de0b6b3a764000001670de0b6b3a7640000613a7c565b600383015560018201548254600091613cfc91849190613a7c565b670de0b6b3a7640000019050613d1f836002015482670de0b6b3a7640000613a7c565b6002840155505050565b613d3161418f565b6000806000856001600160a01b031663f30dba93866040518263ffffffff1660e01b8152600401613d6291906156ac565b6101006040518083038186803b158015613d7b57600080fd5b505afa158015613d8f573d6000803e3d6000fd5b505050506040513d601f19601f82011682018060405250810190613db39190614cad565b975050505094509450505080613ddb5760405162461bcd60e51b81526004016106159061572b565b506040805180820190915291825260208201529392505050565b6000806000808860020b8760020b12613e16575050885160208a0151613e26565b5050885160208a01519085039084035b6000808960020b8960020b1215613e45575050895160208b0151613e55565b5050895160208b01519087039086035b92909603959095039a949093039290920397509195505050505050565b60008060008760400151851115613ea6578760400151850388600001518803670de0b6b3a76400000281613ea257fe5b0491505b8760600151841115613ed5578760600151840388602001518703670de0b6b3a76400000281613ed157fe5b0490505b671bc16d674ec800008282018a02049998505050505050505050565b6000826001600160a01b0316846001600160a01b03161115613f11579192915b836001600160a01b0316613f4a606060ff16846001600160801b0316901b8686036001600160a01b0316866001600160a01b0316612a81565b81613f5157fe5b04949350505050565b6000826001600160a01b0316846001600160a01b03161115613f7a579192915b610a59826001600160801b03168585036001600160a01b0316600160601b612a81565b600082613fac575060006105d9565b82820282848281613fb957fe5b04146108465760405162461bcd60e51b8152600401808060200182810382526021815260200180615cfb6021913960400191505060405180910390fd5b600080821161404c576040805162461bcd60e51b815260206004820152601a60248201527f536166654d6174683a206469766973696f6e206279207a65726f000000000000604482015290519081900360640190fd5b8183816134ef57fe5b60405180610120016040528060008152602001600060020b8152602001600060020b815260200160006001600160801b0316815260200160008152602001600081526020016000815260200160008152602001600081525090565b60405180604001604052806140c36141a9565b81526020016140d06141ca565b905290565b6040518060c001604052806000815260200160006001600160a01b031681526020016000151581526020016141086141a9565b81526020016141156141a9565b8152602001606081525090565b6040518060a0016040528060008152602001600081526020016000815260200160008152602001606081525090565b6040805160e08101909152806000815260006020820181905260408201819052606082018190526080820181905260a0820181905260c09091015290565b604051806040016040528060008152602001600081525090565b60405180606001604052806000815260200160008152602001600081525090565b60405180610100016040528060008152602001600081526020016000815260200160008152602001600081526020016000815260200160008152602001600081525090565b80356104b981615c67565b80516104b981615c67565b600082601f830112614235578081fd5b8151602061424a61424583615c3e565b615c1b565b82815281810190858301608080860288018501891015614268578687fd5b865b868110156142f95781838b031215614280578788fd5b604080518381018181106001600160401b038211171561429c57fe5b825284516142a981615c7c565b8152848801516142b881615ca6565b81890152848201516142c981615c97565b80838301525060609150818501516142e081615c97565b918101919091528552938501939181019160010161426a565b509198975050505050505050565b600082601f830112614317578081fd5b8135602061432761424583615c3e565b8281528181019085830160e080860288018501891015614345578687fd5b865b868110156142f95781838b03121561435d578788fd5b604080518381018181106001600160401b038211171561437957fe5b825261438485614559565b81526143918886016144df565b888201526143a082860161482d565b82820152606091506143b382860161456f565b82820152608091506143c682860161456f565b9181019190915260a0848101359082015260c0808501359082015285529385019391810191600101614347565b600082601f830112614403578081fd5b8151602061441361424583615c3e565b8281528181019085830160e080860288018501891015614431578687fd5b865b868110156142f95781838b031215614449578788fd5b604080518381018181106001600160401b038211171561446557fe5b825261447085614564565b815261447d8886016144ea565b8882015261448c828601614838565b828201526060915061449f82860161457a565b82820152608091506144b282860161457a565b9181019190915260a0848101519082015260c0808501519082015285529385019391810191600101614433565b80356104b981615c7c565b80516104b981615c7c565b600082601f830112614505578081fd5b81356001600160401b0381111561451857fe5b61452b601f8201601f1916602001615c1b565b81815284602083860101111561453f578283fd5b816020850160208301379081016020019190915292915050565b80356104b981615c8a565b80516104b981615c8a565b80356104b981615c97565b80516104b981615c97565b600060808284031215614596578081fd5b604051608081018181106001600160401b03821117156145b257fe5b8060405250809150823581526020830135602082015260408301356040820152606083013560608201525092915050565b600060a082840312156145f4578081fd5b6040805160a081016001600160401b03828210818311171561461257fe5b818452829450853583526020915081860135828401528386013584840152606080870135818501526080808801358381111561464d57600080fd5b8801601f81018a1361465e57600080fd5b803561466c61424582615c3e565b81815286810190838801858402850189018e101561468957600080fd5b600094505b8385101561470e5785818f0312156146a557600080fd5b8a518681018181108a821117156146b857fe5b8c5281356146c581615c7c565b8152818a01356146d481615ca6565b818b0152818c01356146e581615c97565b818d0152818801356146f681615c97565b8189015283526001949094019391880191850161468e565b5080858a01525050505050505050505092915050565b600060808284031215614735578081fd5b604051608081018181106001600160401b038211171561475157fe5b604052905080823561476281615c7c565b8152602083013561477281615c7c565b6020820152604083013561478581615c7c565b6040820152606083013561479881615c7c565b6060919091015292915050565b60006101008083850312156147b8578182fd5b604051908101906001600160401b03821181831017156147d457fe5b81604052809250835181526020840151602082015260408401516040820152606084015160608201526080840151608082015260a084015160a082015260c084015160c082015260e084015160e0820152505092915050565b80356104b981615ca6565b80516104b981615ca6565b805161ffff811681146104b957600080fd5b80516104b981615cbb565b600060208284031215614871578081fd5b813561084681615c67565b6000602080838503121561488e578182fd5b82356001600160401b038111156148a3578283fd5b8301601f810185136148b3578283fd5b80356148c161424582615c3e565b81815283810190838501865b848110156148f6576148e48a8884358901016144f5565b845292860192908601906001016148cd565b509098975050505050505050565b600060208284031215614915578081fd5b81516001600160401b0381111561492a578182fd5b610a59848285016143f3565b600060208284031215614947578081fd5b815161084681615c7c565b600060208284031215614963578081fd5b5035919050565b6000806040838503121561497c578081fd5b505080516020909101519092909150565b60006080828403121561499e578081fd5b6108468383614585565b60008061010083850312156149bb578182fd5b6149c58484614585565b91506149d48460808501614585565b90509250929050565b60008060008084860360e08112156149f3578283fd5b6080811215614a00578283fd5b50604051608081018181106001600160401b0382111715614a1d57fe5b6040528535614a2b81615cbb565b81526020860135614a3b81615c67565b60208201526040860135614a4e81615c67565b60408201526060860135614a6181615c7c565b60608201529350614a746080860161420f565b9250614a8260a0860161420f565b9150614a9060c0860161420f565b905092959194509250565b600060208284031215614aac578081fd5b81356001600160401b03811115614ac1578182fd5b610a59848285016145e3565b600060208284031215614ade578081fd5b81516001600160401b0380821115614af4578283fd5b9083019060a08286031215614b07578283fd5b60405160a081018181108382111715614b1c57fe5b806040525082518152602083015160208201526040830151604082015260608301516060820152608083015182811115614b54578485fd5b614b6087828601614225565b60808301525095945050505050565b600080600060608486031215614b83578081fd5b83356001600160401b03811115614b98578182fd5b614ba4868287016145e3565b9350506020840135614bb581615c7c565b91506040840135614bc581615c67565b809150509250925092565b600080600060608486031215614be4578081fd5b83356001600160401b03811115614bf9578182fd5b614c05868287016145e3565b935050602084013591506040840135614bc581615c67565b6000818303610160811215614c30578182fd5b604051604081016001600160401b038282108183111715614c4d57fe5b816040526060841215614c5e578485fd5b60a0830193508184108185111715614c7257fe5b508260405284518152602085015160608301526040850151608083015280825250614ca085606086016147a5565b6020820152949350505050565b600080600080600080600080610100898b031215614cc9578586fd5b8851614cd481615ca6565b80985050602089015180600f0b8114614ceb578687fd5b80975050604089015195506060890151945060808901518060060b8114614d10578485fd5b60a08a0151909450614d2181615c67565b60c08a015190935063ffffffff81168114614d3a578283fd5b9150614d4860e08a016144ea565b90509295985092959890939650565b600080600080600080600060e0888a031215614d71578081fd5b8751614d7c81615c67565b6020890151909750614d8d81615c97565b9550614d9b60408901614843565b9450614da960608901614843565b9350614db760808901614843565b925060a088015160ff81168114614dcc578182fd5b60c0890151909250614ddd81615c7c565b8091505092959891949750929550565b60008060408385031215614dff578182fd5b8251614e0a81615c67565b6020939093015192949293505050565b600060208284031215614e2b578081fd5b5051919050565b60008060408385031215614e44578182fd5b8251915060208301516001600160401b03811115614e60578182fd5b614e6c858286016143f3565b9150509250929050565b600080600060608486031215614e8a578081fd5b8335925060208401356001600160401b03811115614ea6578182fd5b614eb286828701614307565b9250506040840135614bc581615c7c565b6000806000806000806101208789031215614edc578384fd5b8635955060208701356001600160401b0380821115614ef9578586fd5b614f058a838b01614307565b96506040890135955060608901359450614f228a60808b01614724565b9350610100890135915080821115614f38578283fd5b50614f4589828a016144f5565b9150509295509295509295565b60008082840360a0811215614f65578283fd5b833592506080601f1982011215614f7a578182fd5b50604051608081018181106001600160401b0382111715614f9757fe5b80604052506020840135815260408401356020820152606084013560408201526080840135614fc581615c7c565b6060820152919491935090915050565b60008060008060e08587031215614fea578182fd5b8435935060208501356001600160401b0380821115615007578384fd5b615013888389016145e3565b94506150228860408901614724565b935060c0870135915080821115615037578283fd5b9086019060a0828903121561504a578283fd5b60405160a08101818110838211171561505f57fe5b806040525082358152602083013560208201526040830135604082015260608301356060820152608083013582811115615097578485fd5b6150a38a8286016144f5565b6080830152509598949750929550505050565b600080600060c084860312156150ca578081fd5b833592506150db8560208601614724565b915060a08401356001600160401b03808211156150f6578283fd5b9085019060808288031215615109578283fd5b60405160808101818110838211171561511e57fe5b806040525082358152602083013560208201526040830135604082015260608301358281111561514c578485fd5b615158898286016144f5565b6060830152508093505050509250925092565b6000806000806000806000806000806000806101808d8f03121561518d578586fd5b8c516bffffffffffffffffffffffff811681146151a8578687fd5b9b506151b660208e0161421a565b9a506151c460408e0161421a565b99506151d260608e0161421a565b98506151e060808e01614855565b97506151ee60a08e0161457a565b96506151fc60c08e0161457a565b955061520a60e08e01614838565b94506101008d015193506101208d015192506152296101408e01614838565b91506152386101608e01614838565b90509295989b509295989b509295989b565b6001600160a01b03169052565b15159052565b8051825260208082015190830152604090810151910152565b615289826152848354615c5b565b61524a565b60018101546001600160a01b036152a56020850182841661524a565b6152ba6040850162ffffff8460a01c16615593565b6152c76002840154615c5b565b91506152d6606085018361524a565b6152e36003840154615c5b565b91506152f2608085018361524a565b6004830154915061530860a0850182841661524a565b5061531c60c0840160ff8360a01c16615257565b5061532d60e08301600583016154bd565b61097b6101608301600983016154bd565b805115158252602081015160208301526001600160801b036040820151166040830152606081015160608301526080810151608083015260a081015160a08301525050565b8051151582526001600160801b036020820151166020830152604081015160020b6040830152606081015160020b60608301525050565b8051600b81106153c657fe5b808352506020810151151560208301526001600160801b036040820151166040830152606081015160020b6060830152608081015160020b608083015260a081015160a083015260c081015160c08301525050565b600060a083018251845260208084015181860152604084015160408601526060840151606086015260808085015160a08288015283815180865260c08901915084830195508692505b8083101561548b57615477828751615383565b948401946001929092019190830190615464565b50979650505050505050565b805182526020810151602083015260408101516040830152606081015160608301525050565b80548252600181015460208301526002810154604083015260030154606090910152565b600061014080840183518552602060018060a01b03818601511681870152604085015115156040870152606085015161551d606088018261525d565b50608085015160c06155318189018361525d565b60a08701516101208901959095528451938490526101608801948301938692505b808310156155795761556586865161533e565b948101949383019360019290920191615552565b5093979650505050505050565b6001600160801b03169052565b62ffffff169052565b600292830b60e890811b82529190920b901b600382015260060190565b6001600160a01b0391909116815260200190565b6001600160a01b038a81168252898116602083015262ffffff8916604083015287811660608301528681166080830152851660a082015283151560c08201526101e0810161561e60e0830185615497565b61562c610160830184615497565b9a9950505050505050505050565b6001600160a01b03929092168252602082015260400190565b6020808252825182820181905260009190848201906040850190845b81811015615695576156828385516153ba565b9284019260e0929092019160010161566f565b50909695505050505050565b901515815260200190565b60029190910b815260200190565b600292830b8152910b602082015260400190565b90815260200190565b602080825260029082015261503760f01b604082015260600190565b602080825260029082015261140d60f21b604082015260600190565b602080825260029082015261503360f01b604082015260600190565b6020808252600b908201526a1a5b9a5d1a585b1a5e995960aa1b604082015260600190565b602080825260029082015261503560f01b604082015260600190565b602080825260029082015261281b60f11b604082015260600190565b60208082526017908201527f63616c6c6572206d757374206265206f70657261746f72000000000000000000604082015260600190565b60208082526003908201526221a41960e91b604082015260600190565b602080825260029082015261281960f11b604082015260600190565b9283526020830191909152604082015260600190565b60006101208201905082518252602083015160020b6020830152604083015160020b604083015260608301516158476060840182615586565b506080830151608083015260a083015160a083015260c083015160c083015260e083015160e083015261010080840151818401525092915050565b6000602080835260c083018451828501528185015160408501526040850151606085015260608501516080818187015280870151915060a08087015282825180855260e08801915085840194508693505b8084101561548b576158e6828651615383565b9385019360019390930192908201906158d3565b60006060825261590d606083018661541b565b9315156020830152506001600160a01b0391909116604090910152919050565b600060608252615940606083018661541b565b6020830194909452506001600160a01b0391909116604090910152919050565b60006101608201905082518051835260208101516020840152604081015160408401525060208301518051606084015260208101516080840152604081015160a0840152606081015160c0840152608081015160e084015260a081015161010084015260c081015161012084015260e08101516101408401525092915050565b60006020808352610160830184518285015260018060a01b03828601511660408501526040850151151560608501526060850151615a21608086018261525d565b506080850151615a3460e086018261525d565b5060a08501516101408581015280519182905282019083906101808601905b80831015615a7c57615a6682855161533e565b60c0820191508484019350600183019250615a53565b509695505050505050565b6000610220808352615a9b818401876154e1565b915050836020830152610a596040830184615276565b6000610240808352615ac5818401886154e1565b915050846020830152615adb6040830185615276565b6001600160a01b039290921661022091909101529392505050565b6000610100808301888452602088818601528760408601528260608601528192508651808352610120860193508188019250845b81811015615b5057615b3d8585516153ba565b60e0949094019392820192600101615b2a565b5050855115156080860152850151151560a0850152506040840151151560c0840152606090930151151560e09092019190915250949350505050565b9182526001600160a01b0316602082015260400190565b60008682526020868184015285604084015260018060a01b038516606084015260a0608084015283518060a0850152825b81811015615bf05785810183015185820160c001528201615bd4565b81811115615c01578360c083870101525b50601f01601f19169290920160c001979650505050505050565b6040518181016001600160401b0381118282101715615c3657fe5b604052919050565b60006001600160401b03821115615c5157fe5b5060209081020190565b6001600160a01b031690565b6001600160a01b0381168114611c8b57600080fd5b8015158114611c8b57600080fd5b600b8110611c8b57600080fd5b8060020b8114611c8b57600080fd5b6001600160801b0381168114611c8b57600080fd5b62ffffff81168114611c8b57600080fdfe496e697469616c697a61626c653a20636f6e747261637420697320616c726561647920696e697469616c697a6564536166654d6174683a206d756c7469706c69636174696f6e206f766572666c6f775369676e6564536166654d6174683a207375627472616374696f6e206f766572666c6f77a2646970667358221220a9dcf9eff4a670e39b966eb5aa79ec7028b90493e5490a38c9fb090369e3b63964736f6c63430007060033",
  "libraries": {
    "LPTMath": "0x673301f5c1702b9f6D995f849737aA6b2d8fd4ce",
    "PositionUpdater": "0x9031FAD1eD17F9060B950207b3d50Fd06D256F55",
    "VaultLib": "0xA86Cef964Ca0Eac925759A589F140cD462B603B8",
    "PositionLib": "0xb924d276260EA5949FEAC471d8Eeb2691fbEE74B"
  },
  "devdoc": {
    "kind": "dev",
    "methods": {
      "checkLiquidatable(uint256)": {
        "params": {
          "_vaultId": "vault id"
        }
      },
      "forceClose(bytes[])": {
        "params": {
          "_data": "vaults data to close position"
        }
      },
      "getVaultStatus(uint256)": {
        "params": {
          "_vaultId": "vault id"
        }
      },
      "liquidate(uint256,(uint8,bool,uint128,int24,int24,uint256,uint256)[],bool)": {
        "params": {
          "_positionUpdates": "parameters to update position",
          "_vaultId": "vault id"
        }
      },
      "updatePosition(uint256,(uint8,bool,uint128,int24,int24,uint256,uint256)[],uint256,uint256,(bool,bool,bool,bool),bytes)": {
        "params": {
          "_buffer0": "max amount of token0 to send",
          "_buffer1": "max amount of token1 to send",
          "_positionUpdates": "parameters to update position",
          "_vaultId": "vault id"
        }
      }
    },
    "version": 1
  },
  "userdoc": {
    "kind": "user",
    "methods": {
      "checkLiquidatable(uint256)": {
        "notice": "Returns the flag whether a vault can be liquidated or not."
      },
      "forceClose(bytes[])": {
        "notice": "Contract owner can close positions"
      },
      "getPrice()": {
        "notice": "Gets current price of underlying token by margin token."
      },
      "getTWAP()": {
        "notice": "Gets Time Weighted Average Price of underlying token by margin token."
      },
      "getVaultStatus(uint256)": {
        "notice": "Returns collateral value and debt value."
      },
      "liquidate(uint256,(uint8,bool,uint128,int24,int24,uint256,uint256)[],bool)": {
        "notice": "Anyone can liquidates the vault if its required collateral value is positive."
      },
      "updatePosition(uint256,(uint8,bool,uint128,int24,int24,uint256,uint256)[],uint256,uint256,(bool,bool,bool,bool),bytes)": {
        "notice": "Update position in a vault."
      }
    },
    "version": 1
  },
  "storageLayout": {
    "storage": [
      {
        "astId": 1001,
        "contract": "src/ControllerHelper.sol:ControllerHelper",
        "label": "_initialized",
        "offset": 0,
        "slot": "0",
        "type": "t_bool"
      },
      {
        "astId": 1004,
        "contract": "src/ControllerHelper.sol:ControllerHelper",
        "label": "_initializing",
        "offset": 1,
        "slot": "0",
        "type": "t_bool"
      },
      {
        "astId": 4395,
        "contract": "src/ControllerHelper.sol:ControllerHelper",
        "label": "lastTouchedTimestamp",
        "offset": 0,
        "slot": "1",
        "type": "t_uint256"
      },
      {
        "astId": 4399,
        "contract": "src/ControllerHelper.sol:ControllerHelper",
        "label": "ranges",
        "offset": 0,
        "slot": "2",
        "type": "t_mapping(t_bytes32,t_struct(PerpStatus)6421_storage)"
      },
      {
        "astId": 4401,
        "contract": "src/ControllerHelper.sol:ControllerHelper",
        "label": "vaultIdCount",
        "offset": 0,
        "slot": "3",
        "type": "t_uint256"
      },
      {
        "astId": 4405,
        "contract": "src/ControllerHelper.sol:ControllerHelper",
        "label": "vaults",
        "offset": 0,
        "slot": "4",
        "type": "t_mapping(t_uint256,t_struct(Vault)6448_storage)"
      },
      {
        "astId": 4407,
        "contract": "src/ControllerHelper.sol:ControllerHelper",
        "label": "context",
        "offset": 0,
        "slot": "5",
        "type": "t_struct(Context)6467_storage"
      },
      {
        "astId": 4409,
        "contract": "src/ControllerHelper.sol:ControllerHelper",
        "label": "irmParams",
        "offset": 0,
        "slot": "18",
        "type": "t_struct(IRMParams)6651_storage"
      },
      {
        "astId": 4411,
        "contract": "src/ControllerHelper.sol:ControllerHelper",
        "label": "dpmParams",
        "offset": 0,
        "slot": "22",
        "type": "t_struct(DPMParams)6642_storage"
      },
      {
        "astId": 4413,
        "contract": "src/ControllerHelper.sol:ControllerHelper",
        "label": "operator",
        "offset": 0,
        "slot": "31",
        "type": "t_address"
      }
    ],
    "types": {
      "t_address": {
        "encoding": "inplace",
        "label": "address",
        "numberOfBytes": "20"
      },
      "t_array(t_struct(LPTState)6434_storage)dyn_storage": {
        "base": "t_struct(LPTState)6434_storage",
        "encoding": "dynamic_array",
        "label": "struct DataType.LPTState[]",
        "numberOfBytes": "32"
      },
      "t_bool": {
        "encoding": "inplace",
        "label": "bool",
        "numberOfBytes": "1"
      },
      "t_bytes32": {
        "encoding": "inplace",
        "label": "bytes32",
        "numberOfBytes": "32"
      },
      "t_int24": {
        "encoding": "inplace",
        "label": "int24",
        "numberOfBytes": "3"
      },
      "t_mapping(t_bytes32,t_struct(PerpStatus)6421_storage)": {
        "encoding": "mapping",
        "key": "t_bytes32",
        "label": "mapping(bytes32 => struct DataType.PerpStatus)",
        "numberOfBytes": "32",
        "value": "t_struct(PerpStatus)6421_storage"
      },
      "t_mapping(t_bytes32,t_struct(TickSnapshot)6628_storage)": {
        "encoding": "mapping",
        "key": "t_bytes32",
        "label": "mapping(bytes32 => struct InterestCalculator.TickSnapshot)",
        "numberOfBytes": "32",
        "value": "t_struct(TickSnapshot)6628_storage"
      },
      "t_mapping(t_uint256,t_struct(Vault)6448_storage)": {
        "encoding": "mapping",
        "key": "t_uint256",
        "label": "mapping(uint256 => struct DataType.Vault)",
        "numberOfBytes": "32",
        "value": "t_struct(Vault)6448_storage"
      },
      "t_struct(AccountState)5951_storage": {
        "encoding": "inplace",
        "label": "struct BaseToken.AccountState",
        "members": [
          {
            "astId": 5946,
            "contract": "src/ControllerHelper.sol:ControllerHelper",
            "label": "collateralAmountNotInMarket",
            "offset": 0,
            "slot": "0",
            "type": "t_uint256"
          },
          {
            "astId": 5948,
            "contract": "src/ControllerHelper.sol:ControllerHelper",
            "label": "collateralAmount",
            "offset": 0,
            "slot": "1",
            "type": "t_uint256"
          },
          {
            "astId": 5950,
            "contract": "src/ControllerHelper.sol:ControllerHelper",
            "label": "debtAmount",
            "offset": 0,
            "slot": "2",
            "type": "t_uint256"
          }
        ],
        "numberOfBytes": "96"
      },
      "t_struct(Context)6467_storage": {
        "encoding": "inplace",
        "label": "struct DataType.Context",
        "members": [
          {
            "astId": 6450,
            "contract": "src/ControllerHelper.sol:ControllerHelper",
            "label": "token0",
            "offset": 0,
            "slot": "0",
            "type": "t_address"
          },
          {
            "astId": 6452,
            "contract": "src/ControllerHelper.sol:ControllerHelper",
            "label": "token1",
            "offset": 0,
            "slot": "1",
            "type": "t_address"
          },
          {
            "astId": 6454,
            "contract": "src/ControllerHelper.sol:ControllerHelper",
            "label": "feeTier",
            "offset": 20,
            "slot": "1",
            "type": "t_uint24"
          },
          {
            "astId": 6456,
            "contract": "src/ControllerHelper.sol:ControllerHelper",
            "label": "positionManager",
            "offset": 0,
            "slot": "2",
            "type": "t_address"
          },
          {
            "astId": 6458,
            "contract": "src/ControllerHelper.sol:ControllerHelper",
            "label": "swapRouter",
            "offset": 0,
            "slot": "3",
            "type": "t_address"
          },
          {
            "astId": 6460,
            "contract": "src/ControllerHelper.sol:ControllerHelper",
            "label": "uniswapPool",
            "offset": 0,
            "slot": "4",
            "type": "t_address"
          },
          {
            "astId": 6462,
            "contract": "src/ControllerHelper.sol:ControllerHelper",
            "label": "isMarginZero",
            "offset": 20,
            "slot": "4",
            "type": "t_bool"
          },
          {
            "astId": 6464,
            "contract": "src/ControllerHelper.sol:ControllerHelper",
            "label": "tokenState0",
            "offset": 0,
            "slot": "5",
            "type": "t_struct(TokenState)5944_storage"
          },
          {
            "astId": 6466,
            "contract": "src/ControllerHelper.sol:ControllerHelper",
            "label": "tokenState1",
            "offset": 0,
            "slot": "9",
            "type": "t_struct(TokenState)5944_storage"
          }
        ],
        "numberOfBytes": "416"
      },
      "t_struct(DPMParams)6642_storage": {
        "encoding": "inplace",
        "label": "struct InterestCalculator.DPMParams",
        "members": [
          {
            "astId": 6635,
            "contract": "src/ControllerHelper.sol:ControllerHelper",
            "label": "premiumParams",
            "offset": 0,
            "slot": "0",
            "type": "t_struct(IRMParams)6651_storage"
          },
          {
            "astId": 6637,
            "contract": "src/ControllerHelper.sol:ControllerHelper",
            "label": "irmParams",
            "offset": 0,
            "slot": "4",
            "type": "t_struct(IRMParams)6651_storage"
          },
          {
            "astId": 6641,
            "contract": "src/ControllerHelper.sol:ControllerHelper",
            "label": "snapshots",
            "offset": 0,
            "slot": "8",
            "type": "t_mapping(t_bytes32,t_struct(TickSnapshot)6628_storage)"
          }
        ],
        "numberOfBytes": "288"
      },
      "t_struct(IRMParams)6651_storage": {
        "encoding": "inplace",
        "label": "struct InterestCalculator.IRMParams",
        "members": [
          {
            "astId": 6644,
            "contract": "src/ControllerHelper.sol:ControllerHelper",
            "label": "baseRate",
            "offset": 0,
            "slot": "0",
            "type": "t_uint256"
          },
          {
            "astId": 6646,
            "contract": "src/ControllerHelper.sol:ControllerHelper",
            "label": "kinkRate",
            "offset": 0,
            "slot": "1",
            "type": "t_uint256"
          },
          {
            "astId": 6648,
            "contract": "src/ControllerHelper.sol:ControllerHelper",
            "label": "slope1",
            "offset": 0,
            "slot": "2",
            "type": "t_uint256"
          },
          {
            "astId": 6650,
            "contract": "src/ControllerHelper.sol:ControllerHelper",
            "label": "slope2",
            "offset": 0,
            "slot": "3",
            "type": "t_uint256"
          }
        ],
        "numberOfBytes": "128"
      },
      "t_struct(LPTState)6434_storage": {
        "encoding": "inplace",
        "label": "struct DataType.LPTState",
        "members": [
          {
            "astId": 6423,
            "contract": "src/ControllerHelper.sol:ControllerHelper",
            "label": "isCollateral",
            "offset": 0,
            "slot": "0",
            "type": "t_bool"
          },
          {
            "astId": 6425,
            "contract": "src/ControllerHelper.sol:ControllerHelper",
            "label": "rangeId",
            "offset": 0,
            "slot": "1",
            "type": "t_bytes32"
          },
          {
            "astId": 6427,
            "contract": "src/ControllerHelper.sol:ControllerHelper",
            "label": "liquidityAmount",
            "offset": 0,
            "slot": "2",
            "type": "t_uint128"
          },
          {
            "astId": 6429,
            "contract": "src/ControllerHelper.sol:ControllerHelper",
            "label": "premiumGrowthLast",
            "offset": 0,
            "slot": "3",
            "type": "t_uint256"
          },
          {
            "astId": 6431,
            "contract": "src/ControllerHelper.sol:ControllerHelper",
            "label": "fee0Last",
            "offset": 0,
            "slot": "4",
            "type": "t_uint256"
          },
          {
            "astId": 6433,
            "contract": "src/ControllerHelper.sol:ControllerHelper",
            "label": "fee1Last",
            "offset": 0,
            "slot": "5",
            "type": "t_uint256"
          }
        ],
        "numberOfBytes": "192"
      },
      "t_struct(PerpStatus)6421_storage": {
        "encoding": "inplace",
        "label": "struct DataType.PerpStatus",
        "members": [
          {
            "astId": 6404,
            "contract": "src/ControllerHelper.sol:ControllerHelper",
            "label": "tokenId",
            "offset": 0,
            "slot": "0",
            "type": "t_uint256"
          },
          {
            "astId": 6406,
            "contract": "src/ControllerHelper.sol:ControllerHelper",
            "label": "lowerTick",
            "offset": 0,
            "slot": "1",
            "type": "t_int24"
          },
          {
            "astId": 6408,
            "contract": "src/ControllerHelper.sol:ControllerHelper",
            "label": "upperTick",
            "offset": 3,
            "slot": "1",
            "type": "t_int24"
          },
          {
            "astId": 6410,
            "contract": "src/ControllerHelper.sol:ControllerHelper",
            "label": "borrowedLiquidity",
            "offset": 6,
            "slot": "1",
            "type": "t_uint128"
          },
          {
            "astId": 6412,
            "contract": "src/ControllerHelper.sol:ControllerHelper",
            "label": "premiumGrowthForBorrower",
            "offset": 0,
            "slot": "2",
            "type": "t_uint256"
          },
          {
            "astId": 6414,
            "contract": "src/ControllerHelper.sol:ControllerHelper",
            "label": "premiumGrowthForLender",
            "offset": 0,
            "slot": "3",
            "type": "t_uint256"
          },
          {
            "astId": 6416,
            "contract": "src/ControllerHelper.sol:ControllerHelper",
            "label": "fee0Growth",
            "offset": 0,
            "slot": "4",
            "type": "t_uint256"
          },
          {
            "astId": 6418,
            "contract": "src/ControllerHelper.sol:ControllerHelper",
            "label": "fee1Growth",
            "offset": 0,
            "slot": "5",
            "type": "t_uint256"
          },
          {
            "astId": 6420,
            "contract": "src/ControllerHelper.sol:ControllerHelper",
            "label": "lastTouchedTimestamp",
            "offset": 0,
            "slot": "6",
            "type": "t_uint256"
          }
        ],
        "numberOfBytes": "224"
      },
      "t_struct(TickSnapshot)6628_storage": {
        "encoding": "inplace",
        "label": "struct InterestCalculator.TickSnapshot",
        "members": [
          {
            "astId": 6621,
            "contract": "src/ControllerHelper.sol:ControllerHelper",
            "label": "lastFeeGrowthInside0X128",
            "offset": 0,
            "slot": "0",
            "type": "t_uint256"
          },
          {
            "astId": 6623,
            "contract": "src/ControllerHelper.sol:ControllerHelper",
            "label": "lastFeeGrowthInside1X128",
            "offset": 0,
            "slot": "1",
            "type": "t_uint256"
          },
          {
            "astId": 6625,
            "contract": "src/ControllerHelper.sol:ControllerHelper",
            "label": "lastFeeGrowthGlobal0X128",
            "offset": 0,
            "slot": "2",
            "type": "t_uint256"
          },
          {
            "astId": 6627,
            "contract": "src/ControllerHelper.sol:ControllerHelper",
            "label": "lastFeeGrowthGlobal1X128",
            "offset": 0,
            "slot": "3",
            "type": "t_uint256"
          }
        ],
        "numberOfBytes": "128"
      },
      "t_struct(TokenState)5944_storage": {
        "encoding": "inplace",
        "label": "struct BaseToken.TokenState",
        "members": [
          {
            "astId": 5937,
            "contract": "src/ControllerHelper.sol:ControllerHelper",
            "label": "totalDeposited",
            "offset": 0,
            "slot": "0",
            "type": "t_uint256"
          },
          {
            "astId": 5939,
            "contract": "src/ControllerHelper.sol:ControllerHelper",
            "label": "totalBorrowed",
            "offset": 0,
            "slot": "1",
            "type": "t_uint256"
          },
          {
            "astId": 5941,
            "contract": "src/ControllerHelper.sol:ControllerHelper",
            "label": "collateralScaler",
            "offset": 0,
            "slot": "2",
            "type": "t_uint256"
          },
          {
            "astId": 5943,
            "contract": "src/ControllerHelper.sol:ControllerHelper",
            "label": "debtScaler",
            "offset": 0,
            "slot": "3",
            "type": "t_uint256"
          }
        ],
        "numberOfBytes": "128"
      },
      "t_struct(Vault)6448_storage": {
        "encoding": "inplace",
        "label": "struct DataType.Vault",
        "members": [
          {
            "astId": 6436,
            "contract": "src/ControllerHelper.sol:ControllerHelper",
            "label": "vaultId",
            "offset": 0,
            "slot": "0",
            "type": "t_uint256"
          },
          {
            "astId": 6438,
            "contract": "src/ControllerHelper.sol:ControllerHelper",
            "label": "owner",
            "offset": 0,
            "slot": "1",
            "type": "t_address"
          },
          {
            "astId": 6440,
            "contract": "src/ControllerHelper.sol:ControllerHelper",
            "label": "isClosed",
            "offset": 20,
            "slot": "1",
            "type": "t_bool"
          },
          {
            "astId": 6442,
            "contract": "src/ControllerHelper.sol:ControllerHelper",
            "label": "balance0",
            "offset": 0,
            "slot": "2",
            "type": "t_struct(AccountState)5951_storage"
          },
          {
            "astId": 6444,
            "contract": "src/ControllerHelper.sol:ControllerHelper",
            "label": "balance1",
            "offset": 0,
            "slot": "5",
            "type": "t_struct(AccountState)5951_storage"
          },
          {
            "astId": 6447,
            "contract": "src/ControllerHelper.sol:ControllerHelper",
            "label": "lpts",
            "offset": 0,
            "slot": "8",
            "type": "t_array(t_struct(LPTState)6434_storage)dyn_storage"
          }
        ],
        "numberOfBytes": "288"
      },
      "t_uint128": {
        "encoding": "inplace",
        "label": "uint128",
        "numberOfBytes": "16"
      },
      "t_uint24": {
        "encoding": "inplace",
        "label": "uint24",
        "numberOfBytes": "3"
      },
      "t_uint256": {
        "encoding": "inplace",
        "label": "uint256",
        "numberOfBytes": "32"
      }
    }
  }
}