{
  "address": "0x48a4fec8018A6beaC47266Ea707Bc4c1A1A3FaBF",
  "abi": [
    {
      "inputs": [],
      "stateMutability": "nonpayable",
      "type": "constructor"
    },
    {
      "anonymous": false,
      "inputs": [
        {
          "indexed": false,
          "internalType": "uint256",
          "name": "vaultId",
          "type": "uint256"
        },
        {
          "indexed": false,
          "internalType": "int256",
          "name": "a0",
          "type": "int256"
        },
        {
          "indexed": false,
          "internalType": "int256",
          "name": "a1",
          "type": "int256"
        },
        {
          "indexed": false,
          "internalType": "uint160",
          "name": "sqrtPrice",
          "type": "uint160"
        },
        {
          "indexed": false,
          "internalType": "bytes",
          "name": "metadata",
          "type": "bytes"
        }
      ],
      "name": "PositionUpdated",
      "type": "event"
    },
    {
      "anonymous": false,
      "inputs": [
        {
          "indexed": false,
          "internalType": "uint256",
          "name": "vaultId",
          "type": "uint256"
        },
        {
          "indexed": false,
          "internalType": "address",
          "name": "owner",
          "type": "address"
        }
      ],
      "name": "VaultCreated",
      "type": "event"
    },
    {
      "inputs": [
        {
          "internalType": "bytes32",
          "name": "_rangeId",
          "type": "bytes32"
        }
      ],
      "name": "calculateYearlyPremium",
      "outputs": [
        {
          "internalType": "uint256",
          "name": "",
          "type": "uint256"
        }
      ],
      "stateMutability": "view",
      "type": "function"
    },
    {
      "inputs": [
        {
          "internalType": "uint256",
          "name": "_vaultId",
          "type": "uint256"
        }
      ],
      "name": "checkLiquidatable",
      "outputs": [
        {
          "internalType": "bool",
          "name": "",
          "type": "bool"
        }
      ],
      "stateMutability": "nonpayable",
      "type": "function"
    },
    {
      "inputs": [
        {
          "internalType": "uint256",
          "name": "_vaultId",
          "type": "uint256"
        },
        {
          "components": [
            {
              "internalType": "uint256",
              "name": "subVaultIndex",
              "type": "uint256"
            },
            {
              "internalType": "uint256",
              "name": "collateral0",
              "type": "uint256"
            },
            {
              "internalType": "uint256",
              "name": "collateral1",
              "type": "uint256"
            },
            {
              "internalType": "uint256",
              "name": "debt0",
              "type": "uint256"
            },
            {
              "internalType": "uint256",
              "name": "debt1",
              "type": "uint256"
            },
            {
              "components": [
                {
                  "internalType": "bool",
                  "name": "isCollateral",
                  "type": "bool"
                },
                {
                  "internalType": "uint128",
                  "name": "liquidity",
                  "type": "uint128"
                },
                {
                  "internalType": "int24",
                  "name": "lowerTick",
                  "type": "int24"
                },
                {
                  "internalType": "int24",
                  "name": "upperTick",
                  "type": "int24"
                }
              ],
              "internalType": "struct DataType.LPT[]",
              "name": "lpts",
              "type": "tuple[]"
            }
          ],
          "internalType": "struct DataType.Position[]",
          "name": "_positions",
          "type": "tuple[]"
        },
        {
          "components": [
            {
              "internalType": "bool",
              "name": "reduceOnly",
              "type": "bool"
            },
            {
              "internalType": "bool",
              "name": "swapAnyway",
              "type": "bool"
            },
            {
              "internalType": "bool",
              "name": "quoterMode",
              "type": "bool"
            },
            {
              "internalType": "bool",
              "name": "isQuoteZero",
              "type": "bool"
            },
            {
              "internalType": "int256",
              "name": "targetMarginAmount0",
              "type": "int256"
            },
            {
              "internalType": "int256",
              "name": "targetMarginAmount1",
              "type": "int256"
            },
            {
              "internalType": "bytes",
              "name": "metadata",
              "type": "bytes"
            }
          ],
          "internalType": "struct DataType.TradeOption",
          "name": "_tradeOption",
          "type": "tuple"
        },
        {
          "components": [
            {
              "internalType": "uint256",
              "name": "lowerSqrtPrice",
              "type": "uint256"
            },
            {
              "internalType": "uint256",
              "name": "upperSqrtPrice",
              "type": "uint256"
            },
            {
              "internalType": "uint256",
              "name": "swapRatio",
              "type": "uint256"
            }
          ],
          "internalType": "struct DataType.ClosePositionOption",
          "name": "_closePositionOptions",
          "type": "tuple"
        }
      ],
      "name": "closePosition",
      "outputs": [
        {
          "internalType": "int256",
          "name": "requiredAmount0",
          "type": "int256"
        },
        {
          "internalType": "int256",
          "name": "requiredAmount1",
          "type": "int256"
        }
      ],
      "stateMutability": "nonpayable",
      "type": "function"
    },
    {
      "inputs": [
        {
          "internalType": "uint256",
          "name": "_vaultId",
          "type": "uint256"
        },
        {
          "internalType": "uint256",
          "name": "_subVaultIndex",
          "type": "uint256"
        },
        {
          "components": [
            {
              "internalType": "bool",
              "name": "reduceOnly",
              "type": "bool"
            },
            {
              "internalType": "bool",
              "name": "swapAnyway",
              "type": "bool"
            },
            {
              "internalType": "bool",
              "name": "quoterMode",
              "type": "bool"
            },
            {
              "internalType": "bool",
              "name": "isQuoteZero",
              "type": "bool"
            },
            {
              "internalType": "int256",
              "name": "targetMarginAmount0",
              "type": "int256"
            },
            {
              "internalType": "int256",
              "name": "targetMarginAmount1",
              "type": "int256"
            },
            {
              "internalType": "bytes",
              "name": "metadata",
              "type": "bytes"
            }
          ],
          "internalType": "struct DataType.TradeOption",
          "name": "_tradeOption",
          "type": "tuple"
        },
        {
          "components": [
            {
              "internalType": "uint256",
              "name": "lowerSqrtPrice",
              "type": "uint256"
            },
            {
              "internalType": "uint256",
              "name": "upperSqrtPrice",
              "type": "uint256"
            },
            {
              "internalType": "uint256",
              "name": "swapRatio",
              "type": "uint256"
            }
          ],
          "internalType": "struct DataType.ClosePositionOption",
          "name": "_closePositionOptions",
          "type": "tuple"
        }
      ],
      "name": "closeSubVault",
      "outputs": [
        {
          "internalType": "int256",
          "name": "",
          "type": "int256"
        },
        {
          "internalType": "int256",
          "name": "",
          "type": "int256"
        }
      ],
      "stateMutability": "nonpayable",
      "type": "function"
    },
    {
      "inputs": [
        {
          "internalType": "uint256",
          "name": "_vaultId",
          "type": "uint256"
        },
        {
          "components": [
            {
              "internalType": "bool",
              "name": "reduceOnly",
              "type": "bool"
            },
            {
              "internalType": "bool",
              "name": "swapAnyway",
              "type": "bool"
            },
            {
              "internalType": "bool",
              "name": "quoterMode",
              "type": "bool"
            },
            {
              "internalType": "bool",
              "name": "isQuoteZero",
              "type": "bool"
            },
            {
              "internalType": "int256",
              "name": "targetMarginAmount0",
              "type": "int256"
            },
            {
              "internalType": "int256",
              "name": "targetMarginAmount1",
              "type": "int256"
            },
            {
              "internalType": "bytes",
              "name": "metadata",
              "type": "bytes"
            }
          ],
          "internalType": "struct DataType.TradeOption",
          "name": "_tradeOption",
          "type": "tuple"
        },
        {
          "components": [
            {
              "internalType": "uint256",
              "name": "lowerSqrtPrice",
              "type": "uint256"
            },
            {
              "internalType": "uint256",
              "name": "upperSqrtPrice",
              "type": "uint256"
            },
            {
              "internalType": "uint256",
              "name": "swapRatio",
              "type": "uint256"
            }
          ],
          "internalType": "struct DataType.ClosePositionOption",
          "name": "_closePositionOptions",
          "type": "tuple"
        }
      ],
      "name": "closeVault",
      "outputs": [
        {
          "internalType": "int256",
          "name": "",
          "type": "int256"
        },
        {
          "internalType": "int256",
          "name": "",
          "type": "int256"
        }
      ],
      "stateMutability": "nonpayable",
      "type": "function"
    },
    {
      "inputs": [
        {
          "internalType": "bytes[]",
          "name": "_data",
          "type": "bytes[]"
        }
      ],
      "name": "forceClose",
      "outputs": [],
      "stateMutability": "nonpayable",
      "type": "function"
    },
    {
      "inputs": [],
      "name": "getAssetStatus",
      "outputs": [
        {
          "internalType": "uint256",
          "name": "",
          "type": "uint256"
        },
        {
          "internalType": "uint256",
          "name": "",
          "type": "uint256"
        },
        {
          "internalType": "uint256",
          "name": "",
          "type": "uint256"
        },
        {
          "internalType": "uint256",
          "name": "",
          "type": "uint256"
        },
        {
          "internalType": "uint256",
          "name": "",
          "type": "uint256"
        },
        {
          "internalType": "uint256",
          "name": "",
          "type": "uint256"
        }
      ],
      "stateMutability": "view",
      "type": "function"
    },
    {
      "inputs": [],
      "name": "getContext",
      "outputs": [
        {
          "internalType": "bool",
          "name": "",
          "type": "bool"
        },
        {
          "internalType": "uint256",
          "name": "",
          "type": "uint256"
        },
        {
          "internalType": "uint256",
          "name": "",
          "type": "uint256"
        },
        {
          "internalType": "address",
          "name": "",
          "type": "address"
        },
        {
          "internalType": "uint256",
          "name": "",
          "type": "uint256"
        },
        {
          "internalType": "uint256",
          "name": "",
          "type": "uint256"
        }
      ],
      "stateMutability": "view",
      "type": "function"
    },
    {
      "inputs": [
        {
          "internalType": "bytes32",
          "name": "_rangeId",
          "type": "bytes32"
        }
      ],
      "name": "getLPTStatus",
      "outputs": [
        {
          "internalType": "uint256",
          "name": "",
          "type": "uint256"
        },
        {
          "internalType": "uint256",
          "name": "",
          "type": "uint256"
        },
        {
          "internalType": "uint256",
          "name": "",
          "type": "uint256"
        }
      ],
      "stateMutability": "view",
      "type": "function"
    },
    {
      "inputs": [
        {
          "internalType": "uint256",
          "name": "_vaultId",
          "type": "uint256"
        }
      ],
      "name": "getPosition",
      "outputs": [
        {
          "components": [
            {
              "internalType": "uint256",
              "name": "subVaultIndex",
              "type": "uint256"
            },
            {
              "internalType": "uint256",
              "name": "collateral0",
              "type": "uint256"
            },
            {
              "internalType": "uint256",
              "name": "collateral1",
              "type": "uint256"
            },
            {
              "internalType": "uint256",
              "name": "debt0",
              "type": "uint256"
            },
            {
              "internalType": "uint256",
              "name": "debt1",
              "type": "uint256"
            },
            {
              "components": [
                {
                  "internalType": "bool",
                  "name": "isCollateral",
                  "type": "bool"
                },
                {
                  "internalType": "uint128",
                  "name": "liquidity",
                  "type": "uint128"
                },
                {
                  "internalType": "int24",
                  "name": "lowerTick",
                  "type": "int24"
                },
                {
                  "internalType": "int24",
                  "name": "upperTick",
                  "type": "int24"
                }
              ],
              "internalType": "struct DataType.LPT[]",
              "name": "lpts",
              "type": "tuple[]"
            }
          ],
          "internalType": "struct DataType.Position[]",
          "name": "",
          "type": "tuple[]"
        }
      ],
      "stateMutability": "view",
      "type": "function"
    },
    {
      "inputs": [
        {
          "internalType": "uint256",
          "name": "_vaultId",
          "type": "uint256"
        }
      ],
      "name": "getPositionCalculatorParams",
      "outputs": [
        {
          "components": [
            {
              "internalType": "int256",
              "name": "marginAmount0",
              "type": "int256"
            },
            {
              "internalType": "int256",
              "name": "marginAmount1",
              "type": "int256"
            },
            {
              "internalType": "uint256",
              "name": "collateral0",
              "type": "uint256"
            },
            {
              "internalType": "uint256",
              "name": "collateral1",
              "type": "uint256"
            },
            {
              "internalType": "uint256",
              "name": "debt0",
              "type": "uint256"
            },
            {
              "internalType": "uint256",
              "name": "debt1",
              "type": "uint256"
            },
            {
              "components": [
                {
                  "internalType": "bool",
                  "name": "isCollateral",
                  "type": "bool"
                },
                {
                  "internalType": "uint128",
                  "name": "liquidity",
                  "type": "uint128"
                },
                {
                  "internalType": "int24",
                  "name": "lowerTick",
                  "type": "int24"
                },
                {
                  "internalType": "int24",
                  "name": "upperTick",
                  "type": "int24"
                }
              ],
              "internalType": "struct DataType.LPT[]",
              "name": "lpts",
              "type": "tuple[]"
            }
          ],
          "internalType": "struct PositionCalculator.PositionCalculatorParams",
          "name": "",
          "type": "tuple"
        }
      ],
      "stateMutability": "view",
      "type": "function"
    },
    {
      "inputs": [
        {
          "internalType": "bytes32",
          "name": "_rangeId",
          "type": "bytes32"
        }
      ],
      "name": "getRange",
      "outputs": [
        {
          "components": [
            {
              "internalType": "uint256",
              "name": "tokenId",
              "type": "uint256"
            },
            {
              "internalType": "int24",
              "name": "lowerTick",
              "type": "int24"
            },
            {
              "internalType": "int24",
              "name": "upperTick",
              "type": "int24"
            },
            {
              "internalType": "uint128",
              "name": "borrowedLiquidity",
              "type": "uint128"
            },
            {
              "internalType": "uint256",
              "name": "premiumGrowthForBorrower",
              "type": "uint256"
            },
            {
              "internalType": "uint256",
              "name": "premiumGrowthForLender",
              "type": "uint256"
            },
            {
              "internalType": "uint256",
              "name": "fee0Growth",
              "type": "uint256"
            },
            {
              "internalType": "uint256",
              "name": "fee1Growth",
              "type": "uint256"
            },
            {
              "internalType": "uint256",
              "name": "lastTouchedTimestamp",
              "type": "uint256"
            }
          ],
          "internalType": "struct DataType.PerpStatus",
          "name": "",
          "type": "tuple"
        }
      ],
      "stateMutability": "view",
      "type": "function"
    },
    {
      "inputs": [],
      "name": "getSqrtPrice",
      "outputs": [
        {
          "internalType": "uint160",
          "name": "sqrtPriceX96",
          "type": "uint160"
        }
      ],
      "stateMutability": "view",
      "type": "function"
    },
    {
      "inputs": [
        {
          "internalType": "uint256",
          "name": "_subVaultId",
          "type": "uint256"
        }
      ],
      "name": "getSubVault",
      "outputs": [
        {
          "components": [
            {
              "internalType": "uint256",
              "name": "id",
              "type": "uint256"
            },
            {
              "internalType": "bool",
              "name": "isCompound",
              "type": "bool"
            },
            {
              "internalType": "uint256",
              "name": "collateralAmount0",
              "type": "uint256"
            },
            {
              "internalType": "uint256",
              "name": "collateralAmount1",
              "type": "uint256"
            },
            {
              "internalType": "uint256",
              "name": "debtAmount0",
              "type": "uint256"
            },
            {
              "internalType": "uint256",
              "name": "debtAmount1",
              "type": "uint256"
            },
            {
              "components": [
                {
                  "internalType": "uint256",
                  "name": "collateralAmount",
                  "type": "uint256"
                },
                {
                  "internalType": "uint256",
                  "name": "debtAmount",
                  "type": "uint256"
                }
              ],
              "internalType": "struct BaseToken.AccountState",
              "name": "balance0",
              "type": "tuple"
            },
            {
              "components": [
                {
                  "internalType": "uint256",
                  "name": "collateralAmount",
                  "type": "uint256"
                },
                {
                  "internalType": "uint256",
                  "name": "debtAmount",
                  "type": "uint256"
                }
              ],
              "internalType": "struct BaseToken.AccountState",
              "name": "balance1",
              "type": "tuple"
            },
            {
              "components": [
                {
                  "internalType": "bool",
                  "name": "isCollateral",
                  "type": "bool"
                },
                {
                  "internalType": "bytes32",
                  "name": "rangeId",
                  "type": "bytes32"
                },
                {
                  "internalType": "uint128",
                  "name": "liquidityAmount",
                  "type": "uint128"
                },
                {
                  "internalType": "uint256",
                  "name": "premiumGrowthLast",
                  "type": "uint256"
                },
                {
                  "internalType": "uint256",
                  "name": "fee0Last",
                  "type": "uint256"
                },
                {
                  "internalType": "uint256",
                  "name": "fee1Last",
                  "type": "uint256"
                }
              ],
              "internalType": "struct DataType.LPTState[]",
              "name": "lpts",
              "type": "tuple[]"
            }
          ],
          "internalType": "struct DataType.SubVault",
          "name": "",
          "type": "tuple"
        }
      ],
      "stateMutability": "view",
      "type": "function"
    },
    {
      "inputs": [
        {
          "internalType": "uint256",
          "name": "_vaultId",
          "type": "uint256"
        }
      ],
      "name": "getVault",
      "outputs": [
        {
          "components": [
            {
              "internalType": "uint256",
              "name": "vaultId",
              "type": "uint256"
            },
            {
              "internalType": "address",
              "name": "owner",
              "type": "address"
            },
            {
              "internalType": "uint256",
              "name": "marginAmount0",
              "type": "uint256"
            },
            {
              "internalType": "uint256",
              "name": "marginAmount1",
              "type": "uint256"
            },
            {
              "internalType": "uint256[]",
              "name": "subVaults",
              "type": "uint256[]"
            }
          ],
          "internalType": "struct DataType.Vault",
          "name": "",
          "type": "tuple"
        }
      ],
      "stateMutability": "view",
      "type": "function"
    },
    {
      "inputs": [
        {
          "internalType": "uint256",
          "name": "_vaultId",
          "type": "uint256"
        }
      ],
      "name": "getVaultStatus",
      "outputs": [
        {
          "components": [
            {
              "internalType": "int256",
              "name": "positionValue",
              "type": "int256"
            },
            {
              "internalType": "int256",
              "name": "marginValue",
              "type": "int256"
            },
            {
              "internalType": "int256",
              "name": "minCollateral",
              "type": "int256"
            },
            {
              "components": [
                {
                  "components": [
                    {
                      "internalType": "uint256",
                      "name": "collateralValue",
                      "type": "uint256"
                    },
                    {
                      "internalType": "uint256",
                      "name": "debtValue",
                      "type": "uint256"
                    },
                    {
                      "internalType": "int256",
                      "name": "premiumValue",
                      "type": "int256"
                    }
                  ],
                  "internalType": "struct DataType.SubVaultValue",
                  "name": "values",
                  "type": "tuple"
                },
                {
                  "components": [
                    {
                      "internalType": "uint256",
                      "name": "collateralAmount0",
                      "type": "uint256"
                    },
                    {
                      "internalType": "uint256",
                      "name": "collateralAmount1",
                      "type": "uint256"
                    },
                    {
                      "internalType": "uint256",
                      "name": "debtAmount0",
                      "type": "uint256"
                    },
                    {
                      "internalType": "uint256",
                      "name": "debtAmount1",
                      "type": "uint256"
                    }
                  ],
                  "internalType": "struct DataType.SubVaultAmount",
                  "name": "amount",
                  "type": "tuple"
                },
                {
                  "components": [
                    {
                      "internalType": "int256",
                      "name": "collateralFee0",
                      "type": "int256"
                    },
                    {
                      "internalType": "int256",
                      "name": "collateralFee1",
                      "type": "int256"
                    },
                    {
                      "internalType": "int256",
                      "name": "debtFee0",
                      "type": "int256"
                    },
                    {
                      "internalType": "int256",
                      "name": "debtFee1",
                      "type": "int256"
                    }
                  ],
                  "internalType": "struct DataType.SubVaultInterest",
                  "name": "interest",
                  "type": "tuple"
                },
                {
                  "components": [
                    {
                      "internalType": "uint256",
                      "name": "receivedTradeAmount0",
                      "type": "uint256"
                    },
                    {
                      "internalType": "uint256",
                      "name": "receivedTradeAmount1",
                      "type": "uint256"
                    },
                    {
                      "internalType": "uint256",
                      "name": "receivedPremium",
                      "type": "uint256"
                    },
                    {
                      "internalType": "uint256",
                      "name": "paidPremium",
                      "type": "uint256"
                    }
                  ],
                  "internalType": "struct DataType.SubVaultPremium",
                  "name": "premium",
                  "type": "tuple"
                }
              ],
              "internalType": "struct DataType.SubVaultStatus[]",
              "name": "subVaults",
              "type": "tuple[]"
            }
          ],
          "internalType": "struct DataType.VaultStatus",
          "name": "",
          "type": "tuple"
        }
      ],
      "stateMutability": "nonpayable",
      "type": "function"
    },
    {
      "inputs": [
        {
          "components": [
            {
              "internalType": "uint24",
              "name": "feeTier",
              "type": "uint24"
            },
            {
              "internalType": "address",
              "name": "token0",
              "type": "address"
            },
            {
              "internalType": "address",
              "name": "token1",
              "type": "address"
            },
            {
              "internalType": "bool",
              "name": "isMarginZero",
              "type": "bool"
            }
          ],
          "internalType": "struct DataType.InitializationParams",
          "name": "_initializationParams",
          "type": "tuple"
        },
        {
          "internalType": "address",
          "name": "_positionManager",
          "type": "address"
        },
        {
          "internalType": "address",
          "name": "_factory",
          "type": "address"
        },
        {
          "internalType": "address",
          "name": "_swapRouter",
          "type": "address"
        }
      ],
      "name": "initialize",
      "outputs": [],
      "stateMutability": "nonpayable",
      "type": "function"
    },
    {
      "inputs": [],
      "name": "irmParams",
      "outputs": [
        {
          "internalType": "uint256",
          "name": "baseRate",
          "type": "uint256"
        },
        {
          "internalType": "uint256",
          "name": "kinkRate",
          "type": "uint256"
        },
        {
          "internalType": "uint256",
          "name": "slope1",
          "type": "uint256"
        },
        {
          "internalType": "uint256",
          "name": "slope2",
          "type": "uint256"
        }
      ],
      "stateMutability": "view",
      "type": "function"
    },
    {
      "inputs": [],
      "name": "lastTouchedTimestamp",
      "outputs": [
        {
          "internalType": "uint256",
          "name": "",
          "type": "uint256"
        }
      ],
      "stateMutability": "view",
      "type": "function"
    },
    {
      "inputs": [
        {
          "internalType": "uint256",
          "name": "_vaultId",
          "type": "uint256"
        },
        {
          "components": [
            {
              "internalType": "uint256",
              "name": "lowerSqrtPrice",
              "type": "uint256"
            },
            {
              "internalType": "uint256",
              "name": "upperSqrtPrice",
              "type": "uint256"
            },
            {
              "internalType": "uint256",
              "name": "swapRatio",
              "type": "uint256"
            },
            {
              "internalType": "bool",
              "name": "swapAnyway",
              "type": "bool"
            }
          ],
          "internalType": "struct DataType.LiquidationOption",
          "name": "_liquidationOption",
          "type": "tuple"
        }
      ],
      "name": "liquidate",
      "outputs": [],
      "stateMutability": "nonpayable",
      "type": "function"
    },
    {
      "inputs": [
        {
          "internalType": "uint256",
          "name": "_vaultId",
          "type": "uint256"
        },
        {
          "components": [
            {
              "internalType": "uint256",
              "name": "subVaultIndex",
              "type": "uint256"
            },
            {
              "internalType": "uint256",
              "name": "collateral0",
              "type": "uint256"
            },
            {
              "internalType": "uint256",
              "name": "collateral1",
              "type": "uint256"
            },
            {
              "internalType": "uint256",
              "name": "debt0",
              "type": "uint256"
            },
            {
              "internalType": "uint256",
              "name": "debt1",
              "type": "uint256"
            },
            {
              "components": [
                {
                  "internalType": "bool",
                  "name": "isCollateral",
                  "type": "bool"
                },
                {
                  "internalType": "uint128",
                  "name": "liquidity",
                  "type": "uint128"
                },
                {
                  "internalType": "int24",
                  "name": "lowerTick",
                  "type": "int24"
                },
                {
                  "internalType": "int24",
                  "name": "upperTick",
                  "type": "int24"
                }
              ],
              "internalType": "struct DataType.LPT[]",
              "name": "lpts",
              "type": "tuple[]"
            }
          ],
          "internalType": "struct DataType.Position",
          "name": "_position",
          "type": "tuple"
        },
        {
          "components": [
            {
              "internalType": "bool",
              "name": "reduceOnly",
              "type": "bool"
            },
            {
              "internalType": "bool",
              "name": "swapAnyway",
              "type": "bool"
            },
            {
              "internalType": "bool",
              "name": "quoterMode",
              "type": "bool"
            },
            {
              "internalType": "bool",
              "name": "isQuoteZero",
              "type": "bool"
            },
            {
              "internalType": "int256",
              "name": "targetMarginAmount0",
              "type": "int256"
            },
            {
              "internalType": "int256",
              "name": "targetMarginAmount1",
              "type": "int256"
            },
            {
              "internalType": "bytes",
              "name": "metadata",
              "type": "bytes"
            }
          ],
          "internalType": "struct DataType.TradeOption",
          "name": "_tradeOption",
          "type": "tuple"
        },
        {
          "components": [
            {
              "internalType": "uint256",
              "name": "lowerSqrtPrice",
              "type": "uint256"
            },
            {
              "internalType": "uint256",
              "name": "upperSqrtPrice",
              "type": "uint256"
            },
            {
              "internalType": "uint256",
              "name": "bufferAmount0",
              "type": "uint256"
            },
            {
              "internalType": "uint256",
              "name": "bufferAmount1",
              "type": "uint256"
            }
          ],
          "internalType": "struct DataType.OpenPositionOption",
          "name": "_openPositionOptions",
          "type": "tuple"
        }
      ],
      "name": "openPosition",
      "outputs": [
        {
          "internalType": "uint256",
          "name": "vaultId",
          "type": "uint256"
        },
        {
          "internalType": "int256",
          "name": "requiredAmount0",
          "type": "int256"
        },
        {
          "internalType": "int256",
          "name": "requiredAmount1",
          "type": "int256"
        }
      ],
      "stateMutability": "nonpayable",
      "type": "function"
    },
    {
      "inputs": [],
      "name": "operator",
      "outputs": [
        {
          "internalType": "address",
          "name": "",
          "type": "address"
        }
      ],
      "stateMutability": "view",
      "type": "function"
    },
    {
      "inputs": [
        {
          "internalType": "address",
          "name": "_newOperator",
          "type": "address"
        }
      ],
      "name": "setOperator",
      "outputs": [],
      "stateMutability": "nonpayable",
      "type": "function"
    },
    {
      "inputs": [
        {
          "components": [
            {
              "internalType": "uint256",
              "name": "baseRate",
              "type": "uint256"
            },
            {
              "internalType": "uint256",
              "name": "kinkRate",
              "type": "uint256"
            },
            {
              "internalType": "uint256",
              "name": "slope1",
              "type": "uint256"
            },
            {
              "internalType": "uint256",
              "name": "slope2",
              "type": "uint256"
            }
          ],
          "internalType": "struct InterestCalculator.IRMParams",
          "name": "_irmParams",
          "type": "tuple"
        }
      ],
      "name": "updateIRMParams",
      "outputs": [],
      "stateMutability": "nonpayable",
      "type": "function"
    },
    {
      "inputs": [
        {
          "internalType": "uint256",
          "name": "_vaultId",
          "type": "uint256"
        },
        {
          "components": [
            {
              "internalType": "enum DataType.PositionUpdateType",
              "name": "positionUpdateType",
              "type": "uint8"
            },
            {
              "internalType": "uint256",
              "name": "subVaultIndex",
              "type": "uint256"
            },
            {
              "internalType": "bool",
              "name": "zeroForOne",
              "type": "bool"
            },
            {
              "internalType": "uint128",
              "name": "liquidity",
              "type": "uint128"
            },
            {
              "internalType": "int24",
              "name": "lowerTick",
              "type": "int24"
            },
            {
              "internalType": "int24",
              "name": "upperTick",
              "type": "int24"
            },
            {
              "internalType": "uint256",
              "name": "param0",
              "type": "uint256"
            },
            {
              "internalType": "uint256",
              "name": "param1",
              "type": "uint256"
            }
          ],
          "internalType": "struct DataType.PositionUpdate[]",
          "name": "_positionUpdates",
          "type": "tuple[]"
        },
        {
          "internalType": "uint256",
          "name": "_buffer0",
          "type": "uint256"
        },
        {
          "internalType": "uint256",
          "name": "_buffer1",
          "type": "uint256"
        },
        {
          "components": [
            {
              "internalType": "bool",
              "name": "reduceOnly",
              "type": "bool"
            },
            {
              "internalType": "bool",
              "name": "swapAnyway",
              "type": "bool"
            },
            {
              "internalType": "bool",
              "name": "quoterMode",
              "type": "bool"
            },
            {
              "internalType": "bool",
              "name": "isQuoteZero",
              "type": "bool"
            },
            {
              "internalType": "int256",
              "name": "targetMarginAmount0",
              "type": "int256"
            },
            {
              "internalType": "int256",
              "name": "targetMarginAmount1",
              "type": "int256"
            },
            {
              "internalType": "bytes",
              "name": "metadata",
              "type": "bytes"
            }
          ],
          "internalType": "struct DataType.TradeOption",
          "name": "_tradeOption",
          "type": "tuple"
        }
      ],
      "name": "updatePosition",
      "outputs": [
        {
          "internalType": "uint256",
          "name": "vaultId",
          "type": "uint256"
        },
        {
          "internalType": "int256",
          "name": "requiredAmount0",
          "type": "int256"
        },
        {
          "internalType": "int256",
          "name": "requiredAmount1",
          "type": "int256"
        }
      ],
      "stateMutability": "nonpayable",
      "type": "function"
    },
    {
      "inputs": [
        {
          "components": [
            {
              "internalType": "uint256",
              "name": "baseRate",
              "type": "uint256"
            },
            {
              "internalType": "uint256",
              "name": "kinkRate",
              "type": "uint256"
            },
            {
              "internalType": "uint256",
              "name": "slope1",
              "type": "uint256"
            },
            {
              "internalType": "uint256",
              "name": "slope2",
              "type": "uint256"
            }
          ],
          "internalType": "struct InterestCalculator.IRMParams",
          "name": "_irmParams",
          "type": "tuple"
        },
        {
          "components": [
            {
              "internalType": "uint256",
              "name": "baseRate",
              "type": "uint256"
            },
            {
              "internalType": "uint256",
              "name": "kinkRate",
              "type": "uint256"
            },
            {
              "internalType": "uint256",
              "name": "slope1",
              "type": "uint256"
            },
            {
              "internalType": "uint256",
              "name": "slope2",
              "type": "uint256"
            }
          ],
          "internalType": "struct InterestCalculator.IRMParams",
          "name": "_premiumParams",
          "type": "tuple"
        }
      ],
      "name": "updateYearlyPremiumParams",
      "outputs": [],
      "stateMutability": "nonpayable",
      "type": "function"
    },
    {
      "inputs": [
        {
          "internalType": "uint256",
          "name": "_amount0",
          "type": "uint256"
        },
        {
          "internalType": "uint256",
          "name": "_amount1",
          "type": "uint256"
        }
      ],
      "name": "withdrawProtocolFee",
      "outputs": [],
      "stateMutability": "nonpayable",
      "type": "function"
    },
    {
      "inputs": [],
      "name": "ypParams",
      "outputs": [
        {
          "components": [
            {
              "internalType": "uint256",
              "name": "baseRate",
              "type": "uint256"
            },
            {
              "internalType": "uint256",
              "name": "kinkRate",
              "type": "uint256"
            },
            {
              "internalType": "uint256",
              "name": "slope1",
              "type": "uint256"
            },
            {
              "internalType": "uint256",
              "name": "slope2",
              "type": "uint256"
            }
          ],
          "internalType": "struct InterestCalculator.IRMParams",
          "name": "premiumParams",
          "type": "tuple"
        },
        {
          "components": [
            {
              "internalType": "uint256",
              "name": "baseRate",
              "type": "uint256"
            },
            {
              "internalType": "uint256",
              "name": "kinkRate",
              "type": "uint256"
            },
            {
              "internalType": "uint256",
              "name": "slope1",
              "type": "uint256"
            },
            {
              "internalType": "uint256",
              "name": "slope2",
              "type": "uint256"
            }
          ],
          "internalType": "struct InterestCalculator.IRMParams",
          "name": "irmParams",
          "type": "tuple"
        }
      ],
      "stateMutability": "view",
      "type": "function"
    }
  ],
  "transactionHash": "0x998ef774b32fa430548971fa5dcd284206ff6f1466410efa496cf704475f7c3b",
  "args": [],
  "solcInputHash": "b7ef9ed526634259d8eb3a46edc5b2f6",
  "bytecode": "0x608060405234801561001057600080fd5b50615e3180620000216000396000f3fe608060405234801561001057600080fd5b50600436106101c45760003560e01c8063570ca735116100f9578063b3ab15fb11610097578063e77bbb9a11610071578063e77bbb9a14610416578063eb02c30114610429578063ee6097f014610449578063fea9a2c21461045c576101c4565b8063b3ab15fb146103dd578063c04ed3d3146103f0578063c3df1acb14610403576101c4565b806368715773116100d357806368715773146103825780636f85ba9c1461039557806386e6862d146103b55780639403b634146103bd576101c4565b8063570ca7351461034757806365b5f6e31461035c578063671148591461036f576101c4565b80633743d142116101665780633e129715116101405780633e129715146102d557806345615716146102f557806349ebb77d1461030f57806351be57d31461032f576101c4565b80633743d142146102995780633ac352be146102ac5780633c678e14146102bf576101c4565b8063127f0f07116101a2578063127f0f071461022857806318e7f1f314610242578063275892a21461026457806330050fbd14610279576101c4565b8063013216f5146101c957806305943002146101f257806311bea7f414610207575b600080fd5b6101dc6101d7366004614679565b61046f565b6040516101e99190615749565b60405180910390f35b610205610200366004614cd0565b61050b565b005b61021a610215366004614c0f565b6105ea565b6040516101e99291906155c0565b6102306106c1565b6040516101e99695949392919061557f565b610255610250366004614a9c565b6106ea565b6040516101e993929190615c61565b61026c6109a2565b6040516101e99190615c41565b61028c610287366004614679565b6109a8565b6040516101e99190615848565b6102056102a7366004614e18565b610ae4565b61021a6102ba366004614dc3565b610b8e565b6102c7610bb9565b6040516101e992919061572d565b6102e86102e3366004614679565b610c12565b6040516101e99190615574565b6102fd610cc0565b6040516101e996959493929190615cd0565b61032261031d366004614679565b610e0c565b6040516101e991906158d2565b610337610f5d565b6040516101e99493929190615cb5565b61034f610f6c565b6040516101e99190615439565b61020561036a3660046145a3565b610f7b565b61020561037d3660046146cf565b611094565b6102056103903660046146b4565b6110f6565b6103a86103a3366004614679565b61113e565b6040516101e991906157bd565b61034f611275565b6103d06103cb366004614679565b6112fe565b6040516101e991906159a9565b6102056103eb366004614587565b6113a5565b6102556103fe366004614679565b611404565b61021a610411366004614e39565b611508565b610255610424366004614d53565b611584565b61043c610437366004614679565b61165e565b6040516101e99190615466565b610205610457366004614704565b611669565b61026c61046a366004614679565b611a30565b610477613ca1565b5060008181526002602081815260409283902083516101208101855281548152600182015480850b850b850b9382019390935263010000008304840b840b840b94810194909452600160301b9091046001600160801b03166060840152908101546080830152600381015460a0830152600481015460c0830152600581015460e0830152600601546101008201525b919050565b610513611b2d565b6000732F89917520064e1073a070f4b7c188a0b49F24e163b1a3252b6105388561165e565b600a546040860151600160a01b90910460ff1690610554611275565b6040518563ffffffff1660e01b815260040161057394939291906154f4565b60006040518083038186803b15801561058b57600080fd5b505af415801561059f573d6000803e3d6000fd5b505050506040513d6000823e601f3d908101601f191682016040526105c7919081019061462b565b90506105d38382611bc1565b6105e582600001518360200151611c4e565b505050565b6000806000732F89917520064e1073a070f4b7c188a0b49F24e163b1a3252b878760600151876040015161061c611275565b6040518563ffffffff1660e01b815260040161063b94939291906154f4565b60006040518083038186803b15801561065357600080fd5b505af4158015610667573d6000803e3d6000fd5b505050506040513d6000823e601f3d908101601f1916820160405261068f919081019061462b565b905061069f8782600080896106ea565b865160208801519296509094506106b7925090611c4e565b5094509492505050565b600a54600354600b5460145460155460ff600160a01b860416946001600160a01b031692939495565b60008060006106f98888611c8f565b851561071757600654610717906001600160a01b0316333089611eac565b841561073557600754610735906001600160a01b0316333088611eac565b6000610745898660400151611ffc565b604051636413e81f60e11b8152919550915073A48469AA68810e4998ED718Ed39C9336AA2eFfAD9063c827d03e9061078e9084906005906006906002908f908d90600401615b31565b604080518083038186803b1580156107a557600080fd5b505af41580156107b9573d6000803e3d6000fd5b505050506040513d601f19601f820116820180604052508101906107dd9190614691565b60408701519194509250156107f6576107f683836120db565b60405163194a268960e21b8152730d83dFcDa0c3060658361C0E1B169b9D6E55D3CD906365289a2490610836908490600590600690600290600401615af7565b60206040518083038186803b15801561084e57600080fd5b505af4158015610862573d6000803e3d6000fd5b505050506040513d601f19601f82011682018060405250810190610886919061465d565b156108ac5760405162461bcd60e51b81526004016108a3906155ce565b60405180910390fd5b828712156108cc5760405162461bcd60e51b81526004016108a39061562b565b818612156108ec5760405162461bcd60e51b81526004016108a390615647565b8287131561091c57600061090088856120ec565b60065490915061091a906001600160a01b03163383612151565b505b8186131561094c57600061093087846120ec565b60075490915061094a906001600160a01b03163383612151565b505b7fabc710e8ab5c8f4ea5d70ef0f4c50f12dd4804fa7e04ce65aa8c813197b64bea848484610978611275565b8960c0015160405161098e959493929190615c77565b60405180910390a150955095509592505050565b60015481565b6109b0613cfc565b600082815260056020818152604080842081516101208101835281548152600182015460ff1615158185015260028201548184015260038201546060820152600482015460808201529381015460a0850152815180830183526006820154815260078201548185015260c0850152815180830183526008820154815260098201548185015260e0850152600a81018054835181860281018601909452808452949591946101008701949192909184015b82821015610ad65760008481526020908190206040805160c08101825260068602909201805460ff16151583526001808201548486015260028201546001600160801b03169284019290925260038101546060840152600481015460808401526005015460a08301529083529092019101610a60565b505050915250909392505050565b6023546001600160a01b03163314610b0e5760405162461bcd60e51b81526004016108a390615663565b6014548211801590610b2257506015548111155b610b3e5760405162461bcd60e51b81526004016108a3906155ea565b6014805483900390556015805482900390558115610b6d57600654610b6d906001600160a01b03163384612151565b8015610b8a57600754610b8a906001600160a01b03163383612151565b5050565b600080610b99611b2d565b610bad85610ba687612298565b86866105ea565b91509150935093915050565b6040805160808082018352601a548252601b54602080840191909152601c5483850152601d5460608085019190915284519283018552601e548352601f5483830152905493820193909352602154928101929092529082565b6000610c1d8261242d565b600082815260046020819052604091829020915163194a268960e21b8152730d83dFcDa0c3060658361C0E1B169b9D6E55D3CD926365289a2492610c6a9260059160069160029101615af7565b60206040518083038186803b158015610c8257600080fd5b505af4158015610c96573d6000803e3d6000fd5b505050506040513d601f19601f82011682018060405250810190610cba919061465d565b92915050565b60408051608081018252600c548152600d546020820152600e5491810191909152600f54606082015260009081908190819081908190610cff9061246d565b60408051608081018252600c548152600d546020820152600e5491810191909152600f546060820152610d319061248a565b60408051608081018252600c548152600d546020820152600e5491810191909152600f546060820152610d63906124a7565b6040805160808101825260105481526011546020820152601254918101919091526013546060820152610d959061246d565b6040805160808101825260105481526011546020820152601254918101919091526013546060820152610dc79061248a565b6040805160808101825260105481526011546020820152601254918101919091526013546060820152610df9906124a7565b949b939a50919850965094509092509050565b610e14613d56565b6000610e1e611275565b9050610e298361242d565b600083815260046020818152604092839020835160a0810185528154815260018201546001600160a01b031681840152600282015481860152600382015460608201529281018054855181850281018501909652808652939491936080860193830182828015610eb857602002820191906000526020600020905b815481526020019060010190808311610ea4575b505050919092525050604051635d8d458360e11b81527365BECD0EcDA627A4DBF74D8C9b50861A89d1d5CD9263bb1a8b069250610f02916005906002906006908890600401615aab565b60006040518083038186803b158015610f1a57600080fd5b505af4158015610f2e573d6000803e3d6000fd5b505050506040513d6000823e601f3d908101601f19168201604052610f569190810190614868565b9392505050565b60165460175460185460195484565b6023546001600160a01b031681565b6023546001600160a01b03163314610fa55760405162461bcd60e51b81526004016108a390615663565b60005b8151811015610b8a57600080838381518110610fc057fe5b6020026020010151806020019051810190610fdb9190614a58565b91509150610fe98282611c8f565b60008281526004602081905260408083209051637882621360e11b8152730d83dFcDa0c3060658361C0E1B169b9D6E55D3CD9363f104c4269361103993926005926006926002928a929101615c03565b60206040518083038186803b15801561105157600080fd5b505af4158015611065573d6000803e3d6000fd5b505050506040513d601f19601f820116820180604052508101906110899190614a40565b505050600101610fa8565b6023546001600160a01b031633146110be5760405162461bcd60e51b81526004016108a390615663565b8151601e55602080830151601f5560408084015182556060938401516021558251601a5590820151601b55810151601c550151601d55565b6023546001600160a01b031633146111205760405162461bcd60e51b81526004016108a390615663565b80516016556020810151601755604081015160185560600151601955565b611146613d7e565b6000828152600460208181526040808420815160a0810183528154815260018201546001600160a01b0316818501526002820154818401526003820154606082015293810180548351818602810186019094528084529193608086019392908301828280156111d457602002820191906000526020600020905b8154815260200190600101908083116111c0575b50505091909252505060405163149ccfa160e11b81529192507365BECD0EcDA627A4DBF74D8C9b50861A89d1d5CD916329399f429150611221908490600590600290600690600401615a1f565b60006040518083038186803b15801561123957600080fd5b505af415801561124d573d6000803e3d6000fd5b505050506040513d6000823e601f3d908101601f19168201604052610f5691908101906147c2565b600a5460408051633850c7bd60e01b815290516000926001600160a01b031691633850c7bd9160048281019260e0929190829003018186803b1580156112ba57600080fd5b505afa1580156112ce573d6000803e3d6000fd5b505050506040513d601f19601f820116820180604052508101906112f291906149aa565b50949695505050505050565b611306613dbb565b600082815260046020818152604092839020835160a0810185528154815260018201546001600160a01b03168184015260028201548186015260038201546060820152928101805485518185028101850190965280865293949193608086019383018282801561139557602002820191906000526020600020905b815481526020019060010190808311611381575b5050505050815250509050919050565b6023546001600160a01b031633146113cf5760405162461bcd60e51b81526004016108a390615663565b6001600160a01b0381166113e257600080fd5b602380546001600160a01b0319166001600160a01b0392909216919091179055565b60408051610180810182526006546001600160a01b039081168252600754808216602080850191909152600160a01b9182900462ffffff168486015260085483166060808601919091526009548416608080870191909152600a5494851660a08701529290930460ff16151560c0850152600b5460e085015284518083018652600c548152600d5481830152600e5481870152600f548185015261010085015284519182018552601054825260115482820152601254828601526013549282019290925261012083015260145461014083015260155461016083015260008481526002909152918220829182916114fb91906124e2565b9250925092509193909250565b600080611513611b2d565b604080516001808252818301909252600091816020015b611532613df3565b81526020019060019003908161152a57905050905061155187876125a7565b8160008151811061155e57fe5b6020026020010181905250611575878287876105ea565b92509250505b94509492505050565b600080600080732F89917520064e1073a070f4b7c188a0b49F24e163b5b49eb28888606001516115b2611275565b6040518463ffffffff1660e01b81526004016115d093929190615815565b60006040518083038186803b1580156115e857600080fd5b505af41580156115fc573d6000803e3d6000fd5b505050506040513d6000823e601f3d908101601f19168201604052611624919081019061462b565b905061163b8882876040015188606001518a6106ea565b87516020890151939750919550935061165391611c4e565b509450945094915050565b6060610cba82612298565b600054610100900460ff1680611682575061168261288c565b80611690575060005460ff16155b6116cb5760405162461bcd60e51b815260040180806020018281038252602e815260200180615daa602e913960400191505060405180910390fd5b600054610100900460ff161580156116f6576000805460ff1961ff0019909116610100171660011790555b845160078054602080890151600680546001600160a01b03199081166001600160a01b0393841617918290556040808d015162ffffff60a01b19909616600160a01b62ffffff998a16810291909117831696851696909617968790556060808e0151600a805460ff60a01b191691151589029190911790556008805484168e8716179055600980549093168b8616179092558051918201815291831681529185169282019290925291909204909216908201526117b3848261289d565b600a80546001600160a01b0319166001600160a01b0392831617905560016003819055600b5560065460405163095ea7b360e01b815291169063095ea7b3906118049088906000199060040161544d565b602060405180830381600087803b15801561181e57600080fd5b505af1158015611832573d6000803e3d6000fd5b505050506040513d601f19601f82011682018060405250810190611856919061465d565b5060075460405163095ea7b360e01b81526001600160a01b039091169063095ea7b39061188b9088906000199060040161544d565b602060405180830381600087803b1580156118a557600080fd5b505af11580156118b9573d6000803e3d6000fd5b505050506040513d601f19601f820116820180604052508101906118dd919061465d565b5060065460405163095ea7b360e01b81526001600160a01b039091169063095ea7b3906119129086906000199060040161544d565b602060405180830381600087803b15801561192c57600080fd5b505af1158015611940573d6000803e3d6000fd5b505050506040513d601f19601f82011682018060405250810190611964919061465d565b5060075460405163095ea7b360e01b81526001600160a01b039091169063095ea7b3906119999086906000199060040161544d565b602060405180830381600087803b1580156119b357600080fd5b505af11580156119c7573d6000803e3d6000fd5b505050506040513d601f19601f820116820180604052508101906119eb919061465d565b506119f6600c612981565b611a006010612981565b5042600155602380546001600160a01b031916331790558015611a29576000805461ff00191690555b5050505050565b60408051610180810182526006546001600160a01b039081168252600754808216602080850191909152600160a01b9182900462ffffff168486015260085483166060808601919091526009548416608080870191909152600a5494851660a08701529290930460ff16151560c0850152600b5460e085015284518083018652600c548152600d5481830152600e5481870152600f548185015261010085015284519182018552601054825260115482820152601254828601526013549282019290925261012083015260145461014083015260155461016083015260008481526002909152918220610cba91601a91611b28611275565b612999565b60015460405163725acfd160e01b815273cB353a7Ca7C0DAd1542140f8132faD2dd174D6c79163725acfd191611b6c91600691601691906004016156d3565b60206040518083038186803b158015611b8457600080fd5b505af4158015611b98573d6000803e3d6000fd5b505050506040513d601f19601f82011682018060405250810190611bbc9190614a40565b600155565b611bcb8282611c8f565b60008281526004602081905260409182902091516349b3bd7960e11b8152730d83dFcDa0c3060658361C0E1B169b9D6E55D3CD926393677af292611c1a92600591879160069160029101615bd0565b60006040518083038186803b158015611c3257600080fd5b505af4158015611c46573d6000803e3d6000fd5b505050505050565b6000611c58611275565b6001600160a01b03169050808311158015611c735750818111155b6105e55760405162461bcd60e51b81526004016108a39061569a565b6000828152600460208181526040808420815160a0810183528154815260018201546001600160a01b031681850152600282015481840152600382015460608201529381018054835181860281018601909452808452919360808601939290830182828015611d1d57602002820191906000526020600020905b815481526020019060010190808311611d09575b505050505081525050905073cB353a7Ca7C0DAd1542140f8132faD2dd174D6c763a5d330ad8260056002600687601a611d54611275565b6040518863ffffffff1660e01b8152600401611d769796959493929190615a4f565b60006040518083038186803b158015611d8e57600080fd5b505af4158015611da2573d6000803e3d6000fd5b505060015460405163725acfd160e01b815273cB353a7Ca7C0DAd1542140f8132faD2dd174D6c7935063725acfd19250611de591600691601691906004016156d3565b60206040518083038186803b158015611dfd57600080fd5b505af4158015611e11573d6000803e3d6000fd5b505050506040513d601f19601f82011682018060405250810190611e359190614a40565b60015560405162d85ecd60e61b815273A48469AA68810e4998ED718Ed39C9336AA2eFfAD90633617b34090611e779060069085906005906002906004016156f5565b60006040518083038186803b158015611e8f57600080fd5b505af4158015611ea3573d6000803e3d6000fd5b50505050505050565b604080516001600160a01b0385811660248301528481166044830152606480830185905283518084039091018152608490920183526020820180516001600160e01b03166323b872dd60e01b178152925182516000948594938a169392918291908083835b60208310611f305780518252601f199092019160209182019101611f11565b6001836020036101000a0380198251168184511680821785525050505050509050019150506000604051808303816000865af19150503d8060008114611f92576040519150601f19603f3d011682016040523d82523d6000602084013e611f97565b606091505b5091509150818015611fc5575080511580611fc55750808060200190516020811015611fc257600080fd5b50515b611c46576040805162461bcd60e51b815260206004820152600360248201526229aa2360e91b604482015290519081900360640190fd5b60008083612081576003805460018082019092556000818152600460205260409081902082815590920180546001600160a01b03191633179081905591519093507fbf3e9c93de94306b70ac5b9411edf475545815333bf651b894b9eada6482c594916120749185916001600160a01b031690615c4a565b60405180910390a16120c5565b6000848152600460205260409020600101548492506001600160a01b03163314806120a95750825b6120c55760405162461bcd60e51b81526004016108a3906156b7565b5060008181526004602052604090209250929050565b602051828152816020820152604081fd5b60008183038183128015906121015750838113155b80612116575060008312801561211657508381135b610f565760405162461bcd60e51b8152600401808060200182810382526024815260200180615dd86024913960400191505060405180910390fd5b604080516001600160a01b038481166024830152604480830185905283518084039091018152606490920183526020820180516001600160e01b031663a9059cbb60e01b1781529251825160009485949389169392918291908083835b602083106121cd5780518252601f1990920191602091820191016121ae565b6001836020036101000a0380198251168184511680821785525050505050509050019150506000604051808303816000865af19150503d806000811461222f576040519150601f19603f3d011682016040523d82523d6000602084013e612234565b606091505b5091509150818015612262575080511580612262575080806020019051602081101561225f57600080fd5b50515b611a29576040805162461bcd60e51b815260206004820152600260248201526114d560f21b604482015290519081900360640190fd5b6000818152600460208181526040808420815160a0810183528154815260018201546001600160a01b0316818501526002820154818401526003820154606082810191909152948201805484518187028101870190955280855295969591949293608086019390929083018282801561233057602002820191906000526020600020905b81548152602001906001019080831161231c575b50505091909252505060408051610180810182526006546001600160a01b039081168252600754808216602080850191909152600160a01b9182900462ffffff168486015260085483166060808601919091526009548416608080870191909152600a5494851660a08701529290930460ff16151560c0850152600b5460e085015284518083018652600c548152600d5481830152600e5481870152600f5481850152610100850152845191820185526010548252601154908201526012549381019390935260135490830152610120810191909152601454610140820152601554610160820152919250610f5691839150600590600290612aff565b6040805160008082526020820190925261246a91839190612464565b612451613e29565b8152602001906001900390816124495790505b50611c8f565b50565b6000610cba82600001518360400151670de0b6b3a7640000612ced565b6000610cba82602001518360600151670de0b6b3a7640000612ced565b80516000906124bf5750670de0b6b3a7640000610506565b610cba6124cb8361248a565b670de0b6b3a76400006124dd8561246d565b612ced565b6040805161012081018252825481526001830154600281810b810b810b602084015263010000008204810b810b810b93830193909352600160301b90046001600160801b03166060820152908201546080820152600382015460a0820152600482015460c0820152600582015460e0820152600682015461010082015260009081908190612571908690612d0c565b6001850154600160301b90046001600160801b03166125908787612d2e565b9194506001600160801b0316925090509250925092565b6125af613df3565b6000838152600460208181526040808420815160a0810183528154815260018201546001600160a01b03168185015260028201548184015260038201546060820152938101805483518186028101860190945280845291936080860193929083018282801561263d57602002820191906000526020600020905b815481526020019060010190808311612629575b505050505081525050905061288483600560008460800151878151811061266057fe5b6020908102919091018101518252818101929092526040908101600090812082516101208101845281548152600182015460ff161515818601526002820154818501526003820154606082015260048201546080820152600582015460a0820152835180850185526006830154815260078301548187015260c0820152835180850185526008830154815260098301548187015260e0820152600a8201805485518188028101880190965280865291959294610100870194909391929184015b828210156127965760008481526020908190206040805160c08101825260068602909201805460ff16151583526001808201548486015260028201546001600160801b03169284019290925260038101546060840152600481015460808401526005015460a08301529083529092019101612720565b5050509152505060408051610180810182526006546001600160a01b039081168252600754808216602080850191909152600160a01b9182900462ffffff168486015260085483166060808601919091526009548416608080870191909152600a5494851660a08701529290930460ff16151560c0850152600b5460e085015284518083018652600c548152600d5481830152600e5481870152600f5481850152610100850152845191820185526010548252601154908201526012549381019390935260135490830152610120810191909152601454610140820152601554610160820152600290612dcb565b949350505050565b60006128973061307b565b15905090565b600081602001516001600160a01b031682600001516001600160a01b0316106128c557600080fd5b50805160208083015160409384015184516001600160a01b0394851681850152939091168385015262ffffff166060808401919091528351808403820181526080840185528051908301206001600160f81b031960a085015294901b6bffffffffffffffffffffffff191660a183015260b58201939093527fe34f199b19b2b4f47f68442619d555527d244f78a3297ea89325f843f87b8b5460d5808301919091528251808303909101815260f5909101909152805191012090565b670de0b6b3a764000060028201819055600390910155565b6001820154600090600160301b90046001600160801b031615612af45760006129c28585612d2e565b60a08601516001860154919250600091612a7f916129f2918a9190600281810b9163010000009004900b87613081565b6040805161012081018252885481526001890154600281810b810b810b602084015263010000008204810b810b810b93830193909352600160301b90046001600160801b03166060820152908801546080820152600388015460a0820152600488015460c0820152600588015460e08201526006880154610100820152612a7a9089906132e2565b613389565b90506000612ae68760c00151612acb8a600401604051806080016040529081600082015481526020016001820154815260200160028201548152602001600382015481525050866133a6565b60018901548890600281810b9163010000009004900b61341b565b919091019250612884915050565b506000949350505050565b60608460800151516001600160401b0381118015612b1c57600080fd5b50604051908082528060200260200182016040528015612b5657816020015b612b43613df3565b815260200190600190039081612b3b5790505b50905060005b856080015151811015612ce457612cc58186600089608001518581518110612b8057fe5b6020908102919091018101518252818101929092526040908101600090812082516101208101845281548152600182015460ff161515818601526002820154818501526003820154606082015260048201546080820152600582015460a0820152835180850185526006830154815260078301548187015260c0820152835180850185526008830154815260098301548187015260e0820152600a8201805485518188028101880190965280865291959294610100870194909391929184015b82821015612cb65760008481526020908190206040805160c08101825260068602909201805460ff16151583526001808201548486015260028201546001600160801b03169284019290925260038101546060840152600481015460808401526005015460a08301529083529092019101612c40565b50505050815250508686612dcb565b828281518110612cd157fe5b6020908102919091010152600101612b5c565b50949350505050565b828202811515841585830485141716612d0557600080fd5b0492915050565b600081606001516001600160801b0316612d2684846132e2565b019392505050565b6001810154604080516101208101825283548152600283810b810b810b602083015263010000008404810b810b810b92820192909252600160301b9092046001600160801b031660608301819052908301546080830152600383015460a0830152600483015460c0830152600583015460e08301526006830154610100830152600091610f569190670de0b6b3a7640000906124dd908790612d0c565b612dd3613df3565b6000846101000151516001600160401b0381118015612df157600080fd5b50604051908082528060200260200182016040528015612e2b57816020015b612e18613e6f565b815260200190600190039081612e105790505b50905060005b85610100015151811015612f895760008661010001518281518110612e5257fe5b6020908102919091018101518101516000818152888352604090819020815161012081018352815481526001820154600281810b810b810b9683019690965263010000008104860b860b860b82850152600160301b90046001600160801b0316606082015293810154608080860191909152600382015460a0860152600482015460c0860152600582015460e0860152600690910154610100808601919091528251918201909252908a01518051929450909182919086908110612f1257fe5b602002602001015160000151151581526020018961010001518581518110612f3657fe5b6020026020010151604001516001600160801b03168152602001826020015160020b8152602001826040015160020b815250848481518110612f7457fe5b60209081029190910101525050600101612e31565b50846020015115613033576040518060c00160405280878152602001612fc18760c001518661010001516134b390919063ffffffff16565b8152602001612fe28760e001518661012001516134b390919063ffffffff16565b81526020016130038760c001518661010001516134d090919063ffffffff16565b81526020016130248760e001518661012001516134d090919063ffffffff16565b81526020018290529150612ce4565b6040518060c001604052808781526020018660400151815260200186606001518152602001866080015181526020018660a00151815260200182815250915050949350505050565b3b151590565b600080856001600160a01b031663f30583996040518163ffffffff1660e01b815260040160206040518083038186803b1580156130bd57600080fd5b505afa1580156130d1573d6000803e3d6000fd5b505050506040513d601f19601f820116820180604052508101906130f59190614a40565b90506000866001600160a01b031663461413196040518163ffffffff1660e01b815260040160206040518083038186803b15801561313257600080fd5b505afa158015613146573d6000803e3d6000fd5b505050506040513d601f19601f8201168201806040525081019061316a9190614a40565b90506000876001600160a01b0316633850c7bd6040518163ffffffff1660e01b815260040160e06040518083038186803b1580156131a757600080fd5b505afa1580156131bb573d6000803e3d6000fd5b505050506040513d601f19601f820116820180604052508101906131df91906149aa565b505050505091505060008061320b6131f78b8b6134ed565b6132018c8b6134ed565b8b8b878a8a6135b9565b915091506000898960405160200161322492919061541c565b6040516020818303038152906040528051906020012090506132d061327f8d6000016040518060800160405290816000820154815260200160018201548152602001600282015481526020016003820154815250508a6133a6565b8d600801600084815260200190815260200160002060405180608001604052908160008201548152602001600182015481526020016002820154815260200160038201548152505085858a8a613636565b96505050505050505b95945050505050565b6060820151815160405163133f757160e31b815260009283926001600160a01b03909116916399fbab889161331991600401615c41565b6101806040518083038186803b15801561333257600080fd5b505afa158015613346573d6000803e3d6000fd5b505050506040513d601f19601f8201168201806040525081019061336a9190614e7d565b50506001600160801b039092169a505050505050505050505092915050565b60008183670de0b6b3a7640000028161339e57fe5b049392505050565b815160208301516000919083116133d557670de0b6b3a764000084604001518402816133ce57fe5b0401610f56565b670de0b6b3a76400008460400151856020015102816133f057fe5b0481019050670de0b6b3a7640000846020015184038560600151028161341257fe5b04019392505050565b60008060006134448661342d876136b5565b613436876136b5565b670de0b6b3a76400006139e7565b91509150600061345d89886001600160a01b0316613a82565b9050881561348157826134798383670de0b6b3a7640000612ced565b019350613499565b816134958483670de0b6b3a7640000612ced565b0193505b670de0b6b3a7640000848902049998505050505050505050565b6000610f5682600001518460400151670de0b6b3a7640000612ced565b6000610f5682602001518460600151670de0b6b3a7640000612ced565b6134f5613e96565b6000806000856001600160a01b031663f30dba93866040518263ffffffff1660e01b815260040161352691906155b2565b6101006040518083038186803b15801561353f57600080fd5b505afa158015613553573d6000803e3d6000fd5b505050506040513d601f19601f820116820180604052508101906135779190614900565b97505050509450945050508061359f5760405162461bcd60e51b81526004016108a390615606565b506040805180820190915291825260208201529392505050565b6000806000808860020b8760020b126135da575050885160208a01516135ea565b5050885160208a01519085039084035b6000808960020b8960020b1215613609575050895160208b0151613619565b5050895160208b01519087039086035b92909603959095039a949093039290920397509195505050505050565b6000806000876040015185111561366a578760400151850388600001518803670de0b6b3a7640000028161366657fe5b0491505b8760600151841115613699578760600151840388602001518703670de0b6b3a7640000028161369557fe5b0490505b671bc16d674ec800008282018a02049998505050505050505050565b60008060008360020b126136cc578260020b6136d4565b8260020b6000035b9050620d89e8811115613712576040805162461bcd60e51b81526020600482015260016024820152601560fa1b604482015290519081900360640190fd5b60006001821661372657600160801b613738565b6ffffcb933bd6fad37aa2d162d1a5940015b70ffffffffffffffffffffffffffffffffff169050600282161561376c576ffff97272373d413259a46990580e213a0260801c5b600482161561378b576ffff2e50f5f656932ef12357cf3c7fdcc0260801c5b60088216156137aa576fffe5caca7e10e4e61c3624eaa0941cd00260801c5b60108216156137c9576fffcb9843d60f6159c9db58835c9266440260801c5b60208216156137e8576fff973b41fa98c081472e6896dfb254c00260801c5b6040821615613807576fff2ea16466c96a3843ec78b326b528610260801c5b6080821615613826576ffe5dee046a99a2a811c461f1969c30530260801c5b610100821615613846576ffcbe86c7900a88aedcffc83b479aa3a40260801c5b610200821615613866576ff987a7253ac413176f2b074cf7815e540260801c5b610400821615613886576ff3392b0822b70005940c7a398e4b70f30260801c5b6108008216156138a6576fe7159475a2c29b7443b29c7fa6e889d90260801c5b6110008216156138c6576fd097f3bdfd2022b8845ad8f792aa58250260801c5b6120008216156138e6576fa9f746462d870fdf8a65dc1f90e061e50260801c5b614000821615613906576f70d869a156d2a1b890bb3df62baf32f70260801c5b618000821615613926576f31be135f97d08fd981231505542fcfa60260801c5b62010000821615613947576f09aa508b5b7a84e1c677de54f3e99bc90260801c5b62020000821615613967576e5d6af8dedb81196699c329225ee6040260801c5b62040000821615613986576d2216e584f5fa1ea926041bedfe980260801c5b620800008216156139a3576b048a170391f7dc42444e8fa20260801c5b60008460020b13156139be5780600019816139ba57fe5b0490505b6401000000008106156139d25760016139d5565b60005b60ff16602082901c0192505050919050565b600080836001600160a01b0316856001600160a01b03161115613a08579293925b846001600160a01b0316866001600160a01b031611613a3357613a2c858585613b4a565b915061157b565b836001600160a01b0316866001600160a01b03161015613a6c57613a58868585613b4a565b9150613a65858785613bb3565b905061157b565b613a77858585613bb3565b905094509492505050565b6000670de0b6b3a76400008315613aea57613aab838483600160c01b81613aa557fe5b04613bf2565b915081613aca576ec097ce7bc90715b34b9f1000000000915050610cba565b816ec097ce7bc90715b34b9f100000000081613ae257fe5b049150613b0b565b600160601b81613aff8586600160601b613bf2565b0281613b0757fe5b0491505b6ec097ce7bc90715b34b9f1000000000821115613b39576ec097ce7bc90715b34b9f10000000009150613b43565b81613b4357600191505b5092915050565b6000826001600160a01b0316846001600160a01b03161115613b6a579192915b836001600160a01b0316613ba3606060ff16846001600160801b0316901b8686036001600160a01b0316866001600160a01b0316613bf2565b81613baa57fe5b04949350505050565b6000826001600160a01b0316846001600160a01b03161115613bd3579192915b612884826001600160801b03168585036001600160a01b0316600160601b5b6000808060001985870986860292508281109083900303905080613c285760008411613c1d57600080fd5b508290049050610f56565b808411613c3457600080fd5b6000848688096000868103871696879004966002600389028118808a02820302808a02820302808a02820302808a02820302808a02820302808a02909103029181900381900460010186841190950394909402919094039290920491909117919091029150509392505050565b60405180610120016040528060008152602001600060020b8152602001600060020b815260200160006001600160801b0316815260200160008152602001600081526020016000815260200160008152602001600081525090565b6040518061012001604052806000815260200160001515815260200160008152602001600081526020016000815260200160008152602001613d3c613e96565b8152602001613d49613e96565b8152602001606081525090565b6040518060800160405280600081526020016000815260200160008152602001606081525090565b6040518060e00160405280600081526020016000815260200160008152602001600081526020016000815260200160008152602001606081525090565b6040518060a001604052806000815260200160006001600160a01b031681526020016000815260200160008152602001606081525090565b6040518060c001604052806000815260200160008152602001600081526020016000815260200160008152602001606081525090565b604080516101008101909152806000815260006020820181905260408201819052606082018190526080820181905260a0820181905260c0820181905260e09091015290565b60408051608081018252600080825260208201819052918101829052606081019190915290565b604051806040016040528060008152602001600081525090565b803561050681615d44565b805161050681615d44565b600082601f830112613ed6578081fd5b81356020613eeb613ee683615d1b565b615cf8565b82815281810190858301608080860288018501891015613f09578687fd5b865b86811015613f9a5781838b031215613f21578788fd5b604080518381018181106001600160401b0382111715613f3d57fe5b82528435613f4a81615d59565b815284880135613f5981615d83565b8189015284820135613f6a81615d74565b8083830152506060915081850135613f8181615d74565b9181019190915285529385019391810191600101613f0b565b509198975050505050505050565b600082601f830112613fb8578081fd5b81516020613fc8613ee683615d1b565b82815281810190858301608080860288018501891015613fe6578687fd5b865b86811015613f9a5781838b031215613ffe578788fd5b604080518381018181106001600160401b038211171561401a57fe5b8252845161402781615d59565b81528488015161403681615d83565b818901528482015161404781615d74565b808383015250606091508185015161405e81615d74565b9181019190915285529385019391810191600101613fe8565b600082601f830112614087578081fd5b81516020614097613ee683615d1b565b82815281810190858301610100808602880185018910156140b6578687fd5b865b86811015613f9a5781838b0312156140ce578788fd5b604080518381018181106001600160401b03821117156140ea57fe5b82526140f5856142f4565b8152878501518882015261410a82860161427a565b828201526060915061411d82860161455f565b828201526080915061413082860161430a565b8282015260a0915061414382860161430a565b9181019190915260c0848101519082015260e08085015190820152855293850193918101916001016140b8565b600082601f830112614180578081fd5b81516020614190613ee683615d1b565b828152818101908583016101e0808602880185018910156141af578687fd5b865b86811015613f9a57828a03828112156141c8578889fd5b60408051608081016001600160401b0382821081831117156141e657fe5b81845260608512156141f6578c8dfd5b60e083019450818510818611171561420a57fe5b50838352865181528987015160a08301528683015160c083015281526142338d60608801614456565b898201526142448d60e08801614456565b828201526142568d6101608801614456565b60608201528752505093850193918101916001016141b1565b803561050681615d59565b805161050681615d59565b600082601f830112614295578081fd5b81356001600160401b038111156142a857fe5b6142bb601f8201601f1916602001615cf8565b8181528460208386010111156142cf578283fd5b816020850160208301379081016020019190915292915050565b803561050681615d67565b805161050681615d67565b803561050681615d74565b805161050681615d74565b600060608284031215614326578081fd5b604051606081018181106001600160401b038211171561434257fe5b80604052508091508235815260208301356020820152604083013560408201525092915050565b60006080828403121561437a578081fd5b604051608081018181106001600160401b038211171561439657fe5b8060405250809150823581526020830135602082015260408301356040820152606083013560608201525092915050565b600060c082840312156143d8578081fd5b60405160c081016001600160401b0382821081831117156143f557fe5b81604052829350843583526020850135602084015260408501356040840152606085013560608401526080850135608084015260a085013591508082111561443c57600080fd5b5061444985828601613ec6565b60a0830152505092915050565b600060808284031215614467578081fd5b604051608081018181106001600160401b038211171561448357fe5b8060405250809150825181526020830151602082015260408301516040820152606083015160608201525092915050565b600060e082840312156144c5578081fd5b6144cf60e0615cf8565b90506144da8261426f565b81526144e86020830161426f565b60208201526144f96040830161426f565b604082015261450a6060830161426f565b60608201526080820135608082015260a082013560a082015260c08201356001600160401b0381111561453c57600080fd5b61454884828501614285565b60c08301525092915050565b803561050681615d83565b805161050681615d83565b805161ffff8116811461050657600080fd5b805161050681615d98565b600060208284031215614598578081fd5b8135610f5681615d44565b600060208083850312156145b5578182fd5b82356001600160401b038111156145ca578283fd5b8301601f810185136145da578283fd5b80356145e8613ee682615d1b565b81815283810190838501865b8481101561461d5761460b8a888435890101614285565b845292860192908601906001016145f4565b509098975050505050505050565b60006020828403121561463c578081fd5b81516001600160401b03811115614651578182fd5b61288484828501614077565b60006020828403121561466e578081fd5b8151610f5681615d59565b60006020828403121561468a578081fd5b5035919050565b600080604083850312156146a3578081fd5b505080516020909101519092909150565b6000608082840312156146c5578081fd5b610f568383614369565b60008061010083850312156146e2578182fd5b6146ec8484614369565b91506146fb8460808501614369565b90509250929050565b60008060008084860360e081121561471a578283fd5b6080811215614727578283fd5b50604051608081018181106001600160401b038211171561474457fe5b604052853561475281615d98565b8152602086013561476281615d44565b6020820152604086013561477581615d44565b6040820152606086013561478881615d59565b6060820152935061479b60808601613eb0565b92506147a960a08601613eb0565b91506147b760c08601613eb0565b905092959194509250565b6000602082840312156147d3578081fd5b81516001600160401b03808211156147e9578283fd5b9083019060e082860312156147fc578283fd5b61480660e0615cf8565b825181526020830151602082015260408301516040820152606083015160608201526080830151608082015260a083015160a082015260c08301518281111561484d578485fd5b61485987828601613fa8565b60c08301525095945050505050565b600060208284031215614879578081fd5b81516001600160401b038082111561488f578283fd5b90830190608082860312156148a2578283fd5b6040516080810181811083821117156148b757fe5b80604052508251815260208301516020820152604083015160408201526060830151828111156148e5578485fd5b6148f187828601614170565b60608301525095945050505050565b600080600080600080600080610100898b03121561491c578586fd5b885161492781615d83565b80985050602089015180600f0b811461493e578687fd5b80975050604089015195506060890151945060808901518060060b8114614963578485fd5b60a08a015190945061497481615d44565b60c08a015190935063ffffffff8116811461498d578283fd5b915061499b60e08a0161427a565b90509295985092959890939650565b600080600080600080600060e0888a0312156149c4578081fd5b87516149cf81615d44565b60208901519097506149e081615d74565b95506149ee6040890161456a565b94506149fc6060890161456a565b9350614a0a6080890161456a565b925060a088015160ff81168114614a1f578182fd5b60c0890151909250614a3081615d59565b8091505092959891949750929550565b600060208284031215614a51578081fd5b5051919050565b60008060408385031215614a6a578182fd5b8251915060208301516001600160401b03811115614a86578182fd5b614a9285828601614077565b9150509250929050565b600080600080600060a08688031215614ab3578283fd5b8535945060208601356001600160401b0380821115614ad0578485fd5b818801915088601f830112614ae3578485fd5b8135614af1613ee682615d1b565b80828252602082019150602085016101008d60208287028901011115614b1557898afd5b8996505b84871015614bcd5780828f031215614b2f57898afd5b6040518181018181108882111715614b4357fe5b604052614b4f836142e9565b815260208301356020820152614b676040840161426f565b6040820152614b7860608401614554565b6060820152614b89608084016142ff565b6080820152614b9a60a084016142ff565b60a082015260c083013560c082015260e083013560e0820152808552506020840193508082019150600187019650614b19565b5090985050505060408801359450606088013593506080880135915080821115614bf5578283fd5b50614c02888289016144b4565b9150509295509295909350565b60008060008060c08587031215614c24578182fd5b843593506020808601356001600160401b0380821115614c42578485fd5b818801915088601f830112614c55578485fd5b8135614c63613ee682615d1b565b81815284810190848601885b84811015614c9857614c868e8984358a01016143c7565b84529287019290870190600101614c6f565b509098505050506040880135925080831115614cb2578485fd5b5050614cc0878288016144b4565b9250506147b78660608701614315565b60008082840360a0811215614ce3578283fd5b833592506080601f1982011215614cf8578182fd5b50604051608081018181106001600160401b0382111715614d1557fe5b80604052506020840135815260408401356020820152606084013560408201526080840135614d4381615d59565b6060820152919491935090915050565b60008060008060e08587031215614d68578182fd5b8435935060208501356001600160401b0380821115614d85578384fd5b614d91888389016143c7565b94506040870135915080821115614da6578384fd5b50614db3878288016144b4565b9250506147b78660608701614369565b600080600060a08486031215614dd7578081fd5b8335925060208401356001600160401b03811115614df3578182fd5b614dff868287016144b4565b925050614e0f8560408601614315565b90509250925092565b60008060408385031215614e2a578182fd5b50508035926020909101359150565b60008060008060c08587031215614e4e578182fd5b843593506020850135925060408501356001600160401b03811115614e71578283fd5b614cc0878288016144b4565b6000806000806000806000806000806000806101808d8f031215614e9f578586fd5b8c516bffffffffffffffffffffffff81168114614eba578687fd5b9b50614ec860208e01613ebb565b9a50614ed660408e01613ebb565b9950614ee460608e01613ebb565b9850614ef260808e0161457c565b9750614f0060a08e0161430a565b9650614f0e60c08e0161430a565b9550614f1c60e08e0161455f565b94506101008d015193506101208d01519250614f3b6101408e0161455f565b9150614f4a6101608e0161455f565b90509295989b509295989b509295989b565b6001600160a01b03169052565b6000815180845260208085019450808401835b83811015614fd757815180511515885283810151848901526040808201516001600160801b031690890152606080820151908901526080808201519089015260a0908101519088015260c09096019590820190600101614f7c565b509495945050505050565b6000815180845260208085019450808401835b83811015614fd757615008878351615259565b6080969096019590820190600101614ff5565b6000815180845260208085019450808401835b83811015614fd75781518051600d811061504457fe5b8852808401518489015260408082015115159089015260608082015161506c828b0182615406565b5050608080820151615080828b018261510e565b505060a080820151615094828b018261510e565b505060c0818101519089015260e09081015190880152610100909601959082019060010161502e565b15159052565b60008151808452815b818110156150e8576020818501810151868301820152016150cc565b818111156150f95782602083870101525b50601f01601f19169290920160200192915050565b60020b9052565b80518252602090810151910152565b615137826151328354615d38565b614f5c565b60018101546001600160a01b0361515360208501828416614f5c565b6151686040850162ffffff8460a01c16615413565b6151756002840154615d38565b91506151846060850183614f5c565b6151916003840154615d38565b91506151a06080850183614f5c565b600483015491506151b660a08501828416614f5c565b506151ca60c0840160ff8360a01c166150bd565b50600581015460e08301526151e6610100830160068301615235565b6151f76101808301600a8301615235565b600e810154610200830152600f015461022090910152565b805182526020810151602083015260408101516040830152606081015160608301525050565b80548252600181015460208301526002810154604083015260030154606090910152565b8051151582526001600160801b036020820151166020830152604081015160020b6040830152606081015160020b60608301525050565b600060c08301825184526020808401518186015260408401516040860152606084015160608601526080808501518187015260a085015160c060a088015283815180865260e08901915084830195508692505b8083101561530a576152f6828751615259565b9484019460019290920191908301906152e3565b50979650505050505050565b805182526020808201516001600160a01b031681840152604080830151908401526060808301519084015260808083015160a0918501829052805191850182905260009290810191839060c08701905b808310156153865784518252938301936001929092019190830190615366565b509695505050505050565b600060a0830182548452600180600160a01b03818501541660208181880152600286015460408801526003860154606088015260048601915060a0608088015283825480865260c08901915083875282872095508693505b8084101561530a57855482529484019492840192908201906153e9565b6001600160801b03169052565b62ffffff169052565b600292830b60e890811b82529190920b901b600382015260060190565b6001600160a01b0391909116815260200190565b6001600160a01b03929092168252602082015260400190565b60208082528251828201819052600091906040908185019080840286018301878501865b8381101561461d57888303603f1901855281518051845287810151888501528681015187850152606080820151908501526080808201519085015260a09081015160c0918501829052906154e081860183614fe2565b96890196945050509086019060010161548a565b6000608082016080835280875180835260a0850191506020925060a0838202860101838a01855b8381101561554957609f19888403018552615537838351615290565b9486019492509085019060010161551b565b50509715159285019290925250505060408101929092526001600160a01b0316606090910152919050565b901515815260200190565b9515158652602086019490945260408501929092526001600160a01b03166060840152608083015260a082015260c00190565b60029190910b815260200190565b918252602082015260400190565b602080825260029082015261503360f01b604082015260600190565b6020808252600290820152610a0760f31b604082015260600190565b6020808252600b908201526a1a5b9a5d1a585b1a5e995960aa1b604082015260600190565b602080825260029082015261503560f01b604082015260600190565b602080825260029082015261281b60f11b604082015260600190565b60208082526017908201527f63616c6c6572206d757374206265206f70657261746f72000000000000000000604082015260600190565b60208082526003908201526221a41960e91b604082015260600190565b602080825260029082015261281960f11b604082015260600190565b83815260c081016156e76020830185615235565b8260a0830152949350505050565b60006102a06157048388615124565b8061024084015261571781840187615316565b6102608401959095525050610280015292915050565b610100810161573c828561520f565b610f56608083018461520f565b60006101208201905082518252602083015160020b6020830152604083015160020b604083015260608301516157826060840182615406565b506080830151608083015260a083015160a083015260c083015160c083015260e083015160e083015261010080840151818401525092915050565b60006020825282516020830152602083015160408301526040830151606083015260608301516080830152608083015160a083015260a083015160c083015260c083015160e080840152612884610100840182614fe2565b6000606082526158286060830186615290565b9315156020830152506001600160a01b0391909116604090910152919050565b60006020825282516020830152602083015161586760408401826150bd565b506040830151606083015260608301516080830152608083015160a083015260a083015160c083015260c08301516158a260e0840182615115565b5060e08301516158b6610120840182615115565b5061010083015161016083810152612884610180840182614f69565b6020808252825182820152828101516040808401919091528084015160608085019190915280850151608080860152805160a08601819052600094939184019285929160c08801905b8085101561599c5785518051805184528881015189850152850151858401528781015161594a8585018261520f565b5080850151805160e0850152888101516101008501528086015161012085015284015161014084015283015161598461016084018261520f565b506101e082019150868601955060018501945061591b565b5098975050505050505050565b6000602080835260c0830184518285015260018060a01b03828601511660408501526040850151606085015260608501516080850152608085015160a08086015281815180845260e08701915084830193508592505b8083101561538657835182529284019260019290920191908401906159ff565b60006102a0808352615a3381840188615316565b9150508460208301528360408301526132d96060830184615124565b600060e08252615a6260e083018a615316565b8860208401528760408401528660608401528281036080840152615a86818761501b565b60a084019590955250506001600160a01b039190911660c09091015295945050505050565b60006102c0808352615abf81840189615316565b915050856020830152846040830152615adb6060830185615124565b6001600160a01b03929092166102a09190910152949350505050565b60006102a0808352615b0b81840188615391565b915050846020830152615b216040830185615124565b8261028083015295945050505050565b600087825286602083015285604083015284606083015260c06080830152615b5c60c083018561501b565b82810360a08401528351151581526020840151151560208201526040840151151560408201526060840151615b9460608301826150bd565b506080840151608082015260a084015160a082015260c084015160e060c0830152615bc260e08301826150c3565b9a9950505050505050505050565b600086825285602083015260a06040830152615bef60a083018661501b565b606083019490945250608001529392505050565b600087825286602083015285604083015284606083015260c06080830152615c2e60c083018561501b565b90508260a0830152979650505050505050565b90815260200190565b9182526001600160a01b0316602082015260400190565b9283526020830191909152604082015260600190565b600086825285602083015284604083015260018060a01b038416606083015260a06080830152615caa60a08301846150c3565b979650505050505050565b93845260208401929092526040830152606082015260800190565b958652602086019490945260408501929092526060840152608083015260a082015260c00190565b6040518181016001600160401b0381118282101715615d1357fe5b604052919050565b60006001600160401b03821115615d2e57fe5b5060209081020190565b6001600160a01b031690565b6001600160a01b038116811461246a57600080fd5b801515811461246a57600080fd5b600d811061246a57600080fd5b8060020b811461246a57600080fd5b6001600160801b038116811461246a57600080fd5b62ffffff8116811461246a57600080fdfe496e697469616c697a61626c653a20636f6e747261637420697320616c726561647920696e697469616c697a65645369676e6564536166654d6174683a207375627472616374696f6e206f766572666c6f77a2646970667358221220600e893a58ea401d2703e6e5120adda77e1618b6753d1c63f264abf0e6d9a7c464736f6c63430007060033",
  "deployedBytecode": "0x608060405234801561001057600080fd5b50600436106101c45760003560e01c8063570ca735116100f9578063b3ab15fb11610097578063e77bbb9a11610071578063e77bbb9a14610416578063eb02c30114610429578063ee6097f014610449578063fea9a2c21461045c576101c4565b8063b3ab15fb146103dd578063c04ed3d3146103f0578063c3df1acb14610403576101c4565b806368715773116100d357806368715773146103825780636f85ba9c1461039557806386e6862d146103b55780639403b634146103bd576101c4565b8063570ca7351461034757806365b5f6e31461035c578063671148591461036f576101c4565b80633743d142116101665780633e129715116101405780633e129715146102d557806345615716146102f557806349ebb77d1461030f57806351be57d31461032f576101c4565b80633743d142146102995780633ac352be146102ac5780633c678e14146102bf576101c4565b8063127f0f07116101a2578063127f0f071461022857806318e7f1f314610242578063275892a21461026457806330050fbd14610279576101c4565b8063013216f5146101c957806305943002146101f257806311bea7f414610207575b600080fd5b6101dc6101d7366004614679565b61046f565b6040516101e99190615749565b60405180910390f35b610205610200366004614cd0565b61050b565b005b61021a610215366004614c0f565b6105ea565b6040516101e99291906155c0565b6102306106c1565b6040516101e99695949392919061557f565b610255610250366004614a9c565b6106ea565b6040516101e993929190615c61565b61026c6109a2565b6040516101e99190615c41565b61028c610287366004614679565b6109a8565b6040516101e99190615848565b6102056102a7366004614e18565b610ae4565b61021a6102ba366004614dc3565b610b8e565b6102c7610bb9565b6040516101e992919061572d565b6102e86102e3366004614679565b610c12565b6040516101e99190615574565b6102fd610cc0565b6040516101e996959493929190615cd0565b61032261031d366004614679565b610e0c565b6040516101e991906158d2565b610337610f5d565b6040516101e99493929190615cb5565b61034f610f6c565b6040516101e99190615439565b61020561036a3660046145a3565b610f7b565b61020561037d3660046146cf565b611094565b6102056103903660046146b4565b6110f6565b6103a86103a3366004614679565b61113e565b6040516101e991906157bd565b61034f611275565b6103d06103cb366004614679565b6112fe565b6040516101e991906159a9565b6102056103eb366004614587565b6113a5565b6102556103fe366004614679565b611404565b61021a610411366004614e39565b611508565b610255610424366004614d53565b611584565b61043c610437366004614679565b61165e565b6040516101e99190615466565b610205610457366004614704565b611669565b61026c61046a366004614679565b611a30565b610477613ca1565b5060008181526002602081815260409283902083516101208101855281548152600182015480850b850b850b9382019390935263010000008304840b840b840b94810194909452600160301b9091046001600160801b03166060840152908101546080830152600381015460a0830152600481015460c0830152600581015460e0830152600601546101008201525b919050565b610513611b2d565b600073__$7ffffda71c6e7abde662efb5427d8d1c5d$__63b1a3252b6105388561165e565b600a546040860151600160a01b90910460ff1690610554611275565b6040518563ffffffff1660e01b815260040161057394939291906154f4565b60006040518083038186803b15801561058b57600080fd5b505af415801561059f573d6000803e3d6000fd5b505050506040513d6000823e601f3d908101601f191682016040526105c7919081019061462b565b90506105d38382611bc1565b6105e582600001518360200151611c4e565b505050565b600080600073__$7ffffda71c6e7abde662efb5427d8d1c5d$__63b1a3252b878760600151876040015161061c611275565b6040518563ffffffff1660e01b815260040161063b94939291906154f4565b60006040518083038186803b15801561065357600080fd5b505af4158015610667573d6000803e3d6000fd5b505050506040513d6000823e601f3d908101601f1916820160405261068f919081019061462b565b905061069f8782600080896106ea565b865160208801519296509094506106b7925090611c4e565b5094509492505050565b600a54600354600b5460145460155460ff600160a01b860416946001600160a01b031692939495565b60008060006106f98888611c8f565b851561071757600654610717906001600160a01b0316333089611eac565b841561073557600754610735906001600160a01b0316333088611eac565b6000610745898660400151611ffc565b604051636413e81f60e11b8152919550915073__$da03e66f624374a74ff67f4d42d7f52632$__9063c827d03e9061078e9084906005906006906002908f908d90600401615b31565b604080518083038186803b1580156107a557600080fd5b505af41580156107b9573d6000803e3d6000fd5b505050506040513d601f19601f820116820180604052508101906107dd9190614691565b60408701519194509250156107f6576107f683836120db565b60405163194a268960e21b815273__$a1fa80d38d689cae49e54718da49b6432c$__906365289a2490610836908490600590600690600290600401615af7565b60206040518083038186803b15801561084e57600080fd5b505af4158015610862573d6000803e3d6000fd5b505050506040513d601f19601f82011682018060405250810190610886919061465d565b156108ac5760405162461bcd60e51b81526004016108a3906155ce565b60405180910390fd5b828712156108cc5760405162461bcd60e51b81526004016108a39061562b565b818612156108ec5760405162461bcd60e51b81526004016108a390615647565b8287131561091c57600061090088856120ec565b60065490915061091a906001600160a01b03163383612151565b505b8186131561094c57600061093087846120ec565b60075490915061094a906001600160a01b03163383612151565b505b7fabc710e8ab5c8f4ea5d70ef0f4c50f12dd4804fa7e04ce65aa8c813197b64bea848484610978611275565b8960c0015160405161098e959493929190615c77565b60405180910390a150955095509592505050565b60015481565b6109b0613cfc565b600082815260056020818152604080842081516101208101835281548152600182015460ff1615158185015260028201548184015260038201546060820152600482015460808201529381015460a0850152815180830183526006820154815260078201548185015260c0850152815180830183526008820154815260098201548185015260e0850152600a81018054835181860281018601909452808452949591946101008701949192909184015b82821015610ad65760008481526020908190206040805160c08101825260068602909201805460ff16151583526001808201548486015260028201546001600160801b03169284019290925260038101546060840152600481015460808401526005015460a08301529083529092019101610a60565b505050915250909392505050565b6023546001600160a01b03163314610b0e5760405162461bcd60e51b81526004016108a390615663565b6014548211801590610b2257506015548111155b610b3e5760405162461bcd60e51b81526004016108a3906155ea565b6014805483900390556015805482900390558115610b6d57600654610b6d906001600160a01b03163384612151565b8015610b8a57600754610b8a906001600160a01b03163383612151565b5050565b600080610b99611b2d565b610bad85610ba687612298565b86866105ea565b91509150935093915050565b6040805160808082018352601a548252601b54602080840191909152601c5483850152601d5460608085019190915284519283018552601e548352601f5483830152905493820193909352602154928101929092529082565b6000610c1d8261242d565b600082815260046020819052604091829020915163194a268960e21b815273__$a1fa80d38d689cae49e54718da49b6432c$__926365289a2492610c6a9260059160069160029101615af7565b60206040518083038186803b158015610c8257600080fd5b505af4158015610c96573d6000803e3d6000fd5b505050506040513d601f19601f82011682018060405250810190610cba919061465d565b92915050565b60408051608081018252600c548152600d546020820152600e5491810191909152600f54606082015260009081908190819081908190610cff9061246d565b60408051608081018252600c548152600d546020820152600e5491810191909152600f546060820152610d319061248a565b60408051608081018252600c548152600d546020820152600e5491810191909152600f546060820152610d63906124a7565b6040805160808101825260105481526011546020820152601254918101919091526013546060820152610d959061246d565b6040805160808101825260105481526011546020820152601254918101919091526013546060820152610dc79061248a565b6040805160808101825260105481526011546020820152601254918101919091526013546060820152610df9906124a7565b949b939a50919850965094509092509050565b610e14613d56565b6000610e1e611275565b9050610e298361242d565b600083815260046020818152604092839020835160a0810185528154815260018201546001600160a01b031681840152600282015481860152600382015460608201529281018054855181850281018501909652808652939491936080860193830182828015610eb857602002820191906000526020600020905b815481526020019060010190808311610ea4575b505050919092525050604051635d8d458360e11b815273__$b4a4919001844372a79711112cfb20c2b9$__9263bb1a8b069250610f02916005906002906006908890600401615aab565b60006040518083038186803b158015610f1a57600080fd5b505af4158015610f2e573d6000803e3d6000fd5b505050506040513d6000823e601f3d908101601f19168201604052610f569190810190614868565b9392505050565b60165460175460185460195484565b6023546001600160a01b031681565b6023546001600160a01b03163314610fa55760405162461bcd60e51b81526004016108a390615663565b60005b8151811015610b8a57600080838381518110610fc057fe5b6020026020010151806020019051810190610fdb9190614a58565b91509150610fe98282611c8f565b60008281526004602081905260408083209051637882621360e11b815273__$a1fa80d38d689cae49e54718da49b6432c$__9363f104c4269361103993926005926006926002928a929101615c03565b60206040518083038186803b15801561105157600080fd5b505af4158015611065573d6000803e3d6000fd5b505050506040513d601f19601f820116820180604052508101906110899190614a40565b505050600101610fa8565b6023546001600160a01b031633146110be5760405162461bcd60e51b81526004016108a390615663565b8151601e55602080830151601f5560408084015182556060938401516021558251601a5590820151601b55810151601c550151601d55565b6023546001600160a01b031633146111205760405162461bcd60e51b81526004016108a390615663565b80516016556020810151601755604081015160185560600151601955565b611146613d7e565b6000828152600460208181526040808420815160a0810183528154815260018201546001600160a01b0316818501526002820154818401526003820154606082015293810180548351818602810186019094528084529193608086019392908301828280156111d457602002820191906000526020600020905b8154815260200190600101908083116111c0575b50505091909252505060405163149ccfa160e11b815291925073__$b4a4919001844372a79711112cfb20c2b9$__916329399f429150611221908490600590600290600690600401615a1f565b60006040518083038186803b15801561123957600080fd5b505af415801561124d573d6000803e3d6000fd5b505050506040513d6000823e601f3d908101601f19168201604052610f5691908101906147c2565b600a5460408051633850c7bd60e01b815290516000926001600160a01b031691633850c7bd9160048281019260e0929190829003018186803b1580156112ba57600080fd5b505afa1580156112ce573d6000803e3d6000fd5b505050506040513d601f19601f820116820180604052508101906112f291906149aa565b50949695505050505050565b611306613dbb565b600082815260046020818152604092839020835160a0810185528154815260018201546001600160a01b03168184015260028201548186015260038201546060820152928101805485518185028101850190965280865293949193608086019383018282801561139557602002820191906000526020600020905b815481526020019060010190808311611381575b5050505050815250509050919050565b6023546001600160a01b031633146113cf5760405162461bcd60e51b81526004016108a390615663565b6001600160a01b0381166113e257600080fd5b602380546001600160a01b0319166001600160a01b0392909216919091179055565b60408051610180810182526006546001600160a01b039081168252600754808216602080850191909152600160a01b9182900462ffffff168486015260085483166060808601919091526009548416608080870191909152600a5494851660a08701529290930460ff16151560c0850152600b5460e085015284518083018652600c548152600d5481830152600e5481870152600f548185015261010085015284519182018552601054825260115482820152601254828601526013549282019290925261012083015260145461014083015260155461016083015260008481526002909152918220829182916114fb91906124e2565b9250925092509193909250565b600080611513611b2d565b604080516001808252818301909252600091816020015b611532613df3565b81526020019060019003908161152a57905050905061155187876125a7565b8160008151811061155e57fe5b6020026020010181905250611575878287876105ea565b92509250505b94509492505050565b60008060008073__$7ffffda71c6e7abde662efb5427d8d1c5d$__63b5b49eb28888606001516115b2611275565b6040518463ffffffff1660e01b81526004016115d093929190615815565b60006040518083038186803b1580156115e857600080fd5b505af41580156115fc573d6000803e3d6000fd5b505050506040513d6000823e601f3d908101601f19168201604052611624919081019061462b565b905061163b8882876040015188606001518a6106ea565b87516020890151939750919550935061165391611c4e565b509450945094915050565b6060610cba82612298565b600054610100900460ff1680611682575061168261288c565b80611690575060005460ff16155b6116cb5760405162461bcd60e51b815260040180806020018281038252602e815260200180615daa602e913960400191505060405180910390fd5b600054610100900460ff161580156116f6576000805460ff1961ff0019909116610100171660011790555b845160078054602080890151600680546001600160a01b03199081166001600160a01b0393841617918290556040808d015162ffffff60a01b19909616600160a01b62ffffff998a16810291909117831696851696909617968790556060808e0151600a805460ff60a01b191691151589029190911790556008805484168e8716179055600980549093168b8616179092558051918201815291831681529185169282019290925291909204909216908201526117b3848261289d565b600a80546001600160a01b0319166001600160a01b0392831617905560016003819055600b5560065460405163095ea7b360e01b815291169063095ea7b3906118049088906000199060040161544d565b602060405180830381600087803b15801561181e57600080fd5b505af1158015611832573d6000803e3d6000fd5b505050506040513d601f19601f82011682018060405250810190611856919061465d565b5060075460405163095ea7b360e01b81526001600160a01b039091169063095ea7b39061188b9088906000199060040161544d565b602060405180830381600087803b1580156118a557600080fd5b505af11580156118b9573d6000803e3d6000fd5b505050506040513d601f19601f820116820180604052508101906118dd919061465d565b5060065460405163095ea7b360e01b81526001600160a01b039091169063095ea7b3906119129086906000199060040161544d565b602060405180830381600087803b15801561192c57600080fd5b505af1158015611940573d6000803e3d6000fd5b505050506040513d601f19601f82011682018060405250810190611964919061465d565b5060075460405163095ea7b360e01b81526001600160a01b039091169063095ea7b3906119999086906000199060040161544d565b602060405180830381600087803b1580156119b357600080fd5b505af11580156119c7573d6000803e3d6000fd5b505050506040513d601f19601f820116820180604052508101906119eb919061465d565b506119f6600c612981565b611a006010612981565b5042600155602380546001600160a01b031916331790558015611a29576000805461ff00191690555b5050505050565b60408051610180810182526006546001600160a01b039081168252600754808216602080850191909152600160a01b9182900462ffffff168486015260085483166060808601919091526009548416608080870191909152600a5494851660a08701529290930460ff16151560c0850152600b5460e085015284518083018652600c548152600d5481830152600e5481870152600f548185015261010085015284519182018552601054825260115482820152601254828601526013549282019290925261012083015260145461014083015260155461016083015260008481526002909152918220610cba91601a91611b28611275565b612999565b60015460405163725acfd160e01b815273__$d48eea142f8e4946a86e978d6ec5b9f014$__9163725acfd191611b6c91600691601691906004016156d3565b60206040518083038186803b158015611b8457600080fd5b505af4158015611b98573d6000803e3d6000fd5b505050506040513d601f19601f82011682018060405250810190611bbc9190614a40565b600155565b611bcb8282611c8f565b60008281526004602081905260409182902091516349b3bd7960e11b815273__$a1fa80d38d689cae49e54718da49b6432c$__926393677af292611c1a92600591879160069160029101615bd0565b60006040518083038186803b158015611c3257600080fd5b505af4158015611c46573d6000803e3d6000fd5b505050505050565b6000611c58611275565b6001600160a01b03169050808311158015611c735750818111155b6105e55760405162461bcd60e51b81526004016108a39061569a565b6000828152600460208181526040808420815160a0810183528154815260018201546001600160a01b031681850152600282015481840152600382015460608201529381018054835181860281018601909452808452919360808601939290830182828015611d1d57602002820191906000526020600020905b815481526020019060010190808311611d09575b505050505081525050905073__$d48eea142f8e4946a86e978d6ec5b9f014$__63a5d330ad8260056002600687601a611d54611275565b6040518863ffffffff1660e01b8152600401611d769796959493929190615a4f565b60006040518083038186803b158015611d8e57600080fd5b505af4158015611da2573d6000803e3d6000fd5b505060015460405163725acfd160e01b815273__$d48eea142f8e4946a86e978d6ec5b9f014$__935063725acfd19250611de591600691601691906004016156d3565b60206040518083038186803b158015611dfd57600080fd5b505af4158015611e11573d6000803e3d6000fd5b505050506040513d601f19601f82011682018060405250810190611e359190614a40565b60015560405162d85ecd60e61b815273__$da03e66f624374a74ff67f4d42d7f52632$__90633617b34090611e779060069085906005906002906004016156f5565b60006040518083038186803b158015611e8f57600080fd5b505af4158015611ea3573d6000803e3d6000fd5b50505050505050565b604080516001600160a01b0385811660248301528481166044830152606480830185905283518084039091018152608490920183526020820180516001600160e01b03166323b872dd60e01b178152925182516000948594938a169392918291908083835b60208310611f305780518252601f199092019160209182019101611f11565b6001836020036101000a0380198251168184511680821785525050505050509050019150506000604051808303816000865af19150503d8060008114611f92576040519150601f19603f3d011682016040523d82523d6000602084013e611f97565b606091505b5091509150818015611fc5575080511580611fc55750808060200190516020811015611fc257600080fd5b50515b611c46576040805162461bcd60e51b815260206004820152600360248201526229aa2360e91b604482015290519081900360640190fd5b60008083612081576003805460018082019092556000818152600460205260409081902082815590920180546001600160a01b03191633179081905591519093507fbf3e9c93de94306b70ac5b9411edf475545815333bf651b894b9eada6482c594916120749185916001600160a01b031690615c4a565b60405180910390a16120c5565b6000848152600460205260409020600101548492506001600160a01b03163314806120a95750825b6120c55760405162461bcd60e51b81526004016108a3906156b7565b5060008181526004602052604090209250929050565b602051828152816020820152604081fd5b60008183038183128015906121015750838113155b80612116575060008312801561211657508381135b610f565760405162461bcd60e51b8152600401808060200182810382526024815260200180615dd86024913960400191505060405180910390fd5b604080516001600160a01b038481166024830152604480830185905283518084039091018152606490920183526020820180516001600160e01b031663a9059cbb60e01b1781529251825160009485949389169392918291908083835b602083106121cd5780518252601f1990920191602091820191016121ae565b6001836020036101000a0380198251168184511680821785525050505050509050019150506000604051808303816000865af19150503d806000811461222f576040519150601f19603f3d011682016040523d82523d6000602084013e612234565b606091505b5091509150818015612262575080511580612262575080806020019051602081101561225f57600080fd5b50515b611a29576040805162461bcd60e51b815260206004820152600260248201526114d560f21b604482015290519081900360640190fd5b6000818152600460208181526040808420815160a0810183528154815260018201546001600160a01b0316818501526002820154818401526003820154606082810191909152948201805484518187028101870190955280855295969591949293608086019390929083018282801561233057602002820191906000526020600020905b81548152602001906001019080831161231c575b50505091909252505060408051610180810182526006546001600160a01b039081168252600754808216602080850191909152600160a01b9182900462ffffff168486015260085483166060808601919091526009548416608080870191909152600a5494851660a08701529290930460ff16151560c0850152600b5460e085015284518083018652600c548152600d5481830152600e5481870152600f5481850152610100850152845191820185526010548252601154908201526012549381019390935260135490830152610120810191909152601454610140820152601554610160820152919250610f5691839150600590600290612aff565b6040805160008082526020820190925261246a91839190612464565b612451613e29565b8152602001906001900390816124495790505b50611c8f565b50565b6000610cba82600001518360400151670de0b6b3a7640000612ced565b6000610cba82602001518360600151670de0b6b3a7640000612ced565b80516000906124bf5750670de0b6b3a7640000610506565b610cba6124cb8361248a565b670de0b6b3a76400006124dd8561246d565b612ced565b6040805161012081018252825481526001830154600281810b810b810b602084015263010000008204810b810b810b93830193909352600160301b90046001600160801b03166060820152908201546080820152600382015460a0820152600482015460c0820152600582015460e0820152600682015461010082015260009081908190612571908690612d0c565b6001850154600160301b90046001600160801b03166125908787612d2e565b9194506001600160801b0316925090509250925092565b6125af613df3565b6000838152600460208181526040808420815160a0810183528154815260018201546001600160a01b03168185015260028201548184015260038201546060820152938101805483518186028101860190945280845291936080860193929083018282801561263d57602002820191906000526020600020905b815481526020019060010190808311612629575b505050505081525050905061288483600560008460800151878151811061266057fe5b6020908102919091018101518252818101929092526040908101600090812082516101208101845281548152600182015460ff161515818601526002820154818501526003820154606082015260048201546080820152600582015460a0820152835180850185526006830154815260078301548187015260c0820152835180850185526008830154815260098301548187015260e0820152600a8201805485518188028101880190965280865291959294610100870194909391929184015b828210156127965760008481526020908190206040805160c08101825260068602909201805460ff16151583526001808201548486015260028201546001600160801b03169284019290925260038101546060840152600481015460808401526005015460a08301529083529092019101612720565b5050509152505060408051610180810182526006546001600160a01b039081168252600754808216602080850191909152600160a01b9182900462ffffff168486015260085483166060808601919091526009548416608080870191909152600a5494851660a08701529290930460ff16151560c0850152600b5460e085015284518083018652600c548152600d5481830152600e5481870152600f5481850152610100850152845191820185526010548252601154908201526012549381019390935260135490830152610120810191909152601454610140820152601554610160820152600290612dcb565b949350505050565b60006128973061307b565b15905090565b600081602001516001600160a01b031682600001516001600160a01b0316106128c557600080fd5b50805160208083015160409384015184516001600160a01b0394851681850152939091168385015262ffffff166060808401919091528351808403820181526080840185528051908301206001600160f81b031960a085015294901b6bffffffffffffffffffffffff191660a183015260b58201939093527fe34f199b19b2b4f47f68442619d555527d244f78a3297ea89325f843f87b8b5460d5808301919091528251808303909101815260f5909101909152805191012090565b670de0b6b3a764000060028201819055600390910155565b6001820154600090600160301b90046001600160801b031615612af45760006129c28585612d2e565b60a08601516001860154919250600091612a7f916129f2918a9190600281810b9163010000009004900b87613081565b6040805161012081018252885481526001890154600281810b810b810b602084015263010000008204810b810b810b93830193909352600160301b90046001600160801b03166060820152908801546080820152600388015460a0820152600488015460c0820152600588015460e08201526006880154610100820152612a7a9089906132e2565b613389565b90506000612ae68760c00151612acb8a600401604051806080016040529081600082015481526020016001820154815260200160028201548152602001600382015481525050866133a6565b60018901548890600281810b9163010000009004900b61341b565b919091019250612884915050565b506000949350505050565b60608460800151516001600160401b0381118015612b1c57600080fd5b50604051908082528060200260200182016040528015612b5657816020015b612b43613df3565b815260200190600190039081612b3b5790505b50905060005b856080015151811015612ce457612cc58186600089608001518581518110612b8057fe5b6020908102919091018101518252818101929092526040908101600090812082516101208101845281548152600182015460ff161515818601526002820154818501526003820154606082015260048201546080820152600582015460a0820152835180850185526006830154815260078301548187015260c0820152835180850185526008830154815260098301548187015260e0820152600a8201805485518188028101880190965280865291959294610100870194909391929184015b82821015612cb65760008481526020908190206040805160c08101825260068602909201805460ff16151583526001808201548486015260028201546001600160801b03169284019290925260038101546060840152600481015460808401526005015460a08301529083529092019101612c40565b50505050815250508686612dcb565b828281518110612cd157fe5b6020908102919091010152600101612b5c565b50949350505050565b828202811515841585830485141716612d0557600080fd5b0492915050565b600081606001516001600160801b0316612d2684846132e2565b019392505050565b6001810154604080516101208101825283548152600283810b810b810b602083015263010000008404810b810b810b92820192909252600160301b9092046001600160801b031660608301819052908301546080830152600383015460a0830152600483015460c0830152600583015460e08301526006830154610100830152600091610f569190670de0b6b3a7640000906124dd908790612d0c565b612dd3613df3565b6000846101000151516001600160401b0381118015612df157600080fd5b50604051908082528060200260200182016040528015612e2b57816020015b612e18613e6f565b815260200190600190039081612e105790505b50905060005b85610100015151811015612f895760008661010001518281518110612e5257fe5b6020908102919091018101518101516000818152888352604090819020815161012081018352815481526001820154600281810b810b810b9683019690965263010000008104860b860b860b82850152600160301b90046001600160801b0316606082015293810154608080860191909152600382015460a0860152600482015460c0860152600582015460e0860152600690910154610100808601919091528251918201909252908a01518051929450909182919086908110612f1257fe5b602002602001015160000151151581526020018961010001518581518110612f3657fe5b6020026020010151604001516001600160801b03168152602001826020015160020b8152602001826040015160020b815250848481518110612f7457fe5b60209081029190910101525050600101612e31565b50846020015115613033576040518060c00160405280878152602001612fc18760c001518661010001516134b390919063ffffffff16565b8152602001612fe28760e001518661012001516134b390919063ffffffff16565b81526020016130038760c001518661010001516134d090919063ffffffff16565b81526020016130248760e001518661012001516134d090919063ffffffff16565b81526020018290529150612ce4565b6040518060c001604052808781526020018660400151815260200186606001518152602001866080015181526020018660a00151815260200182815250915050949350505050565b3b151590565b600080856001600160a01b031663f30583996040518163ffffffff1660e01b815260040160206040518083038186803b1580156130bd57600080fd5b505afa1580156130d1573d6000803e3d6000fd5b505050506040513d601f19601f820116820180604052508101906130f59190614a40565b90506000866001600160a01b031663461413196040518163ffffffff1660e01b815260040160206040518083038186803b15801561313257600080fd5b505afa158015613146573d6000803e3d6000fd5b505050506040513d601f19601f8201168201806040525081019061316a9190614a40565b90506000876001600160a01b0316633850c7bd6040518163ffffffff1660e01b815260040160e06040518083038186803b1580156131a757600080fd5b505afa1580156131bb573d6000803e3d6000fd5b505050506040513d601f19601f820116820180604052508101906131df91906149aa565b505050505091505060008061320b6131f78b8b6134ed565b6132018c8b6134ed565b8b8b878a8a6135b9565b915091506000898960405160200161322492919061541c565b6040516020818303038152906040528051906020012090506132d061327f8d6000016040518060800160405290816000820154815260200160018201548152602001600282015481526020016003820154815250508a6133a6565b8d600801600084815260200190815260200160002060405180608001604052908160008201548152602001600182015481526020016002820154815260200160038201548152505085858a8a613636565b96505050505050505b95945050505050565b6060820151815160405163133f757160e31b815260009283926001600160a01b03909116916399fbab889161331991600401615c41565b6101806040518083038186803b15801561333257600080fd5b505afa158015613346573d6000803e3d6000fd5b505050506040513d601f19601f8201168201806040525081019061336a9190614e7d565b50506001600160801b039092169a505050505050505050505092915050565b60008183670de0b6b3a7640000028161339e57fe5b049392505050565b815160208301516000919083116133d557670de0b6b3a764000084604001518402816133ce57fe5b0401610f56565b670de0b6b3a76400008460400151856020015102816133f057fe5b0481019050670de0b6b3a7640000846020015184038560600151028161341257fe5b04019392505050565b60008060006134448661342d876136b5565b613436876136b5565b670de0b6b3a76400006139e7565b91509150600061345d89886001600160a01b0316613a82565b9050881561348157826134798383670de0b6b3a7640000612ced565b019350613499565b816134958483670de0b6b3a7640000612ced565b0193505b670de0b6b3a7640000848902049998505050505050505050565b6000610f5682600001518460400151670de0b6b3a7640000612ced565b6000610f5682602001518460600151670de0b6b3a7640000612ced565b6134f5613e96565b6000806000856001600160a01b031663f30dba93866040518263ffffffff1660e01b815260040161352691906155b2565b6101006040518083038186803b15801561353f57600080fd5b505afa158015613553573d6000803e3d6000fd5b505050506040513d601f19601f820116820180604052508101906135779190614900565b97505050509450945050508061359f5760405162461bcd60e51b81526004016108a390615606565b506040805180820190915291825260208201529392505050565b6000806000808860020b8760020b126135da575050885160208a01516135ea565b5050885160208a01519085039084035b6000808960020b8960020b1215613609575050895160208b0151613619565b5050895160208b01519087039086035b92909603959095039a949093039290920397509195505050505050565b6000806000876040015185111561366a578760400151850388600001518803670de0b6b3a7640000028161366657fe5b0491505b8760600151841115613699578760600151840388602001518703670de0b6b3a7640000028161369557fe5b0490505b671bc16d674ec800008282018a02049998505050505050505050565b60008060008360020b126136cc578260020b6136d4565b8260020b6000035b9050620d89e8811115613712576040805162461bcd60e51b81526020600482015260016024820152601560fa1b604482015290519081900360640190fd5b60006001821661372657600160801b613738565b6ffffcb933bd6fad37aa2d162d1a5940015b70ffffffffffffffffffffffffffffffffff169050600282161561376c576ffff97272373d413259a46990580e213a0260801c5b600482161561378b576ffff2e50f5f656932ef12357cf3c7fdcc0260801c5b60088216156137aa576fffe5caca7e10e4e61c3624eaa0941cd00260801c5b60108216156137c9576fffcb9843d60f6159c9db58835c9266440260801c5b60208216156137e8576fff973b41fa98c081472e6896dfb254c00260801c5b6040821615613807576fff2ea16466c96a3843ec78b326b528610260801c5b6080821615613826576ffe5dee046a99a2a811c461f1969c30530260801c5b610100821615613846576ffcbe86c7900a88aedcffc83b479aa3a40260801c5b610200821615613866576ff987a7253ac413176f2b074cf7815e540260801c5b610400821615613886576ff3392b0822b70005940c7a398e4b70f30260801c5b6108008216156138a6576fe7159475a2c29b7443b29c7fa6e889d90260801c5b6110008216156138c6576fd097f3bdfd2022b8845ad8f792aa58250260801c5b6120008216156138e6576fa9f746462d870fdf8a65dc1f90e061e50260801c5b614000821615613906576f70d869a156d2a1b890bb3df62baf32f70260801c5b618000821615613926576f31be135f97d08fd981231505542fcfa60260801c5b62010000821615613947576f09aa508b5b7a84e1c677de54f3e99bc90260801c5b62020000821615613967576e5d6af8dedb81196699c329225ee6040260801c5b62040000821615613986576d2216e584f5fa1ea926041bedfe980260801c5b620800008216156139a3576b048a170391f7dc42444e8fa20260801c5b60008460020b13156139be5780600019816139ba57fe5b0490505b6401000000008106156139d25760016139d5565b60005b60ff16602082901c0192505050919050565b600080836001600160a01b0316856001600160a01b03161115613a08579293925b846001600160a01b0316866001600160a01b031611613a3357613a2c858585613b4a565b915061157b565b836001600160a01b0316866001600160a01b03161015613a6c57613a58868585613b4a565b9150613a65858785613bb3565b905061157b565b613a77858585613bb3565b905094509492505050565b6000670de0b6b3a76400008315613aea57613aab838483600160c01b81613aa557fe5b04613bf2565b915081613aca576ec097ce7bc90715b34b9f1000000000915050610cba565b816ec097ce7bc90715b34b9f100000000081613ae257fe5b049150613b0b565b600160601b81613aff8586600160601b613bf2565b0281613b0757fe5b0491505b6ec097ce7bc90715b34b9f1000000000821115613b39576ec097ce7bc90715b34b9f10000000009150613b43565b81613b4357600191505b5092915050565b6000826001600160a01b0316846001600160a01b03161115613b6a579192915b836001600160a01b0316613ba3606060ff16846001600160801b0316901b8686036001600160a01b0316866001600160a01b0316613bf2565b81613baa57fe5b04949350505050565b6000826001600160a01b0316846001600160a01b03161115613bd3579192915b612884826001600160801b03168585036001600160a01b0316600160601b5b6000808060001985870986860292508281109083900303905080613c285760008411613c1d57600080fd5b508290049050610f56565b808411613c3457600080fd5b6000848688096000868103871696879004966002600389028118808a02820302808a02820302808a02820302808a02820302808a02820302808a02909103029181900381900460010186841190950394909402919094039290920491909117919091029150509392505050565b60405180610120016040528060008152602001600060020b8152602001600060020b815260200160006001600160801b0316815260200160008152602001600081526020016000815260200160008152602001600081525090565b6040518061012001604052806000815260200160001515815260200160008152602001600081526020016000815260200160008152602001613d3c613e96565b8152602001613d49613e96565b8152602001606081525090565b6040518060800160405280600081526020016000815260200160008152602001606081525090565b6040518060e00160405280600081526020016000815260200160008152602001600081526020016000815260200160008152602001606081525090565b6040518060a001604052806000815260200160006001600160a01b031681526020016000815260200160008152602001606081525090565b6040518060c001604052806000815260200160008152602001600081526020016000815260200160008152602001606081525090565b604080516101008101909152806000815260006020820181905260408201819052606082018190526080820181905260a0820181905260c0820181905260e09091015290565b60408051608081018252600080825260208201819052918101829052606081019190915290565b604051806040016040528060008152602001600081525090565b803561050681615d44565b805161050681615d44565b600082601f830112613ed6578081fd5b81356020613eeb613ee683615d1b565b615cf8565b82815281810190858301608080860288018501891015613f09578687fd5b865b86811015613f9a5781838b031215613f21578788fd5b604080518381018181106001600160401b0382111715613f3d57fe5b82528435613f4a81615d59565b815284880135613f5981615d83565b8189015284820135613f6a81615d74565b8083830152506060915081850135613f8181615d74565b9181019190915285529385019391810191600101613f0b565b509198975050505050505050565b600082601f830112613fb8578081fd5b81516020613fc8613ee683615d1b565b82815281810190858301608080860288018501891015613fe6578687fd5b865b86811015613f9a5781838b031215613ffe578788fd5b604080518381018181106001600160401b038211171561401a57fe5b8252845161402781615d59565b81528488015161403681615d83565b818901528482015161404781615d74565b808383015250606091508185015161405e81615d74565b9181019190915285529385019391810191600101613fe8565b600082601f830112614087578081fd5b81516020614097613ee683615d1b565b82815281810190858301610100808602880185018910156140b6578687fd5b865b86811015613f9a5781838b0312156140ce578788fd5b604080518381018181106001600160401b03821117156140ea57fe5b82526140f5856142f4565b8152878501518882015261410a82860161427a565b828201526060915061411d82860161455f565b828201526080915061413082860161430a565b8282015260a0915061414382860161430a565b9181019190915260c0848101519082015260e08085015190820152855293850193918101916001016140b8565b600082601f830112614180578081fd5b81516020614190613ee683615d1b565b828152818101908583016101e0808602880185018910156141af578687fd5b865b86811015613f9a57828a03828112156141c8578889fd5b60408051608081016001600160401b0382821081831117156141e657fe5b81845260608512156141f6578c8dfd5b60e083019450818510818611171561420a57fe5b50838352865181528987015160a08301528683015160c083015281526142338d60608801614456565b898201526142448d60e08801614456565b828201526142568d6101608801614456565b60608201528752505093850193918101916001016141b1565b803561050681615d59565b805161050681615d59565b600082601f830112614295578081fd5b81356001600160401b038111156142a857fe5b6142bb601f8201601f1916602001615cf8565b8181528460208386010111156142cf578283fd5b816020850160208301379081016020019190915292915050565b803561050681615d67565b805161050681615d67565b803561050681615d74565b805161050681615d74565b600060608284031215614326578081fd5b604051606081018181106001600160401b038211171561434257fe5b80604052508091508235815260208301356020820152604083013560408201525092915050565b60006080828403121561437a578081fd5b604051608081018181106001600160401b038211171561439657fe5b8060405250809150823581526020830135602082015260408301356040820152606083013560608201525092915050565b600060c082840312156143d8578081fd5b60405160c081016001600160401b0382821081831117156143f557fe5b81604052829350843583526020850135602084015260408501356040840152606085013560608401526080850135608084015260a085013591508082111561443c57600080fd5b5061444985828601613ec6565b60a0830152505092915050565b600060808284031215614467578081fd5b604051608081018181106001600160401b038211171561448357fe5b8060405250809150825181526020830151602082015260408301516040820152606083015160608201525092915050565b600060e082840312156144c5578081fd5b6144cf60e0615cf8565b90506144da8261426f565b81526144e86020830161426f565b60208201526144f96040830161426f565b604082015261450a6060830161426f565b60608201526080820135608082015260a082013560a082015260c08201356001600160401b0381111561453c57600080fd5b61454884828501614285565b60c08301525092915050565b803561050681615d83565b805161050681615d83565b805161ffff8116811461050657600080fd5b805161050681615d98565b600060208284031215614598578081fd5b8135610f5681615d44565b600060208083850312156145b5578182fd5b82356001600160401b038111156145ca578283fd5b8301601f810185136145da578283fd5b80356145e8613ee682615d1b565b81815283810190838501865b8481101561461d5761460b8a888435890101614285565b845292860192908601906001016145f4565b509098975050505050505050565b60006020828403121561463c578081fd5b81516001600160401b03811115614651578182fd5b61288484828501614077565b60006020828403121561466e578081fd5b8151610f5681615d59565b60006020828403121561468a578081fd5b5035919050565b600080604083850312156146a3578081fd5b505080516020909101519092909150565b6000608082840312156146c5578081fd5b610f568383614369565b60008061010083850312156146e2578182fd5b6146ec8484614369565b91506146fb8460808501614369565b90509250929050565b60008060008084860360e081121561471a578283fd5b6080811215614727578283fd5b50604051608081018181106001600160401b038211171561474457fe5b604052853561475281615d98565b8152602086013561476281615d44565b6020820152604086013561477581615d44565b6040820152606086013561478881615d59565b6060820152935061479b60808601613eb0565b92506147a960a08601613eb0565b91506147b760c08601613eb0565b905092959194509250565b6000602082840312156147d3578081fd5b81516001600160401b03808211156147e9578283fd5b9083019060e082860312156147fc578283fd5b61480660e0615cf8565b825181526020830151602082015260408301516040820152606083015160608201526080830151608082015260a083015160a082015260c08301518281111561484d578485fd5b61485987828601613fa8565b60c08301525095945050505050565b600060208284031215614879578081fd5b81516001600160401b038082111561488f578283fd5b90830190608082860312156148a2578283fd5b6040516080810181811083821117156148b757fe5b80604052508251815260208301516020820152604083015160408201526060830151828111156148e5578485fd5b6148f187828601614170565b60608301525095945050505050565b600080600080600080600080610100898b03121561491c578586fd5b885161492781615d83565b80985050602089015180600f0b811461493e578687fd5b80975050604089015195506060890151945060808901518060060b8114614963578485fd5b60a08a015190945061497481615d44565b60c08a015190935063ffffffff8116811461498d578283fd5b915061499b60e08a0161427a565b90509295985092959890939650565b600080600080600080600060e0888a0312156149c4578081fd5b87516149cf81615d44565b60208901519097506149e081615d74565b95506149ee6040890161456a565b94506149fc6060890161456a565b9350614a0a6080890161456a565b925060a088015160ff81168114614a1f578182fd5b60c0890151909250614a3081615d59565b8091505092959891949750929550565b600060208284031215614a51578081fd5b5051919050565b60008060408385031215614a6a578182fd5b8251915060208301516001600160401b03811115614a86578182fd5b614a9285828601614077565b9150509250929050565b600080600080600060a08688031215614ab3578283fd5b8535945060208601356001600160401b0380821115614ad0578485fd5b818801915088601f830112614ae3578485fd5b8135614af1613ee682615d1b565b80828252602082019150602085016101008d60208287028901011115614b1557898afd5b8996505b84871015614bcd5780828f031215614b2f57898afd5b6040518181018181108882111715614b4357fe5b604052614b4f836142e9565b815260208301356020820152614b676040840161426f565b6040820152614b7860608401614554565b6060820152614b89608084016142ff565b6080820152614b9a60a084016142ff565b60a082015260c083013560c082015260e083013560e0820152808552506020840193508082019150600187019650614b19565b5090985050505060408801359450606088013593506080880135915080821115614bf5578283fd5b50614c02888289016144b4565b9150509295509295909350565b60008060008060c08587031215614c24578182fd5b843593506020808601356001600160401b0380821115614c42578485fd5b818801915088601f830112614c55578485fd5b8135614c63613ee682615d1b565b81815284810190848601885b84811015614c9857614c868e8984358a01016143c7565b84529287019290870190600101614c6f565b509098505050506040880135925080831115614cb2578485fd5b5050614cc0878288016144b4565b9250506147b78660608701614315565b60008082840360a0811215614ce3578283fd5b833592506080601f1982011215614cf8578182fd5b50604051608081018181106001600160401b0382111715614d1557fe5b80604052506020840135815260408401356020820152606084013560408201526080840135614d4381615d59565b6060820152919491935090915050565b60008060008060e08587031215614d68578182fd5b8435935060208501356001600160401b0380821115614d85578384fd5b614d91888389016143c7565b94506040870135915080821115614da6578384fd5b50614db3878288016144b4565b9250506147b78660608701614369565b600080600060a08486031215614dd7578081fd5b8335925060208401356001600160401b03811115614df3578182fd5b614dff868287016144b4565b925050614e0f8560408601614315565b90509250925092565b60008060408385031215614e2a578182fd5b50508035926020909101359150565b60008060008060c08587031215614e4e578182fd5b843593506020850135925060408501356001600160401b03811115614e71578283fd5b614cc0878288016144b4565b6000806000806000806000806000806000806101808d8f031215614e9f578586fd5b8c516bffffffffffffffffffffffff81168114614eba578687fd5b9b50614ec860208e01613ebb565b9a50614ed660408e01613ebb565b9950614ee460608e01613ebb565b9850614ef260808e0161457c565b9750614f0060a08e0161430a565b9650614f0e60c08e0161430a565b9550614f1c60e08e0161455f565b94506101008d015193506101208d01519250614f3b6101408e0161455f565b9150614f4a6101608e0161455f565b90509295989b509295989b509295989b565b6001600160a01b03169052565b6000815180845260208085019450808401835b83811015614fd757815180511515885283810151848901526040808201516001600160801b031690890152606080820151908901526080808201519089015260a0908101519088015260c09096019590820190600101614f7c565b509495945050505050565b6000815180845260208085019450808401835b83811015614fd757615008878351615259565b6080969096019590820190600101614ff5565b6000815180845260208085019450808401835b83811015614fd75781518051600d811061504457fe5b8852808401518489015260408082015115159089015260608082015161506c828b0182615406565b5050608080820151615080828b018261510e565b505060a080820151615094828b018261510e565b505060c0818101519089015260e09081015190880152610100909601959082019060010161502e565b15159052565b60008151808452815b818110156150e8576020818501810151868301820152016150cc565b818111156150f95782602083870101525b50601f01601f19169290920160200192915050565b60020b9052565b80518252602090810151910152565b615137826151328354615d38565b614f5c565b60018101546001600160a01b0361515360208501828416614f5c565b6151686040850162ffffff8460a01c16615413565b6151756002840154615d38565b91506151846060850183614f5c565b6151916003840154615d38565b91506151a06080850183614f5c565b600483015491506151b660a08501828416614f5c565b506151ca60c0840160ff8360a01c166150bd565b50600581015460e08301526151e6610100830160068301615235565b6151f76101808301600a8301615235565b600e810154610200830152600f015461022090910152565b805182526020810151602083015260408101516040830152606081015160608301525050565b80548252600181015460208301526002810154604083015260030154606090910152565b8051151582526001600160801b036020820151166020830152604081015160020b6040830152606081015160020b60608301525050565b600060c08301825184526020808401518186015260408401516040860152606084015160608601526080808501518187015260a085015160c060a088015283815180865260e08901915084830195508692505b8083101561530a576152f6828751615259565b9484019460019290920191908301906152e3565b50979650505050505050565b805182526020808201516001600160a01b031681840152604080830151908401526060808301519084015260808083015160a0918501829052805191850182905260009290810191839060c08701905b808310156153865784518252938301936001929092019190830190615366565b509695505050505050565b600060a0830182548452600180600160a01b03818501541660208181880152600286015460408801526003860154606088015260048601915060a0608088015283825480865260c08901915083875282872095508693505b8084101561530a57855482529484019492840192908201906153e9565b6001600160801b03169052565b62ffffff169052565b600292830b60e890811b82529190920b901b600382015260060190565b6001600160a01b0391909116815260200190565b6001600160a01b03929092168252602082015260400190565b60208082528251828201819052600091906040908185019080840286018301878501865b8381101561461d57888303603f1901855281518051845287810151888501528681015187850152606080820151908501526080808201519085015260a09081015160c0918501829052906154e081860183614fe2565b96890196945050509086019060010161548a565b6000608082016080835280875180835260a0850191506020925060a0838202860101838a01855b8381101561554957609f19888403018552615537838351615290565b9486019492509085019060010161551b565b50509715159285019290925250505060408101929092526001600160a01b0316606090910152919050565b901515815260200190565b9515158652602086019490945260408501929092526001600160a01b03166060840152608083015260a082015260c00190565b60029190910b815260200190565b918252602082015260400190565b602080825260029082015261503360f01b604082015260600190565b6020808252600290820152610a0760f31b604082015260600190565b6020808252600b908201526a1a5b9a5d1a585b1a5e995960aa1b604082015260600190565b602080825260029082015261503560f01b604082015260600190565b602080825260029082015261281b60f11b604082015260600190565b60208082526017908201527f63616c6c6572206d757374206265206f70657261746f72000000000000000000604082015260600190565b60208082526003908201526221a41960e91b604082015260600190565b602080825260029082015261281960f11b604082015260600190565b83815260c081016156e76020830185615235565b8260a0830152949350505050565b60006102a06157048388615124565b8061024084015261571781840187615316565b6102608401959095525050610280015292915050565b610100810161573c828561520f565b610f56608083018461520f565b60006101208201905082518252602083015160020b6020830152604083015160020b604083015260608301516157826060840182615406565b506080830151608083015260a083015160a083015260c083015160c083015260e083015160e083015261010080840151818401525092915050565b60006020825282516020830152602083015160408301526040830151606083015260608301516080830152608083015160a083015260a083015160c083015260c083015160e080840152612884610100840182614fe2565b6000606082526158286060830186615290565b9315156020830152506001600160a01b0391909116604090910152919050565b60006020825282516020830152602083015161586760408401826150bd565b506040830151606083015260608301516080830152608083015160a083015260a083015160c083015260c08301516158a260e0840182615115565b5060e08301516158b6610120840182615115565b5061010083015161016083810152612884610180840182614f69565b6020808252825182820152828101516040808401919091528084015160608085019190915280850151608080860152805160a08601819052600094939184019285929160c08801905b8085101561599c5785518051805184528881015189850152850151858401528781015161594a8585018261520f565b5080850151805160e0850152888101516101008501528086015161012085015284015161014084015283015161598461016084018261520f565b506101e082019150868601955060018501945061591b565b5098975050505050505050565b6000602080835260c0830184518285015260018060a01b03828601511660408501526040850151606085015260608501516080850152608085015160a08086015281815180845260e08701915084830193508592505b8083101561538657835182529284019260019290920191908401906159ff565b60006102a0808352615a3381840188615316565b9150508460208301528360408301526132d96060830184615124565b600060e08252615a6260e083018a615316565b8860208401528760408401528660608401528281036080840152615a86818761501b565b60a084019590955250506001600160a01b039190911660c09091015295945050505050565b60006102c0808352615abf81840189615316565b915050856020830152846040830152615adb6060830185615124565b6001600160a01b03929092166102a09190910152949350505050565b60006102a0808352615b0b81840188615391565b915050846020830152615b216040830185615124565b8261028083015295945050505050565b600087825286602083015285604083015284606083015260c06080830152615b5c60c083018561501b565b82810360a08401528351151581526020840151151560208201526040840151151560408201526060840151615b9460608301826150bd565b506080840151608082015260a084015160a082015260c084015160e060c0830152615bc260e08301826150c3565b9a9950505050505050505050565b600086825285602083015260a06040830152615bef60a083018661501b565b606083019490945250608001529392505050565b600087825286602083015285604083015284606083015260c06080830152615c2e60c083018561501b565b90508260a0830152979650505050505050565b90815260200190565b9182526001600160a01b0316602082015260400190565b9283526020830191909152604082015260600190565b600086825285602083015284604083015260018060a01b038416606083015260a06080830152615caa60a08301846150c3565b979650505050505050565b93845260208401929092526040830152606082015260800190565b958652602086019490945260408501929092526060840152608083015260a082015260c00190565b6040518181016001600160401b0381118282101715615d1357fe5b604052919050565b60006001600160401b03821115615d2e57fe5b5060209081020190565b6001600160a01b031690565b6001600160a01b038116811461246a57600080fd5b801515811461246a57600080fd5b600d811061246a57600080fd5b8060020b811461246a57600080fd5b6001600160801b038116811461246a57600080fd5b62ffffff8116811461246a57600080fdfe496e697469616c697a61626c653a20636f6e747261637420697320616c726561647920696e697469616c697a65645369676e6564536166654d6174683a207375627472616374696f6e206f766572666c6f77a2646970667358221220600e893a58ea401d2703e6e5120adda77e1618b6753d1c63f264abf0e6d9a7c464736f6c63430007060033",
  "libraries": {
    "LiquidationLogic": "0x0d83dFcDa0c3060658361C0E1B169b9D6E55D3CD",
    "PositionUpdater": "0xA48469AA68810e4998ED718Ed39C9336AA2eFfAD",
    "VaultLib": "0x65BECD0EcDA627A4DBF74D8C9b50861A89d1d5CD",
    "PositionLib": "0x2F89917520064e1073a070f4b7c188a0b49F24e1",
    "InterestCalculator": "0xcB353a7Ca7C0DAd1542140f8132faD2dd174D6c7"
  },
  "devdoc": {
    "kind": "dev",
    "methods": {
      "checkLiquidatable(uint256)": {
        "params": {
          "_vaultId": "vault id"
        }
      },
      "forceClose(bytes[])": {
        "params": {
          "_data": "vaults data to close position"
        }
      },
      "getVaultStatus(uint256)": {
        "params": {
          "_vaultId": "vault id"
        }
      },
      "updatePosition(uint256,(uint8,uint256,bool,uint128,int24,int24,uint256,uint256)[],uint256,uint256,(bool,bool,bool,bool,int256,int256,bytes))": {
        "params": {
          "_buffer0": "max amount of token0 to send",
          "_buffer1": "max amount of token1 to send",
          "_positionUpdates": "parameters to update position",
          "_vaultId": "vault id"
        }
      }
    },
    "version": 1
  },
  "userdoc": {
    "kind": "user",
    "methods": {
      "checkLiquidatable(uint256)": {
        "notice": "Returns the flag whether a vault can be liquidated or not."
      },
      "closePosition(uint256,(uint256,uint256,uint256,uint256,uint256,(bool,uint128,int24,int24)[])[],(bool,bool,bool,bool,int256,int256,bytes),(uint256,uint256,uint256))": {
        "notice": "Closes position partially."
      },
      "closeSubVault(uint256,uint256,(bool,bool,bool,bool,int256,int256,bytes),(uint256,uint256,uint256))": {
        "notice": "Closes all positions in sub-vault."
      },
      "closeVault(uint256,(bool,bool,bool,bool,int256,int256,bytes),(uint256,uint256,uint256))": {
        "notice": "Closes all positions in a vault."
      },
      "forceClose(bytes[])": {
        "notice": "Contract owner can close positions"
      },
      "getSqrtPrice()": {
        "notice": "Gets square root of current underlying token price by quote token."
      },
      "getVaultStatus(uint256)": {
        "notice": "Returns collateral value and debt value."
      },
      "liquidate(uint256,(uint256,uint256,uint256,bool))": {
        "notice": "Liquidates a vault."
      },
      "openPosition(uint256,(uint256,uint256,uint256,uint256,uint256,(bool,uint128,int24,int24)[]),(bool,bool,bool,bool,int256,int256,bytes),(uint256,uint256,uint256,uint256))": {
        "notice": "Opens new position."
      },
      "updatePosition(uint256,(uint8,uint256,bool,uint128,int24,int24,uint256,uint256)[],uint256,uint256,(bool,bool,bool,bool,int256,int256,bytes))": {
        "notice": "Update position in a vault."
      }
    },
    "version": 1
  },
  "storageLayout": {
    "storage": [
      {
        "astId": 1001,
        "contract": "src/ControllerHelper.sol:ControllerHelper",
        "label": "_initialized",
        "offset": 0,
        "slot": "0",
        "type": "t_bool"
      },
      {
        "astId": 1004,
        "contract": "src/ControllerHelper.sol:ControllerHelper",
        "label": "_initializing",
        "offset": 1,
        "slot": "0",
        "type": "t_bool"
      },
      {
        "astId": 4277,
        "contract": "src/ControllerHelper.sol:ControllerHelper",
        "label": "lastTouchedTimestamp",
        "offset": 0,
        "slot": "1",
        "type": "t_uint256"
      },
      {
        "astId": 4281,
        "contract": "src/ControllerHelper.sol:ControllerHelper",
        "label": "ranges",
        "offset": 0,
        "slot": "2",
        "type": "t_mapping(t_bytes32,t_struct(PerpStatus)6499_storage)"
      },
      {
        "astId": 4283,
        "contract": "src/ControllerHelper.sol:ControllerHelper",
        "label": "vaultIdCount",
        "offset": 0,
        "slot": "3",
        "type": "t_uint256"
      },
      {
        "astId": 4287,
        "contract": "src/ControllerHelper.sol:ControllerHelper",
        "label": "vaults",
        "offset": 0,
        "slot": "4",
        "type": "t_mapping(t_uint256,t_struct(Vault)6544_storage)"
      },
      {
        "astId": 4291,
        "contract": "src/ControllerHelper.sol:ControllerHelper",
        "label": "subVaults",
        "offset": 0,
        "slot": "5",
        "type": "t_mapping(t_uint256,t_struct(SubVault)6532_storage)"
      },
      {
        "astId": 4293,
        "contract": "src/ControllerHelper.sol:ControllerHelper",
        "label": "context",
        "offset": 0,
        "slot": "6",
        "type": "t_struct(Context)6569_storage"
      },
      {
        "astId": 4295,
        "contract": "src/ControllerHelper.sol:ControllerHelper",
        "label": "irmParams",
        "offset": 0,
        "slot": "22",
        "type": "t_struct(IRMParams)6781_storage"
      },
      {
        "astId": 4297,
        "contract": "src/ControllerHelper.sol:ControllerHelper",
        "label": "ypParams",
        "offset": 0,
        "slot": "26",
        "type": "t_struct(YearlyPremiumParams)6772_storage"
      },
      {
        "astId": 4299,
        "contract": "src/ControllerHelper.sol:ControllerHelper",
        "label": "operator",
        "offset": 0,
        "slot": "35",
        "type": "t_address"
      }
    ],
    "types": {
      "t_address": {
        "encoding": "inplace",
        "label": "address",
        "numberOfBytes": "20"
      },
      "t_array(t_struct(LPTState)6512_storage)dyn_storage": {
        "base": "t_struct(LPTState)6512_storage",
        "encoding": "dynamic_array",
        "label": "struct DataType.LPTState[]",
        "numberOfBytes": "32"
      },
      "t_array(t_uint256)dyn_storage": {
        "base": "t_uint256",
        "encoding": "dynamic_array",
        "label": "uint256[]",
        "numberOfBytes": "32"
      },
      "t_bool": {
        "encoding": "inplace",
        "label": "bool",
        "numberOfBytes": "1"
      },
      "t_bytes32": {
        "encoding": "inplace",
        "label": "bytes32",
        "numberOfBytes": "32"
      },
      "t_int24": {
        "encoding": "inplace",
        "label": "int24",
        "numberOfBytes": "3"
      },
      "t_mapping(t_bytes32,t_struct(PerpStatus)6499_storage)": {
        "encoding": "mapping",
        "key": "t_bytes32",
        "label": "mapping(bytes32 => struct DataType.PerpStatus)",
        "numberOfBytes": "32",
        "value": "t_struct(PerpStatus)6499_storage"
      },
      "t_mapping(t_bytes32,t_struct(TickSnapshot)6758_storage)": {
        "encoding": "mapping",
        "key": "t_bytes32",
        "label": "mapping(bytes32 => struct InterestCalculator.TickSnapshot)",
        "numberOfBytes": "32",
        "value": "t_struct(TickSnapshot)6758_storage"
      },
      "t_mapping(t_uint256,t_struct(SubVault)6532_storage)": {
        "encoding": "mapping",
        "key": "t_uint256",
        "label": "mapping(uint256 => struct DataType.SubVault)",
        "numberOfBytes": "32",
        "value": "t_struct(SubVault)6532_storage"
      },
      "t_mapping(t_uint256,t_struct(Vault)6544_storage)": {
        "encoding": "mapping",
        "key": "t_uint256",
        "label": "mapping(uint256 => struct DataType.Vault)",
        "numberOfBytes": "32",
        "value": "t_struct(Vault)6544_storage"
      },
      "t_struct(AccountState)5882_storage": {
        "encoding": "inplace",
        "label": "struct BaseToken.AccountState",
        "members": [
          {
            "astId": 5879,
            "contract": "src/ControllerHelper.sol:ControllerHelper",
            "label": "collateralAmount",
            "offset": 0,
            "slot": "0",
            "type": "t_uint256"
          },
          {
            "astId": 5881,
            "contract": "src/ControllerHelper.sol:ControllerHelper",
            "label": "debtAmount",
            "offset": 0,
            "slot": "1",
            "type": "t_uint256"
          }
        ],
        "numberOfBytes": "64"
      },
      "t_struct(Context)6569_storage": {
        "encoding": "inplace",
        "label": "struct DataType.Context",
        "members": [
          {
            "astId": 6546,
            "contract": "src/ControllerHelper.sol:ControllerHelper",
            "label": "token0",
            "offset": 0,
            "slot": "0",
            "type": "t_address"
          },
          {
            "astId": 6548,
            "contract": "src/ControllerHelper.sol:ControllerHelper",
            "label": "token1",
            "offset": 0,
            "slot": "1",
            "type": "t_address"
          },
          {
            "astId": 6550,
            "contract": "src/ControllerHelper.sol:ControllerHelper",
            "label": "feeTier",
            "offset": 20,
            "slot": "1",
            "type": "t_uint24"
          },
          {
            "astId": 6552,
            "contract": "src/ControllerHelper.sol:ControllerHelper",
            "label": "positionManager",
            "offset": 0,
            "slot": "2",
            "type": "t_address"
          },
          {
            "astId": 6554,
            "contract": "src/ControllerHelper.sol:ControllerHelper",
            "label": "swapRouter",
            "offset": 0,
            "slot": "3",
            "type": "t_address"
          },
          {
            "astId": 6556,
            "contract": "src/ControllerHelper.sol:ControllerHelper",
            "label": "uniswapPool",
            "offset": 0,
            "slot": "4",
            "type": "t_address"
          },
          {
            "astId": 6558,
            "contract": "src/ControllerHelper.sol:ControllerHelper",
            "label": "isMarginZero",
            "offset": 20,
            "slot": "4",
            "type": "t_bool"
          },
          {
            "astId": 6560,
            "contract": "src/ControllerHelper.sol:ControllerHelper",
            "label": "nextSubVaultId",
            "offset": 0,
            "slot": "5",
            "type": "t_uint256"
          },
          {
            "astId": 6562,
            "contract": "src/ControllerHelper.sol:ControllerHelper",
            "label": "tokenState0",
            "offset": 0,
            "slot": "6",
            "type": "t_struct(TokenState)5877_storage"
          },
          {
            "astId": 6564,
            "contract": "src/ControllerHelper.sol:ControllerHelper",
            "label": "tokenState1",
            "offset": 0,
            "slot": "10",
            "type": "t_struct(TokenState)5877_storage"
          },
          {
            "astId": 6566,
            "contract": "src/ControllerHelper.sol:ControllerHelper",
            "label": "accumuratedProtocolFee0",
            "offset": 0,
            "slot": "14",
            "type": "t_uint256"
          },
          {
            "astId": 6568,
            "contract": "src/ControllerHelper.sol:ControllerHelper",
            "label": "accumuratedProtocolFee1",
            "offset": 0,
            "slot": "15",
            "type": "t_uint256"
          }
        ],
        "numberOfBytes": "512"
      },
      "t_struct(IRMParams)6781_storage": {
        "encoding": "inplace",
        "label": "struct InterestCalculator.IRMParams",
        "members": [
          {
            "astId": 6774,
            "contract": "src/ControllerHelper.sol:ControllerHelper",
            "label": "baseRate",
            "offset": 0,
            "slot": "0",
            "type": "t_uint256"
          },
          {
            "astId": 6776,
            "contract": "src/ControllerHelper.sol:ControllerHelper",
            "label": "kinkRate",
            "offset": 0,
            "slot": "1",
            "type": "t_uint256"
          },
          {
            "astId": 6778,
            "contract": "src/ControllerHelper.sol:ControllerHelper",
            "label": "slope1",
            "offset": 0,
            "slot": "2",
            "type": "t_uint256"
          },
          {
            "astId": 6780,
            "contract": "src/ControllerHelper.sol:ControllerHelper",
            "label": "slope2",
            "offset": 0,
            "slot": "3",
            "type": "t_uint256"
          }
        ],
        "numberOfBytes": "128"
      },
      "t_struct(LPTState)6512_storage": {
        "encoding": "inplace",
        "label": "struct DataType.LPTState",
        "members": [
          {
            "astId": 6501,
            "contract": "src/ControllerHelper.sol:ControllerHelper",
            "label": "isCollateral",
            "offset": 0,
            "slot": "0",
            "type": "t_bool"
          },
          {
            "astId": 6503,
            "contract": "src/ControllerHelper.sol:ControllerHelper",
            "label": "rangeId",
            "offset": 0,
            "slot": "1",
            "type": "t_bytes32"
          },
          {
            "astId": 6505,
            "contract": "src/ControllerHelper.sol:ControllerHelper",
            "label": "liquidityAmount",
            "offset": 0,
            "slot": "2",
            "type": "t_uint128"
          },
          {
            "astId": 6507,
            "contract": "src/ControllerHelper.sol:ControllerHelper",
            "label": "premiumGrowthLast",
            "offset": 0,
            "slot": "3",
            "type": "t_uint256"
          },
          {
            "astId": 6509,
            "contract": "src/ControllerHelper.sol:ControllerHelper",
            "label": "fee0Last",
            "offset": 0,
            "slot": "4",
            "type": "t_uint256"
          },
          {
            "astId": 6511,
            "contract": "src/ControllerHelper.sol:ControllerHelper",
            "label": "fee1Last",
            "offset": 0,
            "slot": "5",
            "type": "t_uint256"
          }
        ],
        "numberOfBytes": "192"
      },
      "t_struct(PerpStatus)6499_storage": {
        "encoding": "inplace",
        "label": "struct DataType.PerpStatus",
        "members": [
          {
            "astId": 6482,
            "contract": "src/ControllerHelper.sol:ControllerHelper",
            "label": "tokenId",
            "offset": 0,
            "slot": "0",
            "type": "t_uint256"
          },
          {
            "astId": 6484,
            "contract": "src/ControllerHelper.sol:ControllerHelper",
            "label": "lowerTick",
            "offset": 0,
            "slot": "1",
            "type": "t_int24"
          },
          {
            "astId": 6486,
            "contract": "src/ControllerHelper.sol:ControllerHelper",
            "label": "upperTick",
            "offset": 3,
            "slot": "1",
            "type": "t_int24"
          },
          {
            "astId": 6488,
            "contract": "src/ControllerHelper.sol:ControllerHelper",
            "label": "borrowedLiquidity",
            "offset": 6,
            "slot": "1",
            "type": "t_uint128"
          },
          {
            "astId": 6490,
            "contract": "src/ControllerHelper.sol:ControllerHelper",
            "label": "premiumGrowthForBorrower",
            "offset": 0,
            "slot": "2",
            "type": "t_uint256"
          },
          {
            "astId": 6492,
            "contract": "src/ControllerHelper.sol:ControllerHelper",
            "label": "premiumGrowthForLender",
            "offset": 0,
            "slot": "3",
            "type": "t_uint256"
          },
          {
            "astId": 6494,
            "contract": "src/ControllerHelper.sol:ControllerHelper",
            "label": "fee0Growth",
            "offset": 0,
            "slot": "4",
            "type": "t_uint256"
          },
          {
            "astId": 6496,
            "contract": "src/ControllerHelper.sol:ControllerHelper",
            "label": "fee1Growth",
            "offset": 0,
            "slot": "5",
            "type": "t_uint256"
          },
          {
            "astId": 6498,
            "contract": "src/ControllerHelper.sol:ControllerHelper",
            "label": "lastTouchedTimestamp",
            "offset": 0,
            "slot": "6",
            "type": "t_uint256"
          }
        ],
        "numberOfBytes": "224"
      },
      "t_struct(SubVault)6532_storage": {
        "encoding": "inplace",
        "label": "struct DataType.SubVault",
        "members": [
          {
            "astId": 6514,
            "contract": "src/ControllerHelper.sol:ControllerHelper",
            "label": "id",
            "offset": 0,
            "slot": "0",
            "type": "t_uint256"
          },
          {
            "astId": 6516,
            "contract": "src/ControllerHelper.sol:ControllerHelper",
            "label": "isCompound",
            "offset": 0,
            "slot": "1",
            "type": "t_bool"
          },
          {
            "astId": 6518,
            "contract": "src/ControllerHelper.sol:ControllerHelper",
            "label": "collateralAmount0",
            "offset": 0,
            "slot": "2",
            "type": "t_uint256"
          },
          {
            "astId": 6520,
            "contract": "src/ControllerHelper.sol:ControllerHelper",
            "label": "collateralAmount1",
            "offset": 0,
            "slot": "3",
            "type": "t_uint256"
          },
          {
            "astId": 6522,
            "contract": "src/ControllerHelper.sol:ControllerHelper",
            "label": "debtAmount0",
            "offset": 0,
            "slot": "4",
            "type": "t_uint256"
          },
          {
            "astId": 6524,
            "contract": "src/ControllerHelper.sol:ControllerHelper",
            "label": "debtAmount1",
            "offset": 0,
            "slot": "5",
            "type": "t_uint256"
          },
          {
            "astId": 6526,
            "contract": "src/ControllerHelper.sol:ControllerHelper",
            "label": "balance0",
            "offset": 0,
            "slot": "6",
            "type": "t_struct(AccountState)5882_storage"
          },
          {
            "astId": 6528,
            "contract": "src/ControllerHelper.sol:ControllerHelper",
            "label": "balance1",
            "offset": 0,
            "slot": "8",
            "type": "t_struct(AccountState)5882_storage"
          },
          {
            "astId": 6531,
            "contract": "src/ControllerHelper.sol:ControllerHelper",
            "label": "lpts",
            "offset": 0,
            "slot": "10",
            "type": "t_array(t_struct(LPTState)6512_storage)dyn_storage"
          }
        ],
        "numberOfBytes": "352"
      },
      "t_struct(TickSnapshot)6758_storage": {
        "encoding": "inplace",
        "label": "struct InterestCalculator.TickSnapshot",
        "members": [
          {
            "astId": 6751,
            "contract": "src/ControllerHelper.sol:ControllerHelper",
            "label": "lastFeeGrowthInside0X128",
            "offset": 0,
            "slot": "0",
            "type": "t_uint256"
          },
          {
            "astId": 6753,
            "contract": "src/ControllerHelper.sol:ControllerHelper",
            "label": "lastFeeGrowthInside1X128",
            "offset": 0,
            "slot": "1",
            "type": "t_uint256"
          },
          {
            "astId": 6755,
            "contract": "src/ControllerHelper.sol:ControllerHelper",
            "label": "lastFeeGrowthGlobal0X128",
            "offset": 0,
            "slot": "2",
            "type": "t_uint256"
          },
          {
            "astId": 6757,
            "contract": "src/ControllerHelper.sol:ControllerHelper",
            "label": "lastFeeGrowthGlobal1X128",
            "offset": 0,
            "slot": "3",
            "type": "t_uint256"
          }
        ],
        "numberOfBytes": "128"
      },
      "t_struct(TokenState)5877_storage": {
        "encoding": "inplace",
        "label": "struct BaseToken.TokenState",
        "members": [
          {
            "astId": 5870,
            "contract": "src/ControllerHelper.sol:ControllerHelper",
            "label": "totalDeposited",
            "offset": 0,
            "slot": "0",
            "type": "t_uint256"
          },
          {
            "astId": 5872,
            "contract": "src/ControllerHelper.sol:ControllerHelper",
            "label": "totalBorrowed",
            "offset": 0,
            "slot": "1",
            "type": "t_uint256"
          },
          {
            "astId": 5874,
            "contract": "src/ControllerHelper.sol:ControllerHelper",
            "label": "collateralScaler",
            "offset": 0,
            "slot": "2",
            "type": "t_uint256"
          },
          {
            "astId": 5876,
            "contract": "src/ControllerHelper.sol:ControllerHelper",
            "label": "debtScaler",
            "offset": 0,
            "slot": "3",
            "type": "t_uint256"
          }
        ],
        "numberOfBytes": "128"
      },
      "t_struct(Vault)6544_storage": {
        "encoding": "inplace",
        "label": "struct DataType.Vault",
        "members": [
          {
            "astId": 6534,
            "contract": "src/ControllerHelper.sol:ControllerHelper",
            "label": "vaultId",
            "offset": 0,
            "slot": "0",
            "type": "t_uint256"
          },
          {
            "astId": 6536,
            "contract": "src/ControllerHelper.sol:ControllerHelper",
            "label": "owner",
            "offset": 0,
            "slot": "1",
            "type": "t_address"
          },
          {
            "astId": 6538,
            "contract": "src/ControllerHelper.sol:ControllerHelper",
            "label": "marginAmount0",
            "offset": 0,
            "slot": "2",
            "type": "t_uint256"
          },
          {
            "astId": 6540,
            "contract": "src/ControllerHelper.sol:ControllerHelper",
            "label": "marginAmount1",
            "offset": 0,
            "slot": "3",
            "type": "t_uint256"
          },
          {
            "astId": 6543,
            "contract": "src/ControllerHelper.sol:ControllerHelper",
            "label": "subVaults",
            "offset": 0,
            "slot": "4",
            "type": "t_array(t_uint256)dyn_storage"
          }
        ],
        "numberOfBytes": "160"
      },
      "t_struct(YearlyPremiumParams)6772_storage": {
        "encoding": "inplace",
        "label": "struct InterestCalculator.YearlyPremiumParams",
        "members": [
          {
            "astId": 6765,
            "contract": "src/ControllerHelper.sol:ControllerHelper",
            "label": "premiumParams",
            "offset": 0,
            "slot": "0",
            "type": "t_struct(IRMParams)6781_storage"
          },
          {
            "astId": 6767,
            "contract": "src/ControllerHelper.sol:ControllerHelper",
            "label": "irmParams",
            "offset": 0,
            "slot": "4",
            "type": "t_struct(IRMParams)6781_storage"
          },
          {
            "astId": 6771,
            "contract": "src/ControllerHelper.sol:ControllerHelper",
            "label": "snapshots",
            "offset": 0,
            "slot": "8",
            "type": "t_mapping(t_bytes32,t_struct(TickSnapshot)6758_storage)"
          }
        ],
        "numberOfBytes": "288"
      },
      "t_uint128": {
        "encoding": "inplace",
        "label": "uint128",
        "numberOfBytes": "16"
      },
      "t_uint24": {
        "encoding": "inplace",
        "label": "uint24",
        "numberOfBytes": "3"
      },
      "t_uint256": {
        "encoding": "inplace",
        "label": "uint256",
        "numberOfBytes": "32"
      }
    }
  }
}