{
  "address": "0x5B3430F555eB1Fdd1877BA5cE5d7e5cbEbF3D3ee",
  "abi": [
    {
      "inputs": [
        {
          "internalType": "contract IUniswapV3Pool",
          "name": "uniswapPool",
          "type": "IUniswapV3Pool"
        },
        {
          "internalType": "uint256",
          "name": "ago",
          "type": "uint256"
        }
      ],
      "name": "callUniswapObserve",
      "outputs": [
        {
          "internalType": "uint160",
          "name": "",
          "type": "uint160"
        },
        {
          "internalType": "uint256",
          "name": "",
          "type": "uint256"
        }
      ],
      "stateMutability": "view",
      "type": "function"
    }
  ],
  "transactionHash": "0xb7eb323b7b1d51001571739da5371d6d5417c739b64953ce886872d4d30f79de",
  "args": [],
  "solcInputHash": "f0f8e65236002ddb816be293986cfd6c",
  "bytecode": "0x610b91610026600b82828239805160001a60731461001957fe5b30600052607381538281f3fe73000000000000000000000000000000000000000030146080604052600436106100355760003560e01c8063ad13aee41461003a575b600080fd5b61004d61004836600461092a565b610064565b60405161005b929190610b1b565b60405180910390f35b604080516002808252606082018352600092839283929091602083019080368337019050509050838160008151811061009957fe5b602002602001019063ffffffff16908163ffffffff16815250506000816001815181106100c257fe5b602002602001019063ffffffff16908163ffffffff1681525050600080866001600160a01b031663883bdbfd60e01b846040516024016101029190610a84565b60408051601f198184030181529181526020820180516001600160e01b03166001600160e01b03199094169390931790925290516101409190610a4b565b600060405180830381855afa9150503d806000811461017b576040519150601f19603f3d011682016040523d82523d6000602084013e610180565b606091505b50915091508161046b5760405160240161019990610afe565b60408051601f19818403018152919052602080820180516001600160e01b031662461bcd60e51b1781529151909120825191830191909120146101df576101df816104da565b600080886001600160a01b0316633850c7bd6040518163ffffffff1660e01b815260040160e06040518083038186803b15801561021b57600080fd5b505afa15801561022f573d6000803e3d6000fd5b505050506040513d601f19601f820116820180604052508101906102539190610955565b5050509350935050506000808a6001600160a01b031663252c09d78461ffff168660010161ffff168161028257fe5b066040518263ffffffff1660e01b815260040161029f9190610b34565b60806040518083038186803b1580156102b757600080fd5b505afa1580156102cb573d6000803e3d6000fd5b505050506040513d601f19601f820116820180604052508101906102ef91906109ec565b9350505091508061037e5760405163252c09d760e01b81526001600160a01b038c169063252c09d79061032790600090600401610ace565b60806040518083038186803b15801561033f57600080fd5b505afa158015610353573d6000803e3d6000fd5b505050506040513d601f19601f8201168201806040525081019061037791906109ec565b5091935050505b8163ffffffff1642039950898760008151811061039757fe5b602002602001019063ffffffff16908163ffffffff16815250508a6001600160a01b031663883bdbfd60e01b886040516024016103d49190610a84565b60408051601f198184030181529181526020820180516001600160e01b03166001600160e01b03199094169390931790925290516104129190610a4b565b600060405180830381855afa9150503d806000811461044d576040519150601f19603f3d011682016040523d82523d6000602084013e610452565b606091505b5090965094508561046657610466856104da565b505050505b6000818060200190518101906104819190610875565b905060008760060b8260008151811061049657fe5b6020026020010151836001815181106104ab57fe5b60200260200101510360060b816104be57fe5b05905060006104cc8261050a565b9a9899505050505050505050565b8051156104e957805181602001fd5b60405162461bcd60e51b815260040161050190610ad7565b60405180910390fd5b60008060008360020b12610521578260020b610529565b8260020b6000035b9050620d89e8811115610567576040805162461bcd60e51b81526020600482015260016024820152601560fa1b604482015290519081900360640190fd5b60006001821661057b57600160801b61058d565b6ffffcb933bd6fad37aa2d162d1a5940015b70ffffffffffffffffffffffffffffffffff16905060028216156105c1576ffff97272373d413259a46990580e213a0260801c5b60048216156105e0576ffff2e50f5f656932ef12357cf3c7fdcc0260801c5b60088216156105ff576fffe5caca7e10e4e61c3624eaa0941cd00260801c5b601082161561061e576fffcb9843d60f6159c9db58835c9266440260801c5b602082161561063d576fff973b41fa98c081472e6896dfb254c00260801c5b604082161561065c576fff2ea16466c96a3843ec78b326b528610260801c5b608082161561067b576ffe5dee046a99a2a811c461f1969c30530260801c5b61010082161561069b576ffcbe86c7900a88aedcffc83b479aa3a40260801c5b6102008216156106bb576ff987a7253ac413176f2b074cf7815e540260801c5b6104008216156106db576ff3392b0822b70005940c7a398e4b70f30260801c5b6108008216156106fb576fe7159475a2c29b7443b29c7fa6e889d90260801c5b61100082161561071b576fd097f3bdfd2022b8845ad8f792aa58250260801c5b61200082161561073b576fa9f746462d870fdf8a65dc1f90e061e50260801c5b61400082161561075b576f70d869a156d2a1b890bb3df62baf32f70260801c5b61800082161561077b576f31be135f97d08fd981231505542fcfa60260801c5b6201000082161561079c576f09aa508b5b7a84e1c677de54f3e99bc90260801c5b620200008216156107bc576e5d6af8dedb81196699c329225ee6040260801c5b620400008216156107db576d2216e584f5fa1ea926041bedfe980260801c5b620800008216156107f8576b048a170391f7dc42444e8fa20260801c5b60008460020b131561081357806000198161080f57fe5b0490505b64010000000081061561082757600161082a565b60005b60ff16602082901c0192505050919050565b8051801515811461084c57600080fd5b919050565b8051600681900b811461084c57600080fd5b805161ffff8116811461084c57600080fd5b60006020808385031215610887578182fd5b825167ffffffffffffffff8082111561089e578384fd5b818501915085601f8301126108b1578384fd5b8151818111156108bd57fe5b838102604051858282010181811085821117156108d657fe5b604052828152858101935084860182860187018a10156108f4578788fd5b8795505b8386101561091d5761090981610851565b8552600195909501949386019386016108f8565b5098975050505050505050565b6000806040838503121561093c578081fd5b823561094781610b43565b946020939093013593505050565b600080600080600080600060e0888a03121561096f578283fd5b875161097a81610b43565b8097505060208801518060020b8114610991578384fd5b955061099f60408901610863565b94506109ad60608901610863565b93506109bb60808901610863565b925060a088015160ff811681146109d0578283fd5b91506109de60c0890161083c565b905092959891949750929550565b60008060008060808587031215610a01578384fd5b845163ffffffff81168114610a14578485fd5b9350610a2260208601610851565b92506040850151610a3281610b43565b9150610a406060860161083c565b905092959194509250565b60008251815b81811015610a6b5760208186018101518583015201610a51565b81811115610a795782828501525b509190910192915050565b6020808252825182820181905260009190848201906040850190845b81811015610ac257835163ffffffff1683529284019291840191600101610aa0565b50909695505050505050565b90815260200190565b6020808252600d908201526c3297b2b6b83a3c96b2b93937b960991b604082015260600190565b60208082526003908201526213d31160ea1b604082015260600190565b6001600160a01b03929092168252602082015260400190565b61ffff91909116815260200190565b6001600160a01b0381168114610b5857600080fd5b5056fea264697066735822122017f01f1f9df31d2f93d8d0d2d338c52a32d1968a79687428d825c45ffd96b02264736f6c63430007060033",
  "devdoc": {
    "kind": "dev",
    "methods": {},
    "version": 1
  },
  "userdoc": {
    "kind": "user",
    "methods": {},
    "version": 1
  },
  "storageLayout": {
    "storage": [],
    "types": null
  }
}