{
  "address": "0xdA40923CA749A0aA46daB46d6dBa0674ee951b1e",
  "abi": [
    {
      "anonymous": false,
      "inputs": [
        {
          "indexed": true,
          "internalType": "uint256",
          "name": "subVaultId",
          "type": "uint256"
        },
        {
          "indexed": false,
          "internalType": "int256",
          "name": "fee0",
          "type": "int256"
        },
        {
          "indexed": false,
          "internalType": "int256",
          "name": "fee1",
          "type": "int256"
        }
      ],
      "name": "FeeUpdated",
      "type": "event"
    },
    {
      "anonymous": false,
      "inputs": [
        {
          "indexed": true,
          "internalType": "uint256",
          "name": "subVaultId",
          "type": "uint256"
        },
        {
          "indexed": false,
          "internalType": "bytes32",
          "name": "rangeId",
          "type": "bytes32"
        },
        {
          "indexed": false,
          "internalType": "uint128",
          "name": "liquidity",
          "type": "uint128"
        },
        {
          "indexed": false,
          "internalType": "uint256",
          "name": "amount0",
          "type": "uint256"
        },
        {
          "indexed": false,
          "internalType": "uint256",
          "name": "amount1",
          "type": "uint256"
        }
      ],
      "name": "LPTBorrowed",
      "type": "event"
    },
    {
      "anonymous": false,
      "inputs": [
        {
          "indexed": true,
          "internalType": "uint256",
          "name": "subVaultId",
          "type": "uint256"
        },
        {
          "indexed": false,
          "internalType": "bytes32",
          "name": "rangeId",
          "type": "bytes32"
        },
        {
          "indexed": false,
          "internalType": "uint128",
          "name": "liquidity",
          "type": "uint128"
        },
        {
          "indexed": false,
          "internalType": "uint256",
          "name": "amount0",
          "type": "uint256"
        },
        {
          "indexed": false,
          "internalType": "uint256",
          "name": "amount1",
          "type": "uint256"
        }
      ],
      "name": "LPTDeposited",
      "type": "event"
    },
    {
      "anonymous": false,
      "inputs": [
        {
          "indexed": true,
          "internalType": "uint256",
          "name": "subVaultId",
          "type": "uint256"
        },
        {
          "indexed": false,
          "internalType": "bytes32",
          "name": "rangeId",
          "type": "bytes32"
        },
        {
          "indexed": false,
          "internalType": "uint128",
          "name": "liquidity",
          "type": "uint128"
        },
        {
          "indexed": false,
          "internalType": "uint256",
          "name": "amount0",
          "type": "uint256"
        },
        {
          "indexed": false,
          "internalType": "uint256",
          "name": "amount1",
          "type": "uint256"
        }
      ],
      "name": "LPTRepaid",
      "type": "event"
    },
    {
      "anonymous": false,
      "inputs": [
        {
          "indexed": true,
          "internalType": "uint256",
          "name": "subVaultId",
          "type": "uint256"
        },
        {
          "indexed": false,
          "internalType": "bytes32",
          "name": "rangeId",
          "type": "bytes32"
        },
        {
          "indexed": false,
          "internalType": "uint128",
          "name": "liquidity",
          "type": "uint128"
        },
        {
          "indexed": false,
          "internalType": "uint256",
          "name": "amount0",
          "type": "uint256"
        },
        {
          "indexed": false,
          "internalType": "uint256",
          "name": "amount1",
          "type": "uint256"
        }
      ],
      "name": "LPTWithdrawn",
      "type": "event"
    },
    {
      "anonymous": false,
      "inputs": [
        {
          "indexed": true,
          "internalType": "uint256",
          "name": "vaultId",
          "type": "uint256"
        },
        {
          "indexed": false,
          "internalType": "int256",
          "name": "marginAmount0",
          "type": "int256"
        },
        {
          "indexed": false,
          "internalType": "int256",
          "name": "marginAmount1",
          "type": "int256"
        }
      ],
      "name": "MarginUpdated",
      "type": "event"
    },
    {
      "anonymous": false,
      "inputs": [
        {
          "indexed": true,
          "internalType": "uint256",
          "name": "subVaultId",
          "type": "uint256"
        },
        {
          "indexed": false,
          "internalType": "uint256",
          "name": "amount0",
          "type": "uint256"
        },
        {
          "indexed": false,
          "internalType": "uint256",
          "name": "amount1",
          "type": "uint256"
        }
      ],
      "name": "TokenBorrowed",
      "type": "event"
    },
    {
      "anonymous": false,
      "inputs": [
        {
          "indexed": true,
          "internalType": "uint256",
          "name": "subVaultId",
          "type": "uint256"
        },
        {
          "indexed": false,
          "internalType": "uint256",
          "name": "amount0",
          "type": "uint256"
        },
        {
          "indexed": false,
          "internalType": "uint256",
          "name": "amount1",
          "type": "uint256"
        }
      ],
      "name": "TokenDeposited",
      "type": "event"
    },
    {
      "anonymous": false,
      "inputs": [
        {
          "indexed": true,
          "internalType": "uint256",
          "name": "subVaultId",
          "type": "uint256"
        },
        {
          "indexed": false,
          "internalType": "uint256",
          "name": "amount0",
          "type": "uint256"
        },
        {
          "indexed": false,
          "internalType": "uint256",
          "name": "amount1",
          "type": "uint256"
        }
      ],
      "name": "TokenRepaid",
      "type": "event"
    },
    {
      "anonymous": false,
      "inputs": [
        {
          "indexed": true,
          "internalType": "uint256",
          "name": "vaultId",
          "type": "uint256"
        },
        {
          "indexed": false,
          "internalType": "uint256",
          "name": "subVaultId",
          "type": "uint256"
        },
        {
          "indexed": false,
          "internalType": "bool",
          "name": "zeroForOne",
          "type": "bool"
        },
        {
          "indexed": false,
          "internalType": "uint256",
          "name": "srcAmount",
          "type": "uint256"
        },
        {
          "indexed": false,
          "internalType": "uint256",
          "name": "destAmount",
          "type": "uint256"
        }
      ],
      "name": "TokenSwap",
      "type": "event"
    },
    {
      "anonymous": false,
      "inputs": [
        {
          "indexed": true,
          "internalType": "uint256",
          "name": "subVaultId",
          "type": "uint256"
        },
        {
          "indexed": false,
          "internalType": "uint256",
          "name": "amount0",
          "type": "uint256"
        },
        {
          "indexed": false,
          "internalType": "uint256",
          "name": "amount1",
          "type": "uint256"
        }
      ],
      "name": "TokenWithdrawn",
      "type": "event"
    },
    {
      "inputs": [
        {
          "internalType": "contract IUniswapV3Pool",
          "name": "_uniswapPool",
          "type": "IUniswapV3Pool"
        }
      ],
      "name": "getSqrtPrice",
      "outputs": [
        {
          "internalType": "uint160",
          "name": "sqrtPriceX96",
          "type": "uint160"
        }
      ],
      "stateMutability": "view",
      "type": "function"
    }
  ],
  "transactionHash": "0x0ab35cbd46ba1a7c235698575271d6cddde75cc71e022afbe36ea9b9056846c2",
  "args": [],
  "solcInputHash": "65b5d80da832e8b098b0e946421f6b5a",
  "bytecode": "0x615b6162000027600b82828239805160001a60731461001a57fe5b30600052607381538281f3fe730000000000000000000000000000000000000000301460806040526004361061004b5760003560e01c80633617b340146100505780636f32035014610072578063c827d03e1461009b575b600080fd5b81801561005c57600080fd5b5061007061006b3660046151dc565b6100c9565b005b6100856100803660046151c0565b61028f565b60405161009291906159c3565b60405180910390f35b8180156100a757600080fd5b506100bb6100b6366004615308565b61030f565b60405161009292919061574c565b60005b836080015151811015610288576000836000866080015184815181106100ee57fe5b6020908102919091018101518252818101929092526040908101600090812082516101208101845281548152600182015460ff161515818601526002820154818501526003820154606082015260048201546080820152600582015460a0820152835180850185526006830154815260078301548187015260c0820152835180850185526008830154815260098301548187015260e0820152600a8201805485518188028101880190965280865291959294610100870194909391929184015b828210156102245760008481526020908190206040805160c08101825260068602909201805460ff16151583526001808201548486015260028201546001600160801b03169284019290925260038101546060840152600481015460808401526005015460a083015290835290920191016101ae565b5050505081525050905060005b8161010001515181101561027e5761027687856000856101000151858151811061025757fe5b6020026020010151602001518152602001908152602001600020611861565b600101610231565b50506001016100cc565b5050505050565b6000816001600160a01b0316633850c7bd6040518163ffffffff1660e01b815260040160e06040518083038186803b1580156102ca57600080fd5b505afa1580156102de573d6000803e3d6000fd5b505050506040513d601f19601f8201168201806040525081019061030291906154aa565b5094979650505050505050565b60008060005b84518110156110ba57600085828151811061032c57fe5b6020026020010151905060006103538a8a84602001518e611984909392919063ffffffff16565b905060018251600c81111561036457fe5b14156103cd578551156103925760405162461bcd60e51b8152600401610389906157e6565b60405180910390fd5b61039d818a84611a6c565b60c08201516103ad908690611b40565b94506103c68260e0015185611b4090919063ffffffff16565b93506110b0565b60028251600c8111156103dc57fe5b1415610414576000806103f0838c86611bae565b90925090506103ff8783611c80565b965061040b8682611c80565b955050506110b0565b60038251600c81111561042357fe5b141561047c578551156104485760405162461bcd60e51b8152600401610389906157e6565b610453818a84611ce5565b60c0820151610463908690611c80565b94506103c68260e0015185611c8090919063ffffffff16565b60048251600c81111561048b57fe5b14156104ba5760008061049f838c86611dac565b90925090506104ae8783611b40565b965061040b8682611b40565b60058251600c8111156104c957fe5b14156106c8578551156104ee5760405162461bcd60e51b8152600401610389906157e6565b60008061049f838c604051806101800160405290816000820160009054906101000a90046001600160a01b03166001600160a01b03166001600160a01b031681526020016001820160009054906101000a90046001600160a01b03166001600160a01b03166001600160a01b031681526020016001820160149054906101000a900462ffffff1662ffffff1662ffffff1681526020016002820160009054906101000a90046001600160a01b03166001600160a01b03166001600160a01b031681526020016003820160009054906101000a90046001600160a01b03166001600160a01b03166001600160a01b031681526020016004820160009054906101000a90046001600160a01b03166001600160a01b03166001600160a01b031681526020016004820160149054906101000a900460ff1615151515815260200160058201548152602001600682016040518060800160405290816000820154815260200160018201548152602001600282015481526020016003820154815250508152602001600a82016040518060800160405290816000820154815260200160018201548152602001600282015481526020016003820154815250508152602001600e8201548152602001600f820154815250508c87611e6e565b60068251600c8111156106d757fe5b14156108b7576000806103f0838c604051806101800160405290816000820160009054906101000a90046001600160a01b03166001600160a01b03166001600160a01b031681526020016001820160009054906101000a90046001600160a01b03166001600160a01b03166001600160a01b031681526020016001820160149054906101000a900462ffffff1662ffffff1662ffffff1681526020016002820160009054906101000a90046001600160a01b03166001600160a01b03166001600160a01b031681526020016003820160009054906101000a90046001600160a01b03166001600160a01b03166001600160a01b031681526020016004820160009054906101000a90046001600160a01b03166001600160a01b03166001600160a01b031681526020016004820160149054906101000a900460ff1615151515815260200160058201548152602001600682016040518060800160405290816000820154815260200160018201548152602001600282015481526020016003820154815250508152602001600a82016040518060800160405290816000820154815260200160018201548152602001600282015481526020016003820154815250508152602001600e8201548152602001600f820154815250508c87611ff4565b60078251600c8111156108c657fe5b1415610ac5578551156108eb5760405162461bcd60e51b8152600401610389906157e6565b6000806103f0838c604051806101800160405290816000820160009054906101000a90046001600160a01b03166001600160a01b03166001600160a01b031681526020016001820160009054906101000a90046001600160a01b03166001600160a01b03166001600160a01b031681526020016001820160149054906101000a900462ffffff1662ffffff1662ffffff1681526020016002820160009054906101000a90046001600160a01b03166001600160a01b03166001600160a01b031681526020016003820160009054906101000a90046001600160a01b03166001600160a01b03166001600160a01b031681526020016004820160009054906101000a90046001600160a01b03166001600160a01b03166001600160a01b031681526020016004820160149054906101000a900460ff1615151515815260200160058201548152602001600682016040518060800160405290816000820154815260200160018201548152602001600282015481526020016003820154815250508152602001600a82016040518060800160405290816000820154815260200160018201548152602001600282015481526020016003820154815250508152602001600e8201548152602001600f820154815250508c8761209c565b60088251600c811115610ad457fe5b1415610cb45760008061049f838c604051806101800160405290816000820160009054906101000a90046001600160a01b03166001600160a01b03166001600160a01b031681526020016001820160009054906101000a90046001600160a01b03166001600160a01b03166001600160a01b031681526020016001820160149054906101000a900462ffffff1662ffffff1662ffffff1681526020016002820160009054906101000a90046001600160a01b03166001600160a01b03166001600160a01b031681526020016003820160009054906101000a90046001600160a01b03166001600160a01b03166001600160a01b031681526020016004820160009054906101000a90046001600160a01b03166001600160a01b03166001600160a01b031681526020016004820160149054906101000a900460ff1615151515815260200160058201548152602001600682016040518060800160405290816000820154815260200160018201548152602001600282015481526020016003820154815250508152602001600a82016040518060800160405290816000820154815260200160018201548152602001600282015481526020016003820154815250508152602001600e8201548152602001600f820154815250508c876121af565b60098251600c811115610cc357fe5b1415610ea25760008061049f8d8c604051806101800160405290816000820160009054906101000a90046001600160a01b03166001600160a01b03166001600160a01b031681526020016001820160009054906101000a90046001600160a01b03166001600160a01b03166001600160a01b031681526020016001820160149054906101000a900462ffffff1662ffffff1662ffffff1681526020016002820160009054906101000a90046001600160a01b03166001600160a01b03166001600160a01b031681526020016003820160009054906101000a90046001600160a01b03166001600160a01b03166001600160a01b031681526020016004820160009054906101000a90046001600160a01b03166001600160a01b03166001600160a01b031681526020016004820160149054906101000a900460ff1615151515815260200160058201548152602001600682016040518060800160405290816000820154815260200160018201548152602001600282015481526020016003820154815250508152602001600a82016040518060800160405290816000820154815260200160018201548152602001600282015481526020016003820154815250508152602001600e8201548152602001600f820154815250508661232b565b600a8251600c811115610eb157fe5b14156110b0576000806110908d8c604051806101800160405290816000820160009054906101000a90046001600160a01b03166001600160a01b03166001600160a01b031681526020016001820160009054906101000a90046001600160a01b03166001600160a01b03166001600160a01b031681526020016001820160149054906101000a900462ffffff1662ffffff1662ffffff1681526020016002820160009054906101000a90046001600160a01b03166001600160a01b03166001600160a01b031681526020016003820160009054906101000a90046001600160a01b03166001600160a01b03166001600160a01b031681526020016004820160009054906101000a90046001600160a01b03166001600160a01b03166001600160a01b031681526020016004820160149054906101000a900460ff1615151515815260200160058201548152602001600682016040518060800160405290816000820154815260200160018201548152602001600282015481526020016003820154815250508152602001600a82016040518060800160405290816000820154815260200160018201548152602001600282015481526020016003820154815250508152602001600e8201548152602001600f820154815250508661258f565b909250905061109f8783611b40565b96506110ab8682611b40565b955050505b5050600101610315565b50826080015160011914806110d457508260a00151600119145b156110eb576110e58888878961276e565b90925090505b82602001511561150d5760006111068383866060015161301a565b905060008060098351600c81111561111a57fe5b1415611300576112f68b8a604051806101800160405290816000820160009054906101000a90046001600160a01b03166001600160a01b03166001600160a01b031681526020016001820160009054906101000a90046001600160a01b03166001600160a01b03166001600160a01b031681526020016001820160149054906101000a900462ffffff1662ffffff1662ffffff1681526020016002820160009054906101000a90046001600160a01b03166001600160a01b03166001600160a01b031681526020016003820160009054906101000a90046001600160a01b03166001600160a01b03166001600160a01b031681526020016004820160009054906101000a90046001600160a01b03166001600160a01b03166001600160a01b031681526020016004820160149054906101000a900460ff1615151515815260200160058201548152602001600682016040518060800160405290816000820154815260200160018201548152602001600282015481526020016003820154815250508152602001600a82016040518060800160405290816000820154815260200160018201548152602001600282015481526020016003820154815250508152602001600e8201548152602001600f820154815250508561232b565b90925090506114f1565b600a8351600c81111561130f57fe5b14156114f1576114eb8b8a604051806101800160405290816000820160009054906101000a90046001600160a01b03166001600160a01b03166001600160a01b031681526020016001820160009054906101000a90046001600160a01b03166001600160a01b03166001600160a01b031681526020016001820160149054906101000a900462ffffff1662ffffff1662ffffff1681526020016002820160009054906101000a90046001600160a01b03166001600160a01b03166001600160a01b031681526020016003820160009054906101000a90046001600160a01b03166001600160a01b03166001600160a01b031681526020016004820160009054906101000a90046001600160a01b03166001600160a01b03166001600160a01b031681526020016004820160149054906101000a900460ff1615151515815260200160058201548152602001600682016040518060800160405290816000820154815260200160018201548152602001600282015481526020016003820154815250508152602001600a82016040518060800160405290816000820154815260200160018201548152602001600282015481526020016003820154815250508152602001600e8201548152602001600f820154815250508561258f565b90925090505b6114fb8583611b40565b94506115078482611b40565b93505050505b600080600085608001511261154c5760028a0154608086015161152f91611c80565b608086015160028c015591506115458483611b40565b9350611580565b8460800151600119141561158057611566846000196131c7565b91506115768a6002015483613270565b60028b0155600093505b60008560a00151126115bc5760038a015460a086015161159f91611c80565b60a086015160038c015590506115b58382611b40565b92506115f0565b8460a0015160011914156115f0576115d6836000196131c7565b90506115e68a6003015482613270565b60038b0155600092505b811515806115fd57508015155b1561163f5789546040517fc56aedd0d24f7e7e9ffa0147ff1aee7a907de845f0c00b73570d635a91b98f5e90611636908590859061574c565b60405180910390a25b505060048801541561185657600488015460005b81811015611853576000600182840303905060008a60008d600401848154811061167957fe5b60009182526020808320909101548352828101939093526040918201812082516101208101845281548152600182015460ff161515818601526002820154818501526003820154606082015260048201546080820152600582015460a0820152835180850185526006830154815260078301548187015260c0820152835180850185526008830154815260098301548187015260e0820152600a8201805485518188028101880190965280865291959294610100870194909391929184015b828210156117ae5760008481526020908190206040805160c08101825260068602909201805460ff16151583526001808201548486015260028201546001600160801b03169284019290925260038101546060840152600481015460808401526005015460a08301529083529092019101611738565b5050509152505060408101519091501580156117cc57506080810151155b80156117da57506060810151155b80156117e8575060a0810151155b80156117f7575060c081015151155b8015611809575060c081015160200151155b8015611818575060e081015151155b801561182a575060e081015160200151155b801561183a575061010081015151155b15611849576118498c836132fe565b5050600101611653565b50505b965096945050505050565b6000611875836060015183600001546133b2565b60408051608081018252845481523060208201526001600160801b03818301819052606080830191909152860151915163fc6f786560e01b81529293509160009182916001600160a01b039091169063fc6f7865906118d890869060040161583c565b6040805180830381600087803b1580156118f157600080fd5b505af1158015611905573d6000803e3d6000fd5b505050506040513d601f19601f820116820180604052508101906119299190615595565b9150915061194e61194383670de0b6b3a764000087613451565b600487015490613470565b600486015561197461196982670de0b6b3a764000087613451565b600587015490613470565b8560050181905550505050505050565b6004840154600090821415611a0f576005830180546001808201909255600487018054928301815560009081526020902090910181905585546040517f0605914ef5b9f55d33aee21c48cb416d5a7e023fb964c2ed330b6c894c4547e8906119ef908690859061574c565b60405180910390a260008181526020869052604090209081559050611a64565b6004850154821015611a4c576000856004018381548110611a2c57fe5b60009182526020808320909101548252869052604090209150611a649050565b60405162461bcd60e51b815260040161038990615820565b949350505050565b604081015160018401805460ff1916911515919091179081905560ff16611abe5760c08101516002840154611aa091613470565b600284015560e08101516003840154611ab891613470565b60038401555b611add836006018260c00151846006016134ca9092919063ffffffff16565b5060e0810151611af690600a84019060088601906134ca565b50825460c082015160e08301516040517f9025856e8c711944a0fd0a86d017fa0321896009b4994782cd12833b076cf83392611b3392909161574c565b60405180910390a2505050565b6000828201818312801590611b555750838112155b80611b6a5750600083128015611b6a57508381125b611ba55760405162461bcd60e51b8152600401808060200182810382526021815260200180615ac06021913960400191505060405180910390fd5b90505b92915050565b6001830154600090819060ff16611bf05760c08301516002860154611bd29161350a565b600286015560e08301516003860154611bea9161350a565b60038601555b611c0f856006018460c00151866006016135679092919063ffffffff16565b9150611c30856008018460e0015186600a016135679092919063ffffffff16565b905084600001547f6576755e8647a4a666f6afbd41f61d2e363421489e2899cc9e01b72d0e0b77fe8460c001518560e00151604051611c7092919061574c565b60405180910390a2935093915050565b6000818303818312801590611c955750838113155b80611caa5750600083128015611caa57508381135b611ba55760405162461bcd60e51b8152600401808060200182810382526024815260200180615b086024913960400191505060405180910390fd5b604081015160018401805460ff1916911515919091179081905560ff16611d375760c08101516004840154611d1991613470565b600484015560e08101516005840154611d3191613470565b60058401555b611d56836006018260c00151846006016135e09092919063ffffffff16565b5060e0810151611d6f90600a84019060088601906135e0565b50825460c082015160e08301516040517f0b245a68f2c021f238c4a20da845eefcaeb7040113a646decdcf18a7d32ddf7592611b3392909161574c565b6001830154600090819060ff16611dee5760c08301516004860154611dd09161350a565b600486015560e08301516005860154611de89161350a565b60058601555b611e0d856006018460c00151866006016136a59092919063ffffffff16565b9150611e2e856008018460e0015186600a016136a59092919063ffffffff16565b905084600001547f149b50d736e6bae3731794c3f60356f28d0a90d89a576fceedcb963d88be12bc8460c001518560e00151604051611c7092919061574c565b6000806000611e8584608001518560a0015161372c565b9050600080611eae611e9a8960a0015161028f565b87608001518860a00151896060015161375f565b600085815260208a905260408120549294509092509015611f0257611ef4898960008781526020019081526020016000206000015485858b60c001518c60e0015161378c565b90985096509150611f659050565b6000611f238a89608001518a60a0015187878d60c001518e60e00151613858565b809950819a5082955083945050505050611f638189608001518a60a001518c60008a8152602001908152602001600020613978909392919063ffffffff16565b505b86606001516001600160801b0316816001600160801b03161115611f9b5760405162461bcd60e51b815260040161038990615803565b611fa78a8986846139ba565b89546040517f3ae24347907fcbc469382ed4ef3187bcfdce9b2c358123356d962cff6f59d6ff90611fdf90879085908b908b90615714565b60405180910390a25050505094509492505050565b600080600061200b84608001518560a0015161372c565b90506120378686600084815260200190815260200160002086606001518760c001518860e00151613bd4565b6060860151919450925061204e9088908390613cb7565b865460608501516040517f3eb00258512a53c318ccd626d1a97efcdcbcbb55de0adbf7a09ad1b06bce88ea9161208a9185919088908890615714565b60405180910390a25094509492505050565b60008060006120b384608001518560a0015161372c565b90506120df8686600084815260200190815260200160002086606001518760c001518860e00151613bd4565b60608601516000848152602089905260409020600101549295509093506121229161211d916001600160801b03600160301b90920482169116613470565b613edf565b600082815260208790526040902060010180546001600160801b0392909216600160301b026601000000000000600160b01b0319909216919091179055606084015161217390889087908490613f2b565b865460608501516040517f03a13554ee64e636ab1c2b65a178202088d209fd27da3472763e9b06734aa1b99161208a9185919088908890615714565b60008060006121c684608001518560a0015161372c565b90506000806121ef6121db8960a0015161028f565b87608001518860a00151896060015161406d565b915091506000612220898960008781526020019081526020016000206000015485858b60c001518c60e0015161378c565b60608b015191995097509092506001600160801b039081169083161015905061225b5760405162461bcd60e51b8152600401610389906157c9565b50505060608401516000828152602087905260409020600101546122a09161211d916001600160801b039182169161229a91600160301b90041661408c565b9061350a565b600082815260208790526040902060010180546001600160801b0392909216600160301b026601000000000000600160b01b031990921691909117905560608401516122ef90889083906140e3565b865460608501516040517f1efd68d613b63ab08a1b711e60245a41f2a7d3161a2396ec4f1a7fe4c7409b429161208a9185919088908890615714565b6000806000604051806101000160405280856040015161234f578660200151612352565b86515b6001600160a01b031681526020018560400151612370578651612376565b86602001515b6001600160a01b03168152602001866040015162ffffff168152602001306001600160a01b031681526020014281526020018560c0015181526020016000815260200160006001600160a01b0316815250905084608001516001600160a01b031663414bf389826040518263ffffffff1660e01b81526004016123f991906158c2565b602060405180830381600087803b15801561241357600080fd5b505af1925050508015612443575060408051601f3d908101601f1916820190925261244091810190615540565b60015b6124ec573d808015612471576040519150601f19603f3d011682016040523d82523d6000602084013e612476565b606091505b50604051602401612486906157ad565b60408051601f19818403018152919052602080820180516001600160e01b031662461bcd60e51b178152915190912082519183019190912014156124d257600080935093505050612587565b8060405162461bcd60e51b8152600401610389919061575a565b86600001547f20fbb4f3da2c2dfb02babffa30b2b2f30e735ec207cc0d364d6a5a9c096de0768860040187602001518154811061252557fe5b906000526020600020015487604001518860c001518560405161254b94939291906159e0565b60405180910390a28460400151156125705760c0850151935060000391506125879050565b806000038560c00151935093505050612587565b50505b935093915050565b600080600060405180610100016040528085604001516125b35786602001516125b6565b86515b6001600160a01b0316815260200185604001516125d45786516125da565b86602001515b6001600160a01b03168152602001866040015162ffffff168152602001306001600160a01b031681526020014281526020018560c001518152602001600019815260200160006001600160a01b0316815250905084608001516001600160a01b031663db3e2198826040518263ffffffff1660e01b815260040161265e91906158c2565b602060405180830381600087803b15801561267857600080fd5b505af19250505080156126a8575060408051601f3d908101601f191682019092526126a591810190615540565b60015b6126d6573d808015612471576040519150601f19603f3d011682016040523d82523d6000602084013e612476565b86600001547f20fbb4f3da2c2dfb02babffa30b2b2f30e735ec207cc0d364d6a5a9c096de0768860040187602001518154811061270f57fe5b90600052602060002001548760400151848960c0015160405161273594939291906159e0565b60405180910390a284604001511561275b57808560c00151600003935093505050612587565b60c0850151600003935091506125879050565b60008060005b600487015481101561301057600086600089600401848154811061279457fe5b60009182526020808320909101548352828101939093526040918201812082516101208101845281548152600182015460ff161515818601526002820154818501526003820154606082015260048201546080820152600582015460a0820152835180850185526006830154815260078301548187015260c0820152835180850185526008830154815260098301548187015260e0820152600a8201805485518188028101880190965280865292965092948594612aae9492938893610100860193909190889084015b828210156128d45760008481526020908190206040805160c08101825260068602909201805460ff16151583526001808201548486015260028201546001600160801b03169284019290925260038101546060840152600481015460808401526005015460a0830152908352909201910161285e565b50505050815250508989604051806101800160405290816000820160009054906101000a90046001600160a01b03166001600160a01b03166001600160a01b031681526020016001820160009054906101000a90046001600160a01b03166001600160a01b03166001600160a01b031681526020016001820160149054906101000a900462ffffff1662ffffff1662ffffff1681526020016002820160009054906101000a90046001600160a01b03166001600160a01b03166001600160a01b031681526020016003820160009054906101000a90046001600160a01b03166001600160a01b03166001600160a01b031681526020016004820160009054906101000a90046001600160a01b03166001600160a01b03166001600160a01b031681526020016004820160149054906101000a900460ff1615151515815260200160058201548152602001600682016040518060800160405290816000820154815260200160018201548152602001600282015481526020016003820154815250508152602001600a82016040518060800160405290816000820154815260200160018201548152602001600282015481526020016003820154815250508152602001600e8201548152602001600f8201548152505061416d565b9150915060005b600a840154811015612b5e57600084600a018281548110612ad257fe5b60009182526020909120600690910201805490915060ff1615612b11576001810154600090815260208b90526040902060039081015490820155612b2e565b6001810154600090815260208b9052604090206002015460038201555b600180820154600090815260208c9052604090206004808201549084015560059081015492019190915501612ab5565b50600183015460ff16612f9a57604080516101208101825284548152600185015460ff1615156020808301919091526002860154828401526003860154606083015260048601546080830152600586015460a0830152825180840184526006870154815260078701548183015260c0830152825180840184526008870154815260098701548183015260e0830152600a86018054845181840281018401909552808552600094859485948594612e6f9492938c93610100860193919291889084015b82821015612c965760008481526020908190206040805160c08101825260068602909201805460ff16151583526001808201548486015260028201546001600160801b03169284019290925260038101546060840152600481015460808401526005015460a08301529083529092019101612c20565b50505050815250508c604051806101800160405290816000820160009054906101000a90046001600160a01b03166001600160a01b03166001600160a01b031681526020016001820160009054906101000a90046001600160a01b03166001600160a01b03166001600160a01b031681526020016001820160149054906101000a900462ffffff1662ffffff1662ffffff1681526020016002820160009054906101000a90046001600160a01b03166001600160a01b03166001600160a01b031681526020016003820160009054906101000a90046001600160a01b03166001600160a01b03166001600160a01b031681526020016004820160009054906101000a90046001600160a01b03166001600160a01b03166001600160a01b031681526020016004820160149054906101000a900460ff1615151515815260200160058201548152602001600682016040518060800160405290816000820154815260200160018201548152602001600282015481526020016003820154815250508152602001600a82016040518060800160405290816000820154815260200160018201548152602001600282015481526020016003820154815250508152602001600e8201548152602001600f8201548152505061420b565b9350935093509350866002015460001415612e9b57612e9460068c81019089016142bc565b9350612eb8565b612eb687600601612eab8661408c565b60068e019190613567565b505b6003870154612ed857612ed1600a8c01600889016142bc565b9250612ef5565b612ef387600801612ee88561408c565b600a8e019190613567565b505b6004870154612f1557612f0e60068c81019089016142e9565b9150612f32565b612f3087600601612f258461408c565b60068e0191906136a5565b505b6005870154612f5257612f4b600a8c01600889016142e9565b9050612f6f565b612f6d87600801612f628361408c565b600a8e0191906136a5565b505b612f8382612f7d8887611b40565b90611c80565b9550612f9381612f7d8786611b40565b9450505050505b81151580612fa757508015155b15612fe95782546040517f612616513684d934182d97f8385b2af4dd39e7334f9eaa113967392f5a8b934d90612fe0908590859061574c565b60405180910390a25b612ff38683611c80565b9550612fff8582611c80565b945050600190920191506127749050565b5094509492505050565b613022614f06565b6000806000808515613063576000871315613046575060019250600091508561305e565b600087121561305e5760009350600192508660000391505b613092565b600088131561307a57506000925082915086613092565b60008812156130925760019350600192508760000391505b82801561309f5750600082115b1561310157604080516101008101909152806009815260200160008152602001851515815260200160006001600160801b03168152602001600060020b8152602001600060020b815260200183815260200160008152509450505050506131c0565b8215801561310f5750600081115b156131715760408051610100810190915280600a815260200160008152602001851515815260200160006001600160801b03168152602001600060020b8152602001600060020b815260200182815260200160008152509450505050506131c0565b604080516101008101909152806000815260006020820181905260408201819052606082018190526080820181905260a0820181905260c0820181905260e09091015294506131c09350505050565b9392505050565b6000826131d657506000611ba8565b826000191480156131ea5750600160ff1b82145b156132265760405162461bcd60e51b8152600401808060200182810382526027815260200180615ae16027913960400191505060405180910390fd5b8282028284828161323357fe5b0514611ba55760405162461bcd60e51b8152600401808060200182810382526027815260200180615ae16027913960400191505060405180910390fd5b6000808212156132c05782826000038403915081106132bb576040805162461bcd60e51b81526020600482015260026024820152614c5360f01b604482015290519081900360640190fd5b611ba8565b5080820182811015611ba8576040805162461bcd60e51b81526020600482015260026024820152614c4160f01b604482015290519081900360640190fd5b600082600401828154811061330f57fe5b60009182526020909120015460048401805491925090600019810190811061333357fe5b906000526020600020015483600401838154811061334d57fe5b6000918252602090912001556004830180548061336657fe5b6001900381819060005260206000200160009055905582600001547f081ac19f0e6d216418ece17d3b0b510f1782e821249fdba90c8a9bfc1ca4af7b8383604051611b3392919061574c565b600080836001600160a01b03166399fbab88846040518263ffffffff1660e01b81526004016133e191906159d7565b6101806040518083038186803b1580156133fa57600080fd5b505afa15801561340e573d6000803e3d6000fd5b505050506040513d601f19601f8201168201806040525081019061343291906155b8565b50506001600160801b039092169a505050505050505050505092915050565b82820281151584158583048514171661346957600080fd5b0492915050565b600082820183811015611ba5576040805162461bcd60e51b815260206004820152601b60248201527f536166654d6174683a206164646974696f6e206f766572666c6f770000000000604482015290519081900360640190fd5b60006134e382670de0b6b3a76400008660020154613451565b83549091506134f29082613470565b835583546135009082613470565b9093555090919050565b600082821115613561576040805162461bcd60e51b815260206004820152601e60248201527f536166654d6174683a207375627472616374696f6e206f766572666c6f770000604482015290519081900360640190fd5b50900390565b60008061358183670de0b6b3a76400008760020154613451565b9050808460000154101561359c5783546000855591506135b0565b835490915081906135ad908261350a565b84555b84546135bc908361350a565b855560028501546135d7908390670de0b6b3a7640000613451565b95945050505050565b60008161361f85604051806080016040529081600082015481526020016001820154815260200160028201548152602001600382015481525050614326565b1015613657576040805162461bcd60e51b8152602060048201526002602482015261042360f41b604482015290519081900360640190fd5b61366e82670de0b6b3a76400008660030154613451565b60018401549091506136809082613470565b6001808501919091558401546136969082613470565b84600101819055509392505050565b6000806136bf83670de0b6b3a76400008760030154613451565b905080846001015410156136df57600184018054600090915591506136ff565b8091506136f981856001015461350a90919063ffffffff16565b60018501555b600185015461370e908361350a565b600186015560038501546135d7908390670de0b6b3a7640000613451565b60008282604051602001613741929190615738565b60405160208183030381529060405280519060200120905092915050565b60008061377e8661376f87614341565b61377887614341565b86614673565b915091505b94509492505050565b60008060008060006040518060c001604052808b81526020018a81526020018981526020018881526020018781526020014281525090508a606001516001600160a01b031663219f5d17826040518263ffffffff1660e01b81526004016137f391906158d1565b606060405180830381600087803b15801561380d57600080fd5b505af1158015613821573d6000803e3d6000fd5b505050506040513d601f19601f820116820180604052508101906138459190615474565b9b9d919c509a9950975050505050505050565b60008060008060006040518061016001604052808d600001516001600160a01b031681526020018d602001516001600160a01b031681526020018d6040015162ffffff1681526020018c60020b81526020018b60020b81526020018a8152602001898152602001888152602001878152602001306001600160a01b031681526020014281525090508b606001516001600160a01b03166388316456826040518263ffffffff1660e01b81526004016139109190615915565b608060405180830381600087803b15801561392a57600080fd5b505af115801561393e573d6000803e3d6000fd5b505050506040513d601f19601f820116820180604052508101906139629190615558565b929f919e509c50909a5098505050505050505050565b91835560018301805462ffffff1916600292830b62ffffff9081169190911765ffffff000000191663010000009490930b169290920217905542600690910155565b60005b600a850154811015613ab0578285600a0182815481106139d957fe5b906000526020600020906006020160010154148015613a17575084600a018181548110613a0257fe5b600091825260209091206006909102015460ff165b15613aa857613a5e61211d836001600160801b031687600a018481548110613a3b57fe5b60009182526020909120600260069092020101546001600160801b031690613470565b85600a018281548110613a6d57fe5b906000526020600020906006020160020160006101000a8154816001600160801b0302191690836001600160801b0316021790555050613bce565b6001016139bd565b5083600a016040518060c00160405280600115158152602001848152602001836001600160801b0316815260200185600086815260200190815260200160002060030154815260200185600086815260200190815260200160002060040154815260200185600086815260200190815260200160002060050154815250908060018154018082558091505060019003906000526020600020906006020160009091909190915060008201518160000160006101000a81548160ff0219169083151502179055506020820151816001015560408201518160020160006101000a8154816001600160801b0302191690836001600160801b03160217905550606082015181600301556080820151816004015560a0820151816005015550505b50505050565b6040805160a081018252855481526001600160801b038516602082015280820184905260608082018490524260808301528701519151630624e65f60e11b81526000928392916001600160a01b0390911690630c49ccbe90613c3a90849060040161587f565b6040805180830381600087803b158015613c5357600080fd5b505af1158015613c67573d6000803e3d6000fd5b505050506040513d601f19601f82011682018060405250810190613c8b9190615595565b9093509150613cac8888613c9e86613edf565b613ca786613edf565b61470e565b509550959350505050565b60005b600a840154811015613bce578284600a018281548110613cd657fe5b906000526020600020906006020160010154148015613d14575083600a018181548110613cff57fe5b600091825260209091206006909102015460ff165b15613ed257613d5b61211d836001600160801b031686600a018481548110613d3857fe5b60009182526020909120600260069092020101546001600160801b03169061350a565b84600a018281548110613d6a57fe5b906000526020600020906006020160020160006101000a8154816001600160801b0302191690836001600160801b0316021790555083600a018181548110613dae57fe5b60009182526020909120600260069092020101546001600160801b0316613ecc57600a840180546000198101908110613de357fe5b906000526020600020906006020184600a018281548110613e0057fe5b600091825260209091208254600690920201805460ff909216151560ff199092169190911781556001808301549082015560028083015490820180546001600160801b0319166001600160801b039092169190911790556003808301549082015560048083015490820155600591820154910155600a8401805480613e8157fe5b600082815260208120600660001990930192830201805460ff19168155600181018290556002810180546001600160801b031916905560038101829055600481018290556005015590555b50613eda565b600101613cba565b505050565b6000600160801b8210613f235760405162461bcd60e51b8152600401808060200182810382526027815260200180615a996027913960400191505060405180910390fd5b50805b919050565b60005b600a850154811015613fb5578285600a018281548110613f4a57fe5b906000526020600020906006020160010154148015613f89575084600a018181548110613f7357fe5b600091825260209091206006909102015460ff16155b15613fad57613a5e61211d836001600160801b031687600a018481548110613a3b57fe5b600101613f2e565b506040805160c081018252600080825260208083018681526001600160801b03958616848601908152968352968152928120600290810154606084019081526080840183815260a08501848152600a9a909a018054600180820183559186529690942094516006909602909401805460ff1916951515959095178555965191840191909155935193820180546001600160801b0319169490931693909317909155915160038301555160048201559051600590910155565b60008061377e8661407d87614341565b61408687614341565b866147f7565b600080821215613f23576040805162461bcd60e51b815260206004820181905260248201527f53616665436173743a2076616c7565206d75737420626520706f736974697665604482015290519081900360640190fd5b60005b600a840154811015613bce578284600a01828154811061410257fe5b906000526020600020906006020160010154148015614141575083600a01818154811061412b57fe5b600091825260209091206006909102015460ff16155b1561416557613d5b61211d836001600160801b031686600a018481548110613d3857fe5b6001016140e6565b60008060008061417d8787614879565b909250905061418c8483611b40565b93506141988382611b40565b92508460c00151156141d5576141b86141b188886149c0565b8590611b40565b93506141ce6141c78888614b07565b8590611c80565b9350612584565b6141e96141e288886149c0565b8490611b40565b92506141ff6141f88888614b07565b8490611c80565b92505050935093915050565b60008060008085602001516142b35761423e8660400151612f7d8860c00151886101000151614c3590919063ffffffff16565b93506142648660600151612f7d8860e00151886101200151614c3590919063ffffffff16565b925061428a8660800151612f7d8860c00151886101000151614c5290919063ffffffff16565b91506142b08660a00151612f7d8860e00151886101200151614c5290919063ffffffff16565b90505b92959194509250565b805482546142ca908261350a565b83556000825560028301546131c0908290670de0b6b3a7640000613451565b600180820154908301546142fd908261350a565b8360010181905550600082600101819055506131c0818460030154670de0b6b3a7640000613451565b600061433182614c6f565b61433a83614c8c565b0392915050565b60008060008360020b12614358578260020b614360565b8260020b6000035b9050620d89e881111561439e576040805162461bcd60e51b81526020600482015260016024820152601560fa1b604482015290519081900360640190fd5b6000600182166143b257600160801b6143c4565b6ffffcb933bd6fad37aa2d162d1a5940015b70ffffffffffffffffffffffffffffffffff16905060028216156143f8576ffff97272373d413259a46990580e213a0260801c5b6004821615614417576ffff2e50f5f656932ef12357cf3c7fdcc0260801c5b6008821615614436576fffe5caca7e10e4e61c3624eaa0941cd00260801c5b6010821615614455576fffcb9843d60f6159c9db58835c9266440260801c5b6020821615614474576fff973b41fa98c081472e6896dfb254c00260801c5b6040821615614493576fff2ea16466c96a3843ec78b326b528610260801c5b60808216156144b2576ffe5dee046a99a2a811c461f1969c30530260801c5b6101008216156144d2576ffcbe86c7900a88aedcffc83b479aa3a40260801c5b6102008216156144f2576ff987a7253ac413176f2b074cf7815e540260801c5b610400821615614512576ff3392b0822b70005940c7a398e4b70f30260801c5b610800821615614532576fe7159475a2c29b7443b29c7fa6e889d90260801c5b611000821615614552576fd097f3bdfd2022b8845ad8f792aa58250260801c5b612000821615614572576fa9f746462d870fdf8a65dc1f90e061e50260801c5b614000821615614592576f70d869a156d2a1b890bb3df62baf32f70260801c5b6180008216156145b2576f31be135f97d08fd981231505542fcfa60260801c5b620100008216156145d3576f09aa508b5b7a84e1c677de54f3e99bc90260801c5b620200008216156145f3576e5d6af8dedb81196699c329225ee6040260801c5b62040000821615614612576d2216e584f5fa1ea926041bedfe980260801c5b6208000082161561462f576b048a170391f7dc42444e8fa20260801c5b60008460020b131561464a57806000198161464657fe5b0490505b64010000000081061561465e576001614661565b60005b60ff16602082901c0192505050919050565b600080836001600160a01b0316856001600160a01b03161115614694579293925b846001600160a01b0316866001600160a01b0316116146bf576146b8858585614ca9565b9150613783565b836001600160a01b0316866001600160a01b031610156146f8576146e4868585614ca9565b91506146f1858785614d12565b9050613783565b614703858585614d12565b905094509492505050565b60408051608081018252845481523060208201526001600160801b03808516828401528316606080830191909152860151915163fc6f786560e01b8152909160009182916001600160a01b03169063fc6f78659061477090869060040161583c565b6040805180830381600087803b15801561478957600080fd5b505af115801561479d573d6000803e3d6000fd5b505050506040513d601f19601f820116820180604052508101906147c19190615595565b9150915081856001600160801b03161480156147e5575080846001600160801b0316145b6147ee57600080fd5b50505050505050565b600080836001600160a01b0316856001600160a01b03161115614818579293925b846001600160a01b0316866001600160a01b03161161483c576146b8858585614d55565b836001600160a01b0316866001600160a01b0316101561486e57614861868585614d55565b91506146f1858785614dda565b614703858585614dda565b60008060005b846101000151518110156149b857846101000151818151811061489e57fe5b6020026020010151600001516148b3576149b0565b600085610100015182815181106148c657fe5b602002602001015160200151905061495961495261491e88610100015185815181106148ee57fe5b6020026020010151608001518860008681526020019081526020016000206004015461350a90919063ffffffff16565b886101000151858151811061492f57fe5b6020026020010151604001516001600160801b0316670de0b6b3a7640000613451565b8590613470565b93506149ac6149a561491e886101000151858151811061497557fe5b602002602001015160a001518860008681526020019081526020016000206005015461350a90919063ffffffff16565b8490613470565b9250505b60010161487f565b509250929050565b6000805b83610100015151811015614b0057600084610100015182815181106149e557fe5b6020908102919091018101518101516000818152868352604090819020815161012081018352815481526001820154600281810b810b810b9683019690965263010000008104860b860b860b93820193909352600160301b9092046001600160801b03166060830152928301546080820152600383015460a0820152600483015460c0820152600583015460e08201526006909201546101008084019190915287015180519193509084908110614a9857fe5b60200260200101516000015115614af657614af3614952614ae28861010001518681518110614ac357fe5b6020026020010151606001518460a0015161350a90919063ffffffff16565b886101000151868151811061492f57fe5b93505b50506001016149c4565b5092915050565b6000805b83610100015151811015614b005760008461010001518281518110614b2c57fe5b6020908102919091018101518101516000818152868352604090819020815161012081018352815481526001820154600281810b810b810b9683019690965263010000008104860b860b860b93820193909352600160301b9092046001600160801b03166060830152928301546080820152600383015460a0820152600483015460c0820152600583015460e08201526006909201546101008084019190915287015180519193509084908110614bdf57fe5b602002602001015160000151614c2b57614c28614952614ae28861010001518681518110614c0957fe5b602002602001015160600151846080015161350a90919063ffffffff16565b93505b5050600101614b0b565b60006131c082600001518460400151670de0b6b3a7640000613451565b60006131c082602001518460600151670de0b6b3a7640000613451565b6000611ba882602001518360600151670de0b6b3a7640000613451565b6000611ba882600001518360400151670de0b6b3a7640000613451565b6000826001600160a01b0316846001600160a01b03161115614cc9579192915b836001600160a01b0316614d02606060ff16846001600160801b0316901b8686036001600160a01b0316866001600160a01b0316614e1d565b81614d0957fe5b04949350505050565b6000826001600160a01b0316846001600160a01b03161115614d32579192915b611a64826001600160801b03168585036001600160a01b0316600160601b614e1d565b6000826001600160a01b0316846001600160a01b03161115614d75579192915b6000614d98856001600160a01b0316856001600160a01b0316600160601b614e1d565b90506000614db682600160601b8888036001600160a01b0316614e1d565b9050614dd0846001600160801b0316600160601b83614ecc565b9695505050505050565b6000826001600160a01b0316846001600160a01b03161115614dfa579192915b611a64826001600160801b03168585036001600160a01b0316600160601b614ecc565b6000808060001985870986860292508281109083900303905080614e535760008411614e4857600080fd5b5082900490506131c0565b808411614e5f57600080fd5b6000848688096000868103871696879004966002600389028118808a02820302808a02820302808a02820302808a02820302808a02820302808a02909103029181900381900460010186841190950394909402919094039290920491909117919091029150509392505050565b6000614ed9848484614e1d565b905060008280614ee557fe5b84860911156131c0576000198110614efc57600080fd5b6001019392505050565b604080516101008101909152806000815260006020820181905260408201819052606082018190526080820181905260a0820181905260c0820181905260e09091015290565b8035613f2681615a3d565b8051613f2681615a3d565b600082601f830112614f72578081fd5b81356020614f87614f8283615a1f565b6159fb565b8281528181019085830183850287018401881015614fa3578586fd5b855b85811015614fc157813584529284019290840190600101614fa5565b5090979650505050505050565b8035613f2681615a55565b8035600d8110613f2657600080fd5b8035613f2681615a63565b8051613f2681615a63565b60006080828403121561500f578081fd5b6040516080810181811067ffffffffffffffff8211171561502c57fe5b8060405250809150823581526020830135602082015260408301356040820152606083013560608201525092915050565b600060c0828403121561506e578081fd5b60405160c0810181811067ffffffffffffffff8211171561508b57fe5b604052905080823561509c81615a55565b815260208301356150ac81615a55565b602082015260408301356150bf81615a55565b60408201526150d060608401614fce565b60608201526080830135608082015260a083013560a08201525092915050565b600060a08284031215615101578081fd5b60405160a0810167ffffffffffffffff828210818311171561511f57fe5b81604052829350843583526020850135915061513a82615a3d565b8160208401526040850135604084015260608501356060840152608085013591508082111561516857600080fd5b5061517585828601614f62565b6080830152505092915050565b8035613f2681615a72565b8051613f2681615a72565b805161ffff81168114613f2657600080fd5b8035613f2681615a87565b8051613f2681615a87565b6000602082840312156151d1578081fd5b8135611ba581615a3d565b6000806000808486036102a08112156151f3578384fd5b61024080821215615202578485fd5b6101809150615210826159fb565b61521988614f4c565b815261522760208901614f4c565b6020820152615238604089016151aa565b604082015261524960608901614f4c565b606082015261525a60808901614f4c565b608082015261526b60a08901614f4c565b60a082015261527c60c08901614fce565b60c082015260e088013560e082015261010061529a8a828b01614ffe565b908201526152aa89898501614ffe565b6101208201526102008801356101408201526102208801356101608201529550860135905067ffffffffffffffff8111156152e3578384fd5b6152ef878288016150f0565b9497949650505050610260830135926102800135919050565b6000806000806000806101608789031215615321578384fd5b86359550602087013594506040870135935060608701359250608087013567ffffffffffffffff80821115615354578384fd5b818901915089601f830112615367578384fd5b8135615375614f8282615a1f565b80828252602082019150602085018d602061010086028801011115615398578788fd5b8795505b8386101561545257610100818f0312156153b4578788fd5b604051610100810181811087821117156153ca57fe5b6040526153d682614fd9565b8152602082013560208201526153ee60408301614fce565b60408201526153ff60608301615182565b606082015261541060808301614fe8565b608082015261542160a08301614fe8565b60a082015260c0828101359082015260e080830135908201528352600195909501946020909201916101000161539c565b5080965050505050506154688860a0890161505d565b90509295509295509295565b600080600060608486031215615488578081fd5b835161549381615a72565b602085015160409095015190969495509392505050565b600080600080600080600060e0888a0312156154c4578485fd5b87516154cf81615a3d565b60208901519097506154e081615a63565b95506154ee60408901615198565b94506154fc60608901615198565b935061550a60808901615198565b925060a088015160ff8116811461551f578182fd5b60c089015190925061553081615a55565b8091505092959891949750929550565b600060208284031215615551578081fd5b5051919050565b6000806000806080858703121561556d578182fd5b84519350602085015161557f81615a72565b6040860151606090960151949790965092505050565b600080604083850312156155a7578182fd5b505080516020909101519092909150565b6000806000806000806000806000806000806101808d8f0312156155da578586fd5b8c516bffffffffffffffffffffffff811681146155f5578687fd5b9b5061560360208e01614f57565b9a5061561160408e01614f57565b995061561f60608e01614f57565b985061562d60808e016151b5565b975061563b60a08e01614ff3565b965061564960c08e01614ff3565b955061565760e08e0161518d565b94506101008d015193506101208d015192506156766101408e0161518d565b91506156856101608e0161518d565b90509295989b509295989b509295989b565b6001600160a01b03169052565b60020b9052565b80516001600160a01b03908116835260208083015182169084015260408083015162ffffff16908401526060808301518216908401526080808301519084015260a0828101519084015260c0808301519084015260e09182015116910152565b62ffffff169052565b9384526001600160801b039290921660208401526040830152606082015260800190565b600292830b8152910b602082015260400190565b918252602082015260400190565b6000602080835283518082850152825b818110156157865785810183015185820160400152820161576a565b818111156157975783604083870101525b50601f01601f1916929092016040019392505050565b602080825260029082015261415360f01b604082015260600190565b602080825260039082015262282a9960e91b604082015260600190565b60208082526003908201526250553160e81b604082015260600190565b60208082526003908201526250553360e81b604082015260600190565b602080825260029082015261056360f41b604082015260600190565b815181526020808301516001600160a01b0316908201526040808301516001600160801b0390811691830191909152606092830151169181019190915260800190565b600060a082019050825182526001600160801b03602084015116602083015260408301516040830152606083015160608301526080830151608083015292915050565b6101008101611ba882846156ab565b600060c082019050825182526020830151602083015260408301516040830152606083015160608301526080830151608083015260a083015160a083015292915050565b600061016082019050615929828451615697565b602083015161593b6020840182615697565b50604083015161594e604084018261570b565b50606083015161596160608401826156a4565b50608083015161597460808401826156a4565b5060a083015160a083015260c083015160c083015260e083015160e0830152610100808401518184015250610120808401516159b282850182615697565b505061014092830151919092015290565b6001600160a01b0391909116815260200190565b90815260200190565b93845291151560208401526040830152606082015260800190565b60405181810167ffffffffffffffff81118282101715615a1757fe5b604052919050565b600067ffffffffffffffff821115615a3357fe5b5060209081020190565b6001600160a01b0381168114615a5257600080fd5b50565b8015158114615a5257600080fd5b8060020b8114615a5257600080fd5b6001600160801b0381168114615a5257600080fd5b62ffffff81168114615a5257600080fdfe53616665436173743a2076616c756520646f65736e27742066697420696e2031323820626974735369676e6564536166654d6174683a206164646974696f6e206f766572666c6f775369676e6564536166654d6174683a206d756c7469706c69636174696f6e206f766572666c6f775369676e6564536166654d6174683a207375627472616374696f6e206f766572666c6f77a26469706673582212202545f19c2b9eae9fe28d14f5a17a42f490997558404a6ea94bf7a0cf013ee56e64736f6c63430007060033",
  "devdoc": {
    "kind": "dev",
    "methods": {},
    "version": 1
  },
  "userdoc": {
    "kind": "user",
    "methods": {
      "updateFeeGrowth(DataType.Context,DataType.Vault,mapping(uint256 => DataType.SubVault) storage,mapping(bytes32 => DataType.PerpStatus) storage)": {
        "notice": "Collects trade fee and premium."
      },
      "updatePosition(DataType.Vault storage,mapping(uint256 => DataType.SubVault) storage,DataType.Context storage,mapping(bytes32 => DataType.PerpStatus) storage,DataType.PositionUpdate[],DataType.TradeOption)": {
        "notice": "update position and return required token amounts."
      }
    },
    "version": 1
  },
  "storageLayout": {
    "storage": [],
    "types": null
  }
}