{
  "address": "0xcCb0421aE4956AB67845D8D22957818f3b9ADC21",
  "abi": [
    {
      "anonymous": false,
      "inputs": [
        {
          "indexed": true,
          "internalType": "uint256",
          "name": "vaultId",
          "type": "uint256"
        },
        {
          "indexed": false,
          "internalType": "uint256",
          "name": "subVaultIndex",
          "type": "uint256"
        },
        {
          "indexed": false,
          "internalType": "bytes32",
          "name": "rangeId",
          "type": "bytes32"
        },
        {
          "indexed": false,
          "internalType": "uint128",
          "name": "liquidity",
          "type": "uint128"
        }
      ],
      "name": "LPTBorrowed",
      "type": "event"
    },
    {
      "anonymous": false,
      "inputs": [
        {
          "indexed": true,
          "internalType": "uint256",
          "name": "vaultId",
          "type": "uint256"
        },
        {
          "indexed": false,
          "internalType": "uint256",
          "name": "subVaultIndex",
          "type": "uint256"
        },
        {
          "indexed": false,
          "internalType": "bytes32",
          "name": "rangeId",
          "type": "bytes32"
        },
        {
          "indexed": false,
          "internalType": "uint128",
          "name": "liquidity",
          "type": "uint128"
        }
      ],
      "name": "LPTDeposited",
      "type": "event"
    },
    {
      "anonymous": false,
      "inputs": [
        {
          "indexed": true,
          "internalType": "uint256",
          "name": "vaultId",
          "type": "uint256"
        },
        {
          "indexed": false,
          "internalType": "uint256",
          "name": "subVaultIndex",
          "type": "uint256"
        },
        {
          "indexed": false,
          "internalType": "bytes32",
          "name": "rangeId",
          "type": "bytes32"
        },
        {
          "indexed": false,
          "internalType": "uint128",
          "name": "liquidity",
          "type": "uint128"
        }
      ],
      "name": "LPTRepaid",
      "type": "event"
    },
    {
      "anonymous": false,
      "inputs": [
        {
          "indexed": true,
          "internalType": "uint256",
          "name": "vaultId",
          "type": "uint256"
        },
        {
          "indexed": false,
          "internalType": "uint256",
          "name": "subVaultIndex",
          "type": "uint256"
        },
        {
          "indexed": false,
          "internalType": "bytes32",
          "name": "rangeId",
          "type": "bytes32"
        },
        {
          "indexed": false,
          "internalType": "uint128",
          "name": "liquidity",
          "type": "uint128"
        }
      ],
      "name": "LPTWithdrawn",
      "type": "event"
    },
    {
      "anonymous": false,
      "inputs": [
        {
          "indexed": true,
          "internalType": "uint256",
          "name": "vaultId",
          "type": "uint256"
        },
        {
          "indexed": false,
          "internalType": "int256",
          "name": "marginAmount0",
          "type": "int256"
        },
        {
          "indexed": false,
          "internalType": "int256",
          "name": "marginAmount1",
          "type": "int256"
        }
      ],
      "name": "MarginUpdated",
      "type": "event"
    },
    {
      "anonymous": false,
      "inputs": [
        {
          "indexed": true,
          "internalType": "uint256",
          "name": "vaultId",
          "type": "uint256"
        },
        {
          "indexed": false,
          "internalType": "uint256",
          "name": "subVaultIndex",
          "type": "uint256"
        },
        {
          "indexed": false,
          "internalType": "uint256",
          "name": "amount0",
          "type": "uint256"
        },
        {
          "indexed": false,
          "internalType": "uint256",
          "name": "amount1",
          "type": "uint256"
        }
      ],
      "name": "TokenBorrowed",
      "type": "event"
    },
    {
      "anonymous": false,
      "inputs": [
        {
          "indexed": true,
          "internalType": "uint256",
          "name": "vaultId",
          "type": "uint256"
        },
        {
          "indexed": false,
          "internalType": "uint256",
          "name": "subVaultIndex",
          "type": "uint256"
        },
        {
          "indexed": false,
          "internalType": "uint256",
          "name": "amount0",
          "type": "uint256"
        },
        {
          "indexed": false,
          "internalType": "uint256",
          "name": "amount1",
          "type": "uint256"
        }
      ],
      "name": "TokenDeposited",
      "type": "event"
    },
    {
      "anonymous": false,
      "inputs": [
        {
          "indexed": true,
          "internalType": "uint256",
          "name": "vaultId",
          "type": "uint256"
        },
        {
          "indexed": false,
          "internalType": "uint256",
          "name": "subVaultIndex",
          "type": "uint256"
        },
        {
          "indexed": false,
          "internalType": "uint256",
          "name": "amount0",
          "type": "uint256"
        },
        {
          "indexed": false,
          "internalType": "uint256",
          "name": "amount1",
          "type": "uint256"
        }
      ],
      "name": "TokenRepaid",
      "type": "event"
    },
    {
      "anonymous": false,
      "inputs": [
        {
          "indexed": true,
          "internalType": "uint256",
          "name": "vaultId",
          "type": "uint256"
        },
        {
          "indexed": false,
          "internalType": "bool",
          "name": "zeroForOne",
          "type": "bool"
        },
        {
          "indexed": false,
          "internalType": "uint256",
          "name": "srcAmount",
          "type": "uint256"
        },
        {
          "indexed": false,
          "internalType": "uint256",
          "name": "destAmount",
          "type": "uint256"
        }
      ],
      "name": "TokenSwap",
      "type": "event"
    },
    {
      "anonymous": false,
      "inputs": [
        {
          "indexed": true,
          "internalType": "uint256",
          "name": "vaultId",
          "type": "uint256"
        },
        {
          "indexed": false,
          "internalType": "uint256",
          "name": "subVaultIndex",
          "type": "uint256"
        },
        {
          "indexed": false,
          "internalType": "uint256",
          "name": "amount0",
          "type": "uint256"
        },
        {
          "indexed": false,
          "internalType": "uint256",
          "name": "amount1",
          "type": "uint256"
        }
      ],
      "name": "TokenWithdrawn",
      "type": "event"
    },
    {
      "inputs": [
        {
          "internalType": "contract IUniswapV3Pool",
          "name": "_uniswapPool",
          "type": "IUniswapV3Pool"
        }
      ],
      "name": "getSqrtPrice",
      "outputs": [
        {
          "internalType": "uint160",
          "name": "sqrtPriceX96",
          "type": "uint160"
        }
      ],
      "stateMutability": "view",
      "type": "function"
    }
  ],
  "transactionHash": "0x82edae1b397a84421e5bc8fffd1bf5e95fbf78b45b1fe8a225472dc0fe371f5f",
  "args": [],
  "solcInputHash": "5079ea65b7b8073ba0a051d6d75d65e4",
  "bytecode": "0x615a6e62000027600b82828239805160001a60731461001a57fe5b30600052607381538281f3fe730000000000000000000000000000000000000000301460806040526004361061004b5760003560e01c80633617b340146100505780636f32035014610072578063c827d03e1461009b575b600080fd5b81801561005c57600080fd5b5061007061006b3660046150ba565b6100c9565b005b61008561008036600461509e565b610282565b6040516100929190615895565b60405180910390f35b8180156100a757600080fd5b506100bb6100b63660046151e6565b610302565b60405161009292919061561e565b60005b83608001515181101561027b576000836000866080015184815181106100ee57fe5b60209081029190910181015182528181019290925260409081016000908120825161010081018452815460ff16151581526001820154818601526002820154818501526003820154606082015260048201546080820152835180850185526005830154815260068301548187015260a0820152835180850185526007830154815260088301548187015260c08201526009820180548551818802810188019096528086529195929460e0870194909391929184015b828210156102195760008481526020908190206040805160c08101825260068602909201805460ff16151583526001808201548486015260028201546001600160801b03169284019290925260038101546060840152600481015460808401526005015460a083015290835290920191016101a3565b5050505081525050905060005b8160e001515181101561027157610269878560008560e00151858151811061024a57fe5b6020026020010151602001518152602001908152602001600020611868565b600101610226565b50506001016100cc565b5050505050565b6000816001600160a01b0316633850c7bd6040518163ffffffff1660e01b815260040160e06040518083038186803b1580156102bd57600080fd5b505afa1580156102d1573d6000803e3d6000fd5b505050506040513d601f19601f820116820180604052508101906102f59190615388565b5094979650505050505050565b6000808260800151600119148061031e57508260a00151600119145b156103355761032f8888878961197f565b90925090505b60005b84518110156110f157600085828151811061034f57fe5b6020026020010151905060006103768a8a84602001518e611fa7909392919063ffffffff16565b905060018251600c81111561038757fe5b14156103f1578551156103b55760405162461bcd60e51b81526004016103ac906156b8565b60405180910390fd5b6103c18b828b8561208c565b60c08201516103d190869061215a565b94506103ea8260e001518561215a90919063ffffffff16565b93506110e7565b60028251600c81111561040057fe5b1415610439576000806104158d848d876121c8565b90925090506104248783612297565b96506104308682612297565b955050506110e7565b60038251600c81111561044857fe5b14156104a25785511561046d5760405162461bcd60e51b81526004016103ac906156b8565b6104798b828b856122fc565b60c0820151610489908690612297565b94506103ea8260e001518561229790919063ffffffff16565b60048251600c8111156104b157fe5b14156104e1576000806104c68d848d876123bc565b90925090506104d5878361215a565b9650610430868261215a565b60058251600c8111156104f057fe5b14156106f4578551156105155760405162461bcd60e51b81526004016103ac906156b8565b6000806104c68d60000154848d604051806101800160405290816000820160009054906101000a90046001600160a01b03166001600160a01b03166001600160a01b031681526020016001820160009054906101000a90046001600160a01b03166001600160a01b03166001600160a01b031681526020016001820160149054906101000a900462ffffff1662ffffff1662ffffff1681526020016002820160009054906101000a90046001600160a01b03166001600160a01b03166001600160a01b031681526020016003820160009054906101000a90046001600160a01b03166001600160a01b03166001600160a01b031681526020016004820160009054906101000a90046001600160a01b03166001600160a01b03166001600160a01b031681526020016004820160149054906101000a900460ff1615151515815260200160058201548152602001600682016040518060800160405290816000820154815260200160018201548152602001600282015481526020016003820154815250508152602001600a82016040518060800160405290816000820154815260200160018201548152602001600282015481526020016003820154815250508152602001600e8201548152602001600f820154815250508d8861247a565b60068251600c81111561070357fe5b14156108e4576000806104158d848d604051806101800160405290816000820160009054906101000a90046001600160a01b03166001600160a01b03166001600160a01b031681526020016001820160009054906101000a90046001600160a01b03166001600160a01b03166001600160a01b031681526020016001820160149054906101000a900462ffffff1662ffffff1662ffffff1681526020016002820160009054906101000a90046001600160a01b03166001600160a01b03166001600160a01b031681526020016003820160009054906101000a90046001600160a01b03166001600160a01b03166001600160a01b031681526020016004820160009054906101000a90046001600160a01b03166001600160a01b03166001600160a01b031681526020016004820160149054906101000a900460ff1615151515815260200160058201548152602001600682016040518060800160405290816000820154815260200160018201548152602001600282015481526020016003820154815250508152602001600a82016040518060800160405290816000820154815260200160018201548152602001600282015481526020016003820154815250508152602001600e8201548152602001600f820154815250508d88612601565b60078251600c8111156108f357fe5b1415610af7578551156109185760405162461bcd60e51b81526004016103ac906156b8565b6000806104158d60000154848d604051806101800160405290816000820160009054906101000a90046001600160a01b03166001600160a01b03166001600160a01b031681526020016001820160009054906101000a90046001600160a01b03166001600160a01b03166001600160a01b031681526020016001820160149054906101000a900462ffffff1662ffffff1662ffffff1681526020016002820160009054906101000a90046001600160a01b03166001600160a01b03166001600160a01b031681526020016003820160009054906101000a90046001600160a01b03166001600160a01b03166001600160a01b031681526020016004820160009054906101000a90046001600160a01b03166001600160a01b03166001600160a01b031681526020016004820160149054906101000a900460ff1615151515815260200160058201548152602001600682016040518060800160405290816000820154815260200160018201548152602001600282015481526020016003820154815250508152602001600a82016040518060800160405290816000820154815260200160018201548152602001600282015481526020016003820154815250508152602001600e8201548152602001600f820154815250508d886126ae565b60088251600c811115610b0657fe5b1415610ceb576000806104c68d60000154848d604051806101800160405290816000820160009054906101000a90046001600160a01b03166001600160a01b03166001600160a01b031681526020016001820160009054906101000a90046001600160a01b03166001600160a01b03166001600160a01b031681526020016001820160149054906101000a900462ffffff1662ffffff1662ffffff1681526020016002820160009054906101000a90046001600160a01b03166001600160a01b03166001600160a01b031681526020016003820160009054906101000a90046001600160a01b03166001600160a01b03166001600160a01b031681526020016004820160009054906101000a90046001600160a01b03166001600160a01b03166001600160a01b031681526020016004820160149054906101000a900460ff1615151515815260200160058201548152602001600682016040518060800160405290816000820154815260200160018201548152602001600282015481526020016003820154815250508152602001600a82016040518060800160405290816000820154815260200160018201548152602001600282015481526020016003820154815250508152602001600e8201548152602001600f820154815250508d8861278c565b60098251600c811115610cfa57fe5b1415610ed9576000806104c68d8c604051806101800160405290816000820160009054906101000a90046001600160a01b03166001600160a01b03166001600160a01b031681526020016001820160009054906101000a90046001600160a01b03166001600160a01b03166001600160a01b031681526020016001820160149054906101000a900462ffffff1662ffffff1662ffffff1681526020016002820160009054906101000a90046001600160a01b03166001600160a01b03166001600160a01b031681526020016003820160009054906101000a90046001600160a01b03166001600160a01b03166001600160a01b031681526020016004820160009054906101000a90046001600160a01b03166001600160a01b03166001600160a01b031681526020016004820160149054906101000a900460ff1615151515815260200160058201548152602001600682016040518060800160405290816000820154815260200160018201548152602001600282015481526020016003820154815250508152602001600a82016040518060800160405290816000820154815260200160018201548152602001600282015481526020016003820154815250508152602001600e8201548152602001600f820154815250508661290d565b600a8251600c811115610ee857fe5b14156110e7576000806110c78d8c604051806101800160405290816000820160009054906101000a90046001600160a01b03166001600160a01b03166001600160a01b031681526020016001820160009054906101000a90046001600160a01b03166001600160a01b03166001600160a01b031681526020016001820160149054906101000a900462ffffff1662ffffff1662ffffff1681526020016002820160009054906101000a90046001600160a01b03166001600160a01b03166001600160a01b031681526020016003820160009054906101000a90046001600160a01b03166001600160a01b03166001600160a01b031681526020016004820160009054906101000a90046001600160a01b03166001600160a01b03166001600160a01b031681526020016004820160149054906101000a900460ff1615151515815260200160058201548152602001600682016040518060800160405290816000820154815260200160018201548152602001600282015481526020016003820154815250508152602001600a82016040518060800160405290816000820154815260200160018201548152602001600282015481526020016003820154815250508152602001600e8201548152602001600f8201548152505086612b4f565b90925090506110d6878361215a565b96506110e2868261215a565b955050505b5050600101610338565b5082602001511561151457600061110d83838660600151612d0f565b905060008060098351600c81111561112157fe5b1415611307576112fd8b8a604051806101800160405290816000820160009054906101000a90046001600160a01b03166001600160a01b03166001600160a01b031681526020016001820160009054906101000a90046001600160a01b03166001600160a01b03166001600160a01b031681526020016001820160149054906101000a900462ffffff1662ffffff1662ffffff1681526020016002820160009054906101000a90046001600160a01b03166001600160a01b03166001600160a01b031681526020016003820160009054906101000a90046001600160a01b03166001600160a01b03166001600160a01b031681526020016004820160009054906101000a90046001600160a01b03166001600160a01b03166001600160a01b031681526020016004820160149054906101000a900460ff1615151515815260200160058201548152602001600682016040518060800160405290816000820154815260200160018201548152602001600282015481526020016003820154815250508152602001600a82016040518060800160405290816000820154815260200160018201548152602001600282015481526020016003820154815250508152602001600e8201548152602001600f820154815250508561290d565b90925090506114f8565b600a8351600c81111561131657fe5b14156114f8576114f28b8a604051806101800160405290816000820160009054906101000a90046001600160a01b03166001600160a01b03166001600160a01b031681526020016001820160009054906101000a90046001600160a01b03166001600160a01b03166001600160a01b031681526020016001820160149054906101000a900462ffffff1662ffffff1662ffffff1681526020016002820160009054906101000a90046001600160a01b03166001600160a01b03166001600160a01b031681526020016003820160009054906101000a90046001600160a01b03166001600160a01b03166001600160a01b031681526020016004820160009054906101000a90046001600160a01b03166001600160a01b03166001600160a01b031681526020016004820160149054906101000a900460ff1615151515815260200160058201548152602001600682016040518060800160405290816000820154815260200160018201548152602001600282015481526020016003820154815250508152602001600a82016040518060800160405290816000820154815260200160018201548152602001600282015481526020016003820154815250508152602001600e8201548152602001600f8201548152505085612b4f565b90925090505b611502858361215a565b945061150e848261215a565b93505050505b60008060008560800151126115535760028a0154608086015161153691612297565b608086015160028c0155915061154c848361215a565b9350611587565b846080015160011914156115875761156d84600019612ebc565b915061157d8a6002015483612f65565b60028b0155600093505b60008560a00151126115c35760038a015460a08601516115a691612297565b60a086015160038c015590506115bc838261215a565b92506115f7565b8460a0015160011914156115f7576115dd83600019612ebc565b90506115ed8a6003015482612f65565b60038b0155600092505b8115158061160457508015155b156116465789546040517fc56aedd0d24f7e7e9ffa0147ff1aee7a907de845f0c00b73570d635a91b98f5e9061163d908590859061561e565b60405180910390a25b505060048801541561185d57600488015460005b8181101561185a576000600182840303905060008a60008d600401848154811061168057fe5b600091825260208083209091015483528281019390935260409182018120825161010081018452815460ff16151581526001820154818601526002820154818501526003820154606082015260048201546080820152835180850185526005830154815260068301548187015260a0820152835180850185526007830154815260088301548187015260c08201526009820180548551818802810188019096528086529195929460e0870194909391929184015b828210156117aa5760008481526020908190206040805160c08101825260068602909201805460ff16151583526001808201548486015260028201546001600160801b03169284019290925260038101546060840152600481015460808401526005015460a08301529083529092019101611734565b5050509152505060208101519091501580156117c857506060810151155b80156117d657506040810151155b80156117e457506080810151155b80156117f3575060a081015151155b8015611805575060a081015160200151155b8015611814575060c081015151155b8015611826575060c081015160200151155b8015611835575060e081015151155b15611849576118448c83612ff3565b611850565b505061185a565b505060010161165a565b50505b965096945050505050565b600061187c836060015183600001546130b4565b60408051608081018252845481523060208201526001600160801b03818301819052606080830191909152860151915163fc6f786560e01b81529293509160009182916001600160a01b039091169063fc6f7865906118df90869060040161570e565b6040805180830381600087803b1580156118f857600080fd5b505af115801561190c573d6000803e3d6000fd5b505050506040513d601f19601f820116820180604052508101906119309190615473565b9150915083670de0b6b3a764000083028161194757fe5b60048701805492909104909101905583670de0b6b3a764000082028161196957fe5b6005909601805491909604019094555050505050565b6040805160a0810182528554815260018601546001600160a01b031660208083019190915260028701548284015260038701546060830152600487018054845181840281018401909552808552600094859485948594611b239492938d936080860193919291830182828015611a1457602002820191906000526020600020905b815481526020019060010190808311611a00575b505050919092525050604080516101808101825289546001600160a01b03908116825260018b0154808216602080850191909152600160a01b9182900462ffffff168486015260028d0154831660608086019190915260038e0154841660808087019190915260048f015494851660a08701529290930460ff16151560c085015260058d015460e08501528451808301865260068e0154815260078e01548183015260088e01548187015260098e01548185015261010085015284519182018552600a8d01548252600b8d015490820152600c8c015493810193909352600d8b015490830152610120810191909152600e890154610140820152600f8901546101608201528a91508990613153565b9150915060005b6004890154811015611f945760008860008b6004018481548110611b4a57fe5b90600052602060002001548152602001908152602001600020905060005b6009820154811015611c11576000826009018281548110611b8557fe5b60009182526020909120600690910201805490915060ff1615611bc4576001810154600090815260208b90526040902060039081015490820155611be1565b6001810154600090815260208b9052604090206002015460038201555b600180820154600090815260208c9052604090206004808201549084015560059081015492019190915501611b68565b506040805161010081018252825460ff161515815260018301546020808301919091526002840154828401526003840154606083015260048401546080830152825180840184526005850154815260068501548183015260a0830152825180840184526007850154815260088501548183015260c0830152600984018054845181840281018401909552808552600094859485948594611f0b9492938a9360e0860193919291889084015b82821015611d325760008481526020908190206040805160c08101825260068602909201805460ff16151583526001808201548486015260028201546001600160801b03169284019290925260038101546060840152600481015460808401526005015460a08301529083529092019101611cbc565b50505050815250508c604051806101800160405290816000820160009054906101000a90046001600160a01b03166001600160a01b03166001600160a01b031681526020016001820160009054906101000a90046001600160a01b03166001600160a01b03166001600160a01b031681526020016001820160149054906101000a900462ffffff1662ffffff1662ffffff1681526020016002820160009054906101000a90046001600160a01b03166001600160a01b03166001600160a01b031681526020016003820160009054906101000a90046001600160a01b03166001600160a01b03166001600160a01b031681526020016004820160009054906101000a90046001600160a01b03166001600160a01b03166001600160a01b031681526020016004820160149054906101000a900460ff1615151515815260200160058201548152602001600682016040518060800160405290816000820154815260200160018201548152602001600282015481526020016003820154815250508152602001600a82016040518060800160405290816000820154815260200160018201548152602001600282015481526020016003820154815250508152602001600e8201548152602001600f82015481525050613305565b9350935093509350611f2e85600501611f23866133bc565b60068e01919061341b565b50611f4a85600701611f3f856133bc565b600a8e01919061341b565b50611f6685600501611f5b846133bc565b60068e01919061347a565b50611f8285600701611f77836133bc565b600a8e01919061347a565b505060019094019350611b2a92505050565b5060009182039891039650945050505050565b600484015460009082141561202f576005830180546001808201909255600487018054928301815560009081526020902090910181905585546040517f0605914ef5b9f55d33aee21c48cb416d5a7e023fb964c2ed330b6c894c4547e890612012908690859061561e565b60405180910390a260009081526020859052604090209050612084565b600485015482101561206c57600085600401838154811061204c57fe5b600091825260208083209091015482528690526040902091506120849050565b60405162461bcd60e51b81526004016103ac906156f2565b949350505050565b6040810151835460ff19169015151780845560ff166120d65760c081015160018401546120b89161350a565b600184015560e081015160028401546120d09161350a565b60028401555b60c08101516120ee9060068401906005860190613564565b5060e081015161210790600a8401906007860190613564565b5083600001547ff4457b7e5a4cb23b0a42f238b6c629e37c0866bb91a2f0eef94d7f576d22c96f82602001518360c001518460e0015160405161214c939291906158d1565b60405180910390a250505050565b600082820181831280159061216f5750838112155b80612184575060008312801561218457508381125b6121bf5760405162461bcd60e51b81526004018080602001828103825260218152602001806159ac6021913960400191505060405180910390fd5b90505b92915050565b8254600090819060ff166122075760c083015160018601546121e9916135a4565b600186015560e08301516002860154612201916135a4565b60028601555b60c083015161221f906006860190600588019061341b565b9150612240856007018460e0015186600a0161341b9092919063ffffffff16565b905085600001547f287b547e69b738c1790b9fe65204cfe3f27e4ce7c8d46ddc2b3bbe4a0bcdee3e84602001518560c001518660e00151604051612286939291906158d1565b60405180910390a294509492505050565b60008183038183128015906122ac5750838113155b806122c157506000831280156122c157508381135b6121bf5760405162461bcd60e51b8152600401808060200182810382526024815260200180615a156024913960400191505060405180910390fd5b6040810151835460ff19169015151780845560ff166123465760c081015160038401546123289161350a565b600384015560e081015160048401546123409161350a565b60048401555b60c081015161235e9060068401906005860190613601565b5060e081015161237790600a8401906007860190613601565b5083600001547f14ed48d412add2233f56e3ec2b31c1d2c960010e816752179862b3b608233dc482602001518360c001518460e0015160405161214c939291906158d1565b8254600090819060ff166123fb5760c083015160038601546123dd916135a4565b600386015560e083015160048601546123f5916135a4565b60048601555b60c0830151612413906006860190600588019061347a565b9150612434856007018460e0015186600a0161347a9092919063ffffffff16565b905085600001547fbac8528ae37f8a85e8c1577882d873aabe54dbbf7b3e2967c63d4f2e7f60444384602001518560c001518660e00151604051612286939291906158d1565b600080600061249184608001518560a001516136c6565b90506000806124ba6124a68960a00151610282565b87608001518860a0015189606001516136f9565b600085815260208a90526040812054929450909250901561250e57612500898960008781526020019081526020016000206000015485858b60c001518c60e00151613726565b909850965091506125719050565b600061252f8a89608001518a60a0015187878d60c001518e60e001516137f2565b809950819a508295508394505050505061256f8189608001518a60a001518c60008a8152602001908152602001600020613912909392919063ffffffff16565b505b86606001516001600160801b0316816001600160801b031611156125a75760405162461bcd60e51b81526004016103ac906156d5565b6125b38a898684613954565b8a7fb676b0a534c958ca0a666d0f7a3687500de67295c90f4032fc0489ef9fc223f4886020015186846040516125eb939291906158b2565b60405180910390a2505050509550959350505050565b600080600061261884608001518560a001516136c6565b90506126448686600084815260200190815260200160002086606001518760c001518860e00151613b6e565b6060860151919450925061265b9088908390613c51565b87600001547f349fc591e68c47c391abf5206f24f2ecdc991b5d10e6f67963b39bb3a5dd9ea1856020015183876060015160405161269b939291906158b2565b60405180910390a2509550959350505050565b60008060006126c584608001518560a001516136c6565b90506126f18686600084815260200190815260200160002086606001518760c001518860e00151613b6e565b606086018051600085815260208a90526040902060010180546001600160801b03600160301b8083048216909401169092026601000000000000600160b01b031990921691909117905551919450925061275090889087908490613e79565b877f7935b13e52f453cee66e06ed34bed939ab1cd36811a502a17bbcf07dd21a0767856020015183876060015160405161269b939291906158b2565b60008060006127a384608001518560a001516136c6565b90506000806127cc6127b88960a00151610282565b87608001518860a001518960600151613fbb565b9150915060006127fd898960008781526020019081526020016000206000015485858b60c001518c60e00151613726565b60608b015191995097509092506001600160801b03908116908316101590506128385760405162461bcd60e51b81526004016103ac9061569b565b50505060608401516000828152602087905260409020600101546128829161287d916001600160801b039182169161287791600160301b9004166133bc565b906135a4565b613fda565b600082815260208790526040902060010180546001600160801b0392909216600160301b026601000000000000600160b01b031990921691909117905560608401516128d1908890839061401e565b877f14eb73478feedbdfa3768312526904d4890acda09699478dbe762669b9a66364856020015183876060015160405161269b939291906158b2565b60008060006040518061010001604052808560400151612931578660200151612934565b86515b6001600160a01b031681526020018560400151612952578651612958565b86602001515b6001600160a01b03168152602001866040015162ffffff168152602001306001600160a01b031681526020014281526020018560c0015181526020016000815260200160006001600160a01b0316815250905084608001516001600160a01b031663414bf389826040518263ffffffff1660e01b81526004016129db9190615794565b602060405180830381600087803b1580156129f557600080fd5b505af1925050508015612a25575060408051601f3d908101601f19168201909252612a229181019061541e565b60015b612ace573d808015612a53576040519150601f19603f3d011682016040523d82523d6000602084013e612a58565b606091505b50604051602401612a689061567f565b60408051601f19818403018152919052602080820180516001600160e01b031662461bcd60e51b17815291519091208251918301919091201415612ab457600080935093505050612b47565b8060405162461bcd60e51b81526004016103ac919061562c565b865460408087015160c088015191517fa11bdb5a5018df14a9b80e623473e112917b2a7416a3bbbd8969610f460d396792612b0b929186906155f2565b60405180910390a2846040015115612b305760c085015193506000039150612b479050565b806000038560c00151935093505050612b47565b50505b935093915050565b60008060006040518061010001604052808560400151612b73578660200151612b76565b86515b6001600160a01b031681526020018560400151612b94578651612b9a565b86602001515b6001600160a01b03168152602001866040015162ffffff168152602001306001600160a01b031681526020014281526020018560c001518152602001600019815260200160006001600160a01b0316815250905084608001516001600160a01b031663db3e2198826040518263ffffffff1660e01b8152600401612c1e9190615794565b602060405180830381600087803b158015612c3857600080fd5b505af1925050508015612c68575060408051601f3d908101601f19168201909252612c659181019061541e565b60015b612c96573d808015612a53576040519150601f19603f3d011682016040523d82523d6000602084013e612a58565b86600001547fa11bdb5a5018df14a9b80e623473e112917b2a7416a3bbbd8969610f460d39678660400151838860c00151604051612cd6939291906155f2565b60405180910390a2846040015115612cfc57808560c00151600003935093505050612b47565b60c085015160000393509150612b479050565b612d17614de4565b6000806000808515612d58576000871315612d3b5750600192506000915085612d53565b6000871215612d535760009350600192508660000391505b612d87565b6000881315612d6f57506000925082915086612d87565b6000881215612d875760019350600192508760000391505b828015612d945750600082115b15612df657604080516101008101909152806009815260200160008152602001851515815260200160006001600160801b03168152602001600060020b8152602001600060020b81526020018381526020016000815250945050505050612eb5565b82158015612e045750600081115b15612e665760408051610100810190915280600a815260200160008152602001851515815260200160006001600160801b03168152602001600060020b8152602001600060020b81526020018281526020016000815250945050505050612eb5565b604080516101008101909152806000815260006020820181905260408201819052606082018190526080820181905260a0820181905260c0820181905260e0909101529450612eb59350505050565b9392505050565b600082612ecb575060006121c2565b82600019148015612edf5750600160ff1b82145b15612f1b5760405162461bcd60e51b81526004018080602001828103825260278152602001806159ee6027913960400191505060405180910390fd5b82820282848281612f2857fe5b05146121bf5760405162461bcd60e51b81526004018080602001828103825260278152602001806159ee6027913960400191505060405180910390fd5b600080821215612fb5578282600003840391508110612fb0576040805162461bcd60e51b81526020600482015260026024820152614c5360f01b604482015290519081900360640190fd5b6121c2565b50808201828110156121c2576040805162461bcd60e51b81526020600482015260026024820152614c4160f01b604482015290519081900360640190fd5b600082600401828154811061300457fe5b60009182526020909120015460048401805491925090600019810190811061302857fe5b906000526020600020015483600401838154811061304257fe5b6000918252602090912001556004830180548061305b57fe5b6001900381819060005260206000200160009055905582600001547f081ac19f0e6d216418ece17d3b0b510f1782e821249fdba90c8a9bfc1ca4af7b83836040516130a792919061561e565b60405180910390a2505050565b600080836001600160a01b03166399fbab88846040518263ffffffff1660e01b81526004016130e391906158a9565b6101806040518083038186803b1580156130fc57600080fd5b505afa158015613110573d6000803e3d6000fd5b505050506040513d601f19601f820116820180604052508101906131349190615496565b50506001600160801b039092169a505050505050505050505092915050565b60008060005b8660800151518110156132fb5760008660008960800151848151811061317b57fe5b60209081029190910181015182528181019290925260409081016000908120825161010081018452815460ff16151581526001820154818601526002820154818501526003820154606082015260048201546080820152835180850185526005830154815260068301548187015260a0820152835180850185526007830154815260088301548187015260c08201526009820180548551818802810188019096528086529195929460e0870194909391929184015b828210156132a65760008481526020908190206040805160c08101825260068602909201805460ff16151583526001808201548486015260028201546001600160801b03169284019290925260038101546060840152600481015460808401526005015460a08301529083529092019101613230565b505050508152505090506000806132be8389896140a8565b915091506000806000806132d2878c613305565b9c9098019091019690960399989094019094019690960395505060019093019250613159915050565b5094509492505050565b60008060008085600001516133b35761333e86602001516133388860a0015188610100015161414690919063ffffffff16565b90612297565b935061336486604001516133388860c0015188610120015161414690919063ffffffff16565b925061338a86606001516133388860a0015188610100015161416390919063ffffffff16565b91506133b086608001516133388860c0015188610120015161416390919063ffffffff16565b90505b92959194509250565b600080821215613413576040805162461bcd60e51b815260206004820181905260248201527f53616665436173743a2076616c7565206d75737420626520706f736974697665604482015290519081900360640190fd5b50805b919050565b60008061343583670de0b6b3a7640000876002015461417c565b90508084600001541015613450578354600085559150613464565b8354909150819061346190826135a4565b84555b845461347090836135a4565b9094559392505050565b60008061349483670de0b6b3a7640000876003015461417c565b905080846001015410156134b457600184018054600090915591506134d4565b8091506134ce8185600101546135a490919063ffffffff16565b60018501555b60018501546134e390836135a4565b60018601556003850154613501908390670de0b6b3a764000061417c565b95945050505050565b6000828201838110156121bf576040805162461bcd60e51b815260206004820152601b60248201527f536166654d6174683a206164646974696f6e206f766572666c6f770000000000604482015290519081900360640190fd5b600061357d82670de0b6b3a7640000866002015461417c565b835490915061358c908261350a565b8355835461359a908261350a565b9093555090919050565b6000828211156135fb576040805162461bcd60e51b815260206004820152601e60248201527f536166654d6174683a207375627472616374696f6e206f766572666c6f770000604482015290519081900360640190fd5b50900390565b60008161364085604051806080016040529081600082015481526020016001820154815260200160028201548152602001600382015481525050614192565b1015613678576040805162461bcd60e51b8152602060048201526002602482015261042360f41b604482015290519081900360640190fd5b61368f82670de0b6b3a7640000866003015461417c565b60018401549091506136a1908261350a565b6001808501919091558401546136b7908261350a565b84600101819055509392505050565b600082826040516020016136db92919061560a565b60405160208183030381529060405280519060200120905092915050565b60008061371886613709876141ad565b613712876141ad565b866144df565b915091505b94509492505050565b60008060008060006040518060c001604052808b81526020018a81526020018981526020018881526020018781526020014281525090508a606001516001600160a01b031663219f5d17826040518263ffffffff1660e01b815260040161378d91906157a3565b606060405180830381600087803b1580156137a757600080fd5b505af11580156137bb573d6000803e3d6000fd5b505050506040513d601f19601f820116820180604052508101906137df9190615352565b9b9d919c509a9950975050505050505050565b60008060008060006040518061016001604052808d600001516001600160a01b031681526020018d602001516001600160a01b031681526020018d6040015162ffffff1681526020018c60020b81526020018b60020b81526020018a8152602001898152602001888152602001878152602001306001600160a01b031681526020014281525090508b606001516001600160a01b03166388316456826040518263ffffffff1660e01b81526004016138aa91906157e7565b608060405180830381600087803b1580156138c457600080fd5b505af11580156138d8573d6000803e3d6000fd5b505050506040513d601f19601f820116820180604052508101906138fc9190615436565b929f919e509c50909a5098505050505050505050565b91835560018301805462ffffff1916600292830b62ffffff9081169190911765ffffff000000191663010000009490930b169290920217905542600690910155565b60005b6009850154811015613a4a578285600901828154811061397357fe5b9060005260206000209060060201600101541480156139b1575084600901818154811061399c57fe5b600091825260209091206006909102015460ff165b15613a42576139f861287d836001600160801b03168760090184815481106139d557fe5b60009182526020909120600260069092020101546001600160801b03169061350a565b856009018281548110613a0757fe5b906000526020600020906006020160020160006101000a8154816001600160801b0302191690836001600160801b0316021790555050613b68565b600101613957565b50836009016040518060c00160405280600115158152602001848152602001836001600160801b0316815260200185600086815260200190815260200160002060030154815260200185600086815260200190815260200160002060040154815260200185600086815260200190815260200160002060050154815250908060018154018082558091505060019003906000526020600020906006020160009091909190915060008201518160000160006101000a81548160ff0219169083151502179055506020820151816001015560408201518160020160006101000a8154816001600160801b0302191690836001600160801b03160217905550606082015181600301556080820151816004015560a0820151816005015550505b50505050565b6040805160a081018252855481526001600160801b038516602082015280820184905260608082018490524260808301528701519151630624e65f60e11b81526000928392916001600160a01b0390911690630c49ccbe90613bd4908490600401615751565b6040805180830381600087803b158015613bed57600080fd5b505af1158015613c01573d6000803e3d6000fd5b505050506040513d601f19601f82011682018060405250810190613c259190615473565b9093509150613c468888613c3886613fda565b613c4186613fda565b61457a565b509550959350505050565b60005b6009840154811015613b685782846009018281548110613c7057fe5b906000526020600020906006020160010154148015613cae5750836009018181548110613c9957fe5b600091825260209091206006909102015460ff165b15613e6c57613cf561287d836001600160801b0316866009018481548110613cd257fe5b60009182526020909120600260069092020101546001600160801b0316906135a4565b846009018281548110613d0457fe5b906000526020600020906006020160020160006101000a8154816001600160801b0302191690836001600160801b03160217905550836009018181548110613d4857fe5b60009182526020909120600260069092020101546001600160801b0316613e66576009840180546000198101908110613d7d57fe5b9060005260206000209060060201846009018281548110613d9a57fe5b600091825260209091208254600690920201805460ff909216151560ff199092169190911781556001808301549082015560028083015490820180546001600160801b0319166001600160801b03909216919091179055600380830154908201556004808301549082015560059182015491015560098401805480613e1b57fe5b600082815260208120600660001990930192830201805460ff19168155600181018290556002810180546001600160801b031916905560038101829055600481018290556005015590555b50613e74565b600101613c54565b505050565b60005b6009850154811015613f035782856009018281548110613e9857fe5b906000526020600020906006020160010154148015613ed75750846009018181548110613ec157fe5b600091825260209091206006909102015460ff16155b15613efb576139f861287d836001600160801b03168760090184815481106139d557fe5b600101613e7c565b506040805160c081018252600080825260208083018681526001600160801b03958616848601908152968352968152928120600290810154606084019081526080840183815260a0850184815260099a909a018054600180820183559186529690942094516006909602909401805460ff1916951515959095178555965191840191909155935193820180546001600160801b0319169490931693909317909155915160038301555160048201559051600590910155565b60008061371886613fcb876141ad565b613fd4876141ad565b86614663565b6000600160801b82106134135760405162461bcd60e51b81526004018080602001828103825260278152602001806159856027913960400191505060405180910390fd5b60005b6009840154811015613b68578284600901828154811061403d57fe5b90600052602060002090600602016001015414801561407c575083600901818154811061406657fe5b600091825260209091206006909102015460ff16155b156140a057613cf561287d836001600160801b0316866009018481548110613cd257fe5b600101614021565b6000806000806140b887876146e5565b90925090506140c7848361215a565b93506140d3838261215a565b92508460c0015115614110576140f36140ec8888614816565b859061215a565b93506141096141028888614961565b8590612297565b9350612b44565b61412461411d8888614816565b849061215a565b925061413a6141338888614961565b8490612297565b92505050935093915050565b60006121bf82600001518460400151670de0b6b3a764000061417c565b60006121bf82602001518460600151670de0b6b3a76400005b60006120848261418c8686614a8d565b90614ae6565b600061419d82614b4d565b6141a683614b6a565b0392915050565b60008060008360020b126141c4578260020b6141cc565b8260020b6000035b9050620d89e881111561420a576040805162461bcd60e51b81526020600482015260016024820152601560fa1b604482015290519081900360640190fd5b60006001821661421e57600160801b614230565b6ffffcb933bd6fad37aa2d162d1a5940015b70ffffffffffffffffffffffffffffffffff1690506002821615614264576ffff97272373d413259a46990580e213a0260801c5b6004821615614283576ffff2e50f5f656932ef12357cf3c7fdcc0260801c5b60088216156142a2576fffe5caca7e10e4e61c3624eaa0941cd00260801c5b60108216156142c1576fffcb9843d60f6159c9db58835c9266440260801c5b60208216156142e0576fff973b41fa98c081472e6896dfb254c00260801c5b60408216156142ff576fff2ea16466c96a3843ec78b326b528610260801c5b608082161561431e576ffe5dee046a99a2a811c461f1969c30530260801c5b61010082161561433e576ffcbe86c7900a88aedcffc83b479aa3a40260801c5b61020082161561435e576ff987a7253ac413176f2b074cf7815e540260801c5b61040082161561437e576ff3392b0822b70005940c7a398e4b70f30260801c5b61080082161561439e576fe7159475a2c29b7443b29c7fa6e889d90260801c5b6110008216156143be576fd097f3bdfd2022b8845ad8f792aa58250260801c5b6120008216156143de576fa9f746462d870fdf8a65dc1f90e061e50260801c5b6140008216156143fe576f70d869a156d2a1b890bb3df62baf32f70260801c5b61800082161561441e576f31be135f97d08fd981231505542fcfa60260801c5b6201000082161561443f576f09aa508b5b7a84e1c677de54f3e99bc90260801c5b6202000082161561445f576e5d6af8dedb81196699c329225ee6040260801c5b6204000082161561447e576d2216e584f5fa1ea926041bedfe980260801c5b6208000082161561449b576b048a170391f7dc42444e8fa20260801c5b60008460020b13156144b65780600019816144b257fe5b0490505b6401000000008106156144ca5760016144cd565b60005b60ff16602082901c0192505050919050565b600080836001600160a01b0316856001600160a01b03161115614500579293925b846001600160a01b0316866001600160a01b03161161452b57614524858585614b87565b915061371d565b836001600160a01b0316866001600160a01b0316101561456457614550868585614b87565b915061455d858785614bf0565b905061371d565b61456f858585614bf0565b905094509492505050565b60408051608081018252845481523060208201526001600160801b03808516828401528316606080830191909152860151915163fc6f786560e01b8152909160009182916001600160a01b03169063fc6f7865906145dc90869060040161570e565b6040805180830381600087803b1580156145f557600080fd5b505af1158015614609573d6000803e3d6000fd5b505050506040513d601f19601f8201168201806040525081019061462d9190615473565b9150915081856001600160801b0316148015614651575080846001600160801b0316145b61465a57600080fd5b50505050505050565b600080836001600160a01b0316856001600160a01b03161115614684579293925b846001600160a01b0316866001600160a01b0316116146a857614524858585614c33565b836001600160a01b0316866001600160a01b031610156146da576146cd868585614c33565b915061455d858785614cb8565b61456f858585614cb8565b60008060005b8460e001515181101561480e578460e00151818151811061470857fe5b60200260200101516000015161471d57614806565b60008560e00151828151811061472f57fe5b60200260200101516020015190506147b66147838760e00151848151811061475357fe5b602002602001015160800151876000858152602001908152602001600020600401546135a490919063ffffffff16565b8760e00151848151811061479357fe5b6020026020010151604001516001600160801b0316670de0b6b3a764000061417c565b840193506148006147838760e0015184815181106147d057fe5b602002602001015160a00151876000858152602001908152602001600020600501546135a490919063ffffffff16565b83019250505b6001016146eb565b509250929050565b6000805b8360e001515181101561495a5760008460e00151828151811061483957fe5b6020908102919091018101518101516000818152868352604090819020815161012081018352815481526001820154600281810b810b810b9683019690965263010000008104860b860b860b93820193909352600160301b9092046001600160801b03166060830152928301546080820152600383015460a0820152600483015460c0820152600583015460e08083019190915260069093015461010082015291870151805191935090849081106148ed57fe5b602002602001015160000151156149505761494d6149466149368860e00151868151811061491757fe5b6020026020010151606001518460a001516135a490919063ffffffff16565b8860e00151868151811061479357fe5b859061350a565b93505b505060010161481a565b5092915050565b6000805b8360e001515181101561495a5760008460e00151828151811061498457fe5b6020908102919091018101518101516000818152868352604090819020815161012081018352815481526001820154600281810b810b810b9683019690965263010000008104860b860b860b93820193909352600160301b9092046001600160801b03166060830152928301546080820152600383015460a0820152600483015460c0820152600583015460e0808301919091526006909301546101008201529187015180519193509084908110614a3857fe5b602002602001015160000151614a8357614a806149466149368860e001518681518110614a6157fe5b60200260200101516060015184608001516135a490919063ffffffff16565b93505b5050600101614965565b600082614a9c575060006121c2565b82820282848281614aa957fe5b04146121bf5760405162461bcd60e51b81526004018080602001828103825260218152602001806159cd6021913960400191505060405180910390fd5b6000808211614b3c576040805162461bcd60e51b815260206004820152601a60248201527f536166654d6174683a206469766973696f6e206279207a65726f000000000000604482015290519081900360640190fd5b818381614b4557fe5b049392505050565b60006121c282602001518360600151670de0b6b3a764000061417c565b60006121c282600001518360400151670de0b6b3a764000061417c565b6000826001600160a01b0316846001600160a01b03161115614ba7579192915b836001600160a01b0316614be0606060ff16846001600160801b0316901b8686036001600160a01b0316866001600160a01b0316614cfb565b81614be757fe5b04949350505050565b6000826001600160a01b0316846001600160a01b03161115614c10579192915b612084826001600160801b03168585036001600160a01b0316600160601b614cfb565b6000826001600160a01b0316846001600160a01b03161115614c53579192915b6000614c76856001600160a01b0316856001600160a01b0316600160601b614cfb565b90506000614c9482600160601b8888036001600160a01b0316614cfb565b9050614cae846001600160801b0316600160601b83614daa565b9695505050505050565b6000826001600160a01b0316846001600160a01b03161115614cd8579192915b612084826001600160801b03168585036001600160a01b0316600160601b614daa565b6000808060001985870986860292508281109083900303905080614d315760008411614d2657600080fd5b508290049050612eb5565b808411614d3d57600080fd5b6000848688096000868103871696879004966002600389028118808a02820302808a02820302808a02820302808a02820302808a02820302808a02909103029181900381900460010186841190950394909402919094039290920491909117919091029150509392505050565b6000614db7848484614cfb565b905060008280614dc357fe5b8486091115612eb5576000198110614dda57600080fd5b6001019392505050565b604080516101008101909152806000815260006020820181905260408201819052606082018190526080820181905260a0820181905260c0820181905260e09091015290565b803561341681615929565b805161341681615929565b600082601f830112614e50578081fd5b81356020614e65614e608361590b565b6158e7565b8281528181019085830183850287018401881015614e81578586fd5b855b85811015614e9f57813584529284019290840190600101614e83565b5090979650505050505050565b803561341681615941565b8035600d811061341657600080fd5b80356134168161594f565b80516134168161594f565b600060808284031215614eed578081fd5b6040516080810181811067ffffffffffffffff82111715614f0a57fe5b8060405250809150823581526020830135602082015260408301356040820152606083013560608201525092915050565b600060c08284031215614f4c578081fd5b60405160c0810181811067ffffffffffffffff82111715614f6957fe5b6040529050808235614f7a81615941565b81526020830135614f8a81615941565b60208201526040830135614f9d81615941565b6040820152614fae60608401614eac565b60608201526080830135608082015260a083013560a08201525092915050565b600060a08284031215614fdf578081fd5b60405160a0810167ffffffffffffffff8282108183111715614ffd57fe5b81604052829350843583526020850135915061501882615929565b8160208401526040850135604084015260608501356060840152608085013591508082111561504657600080fd5b5061505385828601614e40565b6080830152505092915050565b80356134168161595e565b80516134168161595e565b805161ffff8116811461341657600080fd5b803561341681615973565b805161341681615973565b6000602082840312156150af578081fd5b81356121bf81615929565b6000806000808486036102a08112156150d1578384fd5b610240808212156150e0578485fd5b61018091506150ee826158e7565b6150f788614e2a565b815261510560208901614e2a565b602082015261511660408901615088565b604082015261512760608901614e2a565b606082015261513860808901614e2a565b608082015261514960a08901614e2a565b60a082015261515a60c08901614eac565b60c082015260e088013560e08201526101006151788a828b01614edc565b9082015261518889898501614edc565b6101208201526102008801356101408201526102208801356101608201529550860135905067ffffffffffffffff8111156151c1578384fd5b6151cd87828801614fce565b9497949650505050610260830135926102800135919050565b60008060008060008061016087890312156151ff578384fd5b86359550602087013594506040870135935060608701359250608087013567ffffffffffffffff80821115615232578384fd5b818901915089601f830112615245578384fd5b8135615253614e608261590b565b80828252602082019150602085018d602061010086028801011115615276578788fd5b8795505b8386101561533057610100818f031215615292578788fd5b604051610100810181811087821117156152a857fe5b6040526152b482614eb7565b8152602082013560208201526152cc60408301614eac565b60408201526152dd60608301615060565b60608201526152ee60808301614ec6565b60808201526152ff60a08301614ec6565b60a082015260c0828101359082015260e080830135908201528352600195909501946020909201916101000161527a565b5080965050505050506153468860a08901614f3b565b90509295509295509295565b600080600060608486031215615366578081fd5b83516153718161595e565b602085015160409095015190969495509392505050565b600080600080600080600060e0888a0312156153a2578485fd5b87516153ad81615929565b60208901519097506153be8161594f565b95506153cc60408901615076565b94506153da60608901615076565b93506153e860808901615076565b925060a088015160ff811681146153fd578182fd5b60c089015190925061540e81615941565b8091505092959891949750929550565b60006020828403121561542f578081fd5b5051919050565b6000806000806080858703121561544b578182fd5b84519350602085015161545d8161595e565b6040860151606090960151949790965092505050565b60008060408385031215615485578182fd5b505080516020909101519092909150565b6000806000806000806000806000806000806101808d8f0312156154b8578586fd5b8c516bffffffffffffffffffffffff811681146154d3578687fd5b9b506154e160208e01614e35565b9a506154ef60408e01614e35565b99506154fd60608e01614e35565b985061550b60808e01615093565b975061551960a08e01614ed1565b965061552760c08e01614ed1565b955061553560e08e0161506b565b94506101008d015193506101208d015192506155546101408e0161506b565b91506155636101608e0161506b565b90509295989b509295989b509295989b565b6001600160a01b03169052565b60020b9052565b80516001600160a01b03908116835260208083015182169084015260408083015162ffffff16908401526060808301518216908401526080808301519084015260a0828101519084015260c0808301519084015260e09182015116910152565b62ffffff169052565b92151583526020830191909152604082015260600190565b600292830b8152910b602082015260400190565b918252602082015260400190565b6000602080835283518082850152825b818110156156585785810183015185820160400152820161563c565b818111156156695783604083870101525b50601f01601f1916929092016040019392505050565b602080825260029082015261415360f01b604082015260600190565b602080825260039082015262282a9960e91b604082015260600190565b60208082526003908201526250553160e81b604082015260600190565b60208082526003908201526250553360e81b604082015260600190565b602080825260029082015261056360f41b604082015260600190565b815181526020808301516001600160a01b0316908201526040808301516001600160801b0390811691830191909152606092830151169181019190915260800190565b600060a082019050825182526001600160801b03602084015116602083015260408301516040830152606083015160608301526080830151608083015292915050565b61010081016121c28284615589565b600060c082019050825182526020830151602083015260408301516040830152606083015160608301526080830151608083015260a083015160a083015292915050565b6000610160820190506157fb828451615575565b602083015161580d6020840182615575565b50604083015161582060408401826155e9565b5060608301516158336060840182615582565b5060808301516158466080840182615582565b5060a083015160a083015260c083015160c083015260e083015160e08301526101008084015181840152506101208084015161588482850182615575565b505061014092830151919092015290565b6001600160a01b0391909116815260200190565b90815260200190565b92835260208301919091526001600160801b0316604082015260600190565b9283526020830191909152604082015260600190565b60405181810167ffffffffffffffff8111828210171561590357fe5b604052919050565b600067ffffffffffffffff82111561591f57fe5b5060209081020190565b6001600160a01b038116811461593e57600080fd5b50565b801515811461593e57600080fd5b8060020b811461593e57600080fd5b6001600160801b038116811461593e57600080fd5b62ffffff8116811461593e57600080fdfe53616665436173743a2076616c756520646f65736e27742066697420696e2031323820626974735369676e6564536166654d6174683a206164646974696f6e206f766572666c6f77536166654d6174683a206d756c7469706c69636174696f6e206f766572666c6f775369676e6564536166654d6174683a206d756c7469706c69636174696f6e206f766572666c6f775369676e6564536166654d6174683a207375627472616374696f6e206f766572666c6f77a2646970667358221220aff6b743387b974b2eb23b23392f489901bc7486f7c5e2688e707bb5ec20dbb264736f6c63430007060033",
  "devdoc": {
    "kind": "dev",
    "methods": {},
    "version": 1
  },
  "userdoc": {
    "kind": "user",
    "methods": {
      "updateFeeGrowth(DataType.Context,DataType.Vault,mapping(uint256 => DataType.SubVault) storage,mapping(bytes32 => DataType.PerpStatus) storage)": {
        "notice": "Collects trade fee and premium."
      },
      "updatePosition(DataType.Vault storage,mapping(uint256 => DataType.SubVault) storage,DataType.Context storage,mapping(bytes32 => DataType.PerpStatus) storage,DataType.PositionUpdate[],DataType.TradeOption)": {
        "notice": "update position and return required token amounts."
      }
    },
    "version": 1
  },
  "storageLayout": {
    "storage": [],
    "types": null
  }
}