{
  "address": "0xdA882DB5f056B09CE88748aA9D8d7279F599a678",
  "abi": [
    {
      "inputs": [
        {
          "internalType": "address",
          "name": "_token0",
          "type": "address"
        },
        {
          "internalType": "address",
          "name": "_token1",
          "type": "address"
        },
        {
          "internalType": "bool",
          "name": "_isMarginZero",
          "type": "bool"
        },
        {
          "internalType": "address",
          "name": "_positionManager",
          "type": "address"
        },
        {
          "internalType": "address",
          "name": "_factory",
          "type": "address"
        },
        {
          "internalType": "address",
          "name": "_swapRouter",
          "type": "address"
        }
      ],
      "stateMutability": "nonpayable",
      "type": "constructor"
    },
    {
      "anonymous": false,
      "inputs": [
        {
          "indexed": true,
          "internalType": "address",
          "name": "previousOwner",
          "type": "address"
        },
        {
          "indexed": true,
          "internalType": "address",
          "name": "newOwner",
          "type": "address"
        }
      ],
      "name": "OwnershipTransferred",
      "type": "event"
    },
    {
      "anonymous": false,
      "inputs": [
        {
          "indexed": false,
          "internalType": "uint256",
          "name": "vaultId",
          "type": "uint256"
        },
        {
          "indexed": false,
          "internalType": "uint256",
          "name": "_amount0",
          "type": "uint256"
        },
        {
          "indexed": false,
          "internalType": "uint256",
          "name": "_amount1",
          "type": "uint256"
        },
        {
          "indexed": false,
          "internalType": "uint256",
          "name": "_penaltyAmount0",
          "type": "uint256"
        },
        {
          "indexed": false,
          "internalType": "uint256",
          "name": "_penaltyAmount1",
          "type": "uint256"
        }
      ],
      "name": "PositionClosed",
      "type": "event"
    },
    {
      "anonymous": false,
      "inputs": [
        {
          "indexed": false,
          "internalType": "uint256",
          "name": "vaultId",
          "type": "uint256"
        }
      ],
      "name": "VaultCreated",
      "type": "event"
    },
    {
      "inputs": [
        {
          "internalType": "uint256",
          "name": "_vaultId",
          "type": "uint256"
        },
        {
          "internalType": "int24",
          "name": "_lower",
          "type": "int24"
        },
        {
          "internalType": "int24",
          "name": "_upper",
          "type": "int24"
        },
        {
          "internalType": "uint128",
          "name": "_liquidity",
          "type": "uint128"
        }
      ],
      "name": "borrowLPT",
      "outputs": [
        {
          "internalType": "uint256",
          "name": "",
          "type": "uint256"
        },
        {
          "internalType": "uint256",
          "name": "",
          "type": "uint256"
        }
      ],
      "stateMutability": "nonpayable",
      "type": "function"
    },
    {
      "inputs": [
        {
          "internalType": "uint256",
          "name": "_vaultId",
          "type": "uint256"
        },
        {
          "internalType": "uint256",
          "name": "_amount0",
          "type": "uint256"
        },
        {
          "internalType": "uint256",
          "name": "_amount1",
          "type": "uint256"
        }
      ],
      "name": "borrowTokens",
      "outputs": [],
      "stateMutability": "nonpayable",
      "type": "function"
    },
    {
      "inputs": [
        {
          "internalType": "uint256",
          "name": "_vaultId",
          "type": "uint256"
        },
        {
          "internalType": "bool",
          "name": "_zeroToOne",
          "type": "bool"
        },
        {
          "internalType": "uint256",
          "name": "_amount",
          "type": "uint256"
        },
        {
          "internalType": "uint256",
          "name": "_amountOutMinimum",
          "type": "uint256"
        }
      ],
      "name": "closePositionsInVault",
      "outputs": [],
      "stateMutability": "nonpayable",
      "type": "function"
    },
    {
      "inputs": [
        {
          "internalType": "uint256",
          "name": "_vaultId",
          "type": "uint256"
        },
        {
          "internalType": "int24",
          "name": "_lower",
          "type": "int24"
        },
        {
          "internalType": "int24",
          "name": "_upper",
          "type": "int24"
        },
        {
          "internalType": "uint128",
          "name": "_liquidity",
          "type": "uint128"
        }
      ],
      "name": "depositLPT",
      "outputs": [
        {
          "internalType": "uint256",
          "name": "requiredAmount0",
          "type": "uint256"
        },
        {
          "internalType": "uint256",
          "name": "requiredAmount1",
          "type": "uint256"
        }
      ],
      "stateMutability": "nonpayable",
      "type": "function"
    },
    {
      "inputs": [
        {
          "internalType": "uint256",
          "name": "_vaultId",
          "type": "uint256"
        },
        {
          "internalType": "uint256",
          "name": "_amount0",
          "type": "uint256"
        },
        {
          "internalType": "uint256",
          "name": "_amount1",
          "type": "uint256"
        },
        {
          "internalType": "bool",
          "name": "_withEnteringMarket",
          "type": "bool"
        }
      ],
      "name": "depositTokens",
      "outputs": [],
      "stateMutability": "nonpayable",
      "type": "function"
    },
    {
      "inputs": [
        {
          "internalType": "uint256",
          "name": "",
          "type": "uint256"
        }
      ],
      "name": "extraVaultParams",
      "outputs": [
        {
          "internalType": "address",
          "name": "owner",
          "type": "address"
        },
        {
          "internalType": "bool",
          "name": "isLiquidationRequired",
          "type": "bool"
        },
        {
          "internalType": "bool",
          "name": "isClosed",
          "type": "bool"
        }
      ],
      "stateMutability": "view",
      "type": "function"
    },
    {
      "inputs": [
        {
          "internalType": "bytes[]",
          "name": "_data",
          "type": "bytes[]"
        }
      ],
      "name": "forceClose",
      "outputs": [],
      "stateMutability": "nonpayable",
      "type": "function"
    },
    {
      "inputs": [
        {
          "internalType": "uint256",
          "name": "_vaultId",
          "type": "uint256"
        }
      ],
      "name": "getMarginValue",
      "outputs": [
        {
          "internalType": "uint256",
          "name": "marginValue",
          "type": "uint256"
        }
      ],
      "stateMutability": "view",
      "type": "function"
    },
    {
      "inputs": [
        {
          "internalType": "uint256",
          "name": "_vaultId",
          "type": "uint256"
        }
      ],
      "name": "getPosition",
      "outputs": [
        {
          "components": [
            {
              "internalType": "uint256",
              "name": "collateral0",
              "type": "uint256"
            },
            {
              "internalType": "uint256",
              "name": "collateral1",
              "type": "uint256"
            },
            {
              "internalType": "uint256",
              "name": "debt0",
              "type": "uint256"
            },
            {
              "internalType": "uint256",
              "name": "debt1",
              "type": "uint256"
            },
            {
              "components": [
                {
                  "internalType": "bool",
                  "name": "isCollateral",
                  "type": "bool"
                },
                {
                  "internalType": "uint128",
                  "name": "liquidity",
                  "type": "uint128"
                },
                {
                  "internalType": "int24",
                  "name": "lowerTick",
                  "type": "int24"
                },
                {
                  "internalType": "int24",
                  "name": "upperTick",
                  "type": "int24"
                }
              ],
              "internalType": "struct PositionVerifier.LPT[]",
              "name": "lpts",
              "type": "tuple[]"
            }
          ],
          "internalType": "struct PositionVerifier.Position",
          "name": "position",
          "type": "tuple"
        }
      ],
      "stateMutability": "view",
      "type": "function"
    },
    {
      "inputs": [],
      "name": "getPrice",
      "outputs": [
        {
          "internalType": "uint256",
          "name": "",
          "type": "uint256"
        }
      ],
      "stateMutability": "view",
      "type": "function"
    },
    {
      "inputs": [
        {
          "internalType": "bytes32",
          "name": "_rangeId",
          "type": "bytes32"
        }
      ],
      "name": "getRange",
      "outputs": [
        {
          "components": [
            {
              "internalType": "uint256",
              "name": "tokenId",
              "type": "uint256"
            },
            {
              "internalType": "int24",
              "name": "lower",
              "type": "int24"
            },
            {
              "internalType": "int24",
              "name": "upper",
              "type": "int24"
            },
            {
              "internalType": "uint128",
              "name": "borrowedLiquidity",
              "type": "uint128"
            },
            {
              "internalType": "uint256",
              "name": "cumulativeFee",
              "type": "uint256"
            },
            {
              "internalType": "uint256",
              "name": "cumulativeFeeForLP",
              "type": "uint256"
            },
            {
              "internalType": "uint256",
              "name": "cumFee0",
              "type": "uint256"
            },
            {
              "internalType": "uint256",
              "name": "cumFee1",
              "type": "uint256"
            },
            {
              "internalType": "uint256",
              "name": "lastTouchedTimestamp",
              "type": "uint256"
            }
          ],
          "internalType": "struct VaultLib.PerpStatus",
          "name": "",
          "type": "tuple"
        }
      ],
      "stateMutability": "view",
      "type": "function"
    },
    {
      "inputs": [],
      "name": "getSqrtPrice",
      "outputs": [
        {
          "internalType": "uint160",
          "name": "sqrtPriceX96",
          "type": "uint160"
        }
      ],
      "stateMutability": "view",
      "type": "function"
    },
    {
      "inputs": [],
      "name": "getTWAP",
      "outputs": [
        {
          "internalType": "uint256",
          "name": "",
          "type": "uint256"
        }
      ],
      "stateMutability": "view",
      "type": "function"
    },
    {
      "inputs": [
        {
          "internalType": "bytes32",
          "name": "_rangeId",
          "type": "bytes32"
        },
        {
          "internalType": "uint128",
          "name": "_liquidity",
          "type": "uint128"
        },
        {
          "internalType": "uint160",
          "name": "_sqrtPrice",
          "type": "uint160"
        }
      ],
      "name": "getTokenAmountsToBorrowLPT",
      "outputs": [
        {
          "internalType": "uint256",
          "name": "",
          "type": "uint256"
        },
        {
          "internalType": "uint256",
          "name": "",
          "type": "uint256"
        }
      ],
      "stateMutability": "view",
      "type": "function"
    },
    {
      "inputs": [
        {
          "internalType": "uint256",
          "name": "_vaultId",
          "type": "uint256"
        }
      ],
      "name": "getVaultStatus",
      "outputs": [
        {
          "internalType": "uint256",
          "name": "",
          "type": "uint256"
        },
        {
          "internalType": "uint256",
          "name": "",
          "type": "uint256"
        },
        {
          "internalType": "uint256",
          "name": "",
          "type": "uint256"
        }
      ],
      "stateMutability": "nonpayable",
      "type": "function"
    },
    {
      "inputs": [],
      "name": "isMarginZero",
      "outputs": [
        {
          "internalType": "bool",
          "name": "",
          "type": "bool"
        }
      ],
      "stateMutability": "view",
      "type": "function"
    },
    {
      "inputs": [],
      "name": "lastTouchedTimestamp",
      "outputs": [
        {
          "internalType": "uint256",
          "name": "",
          "type": "uint256"
        }
      ],
      "stateMutability": "view",
      "type": "function"
    },
    {
      "inputs": [
        {
          "internalType": "uint256",
          "name": "_vaultId",
          "type": "uint256"
        },
        {
          "internalType": "bool",
          "name": "_zeroToOne",
          "type": "bool"
        },
        {
          "internalType": "uint256",
          "name": "_amount",
          "type": "uint256"
        },
        {
          "internalType": "uint256",
          "name": "_amountOutMinimum",
          "type": "uint256"
        }
      ],
      "name": "liquidate",
      "outputs": [],
      "stateMutability": "nonpayable",
      "type": "function"
    },
    {
      "inputs": [
        {
          "internalType": "uint256",
          "name": "_vaultId",
          "type": "uint256"
        },
        {
          "internalType": "bool",
          "name": "_zeroToOne",
          "type": "bool"
        },
        {
          "internalType": "uint256",
          "name": "_amount",
          "type": "uint256"
        },
        {
          "internalType": "uint256",
          "name": "_amountOutMinimum",
          "type": "uint256"
        }
      ],
      "name": "liquidate3",
      "outputs": [],
      "stateMutability": "nonpayable",
      "type": "function"
    },
    {
      "inputs": [
        {
          "internalType": "uint256",
          "name": "_vaultId",
          "type": "uint256"
        },
        {
          "internalType": "uint256",
          "name": "_margin",
          "type": "uint256"
        },
        {
          "components": [
            {
              "components": [
                {
                  "internalType": "uint256",
                  "name": "collateral0",
                  "type": "uint256"
                },
                {
                  "internalType": "uint256",
                  "name": "collateral1",
                  "type": "uint256"
                },
                {
                  "internalType": "uint256",
                  "name": "debt0",
                  "type": "uint256"
                },
                {
                  "internalType": "uint256",
                  "name": "debt1",
                  "type": "uint256"
                },
                {
                  "components": [
                    {
                      "internalType": "bool",
                      "name": "isCollateral",
                      "type": "bool"
                    },
                    {
                      "internalType": "uint128",
                      "name": "liquidity",
                      "type": "uint128"
                    },
                    {
                      "internalType": "int24",
                      "name": "lowerTick",
                      "type": "int24"
                    },
                    {
                      "internalType": "int24",
                      "name": "upperTick",
                      "type": "int24"
                    }
                  ],
                  "internalType": "struct PositionVerifier.LPT[]",
                  "name": "lpts",
                  "type": "tuple[]"
                }
              ],
              "internalType": "struct PositionVerifier.Position",
              "name": "position",
              "type": "tuple"
            },
            {
              "components": [
                {
                  "internalType": "bool",
                  "name": "isDebt",
                  "type": "bool"
                },
                {
                  "internalType": "bool",
                  "name": "isMin",
                  "type": "bool"
                },
                {
                  "internalType": "int24",
                  "name": "tick",
                  "type": "int24"
                }
              ],
              "internalType": "struct PositionVerifier.Proof[]",
              "name": "proofs",
              "type": "tuple[]"
            },
            {
              "internalType": "uint256",
              "name": "amountInMaximum",
              "type": "uint256"
            },
            {
              "internalType": "bool",
              "name": "isLiquidationRequired",
              "type": "bool"
            }
          ],
          "internalType": "struct IProductVerifier.OpenPositionParams",
          "name": "_params",
          "type": "tuple"
        },
        {
          "internalType": "uint256",
          "name": "_buffer0",
          "type": "uint256"
        },
        {
          "internalType": "uint256",
          "name": "_buffer1",
          "type": "uint256"
        }
      ],
      "name": "openPosition",
      "outputs": [
        {
          "internalType": "uint256",
          "name": "vaultId",
          "type": "uint256"
        }
      ],
      "stateMutability": "nonpayable",
      "type": "function"
    },
    {
      "inputs": [],
      "name": "owner",
      "outputs": [
        {
          "internalType": "address",
          "name": "",
          "type": "address"
        }
      ],
      "stateMutability": "view",
      "type": "function"
    },
    {
      "inputs": [],
      "name": "pricingModule",
      "outputs": [
        {
          "internalType": "contract IPricingModule",
          "name": "",
          "type": "address"
        }
      ],
      "stateMutability": "view",
      "type": "function"
    },
    {
      "inputs": [],
      "name": "productVerifier",
      "outputs": [
        {
          "internalType": "contract IProductVerifier",
          "name": "",
          "type": "address"
        }
      ],
      "stateMutability": "view",
      "type": "function"
    },
    {
      "inputs": [
        {
          "internalType": "bytes32",
          "name": "",
          "type": "bytes32"
        }
      ],
      "name": "ranges",
      "outputs": [
        {
          "internalType": "uint256",
          "name": "tokenId",
          "type": "uint256"
        },
        {
          "internalType": "int24",
          "name": "lower",
          "type": "int24"
        },
        {
          "internalType": "int24",
          "name": "upper",
          "type": "int24"
        },
        {
          "internalType": "uint128",
          "name": "borrowedLiquidity",
          "type": "uint128"
        },
        {
          "internalType": "uint256",
          "name": "cumulativeFee",
          "type": "uint256"
        },
        {
          "internalType": "uint256",
          "name": "cumulativeFeeForLP",
          "type": "uint256"
        },
        {
          "internalType": "uint256",
          "name": "cumFee0",
          "type": "uint256"
        },
        {
          "internalType": "uint256",
          "name": "cumFee1",
          "type": "uint256"
        },
        {
          "internalType": "uint256",
          "name": "lastTouchedTimestamp",
          "type": "uint256"
        }
      ],
      "stateMutability": "view",
      "type": "function"
    },
    {
      "inputs": [],
      "name": "renounceOwnership",
      "outputs": [],
      "stateMutability": "nonpayable",
      "type": "function"
    },
    {
      "inputs": [
        {
          "internalType": "address",
          "name": "_lptMathModule",
          "type": "address"
        }
      ],
      "name": "setLPTMathModule",
      "outputs": [],
      "stateMutability": "nonpayable",
      "type": "function"
    },
    {
      "inputs": [
        {
          "internalType": "address",
          "name": "_pricingModule",
          "type": "address"
        }
      ],
      "name": "setPricingModule",
      "outputs": [],
      "stateMutability": "nonpayable",
      "type": "function"
    },
    {
      "inputs": [
        {
          "internalType": "address",
          "name": "_productVerifier",
          "type": "address"
        }
      ],
      "name": "setProductVerifier",
      "outputs": [],
      "stateMutability": "nonpayable",
      "type": "function"
    },
    {
      "inputs": [
        {
          "internalType": "bool",
          "name": "_zeroForOne",
          "type": "bool"
        },
        {
          "internalType": "uint256",
          "name": "_amountOut",
          "type": "uint256"
        },
        {
          "internalType": "uint256",
          "name": "_amountInMaximum",
          "type": "uint256"
        }
      ],
      "name": "swapExactOutput",
      "outputs": [
        {
          "internalType": "uint256",
          "name": "",
          "type": "uint256"
        }
      ],
      "stateMutability": "nonpayable",
      "type": "function"
    },
    {
      "inputs": [
        {
          "internalType": "address",
          "name": "newOwner",
          "type": "address"
        }
      ],
      "name": "transferOwnership",
      "outputs": [],
      "stateMutability": "nonpayable",
      "type": "function"
    },
    {
      "inputs": [],
      "name": "uniswapPool",
      "outputs": [
        {
          "internalType": "contract IUniswapV3Pool",
          "name": "",
          "type": "address"
        }
      ],
      "stateMutability": "view",
      "type": "function"
    },
    {
      "inputs": [],
      "name": "vaultIdCount",
      "outputs": [
        {
          "internalType": "uint256",
          "name": "",
          "type": "uint256"
        }
      ],
      "stateMutability": "view",
      "type": "function"
    },
    {
      "inputs": [
        {
          "internalType": "uint256",
          "name": "",
          "type": "uint256"
        }
      ],
      "name": "vaults",
      "outputs": [
        {
          "internalType": "uint256",
          "name": "margin",
          "type": "uint256"
        },
        {
          "internalType": "uint256",
          "name": "collateralAmount0",
          "type": "uint256"
        },
        {
          "internalType": "uint256",
          "name": "collateralAmount1",
          "type": "uint256"
        }
      ],
      "stateMutability": "view",
      "type": "function"
    },
    {
      "inputs": [
        {
          "internalType": "uint256",
          "name": "_vaultId",
          "type": "uint256"
        }
      ],
      "name": "withdrawFromVault",
      "outputs": [],
      "stateMutability": "nonpayable",
      "type": "function"
    }
  ],
  "transactionHash": "0x1b8fa44d26cc3bb44ea73a0d1637a095321f22d84a65ba347e896746bf7f56de",
  "args": [
    "0x6466232Bf77e70bEa2535393DC9B2b0d94ea3C22",
    "0xF61Cffd6071a8DB7cD5E8DF1D3A5450D9903cF1c",
    false,
    "0xC36442b4a4522E871399CD717aBDD847Ab11FE88",
    "0x1F98431c8aD98523631AE4a59f267346ea31F984",
    "0xE592427A0AEce92De3Edee1F18E0157C05861564"
  ],
  "solcInputHash": "678bdaf0f6c82e3320da0d5f1de3a707",
  "bytecode": "0x60a06040523480156200001157600080fd5b506040516200654738038062006547833981016040819052620000349162000504565b600062000040620003bf565b600080546001600160a01b0319166001600160a01b0383169081178255604051929350917f8be0079c531659141344cd1fd0a4f28419497f9722a3daafe3b4186f6b6457e0908290a350600180546001600160a01b03199081166001600160a01b0389811691909117928390556002805483168983161760ff60a01b1916600160a01b8915150217908190556003805490931687831617909255606084811b6001600160601b031916608052604080519182018152938216815291166020808301919091526101f49282019290925290620001289084908390620003c3811b6200239e17901c565b600480546001600160a01b0319166001600160a01b039283161781556001600a8190555460035460405163095ea7b360e01b81529184169363095ea7b3936200017b9392909116916000199101620005a8565b602060405180830381600087803b1580156200019657600080fd5b505af1158015620001ab573d6000803e3d6000fd5b505050506040513d601f19601f82011682018060405250810190620001d1919062000584565b5060025460035460405163095ea7b360e01b81526001600160a01b039283169263095ea7b3926200020c9291169060001990600401620005a8565b602060405180830381600087803b1580156200022757600080fd5b505af11580156200023c573d6000803e3d6000fd5b505050506040513d601f19601f8201168201806040525081019062000262919062000584565b5060015460405163095ea7b360e01b81526001600160a01b039091169063095ea7b3906200029990859060001990600401620005a8565b602060405180830381600087803b158015620002b457600080fd5b505af1158015620002c9573d6000803e3d6000fd5b505050506040513d601f19601f82011682018060405250810190620002ef919062000584565b5060025460405163095ea7b360e01b81526001600160a01b039091169063095ea7b3906200032690859060001990600401620005a8565b602060405180830381600087803b1580156200034157600080fd5b505af115801562000356573d6000803e3d6000fd5b505050506040513d601f19601f820116820180604052508101906200037c919062000584565b5062000394600f620004bb60201b620024821760201c565b50620003ac6013620004bb60201b620024821760201c565b50504260085550620005c1945050505050565b3390565b600081602001516001600160a01b031682600001516001600160a01b031610620003ec57600080fd5b50805160208083015160409384015184516001600160a01b0394851681850152939091168385015262ffffff166060808401919091528351808403820181526080840185528051908301207fff0000000000000000000000000000000000000000000000000000000000000060a085015294901b6001600160601b03191660a183015260b58201939093527fe34f199b19b2b4f47f68442619d555527d244f78a3297ea89325f843f87b8b5460d5808301919091528251808303909101815260f5909101909152805191012090565b670de0b6b3a764000060028201819055600390910155600090565b80516001600160a01b0381168114620004ee57600080fd5b919050565b80518015158114620004ee57600080fd5b60008060008060008060c087890312156200051d578182fd5b6200052887620004d6565b95506200053860208801620004d6565b94506200054860408801620004f3565b93506200055860608801620004d6565b92506200056860808801620004d6565b91506200057860a08801620004d6565b90509295509295509295565b60006020828403121562000596578081fd5b620005a182620004f3565b9392505050565b6001600160a01b03929092168252602082015260400190565b60805160601c615f63620005e460003980610cf05280613a6a5250615f636000f3fe608060405234801561001057600080fd5b50600436106102065760003560e01c806365b5f6e31161011a578063aa763556116100ad578063d267899d1161007c578063d267899d14610444578063e7ebf0bd14610457578063e9948e311461046a578063eb02c30114610472578063f2fde38b1461049257610206565b8063aa76355614610403578063bdd3d82514610416578063c83939cf1461041e578063cb68c1221461043157610206565b80638c64ea4a116100e95780638c64ea4a146103be5780638da5cb5b146103d1578063976dc04d146103d957806398d5fdca146103fb57610206565b806365b5f6e314610373578063715018a614610386578063797c98f91461038e57806386e6862d146103b657610206565b806336fae6de1161019d578063517ede9d1161016c578063517ede9d1461031057806354dbbcc11461032557806355585a08146103385780635ce20ffb1461034d578063627af7541461036057610206565b806336fae6de146102a757806346f9697f146102ba57806349b73239146102db57806349ebb77d146102ee57610206565b80630a3cb374116101d95780630a3cb3741461027157806320f3df8e1461028457806326d8d4f914610297578063275892a21461029f57610206565b8063013216f51461020b57806305d719f11461023457806305ecd00314610249578063076d08151461025e575b600080fd5b61021e61021936600461525d565b6104a5565b60405161022b9190615b84565b60405180910390f35b610247610242366004615134565b610543565b005b6102516105c7565b60405161022b9190615d23565b61024761026c36600461525d565b6106ef565b61025161027f36600461525d565b61078b565b6102476102923660046153c7565b6109fc565b610251610b13565b610251610b19565b6102476102b53660046155db565b610b1f565b6102cd6102c8366004615275565b610b73565b60405161022b929190615ce2565b6102516102e9366004615229565b610c26565b6103016102fc36600461525d565b610d97565b60405161022b93929190615e25565b610318610ddb565b60405161022b91906158f6565b610247610333366004615134565b610deb565b610340610e6f565b60405161022b91906158bf565b61024761035b366004615606565b610e7e565b61024761036e3660046153c7565b610eff565b610247610381366004615150565b610f61565b61024761105a565b6103a161039c36600461525d565b611106565b60405161022b99989796959493929190615d2c565b61034061115b565b6103016103cc36600461525d565b6111ef565b610340611210565b6103ec6103e736600461525d565b61121f565b60405161022b939291906158d3565b610251611250565b6102cd61041136600461544b565b6112ed565b6103406114bf565b61024761042c3660046153c7565b6114ce565b61024761043f366004615134565b611583565b6102516104523660046154fd565b611607565b6102cd61046536600461544b565b61185d565b610340611d62565b61048561048036600461525d565b611d71565b60405161022b9190615bf8565b6102476104a0366004615134565b61229c565b6104ad614e24565b50600081815260096020908152604091829020825161012081018452815481526001820154600281810b810b810b9483019490945263010000008104840b840b840b94820194909452600160301b9093046001600160801b03166060840152908101546080830152600381015460a0830152600481015460c0830152600581015460e0830152600601546101008201525b919050565b61054b61249d565b6001600160a01b031661055c611210565b6001600160a01b0316146105a5576040805162461bcd60e51b81526020600482018190526024820152600080516020615f0e833981519152604482015290519081900360640190fd5b600680546001600160a01b0319166001600160a01b0392909216919091179055565b6007546004805460405163269b267f60e01b815260009384936001600160a01b039182169363269b267f936106039390911691603c910161594f565b604080518083038186803b15801561061a57600080fd5b505afa15801561062e573d6000803e3d6000fd5b505050506040513d601f19601f820116820180604052508101906106529190615382565b50600754600254604051635450527f60e01b81526001600160a01b0393841694509190921691635450527f916106989160ff600160a01b9091041690859060040161591a565b60206040518083038186803b1580156106b057600080fd5b505afa1580156106c4573d6000803e3d6000fd5b505050506040513d601f19601f820116820180604052508101906106e891906153af565b9150505b90565b6000818152600c602052604090205481906001600160a01b0316331461071457600080fd5b6000828152600b60209081526040808320600c90925290912054600160a81b900460ff1661074157600080fd5b60018082018054600284018054600093849055929055915461076d906001600160a01b031633846124a1565b600254610784906001600160a01b031633836124a1565b5050505050565b6000818152600b60209081526040808320815160e0810183528154815260018201548185015260028201548184015260038201805484518187028101870190955280855291949293606086019390929083018282801561082a57602002820191906000526020600020906000905b825461010083900a900460ff1615158152602060019283018181049485019490930390920291018084116107f95790505b505050505081526020016004820180548060200260200160405190810160405280929190818152602001828054801561088257602002820191906000526020600020905b81548152602001906001019080831161086e575b505050505081526020016005820180548060200260200160405190810160405280929190818152602001828054801561090c57602002820191906000526020600020906000905b82829054906101000a90046001600160801b03166001600160801b031681526020019060100190602082600f010492830192600103820291508084116108c95790505b505050505081526020016006820180548060200260200160405190810160405280929190818152602001828054801561096457602002820191906000526020600020905b815481526020019060010190808311610950575b5050509190925250506040516316af8d0960e11b815273Edf46B7feE9b18d6FABF9bA89Fe71A31166CF01492632d5f1a1292506109a691600990600401615c0b565b60206040518083038186803b1580156109be57600080fd5b505af41580156109d2573d6000803e3d6000fd5b505050506040513d601f19601f820116820180604052508101906109f691906153af565b92915050565b610a05846125e8565b610a0e8461280d565b610a1757600080fd5b6007546004805460405163269b267f60e01b81526000936001600160a01b039081169363269b267f93610a5093921691603c910161594f565b604080518083038186803b158015610a6757600080fd5b505afa158015610a7b573d6000803e3d6000fd5b505050506040513d601f19601f82011682018060405250810190610a9f9190615382565b509050600080610aaf87846128e9565b9150915060006040518060a00160405280881515815260200187815260200186815260200160648581610ade57fe5b0481526020016064840490529050610af68882612d0b565b610b093382606001518360800151612fc9565b5050505050505050565b600a5481565b60085481565b6005546001600160a01b03163314610b3657600080fd5b6000838152600d60205260409020610b5190600f9084612ffc565b506000838152600e60205260409020610b6d9060139083612ffc565b50505050565b600754600084815260096020526040808220600101549051630544f36560e31b8152919283926001600160a01b0390911691632a279b2891610bcb918791600282810b9263010000009004900b908a90600401615cf0565b604080518083038186803b158015610be257600080fd5b505afa158015610bf6573d6000803e3d6000fd5b505050506040513d601f19601f82011682018060405250810190610c1a91906154da565b91509150935093915050565b6005546000906001600160a01b03163314610c4057600080fd5b600060405180610100016040528086610c64576002546001600160a01b0316610c71565b6001546001600160a01b03165b6001600160a01b0316815260200186610c95576001546001600160a01b0316610ca2565b6002546001600160a01b03165b6001600160a01b031681526020016101f462ffffff168152602001306001600160a01b0316815260200142815260200185815260200184815260200160006001600160a01b031681525090507f00000000000000000000000000000000000000000000000000000000000000006001600160a01b031663db3e2198826040518263ffffffff1660e01b8152600401610d3a9190615a83565b602060405180830381600087803b158015610d5457600080fd5b505af1158015610d68573d6000803e3d6000fd5b505050506040513d601f19601f82011682018060405250810190610d8c91906153af565b9150505b9392505050565b600080600080610da561115b565b9050610db0856125e8565b600080610dbd8784613034565b915091506000610dcc8861078b565b92989197509195509350505050565b600254600160a01b900460ff1681565b610df361249d565b6001600160a01b0316610e04611210565b6001600160a01b031614610e4d576040805162461bcd60e51b81526020600482018190526024820152600080516020615f0e833981519152604482015290519081900360640190fd5b600580546001600160a01b0319166001600160a01b0392909216919091179055565b6005546001600160a01b031681565b6005546001600160a01b03163314610e9557600080fd5b8015610ed8576000848152600d60205260409020610eb690600f9085613156565b506000848152600e60205260409020610ed29060139084613156565b50610b6d565b6000848152600b602052604090206001810180548501905560020180548301905550505050565b6000848152600c602052604090205484906001600160a01b03163314610f2457600080fd5b610f2d856125e8565b610784856040518060a001604052808715158152602001868152602001858152602001600081526020016000815250612d0b565b610f6961249d565b6001600160a01b0316610f7a611210565b6001600160a01b031614610fc3576040805162461bcd60e51b81526020600482018190526024820152600080516020615f0e833981519152604482015290519081900360640190fd5b60005b8151811015611056576000806000806000868681518110610fe357fe5b6020026020010151806020019051810190610ffe9190615403565b94509450945094509450611011856125e8565b611045856040518060a001604052808715158152602001868152602001858152602001600081526020016000815250612d0b565b505060019093019250610fc6915050565b5050565b61106261249d565b6001600160a01b0316611073611210565b6001600160a01b0316146110bc576040805162461bcd60e51b81526020600482018190526024820152600080516020615f0e833981519152604482015290519081900360640190fd5b600080546040516001600160a01b03909116907f8be0079c531659141344cd1fd0a4f28419497f9722a3daafe3b4186f6b6457e0908390a3600080546001600160a01b0319169055565b600960205260009081526040902080546001820154600280840154600385015460048601546005870154600690970154959685850b966301000000870490950b95600160301b90046001600160801b03169489565b6000600460009054906101000a90046001600160a01b03166001600160a01b0316633850c7bd6040518163ffffffff1660e01b815260040160e06040518083038186803b1580156111ab57600080fd5b505afa1580156111bf573d6000803e3d6000fd5b505050506040513d601f19601f820116820180604052508101906111e391906152ec565b50949695505050505050565b600b6020526000908152604090208054600182015460029092015490919083565b6000546001600160a01b031690565b600c602052600090815260409020546001600160a01b0381169060ff600160a01b8204811691600160a81b90041683565b6007546002546000916001600160a01b031690635450527f90600160a01b900460ff1661127b61115b565b6040518363ffffffff1660e01b8152600401611298929190615901565b60206040518083038186803b1580156112b057600080fd5b505afa1580156112c4573d6000803e3d6000fd5b505050506040513d601f19601f820116820180604052508101906112e891906153af565b905090565b60055460009081906001600160a01b0316331461130957600080fd5b60006113158686613185565b6000818152600960205260408120549192509081906113359087856131b8565b91509150856009600085815260200190815260200160002060010160068282829054906101000a90046001600160801b03160192506101000a8154816001600160801b0302191690836001600160801b031602179055506000600b60008b8152602001908152602001600020905080600301600090806001815401808255809150506001900390600052602060002090602091828204019190069091909190916101000a81548160ff02191690831515021790555080600401849080600181540180825580915050600190039060005260206000200160009091909190915055806005018790806001815401808255809150506001900390600052602060002090600291828204019190066010029091909190916101000a8154816001600160801b0302191690836001600160801b0316021790555080600601600960008681526020019081526020016000206002015490806001815401808255809150506001900390600052602060002001600090919091909150558282955095505050505094509492505050565b6004546001600160a01b031681565b6114d7846125e8565b60006114e28561078b565b905060006114ef86613294565b90508082106115195760405162461bcd60e51b815260040161151090615998565b60405180910390fd5b6040805160a0810182528615158152602081018690529081018490526000606082018190526080820152600254606483049190600160a01b900460ff1615611567576060810182905261156f565b608081018290525b6115798882612d0b565b610b093383613500565b61158b61249d565b6001600160a01b031661159c611210565b6001600160a01b0316146115e5576040805162461bcd60e51b81526020600482018190526024820152600080516020615f0e833981519152604482015290519081900360640190fd5b600780546001600160a01b0319166001600160a01b0392909216919091179055565b6000611612866125e8565b600061161d8761353a565b6040516331442a6760e01b8152919350915073Edf46B7feE9b18d6FABF9bA89Fe71A31166CF014906331442a679061165b9084908a90600401615ce2565b60006040518083038186803b15801561167357600080fd5b505af4158015611687573d6000803e3d6000fd5b5050505060608501516000838152600c60205260409020805460ff60a01b1916600160a01b921515830217905560025460ff91900416156116f9576001546116dc906001600160a01b031633308988016135f8565b6002546116f4906001600160a01b03163330866135f8565b61172b565b600154611711906001600160a01b03163330876135f8565b60025461172b906001600160a01b031633308987016135f8565b600554604051630b5e791560e21b815260009182916001600160a01b0390911690632d79e454906117629087908b90600401615d7a565b6040805180830381600087803b15801561177b57600080fd5b505af115801561178f573d6000803e3d6000fd5b505050506040513d601f19601f820116820180604052508101906117b391906154da565b9150915060006117c285613294565b905080846000015410156117e85760405162461bcd60e51b8152600401611510906159e1565b6117f18561280d565b1561180e5760405162461bcd60e51b8152600401611510906159c5565b8287111561182f5760015461182f906001600160a01b031633858a036124a1565b8186111561185057600254611850906001600160a01b0316338489036124a1565b5050505095945050505050565b60055460009081906001600160a01b0316331461187957600080fd5b60006118858686613185565b60075490915060009081906001600160a01b0316632a279b286118a661115b565b8a8a8a6040518563ffffffff1660e01b81526004016118c89493929190615cf0565b604080518083038186803b1580156118df57600080fd5b505afa1580156118f3573d6000803e3d6000fd5b505050506040513d601f19601f8201168201806040525081019061191791906154da565b60008581526009602052604081205492945090925090156119fa576040805160c08101825260008681526009602090815283822054835282018690528183018590526060820181905260808201524260a0820152600354915163219f5d1760e01b815290916001600160a01b03169063219f5d179061199a908490600401615a92565b606060405180830381600087803b1580156119b457600080fd5b505af11580156119c8573d6000803e3d6000fd5b505050506040513d601f19601f820116820180604052508101906119ec91906152b6565b90985096509150611b8e9050565b60408051610160810182526001546001600160a01b03908116825260028054821660208401526101f4838501528c810b60608401528b900b608083015260a0820186905260c08201859052600060e0830181905261010083015230610120830152426101408301526003549251634418b22b60e11b815291921690638831645690611a89908490600401615ad6565b608060405180830381600087803b158015611aa357600080fd5b505af1158015611ab7573d6000803e3d6000fd5b505050506040513d601f19601f82011682018060405250810190611adb919061549d565b600960008a81526020019081526020016000206000016000829b50839c50849750859190505550505050896009600087815260200190815260200160002060010160006101000a81548162ffffff021916908360020b62ffffff160217905550886009600087815260200190815260200160002060010160036101000a81548162ffffff021916908360020b62ffffff160217905550426009600087815260200190815260200160002060060181905550505b6000600b60008c8152602001908152602001600020905080600301600190806001815401808255809150506001900390600052602060002090602091828204019190069091909190916101000a81548160ff02191690831515021790555080600401859080600181540180825580915050600190039060005260206000200160009091909190915055806005018290806001815401808255809150506001900390600052602060002090600291828204019190066010029091909190916101000a8154816001600160801b0302191690836001600160801b031602179055508060060160096000878152602001908152602001600020600201549080600181540180825580915050600190039060005260206000200160009091909190915055600c60008c815260200190815260200160002060020160096000878152602001908152602001600020600401549080600181540180825580915050600190039060005260206000200160009091909190915055600c60008c815260200190815260200160002060030160096000878152602001908152602001600020600501549080600181540180825580915050600190039060005260206000200160009091909190915055505050505094509492505050565b6006546001600160a01b031681565b611d79614e7f565b6000828152600b60209081526040808320815160e08101835281548152600182015481850152600282015481840152600382018054845181870281018701909552808552919492936060860193909290830182828015611e1857602002820191906000526020600020906000905b825461010083900a900460ff161515815260206001928301818104948501949093039092029101808411611de75790505b5050505050815260200160048201805480602002602001604051908101604052809291908181526020018280548015611e7057602002820191906000526020600020905b815481526020019060010190808311611e5c575b5050505050815260200160058201805480602002602001604051908101604052809291908181526020018280548015611efa57602002820191906000526020600020906000905b82829054906101000a90046001600160801b03166001600160801b031681526020019060100190602082600f01049283019260010382029150808411611eb75790505b5050505050815260200160068201805480602002602001604051908101604052809291908181526020018280548015611f5257602002820191906000526020600020905b815481526020019060010190808311611f3e575b5050505050815250509050600081608001515167ffffffffffffffff81118015611f7b57600080fd5b50604051908082528060200260200182016040528015611fb557816020015b611fa2614eae565b815260200190600190039081611f9a5790505b50905060005b82608001515181101561210757600083608001518281518110611fda57fe5b602090810291909101810151600081815260098352604090819020815161012081018352815481526001820154600281810b810b810b9683019690965263010000008104860b860b860b82850152600160301b90046001600160801b031660608083019190915294820154608080830191909152600383015460a0830152600483015460c0830152600583015460e083015260069092015461010082015282519182019092529287015180519294509092918291908690811061209957fe5b6020026020010151151581526020018660a0015185815181106120b857fe5b60200260200101516001600160801b03168152602001826020015160020b8152602001826040015160020b8152508484815181106120f257fe5b60209081029190910101525050600101611fbb565b506040805160a081018083526020808601516000898152600d835285902060e085018652805484526001015460c08501528451608081018652600f548152601054928101929092526011549482019490945260125460608201529192839290916121719190613750565b0181526040808501516000888152600e602090815290839020835180850185528154815260019091015481830152835160808101855260135481526014548184015260155494810194909452601654606085015293019290916121d391613750565b0181526000868152600d60209081526040918290208251808401845281548152600190910154818301528251608081018452600f54815260105481840152601154938101939093526012546060840152920191612230919061376d565b81526000868152600e6020908152604091829020825180840184528154815260019091015481830152825160808101845260135481526014548184015260155493810193909352601654606084015292019161228c919061376d565b8152602001919091529392505050565b6122a461249d565b6001600160a01b03166122b5611210565b6001600160a01b0316146122fe576040805162461bcd60e51b81526020600482018190526024820152600080516020615f0e833981519152604482015290519081900360640190fd5b6001600160a01b0381166123435760405162461bcd60e51b8152600401808060200182810382526026815260200180615ee86026913960400191505060405180910390fd5b600080546040516001600160a01b03808516939216917f8be0079c531659141344cd1fd0a4f28419497f9722a3daafe3b4186f6b6457e091a3600080546001600160a01b0319166001600160a01b0392909216919091179055565b600081602001516001600160a01b031682600001516001600160a01b0316106123c657600080fd5b50805160208083015160409384015184516001600160a01b0394851681850152939091168385015262ffffff166060808401919091528351808403820181526080840185528051908301206001600160f81b031960a085015294901b6bffffffffffffffffffffffff191660a183015260b58201939093527fe34f199b19b2b4f47f68442619d555527d244f78a3297ea89325f843f87b8b5460d5808301919091528251808303909101815260f5909101909152805191012090565b670de0b6b3a764000060028201819055600390910155600090565b3390565b604080516001600160a01b038481166024830152604480830185905283518084039091018152606490920183526020820180516001600160e01b031663a9059cbb60e01b1781529251825160009485949389169392918291908083835b6020831061251d5780518252601f1990920191602091820191016124fe565b6001836020036101000a0380198251168184511680821785525050505050509050019150506000604051808303816000865af19150503d806000811461257f576040519150601f19603f3d011682016040523d82523d6000602084013e612584565b606091505b50915091508180156125b25750805115806125b257508080602001905160208110156125af57600080fd5b50515b610784576040805162461bcd60e51b815260206004820152600260248201526114d560f21b604482015290519081900360640190fd5b6000818152600b60209081526040808320815160e0810183528154815260018201548185015260028201548184015260038201805484518187028101870190955280855291949293606086019390929083018282801561268757602002820191906000526020600020906000905b825461010083900a900460ff1615158152602060019283018181049485019490930390920291018084116126565790505b50505050508152602001600482018054806020026020016040519081016040528092919081815260200182805480156126df57602002820191906000526020600020905b8154815260200190600101908083116126cb575b505050505081526020016005820180548060200260200160405190810160405280929190818152602001828054801561276957602002820191906000526020600020906000905b82829054906101000a90046001600160801b03166001600160801b031681526020019060100190602082600f010492830192600103820291508084116127265790505b50505050508152602001600682018054806020026020016040519081016040528092919081815260200182805480156127c157602002820191906000526020600020905b8154815260200190600101908083116127ad575b505050505081525050905060005b816080015151811015612804576127fc826080015182815181106127ef57fe5b602002602001015161378a565b6001016127cf565b50611056613948565b6000818152600c6020526040812054600160a01b900460ff16156128e1576007546004805460405163269b267f60e01b81526000936001600160a01b039081169363269b267f9361286493921691603c910161594f565b604080518083038186803b15801561287b57600080fd5b505afa15801561288f573d6000803e3d6000fd5b505050506040513d601f19601f820116820180604052508101906128b39190615382565b5090506000806128c38584613034565b9150915080600483600302816128d557fe5b0410935050505061053e565b506000919050565b6000806000600b60008681526020019081526020016000206040518060e00160405290816000820154815260200160018201548152602001600282015481526020016003820180548060200260200160405190810160405280929190818152602001828054801561299957602002820191906000526020600020906000905b825461010083900a900460ff1615158152602060019283018181049485019490930390920291018084116129685790505b50505050508152602001600482018054806020026020016040519081016040528092919081815260200182805480156129f157602002820191906000526020600020905b8154815260200190600101908083116129dd575b5050505050815260200160058201805480602002602001604051908101604052809291908181526020018280548015612a7b57602002820191906000526020600020906000905b82829054906101000a90046001600160801b03166001600160801b031681526020019060100190602082600f01049283019260010382029150808411612a385790505b5050505050815260200160068201805480602002602001604051908101604052809291908181526020018280548015612ad357602002820191906000526020600020905b815481526020019060010190808311612abf575b505050505081525050905060005b816080015151811015612c475781606001518181518110612afe57fe5b602002602001015115612b1057612c3f565b600080600760009054906101000a90046001600160a01b03166001600160a01b0316632a279b28886009600088608001518881518110612b4c57fe5b6020026020010151815260200190815260200160002060010160009054906101000a900460020b6009600089608001518981518110612b8757fe5b6020026020010151815260200190815260200160002060010160039054906101000a900460020b8860a001518881518110612bbe57fe5b60200260200101516040518563ffffffff1660e01b8152600401612be59493929190615cf0565b604080518083038186803b158015612bfc57600080fd5b505afa158015612c10573d6000803e3d6000fd5b505050506040513d601f19601f82011682018060405250810190612c3491906154da565b960195949094019350505b600101612ae1565b506000858152600d60209081526040918290208251808401845281548152600190910154818301528251608081018452600f54815260105492810192909252601154928201929092526012546060820152612ca19161376d565b6000868152600e602090815260409182902082518084018452815481526001909101548183015282516080810184526013548152601454928101929092526015549282019290925260165460608201529490910193612cff9161376d565b82019150509250929050565b6000828152600b60209081526040808320600180820154600d85528386208451808601865281548152920154828601528351608081018552600f54815260105495810195909552601154938501939093526012546060850152909392612d7091613750565b60028401546000878152600e602090815260408083208151808301835281548152600190910154818401528151608081018352601354815260145493810193909352601554918301919091526016546060830152949093019450929091612dd691613750565b60208601519101915015612e6357835115612e2a5760015460025460208601516040870151600093612e16936001600160a01b0391821693911691613a12565b602086015190930392919091019050612e63565b60025460015460208601516040870151600093612e55936001600160a01b0391821693911691613a12565b602086015193019290910390505b600080612e6f87613afd565b91509150600080612e7f89613d38565b915091506000612e8e8a61078b565b600254909150600160a01b900460ff1615612ec45788606001518382870103038701965088608001518285030386019550612ee1565b886060015183860303870196508860800151828286010303860195505b600188018790556002880186905560008a8152600c60209081526040808320805460ff60a81b1916600160a81b179055600d9091529020612f2490600f90614283565b5060008a8152600e60205260409020612f3f90601390614283565b5060008a8152600d60205260409020612f5a90600f90614294565b5060008a8152600e60205260409020612f7590601390614294565b507fa5ffa54c20fe3f85702db9dfbd52388f27504faa97794a1edfe2b2cafeb1a4838a88888c606001518d60800151604051612fb5959493929190615e3b565b60405180910390a150505050505050505050565b600154612fe0906001600160a01b031684846124a1565b600254612ff7906001600160a01b031684836124a1565b505050565b60008061301683670de0b6b3a764000087600301546142b1565b60019485018054820190559490930180549094019093555090919050565b600754600254604051635450527f60e01b8152600092839283926001600160a01b0390921691635450527f9161307a91600160a01b90910460ff16908890600401615901565b60206040518083038186803b15801561309257600080fd5b505afa1580156130a6573d6000803e3d6000fd5b505050506040513d601f19601f820116820180604052508101906130ca91906153af565b90506000806130d98787614360565b915091506000806130ea89896128e9565b6002549193509150600160a01b900460ff161561312e5783670de0b6b3a7640000848702040182670de0b6b3a76400008388025b040196509650505050505061314f565b82670de0b6b3a7640000858702040181670de0b6b3a764000084880261311e565b9250929050565b60008061317083670de0b6b3a764000087600201546142b1565b84548101909455508354909201909255919050565b6000828260405160200161319a929190615968565b60405160208183030381529060405280519060200120905092915050565b60008060006131c6846147b0565b6040805160a0810182528881526001600160801b0388166020820152600081830181905260608201524260808201526003549151630624e65f60e11b8152929350916001600160a01b0390911690630c49ccbe90613228908490600401615a40565b6040805180830381600087803b15801561324157600080fd5b505af1158015613255573d6000803e3d6000fd5b505050506040513d601f19601f8201168201806040525081019061327991906154da565b909450925061328a85858585614861565b5050935093915050565b6000818152600b60209081526040808320815160e081018352815481526001820154818501526002820154818401526003820180548451818702810187019095528085528695929460608601939092919083018282801561333457602002820191906000526020600020906000905b825461010083900a900460ff1615158152602060019283018181049485019490930390920291018084116133035790505b505050505081526020016004820180548060200260200160405190810160405280929190818152602001828054801561338c57602002820191906000526020600020905b815481526020019060010190808311613378575b505050505081526020016005820180548060200260200160405190810160405280929190818152602001828054801561341657602002820191906000526020600020906000905b82829054906101000a90046001600160801b03166001600160801b031681526020019060100190602082600f010492830192600103820291508084116133d35790505b505050505081526020016006820180548060200260200160405190810160405280929190818152602001828054801561346e57602002820191906000526020600020905b81548152602001906001019080831161345a575b505050505081525050905060005b8160800151518110156134f9578160600151818151811061349957fe5b6020026020010151156134ab576134f1565b6134ec826080015182815181106134be57fe5b60200260200101518360a0015183815181106134d657fe5b60200260200101516001600160801b031661497f565b830192505b60010161347c565b5050919050565b60025461105690600160a01b900460ff16613526576002546001600160a01b0316613533565b6001546001600160a01b03165b83836124a1565b600080826135ab57600a8054600181019091556000818152600c60205260409081902080546001600160a01b03191633179055519092507f4111fcee61908834830adf60a520ba26d09f02fa4e00cfe3d2c134e32f3f86969061359e908490615d23565b60405180910390a16135e4565b6000838152600c60205260409020548392506001600160a01b031633146135e45760405162461bcd60e51b81526004016115109061597c565b506000818152600b60205260409020915091565b604080516001600160a01b0385811660248301528481166044830152606480830185905283518084039091018152608490920183526020820180516001600160e01b03166323b872dd60e01b178152925182516000948594938a169392918291908083835b6020831061367c5780518252601f19909201916020918201910161365d565b6001836020036101000a0380198251168184511680821785525050505050509050019150506000604051808303816000865af19150503d80600081146136de576040519150601f19603f3d011682016040523d82523d6000602084013e6136e3565b606091505b5091509150818015613711575080511580613711575080806020019051602081101561370e57600080fd5b50515b613748576040805162461bcd60e51b815260206004820152600360248201526229aa2360e91b604482015290519081900360640190fd5b505050505050565b6000610d9082600001518460400151670de0b6b3a76400006142b1565b6000610d9082602001518460600151670de0b6b3a76400006142b1565b6000818152600960205260409020600681015442116137a95750613945565b6001810154600160301b90046001600160801b0316156138be576006546004805460018401546040516307dff52360e51b815260009462015180946001600160a01b039182169463fbfea46094613816949190931692600281810b936301000000909204900b910161592a565b60206040518083038186803b15801561382e57600080fd5b505afa158015613842573d6000803e3d6000fd5b505050506040513d601f19601f8201168201806040525081019061386691906153af565b83600601544203028161387557fe5b600284018054929091049182019055905061388f836147b0565b6001830154600160301b90046001600160801b03168202816138ad57fe5b600384018054929091049091019055505b6006546004805460018401546040516334a51eed60e01b81526001600160a01b03948516946334a51eed946139089490911692600281810b936301000000909204900b910161592a565b600060405180830381600087803b15801561392257600080fd5b505af1158015613936573d6000803e3d6000fd5b50505050428160060181905550505b50565b600854421161395657613a10565b6006546000906301e13380906001600160a01b03166390d3b379613978614a44565b6040518263ffffffff1660e01b81526004016139949190615d23565b60206040518083038186803b1580156139ac57600080fd5b505afa1580156139c0573d6000803e3d6000fd5b505050506040513d601f19601f820116820180604052508101906139e491906153af565b600854420302816139f157fe5b0490506139ff600f82614a7a565b613a0a601382614a7a565b50426008555b565b60408051610100810182526001600160a01b03808716825285811660208301526101f48284015230606083015242608083015260a0820185905260c08201849052600060e08301819052925163414bf38960e01b81527f00000000000000000000000000000000000000000000000000000000000000009091169063414bf38990613aa1908490600401615a83565b602060405180830381600087803b158015613abb57600080fd5b505af1158015613acf573d6000803e3d6000fd5b505050506040513d601f19601f82011682018060405250810190613af391906153af565b9695505050505050565b6000818152600b602052604081208190815b6004820154811015613be057816003018181548110613b2a57fe5b90600052602060002090602091828204019190069054906101000a900460ff16613b5357613bd8565b6000826004018281548110613b6457fe5b90600052602060002001549050600080613bcc6009600085815260200190815260200160002060000154866005018681548110613b9d57fe5b90600052602060002090600291828204019190066010029054906101000a90046001600160801b0316856131b8565b97019695909501945050505b600101613b0f565b50600080613bed86614aee565b950194939093019250600090505b6004820154811015613d3157816003018181548110613c1657fe5b90600052602060002090602091828204019190069054906101000a900460ff16613c3f57613d29565b6000826004018281548110613c5057fe5b906000526020600020015490506009600082815260200190815260200160002060040154600c60008881526020019081526020016000206002018381548110613c9557fe5b600091825260208083209091019290925582815260098252604080822060050154898352600c9093529020600301805484908110613ccf57fe5b90600052602060002001819055506000836005018381548110613cee57fe5b90600052602060002090600291828204019190066010026101000a8154816001600160801b0302191690836001600160801b03160217905550505b600101613bfb565b5050915091565b6000806000600b60008581526020019081526020016000206040518060e001604052908160008201548152602001600182015481526020016002820154815260200160038201805480602002602001604051908101604052809291908181526020018280548015613de857602002820191906000526020600020906000905b825461010083900a900460ff161515815260206001928301818104948501949093039092029101808411613db75790505b5050505050815260200160048201805480602002602001604051908101604052809291908181526020018280548015613e4057602002820191906000526020600020905b815481526020019060010190808311613e2c575b5050505050815260200160058201805480602002602001604051908101604052809291908181526020018280548015613eca57602002820191906000526020600020906000905b82829054906101000a90046001600160801b03166001600160801b031681526020019060100190602082600f01049283019260010382029150808411613e875790505b5050505050815260200160068201805480602002602001604051908101604052809291908181526020018280548015613f2257602002820191906000526020600020905b815481526020019060010190808311613f0e575b505050919092525050506000858152600d60209081526040918290208251808401845281548152600190910154818301528251608081018452600f54815260105492810192909252601154928201929092526012546060820152919250613f89919061376d565b6000858152600e60209081526040918290208251808401845281548152600190910154818301528251608081018452601354815260145492810192909252601554928201929092526016546060820152919450613fe6919061376d565b91506000613ff261115b565b905060005b82608001515181101561427b578260600151818151811061401457fe5b60200260200101511561402657614273565b60008360800151828151811061403857fe5b60209081029190910181015160075460008281526009909352604083206001015460a0880151805193955084936001600160a01b0390931692632a279b28928992600282810b936301000000909304900b918a90811061409457fe5b60200260200101516040518563ffffffff1660e01b81526004016140bb9493929190615cf0565b604080518083038186803b1580156140d257600080fd5b505afa1580156140e6573d6000803e3d6000fd5b505050506040513d601f19601f8201168201806040525081019061410a91906154da565b915091508560a00151848151811061411e57fe5b60209081029190910181015160008581526009835260408082206001810180546001600160801b03600160301b8083048216979097031690950275ffffffffffffffffffffffffffffffff0000000000001990951694909417909355805160c0810182529254835292820185905281830184905260608201819052608082018190524260a0830152600354925163219f5d1760e01b81529192909182916001600160a01b03169063219f5d17906141d9908690600401615a92565b606060405180830381600087803b1580156141f357600080fd5b505af1158015614207573d6000803e3d6000fd5b505050506040513d601f19601f8201168201806040525081019061422b91906152b6565b9250925050818b019a50808a01995060008960a00151888151811061424c57fe5b60200260200101906001600160801b031690816001600160801b0316815250505050505050505b600101613ff7565b505050915091565b805482540390915560009081905590565b600190810180549290910180549290920390915560009081905590565b60008080600019858709868602925082811090839003039050806142e757600084116142dc57600080fd5b508290049050610d90565b8084116142f357600080fd5b6000848688096000868103871696879004966002600389028118808a02820302808a02820302808a02820302808a02820302808a02820302808a02909103029181900381900460010186841190950394909402919094039290920491909117919091029150509392505050565b6000806000600b60008681526020019081526020016000206040518060e00160405290816000820154815260200160018201548152602001600282015481526020016003820180548060200260200160405190810160405280929190818152602001828054801561441057602002820191906000526020600020906000905b825461010083900a900460ff1615158152602060019283018181049485019490930390920291018084116143df5790505b505050505081526020016004820180548060200260200160405190810160405280929190818152602001828054801561446857602002820191906000526020600020905b815481526020019060010190808311614454575b50505050508152602001600582018054806020026020016040519081016040528092919081815260200182805480156144f257602002820191906000526020600020906000905b82829054906101000a90046001600160801b03166001600160801b031681526020019060100190602082600f010492830192600103820291508084116144af5790505b505050505081526020016006820180548060200260200160405190810160405280929190818152602001828054801561454a57602002820191906000526020600020905b815481526020019060010190808311614536575b505050505081525050905060005b8160800151518110156146bd578160600151818151811061457557fe5b6020026020010151614586576146b5565b600080600760009054906101000a90046001600160a01b03166001600160a01b0316632a279b288860096000886080015188815181106145c257fe5b6020026020010151815260200190815260200160002060010160009054906101000a900460020b60096000896080015189815181106145fd57fe5b6020026020010151815260200190815260200160002060010160039054906101000a900460020b8860a00151888151811061463457fe5b60200260200101516040518563ffffffff1660e01b815260040161465b9493929190615cf0565b604080518083038186803b15801561467257600080fd5b505afa158015614686573d6000803e3d6000fd5b505050506040513d601f19601f820116820180604052508101906146aa91906154da565b960195949094019350505b600101614558565b506000806146ca87614aee565b6000898152600d60209081526040918290208251808401845281548152600190910154818301528251608081018452600f5481526010549281019290925260115492820192909252601254606082015297830197968201969294509092506147329190613750565b6000888152600e60209081526040918290208251808401845281548152600190910154818301528251608081018452601354815260145492810192909252601554928201929092526016546060820152969091019561479091613750565b840193508260200151850194508260400151840193505050509250929050565b60035460008281526009602052604080822054905163133f757160e31b8152919283926001600160a01b03909116916399fbab88916147f29190600401615d23565b6101806040518083038186803b15801561480b57600080fd5b505afa15801561481f573d6000803e3d6000fd5b505050506040513d601f19601f82011682018060405250810190614843919061563b565b50506001600160801b039092169a5050505050505050505050919050565b6040805160808101825260008681526009602090815283822054835230908301526001600160801b038284018190526060830152600354925163fc6f786560e01b81529192909182916001600160a01b03169063fc6f7865906148c89086906004016159fd565b6040805180830381600087803b1580156148e157600080fd5b505af11580156148f5573d6000803e3d6000fd5b505050506040513d601f19601f8201168201806040525081019061491991906154da565b9150915083600160801b878403028161492e57fe5b6000898152600960205260409020600401805492909104909101905583600160801b868303028161495b57fe5b60009889526009602052604090982060050180549190980401909655505050505050565b60065460048054600085815260096020526040808220600101549051631958849360e11b81529194670de0b6b3a7640000946001600160a01b03918216946332b10926946149e3949190931692600282810b936301000000909304900b910161592a565b60206040518083038186803b1580156149fb57600080fd5b505afa158015614a0f573d6000803e3d6000fd5b505050506040513d601f19601f82011682018060405250810190614a3391906153af565b830281614a3c57fe5b049392505050565b600f54600090614a5d5750670de0b6b3a76400006106ec565b600f54601054670de0b6b3a76400000281614a7457fe5b04905090565b8154614a8557611056565b614aa6826003015482670de0b6b3a764000001670de0b6b3a76400006142b1565b600383015560018201548254600091614ac1918491906142b1565b670de0b6b3a7640000019050614ae4836002015482670de0b6b3a76400006142b1565b6002840155505050565b6000806000600b60008581526020019081526020016000206040518060e001604052908160008201548152602001600182015481526020016002820154815260200160038201805480602002602001604051908101604052809291908181526020018280548015614b9e57602002820191906000526020600020906000905b825461010083900a900460ff161515815260206001928301818104948501949093039092029101808411614b6d5790505b5050505050815260200160048201805480602002602001604051908101604052809291908181526020018280548015614bf657602002820191906000526020600020905b815481526020019060010190808311614be2575b5050505050815260200160058201805480602002602001604051908101604052809291908181526020018280548015614c8057602002820191906000526020600020906000905b82829054906101000a90046001600160801b03166001600160801b031681526020019060100190602082600f01049283019260010382029150808411614c3d5790505b5050505050815260200160068201805480602002602001604051908101604052809291908181526020018280548015614cd857602002820191906000526020600020905b815481526020019060010190808311614cc4575b505050505081525050905060005b816080015151811015613d315781606001518181518110614d0357fe5b6020026020010151614d1457614e1c565b600082608001518281518110614d2657fe5b60200260200101519050600160801b8360a001518381518110614d4557fe5b60200260200101516001600160801b0316600c60008981526020019081526020016000206002018481548110614d7757fe5b90600052602060002001546009600085815260200190815260200160002060040154030281614da257fe5b049450600160801b8360a001518381518110614dba57fe5b60200260200101516001600160801b0316600c60008981526020019081526020016000206003018481548110614dec57fe5b90600052602060002001546009600085815260200190815260200160002060050154030281614e1757fe5b049350505b600101614ce6565b60405180610120016040528060008152602001600060020b8152602001600060020b815260200160006001600160801b0316815260200160008152602001600081526020016000815260200160008152602001600081525090565b6040518060a0016040528060008152602001600081526020016000815260200160008152602001606081525090565b60408051608081018252600080825260208201819052918101829052606081019190915290565b805161053e81615ea0565b600082601f830112614ef0578081fd5b81356020614f05614f0083615e82565b615e5e565b82815281810190858301606080860288018501891015614f23578687fd5b865b86811015614f9e5781838b031215614f3b578788fd5b6040805183810181811067ffffffffffffffff82111715614f5857fe5b82528435614f6581615eb5565b815284880135614f7481615eb5565b8189015284820135614f8581615ec3565b9181019190915285529385019391810191600101614f25565b509198975050505050505050565b803561053e81615eb5565b805161053e81615ec3565b600060a08284031215614fd3578081fd5b6040805160a0810167ffffffffffffffff8282108183111715614ff257fe5b818452829450853583526020915081860135828401528386013584840152606086013560608401526080808701358281111561502d57600080fd5b8701601f8101891361503e57600080fd5b803561504c614f0082615e82565b81815285810190838701858402850188018d101561506957600080fd5b60009450845b848110156150ee5786828f031215615085578586fd5b8a518781018181108a8211171561509857fe5b8c5282356150a581615eb5565b8152828a01356150b481615ed2565b818b0152828c01356150c581615ec3565b818d015260608301356150d781615ec3565b60608201528452928801929086019060010161506f565b5050808589015250505050505050505092915050565b805161053e81615ed2565b805161ffff8116811461053e57600080fd5b805162ffffff8116811461053e57600080fd5b600060208284031215615145578081fd5b8135610d9081615ea0565b60006020808385031215615162578182fd5b823567ffffffffffffffff80821115615179578384fd5b8185019150601f868184011261518d578485fd5b823561519b614f0082615e82565b81815285810190858701885b8481101561521957813588018c603f8201126151c1578a8bfd5b898101356040898211156151d157fe5b6151e2828a01601f19168d01615e5e565b8281528f828486010111156151f5578d8efd5b828285018e8301379182018c018d90525085525092880192908801906001016151a7565b50909a9950505050505050505050565b60008060006060848603121561523d578182fd5b833561524881615eb5565b95602085013595506040909401359392505050565b60006020828403121561526e578081fd5b5035919050565b600080600060608486031215615289578081fd5b83359250602084013561529b81615ed2565b915060408401356152ab81615ea0565b809150509250925092565b6000806000606084860312156152ca578081fd5b83516152d581615ed2565b602085015160409095015190969495509392505050565b600080600080600080600060e0888a031215615306578485fd5b875161531181615ea0565b602089015190975061532281615ec3565b95506153306040890161510f565b945061533e6060890161510f565b935061534c6080890161510f565b925060a088015160ff81168114615361578283fd5b60c089015190925061537281615eb5565b8091505092959891949750929550565b60008060408385031215615394578182fd5b825161539f81615ea0565b6020939093015192949293505050565b6000602082840312156153c0578081fd5b5051919050565b600080600080608085870312156153dc578182fd5b8435935060208501356153ee81615eb5565b93969395505050506040820135916060013590565b600080600080600060a0868803121561541a578283fd5b85519450602086015161542c81615eb5565b6040870151606088015160809098015196999198509695945092505050565b60008060008060808587031215615460578182fd5b84359350602085013561547281615ec3565b9250604085013561548281615ec3565b9150606085013561549281615ed2565b939692955090935050565b600080600080608085870312156154b2578182fd5b8451935060208501516154c481615ed2565b6040860151606090960151949790965092505050565b600080604083850312156154ec578182fd5b505080516020909101519092909150565b600080600080600060a08688031215615514578283fd5b8535945060208601359350604086013567ffffffffffffffff80821115615539578485fd5b908701906080828a03121561554c578485fd5b60405160808101818110838211171561556157fe5b604052823582811115615572578687fd5b61557e8b828601614fc2565b825250602083013582811115615592578687fd5b61559e8b828601614ee0565b602083015250604083013560408201526155ba60608401614fac565b606082810191909152979a9699509796870135966080013595945050505050565b6000806000606084860312156155ef578081fd5b505081359360208301359350604090920135919050565b6000806000806080858703121561561b578182fd5b843593506020850135925060408501359150606085013561549281615eb5565b6000806000806000806000806000806000806101808d8f03121561565d578586fd5b8c516bffffffffffffffffffffffff81168114615678578687fd5b9b5061568660208e01614ed5565b9a5061569460408e01614ed5565b99506156a260608e01614ed5565b98506156b060808e01615121565b97506156be60a08e01614fb7565b96506156cc60c08e01614fb7565b95506156da60e08e01615104565b94506101008d015193506101208d015192506156f96101408e01615104565b91506157086101608e01615104565b90509295989b509295989b509295989b565b6001600160a01b03169052565b6000815180845260208085019450808401835b838110156157565781518752958201959082019060010161573a565b509495945050505050565b6000815180845260208085019450808401835b838110156157565781516001600160801b031687529582019590820190600101615774565b15159052565b60020b9052565b80516001600160a01b03908116835260208083015182169084015260408083015162ffffff16908401526060808301518216908401526080808301519084015260a0828101519084015260c0808301519084015260e09182015116910152565b600060a083018251845260208084015181860152604080850151818701526060808601518188015260808087015160a0828a015285815180885260c08b01915086830197508892505b8083101561589b578751805115158352878101516001600160801b03168884015286810151600290810b8885015290860151900b8583015296860196600192909201919083019061584f565b509998505050505050505050565b6001600160801b03169052565b62ffffff169052565b6001600160a01b0391909116815260200190565b6001600160a01b0393909316835290151560208301521515604082015260600190565b901515815260200190565b91151582526001600160a01b0316602082015260400190565b9115158252602082015260400190565b6001600160a01b03939093168352600291820b6020840152900b604082015260600190565b6001600160a01b03929092168252602082015260400190565b600292830b8152910b602082015260400190565b602080825260029082015261140d60f21b604082015260600190565b6020808252601390820152723b30bab63a1034b9903737ba103230b733b2b960691b604082015260600190565b602080825260029082015261503360f01b604082015260600190565b602080825260029082015261281960f11b604082015260600190565b815181526020808301516001600160a01b0316908201526040808301516001600160801b0390811691830191909152606092830151169181019190915260800190565b600060a082019050825182526001600160801b03602084015116602083015260408301516040830152606083015160608301526080830151608083015292915050565b61010081016109f682846157a6565b600060c082019050825182526020830151602083015260408301516040830152606083015160608301526080830151608083015260a083015160a083015292915050565b600061016082019050615aea82845161571a565b6020830151615afc602084018261571a565b506040830151615b0f60408401826158b6565b506060830151615b22606084018261579f565b506080830151615b35608084018261579f565b5060a083015160a083015260c083015160c083015260e083015160e083015261010080840151818401525061012080840151615b738285018261571a565b505061014092830151919092015290565b60006101208201905082518252602083015160020b6020830152604083015160020b60408301526060830151615bbd60608401826158a9565b506080830151608083015260a083015160a083015260c083015160c083015260e083015160e083015261010080840151818401525092915050565b600060208252610d906020830184615806565b600060408252610120820184516040840152602080860151606085015260408601516080850152606086015160e060a08601528281518085526101408701915083830194508592505b80831015615c7657845115158252938301936001929092019190830190615c54565b5060808801519350603f199150818682030160c0870152615c978185615727565b93505060a0870151818685030160e0870152615cb38482615761565b93505060c08701518186850301610100870152615cd08482615727565b94505050848185015250509392505050565b918252602082015260400190565b6001600160a01b03949094168452600292830b6020850152910b60408301526001600160801b0316606082015260800190565b90815260200190565b988952600297880b60208a01529590960b60408801526001600160801b03939093166060870152608086019190915260a085015260c084015260e08301919091526101008201526101200190565b60006040848352602081818501528451608083860152615d9d60c0860182615806565b86830151868203603f19016060888101919091528151808452918501935086929091908501905b80841015615dfc5784518051151583528681015115158784015287015160020b87830152938501936001939093019290820190615dc4565b509488015160808801528088015194615e1860a0890187615799565b9998505050505050505050565b9283526020830191909152604082015260600190565b948552602085019390935260408401919091526060830152608082015260a00190565b60405181810167ffffffffffffffff81118282101715615e7a57fe5b604052919050565b600067ffffffffffffffff821115615e9657fe5b5060209081020190565b6001600160a01b038116811461394557600080fd5b801515811461394557600080fd5b8060020b811461394557600080fd5b6001600160801b038116811461394557600080fdfe4f776e61626c653a206e6577206f776e657220697320746865207a65726f20616464726573734f776e61626c653a2063616c6c6572206973206e6f7420746865206f776e6572a264697066735822122095fd804c6664627ae2574570a3d6caf10529f67857c038e1b9cb62006afc535764736f6c63430007060033",
  "deployedBytecode": "0x608060405234801561001057600080fd5b50600436106102065760003560e01c806365b5f6e31161011a578063aa763556116100ad578063d267899d1161007c578063d267899d14610444578063e7ebf0bd14610457578063e9948e311461046a578063eb02c30114610472578063f2fde38b1461049257610206565b8063aa76355614610403578063bdd3d82514610416578063c83939cf1461041e578063cb68c1221461043157610206565b80638c64ea4a116100e95780638c64ea4a146103be5780638da5cb5b146103d1578063976dc04d146103d957806398d5fdca146103fb57610206565b806365b5f6e314610373578063715018a614610386578063797c98f91461038e57806386e6862d146103b657610206565b806336fae6de1161019d578063517ede9d1161016c578063517ede9d1461031057806354dbbcc11461032557806355585a08146103385780635ce20ffb1461034d578063627af7541461036057610206565b806336fae6de146102a757806346f9697f146102ba57806349b73239146102db57806349ebb77d146102ee57610206565b80630a3cb374116101d95780630a3cb3741461027157806320f3df8e1461028457806326d8d4f914610297578063275892a21461029f57610206565b8063013216f51461020b57806305d719f11461023457806305ecd00314610249578063076d08151461025e575b600080fd5b61021e61021936600461525d565b6104a5565b60405161022b9190615b84565b60405180910390f35b610247610242366004615134565b610543565b005b6102516105c7565b60405161022b9190615d23565b61024761026c36600461525d565b6106ef565b61025161027f36600461525d565b61078b565b6102476102923660046153c7565b6109fc565b610251610b13565b610251610b19565b6102476102b53660046155db565b610b1f565b6102cd6102c8366004615275565b610b73565b60405161022b929190615ce2565b6102516102e9366004615229565b610c26565b6103016102fc36600461525d565b610d97565b60405161022b93929190615e25565b610318610ddb565b60405161022b91906158f6565b610247610333366004615134565b610deb565b610340610e6f565b60405161022b91906158bf565b61024761035b366004615606565b610e7e565b61024761036e3660046153c7565b610eff565b610247610381366004615150565b610f61565b61024761105a565b6103a161039c36600461525d565b611106565b60405161022b99989796959493929190615d2c565b61034061115b565b6103016103cc36600461525d565b6111ef565b610340611210565b6103ec6103e736600461525d565b61121f565b60405161022b939291906158d3565b610251611250565b6102cd61041136600461544b565b6112ed565b6103406114bf565b61024761042c3660046153c7565b6114ce565b61024761043f366004615134565b611583565b6102516104523660046154fd565b611607565b6102cd61046536600461544b565b61185d565b610340611d62565b61048561048036600461525d565b611d71565b60405161022b9190615bf8565b6102476104a0366004615134565b61229c565b6104ad614e24565b50600081815260096020908152604091829020825161012081018452815481526001820154600281810b810b810b9483019490945263010000008104840b840b840b94820194909452600160301b9093046001600160801b03166060840152908101546080830152600381015460a0830152600481015460c0830152600581015460e0830152600601546101008201525b919050565b61054b61249d565b6001600160a01b031661055c611210565b6001600160a01b0316146105a5576040805162461bcd60e51b81526020600482018190526024820152600080516020615f0e833981519152604482015290519081900360640190fd5b600680546001600160a01b0319166001600160a01b0392909216919091179055565b6007546004805460405163269b267f60e01b815260009384936001600160a01b039182169363269b267f936106039390911691603c910161594f565b604080518083038186803b15801561061a57600080fd5b505afa15801561062e573d6000803e3d6000fd5b505050506040513d601f19601f820116820180604052508101906106529190615382565b50600754600254604051635450527f60e01b81526001600160a01b0393841694509190921691635450527f916106989160ff600160a01b9091041690859060040161591a565b60206040518083038186803b1580156106b057600080fd5b505afa1580156106c4573d6000803e3d6000fd5b505050506040513d601f19601f820116820180604052508101906106e891906153af565b9150505b90565b6000818152600c602052604090205481906001600160a01b0316331461071457600080fd5b6000828152600b60209081526040808320600c90925290912054600160a81b900460ff1661074157600080fd5b60018082018054600284018054600093849055929055915461076d906001600160a01b031633846124a1565b600254610784906001600160a01b031633836124a1565b5050505050565b6000818152600b60209081526040808320815160e0810183528154815260018201548185015260028201548184015260038201805484518187028101870190955280855291949293606086019390929083018282801561082a57602002820191906000526020600020906000905b825461010083900a900460ff1615158152602060019283018181049485019490930390920291018084116107f95790505b505050505081526020016004820180548060200260200160405190810160405280929190818152602001828054801561088257602002820191906000526020600020905b81548152602001906001019080831161086e575b505050505081526020016005820180548060200260200160405190810160405280929190818152602001828054801561090c57602002820191906000526020600020906000905b82829054906101000a90046001600160801b03166001600160801b031681526020019060100190602082600f010492830192600103820291508084116108c95790505b505050505081526020016006820180548060200260200160405190810160405280929190818152602001828054801561096457602002820191906000526020600020905b815481526020019060010190808311610950575b5050509190925250506040516316af8d0960e11b815273__$b4a4919001844372a79711112cfb20c2b9$__92632d5f1a1292506109a691600990600401615c0b565b60206040518083038186803b1580156109be57600080fd5b505af41580156109d2573d6000803e3d6000fd5b505050506040513d601f19601f820116820180604052508101906109f691906153af565b92915050565b610a05846125e8565b610a0e8461280d565b610a1757600080fd5b6007546004805460405163269b267f60e01b81526000936001600160a01b039081169363269b267f93610a5093921691603c910161594f565b604080518083038186803b158015610a6757600080fd5b505afa158015610a7b573d6000803e3d6000fd5b505050506040513d601f19601f82011682018060405250810190610a9f9190615382565b509050600080610aaf87846128e9565b9150915060006040518060a00160405280881515815260200187815260200186815260200160648581610ade57fe5b0481526020016064840490529050610af68882612d0b565b610b093382606001518360800151612fc9565b5050505050505050565b600a5481565b60085481565b6005546001600160a01b03163314610b3657600080fd5b6000838152600d60205260409020610b5190600f9084612ffc565b506000838152600e60205260409020610b6d9060139083612ffc565b50505050565b600754600084815260096020526040808220600101549051630544f36560e31b8152919283926001600160a01b0390911691632a279b2891610bcb918791600282810b9263010000009004900b908a90600401615cf0565b604080518083038186803b158015610be257600080fd5b505afa158015610bf6573d6000803e3d6000fd5b505050506040513d601f19601f82011682018060405250810190610c1a91906154da565b91509150935093915050565b6005546000906001600160a01b03163314610c4057600080fd5b600060405180610100016040528086610c64576002546001600160a01b0316610c71565b6001546001600160a01b03165b6001600160a01b0316815260200186610c95576001546001600160a01b0316610ca2565b6002546001600160a01b03165b6001600160a01b031681526020016101f462ffffff168152602001306001600160a01b0316815260200142815260200185815260200184815260200160006001600160a01b031681525090507f00000000000000000000000000000000000000000000000000000000000000006001600160a01b031663db3e2198826040518263ffffffff1660e01b8152600401610d3a9190615a83565b602060405180830381600087803b158015610d5457600080fd5b505af1158015610d68573d6000803e3d6000fd5b505050506040513d601f19601f82011682018060405250810190610d8c91906153af565b9150505b9392505050565b600080600080610da561115b565b9050610db0856125e8565b600080610dbd8784613034565b915091506000610dcc8861078b565b92989197509195509350505050565b600254600160a01b900460ff1681565b610df361249d565b6001600160a01b0316610e04611210565b6001600160a01b031614610e4d576040805162461bcd60e51b81526020600482018190526024820152600080516020615f0e833981519152604482015290519081900360640190fd5b600580546001600160a01b0319166001600160a01b0392909216919091179055565b6005546001600160a01b031681565b6005546001600160a01b03163314610e9557600080fd5b8015610ed8576000848152600d60205260409020610eb690600f9085613156565b506000848152600e60205260409020610ed29060139084613156565b50610b6d565b6000848152600b602052604090206001810180548501905560020180548301905550505050565b6000848152600c602052604090205484906001600160a01b03163314610f2457600080fd5b610f2d856125e8565b610784856040518060a001604052808715158152602001868152602001858152602001600081526020016000815250612d0b565b610f6961249d565b6001600160a01b0316610f7a611210565b6001600160a01b031614610fc3576040805162461bcd60e51b81526020600482018190526024820152600080516020615f0e833981519152604482015290519081900360640190fd5b60005b8151811015611056576000806000806000868681518110610fe357fe5b6020026020010151806020019051810190610ffe9190615403565b94509450945094509450611011856125e8565b611045856040518060a001604052808715158152602001868152602001858152602001600081526020016000815250612d0b565b505060019093019250610fc6915050565b5050565b61106261249d565b6001600160a01b0316611073611210565b6001600160a01b0316146110bc576040805162461bcd60e51b81526020600482018190526024820152600080516020615f0e833981519152604482015290519081900360640190fd5b600080546040516001600160a01b03909116907f8be0079c531659141344cd1fd0a4f28419497f9722a3daafe3b4186f6b6457e0908390a3600080546001600160a01b0319169055565b600960205260009081526040902080546001820154600280840154600385015460048601546005870154600690970154959685850b966301000000870490950b95600160301b90046001600160801b03169489565b6000600460009054906101000a90046001600160a01b03166001600160a01b0316633850c7bd6040518163ffffffff1660e01b815260040160e06040518083038186803b1580156111ab57600080fd5b505afa1580156111bf573d6000803e3d6000fd5b505050506040513d601f19601f820116820180604052508101906111e391906152ec565b50949695505050505050565b600b6020526000908152604090208054600182015460029092015490919083565b6000546001600160a01b031690565b600c602052600090815260409020546001600160a01b0381169060ff600160a01b8204811691600160a81b90041683565b6007546002546000916001600160a01b031690635450527f90600160a01b900460ff1661127b61115b565b6040518363ffffffff1660e01b8152600401611298929190615901565b60206040518083038186803b1580156112b057600080fd5b505afa1580156112c4573d6000803e3d6000fd5b505050506040513d601f19601f820116820180604052508101906112e891906153af565b905090565b60055460009081906001600160a01b0316331461130957600080fd5b60006113158686613185565b6000818152600960205260408120549192509081906113359087856131b8565b91509150856009600085815260200190815260200160002060010160068282829054906101000a90046001600160801b03160192506101000a8154816001600160801b0302191690836001600160801b031602179055506000600b60008b8152602001908152602001600020905080600301600090806001815401808255809150506001900390600052602060002090602091828204019190069091909190916101000a81548160ff02191690831515021790555080600401849080600181540180825580915050600190039060005260206000200160009091909190915055806005018790806001815401808255809150506001900390600052602060002090600291828204019190066010029091909190916101000a8154816001600160801b0302191690836001600160801b0316021790555080600601600960008681526020019081526020016000206002015490806001815401808255809150506001900390600052602060002001600090919091909150558282955095505050505094509492505050565b6004546001600160a01b031681565b6114d7846125e8565b60006114e28561078b565b905060006114ef86613294565b90508082106115195760405162461bcd60e51b815260040161151090615998565b60405180910390fd5b6040805160a0810182528615158152602081018690529081018490526000606082018190526080820152600254606483049190600160a01b900460ff1615611567576060810182905261156f565b608081018290525b6115798882612d0b565b610b093383613500565b61158b61249d565b6001600160a01b031661159c611210565b6001600160a01b0316146115e5576040805162461bcd60e51b81526020600482018190526024820152600080516020615f0e833981519152604482015290519081900360640190fd5b600780546001600160a01b0319166001600160a01b0392909216919091179055565b6000611612866125e8565b600061161d8761353a565b6040516331442a6760e01b8152919350915073__$b4a4919001844372a79711112cfb20c2b9$__906331442a679061165b9084908a90600401615ce2565b60006040518083038186803b15801561167357600080fd5b505af4158015611687573d6000803e3d6000fd5b5050505060608501516000838152600c60205260409020805460ff60a01b1916600160a01b921515830217905560025460ff91900416156116f9576001546116dc906001600160a01b031633308988016135f8565b6002546116f4906001600160a01b03163330866135f8565b61172b565b600154611711906001600160a01b03163330876135f8565b60025461172b906001600160a01b031633308987016135f8565b600554604051630b5e791560e21b815260009182916001600160a01b0390911690632d79e454906117629087908b90600401615d7a565b6040805180830381600087803b15801561177b57600080fd5b505af115801561178f573d6000803e3d6000fd5b505050506040513d601f19601f820116820180604052508101906117b391906154da565b9150915060006117c285613294565b905080846000015410156117e85760405162461bcd60e51b8152600401611510906159e1565b6117f18561280d565b1561180e5760405162461bcd60e51b8152600401611510906159c5565b8287111561182f5760015461182f906001600160a01b031633858a036124a1565b8186111561185057600254611850906001600160a01b0316338489036124a1565b5050505095945050505050565b60055460009081906001600160a01b0316331461187957600080fd5b60006118858686613185565b60075490915060009081906001600160a01b0316632a279b286118a661115b565b8a8a8a6040518563ffffffff1660e01b81526004016118c89493929190615cf0565b604080518083038186803b1580156118df57600080fd5b505afa1580156118f3573d6000803e3d6000fd5b505050506040513d601f19601f8201168201806040525081019061191791906154da565b60008581526009602052604081205492945090925090156119fa576040805160c08101825260008681526009602090815283822054835282018690528183018590526060820181905260808201524260a0820152600354915163219f5d1760e01b815290916001600160a01b03169063219f5d179061199a908490600401615a92565b606060405180830381600087803b1580156119b457600080fd5b505af11580156119c8573d6000803e3d6000fd5b505050506040513d601f19601f820116820180604052508101906119ec91906152b6565b90985096509150611b8e9050565b60408051610160810182526001546001600160a01b03908116825260028054821660208401526101f4838501528c810b60608401528b900b608083015260a0820186905260c08201859052600060e0830181905261010083015230610120830152426101408301526003549251634418b22b60e11b815291921690638831645690611a89908490600401615ad6565b608060405180830381600087803b158015611aa357600080fd5b505af1158015611ab7573d6000803e3d6000fd5b505050506040513d601f19601f82011682018060405250810190611adb919061549d565b600960008a81526020019081526020016000206000016000829b50839c50849750859190505550505050896009600087815260200190815260200160002060010160006101000a81548162ffffff021916908360020b62ffffff160217905550886009600087815260200190815260200160002060010160036101000a81548162ffffff021916908360020b62ffffff160217905550426009600087815260200190815260200160002060060181905550505b6000600b60008c8152602001908152602001600020905080600301600190806001815401808255809150506001900390600052602060002090602091828204019190069091909190916101000a81548160ff02191690831515021790555080600401859080600181540180825580915050600190039060005260206000200160009091909190915055806005018290806001815401808255809150506001900390600052602060002090600291828204019190066010029091909190916101000a8154816001600160801b0302191690836001600160801b031602179055508060060160096000878152602001908152602001600020600201549080600181540180825580915050600190039060005260206000200160009091909190915055600c60008c815260200190815260200160002060020160096000878152602001908152602001600020600401549080600181540180825580915050600190039060005260206000200160009091909190915055600c60008c815260200190815260200160002060030160096000878152602001908152602001600020600501549080600181540180825580915050600190039060005260206000200160009091909190915055505050505094509492505050565b6006546001600160a01b031681565b611d79614e7f565b6000828152600b60209081526040808320815160e08101835281548152600182015481850152600282015481840152600382018054845181870281018701909552808552919492936060860193909290830182828015611e1857602002820191906000526020600020906000905b825461010083900a900460ff161515815260206001928301818104948501949093039092029101808411611de75790505b5050505050815260200160048201805480602002602001604051908101604052809291908181526020018280548015611e7057602002820191906000526020600020905b815481526020019060010190808311611e5c575b5050505050815260200160058201805480602002602001604051908101604052809291908181526020018280548015611efa57602002820191906000526020600020906000905b82829054906101000a90046001600160801b03166001600160801b031681526020019060100190602082600f01049283019260010382029150808411611eb75790505b5050505050815260200160068201805480602002602001604051908101604052809291908181526020018280548015611f5257602002820191906000526020600020905b815481526020019060010190808311611f3e575b5050505050815250509050600081608001515167ffffffffffffffff81118015611f7b57600080fd5b50604051908082528060200260200182016040528015611fb557816020015b611fa2614eae565b815260200190600190039081611f9a5790505b50905060005b82608001515181101561210757600083608001518281518110611fda57fe5b602090810291909101810151600081815260098352604090819020815161012081018352815481526001820154600281810b810b810b9683019690965263010000008104860b860b860b82850152600160301b90046001600160801b031660608083019190915294820154608080830191909152600383015460a0830152600483015460c0830152600583015460e083015260069092015461010082015282519182019092529287015180519294509092918291908690811061209957fe5b6020026020010151151581526020018660a0015185815181106120b857fe5b60200260200101516001600160801b03168152602001826020015160020b8152602001826040015160020b8152508484815181106120f257fe5b60209081029190910101525050600101611fbb565b506040805160a081018083526020808601516000898152600d835285902060e085018652805484526001015460c08501528451608081018652600f548152601054928101929092526011549482019490945260125460608201529192839290916121719190613750565b0181526040808501516000888152600e602090815290839020835180850185528154815260019091015481830152835160808101855260135481526014548184015260155494810194909452601654606085015293019290916121d391613750565b0181526000868152600d60209081526040918290208251808401845281548152600190910154818301528251608081018452600f54815260105481840152601154938101939093526012546060840152920191612230919061376d565b81526000868152600e6020908152604091829020825180840184528154815260019091015481830152825160808101845260135481526014548184015260155493810193909352601654606084015292019161228c919061376d565b8152602001919091529392505050565b6122a461249d565b6001600160a01b03166122b5611210565b6001600160a01b0316146122fe576040805162461bcd60e51b81526020600482018190526024820152600080516020615f0e833981519152604482015290519081900360640190fd5b6001600160a01b0381166123435760405162461bcd60e51b8152600401808060200182810382526026815260200180615ee86026913960400191505060405180910390fd5b600080546040516001600160a01b03808516939216917f8be0079c531659141344cd1fd0a4f28419497f9722a3daafe3b4186f6b6457e091a3600080546001600160a01b0319166001600160a01b0392909216919091179055565b600081602001516001600160a01b031682600001516001600160a01b0316106123c657600080fd5b50805160208083015160409384015184516001600160a01b0394851681850152939091168385015262ffffff166060808401919091528351808403820181526080840185528051908301206001600160f81b031960a085015294901b6bffffffffffffffffffffffff191660a183015260b58201939093527fe34f199b19b2b4f47f68442619d555527d244f78a3297ea89325f843f87b8b5460d5808301919091528251808303909101815260f5909101909152805191012090565b670de0b6b3a764000060028201819055600390910155600090565b3390565b604080516001600160a01b038481166024830152604480830185905283518084039091018152606490920183526020820180516001600160e01b031663a9059cbb60e01b1781529251825160009485949389169392918291908083835b6020831061251d5780518252601f1990920191602091820191016124fe565b6001836020036101000a0380198251168184511680821785525050505050509050019150506000604051808303816000865af19150503d806000811461257f576040519150601f19603f3d011682016040523d82523d6000602084013e612584565b606091505b50915091508180156125b25750805115806125b257508080602001905160208110156125af57600080fd5b50515b610784576040805162461bcd60e51b815260206004820152600260248201526114d560f21b604482015290519081900360640190fd5b6000818152600b60209081526040808320815160e0810183528154815260018201548185015260028201548184015260038201805484518187028101870190955280855291949293606086019390929083018282801561268757602002820191906000526020600020906000905b825461010083900a900460ff1615158152602060019283018181049485019490930390920291018084116126565790505b50505050508152602001600482018054806020026020016040519081016040528092919081815260200182805480156126df57602002820191906000526020600020905b8154815260200190600101908083116126cb575b505050505081526020016005820180548060200260200160405190810160405280929190818152602001828054801561276957602002820191906000526020600020906000905b82829054906101000a90046001600160801b03166001600160801b031681526020019060100190602082600f010492830192600103820291508084116127265790505b50505050508152602001600682018054806020026020016040519081016040528092919081815260200182805480156127c157602002820191906000526020600020905b8154815260200190600101908083116127ad575b505050505081525050905060005b816080015151811015612804576127fc826080015182815181106127ef57fe5b602002602001015161378a565b6001016127cf565b50611056613948565b6000818152600c6020526040812054600160a01b900460ff16156128e1576007546004805460405163269b267f60e01b81526000936001600160a01b039081169363269b267f9361286493921691603c910161594f565b604080518083038186803b15801561287b57600080fd5b505afa15801561288f573d6000803e3d6000fd5b505050506040513d601f19601f820116820180604052508101906128b39190615382565b5090506000806128c38584613034565b9150915080600483600302816128d557fe5b0410935050505061053e565b506000919050565b6000806000600b60008681526020019081526020016000206040518060e00160405290816000820154815260200160018201548152602001600282015481526020016003820180548060200260200160405190810160405280929190818152602001828054801561299957602002820191906000526020600020906000905b825461010083900a900460ff1615158152602060019283018181049485019490930390920291018084116129685790505b50505050508152602001600482018054806020026020016040519081016040528092919081815260200182805480156129f157602002820191906000526020600020905b8154815260200190600101908083116129dd575b5050505050815260200160058201805480602002602001604051908101604052809291908181526020018280548015612a7b57602002820191906000526020600020906000905b82829054906101000a90046001600160801b03166001600160801b031681526020019060100190602082600f01049283019260010382029150808411612a385790505b5050505050815260200160068201805480602002602001604051908101604052809291908181526020018280548015612ad357602002820191906000526020600020905b815481526020019060010190808311612abf575b505050505081525050905060005b816080015151811015612c475781606001518181518110612afe57fe5b602002602001015115612b1057612c3f565b600080600760009054906101000a90046001600160a01b03166001600160a01b0316632a279b28886009600088608001518881518110612b4c57fe5b6020026020010151815260200190815260200160002060010160009054906101000a900460020b6009600089608001518981518110612b8757fe5b6020026020010151815260200190815260200160002060010160039054906101000a900460020b8860a001518881518110612bbe57fe5b60200260200101516040518563ffffffff1660e01b8152600401612be59493929190615cf0565b604080518083038186803b158015612bfc57600080fd5b505afa158015612c10573d6000803e3d6000fd5b505050506040513d601f19601f82011682018060405250810190612c3491906154da565b960195949094019350505b600101612ae1565b506000858152600d60209081526040918290208251808401845281548152600190910154818301528251608081018452600f54815260105492810192909252601154928201929092526012546060820152612ca19161376d565b6000868152600e602090815260409182902082518084018452815481526001909101548183015282516080810184526013548152601454928101929092526015549282019290925260165460608201529490910193612cff9161376d565b82019150509250929050565b6000828152600b60209081526040808320600180820154600d85528386208451808601865281548152920154828601528351608081018552600f54815260105495810195909552601154938501939093526012546060850152909392612d7091613750565b60028401546000878152600e602090815260408083208151808301835281548152600190910154818401528151608081018352601354815260145493810193909352601554918301919091526016546060830152949093019450929091612dd691613750565b60208601519101915015612e6357835115612e2a5760015460025460208601516040870151600093612e16936001600160a01b0391821693911691613a12565b602086015190930392919091019050612e63565b60025460015460208601516040870151600093612e55936001600160a01b0391821693911691613a12565b602086015193019290910390505b600080612e6f87613afd565b91509150600080612e7f89613d38565b915091506000612e8e8a61078b565b600254909150600160a01b900460ff1615612ec45788606001518382870103038701965088608001518285030386019550612ee1565b886060015183860303870196508860800151828286010303860195505b600188018790556002880186905560008a8152600c60209081526040808320805460ff60a81b1916600160a81b179055600d9091529020612f2490600f90614283565b5060008a8152600e60205260409020612f3f90601390614283565b5060008a8152600d60205260409020612f5a90600f90614294565b5060008a8152600e60205260409020612f7590601390614294565b507fa5ffa54c20fe3f85702db9dfbd52388f27504faa97794a1edfe2b2cafeb1a4838a88888c606001518d60800151604051612fb5959493929190615e3b565b60405180910390a150505050505050505050565b600154612fe0906001600160a01b031684846124a1565b600254612ff7906001600160a01b031684836124a1565b505050565b60008061301683670de0b6b3a764000087600301546142b1565b60019485018054820190559490930180549094019093555090919050565b600754600254604051635450527f60e01b8152600092839283926001600160a01b0390921691635450527f9161307a91600160a01b90910460ff16908890600401615901565b60206040518083038186803b15801561309257600080fd5b505afa1580156130a6573d6000803e3d6000fd5b505050506040513d601f19601f820116820180604052508101906130ca91906153af565b90506000806130d98787614360565b915091506000806130ea89896128e9565b6002549193509150600160a01b900460ff161561312e5783670de0b6b3a7640000848702040182670de0b6b3a76400008388025b040196509650505050505061314f565b82670de0b6b3a7640000858702040181670de0b6b3a764000084880261311e565b9250929050565b60008061317083670de0b6b3a764000087600201546142b1565b84548101909455508354909201909255919050565b6000828260405160200161319a929190615968565b60405160208183030381529060405280519060200120905092915050565b60008060006131c6846147b0565b6040805160a0810182528881526001600160801b0388166020820152600081830181905260608201524260808201526003549151630624e65f60e11b8152929350916001600160a01b0390911690630c49ccbe90613228908490600401615a40565b6040805180830381600087803b15801561324157600080fd5b505af1158015613255573d6000803e3d6000fd5b505050506040513d601f19601f8201168201806040525081019061327991906154da565b909450925061328a85858585614861565b5050935093915050565b6000818152600b60209081526040808320815160e081018352815481526001820154818501526002820154818401526003820180548451818702810187019095528085528695929460608601939092919083018282801561333457602002820191906000526020600020906000905b825461010083900a900460ff1615158152602060019283018181049485019490930390920291018084116133035790505b505050505081526020016004820180548060200260200160405190810160405280929190818152602001828054801561338c57602002820191906000526020600020905b815481526020019060010190808311613378575b505050505081526020016005820180548060200260200160405190810160405280929190818152602001828054801561341657602002820191906000526020600020906000905b82829054906101000a90046001600160801b03166001600160801b031681526020019060100190602082600f010492830192600103820291508084116133d35790505b505050505081526020016006820180548060200260200160405190810160405280929190818152602001828054801561346e57602002820191906000526020600020905b81548152602001906001019080831161345a575b505050505081525050905060005b8160800151518110156134f9578160600151818151811061349957fe5b6020026020010151156134ab576134f1565b6134ec826080015182815181106134be57fe5b60200260200101518360a0015183815181106134d657fe5b60200260200101516001600160801b031661497f565b830192505b60010161347c565b5050919050565b60025461105690600160a01b900460ff16613526576002546001600160a01b0316613533565b6001546001600160a01b03165b83836124a1565b600080826135ab57600a8054600181019091556000818152600c60205260409081902080546001600160a01b03191633179055519092507f4111fcee61908834830adf60a520ba26d09f02fa4e00cfe3d2c134e32f3f86969061359e908490615d23565b60405180910390a16135e4565b6000838152600c60205260409020548392506001600160a01b031633146135e45760405162461bcd60e51b81526004016115109061597c565b506000818152600b60205260409020915091565b604080516001600160a01b0385811660248301528481166044830152606480830185905283518084039091018152608490920183526020820180516001600160e01b03166323b872dd60e01b178152925182516000948594938a169392918291908083835b6020831061367c5780518252601f19909201916020918201910161365d565b6001836020036101000a0380198251168184511680821785525050505050509050019150506000604051808303816000865af19150503d80600081146136de576040519150601f19603f3d011682016040523d82523d6000602084013e6136e3565b606091505b5091509150818015613711575080511580613711575080806020019051602081101561370e57600080fd5b50515b613748576040805162461bcd60e51b815260206004820152600360248201526229aa2360e91b604482015290519081900360640190fd5b505050505050565b6000610d9082600001518460400151670de0b6b3a76400006142b1565b6000610d9082602001518460600151670de0b6b3a76400006142b1565b6000818152600960205260409020600681015442116137a95750613945565b6001810154600160301b90046001600160801b0316156138be576006546004805460018401546040516307dff52360e51b815260009462015180946001600160a01b039182169463fbfea46094613816949190931692600281810b936301000000909204900b910161592a565b60206040518083038186803b15801561382e57600080fd5b505afa158015613842573d6000803e3d6000fd5b505050506040513d601f19601f8201168201806040525081019061386691906153af565b83600601544203028161387557fe5b600284018054929091049182019055905061388f836147b0565b6001830154600160301b90046001600160801b03168202816138ad57fe5b600384018054929091049091019055505b6006546004805460018401546040516334a51eed60e01b81526001600160a01b03948516946334a51eed946139089490911692600281810b936301000000909204900b910161592a565b600060405180830381600087803b15801561392257600080fd5b505af1158015613936573d6000803e3d6000fd5b50505050428160060181905550505b50565b600854421161395657613a10565b6006546000906301e13380906001600160a01b03166390d3b379613978614a44565b6040518263ffffffff1660e01b81526004016139949190615d23565b60206040518083038186803b1580156139ac57600080fd5b505afa1580156139c0573d6000803e3d6000fd5b505050506040513d601f19601f820116820180604052508101906139e491906153af565b600854420302816139f157fe5b0490506139ff600f82614a7a565b613a0a601382614a7a565b50426008555b565b60408051610100810182526001600160a01b03808716825285811660208301526101f48284015230606083015242608083015260a0820185905260c08201849052600060e08301819052925163414bf38960e01b81527f00000000000000000000000000000000000000000000000000000000000000009091169063414bf38990613aa1908490600401615a83565b602060405180830381600087803b158015613abb57600080fd5b505af1158015613acf573d6000803e3d6000fd5b505050506040513d601f19601f82011682018060405250810190613af391906153af565b9695505050505050565b6000818152600b602052604081208190815b6004820154811015613be057816003018181548110613b2a57fe5b90600052602060002090602091828204019190069054906101000a900460ff16613b5357613bd8565b6000826004018281548110613b6457fe5b90600052602060002001549050600080613bcc6009600085815260200190815260200160002060000154866005018681548110613b9d57fe5b90600052602060002090600291828204019190066010029054906101000a90046001600160801b0316856131b8565b97019695909501945050505b600101613b0f565b50600080613bed86614aee565b950194939093019250600090505b6004820154811015613d3157816003018181548110613c1657fe5b90600052602060002090602091828204019190069054906101000a900460ff16613c3f57613d29565b6000826004018281548110613c5057fe5b906000526020600020015490506009600082815260200190815260200160002060040154600c60008881526020019081526020016000206002018381548110613c9557fe5b600091825260208083209091019290925582815260098252604080822060050154898352600c9093529020600301805484908110613ccf57fe5b90600052602060002001819055506000836005018381548110613cee57fe5b90600052602060002090600291828204019190066010026101000a8154816001600160801b0302191690836001600160801b03160217905550505b600101613bfb565b5050915091565b6000806000600b60008581526020019081526020016000206040518060e001604052908160008201548152602001600182015481526020016002820154815260200160038201805480602002602001604051908101604052809291908181526020018280548015613de857602002820191906000526020600020906000905b825461010083900a900460ff161515815260206001928301818104948501949093039092029101808411613db75790505b5050505050815260200160048201805480602002602001604051908101604052809291908181526020018280548015613e4057602002820191906000526020600020905b815481526020019060010190808311613e2c575b5050505050815260200160058201805480602002602001604051908101604052809291908181526020018280548015613eca57602002820191906000526020600020906000905b82829054906101000a90046001600160801b03166001600160801b031681526020019060100190602082600f01049283019260010382029150808411613e875790505b5050505050815260200160068201805480602002602001604051908101604052809291908181526020018280548015613f2257602002820191906000526020600020905b815481526020019060010190808311613f0e575b505050919092525050506000858152600d60209081526040918290208251808401845281548152600190910154818301528251608081018452600f54815260105492810192909252601154928201929092526012546060820152919250613f89919061376d565b6000858152600e60209081526040918290208251808401845281548152600190910154818301528251608081018452601354815260145492810192909252601554928201929092526016546060820152919450613fe6919061376d565b91506000613ff261115b565b905060005b82608001515181101561427b578260600151818151811061401457fe5b60200260200101511561402657614273565b60008360800151828151811061403857fe5b60209081029190910181015160075460008281526009909352604083206001015460a0880151805193955084936001600160a01b0390931692632a279b28928992600282810b936301000000909304900b918a90811061409457fe5b60200260200101516040518563ffffffff1660e01b81526004016140bb9493929190615cf0565b604080518083038186803b1580156140d257600080fd5b505afa1580156140e6573d6000803e3d6000fd5b505050506040513d601f19601f8201168201806040525081019061410a91906154da565b915091508560a00151848151811061411e57fe5b60209081029190910181015160008581526009835260408082206001810180546001600160801b03600160301b8083048216979097031690950275ffffffffffffffffffffffffffffffff0000000000001990951694909417909355805160c0810182529254835292820185905281830184905260608201819052608082018190524260a0830152600354925163219f5d1760e01b81529192909182916001600160a01b03169063219f5d17906141d9908690600401615a92565b606060405180830381600087803b1580156141f357600080fd5b505af1158015614207573d6000803e3d6000fd5b505050506040513d601f19601f8201168201806040525081019061422b91906152b6565b9250925050818b019a50808a01995060008960a00151888151811061424c57fe5b60200260200101906001600160801b031690816001600160801b0316815250505050505050505b600101613ff7565b505050915091565b805482540390915560009081905590565b600190810180549290910180549290920390915560009081905590565b60008080600019858709868602925082811090839003039050806142e757600084116142dc57600080fd5b508290049050610d90565b8084116142f357600080fd5b6000848688096000868103871696879004966002600389028118808a02820302808a02820302808a02820302808a02820302808a02820302808a02909103029181900381900460010186841190950394909402919094039290920491909117919091029150509392505050565b6000806000600b60008681526020019081526020016000206040518060e00160405290816000820154815260200160018201548152602001600282015481526020016003820180548060200260200160405190810160405280929190818152602001828054801561441057602002820191906000526020600020906000905b825461010083900a900460ff1615158152602060019283018181049485019490930390920291018084116143df5790505b505050505081526020016004820180548060200260200160405190810160405280929190818152602001828054801561446857602002820191906000526020600020905b815481526020019060010190808311614454575b50505050508152602001600582018054806020026020016040519081016040528092919081815260200182805480156144f257602002820191906000526020600020906000905b82829054906101000a90046001600160801b03166001600160801b031681526020019060100190602082600f010492830192600103820291508084116144af5790505b505050505081526020016006820180548060200260200160405190810160405280929190818152602001828054801561454a57602002820191906000526020600020905b815481526020019060010190808311614536575b505050505081525050905060005b8160800151518110156146bd578160600151818151811061457557fe5b6020026020010151614586576146b5565b600080600760009054906101000a90046001600160a01b03166001600160a01b0316632a279b288860096000886080015188815181106145c257fe5b6020026020010151815260200190815260200160002060010160009054906101000a900460020b60096000896080015189815181106145fd57fe5b6020026020010151815260200190815260200160002060010160039054906101000a900460020b8860a00151888151811061463457fe5b60200260200101516040518563ffffffff1660e01b815260040161465b9493929190615cf0565b604080518083038186803b15801561467257600080fd5b505afa158015614686573d6000803e3d6000fd5b505050506040513d601f19601f820116820180604052508101906146aa91906154da565b960195949094019350505b600101614558565b506000806146ca87614aee565b6000898152600d60209081526040918290208251808401845281548152600190910154818301528251608081018452600f5481526010549281019290925260115492820192909252601254606082015297830197968201969294509092506147329190613750565b6000888152600e60209081526040918290208251808401845281548152600190910154818301528251608081018452601354815260145492810192909252601554928201929092526016546060820152969091019561479091613750565b840193508260200151850194508260400151840193505050509250929050565b60035460008281526009602052604080822054905163133f757160e31b8152919283926001600160a01b03909116916399fbab88916147f29190600401615d23565b6101806040518083038186803b15801561480b57600080fd5b505afa15801561481f573d6000803e3d6000fd5b505050506040513d601f19601f82011682018060405250810190614843919061563b565b50506001600160801b039092169a5050505050505050505050919050565b6040805160808101825260008681526009602090815283822054835230908301526001600160801b038284018190526060830152600354925163fc6f786560e01b81529192909182916001600160a01b03169063fc6f7865906148c89086906004016159fd565b6040805180830381600087803b1580156148e157600080fd5b505af11580156148f5573d6000803e3d6000fd5b505050506040513d601f19601f8201168201806040525081019061491991906154da565b9150915083600160801b878403028161492e57fe5b6000898152600960205260409020600401805492909104909101905583600160801b868303028161495b57fe5b60009889526009602052604090982060050180549190980401909655505050505050565b60065460048054600085815260096020526040808220600101549051631958849360e11b81529194670de0b6b3a7640000946001600160a01b03918216946332b10926946149e3949190931692600282810b936301000000909304900b910161592a565b60206040518083038186803b1580156149fb57600080fd5b505afa158015614a0f573d6000803e3d6000fd5b505050506040513d601f19601f82011682018060405250810190614a3391906153af565b830281614a3c57fe5b049392505050565b600f54600090614a5d5750670de0b6b3a76400006106ec565b600f54601054670de0b6b3a76400000281614a7457fe5b04905090565b8154614a8557611056565b614aa6826003015482670de0b6b3a764000001670de0b6b3a76400006142b1565b600383015560018201548254600091614ac1918491906142b1565b670de0b6b3a7640000019050614ae4836002015482670de0b6b3a76400006142b1565b6002840155505050565b6000806000600b60008581526020019081526020016000206040518060e001604052908160008201548152602001600182015481526020016002820154815260200160038201805480602002602001604051908101604052809291908181526020018280548015614b9e57602002820191906000526020600020906000905b825461010083900a900460ff161515815260206001928301818104948501949093039092029101808411614b6d5790505b5050505050815260200160048201805480602002602001604051908101604052809291908181526020018280548015614bf657602002820191906000526020600020905b815481526020019060010190808311614be2575b5050505050815260200160058201805480602002602001604051908101604052809291908181526020018280548015614c8057602002820191906000526020600020906000905b82829054906101000a90046001600160801b03166001600160801b031681526020019060100190602082600f01049283019260010382029150808411614c3d5790505b5050505050815260200160068201805480602002602001604051908101604052809291908181526020018280548015614cd857602002820191906000526020600020905b815481526020019060010190808311614cc4575b505050505081525050905060005b816080015151811015613d315781606001518181518110614d0357fe5b6020026020010151614d1457614e1c565b600082608001518281518110614d2657fe5b60200260200101519050600160801b8360a001518381518110614d4557fe5b60200260200101516001600160801b0316600c60008981526020019081526020016000206002018481548110614d7757fe5b90600052602060002001546009600085815260200190815260200160002060040154030281614da257fe5b049450600160801b8360a001518381518110614dba57fe5b60200260200101516001600160801b0316600c60008981526020019081526020016000206003018481548110614dec57fe5b90600052602060002001546009600085815260200190815260200160002060050154030281614e1757fe5b049350505b600101614ce6565b60405180610120016040528060008152602001600060020b8152602001600060020b815260200160006001600160801b0316815260200160008152602001600081526020016000815260200160008152602001600081525090565b6040518060a0016040528060008152602001600081526020016000815260200160008152602001606081525090565b60408051608081018252600080825260208201819052918101829052606081019190915290565b805161053e81615ea0565b600082601f830112614ef0578081fd5b81356020614f05614f0083615e82565b615e5e565b82815281810190858301606080860288018501891015614f23578687fd5b865b86811015614f9e5781838b031215614f3b578788fd5b6040805183810181811067ffffffffffffffff82111715614f5857fe5b82528435614f6581615eb5565b815284880135614f7481615eb5565b8189015284820135614f8581615ec3565b9181019190915285529385019391810191600101614f25565b509198975050505050505050565b803561053e81615eb5565b805161053e81615ec3565b600060a08284031215614fd3578081fd5b6040805160a0810167ffffffffffffffff8282108183111715614ff257fe5b818452829450853583526020915081860135828401528386013584840152606086013560608401526080808701358281111561502d57600080fd5b8701601f8101891361503e57600080fd5b803561504c614f0082615e82565b81815285810190838701858402850188018d101561506957600080fd5b60009450845b848110156150ee5786828f031215615085578586fd5b8a518781018181108a8211171561509857fe5b8c5282356150a581615eb5565b8152828a01356150b481615ed2565b818b0152828c01356150c581615ec3565b818d015260608301356150d781615ec3565b60608201528452928801929086019060010161506f565b5050808589015250505050505050505092915050565b805161053e81615ed2565b805161ffff8116811461053e57600080fd5b805162ffffff8116811461053e57600080fd5b600060208284031215615145578081fd5b8135610d9081615ea0565b60006020808385031215615162578182fd5b823567ffffffffffffffff80821115615179578384fd5b8185019150601f868184011261518d578485fd5b823561519b614f0082615e82565b81815285810190858701885b8481101561521957813588018c603f8201126151c1578a8bfd5b898101356040898211156151d157fe5b6151e2828a01601f19168d01615e5e565b8281528f828486010111156151f5578d8efd5b828285018e8301379182018c018d90525085525092880192908801906001016151a7565b50909a9950505050505050505050565b60008060006060848603121561523d578182fd5b833561524881615eb5565b95602085013595506040909401359392505050565b60006020828403121561526e578081fd5b5035919050565b600080600060608486031215615289578081fd5b83359250602084013561529b81615ed2565b915060408401356152ab81615ea0565b809150509250925092565b6000806000606084860312156152ca578081fd5b83516152d581615ed2565b602085015160409095015190969495509392505050565b600080600080600080600060e0888a031215615306578485fd5b875161531181615ea0565b602089015190975061532281615ec3565b95506153306040890161510f565b945061533e6060890161510f565b935061534c6080890161510f565b925060a088015160ff81168114615361578283fd5b60c089015190925061537281615eb5565b8091505092959891949750929550565b60008060408385031215615394578182fd5b825161539f81615ea0565b6020939093015192949293505050565b6000602082840312156153c0578081fd5b5051919050565b600080600080608085870312156153dc578182fd5b8435935060208501356153ee81615eb5565b93969395505050506040820135916060013590565b600080600080600060a0868803121561541a578283fd5b85519450602086015161542c81615eb5565b6040870151606088015160809098015196999198509695945092505050565b60008060008060808587031215615460578182fd5b84359350602085013561547281615ec3565b9250604085013561548281615ec3565b9150606085013561549281615ed2565b939692955090935050565b600080600080608085870312156154b2578182fd5b8451935060208501516154c481615ed2565b6040860151606090960151949790965092505050565b600080604083850312156154ec578182fd5b505080516020909101519092909150565b600080600080600060a08688031215615514578283fd5b8535945060208601359350604086013567ffffffffffffffff80821115615539578485fd5b908701906080828a03121561554c578485fd5b60405160808101818110838211171561556157fe5b604052823582811115615572578687fd5b61557e8b828601614fc2565b825250602083013582811115615592578687fd5b61559e8b828601614ee0565b602083015250604083013560408201526155ba60608401614fac565b606082810191909152979a9699509796870135966080013595945050505050565b6000806000606084860312156155ef578081fd5b505081359360208301359350604090920135919050565b6000806000806080858703121561561b578182fd5b843593506020850135925060408501359150606085013561549281615eb5565b6000806000806000806000806000806000806101808d8f03121561565d578586fd5b8c516bffffffffffffffffffffffff81168114615678578687fd5b9b5061568660208e01614ed5565b9a5061569460408e01614ed5565b99506156a260608e01614ed5565b98506156b060808e01615121565b97506156be60a08e01614fb7565b96506156cc60c08e01614fb7565b95506156da60e08e01615104565b94506101008d015193506101208d015192506156f96101408e01615104565b91506157086101608e01615104565b90509295989b509295989b509295989b565b6001600160a01b03169052565b6000815180845260208085019450808401835b838110156157565781518752958201959082019060010161573a565b509495945050505050565b6000815180845260208085019450808401835b838110156157565781516001600160801b031687529582019590820190600101615774565b15159052565b60020b9052565b80516001600160a01b03908116835260208083015182169084015260408083015162ffffff16908401526060808301518216908401526080808301519084015260a0828101519084015260c0808301519084015260e09182015116910152565b600060a083018251845260208084015181860152604080850151818701526060808601518188015260808087015160a0828a015285815180885260c08b01915086830197508892505b8083101561589b578751805115158352878101516001600160801b03168884015286810151600290810b8885015290860151900b8583015296860196600192909201919083019061584f565b509998505050505050505050565b6001600160801b03169052565b62ffffff169052565b6001600160a01b0391909116815260200190565b6001600160a01b0393909316835290151560208301521515604082015260600190565b901515815260200190565b91151582526001600160a01b0316602082015260400190565b9115158252602082015260400190565b6001600160a01b03939093168352600291820b6020840152900b604082015260600190565b6001600160a01b03929092168252602082015260400190565b600292830b8152910b602082015260400190565b602080825260029082015261140d60f21b604082015260600190565b6020808252601390820152723b30bab63a1034b9903737ba103230b733b2b960691b604082015260600190565b602080825260029082015261503360f01b604082015260600190565b602080825260029082015261281960f11b604082015260600190565b815181526020808301516001600160a01b0316908201526040808301516001600160801b0390811691830191909152606092830151169181019190915260800190565b600060a082019050825182526001600160801b03602084015116602083015260408301516040830152606083015160608301526080830151608083015292915050565b61010081016109f682846157a6565b600060c082019050825182526020830151602083015260408301516040830152606083015160608301526080830151608083015260a083015160a083015292915050565b600061016082019050615aea82845161571a565b6020830151615afc602084018261571a565b506040830151615b0f60408401826158b6565b506060830151615b22606084018261579f565b506080830151615b35608084018261579f565b5060a083015160a083015260c083015160c083015260e083015160e083015261010080840151818401525061012080840151615b738285018261571a565b505061014092830151919092015290565b60006101208201905082518252602083015160020b6020830152604083015160020b60408301526060830151615bbd60608401826158a9565b506080830151608083015260a083015160a083015260c083015160c083015260e083015160e083015261010080840151818401525092915050565b600060208252610d906020830184615806565b600060408252610120820184516040840152602080860151606085015260408601516080850152606086015160e060a08601528281518085526101408701915083830194508592505b80831015615c7657845115158252938301936001929092019190830190615c54565b5060808801519350603f199150818682030160c0870152615c978185615727565b93505060a0870151818685030160e0870152615cb38482615761565b93505060c08701518186850301610100870152615cd08482615727565b94505050848185015250509392505050565b918252602082015260400190565b6001600160a01b03949094168452600292830b6020850152910b60408301526001600160801b0316606082015260800190565b90815260200190565b988952600297880b60208a01529590960b60408801526001600160801b03939093166060870152608086019190915260a085015260c084015260e08301919091526101008201526101200190565b60006040848352602081818501528451608083860152615d9d60c0860182615806565b86830151868203603f19016060888101919091528151808452918501935086929091908501905b80841015615dfc5784518051151583528681015115158784015287015160020b87830152938501936001939093019290820190615dc4565b509488015160808801528088015194615e1860a0890187615799565b9998505050505050505050565b9283526020830191909152604082015260600190565b948552602085019390935260408401919091526060830152608082015260a00190565b60405181810167ffffffffffffffff81118282101715615e7a57fe5b604052919050565b600067ffffffffffffffff821115615e9657fe5b5060209081020190565b6001600160a01b038116811461394557600080fd5b801515811461394557600080fd5b8060020b811461394557600080fd5b6001600160801b038116811461394557600080fdfe4f776e61626c653a206e6577206f776e657220697320746865207a65726f20616464726573734f776e61626c653a2063616c6c6572206973206e6f7420746865206f776e6572a264697066735822122095fd804c6664627ae2574570a3d6caf10529f67857c038e1b9cb62006afc535764736f6c63430007060033",
  "libraries": {
    "VaultLib": "0xEdf46B7feE9b18d6FABF9bA89Fe71A31166CF014"
  },
  "devdoc": {
    "kind": "dev",
    "methods": {
      "borrowLPT(uint256,int24,int24,uint128)": {
        "details": "The function can be called from Product contracts."
      },
      "borrowTokens(uint256,uint256,uint256)": {
        "details": "The function can be called from Product contracts."
      },
      "depositLPT(uint256,int24,int24,uint128)": {
        "details": "The function can be called from Product contracts."
      },
      "depositTokens(uint256,uint256,uint256,bool)": {
        "details": "The function can be called from Product contracts."
      },
      "owner()": {
        "details": "Returns the address of the current owner."
      },
      "renounceOwnership()": {
        "details": "Leaves the contract without owner. It will not be possible to call `onlyOwner` functions anymore. Can only be called by the current owner. NOTE: Renouncing ownership will leave the contract without an owner, thereby removing any functionality that is only available to the owner."
      },
      "transferOwnership(address)": {
        "details": "Transfers ownership of the contract to a new account (`newOwner`). Can only be called by the current owner."
      }
    },
    "version": 1
  },
  "userdoc": {
    "kind": "user",
    "methods": {
      "borrowLPT(uint256,int24,int24,uint128)": {
        "notice": "Borrows Liquidity Provider Token."
      },
      "borrowTokens(uint256,uint256,uint256)": {
        "notice": "Borrows tokens."
      },
      "closePositionsInVault(uint256,bool,uint256,uint256)": {
        "notice": "Closes position in the vault."
      },
      "depositLPT(uint256,int24,int24,uint128)": {
        "notice": "Deposits Liquidity Provider Token."
      },
      "depositTokens(uint256,uint256,uint256,bool)": {
        "notice": "Deposits tokens."
      },
      "getPrice()": {
        "notice": "Gets current price of underlying token by margin token."
      },
      "getTWAP()": {
        "notice": "Gets Time Weighted Average Price of underlying token by margin token."
      },
      "liquidate(uint256,bool,uint256,uint256)": {
        "notice": "Liquidates if margin value is less than min collateral"
      },
      "liquidate3(uint256,bool,uint256,uint256)": {
        "notice": "Liquidates if 75% of collateral value is less than debt value."
      },
      "openPosition(uint256,uint256,((uint256,uint256,uint256,uint256,(bool,uint128,int24,int24)[]),(bool,bool,int24)[],uint256,bool),uint256,uint256)": {
        "notice": "Opens new position."
      },
      "withdrawFromVault(uint256)": {
        "notice": "Withdraws asset from the vault."
      }
    },
    "version": 1
  },
  "storageLayout": {
    "storage": [
      {
        "astId": 21151,
        "contract": "src/PredyV3Pool.sol:PredyV3Pool",
        "label": "_owner",
        "offset": 0,
        "slot": "0",
        "type": "t_address"
      },
      {
        "astId": 25766,
        "contract": "src/PredyV3Pool.sol:PredyV3Pool",
        "label": "token0",
        "offset": 0,
        "slot": "1",
        "type": "t_address"
      },
      {
        "astId": 25768,
        "contract": "src/PredyV3Pool.sol:PredyV3Pool",
        "label": "token1",
        "offset": 0,
        "slot": "2",
        "type": "t_address"
      },
      {
        "astId": 25771,
        "contract": "src/PredyV3Pool.sol:PredyV3Pool",
        "label": "isMarginZero",
        "offset": 20,
        "slot": "2",
        "type": "t_bool"
      },
      {
        "astId": 25773,
        "contract": "src/PredyV3Pool.sol:PredyV3Pool",
        "label": "positionManager",
        "offset": 0,
        "slot": "3",
        "type": "t_contract(INonfungiblePositionManager)24565"
      },
      {
        "astId": 25775,
        "contract": "src/PredyV3Pool.sol:PredyV3Pool",
        "label": "uniswapPool",
        "offset": 0,
        "slot": "4",
        "type": "t_contract(IUniswapV3Pool)22496"
      },
      {
        "astId": 25779,
        "contract": "src/PredyV3Pool.sol:PredyV3Pool",
        "label": "productVerifier",
        "offset": 0,
        "slot": "5",
        "type": "t_contract(IProductVerifier)29926"
      },
      {
        "astId": 25781,
        "contract": "src/PredyV3Pool.sol:PredyV3Pool",
        "label": "pricingModule",
        "offset": 0,
        "slot": "6",
        "type": "t_contract(IPricingModule)29883"
      },
      {
        "astId": 25783,
        "contract": "src/PredyV3Pool.sol:PredyV3Pool",
        "label": "lptMathModule",
        "offset": 0,
        "slot": "7",
        "type": "t_contract(LPTMathModule)25701"
      },
      {
        "astId": 25785,
        "contract": "src/PredyV3Pool.sol:PredyV3Pool",
        "label": "lastTouchedTimestamp",
        "offset": 0,
        "slot": "8",
        "type": "t_uint256"
      },
      {
        "astId": 25789,
        "contract": "src/PredyV3Pool.sol:PredyV3Pool",
        "label": "ranges",
        "offset": 0,
        "slot": "9",
        "type": "t_mapping(t_bytes32,t_struct(PerpStatus)31615_storage)"
      },
      {
        "astId": 25791,
        "contract": "src/PredyV3Pool.sol:PredyV3Pool",
        "label": "vaultIdCount",
        "offset": 0,
        "slot": "10",
        "type": "t_uint256"
      },
      {
        "astId": 25795,
        "contract": "src/PredyV3Pool.sol:PredyV3Pool",
        "label": "vaults",
        "offset": 0,
        "slot": "11",
        "type": "t_mapping(t_uint256,t_struct(Vault)31634_storage)"
      },
      {
        "astId": 25799,
        "contract": "src/PredyV3Pool.sol:PredyV3Pool",
        "label": "extraVaultParams",
        "offset": 0,
        "slot": "12",
        "type": "t_mapping(t_uint256,t_struct(ExtraVaultParam)25753_storage)"
      },
      {
        "astId": 25803,
        "contract": "src/PredyV3Pool.sol:PredyV3Pool",
        "label": "accountState0",
        "offset": 0,
        "slot": "13",
        "type": "t_mapping(t_uint256,t_struct(AccountState)29943_storage)"
      },
      {
        "astId": 25807,
        "contract": "src/PredyV3Pool.sol:PredyV3Pool",
        "label": "accountState1",
        "offset": 0,
        "slot": "14",
        "type": "t_mapping(t_uint256,t_struct(AccountState)29943_storage)"
      },
      {
        "astId": 25809,
        "contract": "src/PredyV3Pool.sol:PredyV3Pool",
        "label": "tokenState0",
        "offset": 0,
        "slot": "15",
        "type": "t_struct(TokenState)29938_storage"
      },
      {
        "astId": 25811,
        "contract": "src/PredyV3Pool.sol:PredyV3Pool",
        "label": "tokenState1",
        "offset": 0,
        "slot": "19",
        "type": "t_struct(TokenState)29938_storage"
      }
    ],
    "types": {
      "t_address": {
        "encoding": "inplace",
        "label": "address",
        "numberOfBytes": "20"
      },
      "t_array(t_bool)dyn_storage": {
        "base": "t_bool",
        "encoding": "dynamic_array",
        "label": "bool[]",
        "numberOfBytes": "32"
      },
      "t_array(t_bytes32)dyn_storage": {
        "base": "t_bytes32",
        "encoding": "dynamic_array",
        "label": "bytes32[]",
        "numberOfBytes": "32"
      },
      "t_array(t_enum(InstantDebtType)29727)dyn_storage": {
        "base": "t_enum(InstantDebtType)29727",
        "encoding": "dynamic_array",
        "label": "enum IPredyV3Pool.InstantDebtType[]",
        "numberOfBytes": "32"
      },
      "t_array(t_uint128)dyn_storage": {
        "base": "t_uint128",
        "encoding": "dynamic_array",
        "label": "uint128[]",
        "numberOfBytes": "32"
      },
      "t_array(t_uint256)dyn_storage": {
        "base": "t_uint256",
        "encoding": "dynamic_array",
        "label": "uint256[]",
        "numberOfBytes": "32"
      },
      "t_bool": {
        "encoding": "inplace",
        "label": "bool",
        "numberOfBytes": "1"
      },
      "t_bytes32": {
        "encoding": "inplace",
        "label": "bytes32",
        "numberOfBytes": "32"
      },
      "t_contract(INonfungiblePositionManager)24565": {
        "encoding": "inplace",
        "label": "contract INonfungiblePositionManager",
        "numberOfBytes": "20"
      },
      "t_contract(IPricingModule)29883": {
        "encoding": "inplace",
        "label": "contract IPricingModule",
        "numberOfBytes": "20"
      },
      "t_contract(IProductVerifier)29926": {
        "encoding": "inplace",
        "label": "contract IProductVerifier",
        "numberOfBytes": "20"
      },
      "t_contract(IUniswapV3Pool)22496": {
        "encoding": "inplace",
        "label": "contract IUniswapV3Pool",
        "numberOfBytes": "20"
      },
      "t_contract(LPTMathModule)25701": {
        "encoding": "inplace",
        "label": "contract LPTMathModule",
        "numberOfBytes": "20"
      },
      "t_enum(InstantDebtType)29727": {
        "encoding": "inplace",
        "label": "enum IPredyV3Pool.InstantDebtType",
        "numberOfBytes": "1"
      },
      "t_int24": {
        "encoding": "inplace",
        "label": "int24",
        "numberOfBytes": "3"
      },
      "t_mapping(t_bytes32,t_struct(PerpStatus)31615_storage)": {
        "encoding": "mapping",
        "key": "t_bytes32",
        "label": "mapping(bytes32 => struct VaultLib.PerpStatus)",
        "numberOfBytes": "32",
        "value": "t_struct(PerpStatus)31615_storage"
      },
      "t_mapping(t_uint256,t_struct(AccountState)29943_storage)": {
        "encoding": "mapping",
        "key": "t_uint256",
        "label": "mapping(uint256 => struct BaseToken.AccountState)",
        "numberOfBytes": "32",
        "value": "t_struct(AccountState)29943_storage"
      },
      "t_mapping(t_uint256,t_struct(ExtraVaultParam)25753_storage)": {
        "encoding": "mapping",
        "key": "t_uint256",
        "label": "mapping(uint256 => struct PredyV3Pool.ExtraVaultParam)",
        "numberOfBytes": "32",
        "value": "t_struct(ExtraVaultParam)25753_storage"
      },
      "t_mapping(t_uint256,t_struct(Vault)31634_storage)": {
        "encoding": "mapping",
        "key": "t_uint256",
        "label": "mapping(uint256 => struct VaultLib.Vault)",
        "numberOfBytes": "32",
        "value": "t_struct(Vault)31634_storage"
      },
      "t_struct(AccountState)29943_storage": {
        "encoding": "inplace",
        "label": "struct BaseToken.AccountState",
        "members": [
          {
            "astId": 29940,
            "contract": "src/PredyV3Pool.sol:PredyV3Pool",
            "label": "collateralAmount",
            "offset": 0,
            "slot": "0",
            "type": "t_uint256"
          },
          {
            "astId": 29942,
            "contract": "src/PredyV3Pool.sol:PredyV3Pool",
            "label": "debtAmount",
            "offset": 0,
            "slot": "1",
            "type": "t_uint256"
          }
        ],
        "numberOfBytes": "64"
      },
      "t_struct(ExtraVaultParam)25753_storage": {
        "encoding": "inplace",
        "label": "struct PredyV3Pool.ExtraVaultParam",
        "members": [
          {
            "astId": 25739,
            "contract": "src/PredyV3Pool.sol:PredyV3Pool",
            "label": "owner",
            "offset": 0,
            "slot": "0",
            "type": "t_address"
          },
          {
            "astId": 25741,
            "contract": "src/PredyV3Pool.sol:PredyV3Pool",
            "label": "isLiquidationRequired",
            "offset": 20,
            "slot": "0",
            "type": "t_bool"
          },
          {
            "astId": 25743,
            "contract": "src/PredyV3Pool.sol:PredyV3Pool",
            "label": "isClosed",
            "offset": 21,
            "slot": "0",
            "type": "t_bool"
          },
          {
            "astId": 25746,
            "contract": "src/PredyV3Pool.sol:PredyV3Pool",
            "label": "debtInstant",
            "offset": 0,
            "slot": "1",
            "type": "t_array(t_enum(InstantDebtType)29727)dyn_storage"
          },
          {
            "astId": 25749,
            "contract": "src/PredyV3Pool.sol:PredyV3Pool",
            "label": "fee0Last",
            "offset": 0,
            "slot": "2",
            "type": "t_array(t_uint256)dyn_storage"
          },
          {
            "astId": 25752,
            "contract": "src/PredyV3Pool.sol:PredyV3Pool",
            "label": "fee1Last",
            "offset": 0,
            "slot": "3",
            "type": "t_array(t_uint256)dyn_storage"
          }
        ],
        "numberOfBytes": "128"
      },
      "t_struct(PerpStatus)31615_storage": {
        "encoding": "inplace",
        "label": "struct VaultLib.PerpStatus",
        "members": [
          {
            "astId": 31598,
            "contract": "src/PredyV3Pool.sol:PredyV3Pool",
            "label": "tokenId",
            "offset": 0,
            "slot": "0",
            "type": "t_uint256"
          },
          {
            "astId": 31600,
            "contract": "src/PredyV3Pool.sol:PredyV3Pool",
            "label": "lower",
            "offset": 0,
            "slot": "1",
            "type": "t_int24"
          },
          {
            "astId": 31602,
            "contract": "src/PredyV3Pool.sol:PredyV3Pool",
            "label": "upper",
            "offset": 3,
            "slot": "1",
            "type": "t_int24"
          },
          {
            "astId": 31604,
            "contract": "src/PredyV3Pool.sol:PredyV3Pool",
            "label": "borrowedLiquidity",
            "offset": 6,
            "slot": "1",
            "type": "t_uint128"
          },
          {
            "astId": 31606,
            "contract": "src/PredyV3Pool.sol:PredyV3Pool",
            "label": "cumulativeFee",
            "offset": 0,
            "slot": "2",
            "type": "t_uint256"
          },
          {
            "astId": 31608,
            "contract": "src/PredyV3Pool.sol:PredyV3Pool",
            "label": "cumulativeFeeForLP",
            "offset": 0,
            "slot": "3",
            "type": "t_uint256"
          },
          {
            "astId": 31610,
            "contract": "src/PredyV3Pool.sol:PredyV3Pool",
            "label": "cumFee0",
            "offset": 0,
            "slot": "4",
            "type": "t_uint256"
          },
          {
            "astId": 31612,
            "contract": "src/PredyV3Pool.sol:PredyV3Pool",
            "label": "cumFee1",
            "offset": 0,
            "slot": "5",
            "type": "t_uint256"
          },
          {
            "astId": 31614,
            "contract": "src/PredyV3Pool.sol:PredyV3Pool",
            "label": "lastTouchedTimestamp",
            "offset": 0,
            "slot": "6",
            "type": "t_uint256"
          }
        ],
        "numberOfBytes": "224"
      },
      "t_struct(TokenState)29938_storage": {
        "encoding": "inplace",
        "label": "struct BaseToken.TokenState",
        "members": [
          {
            "astId": 29931,
            "contract": "src/PredyV3Pool.sol:PredyV3Pool",
            "label": "totalDeposited",
            "offset": 0,
            "slot": "0",
            "type": "t_uint256"
          },
          {
            "astId": 29933,
            "contract": "src/PredyV3Pool.sol:PredyV3Pool",
            "label": "totalBorrowed",
            "offset": 0,
            "slot": "1",
            "type": "t_uint256"
          },
          {
            "astId": 29935,
            "contract": "src/PredyV3Pool.sol:PredyV3Pool",
            "label": "collateralScaler",
            "offset": 0,
            "slot": "2",
            "type": "t_uint256"
          },
          {
            "astId": 29937,
            "contract": "src/PredyV3Pool.sol:PredyV3Pool",
            "label": "debtScaler",
            "offset": 0,
            "slot": "3",
            "type": "t_uint256"
          }
        ],
        "numberOfBytes": "128"
      },
      "t_struct(Vault)31634_storage": {
        "encoding": "inplace",
        "label": "struct VaultLib.Vault",
        "members": [
          {
            "astId": 31617,
            "contract": "src/PredyV3Pool.sol:PredyV3Pool",
            "label": "margin",
            "offset": 0,
            "slot": "0",
            "type": "t_uint256"
          },
          {
            "astId": 31619,
            "contract": "src/PredyV3Pool.sol:PredyV3Pool",
            "label": "collateralAmount0",
            "offset": 0,
            "slot": "1",
            "type": "t_uint256"
          },
          {
            "astId": 31621,
            "contract": "src/PredyV3Pool.sol:PredyV3Pool",
            "label": "collateralAmount1",
            "offset": 0,
            "slot": "2",
            "type": "t_uint256"
          },
          {
            "astId": 31624,
            "contract": "src/PredyV3Pool.sol:PredyV3Pool",
            "label": "isCollateral",
            "offset": 0,
            "slot": "3",
            "type": "t_array(t_bool)dyn_storage"
          },
          {
            "astId": 31627,
            "contract": "src/PredyV3Pool.sol:PredyV3Pool",
            "label": "lptIndex",
            "offset": 0,
            "slot": "4",
            "type": "t_array(t_bytes32)dyn_storage"
          },
          {
            "astId": 31630,
            "contract": "src/PredyV3Pool.sol:PredyV3Pool",
            "label": "lptLiquidity",
            "offset": 0,
            "slot": "5",
            "type": "t_array(t_uint128)dyn_storage"
          },
          {
            "astId": 31633,
            "contract": "src/PredyV3Pool.sol:PredyV3Pool",
            "label": "lptFeeGrowth",
            "offset": 0,
            "slot": "6",
            "type": "t_array(t_uint256)dyn_storage"
          }
        ],
        "numberOfBytes": "224"
      },
      "t_uint128": {
        "encoding": "inplace",
        "label": "uint128",
        "numberOfBytes": "16"
      },
      "t_uint256": {
        "encoding": "inplace",
        "label": "uint256",
        "numberOfBytes": "32"
      }
    }
  }
}