{
  "address": "0x8c84e2F799107c66A1f6288E89eB98507AD9Fc61",
  "abi": [
    {
      "inputs": [
        {
          "internalType": "address",
          "name": "_token0",
          "type": "address"
        },
        {
          "internalType": "address",
          "name": "_token1",
          "type": "address"
        },
        {
          "internalType": "bool",
          "name": "_isMarginZero",
          "type": "bool"
        },
        {
          "internalType": "address",
          "name": "_positionManager",
          "type": "address"
        },
        {
          "internalType": "address",
          "name": "_factory",
          "type": "address"
        },
        {
          "internalType": "address",
          "name": "_swapRouter",
          "type": "address"
        }
      ],
      "stateMutability": "nonpayable",
      "type": "constructor"
    },
    {
      "anonymous": false,
      "inputs": [
        {
          "indexed": true,
          "internalType": "address",
          "name": "previousOwner",
          "type": "address"
        },
        {
          "indexed": true,
          "internalType": "address",
          "name": "newOwner",
          "type": "address"
        }
      ],
      "name": "OwnershipTransferred",
      "type": "event"
    },
    {
      "anonymous": false,
      "inputs": [
        {
          "indexed": false,
          "internalType": "uint256",
          "name": "vaultId",
          "type": "uint256"
        },
        {
          "indexed": false,
          "internalType": "uint256",
          "name": "_amount0",
          "type": "uint256"
        },
        {
          "indexed": false,
          "internalType": "uint256",
          "name": "_amount1",
          "type": "uint256"
        },
        {
          "indexed": false,
          "internalType": "uint256",
          "name": "_penaltyAmount0",
          "type": "uint256"
        },
        {
          "indexed": false,
          "internalType": "uint256",
          "name": "_penaltyAmount1",
          "type": "uint256"
        }
      ],
      "name": "PositionClosed",
      "type": "event"
    },
    {
      "anonymous": false,
      "inputs": [
        {
          "indexed": false,
          "internalType": "uint256",
          "name": "vaultId",
          "type": "uint256"
        }
      ],
      "name": "VaultCreated",
      "type": "event"
    },
    {
      "inputs": [
        {
          "internalType": "uint256",
          "name": "_vaultId",
          "type": "uint256"
        },
        {
          "internalType": "int24",
          "name": "_lower",
          "type": "int24"
        },
        {
          "internalType": "int24",
          "name": "_upper",
          "type": "int24"
        },
        {
          "internalType": "uint128",
          "name": "_liquidity",
          "type": "uint128"
        }
      ],
      "name": "borrowLPT",
      "outputs": [
        {
          "internalType": "uint256",
          "name": "",
          "type": "uint256"
        },
        {
          "internalType": "uint256",
          "name": "",
          "type": "uint256"
        }
      ],
      "stateMutability": "nonpayable",
      "type": "function"
    },
    {
      "inputs": [
        {
          "internalType": "uint256",
          "name": "_vaultId",
          "type": "uint256"
        },
        {
          "internalType": "uint256",
          "name": "_amount0",
          "type": "uint256"
        },
        {
          "internalType": "uint256",
          "name": "_amount1",
          "type": "uint256"
        }
      ],
      "name": "borrowTokens",
      "outputs": [],
      "stateMutability": "nonpayable",
      "type": "function"
    },
    {
      "inputs": [
        {
          "internalType": "uint256",
          "name": "_vaultId",
          "type": "uint256"
        },
        {
          "internalType": "bool",
          "name": "_zeroToOne",
          "type": "bool"
        },
        {
          "internalType": "uint256",
          "name": "_amount",
          "type": "uint256"
        },
        {
          "internalType": "uint256",
          "name": "_amountOutMinimum",
          "type": "uint256"
        }
      ],
      "name": "closePositionsInVault",
      "outputs": [],
      "stateMutability": "nonpayable",
      "type": "function"
    },
    {
      "inputs": [
        {
          "internalType": "uint256",
          "name": "_vaultId",
          "type": "uint256"
        },
        {
          "internalType": "int24",
          "name": "_lower",
          "type": "int24"
        },
        {
          "internalType": "int24",
          "name": "_upper",
          "type": "int24"
        },
        {
          "internalType": "uint128",
          "name": "_liquidity",
          "type": "uint128"
        }
      ],
      "name": "depositLPT",
      "outputs": [
        {
          "internalType": "uint256",
          "name": "requiredAmount0",
          "type": "uint256"
        },
        {
          "internalType": "uint256",
          "name": "requiredAmount1",
          "type": "uint256"
        }
      ],
      "stateMutability": "nonpayable",
      "type": "function"
    },
    {
      "inputs": [
        {
          "internalType": "uint256",
          "name": "_vaultId",
          "type": "uint256"
        },
        {
          "internalType": "uint256",
          "name": "_amount0",
          "type": "uint256"
        },
        {
          "internalType": "uint256",
          "name": "_amount1",
          "type": "uint256"
        },
        {
          "internalType": "bool",
          "name": "_withEnteringMarket",
          "type": "bool"
        }
      ],
      "name": "depositTokens",
      "outputs": [],
      "stateMutability": "nonpayable",
      "type": "function"
    },
    {
      "inputs": [
        {
          "internalType": "bytes[]",
          "name": "_data",
          "type": "bytes[]"
        }
      ],
      "name": "forceClose",
      "outputs": [],
      "stateMutability": "nonpayable",
      "type": "function"
    },
    {
      "inputs": [
        {
          "internalType": "uint256",
          "name": "_vaultId",
          "type": "uint256"
        }
      ],
      "name": "getMarginValue",
      "outputs": [
        {
          "internalType": "uint256",
          "name": "marginValue",
          "type": "uint256"
        }
      ],
      "stateMutability": "view",
      "type": "function"
    },
    {
      "inputs": [
        {
          "internalType": "uint256",
          "name": "_vaultId",
          "type": "uint256"
        }
      ],
      "name": "getPosition",
      "outputs": [
        {
          "components": [
            {
              "internalType": "uint256",
              "name": "collateral0",
              "type": "uint256"
            },
            {
              "internalType": "uint256",
              "name": "collateral1",
              "type": "uint256"
            },
            {
              "internalType": "uint256",
              "name": "debt0",
              "type": "uint256"
            },
            {
              "internalType": "uint256",
              "name": "debt1",
              "type": "uint256"
            },
            {
              "components": [
                {
                  "internalType": "bool",
                  "name": "isCollateral",
                  "type": "bool"
                },
                {
                  "internalType": "uint128",
                  "name": "liquidity",
                  "type": "uint128"
                },
                {
                  "internalType": "int24",
                  "name": "lowerTick",
                  "type": "int24"
                },
                {
                  "internalType": "int24",
                  "name": "upperTick",
                  "type": "int24"
                }
              ],
              "internalType": "struct PositionVerifier.LPT[]",
              "name": "lpts",
              "type": "tuple[]"
            }
          ],
          "internalType": "struct PositionVerifier.Position",
          "name": "position",
          "type": "tuple"
        }
      ],
      "stateMutability": "view",
      "type": "function"
    },
    {
      "inputs": [],
      "name": "getPrice",
      "outputs": [
        {
          "internalType": "uint256",
          "name": "",
          "type": "uint256"
        }
      ],
      "stateMutability": "view",
      "type": "function"
    },
    {
      "inputs": [
        {
          "internalType": "bytes32",
          "name": "_rangeId",
          "type": "bytes32"
        }
      ],
      "name": "getRange",
      "outputs": [
        {
          "components": [
            {
              "internalType": "uint256",
              "name": "tokenId",
              "type": "uint256"
            },
            {
              "internalType": "int24",
              "name": "lower",
              "type": "int24"
            },
            {
              "internalType": "int24",
              "name": "upper",
              "type": "int24"
            },
            {
              "internalType": "uint128",
              "name": "borrowedLiquidity",
              "type": "uint128"
            },
            {
              "internalType": "uint256",
              "name": "cumulativeFee",
              "type": "uint256"
            },
            {
              "internalType": "uint256",
              "name": "cumulativeFeeForLP",
              "type": "uint256"
            },
            {
              "internalType": "uint256",
              "name": "cumFee0",
              "type": "uint256"
            },
            {
              "internalType": "uint256",
              "name": "cumFee1",
              "type": "uint256"
            },
            {
              "internalType": "uint256",
              "name": "lastTouchedTimestamp",
              "type": "uint256"
            }
          ],
          "internalType": "struct VaultLib.PerpStatus",
          "name": "",
          "type": "tuple"
        }
      ],
      "stateMutability": "view",
      "type": "function"
    },
    {
      "inputs": [],
      "name": "getSqrtPrice",
      "outputs": [
        {
          "internalType": "uint160",
          "name": "sqrtPriceX96",
          "type": "uint160"
        }
      ],
      "stateMutability": "view",
      "type": "function"
    },
    {
      "inputs": [],
      "name": "getTWAP",
      "outputs": [
        {
          "internalType": "uint256",
          "name": "",
          "type": "uint256"
        }
      ],
      "stateMutability": "view",
      "type": "function"
    },
    {
      "inputs": [
        {
          "internalType": "bytes32",
          "name": "_rangeId",
          "type": "bytes32"
        },
        {
          "internalType": "uint128",
          "name": "_liquidity",
          "type": "uint128"
        },
        {
          "internalType": "uint160",
          "name": "_sqrtPrice",
          "type": "uint160"
        }
      ],
      "name": "getTokenAmountsToBorrowLPT",
      "outputs": [
        {
          "internalType": "uint256",
          "name": "",
          "type": "uint256"
        },
        {
          "internalType": "uint256",
          "name": "",
          "type": "uint256"
        }
      ],
      "stateMutability": "view",
      "type": "function"
    },
    {
      "inputs": [
        {
          "internalType": "uint256",
          "name": "_vaultId",
          "type": "uint256"
        }
      ],
      "name": "getVaultStatus",
      "outputs": [
        {
          "internalType": "uint256",
          "name": "",
          "type": "uint256"
        },
        {
          "internalType": "uint256",
          "name": "",
          "type": "uint256"
        },
        {
          "internalType": "uint256",
          "name": "",
          "type": "uint256"
        }
      ],
      "stateMutability": "nonpayable",
      "type": "function"
    },
    {
      "inputs": [],
      "name": "isMarginZero",
      "outputs": [
        {
          "internalType": "bool",
          "name": "",
          "type": "bool"
        }
      ],
      "stateMutability": "view",
      "type": "function"
    },
    {
      "inputs": [
        {
          "internalType": "uint256",
          "name": "_vaultId",
          "type": "uint256"
        },
        {
          "internalType": "bool",
          "name": "_zeroToOne",
          "type": "bool"
        },
        {
          "internalType": "uint256",
          "name": "_amount",
          "type": "uint256"
        },
        {
          "internalType": "uint256",
          "name": "_amountOutMinimum",
          "type": "uint256"
        }
      ],
      "name": "liquidate",
      "outputs": [],
      "stateMutability": "nonpayable",
      "type": "function"
    },
    {
      "inputs": [
        {
          "internalType": "uint256",
          "name": "_vaultId",
          "type": "uint256"
        },
        {
          "internalType": "bool",
          "name": "_zeroToOne",
          "type": "bool"
        },
        {
          "internalType": "uint256",
          "name": "_amount",
          "type": "uint256"
        },
        {
          "internalType": "uint256",
          "name": "_amountOutMinimum",
          "type": "uint256"
        }
      ],
      "name": "liquidate3",
      "outputs": [],
      "stateMutability": "nonpayable",
      "type": "function"
    },
    {
      "inputs": [
        {
          "internalType": "uint256",
          "name": "_vaultId",
          "type": "uint256"
        },
        {
          "internalType": "uint256",
          "name": "_margin",
          "type": "uint256"
        },
        {
          "internalType": "bool",
          "name": "_isLiquidationRequired",
          "type": "bool"
        },
        {
          "internalType": "bytes",
          "name": "_data",
          "type": "bytes"
        },
        {
          "internalType": "uint256",
          "name": "_buffer0",
          "type": "uint256"
        },
        {
          "internalType": "uint256",
          "name": "_buffer1",
          "type": "uint256"
        }
      ],
      "name": "openPosition",
      "outputs": [
        {
          "internalType": "uint256",
          "name": "vaultId",
          "type": "uint256"
        }
      ],
      "stateMutability": "nonpayable",
      "type": "function"
    },
    {
      "inputs": [],
      "name": "owner",
      "outputs": [
        {
          "internalType": "address",
          "name": "",
          "type": "address"
        }
      ],
      "stateMutability": "view",
      "type": "function"
    },
    {
      "inputs": [],
      "name": "pricingModule",
      "outputs": [
        {
          "internalType": "contract IPricingModule",
          "name": "",
          "type": "address"
        }
      ],
      "stateMutability": "view",
      "type": "function"
    },
    {
      "inputs": [],
      "name": "productVerifier",
      "outputs": [
        {
          "internalType": "contract IProductVerifier",
          "name": "",
          "type": "address"
        }
      ],
      "stateMutability": "view",
      "type": "function"
    },
    {
      "inputs": [],
      "name": "renounceOwnership",
      "outputs": [],
      "stateMutability": "nonpayable",
      "type": "function"
    },
    {
      "inputs": [
        {
          "internalType": "address",
          "name": "_lptMathModule",
          "type": "address"
        }
      ],
      "name": "setLPTMathModule",
      "outputs": [],
      "stateMutability": "nonpayable",
      "type": "function"
    },
    {
      "inputs": [
        {
          "internalType": "address",
          "name": "_pricingModule",
          "type": "address"
        }
      ],
      "name": "setPricingModule",
      "outputs": [],
      "stateMutability": "nonpayable",
      "type": "function"
    },
    {
      "inputs": [
        {
          "internalType": "address",
          "name": "_productVerifier",
          "type": "address"
        }
      ],
      "name": "setProductVerifier",
      "outputs": [],
      "stateMutability": "nonpayable",
      "type": "function"
    },
    {
      "inputs": [
        {
          "internalType": "bool",
          "name": "_zeroForOne",
          "type": "bool"
        },
        {
          "internalType": "uint256",
          "name": "_amountOut",
          "type": "uint256"
        },
        {
          "internalType": "uint256",
          "name": "_amountInMaximum",
          "type": "uint256"
        }
      ],
      "name": "swapExactOutput",
      "outputs": [
        {
          "internalType": "uint256",
          "name": "",
          "type": "uint256"
        }
      ],
      "stateMutability": "nonpayable",
      "type": "function"
    },
    {
      "inputs": [
        {
          "internalType": "address",
          "name": "newOwner",
          "type": "address"
        }
      ],
      "name": "transferOwnership",
      "outputs": [],
      "stateMutability": "nonpayable",
      "type": "function"
    },
    {
      "inputs": [],
      "name": "vaultIdCount",
      "outputs": [
        {
          "internalType": "uint256",
          "name": "",
          "type": "uint256"
        }
      ],
      "stateMutability": "view",
      "type": "function"
    },
    {
      "inputs": [
        {
          "internalType": "uint256",
          "name": "_vaultId",
          "type": "uint256"
        }
      ],
      "name": "withdrawFromVault",
      "outputs": [],
      "stateMutability": "nonpayable",
      "type": "function"
    }
  ],
  "transactionHash": "0x85a264efd8de5be8276c2229714a2a043a4fe3bcf168abf3e53e356722aa71e7",
  "args": [
    "0x6466232Bf77e70bEa2535393DC9B2b0d94ea3C22",
    "0xF61Cffd6071a8DB7cD5E8DF1D3A5450D9903cF1c",
    false,
    "0xC36442b4a4522E871399CD717aBDD847Ab11FE88",
    "0x1F98431c8aD98523631AE4a59f267346ea31F984",
    "0xE592427A0AEce92De3Edee1F18E0157C05861564"
  ],
  "solcInputHash": "a5a594376544575ba648803f900edb2e",
  "bytecode": "0x60a06040523480156200001157600080fd5b5060405162006062380380620060628339810160408190526200003491620004ff565b600062000040620003ba565b600080546001600160a01b0319166001600160a01b0383169081178255604051929350917f8be0079c531659141344cd1fd0a4f28419497f9722a3daafe3b4186f6b6457e0908290a350600180546001600160a01b03199081166001600160a01b0389811691909117928390556002805483168983161760ff60a01b1916600160a01b8915150217908190556003805490931687831617909255606084811b6001600160601b031916608052604080519182018152938216815291166020808301919091526101f49282019290925290620001289084908390620003be811b6200222817901c565b600480546001600160a01b0319166001600160a01b039283161781556000600a5560015460035460405163095ea7b360e01b81529184169363095ea7b3936200017b9392909116916000199101620005a3565b602060405180830381600087803b1580156200019657600080fd5b505af1158015620001ab573d6000803e3d6000fd5b505050506040513d601f19601f82011682018060405250810190620001d191906200057f565b5060025460035460405163095ea7b360e01b81526001600160a01b039283169263095ea7b3926200020c9291169060001990600401620005a3565b602060405180830381600087803b1580156200022757600080fd5b505af11580156200023c573d6000803e3d6000fd5b505050506040513d601f19601f820116820180604052508101906200026291906200057f565b5060015460405163095ea7b360e01b81526001600160a01b039091169063095ea7b3906200029990859060001990600401620005a3565b602060405180830381600087803b158015620002b457600080fd5b505af1158015620002c9573d6000803e3d6000fd5b505050506040513d601f19601f82011682018060405250810190620002ef91906200057f565b5060025460405163095ea7b360e01b81526001600160a01b039091169063095ea7b3906200032690859060001990600401620005a3565b602060405180830381600087803b1580156200034157600080fd5b505af115801562000356573d6000803e3d6000fd5b505050506040513d601f19601f820116820180604052508101906200037c91906200057f565b5062000394600f620004b660201b6200230c1760201c565b50620003ac6013620004b660201b6200230c1760201c565b5050505050505050620005bc565b3390565b600081602001516001600160a01b031682600001516001600160a01b031610620003e757600080fd5b50805160208083015160409384015184516001600160a01b0394851681850152939091168385015262ffffff166060808401919091528351808403820181526080840185528051908301207fff0000000000000000000000000000000000000000000000000000000000000060a085015294901b6001600160601b03191660a183015260b58201939093527fe34f199b19b2b4f47f68442619d555527d244f78a3297ea89325f843f87b8b5460d5808301919091528251808303909101815260f5909101909152805191012090565b670de0b6b3a764000060028201819055600390910155600090565b80516001600160a01b0381168114620004e957600080fd5b919050565b80518015158114620004e957600080fd5b60008060008060008060c0878903121562000518578182fd5b6200052387620004d1565b95506200053360208801620004d1565b94506200054360408801620004ee565b93506200055360608801620004d1565b92506200056360808801620004d1565b91506200057360a08801620004d1565b90509295509295509295565b60006020828403121562000591578081fd5b6200059c82620004ee565b9392505050565b6001600160a01b03929092168252602082015260400190565b60805160601c615a83620005df60003980610c4852806138e15250615a836000f3fe608060405234801561001057600080fd5b50600436106101cf5760003560e01c80635ce20ffb11610104578063aa763556116100a2578063e7ebf0bd11610071578063e7ebf0bd146103b3578063e9948e31146103c6578063eb02c301146103ce578063f2fde38b146103ee576101cf565b8063aa76355614610367578063bc5b6c471461037a578063c83939cf1461038d578063cb68c122146103a0576101cf565b8063715018a6116100de578063715018a61461034757806386e6862d1461034f5780638da5cb5b1461035757806398d5fdca1461035f576101cf565b80635ce20ffb1461030e578063627af7541461032157806365b5f6e314610334576101cf565b806336fae6de1161017157806349ebb77d1161014b57806349ebb77d146102af578063517ede9d146102d157806354dbbcc1146102e657806355585a08146102f9576101cf565b806336fae6de1461026857806346f9697f1461027b57806349b732391461029c576101cf565b8063076d0815116101ad578063076d0815146102275780630a3cb3741461023a57806320f3df8e1461024d57806326d8d4f914610260576101cf565b8063013216f5146101d457806305d719f1146101fd57806305ecd00314610212575b600080fd5b6101e76101e2366004614ee0565b610401565b6040516101f491906156b4565b60405180910390f35b61021061020b366004614df7565b61049f565b005b61021a610523565b6040516101f491906158f6565b610210610235366004614ee0565b61064b565b61021a610248366004614ee0565b6106e7565b61021061025b36600461504a565b61095a565b61021a610a71565b6102106102763660046151f3565b610a77565b61028e610289366004614ef8565b610acb565b6040516101f49291906158b5565b61021a6102aa366004614eac565b610b7e565b6102c26102bd366004614ee0565b610cef565b6040516101f493929190615963565b6102d9610d33565b6040516101f49190615442565b6102106102f4366004614df7565b610d43565b610301610dc7565b6040516101f4919061542e565b61021061031c36600461521e565b610dd6565b61021061032f36600461504a565b610e57565b610210610342366004614e13565b610eb9565b610210610fb2565b61030161105e565b6103016110f2565b61021a611101565b61028e6103753660046150ce565b61119e565b61021a610388366004615180565b611370565b61021061039b36600461504a565b6115d2565b6102106103ae366004614df7565b61167e565b61028e6103c13660046150ce565b611702565b610301611bec565b6103e16103dc366004614ee0565b611bfb565b6040516101f49190615728565b6102106103fc366004614df7565b612126565b610409614c9b565b50600081815260096020908152604091829020825161012081018452815481526001820154600281810b810b810b9483019490945263010000008104840b840b840b94820194909452600160301b9093046001600160801b03166060840152908101546080830152600381015460a0830152600481015460c0830152600581015460e0830152600601546101008201525b919050565b6104a7612327565b6001600160a01b03166104b86110f2565b6001600160a01b031614610501576040805162461bcd60e51b81526020600482018190526024820152600080516020615a2e833981519152604482015290519081900360640190fd5b600680546001600160a01b0319166001600160a01b0392909216919091179055565b6007546004805460405163269b267f60e01b815260009384936001600160a01b039182169363269b267f9361055f9390911691603c910161549b565b604080518083038186803b15801561057657600080fd5b505afa15801561058a573d6000803e3d6000fd5b505050506040513d601f19601f820116820180604052508101906105ae9190615005565b50600754600254604051635450527f60e01b81526001600160a01b0393841694509190921691635450527f916105f49160ff600160a01b90910416908590600401615466565b60206040518083038186803b15801561060c57600080fd5b505afa158015610620573d6000803e3d6000fd5b505050506040513d601f19601f820116820180604052508101906106449190615032565b9150505b90565b6000818152600c602052604090205481906001600160a01b0316331461067057600080fd5b6000828152600b60209081526040808320600c90925290912054600160a81b900460ff1661069d57600080fd5b6001808201805460028401805460009384905592905591546106c9906001600160a01b0316338461232b565b6002546106e0906001600160a01b0316338361232b565b5050505050565b6000818152600b60209081526040808320815160e0810183528154815260018201548185015260028201548184015260038201805484518187028101870190955280855291949293606086019390929083018282801561078657602002820191906000526020600020906000905b825461010083900a900460ff1615158152602060019283018181049485019490930390920291018084116107555790505b50505050508152602001600482018054806020026020016040519081016040528092919081815260200182805480156107de57602002820191906000526020600020905b8154815260200190600101908083116107ca575b505050505081526020016005820180548060200260200160405190810160405280929190818152602001828054801561086857602002820191906000526020600020906000905b82829054906101000a90046001600160801b03166001600160801b031681526020019060100190602082600f010492830192600103820291508084116108255790505b50505050508152602001600682018054806020026020016040519081016040528092919081815260200182805480156108c057602002820191906000526020600020905b8154815260200190600101908083116108ac575b505050919092525050604051639ee6986560e01b815273199CffEf5CacaBAcBeDE9Cd4C66Bd5Bf5e344d4792639ee6986592506109049160099087906004016157d9565b60206040518083038186803b15801561091c57600080fd5b505af4158015610930573d6000803e3d6000fd5b505050506040513d601f19601f820116820180604052508101906109549190615032565b92915050565b61096384612472565b61096c84612697565b61097557600080fd5b6007546004805460405163269b267f60e01b81526000936001600160a01b039081169363269b267f936109ae93921691603c910161549b565b604080518083038186803b1580156109c557600080fd5b505afa1580156109d9573d6000803e3d6000fd5b505050506040513d601f19601f820116820180604052508101906109fd9190615005565b509050600080610a0d8784612773565b9150915060006040518060a00160405280881515815260200187815260200186815260200160648581610a3c57fe5b0481526020016064840490529050610a548882612b95565b610a673382606001518360800151612e53565b5050505050505050565b600a5481565b6005546001600160a01b03163314610a8e57600080fd5b6000838152600d60205260409020610aa990600f9084612e86565b506000838152600e60205260409020610ac59060139084612e86565b50505050565b600754600084815260096020526040808220600101549051630544f36560e31b8152919283926001600160a01b0390911691632a279b2891610b23918791600282810b9263010000009004900b908a906004016158c3565b604080518083038186803b158015610b3a57600080fd5b505afa158015610b4e573d6000803e3d6000fd5b505050506040513d601f19601f82011682018060405250810190610b72919061515d565b91509150935093915050565b6005546000906001600160a01b03163314610b9857600080fd5b600060405180610100016040528086610bbc576002546001600160a01b0316610bc9565b6001546001600160a01b03165b6001600160a01b0316815260200186610bed576001546001600160a01b0316610bfa565b6002546001600160a01b03165b6001600160a01b031681526020016101f462ffffff168152602001306001600160a01b0316815260200142815260200185815260200184815260200160006001600160a01b031681525090507f00000000000000000000000000000000000000000000000000000000000000006001600160a01b031663db3e2198826040518263ffffffff1660e01b8152600401610c9291906155b3565b602060405180830381600087803b158015610cac57600080fd5b505af1158015610cc0573d6000803e3d6000fd5b505050506040513d601f19601f82011682018060405250810190610ce49190615032565b9150505b9392505050565b600080600080610cfd61105e565b9050610d0885612472565b600080610d158784612ebe565b915091506000610d24886106e7565b92989197509195509350505050565b600254600160a01b900460ff1681565b610d4b612327565b6001600160a01b0316610d5c6110f2565b6001600160a01b031614610da5576040805162461bcd60e51b81526020600482018190526024820152600080516020615a2e833981519152604482015290519081900360640190fd5b600580546001600160a01b0319166001600160a01b0392909216919091179055565b6005546001600160a01b031681565b6005546001600160a01b03163314610ded57600080fd5b8015610e30576000848152600d60205260409020610e0e90600f9085612fe0565b506000848152600e60205260409020610e2a9060139085612fe0565b50610ac5565b6000848152600b602052604090206001810180548501905560020180548301905550505050565b6000848152600c602052604090205484906001600160a01b03163314610e7c57600080fd5b610e8585612472565b6106e0856040518060a001604052808715158152602001868152602001858152602001600081526020016000815250612b95565b610ec1612327565b6001600160a01b0316610ed26110f2565b6001600160a01b031614610f1b576040805162461bcd60e51b81526020600482018190526024820152600080516020615a2e833981519152604482015290519081900360640190fd5b60005b8151811015610fae576000806000806000868681518110610f3b57fe5b6020026020010151806020019051810190610f569190615086565b94509450945094509450610f6985612472565b610f9d856040518060a001604052808715158152602001868152602001858152602001600081526020016000815250612b95565b505060019093019250610f1e915050565b5050565b610fba612327565b6001600160a01b0316610fcb6110f2565b6001600160a01b031614611014576040805162461bcd60e51b81526020600482018190526024820152600080516020615a2e833981519152604482015290519081900360640190fd5b600080546040516001600160a01b03909116907f8be0079c531659141344cd1fd0a4f28419497f9722a3daafe3b4186f6b6457e0908390a3600080546001600160a01b0319169055565b6000600460009054906101000a90046001600160a01b03166001600160a01b0316633850c7bd6040518163ffffffff1660e01b815260040160e06040518083038186803b1580156110ae57600080fd5b505afa1580156110c2573d6000803e3d6000fd5b505050506040513d601f19601f820116820180604052508101906110e69190614f6f565b50949695505050505050565b6000546001600160a01b031690565b6007546002546000916001600160a01b031690635450527f90600160a01b900460ff1661112c61105e565b6040518363ffffffff1660e01b815260040161114992919061544d565b60206040518083038186803b15801561116157600080fd5b505afa158015611175573d6000803e3d6000fd5b505050506040513d601f19601f820116820180604052508101906111999190615032565b905090565b60055460009081906001600160a01b031633146111ba57600080fd5b60006111c6868661300f565b6000818152600960205260408120549192509081906111e6908785613042565b91509150856009600085815260200190815260200160002060010160068282829054906101000a90046001600160801b03160192506101000a8154816001600160801b0302191690836001600160801b031602179055506000600b60008b8152602001908152602001600020905080600301600090806001815401808255809150506001900390600052602060002090602091828204019190069091909190916101000a81548160ff02191690831515021790555080600401849080600181540180825580915050600190039060005260206000200160009091909190915055806005018790806001815401808255809150506001900390600052602060002090600291828204019190066010029091909190916101000a8154816001600160801b0302191690836001600160801b0316021790555080600601600960008681526020019081526020016000206002015490806001815401808255809150506001900390600052602060002001600090919091909150558282955095505050505094509492505050565b600061137b87612472565b60006113868861311e565b6040516331442a6760e01b8152919350915073199CffEf5CacaBAcBeDE9Cd4C66Bd5Bf5e344d47906331442a67906113c49084908b906004016158b5565b60006040518083038186803b1580156113dc57600080fd5b505af41580156113f0573d6000803e3d6000fd5b5050506000838152600c60205260409020805460ff60a01b1916600160a01b89151581029190911790915560025460ff9190041615905061146257600154611445906001600160a01b031633308a88016131c9565b60025461145d906001600160a01b03163330866131c9565b611494565b60015461147a906001600160a01b03163330876131c9565b600254611494906001600160a01b031633308a87016131c9565b6005546040516317bf243360e31b815260009182916001600160a01b039091169063bdf92198906114cd9087908c908c906004016158ff565b6040805180830381600087803b1580156114e657600080fd5b505af11580156114fa573d6000803e3d6000fd5b505050506040513d601f19601f8201168201806040525081019061151e919061515d565b91509150600061152d85613321565b9050808460000154101561155c5760405162461bcd60e51b815260040161155390615511565b60405180910390fd5b61156585612697565b156115825760405162461bcd60e51b8152600401611553906154f5565b828711156115a3576001546115a3906001600160a01b031633858a0361232b565b818611156115c4576002546115c4906001600160a01b03163384890361232b565b505050509695505050505050565b6115db84612472565b60006115e6856106e7565b905060006115f386613321565b90508082106116145760405162461bcd60e51b8152600401611553906154c8565b6040805160a0810182528615158152602081018690529081018490526000606082018190526080820152600254606483049190600160a01b900460ff1615611662576060810182905261166a565b608081018290525b6116748882612b95565b610a67338361358d565b611686612327565b6001600160a01b03166116976110f2565b6001600160a01b0316146116e0576040805162461bcd60e51b81526020600482018190526024820152600080516020615a2e833981519152604482015290519081900360640190fd5b600780546001600160a01b0319166001600160a01b0392909216919091179055565b60055460009081906001600160a01b0316331461171e57600080fd5b600061172a868661300f565b60075490915060009081906001600160a01b0316632a279b2861174b61105e565b8a8a8a6040518563ffffffff1660e01b815260040161176d94939291906158c3565b604080518083038186803b15801561178457600080fd5b505afa158015611798573d6000803e3d6000fd5b505050506040513d601f19601f820116820180604052508101906117bc919061515d565b600085815260096020526040812054929450909250901561189f576040805160c08101825260008681526009602090815283822054835282018690528183018590526060820181905260808201524260a0820152600354915163219f5d1760e01b815290916001600160a01b03169063219f5d179061183f9084906004016155c2565b606060405180830381600087803b15801561185957600080fd5b505af115801561186d573d6000803e3d6000fd5b505050506040513d601f19601f820116820180604052508101906118919190614f39565b90985096509150611a189050565b60408051610160810182526001546001600160a01b03908116825260028054821660208401526101f4838501528c810b60608401528b900b608083015260a0820186905260c08201859052600060e0830181905261010083015230610120830152426101408301526003549251634418b22b60e11b81529192169063883164569061192e908490600401615606565b608060405180830381600087803b15801561194857600080fd5b505af115801561195c573d6000803e3d6000fd5b505050506040513d601f19601f820116820180604052508101906119809190615120565b600960008a81526020019081526020016000206000016000829b50839c50849750859190505550505050896009600087815260200190815260200160002060010160006101000a81548162ffffff021916908360020b62ffffff160217905550886009600087815260200190815260200160002060010160036101000a81548162ffffff021916908360020b62ffffff160217905550505b6000600b60008c8152602001908152602001600020905080600301600190806001815401808255809150506001900390600052602060002090602091828204019190069091909190916101000a81548160ff02191690831515021790555080600401859080600181540180825580915050600190039060005260206000200160009091909190915055806005018290806001815401808255809150506001900390600052602060002090600291828204019190066010029091909190916101000a8154816001600160801b0302191690836001600160801b031602179055508060060160096000878152602001908152602001600020600201549080600181540180825580915050600190039060005260206000200160009091909190915055600c60008c815260200190815260200160002060020160096000878152602001908152602001600020600401549080600181540180825580915050600190039060005260206000200160009091909190915055600c60008c815260200190815260200160002060030160096000878152602001908152602001600020600501549080600181540180825580915050600190039060005260206000200160009091909190915055505050505094509492505050565b6006546001600160a01b031681565b611c03614cf6565b6000828152600b60209081526040808320815160e08101835281548152600182015481850152600282015481840152600382018054845181870281018701909552808552919492936060860193909290830182828015611ca257602002820191906000526020600020906000905b825461010083900a900460ff161515815260206001928301818104948501949093039092029101808411611c715790505b5050505050815260200160048201805480602002602001604051908101604052809291908181526020018280548015611cfa57602002820191906000526020600020905b815481526020019060010190808311611ce6575b5050505050815260200160058201805480602002602001604051908101604052809291908181526020018280548015611d8457602002820191906000526020600020906000905b82829054906101000a90046001600160801b03166001600160801b031681526020019060100190602082600f01049283019260010382029150808411611d415790505b5050505050815260200160068201805480602002602001604051908101604052809291908181526020018280548015611ddc57602002820191906000526020600020905b815481526020019060010190808311611dc8575b5050505050815250509050600081608001515167ffffffffffffffff81118015611e0557600080fd5b50604051908082528060200260200182016040528015611e3f57816020015b611e2c614d25565b815260200190600190039081611e245790505b50905060005b826080015151811015611f9157600083608001518281518110611e6457fe5b602090810291909101810151600081815260098352604090819020815161012081018352815481526001820154600281810b810b810b9683019690965263010000008104860b860b860b82850152600160301b90046001600160801b031660608083019190915294820154608080830191909152600383015460a0830152600483015460c0830152600583015460e0830152600690920154610100820152825191820190925292870151805192945090929182919086908110611f2357fe5b6020026020010151151581526020018660a001518581518110611f4257fe5b60200260200101516001600160801b03168152602001826020015160020b8152602001826040015160020b815250848481518110611f7c57fe5b60209081029190910101525050600101611e45565b506040805160a081018083526020808601516000898152600d835285902060e085018652805484526001015460c08501528451608081018652600f54815260105492810192909252601154948201949094526012546060820152919283929091611ffb91906135c7565b0181526040808501516000888152600e6020908152908390208351808501855281548152600190910154818301528351608081018552601354815260145481840152601554948101949094526016546060850152930192909161205d916135c7565b0181526000868152600d60209081526040918290208251808401845281548152600190910154818301528251608081018452600f548152601054818401526011549381019390935260125460608401529201916120ba91906135e4565b81526000868152600e6020908152604091829020825180840184528154815260019091015481830152825160808101845260135481526014548184015260155493810193909352601654606084015292019161211691906135e4565b8152602001919091529392505050565b61212e612327565b6001600160a01b031661213f6110f2565b6001600160a01b031614612188576040805162461bcd60e51b81526020600482018190526024820152600080516020615a2e833981519152604482015290519081900360640190fd5b6001600160a01b0381166121cd5760405162461bcd60e51b8152600401808060200182810382526026815260200180615a086026913960400191505060405180910390fd5b600080546040516001600160a01b03808516939216917f8be0079c531659141344cd1fd0a4f28419497f9722a3daafe3b4186f6b6457e091a3600080546001600160a01b0319166001600160a01b0392909216919091179055565b600081602001516001600160a01b031682600001516001600160a01b03161061225057600080fd5b50805160208083015160409384015184516001600160a01b0394851681850152939091168385015262ffffff166060808401919091528351808403820181526080840185528051908301206001600160f81b031960a085015294901b6bffffffffffffffffffffffff191660a183015260b58201939093527fe34f199b19b2b4f47f68442619d555527d244f78a3297ea89325f843f87b8b5460d5808301919091528251808303909101815260f5909101909152805191012090565b670de0b6b3a764000060028201819055600390910155600090565b3390565b604080516001600160a01b038481166024830152604480830185905283518084039091018152606490920183526020820180516001600160e01b031663a9059cbb60e01b1781529251825160009485949389169392918291908083835b602083106123a75780518252601f199092019160209182019101612388565b6001836020036101000a0380198251168184511680821785525050505050509050019150506000604051808303816000865af19150503d8060008114612409576040519150601f19603f3d011682016040523d82523d6000602084013e61240e565b606091505b509150915081801561243c57508051158061243c575080806020019051602081101561243957600080fd5b50515b6106e0576040805162461bcd60e51b815260206004820152600260248201526114d560f21b604482015290519081900360640190fd5b6000818152600b60209081526040808320815160e0810183528154815260018201548185015260028201548184015260038201805484518187028101870190955280855291949293606086019390929083018282801561251157602002820191906000526020600020906000905b825461010083900a900460ff1615158152602060019283018181049485019490930390920291018084116124e05790505b505050505081526020016004820180548060200260200160405190810160405280929190818152602001828054801561256957602002820191906000526020600020905b815481526020019060010190808311612555575b50505050508152602001600582018054806020026020016040519081016040528092919081815260200182805480156125f357602002820191906000526020600020906000905b82829054906101000a90046001600160801b03166001600160801b031681526020019060100190602082600f010492830192600103820291508084116125b05790505b505050505081526020016006820180548060200260200160405190810160405280929190818152602001828054801561264b57602002820191906000526020600020905b815481526020019060010190808311612637575b505050505081525050905060005b81608001515181101561268e576126868260800151828151811061267957fe5b6020026020010151613601565b600101612659565b50610fae6137bf565b6000818152600c6020526040812054600160a01b900460ff161561276b576007546004805460405163269b267f60e01b81526000936001600160a01b039081169363269b267f936126ee93921691603c910161549b565b604080518083038186803b15801561270557600080fd5b505afa158015612719573d6000803e3d6000fd5b505050506040513d601f19601f8201168201806040525081019061273d9190615005565b50905060008061274d8584612ebe565b91509150806004836003028161275f57fe5b0410935050505061049a565b506000919050565b6000806000600b60008681526020019081526020016000206040518060e00160405290816000820154815260200160018201548152602001600282015481526020016003820180548060200260200160405190810160405280929190818152602001828054801561282357602002820191906000526020600020906000905b825461010083900a900460ff1615158152602060019283018181049485019490930390920291018084116127f25790505b505050505081526020016004820180548060200260200160405190810160405280929190818152602001828054801561287b57602002820191906000526020600020905b815481526020019060010190808311612867575b505050505081526020016005820180548060200260200160405190810160405280929190818152602001828054801561290557602002820191906000526020600020906000905b82829054906101000a90046001600160801b03166001600160801b031681526020019060100190602082600f010492830192600103820291508084116128c25790505b505050505081526020016006820180548060200260200160405190810160405280929190818152602001828054801561295d57602002820191906000526020600020905b815481526020019060010190808311612949575b505050505081525050905060005b816080015151811015612ad1578160600151818151811061298857fe5b60200260200101511561299a57612ac9565b600080600760009054906101000a90046001600160a01b03166001600160a01b0316632a279b288860096000886080015188815181106129d657fe5b6020026020010151815260200190815260200160002060010160009054906101000a900460020b6009600089608001518981518110612a1157fe5b6020026020010151815260200190815260200160002060010160039054906101000a900460020b8860a001518881518110612a4857fe5b60200260200101516040518563ffffffff1660e01b8152600401612a6f94939291906158c3565b604080518083038186803b158015612a8657600080fd5b505afa158015612a9a573d6000803e3d6000fd5b505050506040513d601f19601f82011682018060405250810190612abe919061515d565b960195949094019350505b60010161296b565b506000858152600d60209081526040918290208251808401845281548152600190910154818301528251608081018452600f54815260105492810192909252601154928201929092526012546060820152612b2b916135e4565b6000868152600e602090815260409182902082518084018452815481526001909101548183015282516080810184526013548152601454928101929092526015549282019290925260165460608201529490910193612b89916135e4565b82019150509250929050565b6000828152600b60209081526040808320600180820154600d85528386208451808601865281548152920154828601528351608081018552600f54815260105495810195909552601154938501939093526012546060850152909392612bfa916135c7565b60028401546000878152600e602090815260408083208151808301835281548152600190910154818401528151608081018352601354815260145493810193909352601554918301919091526016546060830152949093019450929091612c60916135c7565b60208601519101915015612ced57835115612cb45760015460025460208601516040870151600093612ca0936001600160a01b0391821693911691613889565b602086015190930392919091019050612ced565b60025460015460208601516040870151600093612cdf936001600160a01b0391821693911691613889565b602086015193019290910390505b600080612cf987613974565b91509150600080612d0989613baf565b915091506000612d188a6106e7565b600254909150600160a01b900460ff1615612d4e5788606001518382870103038701965088608001518285030386019550612d6b565b886060015183860303870196508860800151828286010303860195505b600188018790556002880186905560008a8152600c60209081526040808320805460ff60a81b1916600160a81b179055600d9091529020612dae90600f906140fa565b5060008a8152600e60205260409020612dc9906013906140fa565b5060008a8152600d60205260409020612de490600f9061410b565b5060008a8152600e60205260409020612dff9060139061410b565b507fa5ffa54c20fe3f85702db9dfbd52388f27504faa97794a1edfe2b2cafeb1a4838a88888c606001518d60800151604051612e3f959493929190615979565b60405180910390a150505050505050505050565b600154612e6a906001600160a01b0316848461232b565b600254612e81906001600160a01b0316848361232b565b505050565b600080612ea083670de0b6b3a76400008760030154614128565b60019485018054820190559490930180549094019093555090919050565b600754600254604051635450527f60e01b8152600092839283926001600160a01b0390921691635450527f91612f0491600160a01b90910460ff1690889060040161544d565b60206040518083038186803b158015612f1c57600080fd5b505afa158015612f30573d6000803e3d6000fd5b505050506040513d601f19601f82011682018060405250810190612f549190615032565b9050600080612f6387876141d7565b91509150600080612f748989612773565b6002549193509150600160a01b900460ff1615612fb85783670de0b6b3a7640000848702040182670de0b6b3a76400008388025b0401965096505050505050612fd9565b82670de0b6b3a7640000858702040181670de0b6b3a7640000848802612fa8565b9250929050565b600080612ffa83670de0b6b3a76400008760020154614128565b84548101909455508354909201909255919050565b600082826040516020016130249291906154b4565b60405160208183030381529060405280519060200120905092915050565b600080600061305084614627565b6040805160a0810182528881526001600160801b0388166020820152600081830181905260608201524260808201526003549151630624e65f60e11b8152929350916001600160a01b0390911690630c49ccbe906130b2908490600401615570565b6040805180830381600087803b1580156130cb57600080fd5b505af11580156130df573d6000803e3d6000fd5b505050506040513d601f19601f82011682018060405250810190613103919061515d565b9094509250613114858585856146d8565b5050935093915050565b6000808261318f57600a8054600181019091556000818152600c60205260409081902080546001600160a01b03191633179055519092507f4111fcee61908834830adf60a520ba26d09f02fa4e00cfe3d2c134e32f3f8696906131829084906158f6565b60405180910390a16131b5565b6000838152600c60205260409020548392506001600160a01b031633146131b557600080fd5b506000818152600b60205260409020915091565b604080516001600160a01b0385811660248301528481166044830152606480830185905283518084039091018152608490920183526020820180516001600160e01b03166323b872dd60e01b178152925182516000948594938a169392918291908083835b6020831061324d5780518252601f19909201916020918201910161322e565b6001836020036101000a0380198251168184511680821785525050505050509050019150506000604051808303816000865af19150503d80600081146132af576040519150601f19603f3d011682016040523d82523d6000602084013e6132b4565b606091505b50915091508180156132e25750805115806132e257508080602001905160208110156132df57600080fd5b50515b613319576040805162461bcd60e51b815260206004820152600360248201526229aa2360e91b604482015290519081900360640190fd5b505050505050565b6000818152600b60209081526040808320815160e08101835281548152600182015481850152600282015481840152600382018054845181870281018701909552808552869592946060860193909291908301828280156133c157602002820191906000526020600020906000905b825461010083900a900460ff1615158152602060019283018181049485019490930390920291018084116133905790505b505050505081526020016004820180548060200260200160405190810160405280929190818152602001828054801561341957602002820191906000526020600020905b815481526020019060010190808311613405575b50505050508152602001600582018054806020026020016040519081016040528092919081815260200182805480156134a357602002820191906000526020600020906000905b82829054906101000a90046001600160801b03166001600160801b031681526020019060100190602082600f010492830192600103820291508084116134605790505b50505050508152602001600682018054806020026020016040519081016040528092919081815260200182805480156134fb57602002820191906000526020600020905b8154815260200190600101908083116134e7575b505050505081525050905060005b816080015151811015613586578160600151818151811061352657fe5b6020026020010151156135385761357e565b6135798260800151828151811061354b57fe5b60200260200101518360a00151838151811061356357fe5b60200260200101516001600160801b03166147f6565b830192505b600101613509565b5050919050565b600254610fae90600160a01b900460ff166135b3576002546001600160a01b03166135c0565b6001546001600160a01b03165b838361232b565b6000610ce882600001518460400151670de0b6b3a7640000614128565b6000610ce882602001518460600151670de0b6b3a7640000614128565b60008181526009602052604090206006810154421161362057506137bc565b6001810154600160301b90046001600160801b031615613735576006546004805460018401546040516307dff52360e51b815260009462015180946001600160a01b039182169463fbfea4609461368d949190931692600281810b936301000000909204900b9101615476565b60206040518083038186803b1580156136a557600080fd5b505afa1580156136b9573d6000803e3d6000fd5b505050506040513d601f19601f820116820180604052508101906136dd9190615032565b8360060154420302816136ec57fe5b600284018054929091049182019055905061370683614627565b6001830154600160301b90046001600160801b031682028161372457fe5b600384018054929091049091019055505b6006546004805460018401546040516334a51eed60e01b81526001600160a01b03948516946334a51eed9461377f9490911692600281810b936301000000909204900b9101615476565b600060405180830381600087803b15801561379957600080fd5b505af11580156137ad573d6000803e3d6000fd5b50505050428160060181905550505b50565b60085442116137cd57613887565b6006546000906301e13380906001600160a01b03166390d3b3796137ef6148bb565b6040518263ffffffff1660e01b815260040161380b91906158f6565b60206040518083038186803b15801561382357600080fd5b505afa158015613837573d6000803e3d6000fd5b505050506040513d601f19601f8201168201806040525081019061385b9190615032565b6008544203028161386857fe5b049050613876600f826148f1565b6138816013826148f1565b50426008555b565b60408051610100810182526001600160a01b03808716825285811660208301526101f48284015230606083015242608083015260a0820185905260c08201849052600060e08301819052925163414bf38960e01b81527f00000000000000000000000000000000000000000000000000000000000000009091169063414bf389906139189084906004016155b3565b602060405180830381600087803b15801561393257600080fd5b505af1158015613946573d6000803e3d6000fd5b505050506040513d601f19601f8201168201806040525081019061396a9190615032565b9695505050505050565b6000818152600b602052604081208190815b6004820154811015613a57578160030181815481106139a157fe5b90600052602060002090602091828204019190069054906101000a900460ff166139ca57613a4f565b60008260040182815481106139db57fe5b90600052602060002001549050600080613a436009600085815260200190815260200160002060000154866005018681548110613a1457fe5b90600052602060002090600291828204019190066010029054906101000a90046001600160801b031685613042565b97019695909501945050505b600101613986565b50600080613a6486614965565b950194939093019250600090505b6004820154811015613ba857816003018181548110613a8d57fe5b90600052602060002090602091828204019190069054906101000a900460ff16613ab657613ba0565b6000826004018281548110613ac757fe5b906000526020600020015490506009600082815260200190815260200160002060040154600c60008881526020019081526020016000206002018381548110613b0c57fe5b600091825260208083209091019290925582815260098252604080822060050154898352600c9093529020600301805484908110613b4657fe5b90600052602060002001819055506000836005018381548110613b6557fe5b90600052602060002090600291828204019190066010026101000a8154816001600160801b0302191690836001600160801b03160217905550505b600101613a72565b5050915091565b6000806000600b60008581526020019081526020016000206040518060e001604052908160008201548152602001600182015481526020016002820154815260200160038201805480602002602001604051908101604052809291908181526020018280548015613c5f57602002820191906000526020600020906000905b825461010083900a900460ff161515815260206001928301818104948501949093039092029101808411613c2e5790505b5050505050815260200160048201805480602002602001604051908101604052809291908181526020018280548015613cb757602002820191906000526020600020905b815481526020019060010190808311613ca3575b5050505050815260200160058201805480602002602001604051908101604052809291908181526020018280548015613d4157602002820191906000526020600020906000905b82829054906101000a90046001600160801b03166001600160801b031681526020019060100190602082600f01049283019260010382029150808411613cfe5790505b5050505050815260200160068201805480602002602001604051908101604052809291908181526020018280548015613d9957602002820191906000526020600020905b815481526020019060010190808311613d85575b505050919092525050506000858152600d60209081526040918290208251808401845281548152600190910154818301528251608081018452600f54815260105492810192909252601154928201929092526012546060820152919250613e0091906135e4565b6000858152600e60209081526040918290208251808401845281548152600190910154818301528251608081018452601354815260145492810192909252601554928201929092526016546060820152919450613e5d91906135e4565b91506000613e6961105e565b905060005b8260800151518110156140f25782606001518181518110613e8b57fe5b602002602001015115613e9d576140ea565b600083608001518281518110613eaf57fe5b60209081029190910181015160075460008281526009909352604083206001015460a0880151805193955084936001600160a01b0390931692632a279b28928992600282810b936301000000909304900b918a908110613f0b57fe5b60200260200101516040518563ffffffff1660e01b8152600401613f3294939291906158c3565b604080518083038186803b158015613f4957600080fd5b505afa158015613f5d573d6000803e3d6000fd5b505050506040513d601f19601f82011682018060405250810190613f81919061515d565b915091508560a001518481518110613f9557fe5b60209081029190910181015160008581526009835260408082206001810180546001600160801b03600160301b8083048216979097031690950275ffffffffffffffffffffffffffffffff0000000000001990951694909417909355805160c0810182529254835292820185905281830184905260608201819052608082018190524260a0830152600354925163219f5d1760e01b81529192909182916001600160a01b03169063219f5d17906140509086906004016155c2565b606060405180830381600087803b15801561406a57600080fd5b505af115801561407e573d6000803e3d6000fd5b505050506040513d601f19601f820116820180604052508101906140a29190614f39565b9250925050818b019a50808a01995060008960a0015188815181106140c357fe5b60200260200101906001600160801b031690816001600160801b0316815250505050505050505b600101613e6e565b505050915091565b805482540390915560009081905590565b600190810180549290910180549290920390915560009081905590565b600080806000198587098686029250828110908390030390508061415e576000841161415357600080fd5b508290049050610ce8565b80841161416a57600080fd5b6000848688096000868103871696879004966002600389028118808a02820302808a02820302808a02820302808a02820302808a02820302808a02909103029181900381900460010186841190950394909402919094039290920491909117919091029150509392505050565b6000806000600b60008681526020019081526020016000206040518060e00160405290816000820154815260200160018201548152602001600282015481526020016003820180548060200260200160405190810160405280929190818152602001828054801561428757602002820191906000526020600020906000905b825461010083900a900460ff1615158152602060019283018181049485019490930390920291018084116142565790505b50505050508152602001600482018054806020026020016040519081016040528092919081815260200182805480156142df57602002820191906000526020600020905b8154815260200190600101908083116142cb575b505050505081526020016005820180548060200260200160405190810160405280929190818152602001828054801561436957602002820191906000526020600020906000905b82829054906101000a90046001600160801b03166001600160801b031681526020019060100190602082600f010492830192600103820291508084116143265790505b50505050508152602001600682018054806020026020016040519081016040528092919081815260200182805480156143c157602002820191906000526020600020905b8154815260200190600101908083116143ad575b505050505081525050905060005b81608001515181101561453457816060015181815181106143ec57fe5b60200260200101516143fd5761452c565b600080600760009054906101000a90046001600160a01b03166001600160a01b0316632a279b2888600960008860800151888151811061443957fe5b6020026020010151815260200190815260200160002060010160009054906101000a900460020b600960008960800151898151811061447457fe5b6020026020010151815260200190815260200160002060010160039054906101000a900460020b8860a0015188815181106144ab57fe5b60200260200101516040518563ffffffff1660e01b81526004016144d294939291906158c3565b604080518083038186803b1580156144e957600080fd5b505afa1580156144fd573d6000803e3d6000fd5b505050506040513d601f19601f82011682018060405250810190614521919061515d565b960195949094019350505b6001016143cf565b5060008061454187614965565b6000898152600d60209081526040918290208251808401845281548152600190910154818301528251608081018452600f5481526010549281019290925260115492820192909252601254606082015297830197968201969294509092506145a991906135c7565b6000888152600e602090815260409182902082518084018452815481526001909101548183015282516080810184526013548152601454928101929092526015549282019290925260165460608201529690910195614607916135c7565b840193508260200151850194508260400151840193505050509250929050565b60035460008281526009602052604080822054905163133f757160e31b8152919283926001600160a01b03909116916399fbab889161466991906004016158f6565b6101806040518083038186803b15801561468257600080fd5b505afa158015614696573d6000803e3d6000fd5b505050506040513d601f19601f820116820180604052508101906146ba9190615253565b50506001600160801b039092169a5050505050505050505050919050565b6040805160808101825260008681526009602090815283822054835230908301526001600160801b038284018190526060830152600354925163fc6f786560e01b81529192909182916001600160a01b03169063fc6f78659061473f90869060040161552d565b6040805180830381600087803b15801561475857600080fd5b505af115801561476c573d6000803e3d6000fd5b505050506040513d601f19601f82011682018060405250810190614790919061515d565b9150915083600160801b87840302816147a557fe5b6000898152600960205260409020600401805492909104909101905583600160801b86830302816147d257fe5b60009889526009602052604090982060050180549190980401909655505050505050565b60065460048054600085815260096020526040808220600101549051631958849360e11b81529194670de0b6b3a7640000946001600160a01b03918216946332b109269461485a949190931692600282810b936301000000909304900b9101615476565b60206040518083038186803b15801561487257600080fd5b505afa158015614886573d6000803e3d6000fd5b505050506040513d601f19601f820116820180604052508101906148aa9190615032565b8302816148b357fe5b049392505050565b600f546000906148d45750670de0b6b3a7640000610648565b600f54601054670de0b6b3a764000002816148eb57fe5b04905090565b81546148fc57610fae565b61491d826003015482670de0b6b3a764000001670de0b6b3a7640000614128565b60038301556001820154825460009161493891849190614128565b670de0b6b3a764000001905061495b836002015482670de0b6b3a7640000614128565b6002840155505050565b6000806000600b60008581526020019081526020016000206040518060e001604052908160008201548152602001600182015481526020016002820154815260200160038201805480602002602001604051908101604052809291908181526020018280548015614a1557602002820191906000526020600020906000905b825461010083900a900460ff1615158152602060019283018181049485019490930390920291018084116149e45790505b5050505050815260200160048201805480602002602001604051908101604052809291908181526020018280548015614a6d57602002820191906000526020600020905b815481526020019060010190808311614a59575b5050505050815260200160058201805480602002602001604051908101604052809291908181526020018280548015614af757602002820191906000526020600020906000905b82829054906101000a90046001600160801b03166001600160801b031681526020019060100190602082600f01049283019260010382029150808411614ab45790505b5050505050815260200160068201805480602002602001604051908101604052809291908181526020018280548015614b4f57602002820191906000526020600020905b815481526020019060010190808311614b3b575b505050505081525050905060005b816080015151811015613ba85781606001518181518110614b7a57fe5b6020026020010151614b8b57614c93565b600082608001518281518110614b9d57fe5b60200260200101519050600160801b8360a001518381518110614bbc57fe5b60200260200101516001600160801b0316600c60008981526020019081526020016000206002018481548110614bee57fe5b90600052602060002001546009600085815260200190815260200160002060040154030281614c1957fe5b049450600160801b8360a001518381518110614c3157fe5b60200260200101516001600160801b0316600c60008981526020019081526020016000206003018481548110614c6357fe5b90600052602060002001546009600085815260200190815260200160002060050154030281614c8e57fe5b049350505b600101614b5d565b60405180610120016040528060008152602001600060020b8152602001600060020b815260200160006001600160801b0316815260200160008152602001600081526020016000815260200160008152602001600081525090565b6040518060a0016040528060008152602001600081526020016000815260200160008152602001606081525090565b60408051608081018252600080825260208201819052918101829052606081019190915290565b805161049a816159c0565b600082601f830112614d67578081fd5b813567ffffffffffffffff811115614d7b57fe5b614d8e601f8201601f191660200161599c565b818152846020838601011115614da2578283fd5b816020850160208301379081016020019190915292915050565b805161049a816159e3565b805161049a816159f2565b805161ffff8116811461049a57600080fd5b805162ffffff8116811461049a57600080fd5b600060208284031215614e08578081fd5b8135610ce8816159c0565b60006020808385031215614e25578182fd5b823567ffffffffffffffff80821115614e3c578384fd5b818501915085601f830112614e4f578384fd5b813581811115614e5b57fe5b614e68848583020161599c565b8181528481019250838501865b83811015614e9e57614e8c8a888435890101614d57565b85529386019390860190600101614e75565b509098975050505050505050565b600080600060608486031215614ec0578182fd5b8335614ecb816159d5565b95602085013595506040909401359392505050565b600060208284031215614ef1578081fd5b5035919050565b600080600060608486031215614f0c578283fd5b833592506020840135614f1e816159f2565b91506040840135614f2e816159c0565b809150509250925092565b600080600060608486031215614f4d578283fd5b8351614f58816159f2565b602085015160409095015190969495509392505050565b600080600080600080600060e0888a031215614f89578283fd5b8751614f94816159c0565b6020890151909750614fa5816159e3565b9550614fb360408901614dd2565b9450614fc160608901614dd2565b9350614fcf60808901614dd2565b925060a088015160ff81168114614fe4578283fd5b60c0890151909250614ff5816159d5565b8091505092959891949750929550565b60008060408385031215615017578182fd5b8251615022816159c0565b6020939093015192949293505050565b600060208284031215615043578081fd5b5051919050565b6000806000806080858703121561505f578182fd5b843593506020850135615071816159d5565b93969395505050506040820135916060013590565b600080600080600060a0868803121561509d578283fd5b8551945060208601516150af816159d5565b6040870151606088015160809098015196999198509695945092505050565b600080600080608085870312156150e3578182fd5b8435935060208501356150f5816159e3565b92506040850135615105816159e3565b91506060850135615115816159f2565b939692955090935050565b60008060008060808587031215615135578182fd5b845193506020850151615147816159f2565b6040860151606090960151949790965092505050565b6000806040838503121561516f578182fd5b505080516020909101519092909150565b60008060008060008060c08789031215615198578384fd5b863595506020870135945060408701356151b1816159d5565b9350606087013567ffffffffffffffff8111156151cc578283fd5b6151d889828a01614d57565b9350506080870135915060a087013590509295509295509295565b600080600060608486031215615207578081fd5b505081359360208301359350604090920135919050565b60008060008060808587031215615233578182fd5b8435935060208501359250604085013591506060850135615115816159d5565b6000806000806000806000806000806000806101808d8f031215615275578586fd5b8c516bffffffffffffffffffffffff81168114615290578687fd5b9b5061529e60208e01614d4c565b9a506152ac60408e01614d4c565b99506152ba60608e01614d4c565b98506152c860808e01614de4565b97506152d660a08e01614dbc565b96506152e460c08e01614dbc565b95506152f260e08e01614dc7565b94506101008d015193506101208d015192506153116101408e01614dc7565b91506153206101608e01614dc7565b90509295989b509295989b509295989b565b6001600160a01b03169052565b6000815180845260208085019450808401835b8381101561536e57815187529582019590820190600101615352565b509495945050505050565b6000815180845260208085019450808401835b8381101561536e5781516001600160801b03168752958201959082019060010161538c565b60020b9052565b80516001600160a01b03908116835260208083015182169084015260408083015162ffffff16908401526060808301518216908401526080808301519084015260a0828101519084015260c0808301519084015260e09182015116910152565b6001600160801b03169052565b62ffffff169052565b6001600160a01b0391909116815260200190565b901515815260200190565b91151582526001600160a01b0316602082015260400190565b9115158252602082015260400190565b6001600160a01b03939093168352600291820b6020840152900b604082015260600190565b6001600160a01b03929092168252602082015260400190565b600292830b8152910b602082015260400190565b6020808252601390820152723b30bab63a1034b9903737ba103230b733b2b960691b604082015260600190565b602080825260029082015261503360f01b604082015260600190565b602080825260029082015261281960f11b604082015260600190565b815181526020808301516001600160a01b0316908201526040808301516001600160801b0390811691830191909152606092830151169181019190915260800190565b600060a082019050825182526001600160801b03602084015116602083015260408301516040830152606083015160608301526080830151608083015292915050565b610100810161095482846153b8565b600060c082019050825182526020830151602083015260408301516040830152606083015160608301526080830151608083015260a083015160a083015292915050565b60006101608201905061561a828451615332565b602083015161562c6020840182615332565b50604083015161563f6040840182615425565b50606083015161565260608401826153b1565b50608083015161566560808401826153b1565b5060a083015160a083015260c083015160c083015260e083015160e0830152610100808401518184015250610120808401516156a382850182615332565b505061014092830151919092015290565b60006101208201905082518252602083015160020b6020830152604083015160020b604083015260608301516156ed6060840182615418565b506080830151608083015260a083015160a083015260c083015160c083015260e083015160e083015261010080840151818401525092915050565b6000602080835260c083018451828501528185015160408181870152808701519150606082818801528088015192506080838189015280890151935060a08089015284845180875260e08a01915087860196508895505b808610156157cb578651805115158352888101516001600160801b03168984015285810151600290810b8785015290850151900b8483015295870195600195909501949082019061577f565b509998505050505050505050565b60608082528451828201526020808601516080840152604086015160a08401529085015160e060c084015280516101408401819052600092918201919083906101608601905b808310156158415784511515825293830193600192909201919083019061581f565b5060808901519350605f199150818682030160e0870152615862818561533f565b93505060a0880151818685030161010087015261587f8482615379565b93505060c0880151818685030161012087015261589c848261533f565b9450505085818501525050826040830152949350505050565b918252602082015260400190565b6001600160a01b03949094168452600292830b6020850152910b60408301526001600160801b0316606082015260800190565b90815260200190565b6000848252602084151581840152606060408401528351806060850152825b8181101561593a5785810183015185820160800152820161591e565b8181111561594b5783608083870101525b50601f01601f19169290920160800195945050505050565b9283526020830191909152604082015260600190565b948552602085019390935260408401919091526060830152608082015260a00190565b60405181810167ffffffffffffffff811182821017156159b857fe5b604052919050565b6001600160a01b03811681146137bc57600080fd5b80151581146137bc57600080fd5b8060020b81146137bc57600080fd5b6001600160801b03811681146137bc57600080fdfe4f776e61626c653a206e6577206f776e657220697320746865207a65726f20616464726573734f776e61626c653a2063616c6c6572206973206e6f7420746865206f776e6572a2646970667358221220c572887b21b5c79128e3d11e3287742ad1093bee957347af553066d7de80019964736f6c63430007060033",
  "deployedBytecode": "0x608060405234801561001057600080fd5b50600436106101cf5760003560e01c80635ce20ffb11610104578063aa763556116100a2578063e7ebf0bd11610071578063e7ebf0bd146103b3578063e9948e31146103c6578063eb02c301146103ce578063f2fde38b146103ee576101cf565b8063aa76355614610367578063bc5b6c471461037a578063c83939cf1461038d578063cb68c122146103a0576101cf565b8063715018a6116100de578063715018a61461034757806386e6862d1461034f5780638da5cb5b1461035757806398d5fdca1461035f576101cf565b80635ce20ffb1461030e578063627af7541461032157806365b5f6e314610334576101cf565b806336fae6de1161017157806349ebb77d1161014b57806349ebb77d146102af578063517ede9d146102d157806354dbbcc1146102e657806355585a08146102f9576101cf565b806336fae6de1461026857806346f9697f1461027b57806349b732391461029c576101cf565b8063076d0815116101ad578063076d0815146102275780630a3cb3741461023a57806320f3df8e1461024d57806326d8d4f914610260576101cf565b8063013216f5146101d457806305d719f1146101fd57806305ecd00314610212575b600080fd5b6101e76101e2366004614ee0565b610401565b6040516101f491906156b4565b60405180910390f35b61021061020b366004614df7565b61049f565b005b61021a610523565b6040516101f491906158f6565b610210610235366004614ee0565b61064b565b61021a610248366004614ee0565b6106e7565b61021061025b36600461504a565b61095a565b61021a610a71565b6102106102763660046151f3565b610a77565b61028e610289366004614ef8565b610acb565b6040516101f49291906158b5565b61021a6102aa366004614eac565b610b7e565b6102c26102bd366004614ee0565b610cef565b6040516101f493929190615963565b6102d9610d33565b6040516101f49190615442565b6102106102f4366004614df7565b610d43565b610301610dc7565b6040516101f4919061542e565b61021061031c36600461521e565b610dd6565b61021061032f36600461504a565b610e57565b610210610342366004614e13565b610eb9565b610210610fb2565b61030161105e565b6103016110f2565b61021a611101565b61028e6103753660046150ce565b61119e565b61021a610388366004615180565b611370565b61021061039b36600461504a565b6115d2565b6102106103ae366004614df7565b61167e565b61028e6103c13660046150ce565b611702565b610301611bec565b6103e16103dc366004614ee0565b611bfb565b6040516101f49190615728565b6102106103fc366004614df7565b612126565b610409614c9b565b50600081815260096020908152604091829020825161012081018452815481526001820154600281810b810b810b9483019490945263010000008104840b840b840b94820194909452600160301b9093046001600160801b03166060840152908101546080830152600381015460a0830152600481015460c0830152600581015460e0830152600601546101008201525b919050565b6104a7612327565b6001600160a01b03166104b86110f2565b6001600160a01b031614610501576040805162461bcd60e51b81526020600482018190526024820152600080516020615a2e833981519152604482015290519081900360640190fd5b600680546001600160a01b0319166001600160a01b0392909216919091179055565b6007546004805460405163269b267f60e01b815260009384936001600160a01b039182169363269b267f9361055f9390911691603c910161549b565b604080518083038186803b15801561057657600080fd5b505afa15801561058a573d6000803e3d6000fd5b505050506040513d601f19601f820116820180604052508101906105ae9190615005565b50600754600254604051635450527f60e01b81526001600160a01b0393841694509190921691635450527f916105f49160ff600160a01b90910416908590600401615466565b60206040518083038186803b15801561060c57600080fd5b505afa158015610620573d6000803e3d6000fd5b505050506040513d601f19601f820116820180604052508101906106449190615032565b9150505b90565b6000818152600c602052604090205481906001600160a01b0316331461067057600080fd5b6000828152600b60209081526040808320600c90925290912054600160a81b900460ff1661069d57600080fd5b6001808201805460028401805460009384905592905591546106c9906001600160a01b0316338461232b565b6002546106e0906001600160a01b0316338361232b565b5050505050565b6000818152600b60209081526040808320815160e0810183528154815260018201548185015260028201548184015260038201805484518187028101870190955280855291949293606086019390929083018282801561078657602002820191906000526020600020906000905b825461010083900a900460ff1615158152602060019283018181049485019490930390920291018084116107555790505b50505050508152602001600482018054806020026020016040519081016040528092919081815260200182805480156107de57602002820191906000526020600020905b8154815260200190600101908083116107ca575b505050505081526020016005820180548060200260200160405190810160405280929190818152602001828054801561086857602002820191906000526020600020906000905b82829054906101000a90046001600160801b03166001600160801b031681526020019060100190602082600f010492830192600103820291508084116108255790505b50505050508152602001600682018054806020026020016040519081016040528092919081815260200182805480156108c057602002820191906000526020600020905b8154815260200190600101908083116108ac575b505050919092525050604051639ee6986560e01b815273__$b4a4919001844372a79711112cfb20c2b9$__92639ee6986592506109049160099087906004016157d9565b60206040518083038186803b15801561091c57600080fd5b505af4158015610930573d6000803e3d6000fd5b505050506040513d601f19601f820116820180604052508101906109549190615032565b92915050565b61096384612472565b61096c84612697565b61097557600080fd5b6007546004805460405163269b267f60e01b81526000936001600160a01b039081169363269b267f936109ae93921691603c910161549b565b604080518083038186803b1580156109c557600080fd5b505afa1580156109d9573d6000803e3d6000fd5b505050506040513d601f19601f820116820180604052508101906109fd9190615005565b509050600080610a0d8784612773565b9150915060006040518060a00160405280881515815260200187815260200186815260200160648581610a3c57fe5b0481526020016064840490529050610a548882612b95565b610a673382606001518360800151612e53565b5050505050505050565b600a5481565b6005546001600160a01b03163314610a8e57600080fd5b6000838152600d60205260409020610aa990600f9084612e86565b506000838152600e60205260409020610ac59060139084612e86565b50505050565b600754600084815260096020526040808220600101549051630544f36560e31b8152919283926001600160a01b0390911691632a279b2891610b23918791600282810b9263010000009004900b908a906004016158c3565b604080518083038186803b158015610b3a57600080fd5b505afa158015610b4e573d6000803e3d6000fd5b505050506040513d601f19601f82011682018060405250810190610b72919061515d565b91509150935093915050565b6005546000906001600160a01b03163314610b9857600080fd5b600060405180610100016040528086610bbc576002546001600160a01b0316610bc9565b6001546001600160a01b03165b6001600160a01b0316815260200186610bed576001546001600160a01b0316610bfa565b6002546001600160a01b03165b6001600160a01b031681526020016101f462ffffff168152602001306001600160a01b0316815260200142815260200185815260200184815260200160006001600160a01b031681525090507f00000000000000000000000000000000000000000000000000000000000000006001600160a01b031663db3e2198826040518263ffffffff1660e01b8152600401610c9291906155b3565b602060405180830381600087803b158015610cac57600080fd5b505af1158015610cc0573d6000803e3d6000fd5b505050506040513d601f19601f82011682018060405250810190610ce49190615032565b9150505b9392505050565b600080600080610cfd61105e565b9050610d0885612472565b600080610d158784612ebe565b915091506000610d24886106e7565b92989197509195509350505050565b600254600160a01b900460ff1681565b610d4b612327565b6001600160a01b0316610d5c6110f2565b6001600160a01b031614610da5576040805162461bcd60e51b81526020600482018190526024820152600080516020615a2e833981519152604482015290519081900360640190fd5b600580546001600160a01b0319166001600160a01b0392909216919091179055565b6005546001600160a01b031681565b6005546001600160a01b03163314610ded57600080fd5b8015610e30576000848152600d60205260409020610e0e90600f9085612fe0565b506000848152600e60205260409020610e2a9060139085612fe0565b50610ac5565b6000848152600b602052604090206001810180548501905560020180548301905550505050565b6000848152600c602052604090205484906001600160a01b03163314610e7c57600080fd5b610e8585612472565b6106e0856040518060a001604052808715158152602001868152602001858152602001600081526020016000815250612b95565b610ec1612327565b6001600160a01b0316610ed26110f2565b6001600160a01b031614610f1b576040805162461bcd60e51b81526020600482018190526024820152600080516020615a2e833981519152604482015290519081900360640190fd5b60005b8151811015610fae576000806000806000868681518110610f3b57fe5b6020026020010151806020019051810190610f569190615086565b94509450945094509450610f6985612472565b610f9d856040518060a001604052808715158152602001868152602001858152602001600081526020016000815250612b95565b505060019093019250610f1e915050565b5050565b610fba612327565b6001600160a01b0316610fcb6110f2565b6001600160a01b031614611014576040805162461bcd60e51b81526020600482018190526024820152600080516020615a2e833981519152604482015290519081900360640190fd5b600080546040516001600160a01b03909116907f8be0079c531659141344cd1fd0a4f28419497f9722a3daafe3b4186f6b6457e0908390a3600080546001600160a01b0319169055565b6000600460009054906101000a90046001600160a01b03166001600160a01b0316633850c7bd6040518163ffffffff1660e01b815260040160e06040518083038186803b1580156110ae57600080fd5b505afa1580156110c2573d6000803e3d6000fd5b505050506040513d601f19601f820116820180604052508101906110e69190614f6f565b50949695505050505050565b6000546001600160a01b031690565b6007546002546000916001600160a01b031690635450527f90600160a01b900460ff1661112c61105e565b6040518363ffffffff1660e01b815260040161114992919061544d565b60206040518083038186803b15801561116157600080fd5b505afa158015611175573d6000803e3d6000fd5b505050506040513d601f19601f820116820180604052508101906111999190615032565b905090565b60055460009081906001600160a01b031633146111ba57600080fd5b60006111c6868661300f565b6000818152600960205260408120549192509081906111e6908785613042565b91509150856009600085815260200190815260200160002060010160068282829054906101000a90046001600160801b03160192506101000a8154816001600160801b0302191690836001600160801b031602179055506000600b60008b8152602001908152602001600020905080600301600090806001815401808255809150506001900390600052602060002090602091828204019190069091909190916101000a81548160ff02191690831515021790555080600401849080600181540180825580915050600190039060005260206000200160009091909190915055806005018790806001815401808255809150506001900390600052602060002090600291828204019190066010029091909190916101000a8154816001600160801b0302191690836001600160801b0316021790555080600601600960008681526020019081526020016000206002015490806001815401808255809150506001900390600052602060002001600090919091909150558282955095505050505094509492505050565b600061137b87612472565b60006113868861311e565b6040516331442a6760e01b8152919350915073__$b4a4919001844372a79711112cfb20c2b9$__906331442a67906113c49084908b906004016158b5565b60006040518083038186803b1580156113dc57600080fd5b505af41580156113f0573d6000803e3d6000fd5b5050506000838152600c60205260409020805460ff60a01b1916600160a01b89151581029190911790915560025460ff9190041615905061146257600154611445906001600160a01b031633308a88016131c9565b60025461145d906001600160a01b03163330866131c9565b611494565b60015461147a906001600160a01b03163330876131c9565b600254611494906001600160a01b031633308a87016131c9565b6005546040516317bf243360e31b815260009182916001600160a01b039091169063bdf92198906114cd9087908c908c906004016158ff565b6040805180830381600087803b1580156114e657600080fd5b505af11580156114fa573d6000803e3d6000fd5b505050506040513d601f19601f8201168201806040525081019061151e919061515d565b91509150600061152d85613321565b9050808460000154101561155c5760405162461bcd60e51b815260040161155390615511565b60405180910390fd5b61156585612697565b156115825760405162461bcd60e51b8152600401611553906154f5565b828711156115a3576001546115a3906001600160a01b031633858a0361232b565b818611156115c4576002546115c4906001600160a01b03163384890361232b565b505050509695505050505050565b6115db84612472565b60006115e6856106e7565b905060006115f386613321565b90508082106116145760405162461bcd60e51b8152600401611553906154c8565b6040805160a0810182528615158152602081018690529081018490526000606082018190526080820152600254606483049190600160a01b900460ff1615611662576060810182905261166a565b608081018290525b6116748882612b95565b610a67338361358d565b611686612327565b6001600160a01b03166116976110f2565b6001600160a01b0316146116e0576040805162461bcd60e51b81526020600482018190526024820152600080516020615a2e833981519152604482015290519081900360640190fd5b600780546001600160a01b0319166001600160a01b0392909216919091179055565b60055460009081906001600160a01b0316331461171e57600080fd5b600061172a868661300f565b60075490915060009081906001600160a01b0316632a279b2861174b61105e565b8a8a8a6040518563ffffffff1660e01b815260040161176d94939291906158c3565b604080518083038186803b15801561178457600080fd5b505afa158015611798573d6000803e3d6000fd5b505050506040513d601f19601f820116820180604052508101906117bc919061515d565b600085815260096020526040812054929450909250901561189f576040805160c08101825260008681526009602090815283822054835282018690528183018590526060820181905260808201524260a0820152600354915163219f5d1760e01b815290916001600160a01b03169063219f5d179061183f9084906004016155c2565b606060405180830381600087803b15801561185957600080fd5b505af115801561186d573d6000803e3d6000fd5b505050506040513d601f19601f820116820180604052508101906118919190614f39565b90985096509150611a189050565b60408051610160810182526001546001600160a01b03908116825260028054821660208401526101f4838501528c810b60608401528b900b608083015260a0820186905260c08201859052600060e0830181905261010083015230610120830152426101408301526003549251634418b22b60e11b81529192169063883164569061192e908490600401615606565b608060405180830381600087803b15801561194857600080fd5b505af115801561195c573d6000803e3d6000fd5b505050506040513d601f19601f820116820180604052508101906119809190615120565b600960008a81526020019081526020016000206000016000829b50839c50849750859190505550505050896009600087815260200190815260200160002060010160006101000a81548162ffffff021916908360020b62ffffff160217905550886009600087815260200190815260200160002060010160036101000a81548162ffffff021916908360020b62ffffff160217905550505b6000600b60008c8152602001908152602001600020905080600301600190806001815401808255809150506001900390600052602060002090602091828204019190069091909190916101000a81548160ff02191690831515021790555080600401859080600181540180825580915050600190039060005260206000200160009091909190915055806005018290806001815401808255809150506001900390600052602060002090600291828204019190066010029091909190916101000a8154816001600160801b0302191690836001600160801b031602179055508060060160096000878152602001908152602001600020600201549080600181540180825580915050600190039060005260206000200160009091909190915055600c60008c815260200190815260200160002060020160096000878152602001908152602001600020600401549080600181540180825580915050600190039060005260206000200160009091909190915055600c60008c815260200190815260200160002060030160096000878152602001908152602001600020600501549080600181540180825580915050600190039060005260206000200160009091909190915055505050505094509492505050565b6006546001600160a01b031681565b611c03614cf6565b6000828152600b60209081526040808320815160e08101835281548152600182015481850152600282015481840152600382018054845181870281018701909552808552919492936060860193909290830182828015611ca257602002820191906000526020600020906000905b825461010083900a900460ff161515815260206001928301818104948501949093039092029101808411611c715790505b5050505050815260200160048201805480602002602001604051908101604052809291908181526020018280548015611cfa57602002820191906000526020600020905b815481526020019060010190808311611ce6575b5050505050815260200160058201805480602002602001604051908101604052809291908181526020018280548015611d8457602002820191906000526020600020906000905b82829054906101000a90046001600160801b03166001600160801b031681526020019060100190602082600f01049283019260010382029150808411611d415790505b5050505050815260200160068201805480602002602001604051908101604052809291908181526020018280548015611ddc57602002820191906000526020600020905b815481526020019060010190808311611dc8575b5050505050815250509050600081608001515167ffffffffffffffff81118015611e0557600080fd5b50604051908082528060200260200182016040528015611e3f57816020015b611e2c614d25565b815260200190600190039081611e245790505b50905060005b826080015151811015611f9157600083608001518281518110611e6457fe5b602090810291909101810151600081815260098352604090819020815161012081018352815481526001820154600281810b810b810b9683019690965263010000008104860b860b860b82850152600160301b90046001600160801b031660608083019190915294820154608080830191909152600383015460a0830152600483015460c0830152600583015460e0830152600690920154610100820152825191820190925292870151805192945090929182919086908110611f2357fe5b6020026020010151151581526020018660a001518581518110611f4257fe5b60200260200101516001600160801b03168152602001826020015160020b8152602001826040015160020b815250848481518110611f7c57fe5b60209081029190910101525050600101611e45565b506040805160a081018083526020808601516000898152600d835285902060e085018652805484526001015460c08501528451608081018652600f54815260105492810192909252601154948201949094526012546060820152919283929091611ffb91906135c7565b0181526040808501516000888152600e6020908152908390208351808501855281548152600190910154818301528351608081018552601354815260145481840152601554948101949094526016546060850152930192909161205d916135c7565b0181526000868152600d60209081526040918290208251808401845281548152600190910154818301528251608081018452600f548152601054818401526011549381019390935260125460608401529201916120ba91906135e4565b81526000868152600e6020908152604091829020825180840184528154815260019091015481830152825160808101845260135481526014548184015260155493810193909352601654606084015292019161211691906135e4565b8152602001919091529392505050565b61212e612327565b6001600160a01b031661213f6110f2565b6001600160a01b031614612188576040805162461bcd60e51b81526020600482018190526024820152600080516020615a2e833981519152604482015290519081900360640190fd5b6001600160a01b0381166121cd5760405162461bcd60e51b8152600401808060200182810382526026815260200180615a086026913960400191505060405180910390fd5b600080546040516001600160a01b03808516939216917f8be0079c531659141344cd1fd0a4f28419497f9722a3daafe3b4186f6b6457e091a3600080546001600160a01b0319166001600160a01b0392909216919091179055565b600081602001516001600160a01b031682600001516001600160a01b03161061225057600080fd5b50805160208083015160409384015184516001600160a01b0394851681850152939091168385015262ffffff166060808401919091528351808403820181526080840185528051908301206001600160f81b031960a085015294901b6bffffffffffffffffffffffff191660a183015260b58201939093527fe34f199b19b2b4f47f68442619d555527d244f78a3297ea89325f843f87b8b5460d5808301919091528251808303909101815260f5909101909152805191012090565b670de0b6b3a764000060028201819055600390910155600090565b3390565b604080516001600160a01b038481166024830152604480830185905283518084039091018152606490920183526020820180516001600160e01b031663a9059cbb60e01b1781529251825160009485949389169392918291908083835b602083106123a75780518252601f199092019160209182019101612388565b6001836020036101000a0380198251168184511680821785525050505050509050019150506000604051808303816000865af19150503d8060008114612409576040519150601f19603f3d011682016040523d82523d6000602084013e61240e565b606091505b509150915081801561243c57508051158061243c575080806020019051602081101561243957600080fd5b50515b6106e0576040805162461bcd60e51b815260206004820152600260248201526114d560f21b604482015290519081900360640190fd5b6000818152600b60209081526040808320815160e0810183528154815260018201548185015260028201548184015260038201805484518187028101870190955280855291949293606086019390929083018282801561251157602002820191906000526020600020906000905b825461010083900a900460ff1615158152602060019283018181049485019490930390920291018084116124e05790505b505050505081526020016004820180548060200260200160405190810160405280929190818152602001828054801561256957602002820191906000526020600020905b815481526020019060010190808311612555575b50505050508152602001600582018054806020026020016040519081016040528092919081815260200182805480156125f357602002820191906000526020600020906000905b82829054906101000a90046001600160801b03166001600160801b031681526020019060100190602082600f010492830192600103820291508084116125b05790505b505050505081526020016006820180548060200260200160405190810160405280929190818152602001828054801561264b57602002820191906000526020600020905b815481526020019060010190808311612637575b505050505081525050905060005b81608001515181101561268e576126868260800151828151811061267957fe5b6020026020010151613601565b600101612659565b50610fae6137bf565b6000818152600c6020526040812054600160a01b900460ff161561276b576007546004805460405163269b267f60e01b81526000936001600160a01b039081169363269b267f936126ee93921691603c910161549b565b604080518083038186803b15801561270557600080fd5b505afa158015612719573d6000803e3d6000fd5b505050506040513d601f19601f8201168201806040525081019061273d9190615005565b50905060008061274d8584612ebe565b91509150806004836003028161275f57fe5b0410935050505061049a565b506000919050565b6000806000600b60008681526020019081526020016000206040518060e00160405290816000820154815260200160018201548152602001600282015481526020016003820180548060200260200160405190810160405280929190818152602001828054801561282357602002820191906000526020600020906000905b825461010083900a900460ff1615158152602060019283018181049485019490930390920291018084116127f25790505b505050505081526020016004820180548060200260200160405190810160405280929190818152602001828054801561287b57602002820191906000526020600020905b815481526020019060010190808311612867575b505050505081526020016005820180548060200260200160405190810160405280929190818152602001828054801561290557602002820191906000526020600020906000905b82829054906101000a90046001600160801b03166001600160801b031681526020019060100190602082600f010492830192600103820291508084116128c25790505b505050505081526020016006820180548060200260200160405190810160405280929190818152602001828054801561295d57602002820191906000526020600020905b815481526020019060010190808311612949575b505050505081525050905060005b816080015151811015612ad1578160600151818151811061298857fe5b60200260200101511561299a57612ac9565b600080600760009054906101000a90046001600160a01b03166001600160a01b0316632a279b288860096000886080015188815181106129d657fe5b6020026020010151815260200190815260200160002060010160009054906101000a900460020b6009600089608001518981518110612a1157fe5b6020026020010151815260200190815260200160002060010160039054906101000a900460020b8860a001518881518110612a4857fe5b60200260200101516040518563ffffffff1660e01b8152600401612a6f94939291906158c3565b604080518083038186803b158015612a8657600080fd5b505afa158015612a9a573d6000803e3d6000fd5b505050506040513d601f19601f82011682018060405250810190612abe919061515d565b960195949094019350505b60010161296b565b506000858152600d60209081526040918290208251808401845281548152600190910154818301528251608081018452600f54815260105492810192909252601154928201929092526012546060820152612b2b916135e4565b6000868152600e602090815260409182902082518084018452815481526001909101548183015282516080810184526013548152601454928101929092526015549282019290925260165460608201529490910193612b89916135e4565b82019150509250929050565b6000828152600b60209081526040808320600180820154600d85528386208451808601865281548152920154828601528351608081018552600f54815260105495810195909552601154938501939093526012546060850152909392612bfa916135c7565b60028401546000878152600e602090815260408083208151808301835281548152600190910154818401528151608081018352601354815260145493810193909352601554918301919091526016546060830152949093019450929091612c60916135c7565b60208601519101915015612ced57835115612cb45760015460025460208601516040870151600093612ca0936001600160a01b0391821693911691613889565b602086015190930392919091019050612ced565b60025460015460208601516040870151600093612cdf936001600160a01b0391821693911691613889565b602086015193019290910390505b600080612cf987613974565b91509150600080612d0989613baf565b915091506000612d188a6106e7565b600254909150600160a01b900460ff1615612d4e5788606001518382870103038701965088608001518285030386019550612d6b565b886060015183860303870196508860800151828286010303860195505b600188018790556002880186905560008a8152600c60209081526040808320805460ff60a81b1916600160a81b179055600d9091529020612dae90600f906140fa565b5060008a8152600e60205260409020612dc9906013906140fa565b5060008a8152600d60205260409020612de490600f9061410b565b5060008a8152600e60205260409020612dff9060139061410b565b507fa5ffa54c20fe3f85702db9dfbd52388f27504faa97794a1edfe2b2cafeb1a4838a88888c606001518d60800151604051612e3f959493929190615979565b60405180910390a150505050505050505050565b600154612e6a906001600160a01b0316848461232b565b600254612e81906001600160a01b0316848361232b565b505050565b600080612ea083670de0b6b3a76400008760030154614128565b60019485018054820190559490930180549094019093555090919050565b600754600254604051635450527f60e01b8152600092839283926001600160a01b0390921691635450527f91612f0491600160a01b90910460ff1690889060040161544d565b60206040518083038186803b158015612f1c57600080fd5b505afa158015612f30573d6000803e3d6000fd5b505050506040513d601f19601f82011682018060405250810190612f549190615032565b9050600080612f6387876141d7565b91509150600080612f748989612773565b6002549193509150600160a01b900460ff1615612fb85783670de0b6b3a7640000848702040182670de0b6b3a76400008388025b0401965096505050505050612fd9565b82670de0b6b3a7640000858702040181670de0b6b3a7640000848802612fa8565b9250929050565b600080612ffa83670de0b6b3a76400008760020154614128565b84548101909455508354909201909255919050565b600082826040516020016130249291906154b4565b60405160208183030381529060405280519060200120905092915050565b600080600061305084614627565b6040805160a0810182528881526001600160801b0388166020820152600081830181905260608201524260808201526003549151630624e65f60e11b8152929350916001600160a01b0390911690630c49ccbe906130b2908490600401615570565b6040805180830381600087803b1580156130cb57600080fd5b505af11580156130df573d6000803e3d6000fd5b505050506040513d601f19601f82011682018060405250810190613103919061515d565b9094509250613114858585856146d8565b5050935093915050565b6000808261318f57600a8054600181019091556000818152600c60205260409081902080546001600160a01b03191633179055519092507f4111fcee61908834830adf60a520ba26d09f02fa4e00cfe3d2c134e32f3f8696906131829084906158f6565b60405180910390a16131b5565b6000838152600c60205260409020548392506001600160a01b031633146131b557600080fd5b506000818152600b60205260409020915091565b604080516001600160a01b0385811660248301528481166044830152606480830185905283518084039091018152608490920183526020820180516001600160e01b03166323b872dd60e01b178152925182516000948594938a169392918291908083835b6020831061324d5780518252601f19909201916020918201910161322e565b6001836020036101000a0380198251168184511680821785525050505050509050019150506000604051808303816000865af19150503d80600081146132af576040519150601f19603f3d011682016040523d82523d6000602084013e6132b4565b606091505b50915091508180156132e25750805115806132e257508080602001905160208110156132df57600080fd5b50515b613319576040805162461bcd60e51b815260206004820152600360248201526229aa2360e91b604482015290519081900360640190fd5b505050505050565b6000818152600b60209081526040808320815160e08101835281548152600182015481850152600282015481840152600382018054845181870281018701909552808552869592946060860193909291908301828280156133c157602002820191906000526020600020906000905b825461010083900a900460ff1615158152602060019283018181049485019490930390920291018084116133905790505b505050505081526020016004820180548060200260200160405190810160405280929190818152602001828054801561341957602002820191906000526020600020905b815481526020019060010190808311613405575b50505050508152602001600582018054806020026020016040519081016040528092919081815260200182805480156134a357602002820191906000526020600020906000905b82829054906101000a90046001600160801b03166001600160801b031681526020019060100190602082600f010492830192600103820291508084116134605790505b50505050508152602001600682018054806020026020016040519081016040528092919081815260200182805480156134fb57602002820191906000526020600020905b8154815260200190600101908083116134e7575b505050505081525050905060005b816080015151811015613586578160600151818151811061352657fe5b6020026020010151156135385761357e565b6135798260800151828151811061354b57fe5b60200260200101518360a00151838151811061356357fe5b60200260200101516001600160801b03166147f6565b830192505b600101613509565b5050919050565b600254610fae90600160a01b900460ff166135b3576002546001600160a01b03166135c0565b6001546001600160a01b03165b838361232b565b6000610ce882600001518460400151670de0b6b3a7640000614128565b6000610ce882602001518460600151670de0b6b3a7640000614128565b60008181526009602052604090206006810154421161362057506137bc565b6001810154600160301b90046001600160801b031615613735576006546004805460018401546040516307dff52360e51b815260009462015180946001600160a01b039182169463fbfea4609461368d949190931692600281810b936301000000909204900b9101615476565b60206040518083038186803b1580156136a557600080fd5b505afa1580156136b9573d6000803e3d6000fd5b505050506040513d601f19601f820116820180604052508101906136dd9190615032565b8360060154420302816136ec57fe5b600284018054929091049182019055905061370683614627565b6001830154600160301b90046001600160801b031682028161372457fe5b600384018054929091049091019055505b6006546004805460018401546040516334a51eed60e01b81526001600160a01b03948516946334a51eed9461377f9490911692600281810b936301000000909204900b9101615476565b600060405180830381600087803b15801561379957600080fd5b505af11580156137ad573d6000803e3d6000fd5b50505050428160060181905550505b50565b60085442116137cd57613887565b6006546000906301e13380906001600160a01b03166390d3b3796137ef6148bb565b6040518263ffffffff1660e01b815260040161380b91906158f6565b60206040518083038186803b15801561382357600080fd5b505afa158015613837573d6000803e3d6000fd5b505050506040513d601f19601f8201168201806040525081019061385b9190615032565b6008544203028161386857fe5b049050613876600f826148f1565b6138816013826148f1565b50426008555b565b60408051610100810182526001600160a01b03808716825285811660208301526101f48284015230606083015242608083015260a0820185905260c08201849052600060e08301819052925163414bf38960e01b81527f00000000000000000000000000000000000000000000000000000000000000009091169063414bf389906139189084906004016155b3565b602060405180830381600087803b15801561393257600080fd5b505af1158015613946573d6000803e3d6000fd5b505050506040513d601f19601f8201168201806040525081019061396a9190615032565b9695505050505050565b6000818152600b602052604081208190815b6004820154811015613a57578160030181815481106139a157fe5b90600052602060002090602091828204019190069054906101000a900460ff166139ca57613a4f565b60008260040182815481106139db57fe5b90600052602060002001549050600080613a436009600085815260200190815260200160002060000154866005018681548110613a1457fe5b90600052602060002090600291828204019190066010029054906101000a90046001600160801b031685613042565b97019695909501945050505b600101613986565b50600080613a6486614965565b950194939093019250600090505b6004820154811015613ba857816003018181548110613a8d57fe5b90600052602060002090602091828204019190069054906101000a900460ff16613ab657613ba0565b6000826004018281548110613ac757fe5b906000526020600020015490506009600082815260200190815260200160002060040154600c60008881526020019081526020016000206002018381548110613b0c57fe5b600091825260208083209091019290925582815260098252604080822060050154898352600c9093529020600301805484908110613b4657fe5b90600052602060002001819055506000836005018381548110613b6557fe5b90600052602060002090600291828204019190066010026101000a8154816001600160801b0302191690836001600160801b03160217905550505b600101613a72565b5050915091565b6000806000600b60008581526020019081526020016000206040518060e001604052908160008201548152602001600182015481526020016002820154815260200160038201805480602002602001604051908101604052809291908181526020018280548015613c5f57602002820191906000526020600020906000905b825461010083900a900460ff161515815260206001928301818104948501949093039092029101808411613c2e5790505b5050505050815260200160048201805480602002602001604051908101604052809291908181526020018280548015613cb757602002820191906000526020600020905b815481526020019060010190808311613ca3575b5050505050815260200160058201805480602002602001604051908101604052809291908181526020018280548015613d4157602002820191906000526020600020906000905b82829054906101000a90046001600160801b03166001600160801b031681526020019060100190602082600f01049283019260010382029150808411613cfe5790505b5050505050815260200160068201805480602002602001604051908101604052809291908181526020018280548015613d9957602002820191906000526020600020905b815481526020019060010190808311613d85575b505050919092525050506000858152600d60209081526040918290208251808401845281548152600190910154818301528251608081018452600f54815260105492810192909252601154928201929092526012546060820152919250613e0091906135e4565b6000858152600e60209081526040918290208251808401845281548152600190910154818301528251608081018452601354815260145492810192909252601554928201929092526016546060820152919450613e5d91906135e4565b91506000613e6961105e565b905060005b8260800151518110156140f25782606001518181518110613e8b57fe5b602002602001015115613e9d576140ea565b600083608001518281518110613eaf57fe5b60209081029190910181015160075460008281526009909352604083206001015460a0880151805193955084936001600160a01b0390931692632a279b28928992600282810b936301000000909304900b918a908110613f0b57fe5b60200260200101516040518563ffffffff1660e01b8152600401613f3294939291906158c3565b604080518083038186803b158015613f4957600080fd5b505afa158015613f5d573d6000803e3d6000fd5b505050506040513d601f19601f82011682018060405250810190613f81919061515d565b915091508560a001518481518110613f9557fe5b60209081029190910181015160008581526009835260408082206001810180546001600160801b03600160301b8083048216979097031690950275ffffffffffffffffffffffffffffffff0000000000001990951694909417909355805160c0810182529254835292820185905281830184905260608201819052608082018190524260a0830152600354925163219f5d1760e01b81529192909182916001600160a01b03169063219f5d17906140509086906004016155c2565b606060405180830381600087803b15801561406a57600080fd5b505af115801561407e573d6000803e3d6000fd5b505050506040513d601f19601f820116820180604052508101906140a29190614f39565b9250925050818b019a50808a01995060008960a0015188815181106140c357fe5b60200260200101906001600160801b031690816001600160801b0316815250505050505050505b600101613e6e565b505050915091565b805482540390915560009081905590565b600190810180549290910180549290920390915560009081905590565b600080806000198587098686029250828110908390030390508061415e576000841161415357600080fd5b508290049050610ce8565b80841161416a57600080fd5b6000848688096000868103871696879004966002600389028118808a02820302808a02820302808a02820302808a02820302808a02820302808a02909103029181900381900460010186841190950394909402919094039290920491909117919091029150509392505050565b6000806000600b60008681526020019081526020016000206040518060e00160405290816000820154815260200160018201548152602001600282015481526020016003820180548060200260200160405190810160405280929190818152602001828054801561428757602002820191906000526020600020906000905b825461010083900a900460ff1615158152602060019283018181049485019490930390920291018084116142565790505b50505050508152602001600482018054806020026020016040519081016040528092919081815260200182805480156142df57602002820191906000526020600020905b8154815260200190600101908083116142cb575b505050505081526020016005820180548060200260200160405190810160405280929190818152602001828054801561436957602002820191906000526020600020906000905b82829054906101000a90046001600160801b03166001600160801b031681526020019060100190602082600f010492830192600103820291508084116143265790505b50505050508152602001600682018054806020026020016040519081016040528092919081815260200182805480156143c157602002820191906000526020600020905b8154815260200190600101908083116143ad575b505050505081525050905060005b81608001515181101561453457816060015181815181106143ec57fe5b60200260200101516143fd5761452c565b600080600760009054906101000a90046001600160a01b03166001600160a01b0316632a279b2888600960008860800151888151811061443957fe5b6020026020010151815260200190815260200160002060010160009054906101000a900460020b600960008960800151898151811061447457fe5b6020026020010151815260200190815260200160002060010160039054906101000a900460020b8860a0015188815181106144ab57fe5b60200260200101516040518563ffffffff1660e01b81526004016144d294939291906158c3565b604080518083038186803b1580156144e957600080fd5b505afa1580156144fd573d6000803e3d6000fd5b505050506040513d601f19601f82011682018060405250810190614521919061515d565b960195949094019350505b6001016143cf565b5060008061454187614965565b6000898152600d60209081526040918290208251808401845281548152600190910154818301528251608081018452600f5481526010549281019290925260115492820192909252601254606082015297830197968201969294509092506145a991906135c7565b6000888152600e602090815260409182902082518084018452815481526001909101548183015282516080810184526013548152601454928101929092526015549282019290925260165460608201529690910195614607916135c7565b840193508260200151850194508260400151840193505050509250929050565b60035460008281526009602052604080822054905163133f757160e31b8152919283926001600160a01b03909116916399fbab889161466991906004016158f6565b6101806040518083038186803b15801561468257600080fd5b505afa158015614696573d6000803e3d6000fd5b505050506040513d601f19601f820116820180604052508101906146ba9190615253565b50506001600160801b039092169a5050505050505050505050919050565b6040805160808101825260008681526009602090815283822054835230908301526001600160801b038284018190526060830152600354925163fc6f786560e01b81529192909182916001600160a01b03169063fc6f78659061473f90869060040161552d565b6040805180830381600087803b15801561475857600080fd5b505af115801561476c573d6000803e3d6000fd5b505050506040513d601f19601f82011682018060405250810190614790919061515d565b9150915083600160801b87840302816147a557fe5b6000898152600960205260409020600401805492909104909101905583600160801b86830302816147d257fe5b60009889526009602052604090982060050180549190980401909655505050505050565b60065460048054600085815260096020526040808220600101549051631958849360e11b81529194670de0b6b3a7640000946001600160a01b03918216946332b109269461485a949190931692600282810b936301000000909304900b9101615476565b60206040518083038186803b15801561487257600080fd5b505afa158015614886573d6000803e3d6000fd5b505050506040513d601f19601f820116820180604052508101906148aa9190615032565b8302816148b357fe5b049392505050565b600f546000906148d45750670de0b6b3a7640000610648565b600f54601054670de0b6b3a764000002816148eb57fe5b04905090565b81546148fc57610fae565b61491d826003015482670de0b6b3a764000001670de0b6b3a7640000614128565b60038301556001820154825460009161493891849190614128565b670de0b6b3a764000001905061495b836002015482670de0b6b3a7640000614128565b6002840155505050565b6000806000600b60008581526020019081526020016000206040518060e001604052908160008201548152602001600182015481526020016002820154815260200160038201805480602002602001604051908101604052809291908181526020018280548015614a1557602002820191906000526020600020906000905b825461010083900a900460ff1615158152602060019283018181049485019490930390920291018084116149e45790505b5050505050815260200160048201805480602002602001604051908101604052809291908181526020018280548015614a6d57602002820191906000526020600020905b815481526020019060010190808311614a59575b5050505050815260200160058201805480602002602001604051908101604052809291908181526020018280548015614af757602002820191906000526020600020906000905b82829054906101000a90046001600160801b03166001600160801b031681526020019060100190602082600f01049283019260010382029150808411614ab45790505b5050505050815260200160068201805480602002602001604051908101604052809291908181526020018280548015614b4f57602002820191906000526020600020905b815481526020019060010190808311614b3b575b505050505081525050905060005b816080015151811015613ba85781606001518181518110614b7a57fe5b6020026020010151614b8b57614c93565b600082608001518281518110614b9d57fe5b60200260200101519050600160801b8360a001518381518110614bbc57fe5b60200260200101516001600160801b0316600c60008981526020019081526020016000206002018481548110614bee57fe5b90600052602060002001546009600085815260200190815260200160002060040154030281614c1957fe5b049450600160801b8360a001518381518110614c3157fe5b60200260200101516001600160801b0316600c60008981526020019081526020016000206003018481548110614c6357fe5b90600052602060002001546009600085815260200190815260200160002060050154030281614c8e57fe5b049350505b600101614b5d565b60405180610120016040528060008152602001600060020b8152602001600060020b815260200160006001600160801b0316815260200160008152602001600081526020016000815260200160008152602001600081525090565b6040518060a0016040528060008152602001600081526020016000815260200160008152602001606081525090565b60408051608081018252600080825260208201819052918101829052606081019190915290565b805161049a816159c0565b600082601f830112614d67578081fd5b813567ffffffffffffffff811115614d7b57fe5b614d8e601f8201601f191660200161599c565b818152846020838601011115614da2578283fd5b816020850160208301379081016020019190915292915050565b805161049a816159e3565b805161049a816159f2565b805161ffff8116811461049a57600080fd5b805162ffffff8116811461049a57600080fd5b600060208284031215614e08578081fd5b8135610ce8816159c0565b60006020808385031215614e25578182fd5b823567ffffffffffffffff80821115614e3c578384fd5b818501915085601f830112614e4f578384fd5b813581811115614e5b57fe5b614e68848583020161599c565b8181528481019250838501865b83811015614e9e57614e8c8a888435890101614d57565b85529386019390860190600101614e75565b509098975050505050505050565b600080600060608486031215614ec0578182fd5b8335614ecb816159d5565b95602085013595506040909401359392505050565b600060208284031215614ef1578081fd5b5035919050565b600080600060608486031215614f0c578283fd5b833592506020840135614f1e816159f2565b91506040840135614f2e816159c0565b809150509250925092565b600080600060608486031215614f4d578283fd5b8351614f58816159f2565b602085015160409095015190969495509392505050565b600080600080600080600060e0888a031215614f89578283fd5b8751614f94816159c0565b6020890151909750614fa5816159e3565b9550614fb360408901614dd2565b9450614fc160608901614dd2565b9350614fcf60808901614dd2565b925060a088015160ff81168114614fe4578283fd5b60c0890151909250614ff5816159d5565b8091505092959891949750929550565b60008060408385031215615017578182fd5b8251615022816159c0565b6020939093015192949293505050565b600060208284031215615043578081fd5b5051919050565b6000806000806080858703121561505f578182fd5b843593506020850135615071816159d5565b93969395505050506040820135916060013590565b600080600080600060a0868803121561509d578283fd5b8551945060208601516150af816159d5565b6040870151606088015160809098015196999198509695945092505050565b600080600080608085870312156150e3578182fd5b8435935060208501356150f5816159e3565b92506040850135615105816159e3565b91506060850135615115816159f2565b939692955090935050565b60008060008060808587031215615135578182fd5b845193506020850151615147816159f2565b6040860151606090960151949790965092505050565b6000806040838503121561516f578182fd5b505080516020909101519092909150565b60008060008060008060c08789031215615198578384fd5b863595506020870135945060408701356151b1816159d5565b9350606087013567ffffffffffffffff8111156151cc578283fd5b6151d889828a01614d57565b9350506080870135915060a087013590509295509295509295565b600080600060608486031215615207578081fd5b505081359360208301359350604090920135919050565b60008060008060808587031215615233578182fd5b8435935060208501359250604085013591506060850135615115816159d5565b6000806000806000806000806000806000806101808d8f031215615275578586fd5b8c516bffffffffffffffffffffffff81168114615290578687fd5b9b5061529e60208e01614d4c565b9a506152ac60408e01614d4c565b99506152ba60608e01614d4c565b98506152c860808e01614de4565b97506152d660a08e01614dbc565b96506152e460c08e01614dbc565b95506152f260e08e01614dc7565b94506101008d015193506101208d015192506153116101408e01614dc7565b91506153206101608e01614dc7565b90509295989b509295989b509295989b565b6001600160a01b03169052565b6000815180845260208085019450808401835b8381101561536e57815187529582019590820190600101615352565b509495945050505050565b6000815180845260208085019450808401835b8381101561536e5781516001600160801b03168752958201959082019060010161538c565b60020b9052565b80516001600160a01b03908116835260208083015182169084015260408083015162ffffff16908401526060808301518216908401526080808301519084015260a0828101519084015260c0808301519084015260e09182015116910152565b6001600160801b03169052565b62ffffff169052565b6001600160a01b0391909116815260200190565b901515815260200190565b91151582526001600160a01b0316602082015260400190565b9115158252602082015260400190565b6001600160a01b03939093168352600291820b6020840152900b604082015260600190565b6001600160a01b03929092168252602082015260400190565b600292830b8152910b602082015260400190565b6020808252601390820152723b30bab63a1034b9903737ba103230b733b2b960691b604082015260600190565b602080825260029082015261503360f01b604082015260600190565b602080825260029082015261281960f11b604082015260600190565b815181526020808301516001600160a01b0316908201526040808301516001600160801b0390811691830191909152606092830151169181019190915260800190565b600060a082019050825182526001600160801b03602084015116602083015260408301516040830152606083015160608301526080830151608083015292915050565b610100810161095482846153b8565b600060c082019050825182526020830151602083015260408301516040830152606083015160608301526080830151608083015260a083015160a083015292915050565b60006101608201905061561a828451615332565b602083015161562c6020840182615332565b50604083015161563f6040840182615425565b50606083015161565260608401826153b1565b50608083015161566560808401826153b1565b5060a083015160a083015260c083015160c083015260e083015160e0830152610100808401518184015250610120808401516156a382850182615332565b505061014092830151919092015290565b60006101208201905082518252602083015160020b6020830152604083015160020b604083015260608301516156ed6060840182615418565b506080830151608083015260a083015160a083015260c083015160c083015260e083015160e083015261010080840151818401525092915050565b6000602080835260c083018451828501528185015160408181870152808701519150606082818801528088015192506080838189015280890151935060a08089015284845180875260e08a01915087860196508895505b808610156157cb578651805115158352888101516001600160801b03168984015285810151600290810b8785015290850151900b8483015295870195600195909501949082019061577f565b509998505050505050505050565b60608082528451828201526020808601516080840152604086015160a08401529085015160e060c084015280516101408401819052600092918201919083906101608601905b808310156158415784511515825293830193600192909201919083019061581f565b5060808901519350605f199150818682030160e0870152615862818561533f565b93505060a0880151818685030161010087015261587f8482615379565b93505060c0880151818685030161012087015261589c848261533f565b9450505085818501525050826040830152949350505050565b918252602082015260400190565b6001600160a01b03949094168452600292830b6020850152910b60408301526001600160801b0316606082015260800190565b90815260200190565b6000848252602084151581840152606060408401528351806060850152825b8181101561593a5785810183015185820160800152820161591e565b8181111561594b5783608083870101525b50601f01601f19169290920160800195945050505050565b9283526020830191909152604082015260600190565b948552602085019390935260408401919091526060830152608082015260a00190565b60405181810167ffffffffffffffff811182821017156159b857fe5b604052919050565b6001600160a01b03811681146137bc57600080fd5b80151581146137bc57600080fd5b8060020b81146137bc57600080fd5b6001600160801b03811681146137bc57600080fdfe4f776e61626c653a206e6577206f776e657220697320746865207a65726f20616464726573734f776e61626c653a2063616c6c6572206973206e6f7420746865206f776e6572a2646970667358221220c572887b21b5c79128e3d11e3287742ad1093bee957347af553066d7de80019964736f6c63430007060033",
  "libraries": {
    "VaultLib": "0x199CffEf5CacaBAcBeDE9Cd4C66Bd5Bf5e344d47"
  },
  "devdoc": {
    "kind": "dev",
    "methods": {
      "borrowLPT(uint256,int24,int24,uint128)": {
        "details": "The function can be called from Product contracts."
      },
      "borrowTokens(uint256,uint256,uint256)": {
        "details": "The function can be called from Product contracts."
      },
      "depositLPT(uint256,int24,int24,uint128)": {
        "details": "The function can be called from Product contracts."
      },
      "depositTokens(uint256,uint256,uint256,bool)": {
        "details": "The function can be called from Product contracts."
      },
      "owner()": {
        "details": "Returns the address of the current owner."
      },
      "renounceOwnership()": {
        "details": "Leaves the contract without owner. It will not be possible to call `onlyOwner` functions anymore. Can only be called by the current owner. NOTE: Renouncing ownership will leave the contract without an owner, thereby removing any functionality that is only available to the owner."
      },
      "transferOwnership(address)": {
        "details": "Transfers ownership of the contract to a new account (`newOwner`). Can only be called by the current owner."
      }
    },
    "version": 1
  },
  "userdoc": {
    "kind": "user",
    "methods": {
      "borrowLPT(uint256,int24,int24,uint128)": {
        "notice": "Borrows Liquidity Provider Token."
      },
      "borrowTokens(uint256,uint256,uint256)": {
        "notice": "Borrows tokens."
      },
      "closePositionsInVault(uint256,bool,uint256,uint256)": {
        "notice": "Closes position in the vault."
      },
      "depositLPT(uint256,int24,int24,uint128)": {
        "notice": "Deposits Liquidity Provider Token."
      },
      "depositTokens(uint256,uint256,uint256,bool)": {
        "notice": "Deposits tokens."
      },
      "getPrice()": {
        "notice": "Gets current price of underlying token by margin token."
      },
      "getTWAP()": {
        "notice": "Gets Time Weighted Average Price of underlying token by margin token."
      },
      "liquidate(uint256,bool,uint256,uint256)": {
        "notice": "Liquidates if margin value is less than min collateral"
      },
      "liquidate3(uint256,bool,uint256,uint256)": {
        "notice": "Liquidates if 75% of collateral value is less than debt value."
      },
      "openPosition(uint256,uint256,bool,bytes,uint256,uint256)": {
        "notice": "Opens new position."
      },
      "withdrawFromVault(uint256)": {
        "notice": "Withdraws asset from the vault."
      }
    },
    "version": 1
  },
  "storageLayout": {
    "storage": [
      {
        "astId": 21151,
        "contract": "src/PredyV3Pool.sol:PredyV3Pool",
        "label": "_owner",
        "offset": 0,
        "slot": "0",
        "type": "t_address"
      },
      {
        "astId": 25766,
        "contract": "src/PredyV3Pool.sol:PredyV3Pool",
        "label": "token0",
        "offset": 0,
        "slot": "1",
        "type": "t_address"
      },
      {
        "astId": 25768,
        "contract": "src/PredyV3Pool.sol:PredyV3Pool",
        "label": "token1",
        "offset": 0,
        "slot": "2",
        "type": "t_address"
      },
      {
        "astId": 25771,
        "contract": "src/PredyV3Pool.sol:PredyV3Pool",
        "label": "isMarginZero",
        "offset": 20,
        "slot": "2",
        "type": "t_bool"
      },
      {
        "astId": 25773,
        "contract": "src/PredyV3Pool.sol:PredyV3Pool",
        "label": "positionManager",
        "offset": 0,
        "slot": "3",
        "type": "t_contract(INonfungiblePositionManager)24565"
      },
      {
        "astId": 25775,
        "contract": "src/PredyV3Pool.sol:PredyV3Pool",
        "label": "uniswapPool",
        "offset": 0,
        "slot": "4",
        "type": "t_contract(IUniswapV3Pool)22496"
      },
      {
        "astId": 25779,
        "contract": "src/PredyV3Pool.sol:PredyV3Pool",
        "label": "productVerifier",
        "offset": 0,
        "slot": "5",
        "type": "t_contract(IProductVerifier)29892"
      },
      {
        "astId": 25781,
        "contract": "src/PredyV3Pool.sol:PredyV3Pool",
        "label": "pricingModule",
        "offset": 0,
        "slot": "6",
        "type": "t_contract(IPricingModule)29859"
      },
      {
        "astId": 25783,
        "contract": "src/PredyV3Pool.sol:PredyV3Pool",
        "label": "lptMathModule",
        "offset": 0,
        "slot": "7",
        "type": "t_contract(LPTMathModule)25701"
      },
      {
        "astId": 25785,
        "contract": "src/PredyV3Pool.sol:PredyV3Pool",
        "label": "lastTouchedTimestamp",
        "offset": 0,
        "slot": "8",
        "type": "t_uint256"
      },
      {
        "astId": 25789,
        "contract": "src/PredyV3Pool.sol:PredyV3Pool",
        "label": "ranges",
        "offset": 0,
        "slot": "9",
        "type": "t_mapping(t_bytes32,t_struct(PerpStatus)31574_storage)"
      },
      {
        "astId": 25791,
        "contract": "src/PredyV3Pool.sol:PredyV3Pool",
        "label": "vaultIdCount",
        "offset": 0,
        "slot": "10",
        "type": "t_uint256"
      },
      {
        "astId": 25795,
        "contract": "src/PredyV3Pool.sol:PredyV3Pool",
        "label": "vaults",
        "offset": 0,
        "slot": "11",
        "type": "t_mapping(t_uint256,t_struct(Vault)31593_storage)"
      },
      {
        "astId": 25799,
        "contract": "src/PredyV3Pool.sol:PredyV3Pool",
        "label": "extraVaultParams",
        "offset": 0,
        "slot": "12",
        "type": "t_mapping(t_uint256,t_struct(ExtraVaultParam)25753_storage)"
      },
      {
        "astId": 25803,
        "contract": "src/PredyV3Pool.sol:PredyV3Pool",
        "label": "accountState0",
        "offset": 0,
        "slot": "13",
        "type": "t_mapping(t_uint256,t_struct(AccountState)29909_storage)"
      },
      {
        "astId": 25807,
        "contract": "src/PredyV3Pool.sol:PredyV3Pool",
        "label": "accountState1",
        "offset": 0,
        "slot": "14",
        "type": "t_mapping(t_uint256,t_struct(AccountState)29909_storage)"
      },
      {
        "astId": 25809,
        "contract": "src/PredyV3Pool.sol:PredyV3Pool",
        "label": "tokenState0",
        "offset": 0,
        "slot": "15",
        "type": "t_struct(TokenState)29904_storage"
      },
      {
        "astId": 25811,
        "contract": "src/PredyV3Pool.sol:PredyV3Pool",
        "label": "tokenState1",
        "offset": 0,
        "slot": "19",
        "type": "t_struct(TokenState)29904_storage"
      }
    ],
    "types": {
      "t_address": {
        "encoding": "inplace",
        "label": "address",
        "numberOfBytes": "20"
      },
      "t_array(t_bool)dyn_storage": {
        "base": "t_bool",
        "encoding": "dynamic_array",
        "label": "bool[]",
        "numberOfBytes": "32"
      },
      "t_array(t_bytes32)dyn_storage": {
        "base": "t_bytes32",
        "encoding": "dynamic_array",
        "label": "bytes32[]",
        "numberOfBytes": "32"
      },
      "t_array(t_enum(InstantDebtType)29701)dyn_storage": {
        "base": "t_enum(InstantDebtType)29701",
        "encoding": "dynamic_array",
        "label": "enum IPredyV3Pool.InstantDebtType[]",
        "numberOfBytes": "32"
      },
      "t_array(t_uint128)dyn_storage": {
        "base": "t_uint128",
        "encoding": "dynamic_array",
        "label": "uint128[]",
        "numberOfBytes": "32"
      },
      "t_array(t_uint256)dyn_storage": {
        "base": "t_uint256",
        "encoding": "dynamic_array",
        "label": "uint256[]",
        "numberOfBytes": "32"
      },
      "t_bool": {
        "encoding": "inplace",
        "label": "bool",
        "numberOfBytes": "1"
      },
      "t_bytes32": {
        "encoding": "inplace",
        "label": "bytes32",
        "numberOfBytes": "32"
      },
      "t_contract(INonfungiblePositionManager)24565": {
        "encoding": "inplace",
        "label": "contract INonfungiblePositionManager",
        "numberOfBytes": "20"
      },
      "t_contract(IPricingModule)29859": {
        "encoding": "inplace",
        "label": "contract IPricingModule",
        "numberOfBytes": "20"
      },
      "t_contract(IProductVerifier)29892": {
        "encoding": "inplace",
        "label": "contract IProductVerifier",
        "numberOfBytes": "20"
      },
      "t_contract(IUniswapV3Pool)22496": {
        "encoding": "inplace",
        "label": "contract IUniswapV3Pool",
        "numberOfBytes": "20"
      },
      "t_contract(LPTMathModule)25701": {
        "encoding": "inplace",
        "label": "contract LPTMathModule",
        "numberOfBytes": "20"
      },
      "t_enum(InstantDebtType)29701": {
        "encoding": "inplace",
        "label": "enum IPredyV3Pool.InstantDebtType",
        "numberOfBytes": "1"
      },
      "t_int24": {
        "encoding": "inplace",
        "label": "int24",
        "numberOfBytes": "3"
      },
      "t_mapping(t_bytes32,t_struct(PerpStatus)31574_storage)": {
        "encoding": "mapping",
        "key": "t_bytes32",
        "label": "mapping(bytes32 => struct VaultLib.PerpStatus)",
        "numberOfBytes": "32",
        "value": "t_struct(PerpStatus)31574_storage"
      },
      "t_mapping(t_uint256,t_struct(AccountState)29909_storage)": {
        "encoding": "mapping",
        "key": "t_uint256",
        "label": "mapping(uint256 => struct BaseToken.AccountState)",
        "numberOfBytes": "32",
        "value": "t_struct(AccountState)29909_storage"
      },
      "t_mapping(t_uint256,t_struct(ExtraVaultParam)25753_storage)": {
        "encoding": "mapping",
        "key": "t_uint256",
        "label": "mapping(uint256 => struct PredyV3Pool.ExtraVaultParam)",
        "numberOfBytes": "32",
        "value": "t_struct(ExtraVaultParam)25753_storage"
      },
      "t_mapping(t_uint256,t_struct(Vault)31593_storage)": {
        "encoding": "mapping",
        "key": "t_uint256",
        "label": "mapping(uint256 => struct VaultLib.Vault)",
        "numberOfBytes": "32",
        "value": "t_struct(Vault)31593_storage"
      },
      "t_struct(AccountState)29909_storage": {
        "encoding": "inplace",
        "label": "struct BaseToken.AccountState",
        "members": [
          {
            "astId": 29906,
            "contract": "src/PredyV3Pool.sol:PredyV3Pool",
            "label": "collateralAmount",
            "offset": 0,
            "slot": "0",
            "type": "t_uint256"
          },
          {
            "astId": 29908,
            "contract": "src/PredyV3Pool.sol:PredyV3Pool",
            "label": "debtAmount",
            "offset": 0,
            "slot": "1",
            "type": "t_uint256"
          }
        ],
        "numberOfBytes": "64"
      },
      "t_struct(ExtraVaultParam)25753_storage": {
        "encoding": "inplace",
        "label": "struct PredyV3Pool.ExtraVaultParam",
        "members": [
          {
            "astId": 25739,
            "contract": "src/PredyV3Pool.sol:PredyV3Pool",
            "label": "owner",
            "offset": 0,
            "slot": "0",
            "type": "t_address"
          },
          {
            "astId": 25741,
            "contract": "src/PredyV3Pool.sol:PredyV3Pool",
            "label": "isLiquidationRequired",
            "offset": 20,
            "slot": "0",
            "type": "t_bool"
          },
          {
            "astId": 25743,
            "contract": "src/PredyV3Pool.sol:PredyV3Pool",
            "label": "isClosed",
            "offset": 21,
            "slot": "0",
            "type": "t_bool"
          },
          {
            "astId": 25746,
            "contract": "src/PredyV3Pool.sol:PredyV3Pool",
            "label": "debtInstant",
            "offset": 0,
            "slot": "1",
            "type": "t_array(t_enum(InstantDebtType)29701)dyn_storage"
          },
          {
            "astId": 25749,
            "contract": "src/PredyV3Pool.sol:PredyV3Pool",
            "label": "fee0Last",
            "offset": 0,
            "slot": "2",
            "type": "t_array(t_uint256)dyn_storage"
          },
          {
            "astId": 25752,
            "contract": "src/PredyV3Pool.sol:PredyV3Pool",
            "label": "fee1Last",
            "offset": 0,
            "slot": "3",
            "type": "t_array(t_uint256)dyn_storage"
          }
        ],
        "numberOfBytes": "128"
      },
      "t_struct(PerpStatus)31574_storage": {
        "encoding": "inplace",
        "label": "struct VaultLib.PerpStatus",
        "members": [
          {
            "astId": 31557,
            "contract": "src/PredyV3Pool.sol:PredyV3Pool",
            "label": "tokenId",
            "offset": 0,
            "slot": "0",
            "type": "t_uint256"
          },
          {
            "astId": 31559,
            "contract": "src/PredyV3Pool.sol:PredyV3Pool",
            "label": "lower",
            "offset": 0,
            "slot": "1",
            "type": "t_int24"
          },
          {
            "astId": 31561,
            "contract": "src/PredyV3Pool.sol:PredyV3Pool",
            "label": "upper",
            "offset": 3,
            "slot": "1",
            "type": "t_int24"
          },
          {
            "astId": 31563,
            "contract": "src/PredyV3Pool.sol:PredyV3Pool",
            "label": "borrowedLiquidity",
            "offset": 6,
            "slot": "1",
            "type": "t_uint128"
          },
          {
            "astId": 31565,
            "contract": "src/PredyV3Pool.sol:PredyV3Pool",
            "label": "cumulativeFee",
            "offset": 0,
            "slot": "2",
            "type": "t_uint256"
          },
          {
            "astId": 31567,
            "contract": "src/PredyV3Pool.sol:PredyV3Pool",
            "label": "cumulativeFeeForLP",
            "offset": 0,
            "slot": "3",
            "type": "t_uint256"
          },
          {
            "astId": 31569,
            "contract": "src/PredyV3Pool.sol:PredyV3Pool",
            "label": "cumFee0",
            "offset": 0,
            "slot": "4",
            "type": "t_uint256"
          },
          {
            "astId": 31571,
            "contract": "src/PredyV3Pool.sol:PredyV3Pool",
            "label": "cumFee1",
            "offset": 0,
            "slot": "5",
            "type": "t_uint256"
          },
          {
            "astId": 31573,
            "contract": "src/PredyV3Pool.sol:PredyV3Pool",
            "label": "lastTouchedTimestamp",
            "offset": 0,
            "slot": "6",
            "type": "t_uint256"
          }
        ],
        "numberOfBytes": "224"
      },
      "t_struct(TokenState)29904_storage": {
        "encoding": "inplace",
        "label": "struct BaseToken.TokenState",
        "members": [
          {
            "astId": 29897,
            "contract": "src/PredyV3Pool.sol:PredyV3Pool",
            "label": "totalDeposited",
            "offset": 0,
            "slot": "0",
            "type": "t_uint256"
          },
          {
            "astId": 29899,
            "contract": "src/PredyV3Pool.sol:PredyV3Pool",
            "label": "totalBorrowed",
            "offset": 0,
            "slot": "1",
            "type": "t_uint256"
          },
          {
            "astId": 29901,
            "contract": "src/PredyV3Pool.sol:PredyV3Pool",
            "label": "collateralScaler",
            "offset": 0,
            "slot": "2",
            "type": "t_uint256"
          },
          {
            "astId": 29903,
            "contract": "src/PredyV3Pool.sol:PredyV3Pool",
            "label": "debtScaler",
            "offset": 0,
            "slot": "3",
            "type": "t_uint256"
          }
        ],
        "numberOfBytes": "128"
      },
      "t_struct(Vault)31593_storage": {
        "encoding": "inplace",
        "label": "struct VaultLib.Vault",
        "members": [
          {
            "astId": 31576,
            "contract": "src/PredyV3Pool.sol:PredyV3Pool",
            "label": "margin",
            "offset": 0,
            "slot": "0",
            "type": "t_uint256"
          },
          {
            "astId": 31578,
            "contract": "src/PredyV3Pool.sol:PredyV3Pool",
            "label": "collateralAmount0",
            "offset": 0,
            "slot": "1",
            "type": "t_uint256"
          },
          {
            "astId": 31580,
            "contract": "src/PredyV3Pool.sol:PredyV3Pool",
            "label": "collateralAmount1",
            "offset": 0,
            "slot": "2",
            "type": "t_uint256"
          },
          {
            "astId": 31583,
            "contract": "src/PredyV3Pool.sol:PredyV3Pool",
            "label": "isCollateral",
            "offset": 0,
            "slot": "3",
            "type": "t_array(t_bool)dyn_storage"
          },
          {
            "astId": 31586,
            "contract": "src/PredyV3Pool.sol:PredyV3Pool",
            "label": "lptIndex",
            "offset": 0,
            "slot": "4",
            "type": "t_array(t_bytes32)dyn_storage"
          },
          {
            "astId": 31589,
            "contract": "src/PredyV3Pool.sol:PredyV3Pool",
            "label": "lptLiquidity",
            "offset": 0,
            "slot": "5",
            "type": "t_array(t_uint128)dyn_storage"
          },
          {
            "astId": 31592,
            "contract": "src/PredyV3Pool.sol:PredyV3Pool",
            "label": "lptFeeGrowth",
            "offset": 0,
            "slot": "6",
            "type": "t_array(t_uint256)dyn_storage"
          }
        ],
        "numberOfBytes": "224"
      },
      "t_uint128": {
        "encoding": "inplace",
        "label": "uint128",
        "numberOfBytes": "16"
      },
      "t_uint256": {
        "encoding": "inplace",
        "label": "uint256",
        "numberOfBytes": "32"
      }
    }
  }
}