{
  "address": "0x75720aa8e8DF53a5585D0AfeA8c3a2BFb0c34E53",
  "abi": [
    {
      "inputs": [],
      "stateMutability": "nonpayable",
      "type": "constructor"
    },
    {
      "anonymous": false,
      "inputs": [
        {
          "indexed": true,
          "internalType": "address",
          "name": "previousOwner",
          "type": "address"
        },
        {
          "indexed": true,
          "internalType": "address",
          "name": "newOwner",
          "type": "address"
        }
      ],
      "name": "OwnershipTransferred",
      "type": "event"
    },
    {
      "inputs": [
        {
          "internalType": "contract IUniswapV3Pool",
          "name": "uniPool",
          "type": "address"
        },
        {
          "internalType": "int24",
          "name": "_lowerTick",
          "type": "int24"
        },
        {
          "internalType": "int24",
          "name": "_upperTick",
          "type": "int24"
        }
      ],
      "name": "calculateDailyPremium",
      "outputs": [
        {
          "internalType": "uint256",
          "name": "",
          "type": "uint256"
        }
      ],
      "stateMutability": "view",
      "type": "function"
    },
    {
      "inputs": [
        {
          "internalType": "uint256",
          "name": "_utilizationRatio",
          "type": "uint256"
        }
      ],
      "name": "calculateInterestRate",
      "outputs": [
        {
          "internalType": "uint256",
          "name": "",
          "type": "uint256"
        }
      ],
      "stateMutability": "view",
      "type": "function"
    },
    {
      "inputs": [
        {
          "internalType": "contract IUniswapV3Pool",
          "name": "uniPool",
          "type": "address"
        },
        {
          "internalType": "int24",
          "name": "_lowerTick",
          "type": "int24"
        },
        {
          "internalType": "int24",
          "name": "_upperTick",
          "type": "int24"
        }
      ],
      "name": "calculateMinCollateral",
      "outputs": [
        {
          "internalType": "uint256",
          "name": "",
          "type": "uint256"
        }
      ],
      "stateMutability": "view",
      "type": "function"
    },
    {
      "inputs": [],
      "name": "owner",
      "outputs": [
        {
          "internalType": "address",
          "name": "",
          "type": "address"
        }
      ],
      "stateMutability": "view",
      "type": "function"
    },
    {
      "inputs": [],
      "name": "renounceOwnership",
      "outputs": [],
      "stateMutability": "nonpayable",
      "type": "function"
    },
    {
      "inputs": [
        {
          "internalType": "contract IUniswapV3Pool",
          "name": "uniPool",
          "type": "address"
        },
        {
          "internalType": "int24",
          "name": "_lowerTick",
          "type": "int24"
        },
        {
          "internalType": "int24",
          "name": "_upperTick",
          "type": "int24"
        }
      ],
      "name": "takeSnapshotForRange",
      "outputs": [],
      "stateMutability": "nonpayable",
      "type": "function"
    },
    {
      "inputs": [
        {
          "internalType": "address",
          "name": "newOwner",
          "type": "address"
        }
      ],
      "name": "transferOwnership",
      "outputs": [],
      "stateMutability": "nonpayable",
      "type": "function"
    },
    {
      "inputs": [
        {
          "internalType": "uint256",
          "name": "_dailyFeeAmount",
          "type": "uint256"
        }
      ],
      "name": "updateDaylyFeeAmount",
      "outputs": [],
      "stateMutability": "nonpayable",
      "type": "function"
    },
    {
      "inputs": [
        {
          "internalType": "uint256",
          "name": "_base",
          "type": "uint256"
        },
        {
          "internalType": "uint256",
          "name": "_kink",
          "type": "uint256"
        },
        {
          "internalType": "uint256",
          "name": "_slope1",
          "type": "uint256"
        },
        {
          "internalType": "uint256",
          "name": "_slope2",
          "type": "uint256"
        }
      ],
      "name": "updateIRMParams",
      "outputs": [],
      "stateMutability": "nonpayable",
      "type": "function"
    },
    {
      "inputs": [
        {
          "internalType": "uint256",
          "name": "_minCollateralPerLiquidity",
          "type": "uint256"
        }
      ],
      "name": "updateMinCollateralPerLiquidity",
      "outputs": [],
      "stateMutability": "nonpayable",
      "type": "function"
    }
  ],
  "transactionHash": "0x6d8693eae5af83fb5b9c3941b252bdfe074c5266b72467e90416818cfc56ff61",
  "args": [],
  "solcInputHash": "a5a594376544575ba648803f900edb2e",
  "bytecode": "0x608060405234801561001057600080fd5b50600061001b61006a565b600080546001600160a01b0319166001600160a01b0383169081178255604051929350917f8be0079c531659141344cd1fd0a4f28419497f9722a3daafe3b4186f6b6457e0908290a35061006e565b3390565b610e4d8061007d6000396000f3fe608060405234801561001057600080fd5b506004361061009e5760003560e01c8063715018a611610066578063715018a61461011a5780638da5cb5b1461012257806390d3b37914610137578063f2fde38b1461014a578063fbfea4601461015d5761009e565b806332b10926146100a357806334a51eed146100cc578063421a0bd0146100e15780634762f1b9146100f45780635b9494b014610107575b600080fd5b6100b66100b1366004610b51565b610170565b6040516100c39190610da1565b60405180910390f35b6100df6100da366004610b51565b61017a565b005b6100df6100ef366004610d0c565b61037f565b6100df610102366004610cdc565b6103f5565b6100df610115366004610cdc565b61045c565b6100df6104c3565b61012a61056f565b6040516100c39190610d5a565b6100b6610145366004610cdc565b61057e565b6100df610158366004610b2e565b6105ea565b6100b661016b366004610b51565b6106ec565b6003549392505050565b6000836001600160a01b031663f30583996040518163ffffffff1660e01b815260040160206040518083038186803b1580156101b557600080fd5b505afa1580156101c9573d6000803e3d6000fd5b505050506040513d601f19601f820116820180604052508101906101ed9190610cf4565b90506000846001600160a01b031663461413196040518163ffffffff1660e01b815260040160206040518083038186803b15801561022a57600080fd5b505afa15801561023e573d6000803e3d6000fd5b505050506040513d601f19601f820116820180604052508101906102629190610cf4565b90506000856001600160a01b0316633850c7bd6040518163ffffffff1660e01b815260040160e06040518083038186803b15801561029f57600080fd5b505afa1580156102b3573d6000803e3d6000fd5b505050506040513d601f19601f820116820180604052508101906102d79190610c4b565b50505050509150506000806103036102ef89896108fc565b6102f98a896108fc565b8989878a8a6109d1565b915091506000878760405160200161031c929190610d3d565b60408051601f19818403018152828252805160209182012060808401835295835282810194855282820198895260608301978852600095865260019081905294209051815591519282019290925593516002850155505051600390910155505050565b610387610a4e565b6001600160a01b031661039861056f565b6001600160a01b0316146103e1576040805162461bcd60e51b81526020600482018190526024820152600080516020610df8833981519152604482015290519081900360640190fd5b600493909355600591909155600655600755565b6103fd610a4e565b6001600160a01b031661040e61056f565b6001600160a01b031614610457576040805162461bcd60e51b81526020600482018190526024820152600080516020610df8833981519152604482015290519081900360640190fd5b600255565b610464610a4e565b6001600160a01b031661047561056f565b6001600160a01b0316146104be576040805162461bcd60e51b81526020600482018190526024820152600080516020610df8833981519152604482015290519081900360640190fd5b600355565b6104cb610a4e565b6001600160a01b03166104dc61056f565b6001600160a01b031614610525576040805162461bcd60e51b81526020600482018190526024820152600080516020610df8833981519152604482015290519081900360640190fd5b600080546040516001600160a01b03909116907f8be0079c531659141344cd1fd0a4f28419497f9722a3daafe3b4186f6b6457e0908390a3600080546001600160a01b0319169055565b6000546001600160a01b031690565b6004546005546000919083116105aa57670de0b6b3a76400006006548402816105a357fe5b04016105e2565b670de0b6b3a764000060065460055402816105c157fe5b0481019050670de0b6b3a7640000600554840360075402816105df57fe5b04015b90505b919050565b6105f2610a4e565b6001600160a01b031661060361056f565b6001600160a01b03161461064c576040805162461bcd60e51b81526020600482018190526024820152600080516020610df8833981519152604482015290519081900360640190fd5b6001600160a01b0381166106915760405162461bcd60e51b8152600401808060200182810382526026815260200180610dd26026913960400191505060405180910390fd5b600080546040516001600160a01b03808516939216917f8be0079c531659141344cd1fd0a4f28419497f9722a3daafe3b4186f6b6457e091a3600080546001600160a01b0319166001600160a01b0392909216919091179055565b600080846001600160a01b031663f30583996040518163ffffffff1660e01b815260040160206040518083038186803b15801561072857600080fd5b505afa15801561073c573d6000803e3d6000fd5b505050506040513d601f19601f820116820180604052508101906107609190610cf4565b90506000856001600160a01b031663461413196040518163ffffffff1660e01b815260040160206040518083038186803b15801561079d57600080fd5b505afa1580156107b1573d6000803e3d6000fd5b505050506040513d601f19601f820116820180604052508101906107d59190610cf4565b90506000866001600160a01b0316633850c7bd6040518163ffffffff1660e01b815260040160e06040518083038186803b15801561081257600080fd5b505afa158015610826573d6000803e3d6000fd5b505050506040513d601f19601f8201168201806040525081019061084a9190610c4b565b50505050509150506000806108766108628a8a6108fc565b61086c8b8a6108fc565b8a8a878a8a6109d1565b915091506000888860405160200161088f929190610d3d565b60408051601f198184030181528282528051602091820120600081815260018084529084902060808601855280548652908101549285019290925260028201549284019290925260030154606083015291506108ee9084848989610a52565b9a9950505050505050505050565b610904610ad3565b6000806000856001600160a01b031663f30dba93866040518263ffffffff1660e01b81526004016109359190610d6e565b6101006040518083038186803b15801561094e57600080fd5b505afa158015610962573d6000803e3d6000fd5b505050506040513d601f19601f820116820180604052508101906109869190610b9b565b9750505050945094505050806109b75760405162461bcd60e51b81526004016109ae90610d7c565b60405180910390fd5b506040805180820190915291825260208201529392505050565b6000806000808860020b8760020b126109f2575050885160208a0151610a02565b5050885160208a01519085039084035b6000808960020b8960020b1215610a21575050895160208b0151610a31565b5050895160208b01519087039086035b92909603959095039a949093039290920397509195505050505050565b3390565b60008060008760400151851115610a86578760400151850388600001518803670de0b6b3a76400000281610a8257fe5b0491505b8760600151841115610ab5578760600151840388602001518703670de0b6b3a76400000281610ab157fe5b0490505b600254671bc16d674ec8000090838301020498975050505050505050565b604051806040016040528060008152602001600081525090565b805180151581146105e557600080fd5b80516105e581610daa565b805161ffff811681146105e557600080fd5b805163ffffffff811681146105e557600080fd5b600060208284031215610b3f578081fd5b8135610b4a81610daa565b9392505050565b600080600060608486031215610b65578182fd5b8335610b7081610daa565b92506020840135610b8081610dc2565b91506040840135610b9081610dc2565b809150509250925092565b600080600080600080600080610100898b031215610bb7578384fd5b88516fffffffffffffffffffffffffffffffff81168114610bd6578485fd5b80985050602089015180600f0b8114610bed578485fd5b80975050604089015195506060890151945060808901518060060b8114610c12578485fd5b9350610c2060a08a01610afd565b9250610c2e60c08a01610b1a565b9150610c3c60e08a01610aed565b90509295985092959890939650565b600080600080600080600060e0888a031215610c65578283fd5b8751610c7081610daa565b6020890151909750610c8181610dc2565b9550610c8f60408901610b08565b9450610c9d60608901610b08565b9350610cab60808901610b08565b925060a088015160ff81168114610cc0578283fd5b9150610cce60c08901610aed565b905092959891949750929550565b600060208284031215610ced578081fd5b5035919050565b600060208284031215610d05578081fd5b5051919050565b60008060008060808587031215610d21578384fd5b5050823594602084013594506040840135936060013592509050565b600292830b60e890811b82529190920b901b600382015260060190565b6001600160a01b0391909116815260200190565b60029190910b815260200190565b6020808252600b908201526a1a5b9a5d1a585b1a5e995960aa1b604082015260600190565b90815260200190565b6001600160a01b0381168114610dbf57600080fd5b50565b8060020b8114610dbf57600080fdfe4f776e61626c653a206e6577206f776e657220697320746865207a65726f20616464726573734f776e61626c653a2063616c6c6572206973206e6f7420746865206f776e6572a264697066735822122001eeb763471c8cc7854c9740c84ed65c8527a4881a0fdd57c861c1658d5ec71a64736f6c63430007060033",
  "devdoc": {
    "kind": "dev",
    "methods": {
      "owner()": {
        "details": "Returns the address of the current owner."
      },
      "renounceOwnership()": {
        "details": "Leaves the contract without owner. It will not be possible to call `onlyOwner` functions anymore. Can only be called by the current owner. NOTE: Renouncing ownership will leave the contract without an owner, thereby removing any functionality that is only available to the owner."
      },
      "transferOwnership(address)": {
        "details": "Transfers ownership of the contract to a new account (`newOwner`). Can only be called by the current owner."
      }
    },
    "version": 1
  },
  "userdoc": {
    "kind": "user",
    "methods": {
      "calculateDailyPremium(address,int24,int24)": {
        "notice": "Calculates daily premium for range per liquidity"
      },
      "calculateInterestRate(uint256)": {
        "notice": "Calculates daily interest rate for range per liquidity scaled by 1e18;"
      },
      "calculateMinCollateral(address,int24,int24)": {
        "notice": "Calculates min. collateral per liquidity"
      }
    },
    "version": 1
  },
  "storageLayout": {
    "storage": [
      {
        "astId": 21151,
        "contract": "src/PricingModule.sol:PricingModule",
        "label": "_owner",
        "offset": 0,
        "slot": "0",
        "type": "t_address"
      },
      {
        "astId": 28774,
        "contract": "src/PricingModule.sol:PricingModule",
        "label": "snapshots",
        "offset": 0,
        "slot": "1",
        "type": "t_mapping(t_bytes32,t_struct(TickSnapshot)28765_storage)"
      },
      {
        "astId": 28776,
        "contract": "src/PricingModule.sol:PricingModule",
        "label": "dailyFeeAmount",
        "offset": 0,
        "slot": "2",
        "type": "t_uint256"
      },
      {
        "astId": 28778,
        "contract": "src/PricingModule.sol:PricingModule",
        "label": "minCollateralPerLiquidity",
        "offset": 0,
        "slot": "3",
        "type": "t_uint256"
      },
      {
        "astId": 28780,
        "contract": "src/PricingModule.sol:PricingModule",
        "label": "baseRate",
        "offset": 0,
        "slot": "4",
        "type": "t_uint256"
      },
      {
        "astId": 28782,
        "contract": "src/PricingModule.sol:PricingModule",
        "label": "kinkRate",
        "offset": 0,
        "slot": "5",
        "type": "t_uint256"
      },
      {
        "astId": 28784,
        "contract": "src/PricingModule.sol:PricingModule",
        "label": "slope1",
        "offset": 0,
        "slot": "6",
        "type": "t_uint256"
      },
      {
        "astId": 28786,
        "contract": "src/PricingModule.sol:PricingModule",
        "label": "slope2",
        "offset": 0,
        "slot": "7",
        "type": "t_uint256"
      }
    ],
    "types": {
      "t_address": {
        "encoding": "inplace",
        "label": "address",
        "numberOfBytes": "20"
      },
      "t_bytes32": {
        "encoding": "inplace",
        "label": "bytes32",
        "numberOfBytes": "32"
      },
      "t_mapping(t_bytes32,t_struct(TickSnapshot)28765_storage)": {
        "encoding": "mapping",
        "key": "t_bytes32",
        "label": "mapping(bytes32 => struct PricingModule.TickSnapshot)",
        "numberOfBytes": "32",
        "value": "t_struct(TickSnapshot)28765_storage"
      },
      "t_struct(TickSnapshot)28765_storage": {
        "encoding": "inplace",
        "label": "struct PricingModule.TickSnapshot",
        "members": [
          {
            "astId": 28758,
            "contract": "src/PricingModule.sol:PricingModule",
            "label": "lastFeeGrowthInside0X128",
            "offset": 0,
            "slot": "0",
            "type": "t_uint256"
          },
          {
            "astId": 28760,
            "contract": "src/PricingModule.sol:PricingModule",
            "label": "lastFeeGrowthInside1X128",
            "offset": 0,
            "slot": "1",
            "type": "t_uint256"
          },
          {
            "astId": 28762,
            "contract": "src/PricingModule.sol:PricingModule",
            "label": "lastFeeGrowthGlobal0X128",
            "offset": 0,
            "slot": "2",
            "type": "t_uint256"
          },
          {
            "astId": 28764,
            "contract": "src/PricingModule.sol:PricingModule",
            "label": "lastFeeGrowthGlobal1X128",
            "offset": 0,
            "slot": "3",
            "type": "t_uint256"
          }
        ],
        "numberOfBytes": "128"
      },
      "t_uint256": {
        "encoding": "inplace",
        "label": "uint256",
        "numberOfBytes": "32"
      }
    }
  }
}