{
  "address": "0x1023669182f1aDe8882e168E46b6f7b0094cBde9",
  "abi": [
    {
      "inputs": [
        {
          "internalType": "contract IPredyV3Pool",
          "name": "_pool",
          "type": "address"
        }
      ],
      "stateMutability": "nonpayable",
      "type": "constructor"
    },
    {
      "anonymous": false,
      "inputs": [
        {
          "indexed": true,
          "internalType": "address",
          "name": "previousOwner",
          "type": "address"
        },
        {
          "indexed": true,
          "internalType": "address",
          "name": "newOwner",
          "type": "address"
        }
      ],
      "name": "OwnershipTransferred",
      "type": "event"
    },
    {
      "anonymous": false,
      "inputs": [
        {
          "indexed": false,
          "internalType": "uint256",
          "name": "vaultId",
          "type": "uint256"
        },
        {
          "indexed": false,
          "internalType": "uint256",
          "name": "amount0",
          "type": "uint256"
        },
        {
          "indexed": false,
          "internalType": "uint256",
          "name": "amount1",
          "type": "uint256"
        },
        {
          "indexed": false,
          "internalType": "bool",
          "name": "zeroToOne",
          "type": "bool"
        }
      ],
      "name": "PositionUpdated",
      "type": "event"
    },
    {
      "inputs": [
        {
          "internalType": "uint256",
          "name": "requestedAmount",
          "type": "uint256"
        },
        {
          "internalType": "int24",
          "name": "tick",
          "type": "int24"
        },
        {
          "internalType": "int24",
          "name": "lower",
          "type": "int24"
        },
        {
          "internalType": "int24",
          "name": "upper",
          "type": "int24"
        }
      ],
      "name": "getLiquidityAndAmount",
      "outputs": [
        {
          "internalType": "uint128",
          "name": "liquidity",
          "type": "uint128"
        },
        {
          "internalType": "uint256",
          "name": "amount0",
          "type": "uint256"
        },
        {
          "internalType": "uint256",
          "name": "amount1",
          "type": "uint256"
        }
      ],
      "stateMutability": "view",
      "type": "function"
    },
    {
      "inputs": [
        {
          "components": [
            {
              "internalType": "uint256",
              "name": "collateral0",
              "type": "uint256"
            },
            {
              "internalType": "uint256",
              "name": "collateral1",
              "type": "uint256"
            },
            {
              "internalType": "uint256",
              "name": "debt0",
              "type": "uint256"
            },
            {
              "internalType": "uint256",
              "name": "debt1",
              "type": "uint256"
            },
            {
              "components": [
                {
                  "internalType": "bool",
                  "name": "isCollateral",
                  "type": "bool"
                },
                {
                  "internalType": "uint128",
                  "name": "liquidity",
                  "type": "uint128"
                },
                {
                  "internalType": "int24",
                  "name": "lowerTick",
                  "type": "int24"
                },
                {
                  "internalType": "int24",
                  "name": "upperTick",
                  "type": "int24"
                }
              ],
              "internalType": "struct PositionVerifier.LPT[]",
              "name": "lpts",
              "type": "tuple[]"
            }
          ],
          "internalType": "struct PositionVerifier.Position",
          "name": "position",
          "type": "tuple"
        },
        {
          "internalType": "uint160",
          "name": "sqrtPrice",
          "type": "uint160"
        }
      ],
      "name": "getRequiredTokenAmounts",
      "outputs": [
        {
          "internalType": "int256",
          "name": "totalAmount0",
          "type": "int256"
        },
        {
          "internalType": "int256",
          "name": "totalAmount1",
          "type": "int256"
        }
      ],
      "stateMutability": "pure",
      "type": "function"
    },
    {
      "inputs": [
        {
          "internalType": "uint256",
          "name": "_vaultId",
          "type": "uint256"
        },
        {
          "internalType": "bool",
          "name": "_isLiquidationRequired",
          "type": "bool"
        },
        {
          "internalType": "bytes",
          "name": "_data",
          "type": "bytes"
        }
      ],
      "name": "openPosition",
      "outputs": [
        {
          "internalType": "uint256",
          "name": "",
          "type": "uint256"
        },
        {
          "internalType": "uint256",
          "name": "",
          "type": "uint256"
        }
      ],
      "stateMutability": "nonpayable",
      "type": "function"
    },
    {
      "inputs": [],
      "name": "owner",
      "outputs": [
        {
          "internalType": "address",
          "name": "",
          "type": "address"
        }
      ],
      "stateMutability": "view",
      "type": "function"
    },
    {
      "inputs": [],
      "name": "pool",
      "outputs": [
        {
          "internalType": "contract IPredyV3Pool",
          "name": "",
          "type": "address"
        }
      ],
      "stateMutability": "view",
      "type": "function"
    },
    {
      "inputs": [],
      "name": "renounceOwnership",
      "outputs": [],
      "stateMutability": "nonpayable",
      "type": "function"
    },
    {
      "inputs": [
        {
          "internalType": "int256",
          "name": "_threshold",
          "type": "int256"
        }
      ],
      "name": "setThreshold",
      "outputs": [],
      "stateMutability": "nonpayable",
      "type": "function"
    },
    {
      "inputs": [],
      "name": "threshold",
      "outputs": [
        {
          "internalType": "int256",
          "name": "",
          "type": "int256"
        }
      ],
      "stateMutability": "view",
      "type": "function"
    },
    {
      "inputs": [
        {
          "internalType": "address",
          "name": "newOwner",
          "type": "address"
        }
      ],
      "name": "transferOwnership",
      "outputs": [],
      "stateMutability": "nonpayable",
      "type": "function"
    }
  ],
  "transactionHash": "0x94571361f40b2b7420b37bb078d8773875d5b5169914049b507d3bcc7d181afa",
  "args": [
    "0x8c84e2F799107c66A1f6288E89eB98507AD9Fc61"
  ],
  "solcInputHash": "e43ebf4e2ff9efbee7f038aee7ec8766",
  "bytecode": "0x60806040523480156200001157600080fd5b5060405162002283380380620022838339810160408190526200003491620000b9565b600062000040620000b5565b600080546001600160a01b0319166001600160a01b0383169081178255604051929350917f8be0079c531659141344cd1fd0a4f28419497f9722a3daafe3b4186f6b6457e0908290a350600180546001600160a01b0319166001600160a01b039290921691909117905560c8600255620000e9565b3390565b600060208284031215620000cb578081fd5b81516001600160a01b0381168114620000e2578182fd5b9392505050565b61218a80620000f96000396000f3fe608060405234801561001057600080fd5b50600436106100935760003560e01c80638fa17fc3116100665780638fa17fc3146100dd578063a2ae3368146100ff578063bdf9219814610120578063ef0fb55814610133578063f2fde38b1461014657610093565b806316f0115b1461009857806342cde4e8146100b6578063715018a6146100cb5780638da5cb5b146100d5575b600080fd5b6100a0610159565b6040516100ad9190611ee1565b60405180910390f35b6100be610168565b6040516100ad9190611f0d565b6100d361016e565b005b6100a061022c565b6100f06100eb366004611e6c565b61023b565b6040516100ad93929190611fe1565b61011261010d366004611cf9565b6102e2565b6040516100ad929190611f16565b61011261012e366004611dc6565b6102fa565b6100d3610141366004611b96565b61092a565b6100d3610154366004611b5e565b61092f565b6001546001600160a01b031681565b60025481565b610176610a43565b6001600160a01b031661018761022c565b6001600160a01b0316146101e2576040805162461bcd60e51b815260206004820181905260248201527f4f776e61626c653a2063616c6c6572206973206e6f7420746865206f776e6572604482015290519081900360640190fd5b600080546040516001600160a01b03909116907f8be0079c531659141344cd1fd0a4f28419497f9722a3daafe3b4186f6b6457e0908390a3600080546001600160a01b0319169055565b6000546001600160a01b031690565b60008060006102d2600160009054906101000a90046001600160a01b03166001600160a01b031663517ede9d6040518163ffffffff1660e01b815260040160206040518083038186803b15801561029157600080fd5b505afa1580156102a5573d6000803e3d6000fd5b505050506040513d601f19601f820116820180604052508101906102c99190611b7a565b88888888610a47565b9250925092509450945094915050565b6000806102ef8484610a96565b915091509250929050565b6000806000806000858060200190518101906103169190611be1565b6040808401518451606086015160208701516001549451635ce20ffb60e01b8152979a5095985093965090810394928403936001600160a01b0390921692635ce20ffb9261036d928f929091908f90600401612040565b600060405180830381600087803b15801561038757600080fd5b505af115801561039b573d6000803e3d6000fd5b505060015460408089015160608a01519151631b7d736f60e11b81526001600160a01b0390931694506336fae6de93506103da928f929060040161202a565b600060405180830381600087803b1580156103f457600080fd5b505af1158015610408573d6000803e3d6000fd5b5050505060005b856080015151811015610661578560800151818151811061042c57fe5b6020026020010151600001511561054d57600080600160009054906101000a90046001600160a01b03166001600160a01b031663e7ebf0bd8e8a60800151868151811061047557fe5b6020026020010151604001518b60800151878151811061049157fe5b6020026020010151606001518c6080015188815181106104ad57fe5b6020026020010151602001516040518563ffffffff1660e01b81526004016104d89493929190612002565b6040805180830381600087803b1580156104f157600080fd5b505af1158015610505573d6000803e3d6000fd5b505050506040513d601f19601f820116820180604052508101906105299190611ebe565b90925090506105388583610b84565b94506105448482610b84565b93505050610659565b600080600160009054906101000a90046001600160a01b03166001600160a01b031663aa7635568e8a60800151868151811061058557fe5b6020026020010151604001518b6080015187815181106105a157fe5b6020026020010151606001518c6080015188815181106105bd57fe5b6020026020010151602001516040518563ffffffff1660e01b81526004016105e89493929190612002565b6040805180830381600087803b15801561060157600080fd5b505af1158015610615573d6000803e3d6000fd5b505050506040513d601f19601f820116820180604052508101906106399190611ebe565b90925090506106488583610bf2565b94506106548482610bf2565b935050505b60010161040f565b50886106fa5760015460405163eb02c30160e01b81526106f8916001600160a01b03169063eb02c30190610699908e90600401611f0d565b60006040518083038186803b1580156106b157600080fd5b505afa1580156106c5573d6000803e3d6000fd5b505050506040513d6000823e601f3d908101601f191682016040526106ed9190810190611bae565b856001600254610c57565b505b60008213801561070a5750600081125b156107f3576001546040516349b7323960e01b81526000916001600160a01b0316906349b732399061074490849087908990600401611ef5565b602060405180830381600087803b15801561075e57600080fd5b505af1158015610772573d6000803e3d6000fd5b505050506040513d601f19601f820116820180604052508101906107969190611dae565b90507f41c6c6f66ef544ee7b2ce95c6001fe7bd8cf797242d43805ac5006d92a4a3a448b848360006040516107ce9493929190612040565b60405180910390a160006107e482848303610fa4565b97509750505050505050610922565b6000811380156108035750600082125b156108f057600180546040516349b7323960e01b81526000926001600160a01b03909216916349b732399161083f919086908990600401611ef5565b602060405180830381600087803b15801561085957600080fd5b505af115801561086d573d6000803e3d6000fd5b505050506040513d601f19601f820116820180604052508101906108919190611dae565b90507f41c6c6f66ef544ee7b2ce95c6001fe7bd8cf797242d43805ac5006d92a4a3a448b828460016040516108c99493929190612040565b60405180910390a16108df816000859003610fa4565b600097509750505050505050610922565b60008112158015610902575060008212155b1561091557909550935061092292505050565b6000809650965050505050505b935093915050565b600255565b610937610a43565b6001600160a01b031661094861022c565b6001600160a01b0316146109a3576040805162461bcd60e51b815260206004820181905260248201527f4f776e61626c653a2063616c6c6572206973206e6f7420746865206f776e6572604482015290519081900360640190fd5b6001600160a01b0381166109e85760405162461bcd60e51b81526004018080602001828103825260268152602001806120ea6026913960400191505060405180910390fd5b600080546040516001600160a01b03808516939216917f8be0079c531659141344cd1fd0a4f28419497f9722a3daafe3b4186f6b6457e091a3600080546001600160a01b0319166001600160a01b0392909216919091179055565b3390565b60008060008715610a7c57610a71600088610a6187611001565b610a6a8a611001565b8989611333565b925092509250610a8b565b610a71876000610a6188611001565b955095509592505050565b60008060005b846080015151811015610b6057600080610b1986610ad489608001518681518110610ac357fe5b602002602001015160400151611001565b610af88a608001518781518110610ae757fe5b602002602001015160600151611001565b8a608001518781518110610b0857fe5b602002602001015160200151611385565b9150915086608001518381518110610b2d57fe5b60200260200101516000015115610b4b579381019392830192610b56565b818503945080840393505b5050600101610a9c565b50835160208501516040860151606090960151939091019490940394930103919050565b6000828201818312801590610b995750838112155b80610bae5750600083128015610bae57508381125b610be95760405162461bcd60e51b81526004018080602001828103825260218152602001806121106021913960400191505060405180910390fd5b90505b92915050565b6000818303818312801590610c075750838113155b80610c1c5750600083128015610c1c57508381135b610be95760405162461bcd60e51b81526004018080602001828103825260248152602001806121316024913960400191505060405180910390fd5b600084608001515160001415610c6f57506000610f9c565b835185608001515114610c9d5760405162461bcd60e51b8152600401610c9490611f24565b60405180910390fd5b610ca685611421565b5060005b8451811015610ee257848181518110610cbf57fe5b60200260200101516000015115610eb55785608001518181518110610ce057fe5b60200260200101516000015115610cf657600080fd5b848181518110610d0257fe5b60200260200101516020015115610e4357848181518110610d1f57fe5b60200260200101516040015160020b86608001518281518110610d3e57fe5b60200260200101516040015160020b13158015610d93575085608001518181518110610d6657fe5b60200260200101516060015160020b858281518110610d8157fe5b60200260200101516040015160020b13155b610daf5760405162461bcd60e51b8152600401610c9490611f90565b6000610dd387878481518110610dc157fe5b602002602001015160400151876114da565b9050808460000313158015610de85750838113155b610e045760405162461bcd60e51b8152600401610c9490611f75565b6000610e1f88610e19898681518110610ac357fe5b8861150f565b1215610e3d5760405162461bcd60e51b8152600401610c9490611f5a565b50610eb0565b6000610e6b8788608001518481518110610e5957fe5b602002602001015160600151876114da565b610e918889608001518581518110610e7f57fe5b602002602001015160400151886114da565b021215610eb05760405162461bcd60e51b8152600401610c9490611f3f565b610eda565b85608001518181518110610ec557fe5b602002602001015160000151610eda57600080fd5b600101610caa565b508215610f435781600003610ef7868561156d565b1215610f155760405162461bcd60e51b8152600401610c9490611fab565b81610f2086856115b7565b1315610f3e5760405162461bcd60e51b8152600401610c9490611fc6565b610f98565b81610f4e868561156d565b1315610f6c5760405162461bcd60e51b8152600401610c9490611fab565b81600003610f7a86856115b7565b1215610f985760405162461bcd60e51b8152600401610c9490611fc6565b5060015b949350505050565b600082821115610ffb576040805162461bcd60e51b815260206004820152601e60248201527f536166654d6174683a207375627472616374696f6e206f766572666c6f770000604482015290519081900360640190fd5b50900390565b60008060008360020b12611018578260020b611020565b8260020b6000035b9050620d89e881111561105e576040805162461bcd60e51b81526020600482015260016024820152601560fa1b604482015290519081900360640190fd5b60006001821661107257600160801b611084565b6ffffcb933bd6fad37aa2d162d1a5940015b70ffffffffffffffffffffffffffffffffff16905060028216156110b8576ffff97272373d413259a46990580e213a0260801c5b60048216156110d7576ffff2e50f5f656932ef12357cf3c7fdcc0260801c5b60088216156110f6576fffe5caca7e10e4e61c3624eaa0941cd00260801c5b6010821615611115576fffcb9843d60f6159c9db58835c9266440260801c5b6020821615611134576fff973b41fa98c081472e6896dfb254c00260801c5b6040821615611153576fff2ea16466c96a3843ec78b326b528610260801c5b6080821615611172576ffe5dee046a99a2a811c461f1969c30530260801c5b610100821615611192576ffcbe86c7900a88aedcffc83b479aa3a40260801c5b6102008216156111b2576ff987a7253ac413176f2b074cf7815e540260801c5b6104008216156111d2576ff3392b0822b70005940c7a398e4b70f30260801c5b6108008216156111f2576fe7159475a2c29b7443b29c7fa6e889d90260801c5b611000821615611212576fd097f3bdfd2022b8845ad8f792aa58250260801c5b612000821615611232576fa9f746462d870fdf8a65dc1f90e061e50260801c5b614000821615611252576f70d869a156d2a1b890bb3df62baf32f70260801c5b618000821615611272576f31be135f97d08fd981231505542fcfa60260801c5b62010000821615611293576f09aa508b5b7a84e1c677de54f3e99bc90260801c5b620200008216156112b3576e5d6af8dedb81196699c329225ee6040260801c5b620400008216156112d2576d2216e584f5fa1ea926041bedfe980260801c5b620800008216156112ef576b048a170391f7dc42444e8fa20260801c5b60008460020b131561130a57806000198161130657fe5b0490505b64010000000081061561131e576001611321565b60005b60ff16602082901c0192505050919050565b60008060006113558761134587611001565b61134e87611001565b8c8c6115fa565b92506113738661136487611001565b61136d87611001565b86611385565b939a9099509297509195505050505050565b600080836001600160a01b0316856001600160a01b031611156113a6579293925b846001600160a01b0316866001600160a01b0316116113d1576113ca8585856116be565b9150611418565b836001600160a01b0316866001600160a01b0316101561140a576113f68685856116be565b9150611403858785611727565b9050611418565b611415858585611727565b90505b94509492505050565b60008060005b8360800151518110156114d3578360800151818151811061144457fe5b60200260200101516060015160020b8460800151828151811061146357fe5b60200260200101516040015160020b1261147c57600080fd5b8360800151818151811061148c57fe5b60200260200101516040015160020b8260020b13156114aa57600080fd5b836080015181815181106114ba57fe5b6020908102919091010151606001519150600101611427565b5050919050565b60008060006114f1866114ec87611001565b610a96565b9150915083156115045791506115089050565b5090505b9392505050565b600080611524846001600160a01b031661176a565b90506000806115338787610a96565b91509150841561155457670de0b6b3a7640000920291909105019050611508565b80670de0b6b3a764000083850205019350505050611508565b60008260800151516000141561159057611589836000846114da565b9050610bec565b610be98384608001516000815181106115a557fe5b602002602001015160400151846114da565b6000826080015151600014156115d357611589836000846114da565b610be98384608001516000815181106115e857fe5b602002602001015160600151846114da565b6000836001600160a01b0316856001600160a01b0316111561161a579293925b846001600160a01b0316866001600160a01b0316116116455761163e8585856117c8565b90506116b5565b836001600160a01b0316866001600160a01b031610156116a757600061166c8786866117c8565b9050600061167b87898661182b565b9050806001600160801b0316826001600160801b03161061169c578061169e565b815b925050506116b5565b6116b285858461182b565b90505b95945050505050565b6000826001600160a01b0316846001600160a01b031611156116de579192915b836001600160a01b0316611717606060ff16846001600160801b0316901b8686036001600160a01b0316866001600160a01b0316611864565b8161171e57fe5b04949350505050565b6000826001600160a01b0316846001600160a01b03161115611747579192915b610f9c826001600160801b03168585036001600160a01b0316600160601b611864565b60006001600160601b8161177f858084611864565b028161178757fe5b0491506ec097ce7bc90715b34b9f10000000008211156117b8576ec097ce7bc90715b34b9f100000000091506117c2565b816117c257600191505b50919050565b6000826001600160a01b0316846001600160a01b031611156117e8579192915b600061180b856001600160a01b0316856001600160a01b0316600160601b611864565b90506116b561182684838888036001600160a01b0316611864565b611913565b6000826001600160a01b0316846001600160a01b0316111561184b579192915b610f9c61182683600160601b8787036001600160a01b03165b600080806000198587098686029250828110908390030390508061189a576000841161188f57600080fd5b508290049050611508565b8084116118a657600080fd5b6000848688096000868103871696879004966002600389028118808a02820302808a02820302808a02820302808a02820302808a02820302808a02909103029181900381900460010186841190950394909402919094039290920491909117919091029150509392505050565b806001600160801b038116811461192957600080fd5b919050565b600082601f83011261193e578081fd5b8135602061195361194e83612081565b61205d565b82815281810190858301608080860288018501891015611971578687fd5b865b86811015611a035781838b031215611989578788fd5b6040805183810181811067ffffffffffffffff821117156119a657fe5b825284356119b3816120b7565b8152848801356119c2816120d4565b81890152848201356119d3816120c5565b80838301525060609150818501356119ea816120c5565b9181019190915285529385019391810191600101611973565b509198975050505050505050565b600060a08284031215611a22578081fd5b6040805160a0810167ffffffffffffffff8282108183111715611a4157fe5b8184528294508551835260209150818601518284015283860151848401526060808701518185015260808088015183811115611a7c57600080fd5b8801601f81018a13611a8d57600080fd5b8051611a9b61194e82612081565b81815286810190838801858402850189018e1015611ab857600080fd5b600094505b83851015611b3d5785818f031215611ad457600080fd5b8a518681018181108a82111715611ae757fe5b8c528151611af4816120b7565b8152818a0151611b03816120d4565b818b0152818c0151611b14816120c5565b818d015281880151611b25816120c5565b81890152835260019490940193918801918501611abd565b5080858a01525050505050505050505092915050565b80356119298161209f565b600060208284031215611b6f578081fd5b8135610be98161209f565b600060208284031215611b8b578081fd5b8151610be9816120b7565b600060208284031215611ba7578081fd5b5035919050565b600060208284031215611bbf578081fd5b815167ffffffffffffffff811115611bd5578182fd5b610f9c84828501611a11565b60008060006060808587031215611bf6578283fd5b845167ffffffffffffffff80821115611c0d578485fd5b611c1988838901611a11565b9550602091508187015181811115611c2f578586fd5b8701601f81018913611c3f578586fd5b8051611c4d61194e82612081565b81815284810190838601878402850187018d1015611c6957898afd5b8994505b83851015611ce05787818e031215611c8357898afd5b604080518981018181108982111715611c9857fe5b82528251611ca5816120b7565b815282890151611cb4816120b7565b818a015282820151611cc5816120c5565b91810191909152835260019490940193918601918701611c6d565b5080985050505050505050604084015190509250925092565b60008060408385031215611d0b578182fd5b823567ffffffffffffffff80821115611d22578384fd5b9084019060a08287031215611d35578384fd5b60405160a081018181108382111715611d4a57fe5b806040525082358152602083013560208201526040830135604082015260608301356060820152608083013582811115611d82578586fd5b611d8e8882860161192e565b6080830152509350611da591505060208401611b53565b90509250929050565b600060208284031215611dbf578081fd5b5051919050565b600080600060608486031215611dda578081fd5b83359250602080850135611ded816120b7565b9250604085013567ffffffffffffffff80821115611e09578384fd5b818701915087601f830112611e1c578384fd5b813581811115611e2857fe5b611e3a601f8201601f1916850161205d565b91508082528884828501011115611e4f578485fd5b808484018584013784848284010152508093505050509250925092565b60008060008060808587031215611e81578182fd5b843593506020850135611e93816120c5565b92506040850135611ea3816120c5565b91506060850135611eb3816120c5565b939692955090935050565b60008060408385031215611ed0578182fd5b505080516020909101519092909150565b6001600160a01b0391909116815260200190565b92151583526020830191909152604082015260600190565b90815260200190565b918252602082015260400190565b6020808252600190820152600360fc1b604082015260600190565b6020808252600190820152600d60fa1b604082015260600190565b6020808252600190820152603360f81b604082015260600190565b6020808252600190820152601960f91b604082015260600190565b6020808252600190820152603160f81b604082015260600190565b6020808252600190820152603560f81b604082015260600190565b6020808252600190820152601b60f91b604082015260600190565b6001600160801b039390931683526020830191909152604082015260600190565b938452600292830b6020850152910b60408301526001600160801b0316606082015260800190565b9283526020830191909152604082015260600190565b938452602084019290925260408301521515606082015260800190565b60405181810167ffffffffffffffff8111828210171561207957fe5b604052919050565b600067ffffffffffffffff82111561209557fe5b5060209081020190565b6001600160a01b03811681146120b457600080fd5b50565b80151581146120b457600080fd5b8060020b81146120b457600080fd5b6001600160801b03811681146120b457600080fdfe4f776e61626c653a206e6577206f776e657220697320746865207a65726f20616464726573735369676e6564536166654d6174683a206164646974696f6e206f766572666c6f775369676e6564536166654d6174683a207375627472616374696f6e206f766572666c6f77a26469706673582212202055a3398b58977e6d5e9a34faa771853155536fa0317fbe9478dddcd9051c3e64736f6c63430007060033",
  "devdoc": {
    "kind": "dev",
    "methods": {
      "owner()": {
        "details": "Returns the address of the current owner."
      },
      "renounceOwnership()": {
        "details": "Leaves the contract without owner. It will not be possible to call `onlyOwner` functions anymore. Can only be called by the current owner. NOTE: Renouncing ownership will leave the contract without an owner, thereby removing any functionality that is only available to the owner."
      },
      "transferOwnership(address)": {
        "details": "Transfers ownership of the contract to a new account (`newOwner`). Can only be called by the current owner."
      }
    },
    "version": 1
  },
  "userdoc": {
    "kind": "user",
    "methods": {},
    "version": 1
  },
  "storageLayout": {
    "storage": [
      {
        "astId": 21151,
        "contract": "src/ProductVerifier.sol:ProductVerifier",
        "label": "_owner",
        "offset": 0,
        "slot": "0",
        "type": "t_address"
      },
      {
        "astId": 29309,
        "contract": "src/ProductVerifier.sol:ProductVerifier",
        "label": "pool",
        "offset": 0,
        "slot": "1",
        "type": "t_contract(IPredyV3Pool)29836"
      },
      {
        "astId": 29311,
        "contract": "src/ProductVerifier.sol:ProductVerifier",
        "label": "threshold",
        "offset": 0,
        "slot": "2",
        "type": "t_int256"
      }
    ],
    "types": {
      "t_address": {
        "encoding": "inplace",
        "label": "address",
        "numberOfBytes": "20"
      },
      "t_contract(IPredyV3Pool)29836": {
        "encoding": "inplace",
        "label": "contract IPredyV3Pool",
        "numberOfBytes": "20"
      },
      "t_int256": {
        "encoding": "inplace",
        "label": "int256",
        "numberOfBytes": "32"
      }
    }
  }
}