{
  "address": "0x6968Cd4B86732089A8943A82F48E9220B4Fe7FD8",
  "abi": [
    {
      "inputs": [
        {
          "internalType": "contract IPredyV3Pool",
          "name": "_pool",
          "type": "address"
        }
      ],
      "stateMutability": "nonpayable",
      "type": "constructor"
    },
    {
      "anonymous": false,
      "inputs": [
        {
          "indexed": true,
          "internalType": "address",
          "name": "previousOwner",
          "type": "address"
        },
        {
          "indexed": true,
          "internalType": "address",
          "name": "newOwner",
          "type": "address"
        }
      ],
      "name": "OwnershipTransferred",
      "type": "event"
    },
    {
      "anonymous": false,
      "inputs": [
        {
          "indexed": false,
          "internalType": "uint256",
          "name": "vaultId",
          "type": "uint256"
        },
        {
          "indexed": false,
          "internalType": "uint256",
          "name": "amount0",
          "type": "uint256"
        },
        {
          "indexed": false,
          "internalType": "uint256",
          "name": "amount1",
          "type": "uint256"
        },
        {
          "indexed": false,
          "internalType": "bool",
          "name": "zeroToOne",
          "type": "bool"
        }
      ],
      "name": "PositionUpdated",
      "type": "event"
    },
    {
      "inputs": [
        {
          "components": [
            {
              "internalType": "uint256",
              "name": "collateral0",
              "type": "uint256"
            },
            {
              "internalType": "uint256",
              "name": "collateral1",
              "type": "uint256"
            },
            {
              "internalType": "uint256",
              "name": "debt0",
              "type": "uint256"
            },
            {
              "internalType": "uint256",
              "name": "debt1",
              "type": "uint256"
            },
            {
              "components": [
                {
                  "internalType": "bool",
                  "name": "isCollateral",
                  "type": "bool"
                },
                {
                  "internalType": "uint128",
                  "name": "liquidity",
                  "type": "uint128"
                },
                {
                  "internalType": "int24",
                  "name": "lowerTick",
                  "type": "int24"
                },
                {
                  "internalType": "int24",
                  "name": "upperTick",
                  "type": "int24"
                }
              ],
              "internalType": "struct PositionVerifier.LPT[]",
              "name": "lpts",
              "type": "tuple[]"
            }
          ],
          "internalType": "struct PositionVerifier.Position",
          "name": "position",
          "type": "tuple"
        },
        {
          "internalType": "bool",
          "name": "isMarginZero",
          "type": "bool"
        }
      ],
      "name": "generateProof",
      "outputs": [
        {
          "components": [
            {
              "internalType": "bool",
              "name": "isDebt",
              "type": "bool"
            },
            {
              "internalType": "bool",
              "name": "isMin",
              "type": "bool"
            },
            {
              "internalType": "int24",
              "name": "tick",
              "type": "int24"
            }
          ],
          "internalType": "struct PositionVerifier.Proof[]",
          "name": "proofs",
          "type": "tuple[]"
        }
      ],
      "stateMutability": "pure",
      "type": "function"
    },
    {
      "inputs": [
        {
          "internalType": "uint256",
          "name": "requestedAmount",
          "type": "uint256"
        },
        {
          "internalType": "int24",
          "name": "tick",
          "type": "int24"
        },
        {
          "internalType": "int24",
          "name": "lower",
          "type": "int24"
        },
        {
          "internalType": "int24",
          "name": "upper",
          "type": "int24"
        }
      ],
      "name": "getLiquidityAndAmount",
      "outputs": [
        {
          "internalType": "uint128",
          "name": "liquidity",
          "type": "uint128"
        },
        {
          "internalType": "uint256",
          "name": "amount0",
          "type": "uint256"
        },
        {
          "internalType": "uint256",
          "name": "amount1",
          "type": "uint256"
        }
      ],
      "stateMutability": "view",
      "type": "function"
    },
    {
      "inputs": [
        {
          "components": [
            {
              "internalType": "uint256",
              "name": "collateral0",
              "type": "uint256"
            },
            {
              "internalType": "uint256",
              "name": "collateral1",
              "type": "uint256"
            },
            {
              "internalType": "uint256",
              "name": "debt0",
              "type": "uint256"
            },
            {
              "internalType": "uint256",
              "name": "debt1",
              "type": "uint256"
            },
            {
              "components": [
                {
                  "internalType": "bool",
                  "name": "isCollateral",
                  "type": "bool"
                },
                {
                  "internalType": "uint128",
                  "name": "liquidity",
                  "type": "uint128"
                },
                {
                  "internalType": "int24",
                  "name": "lowerTick",
                  "type": "int24"
                },
                {
                  "internalType": "int24",
                  "name": "upperTick",
                  "type": "int24"
                }
              ],
              "internalType": "struct PositionVerifier.LPT[]",
              "name": "lpts",
              "type": "tuple[]"
            }
          ],
          "internalType": "struct PositionVerifier.Position",
          "name": "position",
          "type": "tuple"
        },
        {
          "internalType": "uint160",
          "name": "sqrtPrice",
          "type": "uint160"
        }
      ],
      "name": "getRequiredTokenAmounts",
      "outputs": [
        {
          "internalType": "int256",
          "name": "totalAmount0",
          "type": "int256"
        },
        {
          "internalType": "int256",
          "name": "totalAmount1",
          "type": "int256"
        }
      ],
      "stateMutability": "pure",
      "type": "function"
    },
    {
      "inputs": [
        {
          "internalType": "uint256",
          "name": "_vaultId",
          "type": "uint256"
        },
        {
          "components": [
            {
              "components": [
                {
                  "internalType": "uint256",
                  "name": "collateral0",
                  "type": "uint256"
                },
                {
                  "internalType": "uint256",
                  "name": "collateral1",
                  "type": "uint256"
                },
                {
                  "internalType": "uint256",
                  "name": "debt0",
                  "type": "uint256"
                },
                {
                  "internalType": "uint256",
                  "name": "debt1",
                  "type": "uint256"
                },
                {
                  "components": [
                    {
                      "internalType": "bool",
                      "name": "isCollateral",
                      "type": "bool"
                    },
                    {
                      "internalType": "uint128",
                      "name": "liquidity",
                      "type": "uint128"
                    },
                    {
                      "internalType": "int24",
                      "name": "lowerTick",
                      "type": "int24"
                    },
                    {
                      "internalType": "int24",
                      "name": "upperTick",
                      "type": "int24"
                    }
                  ],
                  "internalType": "struct PositionVerifier.LPT[]",
                  "name": "lpts",
                  "type": "tuple[]"
                }
              ],
              "internalType": "struct PositionVerifier.Position",
              "name": "position",
              "type": "tuple"
            },
            {
              "components": [
                {
                  "internalType": "bool",
                  "name": "isDebt",
                  "type": "bool"
                },
                {
                  "internalType": "bool",
                  "name": "isMin",
                  "type": "bool"
                },
                {
                  "internalType": "int24",
                  "name": "tick",
                  "type": "int24"
                }
              ],
              "internalType": "struct PositionVerifier.Proof[]",
              "name": "proofs",
              "type": "tuple[]"
            },
            {
              "internalType": "uint256",
              "name": "amountInMaximum",
              "type": "uint256"
            },
            {
              "internalType": "bool",
              "name": "isLiquidationRequired",
              "type": "bool"
            }
          ],
          "internalType": "struct IProductVerifier.OpenPositionParams",
          "name": "_params",
          "type": "tuple"
        }
      ],
      "name": "openPosition",
      "outputs": [
        {
          "internalType": "uint256",
          "name": "",
          "type": "uint256"
        },
        {
          "internalType": "uint256",
          "name": "",
          "type": "uint256"
        }
      ],
      "stateMutability": "nonpayable",
      "type": "function"
    },
    {
      "inputs": [],
      "name": "owner",
      "outputs": [
        {
          "internalType": "address",
          "name": "",
          "type": "address"
        }
      ],
      "stateMutability": "view",
      "type": "function"
    },
    {
      "inputs": [],
      "name": "pool",
      "outputs": [
        {
          "internalType": "contract IPredyV3Pool",
          "name": "",
          "type": "address"
        }
      ],
      "stateMutability": "view",
      "type": "function"
    },
    {
      "inputs": [],
      "name": "renounceOwnership",
      "outputs": [],
      "stateMutability": "nonpayable",
      "type": "function"
    },
    {
      "inputs": [
        {
          "internalType": "int256",
          "name": "_threshold",
          "type": "int256"
        }
      ],
      "name": "setThreshold",
      "outputs": [],
      "stateMutability": "nonpayable",
      "type": "function"
    },
    {
      "inputs": [],
      "name": "threshold",
      "outputs": [
        {
          "internalType": "int256",
          "name": "",
          "type": "int256"
        }
      ],
      "stateMutability": "view",
      "type": "function"
    },
    {
      "inputs": [
        {
          "internalType": "address",
          "name": "newOwner",
          "type": "address"
        }
      ],
      "name": "transferOwnership",
      "outputs": [],
      "stateMutability": "nonpayable",
      "type": "function"
    }
  ],
  "transactionHash": "0x40cb854f9f49f17baaff0a0763c4bc27d964b5ad6c6da4237b99e465b227f549",
  "args": [
    "0xdA882DB5f056B09CE88748aA9D8d7279F599a678"
  ],
  "solcInputHash": "41a72310410cb1f4618c1c11f5cf05d3",
  "bytecode": "0x60806040523480156200001157600080fd5b5060405162002b0f38038062002b0f8339810160408190526200003491620000b9565b600062000040620000b5565b600080546001600160a01b0319166001600160a01b0383169081178255604051929350917f8be0079c531659141344cd1fd0a4f28419497f9722a3daafe3b4186f6b6457e0908290a350600180546001600160a01b0319166001600160a01b039290921691909117905560c8600255620000e9565b3390565b600060208284031215620000cb578081fd5b81516001600160a01b0381168114620000e2578182fd5b9392505050565b612a1680620000f96000396000f3fe608060405234801561001057600080fd5b506004361061009e5760003560e01c80638da5cb5b116100665780638da5cb5b146101215780638fa17fc314610129578063a2ae33681461014b578063ef0fb5581461015e578063f2fde38b146101715761009e565b806316f0115b146100a35780632d79e454146100c157806342cde4e8146100e2578063477bd52d146100f7578063715018a614610117575b600080fd5b6100ab610184565b6040516100b891906126f2565b60405180910390f35b6100d46100cf36600461260c565b610193565b6040516100b8929190612787565b6100ea610819565b6040516100b8919061277e565b61010a61010536600461250d565b61081f565b6040516100b89190612706565b61011f610834565b005b6100ab6108f2565b61013c6101373660046125ba565b610901565b6040516100b89392919061286d565b6100d461015936600461255d565b6109a8565b61011f61016c366004612452565b6109c0565b61011f61017f36600461241a565b6109c5565b6001546001600160a01b031681565b805160408082015182516060808501516020860151600154928801519551635ce20ffb60e01b815260009788979096860395938303946001600160a01b031693635ce20ffb936101e8938d93906004016128cc565b600060405180830381600087803b15801561020257600080fd5b505af1158015610216573d6000803e3d6000fd5b505060015460408087015160608801519151631b7d736f60e11b81526001600160a01b0390931694506336fae6de9350610255928c92906004016128b6565b600060405180830381600087803b15801561026f57600080fd5b505af1158015610283573d6000803e3d6000fd5b5050505060005b8360800151518110156104c657836080015181815181106102a757fe5b602002602001015160000151156103bd576001546080850151805160009283926001600160a01b039091169163e7ebf0bd918d91879081106102e557fe5b6020026020010151604001518960800151878151811061030157fe5b6020026020010151606001518a60800151888151811061031d57fe5b6020026020010151602001516040518563ffffffff1660e01b8152600401610348949392919061288e565b6040805180830381600087803b15801561036157600080fd5b505af1158015610375573d6000803e3d6000fd5b505050506040513d601f19601f8201168201806040525081019061039991906126cf565b90925090506103a88583610ad9565b94506103b48482610ad9565b935050506104be565b6001546080850151805160009283926001600160a01b039091169163aa763556918d91879081106103ea57fe5b6020026020010151604001518960800151878151811061040657fe5b6020026020010151606001518a60800151888151811061042257fe5b6020026020010151602001516040518563ffffffff1660e01b815260040161044d949392919061288e565b6040805180830381600087803b15801561046657600080fd5b505af115801561047a573d6000803e3d6000fd5b505050506040513d601f19601f8201168201806040525081019061049e91906126cf565b90925090506104ad8583610b3e565b94506104b98482610b3e565b935050505b60010161028a565b5085606001516105eb5760015460405163eb02c30160e01b81526105e9916001600160a01b03169063eb02c30190610502908b9060040161277e565b60006040518083038186803b15801561051a57600080fd5b505afa15801561052e573d6000803e3d6000fd5b505050506040513d6000823e601f3d908101601f19168201604052610556919081019061246a565b8760200151600160009054906101000a90046001600160a01b03166001600160a01b031663517ede9d6040518163ffffffff1660e01b815260040160206040518083038186803b1580156105a957600080fd5b505afa1580156105bd573d6000803e3d6000fd5b505050506040513d601f19601f820116820180604052508101906105e19190612436565b600254610ba3565b505b6000821380156105fb5750600081125b156106e65760015460408088015190516349b7323960e01b81526000926001600160a01b0316916349b7323991610639918591889190600401612766565b602060405180830381600087803b15801561065357600080fd5b505af1158015610667573d6000803e3d6000fd5b505050506040513d601f19601f8201168201806040525081019061068b91906125a2565b90507f41c6c6f66ef544ee7b2ce95c6001fe7bd8cf797242d43805ac5006d92a4a3a4488848360006040516106c394939291906128cc565b60405180910390a160006106d982848303610f14565b9550955050505050610812565b6000811380156106f65750600082125b156107e4576001805460408089015190516349b7323960e01b81526000936001600160a01b03909316926349b732399261073592879190600401612766565b602060405180830381600087803b15801561074f57600080fd5b505af1158015610763573d6000803e3d6000fd5b505050506040513d601f19601f8201168201806040525081019061078791906125a2565b90507f41c6c6f66ef544ee7b2ce95c6001fe7bd8cf797242d43805ac5006d92a4a3a4488828460016040516107bf94939291906128cc565b60405180910390a16107d5816000859003610f14565b60009550955050505050610812565b600081121580156107f6575060008212155b156108075790935091506108129050565b600080945094505050505b9250929050565b60025481565b606061082b8383610f71565b90505b92915050565b61083c6111dd565b6001600160a01b031661084d6108f2565b6001600160a01b0316146108a8576040805162461bcd60e51b815260206004820181905260248201527f4f776e61626c653a2063616c6c6572206973206e6f7420746865206f776e6572604482015290519081900360640190fd5b600080546040516001600160a01b03909116907f8be0079c531659141344cd1fd0a4f28419497f9722a3daafe3b4186f6b6457e0908390a3600080546001600160a01b0319169055565b6000546001600160a01b031690565b6000806000610998600160009054906101000a90046001600160a01b03166001600160a01b031663517ede9d6040518163ffffffff1660e01b815260040160206040518083038186803b15801561095757600080fd5b505afa15801561096b573d6000803e3d6000fd5b505050506040513d601f19601f8201168201806040525081019061098f9190612436565b888888886111e1565b9250925092509450945094915050565b6000806109b58484611230565b915091509250929050565b600255565b6109cd6111dd565b6001600160a01b03166109de6108f2565b6001600160a01b031614610a39576040805162461bcd60e51b815260206004820181905260248201527f4f776e61626c653a2063616c6c6572206973206e6f7420746865206f776e6572604482015290519081900360640190fd5b6001600160a01b038116610a7e5760405162461bcd60e51b81526004018080602001828103825260268152602001806129766026913960400191505060405180910390fd5b600080546040516001600160a01b03808516939216917f8be0079c531659141344cd1fd0a4f28419497f9722a3daafe3b4186f6b6457e091a3600080546001600160a01b0319166001600160a01b0392909216919091179055565b6000828201818312801590610aee5750838112155b80610b035750600083128015610b0357508381125b61082b5760405162461bcd60e51b815260040180806020018281038252602181526020018061299c6021913960400191505060405180910390fd5b6000818303818312801590610b535750838113155b80610b685750600083128015610b6857508381135b61082b5760405162461bcd60e51b81526004018080602001828103825260248152602001806129bd6024913960400191505060405180910390fd5b600084608001515160001415610bbb57506000610f0c565b835185608001515114610be95760405162461bcd60e51b8152600401610be090612795565b60405180910390fd5b610bf2856112fc565b5060005b8451811015610e5257848181518110610c0b57fe5b60200260200101516000015115610e255785608001518181518110610c2c57fe5b60200260200101516000015115610c555760405162461bcd60e51b8152600401610be0906127e6565b848181518110610c6157fe5b60200260200101516020015115610db357848181518110610c7e57fe5b60200260200101516040015160020b86608001518281518110610c9d57fe5b60200260200101516040015160020b13158015610cf2575085608001518181518110610cc557fe5b60200260200101516060015160020b858281518110610ce057fe5b60200260200101516040015160020b13155b610d0e5760405162461bcd60e51b8152600401610be09061281c565b6000610d3287878481518110610d2057fe5b602002602001015160400151876113b8565b9050808460000313158015610d475750838113155b610d635760405162461bcd60e51b8152600401610be090612801565b6000610d8f88610d89898681518110610d7857fe5b6020026020010151604001516113e8565b8861171a565b1215610dad5760405162461bcd60e51b8152600401610be0906127cb565b50610e20565b6000610ddb8788608001518481518110610dc957fe5b602002602001015160600151876113b8565b610e018889608001518581518110610def57fe5b602002602001015160400151886113b8565b021215610e205760405162461bcd60e51b8152600401610be0906127b0565b610e4a565b85608001518181518110610e3557fe5b602002602001015160000151610e4a57600080fd5b600101610bf6565b508215610eb35781600003610e678685611778565b1215610e855760405162461bcd60e51b8152600401610be090612837565b81610e9086856117c2565b1315610eae5760405162461bcd60e51b8152600401610be090612852565b610f08565b81610ebe8685611778565b1315610edc5760405162461bcd60e51b8152600401610be090612837565b81600003610eea86856117c2565b1215610f085760405162461bcd60e51b8152600401610be090612852565b5060015b949350505050565b600082821115610f6b576040805162461bcd60e51b815260206004820152601e60248201527f536166654d6174683a207375627472616374696f6e206f766572666c6f770000604482015290519081900360640190fd5b50900390565b606082608001515167ffffffffffffffff81118015610f8f57600080fd5b50604051908082528060200260200182016040528015610fc957816020015b610fb66120bb565b815260200190600190039081610fae5790505b50905060005b8360800151518110156111d65783608001518181518110610fec57fe5b60200260200101516000015115611038576040805160608101825260008082526020820181905291810191909152825183908390811061102857fe5b60200260200101819052506111ce565b6000806110606110488785611805565b61105b88608001518681518110610d7857fe5b611230565b9150915060006110f9866110bc576110b7846110968a60800151888151811061108557fe5b6020026020010151606001516113e8565b8a6080015188815181106110a657fe5b602002602001015160200151611909565b6110f4565b6110f4836110d38a608001518881518110610d7857fe5b8a6080015188815181106110e357fe5b602002602001015160200151611949565b611976565b90506000600a8260020b8161110a57fe5b0590506000600a8360020b8161111c57fe5b07905081600a02925060058160020b1261113757600a830192505b505060008160020b8860800151868151811061114f57fe5b60200260200101516040015160020b1315801561118d57508760800151858151811061117757fe5b60200260200101516060015160020b8260020b13155b9050604051806060016040528060011515815260200182151581526020018360020b8152508686815181106111be57fe5b6020026020010181905250505050505b600101610fcf565b5092915050565b3390565b600080600087156112165761120b6000886111fb876113e8565b6112048a6113e8565b8989611c95565b925092509250611225565b61120b8760006111fb886113e8565b955095509592505050565b60008060005b8460800151518110156112d8576000806112918661125d89608001518681518110610d7857fe5b6112708a60800151878151811061108557fe5b8a60800151878151811061128057fe5b602002602001015160200151611ce7565b91509150866080015183815181106112a557fe5b602002602001015160000151156112c35793810193928301926112ce565b818503945080840393505b5050600101611236565b50835160208501516040860151606090960151939091019490940394930103919050565b6000620d89b319815b8360800151518110156113b1578360800151818151811061132257fe5b60200260200101516060015160020b8460800151828151811061134157fe5b60200260200101516040015160020b1261135a57600080fd5b8360800151818151811061136a57fe5b60200260200101516040015160020b8260020b131561138857600080fd5b8360800151818151811061139857fe5b6020908102919091010151606001519150600101611305565b5050919050565b60008060006113ca8661105b876113e8565b9150915083156113dd5791506113e19050565b5090505b9392505050565b60008060008360020b126113ff578260020b611407565b8260020b6000035b9050620d89e8811115611445576040805162461bcd60e51b81526020600482015260016024820152601560fa1b604482015290519081900360640190fd5b60006001821661145957600160801b61146b565b6ffffcb933bd6fad37aa2d162d1a5940015b70ffffffffffffffffffffffffffffffffff169050600282161561149f576ffff97272373d413259a46990580e213a0260801c5b60048216156114be576ffff2e50f5f656932ef12357cf3c7fdcc0260801c5b60088216156114dd576fffe5caca7e10e4e61c3624eaa0941cd00260801c5b60108216156114fc576fffcb9843d60f6159c9db58835c9266440260801c5b602082161561151b576fff973b41fa98c081472e6896dfb254c00260801c5b604082161561153a576fff2ea16466c96a3843ec78b326b528610260801c5b6080821615611559576ffe5dee046a99a2a811c461f1969c30530260801c5b610100821615611579576ffcbe86c7900a88aedcffc83b479aa3a40260801c5b610200821615611599576ff987a7253ac413176f2b074cf7815e540260801c5b6104008216156115b9576ff3392b0822b70005940c7a398e4b70f30260801c5b6108008216156115d9576fe7159475a2c29b7443b29c7fa6e889d90260801c5b6110008216156115f9576fd097f3bdfd2022b8845ad8f792aa58250260801c5b612000821615611619576fa9f746462d870fdf8a65dc1f90e061e50260801c5b614000821615611639576f70d869a156d2a1b890bb3df62baf32f70260801c5b618000821615611659576f31be135f97d08fd981231505542fcfa60260801c5b6201000082161561167a576f09aa508b5b7a84e1c677de54f3e99bc90260801c5b6202000082161561169a576e5d6af8dedb81196699c329225ee6040260801c5b620400008216156116b9576d2216e584f5fa1ea926041bedfe980260801c5b620800008216156116d6576b048a170391f7dc42444e8fa20260801c5b60008460020b13156116f15780600019816116ed57fe5b0490505b640100000000810615611705576001611708565b60005b60ff16602082901c0192505050919050565b60008061172f846001600160a01b0316611d83565b905060008061173e8787611230565b91509150841561175f57670de0b6b3a76400009202919091050190506113e1565b80670de0b6b3a7640000838502050193505050506113e1565b60008260800151516000141561179b57611794836000846113b8565b905061082e565b61082b8384608001516000815181106117b057fe5b602002602001015160400151846113b8565b6000826080015151600014156117de57611794836000846113b8565b61082b8384608001516000815181106117f357fe5b602002602001015160600151846113b8565b61180d6120db565b600060018460800151510367ffffffffffffffff8111801561182e57600080fd5b5060405190808252806020026020018201604052801561186857816020015b61185561210a565b81526020019060019003908161184d5790505b5090506000805b8560800151518110156118c75784811415611889576118bf565b8560800151818151811061189957fe5b60200260200101518383815181106118ad57fe5b60209081029190910101526001909101905b60010161186f565b506040518060a0016040528086600001518152602001866020015181526020018660400151815260200186606001518152602001838152509250505092915050565b6000610f0c606083811b6fffffffffffffffffffffffffffffffff60601b16906001600160a01b038616906001600160801b03861688830201901b611de1565b6000826001600160a01b031661196d85600160601b856001600160801b0316611de1565b01949350505050565b60006401000276a36001600160a01b038316108015906119b2575073fffd8963efd1fc6a506488495d951d5263988d266001600160a01b038316105b6119e7576040805162461bcd60e51b81526020600482015260016024820152602960f91b604482015290519081900360640190fd5b640100000000600160c01b03602083901b166001600160801b03811160071b81811c67ffffffffffffffff811160061b90811c63ffffffff811160051b90811c61ffff811160041b90811c60ff8111600390811b91821c600f811160021b90811c918211600190811b92831c97908811961790941790921717909117171760808110611a7b57607f810383901c9150611a85565b80607f0383901b91505b908002607f81811c60ff83811c9190911c800280831c81831c1c800280841c81841c1c800280851c81851c1c800280861c81861c1c800280871c81871c1c800280881c81881c1c800280891c81891c1c8002808a1c818a1c1c8002808b1c818b1c1c8002808c1c818c1c1c8002808d1c818d1c1c8002808e1c9c81901c9c909c1c80029c8d901c9e9d607f198f0160401b60c09190911c678000000000000000161760c19b909b1c674000000000000000169a909a1760c29990991c672000000000000000169890981760c39790971c671000000000000000169690961760c49590951c670800000000000000169490941760c59390931c670400000000000000169290921760c69190911c670200000000000000161760c79190911c670100000000000000161760c89190911c6680000000000000161760c99190911c6640000000000000161760ca9190911c6620000000000000161760cb9190911c6610000000000000161760cc9190911c6608000000000000161760cd9190911c66040000000000001617693627a301d71055774c8581026f028f6481ab7f045a5af012a19d003aa9198101608090811d906fdb2df09e81959a81455e260799a0632f8301901d600281810b9083900b14611c8657886001600160a01b0316611c6a826113e8565b6001600160a01b03161115611c7f5781611c81565b805b611c88565b815b9998505050505050505050565b6000806000611cb787611ca7876113e8565b611cb0876113e8565b8c8c611e90565b9250611cd586611cc6876113e8565b611ccf876113e8565b86611ce7565b939a9099509297509195505050505050565b600080836001600160a01b0316856001600160a01b03161115611d08579293925b846001600160a01b0316866001600160a01b031611611d3357611d2c858585611f54565b9150611d7a565b836001600160a01b0316866001600160a01b03161015611d6c57611d58868585611f54565b9150611d65858785611fbd565b9050611d7a565b611d77858585611fbd565b90505b94509492505050565b60006001600160601b81611d98858084611de1565b0281611da057fe5b0491506ec097ce7bc90715b34b9f1000000000821115611dd1576ec097ce7bc90715b34b9f10000000009150611ddb565b81611ddb57600191505b50919050565b6000808060001985870986860292508281109083900303905080611e175760008411611e0c57600080fd5b5082900490506113e1565b808411611e2357600080fd5b6000848688096000868103871696879004966002600389028118808a02820302808a02820302808a02820302808a02820302808a02820302808a02909103029181900381900460010186841190950394909402919094039290920491909117919091029150509392505050565b6000836001600160a01b0316856001600160a01b03161115611eb0579293925b846001600160a01b0316866001600160a01b031611611edb57611ed4858585612000565b9050611f4b565b836001600160a01b0316866001600160a01b03161015611f3d576000611f02878686612000565b90506000611f11878986612063565b9050806001600160801b0316826001600160801b031610611f325780611f34565b815b92505050611f4b565b611f48858584612063565b90505b95945050505050565b6000826001600160a01b0316846001600160a01b03161115611f74579192915b836001600160a01b0316611fad606060ff16846001600160801b0316901b8686036001600160a01b0316866001600160a01b0316611de1565b81611fb457fe5b04949350505050565b6000826001600160a01b0316846001600160a01b03161115611fdd579192915b610f0c826001600160801b03168585036001600160a01b0316600160601b611de1565b6000826001600160a01b0316846001600160a01b03161115612020579192915b6000612043856001600160a01b0316856001600160a01b0316600160601b611de1565b9050611f4b61205e84838888036001600160a01b0316611de1565b6120a0565b6000826001600160a01b0316846001600160a01b03161115612083579192915b610f0c61205e83600160601b8787036001600160a01b0316611de1565b806001600160801b03811681146120b657600080fd5b919050565b604080516060810182526000808252602082018190529181019190915290565b6040518060a0016040528060008152602001600081526020016000815260200160008152602001606081525090565b60408051608081018252600080825260208201819052918101829052606081019190915290565b600082601f830112612141578081fd5b815160206121566121518361290d565b6128e9565b82815281810190858301608080860288018501891015612174578687fd5b865b868110156122065781838b03121561218c578788fd5b6040805183810181811067ffffffffffffffff821117156121a957fe5b825284516121b681612943565b8152848801516121c581612960565b81890152848201516121d681612951565b80838301525060609150818501516121ed81612951565b9181019190915285529385019391810191600101612176565b509198975050505050505050565b600082601f830112612224578081fd5b813560206122346121518361290d565b82815281810190858301606080860288018501891015612252578687fd5b865b868110156122065781838b03121561226a578788fd5b6040805183810181811067ffffffffffffffff8211171561228757fe5b8252843561229481612943565b8152848801356122a381612943565b81890152848201356122b481612951565b9181019190915285529385019391810191600101612254565b80356120b681612943565b600060a082840312156122e9578081fd5b6040805160a0810167ffffffffffffffff828210818311171561230857fe5b818452829450853583526020915081860135828401528386013584840152606086013560608401526080808701358281111561234357600080fd5b8701601f8101891361235457600080fd5b80356123626121518261290d565b81815285810190838701858402850188018d101561237f57600080fd5b60009450845b848110156124045786828f03121561239b578586fd5b8a518781018181108a821117156123ae57fe5b8c5282356123bb81612943565b8152828a01356123ca81612960565b818b0152828c01356123db81612951565b818d015260608301356123ed81612951565b606082015284529288019290860190600101612385565b5050808589015250505050505050505092915050565b60006020828403121561242b578081fd5b813561082b8161292b565b600060208284031215612447578081fd5b815161082b81612943565b600060208284031215612463578081fd5b5035919050565b60006020828403121561247b578081fd5b815167ffffffffffffffff80821115612492578283fd5b9083019060a082860312156124a5578283fd5b60405160a0810181811083821117156124ba57fe5b8060405250825181526020830151602082015260408301516040820152606083015160608201526080830151828111156124f2578485fd5b6124fe87828601612131565b60808301525095945050505050565b6000806040838503121561251f578081fd5b823567ffffffffffffffff811115612535578182fd5b612541858286016122d8565b925050602083013561255281612943565b809150509250929050565b6000806040838503121561256f578182fd5b823567ffffffffffffffff811115612585578283fd5b612591858286016122d8565b92505060208301356125528161292b565b6000602082840312156125b3578081fd5b5051919050565b600080600080608085870312156125cf578182fd5b8435935060208501356125e181612951565b925060408501356125f181612951565b9150606085013561260181612951565b939692955090935050565b6000806040838503121561261e578182fd5b82359150602083013567ffffffffffffffff8082111561263c578283fd5b908401906080828703121561264f578283fd5b60405160808101818110838211171561266457fe5b604052823582811115612675578485fd5b612681888286016122d8565b825250602083013582811115612695578485fd5b6126a188828601612214565b602083015250604083013560408201526126bd606084016122cd565b60608201528093505050509250929050565b600080604083850312156126e1578182fd5b505080516020909101519092909150565b6001600160a01b0391909116815260200190565b602080825282518282018190526000919060409081850190868401855b828110156127595781518051151585528681015115158786015285015160020b8585015260609093019290850190600101612723565b5091979650505050505050565b92151583526020830191909152604082015260600190565b90815260200190565b918252602082015260400190565b6020808252600190820152600360fc1b604082015260600190565b6020808252600190820152600d60fa1b604082015260600190565b6020808252600190820152603360f81b604082015260600190565b6020808252600190820152603760f81b604082015260600190565b6020808252600190820152601960f91b604082015260600190565b6020808252600190820152603160f81b604082015260600190565b6020808252600190820152603560f81b604082015260600190565b6020808252600190820152601b60f91b604082015260600190565b6001600160801b039390931683526020830191909152604082015260600190565b938452600292830b6020850152910b60408301526001600160801b0316606082015260800190565b9283526020830191909152604082015260600190565b938452602084019290925260408301521515606082015260800190565b60405181810167ffffffffffffffff8111828210171561290557fe5b604052919050565b600067ffffffffffffffff82111561292157fe5b5060209081020190565b6001600160a01b038116811461294057600080fd5b50565b801515811461294057600080fd5b8060020b811461294057600080fd5b6001600160801b038116811461294057600080fdfe4f776e61626c653a206e6577206f776e657220697320746865207a65726f20616464726573735369676e6564536166654d6174683a206164646974696f6e206f766572666c6f775369676e6564536166654d6174683a207375627472616374696f6e206f766572666c6f77a264697066735822122098932615bdfa45b4c50c6b8fedeb560df781f2bea34f2393d4b9817e494cdf8064736f6c63430007060033",
  "devdoc": {
    "kind": "dev",
    "methods": {
      "owner()": {
        "details": "Returns the address of the current owner."
      },
      "renounceOwnership()": {
        "details": "Leaves the contract without owner. It will not be possible to call `onlyOwner` functions anymore. Can only be called by the current owner. NOTE: Renouncing ownership will leave the contract without an owner, thereby removing any functionality that is only available to the owner."
      },
      "transferOwnership(address)": {
        "details": "Transfers ownership of the contract to a new account (`newOwner`). Can only be called by the current owner."
      }
    },
    "version": 1
  },
  "userdoc": {
    "kind": "user",
    "methods": {},
    "version": 1
  },
  "storageLayout": {
    "storage": [
      {
        "astId": 21151,
        "contract": "src/ProductVerifier.sol:ProductVerifier",
        "label": "_owner",
        "offset": 0,
        "slot": "0",
        "type": "t_address"
      },
      {
        "astId": 29307,
        "contract": "src/ProductVerifier.sol:ProductVerifier",
        "label": "pool",
        "offset": 0,
        "slot": "1",
        "type": "t_contract(IPredyV3Pool)29840"
      },
      {
        "astId": 29309,
        "contract": "src/ProductVerifier.sol:ProductVerifier",
        "label": "threshold",
        "offset": 0,
        "slot": "2",
        "type": "t_int256"
      }
    ],
    "types": {
      "t_address": {
        "encoding": "inplace",
        "label": "address",
        "numberOfBytes": "20"
      },
      "t_contract(IPredyV3Pool)29840": {
        "encoding": "inplace",
        "label": "contract IPredyV3Pool",
        "numberOfBytes": "20"
      },
      "t_int256": {
        "encoding": "inplace",
        "label": "int256",
        "numberOfBytes": "32"
      }
    }
  }
}