{
  "address": "0x6daFF5C34994707dD37fa0Cb8cE63249Abba4e4a",
  "abi": [
    {
      "inputs": [],
      "stateMutability": "nonpayable",
      "type": "constructor"
    },
    {
      "anonymous": false,
      "inputs": [
        {
          "indexed": false,
          "internalType": "address",
          "name": "operator",
          "type": "address"
        }
      ],
      "name": "OperatorUpdated",
      "type": "event"
    },
    {
      "anonymous": false,
      "inputs": [],
      "name": "Paused",
      "type": "event"
    },
    {
      "anonymous": false,
      "inputs": [
        {
          "indexed": false,
          "internalType": "uint256",
          "name": "withdrawnFee0",
          "type": "uint256"
        },
        {
          "indexed": false,
          "internalType": "uint256",
          "name": "withdrawnFee1",
          "type": "uint256"
        }
      ],
      "name": "ProtocolFeeWithdrawn",
      "type": "event"
    },
    {
      "anonymous": false,
      "inputs": [],
      "name": "UnPaused",
      "type": "event"
    },
    {
      "anonymous": false,
      "inputs": [
        {
          "indexed": false,
          "internalType": "uint256",
          "name": "vaultId",
          "type": "uint256"
        },
        {
          "indexed": false,
          "internalType": "address",
          "name": "owner",
          "type": "address"
        }
      ],
      "name": "VaultCreated",
      "type": "event"
    },
    {
      "inputs": [
        {
          "internalType": "bytes32",
          "name": "_rangeId",
          "type": "bytes32"
        },
        {
          "internalType": "uint256",
          "name": "_perpUr",
          "type": "uint256"
        },
        {
          "internalType": "uint256",
          "name": "_elapsed",
          "type": "uint256"
        }
      ],
      "name": "calculateLPTBorrowerAndLenderPremium",
      "outputs": [
        {
          "internalType": "uint256",
          "name": "premiumGrowthForBorrower",
          "type": "uint256"
        },
        {
          "internalType": "uint256",
          "name": "premiumGrowthForLender",
          "type": "uint256"
        },
        {
          "internalType": "uint256",
          "name": "protocolFeePerLiquidity",
          "type": "uint256"
        }
      ],
      "stateMutability": "view",
      "type": "function"
    },
    {
      "inputs": [
        {
          "internalType": "uint256",
          "name": "_vaultId",
          "type": "uint256"
        },
        {
          "components": [
            {
              "internalType": "uint256",
              "name": "subVaultId",
              "type": "uint256"
            },
            {
              "internalType": "uint256",
              "name": "asset0",
              "type": "uint256"
            },
            {
              "internalType": "uint256",
              "name": "asset1",
              "type": "uint256"
            },
            {
              "internalType": "uint256",
              "name": "debt0",
              "type": "uint256"
            },
            {
              "internalType": "uint256",
              "name": "debt1",
              "type": "uint256"
            },
            {
              "components": [
                {
                  "internalType": "bool",
                  "name": "isCollateral",
                  "type": "bool"
                },
                {
                  "internalType": "uint128",
                  "name": "liquidity",
                  "type": "uint128"
                },
                {
                  "internalType": "int24",
                  "name": "lowerTick",
                  "type": "int24"
                },
                {
                  "internalType": "int24",
                  "name": "upperTick",
                  "type": "int24"
                }
              ],
              "internalType": "struct DataType.LPT[]",
              "name": "lpts",
              "type": "tuple[]"
            }
          ],
          "internalType": "struct DataType.Position[]",
          "name": "_positions",
          "type": "tuple[]"
        },
        {
          "components": [
            {
              "internalType": "bool",
              "name": "isLiquidationCall",
              "type": "bool"
            },
            {
              "internalType": "bool",
              "name": "swapAnyway",
              "type": "bool"
            },
            {
              "internalType": "bool",
              "name": "quoterMode",
              "type": "bool"
            },
            {
              "internalType": "bool",
              "name": "isQuoteZero",
              "type": "bool"
            },
            {
              "internalType": "uint8",
              "name": "marginMode0",
              "type": "uint8"
            },
            {
              "internalType": "uint8",
              "name": "marginMode1",
              "type": "uint8"
            },
            {
              "internalType": "int256",
              "name": "deltaMarginAmount0",
              "type": "int256"
            },
            {
              "internalType": "int256",
              "name": "deltaMarginAmount1",
              "type": "int256"
            },
            {
              "internalType": "bytes",
              "name": "metadata",
              "type": "bytes"
            }
          ],
          "internalType": "struct DataType.TradeOption",
          "name": "_tradeOption",
          "type": "tuple"
        },
        {
          "components": [
            {
              "internalType": "uint256",
              "name": "lowerSqrtPrice",
              "type": "uint256"
            },
            {
              "internalType": "uint256",
              "name": "upperSqrtPrice",
              "type": "uint256"
            },
            {
              "internalType": "uint256",
              "name": "swapRatio",
              "type": "uint256"
            },
            {
              "internalType": "uint256",
              "name": "closeRatio",
              "type": "uint256"
            },
            {
              "internalType": "uint256",
              "name": "deadline",
              "type": "uint256"
            }
          ],
          "internalType": "struct DataType.ClosePositionOption",
          "name": "_closePositionOptions",
          "type": "tuple"
        }
      ],
      "name": "closePosition",
      "outputs": [
        {
          "components": [
            {
              "internalType": "int256",
              "name": "amount0",
              "type": "int256"
            },
            {
              "internalType": "int256",
              "name": "amount1",
              "type": "int256"
            }
          ],
          "internalType": "struct DataType.TokenAmounts",
          "name": "requiredAmounts",
          "type": "tuple"
        },
        {
          "components": [
            {
              "internalType": "int256",
              "name": "amount0",
              "type": "int256"
            },
            {
              "internalType": "int256",
              "name": "amount1",
              "type": "int256"
            }
          ],
          "internalType": "struct DataType.TokenAmounts",
          "name": "swapAmounts",
          "type": "tuple"
        }
      ],
      "stateMutability": "nonpayable",
      "type": "function"
    },
    {
      "inputs": [
        {
          "internalType": "uint256",
          "name": "_vaultId",
          "type": "uint256"
        },
        {
          "internalType": "uint256",
          "name": "_subVaultId",
          "type": "uint256"
        },
        {
          "components": [
            {
              "internalType": "bool",
              "name": "isLiquidationCall",
              "type": "bool"
            },
            {
              "internalType": "bool",
              "name": "swapAnyway",
              "type": "bool"
            },
            {
              "internalType": "bool",
              "name": "quoterMode",
              "type": "bool"
            },
            {
              "internalType": "bool",
              "name": "isQuoteZero",
              "type": "bool"
            },
            {
              "internalType": "uint8",
              "name": "marginMode0",
              "type": "uint8"
            },
            {
              "internalType": "uint8",
              "name": "marginMode1",
              "type": "uint8"
            },
            {
              "internalType": "int256",
              "name": "deltaMarginAmount0",
              "type": "int256"
            },
            {
              "internalType": "int256",
              "name": "deltaMarginAmount1",
              "type": "int256"
            },
            {
              "internalType": "bytes",
              "name": "metadata",
              "type": "bytes"
            }
          ],
          "internalType": "struct DataType.TradeOption",
          "name": "_tradeOption",
          "type": "tuple"
        },
        {
          "components": [
            {
              "internalType": "uint256",
              "name": "lowerSqrtPrice",
              "type": "uint256"
            },
            {
              "internalType": "uint256",
              "name": "upperSqrtPrice",
              "type": "uint256"
            },
            {
              "internalType": "uint256",
              "name": "swapRatio",
              "type": "uint256"
            },
            {
              "internalType": "uint256",
              "name": "closeRatio",
              "type": "uint256"
            },
            {
              "internalType": "uint256",
              "name": "deadline",
              "type": "uint256"
            }
          ],
          "internalType": "struct DataType.ClosePositionOption",
          "name": "_closePositionOptions",
          "type": "tuple"
        }
      ],
      "name": "closeSubVault",
      "outputs": [
        {
          "components": [
            {
              "internalType": "int256",
              "name": "amount0",
              "type": "int256"
            },
            {
              "internalType": "int256",
              "name": "amount1",
              "type": "int256"
            }
          ],
          "internalType": "struct DataType.TokenAmounts",
          "name": "requiredAmounts",
          "type": "tuple"
        },
        {
          "components": [
            {
              "internalType": "int256",
              "name": "amount0",
              "type": "int256"
            },
            {
              "internalType": "int256",
              "name": "amount1",
              "type": "int256"
            }
          ],
          "internalType": "struct DataType.TokenAmounts",
          "name": "swapAmounts",
          "type": "tuple"
        }
      ],
      "stateMutability": "nonpayable",
      "type": "function"
    },
    {
      "inputs": [
        {
          "internalType": "uint256",
          "name": "_vaultId",
          "type": "uint256"
        },
        {
          "components": [
            {
              "internalType": "bool",
              "name": "isLiquidationCall",
              "type": "bool"
            },
            {
              "internalType": "bool",
              "name": "swapAnyway",
              "type": "bool"
            },
            {
              "internalType": "bool",
              "name": "quoterMode",
              "type": "bool"
            },
            {
              "internalType": "bool",
              "name": "isQuoteZero",
              "type": "bool"
            },
            {
              "internalType": "uint8",
              "name": "marginMode0",
              "type": "uint8"
            },
            {
              "internalType": "uint8",
              "name": "marginMode1",
              "type": "uint8"
            },
            {
              "internalType": "int256",
              "name": "deltaMarginAmount0",
              "type": "int256"
            },
            {
              "internalType": "int256",
              "name": "deltaMarginAmount1",
              "type": "int256"
            },
            {
              "internalType": "bytes",
              "name": "metadata",
              "type": "bytes"
            }
          ],
          "internalType": "struct DataType.TradeOption",
          "name": "_tradeOption",
          "type": "tuple"
        },
        {
          "components": [
            {
              "internalType": "uint256",
              "name": "lowerSqrtPrice",
              "type": "uint256"
            },
            {
              "internalType": "uint256",
              "name": "upperSqrtPrice",
              "type": "uint256"
            },
            {
              "internalType": "uint256",
              "name": "swapRatio",
              "type": "uint256"
            },
            {
              "internalType": "uint256",
              "name": "closeRatio",
              "type": "uint256"
            },
            {
              "internalType": "uint256",
              "name": "deadline",
              "type": "uint256"
            }
          ],
          "internalType": "struct DataType.ClosePositionOption",
          "name": "_closePositionOptions",
          "type": "tuple"
        }
      ],
      "name": "closeVault",
      "outputs": [
        {
          "components": [
            {
              "internalType": "int256",
              "name": "amount0",
              "type": "int256"
            },
            {
              "internalType": "int256",
              "name": "amount1",
              "type": "int256"
            }
          ],
          "internalType": "struct DataType.TokenAmounts",
          "name": "requiredAmounts",
          "type": "tuple"
        },
        {
          "components": [
            {
              "internalType": "int256",
              "name": "amount0",
              "type": "int256"
            },
            {
              "internalType": "int256",
              "name": "amount1",
              "type": "int256"
            }
          ],
          "internalType": "struct DataType.TokenAmounts",
          "name": "swapAmounts",
          "type": "tuple"
        }
      ],
      "stateMutability": "nonpayable",
      "type": "function"
    },
    {
      "inputs": [],
      "name": "getContext",
      "outputs": [
        {
          "internalType": "bool",
          "name": "",
          "type": "bool"
        },
        {
          "internalType": "uint256",
          "name": "",
          "type": "uint256"
        },
        {
          "internalType": "address",
          "name": "",
          "type": "address"
        },
        {
          "internalType": "uint256",
          "name": "",
          "type": "uint256"
        },
        {
          "internalType": "uint256",
          "name": "",
          "type": "uint256"
        }
      ],
      "stateMutability": "view",
      "type": "function"
    },
    {
      "inputs": [
        {
          "internalType": "uint256",
          "name": "_vaultId",
          "type": "uint256"
        }
      ],
      "name": "getPosition",
      "outputs": [
        {
          "components": [
            {
              "internalType": "uint256",
              "name": "subVaultId",
              "type": "uint256"
            },
            {
              "internalType": "uint256",
              "name": "asset0",
              "type": "uint256"
            },
            {
              "internalType": "uint256",
              "name": "asset1",
              "type": "uint256"
            },
            {
              "internalType": "uint256",
              "name": "debt0",
              "type": "uint256"
            },
            {
              "internalType": "uint256",
              "name": "debt1",
              "type": "uint256"
            },
            {
              "components": [
                {
                  "internalType": "bool",
                  "name": "isCollateral",
                  "type": "bool"
                },
                {
                  "internalType": "uint128",
                  "name": "liquidity",
                  "type": "uint128"
                },
                {
                  "internalType": "int24",
                  "name": "lowerTick",
                  "type": "int24"
                },
                {
                  "internalType": "int24",
                  "name": "upperTick",
                  "type": "int24"
                }
              ],
              "internalType": "struct DataType.LPT[]",
              "name": "lpts",
              "type": "tuple[]"
            }
          ],
          "internalType": "struct DataType.Position[]",
          "name": "",
          "type": "tuple[]"
        }
      ],
      "stateMutability": "view",
      "type": "function"
    },
    {
      "inputs": [
        {
          "internalType": "uint256",
          "name": "_vaultId",
          "type": "uint256"
        }
      ],
      "name": "getPositionCalculatorParams",
      "outputs": [
        {
          "components": [
            {
              "internalType": "int256",
              "name": "marginAmount0",
              "type": "int256"
            },
            {
              "internalType": "int256",
              "name": "marginAmount1",
              "type": "int256"
            },
            {
              "internalType": "uint256",
              "name": "asset0",
              "type": "uint256"
            },
            {
              "internalType": "uint256",
              "name": "asset1",
              "type": "uint256"
            },
            {
              "internalType": "uint256",
              "name": "debt0",
              "type": "uint256"
            },
            {
              "internalType": "uint256",
              "name": "debt1",
              "type": "uint256"
            },
            {
              "components": [
                {
                  "internalType": "bool",
                  "name": "isCollateral",
                  "type": "bool"
                },
                {
                  "internalType": "uint128",
                  "name": "liquidity",
                  "type": "uint128"
                },
                {
                  "internalType": "int24",
                  "name": "lowerTick",
                  "type": "int24"
                },
                {
                  "internalType": "int24",
                  "name": "upperTick",
                  "type": "int24"
                }
              ],
              "internalType": "struct DataType.LPT[]",
              "name": "lpts",
              "type": "tuple[]"
            }
          ],
          "internalType": "struct PositionCalculator.PositionCalculatorParams",
          "name": "",
          "type": "tuple"
        }
      ],
      "stateMutability": "view",
      "type": "function"
    },
    {
      "inputs": [
        {
          "internalType": "bytes32",
          "name": "_rangeId",
          "type": "bytes32"
        }
      ],
      "name": "getRange",
      "outputs": [
        {
          "components": [
            {
              "internalType": "int24",
              "name": "lowerTick",
              "type": "int24"
            },
            {
              "internalType": "int24",
              "name": "upperTick",
              "type": "int24"
            },
            {
              "internalType": "uint128",
              "name": "borrowedLiquidity",
              "type": "uint128"
            },
            {
              "internalType": "uint256",
              "name": "premiumGrowthForBorrower",
              "type": "uint256"
            },
            {
              "internalType": "uint256",
              "name": "premiumGrowthForLender",
              "type": "uint256"
            },
            {
              "internalType": "uint256",
              "name": "fee0Growth",
              "type": "uint256"
            },
            {
              "internalType": "uint256",
              "name": "fee1Growth",
              "type": "uint256"
            },
            {
              "internalType": "uint256",
              "name": "lastTouchedTimestamp",
              "type": "uint256"
            }
          ],
          "internalType": "struct DataType.PerpStatus",
          "name": "",
          "type": "tuple"
        }
      ],
      "stateMutability": "nonpayable",
      "type": "function"
    },
    {
      "inputs": [],
      "name": "getSqrtIndexPrice",
      "outputs": [
        {
          "internalType": "uint160",
          "name": "",
          "type": "uint160"
        }
      ],
      "stateMutability": "view",
      "type": "function"
    },
    {
      "inputs": [],
      "name": "getSqrtPrice",
      "outputs": [
        {
          "internalType": "uint160",
          "name": "sqrtPriceX96",
          "type": "uint160"
        }
      ],
      "stateMutability": "view",
      "type": "function"
    },
    {
      "inputs": [
        {
          "internalType": "uint256",
          "name": "_subVaultId",
          "type": "uint256"
        }
      ],
      "name": "getSubVault",
      "outputs": [
        {
          "components": [
            {
              "internalType": "uint256",
              "name": "id",
              "type": "uint256"
            },
            {
              "components": [
                {
                  "internalType": "enum BaseToken.InterestType",
                  "name": "interestType",
                  "type": "uint8"
                },
                {
                  "internalType": "uint256",
                  "name": "assetAmount",
                  "type": "uint256"
                },
                {
                  "internalType": "uint256",
                  "name": "debtAmount",
                  "type": "uint256"
                },
                {
                  "internalType": "uint256",
                  "name": "lastAssetGrowth",
                  "type": "uint256"
                },
                {
                  "internalType": "uint256",
                  "name": "lastDebtGrowth",
                  "type": "uint256"
                }
              ],
              "internalType": "struct BaseToken.AccountState",
              "name": "balance0",
              "type": "tuple"
            },
            {
              "components": [
                {
                  "internalType": "enum BaseToken.InterestType",
                  "name": "interestType",
                  "type": "uint8"
                },
                {
                  "internalType": "uint256",
                  "name": "assetAmount",
                  "type": "uint256"
                },
                {
                  "internalType": "uint256",
                  "name": "debtAmount",
                  "type": "uint256"
                },
                {
                  "internalType": "uint256",
                  "name": "lastAssetGrowth",
                  "type": "uint256"
                },
                {
                  "internalType": "uint256",
                  "name": "lastDebtGrowth",
                  "type": "uint256"
                }
              ],
              "internalType": "struct BaseToken.AccountState",
              "name": "balance1",
              "type": "tuple"
            },
            {
              "components": [
                {
                  "internalType": "bool",
                  "name": "isCollateral",
                  "type": "bool"
                },
                {
                  "internalType": "bytes32",
                  "name": "rangeId",
                  "type": "bytes32"
                },
                {
                  "internalType": "uint128",
                  "name": "liquidityAmount",
                  "type": "uint128"
                },
                {
                  "internalType": "uint256",
                  "name": "premiumGrowthLast",
                  "type": "uint256"
                },
                {
                  "internalType": "uint256",
                  "name": "fee0Last",
                  "type": "uint256"
                },
                {
                  "internalType": "uint256",
                  "name": "fee1Last",
                  "type": "uint256"
                }
              ],
              "internalType": "struct DataType.LPTState[]",
              "name": "lpts",
              "type": "tuple[]"
            }
          ],
          "internalType": "struct DataType.SubVault",
          "name": "",
          "type": "tuple"
        }
      ],
      "stateMutability": "view",
      "type": "function"
    },
    {
      "inputs": [],
      "name": "getTokenState",
      "outputs": [
        {
          "components": [
            {
              "internalType": "uint256",
              "name": "totalCompoundDeposited",
              "type": "uint256"
            },
            {
              "internalType": "uint256",
              "name": "totalCompoundBorrowed",
              "type": "uint256"
            },
            {
              "internalType": "uint256",
              "name": "totalNormalDeposited",
              "type": "uint256"
            },
            {
              "internalType": "uint256",
              "name": "totalNormalBorrowed",
              "type": "uint256"
            },
            {
              "internalType": "uint256",
              "name": "assetScaler",
              "type": "uint256"
            },
            {
              "internalType": "uint256",
              "name": "debtScaler",
              "type": "uint256"
            },
            {
              "internalType": "uint256",
              "name": "assetGrowth",
              "type": "uint256"
            },
            {
              "internalType": "uint256",
              "name": "debtGrowth",
              "type": "uint256"
            }
          ],
          "internalType": "struct BaseToken.TokenState",
          "name": "",
          "type": "tuple"
        },
        {
          "components": [
            {
              "internalType": "uint256",
              "name": "totalCompoundDeposited",
              "type": "uint256"
            },
            {
              "internalType": "uint256",
              "name": "totalCompoundBorrowed",
              "type": "uint256"
            },
            {
              "internalType": "uint256",
              "name": "totalNormalDeposited",
              "type": "uint256"
            },
            {
              "internalType": "uint256",
              "name": "totalNormalBorrowed",
              "type": "uint256"
            },
            {
              "internalType": "uint256",
              "name": "assetScaler",
              "type": "uint256"
            },
            {
              "internalType": "uint256",
              "name": "debtScaler",
              "type": "uint256"
            },
            {
              "internalType": "uint256",
              "name": "assetGrowth",
              "type": "uint256"
            },
            {
              "internalType": "uint256",
              "name": "debtGrowth",
              "type": "uint256"
            }
          ],
          "internalType": "struct BaseToken.TokenState",
          "name": "",
          "type": "tuple"
        }
      ],
      "stateMutability": "nonpayable",
      "type": "function"
    },
    {
      "inputs": [
        {
          "internalType": "bytes32",
          "name": "_rangeId",
          "type": "bytes32"
        }
      ],
      "name": "getUtilizationRatio",
      "outputs": [
        {
          "internalType": "uint256",
          "name": "",
          "type": "uint256"
        },
        {
          "internalType": "uint256",
          "name": "",
          "type": "uint256"
        },
        {
          "internalType": "uint256",
          "name": "",
          "type": "uint256"
        }
      ],
      "stateMutability": "view",
      "type": "function"
    },
    {
      "inputs": [
        {
          "internalType": "uint256",
          "name": "_vaultId",
          "type": "uint256"
        }
      ],
      "name": "getVault",
      "outputs": [
        {
          "components": [
            {
              "internalType": "uint256",
              "name": "vaultId",
              "type": "uint256"
            },
            {
              "internalType": "int256",
              "name": "marginAmount0",
              "type": "int256"
            },
            {
              "internalType": "int256",
              "name": "marginAmount1",
              "type": "int256"
            },
            {
              "internalType": "uint256[]",
              "name": "subVaults",
              "type": "uint256[]"
            }
          ],
          "internalType": "struct DataType.Vault",
          "name": "",
          "type": "tuple"
        }
      ],
      "stateMutability": "view",
      "type": "function"
    },
    {
      "inputs": [
        {
          "internalType": "uint256",
          "name": "_vaultId",
          "type": "uint256"
        },
        {
          "internalType": "uint160",
          "name": "_sqrtPriceX96",
          "type": "uint160"
        }
      ],
      "name": "getVaultStatus",
      "outputs": [
        {
          "components": [
            {
              "internalType": "int256",
              "name": "positionValue",
              "type": "int256"
            },
            {
              "internalType": "int256",
              "name": "marginValue",
              "type": "int256"
            },
            {
              "internalType": "int256",
              "name": "minCollateral",
              "type": "int256"
            },
            {
              "components": [
                {
                  "components": [
                    {
                      "internalType": "uint256",
                      "name": "assetValue",
                      "type": "uint256"
                    },
                    {
                      "internalType": "uint256",
                      "name": "debtValue",
                      "type": "uint256"
                    },
                    {
                      "internalType": "int256",
                      "name": "premiumValue",
                      "type": "int256"
                    }
                  ],
                  "internalType": "struct DataType.SubVaultValue",
                  "name": "values",
                  "type": "tuple"
                },
                {
                  "components": [
                    {
                      "internalType": "uint256",
                      "name": "assetAmount0",
                      "type": "uint256"
                    },
                    {
                      "internalType": "uint256",
                      "name": "assetAmount1",
                      "type": "uint256"
                    },
                    {
                      "internalType": "uint256",
                      "name": "debtAmount0",
                      "type": "uint256"
                    },
                    {
                      "internalType": "uint256",
                      "name": "debtAmount1",
                      "type": "uint256"
                    }
                  ],
                  "internalType": "struct DataType.SubVaultAmount",
                  "name": "amount",
                  "type": "tuple"
                },
                {
                  "components": [
                    {
                      "internalType": "int256",
                      "name": "assetFee0",
                      "type": "int256"
                    },
                    {
                      "internalType": "int256",
                      "name": "assetFee1",
                      "type": "int256"
                    },
                    {
                      "internalType": "int256",
                      "name": "debtFee0",
                      "type": "int256"
                    },
                    {
                      "internalType": "int256",
                      "name": "debtFee1",
                      "type": "int256"
                    }
                  ],
                  "internalType": "struct DataType.SubVaultInterest",
                  "name": "interest",
                  "type": "tuple"
                },
                {
                  "components": [
                    {
                      "internalType": "uint256",
                      "name": "receivedTradeAmount0",
                      "type": "uint256"
                    },
                    {
                      "internalType": "uint256",
                      "name": "receivedTradeAmount1",
                      "type": "uint256"
                    },
                    {
                      "internalType": "uint256",
                      "name": "receivedPremium",
                      "type": "uint256"
                    },
                    {
                      "internalType": "uint256",
                      "name": "paidPremium",
                      "type": "uint256"
                    }
                  ],
                  "internalType": "struct DataType.SubVaultPremium",
                  "name": "premium",
                  "type": "tuple"
                }
              ],
              "internalType": "struct DataType.SubVaultStatus[]",
              "name": "subVaults",
              "type": "tuple[]"
            }
          ],
          "internalType": "struct DataType.VaultStatus",
          "name": "",
          "type": "tuple"
        }
      ],
      "stateMutability": "nonpayable",
      "type": "function"
    },
    {
      "inputs": [
        {
          "internalType": "uint256",
          "name": "_vaultId",
          "type": "uint256"
        }
      ],
      "name": "getVaultValue",
      "outputs": [
        {
          "internalType": "int256",
          "name": "",
          "type": "int256"
        }
      ],
      "stateMutability": "view",
      "type": "function"
    },
    {
      "inputs": [
        {
          "components": [
            {
              "internalType": "uint24",
              "name": "feeTier",
              "type": "uint24"
            },
            {
              "internalType": "address",
              "name": "token0",
              "type": "address"
            },
            {
              "internalType": "address",
              "name": "token1",
              "type": "address"
            },
            {
              "internalType": "bool",
              "name": "isMarginZero",
              "type": "bool"
            }
          ],
          "internalType": "struct DataType.InitializationParams",
          "name": "_initializationParams",
          "type": "tuple"
        },
        {
          "internalType": "address",
          "name": "_factory",
          "type": "address"
        },
        {
          "internalType": "address",
          "name": "_chainlinkPriceFeed",
          "type": "address"
        },
        {
          "internalType": "address",
          "name": "_vaultNFT",
          "type": "address"
        }
      ],
      "name": "initialize",
      "outputs": [],
      "stateMutability": "nonpayable",
      "type": "function"
    },
    {
      "inputs": [],
      "name": "irmParams",
      "outputs": [
        {
          "internalType": "uint256",
          "name": "baseRate",
          "type": "uint256"
        },
        {
          "internalType": "uint256",
          "name": "kinkRate",
          "type": "uint256"
        },
        {
          "internalType": "uint256",
          "name": "slope1",
          "type": "uint256"
        },
        {
          "internalType": "uint256",
          "name": "slope2",
          "type": "uint256"
        }
      ],
      "stateMutability": "view",
      "type": "function"
    },
    {
      "inputs": [],
      "name": "isSystemPaused",
      "outputs": [
        {
          "internalType": "bool",
          "name": "",
          "type": "bool"
        }
      ],
      "stateMutability": "view",
      "type": "function"
    },
    {
      "inputs": [
        {
          "internalType": "uint256",
          "name": "_vaultId",
          "type": "uint256"
        }
      ],
      "name": "isVaultSafe",
      "outputs": [
        {
          "internalType": "bool",
          "name": "isSafe",
          "type": "bool"
        }
      ],
      "stateMutability": "nonpayable",
      "type": "function"
    },
    {
      "inputs": [],
      "name": "lastTouchedTimestamp",
      "outputs": [
        {
          "internalType": "uint256",
          "name": "",
          "type": "uint256"
        }
      ],
      "stateMutability": "view",
      "type": "function"
    },
    {
      "inputs": [
        {
          "internalType": "uint256",
          "name": "_vaultId",
          "type": "uint256"
        },
        {
          "components": [
            {
              "internalType": "uint256",
              "name": "swapRatio",
              "type": "uint256"
            },
            {
              "internalType": "uint256",
              "name": "closeRatio",
              "type": "uint256"
            }
          ],
          "internalType": "struct DataType.LiquidationOption",
          "name": "_liquidationOption",
          "type": "tuple"
        }
      ],
      "name": "liquidate",
      "outputs": [],
      "stateMutability": "nonpayable",
      "type": "function"
    },
    {
      "inputs": [
        {
          "internalType": "uint256",
          "name": "_vaultId",
          "type": "uint256"
        },
        {
          "components": [
            {
              "internalType": "uint256",
              "name": "subVaultId",
              "type": "uint256"
            },
            {
              "internalType": "uint256",
              "name": "asset0",
              "type": "uint256"
            },
            {
              "internalType": "uint256",
              "name": "asset1",
              "type": "uint256"
            },
            {
              "internalType": "uint256",
              "name": "debt0",
              "type": "uint256"
            },
            {
              "internalType": "uint256",
              "name": "debt1",
              "type": "uint256"
            },
            {
              "components": [
                {
                  "internalType": "bool",
                  "name": "isCollateral",
                  "type": "bool"
                },
                {
                  "internalType": "uint128",
                  "name": "liquidity",
                  "type": "uint128"
                },
                {
                  "internalType": "int24",
                  "name": "lowerTick",
                  "type": "int24"
                },
                {
                  "internalType": "int24",
                  "name": "upperTick",
                  "type": "int24"
                }
              ],
              "internalType": "struct DataType.LPT[]",
              "name": "lpts",
              "type": "tuple[]"
            }
          ],
          "internalType": "struct DataType.Position",
          "name": "_position",
          "type": "tuple"
        },
        {
          "components": [
            {
              "internalType": "bool",
              "name": "isLiquidationCall",
              "type": "bool"
            },
            {
              "internalType": "bool",
              "name": "swapAnyway",
              "type": "bool"
            },
            {
              "internalType": "bool",
              "name": "quoterMode",
              "type": "bool"
            },
            {
              "internalType": "bool",
              "name": "isQuoteZero",
              "type": "bool"
            },
            {
              "internalType": "uint8",
              "name": "marginMode0",
              "type": "uint8"
            },
            {
              "internalType": "uint8",
              "name": "marginMode1",
              "type": "uint8"
            },
            {
              "internalType": "int256",
              "name": "deltaMarginAmount0",
              "type": "int256"
            },
            {
              "internalType": "int256",
              "name": "deltaMarginAmount1",
              "type": "int256"
            },
            {
              "internalType": "bytes",
              "name": "metadata",
              "type": "bytes"
            }
          ],
          "internalType": "struct DataType.TradeOption",
          "name": "_tradeOption",
          "type": "tuple"
        },
        {
          "components": [
            {
              "internalType": "uint256",
              "name": "lowerSqrtPrice",
              "type": "uint256"
            },
            {
              "internalType": "uint256",
              "name": "upperSqrtPrice",
              "type": "uint256"
            },
            {
              "internalType": "uint256",
              "name": "swapRatio",
              "type": "uint256"
            },
            {
              "internalType": "uint256",
              "name": "deadline",
              "type": "uint256"
            }
          ],
          "internalType": "struct DataType.OpenPositionOption",
          "name": "_openPositionOptions",
          "type": "tuple"
        }
      ],
      "name": "openPosition",
      "outputs": [
        {
          "internalType": "uint256",
          "name": "vaultId",
          "type": "uint256"
        },
        {
          "components": [
            {
              "internalType": "int256",
              "name": "amount0",
              "type": "int256"
            },
            {
              "internalType": "int256",
              "name": "amount1",
              "type": "int256"
            }
          ],
          "internalType": "struct DataType.TokenAmounts",
          "name": "requiredAmounts",
          "type": "tuple"
        },
        {
          "components": [
            {
              "internalType": "int256",
              "name": "amount0",
              "type": "int256"
            },
            {
              "internalType": "int256",
              "name": "amount1",
              "type": "int256"
            }
          ],
          "internalType": "struct DataType.TokenAmounts",
          "name": "swapAmounts",
          "type": "tuple"
        }
      ],
      "stateMutability": "nonpayable",
      "type": "function"
    },
    {
      "inputs": [],
      "name": "operator",
      "outputs": [
        {
          "internalType": "address",
          "name": "",
          "type": "address"
        }
      ],
      "stateMutability": "view",
      "type": "function"
    },
    {
      "inputs": [],
      "name": "pause",
      "outputs": [],
      "stateMutability": "nonpayable",
      "type": "function"
    },
    {
      "inputs": [
        {
          "internalType": "address",
          "name": "_newOperator",
          "type": "address"
        }
      ],
      "name": "setOperator",
      "outputs": [],
      "stateMutability": "nonpayable",
      "type": "function"
    },
    {
      "inputs": [],
      "name": "unPause",
      "outputs": [],
      "stateMutability": "nonpayable",
      "type": "function"
    },
    {
      "inputs": [
        {
          "internalType": "uint256",
          "name": "amount0",
          "type": "uint256"
        },
        {
          "internalType": "uint256",
          "name": "amount1",
          "type": "uint256"
        },
        {
          "internalType": "bytes",
          "name": "data",
          "type": "bytes"
        }
      ],
      "name": "uniswapV3MintCallback",
      "outputs": [],
      "stateMutability": "nonpayable",
      "type": "function"
    },
    {
      "inputs": [
        {
          "internalType": "int256",
          "name": "amount0Delta",
          "type": "int256"
        },
        {
          "internalType": "int256",
          "name": "amount1Delta",
          "type": "int256"
        },
        {
          "internalType": "bytes",
          "name": "data",
          "type": "bytes"
        }
      ],
      "name": "uniswapV3SwapCallback",
      "outputs": [],
      "stateMutability": "nonpayable",
      "type": "function"
    },
    {
      "inputs": [
        {
          "components": [
            {
              "internalType": "uint256",
              "name": "baseRate",
              "type": "uint256"
            },
            {
              "internalType": "uint256",
              "name": "kinkRate",
              "type": "uint256"
            },
            {
              "internalType": "uint256",
              "name": "slope1",
              "type": "uint256"
            },
            {
              "internalType": "uint256",
              "name": "slope2",
              "type": "uint256"
            }
          ],
          "internalType": "struct InterestCalculator.IRMParams",
          "name": "_irmParams",
          "type": "tuple"
        }
      ],
      "name": "updateIRMParams",
      "outputs": [],
      "stateMutability": "nonpayable",
      "type": "function"
    },
    {
      "inputs": [
        {
          "internalType": "uint256",
          "name": "_vaultId",
          "type": "uint256"
        },
        {
          "components": [
            {
              "internalType": "enum DataType.PositionUpdateType",
              "name": "positionUpdateType",
              "type": "uint8"
            },
            {
              "internalType": "uint256",
              "name": "subVaultId",
              "type": "uint256"
            },
            {
              "internalType": "bool",
              "name": "zeroForOne",
              "type": "bool"
            },
            {
              "internalType": "uint128",
              "name": "liquidity",
              "type": "uint128"
            },
            {
              "internalType": "int24",
              "name": "lowerTick",
              "type": "int24"
            },
            {
              "internalType": "int24",
              "name": "upperTick",
              "type": "int24"
            },
            {
              "internalType": "uint256",
              "name": "param0",
              "type": "uint256"
            },
            {
              "internalType": "uint256",
              "name": "param1",
              "type": "uint256"
            }
          ],
          "internalType": "struct DataType.PositionUpdate[]",
          "name": "positionUpdates",
          "type": "tuple[]"
        },
        {
          "components": [
            {
              "internalType": "bool",
              "name": "isLiquidationCall",
              "type": "bool"
            },
            {
              "internalType": "bool",
              "name": "swapAnyway",
              "type": "bool"
            },
            {
              "internalType": "bool",
              "name": "quoterMode",
              "type": "bool"
            },
            {
              "internalType": "bool",
              "name": "isQuoteZero",
              "type": "bool"
            },
            {
              "internalType": "uint8",
              "name": "marginMode0",
              "type": "uint8"
            },
            {
              "internalType": "uint8",
              "name": "marginMode1",
              "type": "uint8"
            },
            {
              "internalType": "int256",
              "name": "deltaMarginAmount0",
              "type": "int256"
            },
            {
              "internalType": "int256",
              "name": "deltaMarginAmount1",
              "type": "int256"
            },
            {
              "internalType": "bytes",
              "name": "metadata",
              "type": "bytes"
            }
          ],
          "internalType": "struct DataType.TradeOption",
          "name": "_tradeOption",
          "type": "tuple"
        },
        {
          "components": [
            {
              "internalType": "uint256",
              "name": "lowerSqrtPrice",
              "type": "uint256"
            },
            {
              "internalType": "uint256",
              "name": "upperSqrtPrice",
              "type": "uint256"
            },
            {
              "internalType": "uint256",
              "name": "swapRatio",
              "type": "uint256"
            },
            {
              "internalType": "uint256",
              "name": "deadline",
              "type": "uint256"
            }
          ],
          "internalType": "struct DataType.OpenPositionOption",
          "name": "_openPositionOptions",
          "type": "tuple"
        }
      ],
      "name": "updatePosition",
      "outputs": [
        {
          "internalType": "uint256",
          "name": "vaultId",
          "type": "uint256"
        },
        {
          "components": [
            {
              "internalType": "int256",
              "name": "amount0",
              "type": "int256"
            },
            {
              "internalType": "int256",
              "name": "amount1",
              "type": "int256"
            }
          ],
          "internalType": "struct DataType.TokenAmounts",
          "name": "requiredAmounts",
          "type": "tuple"
        },
        {
          "components": [
            {
              "internalType": "int256",
              "name": "amount0",
              "type": "int256"
            },
            {
              "internalType": "int256",
              "name": "amount1",
              "type": "int256"
            }
          ],
          "internalType": "struct DataType.TokenAmounts",
          "name": "swapAmounts",
          "type": "tuple"
        }
      ],
      "stateMutability": "nonpayable",
      "type": "function"
    },
    {
      "inputs": [
        {
          "components": [
            {
              "internalType": "uint256",
              "name": "baseRate",
              "type": "uint256"
            },
            {
              "internalType": "uint256",
              "name": "kinkRate",
              "type": "uint256"
            },
            {
              "internalType": "uint256",
              "name": "slope1",
              "type": "uint256"
            },
            {
              "internalType": "uint256",
              "name": "slope2",
              "type": "uint256"
            }
          ],
          "internalType": "struct InterestCalculator.IRMParams",
          "name": "_irmParams",
          "type": "tuple"
        },
        {
          "components": [
            {
              "internalType": "uint256",
              "name": "baseRate",
              "type": "uint256"
            },
            {
              "internalType": "uint256",
              "name": "kinkRate",
              "type": "uint256"
            },
            {
              "internalType": "uint256",
              "name": "slope1",
              "type": "uint256"
            },
            {
              "internalType": "uint256",
              "name": "slope2",
              "type": "uint256"
            }
          ],
          "internalType": "struct InterestCalculator.IRMParams",
          "name": "_premiumParams",
          "type": "tuple"
        }
      ],
      "name": "updateYearlyPremiumParams",
      "outputs": [],
      "stateMutability": "nonpayable",
      "type": "function"
    },
    {
      "inputs": [
        {
          "internalType": "uint256",
          "name": "_amount0",
          "type": "uint256"
        },
        {
          "internalType": "uint256",
          "name": "_amount1",
          "type": "uint256"
        }
      ],
      "name": "withdrawProtocolFee",
      "outputs": [],
      "stateMutability": "nonpayable",
      "type": "function"
    },
    {
      "inputs": [],
      "name": "ypParams",
      "outputs": [
        {
          "components": [
            {
              "internalType": "uint256",
              "name": "baseRate",
              "type": "uint256"
            },
            {
              "internalType": "uint256",
              "name": "kinkRate",
              "type": "uint256"
            },
            {
              "internalType": "uint256",
              "name": "slope1",
              "type": "uint256"
            },
            {
              "internalType": "uint256",
              "name": "slope2",
              "type": "uint256"
            }
          ],
          "internalType": "struct InterestCalculator.IRMParams",
          "name": "premiumParams",
          "type": "tuple"
        },
        {
          "components": [
            {
              "internalType": "uint256",
              "name": "baseRate",
              "type": "uint256"
            },
            {
              "internalType": "uint256",
              "name": "kinkRate",
              "type": "uint256"
            },
            {
              "internalType": "uint256",
              "name": "slope1",
              "type": "uint256"
            },
            {
              "internalType": "uint256",
              "name": "slope2",
              "type": "uint256"
            }
          ],
          "internalType": "struct InterestCalculator.IRMParams",
          "name": "irmParams",
          "type": "tuple"
        }
      ],
      "stateMutability": "view",
      "type": "function"
    }
  ],
  "transactionHash": "0xf95f1ebb047c74b6828ebc8ccbe133b07e58f64c76377749188626892f2b7aed",
  "args": [],
  "solcInputHash": "c8cc99767a01861f9560e4700a1aed9e",
  "bytecode": "0x608060405234801561001057600080fd5b50615559806100206000396000f3fe608060405234801561001057600080fd5b50600436106102065760003560e01c80639403b6341161011a578063d3487997116100ad578063ee6097f01161007c578063ee6097f0146104ad578063f2ffafb7146104c0578063f7b188a5146104d3578063fa461e33146104db578063ffdea55f146104ee57610206565b8063d348799714610451578063df6519d214610464578063eb02c30114610477578063ebd2665f1461049757610206565b8063ba4247b0116100e9578063ba4247b014610403578063c3d2ca2d1461040b578063c4937b6a1461041e578063d1e641971461043157610206565b80639403b634146103aa57806396d9eebe146103ca578063a847e674146103dd578063b3ab15fb146103f057610206565b8063570ca7351161019d578063687157731161016c57806368715773146103525780636f85ba9c146103655780637691c4ac146103855780638456cb591461039a57806386e6862d146103a257610206565b8063570ca735146102e7578063591a48b6146102fc5780635af084d21461031d578063671148591461033f57610206565b80633743d142116101d95780633743d142146102825780633c678e14146102975780634081eba8146102ad57806351be57d3146102cf57610206565b8063013216f51461020b578063127f0f0714610234578063275892a21461024d57806330050fbd14610262575b600080fd5b61021e610219366004613cd3565b610501565b60405161022b9190614d52565b60405180910390f35b61023c610695565b60405161022b959493929190614b52565b6102556106c3565b60405161022b9190614b80565b610275610270366004613cd3565b6106c9565b60405161022b9190614e4a565b6102956102903660046144fc565b610863565b005b61029f61094f565b60405161022b929190614d36565b6102c06102bb366004613cd3565b6109ac565b60405161022b93929190615415565b6102d7610b4f565b60405161022b949392919061542b565b6102ef610b5e565b60405161022b9190614a0f565b61030f61030a366004614478565b610b6d565b60405161022b929190614f0b565b61033061032b366004614197565b610bc7565b60405161022b939291906153e6565b61029561034d366004613d99565b610c56565b610295610360366004613d7e565b610ccb565b610378610373366004613cd3565b610d1e565b60405161022b9190614dba565b61038d610e48565b60405161022b9190614b47565b610295610e58565b6102ef610eea565b6103bd6103b8366004613cd3565b610f07565b60405161022b919061500d565b6103306103d8366004614418565b610f9b565b61038d6103eb366004613cd3565b61106e565b6102956103fe366004613b4f565b61111c565b6102ef6111af565b610255610419366004613cd3565b61123a565b61030f61042c36600461451d565b6112d6565b61044461043f3660046144cd565b61137f565b60405161022b9190614f43565b61029561045f366004613d2e565b6114a9565b61030f6104723660046142f3565b611500565b61048a610485366004613cd3565b611637565b60405161022b9190614a23565b61049f611642565b60405161022b929190614f26565b6102956104bb366004613dce565b61170b565b6102c06104ce366004613ceb565b6118ca565b61029561198a565b6102956104e9366004613d2e565b611a15565b6102956104fc3660046143b5565b611a6c565b610509613200565b7369498D8328889679714552856974B35b4ab483A1631619952e60216005600260008781526020019081526020016000206105426111af565b6040518563ffffffff1660e01b815260040161056194939291906152f9565b60006040518083038186803b15801561057957600080fd5b505af415801561058d573d6000803e3d6000fd5b50505060008381526002602052604090819020905163a90989b160e01b81527369498D8328889679714552856974B35b4ab483A1925063a90989b1916105d99160059190600401614cc8565b60006040518083038186803b1580156105f157600080fd5b505af4158015610605573d6000803e3d6000fd5b505050600083815260026020818152604092839020835161010081018552815480850b850b850b825263010000008104850b850b850b93820193909352600160301b9092046001600160801b03169382019390935260018301546060820152908201546080820152600382015460a0820152600482015460c082015260059091015460e08201529150505b919050565b600954600a54600854601b54601c54600160a01b90940460ff169492936001600160a01b0390921692909190565b60015481565b6106d1613254565b600082815260046020908152604091829020825160808101845281548152835160a081019094526001820180549194929385019291829060ff16600281111561071657fe5b600281111561072157fe5b81526020016001820154815260200160028201548152602001600382015481526020016004820154815250508152602001600682016040518060a00160405290816000820160009054906101000a900460ff16600281111561077f57fe5b600281111561078a57fe5b81526020016001820154815260200160028201548152602001600382015481526020016004820154815250508152602001600b8201805480602002602001604051908101604052809291908181526020016000905b828210156108555760008481526020908190206040805160c08101825260068602909201805460ff16151583526001808201548486015260028201546001600160801b03169284019290925260038101546060840152600481015460808401526005015460a083015290835290920191016107df565b505050915250909392505050565b602a546001600160a01b031633146108965760405162461bcd60e51b815260040161088d90614bdd565b60405180910390fd5b601b5482118015906108aa5750601c548111155b6108c65760405162461bcd60e51b815260040161088d90614bf9565b601b80548390039055601c8054829003905581156108f5576005546108f5906001600160a01b03163384611b61565b801561091257600654610912906001600160a01b03163383611b61565b7f6dd17eea45da52b3e6a3ff4a1af56c3591cc30f38ada82ddaf0679c0f4efffef8282604051610943929190615407565b60405180910390a15050565b60408051608080820183526021548252602254602080840191909152602354838501526024546060808501919091528451928301855260255483526026549183019190915260275493820193909352602854928101929092529082565b600081815260026020526040812060050154819081906109d457506000915081905080610b48565b600084815260026020526040902054600160301b90046001600160801b0316610aa357600854600085815260026020818152604092839020835161010081018552815480850b850b850b825263010000008104850b850b850b93820193909352600160301b9092046001600160801b03169382019390935260018301546060820152908201546080820152600382015460a0820152600482015460c082015260059091015460e0820152610a959130916001600160a01b0390911690611ca8565b600080925092509250610b48565b600854600085815260026020818152604092839020835161010081018552815480850b850b850b825263010000008104850b850b850b93820193909352600160301b9092046001600160801b03169382019390935260018301546060820152908201546080820152600382015460a0820152600482015460c082015260059091015460e0820152610b419130916001600160a01b0390911690611ccc565b9250925092505b9193909250565b601d54601e54601f5460205484565b602a546001600160a01b031681565b610b75613288565b610b7d613288565b602b54600160a01b900460ff1615610ba75760405162461bcd60e51b815260040161088d90614c15565b610bbb85610bb487611d05565b8686611500565b91509150935093915050565b6000610bd1613288565b610bd9613288565b602b54600160a01b900460ff1615610c035760405162461bcd60e51b815260040161088d90614c15565b836060015180421115610c285760405162461bcd60e51b815260040161088d90614b89565b610c33888888611eeb565b875160208901519397509195509350610c4b91612168565b509450945094915050565b602a546001600160a01b03163314610c805760405162461bcd60e51b815260040161088d90614bdd565b610c89826121a9565b610c92816121a9565b81516025556020808301516026556040808401516027556060938401516028558251602155908201516022558101516023550151602455565b602a546001600160a01b03163314610cf55760405162461bcd60e51b815260040161088d90614bdd565b610cfe816121a9565b8051601d55602080820151601e556040820151601f556060909101519055565b610d266132a2565b60008281526003602081815260408084208151608081018352815481526001820154818501526002820154818401529381018054835181860281018601909452808452919360608601939290830182828015610da157602002820191906000526020600020905b815481526020019060010190808311610d8d575b50505091909252505060405163149ccfa160e11b8152919250735Cdf96137bd9C04638B836BE022fCd52BD253AfF916329399f429150610ded9084906004906002906005908301615071565b60006040518083038186803b158015610e0557600080fd5b505af4158015610e19573d6000803e3d6000fd5b505050506040513d6000823e601f3d908101601f19168201604052610e419190810190613e8f565b9392505050565b602b54600160a01b900460ff1681565b602a546001600160a01b03163314610e825760405162461bcd60e51b815260040161088d90614bdd565b602b54600160a01b900460ff1615610eac5760405162461bcd60e51b815260040161088d90614c15565b602b805460ff60a01b1916600160a01b1790556040517f9e87fac88ff661f02d44f95383c817fece4bce600a3dab7a54406878b965e75290600090a1565b600854600090610f02906001600160a01b031661221d565b905090565b610f0f6132df565b6000828152600360208181526040928390208351608081018552815481526001820154818401526002820154818601529281018054855181850281018501909652808652939491936060860193830182828015610f8b57602002820191906000526020600020905b815481526020019060010190808311610f77575b5050505050815250509050919050565b6000610fa5613288565b610fad613288565b600073EeE521668253c9394bde99B0BA5970b0f15Dd6e96307927e4b888860600151610fd7610eea565b89604001516040518563ffffffff1660e01b8152600401610ffb9493929190614e12565b60006040518083038186803b15801561101357600080fd5b505af4158015611027573d6000803e3d6000fd5b505050506040513d6000823e601f3d908101601f1916820160405261104f9190810190613b87565b905061105d88828888610bc7565b919a90995090975095505050505050565b60006110798261229d565b600082815260036020526040908190209051630d5e377d60e11b8152730651BDF64F2E9Dda975967ae2Ef29D77880ABeBc91631abc6efa916110c691906004906005906002908301615264565b60206040518083038186803b1580156110de57600080fd5b505af41580156110f2573d6000803e3d6000fd5b505050506040513d601f19601f820116820180604052508101906111169190613cb7565b92915050565b602a546001600160a01b031633146111465760405162461bcd60e51b815260040161088d90614bdd565b6001600160a01b03811661115957600080fd5b602a80546001600160a01b0319166001600160a01b0383161790556040517fb3b3f5f64ab192e4b5fefde1f51ce9733bbdcf831951543b325aebd49cc27ec4906111a4908390614a0f565b60405180910390a150565b6040516310fe062760e11b8152600090730651BDF64F2E9Dda975967ae2Ef29D77880ABeBc906321fc0c4e906111ea90600590600401614c85565b60206040518083038186803b15801561120257600080fd5b505af4158015611216573d6000803e3d6000fd5b505050506040513d601f19601f82011682018060405250810190610f029190613b6b565b600081815260036020526040808220905163b7f22f3960e01b8152730651BDF64F2E9Dda975967ae2Ef29D77880ABeBc9163b7f22f399161128691906004906005906002908301615264565b60206040518083038186803b15801561129e57600080fd5b505af41580156112b2573d6000803e3d6000fd5b505050506040513d601f19601f820116820180604052508101906111169190613d16565b6112de613288565b6112e6613288565b602b54600160a01b900460ff16156113105760405162461bcd60e51b815260040161088d90614c15565b604080516001808252818301909252600091816020015b61132f613307565b81526020019060019003908161132757905050905061134d866122da565b8160008151811061135a57fe5b602002602001018190525061137187828787611500565b925092505094509492505050565b6113876132df565b6113908361229d565b600083815260036020818152604092839020835160808101855281548152600182015481840152600282015481860152928101805485518185028101850190965280865293949193606086019383018282801561140c57602002820191906000526020600020905b8154815260200190600101908083116113f8575b505050919092525050604051635d8d458360e11b8152735Cdf96137bd9C04638B836BE022fCd52BD253AfF9263bb1a8b0692506114559160049060029060059089908401615106565b60006040518083038186803b15801561146d57600080fd5b505af4158015611481573d6000803e3d6000fd5b505050506040513d6000823e601f3d908101601f19168201604052610e41919081019061400d565b6008546001600160a01b031633146114c057600080fd5b83156114dd576005546114dd906001600160a01b03163386611b61565b82156114fa576006546114fa906001600160a01b03163385611b61565b50505050565b611508613288565b611510613288565b602b54600160a01b900460ff161561153a5760405162461bcd60e51b815260040161088d90614c15565b82608001518042111561155f5760405162461bcd60e51b815260040161088d90614b89565b600073EeE521668253c9394bde99B0BA5970b0f15Dd6e963f70cb736888860600151611589610eea565b89604001518a606001516040518663ffffffff1660e01b81526004016115b3959493929190614abf565b60006040518083038186803b1580156115cb57600080fd5b505af41580156115df573d6000803e3d6000fd5b505050506040513d6000823e601f3d908101601f191682016040526116079190810190613b87565b9050611614888288611eeb565b8751602089015192975090955061162c925090612168565b505094509492505050565b606061111682611d05565b61164a61333d565b61165261333d565b61165a6125b1565b5050604080516101008082018352600b548252600c54602080840191909152600d5483850152600e54606080850191909152600f5460808086019190915260105460a08087019190915260115460c08088019190915260125460e080890191909152885196870189526013548752601454958701959095526015549786019790975260165492850192909252601754908401526018549083015260195493820193909352601a549281019290925291565b600054610100900460ff16806117245750611724612645565b80611732575060005460ff16155b61176d5760405162461bcd60e51b815260040180806020018281038252602e8152602001806154f6602e913960400191505060405180910390fd5b600054610100900460ff16158015611798576000805460ff1961ff0019909116610100171660011790555b6001600160a01b0382166117ab57600080fd5b845160068054602080890151600580546001600160a01b039283166001600160a01b031991821617918290556040808d0151841662ffffff988916600160a01b90810262ffffff60a01b1990981697909717831617968790556060808e0151600980548e88169215158a0260ff60a01b1990911617909416179092558051918201815291831681529185169282019290925291909204909216908201526118528582612656565b600880546001600160a01b03199081166001600160a01b0393841617909155602b80549091169185169190911790556001600a55611890600b61273a565b61189a601361273a565b5042600155602a80546001600160a01b0319163317905580156118c3576000805461ff00191690555b5050505050565b60008060007369498D8328889679714552856974B35b4ab483A163829c843160216005600260008b81526020019081526020016000206119086111af565b8a8a6040518763ffffffff1660e01b815260040161192b9695949392919061531d565b60606040518083038186803b15801561194357600080fd5b505af4158015611957573d6000803e3d6000fd5b505050506040513d601f19601f8201168201806040525081019061197b9190614562565b92509250925093509350939050565b602a546001600160a01b031633146119b45760405162461bcd60e51b815260040161088d90614bdd565b602b54600160a01b900460ff166119dd5760405162461bcd60e51b815260040161088d90614c31565b602b805460ff60a01b191690556040517f472cf038e2a5f33dbaa68760dbf94ab4e159535e6580c0ac63f8202c7c6c0bb290600090a1565b6008546001600160a01b03163314611a2c57600080fd5b6000841315611a4c57600554611a4c906001600160a01b03163386611b61565b60008313156114fa576006546114fa906001600160a01b03163385611b61565b602b54600160a01b900460ff1615611a965760405162461bcd60e51b815260040161088d90614c15565b600073EeE521668253c9394bde99B0BA5970b0f15Dd6e963f70cb736611abb85611637565b600954600160a01b900460ff16611ad0610eea565b865160208801516040516001600160e01b031960e088901b168152611afc959493929190600401614abf565b60006040518083038186803b158015611b1457600080fd5b505af4158015611b28573d6000803e3d6000fd5b505050506040513d6000823e601f3d908101601f19168201604052611b509190810190613b87565b9050611b5c8382612752565b505050565b604080516001600160a01b038481166024830152604480830185905283518084039091018152606490920183526020820180516001600160e01b031663a9059cbb60e01b1781529251825160009485949389169392918291908083835b60208310611bdd5780518252601f199092019160209182019101611bbe565b6001836020036101000a0380198251168184511680821785525050505050509050019150506000604051808303816000865af19150503d8060008114611c3f576040519150601f19603f3d011682016040523d82523d6000602084013e611c44565b606091505b5091509150818015611c72575080511580611c725750808060200190516020811015611c6f57600080fd5b50515b6118c3576040805162461bcd60e51b815260206004820152600260248201526114d560f21b604482015290519081900360640190fd5b600081604001516001600160801b0316611cc3858585612889565b01949350505050565b6000806000611cdc868686611ca8565b8460400151611cec888888612939565b9194506001600160801b03169250905093509350939050565b606060006003600084815260200190815260200160002060405180608001604052908160008201548152602001600182015481526020016002820154815260200160038201805480602002602001604051908101604052809291908181526020018280548015611d9457602002820191906000526020600020905b815481526020019060010190808311611d80575b50505091909252505060408051610180810182526005546001600160a01b03908116825260065480821660208085019190915262ffffff600160a01b9283900416848601526007548316606080860191909152600854841660808087019190915260095494851660a08088019190915260ff9490950493909316151560c080870191909152600a5460e08088019190915287516101008181018a52600b548252600c5482870152600d54828b0152600e5482860152600f548288015260105482890152601154828501526012548284015280890191909152885190810189526013548152601454948101949094526015549784019790975260165491830191909152601754928201929092526018549281019290925260195490820152601a5492810192909252610120810191909152601b54610140820152601c54610160820152919250610e419183915060049060029061296d565b6000611ef5613288565b611efd613288565b602b546040805163186e33a360e21b8152905188926001600160a01b0316916361b8ce8c9160048083019260209291908290030181600087803b158015611f4357600080fd5b505af1158015611f57573d6000803e3d6000fd5b505050506040513d601f19601f82011682018060405250810190611f7b9190613d16565b8110611f995760405162461bcd60e51b815260040161088d90614c4d565b611fa38787612bbc565b6000611fb3888760400151612d09565b80925081965050506000734A46C1F7A7379201dffa86b105D9094d81bf7e3b63e1bbe20e836004600560028d8d602b60009054906101000a90046001600160a01b03166001600160a01b0316636352211e8f6040518263ffffffff1660e01b81526004016120219190614b80565b60206040518083038186803b15801561203957600080fd5b505afa15801561204d573d6000803e3d6000fd5b505050506040513d601f19601f820116820180604052508101906120719190613b6b565b6040518863ffffffff1660e01b81526004016120939796959493929190615152565b60006040518083038186803b1580156120ab57600080fd5b505af41580156120bf573d6000803e3d6000fd5b505050506040513d6000823e601f3d908101601f191682016040526120e79190810190613f35565b80516060820151909650945090508861215c57600954600160a01b900460ff1615612135578451620f424013156121305760405162461bcd60e51b815260040161088d90614ba5565b61215c565b620f42408560200151121561215c5760405162461bcd60e51b815260040161088d90614ba5565b50505093509350939050565b6000612172610eea565b6001600160a01b0316905080831115801561218d5750818111155b611b5c5760405162461bcd60e51b815260040161088d90614bf9565b8051670de0b6b3a7640000108015906121ce5750670de0b6b3a7640000816020015111155b80156121e65750670de0b6b3a7640000816040015111155b80156121fe5750678ac7230489e80000816060015111155b61221a5760405162461bcd60e51b815260040161088d90614c69565b50565b6000816001600160a01b0316633850c7bd6040518163ffffffff1660e01b815260040160e06040518083038186803b15801561225857600080fd5b505afa15801561226c573d6000803e3d6000fd5b505050506040513d601f19601f820116820180604052508101906122909190614106565b5094979650505050505050565b6040805160008082526020820190925261221a918391906122d4565b6122c1613382565b8152602001906001900390816122b95790505b50612bbc565b6122e2613307565b600082815260046020908152604091829020825160808101845281548152835160a081019094526001820180546111169592948501929190829060ff16600281111561232a57fe5b600281111561233557fe5b81526020016001820154815260200160028201548152602001600382015481526020016004820154815250508152602001600682016040518060a00160405290816000820160009054906101000a900460ff16600281111561239357fe5b600281111561239e57fe5b81526020016001820154815260200160028201548152602001600382015481526020016004820154815250508152602001600b8201805480602002602001604051908101604052809291908181526020016000905b828210156124695760008481526020908190206040805160c08101825260068602909201805460ff16151583526001808201548486015260028201546001600160801b03169284019290925260038101546060840152600481015460808401526005015460a083015290835290920191016123f3565b5050509152505060408051610180810182526005546001600160a01b03908116825260065480821660208085019190915262ffffff600160a01b9283900416848601526007548316606080860191909152600854841660808087019190915260095494851660a08088019190915260ff9490950493909316151560c080870191909152600a5460e08088019190915287516101008181018a52600b548252600c5482870152600d54828b0152600e5482860152600f548288015260105482890152601154828501526012548284015280890191909152885190810189526013548152601454948101949094526015549784019790975260165491830191909152601754928201929092526018549281019290925260195490820152601a5492810192909252610120810191909152601b54610140820152601c54610160820152600290612eae565b60015460405163725acfd160e01b81527369498D8328889679714552856974B35b4ab483A19163725acfd1916125f091600591601d9190600401614c94565b60206040518083038186803b15801561260857600080fd5b505af415801561261c573d6000803e3d6000fd5b505050506040513d601f19601f820116820180604052508101906126409190613d16565b600155565b600061265030613104565b15905090565b600081602001516001600160a01b031682600001516001600160a01b03161061267e57600080fd5b50805160208083015160409384015184516001600160a01b0394851681850152939091168385015262ffffff166060808401919091528351808403820181526080840185528051908301206001600160f81b031960a085015294901b6bffffffffffffffffffffffff191660a183015260b58201939093527fe34f199b19b2b4f47f68442619d555527d244f78a3297ea89325f843f87b8b5460d5808301919091528251808303909101815260f5909101909152805191012090565b670de0b6b3a764000060048201819055600590910155565b602b546040805163186e33a360e21b8152905184926001600160a01b0316916361b8ce8c9160048083019260209291908290030181600087803b15801561279857600080fd5b505af11580156127ac573d6000803e3d6000fd5b505050506040513d601f19601f820116820180604052508101906127d09190613d16565b81106127ee5760405162461bcd60e51b815260040161088d90614c4d565b600083116127fb57600080fd5b6128058383612bbc565b6000838152600360205260409081902090516349b3bd7960e11b8152730651BDF64F2E9Dda975967ae2Ef29D77880ABeBc916393677af291612854919060049087906005906002908401615231565b60006040518083038186803b15801561286c57600080fd5b505af4158015612880573d6000803e3d6000fd5b50505050505050565b60008061289f858460000151856020015161310a565b90506000846001600160a01b031663514ea4bf836040518263ffffffff1660e01b81526004016128cf9190614b80565b60a06040518083038186803b1580156128e757600080fd5b505afa1580156128fb573d6000803e3d6000fd5b505050506040513d601f19601f8201168201806040525081019061291f91906140a5565b50506001600160801b039092169450505050509392505050565b600061296582604001516001600160801b0316670de0b6b3a7640000612960878787611ca8565b613160565b949350505050565b60608460600151516001600160401b038111801561298a57600080fd5b506040519080825280602002602001820160405280156129c457816020015b6129b1613307565b8152602001906001900390816129a95790505b50905060005b856060015151811015612bb357612b94856000886060015184815181106129ed57fe5b6020026020010151815260200190815260200160002060405180608001604052908160008201548152602001600182016040518060a00160405290816000820160009054906101000a900460ff166002811115612a4657fe5b6002811115612a5157fe5b81526020016001820154815260200160028201548152602001600382015481526020016004820154815250508152602001600682016040518060a00160405290816000820160009054906101000a900460ff166002811115612aaf57fe5b6002811115612aba57fe5b81526020016001820154815260200160028201548152602001600382015481526020016004820154815250508152602001600b8201805480602002602001604051908101604052809291908181526020016000905b82821015612b855760008481526020908190206040805160c08101825260068602909201805460ff16151583526001808201548486015260028201546001600160801b03169284019290925260038101546060840152600481015460808401526005015460a08301529083529092019101612b0f565b50505050815250508585612eae565b828281518110612ba057fe5b60209081029190910101526001016129ca565b50949350505050565b612bc46125b1565b60008281526003602081815260408084208151608081018352815481526001820154818501526002820154818401529381018054835181860281018601909452808452919360608601939290830182828015612c3f57602002820191906000526020600020905b815481526020019060010190808311612c2b575b50505050508152505090507369498D8328889679714552856974B35b4ab483A163a5d330ad82600460026005876021612c766111af565b6040518863ffffffff1660e01b8152600401612c9897969594939291906150aa565b60006040518083038186803b158015612cb057600080fd5b505af4158015612cc4573d6000803e3d6000fd5b5050604051637ce761e760e01b81527369498D8328889679714552856974B35b4ab483A19250637ce761e7915061285490600590859060049060029089908301614ce5565b60008083612de657602b546040516354ba0f2760e01b81526001600160a01b03909116906354ba0f2790612d41903390600401614a0f565b602060405180830381600087803b158015612d5b57600080fd5b505af1158015612d6f573d6000803e3d6000fd5b505050506040513d601f19601f82011682018060405250810190612d939190613d16565b60008181526003602052604090819020829055519092507fbf3e9c93de94306b70ac5b9411edf475545815333bf651b894b9eada6482c59490612dd990849033906153cf565b60405180910390a1612e97565b602b546040516331a9108f60e11b815285935033916001600160a01b031690636352211e90612e19908690600401614b80565b60206040518083038186803b158015612e3157600080fd5b505afa158015612e45573d6000803e3d6000fd5b505050506040513d601f19601f82011682018060405250810190612e699190613b6b565b6001600160a01b03161480612e7b5750825b612e975760405162461bcd60e51b815260040161088d90614bc1565b5060008181526003602052604090205b9250929050565b612eb6613307565b60008460600151516001600160401b0381118015612ed357600080fd5b50604051908082528060200260200182016040528015612f0d57816020015b612efa6133c8565b815260200190600190039081612ef25790505b50905060005b85606001515181101561305e57600086606001518281518110612f3257fe5b60209081029190910181015181015160008181528883526040908190208151610100810183528154600281810b810b810b835263010000008204810b810b810b96830196909652600160301b90046001600160801b031681840152600182015460608083019190915294820154608080830191909152600383015460a0830152600483015460c083015260059092015460e08201528251918201909252928a0151805192945090929182919086908110612fe857fe5b602002602001015160000151151581526020018960600151858151811061300b57fe5b6020026020010151604001516001600160801b03168152602001826000015160020b8152602001826020015160020b81525084848151811061304957fe5b60209081029190910101525050600101612f13565b506040518060c0016040528086600001518152602001613090876020015186610100015161317f90919063ffffffff16565b81526020016130b1876040015186610120015161317f90919063ffffffff16565b81526020016130d287602001518661010001516131c390919063ffffffff16565b81526020016130f387604001518661012001516131c390919063ffffffff16565b815260200191909152949350505050565b3b151590565b6040805160609490941b6bffffffffffffffffffffffff1916602080860191909152600293840b60e890811b60348701529290930b90911b60378401528051808403601a018152603a9093019052815191012090565b82820281151584158583048514171661317857600080fd5b0492915050565b600060018251600281111561319057fe5b14156131b8576131b182602001518460800151670de0b6b3a7640000613160565b9050611116565b506020810151611116565b60006001825160028111156131d457fe5b14156131f5576131b182604001518460a00151670de0b6b3a7640000613160565b506040810151611116565b604051806101000160405280600060020b8152602001600060020b815260200160006001600160801b0316815260200160008152602001600081526020016000815260200160008152602001600081525090565b60405180608001604052806000815260200161326e6133ef565b815260200161327b6133ef565b8152602001606081525090565b604051806040016040528060008152602001600081525090565b6040518060e00160405280600081526020016000815260200160008152602001600081526020016000815260200160008152602001606081525090565b6040518060800160405280600081526020016000815260200160008152602001606081525090565b6040518060c001604052806000815260200160008152602001600081526020016000815260200160008152602001606081525090565b60405180610100016040528060008152602001600081526020016000815260200160008152602001600081526020016000815260200160008152602001600081525090565b604080516101008101909152806000815260006020820181905260408201819052606082018190526080820181905260a0820181905260c0820181905260e09091015290565b60408051608081018252600080825260208201819052918101829052606081019190915290565b6040805160a081019091528060008152602001600081526020016000815260200160008152602001600081525090565b803561069081615492565b600082601f83011261343a578081fd5b8135602061344f61344a83615469565b615446565b8281528181019085830160808086028801850189101561346d578687fd5b865b868110156134fe5781838b031215613485578788fd5b604080518381018181106001600160401b03821117156134a157fe5b825284356134ae816154a7565b8152848801356134bd816154d1565b81890152848201356134ce816154c2565b80838301525060609150818501356134e5816154c2565b918101919091528552938501939181019160010161346f565b509198975050505050505050565b600082601f83011261351c578081fd5b8151602061352c61344a83615469565b8281528181019085830160808086028801850189101561354a578687fd5b865b868110156134fe5781838b031215613562578788fd5b604080518381018181106001600160401b038211171561357e57fe5b8252845161358b816154a7565b81528488015161359a816154d1565b81890152848201516135ab816154c2565b80838301525060609150818501516135c2816154c2565b918101919091528552938501939181019160010161354c565b600082601f8301126135eb578081fd5b815160206135fb61344a83615469565b828152818101908583016101e08086028801850189101561361a578687fd5b865b868110156134fe57828a0382811215613633578889fd5b60408051608081016001600160401b03828210818311171561365157fe5b8184526060851215613661578c8dfd5b60e083019450818510818611171561367557fe5b50838352865181528987015160a08301528683015160c0830152815261369e8d606088016139b1565b898201526136af8d60e088016139b1565b828201526136c18d61016088016139b1565b606082015287525050938501939181019160010161361c565b600082601f8301126136ea578081fd5b815160206136fa61344a83615469565b82815281810190858301606080860288018501891015613718578687fd5b865b868110156134fe5781838b031215613730578788fd5b604080518381018181106001600160401b038211171561374c57fe5b825284518152878501518882015284820151918101919091528552938501939181019160010161371a565b8035610690816154a7565b8051610690816154a7565b60008083601f84011261379e578182fd5b5081356001600160401b038111156137b4578182fd5b602083019150836020828501011115612ea757600080fd5b600082601f8301126137dc578081fd5b81356001600160401b038111156137ef57fe5b613802601f8201601f1916602001615446565b818152846020838601011115613816578283fd5b816020850160208301379081016020019190915292915050565b8035610690816154b5565b8051610690816154b5565b8035610690816154c2565b8051610690816154c2565b600060a0828403121561386d578081fd5b60405160a081018181106001600160401b038211171561388957fe5b806040525080915082358152602083013560208201526040830135604082015260608301356060820152608083013560808201525092915050565b6000608082840312156138d5578081fd5b604051608081018181106001600160401b03821117156138f157fe5b8060405250809150823581526020830135602082015260408301356040820152606083013560608201525092915050565b600060c08284031215613933578081fd5b60405160c081016001600160401b03828210818311171561395057fe5b81604052829350843583526020850135602084015260408501356040840152606085013560608401526080850135608084015260a085013591508082111561399757600080fd5b506139a48582860161342a565b60a0830152505092915050565b6000608082840312156139c2578081fd5b604051608081018181106001600160401b03821117156139de57fe5b8060405250809150825181526020830151602082015260408301516040820152606083015160608201525092915050565b600060408284031215613a20578081fd5b604051604081018181106001600160401b0382111715613a3c57fe5b604052825181526020928301519281019290925250919050565b6000610120808385031215613a69578182fd5b613a7281615446565b915050613a7e82613777565b8152613a8c60208301613777565b6020820152613a9d60408301613777565b6040820152613aae60608301613777565b6060820152613abf60808301613b44565b6080820152613ad060a08301613b44565b60a082015260c082013560c082015260e082013560e0820152610100808301356001600160401b03811115613b0457600080fd5b613b10858286016137cc565b82840152505092915050565b8035610690816154d1565b8051610690816154d1565b805161ffff8116811461069057600080fd5b8035610690816154e6565b600060208284031215613b60578081fd5b8135610e4181615492565b600060208284031215613b7c578081fd5b8151610e4181615492565b60006020808385031215613b99578182fd5b82516001600160401b0380821115613baf578384fd5b818501915085601f830112613bc2578384fd5b8151613bd061344a82615469565b81815284810190848601610100808502870188018b1015613bef578889fd5b8896505b84871015613ca85780828c031215613c09578889fd5b604080518281018181108982111715613c1e57fe5b8252613c298461383b565b8152898401518a820152613c3e828501613782565b8282015260609150613c51828501613b27565b8282015260809150613c64828501613851565b8282015260a09150613c77828501613851565b9181019190915260c0838101519082015260e080840151908201528452600196909601959287019290810190613bf3565b50909998505050505050505050565b600060208284031215613cc8578081fd5b8151610e41816154a7565b600060208284031215613ce4578081fd5b5035919050565b600080600060608486031215613cff578182fd5b505081359360208301359350604090920135919050565b600060208284031215613d27578081fd5b5051919050565b60008060008060608587031215613d43578182fd5b843593506020850135925060408501356001600160401b03811115613d66578283fd5b613d728782880161378d565b95989497509550505050565b600060808284031215613d8f578081fd5b610e4183836138c4565b6000806101008385031215613dac578182fd5b613db684846138c4565b9150613dc584608085016138c4565b90509250929050565b60008060008084860360e0811215613de4578283fd5b6080811215613df1578283fd5b50604051608081018181106001600160401b0382111715613e0e57fe5b604052853562ffffff81168114613e23578384fd5b81526020860135613e3381615492565b6020820152613e446040870161341f565b6040820152613e5560608701613777565b60608201529350613e686080860161341f565b9250613e7660a0860161341f565b9150613e8460c0860161341f565b905092959194509250565b600060208284031215613ea0578081fd5b81516001600160401b0380821115613eb6578283fd5b9083019060e08286031215613ec9578283fd5b613ed360e0615446565b825181526020830151602082015260408301516040820152606083015160608201526080830151608082015260a083015160a082015260c083015182811115613f1a578485fd5b613f268782860161350c565b60c08301525095945050505050565b600060208284031215613f46578081fd5b81516001600160401b0380821115613f5c578283fd5b908301906101408286031215613f70578283fd5b613f7a60c0615446565b613f848684613a0f565b8152613f938660408501613a0f565b6020820152613fa58660808501613a0f565b6040820152613fb78660c08501613a0f565b606082015261010083015182811115613fce578485fd5b613fda878286016136da565b60808301525061012083015182811115613ff2578485fd5b613ffe878286016136da565b60a08301525095945050505050565b60006020828403121561401e578081fd5b81516001600160401b0380821115614034578283fd5b9083019060808286031215614047578283fd5b60405160808101818110838211171561405c57fe5b806040525082518152602083015160208201526040830151604082015260608301518281111561408a578485fd5b614096878286016135db565b60608301525095945050505050565b600080600080600060a086880312156140bc578283fd5b85516140c7816154d1565b80955050602086015193506040860151925060608601516140e7816154d1565b60808701519092506140f8816154d1565b809150509295509295909350565b600080600080600080600060e0888a031215614120578485fd5b875161412b81615492565b602089015190975061413c816154c2565b955061414a60408901613b32565b945061415860608901613b32565b935061416660808901613b32565b925060a0880151614176816154e6565b60c0890151909250614187816154a7565b8091505092959891949750929550565b60008060008060e085870312156141ac578182fd5b843593506020808601356001600160401b03808211156141ca578485fd5b818801915088601f8301126141dd578485fd5b81356141eb61344a82615469565b81815284810190848601610100808502870188018e101561420a57898afd5b8996505b848710156142bb5780828f03121561422457898afd5b60408051828101818110898211171561423957fe5b825261424484613830565b8152898401358a820152614259828501613777565b8282015261426960608501613b1c565b606082015261427a60808501613846565b608082015261428b60a08501613846565b60a082015260c0848101359082015260e0808501359082015285525060019690960195928701929081019061420e565b5090985050505060408801359250808311156142d5578485fd5b50506142e387828801613a56565b925050613e8486606087016138c4565b6000806000806101008587031215614309578182fd5b843593506020808601356001600160401b0380821115614327578485fd5b818801915088601f83011261433a578485fd5b813561434861344a82615469565b81815284810190848601885b8481101561437d5761436b8e8984358a0101613922565b84529287019290870190600101614354565b509098505050506040880135925080831115614397578485fd5b50506143a587828801613a56565b925050613e84866060870161385c565b60008082840360608112156143c8578283fd5b833592506040601f19820112156143dd578182fd5b50604051604081018181106001600160401b03821117156143fa57fe5b60409081526020858101358352940135938101939093525092909150565b60008060008060e0858703121561442d578182fd5b8435935060208501356001600160401b038082111561444a578384fd5b61445688838901613922565b9450604087013591508082111561446b578384fd5b506142e387828801613a56565b600080600060e0848603121561448c578081fd5b8335925060208401356001600160401b038111156144a8578182fd5b6144b486828701613a56565b9250506144c4856040860161385c565b90509250925092565b600080604083850312156144df578182fd5b8235915060208301356144f181615492565b809150509250929050565b6000806040838503121561450e578182fd5b50508035926020909101359150565b6000806000806101008587031215614533578182fd5b843593506020850135925060408501356001600160401b03811115614556578283fd5b6143a587828801613a56565b600080600060608486031215614576578081fd5b8351925060208401519150604084015190509250925092565b6001600160a01b03169052565b6000815180845260208085019450808401835b838110156145d5576145c2878351614822565b60809690960195908201906001016145af565b509495945050505050565b6000815180845260208085019450808401835b838110156145d55781518051600b811061460957fe5b88528084015184890152604080820151151590890152606080820151614631828b01826149f2565b5050608080820151614645828b01826146d3565b505060a080820151614659828b01826146d3565b505060c0818101519089015260e0908101519088015261010090960195908201906001016145f3565b15159052565b60008151808452815b818110156146ad57602081850181015186830182015201614691565b818111156146be5782602083870101525b50601f01601f19169290920160200192915050565b60020b9052565b8051600381106146e657fe5b8252602081810151908301526040808201519083015260608082015190830152608090810151910152565b6147248261471f8354615486565b61458f565b60018101546001600160a01b036147406020850182841661458f565b6147556040850162ffffff8460a01c166149ff565b6147626002840154615486565b9150614771606085018361458f565b61477e6003840154615486565b915061478d608085018361458f565b600483015491506147a360a0850182841661458f565b506147b760c0840160ff8360a01c16614682565b50600581015460e08301526147d361010083016006830161493c565b6147e46102008301600e830161493c565b60168101546103008301526017015461032090910152565b805182526020810151602083015260408101516040830152606081015160608301525050565b8051151582526001600160801b036020820151166020830152604081015160020b6040830152606081015160020b60608301525050565b600060c08301825184526020808401518186015260408401516040860152606084015160608601526080808501518187015260a085015160c060a088015283815180865260e08901915084830195508692505b808310156148d3576148bf828751614822565b9484019460019290920191908301906148ac565b50979650505050505050565b80518252602090810151910152565b805182526020810151602083015260408101516040830152606081015160608301526080810151608083015260a081015160a083015260c081015160c083015260e081015160e08301525050565b8054825260018101546020830152600281015460408301526003810154606083015260048101546080830152600581015460a0830152600681015460c08301526007015460e090910152565b60006080830182518452602080840151818601526040840151604086015260608401516080606087015282815180855260a08801915083830194508592505b808310156149e757845182529383019360019290920191908301906149c7565b509695505050505050565b6001600160801b03169052565b62ffffff169052565b60ff169052565b6001600160a01b0391909116815260200190565b60208082528251828201819052600091906040908185019080840286018301878501865b83811015614ab157888303603f1901855281518051845287810151888501528681015187850152606080820151908501526080808201519085015260a09081015160c091850182905290614a9d8186018361459c565b968901969450505090860190600101614a47565b509098975050505050505050565b600060a0820160a0835280885180835260c0850191506020925060c0838202860101838b01855b83811015614b145760bf19888403018552614b02838351614859565b94860194925090850190600101614ae6565b5050981515928501929092525050506001600160a01b039390931660408401526060830191909152608090910152919050565b901515815260200190565b941515855260208501939093526001600160a01b039190911660408401526060830152608082015260a00190565b90815260200190565b602080825260029082015261503760f01b604082015260600190565b602080825260029082015261140d60f21b604082015260600190565b602080825260029082015261503160f01b604082015260600190565b602080825260029082015261503360f01b604082015260600190565b6020808252600290820152610a0760f31b604082015260600190565b602080825260029082015261503560f01b604082015260600190565b602080825260029082015261281b60f11b604082015260600190565b602080825260029082015261281960f11b604082015260600190565b602080825260029082015261503960f01b604082015260600190565b61034081016111168284614711565b928352815460208401526001820154604084015260028201546060840152600390910154608083015260a082015260c00190565b6103608101614cd78285614711565b826103408301529392505050565b60006103c0614cf48389614711565b80610340840152614d0781840188614988565b905085610360840152846103808401528281036103a0840152614d2a81856145e0565b98975050505050505050565b6101008101614d4582856147fc565b610e4160808301846147fc565b600061010082019050825160020b8252602083015160020b60208301526001600160801b036040840151166040830152606083015160608301526080830151608083015260a083015160a083015260c083015160c083015260e083015160e083015292915050565b60006020825282516020830152602083015160408301526040830151606083015260608301516080830152608083015160a083015260a083015160c083015260c083015160e08084015261296561010084018261459c565b600060808252614e256080830187614859565b9415156020830152506001600160a01b03929092166040830152606090910152919050565b600060208083526101a08301845182850152818501516040614e6e818701836146da565b808701519150614e8160e08701836146da565b6060878101516101808881015280519485905285019390925085906101c08801905b80831015614efe5785518051151583528781015188840152848101516001600160801b03168584015285810151868401526080808201519084015260a09081015190830152948601946001929092019160c090910190614ea3565b5098975050505050505050565b60808101614f1982856148df565b610e4160408301846148df565b6102008101614f3582856148ee565b610e416101008301846148ee565b6020808252825182820152828101516040808401919091528084015160608085019190915280850151608080860152805160a08601819052600094939184019285929160c08801905b80851015614efe57855180518051845288810151898501528501518584015287810151614fbb858501826147fc565b5080850151805160e08501528881015161010085015280860151610120850152840151610140840152830151614ff56101608401826147fc565b506101e0820191508686019550600185019450614f8c565b6000602080835260a0830184518285015281850151604085015260408501516060850152606085015160808086015281815180845260c08701915084830193508592505b808310156149e75783518252928401926001929092019190840190615051565b60006103a080835261508581840188614988565b9150508460208301528360408301526150a16060830184614711565b95945050505050565b600060e082526150bd60e083018a614988565b88602084015287604084015286606084015282810360808401526150e181876145e0565b60a084019590955250506001600160a01b039190911660c09091015295945050505050565b60006103c080835261511a81840189614988565b9150508560208301528460408301526151366060830185614711565b6001600160a01b03929092166103a09190910152949350505050565b600088825287602083015286604083015285606083015260e0608083015261517d60e08301866145e0565b82810360a0840152610120615193828751614682565b60208601516151a56020840182614682565b5060408601516151b86040840182614682565b5060608601516151cb6060840182614682565b5060808601516151de6080840182614a08565b5060a08601516151f160a0840182614a08565b5060c086015160c083015260e086015160e083015261010080870151828285015261521e83850182614688565b945050505050614d2a60c083018461458f565b600086825285602083015260a0604083015261525060a08301866145e0565b606083019490945250608001529392505050565b6103a08082528554908201526001808601546103c083015260028601546103e083015260806104008301526003860180546104208401819052600091825260208083209293929091610440860190855b818110156152cf5783548352928501929184019185016152b4565b50509185018890525091506152e990506040830185614711565b8261038083015295945050505050565b938452602084019290925260408301526001600160a01b0316606082015260800190565b8681526104c081016153326020830188614711565b855461534561036084018260020b6146d3565b61535961038084018260181c60020b6146d3565b6153736103a084016001600160801b038360301c166149f2565b5060018601546103c083015260028601546103e08301526003860154610400830152600486015461042083015260058601546104408301526153b961046083018661458f565b6104808201939093526104a00152949350505050565b9182526001600160a01b0316602082015260400190565b83815260a081016153fa60208301856148df565b61296560608301846148df565b918252602082015260400190565b9283526020830191909152604082015260600190565b93845260208401929092526040830152606082015260800190565b6040518181016001600160401b038111828210171561546157fe5b604052919050565b60006001600160401b0382111561547c57fe5b5060209081020190565b6001600160a01b031690565b6001600160a01b038116811461221a57600080fd5b801515811461221a57600080fd5b600b811061221a57600080fd5b8060020b811461221a57600080fd5b6001600160801b038116811461221a57600080fd5b60ff8116811461221a57600080fdfe496e697469616c697a61626c653a20636f6e747261637420697320616c726561647920696e697469616c697a6564a26469706673582212200e1c101878a2e60bfa3179147cfc92bc9cbf68512335e47f9849b5174914aaaf64736f6c63430007060033",
  "deployedBytecode": "0x608060405234801561001057600080fd5b50600436106102065760003560e01c80639403b6341161011a578063d3487997116100ad578063ee6097f01161007c578063ee6097f0146104ad578063f2ffafb7146104c0578063f7b188a5146104d3578063fa461e33146104db578063ffdea55f146104ee57610206565b8063d348799714610451578063df6519d214610464578063eb02c30114610477578063ebd2665f1461049757610206565b8063ba4247b0116100e9578063ba4247b014610403578063c3d2ca2d1461040b578063c4937b6a1461041e578063d1e641971461043157610206565b80639403b634146103aa57806396d9eebe146103ca578063a847e674146103dd578063b3ab15fb146103f057610206565b8063570ca7351161019d578063687157731161016c57806368715773146103525780636f85ba9c146103655780637691c4ac146103855780638456cb591461039a57806386e6862d146103a257610206565b8063570ca735146102e7578063591a48b6146102fc5780635af084d21461031d578063671148591461033f57610206565b80633743d142116101d95780633743d142146102825780633c678e14146102975780634081eba8146102ad57806351be57d3146102cf57610206565b8063013216f51461020b578063127f0f0714610234578063275892a21461024d57806330050fbd14610262575b600080fd5b61021e610219366004613cd3565b610501565b60405161022b9190614d52565b60405180910390f35b61023c610695565b60405161022b959493929190614b52565b6102556106c3565b60405161022b9190614b80565b610275610270366004613cd3565b6106c9565b60405161022b9190614e4a565b6102956102903660046144fc565b610863565b005b61029f61094f565b60405161022b929190614d36565b6102c06102bb366004613cd3565b6109ac565b60405161022b93929190615415565b6102d7610b4f565b60405161022b949392919061542b565b6102ef610b5e565b60405161022b9190614a0f565b61030f61030a366004614478565b610b6d565b60405161022b929190614f0b565b61033061032b366004614197565b610bc7565b60405161022b939291906153e6565b61029561034d366004613d99565b610c56565b610295610360366004613d7e565b610ccb565b610378610373366004613cd3565b610d1e565b60405161022b9190614dba565b61038d610e48565b60405161022b9190614b47565b610295610e58565b6102ef610eea565b6103bd6103b8366004613cd3565b610f07565b60405161022b919061500d565b6103306103d8366004614418565b610f9b565b61038d6103eb366004613cd3565b61106e565b6102956103fe366004613b4f565b61111c565b6102ef6111af565b610255610419366004613cd3565b61123a565b61030f61042c36600461451d565b6112d6565b61044461043f3660046144cd565b61137f565b60405161022b9190614f43565b61029561045f366004613d2e565b6114a9565b61030f6104723660046142f3565b611500565b61048a610485366004613cd3565b611637565b60405161022b9190614a23565b61049f611642565b60405161022b929190614f26565b6102956104bb366004613dce565b61170b565b6102c06104ce366004613ceb565b6118ca565b61029561198a565b6102956104e9366004613d2e565b611a15565b6102956104fc3660046143b5565b611a6c565b610509613200565b73__$d48eea142f8e4946a86e978d6ec5b9f014$__631619952e60216005600260008781526020019081526020016000206105426111af565b6040518563ffffffff1660e01b815260040161056194939291906152f9565b60006040518083038186803b15801561057957600080fd5b505af415801561058d573d6000803e3d6000fd5b50505060008381526002602052604090819020905163a90989b160e01b815273__$d48eea142f8e4946a86e978d6ec5b9f014$__925063a90989b1916105d99160059190600401614cc8565b60006040518083038186803b1580156105f157600080fd5b505af4158015610605573d6000803e3d6000fd5b505050600083815260026020818152604092839020835161010081018552815480850b850b850b825263010000008104850b850b850b93820193909352600160301b9092046001600160801b03169382019390935260018301546060820152908201546080820152600382015460a0820152600482015460c082015260059091015460e08201529150505b919050565b600954600a54600854601b54601c54600160a01b90940460ff169492936001600160a01b0390921692909190565b60015481565b6106d1613254565b600082815260046020908152604091829020825160808101845281548152835160a081019094526001820180549194929385019291829060ff16600281111561071657fe5b600281111561072157fe5b81526020016001820154815260200160028201548152602001600382015481526020016004820154815250508152602001600682016040518060a00160405290816000820160009054906101000a900460ff16600281111561077f57fe5b600281111561078a57fe5b81526020016001820154815260200160028201548152602001600382015481526020016004820154815250508152602001600b8201805480602002602001604051908101604052809291908181526020016000905b828210156108555760008481526020908190206040805160c08101825260068602909201805460ff16151583526001808201548486015260028201546001600160801b03169284019290925260038101546060840152600481015460808401526005015460a083015290835290920191016107df565b505050915250909392505050565b602a546001600160a01b031633146108965760405162461bcd60e51b815260040161088d90614bdd565b60405180910390fd5b601b5482118015906108aa5750601c548111155b6108c65760405162461bcd60e51b815260040161088d90614bf9565b601b80548390039055601c8054829003905581156108f5576005546108f5906001600160a01b03163384611b61565b801561091257600654610912906001600160a01b03163383611b61565b7f6dd17eea45da52b3e6a3ff4a1af56c3591cc30f38ada82ddaf0679c0f4efffef8282604051610943929190615407565b60405180910390a15050565b60408051608080820183526021548252602254602080840191909152602354838501526024546060808501919091528451928301855260255483526026549183019190915260275493820193909352602854928101929092529082565b600081815260026020526040812060050154819081906109d457506000915081905080610b48565b600084815260026020526040902054600160301b90046001600160801b0316610aa357600854600085815260026020818152604092839020835161010081018552815480850b850b850b825263010000008104850b850b850b93820193909352600160301b9092046001600160801b03169382019390935260018301546060820152908201546080820152600382015460a0820152600482015460c082015260059091015460e0820152610a959130916001600160a01b0390911690611ca8565b600080925092509250610b48565b600854600085815260026020818152604092839020835161010081018552815480850b850b850b825263010000008104850b850b850b93820193909352600160301b9092046001600160801b03169382019390935260018301546060820152908201546080820152600382015460a0820152600482015460c082015260059091015460e0820152610b419130916001600160a01b0390911690611ccc565b9250925092505b9193909250565b601d54601e54601f5460205484565b602a546001600160a01b031681565b610b75613288565b610b7d613288565b602b54600160a01b900460ff1615610ba75760405162461bcd60e51b815260040161088d90614c15565b610bbb85610bb487611d05565b8686611500565b91509150935093915050565b6000610bd1613288565b610bd9613288565b602b54600160a01b900460ff1615610c035760405162461bcd60e51b815260040161088d90614c15565b836060015180421115610c285760405162461bcd60e51b815260040161088d90614b89565b610c33888888611eeb565b875160208901519397509195509350610c4b91612168565b509450945094915050565b602a546001600160a01b03163314610c805760405162461bcd60e51b815260040161088d90614bdd565b610c89826121a9565b610c92816121a9565b81516025556020808301516026556040808401516027556060938401516028558251602155908201516022558101516023550151602455565b602a546001600160a01b03163314610cf55760405162461bcd60e51b815260040161088d90614bdd565b610cfe816121a9565b8051601d55602080820151601e556040820151601f556060909101519055565b610d266132a2565b60008281526003602081815260408084208151608081018352815481526001820154818501526002820154818401529381018054835181860281018601909452808452919360608601939290830182828015610da157602002820191906000526020600020905b815481526020019060010190808311610d8d575b50505091909252505060405163149ccfa160e11b815291925073__$b4a4919001844372a79711112cfb20c2b9$__916329399f429150610ded9084906004906002906005908301615071565b60006040518083038186803b158015610e0557600080fd5b505af4158015610e19573d6000803e3d6000fd5b505050506040513d6000823e601f3d908101601f19168201604052610e419190810190613e8f565b9392505050565b602b54600160a01b900460ff1681565b602a546001600160a01b03163314610e825760405162461bcd60e51b815260040161088d90614bdd565b602b54600160a01b900460ff1615610eac5760405162461bcd60e51b815260040161088d90614c15565b602b805460ff60a01b1916600160a01b1790556040517f9e87fac88ff661f02d44f95383c817fece4bce600a3dab7a54406878b965e75290600090a1565b600854600090610f02906001600160a01b031661221d565b905090565b610f0f6132df565b6000828152600360208181526040928390208351608081018552815481526001820154818401526002820154818601529281018054855181850281018501909652808652939491936060860193830182828015610f8b57602002820191906000526020600020905b815481526020019060010190808311610f77575b5050505050815250509050919050565b6000610fa5613288565b610fad613288565b600073__$7ffffda71c6e7abde662efb5427d8d1c5d$__6307927e4b888860600151610fd7610eea565b89604001516040518563ffffffff1660e01b8152600401610ffb9493929190614e12565b60006040518083038186803b15801561101357600080fd5b505af4158015611027573d6000803e3d6000fd5b505050506040513d6000823e601f3d908101601f1916820160405261104f9190810190613b87565b905061105d88828888610bc7565b919a90995090975095505050505050565b60006110798261229d565b600082815260036020526040908190209051630d5e377d60e11b815273__$a1fa80d38d689cae49e54718da49b6432c$__91631abc6efa916110c691906004906005906002908301615264565b60206040518083038186803b1580156110de57600080fd5b505af41580156110f2573d6000803e3d6000fd5b505050506040513d601f19601f820116820180604052508101906111169190613cb7565b92915050565b602a546001600160a01b031633146111465760405162461bcd60e51b815260040161088d90614bdd565b6001600160a01b03811661115957600080fd5b602a80546001600160a01b0319166001600160a01b0383161790556040517fb3b3f5f64ab192e4b5fefde1f51ce9733bbdcf831951543b325aebd49cc27ec4906111a4908390614a0f565b60405180910390a150565b6040516310fe062760e11b815260009073__$a1fa80d38d689cae49e54718da49b6432c$__906321fc0c4e906111ea90600590600401614c85565b60206040518083038186803b15801561120257600080fd5b505af4158015611216573d6000803e3d6000fd5b505050506040513d601f19601f82011682018060405250810190610f029190613b6b565b600081815260036020526040808220905163b7f22f3960e01b815273__$a1fa80d38d689cae49e54718da49b6432c$__9163b7f22f399161128691906004906005906002908301615264565b60206040518083038186803b15801561129e57600080fd5b505af41580156112b2573d6000803e3d6000fd5b505050506040513d601f19601f820116820180604052508101906111169190613d16565b6112de613288565b6112e6613288565b602b54600160a01b900460ff16156113105760405162461bcd60e51b815260040161088d90614c15565b604080516001808252818301909252600091816020015b61132f613307565b81526020019060019003908161132757905050905061134d866122da565b8160008151811061135a57fe5b602002602001018190525061137187828787611500565b925092505094509492505050565b6113876132df565b6113908361229d565b600083815260036020818152604092839020835160808101855281548152600182015481840152600282015481860152928101805485518185028101850190965280865293949193606086019383018282801561140c57602002820191906000526020600020905b8154815260200190600101908083116113f8575b505050919092525050604051635d8d458360e11b815273__$b4a4919001844372a79711112cfb20c2b9$__9263bb1a8b0692506114559160049060029060059089908401615106565b60006040518083038186803b15801561146d57600080fd5b505af4158015611481573d6000803e3d6000fd5b505050506040513d6000823e601f3d908101601f19168201604052610e41919081019061400d565b6008546001600160a01b031633146114c057600080fd5b83156114dd576005546114dd906001600160a01b03163386611b61565b82156114fa576006546114fa906001600160a01b03163385611b61565b50505050565b611508613288565b611510613288565b602b54600160a01b900460ff161561153a5760405162461bcd60e51b815260040161088d90614c15565b82608001518042111561155f5760405162461bcd60e51b815260040161088d90614b89565b600073__$7ffffda71c6e7abde662efb5427d8d1c5d$__63f70cb736888860600151611589610eea565b89604001518a606001516040518663ffffffff1660e01b81526004016115b3959493929190614abf565b60006040518083038186803b1580156115cb57600080fd5b505af41580156115df573d6000803e3d6000fd5b505050506040513d6000823e601f3d908101601f191682016040526116079190810190613b87565b9050611614888288611eeb565b8751602089015192975090955061162c925090612168565b505094509492505050565b606061111682611d05565b61164a61333d565b61165261333d565b61165a6125b1565b5050604080516101008082018352600b548252600c54602080840191909152600d5483850152600e54606080850191909152600f5460808086019190915260105460a08087019190915260115460c08088019190915260125460e080890191909152885196870189526013548752601454958701959095526015549786019790975260165492850192909252601754908401526018549083015260195493820193909352601a549281019290925291565b600054610100900460ff16806117245750611724612645565b80611732575060005460ff16155b61176d5760405162461bcd60e51b815260040180806020018281038252602e8152602001806154f6602e913960400191505060405180910390fd5b600054610100900460ff16158015611798576000805460ff1961ff0019909116610100171660011790555b6001600160a01b0382166117ab57600080fd5b845160068054602080890151600580546001600160a01b039283166001600160a01b031991821617918290556040808d0151841662ffffff988916600160a01b90810262ffffff60a01b1990981697909717831617968790556060808e0151600980548e88169215158a0260ff60a01b1990911617909416179092558051918201815291831681529185169282019290925291909204909216908201526118528582612656565b600880546001600160a01b03199081166001600160a01b0393841617909155602b80549091169185169190911790556001600a55611890600b61273a565b61189a601361273a565b5042600155602a80546001600160a01b0319163317905580156118c3576000805461ff00191690555b5050505050565b600080600073__$d48eea142f8e4946a86e978d6ec5b9f014$__63829c843160216005600260008b81526020019081526020016000206119086111af565b8a8a6040518763ffffffff1660e01b815260040161192b9695949392919061531d565b60606040518083038186803b15801561194357600080fd5b505af4158015611957573d6000803e3d6000fd5b505050506040513d601f19601f8201168201806040525081019061197b9190614562565b92509250925093509350939050565b602a546001600160a01b031633146119b45760405162461bcd60e51b815260040161088d90614bdd565b602b54600160a01b900460ff166119dd5760405162461bcd60e51b815260040161088d90614c31565b602b805460ff60a01b191690556040517f472cf038e2a5f33dbaa68760dbf94ab4e159535e6580c0ac63f8202c7c6c0bb290600090a1565b6008546001600160a01b03163314611a2c57600080fd5b6000841315611a4c57600554611a4c906001600160a01b03163386611b61565b60008313156114fa576006546114fa906001600160a01b03163385611b61565b602b54600160a01b900460ff1615611a965760405162461bcd60e51b815260040161088d90614c15565b600073__$7ffffda71c6e7abde662efb5427d8d1c5d$__63f70cb736611abb85611637565b600954600160a01b900460ff16611ad0610eea565b865160208801516040516001600160e01b031960e088901b168152611afc959493929190600401614abf565b60006040518083038186803b158015611b1457600080fd5b505af4158015611b28573d6000803e3d6000fd5b505050506040513d6000823e601f3d908101601f19168201604052611b509190810190613b87565b9050611b5c8382612752565b505050565b604080516001600160a01b038481166024830152604480830185905283518084039091018152606490920183526020820180516001600160e01b031663a9059cbb60e01b1781529251825160009485949389169392918291908083835b60208310611bdd5780518252601f199092019160209182019101611bbe565b6001836020036101000a0380198251168184511680821785525050505050509050019150506000604051808303816000865af19150503d8060008114611c3f576040519150601f19603f3d011682016040523d82523d6000602084013e611c44565b606091505b5091509150818015611c72575080511580611c725750808060200190516020811015611c6f57600080fd5b50515b6118c3576040805162461bcd60e51b815260206004820152600260248201526114d560f21b604482015290519081900360640190fd5b600081604001516001600160801b0316611cc3858585612889565b01949350505050565b6000806000611cdc868686611ca8565b8460400151611cec888888612939565b9194506001600160801b03169250905093509350939050565b606060006003600084815260200190815260200160002060405180608001604052908160008201548152602001600182015481526020016002820154815260200160038201805480602002602001604051908101604052809291908181526020018280548015611d9457602002820191906000526020600020905b815481526020019060010190808311611d80575b50505091909252505060408051610180810182526005546001600160a01b03908116825260065480821660208085019190915262ffffff600160a01b9283900416848601526007548316606080860191909152600854841660808087019190915260095494851660a08088019190915260ff9490950493909316151560c080870191909152600a5460e08088019190915287516101008181018a52600b548252600c5482870152600d54828b0152600e5482860152600f548288015260105482890152601154828501526012548284015280890191909152885190810189526013548152601454948101949094526015549784019790975260165491830191909152601754928201929092526018549281019290925260195490820152601a5492810192909252610120810191909152601b54610140820152601c54610160820152919250610e419183915060049060029061296d565b6000611ef5613288565b611efd613288565b602b546040805163186e33a360e21b8152905188926001600160a01b0316916361b8ce8c9160048083019260209291908290030181600087803b158015611f4357600080fd5b505af1158015611f57573d6000803e3d6000fd5b505050506040513d601f19601f82011682018060405250810190611f7b9190613d16565b8110611f995760405162461bcd60e51b815260040161088d90614c4d565b611fa38787612bbc565b6000611fb3888760400151612d09565b8092508196505050600073__$68d6cdd7134515db34cd8ee009462a2aba$__63e1bbe20e836004600560028d8d602b60009054906101000a90046001600160a01b03166001600160a01b0316636352211e8f6040518263ffffffff1660e01b81526004016120219190614b80565b60206040518083038186803b15801561203957600080fd5b505afa15801561204d573d6000803e3d6000fd5b505050506040513d601f19601f820116820180604052508101906120719190613b6b565b6040518863ffffffff1660e01b81526004016120939796959493929190615152565b60006040518083038186803b1580156120ab57600080fd5b505af41580156120bf573d6000803e3d6000fd5b505050506040513d6000823e601f3d908101601f191682016040526120e79190810190613f35565b80516060820151909650945090508861215c57600954600160a01b900460ff1615612135578451620f424013156121305760405162461bcd60e51b815260040161088d90614ba5565b61215c565b620f42408560200151121561215c5760405162461bcd60e51b815260040161088d90614ba5565b50505093509350939050565b6000612172610eea565b6001600160a01b0316905080831115801561218d5750818111155b611b5c5760405162461bcd60e51b815260040161088d90614bf9565b8051670de0b6b3a7640000108015906121ce5750670de0b6b3a7640000816020015111155b80156121e65750670de0b6b3a7640000816040015111155b80156121fe5750678ac7230489e80000816060015111155b61221a5760405162461bcd60e51b815260040161088d90614c69565b50565b6000816001600160a01b0316633850c7bd6040518163ffffffff1660e01b815260040160e06040518083038186803b15801561225857600080fd5b505afa15801561226c573d6000803e3d6000fd5b505050506040513d601f19601f820116820180604052508101906122909190614106565b5094979650505050505050565b6040805160008082526020820190925261221a918391906122d4565b6122c1613382565b8152602001906001900390816122b95790505b50612bbc565b6122e2613307565b600082815260046020908152604091829020825160808101845281548152835160a081019094526001820180546111169592948501929190829060ff16600281111561232a57fe5b600281111561233557fe5b81526020016001820154815260200160028201548152602001600382015481526020016004820154815250508152602001600682016040518060a00160405290816000820160009054906101000a900460ff16600281111561239357fe5b600281111561239e57fe5b81526020016001820154815260200160028201548152602001600382015481526020016004820154815250508152602001600b8201805480602002602001604051908101604052809291908181526020016000905b828210156124695760008481526020908190206040805160c08101825260068602909201805460ff16151583526001808201548486015260028201546001600160801b03169284019290925260038101546060840152600481015460808401526005015460a083015290835290920191016123f3565b5050509152505060408051610180810182526005546001600160a01b03908116825260065480821660208085019190915262ffffff600160a01b9283900416848601526007548316606080860191909152600854841660808087019190915260095494851660a08088019190915260ff9490950493909316151560c080870191909152600a5460e08088019190915287516101008181018a52600b548252600c5482870152600d54828b0152600e5482860152600f548288015260105482890152601154828501526012548284015280890191909152885190810189526013548152601454948101949094526015549784019790975260165491830191909152601754928201929092526018549281019290925260195490820152601a5492810192909252610120810191909152601b54610140820152601c54610160820152600290612eae565b60015460405163725acfd160e01b815273__$d48eea142f8e4946a86e978d6ec5b9f014$__9163725acfd1916125f091600591601d9190600401614c94565b60206040518083038186803b15801561260857600080fd5b505af415801561261c573d6000803e3d6000fd5b505050506040513d601f19601f820116820180604052508101906126409190613d16565b600155565b600061265030613104565b15905090565b600081602001516001600160a01b031682600001516001600160a01b03161061267e57600080fd5b50805160208083015160409384015184516001600160a01b0394851681850152939091168385015262ffffff166060808401919091528351808403820181526080840185528051908301206001600160f81b031960a085015294901b6bffffffffffffffffffffffff191660a183015260b58201939093527fe34f199b19b2b4f47f68442619d555527d244f78a3297ea89325f843f87b8b5460d5808301919091528251808303909101815260f5909101909152805191012090565b670de0b6b3a764000060048201819055600590910155565b602b546040805163186e33a360e21b8152905184926001600160a01b0316916361b8ce8c9160048083019260209291908290030181600087803b15801561279857600080fd5b505af11580156127ac573d6000803e3d6000fd5b505050506040513d601f19601f820116820180604052508101906127d09190613d16565b81106127ee5760405162461bcd60e51b815260040161088d90614c4d565b600083116127fb57600080fd5b6128058383612bbc565b6000838152600360205260409081902090516349b3bd7960e11b815273__$a1fa80d38d689cae49e54718da49b6432c$__916393677af291612854919060049087906005906002908401615231565b60006040518083038186803b15801561286c57600080fd5b505af4158015612880573d6000803e3d6000fd5b50505050505050565b60008061289f858460000151856020015161310a565b90506000846001600160a01b031663514ea4bf836040518263ffffffff1660e01b81526004016128cf9190614b80565b60a06040518083038186803b1580156128e757600080fd5b505afa1580156128fb573d6000803e3d6000fd5b505050506040513d601f19601f8201168201806040525081019061291f91906140a5565b50506001600160801b039092169450505050509392505050565b600061296582604001516001600160801b0316670de0b6b3a7640000612960878787611ca8565b613160565b949350505050565b60608460600151516001600160401b038111801561298a57600080fd5b506040519080825280602002602001820160405280156129c457816020015b6129b1613307565b8152602001906001900390816129a95790505b50905060005b856060015151811015612bb357612b94856000886060015184815181106129ed57fe5b6020026020010151815260200190815260200160002060405180608001604052908160008201548152602001600182016040518060a00160405290816000820160009054906101000a900460ff166002811115612a4657fe5b6002811115612a5157fe5b81526020016001820154815260200160028201548152602001600382015481526020016004820154815250508152602001600682016040518060a00160405290816000820160009054906101000a900460ff166002811115612aaf57fe5b6002811115612aba57fe5b81526020016001820154815260200160028201548152602001600382015481526020016004820154815250508152602001600b8201805480602002602001604051908101604052809291908181526020016000905b82821015612b855760008481526020908190206040805160c08101825260068602909201805460ff16151583526001808201548486015260028201546001600160801b03169284019290925260038101546060840152600481015460808401526005015460a08301529083529092019101612b0f565b50505050815250508585612eae565b828281518110612ba057fe5b60209081029190910101526001016129ca565b50949350505050565b612bc46125b1565b60008281526003602081815260408084208151608081018352815481526001820154818501526002820154818401529381018054835181860281018601909452808452919360608601939290830182828015612c3f57602002820191906000526020600020905b815481526020019060010190808311612c2b575b505050505081525050905073__$d48eea142f8e4946a86e978d6ec5b9f014$__63a5d330ad82600460026005876021612c766111af565b6040518863ffffffff1660e01b8152600401612c9897969594939291906150aa565b60006040518083038186803b158015612cb057600080fd5b505af4158015612cc4573d6000803e3d6000fd5b5050604051637ce761e760e01b815273__$d48eea142f8e4946a86e978d6ec5b9f014$__9250637ce761e7915061285490600590859060049060029089908301614ce5565b60008083612de657602b546040516354ba0f2760e01b81526001600160a01b03909116906354ba0f2790612d41903390600401614a0f565b602060405180830381600087803b158015612d5b57600080fd5b505af1158015612d6f573d6000803e3d6000fd5b505050506040513d601f19601f82011682018060405250810190612d939190613d16565b60008181526003602052604090819020829055519092507fbf3e9c93de94306b70ac5b9411edf475545815333bf651b894b9eada6482c59490612dd990849033906153cf565b60405180910390a1612e97565b602b546040516331a9108f60e11b815285935033916001600160a01b031690636352211e90612e19908690600401614b80565b60206040518083038186803b158015612e3157600080fd5b505afa158015612e45573d6000803e3d6000fd5b505050506040513d601f19601f82011682018060405250810190612e699190613b6b565b6001600160a01b03161480612e7b5750825b612e975760405162461bcd60e51b815260040161088d90614bc1565b5060008181526003602052604090205b9250929050565b612eb6613307565b60008460600151516001600160401b0381118015612ed357600080fd5b50604051908082528060200260200182016040528015612f0d57816020015b612efa6133c8565b815260200190600190039081612ef25790505b50905060005b85606001515181101561305e57600086606001518281518110612f3257fe5b60209081029190910181015181015160008181528883526040908190208151610100810183528154600281810b810b810b835263010000008204810b810b810b96830196909652600160301b90046001600160801b031681840152600182015460608083019190915294820154608080830191909152600383015460a0830152600483015460c083015260059092015460e08201528251918201909252928a0151805192945090929182919086908110612fe857fe5b602002602001015160000151151581526020018960600151858151811061300b57fe5b6020026020010151604001516001600160801b03168152602001826000015160020b8152602001826020015160020b81525084848151811061304957fe5b60209081029190910101525050600101612f13565b506040518060c0016040528086600001518152602001613090876020015186610100015161317f90919063ffffffff16565b81526020016130b1876040015186610120015161317f90919063ffffffff16565b81526020016130d287602001518661010001516131c390919063ffffffff16565b81526020016130f387604001518661012001516131c390919063ffffffff16565b815260200191909152949350505050565b3b151590565b6040805160609490941b6bffffffffffffffffffffffff1916602080860191909152600293840b60e890811b60348701529290930b90911b60378401528051808403601a018152603a9093019052815191012090565b82820281151584158583048514171661317857600080fd5b0492915050565b600060018251600281111561319057fe5b14156131b8576131b182602001518460800151670de0b6b3a7640000613160565b9050611116565b506020810151611116565b60006001825160028111156131d457fe5b14156131f5576131b182604001518460a00151670de0b6b3a7640000613160565b506040810151611116565b604051806101000160405280600060020b8152602001600060020b815260200160006001600160801b0316815260200160008152602001600081526020016000815260200160008152602001600081525090565b60405180608001604052806000815260200161326e6133ef565b815260200161327b6133ef565b8152602001606081525090565b604051806040016040528060008152602001600081525090565b6040518060e00160405280600081526020016000815260200160008152602001600081526020016000815260200160008152602001606081525090565b6040518060800160405280600081526020016000815260200160008152602001606081525090565b6040518060c001604052806000815260200160008152602001600081526020016000815260200160008152602001606081525090565b60405180610100016040528060008152602001600081526020016000815260200160008152602001600081526020016000815260200160008152602001600081525090565b604080516101008101909152806000815260006020820181905260408201819052606082018190526080820181905260a0820181905260c0820181905260e09091015290565b60408051608081018252600080825260208201819052918101829052606081019190915290565b6040805160a081019091528060008152602001600081526020016000815260200160008152602001600081525090565b803561069081615492565b600082601f83011261343a578081fd5b8135602061344f61344a83615469565b615446565b8281528181019085830160808086028801850189101561346d578687fd5b865b868110156134fe5781838b031215613485578788fd5b604080518381018181106001600160401b03821117156134a157fe5b825284356134ae816154a7565b8152848801356134bd816154d1565b81890152848201356134ce816154c2565b80838301525060609150818501356134e5816154c2565b918101919091528552938501939181019160010161346f565b509198975050505050505050565b600082601f83011261351c578081fd5b8151602061352c61344a83615469565b8281528181019085830160808086028801850189101561354a578687fd5b865b868110156134fe5781838b031215613562578788fd5b604080518381018181106001600160401b038211171561357e57fe5b8252845161358b816154a7565b81528488015161359a816154d1565b81890152848201516135ab816154c2565b80838301525060609150818501516135c2816154c2565b918101919091528552938501939181019160010161354c565b600082601f8301126135eb578081fd5b815160206135fb61344a83615469565b828152818101908583016101e08086028801850189101561361a578687fd5b865b868110156134fe57828a0382811215613633578889fd5b60408051608081016001600160401b03828210818311171561365157fe5b8184526060851215613661578c8dfd5b60e083019450818510818611171561367557fe5b50838352865181528987015160a08301528683015160c0830152815261369e8d606088016139b1565b898201526136af8d60e088016139b1565b828201526136c18d61016088016139b1565b606082015287525050938501939181019160010161361c565b600082601f8301126136ea578081fd5b815160206136fa61344a83615469565b82815281810190858301606080860288018501891015613718578687fd5b865b868110156134fe5781838b031215613730578788fd5b604080518381018181106001600160401b038211171561374c57fe5b825284518152878501518882015284820151918101919091528552938501939181019160010161371a565b8035610690816154a7565b8051610690816154a7565b60008083601f84011261379e578182fd5b5081356001600160401b038111156137b4578182fd5b602083019150836020828501011115612ea757600080fd5b600082601f8301126137dc578081fd5b81356001600160401b038111156137ef57fe5b613802601f8201601f1916602001615446565b818152846020838601011115613816578283fd5b816020850160208301379081016020019190915292915050565b8035610690816154b5565b8051610690816154b5565b8035610690816154c2565b8051610690816154c2565b600060a0828403121561386d578081fd5b60405160a081018181106001600160401b038211171561388957fe5b806040525080915082358152602083013560208201526040830135604082015260608301356060820152608083013560808201525092915050565b6000608082840312156138d5578081fd5b604051608081018181106001600160401b03821117156138f157fe5b8060405250809150823581526020830135602082015260408301356040820152606083013560608201525092915050565b600060c08284031215613933578081fd5b60405160c081016001600160401b03828210818311171561395057fe5b81604052829350843583526020850135602084015260408501356040840152606085013560608401526080850135608084015260a085013591508082111561399757600080fd5b506139a48582860161342a565b60a0830152505092915050565b6000608082840312156139c2578081fd5b604051608081018181106001600160401b03821117156139de57fe5b8060405250809150825181526020830151602082015260408301516040820152606083015160608201525092915050565b600060408284031215613a20578081fd5b604051604081018181106001600160401b0382111715613a3c57fe5b604052825181526020928301519281019290925250919050565b6000610120808385031215613a69578182fd5b613a7281615446565b915050613a7e82613777565b8152613a8c60208301613777565b6020820152613a9d60408301613777565b6040820152613aae60608301613777565b6060820152613abf60808301613b44565b6080820152613ad060a08301613b44565b60a082015260c082013560c082015260e082013560e0820152610100808301356001600160401b03811115613b0457600080fd5b613b10858286016137cc565b82840152505092915050565b8035610690816154d1565b8051610690816154d1565b805161ffff8116811461069057600080fd5b8035610690816154e6565b600060208284031215613b60578081fd5b8135610e4181615492565b600060208284031215613b7c578081fd5b8151610e4181615492565b60006020808385031215613b99578182fd5b82516001600160401b0380821115613baf578384fd5b818501915085601f830112613bc2578384fd5b8151613bd061344a82615469565b81815284810190848601610100808502870188018b1015613bef578889fd5b8896505b84871015613ca85780828c031215613c09578889fd5b604080518281018181108982111715613c1e57fe5b8252613c298461383b565b8152898401518a820152613c3e828501613782565b8282015260609150613c51828501613b27565b8282015260809150613c64828501613851565b8282015260a09150613c77828501613851565b9181019190915260c0838101519082015260e080840151908201528452600196909601959287019290810190613bf3565b50909998505050505050505050565b600060208284031215613cc8578081fd5b8151610e41816154a7565b600060208284031215613ce4578081fd5b5035919050565b600080600060608486031215613cff578182fd5b505081359360208301359350604090920135919050565b600060208284031215613d27578081fd5b5051919050565b60008060008060608587031215613d43578182fd5b843593506020850135925060408501356001600160401b03811115613d66578283fd5b613d728782880161378d565b95989497509550505050565b600060808284031215613d8f578081fd5b610e4183836138c4565b6000806101008385031215613dac578182fd5b613db684846138c4565b9150613dc584608085016138c4565b90509250929050565b60008060008084860360e0811215613de4578283fd5b6080811215613df1578283fd5b50604051608081018181106001600160401b0382111715613e0e57fe5b604052853562ffffff81168114613e23578384fd5b81526020860135613e3381615492565b6020820152613e446040870161341f565b6040820152613e5560608701613777565b60608201529350613e686080860161341f565b9250613e7660a0860161341f565b9150613e8460c0860161341f565b905092959194509250565b600060208284031215613ea0578081fd5b81516001600160401b0380821115613eb6578283fd5b9083019060e08286031215613ec9578283fd5b613ed360e0615446565b825181526020830151602082015260408301516040820152606083015160608201526080830151608082015260a083015160a082015260c083015182811115613f1a578485fd5b613f268782860161350c565b60c08301525095945050505050565b600060208284031215613f46578081fd5b81516001600160401b0380821115613f5c578283fd5b908301906101408286031215613f70578283fd5b613f7a60c0615446565b613f848684613a0f565b8152613f938660408501613a0f565b6020820152613fa58660808501613a0f565b6040820152613fb78660c08501613a0f565b606082015261010083015182811115613fce578485fd5b613fda878286016136da565b60808301525061012083015182811115613ff2578485fd5b613ffe878286016136da565b60a08301525095945050505050565b60006020828403121561401e578081fd5b81516001600160401b0380821115614034578283fd5b9083019060808286031215614047578283fd5b60405160808101818110838211171561405c57fe5b806040525082518152602083015160208201526040830151604082015260608301518281111561408a578485fd5b614096878286016135db565b60608301525095945050505050565b600080600080600060a086880312156140bc578283fd5b85516140c7816154d1565b80955050602086015193506040860151925060608601516140e7816154d1565b60808701519092506140f8816154d1565b809150509295509295909350565b600080600080600080600060e0888a031215614120578485fd5b875161412b81615492565b602089015190975061413c816154c2565b955061414a60408901613b32565b945061415860608901613b32565b935061416660808901613b32565b925060a0880151614176816154e6565b60c0890151909250614187816154a7565b8091505092959891949750929550565b60008060008060e085870312156141ac578182fd5b843593506020808601356001600160401b03808211156141ca578485fd5b818801915088601f8301126141dd578485fd5b81356141eb61344a82615469565b81815284810190848601610100808502870188018e101561420a57898afd5b8996505b848710156142bb5780828f03121561422457898afd5b60408051828101818110898211171561423957fe5b825261424484613830565b8152898401358a820152614259828501613777565b8282015261426960608501613b1c565b606082015261427a60808501613846565b608082015261428b60a08501613846565b60a082015260c0848101359082015260e0808501359082015285525060019690960195928701929081019061420e565b5090985050505060408801359250808311156142d5578485fd5b50506142e387828801613a56565b925050613e8486606087016138c4565b6000806000806101008587031215614309578182fd5b843593506020808601356001600160401b0380821115614327578485fd5b818801915088601f83011261433a578485fd5b813561434861344a82615469565b81815284810190848601885b8481101561437d5761436b8e8984358a0101613922565b84529287019290870190600101614354565b509098505050506040880135925080831115614397578485fd5b50506143a587828801613a56565b925050613e84866060870161385c565b60008082840360608112156143c8578283fd5b833592506040601f19820112156143dd578182fd5b50604051604081018181106001600160401b03821117156143fa57fe5b60409081526020858101358352940135938101939093525092909150565b60008060008060e0858703121561442d578182fd5b8435935060208501356001600160401b038082111561444a578384fd5b61445688838901613922565b9450604087013591508082111561446b578384fd5b506142e387828801613a56565b600080600060e0848603121561448c578081fd5b8335925060208401356001600160401b038111156144a8578182fd5b6144b486828701613a56565b9250506144c4856040860161385c565b90509250925092565b600080604083850312156144df578182fd5b8235915060208301356144f181615492565b809150509250929050565b6000806040838503121561450e578182fd5b50508035926020909101359150565b6000806000806101008587031215614533578182fd5b843593506020850135925060408501356001600160401b03811115614556578283fd5b6143a587828801613a56565b600080600060608486031215614576578081fd5b8351925060208401519150604084015190509250925092565b6001600160a01b03169052565b6000815180845260208085019450808401835b838110156145d5576145c2878351614822565b60809690960195908201906001016145af565b509495945050505050565b6000815180845260208085019450808401835b838110156145d55781518051600b811061460957fe5b88528084015184890152604080820151151590890152606080820151614631828b01826149f2565b5050608080820151614645828b01826146d3565b505060a080820151614659828b01826146d3565b505060c0818101519089015260e0908101519088015261010090960195908201906001016145f3565b15159052565b60008151808452815b818110156146ad57602081850181015186830182015201614691565b818111156146be5782602083870101525b50601f01601f19169290920160200192915050565b60020b9052565b8051600381106146e657fe5b8252602081810151908301526040808201519083015260608082015190830152608090810151910152565b6147248261471f8354615486565b61458f565b60018101546001600160a01b036147406020850182841661458f565b6147556040850162ffffff8460a01c166149ff565b6147626002840154615486565b9150614771606085018361458f565b61477e6003840154615486565b915061478d608085018361458f565b600483015491506147a360a0850182841661458f565b506147b760c0840160ff8360a01c16614682565b50600581015460e08301526147d361010083016006830161493c565b6147e46102008301600e830161493c565b60168101546103008301526017015461032090910152565b805182526020810151602083015260408101516040830152606081015160608301525050565b8051151582526001600160801b036020820151166020830152604081015160020b6040830152606081015160020b60608301525050565b600060c08301825184526020808401518186015260408401516040860152606084015160608601526080808501518187015260a085015160c060a088015283815180865260e08901915084830195508692505b808310156148d3576148bf828751614822565b9484019460019290920191908301906148ac565b50979650505050505050565b80518252602090810151910152565b805182526020810151602083015260408101516040830152606081015160608301526080810151608083015260a081015160a083015260c081015160c083015260e081015160e08301525050565b8054825260018101546020830152600281015460408301526003810154606083015260048101546080830152600581015460a0830152600681015460c08301526007015460e090910152565b60006080830182518452602080840151818601526040840151604086015260608401516080606087015282815180855260a08801915083830194508592505b808310156149e757845182529383019360019290920191908301906149c7565b509695505050505050565b6001600160801b03169052565b62ffffff169052565b60ff169052565b6001600160a01b0391909116815260200190565b60208082528251828201819052600091906040908185019080840286018301878501865b83811015614ab157888303603f1901855281518051845287810151888501528681015187850152606080820151908501526080808201519085015260a09081015160c091850182905290614a9d8186018361459c565b968901969450505090860190600101614a47565b509098975050505050505050565b600060a0820160a0835280885180835260c0850191506020925060c0838202860101838b01855b83811015614b145760bf19888403018552614b02838351614859565b94860194925090850190600101614ae6565b5050981515928501929092525050506001600160a01b039390931660408401526060830191909152608090910152919050565b901515815260200190565b941515855260208501939093526001600160a01b039190911660408401526060830152608082015260a00190565b90815260200190565b602080825260029082015261503760f01b604082015260600190565b602080825260029082015261140d60f21b604082015260600190565b602080825260029082015261503160f01b604082015260600190565b602080825260029082015261503360f01b604082015260600190565b6020808252600290820152610a0760f31b604082015260600190565b602080825260029082015261503560f01b604082015260600190565b602080825260029082015261281b60f11b604082015260600190565b602080825260029082015261281960f11b604082015260600190565b602080825260029082015261503960f01b604082015260600190565b61034081016111168284614711565b928352815460208401526001820154604084015260028201546060840152600390910154608083015260a082015260c00190565b6103608101614cd78285614711565b826103408301529392505050565b60006103c0614cf48389614711565b80610340840152614d0781840188614988565b905085610360840152846103808401528281036103a0840152614d2a81856145e0565b98975050505050505050565b6101008101614d4582856147fc565b610e4160808301846147fc565b600061010082019050825160020b8252602083015160020b60208301526001600160801b036040840151166040830152606083015160608301526080830151608083015260a083015160a083015260c083015160c083015260e083015160e083015292915050565b60006020825282516020830152602083015160408301526040830151606083015260608301516080830152608083015160a083015260a083015160c083015260c083015160e08084015261296561010084018261459c565b600060808252614e256080830187614859565b9415156020830152506001600160a01b03929092166040830152606090910152919050565b600060208083526101a08301845182850152818501516040614e6e818701836146da565b808701519150614e8160e08701836146da565b6060878101516101808881015280519485905285019390925085906101c08801905b80831015614efe5785518051151583528781015188840152848101516001600160801b03168584015285810151868401526080808201519084015260a09081015190830152948601946001929092019160c090910190614ea3565b5098975050505050505050565b60808101614f1982856148df565b610e4160408301846148df565b6102008101614f3582856148ee565b610e416101008301846148ee565b6020808252825182820152828101516040808401919091528084015160608085019190915280850151608080860152805160a08601819052600094939184019285929160c08801905b80851015614efe57855180518051845288810151898501528501518584015287810151614fbb858501826147fc565b5080850151805160e08501528881015161010085015280860151610120850152840151610140840152830151614ff56101608401826147fc565b506101e0820191508686019550600185019450614f8c565b6000602080835260a0830184518285015281850151604085015260408501516060850152606085015160808086015281815180845260c08701915084830193508592505b808310156149e75783518252928401926001929092019190840190615051565b60006103a080835261508581840188614988565b9150508460208301528360408301526150a16060830184614711565b95945050505050565b600060e082526150bd60e083018a614988565b88602084015287604084015286606084015282810360808401526150e181876145e0565b60a084019590955250506001600160a01b039190911660c09091015295945050505050565b60006103c080835261511a81840189614988565b9150508560208301528460408301526151366060830185614711565b6001600160a01b03929092166103a09190910152949350505050565b600088825287602083015286604083015285606083015260e0608083015261517d60e08301866145e0565b82810360a0840152610120615193828751614682565b60208601516151a56020840182614682565b5060408601516151b86040840182614682565b5060608601516151cb6060840182614682565b5060808601516151de6080840182614a08565b5060a08601516151f160a0840182614a08565b5060c086015160c083015260e086015160e083015261010080870151828285015261521e83850182614688565b945050505050614d2a60c083018461458f565b600086825285602083015260a0604083015261525060a08301866145e0565b606083019490945250608001529392505050565b6103a08082528554908201526001808601546103c083015260028601546103e083015260806104008301526003860180546104208401819052600091825260208083209293929091610440860190855b818110156152cf5783548352928501929184019185016152b4565b50509185018890525091506152e990506040830185614711565b8261038083015295945050505050565b938452602084019290925260408301526001600160a01b0316606082015260800190565b8681526104c081016153326020830188614711565b855461534561036084018260020b6146d3565b61535961038084018260181c60020b6146d3565b6153736103a084016001600160801b038360301c166149f2565b5060018601546103c083015260028601546103e08301526003860154610400830152600486015461042083015260058601546104408301526153b961046083018661458f565b6104808201939093526104a00152949350505050565b9182526001600160a01b0316602082015260400190565b83815260a081016153fa60208301856148df565b61296560608301846148df565b918252602082015260400190565b9283526020830191909152604082015260600190565b93845260208401929092526040830152606082015260800190565b6040518181016001600160401b038111828210171561546157fe5b604052919050565b60006001600160401b0382111561547c57fe5b5060209081020190565b6001600160a01b031690565b6001600160a01b038116811461221a57600080fd5b801515811461221a57600080fd5b600b811061221a57600080fd5b8060020b811461221a57600080fd5b6001600160801b038116811461221a57600080fd5b60ff8116811461221a57600080fdfe496e697469616c697a61626c653a20636f6e747261637420697320616c726561647920696e697469616c697a6564a26469706673582212200e1c101878a2e60bfa3179147cfc92bc9cbf68512335e47f9849b5174914aaaf64736f6c63430007060033",
  "libraries": {
    "UpdatePositionLogic": "0x4A46C1F7A7379201dffa86b105D9094d81bf7e3b",
    "LiquidationLogic": "0x0651BDF64F2E9Dda975967ae2Ef29D77880ABeBc",
    "PositionUpdater": "0x0C2ECB1622356Cd0674235EA147EE1C7b97a6ed9",
    "VaultLib": "0x5Cdf96137bd9C04638B836BE022fCd52BD253AfF",
    "PositionLib": "0xEeE521668253c9394bde99B0BA5970b0f15Dd6e9",
    "InterestCalculator": "0x69498D8328889679714552856974B35b4ab483A1"
  },
  "devdoc": {
    "kind": "dev",
    "methods": {
      "closePosition(uint256,(uint256,uint256,uint256,uint256,uint256,(bool,uint128,int24,int24)[])[],(bool,bool,bool,bool,uint8,uint8,int256,int256,bytes),(uint256,uint256,uint256,uint256,uint256))": {
        "params": {
          "_closePositionOptions": "Option parameters to close position",
          "_positions": "Positions to close",
          "_tradeOption": "Trade parameters",
          "_vaultId": "The id of the vault"
        }
      },
      "closeSubVault(uint256,uint256,(bool,bool,bool,bool,uint8,uint8,int256,int256,bytes),(uint256,uint256,uint256,uint256,uint256))": {
        "params": {
          "_closePositionOptions": "Option parameters to close position",
          "_subVaultId": "The id of the sub-vault",
          "_tradeOption": "Trade parameters",
          "_vaultId": "The id of the vault"
        }
      },
      "closeVault(uint256,(bool,bool,bool,bool,uint8,uint8,int256,int256,bytes),(uint256,uint256,uint256,uint256,uint256))": {
        "params": {
          "_closePositionOptions": "Option parameters to close position",
          "_tradeOption": "Trade parameters",
          "_vaultId": "The id of the vault"
        }
      },
      "getRange(bytes32)": {
        "params": {
          "_rangeId": "The id of the LPT"
        }
      },
      "getSubVault(uint256)": {
        "params": {
          "_subVaultId": "The id of the sub-vault"
        }
      },
      "getUtilizationRatio(bytes32)": {
        "params": {
          "_rangeId": "The id of the LPT"
        }
      },
      "getVault(uint256)": {
        "params": {
          "_vaultId": "The id of the vault"
        }
      },
      "getVaultStatus(uint256,uint160)": {
        "params": {
          "_vaultId": "The id of the vault"
        }
      },
      "isVaultSafe(uint256)": {
        "params": {
          "_vaultId": "vault id"
        },
        "returns": {
          "isSafe": "true if the vault is safe, false if the vault can be liquidated."
        }
      },
      "liquidate(uint256,(uint256,uint256))": {
        "params": {
          "_liquidationOption": "option parameters for liquidation call",
          "_vaultId": "The id of the vault"
        }
      },
      "openPosition(uint256,(uint256,uint256,uint256,uint256,uint256,(bool,uint128,int24,int24)[]),(bool,bool,bool,bool,uint8,uint8,int256,int256,bytes),(uint256,uint256,uint256,uint256))": {
        "params": {
          "_openPositionOptions": "Option parameters to open position",
          "_position": "Position to open",
          "_tradeOption": "Trade parameters",
          "_vaultId": "The id of the vault. 0 means that it creates new vault."
        }
      },
      "setOperator(address)": {
        "details": "Only operator can call this function.",
        "params": {
          "_newOperator": "The address of new operator"
        }
      },
      "uniswapV3MintCallback(uint256,uint256,bytes)": {
        "details": "Callback for Uniswap V3 pool."
      },
      "uniswapV3SwapCallback(int256,int256,bytes)": {
        "details": "Callback for Uniswap V3 pool."
      },
      "updateIRMParams((uint256,uint256,uint256,uint256))": {
        "details": "Only operator can call this function.",
        "params": {
          "_irmParams": "New interest rate model parameter"
        }
      },
      "updateYearlyPremiumParams((uint256,uint256,uint256,uint256),(uint256,uint256,uint256,uint256))": {
        "details": "Only operator can call this function.",
        "params": {
          "_irmParams": "New interest rate model parameter",
          "_premiumParams": "New interest rate model parameter for variance calculation"
        }
      },
      "withdrawProtocolFee(uint256,uint256)": {
        "details": "Only operator can call this function.",
        "params": {
          "_amount0": "amount of token0 to withdraw",
          "_amount1": "amount of token1 to withdraw"
        }
      }
    },
    "version": 1
  },
  "userdoc": {
    "kind": "user",
    "methods": {
      "closePosition(uint256,(uint256,uint256,uint256,uint256,uint256,(bool,uint128,int24,int24)[])[],(bool,bool,bool,bool,uint8,uint8,int256,int256,bytes),(uint256,uint256,uint256,uint256,uint256))": {
        "notice": "Closes position partially."
      },
      "closeSubVault(uint256,uint256,(bool,bool,bool,bool,uint8,uint8,int256,int256,bytes),(uint256,uint256,uint256,uint256,uint256))": {
        "notice": "Closes all positions in sub-vault."
      },
      "closeVault(uint256,(bool,bool,bool,bool,uint8,uint8,int256,int256,bytes),(uint256,uint256,uint256,uint256,uint256))": {
        "notice": "Closes all positions in a vault."
      },
      "getRange(bytes32)": {
        "notice": "Returns a Liquidity Provider Token (LPT) data"
      },
      "getSqrtPrice()": {
        "notice": "Gets square root of current underlying token price by quote token."
      },
      "getSubVault(uint256)": {
        "notice": "Returns a sub-vault data"
      },
      "getTokenState()": {
        "notice": "Returns the status of supplied tokens."
      },
      "getUtilizationRatio(bytes32)": {
        "notice": "Returns the utilization ratio of Liquidity Provider Token (LPT)."
      },
      "getVault(uint256)": {
        "notice": "Returns a vault data"
      },
      "getVaultStatus(uint256,uint160)": {
        "notice": "Returns values and token amounts of the vault."
      },
      "isVaultSafe(uint256)": {
        "notice": "Returns the flag whether a vault is safe or not."
      },
      "liquidate(uint256,(uint256,uint256))": {
        "notice": "Liquidates a vault."
      },
      "openPosition(uint256,(uint256,uint256,uint256,uint256,uint256,(bool,uint128,int24,int24)[]),(bool,bool,bool,bool,uint8,uint8,int256,int256,bytes),(uint256,uint256,uint256,uint256))": {
        "notice": "Opens new position."
      },
      "pause()": {
        "notice": "pause the contract"
      },
      "setOperator(address)": {
        "notice": "Sets new operator"
      },
      "unPause()": {
        "notice": "unpause the contract"
      },
      "updateIRMParams((uint256,uint256,uint256,uint256))": {
        "notice": "Updates interest rate model parameter."
      },
      "updateYearlyPremiumParams((uint256,uint256,uint256,uint256),(uint256,uint256,uint256,uint256))": {
        "notice": "Updates interest rate model parameters for premium calculation."
      },
      "withdrawProtocolFee(uint256,uint256)": {
        "notice": "Withdraws accumulated protocol fee."
      }
    },
    "notice": "Error Codes P1: caller must be vault owner P2: vault does not exists P3: caller must be operator P4: cannot create vault with 0 amount P5: paused P6: unpaused P7: tx too old P8: too much slippage P9: invalid interest rate model",
    "version": 1
  },
  "storageLayout": {
    "storage": [
      {
        "astId": 916,
        "contract": "src/Controller.sol:Controller",
        "label": "_initialized",
        "offset": 0,
        "slot": "0",
        "type": "t_bool"
      },
      {
        "astId": 919,
        "contract": "src/Controller.sol:Controller",
        "label": "_initializing",
        "offset": 1,
        "slot": "0",
        "type": "t_bool"
      },
      {
        "astId": 6140,
        "contract": "src/Controller.sol:Controller",
        "label": "lastTouchedTimestamp",
        "offset": 0,
        "slot": "1",
        "type": "t_uint256"
      },
      {
        "astId": 6144,
        "contract": "src/Controller.sol:Controller",
        "label": "ranges",
        "offset": 0,
        "slot": "2",
        "type": "t_mapping(t_bytes32,t_struct(PerpStatus)9315_storage)"
      },
      {
        "astId": 6148,
        "contract": "src/Controller.sol:Controller",
        "label": "vaults",
        "offset": 0,
        "slot": "3",
        "type": "t_mapping(t_uint256,t_struct(Vault)9348_storage)"
      },
      {
        "astId": 6152,
        "contract": "src/Controller.sol:Controller",
        "label": "subVaults",
        "offset": 0,
        "slot": "4",
        "type": "t_mapping(t_uint256,t_struct(SubVault)9338_storage)"
      },
      {
        "astId": 6154,
        "contract": "src/Controller.sol:Controller",
        "label": "context",
        "offset": 0,
        "slot": "5",
        "type": "t_struct(Context)9373_storage"
      },
      {
        "astId": 6156,
        "contract": "src/Controller.sol:Controller",
        "label": "irmParams",
        "offset": 0,
        "slot": "29",
        "type": "t_struct(IRMParams)9640_storage"
      },
      {
        "astId": 6158,
        "contract": "src/Controller.sol:Controller",
        "label": "ypParams",
        "offset": 0,
        "slot": "33",
        "type": "t_struct(YearlyPremiumParams)9631_storage"
      },
      {
        "astId": 6160,
        "contract": "src/Controller.sol:Controller",
        "label": "operator",
        "offset": 0,
        "slot": "42",
        "type": "t_address"
      },
      {
        "astId": 6162,
        "contract": "src/Controller.sol:Controller",
        "label": "vaultNFT",
        "offset": 0,
        "slot": "43",
        "type": "t_address"
      },
      {
        "astId": 6164,
        "contract": "src/Controller.sol:Controller",
        "label": "isSystemPaused",
        "offset": 20,
        "slot": "43",
        "type": "t_bool"
      }
    ],
    "types": {
      "t_address": {
        "encoding": "inplace",
        "label": "address",
        "numberOfBytes": "20"
      },
      "t_array(t_struct(LPTState)9328_storage)dyn_storage": {
        "base": "t_struct(LPTState)9328_storage",
        "encoding": "dynamic_array",
        "label": "struct DataType.LPTState[]",
        "numberOfBytes": "32"
      },
      "t_array(t_uint256)dyn_storage": {
        "base": "t_uint256",
        "encoding": "dynamic_array",
        "label": "uint256[]",
        "numberOfBytes": "32"
      },
      "t_bool": {
        "encoding": "inplace",
        "label": "bool",
        "numberOfBytes": "1"
      },
      "t_bytes32": {
        "encoding": "inplace",
        "label": "bytes32",
        "numberOfBytes": "32"
      },
      "t_enum(InterestType)8280": {
        "encoding": "inplace",
        "label": "enum BaseToken.InterestType",
        "numberOfBytes": "1"
      },
      "t_int24": {
        "encoding": "inplace",
        "label": "int24",
        "numberOfBytes": "3"
      },
      "t_int256": {
        "encoding": "inplace",
        "label": "int256",
        "numberOfBytes": "32"
      },
      "t_mapping(t_bytes32,t_struct(PerpStatus)9315_storage)": {
        "encoding": "mapping",
        "key": "t_bytes32",
        "label": "mapping(bytes32 => struct DataType.PerpStatus)",
        "numberOfBytes": "32",
        "value": "t_struct(PerpStatus)9315_storage"
      },
      "t_mapping(t_bytes32,t_struct(TickSnapshot)9617_storage)": {
        "encoding": "mapping",
        "key": "t_bytes32",
        "label": "mapping(bytes32 => struct InterestCalculator.TickSnapshot)",
        "numberOfBytes": "32",
        "value": "t_struct(TickSnapshot)9617_storage"
      },
      "t_mapping(t_uint256,t_struct(SubVault)9338_storage)": {
        "encoding": "mapping",
        "key": "t_uint256",
        "label": "mapping(uint256 => struct DataType.SubVault)",
        "numberOfBytes": "32",
        "value": "t_struct(SubVault)9338_storage"
      },
      "t_mapping(t_uint256,t_struct(Vault)9348_storage)": {
        "encoding": "mapping",
        "key": "t_uint256",
        "label": "mapping(uint256 => struct DataType.Vault)",
        "numberOfBytes": "32",
        "value": "t_struct(Vault)9348_storage"
      },
      "t_struct(AccountState)8308_storage": {
        "encoding": "inplace",
        "label": "struct BaseToken.AccountState",
        "members": [
          {
            "astId": 8299,
            "contract": "src/Controller.sol:Controller",
            "label": "interestType",
            "offset": 0,
            "slot": "0",
            "type": "t_enum(InterestType)8280"
          },
          {
            "astId": 8301,
            "contract": "src/Controller.sol:Controller",
            "label": "assetAmount",
            "offset": 0,
            "slot": "1",
            "type": "t_uint256"
          },
          {
            "astId": 8303,
            "contract": "src/Controller.sol:Controller",
            "label": "debtAmount",
            "offset": 0,
            "slot": "2",
            "type": "t_uint256"
          },
          {
            "astId": 8305,
            "contract": "src/Controller.sol:Controller",
            "label": "lastAssetGrowth",
            "offset": 0,
            "slot": "3",
            "type": "t_uint256"
          },
          {
            "astId": 8307,
            "contract": "src/Controller.sol:Controller",
            "label": "lastDebtGrowth",
            "offset": 0,
            "slot": "4",
            "type": "t_uint256"
          }
        ],
        "numberOfBytes": "160"
      },
      "t_struct(Context)9373_storage": {
        "encoding": "inplace",
        "label": "struct DataType.Context",
        "members": [
          {
            "astId": 9350,
            "contract": "src/Controller.sol:Controller",
            "label": "token0",
            "offset": 0,
            "slot": "0",
            "type": "t_address"
          },
          {
            "astId": 9352,
            "contract": "src/Controller.sol:Controller",
            "label": "token1",
            "offset": 0,
            "slot": "1",
            "type": "t_address"
          },
          {
            "astId": 9354,
            "contract": "src/Controller.sol:Controller",
            "label": "feeTier",
            "offset": 20,
            "slot": "1",
            "type": "t_uint24"
          },
          {
            "astId": 9356,
            "contract": "src/Controller.sol:Controller",
            "label": "swapRouter",
            "offset": 0,
            "slot": "2",
            "type": "t_address"
          },
          {
            "astId": 9358,
            "contract": "src/Controller.sol:Controller",
            "label": "uniswapPool",
            "offset": 0,
            "slot": "3",
            "type": "t_address"
          },
          {
            "astId": 9360,
            "contract": "src/Controller.sol:Controller",
            "label": "chainlinkPriceFeed",
            "offset": 0,
            "slot": "4",
            "type": "t_address"
          },
          {
            "astId": 9362,
            "contract": "src/Controller.sol:Controller",
            "label": "isMarginZero",
            "offset": 20,
            "slot": "4",
            "type": "t_bool"
          },
          {
            "astId": 9364,
            "contract": "src/Controller.sol:Controller",
            "label": "nextSubVaultId",
            "offset": 0,
            "slot": "5",
            "type": "t_uint256"
          },
          {
            "astId": 9366,
            "contract": "src/Controller.sol:Controller",
            "label": "tokenState0",
            "offset": 0,
            "slot": "6",
            "type": "t_struct(TokenState)8297_storage"
          },
          {
            "astId": 9368,
            "contract": "src/Controller.sol:Controller",
            "label": "tokenState1",
            "offset": 0,
            "slot": "14",
            "type": "t_struct(TokenState)8297_storage"
          },
          {
            "astId": 9370,
            "contract": "src/Controller.sol:Controller",
            "label": "accumulatedProtocolFee0",
            "offset": 0,
            "slot": "22",
            "type": "t_uint256"
          },
          {
            "astId": 9372,
            "contract": "src/Controller.sol:Controller",
            "label": "accumulatedProtocolFee1",
            "offset": 0,
            "slot": "23",
            "type": "t_uint256"
          }
        ],
        "numberOfBytes": "768"
      },
      "t_struct(IRMParams)9640_storage": {
        "encoding": "inplace",
        "label": "struct InterestCalculator.IRMParams",
        "members": [
          {
            "astId": 9633,
            "contract": "src/Controller.sol:Controller",
            "label": "baseRate",
            "offset": 0,
            "slot": "0",
            "type": "t_uint256"
          },
          {
            "astId": 9635,
            "contract": "src/Controller.sol:Controller",
            "label": "kinkRate",
            "offset": 0,
            "slot": "1",
            "type": "t_uint256"
          },
          {
            "astId": 9637,
            "contract": "src/Controller.sol:Controller",
            "label": "slope1",
            "offset": 0,
            "slot": "2",
            "type": "t_uint256"
          },
          {
            "astId": 9639,
            "contract": "src/Controller.sol:Controller",
            "label": "slope2",
            "offset": 0,
            "slot": "3",
            "type": "t_uint256"
          }
        ],
        "numberOfBytes": "128"
      },
      "t_struct(LPTState)9328_storage": {
        "encoding": "inplace",
        "label": "struct DataType.LPTState",
        "members": [
          {
            "astId": 9317,
            "contract": "src/Controller.sol:Controller",
            "label": "isCollateral",
            "offset": 0,
            "slot": "0",
            "type": "t_bool"
          },
          {
            "astId": 9319,
            "contract": "src/Controller.sol:Controller",
            "label": "rangeId",
            "offset": 0,
            "slot": "1",
            "type": "t_bytes32"
          },
          {
            "astId": 9321,
            "contract": "src/Controller.sol:Controller",
            "label": "liquidityAmount",
            "offset": 0,
            "slot": "2",
            "type": "t_uint128"
          },
          {
            "astId": 9323,
            "contract": "src/Controller.sol:Controller",
            "label": "premiumGrowthLast",
            "offset": 0,
            "slot": "3",
            "type": "t_uint256"
          },
          {
            "astId": 9325,
            "contract": "src/Controller.sol:Controller",
            "label": "fee0Last",
            "offset": 0,
            "slot": "4",
            "type": "t_uint256"
          },
          {
            "astId": 9327,
            "contract": "src/Controller.sol:Controller",
            "label": "fee1Last",
            "offset": 0,
            "slot": "5",
            "type": "t_uint256"
          }
        ],
        "numberOfBytes": "192"
      },
      "t_struct(PerpStatus)9315_storage": {
        "encoding": "inplace",
        "label": "struct DataType.PerpStatus",
        "members": [
          {
            "astId": 9300,
            "contract": "src/Controller.sol:Controller",
            "label": "lowerTick",
            "offset": 0,
            "slot": "0",
            "type": "t_int24"
          },
          {
            "astId": 9302,
            "contract": "src/Controller.sol:Controller",
            "label": "upperTick",
            "offset": 3,
            "slot": "0",
            "type": "t_int24"
          },
          {
            "astId": 9304,
            "contract": "src/Controller.sol:Controller",
            "label": "borrowedLiquidity",
            "offset": 6,
            "slot": "0",
            "type": "t_uint128"
          },
          {
            "astId": 9306,
            "contract": "src/Controller.sol:Controller",
            "label": "premiumGrowthForBorrower",
            "offset": 0,
            "slot": "1",
            "type": "t_uint256"
          },
          {
            "astId": 9308,
            "contract": "src/Controller.sol:Controller",
            "label": "premiumGrowthForLender",
            "offset": 0,
            "slot": "2",
            "type": "t_uint256"
          },
          {
            "astId": 9310,
            "contract": "src/Controller.sol:Controller",
            "label": "fee0Growth",
            "offset": 0,
            "slot": "3",
            "type": "t_uint256"
          },
          {
            "astId": 9312,
            "contract": "src/Controller.sol:Controller",
            "label": "fee1Growth",
            "offset": 0,
            "slot": "4",
            "type": "t_uint256"
          },
          {
            "astId": 9314,
            "contract": "src/Controller.sol:Controller",
            "label": "lastTouchedTimestamp",
            "offset": 0,
            "slot": "5",
            "type": "t_uint256"
          }
        ],
        "numberOfBytes": "192"
      },
      "t_struct(SubVault)9338_storage": {
        "encoding": "inplace",
        "label": "struct DataType.SubVault",
        "members": [
          {
            "astId": 9330,
            "contract": "src/Controller.sol:Controller",
            "label": "id",
            "offset": 0,
            "slot": "0",
            "type": "t_uint256"
          },
          {
            "astId": 9332,
            "contract": "src/Controller.sol:Controller",
            "label": "balance0",
            "offset": 0,
            "slot": "1",
            "type": "t_struct(AccountState)8308_storage"
          },
          {
            "astId": 9334,
            "contract": "src/Controller.sol:Controller",
            "label": "balance1",
            "offset": 0,
            "slot": "6",
            "type": "t_struct(AccountState)8308_storage"
          },
          {
            "astId": 9337,
            "contract": "src/Controller.sol:Controller",
            "label": "lpts",
            "offset": 0,
            "slot": "11",
            "type": "t_array(t_struct(LPTState)9328_storage)dyn_storage"
          }
        ],
        "numberOfBytes": "384"
      },
      "t_struct(TickSnapshot)9617_storage": {
        "encoding": "inplace",
        "label": "struct InterestCalculator.TickSnapshot",
        "members": [
          {
            "astId": 9614,
            "contract": "src/Controller.sol:Controller",
            "label": "lastSecondsPerLiquidityInside",
            "offset": 0,
            "slot": "0",
            "type": "t_uint256"
          },
          {
            "astId": 9616,
            "contract": "src/Controller.sol:Controller",
            "label": "lastSecondsPerLiquidity",
            "offset": 0,
            "slot": "1",
            "type": "t_uint256"
          }
        ],
        "numberOfBytes": "64"
      },
      "t_struct(TokenState)8297_storage": {
        "encoding": "inplace",
        "label": "struct BaseToken.TokenState",
        "members": [
          {
            "astId": 8282,
            "contract": "src/Controller.sol:Controller",
            "label": "totalCompoundDeposited",
            "offset": 0,
            "slot": "0",
            "type": "t_uint256"
          },
          {
            "astId": 8284,
            "contract": "src/Controller.sol:Controller",
            "label": "totalCompoundBorrowed",
            "offset": 0,
            "slot": "1",
            "type": "t_uint256"
          },
          {
            "astId": 8286,
            "contract": "src/Controller.sol:Controller",
            "label": "totalNormalDeposited",
            "offset": 0,
            "slot": "2",
            "type": "t_uint256"
          },
          {
            "astId": 8288,
            "contract": "src/Controller.sol:Controller",
            "label": "totalNormalBorrowed",
            "offset": 0,
            "slot": "3",
            "type": "t_uint256"
          },
          {
            "astId": 8290,
            "contract": "src/Controller.sol:Controller",
            "label": "assetScaler",
            "offset": 0,
            "slot": "4",
            "type": "t_uint256"
          },
          {
            "astId": 8292,
            "contract": "src/Controller.sol:Controller",
            "label": "debtScaler",
            "offset": 0,
            "slot": "5",
            "type": "t_uint256"
          },
          {
            "astId": 8294,
            "contract": "src/Controller.sol:Controller",
            "label": "assetGrowth",
            "offset": 0,
            "slot": "6",
            "type": "t_uint256"
          },
          {
            "astId": 8296,
            "contract": "src/Controller.sol:Controller",
            "label": "debtGrowth",
            "offset": 0,
            "slot": "7",
            "type": "t_uint256"
          }
        ],
        "numberOfBytes": "256"
      },
      "t_struct(Vault)9348_storage": {
        "encoding": "inplace",
        "label": "struct DataType.Vault",
        "members": [
          {
            "astId": 9340,
            "contract": "src/Controller.sol:Controller",
            "label": "vaultId",
            "offset": 0,
            "slot": "0",
            "type": "t_uint256"
          },
          {
            "astId": 9342,
            "contract": "src/Controller.sol:Controller",
            "label": "marginAmount0",
            "offset": 0,
            "slot": "1",
            "type": "t_int256"
          },
          {
            "astId": 9344,
            "contract": "src/Controller.sol:Controller",
            "label": "marginAmount1",
            "offset": 0,
            "slot": "2",
            "type": "t_int256"
          },
          {
            "astId": 9347,
            "contract": "src/Controller.sol:Controller",
            "label": "subVaults",
            "offset": 0,
            "slot": "3",
            "type": "t_array(t_uint256)dyn_storage"
          }
        ],
        "numberOfBytes": "128"
      },
      "t_struct(YearlyPremiumParams)9631_storage": {
        "encoding": "inplace",
        "label": "struct InterestCalculator.YearlyPremiumParams",
        "members": [
          {
            "astId": 9624,
            "contract": "src/Controller.sol:Controller",
            "label": "premiumParams",
            "offset": 0,
            "slot": "0",
            "type": "t_struct(IRMParams)9640_storage"
          },
          {
            "astId": 9626,
            "contract": "src/Controller.sol:Controller",
            "label": "irmParams",
            "offset": 0,
            "slot": "4",
            "type": "t_struct(IRMParams)9640_storage"
          },
          {
            "astId": 9630,
            "contract": "src/Controller.sol:Controller",
            "label": "snapshots",
            "offset": 0,
            "slot": "8",
            "type": "t_mapping(t_bytes32,t_struct(TickSnapshot)9617_storage)"
          }
        ],
        "numberOfBytes": "288"
      },
      "t_uint128": {
        "encoding": "inplace",
        "label": "uint128",
        "numberOfBytes": "16"
      },
      "t_uint24": {
        "encoding": "inplace",
        "label": "uint24",
        "numberOfBytes": "3"
      },
      "t_uint256": {
        "encoding": "inplace",
        "label": "uint256",
        "numberOfBytes": "32"
      }
    }
  }
}