{
  "address": "0x0129b058aE130e4A0Dca86fFc3b8172f14A6c0f1",
  "abi": [
    {
      "inputs": [],
      "stateMutability": "nonpayable",
      "type": "constructor"
    },
    {
      "anonymous": false,
      "inputs": [
        {
          "indexed": false,
          "internalType": "uint256",
          "name": "vaultId",
          "type": "uint256"
        },
        {
          "indexed": false,
          "internalType": "int256",
          "name": "a0",
          "type": "int256"
        },
        {
          "indexed": false,
          "internalType": "int256",
          "name": "a1",
          "type": "int256"
        },
        {
          "indexed": false,
          "internalType": "uint160",
          "name": "sqrtPrice",
          "type": "uint160"
        },
        {
          "indexed": false,
          "internalType": "bytes",
          "name": "metadata",
          "type": "bytes"
        }
      ],
      "name": "PositionUpdated",
      "type": "event"
    },
    {
      "anonymous": false,
      "inputs": [
        {
          "indexed": false,
          "internalType": "uint256",
          "name": "vaultId",
          "type": "uint256"
        },
        {
          "indexed": false,
          "internalType": "address",
          "name": "owner",
          "type": "address"
        }
      ],
      "name": "VaultCreated",
      "type": "event"
    },
    {
      "inputs": [
        {
          "internalType": "bytes32",
          "name": "_rangeId",
          "type": "bytes32"
        }
      ],
      "name": "calculateYearlyPremium",
      "outputs": [
        {
          "internalType": "uint256",
          "name": "",
          "type": "uint256"
        }
      ],
      "stateMutability": "view",
      "type": "function"
    },
    {
      "inputs": [
        {
          "internalType": "uint256",
          "name": "_vaultId",
          "type": "uint256"
        }
      ],
      "name": "checkLiquidatable",
      "outputs": [
        {
          "internalType": "bool",
          "name": "",
          "type": "bool"
        }
      ],
      "stateMutability": "nonpayable",
      "type": "function"
    },
    {
      "inputs": [
        {
          "internalType": "uint256",
          "name": "_vaultId",
          "type": "uint256"
        },
        {
          "components": [
            {
              "internalType": "uint256",
              "name": "subVaultIndex",
              "type": "uint256"
            },
            {
              "internalType": "uint256",
              "name": "asset0",
              "type": "uint256"
            },
            {
              "internalType": "uint256",
              "name": "asset1",
              "type": "uint256"
            },
            {
              "internalType": "uint256",
              "name": "debt0",
              "type": "uint256"
            },
            {
              "internalType": "uint256",
              "name": "debt1",
              "type": "uint256"
            },
            {
              "components": [
                {
                  "internalType": "bool",
                  "name": "isCollateral",
                  "type": "bool"
                },
                {
                  "internalType": "uint128",
                  "name": "liquidity",
                  "type": "uint128"
                },
                {
                  "internalType": "int24",
                  "name": "lowerTick",
                  "type": "int24"
                },
                {
                  "internalType": "int24",
                  "name": "upperTick",
                  "type": "int24"
                }
              ],
              "internalType": "struct DataType.LPT[]",
              "name": "lpts",
              "type": "tuple[]"
            }
          ],
          "internalType": "struct DataType.Position[]",
          "name": "_positions",
          "type": "tuple[]"
        },
        {
          "components": [
            {
              "internalType": "bool",
              "name": "reduceOnly",
              "type": "bool"
            },
            {
              "internalType": "bool",
              "name": "swapAnyway",
              "type": "bool"
            },
            {
              "internalType": "bool",
              "name": "quoterMode",
              "type": "bool"
            },
            {
              "internalType": "bool",
              "name": "isQuoteZero",
              "type": "bool"
            },
            {
              "internalType": "int256",
              "name": "targetMarginAmount0",
              "type": "int256"
            },
            {
              "internalType": "int256",
              "name": "targetMarginAmount1",
              "type": "int256"
            },
            {
              "internalType": "bytes",
              "name": "metadata",
              "type": "bytes"
            }
          ],
          "internalType": "struct DataType.TradeOption",
          "name": "_tradeOption",
          "type": "tuple"
        },
        {
          "components": [
            {
              "internalType": "uint256",
              "name": "lowerSqrtPrice",
              "type": "uint256"
            },
            {
              "internalType": "uint256",
              "name": "upperSqrtPrice",
              "type": "uint256"
            },
            {
              "internalType": "uint256",
              "name": "swapRatio",
              "type": "uint256"
            }
          ],
          "internalType": "struct DataType.ClosePositionOption",
          "name": "_closePositionOptions",
          "type": "tuple"
        }
      ],
      "name": "closePosition",
      "outputs": [
        {
          "internalType": "int256",
          "name": "requiredAmount0",
          "type": "int256"
        },
        {
          "internalType": "int256",
          "name": "requiredAmount1",
          "type": "int256"
        }
      ],
      "stateMutability": "nonpayable",
      "type": "function"
    },
    {
      "inputs": [
        {
          "internalType": "uint256",
          "name": "_vaultId",
          "type": "uint256"
        },
        {
          "internalType": "uint256",
          "name": "_subVaultIndex",
          "type": "uint256"
        },
        {
          "components": [
            {
              "internalType": "bool",
              "name": "reduceOnly",
              "type": "bool"
            },
            {
              "internalType": "bool",
              "name": "swapAnyway",
              "type": "bool"
            },
            {
              "internalType": "bool",
              "name": "quoterMode",
              "type": "bool"
            },
            {
              "internalType": "bool",
              "name": "isQuoteZero",
              "type": "bool"
            },
            {
              "internalType": "int256",
              "name": "targetMarginAmount0",
              "type": "int256"
            },
            {
              "internalType": "int256",
              "name": "targetMarginAmount1",
              "type": "int256"
            },
            {
              "internalType": "bytes",
              "name": "metadata",
              "type": "bytes"
            }
          ],
          "internalType": "struct DataType.TradeOption",
          "name": "_tradeOption",
          "type": "tuple"
        },
        {
          "components": [
            {
              "internalType": "uint256",
              "name": "lowerSqrtPrice",
              "type": "uint256"
            },
            {
              "internalType": "uint256",
              "name": "upperSqrtPrice",
              "type": "uint256"
            },
            {
              "internalType": "uint256",
              "name": "swapRatio",
              "type": "uint256"
            }
          ],
          "internalType": "struct DataType.ClosePositionOption",
          "name": "_closePositionOptions",
          "type": "tuple"
        }
      ],
      "name": "closeSubVault",
      "outputs": [
        {
          "internalType": "int256",
          "name": "",
          "type": "int256"
        },
        {
          "internalType": "int256",
          "name": "",
          "type": "int256"
        }
      ],
      "stateMutability": "nonpayable",
      "type": "function"
    },
    {
      "inputs": [
        {
          "internalType": "uint256",
          "name": "_vaultId",
          "type": "uint256"
        },
        {
          "components": [
            {
              "internalType": "bool",
              "name": "reduceOnly",
              "type": "bool"
            },
            {
              "internalType": "bool",
              "name": "swapAnyway",
              "type": "bool"
            },
            {
              "internalType": "bool",
              "name": "quoterMode",
              "type": "bool"
            },
            {
              "internalType": "bool",
              "name": "isQuoteZero",
              "type": "bool"
            },
            {
              "internalType": "int256",
              "name": "targetMarginAmount0",
              "type": "int256"
            },
            {
              "internalType": "int256",
              "name": "targetMarginAmount1",
              "type": "int256"
            },
            {
              "internalType": "bytes",
              "name": "metadata",
              "type": "bytes"
            }
          ],
          "internalType": "struct DataType.TradeOption",
          "name": "_tradeOption",
          "type": "tuple"
        },
        {
          "components": [
            {
              "internalType": "uint256",
              "name": "lowerSqrtPrice",
              "type": "uint256"
            },
            {
              "internalType": "uint256",
              "name": "upperSqrtPrice",
              "type": "uint256"
            },
            {
              "internalType": "uint256",
              "name": "swapRatio",
              "type": "uint256"
            }
          ],
          "internalType": "struct DataType.ClosePositionOption",
          "name": "_closePositionOptions",
          "type": "tuple"
        }
      ],
      "name": "closeVault",
      "outputs": [
        {
          "internalType": "int256",
          "name": "",
          "type": "int256"
        },
        {
          "internalType": "int256",
          "name": "",
          "type": "int256"
        }
      ],
      "stateMutability": "nonpayable",
      "type": "function"
    },
    {
      "inputs": [
        {
          "internalType": "bytes[]",
          "name": "_data",
          "type": "bytes[]"
        }
      ],
      "name": "forceClose",
      "outputs": [],
      "stateMutability": "nonpayable",
      "type": "function"
    },
    {
      "inputs": [],
      "name": "getContext",
      "outputs": [
        {
          "internalType": "bool",
          "name": "",
          "type": "bool"
        },
        {
          "internalType": "uint256",
          "name": "",
          "type": "uint256"
        },
        {
          "internalType": "address",
          "name": "",
          "type": "address"
        },
        {
          "internalType": "address",
          "name": "",
          "type": "address"
        },
        {
          "internalType": "uint256",
          "name": "",
          "type": "uint256"
        },
        {
          "internalType": "uint256",
          "name": "",
          "type": "uint256"
        }
      ],
      "stateMutability": "view",
      "type": "function"
    },
    {
      "inputs": [
        {
          "internalType": "uint256",
          "name": "_vaultId",
          "type": "uint256"
        }
      ],
      "name": "getPosition",
      "outputs": [
        {
          "components": [
            {
              "internalType": "uint256",
              "name": "subVaultIndex",
              "type": "uint256"
            },
            {
              "internalType": "uint256",
              "name": "asset0",
              "type": "uint256"
            },
            {
              "internalType": "uint256",
              "name": "asset1",
              "type": "uint256"
            },
            {
              "internalType": "uint256",
              "name": "debt0",
              "type": "uint256"
            },
            {
              "internalType": "uint256",
              "name": "debt1",
              "type": "uint256"
            },
            {
              "components": [
                {
                  "internalType": "bool",
                  "name": "isCollateral",
                  "type": "bool"
                },
                {
                  "internalType": "uint128",
                  "name": "liquidity",
                  "type": "uint128"
                },
                {
                  "internalType": "int24",
                  "name": "lowerTick",
                  "type": "int24"
                },
                {
                  "internalType": "int24",
                  "name": "upperTick",
                  "type": "int24"
                }
              ],
              "internalType": "struct DataType.LPT[]",
              "name": "lpts",
              "type": "tuple[]"
            }
          ],
          "internalType": "struct DataType.Position[]",
          "name": "",
          "type": "tuple[]"
        }
      ],
      "stateMutability": "view",
      "type": "function"
    },
    {
      "inputs": [
        {
          "internalType": "uint256",
          "name": "_vaultId",
          "type": "uint256"
        }
      ],
      "name": "getPositionCalculatorParams",
      "outputs": [
        {
          "components": [
            {
              "internalType": "int256",
              "name": "marginAmount0",
              "type": "int256"
            },
            {
              "internalType": "int256",
              "name": "marginAmount1",
              "type": "int256"
            },
            {
              "internalType": "uint256",
              "name": "asset0",
              "type": "uint256"
            },
            {
              "internalType": "uint256",
              "name": "asset1",
              "type": "uint256"
            },
            {
              "internalType": "uint256",
              "name": "debt0",
              "type": "uint256"
            },
            {
              "internalType": "uint256",
              "name": "debt1",
              "type": "uint256"
            },
            {
              "components": [
                {
                  "internalType": "bool",
                  "name": "isCollateral",
                  "type": "bool"
                },
                {
                  "internalType": "uint128",
                  "name": "liquidity",
                  "type": "uint128"
                },
                {
                  "internalType": "int24",
                  "name": "lowerTick",
                  "type": "int24"
                },
                {
                  "internalType": "int24",
                  "name": "upperTick",
                  "type": "int24"
                }
              ],
              "internalType": "struct DataType.LPT[]",
              "name": "lpts",
              "type": "tuple[]"
            }
          ],
          "internalType": "struct PositionCalculator.PositionCalculatorParams",
          "name": "",
          "type": "tuple"
        }
      ],
      "stateMutability": "view",
      "type": "function"
    },
    {
      "inputs": [
        {
          "internalType": "bytes32",
          "name": "_rangeId",
          "type": "bytes32"
        }
      ],
      "name": "getRange",
      "outputs": [
        {
          "components": [
            {
              "internalType": "uint256",
              "name": "tokenId",
              "type": "uint256"
            },
            {
              "internalType": "int24",
              "name": "lowerTick",
              "type": "int24"
            },
            {
              "internalType": "int24",
              "name": "upperTick",
              "type": "int24"
            },
            {
              "internalType": "uint128",
              "name": "borrowedLiquidity",
              "type": "uint128"
            },
            {
              "internalType": "uint256",
              "name": "premiumGrowthForBorrower",
              "type": "uint256"
            },
            {
              "internalType": "uint256",
              "name": "premiumGrowthForLender",
              "type": "uint256"
            },
            {
              "internalType": "uint256",
              "name": "fee0Growth",
              "type": "uint256"
            },
            {
              "internalType": "uint256",
              "name": "fee1Growth",
              "type": "uint256"
            },
            {
              "internalType": "uint256",
              "name": "lastTouchedTimestamp",
              "type": "uint256"
            }
          ],
          "internalType": "struct DataType.PerpStatus",
          "name": "",
          "type": "tuple"
        }
      ],
      "stateMutability": "view",
      "type": "function"
    },
    {
      "inputs": [],
      "name": "getSqrtPrice",
      "outputs": [
        {
          "internalType": "uint160",
          "name": "sqrtPriceX96",
          "type": "uint160"
        }
      ],
      "stateMutability": "view",
      "type": "function"
    },
    {
      "inputs": [
        {
          "internalType": "uint256",
          "name": "_subVaultId",
          "type": "uint256"
        }
      ],
      "name": "getSubVault",
      "outputs": [
        {
          "components": [
            {
              "internalType": "uint256",
              "name": "id",
              "type": "uint256"
            },
            {
              "components": [
                {
                  "internalType": "enum BaseToken.InterestType",
                  "name": "interestType",
                  "type": "uint8"
                },
                {
                  "internalType": "uint256",
                  "name": "assetAmount",
                  "type": "uint256"
                },
                {
                  "internalType": "uint256",
                  "name": "debtAmount",
                  "type": "uint256"
                },
                {
                  "internalType": "uint256",
                  "name": "lastAssetGrowth",
                  "type": "uint256"
                },
                {
                  "internalType": "uint256",
                  "name": "lastDebtGrowth",
                  "type": "uint256"
                }
              ],
              "internalType": "struct BaseToken.AccountState",
              "name": "balance0",
              "type": "tuple"
            },
            {
              "components": [
                {
                  "internalType": "enum BaseToken.InterestType",
                  "name": "interestType",
                  "type": "uint8"
                },
                {
                  "internalType": "uint256",
                  "name": "assetAmount",
                  "type": "uint256"
                },
                {
                  "internalType": "uint256",
                  "name": "debtAmount",
                  "type": "uint256"
                },
                {
                  "internalType": "uint256",
                  "name": "lastAssetGrowth",
                  "type": "uint256"
                },
                {
                  "internalType": "uint256",
                  "name": "lastDebtGrowth",
                  "type": "uint256"
                }
              ],
              "internalType": "struct BaseToken.AccountState",
              "name": "balance1",
              "type": "tuple"
            },
            {
              "components": [
                {
                  "internalType": "bool",
                  "name": "isCollateral",
                  "type": "bool"
                },
                {
                  "internalType": "bytes32",
                  "name": "rangeId",
                  "type": "bytes32"
                },
                {
                  "internalType": "uint128",
                  "name": "liquidityAmount",
                  "type": "uint128"
                },
                {
                  "internalType": "uint256",
                  "name": "premiumGrowthLast",
                  "type": "uint256"
                },
                {
                  "internalType": "uint256",
                  "name": "fee0Last",
                  "type": "uint256"
                },
                {
                  "internalType": "uint256",
                  "name": "fee1Last",
                  "type": "uint256"
                }
              ],
              "internalType": "struct DataType.LPTState[]",
              "name": "lpts",
              "type": "tuple[]"
            }
          ],
          "internalType": "struct DataType.SubVault",
          "name": "",
          "type": "tuple"
        }
      ],
      "stateMutability": "view",
      "type": "function"
    },
    {
      "inputs": [],
      "name": "getTokenState",
      "outputs": [
        {
          "components": [
            {
              "internalType": "uint256",
              "name": "totalCompoundDeposited",
              "type": "uint256"
            },
            {
              "internalType": "uint256",
              "name": "totalCompoundBorrowed",
              "type": "uint256"
            },
            {
              "internalType": "uint256",
              "name": "totalNormalDeposited",
              "type": "uint256"
            },
            {
              "internalType": "uint256",
              "name": "totalNormalBorrowed",
              "type": "uint256"
            },
            {
              "internalType": "uint256",
              "name": "assetScaler",
              "type": "uint256"
            },
            {
              "internalType": "uint256",
              "name": "debtScaler",
              "type": "uint256"
            },
            {
              "internalType": "uint256",
              "name": "assetGrowth",
              "type": "uint256"
            },
            {
              "internalType": "uint256",
              "name": "debtGrowth",
              "type": "uint256"
            }
          ],
          "internalType": "struct BaseToken.TokenState",
          "name": "",
          "type": "tuple"
        },
        {
          "components": [
            {
              "internalType": "uint256",
              "name": "totalCompoundDeposited",
              "type": "uint256"
            },
            {
              "internalType": "uint256",
              "name": "totalCompoundBorrowed",
              "type": "uint256"
            },
            {
              "internalType": "uint256",
              "name": "totalNormalDeposited",
              "type": "uint256"
            },
            {
              "internalType": "uint256",
              "name": "totalNormalBorrowed",
              "type": "uint256"
            },
            {
              "internalType": "uint256",
              "name": "assetScaler",
              "type": "uint256"
            },
            {
              "internalType": "uint256",
              "name": "debtScaler",
              "type": "uint256"
            },
            {
              "internalType": "uint256",
              "name": "assetGrowth",
              "type": "uint256"
            },
            {
              "internalType": "uint256",
              "name": "debtGrowth",
              "type": "uint256"
            }
          ],
          "internalType": "struct BaseToken.TokenState",
          "name": "",
          "type": "tuple"
        }
      ],
      "stateMutability": "view",
      "type": "function"
    },
    {
      "inputs": [
        {
          "internalType": "uint256",
          "name": "_vaultId",
          "type": "uint256"
        }
      ],
      "name": "getVault",
      "outputs": [
        {
          "components": [
            {
              "internalType": "uint256",
              "name": "vaultId",
              "type": "uint256"
            },
            {
              "internalType": "uint256",
              "name": "marginAmount0",
              "type": "uint256"
            },
            {
              "internalType": "uint256",
              "name": "marginAmount1",
              "type": "uint256"
            },
            {
              "internalType": "uint256[]",
              "name": "subVaults",
              "type": "uint256[]"
            }
          ],
          "internalType": "struct DataType.Vault",
          "name": "",
          "type": "tuple"
        }
      ],
      "stateMutability": "view",
      "type": "function"
    },
    {
      "inputs": [
        {
          "internalType": "uint256",
          "name": "_vaultId",
          "type": "uint256"
        }
      ],
      "name": "getVaultStatus",
      "outputs": [
        {
          "components": [
            {
              "internalType": "int256",
              "name": "positionValue",
              "type": "int256"
            },
            {
              "internalType": "int256",
              "name": "marginValue",
              "type": "int256"
            },
            {
              "internalType": "int256",
              "name": "minCollateral",
              "type": "int256"
            },
            {
              "components": [
                {
                  "components": [
                    {
                      "internalType": "uint256",
                      "name": "assetValue",
                      "type": "uint256"
                    },
                    {
                      "internalType": "uint256",
                      "name": "debtValue",
                      "type": "uint256"
                    },
                    {
                      "internalType": "int256",
                      "name": "premiumValue",
                      "type": "int256"
                    }
                  ],
                  "internalType": "struct DataType.SubVaultValue",
                  "name": "values",
                  "type": "tuple"
                },
                {
                  "components": [
                    {
                      "internalType": "uint256",
                      "name": "assetAmount0",
                      "type": "uint256"
                    },
                    {
                      "internalType": "uint256",
                      "name": "assetAmount1",
                      "type": "uint256"
                    },
                    {
                      "internalType": "uint256",
                      "name": "debtAmount0",
                      "type": "uint256"
                    },
                    {
                      "internalType": "uint256",
                      "name": "debtAmount1",
                      "type": "uint256"
                    }
                  ],
                  "internalType": "struct DataType.SubVaultAmount",
                  "name": "amount",
                  "type": "tuple"
                },
                {
                  "components": [
                    {
                      "internalType": "int256",
                      "name": "assetFee0",
                      "type": "int256"
                    },
                    {
                      "internalType": "int256",
                      "name": "assetFee1",
                      "type": "int256"
                    },
                    {
                      "internalType": "int256",
                      "name": "debtFee0",
                      "type": "int256"
                    },
                    {
                      "internalType": "int256",
                      "name": "debtFee1",
                      "type": "int256"
                    }
                  ],
                  "internalType": "struct DataType.SubVaultInterest",
                  "name": "interest",
                  "type": "tuple"
                },
                {
                  "components": [
                    {
                      "internalType": "uint256",
                      "name": "receivedTradeAmount0",
                      "type": "uint256"
                    },
                    {
                      "internalType": "uint256",
                      "name": "receivedTradeAmount1",
                      "type": "uint256"
                    },
                    {
                      "internalType": "uint256",
                      "name": "receivedPremium",
                      "type": "uint256"
                    },
                    {
                      "internalType": "uint256",
                      "name": "paidPremium",
                      "type": "uint256"
                    }
                  ],
                  "internalType": "struct DataType.SubVaultPremium",
                  "name": "premium",
                  "type": "tuple"
                }
              ],
              "internalType": "struct DataType.SubVaultStatus[]",
              "name": "subVaults",
              "type": "tuple[]"
            }
          ],
          "internalType": "struct DataType.VaultStatus",
          "name": "",
          "type": "tuple"
        }
      ],
      "stateMutability": "nonpayable",
      "type": "function"
    },
    {
      "inputs": [
        {
          "components": [
            {
              "internalType": "uint24",
              "name": "feeTier",
              "type": "uint24"
            },
            {
              "internalType": "address",
              "name": "token0",
              "type": "address"
            },
            {
              "internalType": "address",
              "name": "token1",
              "type": "address"
            },
            {
              "internalType": "bool",
              "name": "isMarginZero",
              "type": "bool"
            }
          ],
          "internalType": "struct DataType.InitializationParams",
          "name": "_initializationParams",
          "type": "tuple"
        },
        {
          "internalType": "address",
          "name": "_positionManager",
          "type": "address"
        },
        {
          "internalType": "address",
          "name": "_factory",
          "type": "address"
        },
        {
          "internalType": "address",
          "name": "_swapRouter",
          "type": "address"
        },
        {
          "internalType": "address",
          "name": "_vaultNFT",
          "type": "address"
        }
      ],
      "name": "initialize",
      "outputs": [],
      "stateMutability": "nonpayable",
      "type": "function"
    },
    {
      "inputs": [],
      "name": "irmParams",
      "outputs": [
        {
          "internalType": "uint256",
          "name": "baseRate",
          "type": "uint256"
        },
        {
          "internalType": "uint256",
          "name": "kinkRate",
          "type": "uint256"
        },
        {
          "internalType": "uint256",
          "name": "slope1",
          "type": "uint256"
        },
        {
          "internalType": "uint256",
          "name": "slope2",
          "type": "uint256"
        }
      ],
      "stateMutability": "view",
      "type": "function"
    },
    {
      "inputs": [],
      "name": "lastTouchedTimestamp",
      "outputs": [
        {
          "internalType": "uint256",
          "name": "",
          "type": "uint256"
        }
      ],
      "stateMutability": "view",
      "type": "function"
    },
    {
      "inputs": [
        {
          "internalType": "uint256",
          "name": "_vaultId",
          "type": "uint256"
        },
        {
          "components": [
            {
              "internalType": "uint256",
              "name": "lowerSqrtPrice",
              "type": "uint256"
            },
            {
              "internalType": "uint256",
              "name": "upperSqrtPrice",
              "type": "uint256"
            },
            {
              "internalType": "uint256",
              "name": "swapRatio",
              "type": "uint256"
            },
            {
              "internalType": "bool",
              "name": "swapAnyway",
              "type": "bool"
            }
          ],
          "internalType": "struct DataType.LiquidationOption",
          "name": "_liquidationOption",
          "type": "tuple"
        }
      ],
      "name": "liquidate",
      "outputs": [],
      "stateMutability": "nonpayable",
      "type": "function"
    },
    {
      "inputs": [
        {
          "internalType": "uint256",
          "name": "_vaultId",
          "type": "uint256"
        },
        {
          "components": [
            {
              "internalType": "uint256",
              "name": "subVaultIndex",
              "type": "uint256"
            },
            {
              "internalType": "uint256",
              "name": "asset0",
              "type": "uint256"
            },
            {
              "internalType": "uint256",
              "name": "asset1",
              "type": "uint256"
            },
            {
              "internalType": "uint256",
              "name": "debt0",
              "type": "uint256"
            },
            {
              "internalType": "uint256",
              "name": "debt1",
              "type": "uint256"
            },
            {
              "components": [
                {
                  "internalType": "bool",
                  "name": "isCollateral",
                  "type": "bool"
                },
                {
                  "internalType": "uint128",
                  "name": "liquidity",
                  "type": "uint128"
                },
                {
                  "internalType": "int24",
                  "name": "lowerTick",
                  "type": "int24"
                },
                {
                  "internalType": "int24",
                  "name": "upperTick",
                  "type": "int24"
                }
              ],
              "internalType": "struct DataType.LPT[]",
              "name": "lpts",
              "type": "tuple[]"
            }
          ],
          "internalType": "struct DataType.Position",
          "name": "_position",
          "type": "tuple"
        },
        {
          "components": [
            {
              "internalType": "bool",
              "name": "reduceOnly",
              "type": "bool"
            },
            {
              "internalType": "bool",
              "name": "swapAnyway",
              "type": "bool"
            },
            {
              "internalType": "bool",
              "name": "quoterMode",
              "type": "bool"
            },
            {
              "internalType": "bool",
              "name": "isQuoteZero",
              "type": "bool"
            },
            {
              "internalType": "int256",
              "name": "targetMarginAmount0",
              "type": "int256"
            },
            {
              "internalType": "int256",
              "name": "targetMarginAmount1",
              "type": "int256"
            },
            {
              "internalType": "bytes",
              "name": "metadata",
              "type": "bytes"
            }
          ],
          "internalType": "struct DataType.TradeOption",
          "name": "_tradeOption",
          "type": "tuple"
        },
        {
          "components": [
            {
              "internalType": "uint256",
              "name": "lowerSqrtPrice",
              "type": "uint256"
            },
            {
              "internalType": "uint256",
              "name": "upperSqrtPrice",
              "type": "uint256"
            }
          ],
          "internalType": "struct DataType.OpenPositionOption",
          "name": "_openPositionOptions",
          "type": "tuple"
        }
      ],
      "name": "openPosition",
      "outputs": [
        {
          "internalType": "uint256",
          "name": "vaultId",
          "type": "uint256"
        },
        {
          "internalType": "int256",
          "name": "requiredAmount0",
          "type": "int256"
        },
        {
          "internalType": "int256",
          "name": "requiredAmount1",
          "type": "int256"
        }
      ],
      "stateMutability": "nonpayable",
      "type": "function"
    },
    {
      "inputs": [],
      "name": "operator",
      "outputs": [
        {
          "internalType": "address",
          "name": "",
          "type": "address"
        }
      ],
      "stateMutability": "view",
      "type": "function"
    },
    {
      "inputs": [
        {
          "internalType": "address",
          "name": "_newOperator",
          "type": "address"
        }
      ],
      "name": "setOperator",
      "outputs": [],
      "stateMutability": "nonpayable",
      "type": "function"
    },
    {
      "inputs": [
        {
          "components": [
            {
              "internalType": "uint256",
              "name": "baseRate",
              "type": "uint256"
            },
            {
              "internalType": "uint256",
              "name": "kinkRate",
              "type": "uint256"
            },
            {
              "internalType": "uint256",
              "name": "slope1",
              "type": "uint256"
            },
            {
              "internalType": "uint256",
              "name": "slope2",
              "type": "uint256"
            }
          ],
          "internalType": "struct InterestCalculator.IRMParams",
          "name": "_irmParams",
          "type": "tuple"
        }
      ],
      "name": "updateIRMParams",
      "outputs": [],
      "stateMutability": "nonpayable",
      "type": "function"
    },
    {
      "inputs": [
        {
          "internalType": "uint256",
          "name": "_vaultId",
          "type": "uint256"
        },
        {
          "components": [
            {
              "internalType": "enum DataType.PositionUpdateType",
              "name": "positionUpdateType",
              "type": "uint8"
            },
            {
              "internalType": "uint256",
              "name": "subVaultIndex",
              "type": "uint256"
            },
            {
              "internalType": "bool",
              "name": "zeroForOne",
              "type": "bool"
            },
            {
              "internalType": "uint128",
              "name": "liquidity",
              "type": "uint128"
            },
            {
              "internalType": "int24",
              "name": "lowerTick",
              "type": "int24"
            },
            {
              "internalType": "int24",
              "name": "upperTick",
              "type": "int24"
            },
            {
              "internalType": "uint256",
              "name": "param0",
              "type": "uint256"
            },
            {
              "internalType": "uint256",
              "name": "param1",
              "type": "uint256"
            }
          ],
          "internalType": "struct DataType.PositionUpdate[]",
          "name": "_positionUpdates",
          "type": "tuple[]"
        },
        {
          "components": [
            {
              "internalType": "bool",
              "name": "reduceOnly",
              "type": "bool"
            },
            {
              "internalType": "bool",
              "name": "swapAnyway",
              "type": "bool"
            },
            {
              "internalType": "bool",
              "name": "quoterMode",
              "type": "bool"
            },
            {
              "internalType": "bool",
              "name": "isQuoteZero",
              "type": "bool"
            },
            {
              "internalType": "int256",
              "name": "targetMarginAmount0",
              "type": "int256"
            },
            {
              "internalType": "int256",
              "name": "targetMarginAmount1",
              "type": "int256"
            },
            {
              "internalType": "bytes",
              "name": "metadata",
              "type": "bytes"
            }
          ],
          "internalType": "struct DataType.TradeOption",
          "name": "_tradeOption",
          "type": "tuple"
        }
      ],
      "name": "updatePosition",
      "outputs": [
        {
          "internalType": "uint256",
          "name": "vaultId",
          "type": "uint256"
        },
        {
          "internalType": "int256",
          "name": "requiredAmount0",
          "type": "int256"
        },
        {
          "internalType": "int256",
          "name": "requiredAmount1",
          "type": "int256"
        }
      ],
      "stateMutability": "nonpayable",
      "type": "function"
    },
    {
      "inputs": [
        {
          "components": [
            {
              "internalType": "uint256",
              "name": "baseRate",
              "type": "uint256"
            },
            {
              "internalType": "uint256",
              "name": "kinkRate",
              "type": "uint256"
            },
            {
              "internalType": "uint256",
              "name": "slope1",
              "type": "uint256"
            },
            {
              "internalType": "uint256",
              "name": "slope2",
              "type": "uint256"
            }
          ],
          "internalType": "struct InterestCalculator.IRMParams",
          "name": "_irmParams",
          "type": "tuple"
        },
        {
          "components": [
            {
              "internalType": "uint256",
              "name": "baseRate",
              "type": "uint256"
            },
            {
              "internalType": "uint256",
              "name": "kinkRate",
              "type": "uint256"
            },
            {
              "internalType": "uint256",
              "name": "slope1",
              "type": "uint256"
            },
            {
              "internalType": "uint256",
              "name": "slope2",
              "type": "uint256"
            }
          ],
          "internalType": "struct InterestCalculator.IRMParams",
          "name": "_premiumParams",
          "type": "tuple"
        }
      ],
      "name": "updateYearlyPremiumParams",
      "outputs": [],
      "stateMutability": "nonpayable",
      "type": "function"
    },
    {
      "inputs": [
        {
          "internalType": "uint256",
          "name": "_amount0",
          "type": "uint256"
        },
        {
          "internalType": "uint256",
          "name": "_amount1",
          "type": "uint256"
        }
      ],
      "name": "withdrawProtocolFee",
      "outputs": [],
      "stateMutability": "nonpayable",
      "type": "function"
    },
    {
      "inputs": [],
      "name": "ypParams",
      "outputs": [
        {
          "components": [
            {
              "internalType": "uint256",
              "name": "baseRate",
              "type": "uint256"
            },
            {
              "internalType": "uint256",
              "name": "kinkRate",
              "type": "uint256"
            },
            {
              "internalType": "uint256",
              "name": "slope1",
              "type": "uint256"
            },
            {
              "internalType": "uint256",
              "name": "slope2",
              "type": "uint256"
            }
          ],
          "internalType": "struct InterestCalculator.IRMParams",
          "name": "premiumParams",
          "type": "tuple"
        },
        {
          "components": [
            {
              "internalType": "uint256",
              "name": "baseRate",
              "type": "uint256"
            },
            {
              "internalType": "uint256",
              "name": "kinkRate",
              "type": "uint256"
            },
            {
              "internalType": "uint256",
              "name": "slope1",
              "type": "uint256"
            },
            {
              "internalType": "uint256",
              "name": "slope2",
              "type": "uint256"
            }
          ],
          "internalType": "struct InterestCalculator.IRMParams",
          "name": "irmParams",
          "type": "tuple"
        }
      ],
      "stateMutability": "view",
      "type": "function"
    }
  ],
  "transactionHash": "0xaf6a6237003541524da0c7fd09b8e1655672dfe240f2ac67c0b132affb4b31bb",
  "args": [],
  "solcInputHash": "0f618c20e8c7a703638e076a3c08d477",
  "bytecode": "0x608060405234801561001057600080fd5b50615eba80620000216000396000f3fe608060405234801561001057600080fd5b50600436106101a95760003560e01c8063570ca735116100f9578063b3ab15fb11610097578063eb02c30111610071578063eb02c301146103e1578063ebd2665f14610401578063f46a647714610417578063fea9a2c21461042a576101a9565b8063b3ab15fb146103a8578063c3df1acb146103bb578063dd8cb3f4146103ce576101a9565b806368715773116100d3578063687157731461034d5780636f85ba9c1461036057806386e6862d146103805780639403b63414610388576101a9565b8063570ca7351461031257806365b5f6e314610327578063671148591461033a576101a9565b80633743d142116101665780633e129715116101405780633e1297151461029857806349ebb77d146102b857806351be57d3146102d8578063542da3b0146102f0576101a9565b80633743d1421461025c5780633ac352be1461026f5780633c678e1414610282576101a9565b8063013216f5146101ae57806305943002146101d757806311bea7f4146101ec578063127f0f071461020d578063275892a21461022757806330050fbd1461023c575b600080fd5b6101c16101bc3660046146dc565b61043d565b6040516101ce91906157d6565b60405180910390f35b6101ea6101e5366004614d38565b6104d9565b005b6101ff6101fa366004614c6c565b6105b8565b6040516101ce929190615673565b61021561068c565b6040516101ce96959493929190615631565b61022f6106b9565b6040516101ce9190615cf5565b61024f61024a3660046146dc565b6106bf565b6040516101ce91906158d5565b6101ea61026a366004614ebd565b610859565b6101ff61027d366004614e68565b61090c565b61028a610937565b6040516101ce9291906157ba565b6102ab6102a63660046146dc565b610994565b6040516101ce9190615626565b6102cb6102c63660046146dc565b610a42565b6040516101ce91906159b3565b6102e0610b7f565b6040516101ce9493929190615d69565b6103036102fe366004614dbb565b610b8e565b6040516101ce93929190615d15565b61031a610c5e565b6040516101ce91906154eb565b6101ea610335366004614606565b610c6d565b6101ea610348366004614732565b610d86565b6101ea61035b366004614717565b610de9565b61037361036e3660046146dc565b610e33565b6040516101ce919061584a565b61031a610f56565b61039b6103963660046146dc565b610fdf565b6040516101ce9190615a7d565b6101ea6103b63660046145ce565b611073565b6101ff6103c9366004614ede565b6110d2565b6103036103dc366004614b11565b61114e565b6103f46103ef3660046146dc565b6113b1565b6040516101ce9190615518565b6104096113bc565b6040516101ce929190615996565b6101ea610425366004614767565b61147d565b61022f6104383660046146dc565b611850565b610445613cd1565b5060008181526002602081815260409283902083516101208101855281548152600182015480850b850b850b9382019390935263010000008304840b840b840b94810194909452600160301b9091046001600160801b03166060840152908101546080830152600381015460a0830152600481015460c0830152600581015460e0830152600601546101008201525b919050565b6104e16119a1565b600073fDdC71cAd19Eb21f637dFA3B7d80E9Aeb1Ac372F63b1a3252b610506856113b1565b6009546040860151600160a01b90910460ff1690610522610f56565b6040518563ffffffff1660e01b815260040161054194939291906155a6565b60006040518083038186803b15801561055957600080fd5b505af415801561056d573d6000803e3d6000fd5b505050506040513d6000823e601f3d908101601f19168201604052610595919081019061468e565b90506105a18382611a35565b6105b382600001518360200151611aba565b505050565b600080600073fDdC71cAd19Eb21f637dFA3B7d80E9Aeb1Ac372F63b1a3252b87876060015187604001516105ea610f56565b6040518563ffffffff1660e01b815260040161060994939291906155a6565b60006040518083038186803b15801561062157600080fd5b505af4158015610635573d6000803e3d6000fd5b505050506040513d6000823e601f3d908101601f1916820160405261065d919081019061468e565b905061066a87828761114e565b86516020880151929650909450610682925090611aba565b5094509492505050565b600954600a54600754601b54601c5460ff600160a01b860416946001600160a01b03908116931692939495565b60015481565b6106c7613d2c565b600082815260046020908152604091829020825160808101845281548152835160a081019094526001820180549194929385019291829060ff16600281111561070c57fe5b600281111561071757fe5b81526020016001820154815260200160028201548152602001600382015481526020016004820154815250508152602001600682016040518060a00160405290816000820160009054906101000a900460ff16600281111561077557fe5b600281111561078057fe5b81526020016001820154815260200160028201548152602001600382015481526020016004820154815250508152602001600b8201805480602002602001604051908101604052809291908181526020016000905b8282101561084b5760008481526020908190206040805160c08101825260068602909201805460ff16151583526001808201548486015260028201546001600160801b03169284019290925260038101546060840152600481015460808401526005015460a083015290835290920191016107d5565b505050915250909392505050565b602a546001600160a01b0316331461088c5760405162461bcd60e51b8152600401610883906156de565b60405180910390fd5b601b5482118015906108a05750601c548111155b6108bc5760405162461bcd60e51b81526004016108839061569d565b601b80548390039055601c8054829003905581156108eb576005546108eb906001600160a01b03163384611afb565b801561090857600654610908906001600160a01b03163383611afb565b5050565b6000806109176119a1565b61092b8561092487611c49565b86866105b8565b91509150935093915050565b60408051608080820183526021548252602254602080840191909152602354838501526024546060808501919091528451928301855260255483526026549183019190915260275493820193909352602854928101929092529082565b600061099f82611e2f565b60008281526003602052604090819020905163194a268960e21b8152738f955BEa453F71744b5dEcbb6F412A539047fdB4916365289a24916109ec91906004906005906002908301615bb9565b60206040518083038186803b158015610a0457600080fd5b505af4158015610a18573d6000803e3d6000fd5b505050506040513d601f19601f82011682018060405250810190610a3c91906146c0565b92915050565b610a4a613d60565b6000610a54610f56565b9050610a5f83611e2f565b6000838152600360208181526040928390208351608081018552815481526001820154818401526002820154818601529281018054855181850281018501909652808652939491936060860193830182828015610adb57602002820191906000526020600020905b815481526020019060010190808311610ac7575b505050919092525050604051635d8d458360e11b8152735D7E4863a7B312F4F8449FEC3d50b9Fc9068EC8E9263bb1a8b069250610b249160049060029060059088908401615b6d565b60006040518083038186803b158015610b3c57600080fd5b505af4158015610b50573d6000803e3d6000fd5b505050506040513d6000823e601f3d908101601f19168201604052610b7891908101906148dd565b9392505050565b601d54601e54601f5460205484565b60008060008073fDdC71cAd19Eb21f637dFA3B7d80E9Aeb1Ac372F63b5b49eb2888860600151610bbc610f56565b6040518463ffffffff1660e01b8152600401610bda939291906158a2565b60006040518083038186803b158015610bf257600080fd5b505af4158015610c06573d6000803e3d6000fd5b505050506040513d6000823e601f3d908101601f19168201604052610c2e919081019061468e565b9050610c3b88828861114e565b875160208901519397509195509350610c5391611aba565b509450945094915050565b602a546001600160a01b031681565b602a546001600160a01b03163314610c975760405162461bcd60e51b8152600401610883906156de565b60005b815181101561090857600080838381518110610cb257fe5b6020026020010151806020019051810190610ccd9190614acd565b91509150610cdb8282611e6f565b6000828152600360205260408082209051637882621360e11b8152738f955BEa453F71744b5dEcbb6F412A539047fdB49263f104c42692610d2b9290916004916005916002918991908501615cb7565b60206040518083038186803b158015610d4357600080fd5b505af4158015610d57573d6000803e3d6000fd5b505050506040513d601f19601f82011682018060405250810190610d7b9190614ab5565b505050600101610c9a565b602a546001600160a01b03163314610db05760405162461bcd60e51b8152600401610883906156de565b81516025556020808301516026556040808401516027556060938401516028558251602155908201516022558101516023550151602455565b602a546001600160a01b03163314610e135760405162461bcd60e51b8152600401610883906156de565b8051601d55602080820151601e556040820151601f556060909101519055565b610e3b613d88565b60008281526003602081815260408084208151608081018352815481526001820154818501526002820154818401529381018054835181860281018601909452808452919360608601939290830182828015610eb657602002820191906000526020600020905b815481526020019060010190808311610ea2575b50505091909252505060405163149ccfa160e11b8152919250735D7E4863a7B312F4F8449FEC3d50b9Fc9068EC8E916329399f429150610f029084906004906002906005908301615ae1565b60006040518083038186803b158015610f1a57600080fd5b505af4158015610f2e573d6000803e3d6000fd5b505050506040513d6000823e601f3d908101601f19168201604052610b789190810190614837565b60095460408051633850c7bd60e01b815290516000926001600160a01b031691633850c7bd9160048281019260e0929190829003018186803b158015610f9b57600080fd5b505afa158015610faf573d6000803e3d6000fd5b505050506040513d601f19601f82011682018060405250810190610fd39190614a1f565b50949695505050505050565b610fe7613d60565b600082815260036020818152604092839020835160808101855281548152600182015481840152600282015481860152928101805485518185028101850190965280865293949193606086019383018282801561106357602002820191906000526020600020905b81548152602001906001019080831161104f575b5050505050815250509050919050565b602a546001600160a01b0316331461109d5760405162461bcd60e51b8152600401610883906156de565b6001600160a01b0381166110b057600080fd5b602a80546001600160a01b0319166001600160a01b0392909216919091179055565b6000806110dd6119a1565b604080516001808252818301909252600091816020015b6110fc613dc5565b8152602001906001900390816110f457905050905061111b8787612078565b8160008151811061112857fe5b602002602001018190525061113f878287876105b8565b92509250505b94509492505050565b600080600061115d8686611e6f565b600061116d878660400151612406565b604051636413e81f60e11b81529195509150736c272999e488af31991e7c9F875f4E93b72901fc9063c827d03e906111b59084906004906005906002908d908d908501615bf3565b604080518083038186803b1580156111cc57600080fd5b505af41580156111e0573d6000803e3d6000fd5b505050506040513d601f19601f8201168201806040525081019061120491906146f4565b604087015191945092501561121d5761121d83836125aa565b60405163194a268960e21b8152738f955BEa453F71744b5dEcbb6F412A539047fdB4906365289a249061125c9084906004906005906002908301615bb9565b60206040518083038186803b15801561127457600080fd5b505af4158015611288573d6000803e3d6000fd5b505050506040513d601f19601f820116820180604052508101906112ac91906146c0565b156112c95760405162461bcd60e51b815260040161088390615681565b60008313156112ef576005546112ea906001600160a01b03163330866125bb565b611313565b600083121561131357600554611313906001600160a01b0316336000869003611afb565b600082131561133957600654611334906001600160a01b03163330856125bb565b61135d565b600082121561135d5760065461135d906001600160a01b0316336000859003611afb565b7fabc710e8ab5c8f4ea5d70ef0f4c50f12dd4804fa7e04ce65aa8c813197b64bea848484611389610f56565b8960c0015160405161139f959493929190615d2b565b60405180910390a15093509350939050565b6060610a3c82611c49565b6113c4613dfb565b6113cc613dfb565b5050604080516101008082018352600b548252600c54602080840191909152600d5483850152600e54606080850191909152600f5460808086019190915260105460a08087019190915260115460c08088019190915260125460e080890191909152885196870189526013548752601454958701959095526015549786019790975260165492850192909252601754908401526018549083015260195493820193909352601a549281019290925291565b600054610100900460ff1680611496575061149661270b565b806114a4575060005460ff16155b6114df5760405162461bcd60e51b815260040180806020018281038252602e815260200180615e36602e913960400191505060405180910390fd5b600054610100900460ff1615801561150a576000805460ff1961ff0019909116610100171660011790555b8551600680546020808a0151600580546001600160a01b03199081166001600160a01b0393841617918290556040808e015162ffffff60a01b19909616600160a01b62ffffff998a16810291909117831696851696909617968790556060808f01516009805460ff60a01b191691151589029190911790556007805484168f8716179055600880549093168c8616179092558051918201815291831681529185169282019290925291909204909216908201526115c7858261271c565b600980546001600160a01b03199081166001600160a01b0393841617909155602b80549091168583161790556001600a5560055460405163095ea7b360e01b815291169063095ea7b390611623908990600019906004016154ff565b602060405180830381600087803b15801561163d57600080fd5b505af1158015611651573d6000803e3d6000fd5b505050506040513d601f19601f8201168201806040525081019061167591906146c0565b5060065460405163095ea7b360e01b81526001600160a01b039091169063095ea7b3906116aa908990600019906004016154ff565b602060405180830381600087803b1580156116c457600080fd5b505af11580156116d8573d6000803e3d6000fd5b505050506040513d601f19601f820116820180604052508101906116fc91906146c0565b5060055460405163095ea7b360e01b81526001600160a01b039091169063095ea7b390611731908790600019906004016154ff565b602060405180830381600087803b15801561174b57600080fd5b505af115801561175f573d6000803e3d6000fd5b505050506040513d601f19601f8201168201806040525081019061178391906146c0565b5060065460405163095ea7b360e01b81526001600160a01b039091169063095ea7b3906117b8908790600019906004016154ff565b602060405180830381600087803b1580156117d257600080fd5b505af11580156117e6573d6000803e3d6000fd5b505050506040513d601f19601f8201168201806040525081019061180a91906146c0565b50611815600b612800565b61181f6013612800565b5042600155602a80546001600160a01b031916331790558015611848576000805461ff00191690555b505050505050565b60408051610180810182526005546001600160a01b039081168252600654808216602080850191909152600160a01b9182900462ffffff16848601526007548316606080860191909152600854841660808087019190915260095494851660a0808801919091529390940460ff16151560c080870191909152600a5460e08088019190915287516101008082018a52600b548252600c5482870152600d54828b0152600e5482860152600f54828901526010548288015260115482850152601254828401528089019190915288519081018952601354815260145481860152601554818a015260165493810193909352601754958301959095526018549382019390935260195492810192909252601a5492820192909252610120830152601b54610140830152601c5461016083015260008481526002909152918220610a3c9160219161199c610f56565b612818565b60015460405163725acfd160e01b815273F5E200d560cE8245CD0803c9D370a675bBe8f3799163725acfd1916119e091600591601d919060040161574e565b60206040518083038186803b1580156119f857600080fd5b505af4158015611a0c573d6000803e3d6000fd5b505050506040513d601f19601f82011682018060405250810190611a309190614ab5565b600155565b611a3f8282611e6f565b6000828152600360205260409081902090516349b3bd7960e11b8152738f955BEa453F71744b5dEcbb6F412A539047fdB4916393677af291611a8e919060049086906005906002908401615c84565b60006040518083038186803b158015611aa657600080fd5b505af4158015611848573d6000803e3d6000fd5b6000611ac4610f56565b6001600160a01b03169050808311158015611adf5750818111155b6105b35760405162461bcd60e51b815260040161088390615715565b604080516001600160a01b038481166024830152604480830185905283518084039091018152606490920183526020820180516001600160e01b031663a9059cbb60e01b1781529251825160009485949389169392918291908083835b60208310611b775780518252601f199092019160209182019101611b58565b6001836020036101000a0380198251168184511680821785525050505050509050019150506000604051808303816000865af19150503d8060008114611bd9576040519150601f19603f3d011682016040523d82523d6000602084013e611bde565b606091505b5091509150818015611c0c575080511580611c0c5750808060200190516020811015611c0957600080fd5b50515b611c42576040805162461bcd60e51b815260206004820152600260248201526114d560f21b604482015290519081900360640190fd5b5050505050565b606060006003600084815260200190815260200160002060405180608001604052908160008201548152602001600182015481526020016002820154815260200160038201805480602002602001604051908101604052809291908181526020018280548015611cd857602002820191906000526020600020905b815481526020019060010190808311611cc4575b50505091909252505060408051610180810182526005546001600160a01b03908116825260065480821660208085019190915262ffffff600160a01b9283900416848601526007548316606080860191909152600854841660808087019190915260095494851660a08088019190915260ff9490950493909316151560c080870191909152600a5460e08088019190915287516101008181018a52600b548252600c5482870152600d54828b0152600e5482860152600f548288015260105482890152601154828501526012548284015280890191909152885190810189526013548152601454948101949094526015549784019790975260165491830191909152601754928201929092526018549281019290925260195490820152601a5492810192909252610120810191909152601b54610140820152601c54610160820152919250610b7891839150600490600290612960565b60408051600080825260208201909252611e6c91839190611e66565b611e53613e40565b815260200190600190039081611e4b5790505b50611e6f565b50565b60008281526003602081815260408084208151608081018352815481526001820154818501526002820154818401529381018054835181860281018601909452808452919360608601939290830182828015611eea57602002820191906000526020600020905b815481526020019060010190808311611ed6575b505050505081525050905073F5E200d560cE8245CD0803c9D370a675bBe8f37963a5d330ad82600460026005876021611f21610f56565b6040518863ffffffff1660e01b8152600401611f439796959493929190615b11565b60006040518083038186803b158015611f5b57600080fd5b505af4158015611f6f573d6000803e3d6000fd5b505060015460405163725acfd160e01b815273F5E200d560cE8245CD0803c9D370a675bBe8f379935063725acfd19250611fb291600591601d919060040161574e565b60206040518083038186803b158015611fca57600080fd5b505af4158015611fde573d6000803e3d6000fd5b505050506040513d601f19601f820116820180604052508101906120029190614ab5565b60015560405162d85ecd60e61b8152736c272999e488af31991e7c9F875f4E93b72901fc90633617b340906120439060059085906004906002908201615782565b60006040518083038186803b15801561205b57600080fd5b505af415801561206f573d6000803e3d6000fd5b50505050505050565b612080613dc5565b600083815260036020818152604080842081516080810183528154815260018201548185015260028201548184015293810180548351818602810186019094528084529193606086019392908301828280156120fb57602002820191906000526020600020905b8154815260200190600101908083116120e7575b50505050508152505090506123fe83600460008460600151878151811061211e57fe5b6020026020010151815260200190815260200160002060405180608001604052908160008201548152602001600182016040518060a00160405290816000820160009054906101000a900460ff16600281111561217757fe5b600281111561218257fe5b81526020016001820154815260200160028201548152602001600382015481526020016004820154815250508152602001600682016040518060a00160405290816000820160009054906101000a900460ff1660028111156121e057fe5b60028111156121eb57fe5b81526020016001820154815260200160028201548152602001600382015481526020016004820154815250508152602001600b8201805480602002602001604051908101604052809291908181526020016000905b828210156122b65760008481526020908190206040805160c08101825260068602909201805460ff16151583526001808201548486015260028201546001600160801b03169284019290925260038101546060840152600481015460808401526005015460a08301529083529092019101612240565b5050509152505060408051610180810182526005546001600160a01b03908116825260065480821660208085019190915262ffffff600160a01b9283900416848601526007548316606080860191909152600854841660808087019190915260095494851660a08088019190915260ff9490950493909316151560c080870191909152600a5460e08088019190915287516101008181018a52600b548252600c5482870152600d54828b0152600e5482860152600f548288015260105482890152601154828501526012548284015280890191909152885190810189526013548152601454948101949094526015549784019790975260165491830191909152601754928201929092526018549281019290925260195490820152601a5492810192909252610120810191909152601b54610140820152601c54610160820152600290612bb0565b949350505050565b600080836124e357602b546040516354ba0f2760e01b81526001600160a01b03909116906354ba0f279061243e9033906004016154eb565b602060405180830381600087803b15801561245857600080fd5b505af115801561246c573d6000803e3d6000fd5b505050506040513d601f19601f820116820180604052508101906124909190614ab5565b60008181526003602052604090819020829055519092507fbf3e9c93de94306b70ac5b9411edf475545815333bf651b894b9eada6482c594906124d69084903390615cfe565b60405180910390a1612594565b602b546040516331a9108f60e11b815285935033916001600160a01b031690636352211e90612516908690600401615cf5565b60206040518083038186803b15801561252e57600080fd5b505afa158015612542573d6000803e3d6000fd5b505050506040513d601f19601f8201168201806040525081019061256691906145ea565b6001600160a01b031614806125785750825b6125945760405162461bcd60e51b815260040161088390615732565b5060008181526003602052604090209250929050565b602051828152816020820152604081fd5b604080516001600160a01b0385811660248301528481166044830152606480830185905283518084039091018152608490920183526020820180516001600160e01b03166323b872dd60e01b178152925182516000948594938a169392918291908083835b6020831061263f5780518252601f199092019160209182019101612620565b6001836020036101000a0380198251168184511680821785525050505050509050019150506000604051808303816000865af19150503d80600081146126a1576040519150601f19603f3d011682016040523d82523d6000602084013e6126a6565b606091505b50915091508180156126d45750805115806126d457508080602001905160208110156126d157600080fd5b50515b611848576040805162461bcd60e51b815260206004820152600360248201526229aa2360e91b604482015290519081900360640190fd5b600061271630612e0e565b15905090565b600081602001516001600160a01b031682600001516001600160a01b03161061274457600080fd5b50805160208083015160409384015184516001600160a01b0394851681850152939091168385015262ffffff166060808401919091528351808403820181526080840185528051908301206001600160f81b031960a085015294901b6bffffffffffffffffffffffff191660a183015260b58201939093527fe34f199b19b2b4f47f68442619d555527d244f78a3297ea89325f843f87b8b5460d5808301919091528251808303909101815260f5909101909152805191012090565b670de0b6b3a764000060048201819055600590910155565b6001820154600090600160301b90046001600160801b031615612955576060848101516040805161012081018252865481526001870154600281810b810b810b602084015263010000008204810b810b810b93830193909352600160301b90046001600160801b0316938101939093528501546080830152600385015460a0830152600485015460c0830152600585015460e083015260068501546101008301526000916128c69190612e14565b60c086015160a0870151600187015492935061294d926128f7918a91600281810b9163010000009004900b87612e3f565b6040805160808101825260048b0154815260058b0154602082015260068b01549181019190915260078a0154606082015261293290856130a0565b60018801548790600281810b9163010000009004900b613115565b9150506123fe565b506000949350505050565b60608460600151516001600160401b038111801561297d57600080fd5b506040519080825280602002602001820160405280156129b757816020015b6129a4613dc5565b81526020019060019003908161299c5790505b50905060005b856060015151811015612ba757612b8881866000896060015185815181106129e157fe5b6020026020010151815260200190815260200160002060405180608001604052908160008201548152602001600182016040518060a00160405290816000820160009054906101000a900460ff166002811115612a3a57fe5b6002811115612a4557fe5b81526020016001820154815260200160028201548152602001600382015481526020016004820154815250508152602001600682016040518060a00160405290816000820160009054906101000a900460ff166002811115612aa357fe5b6002811115612aae57fe5b81526020016001820154815260200160028201548152602001600382015481526020016004820154815250508152602001600b8201805480602002602001604051908101604052809291908181526020016000905b82821015612b795760008481526020908190206040805160c08101825260068602909201805460ff16151583526001808201548486015260028201546001600160801b03169284019290925260038101546060840152600481015460808401526005015460a08301529083529092019101612b03565b50505050815250508686612bb0565b828281518110612b9457fe5b60209081029190910101526001016129bd565b50949350505050565b612bb8613dc5565b60008460600151516001600160401b0381118015612bd557600080fd5b50604051908082528060200260200182016040528015612c0f57816020015b612bfc613e86565b815260200190600190039081612bf45790505b50905060005b856060015151811015612d6b57600086606001518281518110612c3457fe5b6020908102919091018101518101516000818152888352604090819020815161012081018352815481526001820154600281810b810b810b9683019690965263010000008104860b860b860b82850152600160301b90046001600160801b031660608083019190915294820154608080830191909152600383015460a0830152600483015460c0830152600583015460e08301526006909201546101008201528251918201909252928a0151805192945090929182919086908110612cf557fe5b6020026020010151600001511515815260200189606001518581518110612d1857fe5b6020026020010151604001516001600160801b03168152602001826020015160020b8152602001826040015160020b815250848481518110612d5657fe5b60209081029190910101525050600101612c15565b506040518060c00160405280878152602001612d9987602001518661010001516131fb90919063ffffffff16565b8152602001612dba87604001518661012001516131fb90919063ffffffff16565b8152602001612ddb876020015186610100015161323f90919063ffffffff16565b8152602001612dfc876040015186610120015161323f90919063ffffffff16565b81526020019190915295945050505050565b3b151590565b6000610b7882606001516001600160801b0316670de0b6b3a7640000612e3a868661327c565b61329e565b600080856001600160a01b031663f30583996040518163ffffffff1660e01b815260040160206040518083038186803b158015612e7b57600080fd5b505afa158015612e8f573d6000803e3d6000fd5b505050506040513d601f19601f82011682018060405250810190612eb39190614ab5565b90506000866001600160a01b031663461413196040518163ffffffff1660e01b815260040160206040518083038186803b158015612ef057600080fd5b505afa158015612f04573d6000803e3d6000fd5b505050506040513d601f19601f82011682018060405250810190612f289190614ab5565b90506000876001600160a01b0316633850c7bd6040518163ffffffff1660e01b815260040160e06040518083038186803b158015612f6557600080fd5b505afa158015612f79573d6000803e3d6000fd5b505050506040513d601f19601f82011682018060405250810190612f9d9190614a1f565b5050505050915050600080612fc9612fb58b8b6132bd565b612fbf8c8b6132bd565b8b8b878a8a613389565b9150915060008989604051602001612fe29291906154ce565b60405160208183030381529060405280519060200120905061308e61303d8d6000016040518060800160405290816000820154815260200160018201548152602001600282015481526020016003820154815250508a6130a0565b8d600801600084815260200190815260200160002060405180608001604052908160008201548152602001600182015481526020016002820154815260200160038201548152505085858a8a613406565b96505050505050505b95945050505050565b815160208301516000919083116130cf57670de0b6b3a764000084604001518402816130c857fe5b0401610b78565b670de0b6b3a76400008460400151856020015102816130ea57fe5b0481019050670de0b6b3a7640000846020015184038560600151028161310c57fe5b04019392505050565b600080600061313e8661312787613485565b61313087613485565b670de0b6b3a76400006137b7565b9150915060006131578a886001600160a01b0316613852565b905089156131835761317c836131768484670de0b6b3a764000061329e565b9061391a565b935061319d565b61319a826131768584670de0b6b3a764000061329e565b93505b6131b9670de0b6b3a76400006131b3868b613974565b906139cd565b93506131ed6131e6670de0b6b3a76400006131b38c6131e06131db8785613974565b613a34565b90613974565b859061391a565b9a9950505050505050505050565b600060018251600281111561320c57fe5b14156132345761322d82602001518460800151670de0b6b3a764000061329e565b9050610a3c565b506020810151610a3c565b600060018251600281111561325057fe5b14156132715761322d82604001518460a00151670de0b6b3a764000061329e565b506040810151610a3c565b600081606001516001600160801b03166132968484613ad8565b019392505050565b8282028115158415858304851417166132b657600080fd5b0492915050565b6132c5613ead565b6000806000856001600160a01b031663f30dba93866040518263ffffffff1660e01b81526004016132f69190615665565b6101006040518083038186803b15801561330f57600080fd5b505afa158015613323573d6000803e3d6000fd5b505050506040513d601f19601f820116820180604052508101906133479190614975565b97505050509450945050508061336f5760405162461bcd60e51b8152600401610883906156b9565b506040805180820190915291825260208201529392505050565b6000806000808860020b8760020b126133aa575050885160208a01516133ba565b5050885160208a01519085039084035b6000808960020b8960020b12156133d9575050895160208b01516133e9565b5050895160208b01519087039086035b92909603959095039a949093039290920397509195505050505050565b6000806000876040015185111561343a578760400151850388600001518803670de0b6b3a7640000028161343657fe5b0491505b8760600151841115613469578760600151840388602001518703670de0b6b3a7640000028161346557fe5b0490505b671bc16d674ec800008282018a02049998505050505050505050565b60008060008360020b1261349c578260020b6134a4565b8260020b6000035b9050620d89e88111156134e2576040805162461bcd60e51b81526020600482015260016024820152601560fa1b604482015290519081900360640190fd5b6000600182166134f657600160801b613508565b6ffffcb933bd6fad37aa2d162d1a5940015b70ffffffffffffffffffffffffffffffffff169050600282161561353c576ffff97272373d413259a46990580e213a0260801c5b600482161561355b576ffff2e50f5f656932ef12357cf3c7fdcc0260801c5b600882161561357a576fffe5caca7e10e4e61c3624eaa0941cd00260801c5b6010821615613599576fffcb9843d60f6159c9db58835c9266440260801c5b60208216156135b8576fff973b41fa98c081472e6896dfb254c00260801c5b60408216156135d7576fff2ea16466c96a3843ec78b326b528610260801c5b60808216156135f6576ffe5dee046a99a2a811c461f1969c30530260801c5b610100821615613616576ffcbe86c7900a88aedcffc83b479aa3a40260801c5b610200821615613636576ff987a7253ac413176f2b074cf7815e540260801c5b610400821615613656576ff3392b0822b70005940c7a398e4b70f30260801c5b610800821615613676576fe7159475a2c29b7443b29c7fa6e889d90260801c5b611000821615613696576fd097f3bdfd2022b8845ad8f792aa58250260801c5b6120008216156136b6576fa9f746462d870fdf8a65dc1f90e061e50260801c5b6140008216156136d6576f70d869a156d2a1b890bb3df62baf32f70260801c5b6180008216156136f6576f31be135f97d08fd981231505542fcfa60260801c5b62010000821615613717576f09aa508b5b7a84e1c677de54f3e99bc90260801c5b62020000821615613737576e5d6af8dedb81196699c329225ee6040260801c5b62040000821615613756576d2216e584f5fa1ea926041bedfe980260801c5b62080000821615613773576b048a170391f7dc42444e8fa20260801c5b60008460020b131561378e57806000198161378a57fe5b0490505b6401000000008106156137a25760016137a5565b60005b60ff16602082901c0192505050919050565b600080836001600160a01b0316856001600160a01b031611156137d8579293925b846001600160a01b0316866001600160a01b031611613803576137fc858585613b7a565b9150611145565b836001600160a01b0316866001600160a01b0316101561383c57613828868585613b7a565b9150613835858785613be3565b9050611145565b613847858585613be3565b905094509492505050565b6000670de0b6b3a764000083156138ba5761387b838483600160c01b8161387557fe5b04613c22565b91508161389a576ec097ce7bc90715b34b9f1000000000915050610a3c565b816ec097ce7bc90715b34b9f1000000000816138b257fe5b0491506138db565b600160601b816138cf8586600160601b613c22565b02816138d757fe5b0491505b6ec097ce7bc90715b34b9f1000000000821115613909576ec097ce7bc90715b34b9f10000000009150613913565b8161391357600191505b5092915050565b600082820183811015610b78576040805162461bcd60e51b815260206004820152601b60248201527f536166654d6174683a206164646974696f6e206f766572666c6f770000000000604482015290519081900360640190fd5b60008261398357506000610a3c565b8282028284828161399057fe5b0414610b785760405162461bcd60e51b8152600401808060200182810382526021815260200180615e646021913960400191505060405180910390fd5b6000808211613a23576040805162461bcd60e51b815260206004820152601a60248201527f536166654d6174683a206469766973696f6e206279207a65726f000000000000604482015290519081900360640190fd5b818381613a2c57fe5b049392505050565b60b581600160881b8110613a4d5760409190911b9060801c5b69010000000000000000008110613a695760209190911b9060401c5b650100000000008110613a815760109190911b9060201c5b63010000008110613a975760089190911b9060101c5b62010000010260121c80820401600190811c80830401811c80830401811c80830401811c80830401811c80830401811c80830401901c908190048111900390565b805160405163133f757160e31b815260009182916001600160a01b038616916399fbab8891613b0a9190600401615cf5565b6101806040518083038186803b158015613b2357600080fd5b505afa158015613b37573d6000803e3d6000fd5b505050506040513d601f19601f82011682018060405250810190613b5b9190614f22565b50506001600160801b039092169a505050505050505050505092915050565b6000826001600160a01b0316846001600160a01b03161115613b9a579192915b836001600160a01b0316613bd3606060ff16846001600160801b0316901b8686036001600160a01b0316866001600160a01b0316613c22565b81613bda57fe5b04949350505050565b6000826001600160a01b0316846001600160a01b03161115613c03579192915b6123fe826001600160801b03168585036001600160a01b0316600160601b5b6000808060001985870986860292508281109083900303905080613c585760008411613c4d57600080fd5b508290049050610b78565b808411613c6457600080fd5b6000848688096000868103871696879004966002600389028118808a02820302808a02820302808a02820302808a02820302808a02820302808a02909103029181900381900460010186841190950394909402919094039290920491909117919091029150509392505050565b60405180610120016040528060008152602001600060020b8152602001600060020b815260200160006001600160801b0316815260200160008152602001600081526020016000815260200160008152602001600081525090565b604051806080016040528060008152602001613d46613ec7565b8152602001613d53613ec7565b8152602001606081525090565b6040518060800160405280600081526020016000815260200160008152602001606081525090565b6040518060e00160405280600081526020016000815260200160008152602001600081526020016000815260200160008152602001606081525090565b6040518060c001604052806000815260200160008152602001600081526020016000815260200160008152602001606081525090565b60405180610100016040528060008152602001600081526020016000815260200160008152602001600081526020016000815260200160008152602001600081525090565b604080516101008101909152806000815260006020820181905260408201819052606082018190526080820181905260a0820181905260c0820181905260e09091015290565b60408051608081018252600080825260208201819052918101829052606081019190915290565b604051806040016040528060008152602001600081525090565b6040805160a081019091528060008152602001600081526020016000815260200160008152602001600081525090565b80356104d481615dd0565b80516104d481615dd0565b600082601f830112613f1d578081fd5b81356020613f32613f2d83615da7565b615d84565b82815281810190858301608080860288018501891015613f50578687fd5b865b86811015613fe15781838b031215613f68578788fd5b604080518381018181106001600160401b0382111715613f8457fe5b82528435613f9181615de5565b815284880135613fa081615e0f565b8189015284820135613fb181615e00565b8083830152506060915081850135613fc881615e00565b9181019190915285529385019391810191600101613f52565b509198975050505050505050565b600082601f830112613fff578081fd5b8151602061400f613f2d83615da7565b8281528181019085830160808086028801850189101561402d578687fd5b865b86811015613fe15781838b031215614045578788fd5b604080518381018181106001600160401b038211171561406157fe5b8252845161406e81615de5565b81528488015161407d81615e0f565b818901528482015161408e81615e00565b80838301525060609150818501516140a581615e00565b918101919091528552938501939181019160010161402f565b600082601f8301126140ce578081fd5b815160206140de613f2d83615da7565b82815281810190858301610100808602880185018910156140fd578687fd5b865b86811015613fe15781838b031215614115578788fd5b604080518381018181106001600160401b038211171561413157fe5b825261413c8561433b565b815287850151888201526141518286016142c1565b82820152606091506141648286016145a6565b8282015260809150614177828601614351565b8282015260a0915061418a828601614351565b9181019190915260c0848101519082015260e08085015190820152855293850193918101916001016140ff565b600082601f8301126141c7578081fd5b815160206141d7613f2d83615da7565b828152818101908583016101e0808602880185018910156141f6578687fd5b865b86811015613fe157828a038281121561420f578889fd5b60408051608081016001600160401b03828210818311171561422d57fe5b818452606085121561423d578c8dfd5b60e083019450818510818611171561425157fe5b50838352865181528987015160a08301528683015160c0830152815261427a8d6060880161449d565b8982015261428b8d60e0880161449d565b8282015261429d8d610160880161449d565b60608201528752505093850193918101916001016141f8565b80356104d481615de5565b80516104d481615de5565b600082601f8301126142dc578081fd5b81356001600160401b038111156142ef57fe5b614302601f8201601f1916602001615d84565b818152846020838601011115614316578283fd5b816020850160208301379081016020019190915292915050565b80356104d481615df3565b80516104d481615df3565b80356104d481615e00565b80516104d481615e00565b60006060828403121561436d578081fd5b604051606081018181106001600160401b038211171561438957fe5b80604052508091508235815260208301356020820152604083013560408201525092915050565b6000608082840312156143c1578081fd5b604051608081018181106001600160401b03821117156143dd57fe5b8060405250809150823581526020830135602082015260408301356040820152606083013560608201525092915050565b600060c0828403121561441f578081fd5b60405160c081016001600160401b03828210818311171561443c57fe5b81604052829350843583526020850135602084015260408501356040840152606085013560608401526080850135608084015260a085013591508082111561448357600080fd5b5061449085828601613f0d565b60a0830152505092915050565b6000608082840312156144ae578081fd5b604051608081018181106001600160401b03821117156144ca57fe5b8060405250809150825181526020830151602082015260408301516040820152606083015160608201525092915050565b600060e0828403121561450c578081fd5b61451660e0615d84565b9050614521826142b6565b815261452f602083016142b6565b6020820152614540604083016142b6565b6040820152614551606083016142b6565b60608201526080820135608082015260a082013560a082015260c08201356001600160401b0381111561458357600080fd5b61458f848285016142cc565b60c08301525092915050565b80356104d481615e0f565b80516104d481615e0f565b805161ffff811681146104d457600080fd5b80516104d481615e24565b6000602082840312156145df578081fd5b8135610b7881615dd0565b6000602082840312156145fb578081fd5b8151610b7881615dd0565b60006020808385031215614618578182fd5b82356001600160401b0381111561462d578283fd5b8301601f8101851361463d578283fd5b803561464b613f2d82615da7565b81815283810190838501865b848110156146805761466e8a8884358901016142cc565b84529286019290860190600101614657565b509098975050505050505050565b60006020828403121561469f578081fd5b81516001600160401b038111156146b4578182fd5b6123fe848285016140be565b6000602082840312156146d1578081fd5b8151610b7881615de5565b6000602082840312156146ed578081fd5b5035919050565b60008060408385031215614706578081fd5b505080516020909101519092909150565b600060808284031215614728578081fd5b610b7883836143b0565b6000806101008385031215614745578182fd5b61474f84846143b0565b915061475e84608085016143b0565b90509250929050565b6000806000806000858703610100811215614780578182fd5b608081121561478d578182fd5b50604051608081018181106001600160401b03821117156147aa57fe5b60405286356147b881615e24565b815260208701356147c881615dd0565b602082015260408701356147db81615dd0565b604082015260608701356147ee81615de5565b6060820152945061480160808701613ef7565b935061480f60a08701613ef7565b925061481d60c08701613ef7565b915061482b60e08701613ef7565b90509295509295909350565b600060208284031215614848578081fd5b81516001600160401b038082111561485e578283fd5b9083019060e08286031215614871578283fd5b61487b60e0615d84565b825181526020830151602082015260408301516040820152606083015160608201526080830151608082015260a083015160a082015260c0830151828111156148c2578485fd5b6148ce87828601613fef565b60c08301525095945050505050565b6000602082840312156148ee578081fd5b81516001600160401b0380821115614904578283fd5b9083019060808286031215614917578283fd5b60405160808101818110838211171561492c57fe5b806040525082518152602083015160208201526040830151604082015260608301518281111561495a578485fd5b614966878286016141b7565b60608301525095945050505050565b600080600080600080600080610100898b031215614991578586fd5b885161499c81615e0f565b80985050602089015180600f0b81146149b3578687fd5b80975050604089015195506060890151945060808901518060060b81146149d8578384fd5b60a08a01519094506149e981615dd0565b60c08a015190935063ffffffff81168114614a02578283fd5b9150614a1060e08a016142c1565b90509295985092959890939650565b600080600080600080600060e0888a031215614a39578081fd5b8751614a4481615dd0565b6020890151909750614a5581615e00565b9550614a63604089016145b1565b9450614a71606089016145b1565b9350614a7f608089016145b1565b925060a088015160ff81168114614a94578182fd5b60c0890151909250614aa581615de5565b8091505092959891949750929550565b600060208284031215614ac6578081fd5b5051919050565b60008060408385031215614adf578182fd5b8251915060208301516001600160401b03811115614afb578182fd5b614b07858286016140be565b9150509250929050565b60008060006060808587031215614b26578182fd5b843593506020808601356001600160401b0380821115614b44578485fd5b818801915088601f830112614b57578485fd5b8135614b65613f2d82615da7565b81815284810190848601610100808502870188018e1015614b8457898afd5b8996505b84871015614c395780828f031215614b9e57898afd5b604080518281018181108982111715614bb357fe5b8252614bbe84614330565b8152898401358a820152614bd38285016142b6565b82820152614be28b850161459b565b8b82015260809150614bf5828501614346565b8282015260a09150614c08828501614346565b9181019190915260c0838101359082015260e080840135908201528452600196909601959287019290810190614b88565b509098505050506040880135935080841115614c53578485fd5b505050614c62868287016144fb565b9150509250925092565b60008060008060c08587031215614c81578182fd5b843593506020808601356001600160401b0380821115614c9f578485fd5b818801915088601f830112614cb2578485fd5b8135614cc0613f2d82615da7565b81815284810190848601885b84811015614cf557614ce38e8984358a010161440e565b84529287019290870190600101614ccc565b509098505050506040880135925080831115614d0f578485fd5b5050614d1d878288016144fb565b925050614d2d866060870161435c565b905092959194509250565b60008082840360a0811215614d4b578283fd5b833592506080601f1982011215614d60578182fd5b50604051608081018181106001600160401b0382111715614d7d57fe5b80604052506020840135815260408401356020820152606084013560408201526080840135614dab81615de5565b6060820152919491935090915050565b60008060008084860360a0811215614dd1578283fd5b8535945060208601356001600160401b0380821115614dee578485fd5b614dfa89838a0161440e565b95506040880135915080821115614e0f578485fd5b614e1b89838a016144fb565b94506040605f1984011215614e2e578384fd5b60405192506040830191508282108183111715614e4757fe5b50604052606086013581526080909501356020860152509194909350909190565b600080600060a08486031215614e7c578081fd5b8335925060208401356001600160401b03811115614e98578182fd5b614ea4868287016144fb565b925050614eb4856040860161435c565b90509250925092565b60008060408385031215614ecf578182fd5b50508035926020909101359150565b60008060008060c08587031215614ef3578182fd5b843593506020850135925060408501356001600160401b03811115614f16578283fd5b614d1d878288016144fb565b6000806000806000806000806000806000806101808d8f031215614f44578586fd5b8c516bffffffffffffffffffffffff81168114614f5f578687fd5b9b50614f6d60208e01613f02565b9a50614f7b60408e01613f02565b9950614f8960608e01613f02565b9850614f9760808e016145c3565b9750614fa560a08e01614351565b9650614fb360c08e01614351565b9550614fc160e08e016145a6565b94506101008d015193506101208d01519250614fe06101408e016145a6565b9150614fef6101608e016145a6565b90509295989b509295989b509295989b565b6001600160a01b03169052565b6000815180845260208085019450808401835b8381101561504757615034878351615294565b6080969096019590820190600101615021565b509495945050505050565b6000815180845260208085019450808401835b838110156150475781518051600d811061507b57fe5b885280840151848901526040808201511515908901526060808201516150a3828b01826154b8565b50506080808201516150b7828b0182615145565b505060a0808201516150cb828b0182615145565b505060c0818101519089015260e090810151908801526101009096019590820190600101615065565b15159052565b60008151808452815b8181101561511f57602081850181015186830182015201615103565b818111156151305782602083870101525b50601f01601f19169290920160200192915050565b60020b9052565b80516003811061515857fe5b8252602081810151908301526040808201519083015260608082015190830152608090810151910152565b615196826151918354615dc4565b615001565b60018101546001600160a01b036151b260208501828416615001565b6151c76040850162ffffff8460a01c166154c5565b6151d46002840154615dc4565b91506151e36060850183615001565b6151f06003840154615dc4565b91506151ff6080850183615001565b6004830154915061521560a08501828416615001565b5061522960c0840160ff8360a01c166150f4565b50600581015460e083015261524561010083016006830161539f565b6152566102008301600e830161539f565b60168101546103008301526017015461032090910152565b805182526020810151602083015260408101516040830152606081015160608301525050565b8051151582526001600160801b036020820151166020830152604081015160020b6040830152606081015160020b60608301525050565b600060c08301825184526020808401518186015260408401516040860152606084015160608601526080808501518187015260a085015160c060a088015283815180865260e08901915084830195508692505b8083101561534557615331828751615294565b94840194600192909201919083019061531e565b50979650505050505050565b805182526020810151602083015260408101516040830152606081015160608301526080810151608083015260a081015160a083015260c081015160c083015260e081015160e08301525050565b8054825260018101546020830152600281015460408301526003810154606083015260048101546080830152600581015460a0830152600681015460c08301526007015460e090910152565b60006080830182518452602080840151818601526040840151604086015260608401516080606087015282815180855260a08801915083830194508592505b8083101561544a578451825293830193600192909201919083019061542a565b509695505050505050565b6000608083018254845260018084015460208181880152600286015460408801526003860191506080606088015283825480865260a08901915083875282872095508693505b80841015615345578554825294840194928401929082019061549b565b6001600160801b03169052565b62ffffff169052565b600292830b60e890811b82529190920b901b600382015260060190565b6001600160a01b0391909116815260200190565b6001600160a01b03929092168252602082015260400190565b60208082528251828201819052600091906040908185019080840286018301878501865b8381101561468057888303603f1901855281518051845287810151888501528681015187850152606080820151908501526080808201519085015260a09081015160c0918501829052906155928186018361500e565b96890196945050509086019060010161553c565b6000608082016080835280875180835260a0850191506020925060a0838202860101838a01855b838110156155fb57609f198884030185526155e98383516152cb565b948601949250908501906001016155cd565b50509715159285019290925250505060408101929092526001600160a01b0316606090910152919050565b901515815260200190565b951515865260208601949094526001600160a01b03928316604086015291166060840152608083015260a082015260c00190565b60029190910b815260200190565b918252602082015260400190565b602080825260029082015261503360f01b604082015260600190565b6020808252600290820152610a0760f31b604082015260600190565b6020808252600b908201526a1a5b9a5d1a585b1a5e995960aa1b604082015260600190565b60208082526017908201527f63616c6c6572206d757374206265206f70657261746f72000000000000000000604082015260600190565b60208082526003908201526221a41960e91b604082015260600190565b602080825260029082015261281960f11b604082015260600190565b928352815460208401526001820154604084015260028201546060840152600390910154608083015260a082015260c00190565b60006103a06157918388615183565b806103408401526157a4818401876153eb565b6103608401959095525050610380015292915050565b61010081016157c9828561526e565b610b78608083018461526e565b60006101208201905082518252602083015160020b6020830152604083015160020b6040830152606083015161580f60608401826154b8565b506080830151608083015260a083015160a083015260c083015160c083015260e083015160e083015261010080840151818401525092915050565b60006020825282516020830152602083015160408301526040830151606083015260608301516080830152608083015160a083015260a083015160c083015260c083015160e0808401526123fe61010084018261500e565b6000606082526158b560608301866152cb565b9315156020830152506001600160a01b0391909116604090910152919050565b600060208083526101a083018451828501528185015160406158f98187018361514c565b80870151915061590c60e087018361514c565b6060878101516101808881015280519485905285019390925085906101c08801905b808310156159895785518051151583528781015188840152848101516001600160801b03168584015285810151868401526080808201519084015260a09081015190830152948601946001929092019160c09091019061592e565b5098975050505050505050565b61020081016159a58285615351565b610b78610100830184615351565b6020808252825182820152828101516040808401919091528084015160608085019190915280850151608080860152805160a08601819052600094939184019285929160c08801905b8085101561598957855180518051845288810151898501528501518584015287810151615a2b8585018261526e565b5080850151805160e08501528881015161010085015280860151610120850152840151610140840152830151615a6561016084018261526e565b506101e08201915086860195506001850194506159fc565b6000602080835260a0830184518285015281850151604085015260408501516060850152606085015160808086015281815180845260c08701915084830193508592505b8083101561544a5783518252928401926001929092019190840190615ac1565b60006103a0808352615af5818401886153eb565b9150508460208301528360408301526130976060830184615183565b600060e08252615b2460e083018a6153eb565b8860208401528760408401528660608401528281036080840152615b488187615052565b60a084019590955250506001600160a01b039190911660c09091015295945050505050565b60006103c0808352615b81818401896153eb565b915050856020830152846040830152615b9d6060830185615183565b6001600160a01b03929092166103a09190910152949350505050565b60006103a0808352615bcd81840188615455565b915050846020830152615be36040830185615183565b8261038083015295945050505050565b600087825286602083015285604083015284606083015260c06080830152615c1e60c0830185615052565b82810360a08401528351151581526020840151151560208201526040840151151560408201526060840151615c5660608301826150f4565b506080840151608082015260a084015160a082015260c084015160e060c08301526131ed60e08301826150fa565b600086825285602083015260a06040830152615ca360a0830186615052565b606083019490945250608001529392505050565b600087825286602083015285604083015284606083015260c06080830152615ce260c0830185615052565b90508260a0830152979650505050505050565b90815260200190565b9182526001600160a01b0316602082015260400190565b9283526020830191909152604082015260600190565b600086825285602083015284604083015260018060a01b038416606083015260a06080830152615d5e60a08301846150fa565b979650505050505050565b93845260208401929092526040830152606082015260800190565b6040518181016001600160401b0381118282101715615d9f57fe5b604052919050565b60006001600160401b03821115615dba57fe5b5060209081020190565b6001600160a01b031690565b6001600160a01b0381168114611e6c57600080fd5b8015158114611e6c57600080fd5b600d8110611e6c57600080fd5b8060020b8114611e6c57600080fd5b6001600160801b0381168114611e6c57600080fd5b62ffffff81168114611e6c57600080fdfe496e697469616c697a61626c653a20636f6e747261637420697320616c726561647920696e697469616c697a6564536166654d6174683a206d756c7469706c69636174696f6e206f766572666c6f77a26469706673582212206f0332e504396393ddeef45d2536acdfa4cd54e024db355bd7849825c19bfaeb64736f6c63430007060033",
  "deployedBytecode": "0x608060405234801561001057600080fd5b50600436106101a95760003560e01c8063570ca735116100f9578063b3ab15fb11610097578063eb02c30111610071578063eb02c301146103e1578063ebd2665f14610401578063f46a647714610417578063fea9a2c21461042a576101a9565b8063b3ab15fb146103a8578063c3df1acb146103bb578063dd8cb3f4146103ce576101a9565b806368715773116100d3578063687157731461034d5780636f85ba9c1461036057806386e6862d146103805780639403b63414610388576101a9565b8063570ca7351461031257806365b5f6e314610327578063671148591461033a576101a9565b80633743d142116101665780633e129715116101405780633e1297151461029857806349ebb77d146102b857806351be57d3146102d8578063542da3b0146102f0576101a9565b80633743d1421461025c5780633ac352be1461026f5780633c678e1414610282576101a9565b8063013216f5146101ae57806305943002146101d757806311bea7f4146101ec578063127f0f071461020d578063275892a21461022757806330050fbd1461023c575b600080fd5b6101c16101bc3660046146dc565b61043d565b6040516101ce91906157d6565b60405180910390f35b6101ea6101e5366004614d38565b6104d9565b005b6101ff6101fa366004614c6c565b6105b8565b6040516101ce929190615673565b61021561068c565b6040516101ce96959493929190615631565b61022f6106b9565b6040516101ce9190615cf5565b61024f61024a3660046146dc565b6106bf565b6040516101ce91906158d5565b6101ea61026a366004614ebd565b610859565b6101ff61027d366004614e68565b61090c565b61028a610937565b6040516101ce9291906157ba565b6102ab6102a63660046146dc565b610994565b6040516101ce9190615626565b6102cb6102c63660046146dc565b610a42565b6040516101ce91906159b3565b6102e0610b7f565b6040516101ce9493929190615d69565b6103036102fe366004614dbb565b610b8e565b6040516101ce93929190615d15565b61031a610c5e565b6040516101ce91906154eb565b6101ea610335366004614606565b610c6d565b6101ea610348366004614732565b610d86565b6101ea61035b366004614717565b610de9565b61037361036e3660046146dc565b610e33565b6040516101ce919061584a565b61031a610f56565b61039b6103963660046146dc565b610fdf565b6040516101ce9190615a7d565b6101ea6103b63660046145ce565b611073565b6101ff6103c9366004614ede565b6110d2565b6103036103dc366004614b11565b61114e565b6103f46103ef3660046146dc565b6113b1565b6040516101ce9190615518565b6104096113bc565b6040516101ce929190615996565b6101ea610425366004614767565b61147d565b61022f6104383660046146dc565b611850565b610445613cd1565b5060008181526002602081815260409283902083516101208101855281548152600182015480850b850b850b9382019390935263010000008304840b840b840b94810194909452600160301b9091046001600160801b03166060840152908101546080830152600381015460a0830152600481015460c0830152600581015460e0830152600601546101008201525b919050565b6104e16119a1565b600073__$7ffffda71c6e7abde662efb5427d8d1c5d$__63b1a3252b610506856113b1565b6009546040860151600160a01b90910460ff1690610522610f56565b6040518563ffffffff1660e01b815260040161054194939291906155a6565b60006040518083038186803b15801561055957600080fd5b505af415801561056d573d6000803e3d6000fd5b505050506040513d6000823e601f3d908101601f19168201604052610595919081019061468e565b90506105a18382611a35565b6105b382600001518360200151611aba565b505050565b600080600073__$7ffffda71c6e7abde662efb5427d8d1c5d$__63b1a3252b87876060015187604001516105ea610f56565b6040518563ffffffff1660e01b815260040161060994939291906155a6565b60006040518083038186803b15801561062157600080fd5b505af4158015610635573d6000803e3d6000fd5b505050506040513d6000823e601f3d908101601f1916820160405261065d919081019061468e565b905061066a87828761114e565b86516020880151929650909450610682925090611aba565b5094509492505050565b600954600a54600754601b54601c5460ff600160a01b860416946001600160a01b03908116931692939495565b60015481565b6106c7613d2c565b600082815260046020908152604091829020825160808101845281548152835160a081019094526001820180549194929385019291829060ff16600281111561070c57fe5b600281111561071757fe5b81526020016001820154815260200160028201548152602001600382015481526020016004820154815250508152602001600682016040518060a00160405290816000820160009054906101000a900460ff16600281111561077557fe5b600281111561078057fe5b81526020016001820154815260200160028201548152602001600382015481526020016004820154815250508152602001600b8201805480602002602001604051908101604052809291908181526020016000905b8282101561084b5760008481526020908190206040805160c08101825260068602909201805460ff16151583526001808201548486015260028201546001600160801b03169284019290925260038101546060840152600481015460808401526005015460a083015290835290920191016107d5565b505050915250909392505050565b602a546001600160a01b0316331461088c5760405162461bcd60e51b8152600401610883906156de565b60405180910390fd5b601b5482118015906108a05750601c548111155b6108bc5760405162461bcd60e51b81526004016108839061569d565b601b80548390039055601c8054829003905581156108eb576005546108eb906001600160a01b03163384611afb565b801561090857600654610908906001600160a01b03163383611afb565b5050565b6000806109176119a1565b61092b8561092487611c49565b86866105b8565b91509150935093915050565b60408051608080820183526021548252602254602080840191909152602354838501526024546060808501919091528451928301855260255483526026549183019190915260275493820193909352602854928101929092529082565b600061099f82611e2f565b60008281526003602052604090819020905163194a268960e21b815273__$a1fa80d38d689cae49e54718da49b6432c$__916365289a24916109ec91906004906005906002908301615bb9565b60206040518083038186803b158015610a0457600080fd5b505af4158015610a18573d6000803e3d6000fd5b505050506040513d601f19601f82011682018060405250810190610a3c91906146c0565b92915050565b610a4a613d60565b6000610a54610f56565b9050610a5f83611e2f565b6000838152600360208181526040928390208351608081018552815481526001820154818401526002820154818601529281018054855181850281018501909652808652939491936060860193830182828015610adb57602002820191906000526020600020905b815481526020019060010190808311610ac7575b505050919092525050604051635d8d458360e11b815273__$b4a4919001844372a79711112cfb20c2b9$__9263bb1a8b069250610b249160049060029060059088908401615b6d565b60006040518083038186803b158015610b3c57600080fd5b505af4158015610b50573d6000803e3d6000fd5b505050506040513d6000823e601f3d908101601f19168201604052610b7891908101906148dd565b9392505050565b601d54601e54601f5460205484565b60008060008073__$7ffffda71c6e7abde662efb5427d8d1c5d$__63b5b49eb2888860600151610bbc610f56565b6040518463ffffffff1660e01b8152600401610bda939291906158a2565b60006040518083038186803b158015610bf257600080fd5b505af4158015610c06573d6000803e3d6000fd5b505050506040513d6000823e601f3d908101601f19168201604052610c2e919081019061468e565b9050610c3b88828861114e565b875160208901519397509195509350610c5391611aba565b509450945094915050565b602a546001600160a01b031681565b602a546001600160a01b03163314610c975760405162461bcd60e51b8152600401610883906156de565b60005b815181101561090857600080838381518110610cb257fe5b6020026020010151806020019051810190610ccd9190614acd565b91509150610cdb8282611e6f565b6000828152600360205260408082209051637882621360e11b815273__$a1fa80d38d689cae49e54718da49b6432c$__9263f104c42692610d2b9290916004916005916002918991908501615cb7565b60206040518083038186803b158015610d4357600080fd5b505af4158015610d57573d6000803e3d6000fd5b505050506040513d601f19601f82011682018060405250810190610d7b9190614ab5565b505050600101610c9a565b602a546001600160a01b03163314610db05760405162461bcd60e51b8152600401610883906156de565b81516025556020808301516026556040808401516027556060938401516028558251602155908201516022558101516023550151602455565b602a546001600160a01b03163314610e135760405162461bcd60e51b8152600401610883906156de565b8051601d55602080820151601e556040820151601f556060909101519055565b610e3b613d88565b60008281526003602081815260408084208151608081018352815481526001820154818501526002820154818401529381018054835181860281018601909452808452919360608601939290830182828015610eb657602002820191906000526020600020905b815481526020019060010190808311610ea2575b50505091909252505060405163149ccfa160e11b815291925073__$b4a4919001844372a79711112cfb20c2b9$__916329399f429150610f029084906004906002906005908301615ae1565b60006040518083038186803b158015610f1a57600080fd5b505af4158015610f2e573d6000803e3d6000fd5b505050506040513d6000823e601f3d908101601f19168201604052610b789190810190614837565b60095460408051633850c7bd60e01b815290516000926001600160a01b031691633850c7bd9160048281019260e0929190829003018186803b158015610f9b57600080fd5b505afa158015610faf573d6000803e3d6000fd5b505050506040513d601f19601f82011682018060405250810190610fd39190614a1f565b50949695505050505050565b610fe7613d60565b600082815260036020818152604092839020835160808101855281548152600182015481840152600282015481860152928101805485518185028101850190965280865293949193606086019383018282801561106357602002820191906000526020600020905b81548152602001906001019080831161104f575b5050505050815250509050919050565b602a546001600160a01b0316331461109d5760405162461bcd60e51b8152600401610883906156de565b6001600160a01b0381166110b057600080fd5b602a80546001600160a01b0319166001600160a01b0392909216919091179055565b6000806110dd6119a1565b604080516001808252818301909252600091816020015b6110fc613dc5565b8152602001906001900390816110f457905050905061111b8787612078565b8160008151811061112857fe5b602002602001018190525061113f878287876105b8565b92509250505b94509492505050565b600080600061115d8686611e6f565b600061116d878660400151612406565b604051636413e81f60e11b8152919550915073__$da03e66f624374a74ff67f4d42d7f52632$__9063c827d03e906111b59084906004906005906002908d908d908501615bf3565b604080518083038186803b1580156111cc57600080fd5b505af41580156111e0573d6000803e3d6000fd5b505050506040513d601f19601f8201168201806040525081019061120491906146f4565b604087015191945092501561121d5761121d83836125aa565b60405163194a268960e21b815273__$a1fa80d38d689cae49e54718da49b6432c$__906365289a249061125c9084906004906005906002908301615bb9565b60206040518083038186803b15801561127457600080fd5b505af4158015611288573d6000803e3d6000fd5b505050506040513d601f19601f820116820180604052508101906112ac91906146c0565b156112c95760405162461bcd60e51b815260040161088390615681565b60008313156112ef576005546112ea906001600160a01b03163330866125bb565b611313565b600083121561131357600554611313906001600160a01b0316336000869003611afb565b600082131561133957600654611334906001600160a01b03163330856125bb565b61135d565b600082121561135d5760065461135d906001600160a01b0316336000859003611afb565b7fabc710e8ab5c8f4ea5d70ef0f4c50f12dd4804fa7e04ce65aa8c813197b64bea848484611389610f56565b8960c0015160405161139f959493929190615d2b565b60405180910390a15093509350939050565b6060610a3c82611c49565b6113c4613dfb565b6113cc613dfb565b5050604080516101008082018352600b548252600c54602080840191909152600d5483850152600e54606080850191909152600f5460808086019190915260105460a08087019190915260115460c08088019190915260125460e080890191909152885196870189526013548752601454958701959095526015549786019790975260165492850192909252601754908401526018549083015260195493820193909352601a549281019290925291565b600054610100900460ff1680611496575061149661270b565b806114a4575060005460ff16155b6114df5760405162461bcd60e51b815260040180806020018281038252602e815260200180615e36602e913960400191505060405180910390fd5b600054610100900460ff1615801561150a576000805460ff1961ff0019909116610100171660011790555b8551600680546020808a0151600580546001600160a01b03199081166001600160a01b0393841617918290556040808e015162ffffff60a01b19909616600160a01b62ffffff998a16810291909117831696851696909617968790556060808f01516009805460ff60a01b191691151589029190911790556007805484168f8716179055600880549093168c8616179092558051918201815291831681529185169282019290925291909204909216908201526115c7858261271c565b600980546001600160a01b03199081166001600160a01b0393841617909155602b80549091168583161790556001600a5560055460405163095ea7b360e01b815291169063095ea7b390611623908990600019906004016154ff565b602060405180830381600087803b15801561163d57600080fd5b505af1158015611651573d6000803e3d6000fd5b505050506040513d601f19601f8201168201806040525081019061167591906146c0565b5060065460405163095ea7b360e01b81526001600160a01b039091169063095ea7b3906116aa908990600019906004016154ff565b602060405180830381600087803b1580156116c457600080fd5b505af11580156116d8573d6000803e3d6000fd5b505050506040513d601f19601f820116820180604052508101906116fc91906146c0565b5060055460405163095ea7b360e01b81526001600160a01b039091169063095ea7b390611731908790600019906004016154ff565b602060405180830381600087803b15801561174b57600080fd5b505af115801561175f573d6000803e3d6000fd5b505050506040513d601f19601f8201168201806040525081019061178391906146c0565b5060065460405163095ea7b360e01b81526001600160a01b039091169063095ea7b3906117b8908790600019906004016154ff565b602060405180830381600087803b1580156117d257600080fd5b505af11580156117e6573d6000803e3d6000fd5b505050506040513d601f19601f8201168201806040525081019061180a91906146c0565b50611815600b612800565b61181f6013612800565b5042600155602a80546001600160a01b031916331790558015611848576000805461ff00191690555b505050505050565b60408051610180810182526005546001600160a01b039081168252600654808216602080850191909152600160a01b9182900462ffffff16848601526007548316606080860191909152600854841660808087019190915260095494851660a0808801919091529390940460ff16151560c080870191909152600a5460e08088019190915287516101008082018a52600b548252600c5482870152600d54828b0152600e5482860152600f54828901526010548288015260115482850152601254828401528089019190915288519081018952601354815260145481860152601554818a015260165493810193909352601754958301959095526018549382019390935260195492810192909252601a5492820192909252610120830152601b54610140830152601c5461016083015260008481526002909152918220610a3c9160219161199c610f56565b612818565b60015460405163725acfd160e01b815273__$d48eea142f8e4946a86e978d6ec5b9f014$__9163725acfd1916119e091600591601d919060040161574e565b60206040518083038186803b1580156119f857600080fd5b505af4158015611a0c573d6000803e3d6000fd5b505050506040513d601f19601f82011682018060405250810190611a309190614ab5565b600155565b611a3f8282611e6f565b6000828152600360205260409081902090516349b3bd7960e11b815273__$a1fa80d38d689cae49e54718da49b6432c$__916393677af291611a8e919060049086906005906002908401615c84565b60006040518083038186803b158015611aa657600080fd5b505af4158015611848573d6000803e3d6000fd5b6000611ac4610f56565b6001600160a01b03169050808311158015611adf5750818111155b6105b35760405162461bcd60e51b815260040161088390615715565b604080516001600160a01b038481166024830152604480830185905283518084039091018152606490920183526020820180516001600160e01b031663a9059cbb60e01b1781529251825160009485949389169392918291908083835b60208310611b775780518252601f199092019160209182019101611b58565b6001836020036101000a0380198251168184511680821785525050505050509050019150506000604051808303816000865af19150503d8060008114611bd9576040519150601f19603f3d011682016040523d82523d6000602084013e611bde565b606091505b5091509150818015611c0c575080511580611c0c5750808060200190516020811015611c0957600080fd5b50515b611c42576040805162461bcd60e51b815260206004820152600260248201526114d560f21b604482015290519081900360640190fd5b5050505050565b606060006003600084815260200190815260200160002060405180608001604052908160008201548152602001600182015481526020016002820154815260200160038201805480602002602001604051908101604052809291908181526020018280548015611cd857602002820191906000526020600020905b815481526020019060010190808311611cc4575b50505091909252505060408051610180810182526005546001600160a01b03908116825260065480821660208085019190915262ffffff600160a01b9283900416848601526007548316606080860191909152600854841660808087019190915260095494851660a08088019190915260ff9490950493909316151560c080870191909152600a5460e08088019190915287516101008181018a52600b548252600c5482870152600d54828b0152600e5482860152600f548288015260105482890152601154828501526012548284015280890191909152885190810189526013548152601454948101949094526015549784019790975260165491830191909152601754928201929092526018549281019290925260195490820152601a5492810192909252610120810191909152601b54610140820152601c54610160820152919250610b7891839150600490600290612960565b60408051600080825260208201909252611e6c91839190611e66565b611e53613e40565b815260200190600190039081611e4b5790505b50611e6f565b50565b60008281526003602081815260408084208151608081018352815481526001820154818501526002820154818401529381018054835181860281018601909452808452919360608601939290830182828015611eea57602002820191906000526020600020905b815481526020019060010190808311611ed6575b505050505081525050905073__$d48eea142f8e4946a86e978d6ec5b9f014$__63a5d330ad82600460026005876021611f21610f56565b6040518863ffffffff1660e01b8152600401611f439796959493929190615b11565b60006040518083038186803b158015611f5b57600080fd5b505af4158015611f6f573d6000803e3d6000fd5b505060015460405163725acfd160e01b815273__$d48eea142f8e4946a86e978d6ec5b9f014$__935063725acfd19250611fb291600591601d919060040161574e565b60206040518083038186803b158015611fca57600080fd5b505af4158015611fde573d6000803e3d6000fd5b505050506040513d601f19601f820116820180604052508101906120029190614ab5565b60015560405162d85ecd60e61b815273__$da03e66f624374a74ff67f4d42d7f52632$__90633617b340906120439060059085906004906002908201615782565b60006040518083038186803b15801561205b57600080fd5b505af415801561206f573d6000803e3d6000fd5b50505050505050565b612080613dc5565b600083815260036020818152604080842081516080810183528154815260018201548185015260028201548184015293810180548351818602810186019094528084529193606086019392908301828280156120fb57602002820191906000526020600020905b8154815260200190600101908083116120e7575b50505050508152505090506123fe83600460008460600151878151811061211e57fe5b6020026020010151815260200190815260200160002060405180608001604052908160008201548152602001600182016040518060a00160405290816000820160009054906101000a900460ff16600281111561217757fe5b600281111561218257fe5b81526020016001820154815260200160028201548152602001600382015481526020016004820154815250508152602001600682016040518060a00160405290816000820160009054906101000a900460ff1660028111156121e057fe5b60028111156121eb57fe5b81526020016001820154815260200160028201548152602001600382015481526020016004820154815250508152602001600b8201805480602002602001604051908101604052809291908181526020016000905b828210156122b65760008481526020908190206040805160c08101825260068602909201805460ff16151583526001808201548486015260028201546001600160801b03169284019290925260038101546060840152600481015460808401526005015460a08301529083529092019101612240565b5050509152505060408051610180810182526005546001600160a01b03908116825260065480821660208085019190915262ffffff600160a01b9283900416848601526007548316606080860191909152600854841660808087019190915260095494851660a08088019190915260ff9490950493909316151560c080870191909152600a5460e08088019190915287516101008181018a52600b548252600c5482870152600d54828b0152600e5482860152600f548288015260105482890152601154828501526012548284015280890191909152885190810189526013548152601454948101949094526015549784019790975260165491830191909152601754928201929092526018549281019290925260195490820152601a5492810192909252610120810191909152601b54610140820152601c54610160820152600290612bb0565b949350505050565b600080836124e357602b546040516354ba0f2760e01b81526001600160a01b03909116906354ba0f279061243e9033906004016154eb565b602060405180830381600087803b15801561245857600080fd5b505af115801561246c573d6000803e3d6000fd5b505050506040513d601f19601f820116820180604052508101906124909190614ab5565b60008181526003602052604090819020829055519092507fbf3e9c93de94306b70ac5b9411edf475545815333bf651b894b9eada6482c594906124d69084903390615cfe565b60405180910390a1612594565b602b546040516331a9108f60e11b815285935033916001600160a01b031690636352211e90612516908690600401615cf5565b60206040518083038186803b15801561252e57600080fd5b505afa158015612542573d6000803e3d6000fd5b505050506040513d601f19601f8201168201806040525081019061256691906145ea565b6001600160a01b031614806125785750825b6125945760405162461bcd60e51b815260040161088390615732565b5060008181526003602052604090209250929050565b602051828152816020820152604081fd5b604080516001600160a01b0385811660248301528481166044830152606480830185905283518084039091018152608490920183526020820180516001600160e01b03166323b872dd60e01b178152925182516000948594938a169392918291908083835b6020831061263f5780518252601f199092019160209182019101612620565b6001836020036101000a0380198251168184511680821785525050505050509050019150506000604051808303816000865af19150503d80600081146126a1576040519150601f19603f3d011682016040523d82523d6000602084013e6126a6565b606091505b50915091508180156126d45750805115806126d457508080602001905160208110156126d157600080fd5b50515b611848576040805162461bcd60e51b815260206004820152600360248201526229aa2360e91b604482015290519081900360640190fd5b600061271630612e0e565b15905090565b600081602001516001600160a01b031682600001516001600160a01b03161061274457600080fd5b50805160208083015160409384015184516001600160a01b0394851681850152939091168385015262ffffff166060808401919091528351808403820181526080840185528051908301206001600160f81b031960a085015294901b6bffffffffffffffffffffffff191660a183015260b58201939093527fe34f199b19b2b4f47f68442619d555527d244f78a3297ea89325f843f87b8b5460d5808301919091528251808303909101815260f5909101909152805191012090565b670de0b6b3a764000060048201819055600590910155565b6001820154600090600160301b90046001600160801b031615612955576060848101516040805161012081018252865481526001870154600281810b810b810b602084015263010000008204810b810b810b93830193909352600160301b90046001600160801b0316938101939093528501546080830152600385015460a0830152600485015460c0830152600585015460e083015260068501546101008301526000916128c69190612e14565b60c086015160a0870151600187015492935061294d926128f7918a91600281810b9163010000009004900b87612e3f565b6040805160808101825260048b0154815260058b0154602082015260068b01549181019190915260078a0154606082015261293290856130a0565b60018801548790600281810b9163010000009004900b613115565b9150506123fe565b506000949350505050565b60608460600151516001600160401b038111801561297d57600080fd5b506040519080825280602002602001820160405280156129b757816020015b6129a4613dc5565b81526020019060019003908161299c5790505b50905060005b856060015151811015612ba757612b8881866000896060015185815181106129e157fe5b6020026020010151815260200190815260200160002060405180608001604052908160008201548152602001600182016040518060a00160405290816000820160009054906101000a900460ff166002811115612a3a57fe5b6002811115612a4557fe5b81526020016001820154815260200160028201548152602001600382015481526020016004820154815250508152602001600682016040518060a00160405290816000820160009054906101000a900460ff166002811115612aa357fe5b6002811115612aae57fe5b81526020016001820154815260200160028201548152602001600382015481526020016004820154815250508152602001600b8201805480602002602001604051908101604052809291908181526020016000905b82821015612b795760008481526020908190206040805160c08101825260068602909201805460ff16151583526001808201548486015260028201546001600160801b03169284019290925260038101546060840152600481015460808401526005015460a08301529083529092019101612b03565b50505050815250508686612bb0565b828281518110612b9457fe5b60209081029190910101526001016129bd565b50949350505050565b612bb8613dc5565b60008460600151516001600160401b0381118015612bd557600080fd5b50604051908082528060200260200182016040528015612c0f57816020015b612bfc613e86565b815260200190600190039081612bf45790505b50905060005b856060015151811015612d6b57600086606001518281518110612c3457fe5b6020908102919091018101518101516000818152888352604090819020815161012081018352815481526001820154600281810b810b810b9683019690965263010000008104860b860b860b82850152600160301b90046001600160801b031660608083019190915294820154608080830191909152600383015460a0830152600483015460c0830152600583015460e08301526006909201546101008201528251918201909252928a0151805192945090929182919086908110612cf557fe5b6020026020010151600001511515815260200189606001518581518110612d1857fe5b6020026020010151604001516001600160801b03168152602001826020015160020b8152602001826040015160020b815250848481518110612d5657fe5b60209081029190910101525050600101612c15565b506040518060c00160405280878152602001612d9987602001518661010001516131fb90919063ffffffff16565b8152602001612dba87604001518661012001516131fb90919063ffffffff16565b8152602001612ddb876020015186610100015161323f90919063ffffffff16565b8152602001612dfc876040015186610120015161323f90919063ffffffff16565b81526020019190915295945050505050565b3b151590565b6000610b7882606001516001600160801b0316670de0b6b3a7640000612e3a868661327c565b61329e565b600080856001600160a01b031663f30583996040518163ffffffff1660e01b815260040160206040518083038186803b158015612e7b57600080fd5b505afa158015612e8f573d6000803e3d6000fd5b505050506040513d601f19601f82011682018060405250810190612eb39190614ab5565b90506000866001600160a01b031663461413196040518163ffffffff1660e01b815260040160206040518083038186803b158015612ef057600080fd5b505afa158015612f04573d6000803e3d6000fd5b505050506040513d601f19601f82011682018060405250810190612f289190614ab5565b90506000876001600160a01b0316633850c7bd6040518163ffffffff1660e01b815260040160e06040518083038186803b158015612f6557600080fd5b505afa158015612f79573d6000803e3d6000fd5b505050506040513d601f19601f82011682018060405250810190612f9d9190614a1f565b5050505050915050600080612fc9612fb58b8b6132bd565b612fbf8c8b6132bd565b8b8b878a8a613389565b9150915060008989604051602001612fe29291906154ce565b60405160208183030381529060405280519060200120905061308e61303d8d6000016040518060800160405290816000820154815260200160018201548152602001600282015481526020016003820154815250508a6130a0565b8d600801600084815260200190815260200160002060405180608001604052908160008201548152602001600182015481526020016002820154815260200160038201548152505085858a8a613406565b96505050505050505b95945050505050565b815160208301516000919083116130cf57670de0b6b3a764000084604001518402816130c857fe5b0401610b78565b670de0b6b3a76400008460400151856020015102816130ea57fe5b0481019050670de0b6b3a7640000846020015184038560600151028161310c57fe5b04019392505050565b600080600061313e8661312787613485565b61313087613485565b670de0b6b3a76400006137b7565b9150915060006131578a886001600160a01b0316613852565b905089156131835761317c836131768484670de0b6b3a764000061329e565b9061391a565b935061319d565b61319a826131768584670de0b6b3a764000061329e565b93505b6131b9670de0b6b3a76400006131b3868b613974565b906139cd565b93506131ed6131e6670de0b6b3a76400006131b38c6131e06131db8785613974565b613a34565b90613974565b859061391a565b9a9950505050505050505050565b600060018251600281111561320c57fe5b14156132345761322d82602001518460800151670de0b6b3a764000061329e565b9050610a3c565b506020810151610a3c565b600060018251600281111561325057fe5b14156132715761322d82604001518460a00151670de0b6b3a764000061329e565b506040810151610a3c565b600081606001516001600160801b03166132968484613ad8565b019392505050565b8282028115158415858304851417166132b657600080fd5b0492915050565b6132c5613ead565b6000806000856001600160a01b031663f30dba93866040518263ffffffff1660e01b81526004016132f69190615665565b6101006040518083038186803b15801561330f57600080fd5b505afa158015613323573d6000803e3d6000fd5b505050506040513d601f19601f820116820180604052508101906133479190614975565b97505050509450945050508061336f5760405162461bcd60e51b8152600401610883906156b9565b506040805180820190915291825260208201529392505050565b6000806000808860020b8760020b126133aa575050885160208a01516133ba565b5050885160208a01519085039084035b6000808960020b8960020b12156133d9575050895160208b01516133e9565b5050895160208b01519087039086035b92909603959095039a949093039290920397509195505050505050565b6000806000876040015185111561343a578760400151850388600001518803670de0b6b3a7640000028161343657fe5b0491505b8760600151841115613469578760600151840388602001518703670de0b6b3a7640000028161346557fe5b0490505b671bc16d674ec800008282018a02049998505050505050505050565b60008060008360020b1261349c578260020b6134a4565b8260020b6000035b9050620d89e88111156134e2576040805162461bcd60e51b81526020600482015260016024820152601560fa1b604482015290519081900360640190fd5b6000600182166134f657600160801b613508565b6ffffcb933bd6fad37aa2d162d1a5940015b70ffffffffffffffffffffffffffffffffff169050600282161561353c576ffff97272373d413259a46990580e213a0260801c5b600482161561355b576ffff2e50f5f656932ef12357cf3c7fdcc0260801c5b600882161561357a576fffe5caca7e10e4e61c3624eaa0941cd00260801c5b6010821615613599576fffcb9843d60f6159c9db58835c9266440260801c5b60208216156135b8576fff973b41fa98c081472e6896dfb254c00260801c5b60408216156135d7576fff2ea16466c96a3843ec78b326b528610260801c5b60808216156135f6576ffe5dee046a99a2a811c461f1969c30530260801c5b610100821615613616576ffcbe86c7900a88aedcffc83b479aa3a40260801c5b610200821615613636576ff987a7253ac413176f2b074cf7815e540260801c5b610400821615613656576ff3392b0822b70005940c7a398e4b70f30260801c5b610800821615613676576fe7159475a2c29b7443b29c7fa6e889d90260801c5b611000821615613696576fd097f3bdfd2022b8845ad8f792aa58250260801c5b6120008216156136b6576fa9f746462d870fdf8a65dc1f90e061e50260801c5b6140008216156136d6576f70d869a156d2a1b890bb3df62baf32f70260801c5b6180008216156136f6576f31be135f97d08fd981231505542fcfa60260801c5b62010000821615613717576f09aa508b5b7a84e1c677de54f3e99bc90260801c5b62020000821615613737576e5d6af8dedb81196699c329225ee6040260801c5b62040000821615613756576d2216e584f5fa1ea926041bedfe980260801c5b62080000821615613773576b048a170391f7dc42444e8fa20260801c5b60008460020b131561378e57806000198161378a57fe5b0490505b6401000000008106156137a25760016137a5565b60005b60ff16602082901c0192505050919050565b600080836001600160a01b0316856001600160a01b031611156137d8579293925b846001600160a01b0316866001600160a01b031611613803576137fc858585613b7a565b9150611145565b836001600160a01b0316866001600160a01b0316101561383c57613828868585613b7a565b9150613835858785613be3565b9050611145565b613847858585613be3565b905094509492505050565b6000670de0b6b3a764000083156138ba5761387b838483600160c01b8161387557fe5b04613c22565b91508161389a576ec097ce7bc90715b34b9f1000000000915050610a3c565b816ec097ce7bc90715b34b9f1000000000816138b257fe5b0491506138db565b600160601b816138cf8586600160601b613c22565b02816138d757fe5b0491505b6ec097ce7bc90715b34b9f1000000000821115613909576ec097ce7bc90715b34b9f10000000009150613913565b8161391357600191505b5092915050565b600082820183811015610b78576040805162461bcd60e51b815260206004820152601b60248201527f536166654d6174683a206164646974696f6e206f766572666c6f770000000000604482015290519081900360640190fd5b60008261398357506000610a3c565b8282028284828161399057fe5b0414610b785760405162461bcd60e51b8152600401808060200182810382526021815260200180615e646021913960400191505060405180910390fd5b6000808211613a23576040805162461bcd60e51b815260206004820152601a60248201527f536166654d6174683a206469766973696f6e206279207a65726f000000000000604482015290519081900360640190fd5b818381613a2c57fe5b049392505050565b60b581600160881b8110613a4d5760409190911b9060801c5b69010000000000000000008110613a695760209190911b9060401c5b650100000000008110613a815760109190911b9060201c5b63010000008110613a975760089190911b9060101c5b62010000010260121c80820401600190811c80830401811c80830401811c80830401811c80830401811c80830401811c80830401901c908190048111900390565b805160405163133f757160e31b815260009182916001600160a01b038616916399fbab8891613b0a9190600401615cf5565b6101806040518083038186803b158015613b2357600080fd5b505afa158015613b37573d6000803e3d6000fd5b505050506040513d601f19601f82011682018060405250810190613b5b9190614f22565b50506001600160801b039092169a505050505050505050505092915050565b6000826001600160a01b0316846001600160a01b03161115613b9a579192915b836001600160a01b0316613bd3606060ff16846001600160801b0316901b8686036001600160a01b0316866001600160a01b0316613c22565b81613bda57fe5b04949350505050565b6000826001600160a01b0316846001600160a01b03161115613c03579192915b6123fe826001600160801b03168585036001600160a01b0316600160601b5b6000808060001985870986860292508281109083900303905080613c585760008411613c4d57600080fd5b508290049050610b78565b808411613c6457600080fd5b6000848688096000868103871696879004966002600389028118808a02820302808a02820302808a02820302808a02820302808a02820302808a02909103029181900381900460010186841190950394909402919094039290920491909117919091029150509392505050565b60405180610120016040528060008152602001600060020b8152602001600060020b815260200160006001600160801b0316815260200160008152602001600081526020016000815260200160008152602001600081525090565b604051806080016040528060008152602001613d46613ec7565b8152602001613d53613ec7565b8152602001606081525090565b6040518060800160405280600081526020016000815260200160008152602001606081525090565b6040518060e00160405280600081526020016000815260200160008152602001600081526020016000815260200160008152602001606081525090565b6040518060c001604052806000815260200160008152602001600081526020016000815260200160008152602001606081525090565b60405180610100016040528060008152602001600081526020016000815260200160008152602001600081526020016000815260200160008152602001600081525090565b604080516101008101909152806000815260006020820181905260408201819052606082018190526080820181905260a0820181905260c0820181905260e09091015290565b60408051608081018252600080825260208201819052918101829052606081019190915290565b604051806040016040528060008152602001600081525090565b6040805160a081019091528060008152602001600081526020016000815260200160008152602001600081525090565b80356104d481615dd0565b80516104d481615dd0565b600082601f830112613f1d578081fd5b81356020613f32613f2d83615da7565b615d84565b82815281810190858301608080860288018501891015613f50578687fd5b865b86811015613fe15781838b031215613f68578788fd5b604080518381018181106001600160401b0382111715613f8457fe5b82528435613f9181615de5565b815284880135613fa081615e0f565b8189015284820135613fb181615e00565b8083830152506060915081850135613fc881615e00565b9181019190915285529385019391810191600101613f52565b509198975050505050505050565b600082601f830112613fff578081fd5b8151602061400f613f2d83615da7565b8281528181019085830160808086028801850189101561402d578687fd5b865b86811015613fe15781838b031215614045578788fd5b604080518381018181106001600160401b038211171561406157fe5b8252845161406e81615de5565b81528488015161407d81615e0f565b818901528482015161408e81615e00565b80838301525060609150818501516140a581615e00565b918101919091528552938501939181019160010161402f565b600082601f8301126140ce578081fd5b815160206140de613f2d83615da7565b82815281810190858301610100808602880185018910156140fd578687fd5b865b86811015613fe15781838b031215614115578788fd5b604080518381018181106001600160401b038211171561413157fe5b825261413c8561433b565b815287850151888201526141518286016142c1565b82820152606091506141648286016145a6565b8282015260809150614177828601614351565b8282015260a0915061418a828601614351565b9181019190915260c0848101519082015260e08085015190820152855293850193918101916001016140ff565b600082601f8301126141c7578081fd5b815160206141d7613f2d83615da7565b828152818101908583016101e0808602880185018910156141f6578687fd5b865b86811015613fe157828a038281121561420f578889fd5b60408051608081016001600160401b03828210818311171561422d57fe5b818452606085121561423d578c8dfd5b60e083019450818510818611171561425157fe5b50838352865181528987015160a08301528683015160c0830152815261427a8d6060880161449d565b8982015261428b8d60e0880161449d565b8282015261429d8d610160880161449d565b60608201528752505093850193918101916001016141f8565b80356104d481615de5565b80516104d481615de5565b600082601f8301126142dc578081fd5b81356001600160401b038111156142ef57fe5b614302601f8201601f1916602001615d84565b818152846020838601011115614316578283fd5b816020850160208301379081016020019190915292915050565b80356104d481615df3565b80516104d481615df3565b80356104d481615e00565b80516104d481615e00565b60006060828403121561436d578081fd5b604051606081018181106001600160401b038211171561438957fe5b80604052508091508235815260208301356020820152604083013560408201525092915050565b6000608082840312156143c1578081fd5b604051608081018181106001600160401b03821117156143dd57fe5b8060405250809150823581526020830135602082015260408301356040820152606083013560608201525092915050565b600060c0828403121561441f578081fd5b60405160c081016001600160401b03828210818311171561443c57fe5b81604052829350843583526020850135602084015260408501356040840152606085013560608401526080850135608084015260a085013591508082111561448357600080fd5b5061449085828601613f0d565b60a0830152505092915050565b6000608082840312156144ae578081fd5b604051608081018181106001600160401b03821117156144ca57fe5b8060405250809150825181526020830151602082015260408301516040820152606083015160608201525092915050565b600060e0828403121561450c578081fd5b61451660e0615d84565b9050614521826142b6565b815261452f602083016142b6565b6020820152614540604083016142b6565b6040820152614551606083016142b6565b60608201526080820135608082015260a082013560a082015260c08201356001600160401b0381111561458357600080fd5b61458f848285016142cc565b60c08301525092915050565b80356104d481615e0f565b80516104d481615e0f565b805161ffff811681146104d457600080fd5b80516104d481615e24565b6000602082840312156145df578081fd5b8135610b7881615dd0565b6000602082840312156145fb578081fd5b8151610b7881615dd0565b60006020808385031215614618578182fd5b82356001600160401b0381111561462d578283fd5b8301601f8101851361463d578283fd5b803561464b613f2d82615da7565b81815283810190838501865b848110156146805761466e8a8884358901016142cc565b84529286019290860190600101614657565b509098975050505050505050565b60006020828403121561469f578081fd5b81516001600160401b038111156146b4578182fd5b6123fe848285016140be565b6000602082840312156146d1578081fd5b8151610b7881615de5565b6000602082840312156146ed578081fd5b5035919050565b60008060408385031215614706578081fd5b505080516020909101519092909150565b600060808284031215614728578081fd5b610b7883836143b0565b6000806101008385031215614745578182fd5b61474f84846143b0565b915061475e84608085016143b0565b90509250929050565b6000806000806000858703610100811215614780578182fd5b608081121561478d578182fd5b50604051608081018181106001600160401b03821117156147aa57fe5b60405286356147b881615e24565b815260208701356147c881615dd0565b602082015260408701356147db81615dd0565b604082015260608701356147ee81615de5565b6060820152945061480160808701613ef7565b935061480f60a08701613ef7565b925061481d60c08701613ef7565b915061482b60e08701613ef7565b90509295509295909350565b600060208284031215614848578081fd5b81516001600160401b038082111561485e578283fd5b9083019060e08286031215614871578283fd5b61487b60e0615d84565b825181526020830151602082015260408301516040820152606083015160608201526080830151608082015260a083015160a082015260c0830151828111156148c2578485fd5b6148ce87828601613fef565b60c08301525095945050505050565b6000602082840312156148ee578081fd5b81516001600160401b0380821115614904578283fd5b9083019060808286031215614917578283fd5b60405160808101818110838211171561492c57fe5b806040525082518152602083015160208201526040830151604082015260608301518281111561495a578485fd5b614966878286016141b7565b60608301525095945050505050565b600080600080600080600080610100898b031215614991578586fd5b885161499c81615e0f565b80985050602089015180600f0b81146149b3578687fd5b80975050604089015195506060890151945060808901518060060b81146149d8578384fd5b60a08a01519094506149e981615dd0565b60c08a015190935063ffffffff81168114614a02578283fd5b9150614a1060e08a016142c1565b90509295985092959890939650565b600080600080600080600060e0888a031215614a39578081fd5b8751614a4481615dd0565b6020890151909750614a5581615e00565b9550614a63604089016145b1565b9450614a71606089016145b1565b9350614a7f608089016145b1565b925060a088015160ff81168114614a94578182fd5b60c0890151909250614aa581615de5565b8091505092959891949750929550565b600060208284031215614ac6578081fd5b5051919050565b60008060408385031215614adf578182fd5b8251915060208301516001600160401b03811115614afb578182fd5b614b07858286016140be565b9150509250929050565b60008060006060808587031215614b26578182fd5b843593506020808601356001600160401b0380821115614b44578485fd5b818801915088601f830112614b57578485fd5b8135614b65613f2d82615da7565b81815284810190848601610100808502870188018e1015614b8457898afd5b8996505b84871015614c395780828f031215614b9e57898afd5b604080518281018181108982111715614bb357fe5b8252614bbe84614330565b8152898401358a820152614bd38285016142b6565b82820152614be28b850161459b565b8b82015260809150614bf5828501614346565b8282015260a09150614c08828501614346565b9181019190915260c0838101359082015260e080840135908201528452600196909601959287019290810190614b88565b509098505050506040880135935080841115614c53578485fd5b505050614c62868287016144fb565b9150509250925092565b60008060008060c08587031215614c81578182fd5b843593506020808601356001600160401b0380821115614c9f578485fd5b818801915088601f830112614cb2578485fd5b8135614cc0613f2d82615da7565b81815284810190848601885b84811015614cf557614ce38e8984358a010161440e565b84529287019290870190600101614ccc565b509098505050506040880135925080831115614d0f578485fd5b5050614d1d878288016144fb565b925050614d2d866060870161435c565b905092959194509250565b60008082840360a0811215614d4b578283fd5b833592506080601f1982011215614d60578182fd5b50604051608081018181106001600160401b0382111715614d7d57fe5b80604052506020840135815260408401356020820152606084013560408201526080840135614dab81615de5565b6060820152919491935090915050565b60008060008084860360a0811215614dd1578283fd5b8535945060208601356001600160401b0380821115614dee578485fd5b614dfa89838a0161440e565b95506040880135915080821115614e0f578485fd5b614e1b89838a016144fb565b94506040605f1984011215614e2e578384fd5b60405192506040830191508282108183111715614e4757fe5b50604052606086013581526080909501356020860152509194909350909190565b600080600060a08486031215614e7c578081fd5b8335925060208401356001600160401b03811115614e98578182fd5b614ea4868287016144fb565b925050614eb4856040860161435c565b90509250925092565b60008060408385031215614ecf578182fd5b50508035926020909101359150565b60008060008060c08587031215614ef3578182fd5b843593506020850135925060408501356001600160401b03811115614f16578283fd5b614d1d878288016144fb565b6000806000806000806000806000806000806101808d8f031215614f44578586fd5b8c516bffffffffffffffffffffffff81168114614f5f578687fd5b9b50614f6d60208e01613f02565b9a50614f7b60408e01613f02565b9950614f8960608e01613f02565b9850614f9760808e016145c3565b9750614fa560a08e01614351565b9650614fb360c08e01614351565b9550614fc160e08e016145a6565b94506101008d015193506101208d01519250614fe06101408e016145a6565b9150614fef6101608e016145a6565b90509295989b509295989b509295989b565b6001600160a01b03169052565b6000815180845260208085019450808401835b8381101561504757615034878351615294565b6080969096019590820190600101615021565b509495945050505050565b6000815180845260208085019450808401835b838110156150475781518051600d811061507b57fe5b885280840151848901526040808201511515908901526060808201516150a3828b01826154b8565b50506080808201516150b7828b0182615145565b505060a0808201516150cb828b0182615145565b505060c0818101519089015260e090810151908801526101009096019590820190600101615065565b15159052565b60008151808452815b8181101561511f57602081850181015186830182015201615103565b818111156151305782602083870101525b50601f01601f19169290920160200192915050565b60020b9052565b80516003811061515857fe5b8252602081810151908301526040808201519083015260608082015190830152608090810151910152565b615196826151918354615dc4565b615001565b60018101546001600160a01b036151b260208501828416615001565b6151c76040850162ffffff8460a01c166154c5565b6151d46002840154615dc4565b91506151e36060850183615001565b6151f06003840154615dc4565b91506151ff6080850183615001565b6004830154915061521560a08501828416615001565b5061522960c0840160ff8360a01c166150f4565b50600581015460e083015261524561010083016006830161539f565b6152566102008301600e830161539f565b60168101546103008301526017015461032090910152565b805182526020810151602083015260408101516040830152606081015160608301525050565b8051151582526001600160801b036020820151166020830152604081015160020b6040830152606081015160020b60608301525050565b600060c08301825184526020808401518186015260408401516040860152606084015160608601526080808501518187015260a085015160c060a088015283815180865260e08901915084830195508692505b8083101561534557615331828751615294565b94840194600192909201919083019061531e565b50979650505050505050565b805182526020810151602083015260408101516040830152606081015160608301526080810151608083015260a081015160a083015260c081015160c083015260e081015160e08301525050565b8054825260018101546020830152600281015460408301526003810154606083015260048101546080830152600581015460a0830152600681015460c08301526007015460e090910152565b60006080830182518452602080840151818601526040840151604086015260608401516080606087015282815180855260a08801915083830194508592505b8083101561544a578451825293830193600192909201919083019061542a565b509695505050505050565b6000608083018254845260018084015460208181880152600286015460408801526003860191506080606088015283825480865260a08901915083875282872095508693505b80841015615345578554825294840194928401929082019061549b565b6001600160801b03169052565b62ffffff169052565b600292830b60e890811b82529190920b901b600382015260060190565b6001600160a01b0391909116815260200190565b6001600160a01b03929092168252602082015260400190565b60208082528251828201819052600091906040908185019080840286018301878501865b8381101561468057888303603f1901855281518051845287810151888501528681015187850152606080820151908501526080808201519085015260a09081015160c0918501829052906155928186018361500e565b96890196945050509086019060010161553c565b6000608082016080835280875180835260a0850191506020925060a0838202860101838a01855b838110156155fb57609f198884030185526155e98383516152cb565b948601949250908501906001016155cd565b50509715159285019290925250505060408101929092526001600160a01b0316606090910152919050565b901515815260200190565b951515865260208601949094526001600160a01b03928316604086015291166060840152608083015260a082015260c00190565b60029190910b815260200190565b918252602082015260400190565b602080825260029082015261503360f01b604082015260600190565b6020808252600290820152610a0760f31b604082015260600190565b6020808252600b908201526a1a5b9a5d1a585b1a5e995960aa1b604082015260600190565b60208082526017908201527f63616c6c6572206d757374206265206f70657261746f72000000000000000000604082015260600190565b60208082526003908201526221a41960e91b604082015260600190565b602080825260029082015261281960f11b604082015260600190565b928352815460208401526001820154604084015260028201546060840152600390910154608083015260a082015260c00190565b60006103a06157918388615183565b806103408401526157a4818401876153eb565b6103608401959095525050610380015292915050565b61010081016157c9828561526e565b610b78608083018461526e565b60006101208201905082518252602083015160020b6020830152604083015160020b6040830152606083015161580f60608401826154b8565b506080830151608083015260a083015160a083015260c083015160c083015260e083015160e083015261010080840151818401525092915050565b60006020825282516020830152602083015160408301526040830151606083015260608301516080830152608083015160a083015260a083015160c083015260c083015160e0808401526123fe61010084018261500e565b6000606082526158b560608301866152cb565b9315156020830152506001600160a01b0391909116604090910152919050565b600060208083526101a083018451828501528185015160406158f98187018361514c565b80870151915061590c60e087018361514c565b6060878101516101808881015280519485905285019390925085906101c08801905b808310156159895785518051151583528781015188840152848101516001600160801b03168584015285810151868401526080808201519084015260a09081015190830152948601946001929092019160c09091019061592e565b5098975050505050505050565b61020081016159a58285615351565b610b78610100830184615351565b6020808252825182820152828101516040808401919091528084015160608085019190915280850151608080860152805160a08601819052600094939184019285929160c08801905b8085101561598957855180518051845288810151898501528501518584015287810151615a2b8585018261526e565b5080850151805160e08501528881015161010085015280860151610120850152840151610140840152830151615a6561016084018261526e565b506101e08201915086860195506001850194506159fc565b6000602080835260a0830184518285015281850151604085015260408501516060850152606085015160808086015281815180845260c08701915084830193508592505b8083101561544a5783518252928401926001929092019190840190615ac1565b60006103a0808352615af5818401886153eb565b9150508460208301528360408301526130976060830184615183565b600060e08252615b2460e083018a6153eb565b8860208401528760408401528660608401528281036080840152615b488187615052565b60a084019590955250506001600160a01b039190911660c09091015295945050505050565b60006103c0808352615b81818401896153eb565b915050856020830152846040830152615b9d6060830185615183565b6001600160a01b03929092166103a09190910152949350505050565b60006103a0808352615bcd81840188615455565b915050846020830152615be36040830185615183565b8261038083015295945050505050565b600087825286602083015285604083015284606083015260c06080830152615c1e60c0830185615052565b82810360a08401528351151581526020840151151560208201526040840151151560408201526060840151615c5660608301826150f4565b506080840151608082015260a084015160a082015260c084015160e060c08301526131ed60e08301826150fa565b600086825285602083015260a06040830152615ca360a0830186615052565b606083019490945250608001529392505050565b600087825286602083015285604083015284606083015260c06080830152615ce260c0830185615052565b90508260a0830152979650505050505050565b90815260200190565b9182526001600160a01b0316602082015260400190565b9283526020830191909152604082015260600190565b600086825285602083015284604083015260018060a01b038416606083015260a06080830152615d5e60a08301846150fa565b979650505050505050565b93845260208401929092526040830152606082015260800190565b6040518181016001600160401b0381118282101715615d9f57fe5b604052919050565b60006001600160401b03821115615dba57fe5b5060209081020190565b6001600160a01b031690565b6001600160a01b0381168114611e6c57600080fd5b8015158114611e6c57600080fd5b600d8110611e6c57600080fd5b8060020b8114611e6c57600080fd5b6001600160801b0381168114611e6c57600080fd5b62ffffff81168114611e6c57600080fdfe496e697469616c697a61626c653a20636f6e747261637420697320616c726561647920696e697469616c697a6564536166654d6174683a206d756c7469706c69636174696f6e206f766572666c6f77a26469706673582212206f0332e504396393ddeef45d2536acdfa4cd54e024db355bd7849825c19bfaeb64736f6c63430007060033",
  "libraries": {
    "LiquidationLogic": "0x8f955BEa453F71744b5dEcbb6F412A539047fdB4",
    "PositionUpdater": "0x6c272999e488af31991e7c9F875f4E93b72901fc",
    "VaultLib": "0x5D7E4863a7B312F4F8449FEC3d50b9Fc9068EC8E",
    "PositionLib": "0xfDdC71cAd19Eb21f637dFA3B7d80E9Aeb1Ac372F",
    "InterestCalculator": "0xF5E200d560cE8245CD0803c9D370a675bBe8f379"
  },
  "devdoc": {
    "kind": "dev",
    "methods": {
      "checkLiquidatable(uint256)": {
        "params": {
          "_vaultId": "vault id"
        }
      },
      "forceClose(bytes[])": {
        "params": {
          "_data": "vaults data to close position"
        }
      },
      "getVaultStatus(uint256)": {
        "params": {
          "_vaultId": "vault id"
        }
      },
      "updatePosition(uint256,(uint8,uint256,bool,uint128,int24,int24,uint256,uint256)[],(bool,bool,bool,bool,int256,int256,bytes))": {
        "params": {
          "_positionUpdates": "parameters to update position",
          "_vaultId": "vault id"
        }
      }
    },
    "version": 1
  },
  "userdoc": {
    "kind": "user",
    "methods": {
      "checkLiquidatable(uint256)": {
        "notice": "Returns the flag whether a vault can be liquidated or not."
      },
      "closePosition(uint256,(uint256,uint256,uint256,uint256,uint256,(bool,uint128,int24,int24)[])[],(bool,bool,bool,bool,int256,int256,bytes),(uint256,uint256,uint256))": {
        "notice": "Closes position partially."
      },
      "closeSubVault(uint256,uint256,(bool,bool,bool,bool,int256,int256,bytes),(uint256,uint256,uint256))": {
        "notice": "Closes all positions in sub-vault."
      },
      "closeVault(uint256,(bool,bool,bool,bool,int256,int256,bytes),(uint256,uint256,uint256))": {
        "notice": "Closes all positions in a vault."
      },
      "forceClose(bytes[])": {
        "notice": "Contract owner can close positions"
      },
      "getSqrtPrice()": {
        "notice": "Gets square root of current underlying token price by quote token."
      },
      "getVaultStatus(uint256)": {
        "notice": "Returns asset value and debt value."
      },
      "liquidate(uint256,(uint256,uint256,uint256,bool))": {
        "notice": "Liquidates a vault."
      },
      "openPosition(uint256,(uint256,uint256,uint256,uint256,uint256,(bool,uint128,int24,int24)[]),(bool,bool,bool,bool,int256,int256,bytes),(uint256,uint256))": {
        "notice": "Opens new position."
      },
      "updatePosition(uint256,(uint8,uint256,bool,uint128,int24,int24,uint256,uint256)[],(bool,bool,bool,bool,int256,int256,bytes))": {
        "notice": "Update position in a vault."
      }
    },
    "version": 1
  },
  "storageLayout": {
    "storage": [
      {
        "astId": 9134,
        "contract": "src/ControllerHelper.sol:ControllerHelper",
        "label": "_initialized",
        "offset": 0,
        "slot": "0",
        "type": "t_bool"
      },
      {
        "astId": 9137,
        "contract": "src/ControllerHelper.sol:ControllerHelper",
        "label": "_initializing",
        "offset": 1,
        "slot": "0",
        "type": "t_bool"
      },
      {
        "astId": 14687,
        "contract": "src/ControllerHelper.sol:ControllerHelper",
        "label": "lastTouchedTimestamp",
        "offset": 0,
        "slot": "1",
        "type": "t_uint256"
      },
      {
        "astId": 14691,
        "contract": "src/ControllerHelper.sol:ControllerHelper",
        "label": "ranges",
        "offset": 0,
        "slot": "2",
        "type": "t_mapping(t_bytes32,t_struct(PerpStatus)17375_storage)"
      },
      {
        "astId": 14695,
        "contract": "src/ControllerHelper.sol:ControllerHelper",
        "label": "vaults",
        "offset": 0,
        "slot": "3",
        "type": "t_mapping(t_uint256,t_struct(Vault)17408_storage)"
      },
      {
        "astId": 14699,
        "contract": "src/ControllerHelper.sol:ControllerHelper",
        "label": "subVaults",
        "offset": 0,
        "slot": "4",
        "type": "t_mapping(t_uint256,t_struct(SubVault)17398_storage)"
      },
      {
        "astId": 14701,
        "contract": "src/ControllerHelper.sol:ControllerHelper",
        "label": "context",
        "offset": 0,
        "slot": "5",
        "type": "t_struct(Context)17433_storage"
      },
      {
        "astId": 14703,
        "contract": "src/ControllerHelper.sol:ControllerHelper",
        "label": "irmParams",
        "offset": 0,
        "slot": "29",
        "type": "t_struct(IRMParams)17642_storage"
      },
      {
        "astId": 14705,
        "contract": "src/ControllerHelper.sol:ControllerHelper",
        "label": "ypParams",
        "offset": 0,
        "slot": "33",
        "type": "t_struct(YearlyPremiumParams)17633_storage"
      },
      {
        "astId": 14707,
        "contract": "src/ControllerHelper.sol:ControllerHelper",
        "label": "operator",
        "offset": 0,
        "slot": "42",
        "type": "t_address"
      },
      {
        "astId": 14709,
        "contract": "src/ControllerHelper.sol:ControllerHelper",
        "label": "vaultNFT",
        "offset": 0,
        "slot": "43",
        "type": "t_address"
      }
    ],
    "types": {
      "t_address": {
        "encoding": "inplace",
        "label": "address",
        "numberOfBytes": "20"
      },
      "t_array(t_struct(LPTState)17388_storage)dyn_storage": {
        "base": "t_struct(LPTState)17388_storage",
        "encoding": "dynamic_array",
        "label": "struct DataType.LPTState[]",
        "numberOfBytes": "32"
      },
      "t_array(t_uint256)dyn_storage": {
        "base": "t_uint256",
        "encoding": "dynamic_array",
        "label": "uint256[]",
        "numberOfBytes": "32"
      },
      "t_bool": {
        "encoding": "inplace",
        "label": "bool",
        "numberOfBytes": "1"
      },
      "t_bytes32": {
        "encoding": "inplace",
        "label": "bytes32",
        "numberOfBytes": "32"
      },
      "t_enum(InterestType)16362": {
        "encoding": "inplace",
        "label": "enum BaseToken.InterestType",
        "numberOfBytes": "1"
      },
      "t_int24": {
        "encoding": "inplace",
        "label": "int24",
        "numberOfBytes": "3"
      },
      "t_mapping(t_bytes32,t_struct(PerpStatus)17375_storage)": {
        "encoding": "mapping",
        "key": "t_bytes32",
        "label": "mapping(bytes32 => struct DataType.PerpStatus)",
        "numberOfBytes": "32",
        "value": "t_struct(PerpStatus)17375_storage"
      },
      "t_mapping(t_bytes32,t_struct(TickSnapshot)17619_storage)": {
        "encoding": "mapping",
        "key": "t_bytes32",
        "label": "mapping(bytes32 => struct InterestCalculator.TickSnapshot)",
        "numberOfBytes": "32",
        "value": "t_struct(TickSnapshot)17619_storage"
      },
      "t_mapping(t_uint256,t_struct(SubVault)17398_storage)": {
        "encoding": "mapping",
        "key": "t_uint256",
        "label": "mapping(uint256 => struct DataType.SubVault)",
        "numberOfBytes": "32",
        "value": "t_struct(SubVault)17398_storage"
      },
      "t_mapping(t_uint256,t_struct(Vault)17408_storage)": {
        "encoding": "mapping",
        "key": "t_uint256",
        "label": "mapping(uint256 => struct DataType.Vault)",
        "numberOfBytes": "32",
        "value": "t_struct(Vault)17408_storage"
      },
      "t_struct(AccountState)16390_storage": {
        "encoding": "inplace",
        "label": "struct BaseToken.AccountState",
        "members": [
          {
            "astId": 16381,
            "contract": "src/ControllerHelper.sol:ControllerHelper",
            "label": "interestType",
            "offset": 0,
            "slot": "0",
            "type": "t_enum(InterestType)16362"
          },
          {
            "astId": 16383,
            "contract": "src/ControllerHelper.sol:ControllerHelper",
            "label": "assetAmount",
            "offset": 0,
            "slot": "1",
            "type": "t_uint256"
          },
          {
            "astId": 16385,
            "contract": "src/ControllerHelper.sol:ControllerHelper",
            "label": "debtAmount",
            "offset": 0,
            "slot": "2",
            "type": "t_uint256"
          },
          {
            "astId": 16387,
            "contract": "src/ControllerHelper.sol:ControllerHelper",
            "label": "lastAssetGrowth",
            "offset": 0,
            "slot": "3",
            "type": "t_uint256"
          },
          {
            "astId": 16389,
            "contract": "src/ControllerHelper.sol:ControllerHelper",
            "label": "lastDebtGrowth",
            "offset": 0,
            "slot": "4",
            "type": "t_uint256"
          }
        ],
        "numberOfBytes": "160"
      },
      "t_struct(Context)17433_storage": {
        "encoding": "inplace",
        "label": "struct DataType.Context",
        "members": [
          {
            "astId": 17410,
            "contract": "src/ControllerHelper.sol:ControllerHelper",
            "label": "token0",
            "offset": 0,
            "slot": "0",
            "type": "t_address"
          },
          {
            "astId": 17412,
            "contract": "src/ControllerHelper.sol:ControllerHelper",
            "label": "token1",
            "offset": 0,
            "slot": "1",
            "type": "t_address"
          },
          {
            "astId": 17414,
            "contract": "src/ControllerHelper.sol:ControllerHelper",
            "label": "feeTier",
            "offset": 20,
            "slot": "1",
            "type": "t_uint24"
          },
          {
            "astId": 17416,
            "contract": "src/ControllerHelper.sol:ControllerHelper",
            "label": "positionManager",
            "offset": 0,
            "slot": "2",
            "type": "t_address"
          },
          {
            "astId": 17418,
            "contract": "src/ControllerHelper.sol:ControllerHelper",
            "label": "swapRouter",
            "offset": 0,
            "slot": "3",
            "type": "t_address"
          },
          {
            "astId": 17420,
            "contract": "src/ControllerHelper.sol:ControllerHelper",
            "label": "uniswapPool",
            "offset": 0,
            "slot": "4",
            "type": "t_address"
          },
          {
            "astId": 17422,
            "contract": "src/ControllerHelper.sol:ControllerHelper",
            "label": "isMarginZero",
            "offset": 20,
            "slot": "4",
            "type": "t_bool"
          },
          {
            "astId": 17424,
            "contract": "src/ControllerHelper.sol:ControllerHelper",
            "label": "nextSubVaultId",
            "offset": 0,
            "slot": "5",
            "type": "t_uint256"
          },
          {
            "astId": 17426,
            "contract": "src/ControllerHelper.sol:ControllerHelper",
            "label": "tokenState0",
            "offset": 0,
            "slot": "6",
            "type": "t_struct(TokenState)16379_storage"
          },
          {
            "astId": 17428,
            "contract": "src/ControllerHelper.sol:ControllerHelper",
            "label": "tokenState1",
            "offset": 0,
            "slot": "14",
            "type": "t_struct(TokenState)16379_storage"
          },
          {
            "astId": 17430,
            "contract": "src/ControllerHelper.sol:ControllerHelper",
            "label": "accumuratedProtocolFee0",
            "offset": 0,
            "slot": "22",
            "type": "t_uint256"
          },
          {
            "astId": 17432,
            "contract": "src/ControllerHelper.sol:ControllerHelper",
            "label": "accumuratedProtocolFee1",
            "offset": 0,
            "slot": "23",
            "type": "t_uint256"
          }
        ],
        "numberOfBytes": "768"
      },
      "t_struct(IRMParams)17642_storage": {
        "encoding": "inplace",
        "label": "struct InterestCalculator.IRMParams",
        "members": [
          {
            "astId": 17635,
            "contract": "src/ControllerHelper.sol:ControllerHelper",
            "label": "baseRate",
            "offset": 0,
            "slot": "0",
            "type": "t_uint256"
          },
          {
            "astId": 17637,
            "contract": "src/ControllerHelper.sol:ControllerHelper",
            "label": "kinkRate",
            "offset": 0,
            "slot": "1",
            "type": "t_uint256"
          },
          {
            "astId": 17639,
            "contract": "src/ControllerHelper.sol:ControllerHelper",
            "label": "slope1",
            "offset": 0,
            "slot": "2",
            "type": "t_uint256"
          },
          {
            "astId": 17641,
            "contract": "src/ControllerHelper.sol:ControllerHelper",
            "label": "slope2",
            "offset": 0,
            "slot": "3",
            "type": "t_uint256"
          }
        ],
        "numberOfBytes": "128"
      },
      "t_struct(LPTState)17388_storage": {
        "encoding": "inplace",
        "label": "struct DataType.LPTState",
        "members": [
          {
            "astId": 17377,
            "contract": "src/ControllerHelper.sol:ControllerHelper",
            "label": "isCollateral",
            "offset": 0,
            "slot": "0",
            "type": "t_bool"
          },
          {
            "astId": 17379,
            "contract": "src/ControllerHelper.sol:ControllerHelper",
            "label": "rangeId",
            "offset": 0,
            "slot": "1",
            "type": "t_bytes32"
          },
          {
            "astId": 17381,
            "contract": "src/ControllerHelper.sol:ControllerHelper",
            "label": "liquidityAmount",
            "offset": 0,
            "slot": "2",
            "type": "t_uint128"
          },
          {
            "astId": 17383,
            "contract": "src/ControllerHelper.sol:ControllerHelper",
            "label": "premiumGrowthLast",
            "offset": 0,
            "slot": "3",
            "type": "t_uint256"
          },
          {
            "astId": 17385,
            "contract": "src/ControllerHelper.sol:ControllerHelper",
            "label": "fee0Last",
            "offset": 0,
            "slot": "4",
            "type": "t_uint256"
          },
          {
            "astId": 17387,
            "contract": "src/ControllerHelper.sol:ControllerHelper",
            "label": "fee1Last",
            "offset": 0,
            "slot": "5",
            "type": "t_uint256"
          }
        ],
        "numberOfBytes": "192"
      },
      "t_struct(PerpStatus)17375_storage": {
        "encoding": "inplace",
        "label": "struct DataType.PerpStatus",
        "members": [
          {
            "astId": 17358,
            "contract": "src/ControllerHelper.sol:ControllerHelper",
            "label": "tokenId",
            "offset": 0,
            "slot": "0",
            "type": "t_uint256"
          },
          {
            "astId": 17360,
            "contract": "src/ControllerHelper.sol:ControllerHelper",
            "label": "lowerTick",
            "offset": 0,
            "slot": "1",
            "type": "t_int24"
          },
          {
            "astId": 17362,
            "contract": "src/ControllerHelper.sol:ControllerHelper",
            "label": "upperTick",
            "offset": 3,
            "slot": "1",
            "type": "t_int24"
          },
          {
            "astId": 17364,
            "contract": "src/ControllerHelper.sol:ControllerHelper",
            "label": "borrowedLiquidity",
            "offset": 6,
            "slot": "1",
            "type": "t_uint128"
          },
          {
            "astId": 17366,
            "contract": "src/ControllerHelper.sol:ControllerHelper",
            "label": "premiumGrowthForBorrower",
            "offset": 0,
            "slot": "2",
            "type": "t_uint256"
          },
          {
            "astId": 17368,
            "contract": "src/ControllerHelper.sol:ControllerHelper",
            "label": "premiumGrowthForLender",
            "offset": 0,
            "slot": "3",
            "type": "t_uint256"
          },
          {
            "astId": 17370,
            "contract": "src/ControllerHelper.sol:ControllerHelper",
            "label": "fee0Growth",
            "offset": 0,
            "slot": "4",
            "type": "t_uint256"
          },
          {
            "astId": 17372,
            "contract": "src/ControllerHelper.sol:ControllerHelper",
            "label": "fee1Growth",
            "offset": 0,
            "slot": "5",
            "type": "t_uint256"
          },
          {
            "astId": 17374,
            "contract": "src/ControllerHelper.sol:ControllerHelper",
            "label": "lastTouchedTimestamp",
            "offset": 0,
            "slot": "6",
            "type": "t_uint256"
          }
        ],
        "numberOfBytes": "224"
      },
      "t_struct(SubVault)17398_storage": {
        "encoding": "inplace",
        "label": "struct DataType.SubVault",
        "members": [
          {
            "astId": 17390,
            "contract": "src/ControllerHelper.sol:ControllerHelper",
            "label": "id",
            "offset": 0,
            "slot": "0",
            "type": "t_uint256"
          },
          {
            "astId": 17392,
            "contract": "src/ControllerHelper.sol:ControllerHelper",
            "label": "balance0",
            "offset": 0,
            "slot": "1",
            "type": "t_struct(AccountState)16390_storage"
          },
          {
            "astId": 17394,
            "contract": "src/ControllerHelper.sol:ControllerHelper",
            "label": "balance1",
            "offset": 0,
            "slot": "6",
            "type": "t_struct(AccountState)16390_storage"
          },
          {
            "astId": 17397,
            "contract": "src/ControllerHelper.sol:ControllerHelper",
            "label": "lpts",
            "offset": 0,
            "slot": "11",
            "type": "t_array(t_struct(LPTState)17388_storage)dyn_storage"
          }
        ],
        "numberOfBytes": "384"
      },
      "t_struct(TickSnapshot)17619_storage": {
        "encoding": "inplace",
        "label": "struct InterestCalculator.TickSnapshot",
        "members": [
          {
            "astId": 17612,
            "contract": "src/ControllerHelper.sol:ControllerHelper",
            "label": "lastFeeGrowthInside0X128",
            "offset": 0,
            "slot": "0",
            "type": "t_uint256"
          },
          {
            "astId": 17614,
            "contract": "src/ControllerHelper.sol:ControllerHelper",
            "label": "lastFeeGrowthInside1X128",
            "offset": 0,
            "slot": "1",
            "type": "t_uint256"
          },
          {
            "astId": 17616,
            "contract": "src/ControllerHelper.sol:ControllerHelper",
            "label": "lastFeeGrowthGlobal0X128",
            "offset": 0,
            "slot": "2",
            "type": "t_uint256"
          },
          {
            "astId": 17618,
            "contract": "src/ControllerHelper.sol:ControllerHelper",
            "label": "lastFeeGrowthGlobal1X128",
            "offset": 0,
            "slot": "3",
            "type": "t_uint256"
          }
        ],
        "numberOfBytes": "128"
      },
      "t_struct(TokenState)16379_storage": {
        "encoding": "inplace",
        "label": "struct BaseToken.TokenState",
        "members": [
          {
            "astId": 16364,
            "contract": "src/ControllerHelper.sol:ControllerHelper",
            "label": "totalCompoundDeposited",
            "offset": 0,
            "slot": "0",
            "type": "t_uint256"
          },
          {
            "astId": 16366,
            "contract": "src/ControllerHelper.sol:ControllerHelper",
            "label": "totalCompoundBorrowed",
            "offset": 0,
            "slot": "1",
            "type": "t_uint256"
          },
          {
            "astId": 16368,
            "contract": "src/ControllerHelper.sol:ControllerHelper",
            "label": "totalNormalDeposited",
            "offset": 0,
            "slot": "2",
            "type": "t_uint256"
          },
          {
            "astId": 16370,
            "contract": "src/ControllerHelper.sol:ControllerHelper",
            "label": "totalNormalBorrowed",
            "offset": 0,
            "slot": "3",
            "type": "t_uint256"
          },
          {
            "astId": 16372,
            "contract": "src/ControllerHelper.sol:ControllerHelper",
            "label": "assetScaler",
            "offset": 0,
            "slot": "4",
            "type": "t_uint256"
          },
          {
            "astId": 16374,
            "contract": "src/ControllerHelper.sol:ControllerHelper",
            "label": "debtScaler",
            "offset": 0,
            "slot": "5",
            "type": "t_uint256"
          },
          {
            "astId": 16376,
            "contract": "src/ControllerHelper.sol:ControllerHelper",
            "label": "assetGrowth",
            "offset": 0,
            "slot": "6",
            "type": "t_uint256"
          },
          {
            "astId": 16378,
            "contract": "src/ControllerHelper.sol:ControllerHelper",
            "label": "debtGrowth",
            "offset": 0,
            "slot": "7",
            "type": "t_uint256"
          }
        ],
        "numberOfBytes": "256"
      },
      "t_struct(Vault)17408_storage": {
        "encoding": "inplace",
        "label": "struct DataType.Vault",
        "members": [
          {
            "astId": 17400,
            "contract": "src/ControllerHelper.sol:ControllerHelper",
            "label": "vaultId",
            "offset": 0,
            "slot": "0",
            "type": "t_uint256"
          },
          {
            "astId": 17402,
            "contract": "src/ControllerHelper.sol:ControllerHelper",
            "label": "marginAmount0",
            "offset": 0,
            "slot": "1",
            "type": "t_uint256"
          },
          {
            "astId": 17404,
            "contract": "src/ControllerHelper.sol:ControllerHelper",
            "label": "marginAmount1",
            "offset": 0,
            "slot": "2",
            "type": "t_uint256"
          },
          {
            "astId": 17407,
            "contract": "src/ControllerHelper.sol:ControllerHelper",
            "label": "subVaults",
            "offset": 0,
            "slot": "3",
            "type": "t_array(t_uint256)dyn_storage"
          }
        ],
        "numberOfBytes": "128"
      },
      "t_struct(YearlyPremiumParams)17633_storage": {
        "encoding": "inplace",
        "label": "struct InterestCalculator.YearlyPremiumParams",
        "members": [
          {
            "astId": 17626,
            "contract": "src/ControllerHelper.sol:ControllerHelper",
            "label": "premiumParams",
            "offset": 0,
            "slot": "0",
            "type": "t_struct(IRMParams)17642_storage"
          },
          {
            "astId": 17628,
            "contract": "src/ControllerHelper.sol:ControllerHelper",
            "label": "irmParams",
            "offset": 0,
            "slot": "4",
            "type": "t_struct(IRMParams)17642_storage"
          },
          {
            "astId": 17632,
            "contract": "src/ControllerHelper.sol:ControllerHelper",
            "label": "snapshots",
            "offset": 0,
            "slot": "8",
            "type": "t_mapping(t_bytes32,t_struct(TickSnapshot)17619_storage)"
          }
        ],
        "numberOfBytes": "288"
      },
      "t_uint128": {
        "encoding": "inplace",
        "label": "uint128",
        "numberOfBytes": "16"
      },
      "t_uint24": {
        "encoding": "inplace",
        "label": "uint24",
        "numberOfBytes": "3"
      },
      "t_uint256": {
        "encoding": "inplace",
        "label": "uint256",
        "numberOfBytes": "32"
      }
    }
  }
}