{
  "address": "0x4A47d38a4638D4563Bc61c7E611527d3B57383d6",
  "abi": [
    {
      "inputs": [],
      "stateMutability": "nonpayable",
      "type": "constructor"
    },
    {
      "anonymous": false,
      "inputs": [
        {
          "indexed": false,
          "internalType": "uint256",
          "name": "vaultId",
          "type": "uint256"
        },
        {
          "components": [
            {
              "internalType": "int256",
              "name": "amount0",
              "type": "int256"
            },
            {
              "internalType": "int256",
              "name": "amount1",
              "type": "int256"
            }
          ],
          "indexed": false,
          "internalType": "struct DataType.TokenAmounts",
          "name": "requiredAmounts",
          "type": "tuple"
        },
        {
          "components": [
            {
              "internalType": "int256",
              "name": "amount0",
              "type": "int256"
            },
            {
              "internalType": "int256",
              "name": "amount1",
              "type": "int256"
            }
          ],
          "indexed": false,
          "internalType": "struct DataType.TokenAmounts",
          "name": "swapAmounts",
          "type": "tuple"
        },
        {
          "indexed": false,
          "internalType": "bytes",
          "name": "metadata",
          "type": "bytes"
        }
      ],
      "name": "PositionUpdated",
      "type": "event"
    },
    {
      "anonymous": false,
      "inputs": [
        {
          "indexed": false,
          "internalType": "uint256",
          "name": "vaultId",
          "type": "uint256"
        },
        {
          "indexed": false,
          "internalType": "address",
          "name": "owner",
          "type": "address"
        }
      ],
      "name": "VaultCreated",
      "type": "event"
    },
    {
      "inputs": [
        {
          "internalType": "bytes32",
          "name": "_rangeId",
          "type": "bytes32"
        },
        {
          "internalType": "uint256",
          "name": "_utilizationRatio",
          "type": "uint256"
        }
      ],
      "name": "calculateYearlyPremium",
      "outputs": [
        {
          "internalType": "uint256",
          "name": "",
          "type": "uint256"
        }
      ],
      "stateMutability": "view",
      "type": "function"
    },
    {
      "inputs": [
        {
          "internalType": "uint256",
          "name": "_vaultId",
          "type": "uint256"
        }
      ],
      "name": "checkLiquidatable",
      "outputs": [
        {
          "internalType": "bool",
          "name": "",
          "type": "bool"
        }
      ],
      "stateMutability": "nonpayable",
      "type": "function"
    },
    {
      "inputs": [
        {
          "internalType": "uint256",
          "name": "_vaultId",
          "type": "uint256"
        },
        {
          "components": [
            {
              "internalType": "uint256",
              "name": "subVaultIndex",
              "type": "uint256"
            },
            {
              "internalType": "uint256",
              "name": "asset0",
              "type": "uint256"
            },
            {
              "internalType": "uint256",
              "name": "asset1",
              "type": "uint256"
            },
            {
              "internalType": "uint256",
              "name": "debt0",
              "type": "uint256"
            },
            {
              "internalType": "uint256",
              "name": "debt1",
              "type": "uint256"
            },
            {
              "components": [
                {
                  "internalType": "bool",
                  "name": "isCollateral",
                  "type": "bool"
                },
                {
                  "internalType": "uint128",
                  "name": "liquidity",
                  "type": "uint128"
                },
                {
                  "internalType": "int24",
                  "name": "lowerTick",
                  "type": "int24"
                },
                {
                  "internalType": "int24",
                  "name": "upperTick",
                  "type": "int24"
                }
              ],
              "internalType": "struct DataType.LPT[]",
              "name": "lpts",
              "type": "tuple[]"
            }
          ],
          "internalType": "struct DataType.Position[]",
          "name": "_positions",
          "type": "tuple[]"
        },
        {
          "components": [
            {
              "internalType": "bool",
              "name": "reduceOnly",
              "type": "bool"
            },
            {
              "internalType": "bool",
              "name": "swapAnyway",
              "type": "bool"
            },
            {
              "internalType": "bool",
              "name": "quoterMode",
              "type": "bool"
            },
            {
              "internalType": "bool",
              "name": "isQuoteZero",
              "type": "bool"
            },
            {
              "internalType": "int256",
              "name": "targetMarginAmount0",
              "type": "int256"
            },
            {
              "internalType": "int256",
              "name": "targetMarginAmount1",
              "type": "int256"
            },
            {
              "internalType": "bytes",
              "name": "metadata",
              "type": "bytes"
            }
          ],
          "internalType": "struct DataType.TradeOption",
          "name": "_tradeOption",
          "type": "tuple"
        },
        {
          "components": [
            {
              "internalType": "uint256",
              "name": "lowerSqrtPrice",
              "type": "uint256"
            },
            {
              "internalType": "uint256",
              "name": "upperSqrtPrice",
              "type": "uint256"
            },
            {
              "internalType": "uint256",
              "name": "swapRatio",
              "type": "uint256"
            },
            {
              "internalType": "uint256",
              "name": "closeRatio",
              "type": "uint256"
            },
            {
              "internalType": "uint24",
              "name": "feeTier",
              "type": "uint24"
            }
          ],
          "internalType": "struct DataType.ClosePositionOption",
          "name": "_closePositionOptions",
          "type": "tuple"
        }
      ],
      "name": "closePosition",
      "outputs": [
        {
          "components": [
            {
              "internalType": "int256",
              "name": "amount0",
              "type": "int256"
            },
            {
              "internalType": "int256",
              "name": "amount1",
              "type": "int256"
            }
          ],
          "internalType": "struct DataType.TokenAmounts",
          "name": "requiredAmounts",
          "type": "tuple"
        },
        {
          "components": [
            {
              "internalType": "int256",
              "name": "amount0",
              "type": "int256"
            },
            {
              "internalType": "int256",
              "name": "amount1",
              "type": "int256"
            }
          ],
          "internalType": "struct DataType.TokenAmounts",
          "name": "swapAmounts",
          "type": "tuple"
        }
      ],
      "stateMutability": "nonpayable",
      "type": "function"
    },
    {
      "inputs": [
        {
          "internalType": "uint256",
          "name": "_vaultId",
          "type": "uint256"
        },
        {
          "internalType": "uint256",
          "name": "_subVaultIndex",
          "type": "uint256"
        },
        {
          "components": [
            {
              "internalType": "bool",
              "name": "reduceOnly",
              "type": "bool"
            },
            {
              "internalType": "bool",
              "name": "swapAnyway",
              "type": "bool"
            },
            {
              "internalType": "bool",
              "name": "quoterMode",
              "type": "bool"
            },
            {
              "internalType": "bool",
              "name": "isQuoteZero",
              "type": "bool"
            },
            {
              "internalType": "int256",
              "name": "targetMarginAmount0",
              "type": "int256"
            },
            {
              "internalType": "int256",
              "name": "targetMarginAmount1",
              "type": "int256"
            },
            {
              "internalType": "bytes",
              "name": "metadata",
              "type": "bytes"
            }
          ],
          "internalType": "struct DataType.TradeOption",
          "name": "_tradeOption",
          "type": "tuple"
        },
        {
          "components": [
            {
              "internalType": "uint256",
              "name": "lowerSqrtPrice",
              "type": "uint256"
            },
            {
              "internalType": "uint256",
              "name": "upperSqrtPrice",
              "type": "uint256"
            },
            {
              "internalType": "uint256",
              "name": "swapRatio",
              "type": "uint256"
            },
            {
              "internalType": "uint256",
              "name": "closeRatio",
              "type": "uint256"
            },
            {
              "internalType": "uint24",
              "name": "feeTier",
              "type": "uint24"
            }
          ],
          "internalType": "struct DataType.ClosePositionOption",
          "name": "_closePositionOptions",
          "type": "tuple"
        }
      ],
      "name": "closeSubVault",
      "outputs": [
        {
          "components": [
            {
              "internalType": "int256",
              "name": "amount0",
              "type": "int256"
            },
            {
              "internalType": "int256",
              "name": "amount1",
              "type": "int256"
            }
          ],
          "internalType": "struct DataType.TokenAmounts",
          "name": "requiredAmounts",
          "type": "tuple"
        },
        {
          "components": [
            {
              "internalType": "int256",
              "name": "amount0",
              "type": "int256"
            },
            {
              "internalType": "int256",
              "name": "amount1",
              "type": "int256"
            }
          ],
          "internalType": "struct DataType.TokenAmounts",
          "name": "swapAmounts",
          "type": "tuple"
        }
      ],
      "stateMutability": "nonpayable",
      "type": "function"
    },
    {
      "inputs": [
        {
          "internalType": "uint256",
          "name": "_vaultId",
          "type": "uint256"
        },
        {
          "components": [
            {
              "internalType": "bool",
              "name": "reduceOnly",
              "type": "bool"
            },
            {
              "internalType": "bool",
              "name": "swapAnyway",
              "type": "bool"
            },
            {
              "internalType": "bool",
              "name": "quoterMode",
              "type": "bool"
            },
            {
              "internalType": "bool",
              "name": "isQuoteZero",
              "type": "bool"
            },
            {
              "internalType": "int256",
              "name": "targetMarginAmount0",
              "type": "int256"
            },
            {
              "internalType": "int256",
              "name": "targetMarginAmount1",
              "type": "int256"
            },
            {
              "internalType": "bytes",
              "name": "metadata",
              "type": "bytes"
            }
          ],
          "internalType": "struct DataType.TradeOption",
          "name": "_tradeOption",
          "type": "tuple"
        },
        {
          "components": [
            {
              "internalType": "uint256",
              "name": "lowerSqrtPrice",
              "type": "uint256"
            },
            {
              "internalType": "uint256",
              "name": "upperSqrtPrice",
              "type": "uint256"
            },
            {
              "internalType": "uint256",
              "name": "swapRatio",
              "type": "uint256"
            },
            {
              "internalType": "uint256",
              "name": "closeRatio",
              "type": "uint256"
            },
            {
              "internalType": "uint24",
              "name": "feeTier",
              "type": "uint24"
            }
          ],
          "internalType": "struct DataType.ClosePositionOption",
          "name": "_closePositionOptions",
          "type": "tuple"
        }
      ],
      "name": "closeVault",
      "outputs": [
        {
          "components": [
            {
              "internalType": "int256",
              "name": "amount0",
              "type": "int256"
            },
            {
              "internalType": "int256",
              "name": "amount1",
              "type": "int256"
            }
          ],
          "internalType": "struct DataType.TokenAmounts",
          "name": "requiredAmounts",
          "type": "tuple"
        },
        {
          "components": [
            {
              "internalType": "int256",
              "name": "amount0",
              "type": "int256"
            },
            {
              "internalType": "int256",
              "name": "amount1",
              "type": "int256"
            }
          ],
          "internalType": "struct DataType.TokenAmounts",
          "name": "swapAmounts",
          "type": "tuple"
        }
      ],
      "stateMutability": "nonpayable",
      "type": "function"
    },
    {
      "inputs": [
        {
          "internalType": "bytes[]",
          "name": "_data",
          "type": "bytes[]"
        }
      ],
      "name": "forceClose",
      "outputs": [],
      "stateMutability": "nonpayable",
      "type": "function"
    },
    {
      "inputs": [],
      "name": "getContext",
      "outputs": [
        {
          "internalType": "bool",
          "name": "",
          "type": "bool"
        },
        {
          "internalType": "uint256",
          "name": "",
          "type": "uint256"
        },
        {
          "internalType": "address",
          "name": "",
          "type": "address"
        },
        {
          "internalType": "uint256",
          "name": "",
          "type": "uint256"
        },
        {
          "internalType": "uint256",
          "name": "",
          "type": "uint256"
        }
      ],
      "stateMutability": "view",
      "type": "function"
    },
    {
      "inputs": [
        {
          "internalType": "uint256",
          "name": "_vaultId",
          "type": "uint256"
        }
      ],
      "name": "getPosition",
      "outputs": [
        {
          "components": [
            {
              "internalType": "uint256",
              "name": "subVaultIndex",
              "type": "uint256"
            },
            {
              "internalType": "uint256",
              "name": "asset0",
              "type": "uint256"
            },
            {
              "internalType": "uint256",
              "name": "asset1",
              "type": "uint256"
            },
            {
              "internalType": "uint256",
              "name": "debt0",
              "type": "uint256"
            },
            {
              "internalType": "uint256",
              "name": "debt1",
              "type": "uint256"
            },
            {
              "components": [
                {
                  "internalType": "bool",
                  "name": "isCollateral",
                  "type": "bool"
                },
                {
                  "internalType": "uint128",
                  "name": "liquidity",
                  "type": "uint128"
                },
                {
                  "internalType": "int24",
                  "name": "lowerTick",
                  "type": "int24"
                },
                {
                  "internalType": "int24",
                  "name": "upperTick",
                  "type": "int24"
                }
              ],
              "internalType": "struct DataType.LPT[]",
              "name": "lpts",
              "type": "tuple[]"
            }
          ],
          "internalType": "struct DataType.Position[]",
          "name": "",
          "type": "tuple[]"
        }
      ],
      "stateMutability": "view",
      "type": "function"
    },
    {
      "inputs": [
        {
          "internalType": "uint256",
          "name": "_vaultId",
          "type": "uint256"
        }
      ],
      "name": "getPositionCalculatorParams",
      "outputs": [
        {
          "components": [
            {
              "internalType": "int256",
              "name": "marginAmount0",
              "type": "int256"
            },
            {
              "internalType": "int256",
              "name": "marginAmount1",
              "type": "int256"
            },
            {
              "internalType": "uint256",
              "name": "asset0",
              "type": "uint256"
            },
            {
              "internalType": "uint256",
              "name": "asset1",
              "type": "uint256"
            },
            {
              "internalType": "uint256",
              "name": "debt0",
              "type": "uint256"
            },
            {
              "internalType": "uint256",
              "name": "debt1",
              "type": "uint256"
            },
            {
              "components": [
                {
                  "internalType": "bool",
                  "name": "isCollateral",
                  "type": "bool"
                },
                {
                  "internalType": "uint128",
                  "name": "liquidity",
                  "type": "uint128"
                },
                {
                  "internalType": "int24",
                  "name": "lowerTick",
                  "type": "int24"
                },
                {
                  "internalType": "int24",
                  "name": "upperTick",
                  "type": "int24"
                }
              ],
              "internalType": "struct DataType.LPT[]",
              "name": "lpts",
              "type": "tuple[]"
            }
          ],
          "internalType": "struct PositionCalculator.PositionCalculatorParams",
          "name": "",
          "type": "tuple"
        }
      ],
      "stateMutability": "view",
      "type": "function"
    },
    {
      "inputs": [
        {
          "internalType": "bytes32",
          "name": "_rangeId",
          "type": "bytes32"
        }
      ],
      "name": "getRange",
      "outputs": [
        {
          "components": [
            {
              "internalType": "int24",
              "name": "lowerTick",
              "type": "int24"
            },
            {
              "internalType": "int24",
              "name": "upperTick",
              "type": "int24"
            },
            {
              "internalType": "uint128",
              "name": "borrowedLiquidity",
              "type": "uint128"
            },
            {
              "internalType": "uint256",
              "name": "premiumGrowthForBorrower",
              "type": "uint256"
            },
            {
              "internalType": "uint256",
              "name": "premiumGrowthForLender",
              "type": "uint256"
            },
            {
              "internalType": "uint256",
              "name": "fee0Growth",
              "type": "uint256"
            },
            {
              "internalType": "uint256",
              "name": "fee1Growth",
              "type": "uint256"
            },
            {
              "internalType": "uint256",
              "name": "lastTouchedTimestamp",
              "type": "uint256"
            }
          ],
          "internalType": "struct DataType.PerpStatus",
          "name": "",
          "type": "tuple"
        }
      ],
      "stateMutability": "view",
      "type": "function"
    },
    {
      "inputs": [],
      "name": "getSqrtPrice",
      "outputs": [
        {
          "internalType": "uint160",
          "name": "sqrtPriceX96",
          "type": "uint160"
        }
      ],
      "stateMutability": "view",
      "type": "function"
    },
    {
      "inputs": [
        {
          "internalType": "uint256",
          "name": "_subVaultId",
          "type": "uint256"
        }
      ],
      "name": "getSubVault",
      "outputs": [
        {
          "components": [
            {
              "internalType": "uint256",
              "name": "id",
              "type": "uint256"
            },
            {
              "components": [
                {
                  "internalType": "enum BaseToken.InterestType",
                  "name": "interestType",
                  "type": "uint8"
                },
                {
                  "internalType": "uint256",
                  "name": "assetAmount",
                  "type": "uint256"
                },
                {
                  "internalType": "uint256",
                  "name": "debtAmount",
                  "type": "uint256"
                },
                {
                  "internalType": "uint256",
                  "name": "lastAssetGrowth",
                  "type": "uint256"
                },
                {
                  "internalType": "uint256",
                  "name": "lastDebtGrowth",
                  "type": "uint256"
                }
              ],
              "internalType": "struct BaseToken.AccountState",
              "name": "balance0",
              "type": "tuple"
            },
            {
              "components": [
                {
                  "internalType": "enum BaseToken.InterestType",
                  "name": "interestType",
                  "type": "uint8"
                },
                {
                  "internalType": "uint256",
                  "name": "assetAmount",
                  "type": "uint256"
                },
                {
                  "internalType": "uint256",
                  "name": "debtAmount",
                  "type": "uint256"
                },
                {
                  "internalType": "uint256",
                  "name": "lastAssetGrowth",
                  "type": "uint256"
                },
                {
                  "internalType": "uint256",
                  "name": "lastDebtGrowth",
                  "type": "uint256"
                }
              ],
              "internalType": "struct BaseToken.AccountState",
              "name": "balance1",
              "type": "tuple"
            },
            {
              "components": [
                {
                  "internalType": "bool",
                  "name": "isCollateral",
                  "type": "bool"
                },
                {
                  "internalType": "bytes32",
                  "name": "rangeId",
                  "type": "bytes32"
                },
                {
                  "internalType": "uint128",
                  "name": "liquidityAmount",
                  "type": "uint128"
                },
                {
                  "internalType": "uint256",
                  "name": "premiumGrowthLast",
                  "type": "uint256"
                },
                {
                  "internalType": "uint256",
                  "name": "fee0Last",
                  "type": "uint256"
                },
                {
                  "internalType": "uint256",
                  "name": "fee1Last",
                  "type": "uint256"
                }
              ],
              "internalType": "struct DataType.LPTState[]",
              "name": "lpts",
              "type": "tuple[]"
            }
          ],
          "internalType": "struct DataType.SubVault",
          "name": "",
          "type": "tuple"
        }
      ],
      "stateMutability": "view",
      "type": "function"
    },
    {
      "inputs": [],
      "name": "getTokenState",
      "outputs": [
        {
          "components": [
            {
              "internalType": "uint256",
              "name": "totalCompoundDeposited",
              "type": "uint256"
            },
            {
              "internalType": "uint256",
              "name": "totalCompoundBorrowed",
              "type": "uint256"
            },
            {
              "internalType": "uint256",
              "name": "totalNormalDeposited",
              "type": "uint256"
            },
            {
              "internalType": "uint256",
              "name": "totalNormalBorrowed",
              "type": "uint256"
            },
            {
              "internalType": "uint256",
              "name": "assetScaler",
              "type": "uint256"
            },
            {
              "internalType": "uint256",
              "name": "debtScaler",
              "type": "uint256"
            },
            {
              "internalType": "uint256",
              "name": "assetGrowth",
              "type": "uint256"
            },
            {
              "internalType": "uint256",
              "name": "debtGrowth",
              "type": "uint256"
            }
          ],
          "internalType": "struct BaseToken.TokenState",
          "name": "",
          "type": "tuple"
        },
        {
          "components": [
            {
              "internalType": "uint256",
              "name": "totalCompoundDeposited",
              "type": "uint256"
            },
            {
              "internalType": "uint256",
              "name": "totalCompoundBorrowed",
              "type": "uint256"
            },
            {
              "internalType": "uint256",
              "name": "totalNormalDeposited",
              "type": "uint256"
            },
            {
              "internalType": "uint256",
              "name": "totalNormalBorrowed",
              "type": "uint256"
            },
            {
              "internalType": "uint256",
              "name": "assetScaler",
              "type": "uint256"
            },
            {
              "internalType": "uint256",
              "name": "debtScaler",
              "type": "uint256"
            },
            {
              "internalType": "uint256",
              "name": "assetGrowth",
              "type": "uint256"
            },
            {
              "internalType": "uint256",
              "name": "debtGrowth",
              "type": "uint256"
            }
          ],
          "internalType": "struct BaseToken.TokenState",
          "name": "",
          "type": "tuple"
        }
      ],
      "stateMutability": "view",
      "type": "function"
    },
    {
      "inputs": [
        {
          "internalType": "uint256",
          "name": "_vaultId",
          "type": "uint256"
        }
      ],
      "name": "getVault",
      "outputs": [
        {
          "components": [
            {
              "internalType": "uint256",
              "name": "vaultId",
              "type": "uint256"
            },
            {
              "internalType": "uint256",
              "name": "marginAmount0",
              "type": "uint256"
            },
            {
              "internalType": "uint256",
              "name": "marginAmount1",
              "type": "uint256"
            },
            {
              "internalType": "uint256[]",
              "name": "subVaults",
              "type": "uint256[]"
            }
          ],
          "internalType": "struct DataType.Vault",
          "name": "",
          "type": "tuple"
        }
      ],
      "stateMutability": "view",
      "type": "function"
    },
    {
      "inputs": [
        {
          "internalType": "uint256",
          "name": "_vaultId",
          "type": "uint256"
        }
      ],
      "name": "getVaultStatus",
      "outputs": [
        {
          "components": [
            {
              "internalType": "int256",
              "name": "positionValue",
              "type": "int256"
            },
            {
              "internalType": "int256",
              "name": "marginValue",
              "type": "int256"
            },
            {
              "internalType": "int256",
              "name": "minCollateral",
              "type": "int256"
            },
            {
              "components": [
                {
                  "components": [
                    {
                      "internalType": "uint256",
                      "name": "assetValue",
                      "type": "uint256"
                    },
                    {
                      "internalType": "uint256",
                      "name": "debtValue",
                      "type": "uint256"
                    },
                    {
                      "internalType": "int256",
                      "name": "premiumValue",
                      "type": "int256"
                    }
                  ],
                  "internalType": "struct DataType.SubVaultValue",
                  "name": "values",
                  "type": "tuple"
                },
                {
                  "components": [
                    {
                      "internalType": "uint256",
                      "name": "assetAmount0",
                      "type": "uint256"
                    },
                    {
                      "internalType": "uint256",
                      "name": "assetAmount1",
                      "type": "uint256"
                    },
                    {
                      "internalType": "uint256",
                      "name": "debtAmount0",
                      "type": "uint256"
                    },
                    {
                      "internalType": "uint256",
                      "name": "debtAmount1",
                      "type": "uint256"
                    }
                  ],
                  "internalType": "struct DataType.SubVaultAmount",
                  "name": "amount",
                  "type": "tuple"
                },
                {
                  "components": [
                    {
                      "internalType": "int256",
                      "name": "assetFee0",
                      "type": "int256"
                    },
                    {
                      "internalType": "int256",
                      "name": "assetFee1",
                      "type": "int256"
                    },
                    {
                      "internalType": "int256",
                      "name": "debtFee0",
                      "type": "int256"
                    },
                    {
                      "internalType": "int256",
                      "name": "debtFee1",
                      "type": "int256"
                    }
                  ],
                  "internalType": "struct DataType.SubVaultInterest",
                  "name": "interest",
                  "type": "tuple"
                },
                {
                  "components": [
                    {
                      "internalType": "uint256",
                      "name": "receivedTradeAmount0",
                      "type": "uint256"
                    },
                    {
                      "internalType": "uint256",
                      "name": "receivedTradeAmount1",
                      "type": "uint256"
                    },
                    {
                      "internalType": "uint256",
                      "name": "receivedPremium",
                      "type": "uint256"
                    },
                    {
                      "internalType": "uint256",
                      "name": "paidPremium",
                      "type": "uint256"
                    }
                  ],
                  "internalType": "struct DataType.SubVaultPremium",
                  "name": "premium",
                  "type": "tuple"
                }
              ],
              "internalType": "struct DataType.SubVaultStatus[]",
              "name": "subVaults",
              "type": "tuple[]"
            }
          ],
          "internalType": "struct DataType.VaultStatus",
          "name": "",
          "type": "tuple"
        }
      ],
      "stateMutability": "nonpayable",
      "type": "function"
    },
    {
      "inputs": [
        {
          "internalType": "uint256",
          "name": "_vaultId",
          "type": "uint256"
        }
      ],
      "name": "getVaultValue",
      "outputs": [
        {
          "internalType": "int256",
          "name": "",
          "type": "int256"
        }
      ],
      "stateMutability": "view",
      "type": "function"
    },
    {
      "inputs": [
        {
          "components": [
            {
              "internalType": "uint24",
              "name": "feeTier",
              "type": "uint24"
            },
            {
              "internalType": "address",
              "name": "token0",
              "type": "address"
            },
            {
              "internalType": "address",
              "name": "token1",
              "type": "address"
            },
            {
              "internalType": "bool",
              "name": "isMarginZero",
              "type": "bool"
            }
          ],
          "internalType": "struct DataType.InitializationParams",
          "name": "_initializationParams",
          "type": "tuple"
        },
        {
          "internalType": "address",
          "name": "_factory",
          "type": "address"
        },
        {
          "internalType": "address",
          "name": "_swapRouter",
          "type": "address"
        },
        {
          "internalType": "address",
          "name": "_vaultNFT",
          "type": "address"
        }
      ],
      "name": "initialize",
      "outputs": [],
      "stateMutability": "nonpayable",
      "type": "function"
    },
    {
      "inputs": [],
      "name": "irmParams",
      "outputs": [
        {
          "internalType": "uint256",
          "name": "baseRate",
          "type": "uint256"
        },
        {
          "internalType": "uint256",
          "name": "kinkRate",
          "type": "uint256"
        },
        {
          "internalType": "uint256",
          "name": "slope1",
          "type": "uint256"
        },
        {
          "internalType": "uint256",
          "name": "slope2",
          "type": "uint256"
        }
      ],
      "stateMutability": "view",
      "type": "function"
    },
    {
      "inputs": [],
      "name": "lastTouchedTimestamp",
      "outputs": [
        {
          "internalType": "uint256",
          "name": "",
          "type": "uint256"
        }
      ],
      "stateMutability": "view",
      "type": "function"
    },
    {
      "inputs": [
        {
          "internalType": "uint256",
          "name": "_vaultId",
          "type": "uint256"
        },
        {
          "components": [
            {
              "internalType": "uint256",
              "name": "swapRatio",
              "type": "uint256"
            },
            {
              "internalType": "uint256",
              "name": "closeRatio",
              "type": "uint256"
            },
            {
              "internalType": "uint24",
              "name": "feeTier",
              "type": "uint24"
            }
          ],
          "internalType": "struct DataType.LiquidationOption",
          "name": "_liquidationOption",
          "type": "tuple"
        }
      ],
      "name": "liquidate",
      "outputs": [],
      "stateMutability": "nonpayable",
      "type": "function"
    },
    {
      "inputs": [
        {
          "internalType": "uint256",
          "name": "_vaultId",
          "type": "uint256"
        },
        {
          "components": [
            {
              "internalType": "uint256",
              "name": "subVaultIndex",
              "type": "uint256"
            },
            {
              "internalType": "uint256",
              "name": "asset0",
              "type": "uint256"
            },
            {
              "internalType": "uint256",
              "name": "asset1",
              "type": "uint256"
            },
            {
              "internalType": "uint256",
              "name": "debt0",
              "type": "uint256"
            },
            {
              "internalType": "uint256",
              "name": "debt1",
              "type": "uint256"
            },
            {
              "components": [
                {
                  "internalType": "bool",
                  "name": "isCollateral",
                  "type": "bool"
                },
                {
                  "internalType": "uint128",
                  "name": "liquidity",
                  "type": "uint128"
                },
                {
                  "internalType": "int24",
                  "name": "lowerTick",
                  "type": "int24"
                },
                {
                  "internalType": "int24",
                  "name": "upperTick",
                  "type": "int24"
                }
              ],
              "internalType": "struct DataType.LPT[]",
              "name": "lpts",
              "type": "tuple[]"
            }
          ],
          "internalType": "struct DataType.Position",
          "name": "_position",
          "type": "tuple"
        },
        {
          "components": [
            {
              "internalType": "bool",
              "name": "reduceOnly",
              "type": "bool"
            },
            {
              "internalType": "bool",
              "name": "swapAnyway",
              "type": "bool"
            },
            {
              "internalType": "bool",
              "name": "quoterMode",
              "type": "bool"
            },
            {
              "internalType": "bool",
              "name": "isQuoteZero",
              "type": "bool"
            },
            {
              "internalType": "int256",
              "name": "targetMarginAmount0",
              "type": "int256"
            },
            {
              "internalType": "int256",
              "name": "targetMarginAmount1",
              "type": "int256"
            },
            {
              "internalType": "bytes",
              "name": "metadata",
              "type": "bytes"
            }
          ],
          "internalType": "struct DataType.TradeOption",
          "name": "_tradeOption",
          "type": "tuple"
        },
        {
          "components": [
            {
              "internalType": "uint256",
              "name": "lowerSqrtPrice",
              "type": "uint256"
            },
            {
              "internalType": "uint256",
              "name": "upperSqrtPrice",
              "type": "uint256"
            },
            {
              "internalType": "uint24",
              "name": "feeTier",
              "type": "uint24"
            }
          ],
          "internalType": "struct DataType.OpenPositionOption",
          "name": "_openPositionOptions",
          "type": "tuple"
        }
      ],
      "name": "openPosition",
      "outputs": [
        {
          "internalType": "uint256",
          "name": "vaultId",
          "type": "uint256"
        },
        {
          "components": [
            {
              "internalType": "int256",
              "name": "amount0",
              "type": "int256"
            },
            {
              "internalType": "int256",
              "name": "amount1",
              "type": "int256"
            }
          ],
          "internalType": "struct DataType.TokenAmounts",
          "name": "requiredAmounts",
          "type": "tuple"
        },
        {
          "components": [
            {
              "internalType": "int256",
              "name": "amount0",
              "type": "int256"
            },
            {
              "internalType": "int256",
              "name": "amount1",
              "type": "int256"
            }
          ],
          "internalType": "struct DataType.TokenAmounts",
          "name": "swapAmounts",
          "type": "tuple"
        }
      ],
      "stateMutability": "nonpayable",
      "type": "function"
    },
    {
      "inputs": [],
      "name": "operator",
      "outputs": [
        {
          "internalType": "address",
          "name": "",
          "type": "address"
        }
      ],
      "stateMutability": "view",
      "type": "function"
    },
    {
      "inputs": [
        {
          "internalType": "address",
          "name": "_newOperator",
          "type": "address"
        }
      ],
      "name": "setOperator",
      "outputs": [],
      "stateMutability": "nonpayable",
      "type": "function"
    },
    {
      "inputs": [
        {
          "internalType": "uint256",
          "name": "amount0",
          "type": "uint256"
        },
        {
          "internalType": "uint256",
          "name": "amount1",
          "type": "uint256"
        },
        {
          "internalType": "bytes",
          "name": "data",
          "type": "bytes"
        }
      ],
      "name": "uniswapV3MintCallback",
      "outputs": [],
      "stateMutability": "nonpayable",
      "type": "function"
    },
    {
      "inputs": [
        {
          "components": [
            {
              "internalType": "uint256",
              "name": "baseRate",
              "type": "uint256"
            },
            {
              "internalType": "uint256",
              "name": "kinkRate",
              "type": "uint256"
            },
            {
              "internalType": "uint256",
              "name": "slope1",
              "type": "uint256"
            },
            {
              "internalType": "uint256",
              "name": "slope2",
              "type": "uint256"
            }
          ],
          "internalType": "struct InterestCalculator.IRMParams",
          "name": "_irmParams",
          "type": "tuple"
        }
      ],
      "name": "updateIRMParams",
      "outputs": [],
      "stateMutability": "nonpayable",
      "type": "function"
    },
    {
      "inputs": [
        {
          "internalType": "uint256",
          "name": "_vaultId",
          "type": "uint256"
        },
        {
          "components": [
            {
              "internalType": "enum DataType.PositionUpdateType",
              "name": "positionUpdateType",
              "type": "uint8"
            },
            {
              "internalType": "uint256",
              "name": "subVaultIndex",
              "type": "uint256"
            },
            {
              "internalType": "bool",
              "name": "zeroForOne",
              "type": "bool"
            },
            {
              "internalType": "uint128",
              "name": "liquidity",
              "type": "uint128"
            },
            {
              "internalType": "int24",
              "name": "lowerTick",
              "type": "int24"
            },
            {
              "internalType": "int24",
              "name": "upperTick",
              "type": "int24"
            },
            {
              "internalType": "uint256",
              "name": "param0",
              "type": "uint256"
            },
            {
              "internalType": "uint256",
              "name": "param1",
              "type": "uint256"
            }
          ],
          "internalType": "struct DataType.PositionUpdate[]",
          "name": "_positionUpdates",
          "type": "tuple[]"
        },
        {
          "components": [
            {
              "internalType": "bool",
              "name": "reduceOnly",
              "type": "bool"
            },
            {
              "internalType": "bool",
              "name": "swapAnyway",
              "type": "bool"
            },
            {
              "internalType": "bool",
              "name": "quoterMode",
              "type": "bool"
            },
            {
              "internalType": "bool",
              "name": "isQuoteZero",
              "type": "bool"
            },
            {
              "internalType": "int256",
              "name": "targetMarginAmount0",
              "type": "int256"
            },
            {
              "internalType": "int256",
              "name": "targetMarginAmount1",
              "type": "int256"
            },
            {
              "internalType": "bytes",
              "name": "metadata",
              "type": "bytes"
            }
          ],
          "internalType": "struct DataType.TradeOption",
          "name": "_tradeOption",
          "type": "tuple"
        }
      ],
      "name": "updatePosition",
      "outputs": [
        {
          "internalType": "uint256",
          "name": "vaultId",
          "type": "uint256"
        },
        {
          "components": [
            {
              "internalType": "int256",
              "name": "amount0",
              "type": "int256"
            },
            {
              "internalType": "int256",
              "name": "amount1",
              "type": "int256"
            }
          ],
          "internalType": "struct DataType.TokenAmounts",
          "name": "requiredAmounts",
          "type": "tuple"
        },
        {
          "components": [
            {
              "internalType": "int256",
              "name": "amount0",
              "type": "int256"
            },
            {
              "internalType": "int256",
              "name": "amount1",
              "type": "int256"
            }
          ],
          "internalType": "struct DataType.TokenAmounts",
          "name": "swapAmounts",
          "type": "tuple"
        }
      ],
      "stateMutability": "nonpayable",
      "type": "function"
    },
    {
      "inputs": [
        {
          "internalType": "uint256",
          "name": "_vaultId",
          "type": "uint256"
        },
        {
          "components": [
            {
              "internalType": "enum DataType.PositionUpdateType",
              "name": "positionUpdateType",
              "type": "uint8"
            },
            {
              "internalType": "uint256",
              "name": "subVaultIndex",
              "type": "uint256"
            },
            {
              "internalType": "bool",
              "name": "zeroForOne",
              "type": "bool"
            },
            {
              "internalType": "uint128",
              "name": "liquidity",
              "type": "uint128"
            },
            {
              "internalType": "int24",
              "name": "lowerTick",
              "type": "int24"
            },
            {
              "internalType": "int24",
              "name": "upperTick",
              "type": "int24"
            },
            {
              "internalType": "uint256",
              "name": "param0",
              "type": "uint256"
            },
            {
              "internalType": "uint256",
              "name": "param1",
              "type": "uint256"
            }
          ],
          "internalType": "struct DataType.PositionUpdate[]",
          "name": "positionUpdates",
          "type": "tuple[]"
        },
        {
          "components": [
            {
              "internalType": "bool",
              "name": "reduceOnly",
              "type": "bool"
            },
            {
              "internalType": "bool",
              "name": "swapAnyway",
              "type": "bool"
            },
            {
              "internalType": "bool",
              "name": "quoterMode",
              "type": "bool"
            },
            {
              "internalType": "bool",
              "name": "isQuoteZero",
              "type": "bool"
            },
            {
              "internalType": "int256",
              "name": "targetMarginAmount0",
              "type": "int256"
            },
            {
              "internalType": "int256",
              "name": "targetMarginAmount1",
              "type": "int256"
            },
            {
              "internalType": "bytes",
              "name": "metadata",
              "type": "bytes"
            }
          ],
          "internalType": "struct DataType.TradeOption",
          "name": "_tradeOption",
          "type": "tuple"
        },
        {
          "components": [
            {
              "internalType": "uint256",
              "name": "lowerSqrtPrice",
              "type": "uint256"
            },
            {
              "internalType": "uint256",
              "name": "upperSqrtPrice",
              "type": "uint256"
            },
            {
              "internalType": "uint24",
              "name": "feeTier",
              "type": "uint24"
            }
          ],
          "internalType": "struct DataType.OpenPositionOption",
          "name": "_openPositionOptions",
          "type": "tuple"
        }
      ],
      "name": "updatePositionInVault",
      "outputs": [
        {
          "internalType": "uint256",
          "name": "vaultId",
          "type": "uint256"
        },
        {
          "components": [
            {
              "internalType": "int256",
              "name": "amount0",
              "type": "int256"
            },
            {
              "internalType": "int256",
              "name": "amount1",
              "type": "int256"
            }
          ],
          "internalType": "struct DataType.TokenAmounts",
          "name": "requiredAmounts",
          "type": "tuple"
        },
        {
          "components": [
            {
              "internalType": "int256",
              "name": "amount0",
              "type": "int256"
            },
            {
              "internalType": "int256",
              "name": "amount1",
              "type": "int256"
            }
          ],
          "internalType": "struct DataType.TokenAmounts",
          "name": "swapAmounts",
          "type": "tuple"
        }
      ],
      "stateMutability": "nonpayable",
      "type": "function"
    },
    {
      "inputs": [
        {
          "components": [
            {
              "internalType": "uint256",
              "name": "baseRate",
              "type": "uint256"
            },
            {
              "internalType": "uint256",
              "name": "kinkRate",
              "type": "uint256"
            },
            {
              "internalType": "uint256",
              "name": "slope1",
              "type": "uint256"
            },
            {
              "internalType": "uint256",
              "name": "slope2",
              "type": "uint256"
            }
          ],
          "internalType": "struct InterestCalculator.IRMParams",
          "name": "_irmParams",
          "type": "tuple"
        },
        {
          "components": [
            {
              "internalType": "uint256",
              "name": "baseRate",
              "type": "uint256"
            },
            {
              "internalType": "uint256",
              "name": "kinkRate",
              "type": "uint256"
            },
            {
              "internalType": "uint256",
              "name": "slope1",
              "type": "uint256"
            },
            {
              "internalType": "uint256",
              "name": "slope2",
              "type": "uint256"
            }
          ],
          "internalType": "struct InterestCalculator.IRMParams",
          "name": "_premiumParams",
          "type": "tuple"
        }
      ],
      "name": "updateYearlyPremiumParams",
      "outputs": [],
      "stateMutability": "nonpayable",
      "type": "function"
    },
    {
      "inputs": [
        {
          "internalType": "uint256",
          "name": "_amount0",
          "type": "uint256"
        },
        {
          "internalType": "uint256",
          "name": "_amount1",
          "type": "uint256"
        }
      ],
      "name": "withdrawProtocolFee",
      "outputs": [],
      "stateMutability": "nonpayable",
      "type": "function"
    },
    {
      "inputs": [],
      "name": "ypParams",
      "outputs": [
        {
          "components": [
            {
              "internalType": "uint256",
              "name": "baseRate",
              "type": "uint256"
            },
            {
              "internalType": "uint256",
              "name": "kinkRate",
              "type": "uint256"
            },
            {
              "internalType": "uint256",
              "name": "slope1",
              "type": "uint256"
            },
            {
              "internalType": "uint256",
              "name": "slope2",
              "type": "uint256"
            }
          ],
          "internalType": "struct InterestCalculator.IRMParams",
          "name": "premiumParams",
          "type": "tuple"
        },
        {
          "components": [
            {
              "internalType": "uint256",
              "name": "baseRate",
              "type": "uint256"
            },
            {
              "internalType": "uint256",
              "name": "kinkRate",
              "type": "uint256"
            },
            {
              "internalType": "uint256",
              "name": "slope1",
              "type": "uint256"
            },
            {
              "internalType": "uint256",
              "name": "slope2",
              "type": "uint256"
            }
          ],
          "internalType": "struct InterestCalculator.IRMParams",
          "name": "irmParams",
          "type": "tuple"
        }
      ],
      "stateMutability": "view",
      "type": "function"
    }
  ],
  "transactionHash": "0xc1b0cfde9866732c87322585b2964a33d67ff6e1adb02d5391742b4651c01b31",
  "args": [],
  "solcInputHash": "2b2266bb417c6a2113003d9917b38b27",
  "bytecode": "0x608060405234801561001057600080fd5b50615dc480620000216000396000f3fe608060405234801561001057600080fd5b50600436106101da5760003560e01c806386b6ce7611610104578063d3487997116100a2578063ebd2665f11610071578063ebd2665f14610457578063ec52ad081461046d578063ee6097f014610480578063f3f4b4c714610493576101da565b8063d3487997146103fe578063dd8cb3f414610411578063e6d96b3d14610424578063eb02c30114610437576101da565b8063950db6ec116100de578063950db6ec146103a4578063b3ab15fb146103b7578063bc3be8dc146103ca578063c3d2ca2d146103eb576101da565b806386b6ce761461036957806386e6862d1461037c5780639403b63414610384576101da565b806349ebb77d1161017c57806365b5f6e31161014b57806365b5f6e314610310578063671148591461032357806368715773146103365780636f85ba9c14610349576101da565b806349ebb77d146102a15780634b934428146102c157806351be57d3146102e3578063570ca735146102fb576101da565b806330050fbd116101b857806330050fbd146102365780633743d142146102565780633c678e141461026b5780633e12971514610281576101da565b8063013216f5146101df578063127f0f0714610208578063275892a214610221575b600080fd5b6101f26101ed3660046147aa565b6104a6565b6040516101ff91906156e1565b60405180910390f35b61021061053c565b6040516101ff959493929190615553565b610229610561565b6040516101ff919061558f565b6102496102443660046147aa565b610567565b6040516101ff91906157de565b610269610264366004614e45565b610701565b005b6102736107b4565b6040516101ff9291906156c5565b61029461028f3660046147aa565b61080d565b6040516101ff9190615548565b6102b46102af3660046147aa565b6108bb565b6040516101ff91906158d7565b6102d46102cf366004614db2565b6109f8565b6040516101ff93929190615c30565b6102eb610adc565b6040516101ff9493929190615c84565b610303610aeb565b6040516101ff91906153f2565b61026961031e3660046146d4565b610afa565b610269610331366004614816565b610c13565b6102696103443660046147fb565b610c75565b61035c6103573660046147aa565b610cbd565b6040516101ff9190615749565b6102d4610377366004614c5d565b610de0565b610303610e1f565b6103976103923660046147aa565b610ea8565b6040516101ff91906159a1565b6102696103b2366004614d8f565b610f3c565b6102696103c536600461469c565b611012565b6103dd6103d8366004614df0565b611071565b6040516101ff92919061589f565b6102296103f93660046147aa565b6110a9565b61026961040c366004614e57565b611145565b6102d461041f366004614bf4565b61119c565b6103dd610432366004614ccd565b611437565b61044a6104453660046147aa565b611524565b6040516101ff919061541f565b61045f61152f565b6040516101ff9291906158ba565b61022961047b3660046147c2565b6115f0565b61026961048e36600461484b565b611751565b6103dd6104a1366004614ed1565b611a09565b6104ae613bf3565b50600081815260026020818152604092839020835161010081018552815480850b850b850b825263010000008104850b850b850b9382019390935266010000000000009092046001600160801b03169382019390935260018301546060820152908201546080820152600382015460a0820152600482015460c082015260059091015460e08201525b919050565b600854600954601a54601b5460ff600160a01b850416936001600160a01b0316929394565b60015481565b61056f613c47565b600082815260046020908152604091829020825160808101845281548152835160a081019094526001820180549194929385019291829060ff1660028111156105b457fe5b60028111156105bf57fe5b81526020016001820154815260200160028201548152602001600382015481526020016004820154815250508152602001600682016040518060a00160405290816000820160009054906101000a900460ff16600281111561061d57fe5b600281111561062857fe5b81526020016001820154815260200160028201548152602001600382015481526020016004820154815250508152602001600b8201805480602002602001604051908101604052809291908181526020016000905b828210156106f35760008481526020908190206040805160c08101825260068602909201805460ff16151583526001808201548486015260028201546001600160801b03169284019290925260038101546060840152600481015460808401526005015460a0830152908352909201910161067d565b505050915250909392505050565b6029546001600160a01b031633146107345760405162461bcd60e51b815260040161072b906155d0565b60405180910390fd5b601a5482118015906107485750601b548111155b6107645760405162461bcd60e51b815260040161072b906155b4565b601a80548390039055601b80548290039055811561079357600554610793906001600160a01b03163384611a92565b80156107b0576006546107b0906001600160a01b03163383611a92565b5050565b604080516080808201835260208054835260215483820152602254838501526023546060808501919091528451928301855260245483526025549183019190915260265493820193909352602754928101929092529082565b600061081882611bd9565b60008281526003602052604090819020905163194a268960e21b8152735c30bc1f7dcD0ad9767deC999131d6844095ABED916365289a249161086591906004906005906002908301615add565b60206040518083038186803b15801561087d57600080fd5b505af4158015610891573d6000803e3d6000fd5b505050506040513d601f19601f820116820180604052508101906108b5919061478e565b92915050565b6108c3613c7b565b60006108cd610e1f565b90506108d883611bd9565b600083815260036020818152604092839020835160808101855281548152600182015481840152600282015481860152928101805485518185028101850190965280865293949193606086019383018282801561095457602002820191906000526020600020905b815481526020019060010190808311610940575b505050919092525050604051635d8d458360e11b8152739cE228621BE12881Dba00b3d1Ec0c21F461344339263bb1a8b06925061099d9160049060029060059088908401615a91565b60006040518083038186803b1580156109b557600080fd5b505af41580156109c9573d6000803e3d6000fd5b505050506040513d6000823e601f3d908101601f191682016040526109f191908101906149d8565b9392505050565b6000610a02613ca3565b610a0a613ca3565b600073fE7bdddA93B1ed89C8C1710F86731748ba6b2D2063886e93008888606001518860400151610a39610e1f565b6040518563ffffffff1660e01b8152600401610a5894939291906157a1565b60006040518083038186803b158015610a7057600080fd5b505af4158015610a84573d6000803e3d6000fd5b505050506040513d6000823e601f3d908101601f19168201604052610aac919081019061475c565b9050610ab988828861119c565b875160208901519397509195509350610ad191611c19565b509450945094915050565b601c54601d54601e54601f5484565b6029546001600160a01b031681565b6029546001600160a01b03163314610b245760405162461bcd60e51b815260040161072b906155d0565b60005b81518110156107b057600080838381518110610b3f57fe5b6020026020010151806020019051810190610b5a9190614bb0565b91509150610b688282611c5a565b6000828152600360205260408082209051637882621360e11b8152735c30bc1f7dcD0ad9767deC999131d6844095ABED9263f104c42692610bb89290916004916005916002918991908501615bdb565b60206040518083038186803b158015610bd057600080fd5b505af4158015610be4573d6000803e3d6000fd5b505050506040513d601f19601f82011682018060405250810190610c0891906147e3565b505050600101610b27565b6029546001600160a01b03163314610c3d5760405162461bcd60e51b815260040161072b906155d0565b815160245560208083015160255560408084015160265560609384015160275582518255908201516021558101516022550151602355565b6029546001600160a01b03163314610c9f5760405162461bcd60e51b815260040161072b906155d0565b8051601c556020810151601d556040810151601e5560600151601f55565b610cc5613cbd565b60008281526003602081815260408084208151608081018352815481526001820154818501526002820154818401529381018054835181860281018601909452808452919360608601939290830182828015610d4057602002820191906000526020600020905b815481526020019060010190808311610d2c575b50505091909252505060405163149ccfa160e11b8152919250739cE228621BE12881Dba00b3d1Ec0c21F46134433916329399f429150610d8c9084906004906002906005908301615a05565b60006040518083038186803b158015610da457600080fd5b505af4158015610db8573d6000803e3d6000fd5b505050506040513d6000823e601f3d908101601f191682016040526109f19190810190614907565b6000610dea613ca3565b610df2613ca3565b610dfd87878761119c565b865160208801519396509194509250610e1591611c19565b9450945094915050565b60085460408051633850c7bd60e01b815290516000926001600160a01b031691633850c7bd9160048083019260e0929190829003018186803b158015610e6457600080fd5b505afa158015610e78573d6000803e3d6000fd5b505050506040513d601f19601f82011682018060405250810190610e9c9190614b1a565b50949695505050505050565b610eb0613c7b565b6000828152600360208181526040928390208351608081018552815481526001820154818401526002820154818601529281018054855181850281018501909652808652939491936060860193830182828015610f2c57602002820191906000526020600020905b815481526020019060010190808311610f18575b5050505050815250509050919050565b610f44611e66565b600073fE7bdddA93B1ed89C8C1710F86731748ba6b2D2063399760de610f6985611524565b600854604086015186516020880151600160a01b90930460ff1692610f8c610e1f565b6040518763ffffffff1660e01b8152600401610fad969594939291906154ad565b60006040518083038186803b158015610fc557600080fd5b505af4158015610fd9573d6000803e3d6000fd5b505050506040513d6000823e601f3d908101601f19168201604052611001919081019061475c565b905061100d8382611efa565b505050565b6029546001600160a01b0316331461103c5760405162461bcd60e51b815260040161072b906155d0565b6001600160a01b03811661104f57600080fd5b602980546001600160a01b0319166001600160a01b0392909216919091179055565b611079613ca3565b611081613ca3565b611089611e66565b61109d8561109687611f87565b8686611437565b91509150935093915050565b600081815260036020526040808220905163b7f22f3960e01b8152735c30bc1f7dcD0ad9767deC999131d6844095ABED9163b7f22f39916110f591906004906005906002908301615add565b60206040518083038186803b15801561110d57600080fd5b505af4158015611121573d6000803e3d6000fd5b505050506040513d601f19601f820116820180604052508101906108b591906147e3565b6008546001600160a01b0316331461115c57600080fd5b831561117957600554611179906001600160a01b03163386611a92565b821561119657600654611196906001600160a01b03163385611a92565b50505050565b60006111a6613ca3565b6111ae613ca3565b6111b88686611c5a565b60006111c887866040015161215f565b909450905060006111d7610e1f565b6001600160a01b0316905073Ac8a772a4FF0082C0F23557B5B207A410aEFf12063c827d03e836004600560028c8c6040518763ffffffff1660e01b815260040161122696959493929190615b17565b60806040518083038186803b15801561123e57600080fd5b505af4158015611252573d6000803e3d6000fd5b505050506040513d601f19601f8201168201806040525081019061127691906149ad565b604088015191955093501561128f5761128f8484612303565b60405163194a268960e21b8152735c30bc1f7dcD0ad9767deC999131d6844095ABED906365289a24906112ce9085906004906005906002908301615add565b60206040518083038186803b1580156112e657600080fd5b505af41580156112fa573d6000803e3d6000fd5b505050506040513d601f19601f8201168201806040525081019061131e919061478e565b1561133b5760405162461bcd60e51b815260040161072b90615598565b835160001215611366576005548451611361916001600160a01b03169033903090612334565b61138d565b83516000131561138d57600554845161138d916001600160a01b0316903390600003611a92565b6000846020015113156113be5760065460208501516113b9916001600160a01b03169033903090612334565b6113eb565b6000846020015112156113eb5760065460208501516113eb916001600160a01b0316903390600003611a92565b7faab73af134145ff57680b42418293c22e0d608d7c2a2fe2b046faa185e99dbfc8585858960c001516040516114249493929190615c51565b60405180910390a1505093509350939050565b61143f613ca3565b611447613ca3565b600073fE7bdddA93B1ed89C8C1710F86731748ba6b2D2063399760de878760600151876080015188604001518960600151611480610e1f565b6040518763ffffffff1660e01b81526004016114a1969594939291906154ad565b60006040518083038186803b1580156114b957600080fd5b505af41580156114cd573d6000803e3d6000fd5b505050506040513d6000823e601f3d908101601f191682016040526114f5919081019061475c565b905061150287828761119c565b8651602088015192965090945061151a925090611c19565b5094509492505050565b60606108b582611f87565b611537613cfa565b61153f613cfa565b5050604080516101008082018352600a548252600b54602080840191909152600c5483850152600d54606080850191909152600e54608080860191909152600f5460a08087019190915260105460c08088019190915260115460e0808901919091528851968701895260125487526013549587019590955260145497860197909752601554928501929092526016549084015260175490830152601854938201939093526019549281019290925291565b60008281526002602052604081206005015461160e575060006108b5565b60408051610160810182526005546001600160a01b03908116825260065480821660208481019190915262ffffff600160a01b928390041684860152600754831660608086019190915260085493841660808087019190915260ff9390940492909216151560a08086019190915260095460c08087019190915286516101008181018952600a548252600b5482860152600c54828a0152600d5482870152600e5482880152600f54828501526010548284015260115460e0838101919091528089019290925288518082018a52601254815260135481870152601454818b0152601554968101969096526016549686019690965260175492850192909252601854908401526019549083015291830152601a54610120830152601b54610140830152600086815260028252929092206109f192919061174b610e1f565b86612484565b600054610100900460ff168061176a575061176a612513565b80611778575060005460ff16155b6117b35760405162461bcd60e51b815260040180806020018281038252602e815260200180615d40602e913960400191505060405180910390fd5b600054610100900460ff161580156117de576000805460ff1961ff0019909116610100171660011790555b845160068054602080890151600580546001600160a01b03199081166001600160a01b0393841617918290556040808d015162ffffff60a01b19909616600160a01b62ffffff998a16810291909117831696851696909617968790556060808e01516008805460ff60a01b19169115158902919091179055600780549093168c86161790925580519182018152918316815291851692820192909252919092049092169082015261188f8582612524565b600880546001600160a01b03199081166001600160a01b0393841617909155602a8054909116858316179055600160095560055460405163095ea7b360e01b815291169063095ea7b3906118eb90879060001990600401615406565b602060405180830381600087803b15801561190557600080fd5b505af1158015611919573d6000803e3d6000fd5b505050506040513d601f19601f8201168201806040525081019061193d919061478e565b5060065460405163095ea7b360e01b81526001600160a01b039091169063095ea7b39061197290879060001990600401615406565b602060405180830381600087803b15801561198c57600080fd5b505af11580156119a0573d6000803e3d6000fd5b505050506040513d601f19601f820116820180604052508101906119c4919061478e565b506119cf600a612608565b6119d96012612608565b5042600155602980546001600160a01b031916331790558015611a02576000805461ff00191690555b5050505050565b611a11613ca3565b611a19613ca3565b611a21611e66565b604080516001808252818301909252600091816020015b611a40613d3f565b815260200190600190039081611a38579050509050611a5f8787612620565b81600081518110611a6c57fe5b6020026020010181905250611a8387828787611437565b92509250505b94509492505050565b604080516001600160a01b038481166024830152604480830185905283518084039091018152606490920183526020820180516001600160e01b031663a9059cbb60e01b1781529251825160009485949389169392918291908083835b60208310611b0e5780518252601f199092019160209182019101611aef565b6001836020036101000a0380198251168184511680821785525050505050509050019150506000604051808303816000865af19150503d8060008114611b70576040519150601f19603f3d011682016040523d82523d6000602084013e611b75565b606091505b5091509150818015611ba3575080511580611ba35750808060200190516020811015611ba057600080fd5b50515b611a02576040805162461bcd60e51b815260206004820152600260248201526114d560f21b604482015290519081900360640190fd5b60408051600080825260208201909252611c1691839190611c10565b611bfd613d75565b815260200190600190039081611bf55790505b50611c5a565b50565b6000611c23610e1f565b6001600160a01b03169050808311158015611c3e5750818111155b61100d5760405162461bcd60e51b815260040161072b90615607565b60008281526003602081815260408084208151608081018352815481526001820154818501526002820154818401529381018054835181860281018601909452808452919360608601939290830182828015611cd557602002820191906000526020600020905b815481526020019060010190808311611cc1575b50505050508152505090507336d1b5e7Ef9F04e8f332263Be5eC8409377379a463a5d330ad82600460026005876020611d0c610e1f565b6040518863ffffffff1660e01b8152600401611d2e9796959493929190615a35565b60006040518083038186803b158015611d4657600080fd5b505af4158015611d5a573d6000803e3d6000fd5b505060015460405163725acfd160e01b81527336d1b5e7Ef9F04e8f332263Be5eC8409377379a4935063725acfd19250611d9d91600591601c9190600401615640565b60206040518083038186803b158015611db557600080fd5b505af4158015611dc9573d6000803e3d6000fd5b505050506040513d601f19601f82011682018060405250810190611ded91906147e3565b600155604051637ce761e760e01b815273Ac8a772a4FF0082C0F23557B5B207A410aEFf12090637ce761e790611e3190600590859060049060029089908301615674565b60006040518083038186803b158015611e4957600080fd5b505af4158015611e5d573d6000803e3d6000fd5b50505050505050565b60015460405163725acfd160e01b81527336d1b5e7Ef9F04e8f332263Be5eC8409377379a49163725acfd191611ea591600591601c9190600401615640565b60206040518083038186803b158015611ebd57600080fd5b505af4158015611ed1573d6000803e3d6000fd5b505050506040513d601f19601f82011682018060405250810190611ef591906147e3565b600155565b611f048282611c5a565b6000828152600360205260409081902090516349b3bd7960e11b8152735c30bc1f7dcD0ad9767deC999131d6844095ABED916393677af291611f53919060049086906005906002908401615ba8565b60006040518083038186803b158015611f6b57600080fd5b505af4158015611f7f573d6000803e3d6000fd5b505050505050565b60606000600360008481526020019081526020016000206040518060800160405290816000820154815260200160018201548152602001600282015481526020016003820180548060200260200160405190810160405280929190818152602001828054801561201657602002820191906000526020600020905b815481526020019060010190808311612002575b50505091909252505060408051610160810182526005546001600160a01b03908116825260065480821660208085019190915262ffffff600160a01b928390041684860152600754831660608086019190915260085493841660808087019190915260ff9390940492909216151560a08086019190915260095460c08087019190915286516101008181018952600a548252600b5482860152600c54828a0152600d5482870152600e5482880152600f54828501526010548284015260115460e0838101919091528089019290925288518082018a5260125481526013549581019590955260145498850198909852601554948401949094526016549483019490945260175490820152601854928101929092526019549082015291810191909152601a54610120820152601b546101408201529192506109f1918391506004906002906129a0565b6000808361223c57602a546040516354ba0f2760e01b81526001600160a01b03909116906354ba0f27906121979033906004016153f2565b602060405180830381600087803b1580156121b157600080fd5b505af11580156121c5573d6000803e3d6000fd5b505050506040513d601f19601f820116820180604052508101906121e991906147e3565b60008181526003602052604090819020829055519092507fbf3e9c93de94306b70ac5b9411edf475545815333bf651b894b9eada6482c5949061222f9084903390615c19565b60405180910390a16122ed565b602a546040516331a9108f60e11b815285935033916001600160a01b031690636352211e9061226f90869060040161558f565b60206040518083038186803b15801561228757600080fd5b505afa15801561229b573d6000803e3d6000fd5b505050506040513d601f19601f820116820180604052508101906122bf91906146b8565b6001600160a01b031614806122d15750825b6122ed5760405162461bcd60e51b815260040161072b90615624565b5060008181526003602052604090209250929050565b8151602080840151835184830151835185815293840183905260408401829052606084018190529192909190608081fd5b604080516001600160a01b0385811660248301528481166044830152606480830185905283518084039091018152608490920183526020820180516001600160e01b03166323b872dd60e01b178152925182516000948594938a169392918291908083835b602083106123b85780518252601f199092019160209182019101612399565b6001836020036101000a0380198251168184511680821785525050505050509050019150506000604051808303816000865af19150503d806000811461241a576040519150601f19603f3d011682016040523d82523d6000602084013e61241f565b606091505b509150915081801561244d57508051158061244d575080806020019051602081101561244a57600080fd5b50515b611f7f576040805162461bcd60e51b815260206004820152600360248201526229aa2360e91b604482015290519081900360640190fd5b60a0840151608085015184546000926125079290916124b4918a91600281810b9163010000009004900b88612bf0565b6040805160808101825260048b0154815260058b0154602082015260068b01549181019190915260078a015460608201526124ef9086612e4f565b87548790600281810b9163010000009004900b612ec4565b90505b95945050505050565b600061251e30612faa565b15905090565b600081602001516001600160a01b031682600001516001600160a01b03161061254c57600080fd5b50805160208083015160409384015184516001600160a01b0394851681850152939091168385015262ffffff166060808401919091528351808403820181526080840185528051908301206001600160f81b031960a085015294901b6bffffffffffffffffffffffff191660a183015260b58201939093527fe34f199b19b2b4f47f68442619d555527d244f78a3297ea89325f843f87b8b5460d5808301919091528251808303909101815260f5909101909152805191012090565b670de0b6b3a764000060048201819055600590910155565b612628613d3f565b600083815260036020818152604080842081516080810183528154815260018201548185015260028201548184015293810180548351818602810186019094528084529193606086019392908301828280156126a357602002820191906000526020600020905b81548152602001906001019080831161268f575b50505050508152505090506129988360046000846060015187815181106126c657fe5b6020026020010151815260200190815260200160002060405180608001604052908160008201548152602001600182016040518060a00160405290816000820160009054906101000a900460ff16600281111561271f57fe5b600281111561272a57fe5b81526020016001820154815260200160028201548152602001600382015481526020016004820154815250508152602001600682016040518060a00160405290816000820160009054906101000a900460ff16600281111561278857fe5b600281111561279357fe5b81526020016001820154815260200160028201548152602001600382015481526020016004820154815250508152602001600b8201805480602002602001604051908101604052809291908181526020016000905b8282101561285e5760008481526020908190206040805160c08101825260068602909201805460ff16151583526001808201548486015260028201546001600160801b03169284019290925260038101546060840152600481015460808401526005015460a083015290835290920191016127e8565b5050509152505060408051610160810182526005546001600160a01b03908116825260065480821660208085019190915262ffffff600160a01b928390041684860152600754831660608086019190915260085493841660808087019190915260ff9390940492909216151560a08086019190915260095460c08087019190915286516101008181018952600a548252600b5482860152600c54828a0152600d5482870152600e5482880152600f54828501526010548284015260115460e0838101919091528089019290925288518082018a5260125481526013549581019590955260145498850198909852601554948401949094526016549483019490945260175490820152601854928101929092526019549082015291810191909152601a54610120820152601b54610140820152600290612fb0565b949350505050565b60608460600151516001600160401b03811180156129bd57600080fd5b506040519080825280602002602001820160405280156129f757816020015b6129e4613d3f565b8152602001906001900390816129dc5790505b50905060005b856060015151811015612be757612bc88186600089606001518581518110612a2157fe5b6020026020010151815260200190815260200160002060405180608001604052908160008201548152602001600182016040518060a00160405290816000820160009054906101000a900460ff166002811115612a7a57fe5b6002811115612a8557fe5b81526020016001820154815260200160028201548152602001600382015481526020016004820154815250508152602001600682016040518060a00160405290816000820160009054906101000a900460ff166002811115612ae357fe5b6002811115612aee57fe5b81526020016001820154815260200160028201548152602001600382015481526020016004820154815250508152602001600b8201805480602002602001604051908101604052809291908181526020016000905b82821015612bb95760008481526020908190206040805160c08101825260068602909201805460ff16151583526001808201548486015260028201546001600160801b03169284019290925260038101546060840152600481015460808401526005015460a08301529083529092019101612b43565b50505050815250508686612fb0565b828281518110612bd457fe5b60209081029190910101526001016129fd565b50949350505050565b600080856001600160a01b031663f30583996040518163ffffffff1660e01b815260040160206040518083038186803b158015612c2c57600080fd5b505afa158015612c40573d6000803e3d6000fd5b505050506040513d601f19601f82011682018060405250810190612c6491906147e3565b90506000866001600160a01b031663461413196040518163ffffffff1660e01b815260040160206040518083038186803b158015612ca157600080fd5b505afa158015612cb5573d6000803e3d6000fd5b505050506040513d601f19601f82011682018060405250810190612cd991906147e3565b90506000876001600160a01b0316633850c7bd6040518163ffffffff1660e01b815260040160e06040518083038186803b158015612d1657600080fd5b505afa158015612d2a573d6000803e3d6000fd5b505050506040513d601f19601f82011682018060405250810190612d4e9190614b1a565b5050505050915050600080612d7a612d668b8b613204565b612d708c8b613204565b8b8b878a8a6132ad565b9150915060008989604051602001612d939291906153d5565b604051602081830303815290604052805190602001209050612e3f612dee8d6000016040518060800160405290816000820154815260200160018201548152602001600282015481526020016003820154815250508a612e4f565b8d600801600084815260200190815260200160002060405180608001604052908160008201548152602001600182015481526020016002820154815260200160038201548152505085858a8a61332a565b9c9b505050505050505050505050565b81516020830151600091908311612e7e57670de0b6b3a76400008460400151840281612e7757fe5b04016109f1565b670de0b6b3a7640000846040015185602001510281612e9957fe5b0481019050670de0b6b3a76400008460200151840385606001510281612ebb57fe5b04019392505050565b6000806000612eed86612ed6876133a9565b612edf876133a9565b670de0b6b3a76400006136db565b915091506000612f068a886001600160a01b0316613776565b90508915612f3257612f2b83612f258484670de0b6b3a764000061383e565b9061385d565b9350612f4c565b612f4982612f258584670de0b6b3a764000061383e565b93505b612f68670de0b6b3a7640000612f62868b6138b7565b90613910565b9350612f9c612f95670de0b6b3a7640000612f628c612f8f612f8a87856138b7565b613977565b906138b7565b859061385d565b9a9950505050505050505050565b3b151590565b612fb8613d3f565b60008460600151516001600160401b0381118015612fd557600080fd5b5060405190808252806020026020018201604052801561300f57816020015b612ffc613dbb565b815260200190600190039081612ff45790505b50905060005b8560600151518110156131635760008660600151828151811061303457fe5b60209081029190910181015181015160008181528883526040908190208151610100810183528154600281810b810b810b835263010000008204810b810b810b96830196909652660100000000000090046001600160801b031681840152600182015460608083019190915294820154608080830191909152600383015460a0830152600483015460c083015260059092015460e08201528251918201909252928a01518051929450909291829190869081106130ed57fe5b602002602001015160000151151581526020018960600151858151811061311057fe5b6020026020010151604001516001600160801b03168152602001826000015160020b8152602001826020015160020b81525084848151811061314e57fe5b60209081029190910101525050600101613015565b506040518060c0016040528087815260200161319087602001518660e00151613a1b90919063ffffffff16565b81526020016131b18760400151866101000151613a1b90919063ffffffff16565b81526020016131d187602001518660e00151613a5f90919063ffffffff16565b81526020016131f28760400151866101000151613a5f90919063ffffffff16565b81526020019190915295945050505050565b61320c613ca3565b600080846001600160a01b031663f30dba93856040518263ffffffff1660e01b815260040161323b9190615581565b6101006040518083038186803b15801561325457600080fd5b505afa158015613268573d6000803e3d6000fd5b505050506040513d601f19601f8201168201806040525081019061328c9190614a70565b50506040805180820190915293845250506020820152979650505050505050565b6000806000808860020b8760020b126132ce575050885160208a01516132de565b5050885160208a01519085039084035b6000808960020b8960020b12156132fd575050895160208b015161330d565b5050895160208b01519087039086035b92909603959095039a949093039290920397509195505050505050565b6000806000876040015185111561335e578760400151850388600001518803670de0b6b3a7640000028161335a57fe5b0491505b876060015184111561338d578760600151840388602001518703670de0b6b3a7640000028161338957fe5b0490505b671bc16d674ec800008282018a02049998505050505050505050565b60008060008360020b126133c0578260020b6133c8565b8260020b6000035b9050620d89e8811115613406576040805162461bcd60e51b81526020600482015260016024820152601560fa1b604482015290519081900360640190fd5b60006001821661341a57600160801b61342c565b6ffffcb933bd6fad37aa2d162d1a5940015b70ffffffffffffffffffffffffffffffffff1690506002821615613460576ffff97272373d413259a46990580e213a0260801c5b600482161561347f576ffff2e50f5f656932ef12357cf3c7fdcc0260801c5b600882161561349e576fffe5caca7e10e4e61c3624eaa0941cd00260801c5b60108216156134bd576fffcb9843d60f6159c9db58835c9266440260801c5b60208216156134dc576fff973b41fa98c081472e6896dfb254c00260801c5b60408216156134fb576fff2ea16466c96a3843ec78b326b528610260801c5b608082161561351a576ffe5dee046a99a2a811c461f1969c30530260801c5b61010082161561353a576ffcbe86c7900a88aedcffc83b479aa3a40260801c5b61020082161561355a576ff987a7253ac413176f2b074cf7815e540260801c5b61040082161561357a576ff3392b0822b70005940c7a398e4b70f30260801c5b61080082161561359a576fe7159475a2c29b7443b29c7fa6e889d90260801c5b6110008216156135ba576fd097f3bdfd2022b8845ad8f792aa58250260801c5b6120008216156135da576fa9f746462d870fdf8a65dc1f90e061e50260801c5b6140008216156135fa576f70d869a156d2a1b890bb3df62baf32f70260801c5b61800082161561361a576f31be135f97d08fd981231505542fcfa60260801c5b6201000082161561363b576f09aa508b5b7a84e1c677de54f3e99bc90260801c5b6202000082161561365b576e5d6af8dedb81196699c329225ee6040260801c5b6204000082161561367a576d2216e584f5fa1ea926041bedfe980260801c5b62080000821615613697576b048a170391f7dc42444e8fa20260801c5b60008460020b13156136b25780600019816136ae57fe5b0490505b6401000000008106156136c65760016136c9565b60005b60ff16602082901c0192505050919050565b600080836001600160a01b0316856001600160a01b031611156136fc579293925b846001600160a01b0316866001600160a01b03161161372757613720858585613a9c565b9150611a89565b836001600160a01b0316866001600160a01b031610156137605761374c868585613a9c565b9150613759858785613b05565b9050611a89565b61376b858585613b05565b905094509492505050565b6000670de0b6b3a764000083156137de5761379f838483600160c01b8161379957fe5b04613b44565b9150816137be576ec097ce7bc90715b34b9f10000000009150506108b5565b816ec097ce7bc90715b34b9f1000000000816137d657fe5b0491506137ff565b600160601b816137f38586600160601b613b44565b02816137fb57fe5b0491505b6ec097ce7bc90715b34b9f100000000082111561382d576ec097ce7bc90715b34b9f10000000009150613837565b8161383757600191505b5092915050565b82820281151584158583048514171661385657600080fd5b0492915050565b6000828201838110156109f1576040805162461bcd60e51b815260206004820152601b60248201527f536166654d6174683a206164646974696f6e206f766572666c6f770000000000604482015290519081900360640190fd5b6000826138c6575060006108b5565b828202828482816138d357fe5b04146109f15760405162461bcd60e51b8152600401808060200182810382526021815260200180615d6e6021913960400191505060405180910390fd5b6000808211613966576040805162461bcd60e51b815260206004820152601a60248201527f536166654d6174683a206469766973696f6e206279207a65726f000000000000604482015290519081900360640190fd5b81838161396f57fe5b049392505050565b60b581600160881b81106139905760409190911b9060801c5b690100000000000000000081106139ac5760209190911b9060401c5b6501000000000081106139c45760109190911b9060201c5b630100000081106139da5760089190911b9060101c5b62010000010260121c80820401600190811c80830401811c80830401811c80830401811c80830401811c80830401811c80830401901c908190048111900390565b6000600182516002811115613a2c57fe5b1415613a5457613a4d82602001518460800151670de0b6b3a764000061383e565b90506108b5565b5060208101516108b5565b6000600182516002811115613a7057fe5b1415613a9157613a4d82604001518460a00151670de0b6b3a764000061383e565b5060408101516108b5565b6000826001600160a01b0316846001600160a01b03161115613abc579192915b836001600160a01b0316613af5606060ff16846001600160801b0316901b8686036001600160a01b0316866001600160a01b0316613b44565b81613afc57fe5b04949350505050565b6000826001600160a01b0316846001600160a01b03161115613b25579192915b612998826001600160801b03168585036001600160a01b0316600160601b5b6000808060001985870986860292508281109083900303905080613b7a5760008411613b6f57600080fd5b5082900490506109f1565b808411613b8657600080fd5b6000848688096000868103871696879004966002600389028118808a02820302808a02820302808a02820302808a02820302808a02820302808a02909103029181900381900460010186841190950394909402919094039290920491909117919091029150509392505050565b604051806101000160405280600060020b8152602001600060020b815260200160006001600160801b0316815260200160008152602001600081526020016000815260200160008152602001600081525090565b604051806080016040528060008152602001613c61613de2565b8152602001613c6e613de2565b8152602001606081525090565b6040518060800160405280600081526020016000815260200160008152602001606081525090565b604051806040016040528060008152602001600081525090565b6040518060e00160405280600081526020016000815260200160008152602001600081526020016000815260200160008152602001606081525090565b60405180610100016040528060008152602001600081526020016000815260200160008152602001600081526020016000815260200160008152602001600081525090565b6040518060c001604052806000815260200160008152602001600081526020016000815260200160008152602001606081525090565b604080516101008101909152806000815260006020820181905260408201819052606082018190526080820181905260a0820181905260c0820181905260e09091015290565b60408051608081018252600080825260208201819052918101829052606081019190915290565b6040805160a081019091528060008152602001600081526020016000815260200160008152602001600081525090565b803561053781615ceb565b600082601f830112613e2d578081fd5b81356020613e42613e3d83615cc2565b615c9f565b82815281810190858301608080860288018501891015613e60578687fd5b865b86811015613ef15781838b031215613e78578788fd5b604080518381018181106001600160401b0382111715613e9457fe5b82528435613ea181615d00565b815284880135613eb081615d2a565b8189015284820135613ec181615d1b565b8083830152506060915081850135613ed881615d1b565b9181019190915285529385019391810191600101613e62565b509198975050505050505050565b600082601f830112613f0f578081fd5b81516020613f1f613e3d83615cc2565b82815281810190858301608080860288018501891015613f3d578687fd5b865b86811015613ef15781838b031215613f55578788fd5b604080518381018181106001600160401b0382111715613f7157fe5b82528451613f7e81615d00565b815284880151613f8d81615d2a565b8189015284820151613f9e81615d1b565b8083830152506060915081850151613fb581615d1b565b9181019190915285529385019391810191600101613f3f565b600082601f830112613fde578081fd5b81356020613fee613e3d83615cc2565b828152818101908583016101008086028801850189101561400d578687fd5b865b86811015613ef15781838b031215614025578788fd5b604080518381018181106001600160401b038211171561404157fe5b825261404c85614339565b815287850135888201526140618286016142bf565b8282015260609150614074828601614661565b828201526080915061408782860161434f565b8282015260a0915061409a82860161434f565b9181019190915260c0848101359082015260e080850135908201528552938501939181019160010161400f565b600082601f8301126140d7578081fd5b815160206140e7613e3d83615cc2565b8281528181019085830161010080860288018501891015614106578687fd5b865b86811015613ef15781838b03121561411e578788fd5b604080518381018181106001600160401b038211171561413a57fe5b825261414585614344565b8152878501518882015261415a8286016142ca565b828201526060915061416d82860161466c565b828201526080915061418082860161435a565b8282015260a0915061419382860161435a565b9181019190915260c0848101519082015260e0808501519082015285529385019391810191600101614108565b600082601f8301126141d0578081fd5b815160206141e0613e3d83615cc2565b828152818101908583016101e0808602880185018910156141ff578687fd5b865b86811015613ef157828a0382811215614218578889fd5b60408051608081016001600160401b03828210818311171561423657fe5b8184526060851215614246578c8dfd5b60e083019450818510818611171561425a57fe5b50838352865181528987015160a08301528683015160c083015281526142838d6060880161451c565b898201526142948d60e0880161451c565b828201526142a68d610160880161451c565b6060820152875250509385019391810191600101614201565b803561053781615d00565b805161053781615d00565b600082601f8301126142e5578081fd5b81356001600160401b038111156142f857fe5b61430b601f8201601f1916602001615c9f565b81815284602083860101111561431f578283fd5b816020850160208301379081016020019190915292915050565b803561053781615d0e565b805161053781615d0e565b803561053781615d1b565b805161053781615d1b565b600060a08284031215614376578081fd5b60405160a081018181106001600160401b038211171561439257fe5b8060405250809150823581526020830135602082015260408301356040820152606083013560608201526143c860808401614689565b60808201525092915050565b6000608082840312156143e5578081fd5b604051608081018181106001600160401b038211171561440157fe5b8060405250809150823581526020830135602082015260408301356040820152606083013560608201525092915050565b600060608284031215614443578081fd5b604051606081018181106001600160401b038211171561445f57fe5b8060405250809150823581526020830135602082015261448160408401614689565b60408201525092915050565b600060c0828403121561449e578081fd5b60405160c081016001600160401b0382821081831117156144bb57fe5b81604052829350843583526020850135602084015260408501356040840152606085013560608401526080850135608084015260a085013591508082111561450257600080fd5b5061450f85828601613e1d565b60a0830152505092915050565b60006080828403121561452d578081fd5b604051608081018181106001600160401b038211171561454957fe5b8060405250809150825181526020830151602082015260408301516040820152606083015160608201525092915050565b60006040828403121561458b578081fd5b604051604081018181106001600160401b03821117156145a757fe5b604052825181526020928301519281019290925250919050565b600060e082840312156145d2578081fd5b6145dc60e0615c9f565b90506145e7826142bf565b81526145f5602083016142bf565b6020820152614606604083016142bf565b6040820152614617606083016142bf565b60608201526080820135608082015260a082013560a082015260c08201356001600160401b0381111561464957600080fd5b614655848285016142d5565b60c08301525092915050565b803561053781615d2a565b805161053781615d2a565b805161ffff8116811461053757600080fd5b803562ffffff8116811461053757600080fd5b6000602082840312156146ad578081fd5b81356109f181615ceb565b6000602082840312156146c9578081fd5b81516109f181615ceb565b600060208083850312156146e6578182fd5b82356001600160401b038111156146fb578283fd5b8301601f8101851361470b578283fd5b8035614719613e3d82615cc2565b81815283810190838501865b8481101561474e5761473c8a8884358901016142d5565b84529286019290860190600101614725565b509098975050505050505050565b60006020828403121561476d578081fd5b81516001600160401b03811115614782578182fd5b612998848285016140c7565b60006020828403121561479f578081fd5b81516109f181615d00565b6000602082840312156147bb578081fd5b5035919050565b600080604083850312156147d4578081fd5b50508035926020909101359150565b6000602082840312156147f4578081fd5b5051919050565b60006080828403121561480c578081fd5b6109f183836143d4565b6000806101008385031215614829578182fd5b61483384846143d4565b915061484284608085016143d4565b90509250929050565b60008060008084860360e0811215614861578283fd5b608081121561486e578283fd5b50604051608081018181106001600160401b038211171561488b57fe5b60405261489786614689565b815260208601356148a781615ceb565b602082015260408601356148ba81615ceb565b604082015260608601356148cd81615d00565b606082015293506148e060808601613e12565b92506148ee60a08601613e12565b91506148fc60c08601613e12565b905092959194509250565b600060208284031215614918578081fd5b81516001600160401b038082111561492e578283fd5b9083019060e08286031215614941578283fd5b61494b60e0615c9f565b825181526020830151602082015260408301516040820152606083015160608201526080830151608082015260a083015160a082015260c083015182811115614992578485fd5b61499e87828601613eff565b60c08301525095945050505050565b600080608083850312156149bf578182fd5b6149c9848461457a565b9150614842846040850161457a565b6000602082840312156149e9578081fd5b81516001600160401b03808211156149ff578283fd5b9083019060808286031215614a12578283fd5b604051608081018181108382111715614a2757fe5b8060405250825181526020830151602082015260408301516040820152606083015182811115614a55578485fd5b614a61878286016141c0565b60608301525095945050505050565b600080600080600080600080610100898b031215614a8c578586fd5b8851614a9781615d2a565b80985050602089015180600f0b8114614aae578687fd5b80975050604089015195506060890151945060808901518060060b8114614ad3578485fd5b60a08a0151909450614ae481615ceb565b60c08a015190935063ffffffff81168114614afd578283fd5b9150614b0b60e08a016142ca565b90509295985092959890939650565b600080600080600080600060e0888a031215614b34578081fd5b8751614b3f81615ceb565b6020890151909750614b5081615d1b565b9550614b5e60408901614677565b9450614b6c60608901614677565b9350614b7a60808901614677565b925060a088015160ff81168114614b8f578182fd5b60c0890151909250614ba081615d00565b8091505092959891949750929550565b60008060408385031215614bc2578182fd5b8251915060208301516001600160401b03811115614bde578182fd5b614bea858286016140c7565b9150509250929050565b600080600060608486031215614c08578081fd5b8335925060208401356001600160401b0380821115614c25578283fd5b614c3187838801613fce565b93506040860135915080821115614c46578283fd5b50614c53868287016145c1565b9150509250925092565b60008060008060c08587031215614c72578182fd5b8435935060208501356001600160401b0380821115614c8f578384fd5b614c9b88838901613fce565b94506040870135915080821115614cb0578384fd5b50614cbd878288016145c1565b9250506148fc8660608701614432565b6000806000806101008587031215614ce3578182fd5b843593506020808601356001600160401b0380821115614d01578485fd5b818801915088601f830112614d14578485fd5b8135614d22613e3d82615cc2565b81815284810190848601885b84811015614d5757614d458e8984358a010161448d565b84529287019290870190600101614d2e565b509098505050506040880135925080831115614d71578485fd5b5050614d7f878288016145c1565b9250506148fc8660608701614365565b60008060808385031215614da1578182fd5b823591506148428460208501614432565b60008060008060c08587031215614dc7578182fd5b8435935060208501356001600160401b0380821115614de4578384fd5b614c9b8883890161448d565b600080600060e08486031215614e04578081fd5b8335925060208401356001600160401b03811115614e20578182fd5b614e2c868287016145c1565b925050614e3c8560408601614365565b90509250925092565b600080604083850312156147d4578182fd5b60008060008060608587031215614e6c578182fd5b843593506020850135925060408501356001600160401b0380821115614e90578384fd5b818701915087601f830112614ea3578384fd5b813581811115614eb1578485fd5b886020828501011115614ec2578485fd5b95989497505060200194505050565b6000806000806101008587031215614ee7578182fd5b843593506020850135925060408501356001600160401b03811115614f0a578283fd5b614d7f878288016145c1565b6001600160a01b03169052565b6000815180845260208085019450808401835b83811015614f5c57614f4987835161518c565b6080969096019590820190600101614f36565b509495945050505050565b6000815180845260208085019450808401835b83811015614f5c5781518051600d8110614f9057fe5b88528084015184890152604080820151151590890152606080820151614fb8828b01826153bf565b5050608080820151614fcc828b018261505a565b505060a080820151614fe0828b018261505a565b505060c0818101519089015260e090810151908801526101009096019590820190600101614f7a565b15159052565b60008151808452815b8181101561503457602081850181015186830182015201615018565b818111156150455782602083870101525b50601f01601f19169290920160200192915050565b60020b9052565b80516003811061506d57fe5b8252602081810151908301526040808201519083015260608082015190830152608090810151910152565b6150ab826150a68354615cdf565b614f16565b60018101546001600160a01b036150c760208501828416614f16565b6150dc6040850162ffffff8460a01c166153cc565b6150e96002840154615cdf565b91506150f86060850183614f16565b6003830154915061510e60808501828416614f16565b5061512260a0840160ff8360a01c16615009565b50600481015460c083015261513d60e08301600583016152a6565b61514e6101e08301600d83016152a6565b60158101546102e08301526016015461030090910152565b805182526020810151602083015260408101516040830152606081015160608301525050565b8051151582526001600160801b036020820151166020830152604081015160020b6040830152606081015160020b60608301525050565b600060c08301825184526020808401518186015260408401516040860152606084015160608601526080808501518187015260a085015160c060a088015283815180865260e08901915084830195508692505b8083101561523d5761522982875161518c565b948401946001929092019190830190615216565b50979650505050505050565b80518252602090810151910152565b805182526020810151602083015260408101516040830152606081015160608301526080810151608083015260a081015160a083015260c081015160c083015260e081015160e08301525050565b8054825260018101546020830152600281015460408301526003810154606083015260048101546080830152600581015460a0830152600681015460c08301526007015460e090910152565b60006080830182518452602080840151818601526040840151604086015260608401516080606087015282815180855260a08801915083830194508592505b808310156153515784518252938301936001929092019190830190615331565b509695505050505050565b6000608083018254845260018084015460208181880152600286015460408801526003860191506080606088015283825480865260a08901915083875282872095508693505b8084101561523d57855482529484019492840192908201906153a2565b6001600160801b03169052565b62ffffff169052565b600292830b60e890811b82529190920b901b600382015260060190565b6001600160a01b0391909116815260200190565b6001600160a01b03929092168252602082015260400190565b60208082528251828201819052600091906040908185019080840286018301878501865b8381101561474e57888303603f1901855281518051845287810151888501528681015187850152606080820151908501526080808201519085015260a09081015160c09185018290529061549981860183614f23565b968901969450505090860190600101615443565b600060c0820160c0835280895180835260e0850191506020925060e0838202860101838c01855b838110156155025760df198884030185526154f08383516151c3565b948601949250908501906001016154d4565b505080945050505061551681840189615009565b5061552460408301876153cc565b84606083015283608083015261553d60a0830184614f16565b979650505050505050565b901515815260200190565b941515855260208501939093526001600160a01b039190911660408401526060830152608082015260a00190565b60029190910b815260200190565b90815260200190565b602080825260029082015261503360f01b604082015260600190565b6020808252600290820152610a0760f31b604082015260600190565b60208082526017908201527f63616c6c6572206d757374206265206f70657261746f72000000000000000000604082015260600190565b60208082526003908201526221a41960e91b604082015260600190565b602080825260029082015261281960f11b604082015260600190565b928352815460208401526001820154604084015260028201546060840152600390910154608083015260a082015260c00190565b60006103a06156838389615098565b80610320840152615696818401886152f2565b905085610340840152846103608401528281036103808401526156b98185614f67565b98975050505050505050565b61010081016156d48285615166565b6109f16080830184615166565b600061010082019050825160020b8252602083015160020b60208301526001600160801b036040840151166040830152606083015160608301526080830151608083015260a083015160a083015260c083015160c083015260e083015160e083015292915050565b60006020825282516020830152602083015160408301526040830151606083015260608301516080830152608083015160a083015260a083015160c083015260c083015160e080840152612998610100840182614f23565b6000608082526157b460808301876151c3565b94151560208301525062ffffff9290921660408301526001600160a01b0316606090910152919050565b600060208083526101a0830184518285015281850151604061580281870183615061565b80870151915061581560e0870183615061565b6060878101516101808881015280519485905285019390925085906101c08801905b808310156158925785518051151583528781015188840152848101516001600160801b03168584015285810151868401526080808201519084015260a09081015190830152948601946001929092019160c090910190615837565b5098975050505050505050565b608081016158ad8285615249565b6109f16040830184615249565b61020081016158c98285615258565b6109f1610100830184615258565b6020808252825182820152828101516040808401919091528084015160608085019190915280850151608080860152805160a08601819052600094939184019285929160c08801905b808510156158925785518051805184528881015189850152850151858401528781015161594f85850182615166565b5080850151805160e08501528881015161010085015280860151610120850152840151610140840152830151615989610160840182615166565b506101e0820191508686019550600185019450615920565b6000602080835260a0830184518285015281850151604085015260408501516060850152606085015160808086015281815180845260c08701915084830193508592505b8083101561535157835182529284019260019290920191908401906159e5565b6000610380808352615a19818401886152f2565b91505084602083015283604083015261250a6060830184615098565b600060e08252615a4860e083018a6152f2565b8860208401528760408401528660608401528281036080840152615a6c8187614f67565b60a084019590955250506001600160a01b039190911660c09091015295945050505050565b60006103a0808352615aa5818401896152f2565b915050856020830152846040830152615ac16060830185615098565b6001600160a01b03929092166103809190910152949350505050565b6000610380808352615af18184018861535c565b915050846020830152615b076040830185615098565b8261036083015295945050505050565b600087825286602083015285604083015284606083015260c06080830152615b4260c0830185614f67565b82810360a08401528351151581526020840151151560208201526040840151151560408201526060840151615b7a6060830182615009565b506080840151608082015260a084015160a082015260c084015160e060c0830152612f9c60e083018261500f565b600086825285602083015260a06040830152615bc760a0830186614f67565b606083019490945250608001529392505050565b600087825286602083015285604083015284606083015260c06080830152615c0660c0830185614f67565b90508260a0830152979650505050505050565b9182526001600160a01b0316602082015260400190565b83815260a08101615c446020830185615249565b6129986060830184615249565b6000858252615c636020830186615249565b615c706060830185615249565b60c060a083015261250760c083018461500f565b93845260208401929092526040830152606082015260800190565b6040518181016001600160401b0381118282101715615cba57fe5b604052919050565b60006001600160401b03821115615cd557fe5b5060209081020190565b6001600160a01b031690565b6001600160a01b0381168114611c1657600080fd5b8015158114611c1657600080fd5b600d8110611c1657600080fd5b8060020b8114611c1657600080fd5b6001600160801b0381168114611c1657600080fdfe496e697469616c697a61626c653a20636f6e747261637420697320616c726561647920696e697469616c697a6564536166654d6174683a206d756c7469706c69636174696f6e206f766572666c6f77a2646970667358221220a31c141acf09b9b9c37310bcb87068effdeb282dd9b0bc1a56fd3716835ddaab64736f6c63430007060033",
  "deployedBytecode": "0x608060405234801561001057600080fd5b50600436106101da5760003560e01c806386b6ce7611610104578063d3487997116100a2578063ebd2665f11610071578063ebd2665f14610457578063ec52ad081461046d578063ee6097f014610480578063f3f4b4c714610493576101da565b8063d3487997146103fe578063dd8cb3f414610411578063e6d96b3d14610424578063eb02c30114610437576101da565b8063950db6ec116100de578063950db6ec146103a4578063b3ab15fb146103b7578063bc3be8dc146103ca578063c3d2ca2d146103eb576101da565b806386b6ce761461036957806386e6862d1461037c5780639403b63414610384576101da565b806349ebb77d1161017c57806365b5f6e31161014b57806365b5f6e314610310578063671148591461032357806368715773146103365780636f85ba9c14610349576101da565b806349ebb77d146102a15780634b934428146102c157806351be57d3146102e3578063570ca735146102fb576101da565b806330050fbd116101b857806330050fbd146102365780633743d142146102565780633c678e141461026b5780633e12971514610281576101da565b8063013216f5146101df578063127f0f0714610208578063275892a214610221575b600080fd5b6101f26101ed3660046147aa565b6104a6565b6040516101ff91906156e1565b60405180910390f35b61021061053c565b6040516101ff959493929190615553565b610229610561565b6040516101ff919061558f565b6102496102443660046147aa565b610567565b6040516101ff91906157de565b610269610264366004614e45565b610701565b005b6102736107b4565b6040516101ff9291906156c5565b61029461028f3660046147aa565b61080d565b6040516101ff9190615548565b6102b46102af3660046147aa565b6108bb565b6040516101ff91906158d7565b6102d46102cf366004614db2565b6109f8565b6040516101ff93929190615c30565b6102eb610adc565b6040516101ff9493929190615c84565b610303610aeb565b6040516101ff91906153f2565b61026961031e3660046146d4565b610afa565b610269610331366004614816565b610c13565b6102696103443660046147fb565b610c75565b61035c6103573660046147aa565b610cbd565b6040516101ff9190615749565b6102d4610377366004614c5d565b610de0565b610303610e1f565b6103976103923660046147aa565b610ea8565b6040516101ff91906159a1565b6102696103b2366004614d8f565b610f3c565b6102696103c536600461469c565b611012565b6103dd6103d8366004614df0565b611071565b6040516101ff92919061589f565b6102296103f93660046147aa565b6110a9565b61026961040c366004614e57565b611145565b6102d461041f366004614bf4565b61119c565b6103dd610432366004614ccd565b611437565b61044a6104453660046147aa565b611524565b6040516101ff919061541f565b61045f61152f565b6040516101ff9291906158ba565b61022961047b3660046147c2565b6115f0565b61026961048e36600461484b565b611751565b6103dd6104a1366004614ed1565b611a09565b6104ae613bf3565b50600081815260026020818152604092839020835161010081018552815480850b850b850b825263010000008104850b850b850b9382019390935266010000000000009092046001600160801b03169382019390935260018301546060820152908201546080820152600382015460a0820152600482015460c082015260059091015460e08201525b919050565b600854600954601a54601b5460ff600160a01b850416936001600160a01b0316929394565b60015481565b61056f613c47565b600082815260046020908152604091829020825160808101845281548152835160a081019094526001820180549194929385019291829060ff1660028111156105b457fe5b60028111156105bf57fe5b81526020016001820154815260200160028201548152602001600382015481526020016004820154815250508152602001600682016040518060a00160405290816000820160009054906101000a900460ff16600281111561061d57fe5b600281111561062857fe5b81526020016001820154815260200160028201548152602001600382015481526020016004820154815250508152602001600b8201805480602002602001604051908101604052809291908181526020016000905b828210156106f35760008481526020908190206040805160c08101825260068602909201805460ff16151583526001808201548486015260028201546001600160801b03169284019290925260038101546060840152600481015460808401526005015460a0830152908352909201910161067d565b505050915250909392505050565b6029546001600160a01b031633146107345760405162461bcd60e51b815260040161072b906155d0565b60405180910390fd5b601a5482118015906107485750601b548111155b6107645760405162461bcd60e51b815260040161072b906155b4565b601a80548390039055601b80548290039055811561079357600554610793906001600160a01b03163384611a92565b80156107b0576006546107b0906001600160a01b03163383611a92565b5050565b604080516080808201835260208054835260215483820152602254838501526023546060808501919091528451928301855260245483526025549183019190915260265493820193909352602754928101929092529082565b600061081882611bd9565b60008281526003602052604090819020905163194a268960e21b815273__$a1fa80d38d689cae49e54718da49b6432c$__916365289a249161086591906004906005906002908301615add565b60206040518083038186803b15801561087d57600080fd5b505af4158015610891573d6000803e3d6000fd5b505050506040513d601f19601f820116820180604052508101906108b5919061478e565b92915050565b6108c3613c7b565b60006108cd610e1f565b90506108d883611bd9565b600083815260036020818152604092839020835160808101855281548152600182015481840152600282015481860152928101805485518185028101850190965280865293949193606086019383018282801561095457602002820191906000526020600020905b815481526020019060010190808311610940575b505050919092525050604051635d8d458360e11b815273__$b4a4919001844372a79711112cfb20c2b9$__9263bb1a8b06925061099d9160049060029060059088908401615a91565b60006040518083038186803b1580156109b557600080fd5b505af41580156109c9573d6000803e3d6000fd5b505050506040513d6000823e601f3d908101601f191682016040526109f191908101906149d8565b9392505050565b6000610a02613ca3565b610a0a613ca3565b600073__$7ffffda71c6e7abde662efb5427d8d1c5d$__63886e93008888606001518860400151610a39610e1f565b6040518563ffffffff1660e01b8152600401610a5894939291906157a1565b60006040518083038186803b158015610a7057600080fd5b505af4158015610a84573d6000803e3d6000fd5b505050506040513d6000823e601f3d908101601f19168201604052610aac919081019061475c565b9050610ab988828861119c565b875160208901519397509195509350610ad191611c19565b509450945094915050565b601c54601d54601e54601f5484565b6029546001600160a01b031681565b6029546001600160a01b03163314610b245760405162461bcd60e51b815260040161072b906155d0565b60005b81518110156107b057600080838381518110610b3f57fe5b6020026020010151806020019051810190610b5a9190614bb0565b91509150610b688282611c5a565b6000828152600360205260408082209051637882621360e11b815273__$a1fa80d38d689cae49e54718da49b6432c$__9263f104c42692610bb89290916004916005916002918991908501615bdb565b60206040518083038186803b158015610bd057600080fd5b505af4158015610be4573d6000803e3d6000fd5b505050506040513d601f19601f82011682018060405250810190610c0891906147e3565b505050600101610b27565b6029546001600160a01b03163314610c3d5760405162461bcd60e51b815260040161072b906155d0565b815160245560208083015160255560408084015160265560609384015160275582518255908201516021558101516022550151602355565b6029546001600160a01b03163314610c9f5760405162461bcd60e51b815260040161072b906155d0565b8051601c556020810151601d556040810151601e5560600151601f55565b610cc5613cbd565b60008281526003602081815260408084208151608081018352815481526001820154818501526002820154818401529381018054835181860281018601909452808452919360608601939290830182828015610d4057602002820191906000526020600020905b815481526020019060010190808311610d2c575b50505091909252505060405163149ccfa160e11b815291925073__$b4a4919001844372a79711112cfb20c2b9$__916329399f429150610d8c9084906004906002906005908301615a05565b60006040518083038186803b158015610da457600080fd5b505af4158015610db8573d6000803e3d6000fd5b505050506040513d6000823e601f3d908101601f191682016040526109f19190810190614907565b6000610dea613ca3565b610df2613ca3565b610dfd87878761119c565b865160208801519396509194509250610e1591611c19565b9450945094915050565b60085460408051633850c7bd60e01b815290516000926001600160a01b031691633850c7bd9160048083019260e0929190829003018186803b158015610e6457600080fd5b505afa158015610e78573d6000803e3d6000fd5b505050506040513d601f19601f82011682018060405250810190610e9c9190614b1a565b50949695505050505050565b610eb0613c7b565b6000828152600360208181526040928390208351608081018552815481526001820154818401526002820154818601529281018054855181850281018501909652808652939491936060860193830182828015610f2c57602002820191906000526020600020905b815481526020019060010190808311610f18575b5050505050815250509050919050565b610f44611e66565b600073__$7ffffda71c6e7abde662efb5427d8d1c5d$__63399760de610f6985611524565b600854604086015186516020880151600160a01b90930460ff1692610f8c610e1f565b6040518763ffffffff1660e01b8152600401610fad969594939291906154ad565b60006040518083038186803b158015610fc557600080fd5b505af4158015610fd9573d6000803e3d6000fd5b505050506040513d6000823e601f3d908101601f19168201604052611001919081019061475c565b905061100d8382611efa565b505050565b6029546001600160a01b0316331461103c5760405162461bcd60e51b815260040161072b906155d0565b6001600160a01b03811661104f57600080fd5b602980546001600160a01b0319166001600160a01b0392909216919091179055565b611079613ca3565b611081613ca3565b611089611e66565b61109d8561109687611f87565b8686611437565b91509150935093915050565b600081815260036020526040808220905163b7f22f3960e01b815273__$a1fa80d38d689cae49e54718da49b6432c$__9163b7f22f39916110f591906004906005906002908301615add565b60206040518083038186803b15801561110d57600080fd5b505af4158015611121573d6000803e3d6000fd5b505050506040513d601f19601f820116820180604052508101906108b591906147e3565b6008546001600160a01b0316331461115c57600080fd5b831561117957600554611179906001600160a01b03163386611a92565b821561119657600654611196906001600160a01b03163385611a92565b50505050565b60006111a6613ca3565b6111ae613ca3565b6111b88686611c5a565b60006111c887866040015161215f565b909450905060006111d7610e1f565b6001600160a01b0316905073__$da03e66f624374a74ff67f4d42d7f52632$__63c827d03e836004600560028c8c6040518763ffffffff1660e01b815260040161122696959493929190615b17565b60806040518083038186803b15801561123e57600080fd5b505af4158015611252573d6000803e3d6000fd5b505050506040513d601f19601f8201168201806040525081019061127691906149ad565b604088015191955093501561128f5761128f8484612303565b60405163194a268960e21b815273__$a1fa80d38d689cae49e54718da49b6432c$__906365289a24906112ce9085906004906005906002908301615add565b60206040518083038186803b1580156112e657600080fd5b505af41580156112fa573d6000803e3d6000fd5b505050506040513d601f19601f8201168201806040525081019061131e919061478e565b1561133b5760405162461bcd60e51b815260040161072b90615598565b835160001215611366576005548451611361916001600160a01b03169033903090612334565b61138d565b83516000131561138d57600554845161138d916001600160a01b0316903390600003611a92565b6000846020015113156113be5760065460208501516113b9916001600160a01b03169033903090612334565b6113eb565b6000846020015112156113eb5760065460208501516113eb916001600160a01b0316903390600003611a92565b7faab73af134145ff57680b42418293c22e0d608d7c2a2fe2b046faa185e99dbfc8585858960c001516040516114249493929190615c51565b60405180910390a1505093509350939050565b61143f613ca3565b611447613ca3565b600073__$7ffffda71c6e7abde662efb5427d8d1c5d$__63399760de878760600151876080015188604001518960600151611480610e1f565b6040518763ffffffff1660e01b81526004016114a1969594939291906154ad565b60006040518083038186803b1580156114b957600080fd5b505af41580156114cd573d6000803e3d6000fd5b505050506040513d6000823e601f3d908101601f191682016040526114f5919081019061475c565b905061150287828761119c565b8651602088015192965090945061151a925090611c19565b5094509492505050565b60606108b582611f87565b611537613cfa565b61153f613cfa565b5050604080516101008082018352600a548252600b54602080840191909152600c5483850152600d54606080850191909152600e54608080860191909152600f5460a08087019190915260105460c08088019190915260115460e0808901919091528851968701895260125487526013549587019590955260145497860197909752601554928501929092526016549084015260175490830152601854938201939093526019549281019290925291565b60008281526002602052604081206005015461160e575060006108b5565b60408051610160810182526005546001600160a01b03908116825260065480821660208481019190915262ffffff600160a01b928390041684860152600754831660608086019190915260085493841660808087019190915260ff9390940492909216151560a08086019190915260095460c08087019190915286516101008181018952600a548252600b5482860152600c54828a0152600d5482870152600e5482880152600f54828501526010548284015260115460e0838101919091528089019290925288518082018a52601254815260135481870152601454818b0152601554968101969096526016549686019690965260175492850192909252601854908401526019549083015291830152601a54610120830152601b54610140830152600086815260028252929092206109f192919061174b610e1f565b86612484565b600054610100900460ff168061176a575061176a612513565b80611778575060005460ff16155b6117b35760405162461bcd60e51b815260040180806020018281038252602e815260200180615d40602e913960400191505060405180910390fd5b600054610100900460ff161580156117de576000805460ff1961ff0019909116610100171660011790555b845160068054602080890151600580546001600160a01b03199081166001600160a01b0393841617918290556040808d015162ffffff60a01b19909616600160a01b62ffffff998a16810291909117831696851696909617968790556060808e01516008805460ff60a01b19169115158902919091179055600780549093168c86161790925580519182018152918316815291851692820192909252919092049092169082015261188f8582612524565b600880546001600160a01b03199081166001600160a01b0393841617909155602a8054909116858316179055600160095560055460405163095ea7b360e01b815291169063095ea7b3906118eb90879060001990600401615406565b602060405180830381600087803b15801561190557600080fd5b505af1158015611919573d6000803e3d6000fd5b505050506040513d601f19601f8201168201806040525081019061193d919061478e565b5060065460405163095ea7b360e01b81526001600160a01b039091169063095ea7b39061197290879060001990600401615406565b602060405180830381600087803b15801561198c57600080fd5b505af11580156119a0573d6000803e3d6000fd5b505050506040513d601f19601f820116820180604052508101906119c4919061478e565b506119cf600a612608565b6119d96012612608565b5042600155602980546001600160a01b031916331790558015611a02576000805461ff00191690555b5050505050565b611a11613ca3565b611a19613ca3565b611a21611e66565b604080516001808252818301909252600091816020015b611a40613d3f565b815260200190600190039081611a38579050509050611a5f8787612620565b81600081518110611a6c57fe5b6020026020010181905250611a8387828787611437565b92509250505b94509492505050565b604080516001600160a01b038481166024830152604480830185905283518084039091018152606490920183526020820180516001600160e01b031663a9059cbb60e01b1781529251825160009485949389169392918291908083835b60208310611b0e5780518252601f199092019160209182019101611aef565b6001836020036101000a0380198251168184511680821785525050505050509050019150506000604051808303816000865af19150503d8060008114611b70576040519150601f19603f3d011682016040523d82523d6000602084013e611b75565b606091505b5091509150818015611ba3575080511580611ba35750808060200190516020811015611ba057600080fd5b50515b611a02576040805162461bcd60e51b815260206004820152600260248201526114d560f21b604482015290519081900360640190fd5b60408051600080825260208201909252611c1691839190611c10565b611bfd613d75565b815260200190600190039081611bf55790505b50611c5a565b50565b6000611c23610e1f565b6001600160a01b03169050808311158015611c3e5750818111155b61100d5760405162461bcd60e51b815260040161072b90615607565b60008281526003602081815260408084208151608081018352815481526001820154818501526002820154818401529381018054835181860281018601909452808452919360608601939290830182828015611cd557602002820191906000526020600020905b815481526020019060010190808311611cc1575b505050505081525050905073__$d48eea142f8e4946a86e978d6ec5b9f014$__63a5d330ad82600460026005876020611d0c610e1f565b6040518863ffffffff1660e01b8152600401611d2e9796959493929190615a35565b60006040518083038186803b158015611d4657600080fd5b505af4158015611d5a573d6000803e3d6000fd5b505060015460405163725acfd160e01b815273__$d48eea142f8e4946a86e978d6ec5b9f014$__935063725acfd19250611d9d91600591601c9190600401615640565b60206040518083038186803b158015611db557600080fd5b505af4158015611dc9573d6000803e3d6000fd5b505050506040513d601f19601f82011682018060405250810190611ded91906147e3565b600155604051637ce761e760e01b815273__$da03e66f624374a74ff67f4d42d7f52632$__90637ce761e790611e3190600590859060049060029089908301615674565b60006040518083038186803b158015611e4957600080fd5b505af4158015611e5d573d6000803e3d6000fd5b50505050505050565b60015460405163725acfd160e01b815273__$d48eea142f8e4946a86e978d6ec5b9f014$__9163725acfd191611ea591600591601c9190600401615640565b60206040518083038186803b158015611ebd57600080fd5b505af4158015611ed1573d6000803e3d6000fd5b505050506040513d601f19601f82011682018060405250810190611ef591906147e3565b600155565b611f048282611c5a565b6000828152600360205260409081902090516349b3bd7960e11b815273__$a1fa80d38d689cae49e54718da49b6432c$__916393677af291611f53919060049086906005906002908401615ba8565b60006040518083038186803b158015611f6b57600080fd5b505af4158015611f7f573d6000803e3d6000fd5b505050505050565b60606000600360008481526020019081526020016000206040518060800160405290816000820154815260200160018201548152602001600282015481526020016003820180548060200260200160405190810160405280929190818152602001828054801561201657602002820191906000526020600020905b815481526020019060010190808311612002575b50505091909252505060408051610160810182526005546001600160a01b03908116825260065480821660208085019190915262ffffff600160a01b928390041684860152600754831660608086019190915260085493841660808087019190915260ff9390940492909216151560a08086019190915260095460c08087019190915286516101008181018952600a548252600b5482860152600c54828a0152600d5482870152600e5482880152600f54828501526010548284015260115460e0838101919091528089019290925288518082018a5260125481526013549581019590955260145498850198909852601554948401949094526016549483019490945260175490820152601854928101929092526019549082015291810191909152601a54610120820152601b546101408201529192506109f1918391506004906002906129a0565b6000808361223c57602a546040516354ba0f2760e01b81526001600160a01b03909116906354ba0f27906121979033906004016153f2565b602060405180830381600087803b1580156121b157600080fd5b505af11580156121c5573d6000803e3d6000fd5b505050506040513d601f19601f820116820180604052508101906121e991906147e3565b60008181526003602052604090819020829055519092507fbf3e9c93de94306b70ac5b9411edf475545815333bf651b894b9eada6482c5949061222f9084903390615c19565b60405180910390a16122ed565b602a546040516331a9108f60e11b815285935033916001600160a01b031690636352211e9061226f90869060040161558f565b60206040518083038186803b15801561228757600080fd5b505afa15801561229b573d6000803e3d6000fd5b505050506040513d601f19601f820116820180604052508101906122bf91906146b8565b6001600160a01b031614806122d15750825b6122ed5760405162461bcd60e51b815260040161072b90615624565b5060008181526003602052604090209250929050565b8151602080840151835184830151835185815293840183905260408401829052606084018190529192909190608081fd5b604080516001600160a01b0385811660248301528481166044830152606480830185905283518084039091018152608490920183526020820180516001600160e01b03166323b872dd60e01b178152925182516000948594938a169392918291908083835b602083106123b85780518252601f199092019160209182019101612399565b6001836020036101000a0380198251168184511680821785525050505050509050019150506000604051808303816000865af19150503d806000811461241a576040519150601f19603f3d011682016040523d82523d6000602084013e61241f565b606091505b509150915081801561244d57508051158061244d575080806020019051602081101561244a57600080fd5b50515b611f7f576040805162461bcd60e51b815260206004820152600360248201526229aa2360e91b604482015290519081900360640190fd5b60a0840151608085015184546000926125079290916124b4918a91600281810b9163010000009004900b88612bf0565b6040805160808101825260048b0154815260058b0154602082015260068b01549181019190915260078a015460608201526124ef9086612e4f565b87548790600281810b9163010000009004900b612ec4565b90505b95945050505050565b600061251e30612faa565b15905090565b600081602001516001600160a01b031682600001516001600160a01b03161061254c57600080fd5b50805160208083015160409384015184516001600160a01b0394851681850152939091168385015262ffffff166060808401919091528351808403820181526080840185528051908301206001600160f81b031960a085015294901b6bffffffffffffffffffffffff191660a183015260b58201939093527fe34f199b19b2b4f47f68442619d555527d244f78a3297ea89325f843f87b8b5460d5808301919091528251808303909101815260f5909101909152805191012090565b670de0b6b3a764000060048201819055600590910155565b612628613d3f565b600083815260036020818152604080842081516080810183528154815260018201548185015260028201548184015293810180548351818602810186019094528084529193606086019392908301828280156126a357602002820191906000526020600020905b81548152602001906001019080831161268f575b50505050508152505090506129988360046000846060015187815181106126c657fe5b6020026020010151815260200190815260200160002060405180608001604052908160008201548152602001600182016040518060a00160405290816000820160009054906101000a900460ff16600281111561271f57fe5b600281111561272a57fe5b81526020016001820154815260200160028201548152602001600382015481526020016004820154815250508152602001600682016040518060a00160405290816000820160009054906101000a900460ff16600281111561278857fe5b600281111561279357fe5b81526020016001820154815260200160028201548152602001600382015481526020016004820154815250508152602001600b8201805480602002602001604051908101604052809291908181526020016000905b8282101561285e5760008481526020908190206040805160c08101825260068602909201805460ff16151583526001808201548486015260028201546001600160801b03169284019290925260038101546060840152600481015460808401526005015460a083015290835290920191016127e8565b5050509152505060408051610160810182526005546001600160a01b03908116825260065480821660208085019190915262ffffff600160a01b928390041684860152600754831660608086019190915260085493841660808087019190915260ff9390940492909216151560a08086019190915260095460c08087019190915286516101008181018952600a548252600b5482860152600c54828a0152600d5482870152600e5482880152600f54828501526010548284015260115460e0838101919091528089019290925288518082018a5260125481526013549581019590955260145498850198909852601554948401949094526016549483019490945260175490820152601854928101929092526019549082015291810191909152601a54610120820152601b54610140820152600290612fb0565b949350505050565b60608460600151516001600160401b03811180156129bd57600080fd5b506040519080825280602002602001820160405280156129f757816020015b6129e4613d3f565b8152602001906001900390816129dc5790505b50905060005b856060015151811015612be757612bc88186600089606001518581518110612a2157fe5b6020026020010151815260200190815260200160002060405180608001604052908160008201548152602001600182016040518060a00160405290816000820160009054906101000a900460ff166002811115612a7a57fe5b6002811115612a8557fe5b81526020016001820154815260200160028201548152602001600382015481526020016004820154815250508152602001600682016040518060a00160405290816000820160009054906101000a900460ff166002811115612ae357fe5b6002811115612aee57fe5b81526020016001820154815260200160028201548152602001600382015481526020016004820154815250508152602001600b8201805480602002602001604051908101604052809291908181526020016000905b82821015612bb95760008481526020908190206040805160c08101825260068602909201805460ff16151583526001808201548486015260028201546001600160801b03169284019290925260038101546060840152600481015460808401526005015460a08301529083529092019101612b43565b50505050815250508686612fb0565b828281518110612bd457fe5b60209081029190910101526001016129fd565b50949350505050565b600080856001600160a01b031663f30583996040518163ffffffff1660e01b815260040160206040518083038186803b158015612c2c57600080fd5b505afa158015612c40573d6000803e3d6000fd5b505050506040513d601f19601f82011682018060405250810190612c6491906147e3565b90506000866001600160a01b031663461413196040518163ffffffff1660e01b815260040160206040518083038186803b158015612ca157600080fd5b505afa158015612cb5573d6000803e3d6000fd5b505050506040513d601f19601f82011682018060405250810190612cd991906147e3565b90506000876001600160a01b0316633850c7bd6040518163ffffffff1660e01b815260040160e06040518083038186803b158015612d1657600080fd5b505afa158015612d2a573d6000803e3d6000fd5b505050506040513d601f19601f82011682018060405250810190612d4e9190614b1a565b5050505050915050600080612d7a612d668b8b613204565b612d708c8b613204565b8b8b878a8a6132ad565b9150915060008989604051602001612d939291906153d5565b604051602081830303815290604052805190602001209050612e3f612dee8d6000016040518060800160405290816000820154815260200160018201548152602001600282015481526020016003820154815250508a612e4f565b8d600801600084815260200190815260200160002060405180608001604052908160008201548152602001600182015481526020016002820154815260200160038201548152505085858a8a61332a565b9c9b505050505050505050505050565b81516020830151600091908311612e7e57670de0b6b3a76400008460400151840281612e7757fe5b04016109f1565b670de0b6b3a7640000846040015185602001510281612e9957fe5b0481019050670de0b6b3a76400008460200151840385606001510281612ebb57fe5b04019392505050565b6000806000612eed86612ed6876133a9565b612edf876133a9565b670de0b6b3a76400006136db565b915091506000612f068a886001600160a01b0316613776565b90508915612f3257612f2b83612f258484670de0b6b3a764000061383e565b9061385d565b9350612f4c565b612f4982612f258584670de0b6b3a764000061383e565b93505b612f68670de0b6b3a7640000612f62868b6138b7565b90613910565b9350612f9c612f95670de0b6b3a7640000612f628c612f8f612f8a87856138b7565b613977565b906138b7565b859061385d565b9a9950505050505050505050565b3b151590565b612fb8613d3f565b60008460600151516001600160401b0381118015612fd557600080fd5b5060405190808252806020026020018201604052801561300f57816020015b612ffc613dbb565b815260200190600190039081612ff45790505b50905060005b8560600151518110156131635760008660600151828151811061303457fe5b60209081029190910181015181015160008181528883526040908190208151610100810183528154600281810b810b810b835263010000008204810b810b810b96830196909652660100000000000090046001600160801b031681840152600182015460608083019190915294820154608080830191909152600383015460a0830152600483015460c083015260059092015460e08201528251918201909252928a01518051929450909291829190869081106130ed57fe5b602002602001015160000151151581526020018960600151858151811061311057fe5b6020026020010151604001516001600160801b03168152602001826000015160020b8152602001826020015160020b81525084848151811061314e57fe5b60209081029190910101525050600101613015565b506040518060c0016040528087815260200161319087602001518660e00151613a1b90919063ffffffff16565b81526020016131b18760400151866101000151613a1b90919063ffffffff16565b81526020016131d187602001518660e00151613a5f90919063ffffffff16565b81526020016131f28760400151866101000151613a5f90919063ffffffff16565b81526020019190915295945050505050565b61320c613ca3565b600080846001600160a01b031663f30dba93856040518263ffffffff1660e01b815260040161323b9190615581565b6101006040518083038186803b15801561325457600080fd5b505afa158015613268573d6000803e3d6000fd5b505050506040513d601f19601f8201168201806040525081019061328c9190614a70565b50506040805180820190915293845250506020820152979650505050505050565b6000806000808860020b8760020b126132ce575050885160208a01516132de565b5050885160208a01519085039084035b6000808960020b8960020b12156132fd575050895160208b015161330d565b5050895160208b01519087039086035b92909603959095039a949093039290920397509195505050505050565b6000806000876040015185111561335e578760400151850388600001518803670de0b6b3a7640000028161335a57fe5b0491505b876060015184111561338d578760600151840388602001518703670de0b6b3a7640000028161338957fe5b0490505b671bc16d674ec800008282018a02049998505050505050505050565b60008060008360020b126133c0578260020b6133c8565b8260020b6000035b9050620d89e8811115613406576040805162461bcd60e51b81526020600482015260016024820152601560fa1b604482015290519081900360640190fd5b60006001821661341a57600160801b61342c565b6ffffcb933bd6fad37aa2d162d1a5940015b70ffffffffffffffffffffffffffffffffff1690506002821615613460576ffff97272373d413259a46990580e213a0260801c5b600482161561347f576ffff2e50f5f656932ef12357cf3c7fdcc0260801c5b600882161561349e576fffe5caca7e10e4e61c3624eaa0941cd00260801c5b60108216156134bd576fffcb9843d60f6159c9db58835c9266440260801c5b60208216156134dc576fff973b41fa98c081472e6896dfb254c00260801c5b60408216156134fb576fff2ea16466c96a3843ec78b326b528610260801c5b608082161561351a576ffe5dee046a99a2a811c461f1969c30530260801c5b61010082161561353a576ffcbe86c7900a88aedcffc83b479aa3a40260801c5b61020082161561355a576ff987a7253ac413176f2b074cf7815e540260801c5b61040082161561357a576ff3392b0822b70005940c7a398e4b70f30260801c5b61080082161561359a576fe7159475a2c29b7443b29c7fa6e889d90260801c5b6110008216156135ba576fd097f3bdfd2022b8845ad8f792aa58250260801c5b6120008216156135da576fa9f746462d870fdf8a65dc1f90e061e50260801c5b6140008216156135fa576f70d869a156d2a1b890bb3df62baf32f70260801c5b61800082161561361a576f31be135f97d08fd981231505542fcfa60260801c5b6201000082161561363b576f09aa508b5b7a84e1c677de54f3e99bc90260801c5b6202000082161561365b576e5d6af8dedb81196699c329225ee6040260801c5b6204000082161561367a576d2216e584f5fa1ea926041bedfe980260801c5b62080000821615613697576b048a170391f7dc42444e8fa20260801c5b60008460020b13156136b25780600019816136ae57fe5b0490505b6401000000008106156136c65760016136c9565b60005b60ff16602082901c0192505050919050565b600080836001600160a01b0316856001600160a01b031611156136fc579293925b846001600160a01b0316866001600160a01b03161161372757613720858585613a9c565b9150611a89565b836001600160a01b0316866001600160a01b031610156137605761374c868585613a9c565b9150613759858785613b05565b9050611a89565b61376b858585613b05565b905094509492505050565b6000670de0b6b3a764000083156137de5761379f838483600160c01b8161379957fe5b04613b44565b9150816137be576ec097ce7bc90715b34b9f10000000009150506108b5565b816ec097ce7bc90715b34b9f1000000000816137d657fe5b0491506137ff565b600160601b816137f38586600160601b613b44565b02816137fb57fe5b0491505b6ec097ce7bc90715b34b9f100000000082111561382d576ec097ce7bc90715b34b9f10000000009150613837565b8161383757600191505b5092915050565b82820281151584158583048514171661385657600080fd5b0492915050565b6000828201838110156109f1576040805162461bcd60e51b815260206004820152601b60248201527f536166654d6174683a206164646974696f6e206f766572666c6f770000000000604482015290519081900360640190fd5b6000826138c6575060006108b5565b828202828482816138d357fe5b04146109f15760405162461bcd60e51b8152600401808060200182810382526021815260200180615d6e6021913960400191505060405180910390fd5b6000808211613966576040805162461bcd60e51b815260206004820152601a60248201527f536166654d6174683a206469766973696f6e206279207a65726f000000000000604482015290519081900360640190fd5b81838161396f57fe5b049392505050565b60b581600160881b81106139905760409190911b9060801c5b690100000000000000000081106139ac5760209190911b9060401c5b6501000000000081106139c45760109190911b9060201c5b630100000081106139da5760089190911b9060101c5b62010000010260121c80820401600190811c80830401811c80830401811c80830401811c80830401811c80830401811c80830401901c908190048111900390565b6000600182516002811115613a2c57fe5b1415613a5457613a4d82602001518460800151670de0b6b3a764000061383e565b90506108b5565b5060208101516108b5565b6000600182516002811115613a7057fe5b1415613a9157613a4d82604001518460a00151670de0b6b3a764000061383e565b5060408101516108b5565b6000826001600160a01b0316846001600160a01b03161115613abc579192915b836001600160a01b0316613af5606060ff16846001600160801b0316901b8686036001600160a01b0316866001600160a01b0316613b44565b81613afc57fe5b04949350505050565b6000826001600160a01b0316846001600160a01b03161115613b25579192915b612998826001600160801b03168585036001600160a01b0316600160601b5b6000808060001985870986860292508281109083900303905080613b7a5760008411613b6f57600080fd5b5082900490506109f1565b808411613b8657600080fd5b6000848688096000868103871696879004966002600389028118808a02820302808a02820302808a02820302808a02820302808a02820302808a02909103029181900381900460010186841190950394909402919094039290920491909117919091029150509392505050565b604051806101000160405280600060020b8152602001600060020b815260200160006001600160801b0316815260200160008152602001600081526020016000815260200160008152602001600081525090565b604051806080016040528060008152602001613c61613de2565b8152602001613c6e613de2565b8152602001606081525090565b6040518060800160405280600081526020016000815260200160008152602001606081525090565b604051806040016040528060008152602001600081525090565b6040518060e00160405280600081526020016000815260200160008152602001600081526020016000815260200160008152602001606081525090565b60405180610100016040528060008152602001600081526020016000815260200160008152602001600081526020016000815260200160008152602001600081525090565b6040518060c001604052806000815260200160008152602001600081526020016000815260200160008152602001606081525090565b604080516101008101909152806000815260006020820181905260408201819052606082018190526080820181905260a0820181905260c0820181905260e09091015290565b60408051608081018252600080825260208201819052918101829052606081019190915290565b6040805160a081019091528060008152602001600081526020016000815260200160008152602001600081525090565b803561053781615ceb565b600082601f830112613e2d578081fd5b81356020613e42613e3d83615cc2565b615c9f565b82815281810190858301608080860288018501891015613e60578687fd5b865b86811015613ef15781838b031215613e78578788fd5b604080518381018181106001600160401b0382111715613e9457fe5b82528435613ea181615d00565b815284880135613eb081615d2a565b8189015284820135613ec181615d1b565b8083830152506060915081850135613ed881615d1b565b9181019190915285529385019391810191600101613e62565b509198975050505050505050565b600082601f830112613f0f578081fd5b81516020613f1f613e3d83615cc2565b82815281810190858301608080860288018501891015613f3d578687fd5b865b86811015613ef15781838b031215613f55578788fd5b604080518381018181106001600160401b0382111715613f7157fe5b82528451613f7e81615d00565b815284880151613f8d81615d2a565b8189015284820151613f9e81615d1b565b8083830152506060915081850151613fb581615d1b565b9181019190915285529385019391810191600101613f3f565b600082601f830112613fde578081fd5b81356020613fee613e3d83615cc2565b828152818101908583016101008086028801850189101561400d578687fd5b865b86811015613ef15781838b031215614025578788fd5b604080518381018181106001600160401b038211171561404157fe5b825261404c85614339565b815287850135888201526140618286016142bf565b8282015260609150614074828601614661565b828201526080915061408782860161434f565b8282015260a0915061409a82860161434f565b9181019190915260c0848101359082015260e080850135908201528552938501939181019160010161400f565b600082601f8301126140d7578081fd5b815160206140e7613e3d83615cc2565b8281528181019085830161010080860288018501891015614106578687fd5b865b86811015613ef15781838b03121561411e578788fd5b604080518381018181106001600160401b038211171561413a57fe5b825261414585614344565b8152878501518882015261415a8286016142ca565b828201526060915061416d82860161466c565b828201526080915061418082860161435a565b8282015260a0915061419382860161435a565b9181019190915260c0848101519082015260e0808501519082015285529385019391810191600101614108565b600082601f8301126141d0578081fd5b815160206141e0613e3d83615cc2565b828152818101908583016101e0808602880185018910156141ff578687fd5b865b86811015613ef157828a0382811215614218578889fd5b60408051608081016001600160401b03828210818311171561423657fe5b8184526060851215614246578c8dfd5b60e083019450818510818611171561425a57fe5b50838352865181528987015160a08301528683015160c083015281526142838d6060880161451c565b898201526142948d60e0880161451c565b828201526142a68d610160880161451c565b6060820152875250509385019391810191600101614201565b803561053781615d00565b805161053781615d00565b600082601f8301126142e5578081fd5b81356001600160401b038111156142f857fe5b61430b601f8201601f1916602001615c9f565b81815284602083860101111561431f578283fd5b816020850160208301379081016020019190915292915050565b803561053781615d0e565b805161053781615d0e565b803561053781615d1b565b805161053781615d1b565b600060a08284031215614376578081fd5b60405160a081018181106001600160401b038211171561439257fe5b8060405250809150823581526020830135602082015260408301356040820152606083013560608201526143c860808401614689565b60808201525092915050565b6000608082840312156143e5578081fd5b604051608081018181106001600160401b038211171561440157fe5b8060405250809150823581526020830135602082015260408301356040820152606083013560608201525092915050565b600060608284031215614443578081fd5b604051606081018181106001600160401b038211171561445f57fe5b8060405250809150823581526020830135602082015261448160408401614689565b60408201525092915050565b600060c0828403121561449e578081fd5b60405160c081016001600160401b0382821081831117156144bb57fe5b81604052829350843583526020850135602084015260408501356040840152606085013560608401526080850135608084015260a085013591508082111561450257600080fd5b5061450f85828601613e1d565b60a0830152505092915050565b60006080828403121561452d578081fd5b604051608081018181106001600160401b038211171561454957fe5b8060405250809150825181526020830151602082015260408301516040820152606083015160608201525092915050565b60006040828403121561458b578081fd5b604051604081018181106001600160401b03821117156145a757fe5b604052825181526020928301519281019290925250919050565b600060e082840312156145d2578081fd5b6145dc60e0615c9f565b90506145e7826142bf565b81526145f5602083016142bf565b6020820152614606604083016142bf565b6040820152614617606083016142bf565b60608201526080820135608082015260a082013560a082015260c08201356001600160401b0381111561464957600080fd5b614655848285016142d5565b60c08301525092915050565b803561053781615d2a565b805161053781615d2a565b805161ffff8116811461053757600080fd5b803562ffffff8116811461053757600080fd5b6000602082840312156146ad578081fd5b81356109f181615ceb565b6000602082840312156146c9578081fd5b81516109f181615ceb565b600060208083850312156146e6578182fd5b82356001600160401b038111156146fb578283fd5b8301601f8101851361470b578283fd5b8035614719613e3d82615cc2565b81815283810190838501865b8481101561474e5761473c8a8884358901016142d5565b84529286019290860190600101614725565b509098975050505050505050565b60006020828403121561476d578081fd5b81516001600160401b03811115614782578182fd5b612998848285016140c7565b60006020828403121561479f578081fd5b81516109f181615d00565b6000602082840312156147bb578081fd5b5035919050565b600080604083850312156147d4578081fd5b50508035926020909101359150565b6000602082840312156147f4578081fd5b5051919050565b60006080828403121561480c578081fd5b6109f183836143d4565b6000806101008385031215614829578182fd5b61483384846143d4565b915061484284608085016143d4565b90509250929050565b60008060008084860360e0811215614861578283fd5b608081121561486e578283fd5b50604051608081018181106001600160401b038211171561488b57fe5b60405261489786614689565b815260208601356148a781615ceb565b602082015260408601356148ba81615ceb565b604082015260608601356148cd81615d00565b606082015293506148e060808601613e12565b92506148ee60a08601613e12565b91506148fc60c08601613e12565b905092959194509250565b600060208284031215614918578081fd5b81516001600160401b038082111561492e578283fd5b9083019060e08286031215614941578283fd5b61494b60e0615c9f565b825181526020830151602082015260408301516040820152606083015160608201526080830151608082015260a083015160a082015260c083015182811115614992578485fd5b61499e87828601613eff565b60c08301525095945050505050565b600080608083850312156149bf578182fd5b6149c9848461457a565b9150614842846040850161457a565b6000602082840312156149e9578081fd5b81516001600160401b03808211156149ff578283fd5b9083019060808286031215614a12578283fd5b604051608081018181108382111715614a2757fe5b8060405250825181526020830151602082015260408301516040820152606083015182811115614a55578485fd5b614a61878286016141c0565b60608301525095945050505050565b600080600080600080600080610100898b031215614a8c578586fd5b8851614a9781615d2a565b80985050602089015180600f0b8114614aae578687fd5b80975050604089015195506060890151945060808901518060060b8114614ad3578485fd5b60a08a0151909450614ae481615ceb565b60c08a015190935063ffffffff81168114614afd578283fd5b9150614b0b60e08a016142ca565b90509295985092959890939650565b600080600080600080600060e0888a031215614b34578081fd5b8751614b3f81615ceb565b6020890151909750614b5081615d1b565b9550614b5e60408901614677565b9450614b6c60608901614677565b9350614b7a60808901614677565b925060a088015160ff81168114614b8f578182fd5b60c0890151909250614ba081615d00565b8091505092959891949750929550565b60008060408385031215614bc2578182fd5b8251915060208301516001600160401b03811115614bde578182fd5b614bea858286016140c7565b9150509250929050565b600080600060608486031215614c08578081fd5b8335925060208401356001600160401b0380821115614c25578283fd5b614c3187838801613fce565b93506040860135915080821115614c46578283fd5b50614c53868287016145c1565b9150509250925092565b60008060008060c08587031215614c72578182fd5b8435935060208501356001600160401b0380821115614c8f578384fd5b614c9b88838901613fce565b94506040870135915080821115614cb0578384fd5b50614cbd878288016145c1565b9250506148fc8660608701614432565b6000806000806101008587031215614ce3578182fd5b843593506020808601356001600160401b0380821115614d01578485fd5b818801915088601f830112614d14578485fd5b8135614d22613e3d82615cc2565b81815284810190848601885b84811015614d5757614d458e8984358a010161448d565b84529287019290870190600101614d2e565b509098505050506040880135925080831115614d71578485fd5b5050614d7f878288016145c1565b9250506148fc8660608701614365565b60008060808385031215614da1578182fd5b823591506148428460208501614432565b60008060008060c08587031215614dc7578182fd5b8435935060208501356001600160401b0380821115614de4578384fd5b614c9b8883890161448d565b600080600060e08486031215614e04578081fd5b8335925060208401356001600160401b03811115614e20578182fd5b614e2c868287016145c1565b925050614e3c8560408601614365565b90509250925092565b600080604083850312156147d4578182fd5b60008060008060608587031215614e6c578182fd5b843593506020850135925060408501356001600160401b0380821115614e90578384fd5b818701915087601f830112614ea3578384fd5b813581811115614eb1578485fd5b886020828501011115614ec2578485fd5b95989497505060200194505050565b6000806000806101008587031215614ee7578182fd5b843593506020850135925060408501356001600160401b03811115614f0a578283fd5b614d7f878288016145c1565b6001600160a01b03169052565b6000815180845260208085019450808401835b83811015614f5c57614f4987835161518c565b6080969096019590820190600101614f36565b509495945050505050565b6000815180845260208085019450808401835b83811015614f5c5781518051600d8110614f9057fe5b88528084015184890152604080820151151590890152606080820151614fb8828b01826153bf565b5050608080820151614fcc828b018261505a565b505060a080820151614fe0828b018261505a565b505060c0818101519089015260e090810151908801526101009096019590820190600101614f7a565b15159052565b60008151808452815b8181101561503457602081850181015186830182015201615018565b818111156150455782602083870101525b50601f01601f19169290920160200192915050565b60020b9052565b80516003811061506d57fe5b8252602081810151908301526040808201519083015260608082015190830152608090810151910152565b6150ab826150a68354615cdf565b614f16565b60018101546001600160a01b036150c760208501828416614f16565b6150dc6040850162ffffff8460a01c166153cc565b6150e96002840154615cdf565b91506150f86060850183614f16565b6003830154915061510e60808501828416614f16565b5061512260a0840160ff8360a01c16615009565b50600481015460c083015261513d60e08301600583016152a6565b61514e6101e08301600d83016152a6565b60158101546102e08301526016015461030090910152565b805182526020810151602083015260408101516040830152606081015160608301525050565b8051151582526001600160801b036020820151166020830152604081015160020b6040830152606081015160020b60608301525050565b600060c08301825184526020808401518186015260408401516040860152606084015160608601526080808501518187015260a085015160c060a088015283815180865260e08901915084830195508692505b8083101561523d5761522982875161518c565b948401946001929092019190830190615216565b50979650505050505050565b80518252602090810151910152565b805182526020810151602083015260408101516040830152606081015160608301526080810151608083015260a081015160a083015260c081015160c083015260e081015160e08301525050565b8054825260018101546020830152600281015460408301526003810154606083015260048101546080830152600581015460a0830152600681015460c08301526007015460e090910152565b60006080830182518452602080840151818601526040840151604086015260608401516080606087015282815180855260a08801915083830194508592505b808310156153515784518252938301936001929092019190830190615331565b509695505050505050565b6000608083018254845260018084015460208181880152600286015460408801526003860191506080606088015283825480865260a08901915083875282872095508693505b8084101561523d57855482529484019492840192908201906153a2565b6001600160801b03169052565b62ffffff169052565b600292830b60e890811b82529190920b901b600382015260060190565b6001600160a01b0391909116815260200190565b6001600160a01b03929092168252602082015260400190565b60208082528251828201819052600091906040908185019080840286018301878501865b8381101561474e57888303603f1901855281518051845287810151888501528681015187850152606080820151908501526080808201519085015260a09081015160c09185018290529061549981860183614f23565b968901969450505090860190600101615443565b600060c0820160c0835280895180835260e0850191506020925060e0838202860101838c01855b838110156155025760df198884030185526154f08383516151c3565b948601949250908501906001016154d4565b505080945050505061551681840189615009565b5061552460408301876153cc565b84606083015283608083015261553d60a0830184614f16565b979650505050505050565b901515815260200190565b941515855260208501939093526001600160a01b039190911660408401526060830152608082015260a00190565b60029190910b815260200190565b90815260200190565b602080825260029082015261503360f01b604082015260600190565b6020808252600290820152610a0760f31b604082015260600190565b60208082526017908201527f63616c6c6572206d757374206265206f70657261746f72000000000000000000604082015260600190565b60208082526003908201526221a41960e91b604082015260600190565b602080825260029082015261281960f11b604082015260600190565b928352815460208401526001820154604084015260028201546060840152600390910154608083015260a082015260c00190565b60006103a06156838389615098565b80610320840152615696818401886152f2565b905085610340840152846103608401528281036103808401526156b98185614f67565b98975050505050505050565b61010081016156d48285615166565b6109f16080830184615166565b600061010082019050825160020b8252602083015160020b60208301526001600160801b036040840151166040830152606083015160608301526080830151608083015260a083015160a083015260c083015160c083015260e083015160e083015292915050565b60006020825282516020830152602083015160408301526040830151606083015260608301516080830152608083015160a083015260a083015160c083015260c083015160e080840152612998610100840182614f23565b6000608082526157b460808301876151c3565b94151560208301525062ffffff9290921660408301526001600160a01b0316606090910152919050565b600060208083526101a0830184518285015281850151604061580281870183615061565b80870151915061581560e0870183615061565b6060878101516101808881015280519485905285019390925085906101c08801905b808310156158925785518051151583528781015188840152848101516001600160801b03168584015285810151868401526080808201519084015260a09081015190830152948601946001929092019160c090910190615837565b5098975050505050505050565b608081016158ad8285615249565b6109f16040830184615249565b61020081016158c98285615258565b6109f1610100830184615258565b6020808252825182820152828101516040808401919091528084015160608085019190915280850151608080860152805160a08601819052600094939184019285929160c08801905b808510156158925785518051805184528881015189850152850151858401528781015161594f85850182615166565b5080850151805160e08501528881015161010085015280860151610120850152840151610140840152830151615989610160840182615166565b506101e0820191508686019550600185019450615920565b6000602080835260a0830184518285015281850151604085015260408501516060850152606085015160808086015281815180845260c08701915084830193508592505b8083101561535157835182529284019260019290920191908401906159e5565b6000610380808352615a19818401886152f2565b91505084602083015283604083015261250a6060830184615098565b600060e08252615a4860e083018a6152f2565b8860208401528760408401528660608401528281036080840152615a6c8187614f67565b60a084019590955250506001600160a01b039190911660c09091015295945050505050565b60006103a0808352615aa5818401896152f2565b915050856020830152846040830152615ac16060830185615098565b6001600160a01b03929092166103809190910152949350505050565b6000610380808352615af18184018861535c565b915050846020830152615b076040830185615098565b8261036083015295945050505050565b600087825286602083015285604083015284606083015260c06080830152615b4260c0830185614f67565b82810360a08401528351151581526020840151151560208201526040840151151560408201526060840151615b7a6060830182615009565b506080840151608082015260a084015160a082015260c084015160e060c0830152612f9c60e083018261500f565b600086825285602083015260a06040830152615bc760a0830186614f67565b606083019490945250608001529392505050565b600087825286602083015285604083015284606083015260c06080830152615c0660c0830185614f67565b90508260a0830152979650505050505050565b9182526001600160a01b0316602082015260400190565b83815260a08101615c446020830185615249565b6129986060830184615249565b6000858252615c636020830186615249565b615c706060830185615249565b60c060a083015261250760c083018461500f565b93845260208401929092526040830152606082015260800190565b6040518181016001600160401b0381118282101715615cba57fe5b604052919050565b60006001600160401b03821115615cd557fe5b5060209081020190565b6001600160a01b031690565b6001600160a01b0381168114611c1657600080fd5b8015158114611c1657600080fd5b600d8110611c1657600080fd5b8060020b8114611c1657600080fd5b6001600160801b0381168114611c1657600080fdfe496e697469616c697a61626c653a20636f6e747261637420697320616c726561647920696e697469616c697a6564536166654d6174683a206d756c7469706c69636174696f6e206f766572666c6f77a2646970667358221220a31c141acf09b9b9c37310bcb87068effdeb282dd9b0bc1a56fd3716835ddaab64736f6c63430007060033",
  "libraries": {
    "LiquidationLogic": "0x5c30bc1f7dcD0ad9767deC999131d6844095ABED",
    "PositionUpdater": "0xAc8a772a4FF0082C0F23557B5B207A410aEFf120",
    "VaultLib": "0x9cE228621BE12881Dba00b3d1Ec0c21F46134433",
    "PositionLib": "0xfE7bdddA93B1ed89C8C1710F86731748ba6b2D20",
    "InterestCalculator": "0x36d1b5e7Ef9F04e8f332263Be5eC8409377379a4"
  },
  "devdoc": {
    "kind": "dev",
    "methods": {
      "calculateYearlyPremium(bytes32,uint256)": {
        "params": {
          "_rangeId": "The id of the range",
          "_utilizationRatio": "Utilization ratio of LPT"
        }
      },
      "checkLiquidatable(uint256)": {
        "params": {
          "_vaultId": "vault id"
        },
        "returns": {
          "_0": "isLiquidatable true if the vault is liquidatable, false if the vault is safe."
        }
      },
      "closePosition(uint256,(uint256,uint256,uint256,uint256,uint256,(bool,uint128,int24,int24)[])[],(bool,bool,bool,bool,int256,int256,bytes),(uint256,uint256,uint256,uint256,uint24))": {
        "params": {
          "_closePositionOptions": "Option parameters to close position",
          "_positions": "Positions to close",
          "_tradeOption": "Trade parameters",
          "_vaultId": "The id of the vault"
        }
      },
      "closeSubVault(uint256,uint256,(bool,bool,bool,bool,int256,int256,bytes),(uint256,uint256,uint256,uint256,uint24))": {
        "params": {
          "_closePositionOptions": "Option parameters to close position",
          "_subVaultIndex": "The index of the sub-vault",
          "_tradeOption": "Trade parameters",
          "_vaultId": "The id of the vault"
        }
      },
      "closeVault(uint256,(bool,bool,bool,bool,int256,int256,bytes),(uint256,uint256,uint256,uint256,uint24))": {
        "params": {
          "_closePositionOptions": "Option parameters to close position",
          "_tradeOption": "Trade parameters",
          "_vaultId": "The id of the vault"
        }
      },
      "forceClose(bytes[])": {
        "params": {
          "_data": "Vaults data to close position"
        }
      },
      "getRange(bytes32)": {
        "params": {
          "_rangeId": "The id of the LPT"
        }
      },
      "getSubVault(uint256)": {
        "params": {
          "_subVaultId": "The id of the sub-vault"
        }
      },
      "getVault(uint256)": {
        "params": {
          "_vaultId": "The id of the vault"
        }
      },
      "getVaultStatus(uint256)": {
        "params": {
          "_vaultId": "The id of the vault"
        }
      },
      "liquidate(uint256,(uint256,uint256,uint24))": {
        "params": {
          "_liquidationOption": "option parameters for liquidation call",
          "_vaultId": "The id of the vault"
        }
      },
      "openPosition(uint256,(uint256,uint256,uint256,uint256,uint256,(bool,uint128,int24,int24)[]),(bool,bool,bool,bool,int256,int256,bytes),(uint256,uint256,uint24))": {
        "params": {
          "_openPositionOptions": "Option parameters to open position",
          "_position": "Position to open",
          "_tradeOption": "Trade parameters",
          "_vaultId": "The id of the vault. 0 means that it creates new vault."
        }
      },
      "setOperator(address)": {
        "details": "Only operator can call this function.",
        "params": {
          "_newOperator": "The address of new operator"
        }
      },
      "uniswapV3MintCallback(uint256,uint256,bytes)": {
        "details": "Callback for Uniswap V3 pool."
      },
      "updateIRMParams((uint256,uint256,uint256,uint256))": {
        "details": "Only operator can call this function.",
        "params": {
          "_irmParams": "New interest rate model parameter"
        }
      },
      "updatePosition(uint256,(uint8,uint256,bool,uint128,int24,int24,uint256,uint256)[],(bool,bool,bool,bool,int256,int256,bytes))": {
        "params": {
          "_positionUpdates": "Operation list to update position",
          "_tradeOption": "trade parameters",
          "_vaultId": "The id of the vault. 0 means that it creates new vault."
        }
      },
      "updateYearlyPremiumParams((uint256,uint256,uint256,uint256),(uint256,uint256,uint256,uint256))": {
        "details": "Only operator can call this function.",
        "params": {
          "_irmParams": "New interest rate model parameter",
          "_premiumParams": "New interest rate model parameter for variance calculation"
        }
      },
      "withdrawProtocolFee(uint256,uint256)": {
        "details": "Only operator can call this function.",
        "params": {
          "_amount0": "amount of token0 to withdraw",
          "_amount1": "amount of token1 to withdraw"
        }
      }
    },
    "version": 1
  },
  "userdoc": {
    "kind": "user",
    "methods": {
      "calculateYearlyPremium(bytes32,uint256)": {
        "notice": "Returns yearly premium to borrow Liquidity Provider Token (LPT). The function can return yearly premium with specific utilization ratio."
      },
      "checkLiquidatable(uint256)": {
        "notice": "Returns the flag whether a vault can be liquidated or not."
      },
      "closePosition(uint256,(uint256,uint256,uint256,uint256,uint256,(bool,uint128,int24,int24)[])[],(bool,bool,bool,bool,int256,int256,bytes),(uint256,uint256,uint256,uint256,uint24))": {
        "notice": "Closes position partially."
      },
      "closeSubVault(uint256,uint256,(bool,bool,bool,bool,int256,int256,bytes),(uint256,uint256,uint256,uint256,uint24))": {
        "notice": "Closes all positions in sub-vault."
      },
      "closeVault(uint256,(bool,bool,bool,bool,int256,int256,bytes),(uint256,uint256,uint256,uint256,uint24))": {
        "notice": "Closes all positions in a vault."
      },
      "forceClose(bytes[])": {
        "notice": "Contract owner can close positions"
      },
      "getRange(bytes32)": {
        "notice": "Returns a Liquidity Provider Token (LPT) data"
      },
      "getSqrtPrice()": {
        "notice": "Gets square root of current underlying token price by quote token."
      },
      "getSubVault(uint256)": {
        "notice": "Returns a sub-vault data"
      },
      "getTokenState()": {
        "notice": "Returns the status of supplied tokens."
      },
      "getVault(uint256)": {
        "notice": "Returns a vault data"
      },
      "getVaultStatus(uint256)": {
        "notice": "Returns values and token amounts of the vault."
      },
      "liquidate(uint256,(uint256,uint256,uint24))": {
        "notice": "Liquidates a vault."
      },
      "openPosition(uint256,(uint256,uint256,uint256,uint256,uint256,(bool,uint128,int24,int24)[]),(bool,bool,bool,bool,int256,int256,bytes),(uint256,uint256,uint24))": {
        "notice": "Opens new position."
      },
      "setOperator(address)": {
        "notice": "Sets new operator"
      },
      "updateIRMParams((uint256,uint256,uint256,uint256))": {
        "notice": "Updates interest rate model parameter."
      },
      "updatePosition(uint256,(uint8,uint256,bool,uint128,int24,int24,uint256,uint256)[],(bool,bool,bool,bool,int256,int256,bytes))": {
        "notice": "Update position in a vault."
      },
      "updateYearlyPremiumParams((uint256,uint256,uint256,uint256),(uint256,uint256,uint256,uint256))": {
        "notice": "Updates interest rate model parameters for premium calculation."
      },
      "withdrawProtocolFee(uint256,uint256)": {
        "notice": "Withdraws accumulated protocol fee."
      }
    },
    "version": 1
  },
  "storageLayout": {
    "storage": [
      {
        "astId": 994,
        "contract": "src/ControllerHelper.sol:ControllerHelper",
        "label": "_initialized",
        "offset": 0,
        "slot": "0",
        "type": "t_bool"
      },
      {
        "astId": 997,
        "contract": "src/ControllerHelper.sol:ControllerHelper",
        "label": "_initializing",
        "offset": 1,
        "slot": "0",
        "type": "t_bool"
      },
      {
        "astId": 6306,
        "contract": "src/ControllerHelper.sol:ControllerHelper",
        "label": "lastTouchedTimestamp",
        "offset": 0,
        "slot": "1",
        "type": "t_uint256"
      },
      {
        "astId": 6310,
        "contract": "src/ControllerHelper.sol:ControllerHelper",
        "label": "ranges",
        "offset": 0,
        "slot": "2",
        "type": "t_mapping(t_bytes32,t_struct(PerpStatus)9187_storage)"
      },
      {
        "astId": 6314,
        "contract": "src/ControllerHelper.sol:ControllerHelper",
        "label": "vaults",
        "offset": 0,
        "slot": "3",
        "type": "t_mapping(t_uint256,t_struct(Vault)9220_storage)"
      },
      {
        "astId": 6318,
        "contract": "src/ControllerHelper.sol:ControllerHelper",
        "label": "subVaults",
        "offset": 0,
        "slot": "4",
        "type": "t_mapping(t_uint256,t_struct(SubVault)9210_storage)"
      },
      {
        "astId": 6320,
        "contract": "src/ControllerHelper.sol:ControllerHelper",
        "label": "context",
        "offset": 0,
        "slot": "5",
        "type": "t_struct(Context)9243_storage"
      },
      {
        "astId": 6322,
        "contract": "src/ControllerHelper.sol:ControllerHelper",
        "label": "irmParams",
        "offset": 0,
        "slot": "28",
        "type": "t_struct(IRMParams)9460_storage"
      },
      {
        "astId": 6324,
        "contract": "src/ControllerHelper.sol:ControllerHelper",
        "label": "ypParams",
        "offset": 0,
        "slot": "32",
        "type": "t_struct(YearlyPremiumParams)9451_storage"
      },
      {
        "astId": 6326,
        "contract": "src/ControllerHelper.sol:ControllerHelper",
        "label": "operator",
        "offset": 0,
        "slot": "41",
        "type": "t_address"
      },
      {
        "astId": 6328,
        "contract": "src/ControllerHelper.sol:ControllerHelper",
        "label": "vaultNFT",
        "offset": 0,
        "slot": "42",
        "type": "t_address"
      }
    ],
    "types": {
      "t_address": {
        "encoding": "inplace",
        "label": "address",
        "numberOfBytes": "20"
      },
      "t_array(t_struct(LPTState)9200_storage)dyn_storage": {
        "base": "t_struct(LPTState)9200_storage",
        "encoding": "dynamic_array",
        "label": "struct DataType.LPTState[]",
        "numberOfBytes": "32"
      },
      "t_array(t_uint256)dyn_storage": {
        "base": "t_uint256",
        "encoding": "dynamic_array",
        "label": "uint256[]",
        "numberOfBytes": "32"
      },
      "t_bool": {
        "encoding": "inplace",
        "label": "bool",
        "numberOfBytes": "1"
      },
      "t_bytes32": {
        "encoding": "inplace",
        "label": "bytes32",
        "numberOfBytes": "32"
      },
      "t_enum(InterestType)8161": {
        "encoding": "inplace",
        "label": "enum BaseToken.InterestType",
        "numberOfBytes": "1"
      },
      "t_int24": {
        "encoding": "inplace",
        "label": "int24",
        "numberOfBytes": "3"
      },
      "t_mapping(t_bytes32,t_struct(PerpStatus)9187_storage)": {
        "encoding": "mapping",
        "key": "t_bytes32",
        "label": "mapping(bytes32 => struct DataType.PerpStatus)",
        "numberOfBytes": "32",
        "value": "t_struct(PerpStatus)9187_storage"
      },
      "t_mapping(t_bytes32,t_struct(TickSnapshot)9437_storage)": {
        "encoding": "mapping",
        "key": "t_bytes32",
        "label": "mapping(bytes32 => struct InterestCalculator.TickSnapshot)",
        "numberOfBytes": "32",
        "value": "t_struct(TickSnapshot)9437_storage"
      },
      "t_mapping(t_uint256,t_struct(SubVault)9210_storage)": {
        "encoding": "mapping",
        "key": "t_uint256",
        "label": "mapping(uint256 => struct DataType.SubVault)",
        "numberOfBytes": "32",
        "value": "t_struct(SubVault)9210_storage"
      },
      "t_mapping(t_uint256,t_struct(Vault)9220_storage)": {
        "encoding": "mapping",
        "key": "t_uint256",
        "label": "mapping(uint256 => struct DataType.Vault)",
        "numberOfBytes": "32",
        "value": "t_struct(Vault)9220_storage"
      },
      "t_struct(AccountState)8189_storage": {
        "encoding": "inplace",
        "label": "struct BaseToken.AccountState",
        "members": [
          {
            "astId": 8180,
            "contract": "src/ControllerHelper.sol:ControllerHelper",
            "label": "interestType",
            "offset": 0,
            "slot": "0",
            "type": "t_enum(InterestType)8161"
          },
          {
            "astId": 8182,
            "contract": "src/ControllerHelper.sol:ControllerHelper",
            "label": "assetAmount",
            "offset": 0,
            "slot": "1",
            "type": "t_uint256"
          },
          {
            "astId": 8184,
            "contract": "src/ControllerHelper.sol:ControllerHelper",
            "label": "debtAmount",
            "offset": 0,
            "slot": "2",
            "type": "t_uint256"
          },
          {
            "astId": 8186,
            "contract": "src/ControllerHelper.sol:ControllerHelper",
            "label": "lastAssetGrowth",
            "offset": 0,
            "slot": "3",
            "type": "t_uint256"
          },
          {
            "astId": 8188,
            "contract": "src/ControllerHelper.sol:ControllerHelper",
            "label": "lastDebtGrowth",
            "offset": 0,
            "slot": "4",
            "type": "t_uint256"
          }
        ],
        "numberOfBytes": "160"
      },
      "t_struct(Context)9243_storage": {
        "encoding": "inplace",
        "label": "struct DataType.Context",
        "members": [
          {
            "astId": 9222,
            "contract": "src/ControllerHelper.sol:ControllerHelper",
            "label": "token0",
            "offset": 0,
            "slot": "0",
            "type": "t_address"
          },
          {
            "astId": 9224,
            "contract": "src/ControllerHelper.sol:ControllerHelper",
            "label": "token1",
            "offset": 0,
            "slot": "1",
            "type": "t_address"
          },
          {
            "astId": 9226,
            "contract": "src/ControllerHelper.sol:ControllerHelper",
            "label": "feeTier",
            "offset": 20,
            "slot": "1",
            "type": "t_uint24"
          },
          {
            "astId": 9228,
            "contract": "src/ControllerHelper.sol:ControllerHelper",
            "label": "swapRouter",
            "offset": 0,
            "slot": "2",
            "type": "t_address"
          },
          {
            "astId": 9230,
            "contract": "src/ControllerHelper.sol:ControllerHelper",
            "label": "uniswapPool",
            "offset": 0,
            "slot": "3",
            "type": "t_address"
          },
          {
            "astId": 9232,
            "contract": "src/ControllerHelper.sol:ControllerHelper",
            "label": "isMarginZero",
            "offset": 20,
            "slot": "3",
            "type": "t_bool"
          },
          {
            "astId": 9234,
            "contract": "src/ControllerHelper.sol:ControllerHelper",
            "label": "nextSubVaultId",
            "offset": 0,
            "slot": "4",
            "type": "t_uint256"
          },
          {
            "astId": 9236,
            "contract": "src/ControllerHelper.sol:ControllerHelper",
            "label": "tokenState0",
            "offset": 0,
            "slot": "5",
            "type": "t_struct(TokenState)8178_storage"
          },
          {
            "astId": 9238,
            "contract": "src/ControllerHelper.sol:ControllerHelper",
            "label": "tokenState1",
            "offset": 0,
            "slot": "13",
            "type": "t_struct(TokenState)8178_storage"
          },
          {
            "astId": 9240,
            "contract": "src/ControllerHelper.sol:ControllerHelper",
            "label": "accumuratedProtocolFee0",
            "offset": 0,
            "slot": "21",
            "type": "t_uint256"
          },
          {
            "astId": 9242,
            "contract": "src/ControllerHelper.sol:ControllerHelper",
            "label": "accumuratedProtocolFee1",
            "offset": 0,
            "slot": "22",
            "type": "t_uint256"
          }
        ],
        "numberOfBytes": "736"
      },
      "t_struct(IRMParams)9460_storage": {
        "encoding": "inplace",
        "label": "struct InterestCalculator.IRMParams",
        "members": [
          {
            "astId": 9453,
            "contract": "src/ControllerHelper.sol:ControllerHelper",
            "label": "baseRate",
            "offset": 0,
            "slot": "0",
            "type": "t_uint256"
          },
          {
            "astId": 9455,
            "contract": "src/ControllerHelper.sol:ControllerHelper",
            "label": "kinkRate",
            "offset": 0,
            "slot": "1",
            "type": "t_uint256"
          },
          {
            "astId": 9457,
            "contract": "src/ControllerHelper.sol:ControllerHelper",
            "label": "slope1",
            "offset": 0,
            "slot": "2",
            "type": "t_uint256"
          },
          {
            "astId": 9459,
            "contract": "src/ControllerHelper.sol:ControllerHelper",
            "label": "slope2",
            "offset": 0,
            "slot": "3",
            "type": "t_uint256"
          }
        ],
        "numberOfBytes": "128"
      },
      "t_struct(LPTState)9200_storage": {
        "encoding": "inplace",
        "label": "struct DataType.LPTState",
        "members": [
          {
            "astId": 9189,
            "contract": "src/ControllerHelper.sol:ControllerHelper",
            "label": "isCollateral",
            "offset": 0,
            "slot": "0",
            "type": "t_bool"
          },
          {
            "astId": 9191,
            "contract": "src/ControllerHelper.sol:ControllerHelper",
            "label": "rangeId",
            "offset": 0,
            "slot": "1",
            "type": "t_bytes32"
          },
          {
            "astId": 9193,
            "contract": "src/ControllerHelper.sol:ControllerHelper",
            "label": "liquidityAmount",
            "offset": 0,
            "slot": "2",
            "type": "t_uint128"
          },
          {
            "astId": 9195,
            "contract": "src/ControllerHelper.sol:ControllerHelper",
            "label": "premiumGrowthLast",
            "offset": 0,
            "slot": "3",
            "type": "t_uint256"
          },
          {
            "astId": 9197,
            "contract": "src/ControllerHelper.sol:ControllerHelper",
            "label": "fee0Last",
            "offset": 0,
            "slot": "4",
            "type": "t_uint256"
          },
          {
            "astId": 9199,
            "contract": "src/ControllerHelper.sol:ControllerHelper",
            "label": "fee1Last",
            "offset": 0,
            "slot": "5",
            "type": "t_uint256"
          }
        ],
        "numberOfBytes": "192"
      },
      "t_struct(PerpStatus)9187_storage": {
        "encoding": "inplace",
        "label": "struct DataType.PerpStatus",
        "members": [
          {
            "astId": 9172,
            "contract": "src/ControllerHelper.sol:ControllerHelper",
            "label": "lowerTick",
            "offset": 0,
            "slot": "0",
            "type": "t_int24"
          },
          {
            "astId": 9174,
            "contract": "src/ControllerHelper.sol:ControllerHelper",
            "label": "upperTick",
            "offset": 3,
            "slot": "0",
            "type": "t_int24"
          },
          {
            "astId": 9176,
            "contract": "src/ControllerHelper.sol:ControllerHelper",
            "label": "borrowedLiquidity",
            "offset": 6,
            "slot": "0",
            "type": "t_uint128"
          },
          {
            "astId": 9178,
            "contract": "src/ControllerHelper.sol:ControllerHelper",
            "label": "premiumGrowthForBorrower",
            "offset": 0,
            "slot": "1",
            "type": "t_uint256"
          },
          {
            "astId": 9180,
            "contract": "src/ControllerHelper.sol:ControllerHelper",
            "label": "premiumGrowthForLender",
            "offset": 0,
            "slot": "2",
            "type": "t_uint256"
          },
          {
            "astId": 9182,
            "contract": "src/ControllerHelper.sol:ControllerHelper",
            "label": "fee0Growth",
            "offset": 0,
            "slot": "3",
            "type": "t_uint256"
          },
          {
            "astId": 9184,
            "contract": "src/ControllerHelper.sol:ControllerHelper",
            "label": "fee1Growth",
            "offset": 0,
            "slot": "4",
            "type": "t_uint256"
          },
          {
            "astId": 9186,
            "contract": "src/ControllerHelper.sol:ControllerHelper",
            "label": "lastTouchedTimestamp",
            "offset": 0,
            "slot": "5",
            "type": "t_uint256"
          }
        ],
        "numberOfBytes": "192"
      },
      "t_struct(SubVault)9210_storage": {
        "encoding": "inplace",
        "label": "struct DataType.SubVault",
        "members": [
          {
            "astId": 9202,
            "contract": "src/ControllerHelper.sol:ControllerHelper",
            "label": "id",
            "offset": 0,
            "slot": "0",
            "type": "t_uint256"
          },
          {
            "astId": 9204,
            "contract": "src/ControllerHelper.sol:ControllerHelper",
            "label": "balance0",
            "offset": 0,
            "slot": "1",
            "type": "t_struct(AccountState)8189_storage"
          },
          {
            "astId": 9206,
            "contract": "src/ControllerHelper.sol:ControllerHelper",
            "label": "balance1",
            "offset": 0,
            "slot": "6",
            "type": "t_struct(AccountState)8189_storage"
          },
          {
            "astId": 9209,
            "contract": "src/ControllerHelper.sol:ControllerHelper",
            "label": "lpts",
            "offset": 0,
            "slot": "11",
            "type": "t_array(t_struct(LPTState)9200_storage)dyn_storage"
          }
        ],
        "numberOfBytes": "384"
      },
      "t_struct(TickSnapshot)9437_storage": {
        "encoding": "inplace",
        "label": "struct InterestCalculator.TickSnapshot",
        "members": [
          {
            "astId": 9430,
            "contract": "src/ControllerHelper.sol:ControllerHelper",
            "label": "lastFeeGrowthInside0X128",
            "offset": 0,
            "slot": "0",
            "type": "t_uint256"
          },
          {
            "astId": 9432,
            "contract": "src/ControllerHelper.sol:ControllerHelper",
            "label": "lastFeeGrowthInside1X128",
            "offset": 0,
            "slot": "1",
            "type": "t_uint256"
          },
          {
            "astId": 9434,
            "contract": "src/ControllerHelper.sol:ControllerHelper",
            "label": "lastFeeGrowthGlobal0X128",
            "offset": 0,
            "slot": "2",
            "type": "t_uint256"
          },
          {
            "astId": 9436,
            "contract": "src/ControllerHelper.sol:ControllerHelper",
            "label": "lastFeeGrowthGlobal1X128",
            "offset": 0,
            "slot": "3",
            "type": "t_uint256"
          }
        ],
        "numberOfBytes": "128"
      },
      "t_struct(TokenState)8178_storage": {
        "encoding": "inplace",
        "label": "struct BaseToken.TokenState",
        "members": [
          {
            "astId": 8163,
            "contract": "src/ControllerHelper.sol:ControllerHelper",
            "label": "totalCompoundDeposited",
            "offset": 0,
            "slot": "0",
            "type": "t_uint256"
          },
          {
            "astId": 8165,
            "contract": "src/ControllerHelper.sol:ControllerHelper",
            "label": "totalCompoundBorrowed",
            "offset": 0,
            "slot": "1",
            "type": "t_uint256"
          },
          {
            "astId": 8167,
            "contract": "src/ControllerHelper.sol:ControllerHelper",
            "label": "totalNormalDeposited",
            "offset": 0,
            "slot": "2",
            "type": "t_uint256"
          },
          {
            "astId": 8169,
            "contract": "src/ControllerHelper.sol:ControllerHelper",
            "label": "totalNormalBorrowed",
            "offset": 0,
            "slot": "3",
            "type": "t_uint256"
          },
          {
            "astId": 8171,
            "contract": "src/ControllerHelper.sol:ControllerHelper",
            "label": "assetScaler",
            "offset": 0,
            "slot": "4",
            "type": "t_uint256"
          },
          {
            "astId": 8173,
            "contract": "src/ControllerHelper.sol:ControllerHelper",
            "label": "debtScaler",
            "offset": 0,
            "slot": "5",
            "type": "t_uint256"
          },
          {
            "astId": 8175,
            "contract": "src/ControllerHelper.sol:ControllerHelper",
            "label": "assetGrowth",
            "offset": 0,
            "slot": "6",
            "type": "t_uint256"
          },
          {
            "astId": 8177,
            "contract": "src/ControllerHelper.sol:ControllerHelper",
            "label": "debtGrowth",
            "offset": 0,
            "slot": "7",
            "type": "t_uint256"
          }
        ],
        "numberOfBytes": "256"
      },
      "t_struct(Vault)9220_storage": {
        "encoding": "inplace",
        "label": "struct DataType.Vault",
        "members": [
          {
            "astId": 9212,
            "contract": "src/ControllerHelper.sol:ControllerHelper",
            "label": "vaultId",
            "offset": 0,
            "slot": "0",
            "type": "t_uint256"
          },
          {
            "astId": 9214,
            "contract": "src/ControllerHelper.sol:ControllerHelper",
            "label": "marginAmount0",
            "offset": 0,
            "slot": "1",
            "type": "t_uint256"
          },
          {
            "astId": 9216,
            "contract": "src/ControllerHelper.sol:ControllerHelper",
            "label": "marginAmount1",
            "offset": 0,
            "slot": "2",
            "type": "t_uint256"
          },
          {
            "astId": 9219,
            "contract": "src/ControllerHelper.sol:ControllerHelper",
            "label": "subVaults",
            "offset": 0,
            "slot": "3",
            "type": "t_array(t_uint256)dyn_storage"
          }
        ],
        "numberOfBytes": "128"
      },
      "t_struct(YearlyPremiumParams)9451_storage": {
        "encoding": "inplace",
        "label": "struct InterestCalculator.YearlyPremiumParams",
        "members": [
          {
            "astId": 9444,
            "contract": "src/ControllerHelper.sol:ControllerHelper",
            "label": "premiumParams",
            "offset": 0,
            "slot": "0",
            "type": "t_struct(IRMParams)9460_storage"
          },
          {
            "astId": 9446,
            "contract": "src/ControllerHelper.sol:ControllerHelper",
            "label": "irmParams",
            "offset": 0,
            "slot": "4",
            "type": "t_struct(IRMParams)9460_storage"
          },
          {
            "astId": 9450,
            "contract": "src/ControllerHelper.sol:ControllerHelper",
            "label": "snapshots",
            "offset": 0,
            "slot": "8",
            "type": "t_mapping(t_bytes32,t_struct(TickSnapshot)9437_storage)"
          }
        ],
        "numberOfBytes": "288"
      },
      "t_uint128": {
        "encoding": "inplace",
        "label": "uint128",
        "numberOfBytes": "16"
      },
      "t_uint24": {
        "encoding": "inplace",
        "label": "uint24",
        "numberOfBytes": "3"
      },
      "t_uint256": {
        "encoding": "inplace",
        "label": "uint256",
        "numberOfBytes": "32"
      }
    }
  }
}