{
  "address": "0xdD7977BF9116ab89a367CFFcCf11f88A91C5b294",
  "abi": [
    {
      "inputs": [],
      "stateMutability": "nonpayable",
      "type": "constructor"
    },
    {
      "anonymous": false,
      "inputs": [
        {
          "indexed": false,
          "internalType": "uint256",
          "name": "vaultId",
          "type": "uint256"
        },
        {
          "indexed": false,
          "internalType": "int256",
          "name": "a0",
          "type": "int256"
        },
        {
          "indexed": false,
          "internalType": "int256",
          "name": "a1",
          "type": "int256"
        },
        {
          "indexed": false,
          "internalType": "uint160",
          "name": "sqrtPrice",
          "type": "uint160"
        },
        {
          "indexed": false,
          "internalType": "bytes",
          "name": "metadata",
          "type": "bytes"
        }
      ],
      "name": "PositionUpdated",
      "type": "event"
    },
    {
      "anonymous": false,
      "inputs": [
        {
          "indexed": false,
          "internalType": "uint256",
          "name": "vaultId",
          "type": "uint256"
        },
        {
          "indexed": false,
          "internalType": "address",
          "name": "owner",
          "type": "address"
        }
      ],
      "name": "VaultCreated",
      "type": "event"
    },
    {
      "inputs": [
        {
          "internalType": "bytes32",
          "name": "_rangeId",
          "type": "bytes32"
        }
      ],
      "name": "calculateYearlyPremium",
      "outputs": [
        {
          "internalType": "uint256",
          "name": "",
          "type": "uint256"
        }
      ],
      "stateMutability": "view",
      "type": "function"
    },
    {
      "inputs": [
        {
          "internalType": "uint256",
          "name": "_vaultId",
          "type": "uint256"
        }
      ],
      "name": "checkLiquidatable",
      "outputs": [
        {
          "internalType": "bool",
          "name": "",
          "type": "bool"
        }
      ],
      "stateMutability": "nonpayable",
      "type": "function"
    },
    {
      "inputs": [
        {
          "internalType": "uint256",
          "name": "_vaultId",
          "type": "uint256"
        },
        {
          "components": [
            {
              "internalType": "uint256",
              "name": "subVaultIndex",
              "type": "uint256"
            },
            {
              "internalType": "uint256",
              "name": "collateral0",
              "type": "uint256"
            },
            {
              "internalType": "uint256",
              "name": "collateral1",
              "type": "uint256"
            },
            {
              "internalType": "uint256",
              "name": "debt0",
              "type": "uint256"
            },
            {
              "internalType": "uint256",
              "name": "debt1",
              "type": "uint256"
            },
            {
              "components": [
                {
                  "internalType": "bool",
                  "name": "isCollateral",
                  "type": "bool"
                },
                {
                  "internalType": "uint128",
                  "name": "liquidity",
                  "type": "uint128"
                },
                {
                  "internalType": "int24",
                  "name": "lowerTick",
                  "type": "int24"
                },
                {
                  "internalType": "int24",
                  "name": "upperTick",
                  "type": "int24"
                }
              ],
              "internalType": "struct DataType.LPT[]",
              "name": "lpts",
              "type": "tuple[]"
            }
          ],
          "internalType": "struct DataType.Position[]",
          "name": "_positions",
          "type": "tuple[]"
        },
        {
          "components": [
            {
              "internalType": "bool",
              "name": "reduceOnly",
              "type": "bool"
            },
            {
              "internalType": "bool",
              "name": "swapAnyway",
              "type": "bool"
            },
            {
              "internalType": "bool",
              "name": "quoterMode",
              "type": "bool"
            },
            {
              "internalType": "bool",
              "name": "isQuoteZero",
              "type": "bool"
            },
            {
              "internalType": "int256",
              "name": "targetMarginAmount0",
              "type": "int256"
            },
            {
              "internalType": "int256",
              "name": "targetMarginAmount1",
              "type": "int256"
            },
            {
              "internalType": "bytes",
              "name": "metadata",
              "type": "bytes"
            }
          ],
          "internalType": "struct DataType.TradeOption",
          "name": "_tradeOption",
          "type": "tuple"
        },
        {
          "components": [
            {
              "internalType": "uint256",
              "name": "lowerSqrtPrice",
              "type": "uint256"
            },
            {
              "internalType": "uint256",
              "name": "upperSqrtPrice",
              "type": "uint256"
            },
            {
              "internalType": "uint256",
              "name": "swapRatio",
              "type": "uint256"
            }
          ],
          "internalType": "struct DataType.ClosePositionOption",
          "name": "_closePositionOptions",
          "type": "tuple"
        }
      ],
      "name": "closePosition",
      "outputs": [
        {
          "internalType": "int256",
          "name": "requiredAmount0",
          "type": "int256"
        },
        {
          "internalType": "int256",
          "name": "requiredAmount1",
          "type": "int256"
        }
      ],
      "stateMutability": "nonpayable",
      "type": "function"
    },
    {
      "inputs": [
        {
          "internalType": "uint256",
          "name": "_vaultId",
          "type": "uint256"
        },
        {
          "internalType": "uint256",
          "name": "_subVaultIndex",
          "type": "uint256"
        },
        {
          "components": [
            {
              "internalType": "bool",
              "name": "reduceOnly",
              "type": "bool"
            },
            {
              "internalType": "bool",
              "name": "swapAnyway",
              "type": "bool"
            },
            {
              "internalType": "bool",
              "name": "quoterMode",
              "type": "bool"
            },
            {
              "internalType": "bool",
              "name": "isQuoteZero",
              "type": "bool"
            },
            {
              "internalType": "int256",
              "name": "targetMarginAmount0",
              "type": "int256"
            },
            {
              "internalType": "int256",
              "name": "targetMarginAmount1",
              "type": "int256"
            },
            {
              "internalType": "bytes",
              "name": "metadata",
              "type": "bytes"
            }
          ],
          "internalType": "struct DataType.TradeOption",
          "name": "_tradeOption",
          "type": "tuple"
        },
        {
          "components": [
            {
              "internalType": "uint256",
              "name": "lowerSqrtPrice",
              "type": "uint256"
            },
            {
              "internalType": "uint256",
              "name": "upperSqrtPrice",
              "type": "uint256"
            },
            {
              "internalType": "uint256",
              "name": "swapRatio",
              "type": "uint256"
            }
          ],
          "internalType": "struct DataType.ClosePositionOption",
          "name": "_closePositionOptions",
          "type": "tuple"
        }
      ],
      "name": "closeSubVault",
      "outputs": [
        {
          "internalType": "int256",
          "name": "",
          "type": "int256"
        },
        {
          "internalType": "int256",
          "name": "",
          "type": "int256"
        }
      ],
      "stateMutability": "nonpayable",
      "type": "function"
    },
    {
      "inputs": [
        {
          "internalType": "uint256",
          "name": "_vaultId",
          "type": "uint256"
        },
        {
          "components": [
            {
              "internalType": "bool",
              "name": "reduceOnly",
              "type": "bool"
            },
            {
              "internalType": "bool",
              "name": "swapAnyway",
              "type": "bool"
            },
            {
              "internalType": "bool",
              "name": "quoterMode",
              "type": "bool"
            },
            {
              "internalType": "bool",
              "name": "isQuoteZero",
              "type": "bool"
            },
            {
              "internalType": "int256",
              "name": "targetMarginAmount0",
              "type": "int256"
            },
            {
              "internalType": "int256",
              "name": "targetMarginAmount1",
              "type": "int256"
            },
            {
              "internalType": "bytes",
              "name": "metadata",
              "type": "bytes"
            }
          ],
          "internalType": "struct DataType.TradeOption",
          "name": "_tradeOption",
          "type": "tuple"
        },
        {
          "components": [
            {
              "internalType": "uint256",
              "name": "lowerSqrtPrice",
              "type": "uint256"
            },
            {
              "internalType": "uint256",
              "name": "upperSqrtPrice",
              "type": "uint256"
            },
            {
              "internalType": "uint256",
              "name": "swapRatio",
              "type": "uint256"
            }
          ],
          "internalType": "struct DataType.ClosePositionOption",
          "name": "_closePositionOptions",
          "type": "tuple"
        }
      ],
      "name": "closeVault",
      "outputs": [
        {
          "internalType": "int256",
          "name": "",
          "type": "int256"
        },
        {
          "internalType": "int256",
          "name": "",
          "type": "int256"
        }
      ],
      "stateMutability": "nonpayable",
      "type": "function"
    },
    {
      "inputs": [
        {
          "internalType": "bytes[]",
          "name": "_data",
          "type": "bytes[]"
        }
      ],
      "name": "forceClose",
      "outputs": [],
      "stateMutability": "nonpayable",
      "type": "function"
    },
    {
      "inputs": [],
      "name": "getAssetStatus",
      "outputs": [
        {
          "internalType": "uint256",
          "name": "",
          "type": "uint256"
        },
        {
          "internalType": "uint256",
          "name": "",
          "type": "uint256"
        },
        {
          "internalType": "uint256",
          "name": "",
          "type": "uint256"
        },
        {
          "internalType": "uint256",
          "name": "",
          "type": "uint256"
        },
        {
          "internalType": "uint256",
          "name": "",
          "type": "uint256"
        },
        {
          "internalType": "uint256",
          "name": "",
          "type": "uint256"
        }
      ],
      "stateMutability": "view",
      "type": "function"
    },
    {
      "inputs": [],
      "name": "getContext",
      "outputs": [
        {
          "internalType": "bool",
          "name": "",
          "type": "bool"
        },
        {
          "internalType": "uint256",
          "name": "",
          "type": "uint256"
        },
        {
          "internalType": "uint256",
          "name": "",
          "type": "uint256"
        },
        {
          "internalType": "address",
          "name": "",
          "type": "address"
        },
        {
          "internalType": "uint256",
          "name": "",
          "type": "uint256"
        },
        {
          "internalType": "uint256",
          "name": "",
          "type": "uint256"
        }
      ],
      "stateMutability": "view",
      "type": "function"
    },
    {
      "inputs": [
        {
          "internalType": "bytes32",
          "name": "_rangeId",
          "type": "bytes32"
        }
      ],
      "name": "getLPTStatus",
      "outputs": [
        {
          "internalType": "uint256",
          "name": "",
          "type": "uint256"
        },
        {
          "internalType": "uint256",
          "name": "",
          "type": "uint256"
        },
        {
          "internalType": "uint256",
          "name": "",
          "type": "uint256"
        }
      ],
      "stateMutability": "view",
      "type": "function"
    },
    {
      "inputs": [
        {
          "internalType": "uint256",
          "name": "_vaultId",
          "type": "uint256"
        }
      ],
      "name": "getPosition",
      "outputs": [
        {
          "components": [
            {
              "internalType": "uint256",
              "name": "subVaultIndex",
              "type": "uint256"
            },
            {
              "internalType": "uint256",
              "name": "collateral0",
              "type": "uint256"
            },
            {
              "internalType": "uint256",
              "name": "collateral1",
              "type": "uint256"
            },
            {
              "internalType": "uint256",
              "name": "debt0",
              "type": "uint256"
            },
            {
              "internalType": "uint256",
              "name": "debt1",
              "type": "uint256"
            },
            {
              "components": [
                {
                  "internalType": "bool",
                  "name": "isCollateral",
                  "type": "bool"
                },
                {
                  "internalType": "uint128",
                  "name": "liquidity",
                  "type": "uint128"
                },
                {
                  "internalType": "int24",
                  "name": "lowerTick",
                  "type": "int24"
                },
                {
                  "internalType": "int24",
                  "name": "upperTick",
                  "type": "int24"
                }
              ],
              "internalType": "struct DataType.LPT[]",
              "name": "lpts",
              "type": "tuple[]"
            }
          ],
          "internalType": "struct DataType.Position[]",
          "name": "",
          "type": "tuple[]"
        }
      ],
      "stateMutability": "view",
      "type": "function"
    },
    {
      "inputs": [
        {
          "internalType": "uint256",
          "name": "_vaultId",
          "type": "uint256"
        }
      ],
      "name": "getPositionCalculatorParams",
      "outputs": [
        {
          "components": [
            {
              "internalType": "int256",
              "name": "marginAmount0",
              "type": "int256"
            },
            {
              "internalType": "int256",
              "name": "marginAmount1",
              "type": "int256"
            },
            {
              "internalType": "uint256",
              "name": "collateral0",
              "type": "uint256"
            },
            {
              "internalType": "uint256",
              "name": "collateral1",
              "type": "uint256"
            },
            {
              "internalType": "uint256",
              "name": "debt0",
              "type": "uint256"
            },
            {
              "internalType": "uint256",
              "name": "debt1",
              "type": "uint256"
            },
            {
              "components": [
                {
                  "internalType": "bool",
                  "name": "isCollateral",
                  "type": "bool"
                },
                {
                  "internalType": "uint128",
                  "name": "liquidity",
                  "type": "uint128"
                },
                {
                  "internalType": "int24",
                  "name": "lowerTick",
                  "type": "int24"
                },
                {
                  "internalType": "int24",
                  "name": "upperTick",
                  "type": "int24"
                }
              ],
              "internalType": "struct DataType.LPT[]",
              "name": "lpts",
              "type": "tuple[]"
            }
          ],
          "internalType": "struct PositionCalculator.PositionCalculatorParams",
          "name": "",
          "type": "tuple"
        }
      ],
      "stateMutability": "view",
      "type": "function"
    },
    {
      "inputs": [
        {
          "internalType": "bytes32",
          "name": "_rangeId",
          "type": "bytes32"
        }
      ],
      "name": "getRange",
      "outputs": [
        {
          "components": [
            {
              "internalType": "uint256",
              "name": "tokenId",
              "type": "uint256"
            },
            {
              "internalType": "int24",
              "name": "lowerTick",
              "type": "int24"
            },
            {
              "internalType": "int24",
              "name": "upperTick",
              "type": "int24"
            },
            {
              "internalType": "uint128",
              "name": "borrowedLiquidity",
              "type": "uint128"
            },
            {
              "internalType": "uint256",
              "name": "premiumGrowthForBorrower",
              "type": "uint256"
            },
            {
              "internalType": "uint256",
              "name": "premiumGrowthForLender",
              "type": "uint256"
            },
            {
              "internalType": "uint256",
              "name": "fee0Growth",
              "type": "uint256"
            },
            {
              "internalType": "uint256",
              "name": "fee1Growth",
              "type": "uint256"
            },
            {
              "internalType": "uint256",
              "name": "lastTouchedTimestamp",
              "type": "uint256"
            }
          ],
          "internalType": "struct DataType.PerpStatus",
          "name": "",
          "type": "tuple"
        }
      ],
      "stateMutability": "view",
      "type": "function"
    },
    {
      "inputs": [],
      "name": "getSqrtPrice",
      "outputs": [
        {
          "internalType": "uint160",
          "name": "sqrtPriceX96",
          "type": "uint160"
        }
      ],
      "stateMutability": "view",
      "type": "function"
    },
    {
      "inputs": [
        {
          "internalType": "uint256",
          "name": "_subVaultId",
          "type": "uint256"
        }
      ],
      "name": "getSubVault",
      "outputs": [
        {
          "components": [
            {
              "internalType": "uint256",
              "name": "id",
              "type": "uint256"
            },
            {
              "internalType": "bool",
              "name": "isCompound",
              "type": "bool"
            },
            {
              "internalType": "uint256",
              "name": "collateralAmount0",
              "type": "uint256"
            },
            {
              "internalType": "uint256",
              "name": "collateralAmount1",
              "type": "uint256"
            },
            {
              "internalType": "uint256",
              "name": "debtAmount0",
              "type": "uint256"
            },
            {
              "internalType": "uint256",
              "name": "debtAmount1",
              "type": "uint256"
            },
            {
              "components": [
                {
                  "internalType": "uint256",
                  "name": "collateralAmount",
                  "type": "uint256"
                },
                {
                  "internalType": "uint256",
                  "name": "debtAmount",
                  "type": "uint256"
                }
              ],
              "internalType": "struct BaseToken.AccountState",
              "name": "balance0",
              "type": "tuple"
            },
            {
              "components": [
                {
                  "internalType": "uint256",
                  "name": "collateralAmount",
                  "type": "uint256"
                },
                {
                  "internalType": "uint256",
                  "name": "debtAmount",
                  "type": "uint256"
                }
              ],
              "internalType": "struct BaseToken.AccountState",
              "name": "balance1",
              "type": "tuple"
            },
            {
              "components": [
                {
                  "internalType": "bool",
                  "name": "isCollateral",
                  "type": "bool"
                },
                {
                  "internalType": "bytes32",
                  "name": "rangeId",
                  "type": "bytes32"
                },
                {
                  "internalType": "uint128",
                  "name": "liquidityAmount",
                  "type": "uint128"
                },
                {
                  "internalType": "uint256",
                  "name": "premiumGrowthLast",
                  "type": "uint256"
                },
                {
                  "internalType": "uint256",
                  "name": "fee0Last",
                  "type": "uint256"
                },
                {
                  "internalType": "uint256",
                  "name": "fee1Last",
                  "type": "uint256"
                }
              ],
              "internalType": "struct DataType.LPTState[]",
              "name": "lpts",
              "type": "tuple[]"
            }
          ],
          "internalType": "struct DataType.SubVault",
          "name": "",
          "type": "tuple"
        }
      ],
      "stateMutability": "view",
      "type": "function"
    },
    {
      "inputs": [
        {
          "internalType": "uint256",
          "name": "_vaultId",
          "type": "uint256"
        }
      ],
      "name": "getVault",
      "outputs": [
        {
          "components": [
            {
              "internalType": "uint256",
              "name": "vaultId",
              "type": "uint256"
            },
            {
              "internalType": "address",
              "name": "owner",
              "type": "address"
            },
            {
              "internalType": "uint256",
              "name": "marginAmount0",
              "type": "uint256"
            },
            {
              "internalType": "uint256",
              "name": "marginAmount1",
              "type": "uint256"
            },
            {
              "internalType": "uint256[]",
              "name": "subVaults",
              "type": "uint256[]"
            }
          ],
          "internalType": "struct DataType.Vault",
          "name": "",
          "type": "tuple"
        }
      ],
      "stateMutability": "view",
      "type": "function"
    },
    {
      "inputs": [
        {
          "internalType": "uint256",
          "name": "_vaultId",
          "type": "uint256"
        }
      ],
      "name": "getVaultStatus",
      "outputs": [
        {
          "components": [
            {
              "internalType": "int256",
              "name": "positionValue",
              "type": "int256"
            },
            {
              "internalType": "int256",
              "name": "marginValue",
              "type": "int256"
            },
            {
              "internalType": "int256",
              "name": "minCollateral",
              "type": "int256"
            },
            {
              "components": [
                {
                  "components": [
                    {
                      "internalType": "uint256",
                      "name": "collateralValue",
                      "type": "uint256"
                    },
                    {
                      "internalType": "uint256",
                      "name": "debtValue",
                      "type": "uint256"
                    },
                    {
                      "internalType": "int256",
                      "name": "premiumValue",
                      "type": "int256"
                    }
                  ],
                  "internalType": "struct DataType.SubVaultValue",
                  "name": "values",
                  "type": "tuple"
                },
                {
                  "components": [
                    {
                      "internalType": "uint256",
                      "name": "collateralAmount0",
                      "type": "uint256"
                    },
                    {
                      "internalType": "uint256",
                      "name": "collateralAmount1",
                      "type": "uint256"
                    },
                    {
                      "internalType": "uint256",
                      "name": "debtAmount0",
                      "type": "uint256"
                    },
                    {
                      "internalType": "uint256",
                      "name": "debtAmount1",
                      "type": "uint256"
                    }
                  ],
                  "internalType": "struct DataType.SubVaultAmount",
                  "name": "amount",
                  "type": "tuple"
                },
                {
                  "components": [
                    {
                      "internalType": "int256",
                      "name": "collateralFee0",
                      "type": "int256"
                    },
                    {
                      "internalType": "int256",
                      "name": "collateralFee1",
                      "type": "int256"
                    },
                    {
                      "internalType": "int256",
                      "name": "debtFee0",
                      "type": "int256"
                    },
                    {
                      "internalType": "int256",
                      "name": "debtFee1",
                      "type": "int256"
                    }
                  ],
                  "internalType": "struct DataType.SubVaultInterest",
                  "name": "interest",
                  "type": "tuple"
                },
                {
                  "components": [
                    {
                      "internalType": "uint256",
                      "name": "receivedTradeAmount0",
                      "type": "uint256"
                    },
                    {
                      "internalType": "uint256",
                      "name": "receivedTradeAmount1",
                      "type": "uint256"
                    },
                    {
                      "internalType": "uint256",
                      "name": "receivedPremium",
                      "type": "uint256"
                    },
                    {
                      "internalType": "uint256",
                      "name": "paidPremium",
                      "type": "uint256"
                    }
                  ],
                  "internalType": "struct DataType.SubVaultPremium",
                  "name": "premium",
                  "type": "tuple"
                }
              ],
              "internalType": "struct DataType.SubVaultStatus[]",
              "name": "subVaults",
              "type": "tuple[]"
            }
          ],
          "internalType": "struct DataType.VaultStatus",
          "name": "",
          "type": "tuple"
        }
      ],
      "stateMutability": "nonpayable",
      "type": "function"
    },
    {
      "inputs": [
        {
          "components": [
            {
              "internalType": "uint24",
              "name": "feeTier",
              "type": "uint24"
            },
            {
              "internalType": "address",
              "name": "token0",
              "type": "address"
            },
            {
              "internalType": "address",
              "name": "token1",
              "type": "address"
            },
            {
              "internalType": "bool",
              "name": "isMarginZero",
              "type": "bool"
            }
          ],
          "internalType": "struct DataType.InitializationParams",
          "name": "_initializationParams",
          "type": "tuple"
        },
        {
          "internalType": "address",
          "name": "_positionManager",
          "type": "address"
        },
        {
          "internalType": "address",
          "name": "_factory",
          "type": "address"
        },
        {
          "internalType": "address",
          "name": "_swapRouter",
          "type": "address"
        }
      ],
      "name": "initialize",
      "outputs": [],
      "stateMutability": "nonpayable",
      "type": "function"
    },
    {
      "inputs": [],
      "name": "irmParams",
      "outputs": [
        {
          "internalType": "uint256",
          "name": "baseRate",
          "type": "uint256"
        },
        {
          "internalType": "uint256",
          "name": "kinkRate",
          "type": "uint256"
        },
        {
          "internalType": "uint256",
          "name": "slope1",
          "type": "uint256"
        },
        {
          "internalType": "uint256",
          "name": "slope2",
          "type": "uint256"
        }
      ],
      "stateMutability": "view",
      "type": "function"
    },
    {
      "inputs": [],
      "name": "lastTouchedTimestamp",
      "outputs": [
        {
          "internalType": "uint256",
          "name": "",
          "type": "uint256"
        }
      ],
      "stateMutability": "view",
      "type": "function"
    },
    {
      "inputs": [
        {
          "internalType": "uint256",
          "name": "_vaultId",
          "type": "uint256"
        },
        {
          "components": [
            {
              "internalType": "uint256",
              "name": "lowerSqrtPrice",
              "type": "uint256"
            },
            {
              "internalType": "uint256",
              "name": "upperSqrtPrice",
              "type": "uint256"
            },
            {
              "internalType": "uint256",
              "name": "swapRatio",
              "type": "uint256"
            },
            {
              "internalType": "bool",
              "name": "swapAnyway",
              "type": "bool"
            }
          ],
          "internalType": "struct DataType.LiquidationOption",
          "name": "_liquidationOption",
          "type": "tuple"
        }
      ],
      "name": "liquidate",
      "outputs": [],
      "stateMutability": "nonpayable",
      "type": "function"
    },
    {
      "inputs": [
        {
          "internalType": "uint256",
          "name": "_vaultId",
          "type": "uint256"
        },
        {
          "components": [
            {
              "internalType": "uint256",
              "name": "subVaultIndex",
              "type": "uint256"
            },
            {
              "internalType": "uint256",
              "name": "collateral0",
              "type": "uint256"
            },
            {
              "internalType": "uint256",
              "name": "collateral1",
              "type": "uint256"
            },
            {
              "internalType": "uint256",
              "name": "debt0",
              "type": "uint256"
            },
            {
              "internalType": "uint256",
              "name": "debt1",
              "type": "uint256"
            },
            {
              "components": [
                {
                  "internalType": "bool",
                  "name": "isCollateral",
                  "type": "bool"
                },
                {
                  "internalType": "uint128",
                  "name": "liquidity",
                  "type": "uint128"
                },
                {
                  "internalType": "int24",
                  "name": "lowerTick",
                  "type": "int24"
                },
                {
                  "internalType": "int24",
                  "name": "upperTick",
                  "type": "int24"
                }
              ],
              "internalType": "struct DataType.LPT[]",
              "name": "lpts",
              "type": "tuple[]"
            }
          ],
          "internalType": "struct DataType.Position",
          "name": "_position",
          "type": "tuple"
        },
        {
          "components": [
            {
              "internalType": "bool",
              "name": "reduceOnly",
              "type": "bool"
            },
            {
              "internalType": "bool",
              "name": "swapAnyway",
              "type": "bool"
            },
            {
              "internalType": "bool",
              "name": "quoterMode",
              "type": "bool"
            },
            {
              "internalType": "bool",
              "name": "isQuoteZero",
              "type": "bool"
            },
            {
              "internalType": "int256",
              "name": "targetMarginAmount0",
              "type": "int256"
            },
            {
              "internalType": "int256",
              "name": "targetMarginAmount1",
              "type": "int256"
            },
            {
              "internalType": "bytes",
              "name": "metadata",
              "type": "bytes"
            }
          ],
          "internalType": "struct DataType.TradeOption",
          "name": "_tradeOption",
          "type": "tuple"
        },
        {
          "components": [
            {
              "internalType": "uint256",
              "name": "lowerSqrtPrice",
              "type": "uint256"
            },
            {
              "internalType": "uint256",
              "name": "upperSqrtPrice",
              "type": "uint256"
            }
          ],
          "internalType": "struct DataType.OpenPositionOption",
          "name": "_openPositionOptions",
          "type": "tuple"
        }
      ],
      "name": "openPosition",
      "outputs": [
        {
          "internalType": "uint256",
          "name": "vaultId",
          "type": "uint256"
        },
        {
          "internalType": "int256",
          "name": "requiredAmount0",
          "type": "int256"
        },
        {
          "internalType": "int256",
          "name": "requiredAmount1",
          "type": "int256"
        }
      ],
      "stateMutability": "nonpayable",
      "type": "function"
    },
    {
      "inputs": [],
      "name": "operator",
      "outputs": [
        {
          "internalType": "address",
          "name": "",
          "type": "address"
        }
      ],
      "stateMutability": "view",
      "type": "function"
    },
    {
      "inputs": [
        {
          "internalType": "address",
          "name": "_newOperator",
          "type": "address"
        }
      ],
      "name": "setOperator",
      "outputs": [],
      "stateMutability": "nonpayable",
      "type": "function"
    },
    {
      "inputs": [
        {
          "components": [
            {
              "internalType": "uint256",
              "name": "baseRate",
              "type": "uint256"
            },
            {
              "internalType": "uint256",
              "name": "kinkRate",
              "type": "uint256"
            },
            {
              "internalType": "uint256",
              "name": "slope1",
              "type": "uint256"
            },
            {
              "internalType": "uint256",
              "name": "slope2",
              "type": "uint256"
            }
          ],
          "internalType": "struct InterestCalculator.IRMParams",
          "name": "_irmParams",
          "type": "tuple"
        }
      ],
      "name": "updateIRMParams",
      "outputs": [],
      "stateMutability": "nonpayable",
      "type": "function"
    },
    {
      "inputs": [
        {
          "internalType": "uint256",
          "name": "_vaultId",
          "type": "uint256"
        },
        {
          "components": [
            {
              "internalType": "enum DataType.PositionUpdateType",
              "name": "positionUpdateType",
              "type": "uint8"
            },
            {
              "internalType": "uint256",
              "name": "subVaultIndex",
              "type": "uint256"
            },
            {
              "internalType": "bool",
              "name": "zeroForOne",
              "type": "bool"
            },
            {
              "internalType": "uint128",
              "name": "liquidity",
              "type": "uint128"
            },
            {
              "internalType": "int24",
              "name": "lowerTick",
              "type": "int24"
            },
            {
              "internalType": "int24",
              "name": "upperTick",
              "type": "int24"
            },
            {
              "internalType": "uint256",
              "name": "param0",
              "type": "uint256"
            },
            {
              "internalType": "uint256",
              "name": "param1",
              "type": "uint256"
            }
          ],
          "internalType": "struct DataType.PositionUpdate[]",
          "name": "_positionUpdates",
          "type": "tuple[]"
        },
        {
          "components": [
            {
              "internalType": "bool",
              "name": "reduceOnly",
              "type": "bool"
            },
            {
              "internalType": "bool",
              "name": "swapAnyway",
              "type": "bool"
            },
            {
              "internalType": "bool",
              "name": "quoterMode",
              "type": "bool"
            },
            {
              "internalType": "bool",
              "name": "isQuoteZero",
              "type": "bool"
            },
            {
              "internalType": "int256",
              "name": "targetMarginAmount0",
              "type": "int256"
            },
            {
              "internalType": "int256",
              "name": "targetMarginAmount1",
              "type": "int256"
            },
            {
              "internalType": "bytes",
              "name": "metadata",
              "type": "bytes"
            }
          ],
          "internalType": "struct DataType.TradeOption",
          "name": "_tradeOption",
          "type": "tuple"
        }
      ],
      "name": "updatePosition",
      "outputs": [
        {
          "internalType": "uint256",
          "name": "vaultId",
          "type": "uint256"
        },
        {
          "internalType": "int256",
          "name": "requiredAmount0",
          "type": "int256"
        },
        {
          "internalType": "int256",
          "name": "requiredAmount1",
          "type": "int256"
        }
      ],
      "stateMutability": "nonpayable",
      "type": "function"
    },
    {
      "inputs": [
        {
          "components": [
            {
              "internalType": "uint256",
              "name": "baseRate",
              "type": "uint256"
            },
            {
              "internalType": "uint256",
              "name": "kinkRate",
              "type": "uint256"
            },
            {
              "internalType": "uint256",
              "name": "slope1",
              "type": "uint256"
            },
            {
              "internalType": "uint256",
              "name": "slope2",
              "type": "uint256"
            }
          ],
          "internalType": "struct InterestCalculator.IRMParams",
          "name": "_irmParams",
          "type": "tuple"
        },
        {
          "components": [
            {
              "internalType": "uint256",
              "name": "baseRate",
              "type": "uint256"
            },
            {
              "internalType": "uint256",
              "name": "kinkRate",
              "type": "uint256"
            },
            {
              "internalType": "uint256",
              "name": "slope1",
              "type": "uint256"
            },
            {
              "internalType": "uint256",
              "name": "slope2",
              "type": "uint256"
            }
          ],
          "internalType": "struct InterestCalculator.IRMParams",
          "name": "_premiumParams",
          "type": "tuple"
        }
      ],
      "name": "updateYearlyPremiumParams",
      "outputs": [],
      "stateMutability": "nonpayable",
      "type": "function"
    },
    {
      "inputs": [
        {
          "internalType": "uint256",
          "name": "_amount0",
          "type": "uint256"
        },
        {
          "internalType": "uint256",
          "name": "_amount1",
          "type": "uint256"
        }
      ],
      "name": "withdrawProtocolFee",
      "outputs": [],
      "stateMutability": "nonpayable",
      "type": "function"
    },
    {
      "inputs": [],
      "name": "ypParams",
      "outputs": [
        {
          "components": [
            {
              "internalType": "uint256",
              "name": "baseRate",
              "type": "uint256"
            },
            {
              "internalType": "uint256",
              "name": "kinkRate",
              "type": "uint256"
            },
            {
              "internalType": "uint256",
              "name": "slope1",
              "type": "uint256"
            },
            {
              "internalType": "uint256",
              "name": "slope2",
              "type": "uint256"
            }
          ],
          "internalType": "struct InterestCalculator.IRMParams",
          "name": "premiumParams",
          "type": "tuple"
        },
        {
          "components": [
            {
              "internalType": "uint256",
              "name": "baseRate",
              "type": "uint256"
            },
            {
              "internalType": "uint256",
              "name": "kinkRate",
              "type": "uint256"
            },
            {
              "internalType": "uint256",
              "name": "slope1",
              "type": "uint256"
            },
            {
              "internalType": "uint256",
              "name": "slope2",
              "type": "uint256"
            }
          ],
          "internalType": "struct InterestCalculator.IRMParams",
          "name": "irmParams",
          "type": "tuple"
        }
      ],
      "stateMutability": "view",
      "type": "function"
    }
  ],
  "transactionHash": "0xd27954190491c1d2b7fbe779d975def52c503a2750cf552d169145f72e844846",
  "args": [],
  "solcInputHash": "0b0c94446fc5f991fe6e7a78cef9f3f3",
  "bytecode": "0x608060405234801561001057600080fd5b50615da280620000216000396000f3fe608060405234801561001057600080fd5b50600436106101c45760003560e01c8063570ca735116100f9578063b3ab15fb11610097578063dd8cb3f411610071578063dd8cb3f414610416578063eb02c30114610429578063ee6097f014610449578063fea9a2c21461045c576101c4565b8063b3ab15fb146103dd578063c04ed3d3146103f0578063c3df1acb14610403576101c4565b806368715773116100d357806368715773146103825780636f85ba9c1461039557806386e6862d146103b55780639403b634146103bd576101c4565b8063570ca7351461034757806365b5f6e31461035c578063671148591461036f576101c4565b80633ac352be11610166578063456157161161014057806345615716146102d357806349ebb77d146102ed57806351be57d31461030d578063542da3b014610325576101c4565b80633ac352be1461028a5780633c678e141461029d5780633e129715146102b3576101c4565b8063127f0f07116101a2578063127f0f0714610228578063275892a21461024257806330050fbd146102575780633743d14214610277576101c4565b8063013216f5146101c957806305943002146101f257806311bea7f414610207575b600080fd5b6101dc6101d736600461462f565b61046f565b6040516101e991906156ec565b60405180910390f35b610205610200366004614c6e565b61050b565b005b61021a610215366004614bad565b6105ea565b6040516101e992919061559b565b6102306106be565b6040516101e99695949392919061555a565b61024a6106e7565b6040516101e99190615bd6565b61026a61026536600461462f565b6106ed565b6040516101e991906157eb565b610205610285366004614df3565b610829565b61021a610298366004614d9e565b6108dc565b6102a5610907565b6040516101e99291906156d0565b6102c66102c136600461462f565b610960565b6040516101e9919061554f565b6102db610a0e565b6040516101e996959493929190615c65565b6103006102fb36600461462f565b610b5a565b6040516101e99190615875565b610315610cab565b6040516101e99493929190615c4a565b610338610333366004614cf1565b610cba565b6040516101e993929190615bf6565b61034f610d8a565b6040516101e99190615414565b61020561036a366004614559565b610d99565b61020561037d366004614685565b610eb2565b61020561039036600461466a565b610f14565b6103a86103a336600461462f565b610f5c565b6040516101e99190615760565b61034f611093565b6103d06103cb36600461462f565b61111c565b6040516101e9919061594c565b6102056103eb36600461453d565b6111c3565b6103386103fe36600461462f565b611222565b61021a610411366004614e14565b611326565b610338610424366004614a52565b6113a2565b61043c61043736600461462f565b611607565b6040516101e99190615441565b6102056104573660046146ba565b611612565b61024a61046a36600461462f565b6119d9565b610477613c57565b5060008181526002602081815260409283902083516101208101855281548152600182015480850b850b850b9382019390935263010000008304840b840b840b94810194909452600160301b9091046001600160801b03166060840152908101546080830152600381015460a0830152600481015460c0830152600581015460e0830152600601546101008201525b919050565b610513611ad6565b600073Ac2301DA8eE2b46FF8bA8df24bF222e939058CA463b1a3252b61053885611607565b600a546040860151600160a01b90910460ff1690610554611093565b6040518563ffffffff1660e01b815260040161057394939291906154cf565b60006040518083038186803b15801561058b57600080fd5b505af415801561059f573d6000803e3d6000fd5b505050506040513d6000823e601f3d908101601f191682016040526105c791908101906145e1565b90506105d38382611b6a565b6105e582600001518360200151611bf7565b505050565b600080600073Ac2301DA8eE2b46FF8bA8df24bF222e939058CA463b1a3252b878760600151876040015161061c611093565b6040518563ffffffff1660e01b815260040161063b94939291906154cf565b60006040518083038186803b15801561065357600080fd5b505af4158015610667573d6000803e3d6000fd5b505050506040513d6000823e601f3d908101601f1916820160405261068f91908101906145e1565b905061069c8782876113a2565b865160208801519296509094506106b4925090611bf7565b5094509492505050565b600a54600354600b5460145460155460ff600160a01b860416946001600160a01b031692939495565b60015481565b6106f5613cb2565b600082815260056020818152604080842081516101208101835281548152600182015460ff1615158185015260028201548184015260038201546060820152600482015460808201529381015460a0850152815180830183526006820154815260078201548185015260c0850152815180830183526008820154815260098201548185015260e0850152600a81018054835181860281018601909452808452949591946101008701949192909184015b8282101561081b5760008481526020908190206040805160c08101825260068602909201805460ff16151583526001808201548486015260028201546001600160801b03169284019290925260038101546060840152600481015460808401526005015460a083015290835290920191016107a5565b505050915250909392505050565b6023546001600160a01b0316331461085c5760405162461bcd60e51b815260040161085390615606565b60405180910390fd5b601454821180159061087057506015548111155b61088c5760405162461bcd60e51b8152600401610853906155c5565b60148054839003905560158054829003905581156108bb576006546108bb906001600160a01b03163384611c38565b80156108d8576007546108d8906001600160a01b03163383611c38565b5050565b6000806108e7611ad6565b6108fb856108f487611d7f565b86866105ea565b91509150935093915050565b6040805160808082018352601a548252601b54602080840191909152601c5483850152601d5460608085019190915284519283018552601e548352601f5483830152905493820193909352602154928101929092529082565b600061096b82611f14565b600082815260046020819052604091829020915163194a268960e21b8152732f1400f646bf2338A72106980f238932D3ACCeF1926365289a24926109b89260059160069160029101615a9a565b60206040518083038186803b1580156109d057600080fd5b505af41580156109e4573d6000803e3d6000fd5b505050506040513d601f19601f82011682018060405250810190610a089190614613565b92915050565b60408051608081018252600c548152600d546020820152600e5491810191909152600f54606082015260009081908190819081908190610a4d90611f54565b60408051608081018252600c548152600d546020820152600e5491810191909152600f546060820152610a7f90611f71565b60408051608081018252600c548152600d546020820152600e5491810191909152600f546060820152610ab190611f8e565b6040805160808101825260105481526011546020820152601254918101919091526013546060820152610ae390611f54565b6040805160808101825260105481526011546020820152601254918101919091526013546060820152610b1590611f71565b6040805160808101825260105481526011546020820152601254918101919091526013546060820152610b4790611f8e565b949b939a50919850965094509092509050565b610b62613d0c565b6000610b6c611093565b9050610b7783611f14565b600083815260046020818152604092839020835160a0810185528154815260018201546001600160a01b031681840152600282015481860152600382015460608201529281018054855181850281018501909652808652939491936080860193830182828015610c0657602002820191906000526020600020905b815481526020019060010190808311610bf2575b505050919092525050604051635d8d458360e11b8152736aD4F22668b28040f202aA944771FC1f09C0CD6F9263bb1a8b069250610c50916005906002906006908890600401615a4e565b60006040518083038186803b158015610c6857600080fd5b505af4158015610c7c573d6000803e3d6000fd5b505050506040513d6000823e601f3d908101601f19168201604052610ca4919081019061481e565b9392505050565b60165460175460185460195484565b60008060008073Ac2301DA8eE2b46FF8bA8df24bF222e939058CA463b5b49eb2888860600151610ce8611093565b6040518463ffffffff1660e01b8152600401610d06939291906157b8565b60006040518083038186803b158015610d1e57600080fd5b505af4158015610d32573d6000803e3d6000fd5b505050506040513d6000823e601f3d908101601f19168201604052610d5a91908101906145e1565b9050610d678882886113a2565b875160208901519397509195509350610d7f91611bf7565b509450945094915050565b6023546001600160a01b031681565b6023546001600160a01b03163314610dc35760405162461bcd60e51b815260040161085390615606565b60005b81518110156108d857600080838381518110610dde57fe5b6020026020010151806020019051810190610df99190614a0e565b91509150610e078282611fc9565b60008281526004602081905260408083209051637882621360e11b8152732f1400f646bf2338A72106980f238932D3ACCeF19363f104c42693610e5793926005926006926002928a929101615b98565b60206040518083038186803b158015610e6f57600080fd5b505af4158015610e83573d6000803e3d6000fd5b505050506040513d601f19601f82011682018060405250810190610ea791906149f6565b505050600101610dc6565b6023546001600160a01b03163314610edc5760405162461bcd60e51b815260040161085390615606565b8151601e55602080830151601f5560408084015182556060938401516021558251601a5590820151601b55810151601c550151601d55565b6023546001600160a01b03163314610f3e5760405162461bcd60e51b815260040161085390615606565b80516016556020810151601755604081015160185560600151601955565b610f64613d34565b6000828152600460208181526040808420815160a0810183528154815260018201546001600160a01b031681850152600282015481840152600382015460608201529381018054835181860281018601909452808452919360808601939290830182828015610ff257602002820191906000526020600020905b815481526020019060010190808311610fde575b50505091909252505060405163149ccfa160e11b8152919250736aD4F22668b28040f202aA944771FC1f09C0CD6F916329399f42915061103f9084906005906002906006906004016159c2565b60006040518083038186803b15801561105757600080fd5b505af415801561106b573d6000803e3d6000fd5b505050506040513d6000823e601f3d908101601f19168201604052610ca49190810190614778565b600a5460408051633850c7bd60e01b815290516000926001600160a01b031691633850c7bd9160048281019260e0929190829003018186803b1580156110d857600080fd5b505afa1580156110ec573d6000803e3d6000fd5b505050506040513d601f19601f820116820180604052508101906111109190614960565b50949695505050505050565b611124613d71565b600082815260046020818152604092839020835160a0810185528154815260018201546001600160a01b0316818401526002820154818601526003820154606082015292810180548551818502810185019096528086529394919360808601938301828280156111b357602002820191906000526020600020905b81548152602001906001019080831161119f575b5050505050815250509050919050565b6023546001600160a01b031633146111ed5760405162461bcd60e51b815260040161085390615606565b6001600160a01b03811661120057600080fd5b602380546001600160a01b0319166001600160a01b0392909216919091179055565b60408051610180810182526006546001600160a01b039081168252600754808216602080850191909152600160a01b9182900462ffffff168486015260085483166060808601919091526009548416608080870191909152600a5494851660a08701529290930460ff16151560c0850152600b5460e085015284518083018652600c548152600d5481830152600e5481870152600f5481850152610100850152845191820185526010548252601154828201526012548286015260135492820192909252610120830152601454610140830152601554610160830152600084815260029091529182208291829161131991906121e6565b9250925092509193909250565b600080611331611ad6565b604080516001808252818301909252600091816020015b611350613da9565b81526020019060019003908161134857905050905061136f87876122ab565b8160008151811061137c57fe5b6020026020010181905250611393878287876105ea565b92509250505b94509492505050565b60008060006113b18686611fc9565b60006113c1878660400151612590565b604051636413e81f60e11b81529195509150730fA8669E0C435bD0d293C1C23294CDc5B8Ce2c9d9063c827d03e9061140a9084906005906006906002908d908d90600401615ad4565b604080518083038186803b15801561142157600080fd5b505af4158015611435573d6000803e3d6000fd5b505050506040513d601f19601f820116820180604052508101906114599190614647565b604087015191945092501561147257611472838361266f565b60405163194a268960e21b8152732f1400f646bf2338A72106980f238932D3ACCeF1906365289a24906114b2908490600590600690600290600401615a9a565b60206040518083038186803b1580156114ca57600080fd5b505af41580156114de573d6000803e3d6000fd5b505050506040513d601f19601f820116820180604052508101906115029190614613565b1561151f5760405162461bcd60e51b8152600401610853906155a9565b600083131561154557600654611540906001600160a01b0316333086612680565b611569565b600083121561156957600654611569906001600160a01b0316336000869003611c38565b600082131561158f5760075461158a906001600160a01b0316333085612680565b6115b3565b60008212156115b3576007546115b3906001600160a01b0316336000859003611c38565b7fabc710e8ab5c8f4ea5d70ef0f4c50f12dd4804fa7e04ce65aa8c813197b64bea8484846115df611093565b8960c001516040516115f5959493929190615c0c565b60405180910390a15093509350939050565b6060610a0882611d7f565b600054610100900460ff168061162b575061162b6127d0565b80611639575060005460ff16155b6116745760405162461bcd60e51b815260040180806020018281038252602e815260200180615d3f602e913960400191505060405180910390fd5b600054610100900460ff1615801561169f576000805460ff1961ff0019909116610100171660011790555b845160078054602080890151600680546001600160a01b03199081166001600160a01b0393841617918290556040808d015162ffffff60a01b19909616600160a01b62ffffff998a16810291909117831696851696909617968790556060808e0151600a805460ff60a01b191691151589029190911790556008805484168e8716179055600980549093168b86161790925580519182018152918316815291851692820192909252919092049092169082015261175c84826127e1565b600a80546001600160a01b0319166001600160a01b0392831617905560016003819055600b5560065460405163095ea7b360e01b815291169063095ea7b3906117ad90889060001990600401615428565b602060405180830381600087803b1580156117c757600080fd5b505af11580156117db573d6000803e3d6000fd5b505050506040513d601f19601f820116820180604052508101906117ff9190614613565b5060075460405163095ea7b360e01b81526001600160a01b039091169063095ea7b39061183490889060001990600401615428565b602060405180830381600087803b15801561184e57600080fd5b505af1158015611862573d6000803e3d6000fd5b505050506040513d601f19601f820116820180604052508101906118869190614613565b5060065460405163095ea7b360e01b81526001600160a01b039091169063095ea7b3906118bb90869060001990600401615428565b602060405180830381600087803b1580156118d557600080fd5b505af11580156118e9573d6000803e3d6000fd5b505050506040513d601f19601f8201168201806040525081019061190d9190614613565b5060075460405163095ea7b360e01b81526001600160a01b039091169063095ea7b39061194290869060001990600401615428565b602060405180830381600087803b15801561195c57600080fd5b505af1158015611970573d6000803e3d6000fd5b505050506040513d601f19601f820116820180604052508101906119949190614613565b5061199f600c6128c5565b6119a960106128c5565b5042600155602380546001600160a01b0319163317905580156119d2576000805461ff00191690555b5050505050565b60408051610180810182526006546001600160a01b039081168252600754808216602080850191909152600160a01b9182900462ffffff168486015260085483166060808601919091526009548416608080870191909152600a5494851660a08701529290930460ff16151560c0850152600b5460e085015284518083018652600c548152600d5481830152600e5481870152600f548185015261010085015284519182018552601054825260115482820152601254828601526013549282019290925261012083015260145461014083015260155461016083015260008481526002909152918220610a0891601a91611ad1611093565b6128dd565b60015460405163725acfd160e01b815273fBEB0b6998AEfc36CaAa94C28510D1abDe98872C9163725acfd191611b159160069160169190600401615676565b60206040518083038186803b158015611b2d57600080fd5b505af4158015611b41573d6000803e3d6000fd5b505050506040513d601f19601f82011682018060405250810190611b6591906149f6565b600155565b611b748282611fc9565b60008281526004602081905260409182902091516349b3bd7960e11b8152732f1400f646bf2338A72106980f238932D3ACCeF1926393677af292611bc392600591879160069160029101615b65565b60006040518083038186803b158015611bdb57600080fd5b505af4158015611bef573d6000803e3d6000fd5b505050505050565b6000611c01611093565b6001600160a01b03169050808311158015611c1c5750818111155b6105e55760405162461bcd60e51b81526004016108539061563d565b604080516001600160a01b038481166024830152604480830185905283518084039091018152606490920183526020820180516001600160e01b031663a9059cbb60e01b1781529251825160009485949389169392918291908083835b60208310611cb45780518252601f199092019160209182019101611c95565b6001836020036101000a0380198251168184511680821785525050505050509050019150506000604051808303816000865af19150503d8060008114611d16576040519150601f19603f3d011682016040523d82523d6000602084013e611d1b565b606091505b5091509150818015611d49575080511580611d495750808060200190516020811015611d4657600080fd5b50515b6119d2576040805162461bcd60e51b815260206004820152600260248201526114d560f21b604482015290519081900360640190fd5b6000818152600460208181526040808420815160a0810183528154815260018201546001600160a01b03168185015260028201548184015260038201546060828101919091529482018054845181870281018701909552808552959695919492936080860193909290830182828015611e1757602002820191906000526020600020905b815481526020019060010190808311611e03575b50505091909252505060408051610180810182526006546001600160a01b039081168252600754808216602080850191909152600160a01b9182900462ffffff168486015260085483166060808601919091526009548416608080870191909152600a5494851660a08701529290930460ff16151560c0850152600b5460e085015284518083018652600c548152600d5481830152600e5481870152600f5481850152610100850152845191820185526010548252601154908201526012549381019390935260135490830152610120810191909152601454610140820152601554610160820152919250610ca4918391506005906002906129a0565b60408051600080825260208201909252611f5191839190611f4b565b611f38613ddf565b815260200190600190039081611f305790505b50611fc9565b50565b6000610a0882600001518360400151670de0b6b3a7640000612b8e565b6000610a0882602001518360600151670de0b6b3a7640000612b8e565b8051600090611fa65750670de0b6b3a7640000610506565b610a08611fb283611f71565b670de0b6b3a7640000611fc485611f54565b612b8e565b6000828152600460208181526040808420815160a0810183528154815260018201546001600160a01b03168185015260028201548184015260038201546060820152938101805483518186028101860190945280845291936080860193929083018282801561205757602002820191906000526020600020905b815481526020019060010190808311612043575b505050505081525050905073fBEB0b6998AEfc36CaAa94C28510D1abDe98872C63a5d330ad8260056002600687601a61208e611093565b6040518863ffffffff1660e01b81526004016120b097969594939291906159f2565b60006040518083038186803b1580156120c857600080fd5b505af41580156120dc573d6000803e3d6000fd5b505060015460405163725acfd160e01b815273fBEB0b6998AEfc36CaAa94C28510D1abDe98872C935063725acfd1925061211f9160069160169190600401615676565b60206040518083038186803b15801561213757600080fd5b505af415801561214b573d6000803e3d6000fd5b505050506040513d601f19601f8201168201806040525081019061216f91906149f6565b60015560405162d85ecd60e61b8152730fA8669E0C435bD0d293C1C23294CDc5B8Ce2c9d90633617b340906121b1906006908590600590600290600401615698565b60006040518083038186803b1580156121c957600080fd5b505af41580156121dd573d6000803e3d6000fd5b50505050505050565b6040805161012081018252825481526001830154600281810b810b810b602084015263010000008204810b810b810b93830193909352600160301b90046001600160801b03166060820152908201546080820152600382015460a0820152600482015460c0820152600582015460e0820152600682015461010082015260009081908190612275908690612bad565b6001850154600160301b90046001600160801b03166122948787612bcf565b9194506001600160801b0316925090509250925092565b6122b3613da9565b6000838152600460208181526040808420815160a0810183528154815260018201546001600160a01b03168185015260028201548184015260038201546060820152938101805483518186028101860190945280845291936080860193929083018282801561234157602002820191906000526020600020905b81548152602001906001019080831161232d575b505050505081525050905061258883600560008460800151878151811061236457fe5b6020908102919091018101518252818101929092526040908101600090812082516101208101845281548152600182015460ff161515818601526002820154818501526003820154606082015260048201546080820152600582015460a0820152835180850185526006830154815260078301548187015260c0820152835180850185526008830154815260098301548187015260e0820152600a8201805485518188028101880190965280865291959294610100870194909391929184015b8282101561249a5760008481526020908190206040805160c08101825260068602909201805460ff16151583526001808201548486015260028201546001600160801b03169284019290925260038101546060840152600481015460808401526005015460a08301529083529092019101612424565b5050509152505060408051610180810182526006546001600160a01b039081168252600754808216602080850191909152600160a01b9182900462ffffff168486015260085483166060808601919091526009548416608080870191909152600a5494851660a08701529290930460ff16151560c0850152600b5460e085015284518083018652600c548152600d5481830152600e5481870152600f5481850152610100850152845191820185526010548252601154908201526012549381019390935260135490830152610120810191909152601454610140820152601554610160820152600290612c6c565b949350505050565b60008083612615576003805460018082019092556000818152600460205260409081902082815590920180546001600160a01b03191633179081905591519093507fbf3e9c93de94306b70ac5b9411edf475545815333bf651b894b9eada6482c594916126089185916001600160a01b031690615bdf565b60405180910390a1612659565b6000848152600460205260409020600101548492506001600160a01b031633148061263d5750825b6126595760405162461bcd60e51b81526004016108539061565a565b5060008181526004602052604090209250929050565b602051828152816020820152604081fd5b604080516001600160a01b0385811660248301528481166044830152606480830185905283518084039091018152608490920183526020820180516001600160e01b03166323b872dd60e01b178152925182516000948594938a169392918291908083835b602083106127045780518252601f1990920191602091820191016126e5565b6001836020036101000a0380198251168184511680821785525050505050509050019150506000604051808303816000865af19150503d8060008114612766576040519150601f19603f3d011682016040523d82523d6000602084013e61276b565b606091505b5091509150818015612799575080511580612799575080806020019051602081101561279657600080fd5b50515b611bef576040805162461bcd60e51b815260206004820152600360248201526229aa2360e91b604482015290519081900360640190fd5b60006127db30612f1c565b15905090565b600081602001516001600160a01b031682600001516001600160a01b03161061280957600080fd5b50805160208083015160409384015184516001600160a01b0394851681850152939091168385015262ffffff166060808401919091528351808403820181526080840185528051908301206001600160f81b031960a085015294901b6bffffffffffffffffffffffff191660a183015260b58201939093527fe34f199b19b2b4f47f68442619d555527d244f78a3297ea89325f843f87b8b5460d5808301919091528251808303909101815260f5909101909152805191012090565b670de0b6b3a764000060028201819055600390910155565b6001820154600090600160301b90046001600160801b0316156129955760006129068585612bcf565b60c086015160a0870151600187015492935061298d92612937918a91600281810b9163010000009004900b87612f22565b6040805160808101825260048b0154815260058b0154602082015260068b01549181019190915260078a015460608201526129729085613183565b60018801548790600281810b9163010000009004900b6131f8565b915050612588565b506000949350505050565b60608460800151516001600160401b03811180156129bd57600080fd5b506040519080825280602002602001820160405280156129f757816020015b6129e4613da9565b8152602001906001900390816129dc5790505b50905060005b856080015151811015612b8557612b668186600089608001518581518110612a2157fe5b6020908102919091018101518252818101929092526040908101600090812082516101208101845281548152600182015460ff161515818601526002820154818501526003820154606082015260048201546080820152600582015460a0820152835180850185526006830154815260078301548187015260c0820152835180850185526008830154815260098301548187015260e0820152600a8201805485518188028101880190965280865291959294610100870194909391929184015b82821015612b575760008481526020908190206040805160c08101825260068602909201805460ff16151583526001808201548486015260028201546001600160801b03169284019290925260038101546060840152600481015460808401526005015460a08301529083529092019101612ae1565b50505050815250508686612c6c565b828281518110612b7257fe5b60209081029190910101526001016129fd565b50949350505050565b828202811515841585830485141716612ba657600080fd5b0492915050565b600081606001516001600160801b0316612bc784846132c4565b019392505050565b6001810154604080516101208101825283548152600283810b810b810b602083015263010000008404810b810b810b92820192909252600160301b9092046001600160801b031660608301819052908301546080830152600383015460a0830152600483015460c0830152600583015460e08301526006830154610100830152600091610ca49190670de0b6b3a764000090611fc4908790612bad565b612c74613da9565b6000846101000151516001600160401b0381118015612c9257600080fd5b50604051908082528060200260200182016040528015612ccc57816020015b612cb9613e25565b815260200190600190039081612cb15790505b50905060005b85610100015151811015612e2a5760008661010001518281518110612cf357fe5b6020908102919091018101518101516000818152888352604090819020815161012081018352815481526001820154600281810b810b810b9683019690965263010000008104860b860b860b82850152600160301b90046001600160801b0316606082015293810154608080860191909152600382015460a0860152600482015460c0860152600582015460e0860152600690910154610100808601919091528251918201909252908a01518051929450909182919086908110612db357fe5b602002602001015160000151151581526020018961010001518581518110612dd757fe5b6020026020010151604001516001600160801b03168152602001826020015160020b8152602001826040015160020b815250848481518110612e1557fe5b60209081029190910101525050600101612cd2565b50846020015115612ed4576040518060c00160405280878152602001612e628760c0015186610100015161336b90919063ffffffff16565b8152602001612e838760e0015186610120015161336b90919063ffffffff16565b8152602001612ea48760c0015186610100015161338890919063ffffffff16565b8152602001612ec58760e0015186610120015161338890919063ffffffff16565b81526020018290529150612b85565b6040518060c001604052808781526020018660400151815260200186606001518152602001866080015181526020018660a00151815260200182815250915050949350505050565b3b151590565b600080856001600160a01b031663f30583996040518163ffffffff1660e01b815260040160206040518083038186803b158015612f5e57600080fd5b505afa158015612f72573d6000803e3d6000fd5b505050506040513d601f19601f82011682018060405250810190612f9691906149f6565b90506000866001600160a01b031663461413196040518163ffffffff1660e01b815260040160206040518083038186803b158015612fd357600080fd5b505afa158015612fe7573d6000803e3d6000fd5b505050506040513d601f19601f8201168201806040525081019061300b91906149f6565b90506000876001600160a01b0316633850c7bd6040518163ffffffff1660e01b815260040160e06040518083038186803b15801561304857600080fd5b505afa15801561305c573d6000803e3d6000fd5b505050506040513d601f19601f820116820180604052508101906130809190614960565b50505050509150506000806130ac6130988b8b6133a5565b6130a28c8b6133a5565b8b8b878a8a613471565b91509150600089896040516020016130c59291906153f7565b6040516020818303038152906040528051906020012090506131716131208d6000016040518060800160405290816000820154815260200160018201548152602001600282015481526020016003820154815250508a613183565b8d600801600084815260200190815260200160002060405180608001604052908160008201548152602001600182015481526020016002820154815260200160038201548152505085858a8a6134ee565b96505050505050505b95945050505050565b815160208301516000919083116131b257670de0b6b3a764000084604001518402816131ab57fe5b0401610ca4565b670de0b6b3a76400008460400151856020015102816131cd57fe5b0481019050670de0b6b3a764000084602001518403856060015102816131ef57fe5b04019392505050565b60008060006132218661320a8761356d565b6132138761356d565b670de0b6b3a764000061389f565b91509150600061323a8a886001600160a01b031661393a565b9050891561325e57826132568383670de0b6b3a7640000612b8e565b019350613276565b816132728483670de0b6b3a7640000612b8e565b0193505b670de0b6b3a76400008489020493506132b6670de0b6b3a76400008a6132a584670de0b6b3a764000002613a02565b02816132ad57fe5b86919004613aa6565b9a9950505050505050505050565b6060820151815160405163133f757160e31b815260009283926001600160a01b03909116916399fbab88916132fb91600401615bd6565b6101806040518083038186803b15801561331457600080fd5b505afa158015613328573d6000803e3d6000fd5b505050506040513d601f19601f8201168201806040525081019061334c9190614e58565b50506001600160801b039092169a505050505050505050505092915050565b6000610ca482600001518460400151670de0b6b3a7640000612b8e565b6000610ca482602001518460600151670de0b6b3a7640000612b8e565b6133ad613e4c565b6000806000856001600160a01b031663f30dba93866040518263ffffffff1660e01b81526004016133de919061558d565b6101006040518083038186803b1580156133f757600080fd5b505afa15801561340b573d6000803e3d6000fd5b505050506040513d601f19601f8201168201806040525081019061342f91906148b6565b9750505050945094505050806134575760405162461bcd60e51b8152600401610853906155e1565b506040805180820190915291825260208201529392505050565b6000806000808860020b8760020b12613492575050885160208a01516134a2565b5050885160208a01519085039084035b6000808960020b8960020b12156134c1575050895160208b01516134d1565b5050895160208b01519087039086035b92909603959095039a949093039290920397509195505050505050565b60008060008760400151851115613522578760400151850388600001518803670de0b6b3a7640000028161351e57fe5b0491505b8760600151841115613551578760600151840388602001518703670de0b6b3a7640000028161354d57fe5b0490505b671bc16d674ec800008282018a02049998505050505050505050565b60008060008360020b12613584578260020b61358c565b8260020b6000035b9050620d89e88111156135ca576040805162461bcd60e51b81526020600482015260016024820152601560fa1b604482015290519081900360640190fd5b6000600182166135de57600160801b6135f0565b6ffffcb933bd6fad37aa2d162d1a5940015b70ffffffffffffffffffffffffffffffffff1690506002821615613624576ffff97272373d413259a46990580e213a0260801c5b6004821615613643576ffff2e50f5f656932ef12357cf3c7fdcc0260801c5b6008821615613662576fffe5caca7e10e4e61c3624eaa0941cd00260801c5b6010821615613681576fffcb9843d60f6159c9db58835c9266440260801c5b60208216156136a0576fff973b41fa98c081472e6896dfb254c00260801c5b60408216156136bf576fff2ea16466c96a3843ec78b326b528610260801c5b60808216156136de576ffe5dee046a99a2a811c461f1969c30530260801c5b6101008216156136fe576ffcbe86c7900a88aedcffc83b479aa3a40260801c5b61020082161561371e576ff987a7253ac413176f2b074cf7815e540260801c5b61040082161561373e576ff3392b0822b70005940c7a398e4b70f30260801c5b61080082161561375e576fe7159475a2c29b7443b29c7fa6e889d90260801c5b61100082161561377e576fd097f3bdfd2022b8845ad8f792aa58250260801c5b61200082161561379e576fa9f746462d870fdf8a65dc1f90e061e50260801c5b6140008216156137be576f70d869a156d2a1b890bb3df62baf32f70260801c5b6180008216156137de576f31be135f97d08fd981231505542fcfa60260801c5b620100008216156137ff576f09aa508b5b7a84e1c677de54f3e99bc90260801c5b6202000082161561381f576e5d6af8dedb81196699c329225ee6040260801c5b6204000082161561383e576d2216e584f5fa1ea926041bedfe980260801c5b6208000082161561385b576b048a170391f7dc42444e8fa20260801c5b60008460020b131561387657806000198161387257fe5b0490505b64010000000081061561388a57600161388d565b60005b60ff16602082901c0192505050919050565b600080836001600160a01b0316856001600160a01b031611156138c0579293925b846001600160a01b0316866001600160a01b0316116138eb576138e4858585613b00565b9150611399565b836001600160a01b0316866001600160a01b0316101561392457613910868585613b00565b915061391d858785613b69565b9050611399565b61392f858585613b69565b905094509492505050565b6000670de0b6b3a764000083156139a257613963838483600160c01b8161395d57fe5b04613ba8565b915081613982576ec097ce7bc90715b34b9f1000000000915050610a08565b816ec097ce7bc90715b34b9f10000000008161399a57fe5b0491506139c3565b600160601b816139b78586600160601b613ba8565b02816139bf57fe5b0491505b6ec097ce7bc90715b34b9f10000000008211156139f1576ec097ce7bc90715b34b9f100000000091506139fb565b816139fb57600191505b5092915050565b60b581600160881b8110613a1b5760409190911b9060801c5b69010000000000000000008110613a375760209190911b9060401c5b650100000000008110613a4f5760109190911b9060201c5b63010000008110613a655760089190911b9060101c5b62010000010260121c80820401600190811c80830401811c80830401811c80830401811c80830401811c80830401811c80830401901c908190048111900390565b600082820183811015610ca4576040805162461bcd60e51b815260206004820152601b60248201527f536166654d6174683a206164646974696f6e206f766572666c6f770000000000604482015290519081900360640190fd5b6000826001600160a01b0316846001600160a01b03161115613b20579192915b836001600160a01b0316613b59606060ff16846001600160801b0316901b8686036001600160a01b0316866001600160a01b0316613ba8565b81613b6057fe5b04949350505050565b6000826001600160a01b0316846001600160a01b03161115613b89579192915b612588826001600160801b03168585036001600160a01b0316600160601b5b6000808060001985870986860292508281109083900303905080613bde5760008411613bd357600080fd5b508290049050610ca4565b808411613bea57600080fd5b6000848688096000868103871696879004966002600389028118808a02820302808a02820302808a02820302808a02820302808a02820302808a02909103029181900381900460010186841190950394909402919094039290920491909117919091029150509392505050565b60405180610120016040528060008152602001600060020b8152602001600060020b815260200160006001600160801b0316815260200160008152602001600081526020016000815260200160008152602001600081525090565b6040518061012001604052806000815260200160001515815260200160008152602001600081526020016000815260200160008152602001613cf2613e4c565b8152602001613cff613e4c565b8152602001606081525090565b6040518060800160405280600081526020016000815260200160008152602001606081525090565b6040518060e00160405280600081526020016000815260200160008152602001600081526020016000815260200160008152602001606081525090565b6040518060a001604052806000815260200160006001600160a01b031681526020016000815260200160008152602001606081525090565b6040518060c001604052806000815260200160008152602001600081526020016000815260200160008152602001606081525090565b604080516101008101909152806000815260006020820181905260408201819052606082018190526080820181905260a0820181905260c0820181905260e09091015290565b60408051608081018252600080825260208201819052918101829052606081019190915290565b604051806040016040528060008152602001600081525090565b803561050681615cd9565b805161050681615cd9565b600082601f830112613e8c578081fd5b81356020613ea1613e9c83615cb0565b615c8d565b82815281810190858301608080860288018501891015613ebf578687fd5b865b86811015613f505781838b031215613ed7578788fd5b604080518381018181106001600160401b0382111715613ef357fe5b82528435613f0081615cee565b815284880135613f0f81615d18565b8189015284820135613f2081615d09565b8083830152506060915081850135613f3781615d09565b9181019190915285529385019391810191600101613ec1565b509198975050505050505050565b600082601f830112613f6e578081fd5b81516020613f7e613e9c83615cb0565b82815281810190858301608080860288018501891015613f9c578687fd5b865b86811015613f505781838b031215613fb4578788fd5b604080518381018181106001600160401b0382111715613fd057fe5b82528451613fdd81615cee565b815284880151613fec81615d18565b8189015284820151613ffd81615d09565b808383015250606091508185015161401481615d09565b9181019190915285529385019391810191600101613f9e565b600082601f83011261403d578081fd5b8151602061404d613e9c83615cb0565b828152818101908583016101008086028801850189101561406c578687fd5b865b86811015613f505781838b031215614084578788fd5b604080518381018181106001600160401b03821117156140a057fe5b82526140ab856142aa565b815287850151888201526140c0828601614230565b82820152606091506140d3828601614515565b82820152608091506140e68286016142c0565b8282015260a091506140f98286016142c0565b9181019190915260c0848101519082015260e080850151908201528552938501939181019160010161406e565b600082601f830112614136578081fd5b81516020614146613e9c83615cb0565b828152818101908583016101e080860288018501891015614165578687fd5b865b86811015613f5057828a038281121561417e578889fd5b60408051608081016001600160401b03828210818311171561419c57fe5b81845260608512156141ac578c8dfd5b60e08301945081851081861117156141c057fe5b50838352865181528987015160a08301528683015160c083015281526141e98d6060880161440c565b898201526141fa8d60e0880161440c565b8282015261420c8d610160880161440c565b6060820152875250509385019391810191600101614167565b803561050681615cee565b805161050681615cee565b600082601f83011261424b578081fd5b81356001600160401b0381111561425e57fe5b614271601f8201601f1916602001615c8d565b818152846020838601011115614285578283fd5b816020850160208301379081016020019190915292915050565b803561050681615cfc565b805161050681615cfc565b803561050681615d09565b805161050681615d09565b6000606082840312156142dc578081fd5b604051606081018181106001600160401b03821117156142f857fe5b80604052508091508235815260208301356020820152604083013560408201525092915050565b600060808284031215614330578081fd5b604051608081018181106001600160401b038211171561434c57fe5b8060405250809150823581526020830135602082015260408301356040820152606083013560608201525092915050565b600060c0828403121561438e578081fd5b60405160c081016001600160401b0382821081831117156143ab57fe5b81604052829350843583526020850135602084015260408501356040840152606085013560608401526080850135608084015260a08501359150808211156143f257600080fd5b506143ff85828601613e7c565b60a0830152505092915050565b60006080828403121561441d578081fd5b604051608081018181106001600160401b038211171561443957fe5b8060405250809150825181526020830151602082015260408301516040820152606083015160608201525092915050565b600060e0828403121561447b578081fd5b61448560e0615c8d565b905061449082614225565b815261449e60208301614225565b60208201526144af60408301614225565b60408201526144c060608301614225565b60608201526080820135608082015260a082013560a082015260c08201356001600160401b038111156144f257600080fd5b6144fe8482850161423b565b60c08301525092915050565b803561050681615d18565b805161050681615d18565b805161ffff8116811461050657600080fd5b805161050681615d2d565b60006020828403121561454e578081fd5b8135610ca481615cd9565b6000602080838503121561456b578182fd5b82356001600160401b03811115614580578283fd5b8301601f81018513614590578283fd5b803561459e613e9c82615cb0565b81815283810190838501865b848110156145d3576145c18a88843589010161423b565b845292860192908601906001016145aa565b509098975050505050505050565b6000602082840312156145f2578081fd5b81516001600160401b03811115614607578182fd5b6125888482850161402d565b600060208284031215614624578081fd5b8151610ca481615cee565b600060208284031215614640578081fd5b5035919050565b60008060408385031215614659578081fd5b505080516020909101519092909150565b60006080828403121561467b578081fd5b610ca4838361431f565b6000806101008385031215614698578182fd5b6146a2848461431f565b91506146b1846080850161431f565b90509250929050565b60008060008084860360e08112156146d0578283fd5b60808112156146dd578283fd5b50604051608081018181106001600160401b03821117156146fa57fe5b604052853561470881615d2d565b8152602086013561471881615cd9565b6020820152604086013561472b81615cd9565b6040820152606086013561473e81615cee565b6060820152935061475160808601613e66565b925061475f60a08601613e66565b915061476d60c08601613e66565b905092959194509250565b600060208284031215614789578081fd5b81516001600160401b038082111561479f578283fd5b9083019060e082860312156147b2578283fd5b6147bc60e0615c8d565b825181526020830151602082015260408301516040820152606083015160608201526080830151608082015260a083015160a082015260c083015182811115614803578485fd5b61480f87828601613f5e565b60c08301525095945050505050565b60006020828403121561482f578081fd5b81516001600160401b0380821115614845578283fd5b9083019060808286031215614858578283fd5b60405160808101818110838211171561486d57fe5b806040525082518152602083015160208201526040830151604082015260608301518281111561489b578485fd5b6148a787828601614126565b60608301525095945050505050565b600080600080600080600080610100898b0312156148d2578586fd5b88516148dd81615d18565b80985050602089015180600f0b81146148f4578687fd5b80975050604089015195506060890151945060808901518060060b8114614919578485fd5b60a08a015190945061492a81615cd9565b60c08a015190935063ffffffff81168114614943578283fd5b915061495160e08a01614230565b90509295985092959890939650565b600080600080600080600060e0888a03121561497a578081fd5b875161498581615cd9565b602089015190975061499681615d09565b95506149a460408901614520565b94506149b260608901614520565b93506149c060808901614520565b925060a088015160ff811681146149d5578182fd5b60c08901519092506149e681615cee565b8091505092959891949750929550565b600060208284031215614a07578081fd5b5051919050565b60008060408385031215614a20578182fd5b8251915060208301516001600160401b03811115614a3c578182fd5b614a488582860161402d565b9150509250929050565b60008060006060808587031215614a67578182fd5b843593506020808601356001600160401b0380821115614a85578485fd5b818801915088601f830112614a98578485fd5b8135614aa6613e9c82615cb0565b81815284810190848601610100808502870188018e1015614ac557898afd5b8996505b84871015614b7a5780828f031215614adf57898afd5b604080518281018181108982111715614af457fe5b8252614aff8461429f565b8152898401358a820152614b14828501614225565b82820152614b238b850161450a565b8b82015260809150614b368285016142b5565b8282015260a09150614b498285016142b5565b9181019190915260c0838101359082015260e080840135908201528452600196909601959287019290810190614ac9565b509098505050506040880135935080841115614b94578485fd5b505050614ba38682870161446a565b9150509250925092565b60008060008060c08587031215614bc2578182fd5b843593506020808601356001600160401b0380821115614be0578485fd5b818801915088601f830112614bf3578485fd5b8135614c01613e9c82615cb0565b81815284810190848601885b84811015614c3657614c248e8984358a010161437d565b84529287019290870190600101614c0d565b509098505050506040880135925080831115614c50578485fd5b5050614c5e8782880161446a565b92505061476d86606087016142cb565b60008082840360a0811215614c81578283fd5b833592506080601f1982011215614c96578182fd5b50604051608081018181106001600160401b0382111715614cb357fe5b80604052506020840135815260408401356020820152606084013560408201526080840135614ce181615cee565b6060820152919491935090915050565b60008060008084860360a0811215614d07578283fd5b8535945060208601356001600160401b0380821115614d24578485fd5b614d3089838a0161437d565b95506040880135915080821115614d45578485fd5b614d5189838a0161446a565b94506040605f1984011215614d64578384fd5b60405192506040830191508282108183111715614d7d57fe5b50604052606086013581526080909501356020860152509194909350909190565b600080600060a08486031215614db2578081fd5b8335925060208401356001600160401b03811115614dce578182fd5b614dda8682870161446a565b925050614dea85604086016142cb565b90509250925092565b60008060408385031215614e05578182fd5b50508035926020909101359150565b60008060008060c08587031215614e29578182fd5b843593506020850135925060408501356001600160401b03811115614e4c578283fd5b614c5e8782880161446a565b6000806000806000806000806000806000806101808d8f031215614e7a578586fd5b8c516bffffffffffffffffffffffff81168114614e95578687fd5b9b50614ea360208e01613e71565b9a50614eb160408e01613e71565b9950614ebf60608e01613e71565b9850614ecd60808e01614532565b9750614edb60a08e016142c0565b9650614ee960c08e016142c0565b9550614ef760e08e01614515565b94506101008d015193506101208d01519250614f166101408e01614515565b9150614f256101608e01614515565b90509295989b509295989b509295989b565b6001600160a01b03169052565b6000815180845260208085019450808401835b83811015614fb257815180511515885283810151848901526040808201516001600160801b031690890152606080820151908901526080808201519089015260a0908101519088015260c09096019590820190600101614f57565b509495945050505050565b6000815180845260208085019450808401835b83811015614fb257614fe3878351615234565b6080969096019590820190600101614fd0565b6000815180845260208085019450808401835b83811015614fb25781518051600d811061501f57fe5b88528084015184890152604080820151151590890152606080820151615047828b01826153e1565b505060808082015161505b828b01826150e9565b505060a08082015161506f828b01826150e9565b505060c0818101519089015260e090810151908801526101009096019590820190600101615009565b15159052565b60008151808452815b818110156150c3576020818501810151868301820152016150a7565b818111156150d45782602083870101525b50601f01601f19169290920160200192915050565b60020b9052565b80518252602090810151910152565b6151128261510d8354615ccd565b614f37565b60018101546001600160a01b0361512e60208501828416614f37565b6151436040850162ffffff8460a01c166153ee565b6151506002840154615ccd565b915061515f6060850183614f37565b61516c6003840154615ccd565b915061517b6080850183614f37565b6004830154915061519160a08501828416614f37565b506151a560c0840160ff8360a01c16615098565b50600581015460e08301526151c1610100830160068301615210565b6151d26101808301600a8301615210565b600e810154610200830152600f015461022090910152565b805182526020810151602083015260408101516040830152606081015160608301525050565b80548252600181015460208301526002810154604083015260030154606090910152565b8051151582526001600160801b036020820151166020830152604081015160020b6040830152606081015160020b60608301525050565b600060c08301825184526020808401518186015260408401516040860152606084015160608601526080808501518187015260a085015160c060a088015283815180865260e08901915084830195508692505b808310156152e5576152d1828751615234565b9484019460019290920191908301906152be565b50979650505050505050565b805182526020808201516001600160a01b031681840152604080830151908401526060808301519084015260808083015160a0918501829052805191850182905260009290810191839060c08701905b808310156153615784518252938301936001929092019190830190615341565b509695505050505050565b600060a0830182548452600180600160a01b03818501541660208181880152600286015460408801526003860154606088015260048601915060a0608088015283825480865260c08901915083875282872095508693505b808410156152e557855482529484019492840192908201906153c4565b6001600160801b03169052565b62ffffff169052565b600292830b60e890811b82529190920b901b600382015260060190565b6001600160a01b0391909116815260200190565b6001600160a01b03929092168252602082015260400190565b60208082528251828201819052600091906040908185019080840286018301878501865b838110156145d357888303603f1901855281518051845287810151888501528681015187850152606080820151908501526080808201519085015260a09081015160c0918501829052906154bb81860183614fbd565b968901969450505090860190600101615465565b6000608082016080835280875180835260a0850191506020925060a0838202860101838a01855b8381101561552457609f1988840301855261551283835161526b565b948601949250908501906001016154f6565b50509715159285019290925250505060408101929092526001600160a01b0316606090910152919050565b901515815260200190565b9515158652602086019490945260408501929092526001600160a01b03166060840152608083015260a082015260c00190565b60029190910b815260200190565b918252602082015260400190565b602080825260029082015261503360f01b604082015260600190565b6020808252600290820152610a0760f31b604082015260600190565b6020808252600b908201526a1a5b9a5d1a585b1a5e995960aa1b604082015260600190565b60208082526017908201527f63616c6c6572206d757374206265206f70657261746f72000000000000000000604082015260600190565b60208082526003908201526221a41960e91b604082015260600190565b602080825260029082015261281960f11b604082015260600190565b83815260c0810161568a6020830185615210565b8260a0830152949350505050565b60006102a06156a783886150ff565b806102408401526156ba818401876152f1565b6102608401959095525050610280015292915050565b61010081016156df82856151ea565b610ca460808301846151ea565b60006101208201905082518252602083015160020b6020830152604083015160020b6040830152606083015161572560608401826153e1565b506080830151608083015260a083015160a083015260c083015160c083015260e083015160e083015261010080840151818401525092915050565b60006020825282516020830152602083015160408301526040830151606083015260608301516080830152608083015160a083015260a083015160c083015260c083015160e080840152612588610100840182614fbd565b6000606082526157cb606083018661526b565b9315156020830152506001600160a01b0391909116604090910152919050565b60006020825282516020830152602083015161580a6040840182615098565b506040830151606083015260608301516080830152608083015160a083015260a083015160c083015260c083015161584560e08401826150f0565b5060e08301516158596101208401826150f0565b5061010083015161016083810152612588610180840182614f44565b6020808252825182820152828101516040808401919091528084015160608085019190915280850151608080860152805160a08601819052600094939184019285929160c08801905b8085101561593f578551805180518452888101518985015285015185840152878101516158ed858501826151ea565b5080850151805160e085015288810151610100850152808601516101208501528401516101408401528301516159276101608401826151ea565b506101e08201915086860195506001850194506158be565b5098975050505050505050565b6000602080835260c0830184518285015260018060a01b03828601511660408501526040850151606085015260608501516080850152608085015160a08086015281815180845260e08701915084830193508592505b8083101561536157835182529284019260019290920191908401906159a2565b60006102a08083526159d6818401886152f1565b91505084602083015283604083015261317a60608301846150ff565b600060e08252615a0560e083018a6152f1565b8860208401528760408401528660608401528281036080840152615a298187614ff6565b60a084019590955250506001600160a01b039190911660c09091015295945050505050565b60006102c0808352615a62818401896152f1565b915050856020830152846040830152615a7e60608301856150ff565b6001600160a01b03929092166102a09190910152949350505050565b60006102a0808352615aae8184018861536c565b915050846020830152615ac460408301856150ff565b8261028083015295945050505050565b600087825286602083015285604083015284606083015260c06080830152615aff60c0830185614ff6565b82810360a08401528351151581526020840151151560208201526040840151151560408201526060840151615b376060830182615098565b506080840151608082015260a084015160a082015260c084015160e060c08301526132b660e083018261509e565b600086825285602083015260a06040830152615b8460a0830186614ff6565b606083019490945250608001529392505050565b600087825286602083015285604083015284606083015260c06080830152615bc360c0830185614ff6565b90508260a0830152979650505050505050565b90815260200190565b9182526001600160a01b0316602082015260400190565b9283526020830191909152604082015260600190565b600086825285602083015284604083015260018060a01b038416606083015260a06080830152615c3f60a083018461509e565b979650505050505050565b93845260208401929092526040830152606082015260800190565b958652602086019490945260408501929092526060840152608083015260a082015260c00190565b6040518181016001600160401b0381118282101715615ca857fe5b604052919050565b60006001600160401b03821115615cc357fe5b5060209081020190565b6001600160a01b031690565b6001600160a01b0381168114611f5157600080fd5b8015158114611f5157600080fd5b600d8110611f5157600080fd5b8060020b8114611f5157600080fd5b6001600160801b0381168114611f5157600080fd5b62ffffff81168114611f5157600080fdfe496e697469616c697a61626c653a20636f6e747261637420697320616c726561647920696e697469616c697a6564a2646970667358221220e5d58f0cafab689197fd7c38c7ff72f47f498ebe65d3c93b20a39be5f53d87d364736f6c63430007060033",
  "deployedBytecode": "0x608060405234801561001057600080fd5b50600436106101c45760003560e01c8063570ca735116100f9578063b3ab15fb11610097578063dd8cb3f411610071578063dd8cb3f414610416578063eb02c30114610429578063ee6097f014610449578063fea9a2c21461045c576101c4565b8063b3ab15fb146103dd578063c04ed3d3146103f0578063c3df1acb14610403576101c4565b806368715773116100d357806368715773146103825780636f85ba9c1461039557806386e6862d146103b55780639403b634146103bd576101c4565b8063570ca7351461034757806365b5f6e31461035c578063671148591461036f576101c4565b80633ac352be11610166578063456157161161014057806345615716146102d357806349ebb77d146102ed57806351be57d31461030d578063542da3b014610325576101c4565b80633ac352be1461028a5780633c678e141461029d5780633e129715146102b3576101c4565b8063127f0f07116101a2578063127f0f0714610228578063275892a21461024257806330050fbd146102575780633743d14214610277576101c4565b8063013216f5146101c957806305943002146101f257806311bea7f414610207575b600080fd5b6101dc6101d736600461462f565b61046f565b6040516101e991906156ec565b60405180910390f35b610205610200366004614c6e565b61050b565b005b61021a610215366004614bad565b6105ea565b6040516101e992919061559b565b6102306106be565b6040516101e99695949392919061555a565b61024a6106e7565b6040516101e99190615bd6565b61026a61026536600461462f565b6106ed565b6040516101e991906157eb565b610205610285366004614df3565b610829565b61021a610298366004614d9e565b6108dc565b6102a5610907565b6040516101e99291906156d0565b6102c66102c136600461462f565b610960565b6040516101e9919061554f565b6102db610a0e565b6040516101e996959493929190615c65565b6103006102fb36600461462f565b610b5a565b6040516101e99190615875565b610315610cab565b6040516101e99493929190615c4a565b610338610333366004614cf1565b610cba565b6040516101e993929190615bf6565b61034f610d8a565b6040516101e99190615414565b61020561036a366004614559565b610d99565b61020561037d366004614685565b610eb2565b61020561039036600461466a565b610f14565b6103a86103a336600461462f565b610f5c565b6040516101e99190615760565b61034f611093565b6103d06103cb36600461462f565b61111c565b6040516101e9919061594c565b6102056103eb36600461453d565b6111c3565b6103386103fe36600461462f565b611222565b61021a610411366004614e14565b611326565b610338610424366004614a52565b6113a2565b61043c61043736600461462f565b611607565b6040516101e99190615441565b6102056104573660046146ba565b611612565b61024a61046a36600461462f565b6119d9565b610477613c57565b5060008181526002602081815260409283902083516101208101855281548152600182015480850b850b850b9382019390935263010000008304840b840b840b94810194909452600160301b9091046001600160801b03166060840152908101546080830152600381015460a0830152600481015460c0830152600581015460e0830152600601546101008201525b919050565b610513611ad6565b600073__$7ffffda71c6e7abde662efb5427d8d1c5d$__63b1a3252b61053885611607565b600a546040860151600160a01b90910460ff1690610554611093565b6040518563ffffffff1660e01b815260040161057394939291906154cf565b60006040518083038186803b15801561058b57600080fd5b505af415801561059f573d6000803e3d6000fd5b505050506040513d6000823e601f3d908101601f191682016040526105c791908101906145e1565b90506105d38382611b6a565b6105e582600001518360200151611bf7565b505050565b600080600073__$7ffffda71c6e7abde662efb5427d8d1c5d$__63b1a3252b878760600151876040015161061c611093565b6040518563ffffffff1660e01b815260040161063b94939291906154cf565b60006040518083038186803b15801561065357600080fd5b505af4158015610667573d6000803e3d6000fd5b505050506040513d6000823e601f3d908101601f1916820160405261068f91908101906145e1565b905061069c8782876113a2565b865160208801519296509094506106b4925090611bf7565b5094509492505050565b600a54600354600b5460145460155460ff600160a01b860416946001600160a01b031692939495565b60015481565b6106f5613cb2565b600082815260056020818152604080842081516101208101835281548152600182015460ff1615158185015260028201548184015260038201546060820152600482015460808201529381015460a0850152815180830183526006820154815260078201548185015260c0850152815180830183526008820154815260098201548185015260e0850152600a81018054835181860281018601909452808452949591946101008701949192909184015b8282101561081b5760008481526020908190206040805160c08101825260068602909201805460ff16151583526001808201548486015260028201546001600160801b03169284019290925260038101546060840152600481015460808401526005015460a083015290835290920191016107a5565b505050915250909392505050565b6023546001600160a01b0316331461085c5760405162461bcd60e51b815260040161085390615606565b60405180910390fd5b601454821180159061087057506015548111155b61088c5760405162461bcd60e51b8152600401610853906155c5565b60148054839003905560158054829003905581156108bb576006546108bb906001600160a01b03163384611c38565b80156108d8576007546108d8906001600160a01b03163383611c38565b5050565b6000806108e7611ad6565b6108fb856108f487611d7f565b86866105ea565b91509150935093915050565b6040805160808082018352601a548252601b54602080840191909152601c5483850152601d5460608085019190915284519283018552601e548352601f5483830152905493820193909352602154928101929092529082565b600061096b82611f14565b600082815260046020819052604091829020915163194a268960e21b815273__$a1fa80d38d689cae49e54718da49b6432c$__926365289a24926109b89260059160069160029101615a9a565b60206040518083038186803b1580156109d057600080fd5b505af41580156109e4573d6000803e3d6000fd5b505050506040513d601f19601f82011682018060405250810190610a089190614613565b92915050565b60408051608081018252600c548152600d546020820152600e5491810191909152600f54606082015260009081908190819081908190610a4d90611f54565b60408051608081018252600c548152600d546020820152600e5491810191909152600f546060820152610a7f90611f71565b60408051608081018252600c548152600d546020820152600e5491810191909152600f546060820152610ab190611f8e565b6040805160808101825260105481526011546020820152601254918101919091526013546060820152610ae390611f54565b6040805160808101825260105481526011546020820152601254918101919091526013546060820152610b1590611f71565b6040805160808101825260105481526011546020820152601254918101919091526013546060820152610b4790611f8e565b949b939a50919850965094509092509050565b610b62613d0c565b6000610b6c611093565b9050610b7783611f14565b600083815260046020818152604092839020835160a0810185528154815260018201546001600160a01b031681840152600282015481860152600382015460608201529281018054855181850281018501909652808652939491936080860193830182828015610c0657602002820191906000526020600020905b815481526020019060010190808311610bf2575b505050919092525050604051635d8d458360e11b815273__$b4a4919001844372a79711112cfb20c2b9$__9263bb1a8b069250610c50916005906002906006908890600401615a4e565b60006040518083038186803b158015610c6857600080fd5b505af4158015610c7c573d6000803e3d6000fd5b505050506040513d6000823e601f3d908101601f19168201604052610ca4919081019061481e565b9392505050565b60165460175460185460195484565b60008060008073__$7ffffda71c6e7abde662efb5427d8d1c5d$__63b5b49eb2888860600151610ce8611093565b6040518463ffffffff1660e01b8152600401610d06939291906157b8565b60006040518083038186803b158015610d1e57600080fd5b505af4158015610d32573d6000803e3d6000fd5b505050506040513d6000823e601f3d908101601f19168201604052610d5a91908101906145e1565b9050610d678882886113a2565b875160208901519397509195509350610d7f91611bf7565b509450945094915050565b6023546001600160a01b031681565b6023546001600160a01b03163314610dc35760405162461bcd60e51b815260040161085390615606565b60005b81518110156108d857600080838381518110610dde57fe5b6020026020010151806020019051810190610df99190614a0e565b91509150610e078282611fc9565b60008281526004602081905260408083209051637882621360e11b815273__$a1fa80d38d689cae49e54718da49b6432c$__9363f104c42693610e5793926005926006926002928a929101615b98565b60206040518083038186803b158015610e6f57600080fd5b505af4158015610e83573d6000803e3d6000fd5b505050506040513d601f19601f82011682018060405250810190610ea791906149f6565b505050600101610dc6565b6023546001600160a01b03163314610edc5760405162461bcd60e51b815260040161085390615606565b8151601e55602080830151601f5560408084015182556060938401516021558251601a5590820151601b55810151601c550151601d55565b6023546001600160a01b03163314610f3e5760405162461bcd60e51b815260040161085390615606565b80516016556020810151601755604081015160185560600151601955565b610f64613d34565b6000828152600460208181526040808420815160a0810183528154815260018201546001600160a01b031681850152600282015481840152600382015460608201529381018054835181860281018601909452808452919360808601939290830182828015610ff257602002820191906000526020600020905b815481526020019060010190808311610fde575b50505091909252505060405163149ccfa160e11b815291925073__$b4a4919001844372a79711112cfb20c2b9$__916329399f42915061103f9084906005906002906006906004016159c2565b60006040518083038186803b15801561105757600080fd5b505af415801561106b573d6000803e3d6000fd5b505050506040513d6000823e601f3d908101601f19168201604052610ca49190810190614778565b600a5460408051633850c7bd60e01b815290516000926001600160a01b031691633850c7bd9160048281019260e0929190829003018186803b1580156110d857600080fd5b505afa1580156110ec573d6000803e3d6000fd5b505050506040513d601f19601f820116820180604052508101906111109190614960565b50949695505050505050565b611124613d71565b600082815260046020818152604092839020835160a0810185528154815260018201546001600160a01b0316818401526002820154818601526003820154606082015292810180548551818502810185019096528086529394919360808601938301828280156111b357602002820191906000526020600020905b81548152602001906001019080831161119f575b5050505050815250509050919050565b6023546001600160a01b031633146111ed5760405162461bcd60e51b815260040161085390615606565b6001600160a01b03811661120057600080fd5b602380546001600160a01b0319166001600160a01b0392909216919091179055565b60408051610180810182526006546001600160a01b039081168252600754808216602080850191909152600160a01b9182900462ffffff168486015260085483166060808601919091526009548416608080870191909152600a5494851660a08701529290930460ff16151560c0850152600b5460e085015284518083018652600c548152600d5481830152600e5481870152600f5481850152610100850152845191820185526010548252601154828201526012548286015260135492820192909252610120830152601454610140830152601554610160830152600084815260029091529182208291829161131991906121e6565b9250925092509193909250565b600080611331611ad6565b604080516001808252818301909252600091816020015b611350613da9565b81526020019060019003908161134857905050905061136f87876122ab565b8160008151811061137c57fe5b6020026020010181905250611393878287876105ea565b92509250505b94509492505050565b60008060006113b18686611fc9565b60006113c1878660400151612590565b604051636413e81f60e11b8152919550915073__$da03e66f624374a74ff67f4d42d7f52632$__9063c827d03e9061140a9084906005906006906002908d908d90600401615ad4565b604080518083038186803b15801561142157600080fd5b505af4158015611435573d6000803e3d6000fd5b505050506040513d601f19601f820116820180604052508101906114599190614647565b604087015191945092501561147257611472838361266f565b60405163194a268960e21b815273__$a1fa80d38d689cae49e54718da49b6432c$__906365289a24906114b2908490600590600690600290600401615a9a565b60206040518083038186803b1580156114ca57600080fd5b505af41580156114de573d6000803e3d6000fd5b505050506040513d601f19601f820116820180604052508101906115029190614613565b1561151f5760405162461bcd60e51b8152600401610853906155a9565b600083131561154557600654611540906001600160a01b0316333086612680565b611569565b600083121561156957600654611569906001600160a01b0316336000869003611c38565b600082131561158f5760075461158a906001600160a01b0316333085612680565b6115b3565b60008212156115b3576007546115b3906001600160a01b0316336000859003611c38565b7fabc710e8ab5c8f4ea5d70ef0f4c50f12dd4804fa7e04ce65aa8c813197b64bea8484846115df611093565b8960c001516040516115f5959493929190615c0c565b60405180910390a15093509350939050565b6060610a0882611d7f565b600054610100900460ff168061162b575061162b6127d0565b80611639575060005460ff16155b6116745760405162461bcd60e51b815260040180806020018281038252602e815260200180615d3f602e913960400191505060405180910390fd5b600054610100900460ff1615801561169f576000805460ff1961ff0019909116610100171660011790555b845160078054602080890151600680546001600160a01b03199081166001600160a01b0393841617918290556040808d015162ffffff60a01b19909616600160a01b62ffffff998a16810291909117831696851696909617968790556060808e0151600a805460ff60a01b191691151589029190911790556008805484168e8716179055600980549093168b86161790925580519182018152918316815291851692820192909252919092049092169082015261175c84826127e1565b600a80546001600160a01b0319166001600160a01b0392831617905560016003819055600b5560065460405163095ea7b360e01b815291169063095ea7b3906117ad90889060001990600401615428565b602060405180830381600087803b1580156117c757600080fd5b505af11580156117db573d6000803e3d6000fd5b505050506040513d601f19601f820116820180604052508101906117ff9190614613565b5060075460405163095ea7b360e01b81526001600160a01b039091169063095ea7b39061183490889060001990600401615428565b602060405180830381600087803b15801561184e57600080fd5b505af1158015611862573d6000803e3d6000fd5b505050506040513d601f19601f820116820180604052508101906118869190614613565b5060065460405163095ea7b360e01b81526001600160a01b039091169063095ea7b3906118bb90869060001990600401615428565b602060405180830381600087803b1580156118d557600080fd5b505af11580156118e9573d6000803e3d6000fd5b505050506040513d601f19601f8201168201806040525081019061190d9190614613565b5060075460405163095ea7b360e01b81526001600160a01b039091169063095ea7b39061194290869060001990600401615428565b602060405180830381600087803b15801561195c57600080fd5b505af1158015611970573d6000803e3d6000fd5b505050506040513d601f19601f820116820180604052508101906119949190614613565b5061199f600c6128c5565b6119a960106128c5565b5042600155602380546001600160a01b0319163317905580156119d2576000805461ff00191690555b5050505050565b60408051610180810182526006546001600160a01b039081168252600754808216602080850191909152600160a01b9182900462ffffff168486015260085483166060808601919091526009548416608080870191909152600a5494851660a08701529290930460ff16151560c0850152600b5460e085015284518083018652600c548152600d5481830152600e5481870152600f548185015261010085015284519182018552601054825260115482820152601254828601526013549282019290925261012083015260145461014083015260155461016083015260008481526002909152918220610a0891601a91611ad1611093565b6128dd565b60015460405163725acfd160e01b815273__$d48eea142f8e4946a86e978d6ec5b9f014$__9163725acfd191611b159160069160169190600401615676565b60206040518083038186803b158015611b2d57600080fd5b505af4158015611b41573d6000803e3d6000fd5b505050506040513d601f19601f82011682018060405250810190611b6591906149f6565b600155565b611b748282611fc9565b60008281526004602081905260409182902091516349b3bd7960e11b815273__$a1fa80d38d689cae49e54718da49b6432c$__926393677af292611bc392600591879160069160029101615b65565b60006040518083038186803b158015611bdb57600080fd5b505af4158015611bef573d6000803e3d6000fd5b505050505050565b6000611c01611093565b6001600160a01b03169050808311158015611c1c5750818111155b6105e55760405162461bcd60e51b81526004016108539061563d565b604080516001600160a01b038481166024830152604480830185905283518084039091018152606490920183526020820180516001600160e01b031663a9059cbb60e01b1781529251825160009485949389169392918291908083835b60208310611cb45780518252601f199092019160209182019101611c95565b6001836020036101000a0380198251168184511680821785525050505050509050019150506000604051808303816000865af19150503d8060008114611d16576040519150601f19603f3d011682016040523d82523d6000602084013e611d1b565b606091505b5091509150818015611d49575080511580611d495750808060200190516020811015611d4657600080fd5b50515b6119d2576040805162461bcd60e51b815260206004820152600260248201526114d560f21b604482015290519081900360640190fd5b6000818152600460208181526040808420815160a0810183528154815260018201546001600160a01b03168185015260028201548184015260038201546060828101919091529482018054845181870281018701909552808552959695919492936080860193909290830182828015611e1757602002820191906000526020600020905b815481526020019060010190808311611e03575b50505091909252505060408051610180810182526006546001600160a01b039081168252600754808216602080850191909152600160a01b9182900462ffffff168486015260085483166060808601919091526009548416608080870191909152600a5494851660a08701529290930460ff16151560c0850152600b5460e085015284518083018652600c548152600d5481830152600e5481870152600f5481850152610100850152845191820185526010548252601154908201526012549381019390935260135490830152610120810191909152601454610140820152601554610160820152919250610ca4918391506005906002906129a0565b60408051600080825260208201909252611f5191839190611f4b565b611f38613ddf565b815260200190600190039081611f305790505b50611fc9565b50565b6000610a0882600001518360400151670de0b6b3a7640000612b8e565b6000610a0882602001518360600151670de0b6b3a7640000612b8e565b8051600090611fa65750670de0b6b3a7640000610506565b610a08611fb283611f71565b670de0b6b3a7640000611fc485611f54565b612b8e565b6000828152600460208181526040808420815160a0810183528154815260018201546001600160a01b03168185015260028201548184015260038201546060820152938101805483518186028101860190945280845291936080860193929083018282801561205757602002820191906000526020600020905b815481526020019060010190808311612043575b505050505081525050905073__$d48eea142f8e4946a86e978d6ec5b9f014$__63a5d330ad8260056002600687601a61208e611093565b6040518863ffffffff1660e01b81526004016120b097969594939291906159f2565b60006040518083038186803b1580156120c857600080fd5b505af41580156120dc573d6000803e3d6000fd5b505060015460405163725acfd160e01b815273__$d48eea142f8e4946a86e978d6ec5b9f014$__935063725acfd1925061211f9160069160169190600401615676565b60206040518083038186803b15801561213757600080fd5b505af415801561214b573d6000803e3d6000fd5b505050506040513d601f19601f8201168201806040525081019061216f91906149f6565b60015560405162d85ecd60e61b815273__$da03e66f624374a74ff67f4d42d7f52632$__90633617b340906121b1906006908590600590600290600401615698565b60006040518083038186803b1580156121c957600080fd5b505af41580156121dd573d6000803e3d6000fd5b50505050505050565b6040805161012081018252825481526001830154600281810b810b810b602084015263010000008204810b810b810b93830193909352600160301b90046001600160801b03166060820152908201546080820152600382015460a0820152600482015460c0820152600582015460e0820152600682015461010082015260009081908190612275908690612bad565b6001850154600160301b90046001600160801b03166122948787612bcf565b9194506001600160801b0316925090509250925092565b6122b3613da9565b6000838152600460208181526040808420815160a0810183528154815260018201546001600160a01b03168185015260028201548184015260038201546060820152938101805483518186028101860190945280845291936080860193929083018282801561234157602002820191906000526020600020905b81548152602001906001019080831161232d575b505050505081525050905061258883600560008460800151878151811061236457fe5b6020908102919091018101518252818101929092526040908101600090812082516101208101845281548152600182015460ff161515818601526002820154818501526003820154606082015260048201546080820152600582015460a0820152835180850185526006830154815260078301548187015260c0820152835180850185526008830154815260098301548187015260e0820152600a8201805485518188028101880190965280865291959294610100870194909391929184015b8282101561249a5760008481526020908190206040805160c08101825260068602909201805460ff16151583526001808201548486015260028201546001600160801b03169284019290925260038101546060840152600481015460808401526005015460a08301529083529092019101612424565b5050509152505060408051610180810182526006546001600160a01b039081168252600754808216602080850191909152600160a01b9182900462ffffff168486015260085483166060808601919091526009548416608080870191909152600a5494851660a08701529290930460ff16151560c0850152600b5460e085015284518083018652600c548152600d5481830152600e5481870152600f5481850152610100850152845191820185526010548252601154908201526012549381019390935260135490830152610120810191909152601454610140820152601554610160820152600290612c6c565b949350505050565b60008083612615576003805460018082019092556000818152600460205260409081902082815590920180546001600160a01b03191633179081905591519093507fbf3e9c93de94306b70ac5b9411edf475545815333bf651b894b9eada6482c594916126089185916001600160a01b031690615bdf565b60405180910390a1612659565b6000848152600460205260409020600101548492506001600160a01b031633148061263d5750825b6126595760405162461bcd60e51b81526004016108539061565a565b5060008181526004602052604090209250929050565b602051828152816020820152604081fd5b604080516001600160a01b0385811660248301528481166044830152606480830185905283518084039091018152608490920183526020820180516001600160e01b03166323b872dd60e01b178152925182516000948594938a169392918291908083835b602083106127045780518252601f1990920191602091820191016126e5565b6001836020036101000a0380198251168184511680821785525050505050509050019150506000604051808303816000865af19150503d8060008114612766576040519150601f19603f3d011682016040523d82523d6000602084013e61276b565b606091505b5091509150818015612799575080511580612799575080806020019051602081101561279657600080fd5b50515b611bef576040805162461bcd60e51b815260206004820152600360248201526229aa2360e91b604482015290519081900360640190fd5b60006127db30612f1c565b15905090565b600081602001516001600160a01b031682600001516001600160a01b03161061280957600080fd5b50805160208083015160409384015184516001600160a01b0394851681850152939091168385015262ffffff166060808401919091528351808403820181526080840185528051908301206001600160f81b031960a085015294901b6bffffffffffffffffffffffff191660a183015260b58201939093527fe34f199b19b2b4f47f68442619d555527d244f78a3297ea89325f843f87b8b5460d5808301919091528251808303909101815260f5909101909152805191012090565b670de0b6b3a764000060028201819055600390910155565b6001820154600090600160301b90046001600160801b0316156129955760006129068585612bcf565b60c086015160a0870151600187015492935061298d92612937918a91600281810b9163010000009004900b87612f22565b6040805160808101825260048b0154815260058b0154602082015260068b01549181019190915260078a015460608201526129729085613183565b60018801548790600281810b9163010000009004900b6131f8565b915050612588565b506000949350505050565b60608460800151516001600160401b03811180156129bd57600080fd5b506040519080825280602002602001820160405280156129f757816020015b6129e4613da9565b8152602001906001900390816129dc5790505b50905060005b856080015151811015612b8557612b668186600089608001518581518110612a2157fe5b6020908102919091018101518252818101929092526040908101600090812082516101208101845281548152600182015460ff161515818601526002820154818501526003820154606082015260048201546080820152600582015460a0820152835180850185526006830154815260078301548187015260c0820152835180850185526008830154815260098301548187015260e0820152600a8201805485518188028101880190965280865291959294610100870194909391929184015b82821015612b575760008481526020908190206040805160c08101825260068602909201805460ff16151583526001808201548486015260028201546001600160801b03169284019290925260038101546060840152600481015460808401526005015460a08301529083529092019101612ae1565b50505050815250508686612c6c565b828281518110612b7257fe5b60209081029190910101526001016129fd565b50949350505050565b828202811515841585830485141716612ba657600080fd5b0492915050565b600081606001516001600160801b0316612bc784846132c4565b019392505050565b6001810154604080516101208101825283548152600283810b810b810b602083015263010000008404810b810b810b92820192909252600160301b9092046001600160801b031660608301819052908301546080830152600383015460a0830152600483015460c0830152600583015460e08301526006830154610100830152600091610ca49190670de0b6b3a764000090611fc4908790612bad565b612c74613da9565b6000846101000151516001600160401b0381118015612c9257600080fd5b50604051908082528060200260200182016040528015612ccc57816020015b612cb9613e25565b815260200190600190039081612cb15790505b50905060005b85610100015151811015612e2a5760008661010001518281518110612cf357fe5b6020908102919091018101518101516000818152888352604090819020815161012081018352815481526001820154600281810b810b810b9683019690965263010000008104860b860b860b82850152600160301b90046001600160801b0316606082015293810154608080860191909152600382015460a0860152600482015460c0860152600582015460e0860152600690910154610100808601919091528251918201909252908a01518051929450909182919086908110612db357fe5b602002602001015160000151151581526020018961010001518581518110612dd757fe5b6020026020010151604001516001600160801b03168152602001826020015160020b8152602001826040015160020b815250848481518110612e1557fe5b60209081029190910101525050600101612cd2565b50846020015115612ed4576040518060c00160405280878152602001612e628760c0015186610100015161336b90919063ffffffff16565b8152602001612e838760e0015186610120015161336b90919063ffffffff16565b8152602001612ea48760c0015186610100015161338890919063ffffffff16565b8152602001612ec58760e0015186610120015161338890919063ffffffff16565b81526020018290529150612b85565b6040518060c001604052808781526020018660400151815260200186606001518152602001866080015181526020018660a00151815260200182815250915050949350505050565b3b151590565b600080856001600160a01b031663f30583996040518163ffffffff1660e01b815260040160206040518083038186803b158015612f5e57600080fd5b505afa158015612f72573d6000803e3d6000fd5b505050506040513d601f19601f82011682018060405250810190612f9691906149f6565b90506000866001600160a01b031663461413196040518163ffffffff1660e01b815260040160206040518083038186803b158015612fd357600080fd5b505afa158015612fe7573d6000803e3d6000fd5b505050506040513d601f19601f8201168201806040525081019061300b91906149f6565b90506000876001600160a01b0316633850c7bd6040518163ffffffff1660e01b815260040160e06040518083038186803b15801561304857600080fd5b505afa15801561305c573d6000803e3d6000fd5b505050506040513d601f19601f820116820180604052508101906130809190614960565b50505050509150506000806130ac6130988b8b6133a5565b6130a28c8b6133a5565b8b8b878a8a613471565b91509150600089896040516020016130c59291906153f7565b6040516020818303038152906040528051906020012090506131716131208d6000016040518060800160405290816000820154815260200160018201548152602001600282015481526020016003820154815250508a613183565b8d600801600084815260200190815260200160002060405180608001604052908160008201548152602001600182015481526020016002820154815260200160038201548152505085858a8a6134ee565b96505050505050505b95945050505050565b815160208301516000919083116131b257670de0b6b3a764000084604001518402816131ab57fe5b0401610ca4565b670de0b6b3a76400008460400151856020015102816131cd57fe5b0481019050670de0b6b3a764000084602001518403856060015102816131ef57fe5b04019392505050565b60008060006132218661320a8761356d565b6132138761356d565b670de0b6b3a764000061389f565b91509150600061323a8a886001600160a01b031661393a565b9050891561325e57826132568383670de0b6b3a7640000612b8e565b019350613276565b816132728483670de0b6b3a7640000612b8e565b0193505b670de0b6b3a76400008489020493506132b6670de0b6b3a76400008a6132a584670de0b6b3a764000002613a02565b02816132ad57fe5b86919004613aa6565b9a9950505050505050505050565b6060820151815160405163133f757160e31b815260009283926001600160a01b03909116916399fbab88916132fb91600401615bd6565b6101806040518083038186803b15801561331457600080fd5b505afa158015613328573d6000803e3d6000fd5b505050506040513d601f19601f8201168201806040525081019061334c9190614e58565b50506001600160801b039092169a505050505050505050505092915050565b6000610ca482600001518460400151670de0b6b3a7640000612b8e565b6000610ca482602001518460600151670de0b6b3a7640000612b8e565b6133ad613e4c565b6000806000856001600160a01b031663f30dba93866040518263ffffffff1660e01b81526004016133de919061558d565b6101006040518083038186803b1580156133f757600080fd5b505afa15801561340b573d6000803e3d6000fd5b505050506040513d601f19601f8201168201806040525081019061342f91906148b6565b9750505050945094505050806134575760405162461bcd60e51b8152600401610853906155e1565b506040805180820190915291825260208201529392505050565b6000806000808860020b8760020b12613492575050885160208a01516134a2565b5050885160208a01519085039084035b6000808960020b8960020b12156134c1575050895160208b01516134d1565b5050895160208b01519087039086035b92909603959095039a949093039290920397509195505050505050565b60008060008760400151851115613522578760400151850388600001518803670de0b6b3a7640000028161351e57fe5b0491505b8760600151841115613551578760600151840388602001518703670de0b6b3a7640000028161354d57fe5b0490505b671bc16d674ec800008282018a02049998505050505050505050565b60008060008360020b12613584578260020b61358c565b8260020b6000035b9050620d89e88111156135ca576040805162461bcd60e51b81526020600482015260016024820152601560fa1b604482015290519081900360640190fd5b6000600182166135de57600160801b6135f0565b6ffffcb933bd6fad37aa2d162d1a5940015b70ffffffffffffffffffffffffffffffffff1690506002821615613624576ffff97272373d413259a46990580e213a0260801c5b6004821615613643576ffff2e50f5f656932ef12357cf3c7fdcc0260801c5b6008821615613662576fffe5caca7e10e4e61c3624eaa0941cd00260801c5b6010821615613681576fffcb9843d60f6159c9db58835c9266440260801c5b60208216156136a0576fff973b41fa98c081472e6896dfb254c00260801c5b60408216156136bf576fff2ea16466c96a3843ec78b326b528610260801c5b60808216156136de576ffe5dee046a99a2a811c461f1969c30530260801c5b6101008216156136fe576ffcbe86c7900a88aedcffc83b479aa3a40260801c5b61020082161561371e576ff987a7253ac413176f2b074cf7815e540260801c5b61040082161561373e576ff3392b0822b70005940c7a398e4b70f30260801c5b61080082161561375e576fe7159475a2c29b7443b29c7fa6e889d90260801c5b61100082161561377e576fd097f3bdfd2022b8845ad8f792aa58250260801c5b61200082161561379e576fa9f746462d870fdf8a65dc1f90e061e50260801c5b6140008216156137be576f70d869a156d2a1b890bb3df62baf32f70260801c5b6180008216156137de576f31be135f97d08fd981231505542fcfa60260801c5b620100008216156137ff576f09aa508b5b7a84e1c677de54f3e99bc90260801c5b6202000082161561381f576e5d6af8dedb81196699c329225ee6040260801c5b6204000082161561383e576d2216e584f5fa1ea926041bedfe980260801c5b6208000082161561385b576b048a170391f7dc42444e8fa20260801c5b60008460020b131561387657806000198161387257fe5b0490505b64010000000081061561388a57600161388d565b60005b60ff16602082901c0192505050919050565b600080836001600160a01b0316856001600160a01b031611156138c0579293925b846001600160a01b0316866001600160a01b0316116138eb576138e4858585613b00565b9150611399565b836001600160a01b0316866001600160a01b0316101561392457613910868585613b00565b915061391d858785613b69565b9050611399565b61392f858585613b69565b905094509492505050565b6000670de0b6b3a764000083156139a257613963838483600160c01b8161395d57fe5b04613ba8565b915081613982576ec097ce7bc90715b34b9f1000000000915050610a08565b816ec097ce7bc90715b34b9f10000000008161399a57fe5b0491506139c3565b600160601b816139b78586600160601b613ba8565b02816139bf57fe5b0491505b6ec097ce7bc90715b34b9f10000000008211156139f1576ec097ce7bc90715b34b9f100000000091506139fb565b816139fb57600191505b5092915050565b60b581600160881b8110613a1b5760409190911b9060801c5b69010000000000000000008110613a375760209190911b9060401c5b650100000000008110613a4f5760109190911b9060201c5b63010000008110613a655760089190911b9060101c5b62010000010260121c80820401600190811c80830401811c80830401811c80830401811c80830401811c80830401811c80830401901c908190048111900390565b600082820183811015610ca4576040805162461bcd60e51b815260206004820152601b60248201527f536166654d6174683a206164646974696f6e206f766572666c6f770000000000604482015290519081900360640190fd5b6000826001600160a01b0316846001600160a01b03161115613b20579192915b836001600160a01b0316613b59606060ff16846001600160801b0316901b8686036001600160a01b0316866001600160a01b0316613ba8565b81613b6057fe5b04949350505050565b6000826001600160a01b0316846001600160a01b03161115613b89579192915b612588826001600160801b03168585036001600160a01b0316600160601b5b6000808060001985870986860292508281109083900303905080613bde5760008411613bd357600080fd5b508290049050610ca4565b808411613bea57600080fd5b6000848688096000868103871696879004966002600389028118808a02820302808a02820302808a02820302808a02820302808a02820302808a02909103029181900381900460010186841190950394909402919094039290920491909117919091029150509392505050565b60405180610120016040528060008152602001600060020b8152602001600060020b815260200160006001600160801b0316815260200160008152602001600081526020016000815260200160008152602001600081525090565b6040518061012001604052806000815260200160001515815260200160008152602001600081526020016000815260200160008152602001613cf2613e4c565b8152602001613cff613e4c565b8152602001606081525090565b6040518060800160405280600081526020016000815260200160008152602001606081525090565b6040518060e00160405280600081526020016000815260200160008152602001600081526020016000815260200160008152602001606081525090565b6040518060a001604052806000815260200160006001600160a01b031681526020016000815260200160008152602001606081525090565b6040518060c001604052806000815260200160008152602001600081526020016000815260200160008152602001606081525090565b604080516101008101909152806000815260006020820181905260408201819052606082018190526080820181905260a0820181905260c0820181905260e09091015290565b60408051608081018252600080825260208201819052918101829052606081019190915290565b604051806040016040528060008152602001600081525090565b803561050681615cd9565b805161050681615cd9565b600082601f830112613e8c578081fd5b81356020613ea1613e9c83615cb0565b615c8d565b82815281810190858301608080860288018501891015613ebf578687fd5b865b86811015613f505781838b031215613ed7578788fd5b604080518381018181106001600160401b0382111715613ef357fe5b82528435613f0081615cee565b815284880135613f0f81615d18565b8189015284820135613f2081615d09565b8083830152506060915081850135613f3781615d09565b9181019190915285529385019391810191600101613ec1565b509198975050505050505050565b600082601f830112613f6e578081fd5b81516020613f7e613e9c83615cb0565b82815281810190858301608080860288018501891015613f9c578687fd5b865b86811015613f505781838b031215613fb4578788fd5b604080518381018181106001600160401b0382111715613fd057fe5b82528451613fdd81615cee565b815284880151613fec81615d18565b8189015284820151613ffd81615d09565b808383015250606091508185015161401481615d09565b9181019190915285529385019391810191600101613f9e565b600082601f83011261403d578081fd5b8151602061404d613e9c83615cb0565b828152818101908583016101008086028801850189101561406c578687fd5b865b86811015613f505781838b031215614084578788fd5b604080518381018181106001600160401b03821117156140a057fe5b82526140ab856142aa565b815287850151888201526140c0828601614230565b82820152606091506140d3828601614515565b82820152608091506140e68286016142c0565b8282015260a091506140f98286016142c0565b9181019190915260c0848101519082015260e080850151908201528552938501939181019160010161406e565b600082601f830112614136578081fd5b81516020614146613e9c83615cb0565b828152818101908583016101e080860288018501891015614165578687fd5b865b86811015613f5057828a038281121561417e578889fd5b60408051608081016001600160401b03828210818311171561419c57fe5b81845260608512156141ac578c8dfd5b60e08301945081851081861117156141c057fe5b50838352865181528987015160a08301528683015160c083015281526141e98d6060880161440c565b898201526141fa8d60e0880161440c565b8282015261420c8d610160880161440c565b6060820152875250509385019391810191600101614167565b803561050681615cee565b805161050681615cee565b600082601f83011261424b578081fd5b81356001600160401b0381111561425e57fe5b614271601f8201601f1916602001615c8d565b818152846020838601011115614285578283fd5b816020850160208301379081016020019190915292915050565b803561050681615cfc565b805161050681615cfc565b803561050681615d09565b805161050681615d09565b6000606082840312156142dc578081fd5b604051606081018181106001600160401b03821117156142f857fe5b80604052508091508235815260208301356020820152604083013560408201525092915050565b600060808284031215614330578081fd5b604051608081018181106001600160401b038211171561434c57fe5b8060405250809150823581526020830135602082015260408301356040820152606083013560608201525092915050565b600060c0828403121561438e578081fd5b60405160c081016001600160401b0382821081831117156143ab57fe5b81604052829350843583526020850135602084015260408501356040840152606085013560608401526080850135608084015260a08501359150808211156143f257600080fd5b506143ff85828601613e7c565b60a0830152505092915050565b60006080828403121561441d578081fd5b604051608081018181106001600160401b038211171561443957fe5b8060405250809150825181526020830151602082015260408301516040820152606083015160608201525092915050565b600060e0828403121561447b578081fd5b61448560e0615c8d565b905061449082614225565b815261449e60208301614225565b60208201526144af60408301614225565b60408201526144c060608301614225565b60608201526080820135608082015260a082013560a082015260c08201356001600160401b038111156144f257600080fd5b6144fe8482850161423b565b60c08301525092915050565b803561050681615d18565b805161050681615d18565b805161ffff8116811461050657600080fd5b805161050681615d2d565b60006020828403121561454e578081fd5b8135610ca481615cd9565b6000602080838503121561456b578182fd5b82356001600160401b03811115614580578283fd5b8301601f81018513614590578283fd5b803561459e613e9c82615cb0565b81815283810190838501865b848110156145d3576145c18a88843589010161423b565b845292860192908601906001016145aa565b509098975050505050505050565b6000602082840312156145f2578081fd5b81516001600160401b03811115614607578182fd5b6125888482850161402d565b600060208284031215614624578081fd5b8151610ca481615cee565b600060208284031215614640578081fd5b5035919050565b60008060408385031215614659578081fd5b505080516020909101519092909150565b60006080828403121561467b578081fd5b610ca4838361431f565b6000806101008385031215614698578182fd5b6146a2848461431f565b91506146b1846080850161431f565b90509250929050565b60008060008084860360e08112156146d0578283fd5b60808112156146dd578283fd5b50604051608081018181106001600160401b03821117156146fa57fe5b604052853561470881615d2d565b8152602086013561471881615cd9565b6020820152604086013561472b81615cd9565b6040820152606086013561473e81615cee565b6060820152935061475160808601613e66565b925061475f60a08601613e66565b915061476d60c08601613e66565b905092959194509250565b600060208284031215614789578081fd5b81516001600160401b038082111561479f578283fd5b9083019060e082860312156147b2578283fd5b6147bc60e0615c8d565b825181526020830151602082015260408301516040820152606083015160608201526080830151608082015260a083015160a082015260c083015182811115614803578485fd5b61480f87828601613f5e565b60c08301525095945050505050565b60006020828403121561482f578081fd5b81516001600160401b0380821115614845578283fd5b9083019060808286031215614858578283fd5b60405160808101818110838211171561486d57fe5b806040525082518152602083015160208201526040830151604082015260608301518281111561489b578485fd5b6148a787828601614126565b60608301525095945050505050565b600080600080600080600080610100898b0312156148d2578586fd5b88516148dd81615d18565b80985050602089015180600f0b81146148f4578687fd5b80975050604089015195506060890151945060808901518060060b8114614919578485fd5b60a08a015190945061492a81615cd9565b60c08a015190935063ffffffff81168114614943578283fd5b915061495160e08a01614230565b90509295985092959890939650565b600080600080600080600060e0888a03121561497a578081fd5b875161498581615cd9565b602089015190975061499681615d09565b95506149a460408901614520565b94506149b260608901614520565b93506149c060808901614520565b925060a088015160ff811681146149d5578182fd5b60c08901519092506149e681615cee565b8091505092959891949750929550565b600060208284031215614a07578081fd5b5051919050565b60008060408385031215614a20578182fd5b8251915060208301516001600160401b03811115614a3c578182fd5b614a488582860161402d565b9150509250929050565b60008060006060808587031215614a67578182fd5b843593506020808601356001600160401b0380821115614a85578485fd5b818801915088601f830112614a98578485fd5b8135614aa6613e9c82615cb0565b81815284810190848601610100808502870188018e1015614ac557898afd5b8996505b84871015614b7a5780828f031215614adf57898afd5b604080518281018181108982111715614af457fe5b8252614aff8461429f565b8152898401358a820152614b14828501614225565b82820152614b238b850161450a565b8b82015260809150614b368285016142b5565b8282015260a09150614b498285016142b5565b9181019190915260c0838101359082015260e080840135908201528452600196909601959287019290810190614ac9565b509098505050506040880135935080841115614b94578485fd5b505050614ba38682870161446a565b9150509250925092565b60008060008060c08587031215614bc2578182fd5b843593506020808601356001600160401b0380821115614be0578485fd5b818801915088601f830112614bf3578485fd5b8135614c01613e9c82615cb0565b81815284810190848601885b84811015614c3657614c248e8984358a010161437d565b84529287019290870190600101614c0d565b509098505050506040880135925080831115614c50578485fd5b5050614c5e8782880161446a565b92505061476d86606087016142cb565b60008082840360a0811215614c81578283fd5b833592506080601f1982011215614c96578182fd5b50604051608081018181106001600160401b0382111715614cb357fe5b80604052506020840135815260408401356020820152606084013560408201526080840135614ce181615cee565b6060820152919491935090915050565b60008060008084860360a0811215614d07578283fd5b8535945060208601356001600160401b0380821115614d24578485fd5b614d3089838a0161437d565b95506040880135915080821115614d45578485fd5b614d5189838a0161446a565b94506040605f1984011215614d64578384fd5b60405192506040830191508282108183111715614d7d57fe5b50604052606086013581526080909501356020860152509194909350909190565b600080600060a08486031215614db2578081fd5b8335925060208401356001600160401b03811115614dce578182fd5b614dda8682870161446a565b925050614dea85604086016142cb565b90509250925092565b60008060408385031215614e05578182fd5b50508035926020909101359150565b60008060008060c08587031215614e29578182fd5b843593506020850135925060408501356001600160401b03811115614e4c578283fd5b614c5e8782880161446a565b6000806000806000806000806000806000806101808d8f031215614e7a578586fd5b8c516bffffffffffffffffffffffff81168114614e95578687fd5b9b50614ea360208e01613e71565b9a50614eb160408e01613e71565b9950614ebf60608e01613e71565b9850614ecd60808e01614532565b9750614edb60a08e016142c0565b9650614ee960c08e016142c0565b9550614ef760e08e01614515565b94506101008d015193506101208d01519250614f166101408e01614515565b9150614f256101608e01614515565b90509295989b509295989b509295989b565b6001600160a01b03169052565b6000815180845260208085019450808401835b83811015614fb257815180511515885283810151848901526040808201516001600160801b031690890152606080820151908901526080808201519089015260a0908101519088015260c09096019590820190600101614f57565b509495945050505050565b6000815180845260208085019450808401835b83811015614fb257614fe3878351615234565b6080969096019590820190600101614fd0565b6000815180845260208085019450808401835b83811015614fb25781518051600d811061501f57fe5b88528084015184890152604080820151151590890152606080820151615047828b01826153e1565b505060808082015161505b828b01826150e9565b505060a08082015161506f828b01826150e9565b505060c0818101519089015260e090810151908801526101009096019590820190600101615009565b15159052565b60008151808452815b818110156150c3576020818501810151868301820152016150a7565b818111156150d45782602083870101525b50601f01601f19169290920160200192915050565b60020b9052565b80518252602090810151910152565b6151128261510d8354615ccd565b614f37565b60018101546001600160a01b0361512e60208501828416614f37565b6151436040850162ffffff8460a01c166153ee565b6151506002840154615ccd565b915061515f6060850183614f37565b61516c6003840154615ccd565b915061517b6080850183614f37565b6004830154915061519160a08501828416614f37565b506151a560c0840160ff8360a01c16615098565b50600581015460e08301526151c1610100830160068301615210565b6151d26101808301600a8301615210565b600e810154610200830152600f015461022090910152565b805182526020810151602083015260408101516040830152606081015160608301525050565b80548252600181015460208301526002810154604083015260030154606090910152565b8051151582526001600160801b036020820151166020830152604081015160020b6040830152606081015160020b60608301525050565b600060c08301825184526020808401518186015260408401516040860152606084015160608601526080808501518187015260a085015160c060a088015283815180865260e08901915084830195508692505b808310156152e5576152d1828751615234565b9484019460019290920191908301906152be565b50979650505050505050565b805182526020808201516001600160a01b031681840152604080830151908401526060808301519084015260808083015160a0918501829052805191850182905260009290810191839060c08701905b808310156153615784518252938301936001929092019190830190615341565b509695505050505050565b600060a0830182548452600180600160a01b03818501541660208181880152600286015460408801526003860154606088015260048601915060a0608088015283825480865260c08901915083875282872095508693505b808410156152e557855482529484019492840192908201906153c4565b6001600160801b03169052565b62ffffff169052565b600292830b60e890811b82529190920b901b600382015260060190565b6001600160a01b0391909116815260200190565b6001600160a01b03929092168252602082015260400190565b60208082528251828201819052600091906040908185019080840286018301878501865b838110156145d357888303603f1901855281518051845287810151888501528681015187850152606080820151908501526080808201519085015260a09081015160c0918501829052906154bb81860183614fbd565b968901969450505090860190600101615465565b6000608082016080835280875180835260a0850191506020925060a0838202860101838a01855b8381101561552457609f1988840301855261551283835161526b565b948601949250908501906001016154f6565b50509715159285019290925250505060408101929092526001600160a01b0316606090910152919050565b901515815260200190565b9515158652602086019490945260408501929092526001600160a01b03166060840152608083015260a082015260c00190565b60029190910b815260200190565b918252602082015260400190565b602080825260029082015261503360f01b604082015260600190565b6020808252600290820152610a0760f31b604082015260600190565b6020808252600b908201526a1a5b9a5d1a585b1a5e995960aa1b604082015260600190565b60208082526017908201527f63616c6c6572206d757374206265206f70657261746f72000000000000000000604082015260600190565b60208082526003908201526221a41960e91b604082015260600190565b602080825260029082015261281960f11b604082015260600190565b83815260c0810161568a6020830185615210565b8260a0830152949350505050565b60006102a06156a783886150ff565b806102408401526156ba818401876152f1565b6102608401959095525050610280015292915050565b61010081016156df82856151ea565b610ca460808301846151ea565b60006101208201905082518252602083015160020b6020830152604083015160020b6040830152606083015161572560608401826153e1565b506080830151608083015260a083015160a083015260c083015160c083015260e083015160e083015261010080840151818401525092915050565b60006020825282516020830152602083015160408301526040830151606083015260608301516080830152608083015160a083015260a083015160c083015260c083015160e080840152612588610100840182614fbd565b6000606082526157cb606083018661526b565b9315156020830152506001600160a01b0391909116604090910152919050565b60006020825282516020830152602083015161580a6040840182615098565b506040830151606083015260608301516080830152608083015160a083015260a083015160c083015260c083015161584560e08401826150f0565b5060e08301516158596101208401826150f0565b5061010083015161016083810152612588610180840182614f44565b6020808252825182820152828101516040808401919091528084015160608085019190915280850151608080860152805160a08601819052600094939184019285929160c08801905b8085101561593f578551805180518452888101518985015285015185840152878101516158ed858501826151ea565b5080850151805160e085015288810151610100850152808601516101208501528401516101408401528301516159276101608401826151ea565b506101e08201915086860195506001850194506158be565b5098975050505050505050565b6000602080835260c0830184518285015260018060a01b03828601511660408501526040850151606085015260608501516080850152608085015160a08086015281815180845260e08701915084830193508592505b8083101561536157835182529284019260019290920191908401906159a2565b60006102a08083526159d6818401886152f1565b91505084602083015283604083015261317a60608301846150ff565b600060e08252615a0560e083018a6152f1565b8860208401528760408401528660608401528281036080840152615a298187614ff6565b60a084019590955250506001600160a01b039190911660c09091015295945050505050565b60006102c0808352615a62818401896152f1565b915050856020830152846040830152615a7e60608301856150ff565b6001600160a01b03929092166102a09190910152949350505050565b60006102a0808352615aae8184018861536c565b915050846020830152615ac460408301856150ff565b8261028083015295945050505050565b600087825286602083015285604083015284606083015260c06080830152615aff60c0830185614ff6565b82810360a08401528351151581526020840151151560208201526040840151151560408201526060840151615b376060830182615098565b506080840151608082015260a084015160a082015260c084015160e060c08301526132b660e083018261509e565b600086825285602083015260a06040830152615b8460a0830186614ff6565b606083019490945250608001529392505050565b600087825286602083015285604083015284606083015260c06080830152615bc360c0830185614ff6565b90508260a0830152979650505050505050565b90815260200190565b9182526001600160a01b0316602082015260400190565b9283526020830191909152604082015260600190565b600086825285602083015284604083015260018060a01b038416606083015260a06080830152615c3f60a083018461509e565b979650505050505050565b93845260208401929092526040830152606082015260800190565b958652602086019490945260408501929092526060840152608083015260a082015260c00190565b6040518181016001600160401b0381118282101715615ca857fe5b604052919050565b60006001600160401b03821115615cc357fe5b5060209081020190565b6001600160a01b031690565b6001600160a01b0381168114611f5157600080fd5b8015158114611f5157600080fd5b600d8110611f5157600080fd5b8060020b8114611f5157600080fd5b6001600160801b0381168114611f5157600080fd5b62ffffff81168114611f5157600080fdfe496e697469616c697a61626c653a20636f6e747261637420697320616c726561647920696e697469616c697a6564a2646970667358221220e5d58f0cafab689197fd7c38c7ff72f47f498ebe65d3c93b20a39be5f53d87d364736f6c63430007060033",
  "libraries": {
    "LiquidationLogic": "0x2f1400f646bf2338A72106980f238932D3ACCeF1",
    "PositionUpdater": "0x0fA8669E0C435bD0d293C1C23294CDc5B8Ce2c9d",
    "VaultLib": "0x6aD4F22668b28040f202aA944771FC1f09C0CD6F",
    "PositionLib": "0xAc2301DA8eE2b46FF8bA8df24bF222e939058CA4",
    "InterestCalculator": "0xfBEB0b6998AEfc36CaAa94C28510D1abDe98872C"
  },
  "devdoc": {
    "kind": "dev",
    "methods": {
      "checkLiquidatable(uint256)": {
        "params": {
          "_vaultId": "vault id"
        }
      },
      "forceClose(bytes[])": {
        "params": {
          "_data": "vaults data to close position"
        }
      },
      "getVaultStatus(uint256)": {
        "params": {
          "_vaultId": "vault id"
        }
      },
      "updatePosition(uint256,(uint8,uint256,bool,uint128,int24,int24,uint256,uint256)[],(bool,bool,bool,bool,int256,int256,bytes))": {
        "params": {
          "_positionUpdates": "parameters to update position",
          "_vaultId": "vault id"
        }
      }
    },
    "version": 1
  },
  "userdoc": {
    "kind": "user",
    "methods": {
      "checkLiquidatable(uint256)": {
        "notice": "Returns the flag whether a vault can be liquidated or not."
      },
      "closePosition(uint256,(uint256,uint256,uint256,uint256,uint256,(bool,uint128,int24,int24)[])[],(bool,bool,bool,bool,int256,int256,bytes),(uint256,uint256,uint256))": {
        "notice": "Closes position partially."
      },
      "closeSubVault(uint256,uint256,(bool,bool,bool,bool,int256,int256,bytes),(uint256,uint256,uint256))": {
        "notice": "Closes all positions in sub-vault."
      },
      "closeVault(uint256,(bool,bool,bool,bool,int256,int256,bytes),(uint256,uint256,uint256))": {
        "notice": "Closes all positions in a vault."
      },
      "forceClose(bytes[])": {
        "notice": "Contract owner can close positions"
      },
      "getSqrtPrice()": {
        "notice": "Gets square root of current underlying token price by quote token."
      },
      "getVaultStatus(uint256)": {
        "notice": "Returns collateral value and debt value."
      },
      "liquidate(uint256,(uint256,uint256,uint256,bool))": {
        "notice": "Liquidates a vault."
      },
      "openPosition(uint256,(uint256,uint256,uint256,uint256,uint256,(bool,uint128,int24,int24)[]),(bool,bool,bool,bool,int256,int256,bytes),(uint256,uint256))": {
        "notice": "Opens new position."
      },
      "updatePosition(uint256,(uint8,uint256,bool,uint128,int24,int24,uint256,uint256)[],(bool,bool,bool,bool,int256,int256,bytes))": {
        "notice": "Update position in a vault."
      }
    },
    "version": 1
  },
  "storageLayout": {
    "storage": [
      {
        "astId": 9065,
        "contract": "src/ControllerHelper.sol:ControllerHelper",
        "label": "_initialized",
        "offset": 0,
        "slot": "0",
        "type": "t_bool"
      },
      {
        "astId": 9068,
        "contract": "src/ControllerHelper.sol:ControllerHelper",
        "label": "_initializing",
        "offset": 1,
        "slot": "0",
        "type": "t_bool"
      },
      {
        "astId": 12341,
        "contract": "src/ControllerHelper.sol:ControllerHelper",
        "label": "lastTouchedTimestamp",
        "offset": 0,
        "slot": "1",
        "type": "t_uint256"
      },
      {
        "astId": 12345,
        "contract": "src/ControllerHelper.sol:ControllerHelper",
        "label": "ranges",
        "offset": 0,
        "slot": "2",
        "type": "t_mapping(t_bytes32,t_struct(PerpStatus)14508_storage)"
      },
      {
        "astId": 12347,
        "contract": "src/ControllerHelper.sol:ControllerHelper",
        "label": "vaultIdCount",
        "offset": 0,
        "slot": "3",
        "type": "t_uint256"
      },
      {
        "astId": 12351,
        "contract": "src/ControllerHelper.sol:ControllerHelper",
        "label": "vaults",
        "offset": 0,
        "slot": "4",
        "type": "t_mapping(t_uint256,t_struct(Vault)14553_storage)"
      },
      {
        "astId": 12355,
        "contract": "src/ControllerHelper.sol:ControllerHelper",
        "label": "subVaults",
        "offset": 0,
        "slot": "5",
        "type": "t_mapping(t_uint256,t_struct(SubVault)14541_storage)"
      },
      {
        "astId": 12357,
        "contract": "src/ControllerHelper.sol:ControllerHelper",
        "label": "context",
        "offset": 0,
        "slot": "6",
        "type": "t_struct(Context)14578_storage"
      },
      {
        "astId": 12359,
        "contract": "src/ControllerHelper.sol:ControllerHelper",
        "label": "irmParams",
        "offset": 0,
        "slot": "22",
        "type": "t_struct(IRMParams)14787_storage"
      },
      {
        "astId": 12361,
        "contract": "src/ControllerHelper.sol:ControllerHelper",
        "label": "ypParams",
        "offset": 0,
        "slot": "26",
        "type": "t_struct(YearlyPremiumParams)14778_storage"
      },
      {
        "astId": 12363,
        "contract": "src/ControllerHelper.sol:ControllerHelper",
        "label": "operator",
        "offset": 0,
        "slot": "35",
        "type": "t_address"
      }
    ],
    "types": {
      "t_address": {
        "encoding": "inplace",
        "label": "address",
        "numberOfBytes": "20"
      },
      "t_array(t_struct(LPTState)14521_storage)dyn_storage": {
        "base": "t_struct(LPTState)14521_storage",
        "encoding": "dynamic_array",
        "label": "struct DataType.LPTState[]",
        "numberOfBytes": "32"
      },
      "t_array(t_uint256)dyn_storage": {
        "base": "t_uint256",
        "encoding": "dynamic_array",
        "label": "uint256[]",
        "numberOfBytes": "32"
      },
      "t_bool": {
        "encoding": "inplace",
        "label": "bool",
        "numberOfBytes": "1"
      },
      "t_bytes32": {
        "encoding": "inplace",
        "label": "bytes32",
        "numberOfBytes": "32"
      },
      "t_int24": {
        "encoding": "inplace",
        "label": "int24",
        "numberOfBytes": "3"
      },
      "t_mapping(t_bytes32,t_struct(PerpStatus)14508_storage)": {
        "encoding": "mapping",
        "key": "t_bytes32",
        "label": "mapping(bytes32 => struct DataType.PerpStatus)",
        "numberOfBytes": "32",
        "value": "t_struct(PerpStatus)14508_storage"
      },
      "t_mapping(t_bytes32,t_struct(TickSnapshot)14764_storage)": {
        "encoding": "mapping",
        "key": "t_bytes32",
        "label": "mapping(bytes32 => struct InterestCalculator.TickSnapshot)",
        "numberOfBytes": "32",
        "value": "t_struct(TickSnapshot)14764_storage"
      },
      "t_mapping(t_uint256,t_struct(SubVault)14541_storage)": {
        "encoding": "mapping",
        "key": "t_uint256",
        "label": "mapping(uint256 => struct DataType.SubVault)",
        "numberOfBytes": "32",
        "value": "t_struct(SubVault)14541_storage"
      },
      "t_mapping(t_uint256,t_struct(Vault)14553_storage)": {
        "encoding": "mapping",
        "key": "t_uint256",
        "label": "mapping(uint256 => struct DataType.Vault)",
        "numberOfBytes": "32",
        "value": "t_struct(Vault)14553_storage"
      },
      "t_struct(AccountState)13888_storage": {
        "encoding": "inplace",
        "label": "struct BaseToken.AccountState",
        "members": [
          {
            "astId": 13885,
            "contract": "src/ControllerHelper.sol:ControllerHelper",
            "label": "collateralAmount",
            "offset": 0,
            "slot": "0",
            "type": "t_uint256"
          },
          {
            "astId": 13887,
            "contract": "src/ControllerHelper.sol:ControllerHelper",
            "label": "debtAmount",
            "offset": 0,
            "slot": "1",
            "type": "t_uint256"
          }
        ],
        "numberOfBytes": "64"
      },
      "t_struct(Context)14578_storage": {
        "encoding": "inplace",
        "label": "struct DataType.Context",
        "members": [
          {
            "astId": 14555,
            "contract": "src/ControllerHelper.sol:ControllerHelper",
            "label": "token0",
            "offset": 0,
            "slot": "0",
            "type": "t_address"
          },
          {
            "astId": 14557,
            "contract": "src/ControllerHelper.sol:ControllerHelper",
            "label": "token1",
            "offset": 0,
            "slot": "1",
            "type": "t_address"
          },
          {
            "astId": 14559,
            "contract": "src/ControllerHelper.sol:ControllerHelper",
            "label": "feeTier",
            "offset": 20,
            "slot": "1",
            "type": "t_uint24"
          },
          {
            "astId": 14561,
            "contract": "src/ControllerHelper.sol:ControllerHelper",
            "label": "positionManager",
            "offset": 0,
            "slot": "2",
            "type": "t_address"
          },
          {
            "astId": 14563,
            "contract": "src/ControllerHelper.sol:ControllerHelper",
            "label": "swapRouter",
            "offset": 0,
            "slot": "3",
            "type": "t_address"
          },
          {
            "astId": 14565,
            "contract": "src/ControllerHelper.sol:ControllerHelper",
            "label": "uniswapPool",
            "offset": 0,
            "slot": "4",
            "type": "t_address"
          },
          {
            "astId": 14567,
            "contract": "src/ControllerHelper.sol:ControllerHelper",
            "label": "isMarginZero",
            "offset": 20,
            "slot": "4",
            "type": "t_bool"
          },
          {
            "astId": 14569,
            "contract": "src/ControllerHelper.sol:ControllerHelper",
            "label": "nextSubVaultId",
            "offset": 0,
            "slot": "5",
            "type": "t_uint256"
          },
          {
            "astId": 14571,
            "contract": "src/ControllerHelper.sol:ControllerHelper",
            "label": "tokenState0",
            "offset": 0,
            "slot": "6",
            "type": "t_struct(TokenState)13883_storage"
          },
          {
            "astId": 14573,
            "contract": "src/ControllerHelper.sol:ControllerHelper",
            "label": "tokenState1",
            "offset": 0,
            "slot": "10",
            "type": "t_struct(TokenState)13883_storage"
          },
          {
            "astId": 14575,
            "contract": "src/ControllerHelper.sol:ControllerHelper",
            "label": "accumuratedProtocolFee0",
            "offset": 0,
            "slot": "14",
            "type": "t_uint256"
          },
          {
            "astId": 14577,
            "contract": "src/ControllerHelper.sol:ControllerHelper",
            "label": "accumuratedProtocolFee1",
            "offset": 0,
            "slot": "15",
            "type": "t_uint256"
          }
        ],
        "numberOfBytes": "512"
      },
      "t_struct(IRMParams)14787_storage": {
        "encoding": "inplace",
        "label": "struct InterestCalculator.IRMParams",
        "members": [
          {
            "astId": 14780,
            "contract": "src/ControllerHelper.sol:ControllerHelper",
            "label": "baseRate",
            "offset": 0,
            "slot": "0",
            "type": "t_uint256"
          },
          {
            "astId": 14782,
            "contract": "src/ControllerHelper.sol:ControllerHelper",
            "label": "kinkRate",
            "offset": 0,
            "slot": "1",
            "type": "t_uint256"
          },
          {
            "astId": 14784,
            "contract": "src/ControllerHelper.sol:ControllerHelper",
            "label": "slope1",
            "offset": 0,
            "slot": "2",
            "type": "t_uint256"
          },
          {
            "astId": 14786,
            "contract": "src/ControllerHelper.sol:ControllerHelper",
            "label": "slope2",
            "offset": 0,
            "slot": "3",
            "type": "t_uint256"
          }
        ],
        "numberOfBytes": "128"
      },
      "t_struct(LPTState)14521_storage": {
        "encoding": "inplace",
        "label": "struct DataType.LPTState",
        "members": [
          {
            "astId": 14510,
            "contract": "src/ControllerHelper.sol:ControllerHelper",
            "label": "isCollateral",
            "offset": 0,
            "slot": "0",
            "type": "t_bool"
          },
          {
            "astId": 14512,
            "contract": "src/ControllerHelper.sol:ControllerHelper",
            "label": "rangeId",
            "offset": 0,
            "slot": "1",
            "type": "t_bytes32"
          },
          {
            "astId": 14514,
            "contract": "src/ControllerHelper.sol:ControllerHelper",
            "label": "liquidityAmount",
            "offset": 0,
            "slot": "2",
            "type": "t_uint128"
          },
          {
            "astId": 14516,
            "contract": "src/ControllerHelper.sol:ControllerHelper",
            "label": "premiumGrowthLast",
            "offset": 0,
            "slot": "3",
            "type": "t_uint256"
          },
          {
            "astId": 14518,
            "contract": "src/ControllerHelper.sol:ControllerHelper",
            "label": "fee0Last",
            "offset": 0,
            "slot": "4",
            "type": "t_uint256"
          },
          {
            "astId": 14520,
            "contract": "src/ControllerHelper.sol:ControllerHelper",
            "label": "fee1Last",
            "offset": 0,
            "slot": "5",
            "type": "t_uint256"
          }
        ],
        "numberOfBytes": "192"
      },
      "t_struct(PerpStatus)14508_storage": {
        "encoding": "inplace",
        "label": "struct DataType.PerpStatus",
        "members": [
          {
            "astId": 14491,
            "contract": "src/ControllerHelper.sol:ControllerHelper",
            "label": "tokenId",
            "offset": 0,
            "slot": "0",
            "type": "t_uint256"
          },
          {
            "astId": 14493,
            "contract": "src/ControllerHelper.sol:ControllerHelper",
            "label": "lowerTick",
            "offset": 0,
            "slot": "1",
            "type": "t_int24"
          },
          {
            "astId": 14495,
            "contract": "src/ControllerHelper.sol:ControllerHelper",
            "label": "upperTick",
            "offset": 3,
            "slot": "1",
            "type": "t_int24"
          },
          {
            "astId": 14497,
            "contract": "src/ControllerHelper.sol:ControllerHelper",
            "label": "borrowedLiquidity",
            "offset": 6,
            "slot": "1",
            "type": "t_uint128"
          },
          {
            "astId": 14499,
            "contract": "src/ControllerHelper.sol:ControllerHelper",
            "label": "premiumGrowthForBorrower",
            "offset": 0,
            "slot": "2",
            "type": "t_uint256"
          },
          {
            "astId": 14501,
            "contract": "src/ControllerHelper.sol:ControllerHelper",
            "label": "premiumGrowthForLender",
            "offset": 0,
            "slot": "3",
            "type": "t_uint256"
          },
          {
            "astId": 14503,
            "contract": "src/ControllerHelper.sol:ControllerHelper",
            "label": "fee0Growth",
            "offset": 0,
            "slot": "4",
            "type": "t_uint256"
          },
          {
            "astId": 14505,
            "contract": "src/ControllerHelper.sol:ControllerHelper",
            "label": "fee1Growth",
            "offset": 0,
            "slot": "5",
            "type": "t_uint256"
          },
          {
            "astId": 14507,
            "contract": "src/ControllerHelper.sol:ControllerHelper",
            "label": "lastTouchedTimestamp",
            "offset": 0,
            "slot": "6",
            "type": "t_uint256"
          }
        ],
        "numberOfBytes": "224"
      },
      "t_struct(SubVault)14541_storage": {
        "encoding": "inplace",
        "label": "struct DataType.SubVault",
        "members": [
          {
            "astId": 14523,
            "contract": "src/ControllerHelper.sol:ControllerHelper",
            "label": "id",
            "offset": 0,
            "slot": "0",
            "type": "t_uint256"
          },
          {
            "astId": 14525,
            "contract": "src/ControllerHelper.sol:ControllerHelper",
            "label": "isCompound",
            "offset": 0,
            "slot": "1",
            "type": "t_bool"
          },
          {
            "astId": 14527,
            "contract": "src/ControllerHelper.sol:ControllerHelper",
            "label": "collateralAmount0",
            "offset": 0,
            "slot": "2",
            "type": "t_uint256"
          },
          {
            "astId": 14529,
            "contract": "src/ControllerHelper.sol:ControllerHelper",
            "label": "collateralAmount1",
            "offset": 0,
            "slot": "3",
            "type": "t_uint256"
          },
          {
            "astId": 14531,
            "contract": "src/ControllerHelper.sol:ControllerHelper",
            "label": "debtAmount0",
            "offset": 0,
            "slot": "4",
            "type": "t_uint256"
          },
          {
            "astId": 14533,
            "contract": "src/ControllerHelper.sol:ControllerHelper",
            "label": "debtAmount1",
            "offset": 0,
            "slot": "5",
            "type": "t_uint256"
          },
          {
            "astId": 14535,
            "contract": "src/ControllerHelper.sol:ControllerHelper",
            "label": "balance0",
            "offset": 0,
            "slot": "6",
            "type": "t_struct(AccountState)13888_storage"
          },
          {
            "astId": 14537,
            "contract": "src/ControllerHelper.sol:ControllerHelper",
            "label": "balance1",
            "offset": 0,
            "slot": "8",
            "type": "t_struct(AccountState)13888_storage"
          },
          {
            "astId": 14540,
            "contract": "src/ControllerHelper.sol:ControllerHelper",
            "label": "lpts",
            "offset": 0,
            "slot": "10",
            "type": "t_array(t_struct(LPTState)14521_storage)dyn_storage"
          }
        ],
        "numberOfBytes": "352"
      },
      "t_struct(TickSnapshot)14764_storage": {
        "encoding": "inplace",
        "label": "struct InterestCalculator.TickSnapshot",
        "members": [
          {
            "astId": 14757,
            "contract": "src/ControllerHelper.sol:ControllerHelper",
            "label": "lastFeeGrowthInside0X128",
            "offset": 0,
            "slot": "0",
            "type": "t_uint256"
          },
          {
            "astId": 14759,
            "contract": "src/ControllerHelper.sol:ControllerHelper",
            "label": "lastFeeGrowthInside1X128",
            "offset": 0,
            "slot": "1",
            "type": "t_uint256"
          },
          {
            "astId": 14761,
            "contract": "src/ControllerHelper.sol:ControllerHelper",
            "label": "lastFeeGrowthGlobal0X128",
            "offset": 0,
            "slot": "2",
            "type": "t_uint256"
          },
          {
            "astId": 14763,
            "contract": "src/ControllerHelper.sol:ControllerHelper",
            "label": "lastFeeGrowthGlobal1X128",
            "offset": 0,
            "slot": "3",
            "type": "t_uint256"
          }
        ],
        "numberOfBytes": "128"
      },
      "t_struct(TokenState)13883_storage": {
        "encoding": "inplace",
        "label": "struct BaseToken.TokenState",
        "members": [
          {
            "astId": 13876,
            "contract": "src/ControllerHelper.sol:ControllerHelper",
            "label": "totalDeposited",
            "offset": 0,
            "slot": "0",
            "type": "t_uint256"
          },
          {
            "astId": 13878,
            "contract": "src/ControllerHelper.sol:ControllerHelper",
            "label": "totalBorrowed",
            "offset": 0,
            "slot": "1",
            "type": "t_uint256"
          },
          {
            "astId": 13880,
            "contract": "src/ControllerHelper.sol:ControllerHelper",
            "label": "collateralScaler",
            "offset": 0,
            "slot": "2",
            "type": "t_uint256"
          },
          {
            "astId": 13882,
            "contract": "src/ControllerHelper.sol:ControllerHelper",
            "label": "debtScaler",
            "offset": 0,
            "slot": "3",
            "type": "t_uint256"
          }
        ],
        "numberOfBytes": "128"
      },
      "t_struct(Vault)14553_storage": {
        "encoding": "inplace",
        "label": "struct DataType.Vault",
        "members": [
          {
            "astId": 14543,
            "contract": "src/ControllerHelper.sol:ControllerHelper",
            "label": "vaultId",
            "offset": 0,
            "slot": "0",
            "type": "t_uint256"
          },
          {
            "astId": 14545,
            "contract": "src/ControllerHelper.sol:ControllerHelper",
            "label": "owner",
            "offset": 0,
            "slot": "1",
            "type": "t_address"
          },
          {
            "astId": 14547,
            "contract": "src/ControllerHelper.sol:ControllerHelper",
            "label": "marginAmount0",
            "offset": 0,
            "slot": "2",
            "type": "t_uint256"
          },
          {
            "astId": 14549,
            "contract": "src/ControllerHelper.sol:ControllerHelper",
            "label": "marginAmount1",
            "offset": 0,
            "slot": "3",
            "type": "t_uint256"
          },
          {
            "astId": 14552,
            "contract": "src/ControllerHelper.sol:ControllerHelper",
            "label": "subVaults",
            "offset": 0,
            "slot": "4",
            "type": "t_array(t_uint256)dyn_storage"
          }
        ],
        "numberOfBytes": "160"
      },
      "t_struct(YearlyPremiumParams)14778_storage": {
        "encoding": "inplace",
        "label": "struct InterestCalculator.YearlyPremiumParams",
        "members": [
          {
            "astId": 14771,
            "contract": "src/ControllerHelper.sol:ControllerHelper",
            "label": "premiumParams",
            "offset": 0,
            "slot": "0",
            "type": "t_struct(IRMParams)14787_storage"
          },
          {
            "astId": 14773,
            "contract": "src/ControllerHelper.sol:ControllerHelper",
            "label": "irmParams",
            "offset": 0,
            "slot": "4",
            "type": "t_struct(IRMParams)14787_storage"
          },
          {
            "astId": 14777,
            "contract": "src/ControllerHelper.sol:ControllerHelper",
            "label": "snapshots",
            "offset": 0,
            "slot": "8",
            "type": "t_mapping(t_bytes32,t_struct(TickSnapshot)14764_storage)"
          }
        ],
        "numberOfBytes": "288"
      },
      "t_uint128": {
        "encoding": "inplace",
        "label": "uint128",
        "numberOfBytes": "16"
      },
      "t_uint24": {
        "encoding": "inplace",
        "label": "uint24",
        "numberOfBytes": "3"
      },
      "t_uint256": {
        "encoding": "inplace",
        "label": "uint256",
        "numberOfBytes": "32"
      }
    }
  }
}