{
  "address": "0x80f5D1C65dF0e252A29f37806800553caa53fE12",
  "abi": [
    {
      "inputs": [],
      "stateMutability": "nonpayable",
      "type": "constructor"
    },
    {
      "anonymous": false,
      "inputs": [
        {
          "indexed": false,
          "internalType": "address",
          "name": "operator",
          "type": "address"
        }
      ],
      "name": "OperatorUpdated",
      "type": "event"
    },
    {
      "anonymous": false,
      "inputs": [
        {
          "indexed": false,
          "internalType": "uint256",
          "name": "vaultId",
          "type": "uint256"
        },
        {
          "indexed": false,
          "internalType": "address",
          "name": "owner",
          "type": "address"
        }
      ],
      "name": "VaultCreated",
      "type": "event"
    },
    {
      "inputs": [
        {
          "internalType": "bytes32",
          "name": "_rangeId",
          "type": "bytes32"
        },
        {
          "internalType": "uint256",
          "name": "_utilizationRatio",
          "type": "uint256"
        }
      ],
      "name": "calculateYearlyPremium",
      "outputs": [
        {
          "internalType": "uint256",
          "name": "",
          "type": "uint256"
        }
      ],
      "stateMutability": "view",
      "type": "function"
    },
    {
      "inputs": [
        {
          "internalType": "uint256",
          "name": "_vaultId",
          "type": "uint256"
        }
      ],
      "name": "checkLiquidatable",
      "outputs": [
        {
          "internalType": "bool",
          "name": "",
          "type": "bool"
        }
      ],
      "stateMutability": "nonpayable",
      "type": "function"
    },
    {
      "inputs": [
        {
          "internalType": "uint256",
          "name": "_vaultId",
          "type": "uint256"
        },
        {
          "components": [
            {
              "internalType": "uint256",
              "name": "subVaultIndex",
              "type": "uint256"
            },
            {
              "internalType": "uint256",
              "name": "asset0",
              "type": "uint256"
            },
            {
              "internalType": "uint256",
              "name": "asset1",
              "type": "uint256"
            },
            {
              "internalType": "uint256",
              "name": "debt0",
              "type": "uint256"
            },
            {
              "internalType": "uint256",
              "name": "debt1",
              "type": "uint256"
            },
            {
              "components": [
                {
                  "internalType": "bool",
                  "name": "isCollateral",
                  "type": "bool"
                },
                {
                  "internalType": "uint128",
                  "name": "liquidity",
                  "type": "uint128"
                },
                {
                  "internalType": "int24",
                  "name": "lowerTick",
                  "type": "int24"
                },
                {
                  "internalType": "int24",
                  "name": "upperTick",
                  "type": "int24"
                }
              ],
              "internalType": "struct DataType.LPT[]",
              "name": "lpts",
              "type": "tuple[]"
            }
          ],
          "internalType": "struct DataType.Position[]",
          "name": "_positions",
          "type": "tuple[]"
        },
        {
          "components": [
            {
              "internalType": "bool",
              "name": "isLiquidationCall",
              "type": "bool"
            },
            {
              "internalType": "bool",
              "name": "swapAnyway",
              "type": "bool"
            },
            {
              "internalType": "bool",
              "name": "quoterMode",
              "type": "bool"
            },
            {
              "internalType": "bool",
              "name": "isQuoteZero",
              "type": "bool"
            },
            {
              "internalType": "int256",
              "name": "targetMarginAmount0",
              "type": "int256"
            },
            {
              "internalType": "int256",
              "name": "targetMarginAmount1",
              "type": "int256"
            },
            {
              "internalType": "bytes",
              "name": "metadata",
              "type": "bytes"
            }
          ],
          "internalType": "struct DataType.TradeOption",
          "name": "_tradeOption",
          "type": "tuple"
        },
        {
          "components": [
            {
              "internalType": "uint256",
              "name": "lowerSqrtPrice",
              "type": "uint256"
            },
            {
              "internalType": "uint256",
              "name": "upperSqrtPrice",
              "type": "uint256"
            },
            {
              "internalType": "uint256",
              "name": "swapRatio",
              "type": "uint256"
            },
            {
              "internalType": "uint256",
              "name": "closeRatio",
              "type": "uint256"
            },
            {
              "internalType": "uint256",
              "name": "deadline",
              "type": "uint256"
            }
          ],
          "internalType": "struct DataType.ClosePositionOption",
          "name": "_closePositionOptions",
          "type": "tuple"
        }
      ],
      "name": "closePosition",
      "outputs": [
        {
          "components": [
            {
              "internalType": "int256",
              "name": "amount0",
              "type": "int256"
            },
            {
              "internalType": "int256",
              "name": "amount1",
              "type": "int256"
            }
          ],
          "internalType": "struct DataType.TokenAmounts",
          "name": "requiredAmounts",
          "type": "tuple"
        },
        {
          "components": [
            {
              "internalType": "int256",
              "name": "amount0",
              "type": "int256"
            },
            {
              "internalType": "int256",
              "name": "amount1",
              "type": "int256"
            }
          ],
          "internalType": "struct DataType.TokenAmounts",
          "name": "swapAmounts",
          "type": "tuple"
        }
      ],
      "stateMutability": "nonpayable",
      "type": "function"
    },
    {
      "inputs": [
        {
          "internalType": "uint256",
          "name": "_vaultId",
          "type": "uint256"
        },
        {
          "internalType": "uint256",
          "name": "_subVaultIndex",
          "type": "uint256"
        },
        {
          "components": [
            {
              "internalType": "bool",
              "name": "isLiquidationCall",
              "type": "bool"
            },
            {
              "internalType": "bool",
              "name": "swapAnyway",
              "type": "bool"
            },
            {
              "internalType": "bool",
              "name": "quoterMode",
              "type": "bool"
            },
            {
              "internalType": "bool",
              "name": "isQuoteZero",
              "type": "bool"
            },
            {
              "internalType": "int256",
              "name": "targetMarginAmount0",
              "type": "int256"
            },
            {
              "internalType": "int256",
              "name": "targetMarginAmount1",
              "type": "int256"
            },
            {
              "internalType": "bytes",
              "name": "metadata",
              "type": "bytes"
            }
          ],
          "internalType": "struct DataType.TradeOption",
          "name": "_tradeOption",
          "type": "tuple"
        },
        {
          "components": [
            {
              "internalType": "uint256",
              "name": "lowerSqrtPrice",
              "type": "uint256"
            },
            {
              "internalType": "uint256",
              "name": "upperSqrtPrice",
              "type": "uint256"
            },
            {
              "internalType": "uint256",
              "name": "swapRatio",
              "type": "uint256"
            },
            {
              "internalType": "uint256",
              "name": "closeRatio",
              "type": "uint256"
            },
            {
              "internalType": "uint256",
              "name": "deadline",
              "type": "uint256"
            }
          ],
          "internalType": "struct DataType.ClosePositionOption",
          "name": "_closePositionOptions",
          "type": "tuple"
        }
      ],
      "name": "closeSubVault",
      "outputs": [
        {
          "components": [
            {
              "internalType": "int256",
              "name": "amount0",
              "type": "int256"
            },
            {
              "internalType": "int256",
              "name": "amount1",
              "type": "int256"
            }
          ],
          "internalType": "struct DataType.TokenAmounts",
          "name": "requiredAmounts",
          "type": "tuple"
        },
        {
          "components": [
            {
              "internalType": "int256",
              "name": "amount0",
              "type": "int256"
            },
            {
              "internalType": "int256",
              "name": "amount1",
              "type": "int256"
            }
          ],
          "internalType": "struct DataType.TokenAmounts",
          "name": "swapAmounts",
          "type": "tuple"
        }
      ],
      "stateMutability": "nonpayable",
      "type": "function"
    },
    {
      "inputs": [
        {
          "internalType": "uint256",
          "name": "_vaultId",
          "type": "uint256"
        },
        {
          "components": [
            {
              "internalType": "bool",
              "name": "isLiquidationCall",
              "type": "bool"
            },
            {
              "internalType": "bool",
              "name": "swapAnyway",
              "type": "bool"
            },
            {
              "internalType": "bool",
              "name": "quoterMode",
              "type": "bool"
            },
            {
              "internalType": "bool",
              "name": "isQuoteZero",
              "type": "bool"
            },
            {
              "internalType": "int256",
              "name": "targetMarginAmount0",
              "type": "int256"
            },
            {
              "internalType": "int256",
              "name": "targetMarginAmount1",
              "type": "int256"
            },
            {
              "internalType": "bytes",
              "name": "metadata",
              "type": "bytes"
            }
          ],
          "internalType": "struct DataType.TradeOption",
          "name": "_tradeOption",
          "type": "tuple"
        },
        {
          "components": [
            {
              "internalType": "uint256",
              "name": "lowerSqrtPrice",
              "type": "uint256"
            },
            {
              "internalType": "uint256",
              "name": "upperSqrtPrice",
              "type": "uint256"
            },
            {
              "internalType": "uint256",
              "name": "swapRatio",
              "type": "uint256"
            },
            {
              "internalType": "uint256",
              "name": "closeRatio",
              "type": "uint256"
            },
            {
              "internalType": "uint256",
              "name": "deadline",
              "type": "uint256"
            }
          ],
          "internalType": "struct DataType.ClosePositionOption",
          "name": "_closePositionOptions",
          "type": "tuple"
        }
      ],
      "name": "closeVault",
      "outputs": [
        {
          "components": [
            {
              "internalType": "int256",
              "name": "amount0",
              "type": "int256"
            },
            {
              "internalType": "int256",
              "name": "amount1",
              "type": "int256"
            }
          ],
          "internalType": "struct DataType.TokenAmounts",
          "name": "requiredAmounts",
          "type": "tuple"
        },
        {
          "components": [
            {
              "internalType": "int256",
              "name": "amount0",
              "type": "int256"
            },
            {
              "internalType": "int256",
              "name": "amount1",
              "type": "int256"
            }
          ],
          "internalType": "struct DataType.TokenAmounts",
          "name": "swapAmounts",
          "type": "tuple"
        }
      ],
      "stateMutability": "nonpayable",
      "type": "function"
    },
    {
      "inputs": [],
      "name": "getContext",
      "outputs": [
        {
          "internalType": "bool",
          "name": "",
          "type": "bool"
        },
        {
          "internalType": "uint256",
          "name": "",
          "type": "uint256"
        },
        {
          "internalType": "address",
          "name": "",
          "type": "address"
        },
        {
          "internalType": "uint256",
          "name": "",
          "type": "uint256"
        },
        {
          "internalType": "uint256",
          "name": "",
          "type": "uint256"
        }
      ],
      "stateMutability": "view",
      "type": "function"
    },
    {
      "inputs": [
        {
          "internalType": "uint256",
          "name": "_vaultId",
          "type": "uint256"
        }
      ],
      "name": "getPosition",
      "outputs": [
        {
          "components": [
            {
              "internalType": "uint256",
              "name": "subVaultIndex",
              "type": "uint256"
            },
            {
              "internalType": "uint256",
              "name": "asset0",
              "type": "uint256"
            },
            {
              "internalType": "uint256",
              "name": "asset1",
              "type": "uint256"
            },
            {
              "internalType": "uint256",
              "name": "debt0",
              "type": "uint256"
            },
            {
              "internalType": "uint256",
              "name": "debt1",
              "type": "uint256"
            },
            {
              "components": [
                {
                  "internalType": "bool",
                  "name": "isCollateral",
                  "type": "bool"
                },
                {
                  "internalType": "uint128",
                  "name": "liquidity",
                  "type": "uint128"
                },
                {
                  "internalType": "int24",
                  "name": "lowerTick",
                  "type": "int24"
                },
                {
                  "internalType": "int24",
                  "name": "upperTick",
                  "type": "int24"
                }
              ],
              "internalType": "struct DataType.LPT[]",
              "name": "lpts",
              "type": "tuple[]"
            }
          ],
          "internalType": "struct DataType.Position[]",
          "name": "",
          "type": "tuple[]"
        }
      ],
      "stateMutability": "view",
      "type": "function"
    },
    {
      "inputs": [
        {
          "internalType": "uint256",
          "name": "_vaultId",
          "type": "uint256"
        }
      ],
      "name": "getPositionCalculatorParams",
      "outputs": [
        {
          "components": [
            {
              "internalType": "int256",
              "name": "marginAmount0",
              "type": "int256"
            },
            {
              "internalType": "int256",
              "name": "marginAmount1",
              "type": "int256"
            },
            {
              "internalType": "uint256",
              "name": "asset0",
              "type": "uint256"
            },
            {
              "internalType": "uint256",
              "name": "asset1",
              "type": "uint256"
            },
            {
              "internalType": "uint256",
              "name": "debt0",
              "type": "uint256"
            },
            {
              "internalType": "uint256",
              "name": "debt1",
              "type": "uint256"
            },
            {
              "components": [
                {
                  "internalType": "bool",
                  "name": "isCollateral",
                  "type": "bool"
                },
                {
                  "internalType": "uint128",
                  "name": "liquidity",
                  "type": "uint128"
                },
                {
                  "internalType": "int24",
                  "name": "lowerTick",
                  "type": "int24"
                },
                {
                  "internalType": "int24",
                  "name": "upperTick",
                  "type": "int24"
                }
              ],
              "internalType": "struct DataType.LPT[]",
              "name": "lpts",
              "type": "tuple[]"
            }
          ],
          "internalType": "struct PositionCalculator.PositionCalculatorParams",
          "name": "",
          "type": "tuple"
        }
      ],
      "stateMutability": "view",
      "type": "function"
    },
    {
      "inputs": [
        {
          "internalType": "bytes32",
          "name": "_rangeId",
          "type": "bytes32"
        }
      ],
      "name": "getRange",
      "outputs": [
        {
          "components": [
            {
              "internalType": "int24",
              "name": "lowerTick",
              "type": "int24"
            },
            {
              "internalType": "int24",
              "name": "upperTick",
              "type": "int24"
            },
            {
              "internalType": "uint128",
              "name": "borrowedLiquidity",
              "type": "uint128"
            },
            {
              "internalType": "uint256",
              "name": "premiumGrowthForBorrower",
              "type": "uint256"
            },
            {
              "internalType": "uint256",
              "name": "premiumGrowthForLender",
              "type": "uint256"
            },
            {
              "internalType": "uint256",
              "name": "fee0Growth",
              "type": "uint256"
            },
            {
              "internalType": "uint256",
              "name": "fee1Growth",
              "type": "uint256"
            },
            {
              "internalType": "uint256",
              "name": "lastTouchedTimestamp",
              "type": "uint256"
            }
          ],
          "internalType": "struct DataType.PerpStatus",
          "name": "",
          "type": "tuple"
        }
      ],
      "stateMutability": "view",
      "type": "function"
    },
    {
      "inputs": [],
      "name": "getSqrtIndexPrice",
      "outputs": [
        {
          "internalType": "uint160",
          "name": "",
          "type": "uint160"
        }
      ],
      "stateMutability": "view",
      "type": "function"
    },
    {
      "inputs": [],
      "name": "getSqrtPrice",
      "outputs": [
        {
          "internalType": "uint160",
          "name": "sqrtPriceX96",
          "type": "uint160"
        }
      ],
      "stateMutability": "view",
      "type": "function"
    },
    {
      "inputs": [
        {
          "internalType": "uint256",
          "name": "_subVaultId",
          "type": "uint256"
        }
      ],
      "name": "getSubVault",
      "outputs": [
        {
          "components": [
            {
              "internalType": "uint256",
              "name": "id",
              "type": "uint256"
            },
            {
              "components": [
                {
                  "internalType": "enum BaseToken.InterestType",
                  "name": "interestType",
                  "type": "uint8"
                },
                {
                  "internalType": "uint256",
                  "name": "assetAmount",
                  "type": "uint256"
                },
                {
                  "internalType": "uint256",
                  "name": "debtAmount",
                  "type": "uint256"
                },
                {
                  "internalType": "uint256",
                  "name": "lastAssetGrowth",
                  "type": "uint256"
                },
                {
                  "internalType": "uint256",
                  "name": "lastDebtGrowth",
                  "type": "uint256"
                }
              ],
              "internalType": "struct BaseToken.AccountState",
              "name": "balance0",
              "type": "tuple"
            },
            {
              "components": [
                {
                  "internalType": "enum BaseToken.InterestType",
                  "name": "interestType",
                  "type": "uint8"
                },
                {
                  "internalType": "uint256",
                  "name": "assetAmount",
                  "type": "uint256"
                },
                {
                  "internalType": "uint256",
                  "name": "debtAmount",
                  "type": "uint256"
                },
                {
                  "internalType": "uint256",
                  "name": "lastAssetGrowth",
                  "type": "uint256"
                },
                {
                  "internalType": "uint256",
                  "name": "lastDebtGrowth",
                  "type": "uint256"
                }
              ],
              "internalType": "struct BaseToken.AccountState",
              "name": "balance1",
              "type": "tuple"
            },
            {
              "components": [
                {
                  "internalType": "bool",
                  "name": "isCollateral",
                  "type": "bool"
                },
                {
                  "internalType": "bytes32",
                  "name": "rangeId",
                  "type": "bytes32"
                },
                {
                  "internalType": "uint128",
                  "name": "liquidityAmount",
                  "type": "uint128"
                },
                {
                  "internalType": "uint256",
                  "name": "premiumGrowthLast",
                  "type": "uint256"
                },
                {
                  "internalType": "uint256",
                  "name": "fee0Last",
                  "type": "uint256"
                },
                {
                  "internalType": "uint256",
                  "name": "fee1Last",
                  "type": "uint256"
                }
              ],
              "internalType": "struct DataType.LPTState[]",
              "name": "lpts",
              "type": "tuple[]"
            }
          ],
          "internalType": "struct DataType.SubVault",
          "name": "",
          "type": "tuple"
        }
      ],
      "stateMutability": "view",
      "type": "function"
    },
    {
      "inputs": [],
      "name": "getTokenState",
      "outputs": [
        {
          "components": [
            {
              "internalType": "uint256",
              "name": "totalCompoundDeposited",
              "type": "uint256"
            },
            {
              "internalType": "uint256",
              "name": "totalCompoundBorrowed",
              "type": "uint256"
            },
            {
              "internalType": "uint256",
              "name": "totalNormalDeposited",
              "type": "uint256"
            },
            {
              "internalType": "uint256",
              "name": "totalNormalBorrowed",
              "type": "uint256"
            },
            {
              "internalType": "uint256",
              "name": "assetScaler",
              "type": "uint256"
            },
            {
              "internalType": "uint256",
              "name": "debtScaler",
              "type": "uint256"
            },
            {
              "internalType": "uint256",
              "name": "assetGrowth",
              "type": "uint256"
            },
            {
              "internalType": "uint256",
              "name": "debtGrowth",
              "type": "uint256"
            }
          ],
          "internalType": "struct BaseToken.TokenState",
          "name": "",
          "type": "tuple"
        },
        {
          "components": [
            {
              "internalType": "uint256",
              "name": "totalCompoundDeposited",
              "type": "uint256"
            },
            {
              "internalType": "uint256",
              "name": "totalCompoundBorrowed",
              "type": "uint256"
            },
            {
              "internalType": "uint256",
              "name": "totalNormalDeposited",
              "type": "uint256"
            },
            {
              "internalType": "uint256",
              "name": "totalNormalBorrowed",
              "type": "uint256"
            },
            {
              "internalType": "uint256",
              "name": "assetScaler",
              "type": "uint256"
            },
            {
              "internalType": "uint256",
              "name": "debtScaler",
              "type": "uint256"
            },
            {
              "internalType": "uint256",
              "name": "assetGrowth",
              "type": "uint256"
            },
            {
              "internalType": "uint256",
              "name": "debtGrowth",
              "type": "uint256"
            }
          ],
          "internalType": "struct BaseToken.TokenState",
          "name": "",
          "type": "tuple"
        }
      ],
      "stateMutability": "view",
      "type": "function"
    },
    {
      "inputs": [
        {
          "internalType": "uint256",
          "name": "_vaultId",
          "type": "uint256"
        }
      ],
      "name": "getVault",
      "outputs": [
        {
          "components": [
            {
              "internalType": "uint256",
              "name": "vaultId",
              "type": "uint256"
            },
            {
              "internalType": "int256",
              "name": "marginAmount0",
              "type": "int256"
            },
            {
              "internalType": "int256",
              "name": "marginAmount1",
              "type": "int256"
            },
            {
              "internalType": "uint256[]",
              "name": "subVaults",
              "type": "uint256[]"
            }
          ],
          "internalType": "struct DataType.Vault",
          "name": "",
          "type": "tuple"
        }
      ],
      "stateMutability": "view",
      "type": "function"
    },
    {
      "inputs": [
        {
          "internalType": "uint256",
          "name": "_vaultId",
          "type": "uint256"
        },
        {
          "internalType": "uint160",
          "name": "_sqrtPriceX96",
          "type": "uint160"
        }
      ],
      "name": "getVaultStatus",
      "outputs": [
        {
          "components": [
            {
              "internalType": "int256",
              "name": "positionValue",
              "type": "int256"
            },
            {
              "internalType": "int256",
              "name": "marginValue",
              "type": "int256"
            },
            {
              "internalType": "int256",
              "name": "minCollateral",
              "type": "int256"
            },
            {
              "components": [
                {
                  "components": [
                    {
                      "internalType": "uint256",
                      "name": "assetValue",
                      "type": "uint256"
                    },
                    {
                      "internalType": "uint256",
                      "name": "debtValue",
                      "type": "uint256"
                    },
                    {
                      "internalType": "int256",
                      "name": "premiumValue",
                      "type": "int256"
                    }
                  ],
                  "internalType": "struct DataType.SubVaultValue",
                  "name": "values",
                  "type": "tuple"
                },
                {
                  "components": [
                    {
                      "internalType": "uint256",
                      "name": "assetAmount0",
                      "type": "uint256"
                    },
                    {
                      "internalType": "uint256",
                      "name": "assetAmount1",
                      "type": "uint256"
                    },
                    {
                      "internalType": "uint256",
                      "name": "debtAmount0",
                      "type": "uint256"
                    },
                    {
                      "internalType": "uint256",
                      "name": "debtAmount1",
                      "type": "uint256"
                    }
                  ],
                  "internalType": "struct DataType.SubVaultAmount",
                  "name": "amount",
                  "type": "tuple"
                },
                {
                  "components": [
                    {
                      "internalType": "int256",
                      "name": "assetFee0",
                      "type": "int256"
                    },
                    {
                      "internalType": "int256",
                      "name": "assetFee1",
                      "type": "int256"
                    },
                    {
                      "internalType": "int256",
                      "name": "debtFee0",
                      "type": "int256"
                    },
                    {
                      "internalType": "int256",
                      "name": "debtFee1",
                      "type": "int256"
                    }
                  ],
                  "internalType": "struct DataType.SubVaultInterest",
                  "name": "interest",
                  "type": "tuple"
                },
                {
                  "components": [
                    {
                      "internalType": "uint256",
                      "name": "receivedTradeAmount0",
                      "type": "uint256"
                    },
                    {
                      "internalType": "uint256",
                      "name": "receivedTradeAmount1",
                      "type": "uint256"
                    },
                    {
                      "internalType": "uint256",
                      "name": "receivedPremium",
                      "type": "uint256"
                    },
                    {
                      "internalType": "uint256",
                      "name": "paidPremium",
                      "type": "uint256"
                    }
                  ],
                  "internalType": "struct DataType.SubVaultPremium",
                  "name": "premium",
                  "type": "tuple"
                }
              ],
              "internalType": "struct DataType.SubVaultStatus[]",
              "name": "subVaults",
              "type": "tuple[]"
            }
          ],
          "internalType": "struct DataType.VaultStatus",
          "name": "",
          "type": "tuple"
        }
      ],
      "stateMutability": "nonpayable",
      "type": "function"
    },
    {
      "inputs": [
        {
          "internalType": "uint256",
          "name": "_vaultId",
          "type": "uint256"
        }
      ],
      "name": "getVaultValue",
      "outputs": [
        {
          "internalType": "int256",
          "name": "",
          "type": "int256"
        }
      ],
      "stateMutability": "view",
      "type": "function"
    },
    {
      "inputs": [
        {
          "components": [
            {
              "internalType": "uint24",
              "name": "feeTier",
              "type": "uint24"
            },
            {
              "internalType": "address",
              "name": "token0",
              "type": "address"
            },
            {
              "internalType": "address",
              "name": "token1",
              "type": "address"
            },
            {
              "internalType": "bool",
              "name": "isMarginZero",
              "type": "bool"
            }
          ],
          "internalType": "struct DataType.InitializationParams",
          "name": "_initializationParams",
          "type": "tuple"
        },
        {
          "internalType": "address",
          "name": "_factory",
          "type": "address"
        },
        {
          "internalType": "address",
          "name": "_swapRouter",
          "type": "address"
        },
        {
          "internalType": "address",
          "name": "_chainlinkPriceFeed",
          "type": "address"
        },
        {
          "internalType": "address",
          "name": "_vaultNFT",
          "type": "address"
        }
      ],
      "name": "initialize",
      "outputs": [],
      "stateMutability": "nonpayable",
      "type": "function"
    },
    {
      "inputs": [],
      "name": "irmParams",
      "outputs": [
        {
          "internalType": "uint256",
          "name": "baseRate",
          "type": "uint256"
        },
        {
          "internalType": "uint256",
          "name": "kinkRate",
          "type": "uint256"
        },
        {
          "internalType": "uint256",
          "name": "slope1",
          "type": "uint256"
        },
        {
          "internalType": "uint256",
          "name": "slope2",
          "type": "uint256"
        }
      ],
      "stateMutability": "view",
      "type": "function"
    },
    {
      "inputs": [],
      "name": "lastTouchedTimestamp",
      "outputs": [
        {
          "internalType": "uint256",
          "name": "",
          "type": "uint256"
        }
      ],
      "stateMutability": "view",
      "type": "function"
    },
    {
      "inputs": [
        {
          "internalType": "uint256",
          "name": "_vaultId",
          "type": "uint256"
        },
        {
          "components": [
            {
              "internalType": "uint256",
              "name": "swapRatio",
              "type": "uint256"
            },
            {
              "internalType": "uint256",
              "name": "closeRatio",
              "type": "uint256"
            }
          ],
          "internalType": "struct DataType.LiquidationOption",
          "name": "_liquidationOption",
          "type": "tuple"
        }
      ],
      "name": "liquidate",
      "outputs": [],
      "stateMutability": "nonpayable",
      "type": "function"
    },
    {
      "inputs": [
        {
          "internalType": "uint256",
          "name": "_vaultId",
          "type": "uint256"
        },
        {
          "components": [
            {
              "internalType": "uint256",
              "name": "subVaultIndex",
              "type": "uint256"
            },
            {
              "internalType": "uint256",
              "name": "asset0",
              "type": "uint256"
            },
            {
              "internalType": "uint256",
              "name": "asset1",
              "type": "uint256"
            },
            {
              "internalType": "uint256",
              "name": "debt0",
              "type": "uint256"
            },
            {
              "internalType": "uint256",
              "name": "debt1",
              "type": "uint256"
            },
            {
              "components": [
                {
                  "internalType": "bool",
                  "name": "isCollateral",
                  "type": "bool"
                },
                {
                  "internalType": "uint128",
                  "name": "liquidity",
                  "type": "uint128"
                },
                {
                  "internalType": "int24",
                  "name": "lowerTick",
                  "type": "int24"
                },
                {
                  "internalType": "int24",
                  "name": "upperTick",
                  "type": "int24"
                }
              ],
              "internalType": "struct DataType.LPT[]",
              "name": "lpts",
              "type": "tuple[]"
            }
          ],
          "internalType": "struct DataType.Position",
          "name": "_position",
          "type": "tuple"
        },
        {
          "components": [
            {
              "internalType": "bool",
              "name": "isLiquidationCall",
              "type": "bool"
            },
            {
              "internalType": "bool",
              "name": "swapAnyway",
              "type": "bool"
            },
            {
              "internalType": "bool",
              "name": "quoterMode",
              "type": "bool"
            },
            {
              "internalType": "bool",
              "name": "isQuoteZero",
              "type": "bool"
            },
            {
              "internalType": "int256",
              "name": "targetMarginAmount0",
              "type": "int256"
            },
            {
              "internalType": "int256",
              "name": "targetMarginAmount1",
              "type": "int256"
            },
            {
              "internalType": "bytes",
              "name": "metadata",
              "type": "bytes"
            }
          ],
          "internalType": "struct DataType.TradeOption",
          "name": "_tradeOption",
          "type": "tuple"
        },
        {
          "components": [
            {
              "internalType": "uint256",
              "name": "lowerSqrtPrice",
              "type": "uint256"
            },
            {
              "internalType": "uint256",
              "name": "upperSqrtPrice",
              "type": "uint256"
            },
            {
              "internalType": "uint256",
              "name": "swapRatio",
              "type": "uint256"
            },
            {
              "internalType": "uint256",
              "name": "deadline",
              "type": "uint256"
            }
          ],
          "internalType": "struct DataType.OpenPositionOption",
          "name": "_openPositionOptions",
          "type": "tuple"
        }
      ],
      "name": "openPosition",
      "outputs": [
        {
          "internalType": "uint256",
          "name": "vaultId",
          "type": "uint256"
        },
        {
          "components": [
            {
              "internalType": "int256",
              "name": "amount0",
              "type": "int256"
            },
            {
              "internalType": "int256",
              "name": "amount1",
              "type": "int256"
            }
          ],
          "internalType": "struct DataType.TokenAmounts",
          "name": "requiredAmounts",
          "type": "tuple"
        },
        {
          "components": [
            {
              "internalType": "int256",
              "name": "amount0",
              "type": "int256"
            },
            {
              "internalType": "int256",
              "name": "amount1",
              "type": "int256"
            }
          ],
          "internalType": "struct DataType.TokenAmounts",
          "name": "swapAmounts",
          "type": "tuple"
        }
      ],
      "stateMutability": "nonpayable",
      "type": "function"
    },
    {
      "inputs": [],
      "name": "operator",
      "outputs": [
        {
          "internalType": "address",
          "name": "",
          "type": "address"
        }
      ],
      "stateMutability": "view",
      "type": "function"
    },
    {
      "inputs": [
        {
          "internalType": "address",
          "name": "_newOperator",
          "type": "address"
        }
      ],
      "name": "setOperator",
      "outputs": [],
      "stateMutability": "nonpayable",
      "type": "function"
    },
    {
      "inputs": [
        {
          "internalType": "uint256",
          "name": "amount0",
          "type": "uint256"
        },
        {
          "internalType": "uint256",
          "name": "amount1",
          "type": "uint256"
        },
        {
          "internalType": "bytes",
          "name": "data",
          "type": "bytes"
        }
      ],
      "name": "uniswapV3MintCallback",
      "outputs": [],
      "stateMutability": "nonpayable",
      "type": "function"
    },
    {
      "inputs": [
        {
          "components": [
            {
              "internalType": "uint256",
              "name": "baseRate",
              "type": "uint256"
            },
            {
              "internalType": "uint256",
              "name": "kinkRate",
              "type": "uint256"
            },
            {
              "internalType": "uint256",
              "name": "slope1",
              "type": "uint256"
            },
            {
              "internalType": "uint256",
              "name": "slope2",
              "type": "uint256"
            }
          ],
          "internalType": "struct InterestCalculator.IRMParams",
          "name": "_irmParams",
          "type": "tuple"
        }
      ],
      "name": "updateIRMParams",
      "outputs": [],
      "stateMutability": "nonpayable",
      "type": "function"
    },
    {
      "inputs": [
        {
          "internalType": "uint256",
          "name": "_vaultId",
          "type": "uint256"
        },
        {
          "components": [
            {
              "internalType": "enum DataType.PositionUpdateType",
              "name": "positionUpdateType",
              "type": "uint8"
            },
            {
              "internalType": "uint256",
              "name": "subVaultIndex",
              "type": "uint256"
            },
            {
              "internalType": "bool",
              "name": "zeroForOne",
              "type": "bool"
            },
            {
              "internalType": "uint128",
              "name": "liquidity",
              "type": "uint128"
            },
            {
              "internalType": "int24",
              "name": "lowerTick",
              "type": "int24"
            },
            {
              "internalType": "int24",
              "name": "upperTick",
              "type": "int24"
            },
            {
              "internalType": "uint256",
              "name": "param0",
              "type": "uint256"
            },
            {
              "internalType": "uint256",
              "name": "param1",
              "type": "uint256"
            }
          ],
          "internalType": "struct DataType.PositionUpdate[]",
          "name": "positionUpdates",
          "type": "tuple[]"
        },
        {
          "components": [
            {
              "internalType": "bool",
              "name": "isLiquidationCall",
              "type": "bool"
            },
            {
              "internalType": "bool",
              "name": "swapAnyway",
              "type": "bool"
            },
            {
              "internalType": "bool",
              "name": "quoterMode",
              "type": "bool"
            },
            {
              "internalType": "bool",
              "name": "isQuoteZero",
              "type": "bool"
            },
            {
              "internalType": "int256",
              "name": "targetMarginAmount0",
              "type": "int256"
            },
            {
              "internalType": "int256",
              "name": "targetMarginAmount1",
              "type": "int256"
            },
            {
              "internalType": "bytes",
              "name": "metadata",
              "type": "bytes"
            }
          ],
          "internalType": "struct DataType.TradeOption",
          "name": "_tradeOption",
          "type": "tuple"
        },
        {
          "components": [
            {
              "internalType": "uint256",
              "name": "lowerSqrtPrice",
              "type": "uint256"
            },
            {
              "internalType": "uint256",
              "name": "upperSqrtPrice",
              "type": "uint256"
            },
            {
              "internalType": "uint256",
              "name": "swapRatio",
              "type": "uint256"
            },
            {
              "internalType": "uint256",
              "name": "deadline",
              "type": "uint256"
            }
          ],
          "internalType": "struct DataType.OpenPositionOption",
          "name": "_openPositionOptions",
          "type": "tuple"
        }
      ],
      "name": "updatePosition",
      "outputs": [
        {
          "internalType": "uint256",
          "name": "vaultId",
          "type": "uint256"
        },
        {
          "components": [
            {
              "internalType": "int256",
              "name": "amount0",
              "type": "int256"
            },
            {
              "internalType": "int256",
              "name": "amount1",
              "type": "int256"
            }
          ],
          "internalType": "struct DataType.TokenAmounts",
          "name": "requiredAmounts",
          "type": "tuple"
        },
        {
          "components": [
            {
              "internalType": "int256",
              "name": "amount0",
              "type": "int256"
            },
            {
              "internalType": "int256",
              "name": "amount1",
              "type": "int256"
            }
          ],
          "internalType": "struct DataType.TokenAmounts",
          "name": "swapAmounts",
          "type": "tuple"
        }
      ],
      "stateMutability": "nonpayable",
      "type": "function"
    },
    {
      "inputs": [
        {
          "components": [
            {
              "internalType": "uint256",
              "name": "baseRate",
              "type": "uint256"
            },
            {
              "internalType": "uint256",
              "name": "kinkRate",
              "type": "uint256"
            },
            {
              "internalType": "uint256",
              "name": "slope1",
              "type": "uint256"
            },
            {
              "internalType": "uint256",
              "name": "slope2",
              "type": "uint256"
            }
          ],
          "internalType": "struct InterestCalculator.IRMParams",
          "name": "_irmParams",
          "type": "tuple"
        },
        {
          "components": [
            {
              "internalType": "uint256",
              "name": "baseRate",
              "type": "uint256"
            },
            {
              "internalType": "uint256",
              "name": "kinkRate",
              "type": "uint256"
            },
            {
              "internalType": "uint256",
              "name": "slope1",
              "type": "uint256"
            },
            {
              "internalType": "uint256",
              "name": "slope2",
              "type": "uint256"
            }
          ],
          "internalType": "struct InterestCalculator.IRMParams",
          "name": "_premiumParams",
          "type": "tuple"
        }
      ],
      "name": "updateYearlyPremiumParams",
      "outputs": [],
      "stateMutability": "nonpayable",
      "type": "function"
    },
    {
      "inputs": [
        {
          "internalType": "uint256",
          "name": "_amount0",
          "type": "uint256"
        },
        {
          "internalType": "uint256",
          "name": "_amount1",
          "type": "uint256"
        }
      ],
      "name": "withdrawProtocolFee",
      "outputs": [],
      "stateMutability": "nonpayable",
      "type": "function"
    },
    {
      "inputs": [],
      "name": "ypParams",
      "outputs": [
        {
          "components": [
            {
              "internalType": "uint256",
              "name": "baseRate",
              "type": "uint256"
            },
            {
              "internalType": "uint256",
              "name": "kinkRate",
              "type": "uint256"
            },
            {
              "internalType": "uint256",
              "name": "slope1",
              "type": "uint256"
            },
            {
              "internalType": "uint256",
              "name": "slope2",
              "type": "uint256"
            }
          ],
          "internalType": "struct InterestCalculator.IRMParams",
          "name": "premiumParams",
          "type": "tuple"
        },
        {
          "components": [
            {
              "internalType": "uint256",
              "name": "baseRate",
              "type": "uint256"
            },
            {
              "internalType": "uint256",
              "name": "kinkRate",
              "type": "uint256"
            },
            {
              "internalType": "uint256",
              "name": "slope1",
              "type": "uint256"
            },
            {
              "internalType": "uint256",
              "name": "slope2",
              "type": "uint256"
            }
          ],
          "internalType": "struct InterestCalculator.IRMParams",
          "name": "irmParams",
          "type": "tuple"
        }
      ],
      "stateMutability": "view",
      "type": "function"
    }
  ],
  "transactionHash": "0x752c8afb59763bb23222c01e4f30f2a6131a0a69b48a8532fbd422119c3e9a72",
  "args": [],
  "solcInputHash": "8f28b90d15194a148a6918b13f9f7738",
  "bytecode": "0x608060405234801561001057600080fd5b50615bba80620000216000396000f3fe608060405234801561001057600080fd5b50600436106101cf5760003560e01c806386e6862d11610104578063e77bbb9a116100a2578063ef56d73d11610071578063ef56d73d14610431578063f3c3cc8914610444578063f46a647714610457578063ffdea55f1461046a576101cf565b8063e77bbb9a146103c6578063eb02c301146103e8578063ebd2665f14610408578063ec52ad081461041e576101cf565b8063ba4247b0116100de578063ba4247b014610378578063c3d2ca2d14610380578063d1e6419714610393578063d3487997146103b3576101cf565b806386e6862d1461033d5780639403b63414610345578063b3ab15fb14610365576101cf565b806346ed2e2711610171578063671148591161014b57806367114859146102e457806368715773146102f75780636f85ba9c1461030a57806385951bfe1461032a576101cf565b806346ed2e271461029657806351be57d3146102b7578063570ca735146102cf576101cf565b806330050fbd116101ad57806330050fbd1461022b5780633743d1421461024b5780633c678e14146102605780633e12971514610276576101cf565b8063013216f5146101d4578063127f0f07146101fd578063275892a214610216575b600080fd5b6101e76101e23660046144b3565b61047d565b6040516101f491906154f2565b60405180910390f35b610205610510565b6040516101f4959493929190615331565b61021e61053e565b6040516101f49190615373565b61023e6102393660046144b3565b610544565b6040516101f491906155ea565b61025e6102593660046144cb565b6106de565b005b610268610791565b6040516101f49291906154d6565b6102896102843660046144b3565b6107ee565b6040516101f49190615326565b6102a96102a4366004614bb2565b6108a5565b6040516101f49291906156ab565b6102bf6108dd565b6040516101f49493929190615a7a565b6102d76108ec565b6040516101f4919061518b565b61025e6102f2366004614570565b6108fb565b61025e610305366004614555565b61095e565b61031d6103183660046144b3565b6109a8565b6040516101f4919061555a565b6102a9610338366004614cb0565b610ad2565b6102d7610b5b565b6103586103533660046144b3565b610b78565b6040516101f491906157ad565b61025e61037336600461426f565b610c0c565b6102d7610c9f565b61021e61038e3660046144b3565b610d2a565b6103a66103a1366004614c07565b610dcc565b6040516101f491906156e3565b61025e6103c1366004614c36565b610efe565b6103d96103d4366004614b52565b610f55565b6040516101f493929190615a59565b6103fb6103f63660046144b3565b611028565b6040516101f491906151b8565b610410611033565b6040516101f49291906156c6565b61021e61042c3660046144cb565b6110f4565b6103d961043f3660046148c6565b611265565b6102a9610452366004614a2d565b6112d2565b61025e6104653660046145a5565b6113df565b61025e610478366004614aef565b611782565b6104856139ab565b50600081815260026020818152604092839020835161010081018552815480850b850b850b825263010000008104850b850b850b93820193909352600160301b9092046001600160801b03169382019390935260018301546060820152908201546080820152600382015460a0820152600482015460c082015260059091015460e08201525b919050565b600954600a54600854601b54601c54600160a01b90940460ff169492936001600160a01b0390921692909190565b60015481565b61054c6139ff565b600082815260046020908152604091829020825160808101845281548152835160a081019094526001820180549194929385019291829060ff16600281111561059157fe5b600281111561059c57fe5b81526020016001820154815260200160028201548152602001600382015481526020016004820154815250508152602001600682016040518060a00160405290816000820160009054906101000a900460ff1660028111156105fa57fe5b600281111561060557fe5b81526020016001820154815260200160028201548152602001600382015481526020016004820154815250508152602001600b8201805480602002602001604051908101604052809291908181526020016000905b828210156106d05760008481526020908190206040805160c08101825260068602909201805460ff16151583526001808201548486015260028201546001600160801b03169284019290925260038101546060840152600481015460808401526005015460a0830152908352909201910161065a565b505050915250909392505050565b602a546001600160a01b031633146107115760405162461bcd60e51b8152600401610708906153d1565b60405180910390fd5b601b5482118015906107255750601c548111155b6107415760405162461bcd60e51b8152600401610708906153ed565b601b80548390039055601c80548290039055811561077057600554610770906001600160a01b03163384611852565b801561078d5760065461078d906001600160a01b03163383611852565b5050565b60408051608080820183526021548252602254602080840191909152602354838501526024546060808501919091528451928301855260255483526026549183019190915260275493820193909352602854928101929092529082565b60006107f86119a0565b61080182611a34565b600082815260036020526040908190209051630d5e377d60e11b815273e6F220Df9488F4852164d167215d506f6AFcda2991631abc6efa9161084e919060049060059060029083016159ad565b60206040518083038186803b15801561086657600080fd5b505af415801561087a573d6000803e3d6000fd5b505050506040513d601f19601f8201168201806040525081019061089e9190614497565b1592915050565b6108ad613a33565b6108b5613a33565b6108bd6119a0565b6108d1856108ca87611a74565b86866112d2565b91509150935093915050565b601d54601e54601f5460205484565b602a546001600160a01b031681565b602a546001600160a01b031633146109255760405162461bcd60e51b8152600401610708906153d1565b81516025556020808301516026556040808401516027556060938401516028558251602155908201516022558101516023550151602455565b602a546001600160a01b031633146109885760405162461bcd60e51b8152600401610708906153d1565b8051601d55602080820151601e556040820151601f556060909101519055565b6109b0613a4d565b60008281526003602081815260408084208151608081018352815481526001820154818501526002820154818401529381018054835181860281018601909452808452919360608601939290830182828015610a2b57602002820191906000526020600020905b815481526020019060010190808311610a17575b50505091909252505060405163149ccfa160e11b815291925073d4c931783D97f47e657b82cfC96fee1daea64C56916329399f429150610a779084906004906002906005908301615811565b60006040518083038186803b158015610a8f57600080fd5b505af4158015610aa3573d6000803e3d6000fd5b505050506040513d6000823e601f3d908101601f19168201604052610acb9190810190614678565b9392505050565b610ada613a33565b610ae2613a33565b610aea6119a0565b604080516001808252818301909252600091816020015b610b09613a8a565b815260200190600190039081610b01579050509050610b288787611c5a565b81600081518110610b3557fe5b6020026020010181905250610b4c878287876112d2565b92509250505b94509492505050565b600854600090610b73906001600160a01b0316611fe8565b905090565b610b80613ac0565b6000828152600360208181526040928390208351608081018552815481526001820154818401526002820154818601529281018054855181850281018501909652808652939491936060860193830182828015610bfc57602002820191906000526020600020905b815481526020019060010190808311610be8575b5050505050815250509050919050565b602a546001600160a01b03163314610c365760405162461bcd60e51b8152600401610708906153d1565b6001600160a01b038116610c4957600080fd5b602a80546001600160a01b0319166001600160a01b0383161790556040517fb3b3f5f64ab192e4b5fefde1f51ce9733bbdcf831951543b325aebd49cc27ec490610c9490839061518b565b60405180910390a150565b6040516310fe062760e11b815260009073e6F220Df9488F4852164d167215d506f6AFcda29906321fc0c4e90610cda90600590600401615442565b60206040518083038186803b158015610cf257600080fd5b505af4158015610d06573d6000803e3d6000fd5b505050506040513d601f19601f82011682018060405250810190610b73919061428b565b600081815260036020526040808220905163b7f22f3960e01b815273e6F220Df9488F4852164d167215d506f6AFcda299163b7f22f3991610d76919060049060059060029083016159ad565b60206040518083038186803b158015610d8e57600080fd5b505af4158015610da2573d6000803e3d6000fd5b505050506040513d601f19601f82011682018060405250810190610dc691906144ec565b92915050565b610dd4613ac0565b610ddc6119a0565b610de583611a34565b6000838152600360208181526040928390208351608081018552815481526001820154818401526002820154818601529281018054855181850281018501909652808652939491936060860193830182828015610e6157602002820191906000526020600020905b815481526020019060010190808311610e4d575b505050919092525050604051635d8d458360e11b815273d4c931783D97f47e657b82cfC96fee1daea64C569263bb1a8b069250610eaa916004906002906005908990840161589d565b60006040518083038186803b158015610ec257600080fd5b505af4158015610ed6573d6000803e3d6000fd5b505050506040513d6000823e601f3d908101601f19168201604052610acb9190810190614798565b6008546001600160a01b03163314610f1557600080fd5b8315610f3257600554610f32906001600160a01b03163386611852565b8215610f4f57600654610f4f906001600160a01b03163385611852565b50505050565b6000610f5f613a33565b610f67613a33565b6000730854b03A3DCc55AC5F05A586827876faFac8867e6307927e4b888860600151610f91610b5b565b89604001516040518563ffffffff1660e01b8152600401610fb594939291906155b2565b60006040518083038186803b158015610fcd57600080fd5b505af4158015610fe1573d6000803e3d6000fd5b505050506040513d6000823e601f3d908101601f191682016040526110099190810190614367565b905061101788828888611265565b919a90995090975095505050505050565b6060610dc682611a74565b61103b613ae8565b611043613ae8565b5050604080516101008082018352600b548252600c54602080840191909152600d5483850152600e54606080850191909152600f5460808086019190915260105460a08087019190915260115460c08088019190915260125460e080890191909152885196870189526013548752601454958701959095526015549786019790975260165492850192909252601754908401526018549083015260195493820193909352601a549281019290925291565b60008281526002602052604081206005015461111257506000610dc6565b60408051610180810182526005546001600160a01b039081168252600654808216602080850191909152600160a01b9182900462ffffff16848601526007548316606080860191909152600854841660808087019190915260095494851660a0808801919091529390940460ff16151560c080870191909152600a5460e08088019190915287516101008082018a52600b548252600c5482870152600d54828b0152600e5482860152600f54828901526010548288015260115482850152601254828401528089019190915288519081018952601354815260145481860152601554818a015260165493810193909352601754958301959095526018549382019390935260195492810192909252601a5492820192909252610120830152601b54610140830152601c546101608301526000868152600290915291909120610acb9160219161125f610b5b565b86612068565b600061126f613a33565b611277613a33565b83606001518042111561129c5760405162461bcd60e51b815260040161070890615398565b6112a46119a0565b6112af88888861215e565b8751602089015193975091955093506112c791612311565b509450945094915050565b6112da613a33565b6112e2613a33565b8260800151804211156113075760405162461bcd60e51b815260040161070890615398565b6000730854b03A3DCc55AC5F05A586827876faFac8867e6366d661788888606001518860400151896060015161133b610b5b565b6040518663ffffffff1660e01b815260040161135b959493929190615254565b60006040518083038186803b15801561137357600080fd5b505af4158015611387573d6000803e3d6000fd5b505050506040513d6000823e601f3d908101601f191682016040526113af9190810190614367565b90506113bc88828861215e565b875160208901519297509095506113d4925090612311565b505094509492505050565b600054610100900460ff16806113f857506113f8612352565b80611406575060005460ff16155b6114415760405162461bcd60e51b815260040180806020018281038252602e815260200180615b36602e913960400191505060405180910390fd5b600054610100900460ff1615801561146c576000805460ff1961ff0019909116610100171660011790555b6001600160a01b03821661147f57600080fd5b8560000151600560010160146101000a81548162ffffff021916908362ffffff1602179055508560200151600560000160006101000a8154816001600160a01b0302191690836001600160a01b031602179055508560400151600560010160006101000a8154816001600160a01b0302191690836001600160a01b031602179055508560600151600560040160146101000a81548160ff02191690831515021790555083600560020160006101000a8154816001600160a01b0302191690836001600160a01b0316021790555082600560040160006101000a8154816001600160a01b0302191690836001600160a01b0316021790555060006040518060600160405280600560000160009054906101000a90046001600160a01b03166001600160a01b03168152602001600560010160009054906101000a90046001600160a01b03166001600160a01b03168152602001600560010160149054906101000a900462ffffff1662ffffff1681525090506115fa8682612363565b600880546001600160a01b03199081166001600160a01b0393841617909155602b80549091169185169190911790556001600a55611638600b612447565b6116426013612447565b42600155602a80546001600160a01b0319163317905560055460405163095ea7b360e01b81526001600160a01b03919091169063095ea7b39061168d9088906000199060040161519f565b602060405180830381600087803b1580156116a757600080fd5b505af11580156116bb573d6000803e3d6000fd5b505050506040513d601f19601f820116820180604052508101906116df9190614497565b5060065460405163095ea7b360e01b81526001600160a01b039091169063095ea7b3906117149088906000199060040161519f565b602060405180830381600087803b15801561172e57600080fd5b505af1158015611742573d6000803e3d6000fd5b505050506040513d601f19601f820116820180604052508101906117669190614497565b5050801561177a576000805461ff00191690555b505050505050565b61178a6119a0565b6000730854b03A3DCc55AC5F05A586827876faFac8867e6366d661786117af85611028565b60095485516020870151600160a01b90920460ff16916117cd610b5b565b6040518663ffffffff1660e01b81526004016117ed959493929190615254565b60006040518083038186803b15801561180557600080fd5b505af4158015611819573d6000803e3d6000fd5b505050506040513d6000823e601f3d908101601f191682016040526118419190810190614367565b905061184d838261245f565b505050565b604080516001600160a01b038481166024830152604480830185905283518084039091018152606490920183526020820180516001600160e01b031663a9059cbb60e01b1781529251825160009485949389169392918291908083835b602083106118ce5780518252601f1990920191602091820191016118af565b6001836020036101000a0380198251168184511680821785525050505050509050019150506000604051808303816000865af19150503d8060008114611930576040519150601f19603f3d011682016040523d82523d6000602084013e611935565b606091505b5091509150818015611963575080511580611963575080806020019051602081101561196057600080fd5b50515b611999576040805162461bcd60e51b815260206004820152600260248201526114d560f21b604482015290519081900360640190fd5b5050505050565b60015460405163725acfd160e01b81527386fff4cD1C1B92Cb73CA139286810811FB1A7D439163725acfd1916119df91600591601d9190600401615451565b60206040518083038186803b1580156119f757600080fd5b505af4158015611a0b573d6000803e3d6000fd5b505050506040513d601f19601f82011682018060405250810190611a2f91906144ec565b600155565b60408051600080825260208201909252611a7191839190611a6b565b611a58613b2d565b815260200190600190039081611a505790505b50612589565b50565b606060006003600084815260200190815260200160002060405180608001604052908160008201548152602001600182015481526020016002820154815260200160038201805480602002602001604051908101604052809291908181526020018280548015611b0357602002820191906000526020600020905b815481526020019060010190808311611aef575b50505091909252505060408051610180810182526005546001600160a01b03908116825260065480821660208085019190915262ffffff600160a01b9283900416848601526007548316606080860191909152600854841660808087019190915260095494851660a08088019190915260ff9490950493909316151560c080870191909152600a5460e08088019190915287516101008181018a52600b548252600c5482870152600d54828b0152600e5482860152600f548288015260105482890152601154828501526012548284015280890191909152885190810189526013548152601454948101949094526015549784019790975260165491830191909152601754928201929092526018549281019290925260195490820152601a5492810192909252610120810191909152601b54610140820152601c54610160820152919250610acb918391506004906002906126ce565b611c62613a8a565b60008381526003602081815260408084208151608081018352815481526001820154818501526002820154818401529381018054835181860281018601909452808452919360608601939290830182828015611cdd57602002820191906000526020600020905b815481526020019060010190808311611cc9575b5050505050815250509050611fe0836004600084606001518781518110611d0057fe5b6020026020010151815260200190815260200160002060405180608001604052908160008201548152602001600182016040518060a00160405290816000820160009054906101000a900460ff166002811115611d5957fe5b6002811115611d6457fe5b81526020016001820154815260200160028201548152602001600382015481526020016004820154815250508152602001600682016040518060a00160405290816000820160009054906101000a900460ff166002811115611dc257fe5b6002811115611dcd57fe5b81526020016001820154815260200160028201548152602001600382015481526020016004820154815250508152602001600b8201805480602002602001604051908101604052809291908181526020016000905b82821015611e985760008481526020908190206040805160c08101825260068602909201805460ff16151583526001808201548486015260028201546001600160801b03169284019290925260038101546060840152600481015460808401526005015460a08301529083529092019101611e22565b5050509152505060408051610180810182526005546001600160a01b03908116825260065480821660208085019190915262ffffff600160a01b9283900416848601526007548316606080860191909152600854841660808087019190915260095494851660a08088019190915260ff9490950493909316151560c080870191909152600a5460e08088019190915287516101008181018a52600b548252600c5482870152600d54828b0152600e5482860152600f548288015260105482890152601154828501526012548284015280890191909152885190810189526013548152601454948101949094526015549784019790975260165491830191909152601754928201929092526018549281019290925260195490820152601a5492810192909252610120810191909152601b54610140820152601c5461016082015260029061291e565b949350505050565b6000816001600160a01b0316633850c7bd6040518163ffffffff1660e01b815260040160e06040518083038186803b15801561202357600080fd5b505afa158015612037573d6000803e3d6000fd5b505050506040513d601f19601f8201168201806040525081019061205b9190614830565b5094979650505050505050565b60c08481015160808087015160408051610100810182528854600281810b810b810b835263010000008204810b810b810b6020840152600160301b9091046001600160801b031692820192909252600189015460608201529088015492810192909252600387015460a0830152600487015493820193909352600586015460e082015260009261215292916120ff918a9187612b71565b6040805160808101825260048b0154815260058b0154602082015260068b01549181019190915260078a0154606082015261213a9086612bef565b87548790600281810b9163010000009004900b612c64565b90505b95945050505050565b6000612168613a33565b612170613a33565b602b546040805163186e33a360e21b8152905188926001600160a01b0316916361b8ce8c9160048083019260209291908290030181600087803b1580156121b657600080fd5b505af11580156121ca573d6000803e3d6000fd5b505050506040513d601f19601f820116820180604052508101906121ee91906144ec565b811061220c5760405162461bcd60e51b815260040161070890615426565b6122168787612589565b6000612226888760400151612d1e565b604051636413e81f60e11b8152919650915060009073a07183a20896b5f54807064796222642B34E4f849063c827d03e906122719085906004906005906002908f908f9085016158e9565b6101006040518083038186803b15801561228a57600080fd5b505af415801561229e573d6000803e3d6000fd5b505050506040513d601f19601f820116820180604052508101906122c2919061471e565b805160608201519096509450905088612305578451600012806122e9575060008560200151135b6123055760405162461bcd60e51b81526004016107089061537c565b50505093509350939050565b600061231b610b5b565b6001600160a01b031690508083111580156123365750818111155b61184d5760405162461bcd60e51b815260040161070890615409565b600061235d30612ec2565b15905090565b600081602001516001600160a01b031682600001516001600160a01b03161061238b57600080fd5b50805160208083015160409384015184516001600160a01b0394851681850152939091168385015262ffffff166060808401919091528351808403820181526080840185528051908301206001600160f81b031960a085015294901b6bffffffffffffffffffffffff191660a183015260b58201939093527fe34f199b19b2b4f47f68442619d555527d244f78a3297ea89325f843f87b8b5460d5808301919091528251808303909101815260f5909101909152805191012090565b670de0b6b3a764000060048201819055600590910155565b602b546040805163186e33a360e21b8152905184926001600160a01b0316916361b8ce8c9160048083019260209291908290030181600087803b1580156124a557600080fd5b505af11580156124b9573d6000803e3d6000fd5b505050506040513d601f19601f820116820180604052508101906124dd91906144ec565b81106124fb5760405162461bcd60e51b815260040161070890615426565b6125058383612589565b6000838152600360205260409081902090516349b3bd7960e11b815273e6F220Df9488F4852164d167215d506f6AFcda29916393677af29161255491906004908790600590600290840161597a565b60006040518083038186803b15801561256c57600080fd5b505af4158015612580573d6000803e3d6000fd5b50505050505050565b6000828152600360208181526040808420815160808101835281548152600182015481850152600282015481840152938101805483518186028101860190945280845291936060860193929083018282801561260457602002820191906000526020600020905b8154815260200190600101908083116125f0575b50505050508152505090507386fff4cD1C1B92Cb73CA139286810811FB1A7D4363a5d330ad8260046002600587602161263b610b5b565b6040518863ffffffff1660e01b815260040161265d9796959493929190615841565b60006040518083038186803b15801561267557600080fd5b505af4158015612689573d6000803e3d6000fd5b5050604051637ce761e760e01b815273885b70263A5E5D83A679126fD8EF944D005A7E5E9250637ce761e7915061255490600590859060049060029089908301615485565b60608460600151516001600160401b03811180156126eb57600080fd5b5060405190808252806020026020018201604052801561272557816020015b612712613a8a565b81526020019060019003908161270a5790505b50905060005b856060015151811015612915576128f6818660008960600151858151811061274f57fe5b6020026020010151815260200190815260200160002060405180608001604052908160008201548152602001600182016040518060a00160405290816000820160009054906101000a900460ff1660028111156127a857fe5b60028111156127b357fe5b81526020016001820154815260200160028201548152602001600382015481526020016004820154815250508152602001600682016040518060a00160405290816000820160009054906101000a900460ff16600281111561281157fe5b600281111561281c57fe5b81526020016001820154815260200160028201548152602001600382015481526020016004820154815250508152602001600b8201805480602002602001604051908101604052809291908181526020016000905b828210156128e75760008481526020908190206040805160c08101825260068602909201805460ff16151583526001808201548486015260028201546001600160801b03169284019290925260038101546060840152600481015460808401526005015460a08301529083529092019101612871565b5050505081525050868661291e565b82828151811061290257fe5b602090810291909101015260010161272b565b50949350505050565b612926613a8a565b60008460600151516001600160401b038111801561294357600080fd5b5060405190808252806020026020018201604052801561297d57816020015b61296a613b73565b8152602001906001900390816129625790505b50905060005b856060015151811015612ace576000866060015182815181106129a257fe5b60209081029190910181015181015160008181528883526040908190208151610100810183528154600281810b810b810b835263010000008204810b810b810b96830196909652600160301b90046001600160801b031681840152600182015460608083019190915294820154608080830191909152600383015460a0830152600483015460c083015260059092015460e08201528251918201909252928a0151805192945090929182919086908110612a5857fe5b6020026020010151600001511515815260200189606001518581518110612a7b57fe5b6020026020010151604001516001600160801b03168152602001826000015160020b8152602001826020015160020b815250848481518110612ab957fe5b60209081029190910101525050600101612983565b506040518060c00160405280878152602001612afc8760200151866101000151612ec890919063ffffffff16565b8152602001612b1d8760400151866101200151612ec890919063ffffffff16565b8152602001612b3e8760200151866101000151612f0c90919063ffffffff16565b8152602001612b5f8760400151866101200151612f0c90919063ffffffff16565b81526020019190915295945050505050565b600080612b88868686600001518760200151612f49565b9050670de0b6b3a7640000612bdd82612bd78960000160405180608001604052908160008201548152602001600182015481526020016002820154815260200160038201548152505087612bef565b90613011565b81612be457fe5b049695505050505050565b81516020830151600091908311612c1e57670de0b6b3a76400008460400151840281612c1757fe5b0401610acb565b670de0b6b3a7640000846040015185602001510281612c3957fe5b0481019050670de0b6b3a76400008460200151840385606001510281612c5b57fe5b04019392505050565b6000806000612c8d86612c768761306a565b612c7f8761306a565b670de0b6b3a764000061339c565b91509150612ca689876001600160a01b03168484613437565b9250612cc4670de0b6b3a7640000612cbe858a613011565b906134a6565b92506000612cdb8a886001600160a01b031661350d565b9050612d10612d09670de0b6b3a7640000612cbe8c612bd7612d0487662386f26fc10000613011565b6135d5565b8590613679565b9a9950505050505050505050565b60008083612dfb57602b546040516354ba0f2760e01b81526001600160a01b03909116906354ba0f2790612d5690339060040161518b565b602060405180830381600087803b158015612d7057600080fd5b505af1158015612d84573d6000803e3d6000fd5b505050506040513d601f19601f82011682018060405250810190612da891906144ec565b60008181526003602052604090819020829055519092507fbf3e9c93de94306b70ac5b9411edf475545815333bf651b894b9eada6482c59490612dee9084903390615a42565b60405180910390a1612eac565b602b546040516331a9108f60e11b815285935033916001600160a01b031690636352211e90612e2e908690600401615373565b60206040518083038186803b158015612e4657600080fd5b505afa158015612e5a573d6000803e3d6000fd5b505050506040513d601f19601f82011682018060405250810190612e7e919061428b565b6001600160a01b03161480612e905750825b612eac5760405162461bcd60e51b8152600401610708906153b5565b5060008181526003602052604090209250929050565b3b151590565b6000600182516002811115612ed957fe5b1415612f0157612efa82602001518460800151670de0b6b3a76400006136d3565b9050610dc6565b506020810151610dc6565b6000600182516002811115612f1d57fe5b1415612f3e57612efa82604001518460a00151670de0b6b3a76400006136d3565b506040810151610dc6565b6000806000612f598686866136f2565b9150915060008585604051602001612f7292919061516e565b60408051601f198184030181529181528151602092830120600081815260088c0190935291205490915083111580612fbd575060008181526008890160205260409020600101548211155b15612fce5760009350505050611fe0565b600081815260088901602052604090206001810154905490830390612ffd908503670de0b6b3a7640000613011565b8161300457fe5b0498975050505050505050565b60008261302057506000610dc6565b8282028284828161302d57fe5b0414610acb5760405162461bcd60e51b8152600401808060200182810382526021815260200180615b646021913960400191505060405180910390fd5b60008060008360020b12613081578260020b613089565b8260020b6000035b9050620d89e88111156130c7576040805162461bcd60e51b81526020600482015260016024820152601560fa1b604482015290519081900360640190fd5b6000600182166130db57600160801b6130ed565b6ffffcb933bd6fad37aa2d162d1a5940015b70ffffffffffffffffffffffffffffffffff1690506002821615613121576ffff97272373d413259a46990580e213a0260801c5b6004821615613140576ffff2e50f5f656932ef12357cf3c7fdcc0260801c5b600882161561315f576fffe5caca7e10e4e61c3624eaa0941cd00260801c5b601082161561317e576fffcb9843d60f6159c9db58835c9266440260801c5b602082161561319d576fff973b41fa98c081472e6896dfb254c00260801c5b60408216156131bc576fff2ea16466c96a3843ec78b326b528610260801c5b60808216156131db576ffe5dee046a99a2a811c461f1969c30530260801c5b6101008216156131fb576ffcbe86c7900a88aedcffc83b479aa3a40260801c5b61020082161561321b576ff987a7253ac413176f2b074cf7815e540260801c5b61040082161561323b576ff3392b0822b70005940c7a398e4b70f30260801c5b61080082161561325b576fe7159475a2c29b7443b29c7fa6e889d90260801c5b61100082161561327b576fd097f3bdfd2022b8845ad8f792aa58250260801c5b61200082161561329b576fa9f746462d870fdf8a65dc1f90e061e50260801c5b6140008216156132bb576f70d869a156d2a1b890bb3df62baf32f70260801c5b6180008216156132db576f31be135f97d08fd981231505542fcfa60260801c5b620100008216156132fc576f09aa508b5b7a84e1c677de54f3e99bc90260801c5b6202000082161561331c576e5d6af8dedb81196699c329225ee6040260801c5b6204000082161561333b576d2216e584f5fa1ea926041bedfe980260801c5b62080000821615613358576b048a170391f7dc42444e8fa20260801c5b60008460020b131561337357806000198161336f57fe5b0490505b64010000000081061561338757600161338a565b60005b60ff16602082901c0192505050919050565b600080836001600160a01b0316856001600160a01b031611156133bd579293925b846001600160a01b0316866001600160a01b0316116133e8576133e1858585613854565b9150610b52565b836001600160a01b0316866001600160a01b031610156134215761340d868585613854565b915061341a8587856138bd565b9050610b52565b61342c8585856138bd565b905094509492505050565b60008085156134835761345a8580670de0b6b3a7640000600160c01b5b046138fc565b905080613465575060015b8083670de0b6b3a7640000028161347857fe5b058401915050611fe0565b6134928586600160601b6138fc565b600160601b9085020583019150611fe09050565b60008082116134fc576040805162461bcd60e51b815260206004820152601a60248201527f536166654d6174683a206469766973696f6e206279207a65726f000000000000604482015290519081900360640190fd5b81838161350557fe5b049392505050565b6000821561356c5761352d8280670de0b6b3a7640000600160c01b613454565b90508061354b57506f4b3b4ca85a86c47a098a224000000000610dc6565b806f4b3b4ca85a86c47a098a2240000000008161356457fe5b049050613598565b600160601b6064670de0b6b3a764000061358b8586600160601b6138fc565b02028161359457fe5b0490505b6f4b3b4ca85a86c47a098a2240000000008111156135c757506f4b3b4ca85a86c47a098a224000000000610dc6565b80610dc65750600192915050565b60b581600160881b81106135ee5760409190911b9060801c5b6901000000000000000000811061360a5760209190911b9060401c5b6501000000000081106136225760109190911b9060201c5b630100000081106136385760089190911b9060101c5b62010000010260121c80820401600190811c80830401811c80830401811c80830401811c80830401811c80830401811c80830401901c908190048111900390565b600082820183811015610acb576040805162461bcd60e51b815260206004820152601b60248201527f536166654d6174683a206164646974696f6e206f766572666c6f770000000000604482015290519081900360640190fd5b8282028115158415858304851417166136eb57600080fd5b0492915050565b6040805160018082528183019092526000918291829160208083019080368337505060405163883bdbfd60e01b81529192506000916001600160a01b038916915063883bdbfd906137479085906004016152dc565b60006040518083038186803b15801561375f57600080fd5b505afa158015613773573d6000803e3d6000fd5b505050506040513d6000823e601f3d908101601f1916820160405261379b91908101906142a7565b915050806000815181106137ab57fe5b60200260200101516001600160a01b03169250866001600160a01b031663a38807f287876040518363ffffffff1660e01b81526004016137ec92919061535f565b60606040518083038186803b15801561380457600080fd5b505afa158015613818573d6000803e3d6000fd5b505050506040513d601f19601f8201168201806040525081019061383c9190614504565b506001600160a01b0316989397509295505050505050565b6000826001600160a01b0316846001600160a01b03161115613874579192915b836001600160a01b03166138ad606060ff16846001600160801b0316901b8686036001600160a01b0316866001600160a01b03166138fc565b816138b457fe5b04949350505050565b6000826001600160a01b0316846001600160a01b031611156138dd579192915b611fe0826001600160801b03168585036001600160a01b0316600160601b5b6000808060001985870986860292508281109083900303905080613932576000841161392757600080fd5b508290049050610acb565b80841161393e57600080fd5b6000848688096000868103871696879004966002600389028118808a02820302808a02820302808a02820302808a02820302808a02820302808a02909103029181900381900460010186841190950394909402919094039290920491909117919091029150509392505050565b604051806101000160405280600060020b8152602001600060020b815260200160006001600160801b0316815260200160008152602001600081526020016000815260200160008152602001600081525090565b604051806080016040528060008152602001613a19613b9a565b8152602001613a26613b9a565b8152602001606081525090565b604051806040016040528060008152602001600081525090565b6040518060e00160405280600081526020016000815260200160008152602001600081526020016000815260200160008152602001606081525090565b6040518060c001604052806000815260200160008152602001600081526020016000815260200160008152602001606081525090565b6040518060800160405280600081526020016000815260200160008152602001606081525090565b60405180610100016040528060008152602001600081526020016000815260200160008152602001600081526020016000815260200160008152602001600081525090565b604080516101008101909152806000815260006020820181905260408201819052606082018190526080820181905260a0820181905260c0820181905260e09091015290565b60408051608081018252600080825260208201819052918101829052606081019190915290565b6040805160a081019091528060008152602001600081526020016000815260200160008152602001600081525090565b803561050b81615ae1565b600082601f830112613be5578081fd5b81356020613bfa613bf583615ab8565b615a95565b82815281810190858301608080860288018501891015613c18578687fd5b865b86811015613ca95781838b031215613c30578788fd5b604080518381018181106001600160401b0382111715613c4c57fe5b82528435613c5981615af6565b815284880135613c6881615b20565b8189015284820135613c7981615b11565b8083830152506060915081850135613c9081615b11565b9181019190915285529385019391810191600101613c1a565b509198975050505050505050565b600082601f830112613cc7578081fd5b81516020613cd7613bf583615ab8565b82815281810190858301608080860288018501891015613cf5578687fd5b865b86811015613ca95781838b031215613d0d578788fd5b604080518381018181106001600160401b0382111715613d2957fe5b82528451613d3681615af6565b815284880151613d4581615b20565b8189015284820151613d5681615b11565b8083830152506060915081850151613d6d81615b11565b9181019190915285529385019391810191600101613cf7565b600082601f830112613d96578081fd5b81516020613da6613bf583615ab8565b828152818101908583016101e080860288018501891015613dc5578687fd5b865b86811015613ca957828a0382811215613dde578889fd5b60408051608081016001600160401b038282108183111715613dfc57fe5b8184526060851215613e0c578c8dfd5b60e0830194508185108186111715613e2057fe5b50838352865181528987015160a08301528683015160c08301528152613e498d60608801614102565b89820152613e5a8d60e08801614102565b82820152613e6c8d6101608801614102565b6060820152875250509385019391810191600101613dc7565b600082601f830112613e95578081fd5b81516020613ea5613bf583615ab8565b8281528181019085830183850287018401881015613ec1578586fd5b855b85811015613ee8578151613ed681615ae1565b84529284019290840190600101613ec3565b5090979650505050505050565b803561050b81615af6565b805161050b81615af6565b600082601f830112613f1b578081fd5b81356001600160401b03811115613f2e57fe5b613f41601f8201601f1916602001615a95565b818152846020838601011115613f55578283fd5b816020850160208301379081016020019190915292915050565b803561050b81615b04565b805161050b81615b04565b803561050b81615b11565b805161050b81615b11565b8051600681900b811461050b57600080fd5b600060a08284031215613fbe578081fd5b60405160a081018181106001600160401b0382111715613fda57fe5b806040525080915082358152602083013560208201526040830135604082015260608301356060820152608083013560808201525092915050565b600060808284031215614026578081fd5b604051608081018181106001600160401b038211171561404257fe5b8060405250809150823581526020830135602082015260408301356040820152606083013560608201525092915050565b600060c08284031215614084578081fd5b60405160c081016001600160401b0382821081831117156140a157fe5b81604052829350843583526020850135602084015260408501356040840152606085013560608401526080850135608084015260a08501359150808211156140e857600080fd5b506140f585828601613bd5565b60a0830152505092915050565b600060808284031215614113578081fd5b604051608081018181106001600160401b038211171561412f57fe5b8060405250809150825181526020830151602082015260408301516040820152606083015160608201525092915050565b600060408284031215614171578081fd5b604051604081018181106001600160401b038211171561418d57fe5b604052825181526020928301519281019290925250919050565b600060e082840312156141b8578081fd5b6141c260e0615a95565b90506141cd82613ef5565b81526141db60208301613ef5565b60208201526141ec60408301613ef5565b60408201526141fd60608301613ef5565b60608201526080820135608082015260a082013560a082015260c08201356001600160401b0381111561422f57600080fd5b61423b84828501613f0b565b60c08301525092915050565b803561050b81615b20565b805161050b81615b20565b805161ffff8116811461050b57600080fd5b600060208284031215614280578081fd5b8135610acb81615ae1565b60006020828403121561429c578081fd5b8151610acb81615ae1565b600080604083850312156142b9578081fd5b82516001600160401b03808211156142cf578283fd5b818501915085601f8301126142e2578283fd5b815160206142f2613bf583615ab8565b82815281810190858301838502870184018b101561430e578788fd5b8796505b848710156143375761432381613f9b565b835260019690960195918301918301614312565b5091880151919650909350505080821115614350578283fd5b5061435d85828601613e85565b9150509250929050565b60006020808385031215614379578182fd5b82516001600160401b038082111561438f578384fd5b818501915085601f8301126143a2578384fd5b81516143b0613bf582615ab8565b81815284810190848601610100808502870188018b10156143cf578889fd5b8896505b848710156144885780828c0312156143e9578889fd5b6040805182810181811089821117156143fe57fe5b825261440984613f7a565b8152898401518a82015261441e828501613f00565b8282015260609150614431828501614252565b8282015260809150614444828501613f90565b8282015260a09150614457828501613f90565b9181019190915260c0838101519082015260e0808401519082015284526001969096019592870192908101906143d3565b50909998505050505050505050565b6000602082840312156144a8578081fd5b8151610acb81615af6565b6000602082840312156144c4578081fd5b5035919050565b600080604083850312156144dd578182fd5b50508035926020909101359150565b6000602082840312156144fd578081fd5b5051919050565b600080600060608486031215614518578081fd5b61452184613f9b565b9250602084015161453181615ae1565b604085015190925063ffffffff8116811461454a578182fd5b809150509250925092565b600060808284031215614566578081fd5b610acb8383614015565b6000806101008385031215614583578182fd5b61458d8484614015565b915061459c8460808501614015565b90509250929050565b60008060008060008587036101008112156145be578384fd5b60808112156145cb578384fd5b50604051608081018181106001600160401b03821117156145e857fe5b604052863562ffffff811681146145fd578485fd5b8152602087013561460d81615ae1565b602082015261461e60408801613bca565b604082015261462f60608801613ef5565b6060820152945061464260808701613bca565b935061465060a08701613bca565b925061465e60c08701613bca565b915061466c60e08701613bca565b90509295509295909350565b600060208284031215614689578081fd5b81516001600160401b038082111561469f578283fd5b9083019060e082860312156146b2578283fd5b6146bc60e0615a95565b825181526020830151602082015260408301516040820152606083015160608201526080830151608082015260a083015160a082015260c083015182811115614703578485fd5b61470f87828601613cb7565b60c08301525095945050505050565b60006101008284031215614730578081fd5b604051608081018181106001600160401b038211171561474c57fe5b6040526147598484614160565b81526147688460408501614160565b602082015261477a8460808501614160565b604082015261478c8460c08501614160565b60608201529392505050565b6000602082840312156147a9578081fd5b81516001600160401b03808211156147bf578283fd5b90830190608082860312156147d2578283fd5b6040516080810181811083821117156147e757fe5b8060405250825181526020830151602082015260408301516040820152606083015182811115614815578485fd5b61482187828601613d86565b60608301525095945050505050565b600080600080600080600060e0888a03121561484a578485fd5b875161485581615ae1565b602089015190975061486681615b11565b95506148746040890161425d565b94506148826060890161425d565b93506148906080890161425d565b925060a088015160ff811681146148a5578283fd5b60c08901519092506148b681615af6565b8091505092959891949750929550565b60008060008060e085870312156148db578182fd5b843593506020808601356001600160401b03808211156148f9578485fd5b818801915088601f83011261490c578485fd5b813561491a613bf582615ab8565b81815284810190848601610100808502870188018e101561493957898afd5b8996505b848710156149ea5780828f03121561495357898afd5b60408051828101818110898211171561496857fe5b825261497384613f6f565b8152898401358a820152614988828501613ef5565b8282015261499860608501614247565b60608201526149a960808501613f85565b60808201526149ba60a08501613f85565b60a082015260c0848101359082015260e0808501359082015285525060019690960195928701929081019061493d565b509098505050506040880135925080831115614a04578485fd5b5050614a12878288016141a7565b925050614a228660608701614015565b905092959194509250565b6000806000806101008587031215614a43578182fd5b843593506020808601356001600160401b0380821115614a61578485fd5b818801915088601f830112614a74578485fd5b8135614a82613bf582615ab8565b81815284810190848601885b84811015614ab757614aa58e8984358a0101614073565b84529287019290870190600101614a8e565b509098505050506040880135925080831115614ad1578485fd5b5050614adf878288016141a7565b925050614a228660608701613fad565b6000808284036060811215614b02578283fd5b833592506040601f1982011215614b17578182fd5b50604051604081018181106001600160401b0382111715614b3457fe5b60409081526020858101358352940135938101939093525092909150565b60008060008060e08587031215614b67578182fd5b8435935060208501356001600160401b0380821115614b84578384fd5b614b9088838901614073565b94506040870135915080821115614ba5578384fd5b50614a12878288016141a7565b600080600060e08486031215614bc6578081fd5b8335925060208401356001600160401b03811115614be2578182fd5b614bee868287016141a7565b925050614bfe8560408601613fad565b90509250925092565b60008060408385031215614c19578182fd5b823591506020830135614c2b81615ae1565b809150509250929050565b60008060008060608587031215614c4b578182fd5b843593506020850135925060408501356001600160401b0380821115614c6f578384fd5b818701915087601f830112614c82578384fd5b813581811115614c90578485fd5b886020828501011115614ca1578485fd5b95989497505060200194505050565b6000806000806101008587031215614cc6578182fd5b843593506020850135925060408501356001600160401b03811115614ce9578283fd5b614adf878288016141a7565b6001600160a01b03169052565b6000815180845260208085019450808401835b83811015614d3b57614d28878351614f88565b6080969096019590820190600101614d15565b509495945050505050565b6000815180845260208085019450808401835b83811015614d3b5781518051600b8110614d6f57fe5b88528084015184890152604080820151151590890152606080820151614d97828b0182615158565b5050608080820151614dab828b0182614e39565b505060a080820151614dbf828b0182614e39565b505060c0818101519089015260e090810151908801526101009096019590820190600101614d59565b15159052565b60008151808452815b81811015614e1357602081850181015186830182015201614df7565b81811115614e245782602083870101525b50601f01601f19169290920160200192915050565b60020b9052565b805160038110614e4c57fe5b8252602081810151908301526040808201519083015260608082015190830152608090810151910152565b614e8a82614e858354615ad5565b614cf5565b60018101546001600160a01b03614ea660208501828416614cf5565b614ebb6040850162ffffff8460a01c16615165565b614ec86002840154615ad5565b9150614ed76060850183614cf5565b614ee46003840154615ad5565b9150614ef36080850183614cf5565b60048301549150614f0960a08501828416614cf5565b50614f1d60c0840160ff8360a01c16614de8565b50600581015460e0830152614f396101008301600683016150a2565b614f4a6102008301600e83016150a2565b60168101546103008301526017015461032090910152565b805182526020810151602083015260408101516040830152606081015160608301525050565b8051151582526001600160801b036020820151166020830152604081015160020b6040830152606081015160020b60608301525050565b600060c08301825184526020808401518186015260408401516040860152606084015160608601526080808501518187015260a085015160c060a088015283815180865260e08901915084830195508692505b8083101561503957615025828751614f88565b948401946001929092019190830190615012565b50979650505050505050565b80518252602090810151910152565b805182526020810151602083015260408101516040830152606081015160608301526080810151608083015260a081015160a083015260c081015160c083015260e081015160e08301525050565b8054825260018101546020830152600281015460408301526003810154606083015260048101546080830152600581015460a0830152600681015460c08301526007015460e090910152565b60006080830182518452602080840151818601526040840151604086015260608401516080606087015282815180855260a08801915083830194508592505b8083101561514d578451825293830193600192909201919083019061512d565b509695505050505050565b6001600160801b03169052565b62ffffff169052565b600292830b60e890811b82529190920b901b600382015260060190565b6001600160a01b0391909116815260200190565b6001600160a01b03929092168252602082015260400190565b60208082528251828201819052600091906040908185019080840286018301878501865b8381101561524657888303603f1901855281518051845287810151888501528681015187850152606080820151908501526080808201519085015260a09081015160c09185018290529061523281860183614d02565b9689019694505050908601906001016151dc565b509098975050505050505050565b600060a0820160a0835280885180835260c0850191506020925060c0838202860101838b01855b838110156152a95760bf19888403018552615297838351614fbf565b9486019492509085019060010161527b565b505098151592850192909252505050604081019390935260608301919091526001600160a01b0316608090910152919050565b6020808252825182820181905260009190848201906040850190845b8181101561531a57835163ffffffff16835292840192918401916001016152f8565b50909695505050505050565b901515815260200190565b941515855260208501939093526001600160a01b039190911660408401526060830152608082015260a00190565b600292830b8152910b602082015260400190565b90815260200190565b602080825260029082015261140d60f21b604082015260600190565b60208082526003908201526243483160e81b604082015260600190565b602080825260029082015261503160f01b604082015260600190565b602080825260029082015261503360f01b604082015260600190565b6020808252600290820152610a0760f31b604082015260600190565b60208082526003908201526221a41960e91b604082015260600190565b602080825260029082015261281960f11b604082015260600190565b6103408101610dc68284614e77565b928352815460208401526001820154604084015260028201546060840152600390910154608083015260a082015260c00190565b60006103c06154948389614e77565b806103408401526154a7818401886150ee565b905085610360840152846103808401528281036103a08401526154ca8185614d46565b98975050505050505050565b61010081016154e58285614f62565b610acb6080830184614f62565b600061010082019050825160020b8252602083015160020b60208301526001600160801b036040840151166040830152606083015160608301526080830151608083015260a083015160a083015260c083015160c083015260e083015160e083015292915050565b60006020825282516020830152602083015160408301526040830151606083015260608301516080830152608083015160a083015260a083015160c083015260c083015160e080840152611fe0610100840182614d02565b6000608082526155c56080830187614fbf565b9415156020830152506001600160a01b03929092166040830152606090910152919050565b600060208083526101a0830184518285015281850151604061560e81870183614e40565b80870151915061562160e0870183614e40565b6060878101516101808881015280519485905285019390925085906101c08801905b8083101561569e5785518051151583528781015188840152848101516001600160801b03168584015285810151868401526080808201519084015260a09081015190830152948601946001929092019160c090910190615643565b5098975050505050505050565b608081016156b98285615045565b610acb6040830184615045565b61020081016156d58285615054565b610acb610100830184615054565b6020808252825182820152828101516040808401919091528084015160608085019190915280850151608080860152805160a08601819052600094939184019285929160c08801905b8085101561569e5785518051805184528881015189850152850151858401528781015161575b85850182614f62565b5080850151805160e08501528881015161010085015280860151610120850152840151610140840152830151615795610160840182614f62565b506101e082019150868601955060018501945061572c565b6000602080835260a0830184518285015281850151604085015260408501516060850152606085015160808086015281815180845260c08701915084830193508592505b8083101561514d57835182529284019260019290920191908401906157f1565b60006103a0808352615825818401886150ee565b9150508460208301528360408301526121556060830184614e77565b600060e0825261585460e083018a6150ee565b88602084015287604084015286606084015282810360808401526158788187614d46565b60a084019590955250506001600160a01b039190911660c09091015295945050505050565b60006103c08083526158b1818401896150ee565b9150508560208301528460408301526158cd6060830185614e77565b6001600160a01b03929092166103a09190910152949350505050565b600087825286602083015285604083015284606083015260c0608083015261591460c0830185614d46565b82810360a0840152835115158152602084015115156020820152604084015115156040820152606084015161594c6060830182614de8565b506080840151608082015260a084015160a082015260c084015160e060c0830152612d1060e0830182614dee565b600086825285602083015260a0604083015261599960a0830186614d46565b606083019490945250608001529392505050565b6103a08082528554908201526001808601546103c083015260028601546103e083015260806104008301526003860180546104208401819052600091825260208083209293929091610440860190855b81811015615a185783548352928501929184019185016159fd565b5050918501889052509150615a3290506040830185614e77565b8261038083015295945050505050565b9182526001600160a01b0316602082015260400190565b83815260a08101615a6d6020830185615045565b611fe06060830184615045565b93845260208401929092526040830152606082015260800190565b6040518181016001600160401b0381118282101715615ab057fe5b604052919050565b60006001600160401b03821115615acb57fe5b5060209081020190565b6001600160a01b031690565b6001600160a01b0381168114611a7157600080fd5b8015158114611a7157600080fd5b600b8110611a7157600080fd5b8060020b8114611a7157600080fd5b6001600160801b0381168114611a7157600080fdfe496e697469616c697a61626c653a20636f6e747261637420697320616c726561647920696e697469616c697a6564536166654d6174683a206d756c7469706c69636174696f6e206f766572666c6f77a264697066735822122002fff706d06e8aa11108d81e25f4af98dd00c17bf3498fe4d3547b580919100664736f6c63430007060033",
  "deployedBytecode": "0x608060405234801561001057600080fd5b50600436106101cf5760003560e01c806386e6862d11610104578063e77bbb9a116100a2578063ef56d73d11610071578063ef56d73d14610431578063f3c3cc8914610444578063f46a647714610457578063ffdea55f1461046a576101cf565b8063e77bbb9a146103c6578063eb02c301146103e8578063ebd2665f14610408578063ec52ad081461041e576101cf565b8063ba4247b0116100de578063ba4247b014610378578063c3d2ca2d14610380578063d1e6419714610393578063d3487997146103b3576101cf565b806386e6862d1461033d5780639403b63414610345578063b3ab15fb14610365576101cf565b806346ed2e2711610171578063671148591161014b57806367114859146102e457806368715773146102f75780636f85ba9c1461030a57806385951bfe1461032a576101cf565b806346ed2e271461029657806351be57d3146102b7578063570ca735146102cf576101cf565b806330050fbd116101ad57806330050fbd1461022b5780633743d1421461024b5780633c678e14146102605780633e12971514610276576101cf565b8063013216f5146101d4578063127f0f07146101fd578063275892a214610216575b600080fd5b6101e76101e23660046144b3565b61047d565b6040516101f491906154f2565b60405180910390f35b610205610510565b6040516101f4959493929190615331565b61021e61053e565b6040516101f49190615373565b61023e6102393660046144b3565b610544565b6040516101f491906155ea565b61025e6102593660046144cb565b6106de565b005b610268610791565b6040516101f49291906154d6565b6102896102843660046144b3565b6107ee565b6040516101f49190615326565b6102a96102a4366004614bb2565b6108a5565b6040516101f49291906156ab565b6102bf6108dd565b6040516101f49493929190615a7a565b6102d76108ec565b6040516101f4919061518b565b61025e6102f2366004614570565b6108fb565b61025e610305366004614555565b61095e565b61031d6103183660046144b3565b6109a8565b6040516101f4919061555a565b6102a9610338366004614cb0565b610ad2565b6102d7610b5b565b6103586103533660046144b3565b610b78565b6040516101f491906157ad565b61025e61037336600461426f565b610c0c565b6102d7610c9f565b61021e61038e3660046144b3565b610d2a565b6103a66103a1366004614c07565b610dcc565b6040516101f491906156e3565b61025e6103c1366004614c36565b610efe565b6103d96103d4366004614b52565b610f55565b6040516101f493929190615a59565b6103fb6103f63660046144b3565b611028565b6040516101f491906151b8565b610410611033565b6040516101f49291906156c6565b61021e61042c3660046144cb565b6110f4565b6103d961043f3660046148c6565b611265565b6102a9610452366004614a2d565b6112d2565b61025e6104653660046145a5565b6113df565b61025e610478366004614aef565b611782565b6104856139ab565b50600081815260026020818152604092839020835161010081018552815480850b850b850b825263010000008104850b850b850b93820193909352600160301b9092046001600160801b03169382019390935260018301546060820152908201546080820152600382015460a0820152600482015460c082015260059091015460e08201525b919050565b600954600a54600854601b54601c54600160a01b90940460ff169492936001600160a01b0390921692909190565b60015481565b61054c6139ff565b600082815260046020908152604091829020825160808101845281548152835160a081019094526001820180549194929385019291829060ff16600281111561059157fe5b600281111561059c57fe5b81526020016001820154815260200160028201548152602001600382015481526020016004820154815250508152602001600682016040518060a00160405290816000820160009054906101000a900460ff1660028111156105fa57fe5b600281111561060557fe5b81526020016001820154815260200160028201548152602001600382015481526020016004820154815250508152602001600b8201805480602002602001604051908101604052809291908181526020016000905b828210156106d05760008481526020908190206040805160c08101825260068602909201805460ff16151583526001808201548486015260028201546001600160801b03169284019290925260038101546060840152600481015460808401526005015460a0830152908352909201910161065a565b505050915250909392505050565b602a546001600160a01b031633146107115760405162461bcd60e51b8152600401610708906153d1565b60405180910390fd5b601b5482118015906107255750601c548111155b6107415760405162461bcd60e51b8152600401610708906153ed565b601b80548390039055601c80548290039055811561077057600554610770906001600160a01b03163384611852565b801561078d5760065461078d906001600160a01b03163383611852565b5050565b60408051608080820183526021548252602254602080840191909152602354838501526024546060808501919091528451928301855260255483526026549183019190915260275493820193909352602854928101929092529082565b60006107f86119a0565b61080182611a34565b600082815260036020526040908190209051630d5e377d60e11b815273__$a1fa80d38d689cae49e54718da49b6432c$__91631abc6efa9161084e919060049060059060029083016159ad565b60206040518083038186803b15801561086657600080fd5b505af415801561087a573d6000803e3d6000fd5b505050506040513d601f19601f8201168201806040525081019061089e9190614497565b1592915050565b6108ad613a33565b6108b5613a33565b6108bd6119a0565b6108d1856108ca87611a74565b86866112d2565b91509150935093915050565b601d54601e54601f5460205484565b602a546001600160a01b031681565b602a546001600160a01b031633146109255760405162461bcd60e51b8152600401610708906153d1565b81516025556020808301516026556040808401516027556060938401516028558251602155908201516022558101516023550151602455565b602a546001600160a01b031633146109885760405162461bcd60e51b8152600401610708906153d1565b8051601d55602080820151601e556040820151601f556060909101519055565b6109b0613a4d565b60008281526003602081815260408084208151608081018352815481526001820154818501526002820154818401529381018054835181860281018601909452808452919360608601939290830182828015610a2b57602002820191906000526020600020905b815481526020019060010190808311610a17575b50505091909252505060405163149ccfa160e11b815291925073__$b4a4919001844372a79711112cfb20c2b9$__916329399f429150610a779084906004906002906005908301615811565b60006040518083038186803b158015610a8f57600080fd5b505af4158015610aa3573d6000803e3d6000fd5b505050506040513d6000823e601f3d908101601f19168201604052610acb9190810190614678565b9392505050565b610ada613a33565b610ae2613a33565b610aea6119a0565b604080516001808252818301909252600091816020015b610b09613a8a565b815260200190600190039081610b01579050509050610b288787611c5a565b81600081518110610b3557fe5b6020026020010181905250610b4c878287876112d2565b92509250505b94509492505050565b600854600090610b73906001600160a01b0316611fe8565b905090565b610b80613ac0565b6000828152600360208181526040928390208351608081018552815481526001820154818401526002820154818601529281018054855181850281018501909652808652939491936060860193830182828015610bfc57602002820191906000526020600020905b815481526020019060010190808311610be8575b5050505050815250509050919050565b602a546001600160a01b03163314610c365760405162461bcd60e51b8152600401610708906153d1565b6001600160a01b038116610c4957600080fd5b602a80546001600160a01b0319166001600160a01b0383161790556040517fb3b3f5f64ab192e4b5fefde1f51ce9733bbdcf831951543b325aebd49cc27ec490610c9490839061518b565b60405180910390a150565b6040516310fe062760e11b815260009073__$a1fa80d38d689cae49e54718da49b6432c$__906321fc0c4e90610cda90600590600401615442565b60206040518083038186803b158015610cf257600080fd5b505af4158015610d06573d6000803e3d6000fd5b505050506040513d601f19601f82011682018060405250810190610b73919061428b565b600081815260036020526040808220905163b7f22f3960e01b815273__$a1fa80d38d689cae49e54718da49b6432c$__9163b7f22f3991610d76919060049060059060029083016159ad565b60206040518083038186803b158015610d8e57600080fd5b505af4158015610da2573d6000803e3d6000fd5b505050506040513d601f19601f82011682018060405250810190610dc691906144ec565b92915050565b610dd4613ac0565b610ddc6119a0565b610de583611a34565b6000838152600360208181526040928390208351608081018552815481526001820154818401526002820154818601529281018054855181850281018501909652808652939491936060860193830182828015610e6157602002820191906000526020600020905b815481526020019060010190808311610e4d575b505050919092525050604051635d8d458360e11b815273__$b4a4919001844372a79711112cfb20c2b9$__9263bb1a8b069250610eaa916004906002906005908990840161589d565b60006040518083038186803b158015610ec257600080fd5b505af4158015610ed6573d6000803e3d6000fd5b505050506040513d6000823e601f3d908101601f19168201604052610acb9190810190614798565b6008546001600160a01b03163314610f1557600080fd5b8315610f3257600554610f32906001600160a01b03163386611852565b8215610f4f57600654610f4f906001600160a01b03163385611852565b50505050565b6000610f5f613a33565b610f67613a33565b600073__$7ffffda71c6e7abde662efb5427d8d1c5d$__6307927e4b888860600151610f91610b5b565b89604001516040518563ffffffff1660e01b8152600401610fb594939291906155b2565b60006040518083038186803b158015610fcd57600080fd5b505af4158015610fe1573d6000803e3d6000fd5b505050506040513d6000823e601f3d908101601f191682016040526110099190810190614367565b905061101788828888611265565b919a90995090975095505050505050565b6060610dc682611a74565b61103b613ae8565b611043613ae8565b5050604080516101008082018352600b548252600c54602080840191909152600d5483850152600e54606080850191909152600f5460808086019190915260105460a08087019190915260115460c08088019190915260125460e080890191909152885196870189526013548752601454958701959095526015549786019790975260165492850192909252601754908401526018549083015260195493820193909352601a549281019290925291565b60008281526002602052604081206005015461111257506000610dc6565b60408051610180810182526005546001600160a01b039081168252600654808216602080850191909152600160a01b9182900462ffffff16848601526007548316606080860191909152600854841660808087019190915260095494851660a0808801919091529390940460ff16151560c080870191909152600a5460e08088019190915287516101008082018a52600b548252600c5482870152600d54828b0152600e5482860152600f54828901526010548288015260115482850152601254828401528089019190915288519081018952601354815260145481860152601554818a015260165493810193909352601754958301959095526018549382019390935260195492810192909252601a5492820192909252610120830152601b54610140830152601c546101608301526000868152600290915291909120610acb9160219161125f610b5b565b86612068565b600061126f613a33565b611277613a33565b83606001518042111561129c5760405162461bcd60e51b815260040161070890615398565b6112a46119a0565b6112af88888861215e565b8751602089015193975091955093506112c791612311565b509450945094915050565b6112da613a33565b6112e2613a33565b8260800151804211156113075760405162461bcd60e51b815260040161070890615398565b600073__$7ffffda71c6e7abde662efb5427d8d1c5d$__6366d661788888606001518860400151896060015161133b610b5b565b6040518663ffffffff1660e01b815260040161135b959493929190615254565b60006040518083038186803b15801561137357600080fd5b505af4158015611387573d6000803e3d6000fd5b505050506040513d6000823e601f3d908101601f191682016040526113af9190810190614367565b90506113bc88828861215e565b875160208901519297509095506113d4925090612311565b505094509492505050565b600054610100900460ff16806113f857506113f8612352565b80611406575060005460ff16155b6114415760405162461bcd60e51b815260040180806020018281038252602e815260200180615b36602e913960400191505060405180910390fd5b600054610100900460ff1615801561146c576000805460ff1961ff0019909116610100171660011790555b6001600160a01b03821661147f57600080fd5b8560000151600560010160146101000a81548162ffffff021916908362ffffff1602179055508560200151600560000160006101000a8154816001600160a01b0302191690836001600160a01b031602179055508560400151600560010160006101000a8154816001600160a01b0302191690836001600160a01b031602179055508560600151600560040160146101000a81548160ff02191690831515021790555083600560020160006101000a8154816001600160a01b0302191690836001600160a01b0316021790555082600560040160006101000a8154816001600160a01b0302191690836001600160a01b0316021790555060006040518060600160405280600560000160009054906101000a90046001600160a01b03166001600160a01b03168152602001600560010160009054906101000a90046001600160a01b03166001600160a01b03168152602001600560010160149054906101000a900462ffffff1662ffffff1681525090506115fa8682612363565b600880546001600160a01b03199081166001600160a01b0393841617909155602b80549091169185169190911790556001600a55611638600b612447565b6116426013612447565b42600155602a80546001600160a01b0319163317905560055460405163095ea7b360e01b81526001600160a01b03919091169063095ea7b39061168d9088906000199060040161519f565b602060405180830381600087803b1580156116a757600080fd5b505af11580156116bb573d6000803e3d6000fd5b505050506040513d601f19601f820116820180604052508101906116df9190614497565b5060065460405163095ea7b360e01b81526001600160a01b039091169063095ea7b3906117149088906000199060040161519f565b602060405180830381600087803b15801561172e57600080fd5b505af1158015611742573d6000803e3d6000fd5b505050506040513d601f19601f820116820180604052508101906117669190614497565b5050801561177a576000805461ff00191690555b505050505050565b61178a6119a0565b600073__$7ffffda71c6e7abde662efb5427d8d1c5d$__6366d661786117af85611028565b60095485516020870151600160a01b90920460ff16916117cd610b5b565b6040518663ffffffff1660e01b81526004016117ed959493929190615254565b60006040518083038186803b15801561180557600080fd5b505af4158015611819573d6000803e3d6000fd5b505050506040513d6000823e601f3d908101601f191682016040526118419190810190614367565b905061184d838261245f565b505050565b604080516001600160a01b038481166024830152604480830185905283518084039091018152606490920183526020820180516001600160e01b031663a9059cbb60e01b1781529251825160009485949389169392918291908083835b602083106118ce5780518252601f1990920191602091820191016118af565b6001836020036101000a0380198251168184511680821785525050505050509050019150506000604051808303816000865af19150503d8060008114611930576040519150601f19603f3d011682016040523d82523d6000602084013e611935565b606091505b5091509150818015611963575080511580611963575080806020019051602081101561196057600080fd5b50515b611999576040805162461bcd60e51b815260206004820152600260248201526114d560f21b604482015290519081900360640190fd5b5050505050565b60015460405163725acfd160e01b815273__$d48eea142f8e4946a86e978d6ec5b9f014$__9163725acfd1916119df91600591601d9190600401615451565b60206040518083038186803b1580156119f757600080fd5b505af4158015611a0b573d6000803e3d6000fd5b505050506040513d601f19601f82011682018060405250810190611a2f91906144ec565b600155565b60408051600080825260208201909252611a7191839190611a6b565b611a58613b2d565b815260200190600190039081611a505790505b50612589565b50565b606060006003600084815260200190815260200160002060405180608001604052908160008201548152602001600182015481526020016002820154815260200160038201805480602002602001604051908101604052809291908181526020018280548015611b0357602002820191906000526020600020905b815481526020019060010190808311611aef575b50505091909252505060408051610180810182526005546001600160a01b03908116825260065480821660208085019190915262ffffff600160a01b9283900416848601526007548316606080860191909152600854841660808087019190915260095494851660a08088019190915260ff9490950493909316151560c080870191909152600a5460e08088019190915287516101008181018a52600b548252600c5482870152600d54828b0152600e5482860152600f548288015260105482890152601154828501526012548284015280890191909152885190810189526013548152601454948101949094526015549784019790975260165491830191909152601754928201929092526018549281019290925260195490820152601a5492810192909252610120810191909152601b54610140820152601c54610160820152919250610acb918391506004906002906126ce565b611c62613a8a565b60008381526003602081815260408084208151608081018352815481526001820154818501526002820154818401529381018054835181860281018601909452808452919360608601939290830182828015611cdd57602002820191906000526020600020905b815481526020019060010190808311611cc9575b5050505050815250509050611fe0836004600084606001518781518110611d0057fe5b6020026020010151815260200190815260200160002060405180608001604052908160008201548152602001600182016040518060a00160405290816000820160009054906101000a900460ff166002811115611d5957fe5b6002811115611d6457fe5b81526020016001820154815260200160028201548152602001600382015481526020016004820154815250508152602001600682016040518060a00160405290816000820160009054906101000a900460ff166002811115611dc257fe5b6002811115611dcd57fe5b81526020016001820154815260200160028201548152602001600382015481526020016004820154815250508152602001600b8201805480602002602001604051908101604052809291908181526020016000905b82821015611e985760008481526020908190206040805160c08101825260068602909201805460ff16151583526001808201548486015260028201546001600160801b03169284019290925260038101546060840152600481015460808401526005015460a08301529083529092019101611e22565b5050509152505060408051610180810182526005546001600160a01b03908116825260065480821660208085019190915262ffffff600160a01b9283900416848601526007548316606080860191909152600854841660808087019190915260095494851660a08088019190915260ff9490950493909316151560c080870191909152600a5460e08088019190915287516101008181018a52600b548252600c5482870152600d54828b0152600e5482860152600f548288015260105482890152601154828501526012548284015280890191909152885190810189526013548152601454948101949094526015549784019790975260165491830191909152601754928201929092526018549281019290925260195490820152601a5492810192909252610120810191909152601b54610140820152601c5461016082015260029061291e565b949350505050565b6000816001600160a01b0316633850c7bd6040518163ffffffff1660e01b815260040160e06040518083038186803b15801561202357600080fd5b505afa158015612037573d6000803e3d6000fd5b505050506040513d601f19601f8201168201806040525081019061205b9190614830565b5094979650505050505050565b60c08481015160808087015160408051610100810182528854600281810b810b810b835263010000008204810b810b810b6020840152600160301b9091046001600160801b031692820192909252600189015460608201529088015492810192909252600387015460a0830152600487015493820193909352600586015460e082015260009261215292916120ff918a9187612b71565b6040805160808101825260048b0154815260058b0154602082015260068b01549181019190915260078a0154606082015261213a9086612bef565b87548790600281810b9163010000009004900b612c64565b90505b95945050505050565b6000612168613a33565b612170613a33565b602b546040805163186e33a360e21b8152905188926001600160a01b0316916361b8ce8c9160048083019260209291908290030181600087803b1580156121b657600080fd5b505af11580156121ca573d6000803e3d6000fd5b505050506040513d601f19601f820116820180604052508101906121ee91906144ec565b811061220c5760405162461bcd60e51b815260040161070890615426565b6122168787612589565b6000612226888760400151612d1e565b604051636413e81f60e11b8152919650915060009073__$68d6cdd7134515db34cd8ee009462a2aba$__9063c827d03e906122719085906004906005906002908f908f9085016158e9565b6101006040518083038186803b15801561228a57600080fd5b505af415801561229e573d6000803e3d6000fd5b505050506040513d601f19601f820116820180604052508101906122c2919061471e565b805160608201519096509450905088612305578451600012806122e9575060008560200151135b6123055760405162461bcd60e51b81526004016107089061537c565b50505093509350939050565b600061231b610b5b565b6001600160a01b031690508083111580156123365750818111155b61184d5760405162461bcd60e51b815260040161070890615409565b600061235d30612ec2565b15905090565b600081602001516001600160a01b031682600001516001600160a01b03161061238b57600080fd5b50805160208083015160409384015184516001600160a01b0394851681850152939091168385015262ffffff166060808401919091528351808403820181526080840185528051908301206001600160f81b031960a085015294901b6bffffffffffffffffffffffff191660a183015260b58201939093527fe34f199b19b2b4f47f68442619d555527d244f78a3297ea89325f843f87b8b5460d5808301919091528251808303909101815260f5909101909152805191012090565b670de0b6b3a764000060048201819055600590910155565b602b546040805163186e33a360e21b8152905184926001600160a01b0316916361b8ce8c9160048083019260209291908290030181600087803b1580156124a557600080fd5b505af11580156124b9573d6000803e3d6000fd5b505050506040513d601f19601f820116820180604052508101906124dd91906144ec565b81106124fb5760405162461bcd60e51b815260040161070890615426565b6125058383612589565b6000838152600360205260409081902090516349b3bd7960e11b815273__$a1fa80d38d689cae49e54718da49b6432c$__916393677af29161255491906004908790600590600290840161597a565b60006040518083038186803b15801561256c57600080fd5b505af4158015612580573d6000803e3d6000fd5b50505050505050565b6000828152600360208181526040808420815160808101835281548152600182015481850152600282015481840152938101805483518186028101860190945280845291936060860193929083018282801561260457602002820191906000526020600020905b8154815260200190600101908083116125f0575b505050505081525050905073__$d48eea142f8e4946a86e978d6ec5b9f014$__63a5d330ad8260046002600587602161263b610b5b565b6040518863ffffffff1660e01b815260040161265d9796959493929190615841565b60006040518083038186803b15801561267557600080fd5b505af4158015612689573d6000803e3d6000fd5b5050604051637ce761e760e01b815273__$da03e66f624374a74ff67f4d42d7f52632$__9250637ce761e7915061255490600590859060049060029089908301615485565b60608460600151516001600160401b03811180156126eb57600080fd5b5060405190808252806020026020018201604052801561272557816020015b612712613a8a565b81526020019060019003908161270a5790505b50905060005b856060015151811015612915576128f6818660008960600151858151811061274f57fe5b6020026020010151815260200190815260200160002060405180608001604052908160008201548152602001600182016040518060a00160405290816000820160009054906101000a900460ff1660028111156127a857fe5b60028111156127b357fe5b81526020016001820154815260200160028201548152602001600382015481526020016004820154815250508152602001600682016040518060a00160405290816000820160009054906101000a900460ff16600281111561281157fe5b600281111561281c57fe5b81526020016001820154815260200160028201548152602001600382015481526020016004820154815250508152602001600b8201805480602002602001604051908101604052809291908181526020016000905b828210156128e75760008481526020908190206040805160c08101825260068602909201805460ff16151583526001808201548486015260028201546001600160801b03169284019290925260038101546060840152600481015460808401526005015460a08301529083529092019101612871565b5050505081525050868661291e565b82828151811061290257fe5b602090810291909101015260010161272b565b50949350505050565b612926613a8a565b60008460600151516001600160401b038111801561294357600080fd5b5060405190808252806020026020018201604052801561297d57816020015b61296a613b73565b8152602001906001900390816129625790505b50905060005b856060015151811015612ace576000866060015182815181106129a257fe5b60209081029190910181015181015160008181528883526040908190208151610100810183528154600281810b810b810b835263010000008204810b810b810b96830196909652600160301b90046001600160801b031681840152600182015460608083019190915294820154608080830191909152600383015460a0830152600483015460c083015260059092015460e08201528251918201909252928a0151805192945090929182919086908110612a5857fe5b6020026020010151600001511515815260200189606001518581518110612a7b57fe5b6020026020010151604001516001600160801b03168152602001826000015160020b8152602001826020015160020b815250848481518110612ab957fe5b60209081029190910101525050600101612983565b506040518060c00160405280878152602001612afc8760200151866101000151612ec890919063ffffffff16565b8152602001612b1d8760400151866101200151612ec890919063ffffffff16565b8152602001612b3e8760200151866101000151612f0c90919063ffffffff16565b8152602001612b5f8760400151866101200151612f0c90919063ffffffff16565b81526020019190915295945050505050565b600080612b88868686600001518760200151612f49565b9050670de0b6b3a7640000612bdd82612bd78960000160405180608001604052908160008201548152602001600182015481526020016002820154815260200160038201548152505087612bef565b90613011565b81612be457fe5b049695505050505050565b81516020830151600091908311612c1e57670de0b6b3a76400008460400151840281612c1757fe5b0401610acb565b670de0b6b3a7640000846040015185602001510281612c3957fe5b0481019050670de0b6b3a76400008460200151840385606001510281612c5b57fe5b04019392505050565b6000806000612c8d86612c768761306a565b612c7f8761306a565b670de0b6b3a764000061339c565b91509150612ca689876001600160a01b03168484613437565b9250612cc4670de0b6b3a7640000612cbe858a613011565b906134a6565b92506000612cdb8a886001600160a01b031661350d565b9050612d10612d09670de0b6b3a7640000612cbe8c612bd7612d0487662386f26fc10000613011565b6135d5565b8590613679565b9a9950505050505050505050565b60008083612dfb57602b546040516354ba0f2760e01b81526001600160a01b03909116906354ba0f2790612d5690339060040161518b565b602060405180830381600087803b158015612d7057600080fd5b505af1158015612d84573d6000803e3d6000fd5b505050506040513d601f19601f82011682018060405250810190612da891906144ec565b60008181526003602052604090819020829055519092507fbf3e9c93de94306b70ac5b9411edf475545815333bf651b894b9eada6482c59490612dee9084903390615a42565b60405180910390a1612eac565b602b546040516331a9108f60e11b815285935033916001600160a01b031690636352211e90612e2e908690600401615373565b60206040518083038186803b158015612e4657600080fd5b505afa158015612e5a573d6000803e3d6000fd5b505050506040513d601f19601f82011682018060405250810190612e7e919061428b565b6001600160a01b03161480612e905750825b612eac5760405162461bcd60e51b8152600401610708906153b5565b5060008181526003602052604090209250929050565b3b151590565b6000600182516002811115612ed957fe5b1415612f0157612efa82602001518460800151670de0b6b3a76400006136d3565b9050610dc6565b506020810151610dc6565b6000600182516002811115612f1d57fe5b1415612f3e57612efa82604001518460a00151670de0b6b3a76400006136d3565b506040810151610dc6565b6000806000612f598686866136f2565b9150915060008585604051602001612f7292919061516e565b60408051601f198184030181529181528151602092830120600081815260088c0190935291205490915083111580612fbd575060008181526008890160205260409020600101548211155b15612fce5760009350505050611fe0565b600081815260088901602052604090206001810154905490830390612ffd908503670de0b6b3a7640000613011565b8161300457fe5b0498975050505050505050565b60008261302057506000610dc6565b8282028284828161302d57fe5b0414610acb5760405162461bcd60e51b8152600401808060200182810382526021815260200180615b646021913960400191505060405180910390fd5b60008060008360020b12613081578260020b613089565b8260020b6000035b9050620d89e88111156130c7576040805162461bcd60e51b81526020600482015260016024820152601560fa1b604482015290519081900360640190fd5b6000600182166130db57600160801b6130ed565b6ffffcb933bd6fad37aa2d162d1a5940015b70ffffffffffffffffffffffffffffffffff1690506002821615613121576ffff97272373d413259a46990580e213a0260801c5b6004821615613140576ffff2e50f5f656932ef12357cf3c7fdcc0260801c5b600882161561315f576fffe5caca7e10e4e61c3624eaa0941cd00260801c5b601082161561317e576fffcb9843d60f6159c9db58835c9266440260801c5b602082161561319d576fff973b41fa98c081472e6896dfb254c00260801c5b60408216156131bc576fff2ea16466c96a3843ec78b326b528610260801c5b60808216156131db576ffe5dee046a99a2a811c461f1969c30530260801c5b6101008216156131fb576ffcbe86c7900a88aedcffc83b479aa3a40260801c5b61020082161561321b576ff987a7253ac413176f2b074cf7815e540260801c5b61040082161561323b576ff3392b0822b70005940c7a398e4b70f30260801c5b61080082161561325b576fe7159475a2c29b7443b29c7fa6e889d90260801c5b61100082161561327b576fd097f3bdfd2022b8845ad8f792aa58250260801c5b61200082161561329b576fa9f746462d870fdf8a65dc1f90e061e50260801c5b6140008216156132bb576f70d869a156d2a1b890bb3df62baf32f70260801c5b6180008216156132db576f31be135f97d08fd981231505542fcfa60260801c5b620100008216156132fc576f09aa508b5b7a84e1c677de54f3e99bc90260801c5b6202000082161561331c576e5d6af8dedb81196699c329225ee6040260801c5b6204000082161561333b576d2216e584f5fa1ea926041bedfe980260801c5b62080000821615613358576b048a170391f7dc42444e8fa20260801c5b60008460020b131561337357806000198161336f57fe5b0490505b64010000000081061561338757600161338a565b60005b60ff16602082901c0192505050919050565b600080836001600160a01b0316856001600160a01b031611156133bd579293925b846001600160a01b0316866001600160a01b0316116133e8576133e1858585613854565b9150610b52565b836001600160a01b0316866001600160a01b031610156134215761340d868585613854565b915061341a8587856138bd565b9050610b52565b61342c8585856138bd565b905094509492505050565b60008085156134835761345a8580670de0b6b3a7640000600160c01b5b046138fc565b905080613465575060015b8083670de0b6b3a7640000028161347857fe5b058401915050611fe0565b6134928586600160601b6138fc565b600160601b9085020583019150611fe09050565b60008082116134fc576040805162461bcd60e51b815260206004820152601a60248201527f536166654d6174683a206469766973696f6e206279207a65726f000000000000604482015290519081900360640190fd5b81838161350557fe5b049392505050565b6000821561356c5761352d8280670de0b6b3a7640000600160c01b613454565b90508061354b57506f4b3b4ca85a86c47a098a224000000000610dc6565b806f4b3b4ca85a86c47a098a2240000000008161356457fe5b049050613598565b600160601b6064670de0b6b3a764000061358b8586600160601b6138fc565b02028161359457fe5b0490505b6f4b3b4ca85a86c47a098a2240000000008111156135c757506f4b3b4ca85a86c47a098a224000000000610dc6565b80610dc65750600192915050565b60b581600160881b81106135ee5760409190911b9060801c5b6901000000000000000000811061360a5760209190911b9060401c5b6501000000000081106136225760109190911b9060201c5b630100000081106136385760089190911b9060101c5b62010000010260121c80820401600190811c80830401811c80830401811c80830401811c80830401811c80830401811c80830401901c908190048111900390565b600082820183811015610acb576040805162461bcd60e51b815260206004820152601b60248201527f536166654d6174683a206164646974696f6e206f766572666c6f770000000000604482015290519081900360640190fd5b8282028115158415858304851417166136eb57600080fd5b0492915050565b6040805160018082528183019092526000918291829160208083019080368337505060405163883bdbfd60e01b81529192506000916001600160a01b038916915063883bdbfd906137479085906004016152dc565b60006040518083038186803b15801561375f57600080fd5b505afa158015613773573d6000803e3d6000fd5b505050506040513d6000823e601f3d908101601f1916820160405261379b91908101906142a7565b915050806000815181106137ab57fe5b60200260200101516001600160a01b03169250866001600160a01b031663a38807f287876040518363ffffffff1660e01b81526004016137ec92919061535f565b60606040518083038186803b15801561380457600080fd5b505afa158015613818573d6000803e3d6000fd5b505050506040513d601f19601f8201168201806040525081019061383c9190614504565b506001600160a01b0316989397509295505050505050565b6000826001600160a01b0316846001600160a01b03161115613874579192915b836001600160a01b03166138ad606060ff16846001600160801b0316901b8686036001600160a01b0316866001600160a01b03166138fc565b816138b457fe5b04949350505050565b6000826001600160a01b0316846001600160a01b031611156138dd579192915b611fe0826001600160801b03168585036001600160a01b0316600160601b5b6000808060001985870986860292508281109083900303905080613932576000841161392757600080fd5b508290049050610acb565b80841161393e57600080fd5b6000848688096000868103871696879004966002600389028118808a02820302808a02820302808a02820302808a02820302808a02820302808a02909103029181900381900460010186841190950394909402919094039290920491909117919091029150509392505050565b604051806101000160405280600060020b8152602001600060020b815260200160006001600160801b0316815260200160008152602001600081526020016000815260200160008152602001600081525090565b604051806080016040528060008152602001613a19613b9a565b8152602001613a26613b9a565b8152602001606081525090565b604051806040016040528060008152602001600081525090565b6040518060e00160405280600081526020016000815260200160008152602001600081526020016000815260200160008152602001606081525090565b6040518060c001604052806000815260200160008152602001600081526020016000815260200160008152602001606081525090565b6040518060800160405280600081526020016000815260200160008152602001606081525090565b60405180610100016040528060008152602001600081526020016000815260200160008152602001600081526020016000815260200160008152602001600081525090565b604080516101008101909152806000815260006020820181905260408201819052606082018190526080820181905260a0820181905260c0820181905260e09091015290565b60408051608081018252600080825260208201819052918101829052606081019190915290565b6040805160a081019091528060008152602001600081526020016000815260200160008152602001600081525090565b803561050b81615ae1565b600082601f830112613be5578081fd5b81356020613bfa613bf583615ab8565b615a95565b82815281810190858301608080860288018501891015613c18578687fd5b865b86811015613ca95781838b031215613c30578788fd5b604080518381018181106001600160401b0382111715613c4c57fe5b82528435613c5981615af6565b815284880135613c6881615b20565b8189015284820135613c7981615b11565b8083830152506060915081850135613c9081615b11565b9181019190915285529385019391810191600101613c1a565b509198975050505050505050565b600082601f830112613cc7578081fd5b81516020613cd7613bf583615ab8565b82815281810190858301608080860288018501891015613cf5578687fd5b865b86811015613ca95781838b031215613d0d578788fd5b604080518381018181106001600160401b0382111715613d2957fe5b82528451613d3681615af6565b815284880151613d4581615b20565b8189015284820151613d5681615b11565b8083830152506060915081850151613d6d81615b11565b9181019190915285529385019391810191600101613cf7565b600082601f830112613d96578081fd5b81516020613da6613bf583615ab8565b828152818101908583016101e080860288018501891015613dc5578687fd5b865b86811015613ca957828a0382811215613dde578889fd5b60408051608081016001600160401b038282108183111715613dfc57fe5b8184526060851215613e0c578c8dfd5b60e0830194508185108186111715613e2057fe5b50838352865181528987015160a08301528683015160c08301528152613e498d60608801614102565b89820152613e5a8d60e08801614102565b82820152613e6c8d6101608801614102565b6060820152875250509385019391810191600101613dc7565b600082601f830112613e95578081fd5b81516020613ea5613bf583615ab8565b8281528181019085830183850287018401881015613ec1578586fd5b855b85811015613ee8578151613ed681615ae1565b84529284019290840190600101613ec3565b5090979650505050505050565b803561050b81615af6565b805161050b81615af6565b600082601f830112613f1b578081fd5b81356001600160401b03811115613f2e57fe5b613f41601f8201601f1916602001615a95565b818152846020838601011115613f55578283fd5b816020850160208301379081016020019190915292915050565b803561050b81615b04565b805161050b81615b04565b803561050b81615b11565b805161050b81615b11565b8051600681900b811461050b57600080fd5b600060a08284031215613fbe578081fd5b60405160a081018181106001600160401b0382111715613fda57fe5b806040525080915082358152602083013560208201526040830135604082015260608301356060820152608083013560808201525092915050565b600060808284031215614026578081fd5b604051608081018181106001600160401b038211171561404257fe5b8060405250809150823581526020830135602082015260408301356040820152606083013560608201525092915050565b600060c08284031215614084578081fd5b60405160c081016001600160401b0382821081831117156140a157fe5b81604052829350843583526020850135602084015260408501356040840152606085013560608401526080850135608084015260a08501359150808211156140e857600080fd5b506140f585828601613bd5565b60a0830152505092915050565b600060808284031215614113578081fd5b604051608081018181106001600160401b038211171561412f57fe5b8060405250809150825181526020830151602082015260408301516040820152606083015160608201525092915050565b600060408284031215614171578081fd5b604051604081018181106001600160401b038211171561418d57fe5b604052825181526020928301519281019290925250919050565b600060e082840312156141b8578081fd5b6141c260e0615a95565b90506141cd82613ef5565b81526141db60208301613ef5565b60208201526141ec60408301613ef5565b60408201526141fd60608301613ef5565b60608201526080820135608082015260a082013560a082015260c08201356001600160401b0381111561422f57600080fd5b61423b84828501613f0b565b60c08301525092915050565b803561050b81615b20565b805161050b81615b20565b805161ffff8116811461050b57600080fd5b600060208284031215614280578081fd5b8135610acb81615ae1565b60006020828403121561429c578081fd5b8151610acb81615ae1565b600080604083850312156142b9578081fd5b82516001600160401b03808211156142cf578283fd5b818501915085601f8301126142e2578283fd5b815160206142f2613bf583615ab8565b82815281810190858301838502870184018b101561430e578788fd5b8796505b848710156143375761432381613f9b565b835260019690960195918301918301614312565b5091880151919650909350505080821115614350578283fd5b5061435d85828601613e85565b9150509250929050565b60006020808385031215614379578182fd5b82516001600160401b038082111561438f578384fd5b818501915085601f8301126143a2578384fd5b81516143b0613bf582615ab8565b81815284810190848601610100808502870188018b10156143cf578889fd5b8896505b848710156144885780828c0312156143e9578889fd5b6040805182810181811089821117156143fe57fe5b825261440984613f7a565b8152898401518a82015261441e828501613f00565b8282015260609150614431828501614252565b8282015260809150614444828501613f90565b8282015260a09150614457828501613f90565b9181019190915260c0838101519082015260e0808401519082015284526001969096019592870192908101906143d3565b50909998505050505050505050565b6000602082840312156144a8578081fd5b8151610acb81615af6565b6000602082840312156144c4578081fd5b5035919050565b600080604083850312156144dd578182fd5b50508035926020909101359150565b6000602082840312156144fd578081fd5b5051919050565b600080600060608486031215614518578081fd5b61452184613f9b565b9250602084015161453181615ae1565b604085015190925063ffffffff8116811461454a578182fd5b809150509250925092565b600060808284031215614566578081fd5b610acb8383614015565b6000806101008385031215614583578182fd5b61458d8484614015565b915061459c8460808501614015565b90509250929050565b60008060008060008587036101008112156145be578384fd5b60808112156145cb578384fd5b50604051608081018181106001600160401b03821117156145e857fe5b604052863562ffffff811681146145fd578485fd5b8152602087013561460d81615ae1565b602082015261461e60408801613bca565b604082015261462f60608801613ef5565b6060820152945061464260808701613bca565b935061465060a08701613bca565b925061465e60c08701613bca565b915061466c60e08701613bca565b90509295509295909350565b600060208284031215614689578081fd5b81516001600160401b038082111561469f578283fd5b9083019060e082860312156146b2578283fd5b6146bc60e0615a95565b825181526020830151602082015260408301516040820152606083015160608201526080830151608082015260a083015160a082015260c083015182811115614703578485fd5b61470f87828601613cb7565b60c08301525095945050505050565b60006101008284031215614730578081fd5b604051608081018181106001600160401b038211171561474c57fe5b6040526147598484614160565b81526147688460408501614160565b602082015261477a8460808501614160565b604082015261478c8460c08501614160565b60608201529392505050565b6000602082840312156147a9578081fd5b81516001600160401b03808211156147bf578283fd5b90830190608082860312156147d2578283fd5b6040516080810181811083821117156147e757fe5b8060405250825181526020830151602082015260408301516040820152606083015182811115614815578485fd5b61482187828601613d86565b60608301525095945050505050565b600080600080600080600060e0888a03121561484a578485fd5b875161485581615ae1565b602089015190975061486681615b11565b95506148746040890161425d565b94506148826060890161425d565b93506148906080890161425d565b925060a088015160ff811681146148a5578283fd5b60c08901519092506148b681615af6565b8091505092959891949750929550565b60008060008060e085870312156148db578182fd5b843593506020808601356001600160401b03808211156148f9578485fd5b818801915088601f83011261490c578485fd5b813561491a613bf582615ab8565b81815284810190848601610100808502870188018e101561493957898afd5b8996505b848710156149ea5780828f03121561495357898afd5b60408051828101818110898211171561496857fe5b825261497384613f6f565b8152898401358a820152614988828501613ef5565b8282015261499860608501614247565b60608201526149a960808501613f85565b60808201526149ba60a08501613f85565b60a082015260c0848101359082015260e0808501359082015285525060019690960195928701929081019061493d565b509098505050506040880135925080831115614a04578485fd5b5050614a12878288016141a7565b925050614a228660608701614015565b905092959194509250565b6000806000806101008587031215614a43578182fd5b843593506020808601356001600160401b0380821115614a61578485fd5b818801915088601f830112614a74578485fd5b8135614a82613bf582615ab8565b81815284810190848601885b84811015614ab757614aa58e8984358a0101614073565b84529287019290870190600101614a8e565b509098505050506040880135925080831115614ad1578485fd5b5050614adf878288016141a7565b925050614a228660608701613fad565b6000808284036060811215614b02578283fd5b833592506040601f1982011215614b17578182fd5b50604051604081018181106001600160401b0382111715614b3457fe5b60409081526020858101358352940135938101939093525092909150565b60008060008060e08587031215614b67578182fd5b8435935060208501356001600160401b0380821115614b84578384fd5b614b9088838901614073565b94506040870135915080821115614ba5578384fd5b50614a12878288016141a7565b600080600060e08486031215614bc6578081fd5b8335925060208401356001600160401b03811115614be2578182fd5b614bee868287016141a7565b925050614bfe8560408601613fad565b90509250925092565b60008060408385031215614c19578182fd5b823591506020830135614c2b81615ae1565b809150509250929050565b60008060008060608587031215614c4b578182fd5b843593506020850135925060408501356001600160401b0380821115614c6f578384fd5b818701915087601f830112614c82578384fd5b813581811115614c90578485fd5b886020828501011115614ca1578485fd5b95989497505060200194505050565b6000806000806101008587031215614cc6578182fd5b843593506020850135925060408501356001600160401b03811115614ce9578283fd5b614adf878288016141a7565b6001600160a01b03169052565b6000815180845260208085019450808401835b83811015614d3b57614d28878351614f88565b6080969096019590820190600101614d15565b509495945050505050565b6000815180845260208085019450808401835b83811015614d3b5781518051600b8110614d6f57fe5b88528084015184890152604080820151151590890152606080820151614d97828b0182615158565b5050608080820151614dab828b0182614e39565b505060a080820151614dbf828b0182614e39565b505060c0818101519089015260e090810151908801526101009096019590820190600101614d59565b15159052565b60008151808452815b81811015614e1357602081850181015186830182015201614df7565b81811115614e245782602083870101525b50601f01601f19169290920160200192915050565b60020b9052565b805160038110614e4c57fe5b8252602081810151908301526040808201519083015260608082015190830152608090810151910152565b614e8a82614e858354615ad5565b614cf5565b60018101546001600160a01b03614ea660208501828416614cf5565b614ebb6040850162ffffff8460a01c16615165565b614ec86002840154615ad5565b9150614ed76060850183614cf5565b614ee46003840154615ad5565b9150614ef36080850183614cf5565b60048301549150614f0960a08501828416614cf5565b50614f1d60c0840160ff8360a01c16614de8565b50600581015460e0830152614f396101008301600683016150a2565b614f4a6102008301600e83016150a2565b60168101546103008301526017015461032090910152565b805182526020810151602083015260408101516040830152606081015160608301525050565b8051151582526001600160801b036020820151166020830152604081015160020b6040830152606081015160020b60608301525050565b600060c08301825184526020808401518186015260408401516040860152606084015160608601526080808501518187015260a085015160c060a088015283815180865260e08901915084830195508692505b8083101561503957615025828751614f88565b948401946001929092019190830190615012565b50979650505050505050565b80518252602090810151910152565b805182526020810151602083015260408101516040830152606081015160608301526080810151608083015260a081015160a083015260c081015160c083015260e081015160e08301525050565b8054825260018101546020830152600281015460408301526003810154606083015260048101546080830152600581015460a0830152600681015460c08301526007015460e090910152565b60006080830182518452602080840151818601526040840151604086015260608401516080606087015282815180855260a08801915083830194508592505b8083101561514d578451825293830193600192909201919083019061512d565b509695505050505050565b6001600160801b03169052565b62ffffff169052565b600292830b60e890811b82529190920b901b600382015260060190565b6001600160a01b0391909116815260200190565b6001600160a01b03929092168252602082015260400190565b60208082528251828201819052600091906040908185019080840286018301878501865b8381101561524657888303603f1901855281518051845287810151888501528681015187850152606080820151908501526080808201519085015260a09081015160c09185018290529061523281860183614d02565b9689019694505050908601906001016151dc565b509098975050505050505050565b600060a0820160a0835280885180835260c0850191506020925060c0838202860101838b01855b838110156152a95760bf19888403018552615297838351614fbf565b9486019492509085019060010161527b565b505098151592850192909252505050604081019390935260608301919091526001600160a01b0316608090910152919050565b6020808252825182820181905260009190848201906040850190845b8181101561531a57835163ffffffff16835292840192918401916001016152f8565b50909695505050505050565b901515815260200190565b941515855260208501939093526001600160a01b039190911660408401526060830152608082015260a00190565b600292830b8152910b602082015260400190565b90815260200190565b602080825260029082015261140d60f21b604082015260600190565b60208082526003908201526243483160e81b604082015260600190565b602080825260029082015261503160f01b604082015260600190565b602080825260029082015261503360f01b604082015260600190565b6020808252600290820152610a0760f31b604082015260600190565b60208082526003908201526221a41960e91b604082015260600190565b602080825260029082015261281960f11b604082015260600190565b6103408101610dc68284614e77565b928352815460208401526001820154604084015260028201546060840152600390910154608083015260a082015260c00190565b60006103c06154948389614e77565b806103408401526154a7818401886150ee565b905085610360840152846103808401528281036103a08401526154ca8185614d46565b98975050505050505050565b61010081016154e58285614f62565b610acb6080830184614f62565b600061010082019050825160020b8252602083015160020b60208301526001600160801b036040840151166040830152606083015160608301526080830151608083015260a083015160a083015260c083015160c083015260e083015160e083015292915050565b60006020825282516020830152602083015160408301526040830151606083015260608301516080830152608083015160a083015260a083015160c083015260c083015160e080840152611fe0610100840182614d02565b6000608082526155c56080830187614fbf565b9415156020830152506001600160a01b03929092166040830152606090910152919050565b600060208083526101a0830184518285015281850151604061560e81870183614e40565b80870151915061562160e0870183614e40565b6060878101516101808881015280519485905285019390925085906101c08801905b8083101561569e5785518051151583528781015188840152848101516001600160801b03168584015285810151868401526080808201519084015260a09081015190830152948601946001929092019160c090910190615643565b5098975050505050505050565b608081016156b98285615045565b610acb6040830184615045565b61020081016156d58285615054565b610acb610100830184615054565b6020808252825182820152828101516040808401919091528084015160608085019190915280850151608080860152805160a08601819052600094939184019285929160c08801905b8085101561569e5785518051805184528881015189850152850151858401528781015161575b85850182614f62565b5080850151805160e08501528881015161010085015280860151610120850152840151610140840152830151615795610160840182614f62565b506101e082019150868601955060018501945061572c565b6000602080835260a0830184518285015281850151604085015260408501516060850152606085015160808086015281815180845260c08701915084830193508592505b8083101561514d57835182529284019260019290920191908401906157f1565b60006103a0808352615825818401886150ee565b9150508460208301528360408301526121556060830184614e77565b600060e0825261585460e083018a6150ee565b88602084015287604084015286606084015282810360808401526158788187614d46565b60a084019590955250506001600160a01b039190911660c09091015295945050505050565b60006103c08083526158b1818401896150ee565b9150508560208301528460408301526158cd6060830185614e77565b6001600160a01b03929092166103a09190910152949350505050565b600087825286602083015285604083015284606083015260c0608083015261591460c0830185614d46565b82810360a0840152835115158152602084015115156020820152604084015115156040820152606084015161594c6060830182614de8565b506080840151608082015260a084015160a082015260c084015160e060c0830152612d1060e0830182614dee565b600086825285602083015260a0604083015261599960a0830186614d46565b606083019490945250608001529392505050565b6103a08082528554908201526001808601546103c083015260028601546103e083015260806104008301526003860180546104208401819052600091825260208083209293929091610440860190855b81811015615a185783548352928501929184019185016159fd565b5050918501889052509150615a3290506040830185614e77565b8261038083015295945050505050565b9182526001600160a01b0316602082015260400190565b83815260a08101615a6d6020830185615045565b611fe06060830184615045565b93845260208401929092526040830152606082015260800190565b6040518181016001600160401b0381118282101715615ab057fe5b604052919050565b60006001600160401b03821115615acb57fe5b5060209081020190565b6001600160a01b031690565b6001600160a01b0381168114611a7157600080fd5b8015158114611a7157600080fd5b600b8110611a7157600080fd5b8060020b8114611a7157600080fd5b6001600160801b0381168114611a7157600080fdfe496e697469616c697a61626c653a20636f6e747261637420697320616c726561647920696e697469616c697a6564536166654d6174683a206d756c7469706c69636174696f6e206f766572666c6f77a264697066735822122002fff706d06e8aa11108d81e25f4af98dd00c17bf3498fe4d3547b580919100664736f6c63430007060033",
  "libraries": {
    "UpdatePositionLogic": "0xa07183a20896b5f54807064796222642B34E4f84",
    "LiquidationLogic": "0xe6F220Df9488F4852164d167215d506f6AFcda29",
    "PositionUpdater": "0x885b70263A5E5D83A679126fD8EF944D005A7E5E",
    "VaultLib": "0xd4c931783D97f47e657b82cfC96fee1daea64C56",
    "PositionLib": "0x0854b03A3DCc55AC5F05A586827876faFac8867e",
    "InterestCalculator": "0x86fff4cD1C1B92Cb73CA139286810811FB1A7D43"
  },
  "devdoc": {
    "kind": "dev",
    "methods": {
      "calculateYearlyPremium(bytes32,uint256)": {
        "params": {
          "_rangeId": "The id of the range",
          "_utilizationRatio": "Utilization ratio of LPT"
        }
      },
      "checkLiquidatable(uint256)": {
        "params": {
          "_vaultId": "vault id"
        },
        "returns": {
          "_0": "isLiquidatable true if the vault is liquidatable, false if the vault is safe."
        }
      },
      "closePosition(uint256,(uint256,uint256,uint256,uint256,uint256,(bool,uint128,int24,int24)[])[],(bool,bool,bool,bool,int256,int256,bytes),(uint256,uint256,uint256,uint256,uint256))": {
        "params": {
          "_closePositionOptions": "Option parameters to close position",
          "_positions": "Positions to close",
          "_tradeOption": "Trade parameters",
          "_vaultId": "The id of the vault"
        }
      },
      "closeSubVault(uint256,uint256,(bool,bool,bool,bool,int256,int256,bytes),(uint256,uint256,uint256,uint256,uint256))": {
        "params": {
          "_closePositionOptions": "Option parameters to close position",
          "_subVaultIndex": "The index of the sub-vault",
          "_tradeOption": "Trade parameters",
          "_vaultId": "The id of the vault"
        }
      },
      "closeVault(uint256,(bool,bool,bool,bool,int256,int256,bytes),(uint256,uint256,uint256,uint256,uint256))": {
        "params": {
          "_closePositionOptions": "Option parameters to close position",
          "_tradeOption": "Trade parameters",
          "_vaultId": "The id of the vault"
        }
      },
      "getRange(bytes32)": {
        "params": {
          "_rangeId": "The id of the LPT"
        }
      },
      "getSubVault(uint256)": {
        "params": {
          "_subVaultId": "The id of the sub-vault"
        }
      },
      "getVault(uint256)": {
        "params": {
          "_vaultId": "The id of the vault"
        }
      },
      "getVaultStatus(uint256,uint160)": {
        "params": {
          "_vaultId": "The id of the vault"
        }
      },
      "liquidate(uint256,(uint256,uint256))": {
        "params": {
          "_liquidationOption": "option parameters for liquidation call",
          "_vaultId": "The id of the vault"
        }
      },
      "openPosition(uint256,(uint256,uint256,uint256,uint256,uint256,(bool,uint128,int24,int24)[]),(bool,bool,bool,bool,int256,int256,bytes),(uint256,uint256,uint256,uint256))": {
        "params": {
          "_openPositionOptions": "Option parameters to open position",
          "_position": "Position to open",
          "_tradeOption": "Trade parameters",
          "_vaultId": "The id of the vault. 0 means that it creates new vault."
        }
      },
      "setOperator(address)": {
        "details": "Only operator can call this function.",
        "params": {
          "_newOperator": "The address of new operator"
        }
      },
      "uniswapV3MintCallback(uint256,uint256,bytes)": {
        "details": "Callback for Uniswap V3 pool."
      },
      "updateIRMParams((uint256,uint256,uint256,uint256))": {
        "details": "Only operator can call this function.",
        "params": {
          "_irmParams": "New interest rate model parameter"
        }
      },
      "updateYearlyPremiumParams((uint256,uint256,uint256,uint256),(uint256,uint256,uint256,uint256))": {
        "details": "Only operator can call this function.",
        "params": {
          "_irmParams": "New interest rate model parameter",
          "_premiumParams": "New interest rate model parameter for variance calculation"
        }
      },
      "withdrawProtocolFee(uint256,uint256)": {
        "details": "Only operator can call this function.",
        "params": {
          "_amount0": "amount of token0 to withdraw",
          "_amount1": "amount of token1 to withdraw"
        }
      }
    },
    "version": 1
  },
  "userdoc": {
    "kind": "user",
    "methods": {
      "calculateYearlyPremium(bytes32,uint256)": {
        "notice": "Returns yearly premium to borrow Liquidity Provider Token (LPT). The function can return yearly premium with specific utilization ratio."
      },
      "checkLiquidatable(uint256)": {
        "notice": "Returns the flag whether a vault can be liquidated or not."
      },
      "closePosition(uint256,(uint256,uint256,uint256,uint256,uint256,(bool,uint128,int24,int24)[])[],(bool,bool,bool,bool,int256,int256,bytes),(uint256,uint256,uint256,uint256,uint256))": {
        "notice": "Closes position partially."
      },
      "closeSubVault(uint256,uint256,(bool,bool,bool,bool,int256,int256,bytes),(uint256,uint256,uint256,uint256,uint256))": {
        "notice": "Closes all positions in sub-vault."
      },
      "closeVault(uint256,(bool,bool,bool,bool,int256,int256,bytes),(uint256,uint256,uint256,uint256,uint256))": {
        "notice": "Closes all positions in a vault."
      },
      "getRange(bytes32)": {
        "notice": "Returns a Liquidity Provider Token (LPT) data"
      },
      "getSqrtPrice()": {
        "notice": "Gets square root of current underlying token price by quote token."
      },
      "getSubVault(uint256)": {
        "notice": "Returns a sub-vault data"
      },
      "getTokenState()": {
        "notice": "Returns the status of supplied tokens."
      },
      "getVault(uint256)": {
        "notice": "Returns a vault data"
      },
      "getVaultStatus(uint256,uint160)": {
        "notice": "Returns values and token amounts of the vault."
      },
      "liquidate(uint256,(uint256,uint256))": {
        "notice": "Liquidates a vault."
      },
      "openPosition(uint256,(uint256,uint256,uint256,uint256,uint256,(bool,uint128,int24,int24)[]),(bool,bool,bool,bool,int256,int256,bytes),(uint256,uint256,uint256,uint256))": {
        "notice": "Opens new position."
      },
      "setOperator(address)": {
        "notice": "Sets new operator"
      },
      "updateIRMParams((uint256,uint256,uint256,uint256))": {
        "notice": "Updates interest rate model parameter."
      },
      "updateYearlyPremiumParams((uint256,uint256,uint256,uint256),(uint256,uint256,uint256,uint256))": {
        "notice": "Updates interest rate model parameters for premium calculation."
      },
      "withdrawProtocolFee(uint256,uint256)": {
        "notice": "Withdraws accumulated protocol fee."
      }
    },
    "notice": "Error Codes P1: caller must be vault owner P2: vault does not exists P3: caller must be operator P4: cannot create vault with 0 amount",
    "version": 1
  },
  "storageLayout": {
    "storage": [
      {
        "astId": 1040,
        "contract": "src/Controller.sol:Controller",
        "label": "_initialized",
        "offset": 0,
        "slot": "0",
        "type": "t_bool"
      },
      {
        "astId": 1043,
        "contract": "src/Controller.sol:Controller",
        "label": "_initializing",
        "offset": 1,
        "slot": "0",
        "type": "t_bool"
      },
      {
        "astId": 6343,
        "contract": "src/Controller.sol:Controller",
        "label": "lastTouchedTimestamp",
        "offset": 0,
        "slot": "1",
        "type": "t_uint256"
      },
      {
        "astId": 6347,
        "contract": "src/Controller.sol:Controller",
        "label": "ranges",
        "offset": 0,
        "slot": "2",
        "type": "t_mapping(t_bytes32,t_struct(PerpStatus)9144_storage)"
      },
      {
        "astId": 6351,
        "contract": "src/Controller.sol:Controller",
        "label": "vaults",
        "offset": 0,
        "slot": "3",
        "type": "t_mapping(t_uint256,t_struct(Vault)9177_storage)"
      },
      {
        "astId": 6355,
        "contract": "src/Controller.sol:Controller",
        "label": "subVaults",
        "offset": 0,
        "slot": "4",
        "type": "t_mapping(t_uint256,t_struct(SubVault)9167_storage)"
      },
      {
        "astId": 6357,
        "contract": "src/Controller.sol:Controller",
        "label": "context",
        "offset": 0,
        "slot": "5",
        "type": "t_struct(Context)9202_storage"
      },
      {
        "astId": 6359,
        "contract": "src/Controller.sol:Controller",
        "label": "irmParams",
        "offset": 0,
        "slot": "29",
        "type": "t_struct(IRMParams)9442_storage"
      },
      {
        "astId": 6361,
        "contract": "src/Controller.sol:Controller",
        "label": "ypParams",
        "offset": 0,
        "slot": "33",
        "type": "t_struct(YearlyPremiumParams)9433_storage"
      },
      {
        "astId": 6363,
        "contract": "src/Controller.sol:Controller",
        "label": "operator",
        "offset": 0,
        "slot": "42",
        "type": "t_address"
      },
      {
        "astId": 6365,
        "contract": "src/Controller.sol:Controller",
        "label": "vaultNFT",
        "offset": 0,
        "slot": "43",
        "type": "t_address"
      }
    ],
    "types": {
      "t_address": {
        "encoding": "inplace",
        "label": "address",
        "numberOfBytes": "20"
      },
      "t_array(t_struct(LPTState)9157_storage)dyn_storage": {
        "base": "t_struct(LPTState)9157_storage",
        "encoding": "dynamic_array",
        "label": "struct DataType.LPTState[]",
        "numberOfBytes": "32"
      },
      "t_array(t_uint256)dyn_storage": {
        "base": "t_uint256",
        "encoding": "dynamic_array",
        "label": "uint256[]",
        "numberOfBytes": "32"
      },
      "t_bool": {
        "encoding": "inplace",
        "label": "bool",
        "numberOfBytes": "1"
      },
      "t_bytes32": {
        "encoding": "inplace",
        "label": "bytes32",
        "numberOfBytes": "32"
      },
      "t_enum(InterestType)8170": {
        "encoding": "inplace",
        "label": "enum BaseToken.InterestType",
        "numberOfBytes": "1"
      },
      "t_int24": {
        "encoding": "inplace",
        "label": "int24",
        "numberOfBytes": "3"
      },
      "t_int256": {
        "encoding": "inplace",
        "label": "int256",
        "numberOfBytes": "32"
      },
      "t_mapping(t_bytes32,t_struct(PerpStatus)9144_storage)": {
        "encoding": "mapping",
        "key": "t_bytes32",
        "label": "mapping(bytes32 => struct DataType.PerpStatus)",
        "numberOfBytes": "32",
        "value": "t_struct(PerpStatus)9144_storage"
      },
      "t_mapping(t_bytes32,t_struct(TickSnapshot)9419_storage)": {
        "encoding": "mapping",
        "key": "t_bytes32",
        "label": "mapping(bytes32 => struct InterestCalculator.TickSnapshot)",
        "numberOfBytes": "32",
        "value": "t_struct(TickSnapshot)9419_storage"
      },
      "t_mapping(t_uint256,t_struct(SubVault)9167_storage)": {
        "encoding": "mapping",
        "key": "t_uint256",
        "label": "mapping(uint256 => struct DataType.SubVault)",
        "numberOfBytes": "32",
        "value": "t_struct(SubVault)9167_storage"
      },
      "t_mapping(t_uint256,t_struct(Vault)9177_storage)": {
        "encoding": "mapping",
        "key": "t_uint256",
        "label": "mapping(uint256 => struct DataType.Vault)",
        "numberOfBytes": "32",
        "value": "t_struct(Vault)9177_storage"
      },
      "t_struct(AccountState)8198_storage": {
        "encoding": "inplace",
        "label": "struct BaseToken.AccountState",
        "members": [
          {
            "astId": 8189,
            "contract": "src/Controller.sol:Controller",
            "label": "interestType",
            "offset": 0,
            "slot": "0",
            "type": "t_enum(InterestType)8170"
          },
          {
            "astId": 8191,
            "contract": "src/Controller.sol:Controller",
            "label": "assetAmount",
            "offset": 0,
            "slot": "1",
            "type": "t_uint256"
          },
          {
            "astId": 8193,
            "contract": "src/Controller.sol:Controller",
            "label": "debtAmount",
            "offset": 0,
            "slot": "2",
            "type": "t_uint256"
          },
          {
            "astId": 8195,
            "contract": "src/Controller.sol:Controller",
            "label": "lastAssetGrowth",
            "offset": 0,
            "slot": "3",
            "type": "t_uint256"
          },
          {
            "astId": 8197,
            "contract": "src/Controller.sol:Controller",
            "label": "lastDebtGrowth",
            "offset": 0,
            "slot": "4",
            "type": "t_uint256"
          }
        ],
        "numberOfBytes": "160"
      },
      "t_struct(Context)9202_storage": {
        "encoding": "inplace",
        "label": "struct DataType.Context",
        "members": [
          {
            "astId": 9179,
            "contract": "src/Controller.sol:Controller",
            "label": "token0",
            "offset": 0,
            "slot": "0",
            "type": "t_address"
          },
          {
            "astId": 9181,
            "contract": "src/Controller.sol:Controller",
            "label": "token1",
            "offset": 0,
            "slot": "1",
            "type": "t_address"
          },
          {
            "astId": 9183,
            "contract": "src/Controller.sol:Controller",
            "label": "feeTier",
            "offset": 20,
            "slot": "1",
            "type": "t_uint24"
          },
          {
            "astId": 9185,
            "contract": "src/Controller.sol:Controller",
            "label": "swapRouter",
            "offset": 0,
            "slot": "2",
            "type": "t_address"
          },
          {
            "astId": 9187,
            "contract": "src/Controller.sol:Controller",
            "label": "uniswapPool",
            "offset": 0,
            "slot": "3",
            "type": "t_address"
          },
          {
            "astId": 9189,
            "contract": "src/Controller.sol:Controller",
            "label": "chainlinkPriceFeed",
            "offset": 0,
            "slot": "4",
            "type": "t_address"
          },
          {
            "astId": 9191,
            "contract": "src/Controller.sol:Controller",
            "label": "isMarginZero",
            "offset": 20,
            "slot": "4",
            "type": "t_bool"
          },
          {
            "astId": 9193,
            "contract": "src/Controller.sol:Controller",
            "label": "nextSubVaultId",
            "offset": 0,
            "slot": "5",
            "type": "t_uint256"
          },
          {
            "astId": 9195,
            "contract": "src/Controller.sol:Controller",
            "label": "tokenState0",
            "offset": 0,
            "slot": "6",
            "type": "t_struct(TokenState)8187_storage"
          },
          {
            "astId": 9197,
            "contract": "src/Controller.sol:Controller",
            "label": "tokenState1",
            "offset": 0,
            "slot": "14",
            "type": "t_struct(TokenState)8187_storage"
          },
          {
            "astId": 9199,
            "contract": "src/Controller.sol:Controller",
            "label": "accumuratedProtocolFee0",
            "offset": 0,
            "slot": "22",
            "type": "t_uint256"
          },
          {
            "astId": 9201,
            "contract": "src/Controller.sol:Controller",
            "label": "accumuratedProtocolFee1",
            "offset": 0,
            "slot": "23",
            "type": "t_uint256"
          }
        ],
        "numberOfBytes": "768"
      },
      "t_struct(IRMParams)9442_storage": {
        "encoding": "inplace",
        "label": "struct InterestCalculator.IRMParams",
        "members": [
          {
            "astId": 9435,
            "contract": "src/Controller.sol:Controller",
            "label": "baseRate",
            "offset": 0,
            "slot": "0",
            "type": "t_uint256"
          },
          {
            "astId": 9437,
            "contract": "src/Controller.sol:Controller",
            "label": "kinkRate",
            "offset": 0,
            "slot": "1",
            "type": "t_uint256"
          },
          {
            "astId": 9439,
            "contract": "src/Controller.sol:Controller",
            "label": "slope1",
            "offset": 0,
            "slot": "2",
            "type": "t_uint256"
          },
          {
            "astId": 9441,
            "contract": "src/Controller.sol:Controller",
            "label": "slope2",
            "offset": 0,
            "slot": "3",
            "type": "t_uint256"
          }
        ],
        "numberOfBytes": "128"
      },
      "t_struct(LPTState)9157_storage": {
        "encoding": "inplace",
        "label": "struct DataType.LPTState",
        "members": [
          {
            "astId": 9146,
            "contract": "src/Controller.sol:Controller",
            "label": "isCollateral",
            "offset": 0,
            "slot": "0",
            "type": "t_bool"
          },
          {
            "astId": 9148,
            "contract": "src/Controller.sol:Controller",
            "label": "rangeId",
            "offset": 0,
            "slot": "1",
            "type": "t_bytes32"
          },
          {
            "astId": 9150,
            "contract": "src/Controller.sol:Controller",
            "label": "liquidityAmount",
            "offset": 0,
            "slot": "2",
            "type": "t_uint128"
          },
          {
            "astId": 9152,
            "contract": "src/Controller.sol:Controller",
            "label": "premiumGrowthLast",
            "offset": 0,
            "slot": "3",
            "type": "t_uint256"
          },
          {
            "astId": 9154,
            "contract": "src/Controller.sol:Controller",
            "label": "fee0Last",
            "offset": 0,
            "slot": "4",
            "type": "t_uint256"
          },
          {
            "astId": 9156,
            "contract": "src/Controller.sol:Controller",
            "label": "fee1Last",
            "offset": 0,
            "slot": "5",
            "type": "t_uint256"
          }
        ],
        "numberOfBytes": "192"
      },
      "t_struct(PerpStatus)9144_storage": {
        "encoding": "inplace",
        "label": "struct DataType.PerpStatus",
        "members": [
          {
            "astId": 9129,
            "contract": "src/Controller.sol:Controller",
            "label": "lowerTick",
            "offset": 0,
            "slot": "0",
            "type": "t_int24"
          },
          {
            "astId": 9131,
            "contract": "src/Controller.sol:Controller",
            "label": "upperTick",
            "offset": 3,
            "slot": "0",
            "type": "t_int24"
          },
          {
            "astId": 9133,
            "contract": "src/Controller.sol:Controller",
            "label": "borrowedLiquidity",
            "offset": 6,
            "slot": "0",
            "type": "t_uint128"
          },
          {
            "astId": 9135,
            "contract": "src/Controller.sol:Controller",
            "label": "premiumGrowthForBorrower",
            "offset": 0,
            "slot": "1",
            "type": "t_uint256"
          },
          {
            "astId": 9137,
            "contract": "src/Controller.sol:Controller",
            "label": "premiumGrowthForLender",
            "offset": 0,
            "slot": "2",
            "type": "t_uint256"
          },
          {
            "astId": 9139,
            "contract": "src/Controller.sol:Controller",
            "label": "fee0Growth",
            "offset": 0,
            "slot": "3",
            "type": "t_uint256"
          },
          {
            "astId": 9141,
            "contract": "src/Controller.sol:Controller",
            "label": "fee1Growth",
            "offset": 0,
            "slot": "4",
            "type": "t_uint256"
          },
          {
            "astId": 9143,
            "contract": "src/Controller.sol:Controller",
            "label": "lastTouchedTimestamp",
            "offset": 0,
            "slot": "5",
            "type": "t_uint256"
          }
        ],
        "numberOfBytes": "192"
      },
      "t_struct(SubVault)9167_storage": {
        "encoding": "inplace",
        "label": "struct DataType.SubVault",
        "members": [
          {
            "astId": 9159,
            "contract": "src/Controller.sol:Controller",
            "label": "id",
            "offset": 0,
            "slot": "0",
            "type": "t_uint256"
          },
          {
            "astId": 9161,
            "contract": "src/Controller.sol:Controller",
            "label": "balance0",
            "offset": 0,
            "slot": "1",
            "type": "t_struct(AccountState)8198_storage"
          },
          {
            "astId": 9163,
            "contract": "src/Controller.sol:Controller",
            "label": "balance1",
            "offset": 0,
            "slot": "6",
            "type": "t_struct(AccountState)8198_storage"
          },
          {
            "astId": 9166,
            "contract": "src/Controller.sol:Controller",
            "label": "lpts",
            "offset": 0,
            "slot": "11",
            "type": "t_array(t_struct(LPTState)9157_storage)dyn_storage"
          }
        ],
        "numberOfBytes": "384"
      },
      "t_struct(TickSnapshot)9419_storage": {
        "encoding": "inplace",
        "label": "struct InterestCalculator.TickSnapshot",
        "members": [
          {
            "astId": 9416,
            "contract": "src/Controller.sol:Controller",
            "label": "lastSecondsPerLiquidityInside",
            "offset": 0,
            "slot": "0",
            "type": "t_uint256"
          },
          {
            "astId": 9418,
            "contract": "src/Controller.sol:Controller",
            "label": "lastSecondsPerLiquidity",
            "offset": 0,
            "slot": "1",
            "type": "t_uint256"
          }
        ],
        "numberOfBytes": "64"
      },
      "t_struct(TokenState)8187_storage": {
        "encoding": "inplace",
        "label": "struct BaseToken.TokenState",
        "members": [
          {
            "astId": 8172,
            "contract": "src/Controller.sol:Controller",
            "label": "totalCompoundDeposited",
            "offset": 0,
            "slot": "0",
            "type": "t_uint256"
          },
          {
            "astId": 8174,
            "contract": "src/Controller.sol:Controller",
            "label": "totalCompoundBorrowed",
            "offset": 0,
            "slot": "1",
            "type": "t_uint256"
          },
          {
            "astId": 8176,
            "contract": "src/Controller.sol:Controller",
            "label": "totalNormalDeposited",
            "offset": 0,
            "slot": "2",
            "type": "t_uint256"
          },
          {
            "astId": 8178,
            "contract": "src/Controller.sol:Controller",
            "label": "totalNormalBorrowed",
            "offset": 0,
            "slot": "3",
            "type": "t_uint256"
          },
          {
            "astId": 8180,
            "contract": "src/Controller.sol:Controller",
            "label": "assetScaler",
            "offset": 0,
            "slot": "4",
            "type": "t_uint256"
          },
          {
            "astId": 8182,
            "contract": "src/Controller.sol:Controller",
            "label": "debtScaler",
            "offset": 0,
            "slot": "5",
            "type": "t_uint256"
          },
          {
            "astId": 8184,
            "contract": "src/Controller.sol:Controller",
            "label": "assetGrowth",
            "offset": 0,
            "slot": "6",
            "type": "t_uint256"
          },
          {
            "astId": 8186,
            "contract": "src/Controller.sol:Controller",
            "label": "debtGrowth",
            "offset": 0,
            "slot": "7",
            "type": "t_uint256"
          }
        ],
        "numberOfBytes": "256"
      },
      "t_struct(Vault)9177_storage": {
        "encoding": "inplace",
        "label": "struct DataType.Vault",
        "members": [
          {
            "astId": 9169,
            "contract": "src/Controller.sol:Controller",
            "label": "vaultId",
            "offset": 0,
            "slot": "0",
            "type": "t_uint256"
          },
          {
            "astId": 9171,
            "contract": "src/Controller.sol:Controller",
            "label": "marginAmount0",
            "offset": 0,
            "slot": "1",
            "type": "t_int256"
          },
          {
            "astId": 9173,
            "contract": "src/Controller.sol:Controller",
            "label": "marginAmount1",
            "offset": 0,
            "slot": "2",
            "type": "t_int256"
          },
          {
            "astId": 9176,
            "contract": "src/Controller.sol:Controller",
            "label": "subVaults",
            "offset": 0,
            "slot": "3",
            "type": "t_array(t_uint256)dyn_storage"
          }
        ],
        "numberOfBytes": "128"
      },
      "t_struct(YearlyPremiumParams)9433_storage": {
        "encoding": "inplace",
        "label": "struct InterestCalculator.YearlyPremiumParams",
        "members": [
          {
            "astId": 9426,
            "contract": "src/Controller.sol:Controller",
            "label": "premiumParams",
            "offset": 0,
            "slot": "0",
            "type": "t_struct(IRMParams)9442_storage"
          },
          {
            "astId": 9428,
            "contract": "src/Controller.sol:Controller",
            "label": "irmParams",
            "offset": 0,
            "slot": "4",
            "type": "t_struct(IRMParams)9442_storage"
          },
          {
            "astId": 9432,
            "contract": "src/Controller.sol:Controller",
            "label": "snapshots",
            "offset": 0,
            "slot": "8",
            "type": "t_mapping(t_bytes32,t_struct(TickSnapshot)9419_storage)"
          }
        ],
        "numberOfBytes": "288"
      },
      "t_uint128": {
        "encoding": "inplace",
        "label": "uint128",
        "numberOfBytes": "16"
      },
      "t_uint24": {
        "encoding": "inplace",
        "label": "uint24",
        "numberOfBytes": "3"
      },
      "t_uint256": {
        "encoding": "inplace",
        "label": "uint256",
        "numberOfBytes": "32"
      }
    }
  }
}