{
  "address": "0xd10Ac7772E0f86FcF22Ff1C4633021EA5e2110cB",
  "abi": [
    {
      "inputs": [],
      "stateMutability": "nonpayable",
      "type": "constructor"
    },
    {
      "anonymous": false,
      "inputs": [
        {
          "indexed": false,
          "internalType": "address",
          "name": "operator",
          "type": "address"
        }
      ],
      "name": "OperatorUpdated",
      "type": "event"
    },
    {
      "anonymous": false,
      "inputs": [
        {
          "indexed": false,
          "internalType": "uint256",
          "name": "vaultId",
          "type": "uint256"
        },
        {
          "indexed": false,
          "internalType": "address",
          "name": "owner",
          "type": "address"
        }
      ],
      "name": "VaultCreated",
      "type": "event"
    },
    {
      "inputs": [
        {
          "internalType": "uint256",
          "name": "_vaultId",
          "type": "uint256"
        }
      ],
      "name": "checkLiquidatable",
      "outputs": [
        {
          "internalType": "bool",
          "name": "",
          "type": "bool"
        }
      ],
      "stateMutability": "nonpayable",
      "type": "function"
    },
    {
      "inputs": [
        {
          "internalType": "uint256",
          "name": "_vaultId",
          "type": "uint256"
        },
        {
          "components": [
            {
              "internalType": "uint256",
              "name": "subVaultIndex",
              "type": "uint256"
            },
            {
              "internalType": "uint256",
              "name": "asset0",
              "type": "uint256"
            },
            {
              "internalType": "uint256",
              "name": "asset1",
              "type": "uint256"
            },
            {
              "internalType": "uint256",
              "name": "debt0",
              "type": "uint256"
            },
            {
              "internalType": "uint256",
              "name": "debt1",
              "type": "uint256"
            },
            {
              "components": [
                {
                  "internalType": "bool",
                  "name": "isCollateral",
                  "type": "bool"
                },
                {
                  "internalType": "uint128",
                  "name": "liquidity",
                  "type": "uint128"
                },
                {
                  "internalType": "int24",
                  "name": "lowerTick",
                  "type": "int24"
                },
                {
                  "internalType": "int24",
                  "name": "upperTick",
                  "type": "int24"
                }
              ],
              "internalType": "struct DataType.LPT[]",
              "name": "lpts",
              "type": "tuple[]"
            }
          ],
          "internalType": "struct DataType.Position[]",
          "name": "_positions",
          "type": "tuple[]"
        },
        {
          "components": [
            {
              "internalType": "bool",
              "name": "isLiquidationCall",
              "type": "bool"
            },
            {
              "internalType": "bool",
              "name": "swapAnyway",
              "type": "bool"
            },
            {
              "internalType": "bool",
              "name": "quoterMode",
              "type": "bool"
            },
            {
              "internalType": "bool",
              "name": "isQuoteZero",
              "type": "bool"
            },
            {
              "internalType": "uint8",
              "name": "marginMode0",
              "type": "uint8"
            },
            {
              "internalType": "uint8",
              "name": "marginMode1",
              "type": "uint8"
            },
            {
              "internalType": "int256",
              "name": "deltaMarginAmount0",
              "type": "int256"
            },
            {
              "internalType": "int256",
              "name": "deltaMarginAmount1",
              "type": "int256"
            },
            {
              "internalType": "bytes",
              "name": "metadata",
              "type": "bytes"
            }
          ],
          "internalType": "struct DataType.TradeOption",
          "name": "_tradeOption",
          "type": "tuple"
        },
        {
          "components": [
            {
              "internalType": "uint256",
              "name": "lowerSqrtPrice",
              "type": "uint256"
            },
            {
              "internalType": "uint256",
              "name": "upperSqrtPrice",
              "type": "uint256"
            },
            {
              "internalType": "uint256",
              "name": "swapRatio",
              "type": "uint256"
            },
            {
              "internalType": "uint256",
              "name": "closeRatio",
              "type": "uint256"
            },
            {
              "internalType": "uint256",
              "name": "deadline",
              "type": "uint256"
            }
          ],
          "internalType": "struct DataType.ClosePositionOption",
          "name": "_closePositionOptions",
          "type": "tuple"
        }
      ],
      "name": "closePosition",
      "outputs": [
        {
          "components": [
            {
              "internalType": "int256",
              "name": "amount0",
              "type": "int256"
            },
            {
              "internalType": "int256",
              "name": "amount1",
              "type": "int256"
            }
          ],
          "internalType": "struct DataType.TokenAmounts",
          "name": "requiredAmounts",
          "type": "tuple"
        },
        {
          "components": [
            {
              "internalType": "int256",
              "name": "amount0",
              "type": "int256"
            },
            {
              "internalType": "int256",
              "name": "amount1",
              "type": "int256"
            }
          ],
          "internalType": "struct DataType.TokenAmounts",
          "name": "swapAmounts",
          "type": "tuple"
        }
      ],
      "stateMutability": "nonpayable",
      "type": "function"
    },
    {
      "inputs": [
        {
          "internalType": "uint256",
          "name": "_vaultId",
          "type": "uint256"
        },
        {
          "internalType": "uint256",
          "name": "_subVaultIndex",
          "type": "uint256"
        },
        {
          "components": [
            {
              "internalType": "bool",
              "name": "isLiquidationCall",
              "type": "bool"
            },
            {
              "internalType": "bool",
              "name": "swapAnyway",
              "type": "bool"
            },
            {
              "internalType": "bool",
              "name": "quoterMode",
              "type": "bool"
            },
            {
              "internalType": "bool",
              "name": "isQuoteZero",
              "type": "bool"
            },
            {
              "internalType": "uint8",
              "name": "marginMode0",
              "type": "uint8"
            },
            {
              "internalType": "uint8",
              "name": "marginMode1",
              "type": "uint8"
            },
            {
              "internalType": "int256",
              "name": "deltaMarginAmount0",
              "type": "int256"
            },
            {
              "internalType": "int256",
              "name": "deltaMarginAmount1",
              "type": "int256"
            },
            {
              "internalType": "bytes",
              "name": "metadata",
              "type": "bytes"
            }
          ],
          "internalType": "struct DataType.TradeOption",
          "name": "_tradeOption",
          "type": "tuple"
        },
        {
          "components": [
            {
              "internalType": "uint256",
              "name": "lowerSqrtPrice",
              "type": "uint256"
            },
            {
              "internalType": "uint256",
              "name": "upperSqrtPrice",
              "type": "uint256"
            },
            {
              "internalType": "uint256",
              "name": "swapRatio",
              "type": "uint256"
            },
            {
              "internalType": "uint256",
              "name": "closeRatio",
              "type": "uint256"
            },
            {
              "internalType": "uint256",
              "name": "deadline",
              "type": "uint256"
            }
          ],
          "internalType": "struct DataType.ClosePositionOption",
          "name": "_closePositionOptions",
          "type": "tuple"
        }
      ],
      "name": "closeSubVault",
      "outputs": [
        {
          "components": [
            {
              "internalType": "int256",
              "name": "amount0",
              "type": "int256"
            },
            {
              "internalType": "int256",
              "name": "amount1",
              "type": "int256"
            }
          ],
          "internalType": "struct DataType.TokenAmounts",
          "name": "requiredAmounts",
          "type": "tuple"
        },
        {
          "components": [
            {
              "internalType": "int256",
              "name": "amount0",
              "type": "int256"
            },
            {
              "internalType": "int256",
              "name": "amount1",
              "type": "int256"
            }
          ],
          "internalType": "struct DataType.TokenAmounts",
          "name": "swapAmounts",
          "type": "tuple"
        }
      ],
      "stateMutability": "nonpayable",
      "type": "function"
    },
    {
      "inputs": [
        {
          "internalType": "uint256",
          "name": "_vaultId",
          "type": "uint256"
        },
        {
          "components": [
            {
              "internalType": "bool",
              "name": "isLiquidationCall",
              "type": "bool"
            },
            {
              "internalType": "bool",
              "name": "swapAnyway",
              "type": "bool"
            },
            {
              "internalType": "bool",
              "name": "quoterMode",
              "type": "bool"
            },
            {
              "internalType": "bool",
              "name": "isQuoteZero",
              "type": "bool"
            },
            {
              "internalType": "uint8",
              "name": "marginMode0",
              "type": "uint8"
            },
            {
              "internalType": "uint8",
              "name": "marginMode1",
              "type": "uint8"
            },
            {
              "internalType": "int256",
              "name": "deltaMarginAmount0",
              "type": "int256"
            },
            {
              "internalType": "int256",
              "name": "deltaMarginAmount1",
              "type": "int256"
            },
            {
              "internalType": "bytes",
              "name": "metadata",
              "type": "bytes"
            }
          ],
          "internalType": "struct DataType.TradeOption",
          "name": "_tradeOption",
          "type": "tuple"
        },
        {
          "components": [
            {
              "internalType": "uint256",
              "name": "lowerSqrtPrice",
              "type": "uint256"
            },
            {
              "internalType": "uint256",
              "name": "upperSqrtPrice",
              "type": "uint256"
            },
            {
              "internalType": "uint256",
              "name": "swapRatio",
              "type": "uint256"
            },
            {
              "internalType": "uint256",
              "name": "closeRatio",
              "type": "uint256"
            },
            {
              "internalType": "uint256",
              "name": "deadline",
              "type": "uint256"
            }
          ],
          "internalType": "struct DataType.ClosePositionOption",
          "name": "_closePositionOptions",
          "type": "tuple"
        }
      ],
      "name": "closeVault",
      "outputs": [
        {
          "components": [
            {
              "internalType": "int256",
              "name": "amount0",
              "type": "int256"
            },
            {
              "internalType": "int256",
              "name": "amount1",
              "type": "int256"
            }
          ],
          "internalType": "struct DataType.TokenAmounts",
          "name": "requiredAmounts",
          "type": "tuple"
        },
        {
          "components": [
            {
              "internalType": "int256",
              "name": "amount0",
              "type": "int256"
            },
            {
              "internalType": "int256",
              "name": "amount1",
              "type": "int256"
            }
          ],
          "internalType": "struct DataType.TokenAmounts",
          "name": "swapAmounts",
          "type": "tuple"
        }
      ],
      "stateMutability": "nonpayable",
      "type": "function"
    },
    {
      "inputs": [],
      "name": "getContext",
      "outputs": [
        {
          "internalType": "bool",
          "name": "",
          "type": "bool"
        },
        {
          "internalType": "uint256",
          "name": "",
          "type": "uint256"
        },
        {
          "internalType": "address",
          "name": "",
          "type": "address"
        },
        {
          "internalType": "uint256",
          "name": "",
          "type": "uint256"
        },
        {
          "internalType": "uint256",
          "name": "",
          "type": "uint256"
        }
      ],
      "stateMutability": "view",
      "type": "function"
    },
    {
      "inputs": [
        {
          "internalType": "uint256",
          "name": "_vaultId",
          "type": "uint256"
        }
      ],
      "name": "getPosition",
      "outputs": [
        {
          "components": [
            {
              "internalType": "uint256",
              "name": "subVaultIndex",
              "type": "uint256"
            },
            {
              "internalType": "uint256",
              "name": "asset0",
              "type": "uint256"
            },
            {
              "internalType": "uint256",
              "name": "asset1",
              "type": "uint256"
            },
            {
              "internalType": "uint256",
              "name": "debt0",
              "type": "uint256"
            },
            {
              "internalType": "uint256",
              "name": "debt1",
              "type": "uint256"
            },
            {
              "components": [
                {
                  "internalType": "bool",
                  "name": "isCollateral",
                  "type": "bool"
                },
                {
                  "internalType": "uint128",
                  "name": "liquidity",
                  "type": "uint128"
                },
                {
                  "internalType": "int24",
                  "name": "lowerTick",
                  "type": "int24"
                },
                {
                  "internalType": "int24",
                  "name": "upperTick",
                  "type": "int24"
                }
              ],
              "internalType": "struct DataType.LPT[]",
              "name": "lpts",
              "type": "tuple[]"
            }
          ],
          "internalType": "struct DataType.Position[]",
          "name": "",
          "type": "tuple[]"
        }
      ],
      "stateMutability": "view",
      "type": "function"
    },
    {
      "inputs": [
        {
          "internalType": "uint256",
          "name": "_vaultId",
          "type": "uint256"
        }
      ],
      "name": "getPositionCalculatorParams",
      "outputs": [
        {
          "components": [
            {
              "internalType": "int256",
              "name": "marginAmount0",
              "type": "int256"
            },
            {
              "internalType": "int256",
              "name": "marginAmount1",
              "type": "int256"
            },
            {
              "internalType": "uint256",
              "name": "asset0",
              "type": "uint256"
            },
            {
              "internalType": "uint256",
              "name": "asset1",
              "type": "uint256"
            },
            {
              "internalType": "uint256",
              "name": "debt0",
              "type": "uint256"
            },
            {
              "internalType": "uint256",
              "name": "debt1",
              "type": "uint256"
            },
            {
              "components": [
                {
                  "internalType": "bool",
                  "name": "isCollateral",
                  "type": "bool"
                },
                {
                  "internalType": "uint128",
                  "name": "liquidity",
                  "type": "uint128"
                },
                {
                  "internalType": "int24",
                  "name": "lowerTick",
                  "type": "int24"
                },
                {
                  "internalType": "int24",
                  "name": "upperTick",
                  "type": "int24"
                }
              ],
              "internalType": "struct DataType.LPT[]",
              "name": "lpts",
              "type": "tuple[]"
            }
          ],
          "internalType": "struct PositionCalculator.PositionCalculatorParams",
          "name": "",
          "type": "tuple"
        }
      ],
      "stateMutability": "view",
      "type": "function"
    },
    {
      "inputs": [
        {
          "internalType": "bytes32",
          "name": "_rangeId",
          "type": "bytes32"
        }
      ],
      "name": "getRange",
      "outputs": [
        {
          "components": [
            {
              "internalType": "int24",
              "name": "lowerTick",
              "type": "int24"
            },
            {
              "internalType": "int24",
              "name": "upperTick",
              "type": "int24"
            },
            {
              "internalType": "uint128",
              "name": "borrowedLiquidity",
              "type": "uint128"
            },
            {
              "internalType": "uint256",
              "name": "premiumGrowthForBorrower",
              "type": "uint256"
            },
            {
              "internalType": "uint256",
              "name": "premiumGrowthForLender",
              "type": "uint256"
            },
            {
              "internalType": "uint256",
              "name": "fee0Growth",
              "type": "uint256"
            },
            {
              "internalType": "uint256",
              "name": "fee1Growth",
              "type": "uint256"
            },
            {
              "internalType": "uint256",
              "name": "lastTouchedTimestamp",
              "type": "uint256"
            }
          ],
          "internalType": "struct DataType.PerpStatus",
          "name": "",
          "type": "tuple"
        }
      ],
      "stateMutability": "nonpayable",
      "type": "function"
    },
    {
      "inputs": [],
      "name": "getSqrtIndexPrice",
      "outputs": [
        {
          "internalType": "uint160",
          "name": "",
          "type": "uint160"
        }
      ],
      "stateMutability": "view",
      "type": "function"
    },
    {
      "inputs": [],
      "name": "getSqrtPrice",
      "outputs": [
        {
          "internalType": "uint160",
          "name": "sqrtPriceX96",
          "type": "uint160"
        }
      ],
      "stateMutability": "view",
      "type": "function"
    },
    {
      "inputs": [
        {
          "internalType": "uint256",
          "name": "_subVaultId",
          "type": "uint256"
        }
      ],
      "name": "getSubVault",
      "outputs": [
        {
          "components": [
            {
              "internalType": "uint256",
              "name": "id",
              "type": "uint256"
            },
            {
              "components": [
                {
                  "internalType": "enum BaseToken.InterestType",
                  "name": "interestType",
                  "type": "uint8"
                },
                {
                  "internalType": "uint256",
                  "name": "assetAmount",
                  "type": "uint256"
                },
                {
                  "internalType": "uint256",
                  "name": "debtAmount",
                  "type": "uint256"
                },
                {
                  "internalType": "uint256",
                  "name": "lastAssetGrowth",
                  "type": "uint256"
                },
                {
                  "internalType": "uint256",
                  "name": "lastDebtGrowth",
                  "type": "uint256"
                }
              ],
              "internalType": "struct BaseToken.AccountState",
              "name": "balance0",
              "type": "tuple"
            },
            {
              "components": [
                {
                  "internalType": "enum BaseToken.InterestType",
                  "name": "interestType",
                  "type": "uint8"
                },
                {
                  "internalType": "uint256",
                  "name": "assetAmount",
                  "type": "uint256"
                },
                {
                  "internalType": "uint256",
                  "name": "debtAmount",
                  "type": "uint256"
                },
                {
                  "internalType": "uint256",
                  "name": "lastAssetGrowth",
                  "type": "uint256"
                },
                {
                  "internalType": "uint256",
                  "name": "lastDebtGrowth",
                  "type": "uint256"
                }
              ],
              "internalType": "struct BaseToken.AccountState",
              "name": "balance1",
              "type": "tuple"
            },
            {
              "components": [
                {
                  "internalType": "bool",
                  "name": "isCollateral",
                  "type": "bool"
                },
                {
                  "internalType": "bytes32",
                  "name": "rangeId",
                  "type": "bytes32"
                },
                {
                  "internalType": "uint128",
                  "name": "liquidityAmount",
                  "type": "uint128"
                },
                {
                  "internalType": "uint256",
                  "name": "premiumGrowthLast",
                  "type": "uint256"
                },
                {
                  "internalType": "uint256",
                  "name": "fee0Last",
                  "type": "uint256"
                },
                {
                  "internalType": "uint256",
                  "name": "fee1Last",
                  "type": "uint256"
                }
              ],
              "internalType": "struct DataType.LPTState[]",
              "name": "lpts",
              "type": "tuple[]"
            }
          ],
          "internalType": "struct DataType.SubVault",
          "name": "",
          "type": "tuple"
        }
      ],
      "stateMutability": "view",
      "type": "function"
    },
    {
      "inputs": [],
      "name": "getTokenState",
      "outputs": [
        {
          "components": [
            {
              "internalType": "uint256",
              "name": "totalCompoundDeposited",
              "type": "uint256"
            },
            {
              "internalType": "uint256",
              "name": "totalCompoundBorrowed",
              "type": "uint256"
            },
            {
              "internalType": "uint256",
              "name": "totalNormalDeposited",
              "type": "uint256"
            },
            {
              "internalType": "uint256",
              "name": "totalNormalBorrowed",
              "type": "uint256"
            },
            {
              "internalType": "uint256",
              "name": "assetScaler",
              "type": "uint256"
            },
            {
              "internalType": "uint256",
              "name": "debtScaler",
              "type": "uint256"
            },
            {
              "internalType": "uint256",
              "name": "assetGrowth",
              "type": "uint256"
            },
            {
              "internalType": "uint256",
              "name": "debtGrowth",
              "type": "uint256"
            }
          ],
          "internalType": "struct BaseToken.TokenState",
          "name": "",
          "type": "tuple"
        },
        {
          "components": [
            {
              "internalType": "uint256",
              "name": "totalCompoundDeposited",
              "type": "uint256"
            },
            {
              "internalType": "uint256",
              "name": "totalCompoundBorrowed",
              "type": "uint256"
            },
            {
              "internalType": "uint256",
              "name": "totalNormalDeposited",
              "type": "uint256"
            },
            {
              "internalType": "uint256",
              "name": "totalNormalBorrowed",
              "type": "uint256"
            },
            {
              "internalType": "uint256",
              "name": "assetScaler",
              "type": "uint256"
            },
            {
              "internalType": "uint256",
              "name": "debtScaler",
              "type": "uint256"
            },
            {
              "internalType": "uint256",
              "name": "assetGrowth",
              "type": "uint256"
            },
            {
              "internalType": "uint256",
              "name": "debtGrowth",
              "type": "uint256"
            }
          ],
          "internalType": "struct BaseToken.TokenState",
          "name": "",
          "type": "tuple"
        }
      ],
      "stateMutability": "nonpayable",
      "type": "function"
    },
    {
      "inputs": [
        {
          "internalType": "uint256",
          "name": "_vaultId",
          "type": "uint256"
        }
      ],
      "name": "getVault",
      "outputs": [
        {
          "components": [
            {
              "internalType": "uint256",
              "name": "vaultId",
              "type": "uint256"
            },
            {
              "internalType": "int256",
              "name": "marginAmount0",
              "type": "int256"
            },
            {
              "internalType": "int256",
              "name": "marginAmount1",
              "type": "int256"
            },
            {
              "internalType": "uint256[]",
              "name": "subVaults",
              "type": "uint256[]"
            }
          ],
          "internalType": "struct DataType.Vault",
          "name": "",
          "type": "tuple"
        }
      ],
      "stateMutability": "view",
      "type": "function"
    },
    {
      "inputs": [
        {
          "internalType": "uint256",
          "name": "_vaultId",
          "type": "uint256"
        },
        {
          "internalType": "uint160",
          "name": "_sqrtPriceX96",
          "type": "uint160"
        }
      ],
      "name": "getVaultStatus",
      "outputs": [
        {
          "components": [
            {
              "internalType": "int256",
              "name": "positionValue",
              "type": "int256"
            },
            {
              "internalType": "int256",
              "name": "marginValue",
              "type": "int256"
            },
            {
              "internalType": "int256",
              "name": "minCollateral",
              "type": "int256"
            },
            {
              "components": [
                {
                  "components": [
                    {
                      "internalType": "uint256",
                      "name": "assetValue",
                      "type": "uint256"
                    },
                    {
                      "internalType": "uint256",
                      "name": "debtValue",
                      "type": "uint256"
                    },
                    {
                      "internalType": "int256",
                      "name": "premiumValue",
                      "type": "int256"
                    }
                  ],
                  "internalType": "struct DataType.SubVaultValue",
                  "name": "values",
                  "type": "tuple"
                },
                {
                  "components": [
                    {
                      "internalType": "uint256",
                      "name": "assetAmount0",
                      "type": "uint256"
                    },
                    {
                      "internalType": "uint256",
                      "name": "assetAmount1",
                      "type": "uint256"
                    },
                    {
                      "internalType": "uint256",
                      "name": "debtAmount0",
                      "type": "uint256"
                    },
                    {
                      "internalType": "uint256",
                      "name": "debtAmount1",
                      "type": "uint256"
                    }
                  ],
                  "internalType": "struct DataType.SubVaultAmount",
                  "name": "amount",
                  "type": "tuple"
                },
                {
                  "components": [
                    {
                      "internalType": "int256",
                      "name": "assetFee0",
                      "type": "int256"
                    },
                    {
                      "internalType": "int256",
                      "name": "assetFee1",
                      "type": "int256"
                    },
                    {
                      "internalType": "int256",
                      "name": "debtFee0",
                      "type": "int256"
                    },
                    {
                      "internalType": "int256",
                      "name": "debtFee1",
                      "type": "int256"
                    }
                  ],
                  "internalType": "struct DataType.SubVaultInterest",
                  "name": "interest",
                  "type": "tuple"
                },
                {
                  "components": [
                    {
                      "internalType": "uint256",
                      "name": "receivedTradeAmount0",
                      "type": "uint256"
                    },
                    {
                      "internalType": "uint256",
                      "name": "receivedTradeAmount1",
                      "type": "uint256"
                    },
                    {
                      "internalType": "uint256",
                      "name": "receivedPremium",
                      "type": "uint256"
                    },
                    {
                      "internalType": "uint256",
                      "name": "paidPremium",
                      "type": "uint256"
                    }
                  ],
                  "internalType": "struct DataType.SubVaultPremium",
                  "name": "premium",
                  "type": "tuple"
                }
              ],
              "internalType": "struct DataType.SubVaultStatus[]",
              "name": "subVaults",
              "type": "tuple[]"
            }
          ],
          "internalType": "struct DataType.VaultStatus",
          "name": "",
          "type": "tuple"
        }
      ],
      "stateMutability": "nonpayable",
      "type": "function"
    },
    {
      "inputs": [
        {
          "internalType": "uint256",
          "name": "_vaultId",
          "type": "uint256"
        }
      ],
      "name": "getVaultValue",
      "outputs": [
        {
          "internalType": "int256",
          "name": "",
          "type": "int256"
        }
      ],
      "stateMutability": "view",
      "type": "function"
    },
    {
      "inputs": [
        {
          "components": [
            {
              "internalType": "uint24",
              "name": "feeTier",
              "type": "uint24"
            },
            {
              "internalType": "address",
              "name": "token0",
              "type": "address"
            },
            {
              "internalType": "address",
              "name": "token1",
              "type": "address"
            },
            {
              "internalType": "bool",
              "name": "isMarginZero",
              "type": "bool"
            }
          ],
          "internalType": "struct DataType.InitializationParams",
          "name": "_initializationParams",
          "type": "tuple"
        },
        {
          "internalType": "address",
          "name": "_factory",
          "type": "address"
        },
        {
          "internalType": "address",
          "name": "_swapRouter",
          "type": "address"
        },
        {
          "internalType": "address",
          "name": "_chainlinkPriceFeed",
          "type": "address"
        },
        {
          "internalType": "address",
          "name": "_vaultNFT",
          "type": "address"
        }
      ],
      "name": "initialize",
      "outputs": [],
      "stateMutability": "nonpayable",
      "type": "function"
    },
    {
      "inputs": [],
      "name": "irmParams",
      "outputs": [
        {
          "internalType": "uint256",
          "name": "baseRate",
          "type": "uint256"
        },
        {
          "internalType": "uint256",
          "name": "kinkRate",
          "type": "uint256"
        },
        {
          "internalType": "uint256",
          "name": "slope1",
          "type": "uint256"
        },
        {
          "internalType": "uint256",
          "name": "slope2",
          "type": "uint256"
        }
      ],
      "stateMutability": "view",
      "type": "function"
    },
    {
      "inputs": [],
      "name": "lastTouchedTimestamp",
      "outputs": [
        {
          "internalType": "uint256",
          "name": "",
          "type": "uint256"
        }
      ],
      "stateMutability": "view",
      "type": "function"
    },
    {
      "inputs": [
        {
          "internalType": "uint256",
          "name": "_vaultId",
          "type": "uint256"
        },
        {
          "components": [
            {
              "internalType": "uint256",
              "name": "swapRatio",
              "type": "uint256"
            },
            {
              "internalType": "uint256",
              "name": "closeRatio",
              "type": "uint256"
            }
          ],
          "internalType": "struct DataType.LiquidationOption",
          "name": "_liquidationOption",
          "type": "tuple"
        }
      ],
      "name": "liquidate",
      "outputs": [],
      "stateMutability": "nonpayable",
      "type": "function"
    },
    {
      "inputs": [
        {
          "internalType": "uint256",
          "name": "_vaultId",
          "type": "uint256"
        },
        {
          "components": [
            {
              "internalType": "uint256",
              "name": "subVaultIndex",
              "type": "uint256"
            },
            {
              "internalType": "uint256",
              "name": "asset0",
              "type": "uint256"
            },
            {
              "internalType": "uint256",
              "name": "asset1",
              "type": "uint256"
            },
            {
              "internalType": "uint256",
              "name": "debt0",
              "type": "uint256"
            },
            {
              "internalType": "uint256",
              "name": "debt1",
              "type": "uint256"
            },
            {
              "components": [
                {
                  "internalType": "bool",
                  "name": "isCollateral",
                  "type": "bool"
                },
                {
                  "internalType": "uint128",
                  "name": "liquidity",
                  "type": "uint128"
                },
                {
                  "internalType": "int24",
                  "name": "lowerTick",
                  "type": "int24"
                },
                {
                  "internalType": "int24",
                  "name": "upperTick",
                  "type": "int24"
                }
              ],
              "internalType": "struct DataType.LPT[]",
              "name": "lpts",
              "type": "tuple[]"
            }
          ],
          "internalType": "struct DataType.Position",
          "name": "_position",
          "type": "tuple"
        },
        {
          "components": [
            {
              "internalType": "bool",
              "name": "isLiquidationCall",
              "type": "bool"
            },
            {
              "internalType": "bool",
              "name": "swapAnyway",
              "type": "bool"
            },
            {
              "internalType": "bool",
              "name": "quoterMode",
              "type": "bool"
            },
            {
              "internalType": "bool",
              "name": "isQuoteZero",
              "type": "bool"
            },
            {
              "internalType": "uint8",
              "name": "marginMode0",
              "type": "uint8"
            },
            {
              "internalType": "uint8",
              "name": "marginMode1",
              "type": "uint8"
            },
            {
              "internalType": "int256",
              "name": "deltaMarginAmount0",
              "type": "int256"
            },
            {
              "internalType": "int256",
              "name": "deltaMarginAmount1",
              "type": "int256"
            },
            {
              "internalType": "bytes",
              "name": "metadata",
              "type": "bytes"
            }
          ],
          "internalType": "struct DataType.TradeOption",
          "name": "_tradeOption",
          "type": "tuple"
        },
        {
          "components": [
            {
              "internalType": "uint256",
              "name": "lowerSqrtPrice",
              "type": "uint256"
            },
            {
              "internalType": "uint256",
              "name": "upperSqrtPrice",
              "type": "uint256"
            },
            {
              "internalType": "uint256",
              "name": "swapRatio",
              "type": "uint256"
            },
            {
              "internalType": "uint256",
              "name": "deadline",
              "type": "uint256"
            }
          ],
          "internalType": "struct DataType.OpenPositionOption",
          "name": "_openPositionOptions",
          "type": "tuple"
        }
      ],
      "name": "openPosition",
      "outputs": [
        {
          "internalType": "uint256",
          "name": "vaultId",
          "type": "uint256"
        },
        {
          "components": [
            {
              "internalType": "int256",
              "name": "amount0",
              "type": "int256"
            },
            {
              "internalType": "int256",
              "name": "amount1",
              "type": "int256"
            }
          ],
          "internalType": "struct DataType.TokenAmounts",
          "name": "requiredAmounts",
          "type": "tuple"
        },
        {
          "components": [
            {
              "internalType": "int256",
              "name": "amount0",
              "type": "int256"
            },
            {
              "internalType": "int256",
              "name": "amount1",
              "type": "int256"
            }
          ],
          "internalType": "struct DataType.TokenAmounts",
          "name": "swapAmounts",
          "type": "tuple"
        }
      ],
      "stateMutability": "nonpayable",
      "type": "function"
    },
    {
      "inputs": [],
      "name": "operator",
      "outputs": [
        {
          "internalType": "address",
          "name": "",
          "type": "address"
        }
      ],
      "stateMutability": "view",
      "type": "function"
    },
    {
      "inputs": [
        {
          "internalType": "address",
          "name": "_newOperator",
          "type": "address"
        }
      ],
      "name": "setOperator",
      "outputs": [],
      "stateMutability": "nonpayable",
      "type": "function"
    },
    {
      "inputs": [
        {
          "internalType": "uint256",
          "name": "amount0",
          "type": "uint256"
        },
        {
          "internalType": "uint256",
          "name": "amount1",
          "type": "uint256"
        },
        {
          "internalType": "bytes",
          "name": "data",
          "type": "bytes"
        }
      ],
      "name": "uniswapV3MintCallback",
      "outputs": [],
      "stateMutability": "nonpayable",
      "type": "function"
    },
    {
      "inputs": [
        {
          "components": [
            {
              "internalType": "uint256",
              "name": "baseRate",
              "type": "uint256"
            },
            {
              "internalType": "uint256",
              "name": "kinkRate",
              "type": "uint256"
            },
            {
              "internalType": "uint256",
              "name": "slope1",
              "type": "uint256"
            },
            {
              "internalType": "uint256",
              "name": "slope2",
              "type": "uint256"
            }
          ],
          "internalType": "struct InterestCalculator.IRMParams",
          "name": "_irmParams",
          "type": "tuple"
        }
      ],
      "name": "updateIRMParams",
      "outputs": [],
      "stateMutability": "nonpayable",
      "type": "function"
    },
    {
      "inputs": [
        {
          "internalType": "uint256",
          "name": "_vaultId",
          "type": "uint256"
        },
        {
          "components": [
            {
              "internalType": "enum DataType.PositionUpdateType",
              "name": "positionUpdateType",
              "type": "uint8"
            },
            {
              "internalType": "uint256",
              "name": "subVaultIndex",
              "type": "uint256"
            },
            {
              "internalType": "bool",
              "name": "zeroForOne",
              "type": "bool"
            },
            {
              "internalType": "uint128",
              "name": "liquidity",
              "type": "uint128"
            },
            {
              "internalType": "int24",
              "name": "lowerTick",
              "type": "int24"
            },
            {
              "internalType": "int24",
              "name": "upperTick",
              "type": "int24"
            },
            {
              "internalType": "uint256",
              "name": "param0",
              "type": "uint256"
            },
            {
              "internalType": "uint256",
              "name": "param1",
              "type": "uint256"
            }
          ],
          "internalType": "struct DataType.PositionUpdate[]",
          "name": "positionUpdates",
          "type": "tuple[]"
        },
        {
          "components": [
            {
              "internalType": "bool",
              "name": "isLiquidationCall",
              "type": "bool"
            },
            {
              "internalType": "bool",
              "name": "swapAnyway",
              "type": "bool"
            },
            {
              "internalType": "bool",
              "name": "quoterMode",
              "type": "bool"
            },
            {
              "internalType": "bool",
              "name": "isQuoteZero",
              "type": "bool"
            },
            {
              "internalType": "uint8",
              "name": "marginMode0",
              "type": "uint8"
            },
            {
              "internalType": "uint8",
              "name": "marginMode1",
              "type": "uint8"
            },
            {
              "internalType": "int256",
              "name": "deltaMarginAmount0",
              "type": "int256"
            },
            {
              "internalType": "int256",
              "name": "deltaMarginAmount1",
              "type": "int256"
            },
            {
              "internalType": "bytes",
              "name": "metadata",
              "type": "bytes"
            }
          ],
          "internalType": "struct DataType.TradeOption",
          "name": "_tradeOption",
          "type": "tuple"
        },
        {
          "components": [
            {
              "internalType": "uint256",
              "name": "lowerSqrtPrice",
              "type": "uint256"
            },
            {
              "internalType": "uint256",
              "name": "upperSqrtPrice",
              "type": "uint256"
            },
            {
              "internalType": "uint256",
              "name": "swapRatio",
              "type": "uint256"
            },
            {
              "internalType": "uint256",
              "name": "deadline",
              "type": "uint256"
            }
          ],
          "internalType": "struct DataType.OpenPositionOption",
          "name": "_openPositionOptions",
          "type": "tuple"
        }
      ],
      "name": "updatePosition",
      "outputs": [
        {
          "internalType": "uint256",
          "name": "vaultId",
          "type": "uint256"
        },
        {
          "components": [
            {
              "internalType": "int256",
              "name": "amount0",
              "type": "int256"
            },
            {
              "internalType": "int256",
              "name": "amount1",
              "type": "int256"
            }
          ],
          "internalType": "struct DataType.TokenAmounts",
          "name": "requiredAmounts",
          "type": "tuple"
        },
        {
          "components": [
            {
              "internalType": "int256",
              "name": "amount0",
              "type": "int256"
            },
            {
              "internalType": "int256",
              "name": "amount1",
              "type": "int256"
            }
          ],
          "internalType": "struct DataType.TokenAmounts",
          "name": "swapAmounts",
          "type": "tuple"
        }
      ],
      "stateMutability": "nonpayable",
      "type": "function"
    },
    {
      "inputs": [
        {
          "components": [
            {
              "internalType": "uint256",
              "name": "baseRate",
              "type": "uint256"
            },
            {
              "internalType": "uint256",
              "name": "kinkRate",
              "type": "uint256"
            },
            {
              "internalType": "uint256",
              "name": "slope1",
              "type": "uint256"
            },
            {
              "internalType": "uint256",
              "name": "slope2",
              "type": "uint256"
            }
          ],
          "internalType": "struct InterestCalculator.IRMParams",
          "name": "_irmParams",
          "type": "tuple"
        },
        {
          "components": [
            {
              "internalType": "uint256",
              "name": "baseRate",
              "type": "uint256"
            },
            {
              "internalType": "uint256",
              "name": "kinkRate",
              "type": "uint256"
            },
            {
              "internalType": "uint256",
              "name": "slope1",
              "type": "uint256"
            },
            {
              "internalType": "uint256",
              "name": "slope2",
              "type": "uint256"
            }
          ],
          "internalType": "struct InterestCalculator.IRMParams",
          "name": "_premiumParams",
          "type": "tuple"
        }
      ],
      "name": "updateYearlyPremiumParams",
      "outputs": [],
      "stateMutability": "nonpayable",
      "type": "function"
    },
    {
      "inputs": [
        {
          "internalType": "uint256",
          "name": "_amount0",
          "type": "uint256"
        },
        {
          "internalType": "uint256",
          "name": "_amount1",
          "type": "uint256"
        }
      ],
      "name": "withdrawProtocolFee",
      "outputs": [],
      "stateMutability": "nonpayable",
      "type": "function"
    },
    {
      "inputs": [],
      "name": "ypParams",
      "outputs": [
        {
          "components": [
            {
              "internalType": "uint256",
              "name": "baseRate",
              "type": "uint256"
            },
            {
              "internalType": "uint256",
              "name": "kinkRate",
              "type": "uint256"
            },
            {
              "internalType": "uint256",
              "name": "slope1",
              "type": "uint256"
            },
            {
              "internalType": "uint256",
              "name": "slope2",
              "type": "uint256"
            }
          ],
          "internalType": "struct InterestCalculator.IRMParams",
          "name": "premiumParams",
          "type": "tuple"
        },
        {
          "components": [
            {
              "internalType": "uint256",
              "name": "baseRate",
              "type": "uint256"
            },
            {
              "internalType": "uint256",
              "name": "kinkRate",
              "type": "uint256"
            },
            {
              "internalType": "uint256",
              "name": "slope1",
              "type": "uint256"
            },
            {
              "internalType": "uint256",
              "name": "slope2",
              "type": "uint256"
            }
          ],
          "internalType": "struct InterestCalculator.IRMParams",
          "name": "irmParams",
          "type": "tuple"
        }
      ],
      "stateMutability": "view",
      "type": "function"
    }
  ],
  "transactionHash": "0x8e60a2d2c92cfbc40746b48f083320588f3105792d14e031e644e820ce33ff27",
  "args": [],
  "solcInputHash": "a946751453e108c6efdfd3df2f6daecc",
  "bytecode": "0x608060405234801561001057600080fd5b50614cd3806100206000396000f3fe608060405234801561001057600080fd5b50600436106101c45760003560e01c806386e6862d116100f9578063d1e6419711610097578063eb02c30111610071578063eb02c30114610403578063ebd2665f14610423578063f46a647714610439578063ffdea55f1461044c576101c4565b8063d1e64197146103bd578063d3487997146103dd578063df6519d2146103f0576101c4565b8063b3ab15fb116100d3578063b3ab15fb1461037c578063ba4247b01461038f578063c3d2ca2d14610397578063c4937b6a146103aa576101c4565b806386e6862d146103415780639403b6341461034957806396d9eebe14610369576101c4565b806351be57d3116101665780635af084d2116101405780635af084d2146102d957806367114859146102fb578063687157731461030e5780636f85ba9c14610321576101c4565b806351be57d31461028b578063570ca735146102a3578063591a48b6146102b8576101c4565b806330050fbd116101a257806330050fbd146102205780633743d142146102405780633c678e14146102555780633e1297151461026b576101c4565b8063013216f5146101c9578063127f0f07146101f2578063275892a21461020b575b600080fd5b6101dc6101d7366004613613565b61045f565b6040516101e991906145a5565b60405180910390f35b6101fa6105f6565b6040516101e99594939291906143db565b610213610624565b6040516101e99190614409565b61023361022e366004613613565b61062a565b6040516101e9919061469d565b61025361024e366004613d1f565b6107c4565b005b61025d610877565b6040516101e9929190614589565b61027e610279366004613613565b6108d4565b6040516101e991906143d0565b610293610983565b6040516101e99493929190614ba5565b6102ab610992565b6040516101e9919061427f565b6102cb6102c6366004613c9b565b6109a1565b6040516101e992919061475e565b6102ec6102e73660046139af565b6109d1565b6040516101e993929190614b84565b61025361030936600461365e565b610a36565b61025361031c366004613643565b610a99565b61033461032f366004613613565b610ae3565b6040516101e9919061460d565b6102ab610c0d565b61035c610357366004613613565b610c2a565b6040516101e99190614860565b6102ec610377366004613c3b565b610cbe565b61025361038a36600461348f565b610d91565b6102ab610e24565b6102136103a5366004613613565b610eaf565b6102cb6103b8366004613dba565b610f51565b6103d06103cb366004613cf0565b610fd1565b6040516101e99190614796565b6102536103eb366004613d40565b6110fb565b6102cb6103fe366004613b16565b611152565b610416610411366004613613565b61125f565b6040516101e991906142ac565b61042b61126a565b6040516101e9929190614779565b610253610447366004613693565b611333565b61025361045a366004613bd8565b6116d6565b610467612c1c565b73680FbabdF8454cb1cBdA4Eb093e6aeDC5e96687c631619952e60216005600260008781526020019081526020016000206104a0610c0d565b6040518563ffffffff1660e01b81526004016104bf9493929190614b49565b60006040518083038186803b1580156104d757600080fd5b505af41580156104eb573d6000803e3d6000fd5b50505060008381526002602052604090819020905163a90989b160e01b8152733A77Fc1ca00c502652b73e6dC67da286a4AfE93C925063a90989b191610537916005919060040161451b565b60006040518083038186803b15801561054f57600080fd5b505af4158015610563573d6000803e3d6000fd5b505050600083815260026020818152604092839020835161010081018552815480850b850b850b825263010000008104850b850b850b9382019390935266010000000000009092046001600160801b03169382019390935260018301546060820152908201546080820152600382015460a0820152600482015460c082015260059091015460e08201529150505b919050565b600954600a54600854601b54601c54600160a01b90940460ff169492936001600160a01b0390921692909190565b60015481565b610632612c70565b600082815260046020908152604091829020825160808101845281548152835160a081019094526001820180549194929385019291829060ff16600281111561067757fe5b600281111561068257fe5b81526020016001820154815260200160028201548152602001600382015481526020016004820154815250508152602001600682016040518060a00160405290816000820160009054906101000a900460ff1660028111156106e057fe5b60028111156106eb57fe5b81526020016001820154815260200160028201548152602001600382015481526020016004820154815250508152602001600b8201805480602002602001604051908101604052809291908181526020016000905b828210156107b65760008481526020908190206040805160c08101825260068602909201805460ff16151583526001808201548486015260028201546001600160801b03169284019290925260038101546060840152600481015460808401526005015460a08301529083529092019101610740565b505050915250909392505050565b602a546001600160a01b031633146107f75760405162461bcd60e51b81526004016107ee90614467565b60405180910390fd5b601b54821180159061080b5750601c548111155b6108275760405162461bcd60e51b81526004016107ee90614483565b601b80548390039055601c80548290039055811561085657600554610856906001600160a01b0316338461179e565b801561087357600654610873906001600160a01b0316338361179e565b5050565b60408051608080820183526021548252602254602080840191909152602354838501526024546060808501919091528451928301855260255483526026549183019190915260275493820193909352602854928101929092529082565b60006108df826118ec565b600082815260036020526040908190209051630d5e377d60e11b815273B5c33c28F1e28Df6F3EF30901c55C4E93ae9b81F91631abc6efa9161092c91906004906005906002908301614ab4565b60206040518083038186803b15801561094457600080fd5b505af4158015610958573d6000803e3d6000fd5b505050506040513d601f19601f8201168201806040525081019061097c91906135f7565b1592915050565b601d54601e54601f5460205484565b602a546001600160a01b031681565b6109a9612ca4565b6109b1612ca4565b6109c5856109be8761192c565b8686611152565b91509150935093915050565b60006109db612ca4565b6109e3612ca4565b836060015180421115610a085760405162461bcd60e51b81526004016107ee9061442e565b610a13888888611b12565b875160208901519397509195509350610a2b91611cc5565b509450945094915050565b602a546001600160a01b03163314610a605760405162461bcd60e51b81526004016107ee90614467565b81516025556020808301516026556040808401516027556060938401516028558251602155908201516022558101516023550151602455565b602a546001600160a01b03163314610ac35760405162461bcd60e51b81526004016107ee90614467565b8051601d55602080820151601e556040820151601f556060909101519055565b610aeb612cbe565b60008281526003602081815260408084208151608081018352815481526001820154818501526002820154818401529381018054835181860281018601909452808452919360608601939290830182828015610b6657602002820191906000526020600020905b815481526020019060010190808311610b52575b50505091909252505060405163149ccfa160e11b81529192507357942ee15b2FFe5C0a2E8122f460539514f0A7Dc916329399f429150610bb290849060049060029060059083016148c4565b60006040518083038186803b158015610bca57600080fd5b505af4158015610bde573d6000803e3d6000fd5b505050506040513d6000823e601f3d908101601f19168201604052610c069190810190613766565b9392505050565b600854600090610c25906001600160a01b0316611d06565b905090565b610c32612cfb565b6000828152600360208181526040928390208351608081018552815481526001820154818401526002820154818601529281018054855181850281018501909652808652939491936060860193830182828015610cae57602002820191906000526020600020905b815481526020019060010190808311610c9a575b5050505050815250509050919050565b6000610cc8612ca4565b610cd0612ca4565b600073cbF0e9Ff54496D0d403488AA3f526747cF1d51dE6307927e4b888860600151610cfa610c0d565b89604001516040518563ffffffff1660e01b8152600401610d1e9493929190614665565b60006040518083038186803b158015610d3657600080fd5b505af4158015610d4a573d6000803e3d6000fd5b505050506040513d6000823e601f3d908101601f19168201604052610d7291908101906134c7565b9050610d80888288886109d1565b919a90995090975095505050505050565b602a546001600160a01b03163314610dbb5760405162461bcd60e51b81526004016107ee90614467565b6001600160a01b038116610dce57600080fd5b602a80546001600160a01b0319166001600160a01b0383161790556040517fb3b3f5f64ab192e4b5fefde1f51ce9733bbdcf831951543b325aebd49cc27ec490610e1990839061427f565b60405180910390a150565b6040516310fe062760e11b815260009073B5c33c28F1e28Df6F3EF30901c55C4E93ae9b81F906321fc0c4e90610e5f906005906004016144d8565b60206040518083038186803b158015610e7757600080fd5b505af4158015610e8b573d6000803e3d6000fd5b505050506040513d601f19601f82011682018060405250810190610c2591906134ab565b600081815260036020526040808220905163b7f22f3960e01b815273B5c33c28F1e28Df6F3EF30901c55C4E93ae9b81F9163b7f22f3991610efb91906004906005906002908301614ab4565b60206040518083038186803b158015610f1357600080fd5b505af4158015610f27573d6000803e3d6000fd5b505050506040513d601f19601f82011682018060405250810190610f4b919061362b565b92915050565b610f59612ca4565b610f61612ca4565b604080516001808252818301909252600091816020015b610f80612d23565b815260200190600190039081610f78579050509050610f9f8787611d86565b81600081518110610fac57fe5b6020026020010181905250610fc387828787611152565b925092505094509492505050565b610fd9612cfb565b610fe2836118ec565b600083815260036020818152604092839020835160808101855281548152600182015481840152600282015481860152928101805485518185028101850190965280865293949193606086019383018282801561105e57602002820191906000526020600020905b81548152602001906001019080831161104a575b505050919092525050604051635d8d458360e11b81527357942ee15b2FFe5C0a2E8122f460539514f0A7Dc9263bb1a8b0692506110a79160049060029060059089908401614959565b60006040518083038186803b1580156110bf57600080fd5b505af41580156110d3573d6000803e3d6000fd5b505050506040513d6000823e601f3d908101601f19168201604052610c069190810190613886565b6008546001600160a01b0316331461111257600080fd5b831561112f5760055461112f906001600160a01b0316338661179e565b821561114c5760065461114c906001600160a01b0316338561179e565b50505050565b61115a612ca4565b611162612ca4565b8260800151804211156111875760405162461bcd60e51b81526004016107ee9061442e565b600073cbF0e9Ff54496D0d403488AA3f526747cF1d51dE6366d66178888860600151886040015189606001516111bb610c0d565b6040518663ffffffff1660e01b81526004016111db959493929190614348565b60006040518083038186803b1580156111f357600080fd5b505af4158015611207573d6000803e3d6000fd5b505050506040513d6000823e601f3d908101601f1916820160405261122f91908101906134c7565b905061123c888288611b12565b87516020890151929750909550611254925090611cc5565b505094509492505050565b6060610f4b8261192c565b611272612d59565b61127a612d59565b611282612114565b5050604080516101008082018352600b548252600c54602080840191909152600d5483850152600e54606080850191909152600f5460808086019190915260105460a08087019190915260115460c08088019190915260125460e080890191909152885196870189526013548752601454958701959095526015549786019790975260165492850192909252601754908401526018549083015260195493820193909352601a549281019290925291565b600054610100900460ff168061134c575061134c6121a8565b8061135a575060005460ff16155b6113955760405162461bcd60e51b815260040180806020018281038252602e815260200180614c70602e913960400191505060405180910390fd5b600054610100900460ff161580156113c0576000805460ff1961ff0019909116610100171660011790555b6001600160a01b0382166113d357600080fd5b8560000151600560010160146101000a81548162ffffff021916908362ffffff1602179055508560200151600560000160006101000a8154816001600160a01b0302191690836001600160a01b031602179055508560400151600560010160006101000a8154816001600160a01b0302191690836001600160a01b031602179055508560600151600560040160146101000a81548160ff02191690831515021790555083600560020160006101000a8154816001600160a01b0302191690836001600160a01b0316021790555082600560040160006101000a8154816001600160a01b0302191690836001600160a01b0316021790555060006040518060600160405280600560000160009054906101000a90046001600160a01b03166001600160a01b03168152602001600560010160009054906101000a90046001600160a01b03166001600160a01b03168152602001600560010160149054906101000a900462ffffff1662ffffff16815250905061154e86826121b9565b600880546001600160a01b03199081166001600160a01b0393841617909155602b80549091169185169190911790556001600a5561158c600b61229d565b611596601361229d565b42600155602a80546001600160a01b0319163317905560055460405163095ea7b360e01b81526001600160a01b03919091169063095ea7b3906115e190889060001990600401614293565b602060405180830381600087803b1580156115fb57600080fd5b505af115801561160f573d6000803e3d6000fd5b505050506040513d601f19601f8201168201806040525081019061163391906135f7565b5060065460405163095ea7b360e01b81526001600160a01b039091169063095ea7b39061166890889060001990600401614293565b602060405180830381600087803b15801561168257600080fd5b505af1158015611696573d6000803e3d6000fd5b505050506040513d601f19601f820116820180604052508101906116ba91906135f7565b505080156116ce576000805461ff00191690555b505050505050565b600073cbF0e9Ff54496D0d403488AA3f526747cF1d51dE6366d661786116fb8561125f565b60095485516020870151600160a01b90920460ff1691611719610c0d565b6040518663ffffffff1660e01b8152600401611739959493929190614348565b60006040518083038186803b15801561175157600080fd5b505af4158015611765573d6000803e3d6000fd5b505050506040513d6000823e601f3d908101601f1916820160405261178d91908101906134c7565b905061179983826122b5565b505050565b604080516001600160a01b038481166024830152604480830185905283518084039091018152606490920183526020820180516001600160e01b031663a9059cbb60e01b1781529251825160009485949389169392918291908083835b6020831061181a5780518252601f1990920191602091820191016117fb565b6001836020036101000a0380198251168184511680821785525050505050509050019150506000604051808303816000865af19150503d806000811461187c576040519150601f19603f3d011682016040523d82523d6000602084013e611881565b606091505b50915091508180156118af5750805115806118af57508080602001905160208110156118ac57600080fd5b50515b6118e5576040805162461bcd60e51b815260206004820152600260248201526114d560f21b604482015290519081900360640190fd5b5050505050565b6040805160008082526020820190925261192991839190611923565b611910612d9e565b8152602001906001900390816119085790505b506123df565b50565b6060600060036000848152602001908152602001600020604051806080016040529081600082015481526020016001820154815260200160028201548152602001600382018054806020026020016040519081016040528092919081815260200182805480156119bb57602002820191906000526020600020905b8154815260200190600101908083116119a7575b50505091909252505060408051610180810182526005546001600160a01b03908116825260065480821660208085019190915262ffffff600160a01b9283900416848601526007548316606080860191909152600854841660808087019190915260095494851660a08088019190915260ff9490950493909316151560c080870191909152600a5460e08088019190915287516101008181018a52600b548252600c5482870152600d54828b0152600e5482860152600f548288015260105482890152601154828501526012548284015280890191909152885190810189526013548152601454948101949094526015549784019790975260165491830191909152601754928201929092526018549281019290925260195490820152601a5492810192909252610120810191909152601b54610140820152601c54610160820152919250610c069183915060049060029061252c565b6000611b1c612ca4565b611b24612ca4565b602b546040805163186e33a360e21b8152905188926001600160a01b0316916361b8ce8c9160048083019260209291908290030181600087803b158015611b6a57600080fd5b505af1158015611b7e573d6000803e3d6000fd5b505050506040513d601f19601f82011682018060405250810190611ba2919061362b565b8110611bc05760405162461bcd60e51b81526004016107ee906144bc565b611bca87876123df565b6000611bda88876040015161277c565b604051636413e81f60e11b81529196509150600090732E05BE4c7451d4f4BaA1c87858D69AE4731c81849063c827d03e90611c259085906004906005906002908f908f9085016149a5565b6101006040518083038186803b158015611c3e57600080fd5b505af4158015611c52573d6000803e3d6000fd5b505050506040513d601f19601f82011682018060405250810190611c76919061380c565b805160608201519096509450905088611cb957845160001280611c9d575060008560200151135b611cb95760405162461bcd60e51b81526004016107ee90614412565b50505093509350939050565b6000611ccf610c0d565b6001600160a01b03169050808311158015611cea5750818111155b6117995760405162461bcd60e51b81526004016107ee9061449f565b6000816001600160a01b0316633850c7bd6040518163ffffffff1660e01b815260040160e06040518083038186803b158015611d4157600080fd5b505afa158015611d55573d6000803e3d6000fd5b505050506040513d601f19601f82011682018060405250810190611d79919061391e565b5094979650505050505050565b611d8e612d23565b60008381526003602081815260408084208151608081018352815481526001820154818501526002820154818401529381018054835181860281018601909452808452919360608601939290830182828015611e0957602002820191906000526020600020905b815481526020019060010190808311611df5575b505050505081525050905061210c836004600084606001518781518110611e2c57fe5b6020026020010151815260200190815260200160002060405180608001604052908160008201548152602001600182016040518060a00160405290816000820160009054906101000a900460ff166002811115611e8557fe5b6002811115611e9057fe5b81526020016001820154815260200160028201548152602001600382015481526020016004820154815250508152602001600682016040518060a00160405290816000820160009054906101000a900460ff166002811115611eee57fe5b6002811115611ef957fe5b81526020016001820154815260200160028201548152602001600382015481526020016004820154815250508152602001600b8201805480602002602001604051908101604052809291908181526020016000905b82821015611fc45760008481526020908190206040805160c08101825260068602909201805460ff16151583526001808201548486015260028201546001600160801b03169284019290925260038101546060840152600481015460808401526005015460a08301529083529092019101611f4e565b5050509152505060408051610180810182526005546001600160a01b03908116825260065480821660208085019190915262ffffff600160a01b9283900416848601526007548316606080860191909152600854841660808087019190915260095494851660a08088019190915260ff9490950493909316151560c080870191909152600a5460e08088019190915287516101008181018a52600b548252600c5482870152600d54828b0152600e5482860152600f548288015260105482890152601154828501526012548284015280890191909152885190810189526013548152601454948101949094526015549784019790975260165491830191909152601754928201929092526018549281019290925260195490820152601a5492810192909252610120810191909152601b54610140820152601c54610160820152600290612920565b949350505050565b60015460405163725acfd160e01b815273680FbabdF8454cb1cBdA4Eb093e6aeDC5e96687c9163725acfd19161215391600591601d91906004016144e7565b60206040518083038186803b15801561216b57600080fd5b505af415801561217f573d6000803e3d6000fd5b505050506040513d601f19601f820116820180604052508101906121a3919061362b565b600155565b60006121b330612b76565b15905090565b600081602001516001600160a01b031682600001516001600160a01b0316106121e157600080fd5b50805160208083015160409384015184516001600160a01b0394851681850152939091168385015262ffffff166060808401919091528351808403820181526080840185528051908301206001600160f81b031960a085015294901b6bffffffffffffffffffffffff191660a183015260b58201939093527fe34f199b19b2b4f47f68442619d555527d244f78a3297ea89325f843f87b8b5460d5808301919091528251808303909101815260f5909101909152805191012090565b670de0b6b3a764000060048201819055600590910155565b602b546040805163186e33a360e21b8152905184926001600160a01b0316916361b8ce8c9160048083019260209291908290030181600087803b1580156122fb57600080fd5b505af115801561230f573d6000803e3d6000fd5b505050506040513d601f19601f82011682018060405250810190612333919061362b565b81106123515760405162461bcd60e51b81526004016107ee906144bc565b61235b83836123df565b6000838152600360205260409081902090516349b3bd7960e11b815273B5c33c28F1e28Df6F3EF30901c55C4E93ae9b81F916393677af2916123aa919060049087906005906002908401614a81565b60006040518083038186803b1580156123c257600080fd5b505af41580156123d6573d6000803e3d6000fd5b50505050505050565b6123e7612114565b6000828152600360208181526040808420815160808101835281548152600182015481850152600282015481840152938101805483518186028101860190945280845291936060860193929083018282801561246257602002820191906000526020600020905b81548152602001906001019080831161244e575b505050505081525050905073680FbabdF8454cb1cBdA4Eb093e6aeDC5e96687c63a5d330ad82600460026005876021612499610c0d565b6040518863ffffffff1660e01b81526004016124bb97969594939291906148fd565b60006040518083038186803b1580156124d357600080fd5b505af41580156124e7573d6000803e3d6000fd5b5050604051637ce761e760e01b8152733A77Fc1ca00c502652b73e6dC67da286a4AfE93C9250637ce761e791506123aa90600590859060049060029089908301614538565b60608460600151516001600160401b038111801561254957600080fd5b5060405190808252806020026020018201604052801561258357816020015b612570612d23565b8152602001906001900390816125685790505b50905060005b8560600151518110156127735761275481866000896060015185815181106125ad57fe5b6020026020010151815260200190815260200160002060405180608001604052908160008201548152602001600182016040518060a00160405290816000820160009054906101000a900460ff16600281111561260657fe5b600281111561261157fe5b81526020016001820154815260200160028201548152602001600382015481526020016004820154815250508152602001600682016040518060a00160405290816000820160009054906101000a900460ff16600281111561266f57fe5b600281111561267a57fe5b81526020016001820154815260200160028201548152602001600382015481526020016004820154815250508152602001600b8201805480602002602001604051908101604052809291908181526020016000905b828210156127455760008481526020908190206040805160c08101825260068602909201805460ff16151583526001808201548486015260028201546001600160801b03169284019290925260038101546060840152600481015460808401526005015460a083015290835290920191016126cf565b50505050815250508686612920565b82828151811061276057fe5b6020908102919091010152600101612589565b50949350505050565b6000808361285957602b546040516354ba0f2760e01b81526001600160a01b03909116906354ba0f27906127b490339060040161427f565b602060405180830381600087803b1580156127ce57600080fd5b505af11580156127e2573d6000803e3d6000fd5b505050506040513d601f19601f82011682018060405250810190612806919061362b565b60008181526003602052604090819020829055519092507fbf3e9c93de94306b70ac5b9411edf475545815333bf651b894b9eada6482c5949061284c9084903390614b6d565b60405180910390a161290a565b602b546040516331a9108f60e11b815285935033916001600160a01b031690636352211e9061288c908690600401614409565b60206040518083038186803b1580156128a457600080fd5b505afa1580156128b8573d6000803e3d6000fd5b505050506040513d601f19601f820116820180604052508101906128dc91906134ab565b6001600160a01b031614806128ee5750825b61290a5760405162461bcd60e51b81526004016107ee9061444b565b5060008181526003602052604090209250929050565b612928612d23565b60008460600151516001600160401b038111801561294557600080fd5b5060405190808252806020026020018201604052801561297f57816020015b61296c612de4565b8152602001906001900390816129645790505b50905060005b856060015151811015612ad3576000866060015182815181106129a457fe5b60209081029190910181015181015160008181528883526040908190208151610100810183528154600281810b810b810b835263010000008204810b810b810b96830196909652660100000000000090046001600160801b031681840152600182015460608083019190915294820154608080830191909152600383015460a0830152600483015460c083015260059092015460e08201528251918201909252928a0151805192945090929182919086908110612a5d57fe5b6020026020010151600001511515815260200189606001518581518110612a8057fe5b6020026020010151604001516001600160801b03168152602001826000015160020b8152602001826020015160020b815250848481518110612abe57fe5b60209081029190910101525050600101612985565b506040518060c00160405280878152602001612b018760200151866101000151612b7c90919063ffffffff16565b8152602001612b228760400151866101200151612b7c90919063ffffffff16565b8152602001612b438760200151866101000151612bc090919063ffffffff16565b8152602001612b648760400151866101200151612bc090919063ffffffff16565b81526020019190915295945050505050565b3b151590565b6000600182516002811115612b8d57fe5b1415612bb557612bae82602001518460800151670de0b6b3a7640000612bfd565b9050610f4b565b506020810151610f4b565b6000600182516002811115612bd157fe5b1415612bf257612bae82604001518460a00151670de0b6b3a7640000612bfd565b506040810151610f4b565b828202811515841585830485141716612c1557600080fd5b0492915050565b604051806101000160405280600060020b8152602001600060020b815260200160006001600160801b0316815260200160008152602001600081526020016000815260200160008152602001600081525090565b604051806080016040528060008152602001612c8a612e0b565b8152602001612c97612e0b565b8152602001606081525090565b604051806040016040528060008152602001600081525090565b6040518060e00160405280600081526020016000815260200160008152602001600081526020016000815260200160008152602001606081525090565b6040518060800160405280600081526020016000815260200160008152602001606081525090565b6040518060c001604052806000815260200160008152602001600081526020016000815260200160008152602001606081525090565b60405180610100016040528060008152602001600081526020016000815260200160008152602001600081526020016000815260200160008152602001600081525090565b604080516101008101909152806000815260006020820181905260408201819052606082018190526080820181905260a0820181905260c0820181905260e09091015290565b60408051608081018252600080825260208201819052918101829052606081019190915290565b6040805160a081019091528060008152602001600081526020016000815260200160008152602001600081525090565b80356105f181614c0c565b600082601f830112612e56578081fd5b81356020612e6b612e6683614be3565b614bc0565b82815281810190858301608080860288018501891015612e89578687fd5b865b86811015612f1a5781838b031215612ea1578788fd5b604080518381018181106001600160401b0382111715612ebd57fe5b82528435612eca81614c21565b815284880135612ed981614c4b565b8189015284820135612eea81614c3c565b8083830152506060915081850135612f0181614c3c565b9181019190915285529385019391810191600101612e8b565b509198975050505050505050565b600082601f830112612f38578081fd5b81516020612f48612e6683614be3565b82815281810190858301608080860288018501891015612f66578687fd5b865b86811015612f1a5781838b031215612f7e578788fd5b604080518381018181106001600160401b0382111715612f9a57fe5b82528451612fa781614c21565b815284880151612fb681614c4b565b8189015284820151612fc781614c3c565b8083830152506060915081850151612fde81614c3c565b9181019190915285529385019391810191600101612f68565b600082601f830112613007578081fd5b81516020613017612e6683614be3565b828152818101908583016101e080860288018501891015613036578687fd5b865b86811015612f1a57828a038281121561304f578889fd5b60408051608081016001600160401b03828210818311171561306d57fe5b818452606085121561307d578c8dfd5b60e083019450818510818611171561309157fe5b50838352865181528987015160a08301528683015160c083015281526130ba8d606088016132f1565b898201526130cb8d60e088016132f1565b828201526130dd8d61016088016132f1565b6060820152875250509385019391810191600101613038565b80356105f181614c21565b80516105f181614c21565b600082601f83011261311c578081fd5b81356001600160401b0381111561312f57fe5b613142601f8201601f1916602001614bc0565b818152846020838601011115613156578283fd5b816020850160208301379081016020019190915292915050565b80356105f181614c2f565b80516105f181614c2f565b80356105f181614c3c565b80516105f181614c3c565b600060a082840312156131ad578081fd5b60405160a081018181106001600160401b03821117156131c957fe5b806040525080915082358152602083013560208201526040830135604082015260608301356060820152608083013560808201525092915050565b600060808284031215613215578081fd5b604051608081018181106001600160401b038211171561323157fe5b8060405250809150823581526020830135602082015260408301356040820152606083013560608201525092915050565b600060c08284031215613273578081fd5b60405160c081016001600160401b03828210818311171561329057fe5b81604052829350843583526020850135602084015260408501356040840152606085013560608401526080850135608084015260a08501359150808211156132d757600080fd5b506132e485828601612e46565b60a0830152505092915050565b600060808284031215613302578081fd5b604051608081018181106001600160401b038211171561331e57fe5b8060405250809150825181526020830151602082015260408301516040820152606083015160608201525092915050565b600060408284031215613360578081fd5b604051604081018181106001600160401b038211171561337c57fe5b604052825181526020928301519281019290925250919050565b60006101208083850312156133a9578182fd5b6133b281614bc0565b9150506133be826130f6565b81526133cc602083016130f6565b60208201526133dd604083016130f6565b60408201526133ee606083016130f6565b60608201526133ff60808301613484565b608082015261341060a08301613484565b60a082015260c082013560c082015260e082013560e0820152610100808301356001600160401b0381111561344457600080fd5b6134508582860161310c565b82840152505092915050565b80356105f181614c4b565b80516105f181614c4b565b805161ffff811681146105f157600080fd5b80356105f181614c60565b6000602082840312156134a0578081fd5b8135610c0681614c0c565b6000602082840312156134bc578081fd5b8151610c0681614c0c565b600060208083850312156134d9578182fd5b82516001600160401b03808211156134ef578384fd5b818501915085601f830112613502578384fd5b8151613510612e6682614be3565b81815284810190848601610100808502870188018b101561352f578889fd5b8896505b848710156135e85780828c031215613549578889fd5b60408051828101818110898211171561355e57fe5b82526135698461317b565b8152898401518a82015261357e828501613101565b8282015260609150613591828501613467565b82820152608091506135a4828501613191565b8282015260a091506135b7828501613191565b9181019190915260c0838101519082015260e080840151908201528452600196909601959287019290810190613533565b50909998505050505050505050565b600060208284031215613608578081fd5b8151610c0681614c21565b600060208284031215613624578081fd5b5035919050565b60006020828403121561363c578081fd5b5051919050565b600060808284031215613654578081fd5b610c068383613204565b6000806101008385031215613671578081fd5b61367b8484613204565b915061368a8460808501613204565b90509250929050565b60008060008060008587036101008112156136ac578182fd5b60808112156136b9578182fd5b50604051608081018181106001600160401b03821117156136d657fe5b604052863562ffffff811681146136eb578283fd5b815260208701356136fb81614c0c565b602082015261370c60408801612e3b565b604082015261371d606088016130f6565b6060820152945061373060808701612e3b565b935061373e60a08701612e3b565b925061374c60c08701612e3b565b915061375a60e08701612e3b565b90509295509295909350565b600060208284031215613777578081fd5b81516001600160401b038082111561378d578283fd5b9083019060e082860312156137a0578283fd5b6137aa60e0614bc0565b825181526020830151602082015260408301516040820152606083015160608201526080830151608082015260a083015160a082015260c0830151828111156137f1578485fd5b6137fd87828601612f28565b60c08301525095945050505050565b6000610100828403121561381e578081fd5b604051608081018181106001600160401b038211171561383a57fe5b604052613847848461334f565b8152613856846040850161334f565b6020820152613868846080850161334f565b604082015261387a8460c0850161334f565b60608201529392505050565b600060208284031215613897578081fd5b81516001600160401b03808211156138ad578283fd5b90830190608082860312156138c0578283fd5b6040516080810181811083821117156138d557fe5b8060405250825181526020830151602082015260408301516040820152606083015182811115613903578485fd5b61390f87828601612ff7565b60608301525095945050505050565b600080600080600080600060e0888a031215613938578485fd5b875161394381614c0c565b602089015190975061395481614c3c565b955061396260408901613472565b945061397060608901613472565b935061397e60808901613472565b925060a088015161398e81614c60565b60c089015190925061399f81614c21565b8091505092959891949750929550565b60008060008060e085870312156139c4578182fd5b843593506020808601356001600160401b03808211156139e2578485fd5b818801915088601f8301126139f5578485fd5b8135613a03612e6682614be3565b81815284810190848601610100808502870188018e1015613a2257898afd5b8996505b84871015613ad35780828f031215613a3c57898afd5b604080518281018181108982111715613a5157fe5b8252613a5c84613170565b8152898401358a820152613a718285016130f6565b82820152613a816060850161345c565b6060820152613a9260808501613186565b6080820152613aa360a08501613186565b60a082015260c0848101359082015260e08085013590820152855250600196909601959287019290810190613a26565b509098505050506040880135925080831115613aed578485fd5b5050613afb87828801613396565b925050613b0b8660608701613204565b905092959194509250565b6000806000806101008587031215613b2c578182fd5b843593506020808601356001600160401b0380821115613b4a578485fd5b818801915088601f830112613b5d578485fd5b8135613b6b612e6682614be3565b81815284810190848601885b84811015613ba057613b8e8e8984358a0101613262565b84529287019290870190600101613b77565b509098505050506040880135925080831115613bba578485fd5b5050613bc887828801613396565b925050613b0b866060870161319c565b6000808284036060811215613beb578283fd5b833592506040601f1982011215613c00578182fd5b50604051604081018181106001600160401b0382111715613c1d57fe5b60409081526020858101358352940135938101939093525092909150565b60008060008060e08587031215613c50578182fd5b8435935060208501356001600160401b0380821115613c6d578384fd5b613c7988838901613262565b94506040870135915080821115613c8e578384fd5b50613afb87828801613396565b600080600060e08486031215613caf578081fd5b8335925060208401356001600160401b03811115613ccb578182fd5b613cd786828701613396565b925050613ce7856040860161319c565b90509250925092565b60008060408385031215613d02578182fd5b823591506020830135613d1481614c0c565b809150509250929050565b60008060408385031215613d31578182fd5b50508035926020909101359150565b60008060008060608587031215613d55578182fd5b843593506020850135925060408501356001600160401b0380821115613d79578384fd5b818701915087601f830112613d8c578384fd5b813581811115613d9a578485fd5b886020828501011115613dab578485fd5b95989497505060200194505050565b6000806000806101008587031215613dd0578182fd5b843593506020850135925060408501356001600160401b03811115613df3578283fd5b613bc887828801613396565b6001600160a01b03169052565b6000815180845260208085019450808401835b83811015613e4557613e32878351614092565b6080969096019590820190600101613e1f565b509495945050505050565b6000815180845260208085019450808401835b83811015613e455781518051600b8110613e7957fe5b88528084015184890152604080820151151590890152606080820151613ea1828b0182614262565b5050608080820151613eb5828b0182613f43565b505060a080820151613ec9828b0182613f43565b505060c0818101519089015260e090810151908801526101009096019590820190600101613e63565b15159052565b60008151808452815b81811015613f1d57602081850181015186830182015201613f01565b81811115613f2e5782602083870101525b50601f01601f19169290920160200192915050565b60020b9052565b805160038110613f5657fe5b8252602081810151908301526040808201519083015260608082015190830152608090810151910152565b613f9482613f8f8354614c00565b613dff565b60018101546001600160a01b03613fb060208501828416613dff565b613fc56040850162ffffff8460a01c1661426f565b613fd26002840154614c00565b9150613fe16060850183613dff565b613fee6003840154614c00565b9150613ffd6080850183613dff565b6004830154915061401360a08501828416613dff565b5061402760c0840160ff8360a01c16613ef2565b50600581015460e08301526140436101008301600683016141ac565b6140546102008301600e83016141ac565b60168101546103008301526017015461032090910152565b805182526020810151602083015260408101516040830152606081015160608301525050565b8051151582526001600160801b036020820151166020830152604081015160020b6040830152606081015160020b60608301525050565b600060c08301825184526020808401518186015260408401516040860152606084015160608601526080808501518187015260a085015160c060a088015283815180865260e08901915084830195508692505b808310156141435761412f828751614092565b94840194600192909201919083019061411c565b50979650505050505050565b80518252602090810151910152565b805182526020810151602083015260408101516040830152606081015160608301526080810151608083015260a081015160a083015260c081015160c083015260e081015160e08301525050565b8054825260018101546020830152600281015460408301526003810154606083015260048101546080830152600581015460a0830152600681015460c08301526007015460e090910152565b60006080830182518452602080840151818601526040840151604086015260608401516080606087015282815180855260a08801915083830194508592505b808310156142575784518252938301936001929092019190830190614237565b509695505050505050565b6001600160801b03169052565b62ffffff169052565b60ff169052565b6001600160a01b0391909116815260200190565b6001600160a01b03929092168252602082015260400190565b60208082528251828201819052600091906040908185019080840286018301878501865b8381101561433a57888303603f1901855281518051845287810151888501528681015187850152606080820151908501526080808201519085015260a09081015160c09185018290529061432681860183613e0c565b9689019694505050908601906001016142d0565b509098975050505050505050565b600060a0820160a0835280885180835260c0850191506020925060c0838202860101838b01855b8381101561439d5760bf1988840301855261438b8383516140c9565b9486019492509085019060010161436f565b505098151592850192909252505050604081019390935260608301919091526001600160a01b0316608090910152919050565b901515815260200190565b941515855260208501939093526001600160a01b039190911660408401526060830152608082015260a00190565b90815260200190565b602080825260029082015261140d60f21b604082015260600190565b60208082526003908201526243483160e81b604082015260600190565b602080825260029082015261503160f01b604082015260600190565b602080825260029082015261503360f01b604082015260600190565b6020808252600290820152610a0760f31b604082015260600190565b60208082526003908201526221a41960e91b604082015260600190565b602080825260029082015261281960f11b604082015260600190565b6103408101610f4b8284613f81565b928352815460208401526001820154604084015260028201546060840152600390910154608083015260a082015260c00190565b610360810161452a8285613f81565b826103408301529392505050565b60006103c06145478389613f81565b8061034084015261455a818401886141f8565b905085610360840152846103808401528281036103a084015261457d8185613e50565b98975050505050505050565b6101008101614598828561406c565b610c06608083018461406c565b600061010082019050825160020b8252602083015160020b60208301526001600160801b036040840151166040830152606083015160608301526080830151608083015260a083015160a083015260c083015160c083015260e083015160e083015292915050565b60006020825282516020830152602083015160408301526040830151606083015260608301516080830152608083015160a083015260a083015160c083015260c083015160e08084015261210c610100840182613e0c565b60006080825261467860808301876140c9565b9415156020830152506001600160a01b03929092166040830152606090910152919050565b600060208083526101a083018451828501528185015160406146c181870183613f4a565b8087015191506146d460e0870183613f4a565b6060878101516101808881015280519485905285019390925085906101c08801905b808310156147515785518051151583528781015188840152848101516001600160801b03168584015285810151868401526080808201519084015260a09081015190830152948601946001929092019160c0909101906146f6565b5098975050505050505050565b6080810161476c828561414f565b610c06604083018461414f565b6102008101614788828561415e565b610c0661010083018461415e565b6020808252825182820152828101516040808401919091528084015160608085019190915280850151608080860152805160a08601819052600094939184019285929160c08801905b808510156147515785518051805184528881015189850152850151858401528781015161480e8585018261406c565b5080850151805160e0850152888101516101008501528086015161012085015284015161014084015283015161484861016084018261406c565b506101e08201915086860195506001850194506147df565b6000602080835260a0830184518285015281850151604085015260408501516060850152606085015160808086015281815180845260c08701915084830193508592505b8083101561425757835182529284019260019290920191908401906148a4565b60006103a08083526148d8818401886141f8565b9150508460208301528360408301526148f46060830184613f81565b95945050505050565b600060e0825261491060e083018a6141f8565b88602084015287604084015286606084015282810360808401526149348187613e50565b60a084019590955250506001600160a01b039190911660c09091015295945050505050565b60006103c080835261496d818401896141f8565b9150508560208301528460408301526149896060830185613f81565b6001600160a01b03929092166103a09190910152949350505050565b600087825286602083015285604083015284606083015260c060808301526149d060c0830185613e50565b82810360a08401526101206149e6828651613ef2565b60208501516149f86020840182613ef2565b506040850151614a0b6040840182613ef2565b506060850151614a1e6060840182613ef2565b506080850151614a316080840182614278565b5060a0850151614a4460a0840182614278565b5060c085015160c083015260e085015160e0830152610100808601518282850152614a7183850182613ef8565b9c9b505050505050505050505050565b600086825285602083015260a06040830152614aa060a0830186613e50565b606083019490945250608001529392505050565b6103a08082528554908201526001808601546103c083015260028601546103e083015260806104008301526003860180546104208401819052600091825260208083209293929091610440860190855b81811015614b1f578354835292850192918401918501614b04565b5050918501889052509150614b3990506040830185613f81565b8261038083015295945050505050565b938452602084019290925260408301526001600160a01b0316606082015260800190565b9182526001600160a01b0316602082015260400190565b83815260a08101614b98602083018561414f565b61210c606083018461414f565b93845260208401929092526040830152606082015260800190565b6040518181016001600160401b0381118282101715614bdb57fe5b604052919050565b60006001600160401b03821115614bf657fe5b5060209081020190565b6001600160a01b031690565b6001600160a01b038116811461192957600080fd5b801515811461192957600080fd5b600b811061192957600080fd5b8060020b811461192957600080fd5b6001600160801b038116811461192957600080fd5b60ff8116811461192957600080fdfe496e697469616c697a61626c653a20636f6e747261637420697320616c726561647920696e697469616c697a6564a264697066735822122052ec2842e9db12b0b58b7ac345f454ef656fb82d45158e9ef81b91c7620d364864736f6c63430007060033",
  "deployedBytecode": "0x608060405234801561001057600080fd5b50600436106101c45760003560e01c806386e6862d116100f9578063d1e6419711610097578063eb02c30111610071578063eb02c30114610403578063ebd2665f14610423578063f46a647714610439578063ffdea55f1461044c576101c4565b8063d1e64197146103bd578063d3487997146103dd578063df6519d2146103f0576101c4565b8063b3ab15fb116100d3578063b3ab15fb1461037c578063ba4247b01461038f578063c3d2ca2d14610397578063c4937b6a146103aa576101c4565b806386e6862d146103415780639403b6341461034957806396d9eebe14610369576101c4565b806351be57d3116101665780635af084d2116101405780635af084d2146102d957806367114859146102fb578063687157731461030e5780636f85ba9c14610321576101c4565b806351be57d31461028b578063570ca735146102a3578063591a48b6146102b8576101c4565b806330050fbd116101a257806330050fbd146102205780633743d142146102405780633c678e14146102555780633e1297151461026b576101c4565b8063013216f5146101c9578063127f0f07146101f2578063275892a21461020b575b600080fd5b6101dc6101d7366004613613565b61045f565b6040516101e991906145a5565b60405180910390f35b6101fa6105f6565b6040516101e99594939291906143db565b610213610624565b6040516101e99190614409565b61023361022e366004613613565b61062a565b6040516101e9919061469d565b61025361024e366004613d1f565b6107c4565b005b61025d610877565b6040516101e9929190614589565b61027e610279366004613613565b6108d4565b6040516101e991906143d0565b610293610983565b6040516101e99493929190614ba5565b6102ab610992565b6040516101e9919061427f565b6102cb6102c6366004613c9b565b6109a1565b6040516101e992919061475e565b6102ec6102e73660046139af565b6109d1565b6040516101e993929190614b84565b61025361030936600461365e565b610a36565b61025361031c366004613643565b610a99565b61033461032f366004613613565b610ae3565b6040516101e9919061460d565b6102ab610c0d565b61035c610357366004613613565b610c2a565b6040516101e99190614860565b6102ec610377366004613c3b565b610cbe565b61025361038a36600461348f565b610d91565b6102ab610e24565b6102136103a5366004613613565b610eaf565b6102cb6103b8366004613dba565b610f51565b6103d06103cb366004613cf0565b610fd1565b6040516101e99190614796565b6102536103eb366004613d40565b6110fb565b6102cb6103fe366004613b16565b611152565b610416610411366004613613565b61125f565b6040516101e991906142ac565b61042b61126a565b6040516101e9929190614779565b610253610447366004613693565b611333565b61025361045a366004613bd8565b6116d6565b610467612c1c565b73__$d48eea142f8e4946a86e978d6ec5b9f014$__631619952e60216005600260008781526020019081526020016000206104a0610c0d565b6040518563ffffffff1660e01b81526004016104bf9493929190614b49565b60006040518083038186803b1580156104d757600080fd5b505af41580156104eb573d6000803e3d6000fd5b50505060008381526002602052604090819020905163a90989b160e01b815273__$da03e66f624374a74ff67f4d42d7f52632$__925063a90989b191610537916005919060040161451b565b60006040518083038186803b15801561054f57600080fd5b505af4158015610563573d6000803e3d6000fd5b505050600083815260026020818152604092839020835161010081018552815480850b850b850b825263010000008104850b850b850b9382019390935266010000000000009092046001600160801b03169382019390935260018301546060820152908201546080820152600382015460a0820152600482015460c082015260059091015460e08201529150505b919050565b600954600a54600854601b54601c54600160a01b90940460ff169492936001600160a01b0390921692909190565b60015481565b610632612c70565b600082815260046020908152604091829020825160808101845281548152835160a081019094526001820180549194929385019291829060ff16600281111561067757fe5b600281111561068257fe5b81526020016001820154815260200160028201548152602001600382015481526020016004820154815250508152602001600682016040518060a00160405290816000820160009054906101000a900460ff1660028111156106e057fe5b60028111156106eb57fe5b81526020016001820154815260200160028201548152602001600382015481526020016004820154815250508152602001600b8201805480602002602001604051908101604052809291908181526020016000905b828210156107b65760008481526020908190206040805160c08101825260068602909201805460ff16151583526001808201548486015260028201546001600160801b03169284019290925260038101546060840152600481015460808401526005015460a08301529083529092019101610740565b505050915250909392505050565b602a546001600160a01b031633146107f75760405162461bcd60e51b81526004016107ee90614467565b60405180910390fd5b601b54821180159061080b5750601c548111155b6108275760405162461bcd60e51b81526004016107ee90614483565b601b80548390039055601c80548290039055811561085657600554610856906001600160a01b0316338461179e565b801561087357600654610873906001600160a01b0316338361179e565b5050565b60408051608080820183526021548252602254602080840191909152602354838501526024546060808501919091528451928301855260255483526026549183019190915260275493820193909352602854928101929092529082565b60006108df826118ec565b600082815260036020526040908190209051630d5e377d60e11b815273__$a1fa80d38d689cae49e54718da49b6432c$__91631abc6efa9161092c91906004906005906002908301614ab4565b60206040518083038186803b15801561094457600080fd5b505af4158015610958573d6000803e3d6000fd5b505050506040513d601f19601f8201168201806040525081019061097c91906135f7565b1592915050565b601d54601e54601f5460205484565b602a546001600160a01b031681565b6109a9612ca4565b6109b1612ca4565b6109c5856109be8761192c565b8686611152565b91509150935093915050565b60006109db612ca4565b6109e3612ca4565b836060015180421115610a085760405162461bcd60e51b81526004016107ee9061442e565b610a13888888611b12565b875160208901519397509195509350610a2b91611cc5565b509450945094915050565b602a546001600160a01b03163314610a605760405162461bcd60e51b81526004016107ee90614467565b81516025556020808301516026556040808401516027556060938401516028558251602155908201516022558101516023550151602455565b602a546001600160a01b03163314610ac35760405162461bcd60e51b81526004016107ee90614467565b8051601d55602080820151601e556040820151601f556060909101519055565b610aeb612cbe565b60008281526003602081815260408084208151608081018352815481526001820154818501526002820154818401529381018054835181860281018601909452808452919360608601939290830182828015610b6657602002820191906000526020600020905b815481526020019060010190808311610b52575b50505091909252505060405163149ccfa160e11b815291925073__$b4a4919001844372a79711112cfb20c2b9$__916329399f429150610bb290849060049060029060059083016148c4565b60006040518083038186803b158015610bca57600080fd5b505af4158015610bde573d6000803e3d6000fd5b505050506040513d6000823e601f3d908101601f19168201604052610c069190810190613766565b9392505050565b600854600090610c25906001600160a01b0316611d06565b905090565b610c32612cfb565b6000828152600360208181526040928390208351608081018552815481526001820154818401526002820154818601529281018054855181850281018501909652808652939491936060860193830182828015610cae57602002820191906000526020600020905b815481526020019060010190808311610c9a575b5050505050815250509050919050565b6000610cc8612ca4565b610cd0612ca4565b600073__$7ffffda71c6e7abde662efb5427d8d1c5d$__6307927e4b888860600151610cfa610c0d565b89604001516040518563ffffffff1660e01b8152600401610d1e9493929190614665565b60006040518083038186803b158015610d3657600080fd5b505af4158015610d4a573d6000803e3d6000fd5b505050506040513d6000823e601f3d908101601f19168201604052610d7291908101906134c7565b9050610d80888288886109d1565b919a90995090975095505050505050565b602a546001600160a01b03163314610dbb5760405162461bcd60e51b81526004016107ee90614467565b6001600160a01b038116610dce57600080fd5b602a80546001600160a01b0319166001600160a01b0383161790556040517fb3b3f5f64ab192e4b5fefde1f51ce9733bbdcf831951543b325aebd49cc27ec490610e1990839061427f565b60405180910390a150565b6040516310fe062760e11b815260009073__$a1fa80d38d689cae49e54718da49b6432c$__906321fc0c4e90610e5f906005906004016144d8565b60206040518083038186803b158015610e7757600080fd5b505af4158015610e8b573d6000803e3d6000fd5b505050506040513d601f19601f82011682018060405250810190610c2591906134ab565b600081815260036020526040808220905163b7f22f3960e01b815273__$a1fa80d38d689cae49e54718da49b6432c$__9163b7f22f3991610efb91906004906005906002908301614ab4565b60206040518083038186803b158015610f1357600080fd5b505af4158015610f27573d6000803e3d6000fd5b505050506040513d601f19601f82011682018060405250810190610f4b919061362b565b92915050565b610f59612ca4565b610f61612ca4565b604080516001808252818301909252600091816020015b610f80612d23565b815260200190600190039081610f78579050509050610f9f8787611d86565b81600081518110610fac57fe5b6020026020010181905250610fc387828787611152565b925092505094509492505050565b610fd9612cfb565b610fe2836118ec565b600083815260036020818152604092839020835160808101855281548152600182015481840152600282015481860152928101805485518185028101850190965280865293949193606086019383018282801561105e57602002820191906000526020600020905b81548152602001906001019080831161104a575b505050919092525050604051635d8d458360e11b815273__$b4a4919001844372a79711112cfb20c2b9$__9263bb1a8b0692506110a79160049060029060059089908401614959565b60006040518083038186803b1580156110bf57600080fd5b505af41580156110d3573d6000803e3d6000fd5b505050506040513d6000823e601f3d908101601f19168201604052610c069190810190613886565b6008546001600160a01b0316331461111257600080fd5b831561112f5760055461112f906001600160a01b0316338661179e565b821561114c5760065461114c906001600160a01b0316338561179e565b50505050565b61115a612ca4565b611162612ca4565b8260800151804211156111875760405162461bcd60e51b81526004016107ee9061442e565b600073__$7ffffda71c6e7abde662efb5427d8d1c5d$__6366d66178888860600151886040015189606001516111bb610c0d565b6040518663ffffffff1660e01b81526004016111db959493929190614348565b60006040518083038186803b1580156111f357600080fd5b505af4158015611207573d6000803e3d6000fd5b505050506040513d6000823e601f3d908101601f1916820160405261122f91908101906134c7565b905061123c888288611b12565b87516020890151929750909550611254925090611cc5565b505094509492505050565b6060610f4b8261192c565b611272612d59565b61127a612d59565b611282612114565b5050604080516101008082018352600b548252600c54602080840191909152600d5483850152600e54606080850191909152600f5460808086019190915260105460a08087019190915260115460c08088019190915260125460e080890191909152885196870189526013548752601454958701959095526015549786019790975260165492850192909252601754908401526018549083015260195493820193909352601a549281019290925291565b600054610100900460ff168061134c575061134c6121a8565b8061135a575060005460ff16155b6113955760405162461bcd60e51b815260040180806020018281038252602e815260200180614c70602e913960400191505060405180910390fd5b600054610100900460ff161580156113c0576000805460ff1961ff0019909116610100171660011790555b6001600160a01b0382166113d357600080fd5b8560000151600560010160146101000a81548162ffffff021916908362ffffff1602179055508560200151600560000160006101000a8154816001600160a01b0302191690836001600160a01b031602179055508560400151600560010160006101000a8154816001600160a01b0302191690836001600160a01b031602179055508560600151600560040160146101000a81548160ff02191690831515021790555083600560020160006101000a8154816001600160a01b0302191690836001600160a01b0316021790555082600560040160006101000a8154816001600160a01b0302191690836001600160a01b0316021790555060006040518060600160405280600560000160009054906101000a90046001600160a01b03166001600160a01b03168152602001600560010160009054906101000a90046001600160a01b03166001600160a01b03168152602001600560010160149054906101000a900462ffffff1662ffffff16815250905061154e86826121b9565b600880546001600160a01b03199081166001600160a01b0393841617909155602b80549091169185169190911790556001600a5561158c600b61229d565b611596601361229d565b42600155602a80546001600160a01b0319163317905560055460405163095ea7b360e01b81526001600160a01b03919091169063095ea7b3906115e190889060001990600401614293565b602060405180830381600087803b1580156115fb57600080fd5b505af115801561160f573d6000803e3d6000fd5b505050506040513d601f19601f8201168201806040525081019061163391906135f7565b5060065460405163095ea7b360e01b81526001600160a01b039091169063095ea7b39061166890889060001990600401614293565b602060405180830381600087803b15801561168257600080fd5b505af1158015611696573d6000803e3d6000fd5b505050506040513d601f19601f820116820180604052508101906116ba91906135f7565b505080156116ce576000805461ff00191690555b505050505050565b600073__$7ffffda71c6e7abde662efb5427d8d1c5d$__6366d661786116fb8561125f565b60095485516020870151600160a01b90920460ff1691611719610c0d565b6040518663ffffffff1660e01b8152600401611739959493929190614348565b60006040518083038186803b15801561175157600080fd5b505af4158015611765573d6000803e3d6000fd5b505050506040513d6000823e601f3d908101601f1916820160405261178d91908101906134c7565b905061179983826122b5565b505050565b604080516001600160a01b038481166024830152604480830185905283518084039091018152606490920183526020820180516001600160e01b031663a9059cbb60e01b1781529251825160009485949389169392918291908083835b6020831061181a5780518252601f1990920191602091820191016117fb565b6001836020036101000a0380198251168184511680821785525050505050509050019150506000604051808303816000865af19150503d806000811461187c576040519150601f19603f3d011682016040523d82523d6000602084013e611881565b606091505b50915091508180156118af5750805115806118af57508080602001905160208110156118ac57600080fd5b50515b6118e5576040805162461bcd60e51b815260206004820152600260248201526114d560f21b604482015290519081900360640190fd5b5050505050565b6040805160008082526020820190925261192991839190611923565b611910612d9e565b8152602001906001900390816119085790505b506123df565b50565b6060600060036000848152602001908152602001600020604051806080016040529081600082015481526020016001820154815260200160028201548152602001600382018054806020026020016040519081016040528092919081815260200182805480156119bb57602002820191906000526020600020905b8154815260200190600101908083116119a7575b50505091909252505060408051610180810182526005546001600160a01b03908116825260065480821660208085019190915262ffffff600160a01b9283900416848601526007548316606080860191909152600854841660808087019190915260095494851660a08088019190915260ff9490950493909316151560c080870191909152600a5460e08088019190915287516101008181018a52600b548252600c5482870152600d54828b0152600e5482860152600f548288015260105482890152601154828501526012548284015280890191909152885190810189526013548152601454948101949094526015549784019790975260165491830191909152601754928201929092526018549281019290925260195490820152601a5492810192909252610120810191909152601b54610140820152601c54610160820152919250610c069183915060049060029061252c565b6000611b1c612ca4565b611b24612ca4565b602b546040805163186e33a360e21b8152905188926001600160a01b0316916361b8ce8c9160048083019260209291908290030181600087803b158015611b6a57600080fd5b505af1158015611b7e573d6000803e3d6000fd5b505050506040513d601f19601f82011682018060405250810190611ba2919061362b565b8110611bc05760405162461bcd60e51b81526004016107ee906144bc565b611bca87876123df565b6000611bda88876040015161277c565b604051636413e81f60e11b8152919650915060009073__$68d6cdd7134515db34cd8ee009462a2aba$__9063c827d03e90611c259085906004906005906002908f908f9085016149a5565b6101006040518083038186803b158015611c3e57600080fd5b505af4158015611c52573d6000803e3d6000fd5b505050506040513d601f19601f82011682018060405250810190611c76919061380c565b805160608201519096509450905088611cb957845160001280611c9d575060008560200151135b611cb95760405162461bcd60e51b81526004016107ee90614412565b50505093509350939050565b6000611ccf610c0d565b6001600160a01b03169050808311158015611cea5750818111155b6117995760405162461bcd60e51b81526004016107ee9061449f565b6000816001600160a01b0316633850c7bd6040518163ffffffff1660e01b815260040160e06040518083038186803b158015611d4157600080fd5b505afa158015611d55573d6000803e3d6000fd5b505050506040513d601f19601f82011682018060405250810190611d79919061391e565b5094979650505050505050565b611d8e612d23565b60008381526003602081815260408084208151608081018352815481526001820154818501526002820154818401529381018054835181860281018601909452808452919360608601939290830182828015611e0957602002820191906000526020600020905b815481526020019060010190808311611df5575b505050505081525050905061210c836004600084606001518781518110611e2c57fe5b6020026020010151815260200190815260200160002060405180608001604052908160008201548152602001600182016040518060a00160405290816000820160009054906101000a900460ff166002811115611e8557fe5b6002811115611e9057fe5b81526020016001820154815260200160028201548152602001600382015481526020016004820154815250508152602001600682016040518060a00160405290816000820160009054906101000a900460ff166002811115611eee57fe5b6002811115611ef957fe5b81526020016001820154815260200160028201548152602001600382015481526020016004820154815250508152602001600b8201805480602002602001604051908101604052809291908181526020016000905b82821015611fc45760008481526020908190206040805160c08101825260068602909201805460ff16151583526001808201548486015260028201546001600160801b03169284019290925260038101546060840152600481015460808401526005015460a08301529083529092019101611f4e565b5050509152505060408051610180810182526005546001600160a01b03908116825260065480821660208085019190915262ffffff600160a01b9283900416848601526007548316606080860191909152600854841660808087019190915260095494851660a08088019190915260ff9490950493909316151560c080870191909152600a5460e08088019190915287516101008181018a52600b548252600c5482870152600d54828b0152600e5482860152600f548288015260105482890152601154828501526012548284015280890191909152885190810189526013548152601454948101949094526015549784019790975260165491830191909152601754928201929092526018549281019290925260195490820152601a5492810192909252610120810191909152601b54610140820152601c54610160820152600290612920565b949350505050565b60015460405163725acfd160e01b815273__$d48eea142f8e4946a86e978d6ec5b9f014$__9163725acfd19161215391600591601d91906004016144e7565b60206040518083038186803b15801561216b57600080fd5b505af415801561217f573d6000803e3d6000fd5b505050506040513d601f19601f820116820180604052508101906121a3919061362b565b600155565b60006121b330612b76565b15905090565b600081602001516001600160a01b031682600001516001600160a01b0316106121e157600080fd5b50805160208083015160409384015184516001600160a01b0394851681850152939091168385015262ffffff166060808401919091528351808403820181526080840185528051908301206001600160f81b031960a085015294901b6bffffffffffffffffffffffff191660a183015260b58201939093527fe34f199b19b2b4f47f68442619d555527d244f78a3297ea89325f843f87b8b5460d5808301919091528251808303909101815260f5909101909152805191012090565b670de0b6b3a764000060048201819055600590910155565b602b546040805163186e33a360e21b8152905184926001600160a01b0316916361b8ce8c9160048083019260209291908290030181600087803b1580156122fb57600080fd5b505af115801561230f573d6000803e3d6000fd5b505050506040513d601f19601f82011682018060405250810190612333919061362b565b81106123515760405162461bcd60e51b81526004016107ee906144bc565b61235b83836123df565b6000838152600360205260409081902090516349b3bd7960e11b815273__$a1fa80d38d689cae49e54718da49b6432c$__916393677af2916123aa919060049087906005906002908401614a81565b60006040518083038186803b1580156123c257600080fd5b505af41580156123d6573d6000803e3d6000fd5b50505050505050565b6123e7612114565b6000828152600360208181526040808420815160808101835281548152600182015481850152600282015481840152938101805483518186028101860190945280845291936060860193929083018282801561246257602002820191906000526020600020905b81548152602001906001019080831161244e575b505050505081525050905073__$d48eea142f8e4946a86e978d6ec5b9f014$__63a5d330ad82600460026005876021612499610c0d565b6040518863ffffffff1660e01b81526004016124bb97969594939291906148fd565b60006040518083038186803b1580156124d357600080fd5b505af41580156124e7573d6000803e3d6000fd5b5050604051637ce761e760e01b815273__$da03e66f624374a74ff67f4d42d7f52632$__9250637ce761e791506123aa90600590859060049060029089908301614538565b60608460600151516001600160401b038111801561254957600080fd5b5060405190808252806020026020018201604052801561258357816020015b612570612d23565b8152602001906001900390816125685790505b50905060005b8560600151518110156127735761275481866000896060015185815181106125ad57fe5b6020026020010151815260200190815260200160002060405180608001604052908160008201548152602001600182016040518060a00160405290816000820160009054906101000a900460ff16600281111561260657fe5b600281111561261157fe5b81526020016001820154815260200160028201548152602001600382015481526020016004820154815250508152602001600682016040518060a00160405290816000820160009054906101000a900460ff16600281111561266f57fe5b600281111561267a57fe5b81526020016001820154815260200160028201548152602001600382015481526020016004820154815250508152602001600b8201805480602002602001604051908101604052809291908181526020016000905b828210156127455760008481526020908190206040805160c08101825260068602909201805460ff16151583526001808201548486015260028201546001600160801b03169284019290925260038101546060840152600481015460808401526005015460a083015290835290920191016126cf565b50505050815250508686612920565b82828151811061276057fe5b6020908102919091010152600101612589565b50949350505050565b6000808361285957602b546040516354ba0f2760e01b81526001600160a01b03909116906354ba0f27906127b490339060040161427f565b602060405180830381600087803b1580156127ce57600080fd5b505af11580156127e2573d6000803e3d6000fd5b505050506040513d601f19601f82011682018060405250810190612806919061362b565b60008181526003602052604090819020829055519092507fbf3e9c93de94306b70ac5b9411edf475545815333bf651b894b9eada6482c5949061284c9084903390614b6d565b60405180910390a161290a565b602b546040516331a9108f60e11b815285935033916001600160a01b031690636352211e9061288c908690600401614409565b60206040518083038186803b1580156128a457600080fd5b505afa1580156128b8573d6000803e3d6000fd5b505050506040513d601f19601f820116820180604052508101906128dc91906134ab565b6001600160a01b031614806128ee5750825b61290a5760405162461bcd60e51b81526004016107ee9061444b565b5060008181526003602052604090209250929050565b612928612d23565b60008460600151516001600160401b038111801561294557600080fd5b5060405190808252806020026020018201604052801561297f57816020015b61296c612de4565b8152602001906001900390816129645790505b50905060005b856060015151811015612ad3576000866060015182815181106129a457fe5b60209081029190910181015181015160008181528883526040908190208151610100810183528154600281810b810b810b835263010000008204810b810b810b96830196909652660100000000000090046001600160801b031681840152600182015460608083019190915294820154608080830191909152600383015460a0830152600483015460c083015260059092015460e08201528251918201909252928a0151805192945090929182919086908110612a5d57fe5b6020026020010151600001511515815260200189606001518581518110612a8057fe5b6020026020010151604001516001600160801b03168152602001826000015160020b8152602001826020015160020b815250848481518110612abe57fe5b60209081029190910101525050600101612985565b506040518060c00160405280878152602001612b018760200151866101000151612b7c90919063ffffffff16565b8152602001612b228760400151866101200151612b7c90919063ffffffff16565b8152602001612b438760200151866101000151612bc090919063ffffffff16565b8152602001612b648760400151866101200151612bc090919063ffffffff16565b81526020019190915295945050505050565b3b151590565b6000600182516002811115612b8d57fe5b1415612bb557612bae82602001518460800151670de0b6b3a7640000612bfd565b9050610f4b565b506020810151610f4b565b6000600182516002811115612bd157fe5b1415612bf257612bae82604001518460a00151670de0b6b3a7640000612bfd565b506040810151610f4b565b828202811515841585830485141716612c1557600080fd5b0492915050565b604051806101000160405280600060020b8152602001600060020b815260200160006001600160801b0316815260200160008152602001600081526020016000815260200160008152602001600081525090565b604051806080016040528060008152602001612c8a612e0b565b8152602001612c97612e0b565b8152602001606081525090565b604051806040016040528060008152602001600081525090565b6040518060e00160405280600081526020016000815260200160008152602001600081526020016000815260200160008152602001606081525090565b6040518060800160405280600081526020016000815260200160008152602001606081525090565b6040518060c001604052806000815260200160008152602001600081526020016000815260200160008152602001606081525090565b60405180610100016040528060008152602001600081526020016000815260200160008152602001600081526020016000815260200160008152602001600081525090565b604080516101008101909152806000815260006020820181905260408201819052606082018190526080820181905260a0820181905260c0820181905260e09091015290565b60408051608081018252600080825260208201819052918101829052606081019190915290565b6040805160a081019091528060008152602001600081526020016000815260200160008152602001600081525090565b80356105f181614c0c565b600082601f830112612e56578081fd5b81356020612e6b612e6683614be3565b614bc0565b82815281810190858301608080860288018501891015612e89578687fd5b865b86811015612f1a5781838b031215612ea1578788fd5b604080518381018181106001600160401b0382111715612ebd57fe5b82528435612eca81614c21565b815284880135612ed981614c4b565b8189015284820135612eea81614c3c565b8083830152506060915081850135612f0181614c3c565b9181019190915285529385019391810191600101612e8b565b509198975050505050505050565b600082601f830112612f38578081fd5b81516020612f48612e6683614be3565b82815281810190858301608080860288018501891015612f66578687fd5b865b86811015612f1a5781838b031215612f7e578788fd5b604080518381018181106001600160401b0382111715612f9a57fe5b82528451612fa781614c21565b815284880151612fb681614c4b565b8189015284820151612fc781614c3c565b8083830152506060915081850151612fde81614c3c565b9181019190915285529385019391810191600101612f68565b600082601f830112613007578081fd5b81516020613017612e6683614be3565b828152818101908583016101e080860288018501891015613036578687fd5b865b86811015612f1a57828a038281121561304f578889fd5b60408051608081016001600160401b03828210818311171561306d57fe5b818452606085121561307d578c8dfd5b60e083019450818510818611171561309157fe5b50838352865181528987015160a08301528683015160c083015281526130ba8d606088016132f1565b898201526130cb8d60e088016132f1565b828201526130dd8d61016088016132f1565b6060820152875250509385019391810191600101613038565b80356105f181614c21565b80516105f181614c21565b600082601f83011261311c578081fd5b81356001600160401b0381111561312f57fe5b613142601f8201601f1916602001614bc0565b818152846020838601011115613156578283fd5b816020850160208301379081016020019190915292915050565b80356105f181614c2f565b80516105f181614c2f565b80356105f181614c3c565b80516105f181614c3c565b600060a082840312156131ad578081fd5b60405160a081018181106001600160401b03821117156131c957fe5b806040525080915082358152602083013560208201526040830135604082015260608301356060820152608083013560808201525092915050565b600060808284031215613215578081fd5b604051608081018181106001600160401b038211171561323157fe5b8060405250809150823581526020830135602082015260408301356040820152606083013560608201525092915050565b600060c08284031215613273578081fd5b60405160c081016001600160401b03828210818311171561329057fe5b81604052829350843583526020850135602084015260408501356040840152606085013560608401526080850135608084015260a08501359150808211156132d757600080fd5b506132e485828601612e46565b60a0830152505092915050565b600060808284031215613302578081fd5b604051608081018181106001600160401b038211171561331e57fe5b8060405250809150825181526020830151602082015260408301516040820152606083015160608201525092915050565b600060408284031215613360578081fd5b604051604081018181106001600160401b038211171561337c57fe5b604052825181526020928301519281019290925250919050565b60006101208083850312156133a9578182fd5b6133b281614bc0565b9150506133be826130f6565b81526133cc602083016130f6565b60208201526133dd604083016130f6565b60408201526133ee606083016130f6565b60608201526133ff60808301613484565b608082015261341060a08301613484565b60a082015260c082013560c082015260e082013560e0820152610100808301356001600160401b0381111561344457600080fd5b6134508582860161310c565b82840152505092915050565b80356105f181614c4b565b80516105f181614c4b565b805161ffff811681146105f157600080fd5b80356105f181614c60565b6000602082840312156134a0578081fd5b8135610c0681614c0c565b6000602082840312156134bc578081fd5b8151610c0681614c0c565b600060208083850312156134d9578182fd5b82516001600160401b03808211156134ef578384fd5b818501915085601f830112613502578384fd5b8151613510612e6682614be3565b81815284810190848601610100808502870188018b101561352f578889fd5b8896505b848710156135e85780828c031215613549578889fd5b60408051828101818110898211171561355e57fe5b82526135698461317b565b8152898401518a82015261357e828501613101565b8282015260609150613591828501613467565b82820152608091506135a4828501613191565b8282015260a091506135b7828501613191565b9181019190915260c0838101519082015260e080840151908201528452600196909601959287019290810190613533565b50909998505050505050505050565b600060208284031215613608578081fd5b8151610c0681614c21565b600060208284031215613624578081fd5b5035919050565b60006020828403121561363c578081fd5b5051919050565b600060808284031215613654578081fd5b610c068383613204565b6000806101008385031215613671578081fd5b61367b8484613204565b915061368a8460808501613204565b90509250929050565b60008060008060008587036101008112156136ac578182fd5b60808112156136b9578182fd5b50604051608081018181106001600160401b03821117156136d657fe5b604052863562ffffff811681146136eb578283fd5b815260208701356136fb81614c0c565b602082015261370c60408801612e3b565b604082015261371d606088016130f6565b6060820152945061373060808701612e3b565b935061373e60a08701612e3b565b925061374c60c08701612e3b565b915061375a60e08701612e3b565b90509295509295909350565b600060208284031215613777578081fd5b81516001600160401b038082111561378d578283fd5b9083019060e082860312156137a0578283fd5b6137aa60e0614bc0565b825181526020830151602082015260408301516040820152606083015160608201526080830151608082015260a083015160a082015260c0830151828111156137f1578485fd5b6137fd87828601612f28565b60c08301525095945050505050565b6000610100828403121561381e578081fd5b604051608081018181106001600160401b038211171561383a57fe5b604052613847848461334f565b8152613856846040850161334f565b6020820152613868846080850161334f565b604082015261387a8460c0850161334f565b60608201529392505050565b600060208284031215613897578081fd5b81516001600160401b03808211156138ad578283fd5b90830190608082860312156138c0578283fd5b6040516080810181811083821117156138d557fe5b8060405250825181526020830151602082015260408301516040820152606083015182811115613903578485fd5b61390f87828601612ff7565b60608301525095945050505050565b600080600080600080600060e0888a031215613938578485fd5b875161394381614c0c565b602089015190975061395481614c3c565b955061396260408901613472565b945061397060608901613472565b935061397e60808901613472565b925060a088015161398e81614c60565b60c089015190925061399f81614c21565b8091505092959891949750929550565b60008060008060e085870312156139c4578182fd5b843593506020808601356001600160401b03808211156139e2578485fd5b818801915088601f8301126139f5578485fd5b8135613a03612e6682614be3565b81815284810190848601610100808502870188018e1015613a2257898afd5b8996505b84871015613ad35780828f031215613a3c57898afd5b604080518281018181108982111715613a5157fe5b8252613a5c84613170565b8152898401358a820152613a718285016130f6565b82820152613a816060850161345c565b6060820152613a9260808501613186565b6080820152613aa360a08501613186565b60a082015260c0848101359082015260e08085013590820152855250600196909601959287019290810190613a26565b509098505050506040880135925080831115613aed578485fd5b5050613afb87828801613396565b925050613b0b8660608701613204565b905092959194509250565b6000806000806101008587031215613b2c578182fd5b843593506020808601356001600160401b0380821115613b4a578485fd5b818801915088601f830112613b5d578485fd5b8135613b6b612e6682614be3565b81815284810190848601885b84811015613ba057613b8e8e8984358a0101613262565b84529287019290870190600101613b77565b509098505050506040880135925080831115613bba578485fd5b5050613bc887828801613396565b925050613b0b866060870161319c565b6000808284036060811215613beb578283fd5b833592506040601f1982011215613c00578182fd5b50604051604081018181106001600160401b0382111715613c1d57fe5b60409081526020858101358352940135938101939093525092909150565b60008060008060e08587031215613c50578182fd5b8435935060208501356001600160401b0380821115613c6d578384fd5b613c7988838901613262565b94506040870135915080821115613c8e578384fd5b50613afb87828801613396565b600080600060e08486031215613caf578081fd5b8335925060208401356001600160401b03811115613ccb578182fd5b613cd786828701613396565b925050613ce7856040860161319c565b90509250925092565b60008060408385031215613d02578182fd5b823591506020830135613d1481614c0c565b809150509250929050565b60008060408385031215613d31578182fd5b50508035926020909101359150565b60008060008060608587031215613d55578182fd5b843593506020850135925060408501356001600160401b0380821115613d79578384fd5b818701915087601f830112613d8c578384fd5b813581811115613d9a578485fd5b886020828501011115613dab578485fd5b95989497505060200194505050565b6000806000806101008587031215613dd0578182fd5b843593506020850135925060408501356001600160401b03811115613df3578283fd5b613bc887828801613396565b6001600160a01b03169052565b6000815180845260208085019450808401835b83811015613e4557613e32878351614092565b6080969096019590820190600101613e1f565b509495945050505050565b6000815180845260208085019450808401835b83811015613e455781518051600b8110613e7957fe5b88528084015184890152604080820151151590890152606080820151613ea1828b0182614262565b5050608080820151613eb5828b0182613f43565b505060a080820151613ec9828b0182613f43565b505060c0818101519089015260e090810151908801526101009096019590820190600101613e63565b15159052565b60008151808452815b81811015613f1d57602081850181015186830182015201613f01565b81811115613f2e5782602083870101525b50601f01601f19169290920160200192915050565b60020b9052565b805160038110613f5657fe5b8252602081810151908301526040808201519083015260608082015190830152608090810151910152565b613f9482613f8f8354614c00565b613dff565b60018101546001600160a01b03613fb060208501828416613dff565b613fc56040850162ffffff8460a01c1661426f565b613fd26002840154614c00565b9150613fe16060850183613dff565b613fee6003840154614c00565b9150613ffd6080850183613dff565b6004830154915061401360a08501828416613dff565b5061402760c0840160ff8360a01c16613ef2565b50600581015460e08301526140436101008301600683016141ac565b6140546102008301600e83016141ac565b60168101546103008301526017015461032090910152565b805182526020810151602083015260408101516040830152606081015160608301525050565b8051151582526001600160801b036020820151166020830152604081015160020b6040830152606081015160020b60608301525050565b600060c08301825184526020808401518186015260408401516040860152606084015160608601526080808501518187015260a085015160c060a088015283815180865260e08901915084830195508692505b808310156141435761412f828751614092565b94840194600192909201919083019061411c565b50979650505050505050565b80518252602090810151910152565b805182526020810151602083015260408101516040830152606081015160608301526080810151608083015260a081015160a083015260c081015160c083015260e081015160e08301525050565b8054825260018101546020830152600281015460408301526003810154606083015260048101546080830152600581015460a0830152600681015460c08301526007015460e090910152565b60006080830182518452602080840151818601526040840151604086015260608401516080606087015282815180855260a08801915083830194508592505b808310156142575784518252938301936001929092019190830190614237565b509695505050505050565b6001600160801b03169052565b62ffffff169052565b60ff169052565b6001600160a01b0391909116815260200190565b6001600160a01b03929092168252602082015260400190565b60208082528251828201819052600091906040908185019080840286018301878501865b8381101561433a57888303603f1901855281518051845287810151888501528681015187850152606080820151908501526080808201519085015260a09081015160c09185018290529061432681860183613e0c565b9689019694505050908601906001016142d0565b509098975050505050505050565b600060a0820160a0835280885180835260c0850191506020925060c0838202860101838b01855b8381101561439d5760bf1988840301855261438b8383516140c9565b9486019492509085019060010161436f565b505098151592850192909252505050604081019390935260608301919091526001600160a01b0316608090910152919050565b901515815260200190565b941515855260208501939093526001600160a01b039190911660408401526060830152608082015260a00190565b90815260200190565b602080825260029082015261140d60f21b604082015260600190565b60208082526003908201526243483160e81b604082015260600190565b602080825260029082015261503160f01b604082015260600190565b602080825260029082015261503360f01b604082015260600190565b6020808252600290820152610a0760f31b604082015260600190565b60208082526003908201526221a41960e91b604082015260600190565b602080825260029082015261281960f11b604082015260600190565b6103408101610f4b8284613f81565b928352815460208401526001820154604084015260028201546060840152600390910154608083015260a082015260c00190565b610360810161452a8285613f81565b826103408301529392505050565b60006103c06145478389613f81565b8061034084015261455a818401886141f8565b905085610360840152846103808401528281036103a084015261457d8185613e50565b98975050505050505050565b6101008101614598828561406c565b610c06608083018461406c565b600061010082019050825160020b8252602083015160020b60208301526001600160801b036040840151166040830152606083015160608301526080830151608083015260a083015160a083015260c083015160c083015260e083015160e083015292915050565b60006020825282516020830152602083015160408301526040830151606083015260608301516080830152608083015160a083015260a083015160c083015260c083015160e08084015261210c610100840182613e0c565b60006080825261467860808301876140c9565b9415156020830152506001600160a01b03929092166040830152606090910152919050565b600060208083526101a083018451828501528185015160406146c181870183613f4a565b8087015191506146d460e0870183613f4a565b6060878101516101808881015280519485905285019390925085906101c08801905b808310156147515785518051151583528781015188840152848101516001600160801b03168584015285810151868401526080808201519084015260a09081015190830152948601946001929092019160c0909101906146f6565b5098975050505050505050565b6080810161476c828561414f565b610c06604083018461414f565b6102008101614788828561415e565b610c0661010083018461415e565b6020808252825182820152828101516040808401919091528084015160608085019190915280850151608080860152805160a08601819052600094939184019285929160c08801905b808510156147515785518051805184528881015189850152850151858401528781015161480e8585018261406c565b5080850151805160e0850152888101516101008501528086015161012085015284015161014084015283015161484861016084018261406c565b506101e08201915086860195506001850194506147df565b6000602080835260a0830184518285015281850151604085015260408501516060850152606085015160808086015281815180845260c08701915084830193508592505b8083101561425757835182529284019260019290920191908401906148a4565b60006103a08083526148d8818401886141f8565b9150508460208301528360408301526148f46060830184613f81565b95945050505050565b600060e0825261491060e083018a6141f8565b88602084015287604084015286606084015282810360808401526149348187613e50565b60a084019590955250506001600160a01b039190911660c09091015295945050505050565b60006103c080835261496d818401896141f8565b9150508560208301528460408301526149896060830185613f81565b6001600160a01b03929092166103a09190910152949350505050565b600087825286602083015285604083015284606083015260c060808301526149d060c0830185613e50565b82810360a08401526101206149e6828651613ef2565b60208501516149f86020840182613ef2565b506040850151614a0b6040840182613ef2565b506060850151614a1e6060840182613ef2565b506080850151614a316080840182614278565b5060a0850151614a4460a0840182614278565b5060c085015160c083015260e085015160e0830152610100808601518282850152614a7183850182613ef8565b9c9b505050505050505050505050565b600086825285602083015260a06040830152614aa060a0830186613e50565b606083019490945250608001529392505050565b6103a08082528554908201526001808601546103c083015260028601546103e083015260806104008301526003860180546104208401819052600091825260208083209293929091610440860190855b81811015614b1f578354835292850192918401918501614b04565b5050918501889052509150614b3990506040830185613f81565b8261038083015295945050505050565b938452602084019290925260408301526001600160a01b0316606082015260800190565b9182526001600160a01b0316602082015260400190565b83815260a08101614b98602083018561414f565b61210c606083018461414f565b93845260208401929092526040830152606082015260800190565b6040518181016001600160401b0381118282101715614bdb57fe5b604052919050565b60006001600160401b03821115614bf657fe5b5060209081020190565b6001600160a01b031690565b6001600160a01b038116811461192957600080fd5b801515811461192957600080fd5b600b811061192957600080fd5b8060020b811461192957600080fd5b6001600160801b038116811461192957600080fd5b60ff8116811461192957600080fdfe496e697469616c697a61626c653a20636f6e747261637420697320616c726561647920696e697469616c697a6564a264697066735822122052ec2842e9db12b0b58b7ac345f454ef656fb82d45158e9ef81b91c7620d364864736f6c63430007060033",
  "libraries": {
    "UpdatePositionLogic": "0x2E05BE4c7451d4f4BaA1c87858D69AE4731c8184",
    "LiquidationLogic": "0xB5c33c28F1e28Df6F3EF30901c55C4E93ae9b81F",
    "PositionUpdater": "0x3A77Fc1ca00c502652b73e6dC67da286a4AfE93C",
    "VaultLib": "0x57942ee15b2FFe5C0a2E8122f460539514f0A7Dc",
    "PositionLib": "0xcbF0e9Ff54496D0d403488AA3f526747cF1d51dE",
    "InterestCalculator": "0x680FbabdF8454cb1cBdA4Eb093e6aeDC5e96687c"
  },
  "devdoc": {
    "kind": "dev",
    "methods": {
      "checkLiquidatable(uint256)": {
        "params": {
          "_vaultId": "vault id"
        },
        "returns": {
          "_0": "isLiquidatable true if the vault is liquidatable, false if the vault is safe."
        }
      },
      "closePosition(uint256,(uint256,uint256,uint256,uint256,uint256,(bool,uint128,int24,int24)[])[],(bool,bool,bool,bool,uint8,uint8,int256,int256,bytes),(uint256,uint256,uint256,uint256,uint256))": {
        "params": {
          "_closePositionOptions": "Option parameters to close position",
          "_positions": "Positions to close",
          "_tradeOption": "Trade parameters",
          "_vaultId": "The id of the vault"
        }
      },
      "closeSubVault(uint256,uint256,(bool,bool,bool,bool,uint8,uint8,int256,int256,bytes),(uint256,uint256,uint256,uint256,uint256))": {
        "params": {
          "_closePositionOptions": "Option parameters to close position",
          "_subVaultIndex": "The index of the sub-vault",
          "_tradeOption": "Trade parameters",
          "_vaultId": "The id of the vault"
        }
      },
      "closeVault(uint256,(bool,bool,bool,bool,uint8,uint8,int256,int256,bytes),(uint256,uint256,uint256,uint256,uint256))": {
        "params": {
          "_closePositionOptions": "Option parameters to close position",
          "_tradeOption": "Trade parameters",
          "_vaultId": "The id of the vault"
        }
      },
      "getRange(bytes32)": {
        "params": {
          "_rangeId": "The id of the LPT"
        }
      },
      "getSubVault(uint256)": {
        "params": {
          "_subVaultId": "The id of the sub-vault"
        }
      },
      "getVault(uint256)": {
        "params": {
          "_vaultId": "The id of the vault"
        }
      },
      "getVaultStatus(uint256,uint160)": {
        "params": {
          "_vaultId": "The id of the vault"
        }
      },
      "liquidate(uint256,(uint256,uint256))": {
        "params": {
          "_liquidationOption": "option parameters for liquidation call",
          "_vaultId": "The id of the vault"
        }
      },
      "openPosition(uint256,(uint256,uint256,uint256,uint256,uint256,(bool,uint128,int24,int24)[]),(bool,bool,bool,bool,uint8,uint8,int256,int256,bytes),(uint256,uint256,uint256,uint256))": {
        "params": {
          "_openPositionOptions": "Option parameters to open position",
          "_position": "Position to open",
          "_tradeOption": "Trade parameters",
          "_vaultId": "The id of the vault. 0 means that it creates new vault."
        }
      },
      "setOperator(address)": {
        "details": "Only operator can call this function.",
        "params": {
          "_newOperator": "The address of new operator"
        }
      },
      "uniswapV3MintCallback(uint256,uint256,bytes)": {
        "details": "Callback for Uniswap V3 pool."
      },
      "updateIRMParams((uint256,uint256,uint256,uint256))": {
        "details": "Only operator can call this function.",
        "params": {
          "_irmParams": "New interest rate model parameter"
        }
      },
      "updateYearlyPremiumParams((uint256,uint256,uint256,uint256),(uint256,uint256,uint256,uint256))": {
        "details": "Only operator can call this function.",
        "params": {
          "_irmParams": "New interest rate model parameter",
          "_premiumParams": "New interest rate model parameter for variance calculation"
        }
      },
      "withdrawProtocolFee(uint256,uint256)": {
        "details": "Only operator can call this function.",
        "params": {
          "_amount0": "amount of token0 to withdraw",
          "_amount1": "amount of token1 to withdraw"
        }
      }
    },
    "version": 1
  },
  "userdoc": {
    "kind": "user",
    "methods": {
      "checkLiquidatable(uint256)": {
        "notice": "Returns the flag whether a vault can be liquidated or not."
      },
      "closePosition(uint256,(uint256,uint256,uint256,uint256,uint256,(bool,uint128,int24,int24)[])[],(bool,bool,bool,bool,uint8,uint8,int256,int256,bytes),(uint256,uint256,uint256,uint256,uint256))": {
        "notice": "Closes position partially."
      },
      "closeSubVault(uint256,uint256,(bool,bool,bool,bool,uint8,uint8,int256,int256,bytes),(uint256,uint256,uint256,uint256,uint256))": {
        "notice": "Closes all positions in sub-vault."
      },
      "closeVault(uint256,(bool,bool,bool,bool,uint8,uint8,int256,int256,bytes),(uint256,uint256,uint256,uint256,uint256))": {
        "notice": "Closes all positions in a vault."
      },
      "getRange(bytes32)": {
        "notice": "Returns a Liquidity Provider Token (LPT) data"
      },
      "getSqrtPrice()": {
        "notice": "Gets square root of current underlying token price by quote token."
      },
      "getSubVault(uint256)": {
        "notice": "Returns a sub-vault data"
      },
      "getTokenState()": {
        "notice": "Returns the status of supplied tokens."
      },
      "getVault(uint256)": {
        "notice": "Returns a vault data"
      },
      "getVaultStatus(uint256,uint160)": {
        "notice": "Returns values and token amounts of the vault."
      },
      "liquidate(uint256,(uint256,uint256))": {
        "notice": "Liquidates a vault."
      },
      "openPosition(uint256,(uint256,uint256,uint256,uint256,uint256,(bool,uint128,int24,int24)[]),(bool,bool,bool,bool,uint8,uint8,int256,int256,bytes),(uint256,uint256,uint256,uint256))": {
        "notice": "Opens new position."
      },
      "setOperator(address)": {
        "notice": "Sets new operator"
      },
      "updateIRMParams((uint256,uint256,uint256,uint256))": {
        "notice": "Updates interest rate model parameter."
      },
      "updateYearlyPremiumParams((uint256,uint256,uint256,uint256),(uint256,uint256,uint256,uint256))": {
        "notice": "Updates interest rate model parameters for premium calculation."
      },
      "withdrawProtocolFee(uint256,uint256)": {
        "notice": "Withdraws accumulated protocol fee."
      }
    },
    "notice": "Error Codes P1: caller must be vault owner P2: vault does not exists P3: caller must be operator P4: cannot create vault with 0 amount",
    "version": 1
  },
  "storageLayout": {
    "storage": [
      {
        "astId": 1040,
        "contract": "src/Controller.sol:Controller",
        "label": "_initialized",
        "offset": 0,
        "slot": "0",
        "type": "t_bool"
      },
      {
        "astId": 1043,
        "contract": "src/Controller.sol:Controller",
        "label": "_initializing",
        "offset": 1,
        "slot": "0",
        "type": "t_bool"
      },
      {
        "astId": 6343,
        "contract": "src/Controller.sol:Controller",
        "label": "lastTouchedTimestamp",
        "offset": 0,
        "slot": "1",
        "type": "t_uint256"
      },
      {
        "astId": 6347,
        "contract": "src/Controller.sol:Controller",
        "label": "ranges",
        "offset": 0,
        "slot": "2",
        "type": "t_mapping(t_bytes32,t_struct(PerpStatus)9154_storage)"
      },
      {
        "astId": 6351,
        "contract": "src/Controller.sol:Controller",
        "label": "vaults",
        "offset": 0,
        "slot": "3",
        "type": "t_mapping(t_uint256,t_struct(Vault)9187_storage)"
      },
      {
        "astId": 6355,
        "contract": "src/Controller.sol:Controller",
        "label": "subVaults",
        "offset": 0,
        "slot": "4",
        "type": "t_mapping(t_uint256,t_struct(SubVault)9177_storage)"
      },
      {
        "astId": 6357,
        "contract": "src/Controller.sol:Controller",
        "label": "context",
        "offset": 0,
        "slot": "5",
        "type": "t_struct(Context)9212_storage"
      },
      {
        "astId": 6359,
        "contract": "src/Controller.sol:Controller",
        "label": "irmParams",
        "offset": 0,
        "slot": "29",
        "type": "t_struct(IRMParams)9456_storage"
      },
      {
        "astId": 6361,
        "contract": "src/Controller.sol:Controller",
        "label": "ypParams",
        "offset": 0,
        "slot": "33",
        "type": "t_struct(YearlyPremiumParams)9447_storage"
      },
      {
        "astId": 6363,
        "contract": "src/Controller.sol:Controller",
        "label": "operator",
        "offset": 0,
        "slot": "42",
        "type": "t_address"
      },
      {
        "astId": 6365,
        "contract": "src/Controller.sol:Controller",
        "label": "vaultNFT",
        "offset": 0,
        "slot": "43",
        "type": "t_address"
      }
    ],
    "types": {
      "t_address": {
        "encoding": "inplace",
        "label": "address",
        "numberOfBytes": "20"
      },
      "t_array(t_struct(LPTState)9167_storage)dyn_storage": {
        "base": "t_struct(LPTState)9167_storage",
        "encoding": "dynamic_array",
        "label": "struct DataType.LPTState[]",
        "numberOfBytes": "32"
      },
      "t_array(t_uint256)dyn_storage": {
        "base": "t_uint256",
        "encoding": "dynamic_array",
        "label": "uint256[]",
        "numberOfBytes": "32"
      },
      "t_bool": {
        "encoding": "inplace",
        "label": "bool",
        "numberOfBytes": "1"
      },
      "t_bytes32": {
        "encoding": "inplace",
        "label": "bytes32",
        "numberOfBytes": "32"
      },
      "t_enum(InterestType)8175": {
        "encoding": "inplace",
        "label": "enum BaseToken.InterestType",
        "numberOfBytes": "1"
      },
      "t_int24": {
        "encoding": "inplace",
        "label": "int24",
        "numberOfBytes": "3"
      },
      "t_int256": {
        "encoding": "inplace",
        "label": "int256",
        "numberOfBytes": "32"
      },
      "t_mapping(t_bytes32,t_struct(PerpStatus)9154_storage)": {
        "encoding": "mapping",
        "key": "t_bytes32",
        "label": "mapping(bytes32 => struct DataType.PerpStatus)",
        "numberOfBytes": "32",
        "value": "t_struct(PerpStatus)9154_storage"
      },
      "t_mapping(t_bytes32,t_struct(TickSnapshot)9433_storage)": {
        "encoding": "mapping",
        "key": "t_bytes32",
        "label": "mapping(bytes32 => struct InterestCalculator.TickSnapshot)",
        "numberOfBytes": "32",
        "value": "t_struct(TickSnapshot)9433_storage"
      },
      "t_mapping(t_uint256,t_struct(SubVault)9177_storage)": {
        "encoding": "mapping",
        "key": "t_uint256",
        "label": "mapping(uint256 => struct DataType.SubVault)",
        "numberOfBytes": "32",
        "value": "t_struct(SubVault)9177_storage"
      },
      "t_mapping(t_uint256,t_struct(Vault)9187_storage)": {
        "encoding": "mapping",
        "key": "t_uint256",
        "label": "mapping(uint256 => struct DataType.Vault)",
        "numberOfBytes": "32",
        "value": "t_struct(Vault)9187_storage"
      },
      "t_struct(AccountState)8203_storage": {
        "encoding": "inplace",
        "label": "struct BaseToken.AccountState",
        "members": [
          {
            "astId": 8194,
            "contract": "src/Controller.sol:Controller",
            "label": "interestType",
            "offset": 0,
            "slot": "0",
            "type": "t_enum(InterestType)8175"
          },
          {
            "astId": 8196,
            "contract": "src/Controller.sol:Controller",
            "label": "assetAmount",
            "offset": 0,
            "slot": "1",
            "type": "t_uint256"
          },
          {
            "astId": 8198,
            "contract": "src/Controller.sol:Controller",
            "label": "debtAmount",
            "offset": 0,
            "slot": "2",
            "type": "t_uint256"
          },
          {
            "astId": 8200,
            "contract": "src/Controller.sol:Controller",
            "label": "lastAssetGrowth",
            "offset": 0,
            "slot": "3",
            "type": "t_uint256"
          },
          {
            "astId": 8202,
            "contract": "src/Controller.sol:Controller",
            "label": "lastDebtGrowth",
            "offset": 0,
            "slot": "4",
            "type": "t_uint256"
          }
        ],
        "numberOfBytes": "160"
      },
      "t_struct(Context)9212_storage": {
        "encoding": "inplace",
        "label": "struct DataType.Context",
        "members": [
          {
            "astId": 9189,
            "contract": "src/Controller.sol:Controller",
            "label": "token0",
            "offset": 0,
            "slot": "0",
            "type": "t_address"
          },
          {
            "astId": 9191,
            "contract": "src/Controller.sol:Controller",
            "label": "token1",
            "offset": 0,
            "slot": "1",
            "type": "t_address"
          },
          {
            "astId": 9193,
            "contract": "src/Controller.sol:Controller",
            "label": "feeTier",
            "offset": 20,
            "slot": "1",
            "type": "t_uint24"
          },
          {
            "astId": 9195,
            "contract": "src/Controller.sol:Controller",
            "label": "swapRouter",
            "offset": 0,
            "slot": "2",
            "type": "t_address"
          },
          {
            "astId": 9197,
            "contract": "src/Controller.sol:Controller",
            "label": "uniswapPool",
            "offset": 0,
            "slot": "3",
            "type": "t_address"
          },
          {
            "astId": 9199,
            "contract": "src/Controller.sol:Controller",
            "label": "chainlinkPriceFeed",
            "offset": 0,
            "slot": "4",
            "type": "t_address"
          },
          {
            "astId": 9201,
            "contract": "src/Controller.sol:Controller",
            "label": "isMarginZero",
            "offset": 20,
            "slot": "4",
            "type": "t_bool"
          },
          {
            "astId": 9203,
            "contract": "src/Controller.sol:Controller",
            "label": "nextSubVaultId",
            "offset": 0,
            "slot": "5",
            "type": "t_uint256"
          },
          {
            "astId": 9205,
            "contract": "src/Controller.sol:Controller",
            "label": "tokenState0",
            "offset": 0,
            "slot": "6",
            "type": "t_struct(TokenState)8192_storage"
          },
          {
            "astId": 9207,
            "contract": "src/Controller.sol:Controller",
            "label": "tokenState1",
            "offset": 0,
            "slot": "14",
            "type": "t_struct(TokenState)8192_storage"
          },
          {
            "astId": 9209,
            "contract": "src/Controller.sol:Controller",
            "label": "accumuratedProtocolFee0",
            "offset": 0,
            "slot": "22",
            "type": "t_uint256"
          },
          {
            "astId": 9211,
            "contract": "src/Controller.sol:Controller",
            "label": "accumuratedProtocolFee1",
            "offset": 0,
            "slot": "23",
            "type": "t_uint256"
          }
        ],
        "numberOfBytes": "768"
      },
      "t_struct(IRMParams)9456_storage": {
        "encoding": "inplace",
        "label": "struct InterestCalculator.IRMParams",
        "members": [
          {
            "astId": 9449,
            "contract": "src/Controller.sol:Controller",
            "label": "baseRate",
            "offset": 0,
            "slot": "0",
            "type": "t_uint256"
          },
          {
            "astId": 9451,
            "contract": "src/Controller.sol:Controller",
            "label": "kinkRate",
            "offset": 0,
            "slot": "1",
            "type": "t_uint256"
          },
          {
            "astId": 9453,
            "contract": "src/Controller.sol:Controller",
            "label": "slope1",
            "offset": 0,
            "slot": "2",
            "type": "t_uint256"
          },
          {
            "astId": 9455,
            "contract": "src/Controller.sol:Controller",
            "label": "slope2",
            "offset": 0,
            "slot": "3",
            "type": "t_uint256"
          }
        ],
        "numberOfBytes": "128"
      },
      "t_struct(LPTState)9167_storage": {
        "encoding": "inplace",
        "label": "struct DataType.LPTState",
        "members": [
          {
            "astId": 9156,
            "contract": "src/Controller.sol:Controller",
            "label": "isCollateral",
            "offset": 0,
            "slot": "0",
            "type": "t_bool"
          },
          {
            "astId": 9158,
            "contract": "src/Controller.sol:Controller",
            "label": "rangeId",
            "offset": 0,
            "slot": "1",
            "type": "t_bytes32"
          },
          {
            "astId": 9160,
            "contract": "src/Controller.sol:Controller",
            "label": "liquidityAmount",
            "offset": 0,
            "slot": "2",
            "type": "t_uint128"
          },
          {
            "astId": 9162,
            "contract": "src/Controller.sol:Controller",
            "label": "premiumGrowthLast",
            "offset": 0,
            "slot": "3",
            "type": "t_uint256"
          },
          {
            "astId": 9164,
            "contract": "src/Controller.sol:Controller",
            "label": "fee0Last",
            "offset": 0,
            "slot": "4",
            "type": "t_uint256"
          },
          {
            "astId": 9166,
            "contract": "src/Controller.sol:Controller",
            "label": "fee1Last",
            "offset": 0,
            "slot": "5",
            "type": "t_uint256"
          }
        ],
        "numberOfBytes": "192"
      },
      "t_struct(PerpStatus)9154_storage": {
        "encoding": "inplace",
        "label": "struct DataType.PerpStatus",
        "members": [
          {
            "astId": 9139,
            "contract": "src/Controller.sol:Controller",
            "label": "lowerTick",
            "offset": 0,
            "slot": "0",
            "type": "t_int24"
          },
          {
            "astId": 9141,
            "contract": "src/Controller.sol:Controller",
            "label": "upperTick",
            "offset": 3,
            "slot": "0",
            "type": "t_int24"
          },
          {
            "astId": 9143,
            "contract": "src/Controller.sol:Controller",
            "label": "borrowedLiquidity",
            "offset": 6,
            "slot": "0",
            "type": "t_uint128"
          },
          {
            "astId": 9145,
            "contract": "src/Controller.sol:Controller",
            "label": "premiumGrowthForBorrower",
            "offset": 0,
            "slot": "1",
            "type": "t_uint256"
          },
          {
            "astId": 9147,
            "contract": "src/Controller.sol:Controller",
            "label": "premiumGrowthForLender",
            "offset": 0,
            "slot": "2",
            "type": "t_uint256"
          },
          {
            "astId": 9149,
            "contract": "src/Controller.sol:Controller",
            "label": "fee0Growth",
            "offset": 0,
            "slot": "3",
            "type": "t_uint256"
          },
          {
            "astId": 9151,
            "contract": "src/Controller.sol:Controller",
            "label": "fee1Growth",
            "offset": 0,
            "slot": "4",
            "type": "t_uint256"
          },
          {
            "astId": 9153,
            "contract": "src/Controller.sol:Controller",
            "label": "lastTouchedTimestamp",
            "offset": 0,
            "slot": "5",
            "type": "t_uint256"
          }
        ],
        "numberOfBytes": "192"
      },
      "t_struct(SubVault)9177_storage": {
        "encoding": "inplace",
        "label": "struct DataType.SubVault",
        "members": [
          {
            "astId": 9169,
            "contract": "src/Controller.sol:Controller",
            "label": "id",
            "offset": 0,
            "slot": "0",
            "type": "t_uint256"
          },
          {
            "astId": 9171,
            "contract": "src/Controller.sol:Controller",
            "label": "balance0",
            "offset": 0,
            "slot": "1",
            "type": "t_struct(AccountState)8203_storage"
          },
          {
            "astId": 9173,
            "contract": "src/Controller.sol:Controller",
            "label": "balance1",
            "offset": 0,
            "slot": "6",
            "type": "t_struct(AccountState)8203_storage"
          },
          {
            "astId": 9176,
            "contract": "src/Controller.sol:Controller",
            "label": "lpts",
            "offset": 0,
            "slot": "11",
            "type": "t_array(t_struct(LPTState)9167_storage)dyn_storage"
          }
        ],
        "numberOfBytes": "384"
      },
      "t_struct(TickSnapshot)9433_storage": {
        "encoding": "inplace",
        "label": "struct InterestCalculator.TickSnapshot",
        "members": [
          {
            "astId": 9430,
            "contract": "src/Controller.sol:Controller",
            "label": "lastSecondsPerLiquidityInside",
            "offset": 0,
            "slot": "0",
            "type": "t_uint256"
          },
          {
            "astId": 9432,
            "contract": "src/Controller.sol:Controller",
            "label": "lastSecondsPerLiquidity",
            "offset": 0,
            "slot": "1",
            "type": "t_uint256"
          }
        ],
        "numberOfBytes": "64"
      },
      "t_struct(TokenState)8192_storage": {
        "encoding": "inplace",
        "label": "struct BaseToken.TokenState",
        "members": [
          {
            "astId": 8177,
            "contract": "src/Controller.sol:Controller",
            "label": "totalCompoundDeposited",
            "offset": 0,
            "slot": "0",
            "type": "t_uint256"
          },
          {
            "astId": 8179,
            "contract": "src/Controller.sol:Controller",
            "label": "totalCompoundBorrowed",
            "offset": 0,
            "slot": "1",
            "type": "t_uint256"
          },
          {
            "astId": 8181,
            "contract": "src/Controller.sol:Controller",
            "label": "totalNormalDeposited",
            "offset": 0,
            "slot": "2",
            "type": "t_uint256"
          },
          {
            "astId": 8183,
            "contract": "src/Controller.sol:Controller",
            "label": "totalNormalBorrowed",
            "offset": 0,
            "slot": "3",
            "type": "t_uint256"
          },
          {
            "astId": 8185,
            "contract": "src/Controller.sol:Controller",
            "label": "assetScaler",
            "offset": 0,
            "slot": "4",
            "type": "t_uint256"
          },
          {
            "astId": 8187,
            "contract": "src/Controller.sol:Controller",
            "label": "debtScaler",
            "offset": 0,
            "slot": "5",
            "type": "t_uint256"
          },
          {
            "astId": 8189,
            "contract": "src/Controller.sol:Controller",
            "label": "assetGrowth",
            "offset": 0,
            "slot": "6",
            "type": "t_uint256"
          },
          {
            "astId": 8191,
            "contract": "src/Controller.sol:Controller",
            "label": "debtGrowth",
            "offset": 0,
            "slot": "7",
            "type": "t_uint256"
          }
        ],
        "numberOfBytes": "256"
      },
      "t_struct(Vault)9187_storage": {
        "encoding": "inplace",
        "label": "struct DataType.Vault",
        "members": [
          {
            "astId": 9179,
            "contract": "src/Controller.sol:Controller",
            "label": "vaultId",
            "offset": 0,
            "slot": "0",
            "type": "t_uint256"
          },
          {
            "astId": 9181,
            "contract": "src/Controller.sol:Controller",
            "label": "marginAmount0",
            "offset": 0,
            "slot": "1",
            "type": "t_int256"
          },
          {
            "astId": 9183,
            "contract": "src/Controller.sol:Controller",
            "label": "marginAmount1",
            "offset": 0,
            "slot": "2",
            "type": "t_int256"
          },
          {
            "astId": 9186,
            "contract": "src/Controller.sol:Controller",
            "label": "subVaults",
            "offset": 0,
            "slot": "3",
            "type": "t_array(t_uint256)dyn_storage"
          }
        ],
        "numberOfBytes": "128"
      },
      "t_struct(YearlyPremiumParams)9447_storage": {
        "encoding": "inplace",
        "label": "struct InterestCalculator.YearlyPremiumParams",
        "members": [
          {
            "astId": 9440,
            "contract": "src/Controller.sol:Controller",
            "label": "premiumParams",
            "offset": 0,
            "slot": "0",
            "type": "t_struct(IRMParams)9456_storage"
          },
          {
            "astId": 9442,
            "contract": "src/Controller.sol:Controller",
            "label": "irmParams",
            "offset": 0,
            "slot": "4",
            "type": "t_struct(IRMParams)9456_storage"
          },
          {
            "astId": 9446,
            "contract": "src/Controller.sol:Controller",
            "label": "snapshots",
            "offset": 0,
            "slot": "8",
            "type": "t_mapping(t_bytes32,t_struct(TickSnapshot)9433_storage)"
          }
        ],
        "numberOfBytes": "288"
      },
      "t_uint128": {
        "encoding": "inplace",
        "label": "uint128",
        "numberOfBytes": "16"
      },
      "t_uint24": {
        "encoding": "inplace",
        "label": "uint24",
        "numberOfBytes": "3"
      },
      "t_uint256": {
        "encoding": "inplace",
        "label": "uint256",
        "numberOfBytes": "32"
      }
    }
  }
}