{
  "address": "0x31233b6B4bB44Caa06A9D495552bB7eD8D280B23",
  "abi": [
    {
      "inputs": [],
      "stateMutability": "nonpayable",
      "type": "constructor"
    },
    {
      "anonymous": false,
      "inputs": [
        {
          "indexed": false,
          "internalType": "uint256",
          "name": "vaultId",
          "type": "uint256"
        },
        {
          "indexed": false,
          "internalType": "int256",
          "name": "a0",
          "type": "int256"
        },
        {
          "indexed": false,
          "internalType": "int256",
          "name": "a1",
          "type": "int256"
        },
        {
          "indexed": false,
          "internalType": "uint160",
          "name": "sqrtPrice",
          "type": "uint160"
        },
        {
          "indexed": false,
          "internalType": "bytes",
          "name": "metadata",
          "type": "bytes"
        }
      ],
      "name": "PositionUpdated",
      "type": "event"
    },
    {
      "anonymous": false,
      "inputs": [
        {
          "indexed": false,
          "internalType": "uint256",
          "name": "vaultId",
          "type": "uint256"
        },
        {
          "indexed": false,
          "internalType": "address",
          "name": "owner",
          "type": "address"
        }
      ],
      "name": "VaultCreated",
      "type": "event"
    },
    {
      "inputs": [
        {
          "internalType": "bytes32",
          "name": "_rangeId",
          "type": "bytes32"
        },
        {
          "internalType": "uint256",
          "name": "_utilizationRatio",
          "type": "uint256"
        }
      ],
      "name": "calculateYearlyPremium",
      "outputs": [
        {
          "internalType": "uint256",
          "name": "",
          "type": "uint256"
        }
      ],
      "stateMutability": "view",
      "type": "function"
    },
    {
      "inputs": [
        {
          "internalType": "uint256",
          "name": "_vaultId",
          "type": "uint256"
        }
      ],
      "name": "checkLiquidatable",
      "outputs": [
        {
          "internalType": "bool",
          "name": "",
          "type": "bool"
        }
      ],
      "stateMutability": "nonpayable",
      "type": "function"
    },
    {
      "inputs": [
        {
          "internalType": "uint256",
          "name": "_vaultId",
          "type": "uint256"
        },
        {
          "components": [
            {
              "internalType": "uint256",
              "name": "subVaultIndex",
              "type": "uint256"
            },
            {
              "internalType": "uint256",
              "name": "asset0",
              "type": "uint256"
            },
            {
              "internalType": "uint256",
              "name": "asset1",
              "type": "uint256"
            },
            {
              "internalType": "uint256",
              "name": "debt0",
              "type": "uint256"
            },
            {
              "internalType": "uint256",
              "name": "debt1",
              "type": "uint256"
            },
            {
              "components": [
                {
                  "internalType": "bool",
                  "name": "isCollateral",
                  "type": "bool"
                },
                {
                  "internalType": "uint128",
                  "name": "liquidity",
                  "type": "uint128"
                },
                {
                  "internalType": "int24",
                  "name": "lowerTick",
                  "type": "int24"
                },
                {
                  "internalType": "int24",
                  "name": "upperTick",
                  "type": "int24"
                }
              ],
              "internalType": "struct DataType.LPT[]",
              "name": "lpts",
              "type": "tuple[]"
            }
          ],
          "internalType": "struct DataType.Position[]",
          "name": "_positions",
          "type": "tuple[]"
        },
        {
          "components": [
            {
              "internalType": "bool",
              "name": "reduceOnly",
              "type": "bool"
            },
            {
              "internalType": "bool",
              "name": "swapAnyway",
              "type": "bool"
            },
            {
              "internalType": "bool",
              "name": "quoterMode",
              "type": "bool"
            },
            {
              "internalType": "bool",
              "name": "isQuoteZero",
              "type": "bool"
            },
            {
              "internalType": "int256",
              "name": "targetMarginAmount0",
              "type": "int256"
            },
            {
              "internalType": "int256",
              "name": "targetMarginAmount1",
              "type": "int256"
            },
            {
              "internalType": "bytes",
              "name": "metadata",
              "type": "bytes"
            }
          ],
          "internalType": "struct DataType.TradeOption",
          "name": "_tradeOption",
          "type": "tuple"
        },
        {
          "components": [
            {
              "internalType": "uint256",
              "name": "lowerSqrtPrice",
              "type": "uint256"
            },
            {
              "internalType": "uint256",
              "name": "upperSqrtPrice",
              "type": "uint256"
            },
            {
              "internalType": "uint256",
              "name": "swapRatio",
              "type": "uint256"
            },
            {
              "internalType": "uint256",
              "name": "closeRatio",
              "type": "uint256"
            },
            {
              "internalType": "uint24",
              "name": "feeTier",
              "type": "uint24"
            }
          ],
          "internalType": "struct DataType.ClosePositionOption",
          "name": "_closePositionOptions",
          "type": "tuple"
        }
      ],
      "name": "closePosition",
      "outputs": [
        {
          "internalType": "int256",
          "name": "requiredAmount0",
          "type": "int256"
        },
        {
          "internalType": "int256",
          "name": "requiredAmount1",
          "type": "int256"
        }
      ],
      "stateMutability": "nonpayable",
      "type": "function"
    },
    {
      "inputs": [
        {
          "internalType": "uint256",
          "name": "_vaultId",
          "type": "uint256"
        },
        {
          "internalType": "uint256",
          "name": "_subVaultIndex",
          "type": "uint256"
        },
        {
          "components": [
            {
              "internalType": "bool",
              "name": "reduceOnly",
              "type": "bool"
            },
            {
              "internalType": "bool",
              "name": "swapAnyway",
              "type": "bool"
            },
            {
              "internalType": "bool",
              "name": "quoterMode",
              "type": "bool"
            },
            {
              "internalType": "bool",
              "name": "isQuoteZero",
              "type": "bool"
            },
            {
              "internalType": "int256",
              "name": "targetMarginAmount0",
              "type": "int256"
            },
            {
              "internalType": "int256",
              "name": "targetMarginAmount1",
              "type": "int256"
            },
            {
              "internalType": "bytes",
              "name": "metadata",
              "type": "bytes"
            }
          ],
          "internalType": "struct DataType.TradeOption",
          "name": "_tradeOption",
          "type": "tuple"
        },
        {
          "components": [
            {
              "internalType": "uint256",
              "name": "lowerSqrtPrice",
              "type": "uint256"
            },
            {
              "internalType": "uint256",
              "name": "upperSqrtPrice",
              "type": "uint256"
            },
            {
              "internalType": "uint256",
              "name": "swapRatio",
              "type": "uint256"
            },
            {
              "internalType": "uint256",
              "name": "closeRatio",
              "type": "uint256"
            },
            {
              "internalType": "uint24",
              "name": "feeTier",
              "type": "uint24"
            }
          ],
          "internalType": "struct DataType.ClosePositionOption",
          "name": "_closePositionOptions",
          "type": "tuple"
        }
      ],
      "name": "closeSubVault",
      "outputs": [
        {
          "internalType": "int256",
          "name": "",
          "type": "int256"
        },
        {
          "internalType": "int256",
          "name": "",
          "type": "int256"
        }
      ],
      "stateMutability": "nonpayable",
      "type": "function"
    },
    {
      "inputs": [
        {
          "internalType": "uint256",
          "name": "_vaultId",
          "type": "uint256"
        },
        {
          "components": [
            {
              "internalType": "bool",
              "name": "reduceOnly",
              "type": "bool"
            },
            {
              "internalType": "bool",
              "name": "swapAnyway",
              "type": "bool"
            },
            {
              "internalType": "bool",
              "name": "quoterMode",
              "type": "bool"
            },
            {
              "internalType": "bool",
              "name": "isQuoteZero",
              "type": "bool"
            },
            {
              "internalType": "int256",
              "name": "targetMarginAmount0",
              "type": "int256"
            },
            {
              "internalType": "int256",
              "name": "targetMarginAmount1",
              "type": "int256"
            },
            {
              "internalType": "bytes",
              "name": "metadata",
              "type": "bytes"
            }
          ],
          "internalType": "struct DataType.TradeOption",
          "name": "_tradeOption",
          "type": "tuple"
        },
        {
          "components": [
            {
              "internalType": "uint256",
              "name": "lowerSqrtPrice",
              "type": "uint256"
            },
            {
              "internalType": "uint256",
              "name": "upperSqrtPrice",
              "type": "uint256"
            },
            {
              "internalType": "uint256",
              "name": "swapRatio",
              "type": "uint256"
            },
            {
              "internalType": "uint256",
              "name": "closeRatio",
              "type": "uint256"
            },
            {
              "internalType": "uint24",
              "name": "feeTier",
              "type": "uint24"
            }
          ],
          "internalType": "struct DataType.ClosePositionOption",
          "name": "_closePositionOptions",
          "type": "tuple"
        }
      ],
      "name": "closeVault",
      "outputs": [
        {
          "internalType": "int256",
          "name": "",
          "type": "int256"
        },
        {
          "internalType": "int256",
          "name": "",
          "type": "int256"
        }
      ],
      "stateMutability": "nonpayable",
      "type": "function"
    },
    {
      "inputs": [
        {
          "internalType": "bytes[]",
          "name": "_data",
          "type": "bytes[]"
        }
      ],
      "name": "forceClose",
      "outputs": [],
      "stateMutability": "nonpayable",
      "type": "function"
    },
    {
      "inputs": [],
      "name": "getContext",
      "outputs": [
        {
          "internalType": "bool",
          "name": "",
          "type": "bool"
        },
        {
          "internalType": "uint256",
          "name": "",
          "type": "uint256"
        },
        {
          "internalType": "address",
          "name": "",
          "type": "address"
        },
        {
          "internalType": "address",
          "name": "",
          "type": "address"
        },
        {
          "internalType": "uint256",
          "name": "",
          "type": "uint256"
        },
        {
          "internalType": "uint256",
          "name": "",
          "type": "uint256"
        }
      ],
      "stateMutability": "view",
      "type": "function"
    },
    {
      "inputs": [
        {
          "internalType": "uint256",
          "name": "_vaultId",
          "type": "uint256"
        }
      ],
      "name": "getPosition",
      "outputs": [
        {
          "components": [
            {
              "internalType": "uint256",
              "name": "subVaultIndex",
              "type": "uint256"
            },
            {
              "internalType": "uint256",
              "name": "asset0",
              "type": "uint256"
            },
            {
              "internalType": "uint256",
              "name": "asset1",
              "type": "uint256"
            },
            {
              "internalType": "uint256",
              "name": "debt0",
              "type": "uint256"
            },
            {
              "internalType": "uint256",
              "name": "debt1",
              "type": "uint256"
            },
            {
              "components": [
                {
                  "internalType": "bool",
                  "name": "isCollateral",
                  "type": "bool"
                },
                {
                  "internalType": "uint128",
                  "name": "liquidity",
                  "type": "uint128"
                },
                {
                  "internalType": "int24",
                  "name": "lowerTick",
                  "type": "int24"
                },
                {
                  "internalType": "int24",
                  "name": "upperTick",
                  "type": "int24"
                }
              ],
              "internalType": "struct DataType.LPT[]",
              "name": "lpts",
              "type": "tuple[]"
            }
          ],
          "internalType": "struct DataType.Position[]",
          "name": "",
          "type": "tuple[]"
        }
      ],
      "stateMutability": "view",
      "type": "function"
    },
    {
      "inputs": [
        {
          "internalType": "uint256",
          "name": "_vaultId",
          "type": "uint256"
        }
      ],
      "name": "getPositionCalculatorParams",
      "outputs": [
        {
          "components": [
            {
              "internalType": "int256",
              "name": "marginAmount0",
              "type": "int256"
            },
            {
              "internalType": "int256",
              "name": "marginAmount1",
              "type": "int256"
            },
            {
              "internalType": "uint256",
              "name": "asset0",
              "type": "uint256"
            },
            {
              "internalType": "uint256",
              "name": "asset1",
              "type": "uint256"
            },
            {
              "internalType": "uint256",
              "name": "debt0",
              "type": "uint256"
            },
            {
              "internalType": "uint256",
              "name": "debt1",
              "type": "uint256"
            },
            {
              "components": [
                {
                  "internalType": "bool",
                  "name": "isCollateral",
                  "type": "bool"
                },
                {
                  "internalType": "uint128",
                  "name": "liquidity",
                  "type": "uint128"
                },
                {
                  "internalType": "int24",
                  "name": "lowerTick",
                  "type": "int24"
                },
                {
                  "internalType": "int24",
                  "name": "upperTick",
                  "type": "int24"
                }
              ],
              "internalType": "struct DataType.LPT[]",
              "name": "lpts",
              "type": "tuple[]"
            }
          ],
          "internalType": "struct PositionCalculator.PositionCalculatorParams",
          "name": "",
          "type": "tuple"
        }
      ],
      "stateMutability": "view",
      "type": "function"
    },
    {
      "inputs": [
        {
          "internalType": "bytes32",
          "name": "_rangeId",
          "type": "bytes32"
        }
      ],
      "name": "getRange",
      "outputs": [
        {
          "components": [
            {
              "internalType": "uint256",
              "name": "tokenId",
              "type": "uint256"
            },
            {
              "internalType": "int24",
              "name": "lowerTick",
              "type": "int24"
            },
            {
              "internalType": "int24",
              "name": "upperTick",
              "type": "int24"
            },
            {
              "internalType": "uint128",
              "name": "borrowedLiquidity",
              "type": "uint128"
            },
            {
              "internalType": "uint256",
              "name": "premiumGrowthForBorrower",
              "type": "uint256"
            },
            {
              "internalType": "uint256",
              "name": "premiumGrowthForLender",
              "type": "uint256"
            },
            {
              "internalType": "uint256",
              "name": "fee0Growth",
              "type": "uint256"
            },
            {
              "internalType": "uint256",
              "name": "fee1Growth",
              "type": "uint256"
            },
            {
              "internalType": "uint256",
              "name": "lastTouchedTimestamp",
              "type": "uint256"
            }
          ],
          "internalType": "struct DataType.PerpStatus",
          "name": "",
          "type": "tuple"
        }
      ],
      "stateMutability": "view",
      "type": "function"
    },
    {
      "inputs": [],
      "name": "getSqrtPrice",
      "outputs": [
        {
          "internalType": "uint160",
          "name": "sqrtPriceX96",
          "type": "uint160"
        }
      ],
      "stateMutability": "view",
      "type": "function"
    },
    {
      "inputs": [
        {
          "internalType": "uint256",
          "name": "_subVaultId",
          "type": "uint256"
        }
      ],
      "name": "getSubVault",
      "outputs": [
        {
          "components": [
            {
              "internalType": "uint256",
              "name": "id",
              "type": "uint256"
            },
            {
              "components": [
                {
                  "internalType": "enum BaseToken.InterestType",
                  "name": "interestType",
                  "type": "uint8"
                },
                {
                  "internalType": "uint256",
                  "name": "assetAmount",
                  "type": "uint256"
                },
                {
                  "internalType": "uint256",
                  "name": "debtAmount",
                  "type": "uint256"
                },
                {
                  "internalType": "uint256",
                  "name": "lastAssetGrowth",
                  "type": "uint256"
                },
                {
                  "internalType": "uint256",
                  "name": "lastDebtGrowth",
                  "type": "uint256"
                }
              ],
              "internalType": "struct BaseToken.AccountState",
              "name": "balance0",
              "type": "tuple"
            },
            {
              "components": [
                {
                  "internalType": "enum BaseToken.InterestType",
                  "name": "interestType",
                  "type": "uint8"
                },
                {
                  "internalType": "uint256",
                  "name": "assetAmount",
                  "type": "uint256"
                },
                {
                  "internalType": "uint256",
                  "name": "debtAmount",
                  "type": "uint256"
                },
                {
                  "internalType": "uint256",
                  "name": "lastAssetGrowth",
                  "type": "uint256"
                },
                {
                  "internalType": "uint256",
                  "name": "lastDebtGrowth",
                  "type": "uint256"
                }
              ],
              "internalType": "struct BaseToken.AccountState",
              "name": "balance1",
              "type": "tuple"
            },
            {
              "components": [
                {
                  "internalType": "bool",
                  "name": "isCollateral",
                  "type": "bool"
                },
                {
                  "internalType": "bytes32",
                  "name": "rangeId",
                  "type": "bytes32"
                },
                {
                  "internalType": "uint128",
                  "name": "liquidityAmount",
                  "type": "uint128"
                },
                {
                  "internalType": "uint256",
                  "name": "premiumGrowthLast",
                  "type": "uint256"
                },
                {
                  "internalType": "uint256",
                  "name": "fee0Last",
                  "type": "uint256"
                },
                {
                  "internalType": "uint256",
                  "name": "fee1Last",
                  "type": "uint256"
                }
              ],
              "internalType": "struct DataType.LPTState[]",
              "name": "lpts",
              "type": "tuple[]"
            }
          ],
          "internalType": "struct DataType.SubVault",
          "name": "",
          "type": "tuple"
        }
      ],
      "stateMutability": "view",
      "type": "function"
    },
    {
      "inputs": [],
      "name": "getTokenState",
      "outputs": [
        {
          "components": [
            {
              "internalType": "uint256",
              "name": "totalCompoundDeposited",
              "type": "uint256"
            },
            {
              "internalType": "uint256",
              "name": "totalCompoundBorrowed",
              "type": "uint256"
            },
            {
              "internalType": "uint256",
              "name": "totalNormalDeposited",
              "type": "uint256"
            },
            {
              "internalType": "uint256",
              "name": "totalNormalBorrowed",
              "type": "uint256"
            },
            {
              "internalType": "uint256",
              "name": "assetScaler",
              "type": "uint256"
            },
            {
              "internalType": "uint256",
              "name": "debtScaler",
              "type": "uint256"
            },
            {
              "internalType": "uint256",
              "name": "assetGrowth",
              "type": "uint256"
            },
            {
              "internalType": "uint256",
              "name": "debtGrowth",
              "type": "uint256"
            }
          ],
          "internalType": "struct BaseToken.TokenState",
          "name": "",
          "type": "tuple"
        },
        {
          "components": [
            {
              "internalType": "uint256",
              "name": "totalCompoundDeposited",
              "type": "uint256"
            },
            {
              "internalType": "uint256",
              "name": "totalCompoundBorrowed",
              "type": "uint256"
            },
            {
              "internalType": "uint256",
              "name": "totalNormalDeposited",
              "type": "uint256"
            },
            {
              "internalType": "uint256",
              "name": "totalNormalBorrowed",
              "type": "uint256"
            },
            {
              "internalType": "uint256",
              "name": "assetScaler",
              "type": "uint256"
            },
            {
              "internalType": "uint256",
              "name": "debtScaler",
              "type": "uint256"
            },
            {
              "internalType": "uint256",
              "name": "assetGrowth",
              "type": "uint256"
            },
            {
              "internalType": "uint256",
              "name": "debtGrowth",
              "type": "uint256"
            }
          ],
          "internalType": "struct BaseToken.TokenState",
          "name": "",
          "type": "tuple"
        }
      ],
      "stateMutability": "view",
      "type": "function"
    },
    {
      "inputs": [
        {
          "internalType": "uint256",
          "name": "_vaultId",
          "type": "uint256"
        }
      ],
      "name": "getVault",
      "outputs": [
        {
          "components": [
            {
              "internalType": "uint256",
              "name": "vaultId",
              "type": "uint256"
            },
            {
              "internalType": "uint256",
              "name": "marginAmount0",
              "type": "uint256"
            },
            {
              "internalType": "uint256",
              "name": "marginAmount1",
              "type": "uint256"
            },
            {
              "internalType": "uint256[]",
              "name": "subVaults",
              "type": "uint256[]"
            }
          ],
          "internalType": "struct DataType.Vault",
          "name": "",
          "type": "tuple"
        }
      ],
      "stateMutability": "view",
      "type": "function"
    },
    {
      "inputs": [
        {
          "internalType": "uint256",
          "name": "_vaultId",
          "type": "uint256"
        }
      ],
      "name": "getVaultStatus",
      "outputs": [
        {
          "components": [
            {
              "internalType": "int256",
              "name": "positionValue",
              "type": "int256"
            },
            {
              "internalType": "int256",
              "name": "marginValue",
              "type": "int256"
            },
            {
              "internalType": "int256",
              "name": "minCollateral",
              "type": "int256"
            },
            {
              "components": [
                {
                  "components": [
                    {
                      "internalType": "uint256",
                      "name": "assetValue",
                      "type": "uint256"
                    },
                    {
                      "internalType": "uint256",
                      "name": "debtValue",
                      "type": "uint256"
                    },
                    {
                      "internalType": "int256",
                      "name": "premiumValue",
                      "type": "int256"
                    }
                  ],
                  "internalType": "struct DataType.SubVaultValue",
                  "name": "values",
                  "type": "tuple"
                },
                {
                  "components": [
                    {
                      "internalType": "uint256",
                      "name": "assetAmount0",
                      "type": "uint256"
                    },
                    {
                      "internalType": "uint256",
                      "name": "assetAmount1",
                      "type": "uint256"
                    },
                    {
                      "internalType": "uint256",
                      "name": "debtAmount0",
                      "type": "uint256"
                    },
                    {
                      "internalType": "uint256",
                      "name": "debtAmount1",
                      "type": "uint256"
                    }
                  ],
                  "internalType": "struct DataType.SubVaultAmount",
                  "name": "amount",
                  "type": "tuple"
                },
                {
                  "components": [
                    {
                      "internalType": "int256",
                      "name": "assetFee0",
                      "type": "int256"
                    },
                    {
                      "internalType": "int256",
                      "name": "assetFee1",
                      "type": "int256"
                    },
                    {
                      "internalType": "int256",
                      "name": "debtFee0",
                      "type": "int256"
                    },
                    {
                      "internalType": "int256",
                      "name": "debtFee1",
                      "type": "int256"
                    }
                  ],
                  "internalType": "struct DataType.SubVaultInterest",
                  "name": "interest",
                  "type": "tuple"
                },
                {
                  "components": [
                    {
                      "internalType": "uint256",
                      "name": "receivedTradeAmount0",
                      "type": "uint256"
                    },
                    {
                      "internalType": "uint256",
                      "name": "receivedTradeAmount1",
                      "type": "uint256"
                    },
                    {
                      "internalType": "uint256",
                      "name": "receivedPremium",
                      "type": "uint256"
                    },
                    {
                      "internalType": "uint256",
                      "name": "paidPremium",
                      "type": "uint256"
                    }
                  ],
                  "internalType": "struct DataType.SubVaultPremium",
                  "name": "premium",
                  "type": "tuple"
                }
              ],
              "internalType": "struct DataType.SubVaultStatus[]",
              "name": "subVaults",
              "type": "tuple[]"
            }
          ],
          "internalType": "struct DataType.VaultStatus",
          "name": "",
          "type": "tuple"
        }
      ],
      "stateMutability": "nonpayable",
      "type": "function"
    },
    {
      "inputs": [
        {
          "components": [
            {
              "internalType": "uint24",
              "name": "feeTier",
              "type": "uint24"
            },
            {
              "internalType": "address",
              "name": "token0",
              "type": "address"
            },
            {
              "internalType": "address",
              "name": "token1",
              "type": "address"
            },
            {
              "internalType": "bool",
              "name": "isMarginZero",
              "type": "bool"
            }
          ],
          "internalType": "struct DataType.InitializationParams",
          "name": "_initializationParams",
          "type": "tuple"
        },
        {
          "internalType": "address",
          "name": "_positionManager",
          "type": "address"
        },
        {
          "internalType": "address",
          "name": "_factory",
          "type": "address"
        },
        {
          "internalType": "address",
          "name": "_swapRouter",
          "type": "address"
        },
        {
          "internalType": "address",
          "name": "_vaultNFT",
          "type": "address"
        }
      ],
      "name": "initialize",
      "outputs": [],
      "stateMutability": "nonpayable",
      "type": "function"
    },
    {
      "inputs": [],
      "name": "irmParams",
      "outputs": [
        {
          "internalType": "uint256",
          "name": "baseRate",
          "type": "uint256"
        },
        {
          "internalType": "uint256",
          "name": "kinkRate",
          "type": "uint256"
        },
        {
          "internalType": "uint256",
          "name": "slope1",
          "type": "uint256"
        },
        {
          "internalType": "uint256",
          "name": "slope2",
          "type": "uint256"
        }
      ],
      "stateMutability": "view",
      "type": "function"
    },
    {
      "inputs": [],
      "name": "lastTouchedTimestamp",
      "outputs": [
        {
          "internalType": "uint256",
          "name": "",
          "type": "uint256"
        }
      ],
      "stateMutability": "view",
      "type": "function"
    },
    {
      "inputs": [
        {
          "internalType": "uint256",
          "name": "_vaultId",
          "type": "uint256"
        },
        {
          "components": [
            {
              "internalType": "uint256",
              "name": "swapRatio",
              "type": "uint256"
            },
            {
              "internalType": "uint256",
              "name": "closeRatio",
              "type": "uint256"
            },
            {
              "internalType": "uint24",
              "name": "feeTier",
              "type": "uint24"
            }
          ],
          "internalType": "struct DataType.LiquidationOption",
          "name": "_liquidationOption",
          "type": "tuple"
        }
      ],
      "name": "liquidate",
      "outputs": [],
      "stateMutability": "nonpayable",
      "type": "function"
    },
    {
      "inputs": [
        {
          "internalType": "uint256",
          "name": "_vaultId",
          "type": "uint256"
        },
        {
          "components": [
            {
              "internalType": "uint256",
              "name": "subVaultIndex",
              "type": "uint256"
            },
            {
              "internalType": "uint256",
              "name": "asset0",
              "type": "uint256"
            },
            {
              "internalType": "uint256",
              "name": "asset1",
              "type": "uint256"
            },
            {
              "internalType": "uint256",
              "name": "debt0",
              "type": "uint256"
            },
            {
              "internalType": "uint256",
              "name": "debt1",
              "type": "uint256"
            },
            {
              "components": [
                {
                  "internalType": "bool",
                  "name": "isCollateral",
                  "type": "bool"
                },
                {
                  "internalType": "uint128",
                  "name": "liquidity",
                  "type": "uint128"
                },
                {
                  "internalType": "int24",
                  "name": "lowerTick",
                  "type": "int24"
                },
                {
                  "internalType": "int24",
                  "name": "upperTick",
                  "type": "int24"
                }
              ],
              "internalType": "struct DataType.LPT[]",
              "name": "lpts",
              "type": "tuple[]"
            }
          ],
          "internalType": "struct DataType.Position",
          "name": "_position",
          "type": "tuple"
        },
        {
          "components": [
            {
              "internalType": "bool",
              "name": "reduceOnly",
              "type": "bool"
            },
            {
              "internalType": "bool",
              "name": "swapAnyway",
              "type": "bool"
            },
            {
              "internalType": "bool",
              "name": "quoterMode",
              "type": "bool"
            },
            {
              "internalType": "bool",
              "name": "isQuoteZero",
              "type": "bool"
            },
            {
              "internalType": "int256",
              "name": "targetMarginAmount0",
              "type": "int256"
            },
            {
              "internalType": "int256",
              "name": "targetMarginAmount1",
              "type": "int256"
            },
            {
              "internalType": "bytes",
              "name": "metadata",
              "type": "bytes"
            }
          ],
          "internalType": "struct DataType.TradeOption",
          "name": "_tradeOption",
          "type": "tuple"
        },
        {
          "components": [
            {
              "internalType": "uint256",
              "name": "lowerSqrtPrice",
              "type": "uint256"
            },
            {
              "internalType": "uint256",
              "name": "upperSqrtPrice",
              "type": "uint256"
            },
            {
              "internalType": "uint24",
              "name": "feeTier",
              "type": "uint24"
            }
          ],
          "internalType": "struct DataType.OpenPositionOption",
          "name": "_openPositionOptions",
          "type": "tuple"
        }
      ],
      "name": "openPosition",
      "outputs": [
        {
          "internalType": "uint256",
          "name": "vaultId",
          "type": "uint256"
        },
        {
          "internalType": "int256",
          "name": "requiredAmount0",
          "type": "int256"
        },
        {
          "internalType": "int256",
          "name": "requiredAmount1",
          "type": "int256"
        }
      ],
      "stateMutability": "nonpayable",
      "type": "function"
    },
    {
      "inputs": [],
      "name": "operator",
      "outputs": [
        {
          "internalType": "address",
          "name": "",
          "type": "address"
        }
      ],
      "stateMutability": "view",
      "type": "function"
    },
    {
      "inputs": [
        {
          "internalType": "address",
          "name": "_newOperator",
          "type": "address"
        }
      ],
      "name": "setOperator",
      "outputs": [],
      "stateMutability": "nonpayable",
      "type": "function"
    },
    {
      "inputs": [
        {
          "components": [
            {
              "internalType": "uint256",
              "name": "baseRate",
              "type": "uint256"
            },
            {
              "internalType": "uint256",
              "name": "kinkRate",
              "type": "uint256"
            },
            {
              "internalType": "uint256",
              "name": "slope1",
              "type": "uint256"
            },
            {
              "internalType": "uint256",
              "name": "slope2",
              "type": "uint256"
            }
          ],
          "internalType": "struct InterestCalculator.IRMParams",
          "name": "_irmParams",
          "type": "tuple"
        }
      ],
      "name": "updateIRMParams",
      "outputs": [],
      "stateMutability": "nonpayable",
      "type": "function"
    },
    {
      "inputs": [
        {
          "internalType": "uint256",
          "name": "_vaultId",
          "type": "uint256"
        },
        {
          "components": [
            {
              "internalType": "enum DataType.PositionUpdateType",
              "name": "positionUpdateType",
              "type": "uint8"
            },
            {
              "internalType": "uint256",
              "name": "subVaultIndex",
              "type": "uint256"
            },
            {
              "internalType": "bool",
              "name": "zeroForOne",
              "type": "bool"
            },
            {
              "internalType": "uint128",
              "name": "liquidity",
              "type": "uint128"
            },
            {
              "internalType": "int24",
              "name": "lowerTick",
              "type": "int24"
            },
            {
              "internalType": "int24",
              "name": "upperTick",
              "type": "int24"
            },
            {
              "internalType": "uint256",
              "name": "param0",
              "type": "uint256"
            },
            {
              "internalType": "uint256",
              "name": "param1",
              "type": "uint256"
            }
          ],
          "internalType": "struct DataType.PositionUpdate[]",
          "name": "_positionUpdates",
          "type": "tuple[]"
        },
        {
          "components": [
            {
              "internalType": "bool",
              "name": "reduceOnly",
              "type": "bool"
            },
            {
              "internalType": "bool",
              "name": "swapAnyway",
              "type": "bool"
            },
            {
              "internalType": "bool",
              "name": "quoterMode",
              "type": "bool"
            },
            {
              "internalType": "bool",
              "name": "isQuoteZero",
              "type": "bool"
            },
            {
              "internalType": "int256",
              "name": "targetMarginAmount0",
              "type": "int256"
            },
            {
              "internalType": "int256",
              "name": "targetMarginAmount1",
              "type": "int256"
            },
            {
              "internalType": "bytes",
              "name": "metadata",
              "type": "bytes"
            }
          ],
          "internalType": "struct DataType.TradeOption",
          "name": "_tradeOption",
          "type": "tuple"
        }
      ],
      "name": "updatePosition",
      "outputs": [
        {
          "internalType": "uint256",
          "name": "vaultId",
          "type": "uint256"
        },
        {
          "internalType": "int256",
          "name": "requiredAmount0",
          "type": "int256"
        },
        {
          "internalType": "int256",
          "name": "requiredAmount1",
          "type": "int256"
        }
      ],
      "stateMutability": "nonpayable",
      "type": "function"
    },
    {
      "inputs": [
        {
          "components": [
            {
              "internalType": "uint256",
              "name": "baseRate",
              "type": "uint256"
            },
            {
              "internalType": "uint256",
              "name": "kinkRate",
              "type": "uint256"
            },
            {
              "internalType": "uint256",
              "name": "slope1",
              "type": "uint256"
            },
            {
              "internalType": "uint256",
              "name": "slope2",
              "type": "uint256"
            }
          ],
          "internalType": "struct InterestCalculator.IRMParams",
          "name": "_irmParams",
          "type": "tuple"
        },
        {
          "components": [
            {
              "internalType": "uint256",
              "name": "baseRate",
              "type": "uint256"
            },
            {
              "internalType": "uint256",
              "name": "kinkRate",
              "type": "uint256"
            },
            {
              "internalType": "uint256",
              "name": "slope1",
              "type": "uint256"
            },
            {
              "internalType": "uint256",
              "name": "slope2",
              "type": "uint256"
            }
          ],
          "internalType": "struct InterestCalculator.IRMParams",
          "name": "_premiumParams",
          "type": "tuple"
        }
      ],
      "name": "updateYearlyPremiumParams",
      "outputs": [],
      "stateMutability": "nonpayable",
      "type": "function"
    },
    {
      "inputs": [
        {
          "internalType": "uint256",
          "name": "_amount0",
          "type": "uint256"
        },
        {
          "internalType": "uint256",
          "name": "_amount1",
          "type": "uint256"
        }
      ],
      "name": "withdrawProtocolFee",
      "outputs": [],
      "stateMutability": "nonpayable",
      "type": "function"
    },
    {
      "inputs": [],
      "name": "ypParams",
      "outputs": [
        {
          "components": [
            {
              "internalType": "uint256",
              "name": "baseRate",
              "type": "uint256"
            },
            {
              "internalType": "uint256",
              "name": "kinkRate",
              "type": "uint256"
            },
            {
              "internalType": "uint256",
              "name": "slope1",
              "type": "uint256"
            },
            {
              "internalType": "uint256",
              "name": "slope2",
              "type": "uint256"
            }
          ],
          "internalType": "struct InterestCalculator.IRMParams",
          "name": "premiumParams",
          "type": "tuple"
        },
        {
          "components": [
            {
              "internalType": "uint256",
              "name": "baseRate",
              "type": "uint256"
            },
            {
              "internalType": "uint256",
              "name": "kinkRate",
              "type": "uint256"
            },
            {
              "internalType": "uint256",
              "name": "slope1",
              "type": "uint256"
            },
            {
              "internalType": "uint256",
              "name": "slope2",
              "type": "uint256"
            }
          ],
          "internalType": "struct InterestCalculator.IRMParams",
          "name": "irmParams",
          "type": "tuple"
        }
      ],
      "stateMutability": "view",
      "type": "function"
    }
  ],
  "transactionHash": "0xe3d96b6c33b5f19332a1dffe8bf407da116bc9f936bf959ba0efa6765acd11b8",
  "args": [],
  "solcInputHash": "2268806e3cb7d3ccf3dd982b1a61e0c3",
  "bytecode": "0x608060405234801561001057600080fd5b50615c5480620000216000396000f3fe608060405234801561001057600080fd5b50600436106101a95760003560e01c806368715773116100f9578063dd8cb3f411610097578063ebd2665f11610071578063ebd2665f146103ee578063ec52ad0814610404578063f3f4b4c714610417578063f46a64771461042a576101a9565b8063dd8cb3f4146103a8578063e6d96b3d146103bb578063eb02c301146103ce576101a9565b80639403b634116100d35780639403b63414610341578063950db6ec14610361578063b3ab15fb14610374578063bc3be8dc14610387576101a9565b806368715773146103065780636f85ba9c1461031957806386e6862d14610339576101a9565b80633e1297151161016657806351be57d31161014057806351be57d3146102b3578063570ca735146102cb57806365b5f6e3146102e057806367114859146102f3576101a9565b80633e1297151461025157806349ebb77d146102715780634b93442814610291576101a9565b8063013216f5146101ae578063127f0f07146101d7578063275892a2146101f157806330050fbd146102065780633743d142146102265780633c678e141461023b575b600080fd5b6101c16101bc3660046145d7565b61043d565b6040516101ce9190615582565b60405180910390f35b6101df6104dc565b6040516101ce969594939291906153dd565b6101f9610509565b6040516101ce9190615aab565b6102196102143660046145d7565b61050f565b6040516101ce919061568b565b610239610234366004614d3b565b6106a9565b005b61024361075c565b6040516101ce929190615566565b61026461025f3660046145d7565b6107b9565b6040516101ce91906153d2565b61028461027f3660046145d7565b610867565b6040516101ce9190615769565b6102a461029f366004614c76565b6109a4565b6040516101ce93929190615acb565b6102bb610a7a565b6040516101ce9493929190615b14565b6102d3610a89565b6040516101ce919061527c565b6102396102ee366004614501565b610a98565b61023961030136600461464e565b610bb1565b610239610314366004614633565b610c14565b61032c6103273660046145d7565b610c5e565b6040516101ce91906155f6565b6102d3610d81565b61035461034f3660046145d7565b610e0a565b6040516101ce9190615833565b61023961036f366004614c53565b610e9e565b6102396103823660046144c9565b610f74565b61039a610395366004614ce6565b610fd3565b6040516101ce92919061541f565b6102a46103b6366004614a2b565b610ffe565b61039a6103c9366004614b86565b611261565b6103e16103dc3660046145d7565b611341565b6040516101ce91906152a9565b6103f661134c565b6040516101ce92919061574c565b6101f96104123660046145ef565b61140d565b61039a610425366004614d4d565b61157b565b610239610438366004614683565b6115f7565b610445613b59565b5060008181526002602081815260409283902083516101208101855281548152600182015480850b850b850b9382019390935263010000008304840b840b840b9481019490945266010000000000009091046001600160801b03166060840152908101546080830152600381015460a0830152600481015460c0830152600581015460e0830152600601546101008201525b919050565b600954600a54600754601b54601c5460ff600160a01b860416946001600160a01b03908116931692939495565b60015481565b610517613bb4565b600082815260046020908152604091829020825160808101845281548152835160a081019094526001820180549194929385019291829060ff16600281111561055c57fe5b600281111561056757fe5b81526020016001820154815260200160028201548152602001600382015481526020016004820154815250508152602001600682016040518060a00160405290816000820160009054906101000a900460ff1660028111156105c557fe5b60028111156105d057fe5b81526020016001820154815260200160028201548152602001600382015481526020016004820154815250508152602001600b8201805480602002602001604051908101604052809291908181526020016000905b8282101561069b5760008481526020908190206040805160c08101825260068602909201805460ff16151583526001808201548486015260028201546001600160801b03169284019290925260038101546060840152600481015460808401526005015460a08301529083529092019101610625565b505050915250909392505050565b602a546001600160a01b031633146106dc5760405162461bcd60e51b81526004016106d39061548a565b60405180910390fd5b601b5482118015906106f05750601c548111155b61070c5760405162461bcd60e51b81526004016106d390615449565b601b80548390039055601c80548290039055811561073b5760055461073b906001600160a01b031633846119ca565b801561075857600654610758906001600160a01b031633836119ca565b5050565b60408051608080820183526021548252602254602080840191909152602354838501526024546060808501919091528451928301855260255483526026549183019190915260275493820193909352602854928101929092529082565b60006107c482611b18565b60008281526003602052604090819020905163194a268960e21b815273a472E7B6943e652234f1525B134f5f0D6502B6ce916365289a24916108119190600490600590600290830161596f565b60206040518083038186803b15801561082957600080fd5b505af415801561083d573d6000803e3d6000fd5b505050506040513d601f19601f8201168201806040525081019061086191906145bb565b92915050565b61086f613be8565b6000610879610d81565b905061088483611b18565b600083815260036020818152604092839020835160808101855281548152600182015481840152600282015481860152928101805485518185028101850190965280865293949193606086019383018282801561090057602002820191906000526020600020905b8154815260200190600101908083116108ec575b505050919092525050604051635d8d458360e11b81527307bB00F0EE2a8b883359Ba589FBE0D88c1BFC8c19263bb1a8b0692506109499160049060029060059088908401615923565b60006040518083038186803b15801561096157600080fd5b505af4158015610975573d6000803e3d6000fd5b505050506040513d6000823e601f3d908101601f1916820160405261099d91908101906147f7565b9392505050565b6000806000807376DC6BcF124120d27A105f638D1B1a8CfdBB46dE63886e930088886060015188604001516109d7610d81565b6040518563ffffffff1660e01b81526004016109f6949392919061564e565b60006040518083038186803b158015610a0e57600080fd5b505af4158015610a22573d6000803e3d6000fd5b505050506040513d6000823e601f3d908101601f19168201604052610a4a9190810190614589565b9050610a57888288610ffe565b875160208901519397509195509350610a6f91611b58565b509450945094915050565b601d54601e54601f5460205484565b602a546001600160a01b031681565b602a546001600160a01b03163314610ac25760405162461bcd60e51b81526004016106d39061548a565b60005b815181101561075857600080838381518110610add57fe5b6020026020010151806020019051810190610af891906149e7565b91509150610b068282611b99565b6000828152600360205260408082209051637882621360e11b815273a472E7B6943e652234f1525B134f5f0D6502B6ce9263f104c42692610b569290916004916005916002918991908501615a6d565b60206040518083038186803b158015610b6e57600080fd5b505af4158015610b82573d6000803e3d6000fd5b505050506040513d601f19601f82011682018060405250810190610ba691906149cf565b505050600101610ac5565b602a546001600160a01b03163314610bdb5760405162461bcd60e51b81526004016106d39061548a565b81516025556020808301516026556040808401516027556060938401516028558251602155908201516022558101516023550151602455565b602a546001600160a01b03163314610c3e5760405162461bcd60e51b81526004016106d39061548a565b8051601d55602080820151601e556040820151601f556060909101519055565b610c66613c10565b60008281526003602081815260408084208151608081018352815481526001820154818501526002820154818401529381018054835181860281018601909452808452919360608601939290830182828015610ce157602002820191906000526020600020905b815481526020019060010190808311610ccd575b50505091909252505060405163149ccfa160e11b81529192507307bB00F0EE2a8b883359Ba589FBE0D88c1BFC8c1916329399f429150610d2d9084906004906002906005908301615897565b60006040518083038186803b158015610d4557600080fd5b505af4158015610d59573d6000803e3d6000fd5b505050506040513d6000823e601f3d908101601f1916820160405261099d9190810190614751565b60095460408051633850c7bd60e01b815290516000926001600160a01b031691633850c7bd9160048281019260e0929190829003018186803b158015610dc657600080fd5b505afa158015610dda573d6000803e3d6000fd5b505050506040513d601f19601f82011682018060405250810190610dfe9190614939565b50949695505050505050565b610e12613be8565b6000828152600360208181526040928390208351608081018552815481526001820154818401526002820154818601529281018054855181850281018501909652808652939491936060860193830182828015610e8e57602002820191906000526020600020905b815481526020019060010190808311610e7a575b5050505050815250509050919050565b610ea6611da2565b60007376DC6BcF124120d27A105f638D1B1a8CfdBB46dE63399760de610ecb85611341565b600954604086015186516020880151600160a01b90930460ff1692610eee610d81565b6040518763ffffffff1660e01b8152600401610f0f96959493929190615337565b60006040518083038186803b158015610f2757600080fd5b505af4158015610f3b573d6000803e3d6000fd5b505050506040513d6000823e601f3d908101601f19168201604052610f639190810190614589565b9050610f6f8382611e36565b505050565b602a546001600160a01b03163314610f9e5760405162461bcd60e51b81526004016106d39061548a565b6001600160a01b038116610fb157600080fd5b602a80546001600160a01b0319166001600160a01b0392909216919091179055565b600080610fde611da2565b610ff285610feb87611ebb565b8686611261565b91509150935093915050565b600080600061100d8686611b99565b600061101d8786604001516120a1565b604051636413e81f60e11b815291955091507383956e250060d50Fa66fb5183E2E4eBc10a508799063c827d03e906110659084906004906005906002908d908d9085016159a9565b604080518083038186803b15801561107c57600080fd5b505af4158015611090573d6000803e3d6000fd5b505050506040513d601f19601f820116820180604052508101906110b49190614610565b60408701519194509250156110cd576110cd8383612245565b60405163194a268960e21b815273a472E7B6943e652234f1525B134f5f0D6502B6ce906365289a249061110c908490600490600590600290830161596f565b60206040518083038186803b15801561112457600080fd5b505af4158015611138573d6000803e3d6000fd5b505050506040513d601f19601f8201168201806040525081019061115c91906145bb565b156111795760405162461bcd60e51b81526004016106d39061542d565b600083131561119f5760055461119a906001600160a01b0316333086612256565b6111c3565b60008312156111c3576005546111c3906001600160a01b03163360008690036119ca565b60008213156111e9576006546111e4906001600160a01b0316333085612256565b61120d565b600082121561120d5760065461120d906001600160a01b03163360008590036119ca565b7fabc710e8ab5c8f4ea5d70ef0f4c50f12dd4804fa7e04ce65aa8c813197b64bea848484611239610d81565b8960c0015160405161124f959493929190615ae1565b60405180910390a15093509350939050565b60008060007376DC6BcF124120d27A105f638D1B1a8CfdBB46dE63399760de87876060015187608001518860400151896060015161129d610d81565b6040518763ffffffff1660e01b81526004016112be96959493929190615337565b60006040518083038186803b1580156112d657600080fd5b505af41580156112ea573d6000803e3d6000fd5b505050506040513d6000823e601f3d908101601f191682016040526113129190810190614589565b905061131f878287610ffe565b86516020880151929650909450611337925090611b58565b5094509492505050565b606061086182611ebb565b611354613c4d565b61135c613c4d565b5050604080516101008082018352600b548252600c54602080840191909152600d5483850152600e54606080850191909152600f5460808086019190915260105460a08087019190915260115460c08088019190915260125460e080890191909152885196870189526013548752601454958701959095526015549786019790975260165492850192909252601754908401526018549083015260195493820193909352601a549281019290925291565b60008281526002602052604081205461142857506000610861565b60408051610180810182526005546001600160a01b039081168252600654808216602080850191909152600160a01b9182900462ffffff16848601526007548316606080860191909152600854841660808087019190915260095494851660a0808801919091529390940460ff16151560c080870191909152600a5460e08088019190915287516101008082018a52600b548252600c5482870152600d54828b0152600e5482860152600f54828901526010548288015260115482850152601254828401528089019190915288519081018952601354815260145481860152601554818a015260165493810193909352601754958301959095526018549382019390935260195492810192909252601a5492820192909252610120830152601b54610140830152601c54610160830152600086815260029091529190912061099d91602191611575610d81565b866123a6565b600080611586611da2565b604080516001808252818301909252600091816020015b6115a5613c92565b81526020019060019003908161159d5790505090506115c4878761243b565b816000815181106115d157fe5b60200260200101819052506115e887828787611261565b92509250505b94509492505050565b600054610100900460ff168061161057506116106127c9565b8061161e575060005460ff16155b6116595760405162461bcd60e51b815260040180806020018281038252602e815260200180615bd0602e913960400191505060405180910390fd5b600054610100900460ff16158015611684576000805460ff1961ff0019909116610100171660011790555b8551600680546020808a0151600580546001600160a01b03199081166001600160a01b0393841617918290556040808e015162ffffff60a01b19909616600160a01b62ffffff998a16810291909117831696851696909617968790556060808f01516009805460ff60a01b191691151589029190911790556007805484168f8716179055600880549093168c86161790925580519182018152918316815291851692820192909252919092049092169082015261174185826127da565b600980546001600160a01b03199081166001600160a01b0393841617909155602b80549091168583161790556001600a5560055460405163095ea7b360e01b815291169063095ea7b39061179d90899060001990600401615290565b602060405180830381600087803b1580156117b757600080fd5b505af11580156117cb573d6000803e3d6000fd5b505050506040513d601f19601f820116820180604052508101906117ef91906145bb565b5060065460405163095ea7b360e01b81526001600160a01b039091169063095ea7b39061182490899060001990600401615290565b602060405180830381600087803b15801561183e57600080fd5b505af1158015611852573d6000803e3d6000fd5b505050506040513d601f19601f8201168201806040525081019061187691906145bb565b5060055460405163095ea7b360e01b81526001600160a01b039091169063095ea7b3906118ab90879060001990600401615290565b602060405180830381600087803b1580156118c557600080fd5b505af11580156118d9573d6000803e3d6000fd5b505050506040513d601f19601f820116820180604052508101906118fd91906145bb565b5060065460405163095ea7b360e01b81526001600160a01b039091169063095ea7b39061193290879060001990600401615290565b602060405180830381600087803b15801561194c57600080fd5b505af1158015611960573d6000803e3d6000fd5b505050506040513d601f19601f8201168201806040525081019061198491906145bb565b5061198f600b6128be565b61199960136128be565b5042600155602a80546001600160a01b0319163317905580156119c2576000805461ff00191690555b505050505050565b604080516001600160a01b038481166024830152604480830185905283518084039091018152606490920183526020820180516001600160e01b031663a9059cbb60e01b1781529251825160009485949389169392918291908083835b60208310611a465780518252601f199092019160209182019101611a27565b6001836020036101000a0380198251168184511680821785525050505050509050019150506000604051808303816000865af19150503d8060008114611aa8576040519150601f19603f3d011682016040523d82523d6000602084013e611aad565b606091505b5091509150818015611adb575080511580611adb5750808060200190516020811015611ad857600080fd5b50515b611b11576040805162461bcd60e51b815260206004820152600260248201526114d560f21b604482015290519081900360640190fd5b5050505050565b60408051600080825260208201909252611b5591839190611b4f565b611b3c613cc8565b815260200190600190039081611b345790505b50611b99565b50565b6000611b62610d81565b6001600160a01b03169050808311158015611b7d5750818111155b610f6f5760405162461bcd60e51b81526004016106d3906154c1565b60008281526003602081815260408084208151608081018352815481526001820154818501526002820154818401529381018054835181860281018601909452808452919360608601939290830182828015611c1457602002820191906000526020600020905b815481526020019060010190808311611c00575b505050505081525050905073786Bd1516c9ae5Bf54200f03E2e926f9BdB883B563a5d330ad82600460026005876021611c4b610d81565b6040518863ffffffff1660e01b8152600401611c6d97969594939291906158c7565b60006040518083038186803b158015611c8557600080fd5b505af4158015611c99573d6000803e3d6000fd5b505060015460405163725acfd160e01b815273786Bd1516c9ae5Bf54200f03E2e926f9BdB883B5935063725acfd19250611cdc91600591601d91906004016154fa565b60206040518083038186803b158015611cf457600080fd5b505af4158015611d08573d6000803e3d6000fd5b505050506040513d601f19601f82011682018060405250810190611d2c91906149cf565b60015560405162d85ecd60e61b81527383956e250060d50Fa66fb5183E2E4eBc10a5087990633617b34090611d6d906005908590600490600290820161552e565b60006040518083038186803b158015611d8557600080fd5b505af4158015611d99573d6000803e3d6000fd5b50505050505050565b60015460405163725acfd160e01b815273786Bd1516c9ae5Bf54200f03E2e926f9BdB883B59163725acfd191611de191600591601d91906004016154fa565b60206040518083038186803b158015611df957600080fd5b505af4158015611e0d573d6000803e3d6000fd5b505050506040513d601f19601f82011682018060405250810190611e3191906149cf565b600155565b611e408282611b99565b6000828152600360205260409081902090516349b3bd7960e11b815273a472E7B6943e652234f1525B134f5f0D6502B6ce916393677af291611e8f919060049086906005906002908401615a3a565b60006040518083038186803b158015611ea757600080fd5b505af41580156119c2573d6000803e3d6000fd5b606060006003600084815260200190815260200160002060405180608001604052908160008201548152602001600182015481526020016002820154815260200160038201805480602002602001604051908101604052809291908181526020018280548015611f4a57602002820191906000526020600020905b815481526020019060010190808311611f36575b50505091909252505060408051610180810182526005546001600160a01b03908116825260065480821660208085019190915262ffffff600160a01b9283900416848601526007548316606080860191909152600854841660808087019190915260095494851660a08088019190915260ff9490950493909316151560c080870191909152600a5460e08088019190915287516101008181018a52600b548252600c5482870152600d54828b0152600e5482860152600f548288015260105482890152601154828501526012548284015280890191909152885190810189526013548152601454948101949094526015549784019790975260165491830191909152601754928201929092526018549281019290925260195490820152601a5492810192909252610120810191909152601b54610140820152601c5461016082015291925061099d918391506004906002906128d6565b6000808361217e57602b546040516354ba0f2760e01b81526001600160a01b03909116906354ba0f27906120d990339060040161527c565b602060405180830381600087803b1580156120f357600080fd5b505af1158015612107573d6000803e3d6000fd5b505050506040513d601f19601f8201168201806040525081019061212b91906149cf565b60008181526003602052604090819020829055519092507fbf3e9c93de94306b70ac5b9411edf475545815333bf651b894b9eada6482c594906121719084903390615ab4565b60405180910390a161222f565b602b546040516331a9108f60e11b815285935033916001600160a01b031690636352211e906121b1908690600401615aab565b60206040518083038186803b1580156121c957600080fd5b505afa1580156121dd573d6000803e3d6000fd5b505050506040513d601f19601f8201168201806040525081019061220191906144e5565b6001600160a01b031614806122135750825b61222f5760405162461bcd60e51b81526004016106d3906154de565b5060008181526003602052604090209250929050565b602051828152816020820152604081fd5b604080516001600160a01b0385811660248301528481166044830152606480830185905283518084039091018152608490920183526020820180516001600160e01b03166323b872dd60e01b178152925182516000948594938a169392918291908083835b602083106122da5780518252601f1990920191602091820191016122bb565b6001836020036101000a0380198251168184511680821785525050505050509050019150506000604051808303816000865af19150503d806000811461233c576040519150601f19603f3d011682016040523d82523d6000602084013e612341565b606091505b509150915081801561236f57508051158061236f575080806020019051602081101561236c57600080fd5b50515b6119c2576040805162461bcd60e51b815260206004820152600360248201526229aa2360e91b604482015290519081900360640190fd5b60c084015160a0850151600185015460009261242f9290916123d9918a91600281810b9163010000009004900b88612b26565b6040805160808101825260048b0154815260058b0154602082015260068b01549181019190915260078a015460608201526124149086612d85565b60018801548790600281810b9163010000009004900b612dfa565b90505b95945050505050565b612443613c92565b600083815260036020818152604080842081516080810183528154815260018201548185015260028201548184015293810180548351818602810186019094528084529193606086019392908301828280156124be57602002820191906000526020600020905b8154815260200190600101908083116124aa575b50505050508152505090506127c18360046000846060015187815181106124e157fe5b6020026020010151815260200190815260200160002060405180608001604052908160008201548152602001600182016040518060a00160405290816000820160009054906101000a900460ff16600281111561253a57fe5b600281111561254557fe5b81526020016001820154815260200160028201548152602001600382015481526020016004820154815250508152602001600682016040518060a00160405290816000820160009054906101000a900460ff1660028111156125a357fe5b60028111156125ae57fe5b81526020016001820154815260200160028201548152602001600382015481526020016004820154815250508152602001600b8201805480602002602001604051908101604052809291908181526020016000905b828210156126795760008481526020908190206040805160c08101825260068602909201805460ff16151583526001808201548486015260028201546001600160801b03169284019290925260038101546060840152600481015460808401526005015460a08301529083529092019101612603565b5050509152505060408051610180810182526005546001600160a01b03908116825260065480821660208085019190915262ffffff600160a01b9283900416848601526007548316606080860191909152600854841660808087019190915260095494851660a08088019190915260ff9490950493909316151560c080870191909152600a5460e08088019190915287516101008181018a52600b548252600c5482870152600d54828b0152600e5482860152600f548288015260105482890152601154828501526012548284015280890191909152885190810189526013548152601454948101949094526015549784019790975260165491830191909152601754928201929092526018549281019290925260195490820152601a5492810192909252610120810191909152601b54610140820152601c54610160820152600290612ee0565b949350505050565b60006127d430613141565b15905090565b600081602001516001600160a01b031682600001516001600160a01b03161061280257600080fd5b50805160208083015160409384015184516001600160a01b0394851681850152939091168385015262ffffff166060808401919091528351808403820181526080840185528051908301206001600160f81b031960a085015294901b6bffffffffffffffffffffffff191660a183015260b58201939093527fe34f199b19b2b4f47f68442619d555527d244f78a3297ea89325f843f87b8b5460d5808301919091528251808303909101815260f5909101909152805191012090565b670de0b6b3a764000060048201819055600590910155565b60608460600151516001600160401b03811180156128f357600080fd5b5060405190808252806020026020018201604052801561292d57816020015b61291a613c92565b8152602001906001900390816129125790505b50905060005b856060015151811015612b1d57612afe818660008960600151858151811061295757fe5b6020026020010151815260200190815260200160002060405180608001604052908160008201548152602001600182016040518060a00160405290816000820160009054906101000a900460ff1660028111156129b057fe5b60028111156129bb57fe5b81526020016001820154815260200160028201548152602001600382015481526020016004820154815250508152602001600682016040518060a00160405290816000820160009054906101000a900460ff166002811115612a1957fe5b6002811115612a2457fe5b81526020016001820154815260200160028201548152602001600382015481526020016004820154815250508152602001600b8201805480602002602001604051908101604052809291908181526020016000905b82821015612aef5760008481526020908190206040805160c08101825260068602909201805460ff16151583526001808201548486015260028201546001600160801b03169284019290925260038101546060840152600481015460808401526005015460a08301529083529092019101612a79565b50505050815250508686612ee0565b828281518110612b0a57fe5b6020908102919091010152600101612933565b50949350505050565b600080856001600160a01b031663f30583996040518163ffffffff1660e01b815260040160206040518083038186803b158015612b6257600080fd5b505afa158015612b76573d6000803e3d6000fd5b505050506040513d601f19601f82011682018060405250810190612b9a91906149cf565b90506000866001600160a01b031663461413196040518163ffffffff1660e01b815260040160206040518083038186803b158015612bd757600080fd5b505afa158015612beb573d6000803e3d6000fd5b505050506040513d601f19601f82011682018060405250810190612c0f91906149cf565b90506000876001600160a01b0316633850c7bd6040518163ffffffff1660e01b815260040160e06040518083038186803b158015612c4c57600080fd5b505afa158015612c60573d6000803e3d6000fd5b505050506040513d601f19601f82011682018060405250810190612c849190614939565b5050505050915050600080612cb0612c9c8b8b613147565b612ca68c8b613147565b8b8b878a8a613213565b9150915060008989604051602001612cc992919061525f565b604051602081830303815290604052805190602001209050612d75612d248d6000016040518060800160405290816000820154815260200160018201548152602001600282015481526020016003820154815250508a612d85565b8d600801600084815260200190815260200160002060405180608001604052908160008201548152602001600182015481526020016002820154815260200160038201548152505085858a8a613290565b9c9b505050505050505050505050565b81516020830151600091908311612db457670de0b6b3a76400008460400151840281612dad57fe5b040161099d565b670de0b6b3a7640000846040015185602001510281612dcf57fe5b0481019050670de0b6b3a76400008460200151840385606001510281612df157fe5b04019392505050565b6000806000612e2386612e0c8761330f565b612e158761330f565b670de0b6b3a7640000613641565b915091506000612e3c8a886001600160a01b03166136dc565b90508915612e6857612e6183612e5b8484670de0b6b3a76400006137a4565b906137c3565b9350612e82565b612e7f82612e5b8584670de0b6b3a76400006137a4565b93505b612e9e670de0b6b3a7640000612e98868b61381d565b90613876565b9350612ed2612ecb670de0b6b3a7640000612e988c612ec5612ec0878561381d565b6138dd565b9061381d565b85906137c3565b9a9950505050505050505050565b612ee8613c92565b60008460600151516001600160401b0381118015612f0557600080fd5b50604051908082528060200260200182016040528015612f3f57816020015b612f2c613d0e565b815260200190600190039081612f245790505b50905060005b85606001515181101561309e57600086606001518281518110612f6457fe5b6020908102919091018101518101516000818152888352604090819020815161012081018352815481526001820154600281810b810b810b9683019690965263010000008104860b860b860b82850152660100000000000090046001600160801b031660608083019190915294820154608080830191909152600383015460a0830152600483015460c0830152600583015460e08301526006909201546101008201528251918201909252928a015180519294509092918291908690811061302857fe5b602002602001015160000151151581526020018960600151858151811061304b57fe5b6020026020010151604001516001600160801b03168152602001826020015160020b8152602001826040015160020b81525084848151811061308957fe5b60209081029190910101525050600101612f45565b506040518060c001604052808781526020016130cc876020015186610100015161398190919063ffffffff16565b81526020016130ed876040015186610120015161398190919063ffffffff16565b815260200161310e87602001518661010001516139c590919063ffffffff16565b815260200161312f87604001518661012001516139c590919063ffffffff16565b81526020019190915295945050505050565b3b151590565b61314f613d35565b6000806000856001600160a01b031663f30dba93866040518263ffffffff1660e01b81526004016131809190615411565b6101006040518083038186803b15801561319957600080fd5b505afa1580156131ad573d6000803e3d6000fd5b505050506040513d601f19601f820116820180604052508101906131d1919061488f565b9750505050945094505050806131f95760405162461bcd60e51b81526004016106d390615465565b506040805180820190915291825260208201529392505050565b6000806000808860020b8760020b12613234575050885160208a0151613244565b5050885160208a01519085039084035b6000808960020b8960020b1215613263575050895160208b0151613273565b5050895160208b01519087039086035b92909603959095039a949093039290920397509195505050505050565b600080600087604001518511156132c4578760400151850388600001518803670de0b6b3a764000002816132c057fe5b0491505b87606001518411156132f3578760600151840388602001518703670de0b6b3a764000002816132ef57fe5b0490505b671bc16d674ec800008282018a02049998505050505050505050565b60008060008360020b12613326578260020b61332e565b8260020b6000035b9050620d89e881111561336c576040805162461bcd60e51b81526020600482015260016024820152601560fa1b604482015290519081900360640190fd5b60006001821661338057600160801b613392565b6ffffcb933bd6fad37aa2d162d1a5940015b70ffffffffffffffffffffffffffffffffff16905060028216156133c6576ffff97272373d413259a46990580e213a0260801c5b60048216156133e5576ffff2e50f5f656932ef12357cf3c7fdcc0260801c5b6008821615613404576fffe5caca7e10e4e61c3624eaa0941cd00260801c5b6010821615613423576fffcb9843d60f6159c9db58835c9266440260801c5b6020821615613442576fff973b41fa98c081472e6896dfb254c00260801c5b6040821615613461576fff2ea16466c96a3843ec78b326b528610260801c5b6080821615613480576ffe5dee046a99a2a811c461f1969c30530260801c5b6101008216156134a0576ffcbe86c7900a88aedcffc83b479aa3a40260801c5b6102008216156134c0576ff987a7253ac413176f2b074cf7815e540260801c5b6104008216156134e0576ff3392b0822b70005940c7a398e4b70f30260801c5b610800821615613500576fe7159475a2c29b7443b29c7fa6e889d90260801c5b611000821615613520576fd097f3bdfd2022b8845ad8f792aa58250260801c5b612000821615613540576fa9f746462d870fdf8a65dc1f90e061e50260801c5b614000821615613560576f70d869a156d2a1b890bb3df62baf32f70260801c5b618000821615613580576f31be135f97d08fd981231505542fcfa60260801c5b620100008216156135a1576f09aa508b5b7a84e1c677de54f3e99bc90260801c5b620200008216156135c1576e5d6af8dedb81196699c329225ee6040260801c5b620400008216156135e0576d2216e584f5fa1ea926041bedfe980260801c5b620800008216156135fd576b048a170391f7dc42444e8fa20260801c5b60008460020b131561361857806000198161361457fe5b0490505b64010000000081061561362c57600161362f565b60005b60ff16602082901c0192505050919050565b600080836001600160a01b0316856001600160a01b03161115613662579293925b846001600160a01b0316866001600160a01b03161161368d57613686858585613a02565b91506115ee565b836001600160a01b0316866001600160a01b031610156136c6576136b2868585613a02565b91506136bf858785613a6b565b90506115ee565b6136d1858585613a6b565b905094509492505050565b6000670de0b6b3a7640000831561374457613705838483600160c01b816136ff57fe5b04613aaa565b915081613724576ec097ce7bc90715b34b9f1000000000915050610861565b816ec097ce7bc90715b34b9f10000000008161373c57fe5b049150613765565b600160601b816137598586600160601b613aaa565b028161376157fe5b0491505b6ec097ce7bc90715b34b9f1000000000821115613793576ec097ce7bc90715b34b9f1000000000915061379d565b8161379d57600191505b5092915050565b8282028115158415858304851417166137bc57600080fd5b0492915050565b60008282018381101561099d576040805162461bcd60e51b815260206004820152601b60248201527f536166654d6174683a206164646974696f6e206f766572666c6f770000000000604482015290519081900360640190fd5b60008261382c57506000610861565b8282028284828161383957fe5b041461099d5760405162461bcd60e51b8152600401808060200182810382526021815260200180615bfe6021913960400191505060405180910390fd5b60008082116138cc576040805162461bcd60e51b815260206004820152601a60248201527f536166654d6174683a206469766973696f6e206279207a65726f000000000000604482015290519081900360640190fd5b8183816138d557fe5b049392505050565b60b581600160881b81106138f65760409190911b9060801c5b690100000000000000000081106139125760209190911b9060401c5b65010000000000811061392a5760109190911b9060201c5b630100000081106139405760089190911b9060101c5b62010000010260121c80820401600190811c80830401811c80830401811c80830401811c80830401811c80830401811c80830401901c908190048111900390565b600060018251600281111561399257fe5b14156139ba576139b382602001518460800151670de0b6b3a76400006137a4565b9050610861565b506020810151610861565b60006001825160028111156139d657fe5b14156139f7576139b382604001518460a00151670de0b6b3a76400006137a4565b506040810151610861565b6000826001600160a01b0316846001600160a01b03161115613a22579192915b836001600160a01b0316613a5b606060ff16846001600160801b0316901b8686036001600160a01b0316866001600160a01b0316613aaa565b81613a6257fe5b04949350505050565b6000826001600160a01b0316846001600160a01b03161115613a8b579192915b6127c1826001600160801b03168585036001600160a01b0316600160601b5b6000808060001985870986860292508281109083900303905080613ae05760008411613ad557600080fd5b50829004905061099d565b808411613aec57600080fd5b6000848688096000868103871696879004966002600389028118808a02820302808a02820302808a02820302808a02820302808a02820302808a02909103029181900381900460010186841190950394909402919094039290920491909117919091029150509392505050565b60405180610120016040528060008152602001600060020b8152602001600060020b815260200160006001600160801b0316815260200160008152602001600081526020016000815260200160008152602001600081525090565b604051806080016040528060008152602001613bce613d4f565b8152602001613bdb613d4f565b8152602001606081525090565b6040518060800160405280600081526020016000815260200160008152602001606081525090565b6040518060e00160405280600081526020016000815260200160008152602001600081526020016000815260200160008152602001606081525090565b60405180610100016040528060008152602001600081526020016000815260200160008152602001600081526020016000815260200160008152602001600081525090565b6040518060c001604052806000815260200160008152602001600081526020016000815260200160008152602001606081525090565b604080516101008101909152806000815260006020820181905260408201819052606082018190526080820181905260a0820181905260c0820181905260e09091015290565b60408051608081018252600080825260208201819052918101829052606081019190915290565b604051806040016040528060008152602001600081525090565b6040805160a081019091528060008152602001600081526020016000815260200160008152602001600081525090565b80356104d781615b7b565b600082601f830112613d9a578081fd5b81356020613daf613daa83615b52565b615b2f565b82815281810190858301608080860288018501891015613dcd578687fd5b865b86811015613e5e5781838b031215613de5578788fd5b604080518381018181106001600160401b0382111715613e0157fe5b82528435613e0e81615b90565b815284880135613e1d81615bba565b8189015284820135613e2e81615bab565b8083830152506060915081850135613e4581615bab565b9181019190915285529385019391810191600101613dcf565b509198975050505050505050565b600082601f830112613e7c578081fd5b81516020613e8c613daa83615b52565b82815281810190858301608080860288018501891015613eaa578687fd5b865b86811015613e5e5781838b031215613ec2578788fd5b604080518381018181106001600160401b0382111715613ede57fe5b82528451613eeb81615b90565b815284880151613efa81615bba565b8189015284820151613f0b81615bab565b8083830152506060915081850151613f2281615bab565b9181019190915285529385019391810191600101613eac565b600082601f830112613f4b578081fd5b81516020613f5b613daa83615b52565b8281528181019085830161010080860288018501891015613f7a578687fd5b865b86811015613e5e5781838b031215613f92578788fd5b604080518381018181106001600160401b0382111715613fae57fe5b8252613fb9856141b8565b81528785015188820152613fce82860161413e565b8282015260609150613fe1828601614499565b8282015260809150613ff48286016141ce565b8282015260a091506140078286016141ce565b9181019190915260c0848101519082015260e0808501519082015285529385019391810191600101613f7c565b600082601f830112614044578081fd5b81516020614054613daa83615b52565b828152818101908583016101e080860288018501891015614073578687fd5b865b86811015613e5e57828a038281121561408c578889fd5b60408051608081016001600160401b0382821081831117156140aa57fe5b81845260608512156140ba578c8dfd5b60e08301945081851081861117156140ce57fe5b50838352865181528987015160a08301528683015160c083015281526140f78d60608801614390565b898201526141088d60e08801614390565b8282015261411a8d6101608801614390565b6060820152875250509385019391810191600101614075565b80356104d781615b90565b80516104d781615b90565b600082601f830112614159578081fd5b81356001600160401b0381111561416c57fe5b61417f601f8201601f1916602001615b2f565b818152846020838601011115614193578283fd5b816020850160208301379081016020019190915292915050565b80356104d781615b9e565b80516104d781615b9e565b80356104d781615bab565b80516104d781615bab565b600060a082840312156141ea578081fd5b60405160a081018181106001600160401b038211171561420657fe5b80604052508091508235815260208301356020820152604083013560408201526060830135606082015261423c608084016144b6565b60808201525092915050565b600060808284031215614259578081fd5b604051608081018181106001600160401b038211171561427557fe5b8060405250809150823581526020830135602082015260408301356040820152606083013560608201525092915050565b6000606082840312156142b7578081fd5b604051606081018181106001600160401b03821117156142d357fe5b806040525080915082358152602083013560208201526142f5604084016144b6565b60408201525092915050565b600060c08284031215614312578081fd5b60405160c081016001600160401b03828210818311171561432f57fe5b81604052829350843583526020850135602084015260408501356040840152606085013560608401526080850135608084015260a085013591508082111561437657600080fd5b5061438385828601613d8a565b60a0830152505092915050565b6000608082840312156143a1578081fd5b604051608081018181106001600160401b03821117156143bd57fe5b8060405250809150825181526020830151602082015260408301516040820152606083015160608201525092915050565b600060e082840312156143ff578081fd5b61440960e0615b2f565b905061441482614133565b815261442260208301614133565b602082015261443360408301614133565b604082015261444460608301614133565b60608201526080820135608082015260a082013560a082015260c08201356001600160401b0381111561447657600080fd5b61448284828501614149565b60c08301525092915050565b80356104d781615bba565b80516104d781615bba565b805161ffff811681146104d757600080fd5b803562ffffff811681146104d757600080fd5b6000602082840312156144da578081fd5b813561099d81615b7b565b6000602082840312156144f6578081fd5b815161099d81615b7b565b60006020808385031215614513578182fd5b82356001600160401b03811115614528578283fd5b8301601f81018513614538578283fd5b8035614546613daa82615b52565b81815283810190838501865b8481101561457b576145698a888435890101614149565b84529286019290860190600101614552565b509098975050505050505050565b60006020828403121561459a578081fd5b81516001600160401b038111156145af578182fd5b6127c184828501613f3b565b6000602082840312156145cc578081fd5b815161099d81615b90565b6000602082840312156145e8578081fd5b5035919050565b60008060408385031215614601578081fd5b50508035926020909101359150565b60008060408385031215614622578182fd5b505080516020909101519092909150565b600060808284031215614644578081fd5b61099d8383614248565b6000806101008385031215614661578182fd5b61466b8484614248565b915061467a8460808501614248565b90509250929050565b600080600080600085870361010081121561469c578182fd5b60808112156146a9578182fd5b50604051608081018181106001600160401b03821117156146c657fe5b6040526146d2876144b6565b815260208701356146e281615b7b565b602082015260408701356146f581615b7b565b6040820152606087013561470881615b90565b6060820152945061471b60808701613d7f565b935061472960a08701613d7f565b925061473760c08701613d7f565b915061474560e08701613d7f565b90509295509295909350565b600060208284031215614762578081fd5b81516001600160401b0380821115614778578283fd5b9083019060e0828603121561478b578283fd5b61479560e0615b2f565b825181526020830151602082015260408301516040820152606083015160608201526080830151608082015260a083015160a082015260c0830151828111156147dc578485fd5b6147e887828601613e6c565b60c08301525095945050505050565b600060208284031215614808578081fd5b81516001600160401b038082111561481e578283fd5b9083019060808286031215614831578283fd5b60405160808101818110838211171561484657fe5b8060405250825181526020830151602082015260408301516040820152606083015182811115614874578485fd5b61488087828601614034565b60608301525095945050505050565b600080600080600080600080610100898b0312156148ab578586fd5b88516148b681615bba565b80985050602089015180600f0b81146148cd578687fd5b80975050604089015195506060890151945060808901518060060b81146148f2578384fd5b60a08a015190945061490381615b7b565b60c08a015190935063ffffffff8116811461491c578283fd5b915061492a60e08a0161413e565b90509295985092959890939650565b600080600080600080600060e0888a031215614953578081fd5b875161495e81615b7b565b602089015190975061496f81615bab565b955061497d604089016144a4565b945061498b606089016144a4565b9350614999608089016144a4565b925060a088015160ff811681146149ae578182fd5b60c08901519092506149bf81615b90565b8091505092959891949750929550565b6000602082840312156149e0578081fd5b5051919050565b600080604083850312156149f9578182fd5b8251915060208301516001600160401b03811115614a15578182fd5b614a2185828601613f3b565b9150509250929050565b60008060006060808587031215614a40578182fd5b843593506020808601356001600160401b0380821115614a5e578485fd5b818801915088601f830112614a71578485fd5b8135614a7f613daa82615b52565b81815284810190848601610100808502870188018e1015614a9e57898afd5b8996505b84871015614b535780828f031215614ab857898afd5b604080518281018181108982111715614acd57fe5b8252614ad8846141ad565b8152898401358a820152614aed828501614133565b82820152614afc8b850161448e565b8b82015260809150614b0f8285016141c3565b8282015260a09150614b228285016141c3565b9181019190915260c0838101359082015260e080840135908201528452600196909601959287019290810190614aa2565b509098505050506040880135935080841115614b6d578485fd5b505050614b7c868287016143ee565b9150509250925092565b6000806000806101008587031215614b9c578182fd5b843593506020808601356001600160401b0380821115614bba578485fd5b818801915088601f830112614bcd578485fd5b8135614bdb613daa82615b52565b81815284810190848601885b84811015614c1057614bfe8e8984358a0101614301565b84529287019290870190600101614be7565b509098505050506040880135925080831115614c2a578485fd5b5050614c38878288016143ee565b925050614c4886606087016141d9565b905092959194509250565b60008060808385031215614c65578182fd5b8235915061467a84602085016142a6565b60008060008060c08587031215614c8b578182fd5b8435935060208501356001600160401b0380821115614ca8578384fd5b614cb488838901614301565b94506040870135915080821115614cc9578384fd5b50614cd6878288016143ee565b925050614c4886606087016142a6565b600080600060e08486031215614cfa578081fd5b8335925060208401356001600160401b03811115614d16578182fd5b614d22868287016143ee565b925050614d3285604086016141d9565b90509250925092565b60008060408385031215614601578182fd5b6000806000806101008587031215614d63578182fd5b843593506020850135925060408501356001600160401b03811115614d86578283fd5b614c38878288016143ee565b6001600160a01b03169052565b6000815180845260208085019450808401835b83811015614dd857614dc5878351615025565b6080969096019590820190600101614db2565b509495945050505050565b6000815180845260208085019450808401835b83811015614dd85781518051600d8110614e0c57fe5b88528084015184890152604080820151151590890152606080820151614e34828b0182615249565b5050608080820151614e48828b0182614ed6565b505060a080820151614e5c828b0182614ed6565b505060c0818101519089015260e090810151908801526101009096019590820190600101614df6565b15159052565b60008151808452815b81811015614eb057602081850181015186830182015201614e94565b81811115614ec15782602083870101525b50601f01601f19169290920160200192915050565b60020b9052565b805160038110614ee957fe5b8252602081810151908301526040808201519083015260608082015190830152608090810151910152565b614f2782614f228354615b6f565b614d92565b60018101546001600160a01b03614f4360208501828416614d92565b614f586040850162ffffff8460a01c16615256565b614f656002840154615b6f565b9150614f746060850183614d92565b614f816003840154615b6f565b9150614f906080850183614d92565b60048301549150614fa660a08501828416614d92565b50614fba60c0840160ff8360a01c16614e85565b50600581015460e0830152614fd6610100830160068301615130565b614fe76102008301600e8301615130565b60168101546103008301526017015461032090910152565b805182526020810151602083015260408101516040830152606081015160608301525050565b8051151582526001600160801b036020820151166020830152604081015160020b6040830152606081015160020b60608301525050565b600060c08301825184526020808401518186015260408401516040860152606084015160608601526080808501518187015260a085015160c060a088015283815180865260e08901915084830195508692505b808310156150d6576150c2828751615025565b9484019460019290920191908301906150af565b50979650505050505050565b805182526020810151602083015260408101516040830152606081015160608301526080810151608083015260a081015160a083015260c081015160c083015260e081015160e08301525050565b8054825260018101546020830152600281015460408301526003810154606083015260048101546080830152600581015460a0830152600681015460c08301526007015460e090910152565b60006080830182518452602080840151818601526040840151604086015260608401516080606087015282815180855260a08801915083830194508592505b808310156151db57845182529383019360019290920191908301906151bb565b509695505050505050565b6000608083018254845260018084015460208181880152600286015460408801526003860191506080606088015283825480865260a08901915083875282872095508693505b808410156150d6578554825294840194928401929082019061522c565b6001600160801b03169052565b62ffffff169052565b600292830b60e890811b82529190920b901b600382015260060190565b6001600160a01b0391909116815260200190565b6001600160a01b03929092168252602082015260400190565b60208082528251828201819052600091906040908185019080840286018301878501865b8381101561457b57888303603f1901855281518051845287810151888501528681015187850152606080820151908501526080808201519085015260a09081015160c09185018290529061532381860183614d9f565b9689019694505050908601906001016152cd565b600060c0820160c0835280895180835260e0850191506020925060e0838202860101838c01855b8381101561538c5760df1988840301855261537a83835161505c565b9486019492509085019060010161535e565b50508094505050506153a081840189614e85565b506153ae6040830187615256565b8460608301528360808301526153c760a0830184614d92565b979650505050505050565b901515815260200190565b951515865260208601949094526001600160a01b03928316604086015291166060840152608083015260a082015260c00190565b60029190910b815260200190565b918252602082015260400190565b602080825260029082015261503360f01b604082015260600190565b6020808252600290820152610a0760f31b604082015260600190565b6020808252600b908201526a1a5b9a5d1a585b1a5e995960aa1b604082015260600190565b60208082526017908201527f63616c6c6572206d757374206265206f70657261746f72000000000000000000604082015260600190565b60208082526003908201526221a41960e91b604082015260600190565b602080825260029082015261281960f11b604082015260600190565b928352815460208401526001820154604084015260028201546060840152600390910154608083015260a082015260c00190565b60006103a061553d8388614f14565b806103408401526155508184018761517c565b6103608401959095525050610380015292915050565b61010081016155758285614fff565b61099d6080830184614fff565b60006101208201905082518252602083015160020b6020830152604083015160020b604083015260608301516155bb6060840182615249565b506080830151608083015260a083015160a083015260c083015160c083015260e083015160e083015261010080840151818401525092915050565b60006020825282516020830152602083015160408301526040830151606083015260608301516080830152608083015160a083015260a083015160c083015260c083015160e0808401526127c1610100840182614d9f565b600060808252615661608083018761505c565b94151560208301525062ffffff9290921660408301526001600160a01b0316606090910152919050565b600060208083526101a083018451828501528185015160406156af81870183614edd565b8087015191506156c260e0870183614edd565b6060878101516101808881015280519485905285019390925085906101c08801905b8083101561573f5785518051151583528781015188840152848101516001600160801b03168584015285810151868401526080808201519084015260a09081015190830152948601946001929092019160c0909101906156e4565b5098975050505050505050565b610200810161575b82856150e2565b61099d6101008301846150e2565b6020808252825182820152828101516040808401919091528084015160608085019190915280850151608080860152805160a08601819052600094939184019285929160c08801905b8085101561573f578551805180518452888101518985015285015185840152878101516157e185850182614fff565b5080850151805160e0850152888101516101008501528086015161012085015284015161014084015283015161581b610160840182614fff565b506101e08201915086860195506001850194506157b2565b6000602080835260a0830184518285015281850151604085015260408501516060850152606085015160808086015281815180845260c08701915084830193508592505b808310156151db5783518252928401926001929092019190840190615877565b60006103a08083526158ab8184018861517c565b9150508460208301528360408301526124326060830184614f14565b600060e082526158da60e083018a61517c565b88602084015287604084015286606084015282810360808401526158fe8187614de3565b60a084019590955250506001600160a01b039190911660c09091015295945050505050565b60006103c08083526159378184018961517c565b9150508560208301528460408301526159536060830185614f14565b6001600160a01b03929092166103a09190910152949350505050565b60006103a0808352615983818401886151e6565b9150508460208301526159996040830185614f14565b8261038083015295945050505050565b600087825286602083015285604083015284606083015260c060808301526159d460c0830185614de3565b82810360a08401528351151581526020840151151560208201526040840151151560408201526060840151615a0c6060830182614e85565b506080840151608082015260a084015160a082015260c084015160e060c0830152612ed260e0830182614e8b565b600086825285602083015260a06040830152615a5960a0830186614de3565b606083019490945250608001529392505050565b600087825286602083015285604083015284606083015260c06080830152615a9860c0830185614de3565b90508260a0830152979650505050505050565b90815260200190565b9182526001600160a01b0316602082015260400190565b9283526020830191909152604082015260600190565b600086825285602083015284604083015260018060a01b038416606083015260a060808301526153c760a0830184614e8b565b93845260208401929092526040830152606082015260800190565b6040518181016001600160401b0381118282101715615b4a57fe5b604052919050565b60006001600160401b03821115615b6557fe5b5060209081020190565b6001600160a01b031690565b6001600160a01b0381168114611b5557600080fd5b8015158114611b5557600080fd5b600d8110611b5557600080fd5b8060020b8114611b5557600080fd5b6001600160801b0381168114611b5557600080fdfe496e697469616c697a61626c653a20636f6e747261637420697320616c726561647920696e697469616c697a6564536166654d6174683a206d756c7469706c69636174696f6e206f766572666c6f77a26469706673582212202b8ae95f6b83cfe1084b073399718b5eb3a89149de328ccf3df501028b94f92564736f6c63430007060033",
  "deployedBytecode": "0x608060405234801561001057600080fd5b50600436106101a95760003560e01c806368715773116100f9578063dd8cb3f411610097578063ebd2665f11610071578063ebd2665f146103ee578063ec52ad0814610404578063f3f4b4c714610417578063f46a64771461042a576101a9565b8063dd8cb3f4146103a8578063e6d96b3d146103bb578063eb02c301146103ce576101a9565b80639403b634116100d35780639403b63414610341578063950db6ec14610361578063b3ab15fb14610374578063bc3be8dc14610387576101a9565b806368715773146103065780636f85ba9c1461031957806386e6862d14610339576101a9565b80633e1297151161016657806351be57d31161014057806351be57d3146102b3578063570ca735146102cb57806365b5f6e3146102e057806367114859146102f3576101a9565b80633e1297151461025157806349ebb77d146102715780634b93442814610291576101a9565b8063013216f5146101ae578063127f0f07146101d7578063275892a2146101f157806330050fbd146102065780633743d142146102265780633c678e141461023b575b600080fd5b6101c16101bc3660046145d7565b61043d565b6040516101ce9190615582565b60405180910390f35b6101df6104dc565b6040516101ce969594939291906153dd565b6101f9610509565b6040516101ce9190615aab565b6102196102143660046145d7565b61050f565b6040516101ce919061568b565b610239610234366004614d3b565b6106a9565b005b61024361075c565b6040516101ce929190615566565b61026461025f3660046145d7565b6107b9565b6040516101ce91906153d2565b61028461027f3660046145d7565b610867565b6040516101ce9190615769565b6102a461029f366004614c76565b6109a4565b6040516101ce93929190615acb565b6102bb610a7a565b6040516101ce9493929190615b14565b6102d3610a89565b6040516101ce919061527c565b6102396102ee366004614501565b610a98565b61023961030136600461464e565b610bb1565b610239610314366004614633565b610c14565b61032c6103273660046145d7565b610c5e565b6040516101ce91906155f6565b6102d3610d81565b61035461034f3660046145d7565b610e0a565b6040516101ce9190615833565b61023961036f366004614c53565b610e9e565b6102396103823660046144c9565b610f74565b61039a610395366004614ce6565b610fd3565b6040516101ce92919061541f565b6102a46103b6366004614a2b565b610ffe565b61039a6103c9366004614b86565b611261565b6103e16103dc3660046145d7565b611341565b6040516101ce91906152a9565b6103f661134c565b6040516101ce92919061574c565b6101f96104123660046145ef565b61140d565b61039a610425366004614d4d565b61157b565b610239610438366004614683565b6115f7565b610445613b59565b5060008181526002602081815260409283902083516101208101855281548152600182015480850b850b850b9382019390935263010000008304840b840b840b9481019490945266010000000000009091046001600160801b03166060840152908101546080830152600381015460a0830152600481015460c0830152600581015460e0830152600601546101008201525b919050565b600954600a54600754601b54601c5460ff600160a01b860416946001600160a01b03908116931692939495565b60015481565b610517613bb4565b600082815260046020908152604091829020825160808101845281548152835160a081019094526001820180549194929385019291829060ff16600281111561055c57fe5b600281111561056757fe5b81526020016001820154815260200160028201548152602001600382015481526020016004820154815250508152602001600682016040518060a00160405290816000820160009054906101000a900460ff1660028111156105c557fe5b60028111156105d057fe5b81526020016001820154815260200160028201548152602001600382015481526020016004820154815250508152602001600b8201805480602002602001604051908101604052809291908181526020016000905b8282101561069b5760008481526020908190206040805160c08101825260068602909201805460ff16151583526001808201548486015260028201546001600160801b03169284019290925260038101546060840152600481015460808401526005015460a08301529083529092019101610625565b505050915250909392505050565b602a546001600160a01b031633146106dc5760405162461bcd60e51b81526004016106d39061548a565b60405180910390fd5b601b5482118015906106f05750601c548111155b61070c5760405162461bcd60e51b81526004016106d390615449565b601b80548390039055601c80548290039055811561073b5760055461073b906001600160a01b031633846119ca565b801561075857600654610758906001600160a01b031633836119ca565b5050565b60408051608080820183526021548252602254602080840191909152602354838501526024546060808501919091528451928301855260255483526026549183019190915260275493820193909352602854928101929092529082565b60006107c482611b18565b60008281526003602052604090819020905163194a268960e21b815273__$a1fa80d38d689cae49e54718da49b6432c$__916365289a24916108119190600490600590600290830161596f565b60206040518083038186803b15801561082957600080fd5b505af415801561083d573d6000803e3d6000fd5b505050506040513d601f19601f8201168201806040525081019061086191906145bb565b92915050565b61086f613be8565b6000610879610d81565b905061088483611b18565b600083815260036020818152604092839020835160808101855281548152600182015481840152600282015481860152928101805485518185028101850190965280865293949193606086019383018282801561090057602002820191906000526020600020905b8154815260200190600101908083116108ec575b505050919092525050604051635d8d458360e11b815273__$b4a4919001844372a79711112cfb20c2b9$__9263bb1a8b0692506109499160049060029060059088908401615923565b60006040518083038186803b15801561096157600080fd5b505af4158015610975573d6000803e3d6000fd5b505050506040513d6000823e601f3d908101601f1916820160405261099d91908101906147f7565b9392505050565b60008060008073__$7ffffda71c6e7abde662efb5427d8d1c5d$__63886e930088886060015188604001516109d7610d81565b6040518563ffffffff1660e01b81526004016109f6949392919061564e565b60006040518083038186803b158015610a0e57600080fd5b505af4158015610a22573d6000803e3d6000fd5b505050506040513d6000823e601f3d908101601f19168201604052610a4a9190810190614589565b9050610a57888288610ffe565b875160208901519397509195509350610a6f91611b58565b509450945094915050565b601d54601e54601f5460205484565b602a546001600160a01b031681565b602a546001600160a01b03163314610ac25760405162461bcd60e51b81526004016106d39061548a565b60005b815181101561075857600080838381518110610add57fe5b6020026020010151806020019051810190610af891906149e7565b91509150610b068282611b99565b6000828152600360205260408082209051637882621360e11b815273__$a1fa80d38d689cae49e54718da49b6432c$__9263f104c42692610b569290916004916005916002918991908501615a6d565b60206040518083038186803b158015610b6e57600080fd5b505af4158015610b82573d6000803e3d6000fd5b505050506040513d601f19601f82011682018060405250810190610ba691906149cf565b505050600101610ac5565b602a546001600160a01b03163314610bdb5760405162461bcd60e51b81526004016106d39061548a565b81516025556020808301516026556040808401516027556060938401516028558251602155908201516022558101516023550151602455565b602a546001600160a01b03163314610c3e5760405162461bcd60e51b81526004016106d39061548a565b8051601d55602080820151601e556040820151601f556060909101519055565b610c66613c10565b60008281526003602081815260408084208151608081018352815481526001820154818501526002820154818401529381018054835181860281018601909452808452919360608601939290830182828015610ce157602002820191906000526020600020905b815481526020019060010190808311610ccd575b50505091909252505060405163149ccfa160e11b815291925073__$b4a4919001844372a79711112cfb20c2b9$__916329399f429150610d2d9084906004906002906005908301615897565b60006040518083038186803b158015610d4557600080fd5b505af4158015610d59573d6000803e3d6000fd5b505050506040513d6000823e601f3d908101601f1916820160405261099d9190810190614751565b60095460408051633850c7bd60e01b815290516000926001600160a01b031691633850c7bd9160048281019260e0929190829003018186803b158015610dc657600080fd5b505afa158015610dda573d6000803e3d6000fd5b505050506040513d601f19601f82011682018060405250810190610dfe9190614939565b50949695505050505050565b610e12613be8565b6000828152600360208181526040928390208351608081018552815481526001820154818401526002820154818601529281018054855181850281018501909652808652939491936060860193830182828015610e8e57602002820191906000526020600020905b815481526020019060010190808311610e7a575b5050505050815250509050919050565b610ea6611da2565b600073__$7ffffda71c6e7abde662efb5427d8d1c5d$__63399760de610ecb85611341565b600954604086015186516020880151600160a01b90930460ff1692610eee610d81565b6040518763ffffffff1660e01b8152600401610f0f96959493929190615337565b60006040518083038186803b158015610f2757600080fd5b505af4158015610f3b573d6000803e3d6000fd5b505050506040513d6000823e601f3d908101601f19168201604052610f639190810190614589565b9050610f6f8382611e36565b505050565b602a546001600160a01b03163314610f9e5760405162461bcd60e51b81526004016106d39061548a565b6001600160a01b038116610fb157600080fd5b602a80546001600160a01b0319166001600160a01b0392909216919091179055565b600080610fde611da2565b610ff285610feb87611ebb565b8686611261565b91509150935093915050565b600080600061100d8686611b99565b600061101d8786604001516120a1565b604051636413e81f60e11b8152919550915073__$da03e66f624374a74ff67f4d42d7f52632$__9063c827d03e906110659084906004906005906002908d908d9085016159a9565b604080518083038186803b15801561107c57600080fd5b505af4158015611090573d6000803e3d6000fd5b505050506040513d601f19601f820116820180604052508101906110b49190614610565b60408701519194509250156110cd576110cd8383612245565b60405163194a268960e21b815273__$a1fa80d38d689cae49e54718da49b6432c$__906365289a249061110c908490600490600590600290830161596f565b60206040518083038186803b15801561112457600080fd5b505af4158015611138573d6000803e3d6000fd5b505050506040513d601f19601f8201168201806040525081019061115c91906145bb565b156111795760405162461bcd60e51b81526004016106d39061542d565b600083131561119f5760055461119a906001600160a01b0316333086612256565b6111c3565b60008312156111c3576005546111c3906001600160a01b03163360008690036119ca565b60008213156111e9576006546111e4906001600160a01b0316333085612256565b61120d565b600082121561120d5760065461120d906001600160a01b03163360008590036119ca565b7fabc710e8ab5c8f4ea5d70ef0f4c50f12dd4804fa7e04ce65aa8c813197b64bea848484611239610d81565b8960c0015160405161124f959493929190615ae1565b60405180910390a15093509350939050565b600080600073__$7ffffda71c6e7abde662efb5427d8d1c5d$__63399760de87876060015187608001518860400151896060015161129d610d81565b6040518763ffffffff1660e01b81526004016112be96959493929190615337565b60006040518083038186803b1580156112d657600080fd5b505af41580156112ea573d6000803e3d6000fd5b505050506040513d6000823e601f3d908101601f191682016040526113129190810190614589565b905061131f878287610ffe565b86516020880151929650909450611337925090611b58565b5094509492505050565b606061086182611ebb565b611354613c4d565b61135c613c4d565b5050604080516101008082018352600b548252600c54602080840191909152600d5483850152600e54606080850191909152600f5460808086019190915260105460a08087019190915260115460c08088019190915260125460e080890191909152885196870189526013548752601454958701959095526015549786019790975260165492850192909252601754908401526018549083015260195493820193909352601a549281019290925291565b60008281526002602052604081205461142857506000610861565b60408051610180810182526005546001600160a01b039081168252600654808216602080850191909152600160a01b9182900462ffffff16848601526007548316606080860191909152600854841660808087019190915260095494851660a0808801919091529390940460ff16151560c080870191909152600a5460e08088019190915287516101008082018a52600b548252600c5482870152600d54828b0152600e5482860152600f54828901526010548288015260115482850152601254828401528089019190915288519081018952601354815260145481860152601554818a015260165493810193909352601754958301959095526018549382019390935260195492810192909252601a5492820192909252610120830152601b54610140830152601c54610160830152600086815260029091529190912061099d91602191611575610d81565b866123a6565b600080611586611da2565b604080516001808252818301909252600091816020015b6115a5613c92565b81526020019060019003908161159d5790505090506115c4878761243b565b816000815181106115d157fe5b60200260200101819052506115e887828787611261565b92509250505b94509492505050565b600054610100900460ff168061161057506116106127c9565b8061161e575060005460ff16155b6116595760405162461bcd60e51b815260040180806020018281038252602e815260200180615bd0602e913960400191505060405180910390fd5b600054610100900460ff16158015611684576000805460ff1961ff0019909116610100171660011790555b8551600680546020808a0151600580546001600160a01b03199081166001600160a01b0393841617918290556040808e015162ffffff60a01b19909616600160a01b62ffffff998a16810291909117831696851696909617968790556060808f01516009805460ff60a01b191691151589029190911790556007805484168f8716179055600880549093168c86161790925580519182018152918316815291851692820192909252919092049092169082015261174185826127da565b600980546001600160a01b03199081166001600160a01b0393841617909155602b80549091168583161790556001600a5560055460405163095ea7b360e01b815291169063095ea7b39061179d90899060001990600401615290565b602060405180830381600087803b1580156117b757600080fd5b505af11580156117cb573d6000803e3d6000fd5b505050506040513d601f19601f820116820180604052508101906117ef91906145bb565b5060065460405163095ea7b360e01b81526001600160a01b039091169063095ea7b39061182490899060001990600401615290565b602060405180830381600087803b15801561183e57600080fd5b505af1158015611852573d6000803e3d6000fd5b505050506040513d601f19601f8201168201806040525081019061187691906145bb565b5060055460405163095ea7b360e01b81526001600160a01b039091169063095ea7b3906118ab90879060001990600401615290565b602060405180830381600087803b1580156118c557600080fd5b505af11580156118d9573d6000803e3d6000fd5b505050506040513d601f19601f820116820180604052508101906118fd91906145bb565b5060065460405163095ea7b360e01b81526001600160a01b039091169063095ea7b39061193290879060001990600401615290565b602060405180830381600087803b15801561194c57600080fd5b505af1158015611960573d6000803e3d6000fd5b505050506040513d601f19601f8201168201806040525081019061198491906145bb565b5061198f600b6128be565b61199960136128be565b5042600155602a80546001600160a01b0319163317905580156119c2576000805461ff00191690555b505050505050565b604080516001600160a01b038481166024830152604480830185905283518084039091018152606490920183526020820180516001600160e01b031663a9059cbb60e01b1781529251825160009485949389169392918291908083835b60208310611a465780518252601f199092019160209182019101611a27565b6001836020036101000a0380198251168184511680821785525050505050509050019150506000604051808303816000865af19150503d8060008114611aa8576040519150601f19603f3d011682016040523d82523d6000602084013e611aad565b606091505b5091509150818015611adb575080511580611adb5750808060200190516020811015611ad857600080fd5b50515b611b11576040805162461bcd60e51b815260206004820152600260248201526114d560f21b604482015290519081900360640190fd5b5050505050565b60408051600080825260208201909252611b5591839190611b4f565b611b3c613cc8565b815260200190600190039081611b345790505b50611b99565b50565b6000611b62610d81565b6001600160a01b03169050808311158015611b7d5750818111155b610f6f5760405162461bcd60e51b81526004016106d3906154c1565b60008281526003602081815260408084208151608081018352815481526001820154818501526002820154818401529381018054835181860281018601909452808452919360608601939290830182828015611c1457602002820191906000526020600020905b815481526020019060010190808311611c00575b505050505081525050905073__$d48eea142f8e4946a86e978d6ec5b9f014$__63a5d330ad82600460026005876021611c4b610d81565b6040518863ffffffff1660e01b8152600401611c6d97969594939291906158c7565b60006040518083038186803b158015611c8557600080fd5b505af4158015611c99573d6000803e3d6000fd5b505060015460405163725acfd160e01b815273__$d48eea142f8e4946a86e978d6ec5b9f014$__935063725acfd19250611cdc91600591601d91906004016154fa565b60206040518083038186803b158015611cf457600080fd5b505af4158015611d08573d6000803e3d6000fd5b505050506040513d601f19601f82011682018060405250810190611d2c91906149cf565b60015560405162d85ecd60e61b815273__$da03e66f624374a74ff67f4d42d7f52632$__90633617b34090611d6d906005908590600490600290820161552e565b60006040518083038186803b158015611d8557600080fd5b505af4158015611d99573d6000803e3d6000fd5b50505050505050565b60015460405163725acfd160e01b815273__$d48eea142f8e4946a86e978d6ec5b9f014$__9163725acfd191611de191600591601d91906004016154fa565b60206040518083038186803b158015611df957600080fd5b505af4158015611e0d573d6000803e3d6000fd5b505050506040513d601f19601f82011682018060405250810190611e3191906149cf565b600155565b611e408282611b99565b6000828152600360205260409081902090516349b3bd7960e11b815273__$a1fa80d38d689cae49e54718da49b6432c$__916393677af291611e8f919060049086906005906002908401615a3a565b60006040518083038186803b158015611ea757600080fd5b505af41580156119c2573d6000803e3d6000fd5b606060006003600084815260200190815260200160002060405180608001604052908160008201548152602001600182015481526020016002820154815260200160038201805480602002602001604051908101604052809291908181526020018280548015611f4a57602002820191906000526020600020905b815481526020019060010190808311611f36575b50505091909252505060408051610180810182526005546001600160a01b03908116825260065480821660208085019190915262ffffff600160a01b9283900416848601526007548316606080860191909152600854841660808087019190915260095494851660a08088019190915260ff9490950493909316151560c080870191909152600a5460e08088019190915287516101008181018a52600b548252600c5482870152600d54828b0152600e5482860152600f548288015260105482890152601154828501526012548284015280890191909152885190810189526013548152601454948101949094526015549784019790975260165491830191909152601754928201929092526018549281019290925260195490820152601a5492810192909252610120810191909152601b54610140820152601c5461016082015291925061099d918391506004906002906128d6565b6000808361217e57602b546040516354ba0f2760e01b81526001600160a01b03909116906354ba0f27906120d990339060040161527c565b602060405180830381600087803b1580156120f357600080fd5b505af1158015612107573d6000803e3d6000fd5b505050506040513d601f19601f8201168201806040525081019061212b91906149cf565b60008181526003602052604090819020829055519092507fbf3e9c93de94306b70ac5b9411edf475545815333bf651b894b9eada6482c594906121719084903390615ab4565b60405180910390a161222f565b602b546040516331a9108f60e11b815285935033916001600160a01b031690636352211e906121b1908690600401615aab565b60206040518083038186803b1580156121c957600080fd5b505afa1580156121dd573d6000803e3d6000fd5b505050506040513d601f19601f8201168201806040525081019061220191906144e5565b6001600160a01b031614806122135750825b61222f5760405162461bcd60e51b81526004016106d3906154de565b5060008181526003602052604090209250929050565b602051828152816020820152604081fd5b604080516001600160a01b0385811660248301528481166044830152606480830185905283518084039091018152608490920183526020820180516001600160e01b03166323b872dd60e01b178152925182516000948594938a169392918291908083835b602083106122da5780518252601f1990920191602091820191016122bb565b6001836020036101000a0380198251168184511680821785525050505050509050019150506000604051808303816000865af19150503d806000811461233c576040519150601f19603f3d011682016040523d82523d6000602084013e612341565b606091505b509150915081801561236f57508051158061236f575080806020019051602081101561236c57600080fd5b50515b6119c2576040805162461bcd60e51b815260206004820152600360248201526229aa2360e91b604482015290519081900360640190fd5b60c084015160a0850151600185015460009261242f9290916123d9918a91600281810b9163010000009004900b88612b26565b6040805160808101825260048b0154815260058b0154602082015260068b01549181019190915260078a015460608201526124149086612d85565b60018801548790600281810b9163010000009004900b612dfa565b90505b95945050505050565b612443613c92565b600083815260036020818152604080842081516080810183528154815260018201548185015260028201548184015293810180548351818602810186019094528084529193606086019392908301828280156124be57602002820191906000526020600020905b8154815260200190600101908083116124aa575b50505050508152505090506127c18360046000846060015187815181106124e157fe5b6020026020010151815260200190815260200160002060405180608001604052908160008201548152602001600182016040518060a00160405290816000820160009054906101000a900460ff16600281111561253a57fe5b600281111561254557fe5b81526020016001820154815260200160028201548152602001600382015481526020016004820154815250508152602001600682016040518060a00160405290816000820160009054906101000a900460ff1660028111156125a357fe5b60028111156125ae57fe5b81526020016001820154815260200160028201548152602001600382015481526020016004820154815250508152602001600b8201805480602002602001604051908101604052809291908181526020016000905b828210156126795760008481526020908190206040805160c08101825260068602909201805460ff16151583526001808201548486015260028201546001600160801b03169284019290925260038101546060840152600481015460808401526005015460a08301529083529092019101612603565b5050509152505060408051610180810182526005546001600160a01b03908116825260065480821660208085019190915262ffffff600160a01b9283900416848601526007548316606080860191909152600854841660808087019190915260095494851660a08088019190915260ff9490950493909316151560c080870191909152600a5460e08088019190915287516101008181018a52600b548252600c5482870152600d54828b0152600e5482860152600f548288015260105482890152601154828501526012548284015280890191909152885190810189526013548152601454948101949094526015549784019790975260165491830191909152601754928201929092526018549281019290925260195490820152601a5492810192909252610120810191909152601b54610140820152601c54610160820152600290612ee0565b949350505050565b60006127d430613141565b15905090565b600081602001516001600160a01b031682600001516001600160a01b03161061280257600080fd5b50805160208083015160409384015184516001600160a01b0394851681850152939091168385015262ffffff166060808401919091528351808403820181526080840185528051908301206001600160f81b031960a085015294901b6bffffffffffffffffffffffff191660a183015260b58201939093527fe34f199b19b2b4f47f68442619d555527d244f78a3297ea89325f843f87b8b5460d5808301919091528251808303909101815260f5909101909152805191012090565b670de0b6b3a764000060048201819055600590910155565b60608460600151516001600160401b03811180156128f357600080fd5b5060405190808252806020026020018201604052801561292d57816020015b61291a613c92565b8152602001906001900390816129125790505b50905060005b856060015151811015612b1d57612afe818660008960600151858151811061295757fe5b6020026020010151815260200190815260200160002060405180608001604052908160008201548152602001600182016040518060a00160405290816000820160009054906101000a900460ff1660028111156129b057fe5b60028111156129bb57fe5b81526020016001820154815260200160028201548152602001600382015481526020016004820154815250508152602001600682016040518060a00160405290816000820160009054906101000a900460ff166002811115612a1957fe5b6002811115612a2457fe5b81526020016001820154815260200160028201548152602001600382015481526020016004820154815250508152602001600b8201805480602002602001604051908101604052809291908181526020016000905b82821015612aef5760008481526020908190206040805160c08101825260068602909201805460ff16151583526001808201548486015260028201546001600160801b03169284019290925260038101546060840152600481015460808401526005015460a08301529083529092019101612a79565b50505050815250508686612ee0565b828281518110612b0a57fe5b6020908102919091010152600101612933565b50949350505050565b600080856001600160a01b031663f30583996040518163ffffffff1660e01b815260040160206040518083038186803b158015612b6257600080fd5b505afa158015612b76573d6000803e3d6000fd5b505050506040513d601f19601f82011682018060405250810190612b9a91906149cf565b90506000866001600160a01b031663461413196040518163ffffffff1660e01b815260040160206040518083038186803b158015612bd757600080fd5b505afa158015612beb573d6000803e3d6000fd5b505050506040513d601f19601f82011682018060405250810190612c0f91906149cf565b90506000876001600160a01b0316633850c7bd6040518163ffffffff1660e01b815260040160e06040518083038186803b158015612c4c57600080fd5b505afa158015612c60573d6000803e3d6000fd5b505050506040513d601f19601f82011682018060405250810190612c849190614939565b5050505050915050600080612cb0612c9c8b8b613147565b612ca68c8b613147565b8b8b878a8a613213565b9150915060008989604051602001612cc992919061525f565b604051602081830303815290604052805190602001209050612d75612d248d6000016040518060800160405290816000820154815260200160018201548152602001600282015481526020016003820154815250508a612d85565b8d600801600084815260200190815260200160002060405180608001604052908160008201548152602001600182015481526020016002820154815260200160038201548152505085858a8a613290565b9c9b505050505050505050505050565b81516020830151600091908311612db457670de0b6b3a76400008460400151840281612dad57fe5b040161099d565b670de0b6b3a7640000846040015185602001510281612dcf57fe5b0481019050670de0b6b3a76400008460200151840385606001510281612df157fe5b04019392505050565b6000806000612e2386612e0c8761330f565b612e158761330f565b670de0b6b3a7640000613641565b915091506000612e3c8a886001600160a01b03166136dc565b90508915612e6857612e6183612e5b8484670de0b6b3a76400006137a4565b906137c3565b9350612e82565b612e7f82612e5b8584670de0b6b3a76400006137a4565b93505b612e9e670de0b6b3a7640000612e98868b61381d565b90613876565b9350612ed2612ecb670de0b6b3a7640000612e988c612ec5612ec0878561381d565b6138dd565b9061381d565b85906137c3565b9a9950505050505050505050565b612ee8613c92565b60008460600151516001600160401b0381118015612f0557600080fd5b50604051908082528060200260200182016040528015612f3f57816020015b612f2c613d0e565b815260200190600190039081612f245790505b50905060005b85606001515181101561309e57600086606001518281518110612f6457fe5b6020908102919091018101518101516000818152888352604090819020815161012081018352815481526001820154600281810b810b810b9683019690965263010000008104860b860b860b82850152660100000000000090046001600160801b031660608083019190915294820154608080830191909152600383015460a0830152600483015460c0830152600583015460e08301526006909201546101008201528251918201909252928a015180519294509092918291908690811061302857fe5b602002602001015160000151151581526020018960600151858151811061304b57fe5b6020026020010151604001516001600160801b03168152602001826020015160020b8152602001826040015160020b81525084848151811061308957fe5b60209081029190910101525050600101612f45565b506040518060c001604052808781526020016130cc876020015186610100015161398190919063ffffffff16565b81526020016130ed876040015186610120015161398190919063ffffffff16565b815260200161310e87602001518661010001516139c590919063ffffffff16565b815260200161312f87604001518661012001516139c590919063ffffffff16565b81526020019190915295945050505050565b3b151590565b61314f613d35565b6000806000856001600160a01b031663f30dba93866040518263ffffffff1660e01b81526004016131809190615411565b6101006040518083038186803b15801561319957600080fd5b505afa1580156131ad573d6000803e3d6000fd5b505050506040513d601f19601f820116820180604052508101906131d1919061488f565b9750505050945094505050806131f95760405162461bcd60e51b81526004016106d390615465565b506040805180820190915291825260208201529392505050565b6000806000808860020b8760020b12613234575050885160208a0151613244565b5050885160208a01519085039084035b6000808960020b8960020b1215613263575050895160208b0151613273565b5050895160208b01519087039086035b92909603959095039a949093039290920397509195505050505050565b600080600087604001518511156132c4578760400151850388600001518803670de0b6b3a764000002816132c057fe5b0491505b87606001518411156132f3578760600151840388602001518703670de0b6b3a764000002816132ef57fe5b0490505b671bc16d674ec800008282018a02049998505050505050505050565b60008060008360020b12613326578260020b61332e565b8260020b6000035b9050620d89e881111561336c576040805162461bcd60e51b81526020600482015260016024820152601560fa1b604482015290519081900360640190fd5b60006001821661338057600160801b613392565b6ffffcb933bd6fad37aa2d162d1a5940015b70ffffffffffffffffffffffffffffffffff16905060028216156133c6576ffff97272373d413259a46990580e213a0260801c5b60048216156133e5576ffff2e50f5f656932ef12357cf3c7fdcc0260801c5b6008821615613404576fffe5caca7e10e4e61c3624eaa0941cd00260801c5b6010821615613423576fffcb9843d60f6159c9db58835c9266440260801c5b6020821615613442576fff973b41fa98c081472e6896dfb254c00260801c5b6040821615613461576fff2ea16466c96a3843ec78b326b528610260801c5b6080821615613480576ffe5dee046a99a2a811c461f1969c30530260801c5b6101008216156134a0576ffcbe86c7900a88aedcffc83b479aa3a40260801c5b6102008216156134c0576ff987a7253ac413176f2b074cf7815e540260801c5b6104008216156134e0576ff3392b0822b70005940c7a398e4b70f30260801c5b610800821615613500576fe7159475a2c29b7443b29c7fa6e889d90260801c5b611000821615613520576fd097f3bdfd2022b8845ad8f792aa58250260801c5b612000821615613540576fa9f746462d870fdf8a65dc1f90e061e50260801c5b614000821615613560576f70d869a156d2a1b890bb3df62baf32f70260801c5b618000821615613580576f31be135f97d08fd981231505542fcfa60260801c5b620100008216156135a1576f09aa508b5b7a84e1c677de54f3e99bc90260801c5b620200008216156135c1576e5d6af8dedb81196699c329225ee6040260801c5b620400008216156135e0576d2216e584f5fa1ea926041bedfe980260801c5b620800008216156135fd576b048a170391f7dc42444e8fa20260801c5b60008460020b131561361857806000198161361457fe5b0490505b64010000000081061561362c57600161362f565b60005b60ff16602082901c0192505050919050565b600080836001600160a01b0316856001600160a01b03161115613662579293925b846001600160a01b0316866001600160a01b03161161368d57613686858585613a02565b91506115ee565b836001600160a01b0316866001600160a01b031610156136c6576136b2868585613a02565b91506136bf858785613a6b565b90506115ee565b6136d1858585613a6b565b905094509492505050565b6000670de0b6b3a7640000831561374457613705838483600160c01b816136ff57fe5b04613aaa565b915081613724576ec097ce7bc90715b34b9f1000000000915050610861565b816ec097ce7bc90715b34b9f10000000008161373c57fe5b049150613765565b600160601b816137598586600160601b613aaa565b028161376157fe5b0491505b6ec097ce7bc90715b34b9f1000000000821115613793576ec097ce7bc90715b34b9f1000000000915061379d565b8161379d57600191505b5092915050565b8282028115158415858304851417166137bc57600080fd5b0492915050565b60008282018381101561099d576040805162461bcd60e51b815260206004820152601b60248201527f536166654d6174683a206164646974696f6e206f766572666c6f770000000000604482015290519081900360640190fd5b60008261382c57506000610861565b8282028284828161383957fe5b041461099d5760405162461bcd60e51b8152600401808060200182810382526021815260200180615bfe6021913960400191505060405180910390fd5b60008082116138cc576040805162461bcd60e51b815260206004820152601a60248201527f536166654d6174683a206469766973696f6e206279207a65726f000000000000604482015290519081900360640190fd5b8183816138d557fe5b049392505050565b60b581600160881b81106138f65760409190911b9060801c5b690100000000000000000081106139125760209190911b9060401c5b65010000000000811061392a5760109190911b9060201c5b630100000081106139405760089190911b9060101c5b62010000010260121c80820401600190811c80830401811c80830401811c80830401811c80830401811c80830401811c80830401901c908190048111900390565b600060018251600281111561399257fe5b14156139ba576139b382602001518460800151670de0b6b3a76400006137a4565b9050610861565b506020810151610861565b60006001825160028111156139d657fe5b14156139f7576139b382604001518460a00151670de0b6b3a76400006137a4565b506040810151610861565b6000826001600160a01b0316846001600160a01b03161115613a22579192915b836001600160a01b0316613a5b606060ff16846001600160801b0316901b8686036001600160a01b0316866001600160a01b0316613aaa565b81613a6257fe5b04949350505050565b6000826001600160a01b0316846001600160a01b03161115613a8b579192915b6127c1826001600160801b03168585036001600160a01b0316600160601b5b6000808060001985870986860292508281109083900303905080613ae05760008411613ad557600080fd5b50829004905061099d565b808411613aec57600080fd5b6000848688096000868103871696879004966002600389028118808a02820302808a02820302808a02820302808a02820302808a02820302808a02909103029181900381900460010186841190950394909402919094039290920491909117919091029150509392505050565b60405180610120016040528060008152602001600060020b8152602001600060020b815260200160006001600160801b0316815260200160008152602001600081526020016000815260200160008152602001600081525090565b604051806080016040528060008152602001613bce613d4f565b8152602001613bdb613d4f565b8152602001606081525090565b6040518060800160405280600081526020016000815260200160008152602001606081525090565b6040518060e00160405280600081526020016000815260200160008152602001600081526020016000815260200160008152602001606081525090565b60405180610100016040528060008152602001600081526020016000815260200160008152602001600081526020016000815260200160008152602001600081525090565b6040518060c001604052806000815260200160008152602001600081526020016000815260200160008152602001606081525090565b604080516101008101909152806000815260006020820181905260408201819052606082018190526080820181905260a0820181905260c0820181905260e09091015290565b60408051608081018252600080825260208201819052918101829052606081019190915290565b604051806040016040528060008152602001600081525090565b6040805160a081019091528060008152602001600081526020016000815260200160008152602001600081525090565b80356104d781615b7b565b600082601f830112613d9a578081fd5b81356020613daf613daa83615b52565b615b2f565b82815281810190858301608080860288018501891015613dcd578687fd5b865b86811015613e5e5781838b031215613de5578788fd5b604080518381018181106001600160401b0382111715613e0157fe5b82528435613e0e81615b90565b815284880135613e1d81615bba565b8189015284820135613e2e81615bab565b8083830152506060915081850135613e4581615bab565b9181019190915285529385019391810191600101613dcf565b509198975050505050505050565b600082601f830112613e7c578081fd5b81516020613e8c613daa83615b52565b82815281810190858301608080860288018501891015613eaa578687fd5b865b86811015613e5e5781838b031215613ec2578788fd5b604080518381018181106001600160401b0382111715613ede57fe5b82528451613eeb81615b90565b815284880151613efa81615bba565b8189015284820151613f0b81615bab565b8083830152506060915081850151613f2281615bab565b9181019190915285529385019391810191600101613eac565b600082601f830112613f4b578081fd5b81516020613f5b613daa83615b52565b8281528181019085830161010080860288018501891015613f7a578687fd5b865b86811015613e5e5781838b031215613f92578788fd5b604080518381018181106001600160401b0382111715613fae57fe5b8252613fb9856141b8565b81528785015188820152613fce82860161413e565b8282015260609150613fe1828601614499565b8282015260809150613ff48286016141ce565b8282015260a091506140078286016141ce565b9181019190915260c0848101519082015260e0808501519082015285529385019391810191600101613f7c565b600082601f830112614044578081fd5b81516020614054613daa83615b52565b828152818101908583016101e080860288018501891015614073578687fd5b865b86811015613e5e57828a038281121561408c578889fd5b60408051608081016001600160401b0382821081831117156140aa57fe5b81845260608512156140ba578c8dfd5b60e08301945081851081861117156140ce57fe5b50838352865181528987015160a08301528683015160c083015281526140f78d60608801614390565b898201526141088d60e08801614390565b8282015261411a8d6101608801614390565b6060820152875250509385019391810191600101614075565b80356104d781615b90565b80516104d781615b90565b600082601f830112614159578081fd5b81356001600160401b0381111561416c57fe5b61417f601f8201601f1916602001615b2f565b818152846020838601011115614193578283fd5b816020850160208301379081016020019190915292915050565b80356104d781615b9e565b80516104d781615b9e565b80356104d781615bab565b80516104d781615bab565b600060a082840312156141ea578081fd5b60405160a081018181106001600160401b038211171561420657fe5b80604052508091508235815260208301356020820152604083013560408201526060830135606082015261423c608084016144b6565b60808201525092915050565b600060808284031215614259578081fd5b604051608081018181106001600160401b038211171561427557fe5b8060405250809150823581526020830135602082015260408301356040820152606083013560608201525092915050565b6000606082840312156142b7578081fd5b604051606081018181106001600160401b03821117156142d357fe5b806040525080915082358152602083013560208201526142f5604084016144b6565b60408201525092915050565b600060c08284031215614312578081fd5b60405160c081016001600160401b03828210818311171561432f57fe5b81604052829350843583526020850135602084015260408501356040840152606085013560608401526080850135608084015260a085013591508082111561437657600080fd5b5061438385828601613d8a565b60a0830152505092915050565b6000608082840312156143a1578081fd5b604051608081018181106001600160401b03821117156143bd57fe5b8060405250809150825181526020830151602082015260408301516040820152606083015160608201525092915050565b600060e082840312156143ff578081fd5b61440960e0615b2f565b905061441482614133565b815261442260208301614133565b602082015261443360408301614133565b604082015261444460608301614133565b60608201526080820135608082015260a082013560a082015260c08201356001600160401b0381111561447657600080fd5b61448284828501614149565b60c08301525092915050565b80356104d781615bba565b80516104d781615bba565b805161ffff811681146104d757600080fd5b803562ffffff811681146104d757600080fd5b6000602082840312156144da578081fd5b813561099d81615b7b565b6000602082840312156144f6578081fd5b815161099d81615b7b565b60006020808385031215614513578182fd5b82356001600160401b03811115614528578283fd5b8301601f81018513614538578283fd5b8035614546613daa82615b52565b81815283810190838501865b8481101561457b576145698a888435890101614149565b84529286019290860190600101614552565b509098975050505050505050565b60006020828403121561459a578081fd5b81516001600160401b038111156145af578182fd5b6127c184828501613f3b565b6000602082840312156145cc578081fd5b815161099d81615b90565b6000602082840312156145e8578081fd5b5035919050565b60008060408385031215614601578081fd5b50508035926020909101359150565b60008060408385031215614622578182fd5b505080516020909101519092909150565b600060808284031215614644578081fd5b61099d8383614248565b6000806101008385031215614661578182fd5b61466b8484614248565b915061467a8460808501614248565b90509250929050565b600080600080600085870361010081121561469c578182fd5b60808112156146a9578182fd5b50604051608081018181106001600160401b03821117156146c657fe5b6040526146d2876144b6565b815260208701356146e281615b7b565b602082015260408701356146f581615b7b565b6040820152606087013561470881615b90565b6060820152945061471b60808701613d7f565b935061472960a08701613d7f565b925061473760c08701613d7f565b915061474560e08701613d7f565b90509295509295909350565b600060208284031215614762578081fd5b81516001600160401b0380821115614778578283fd5b9083019060e0828603121561478b578283fd5b61479560e0615b2f565b825181526020830151602082015260408301516040820152606083015160608201526080830151608082015260a083015160a082015260c0830151828111156147dc578485fd5b6147e887828601613e6c565b60c08301525095945050505050565b600060208284031215614808578081fd5b81516001600160401b038082111561481e578283fd5b9083019060808286031215614831578283fd5b60405160808101818110838211171561484657fe5b8060405250825181526020830151602082015260408301516040820152606083015182811115614874578485fd5b61488087828601614034565b60608301525095945050505050565b600080600080600080600080610100898b0312156148ab578586fd5b88516148b681615bba565b80985050602089015180600f0b81146148cd578687fd5b80975050604089015195506060890151945060808901518060060b81146148f2578384fd5b60a08a015190945061490381615b7b565b60c08a015190935063ffffffff8116811461491c578283fd5b915061492a60e08a0161413e565b90509295985092959890939650565b600080600080600080600060e0888a031215614953578081fd5b875161495e81615b7b565b602089015190975061496f81615bab565b955061497d604089016144a4565b945061498b606089016144a4565b9350614999608089016144a4565b925060a088015160ff811681146149ae578182fd5b60c08901519092506149bf81615b90565b8091505092959891949750929550565b6000602082840312156149e0578081fd5b5051919050565b600080604083850312156149f9578182fd5b8251915060208301516001600160401b03811115614a15578182fd5b614a2185828601613f3b565b9150509250929050565b60008060006060808587031215614a40578182fd5b843593506020808601356001600160401b0380821115614a5e578485fd5b818801915088601f830112614a71578485fd5b8135614a7f613daa82615b52565b81815284810190848601610100808502870188018e1015614a9e57898afd5b8996505b84871015614b535780828f031215614ab857898afd5b604080518281018181108982111715614acd57fe5b8252614ad8846141ad565b8152898401358a820152614aed828501614133565b82820152614afc8b850161448e565b8b82015260809150614b0f8285016141c3565b8282015260a09150614b228285016141c3565b9181019190915260c0838101359082015260e080840135908201528452600196909601959287019290810190614aa2565b509098505050506040880135935080841115614b6d578485fd5b505050614b7c868287016143ee565b9150509250925092565b6000806000806101008587031215614b9c578182fd5b843593506020808601356001600160401b0380821115614bba578485fd5b818801915088601f830112614bcd578485fd5b8135614bdb613daa82615b52565b81815284810190848601885b84811015614c1057614bfe8e8984358a0101614301565b84529287019290870190600101614be7565b509098505050506040880135925080831115614c2a578485fd5b5050614c38878288016143ee565b925050614c4886606087016141d9565b905092959194509250565b60008060808385031215614c65578182fd5b8235915061467a84602085016142a6565b60008060008060c08587031215614c8b578182fd5b8435935060208501356001600160401b0380821115614ca8578384fd5b614cb488838901614301565b94506040870135915080821115614cc9578384fd5b50614cd6878288016143ee565b925050614c4886606087016142a6565b600080600060e08486031215614cfa578081fd5b8335925060208401356001600160401b03811115614d16578182fd5b614d22868287016143ee565b925050614d3285604086016141d9565b90509250925092565b60008060408385031215614601578182fd5b6000806000806101008587031215614d63578182fd5b843593506020850135925060408501356001600160401b03811115614d86578283fd5b614c38878288016143ee565b6001600160a01b03169052565b6000815180845260208085019450808401835b83811015614dd857614dc5878351615025565b6080969096019590820190600101614db2565b509495945050505050565b6000815180845260208085019450808401835b83811015614dd85781518051600d8110614e0c57fe5b88528084015184890152604080820151151590890152606080820151614e34828b0182615249565b5050608080820151614e48828b0182614ed6565b505060a080820151614e5c828b0182614ed6565b505060c0818101519089015260e090810151908801526101009096019590820190600101614df6565b15159052565b60008151808452815b81811015614eb057602081850181015186830182015201614e94565b81811115614ec15782602083870101525b50601f01601f19169290920160200192915050565b60020b9052565b805160038110614ee957fe5b8252602081810151908301526040808201519083015260608082015190830152608090810151910152565b614f2782614f228354615b6f565b614d92565b60018101546001600160a01b03614f4360208501828416614d92565b614f586040850162ffffff8460a01c16615256565b614f656002840154615b6f565b9150614f746060850183614d92565b614f816003840154615b6f565b9150614f906080850183614d92565b60048301549150614fa660a08501828416614d92565b50614fba60c0840160ff8360a01c16614e85565b50600581015460e0830152614fd6610100830160068301615130565b614fe76102008301600e8301615130565b60168101546103008301526017015461032090910152565b805182526020810151602083015260408101516040830152606081015160608301525050565b8051151582526001600160801b036020820151166020830152604081015160020b6040830152606081015160020b60608301525050565b600060c08301825184526020808401518186015260408401516040860152606084015160608601526080808501518187015260a085015160c060a088015283815180865260e08901915084830195508692505b808310156150d6576150c2828751615025565b9484019460019290920191908301906150af565b50979650505050505050565b805182526020810151602083015260408101516040830152606081015160608301526080810151608083015260a081015160a083015260c081015160c083015260e081015160e08301525050565b8054825260018101546020830152600281015460408301526003810154606083015260048101546080830152600581015460a0830152600681015460c08301526007015460e090910152565b60006080830182518452602080840151818601526040840151604086015260608401516080606087015282815180855260a08801915083830194508592505b808310156151db57845182529383019360019290920191908301906151bb565b509695505050505050565b6000608083018254845260018084015460208181880152600286015460408801526003860191506080606088015283825480865260a08901915083875282872095508693505b808410156150d6578554825294840194928401929082019061522c565b6001600160801b03169052565b62ffffff169052565b600292830b60e890811b82529190920b901b600382015260060190565b6001600160a01b0391909116815260200190565b6001600160a01b03929092168252602082015260400190565b60208082528251828201819052600091906040908185019080840286018301878501865b8381101561457b57888303603f1901855281518051845287810151888501528681015187850152606080820151908501526080808201519085015260a09081015160c09185018290529061532381860183614d9f565b9689019694505050908601906001016152cd565b600060c0820160c0835280895180835260e0850191506020925060e0838202860101838c01855b8381101561538c5760df1988840301855261537a83835161505c565b9486019492509085019060010161535e565b50508094505050506153a081840189614e85565b506153ae6040830187615256565b8460608301528360808301526153c760a0830184614d92565b979650505050505050565b901515815260200190565b951515865260208601949094526001600160a01b03928316604086015291166060840152608083015260a082015260c00190565b60029190910b815260200190565b918252602082015260400190565b602080825260029082015261503360f01b604082015260600190565b6020808252600290820152610a0760f31b604082015260600190565b6020808252600b908201526a1a5b9a5d1a585b1a5e995960aa1b604082015260600190565b60208082526017908201527f63616c6c6572206d757374206265206f70657261746f72000000000000000000604082015260600190565b60208082526003908201526221a41960e91b604082015260600190565b602080825260029082015261281960f11b604082015260600190565b928352815460208401526001820154604084015260028201546060840152600390910154608083015260a082015260c00190565b60006103a061553d8388614f14565b806103408401526155508184018761517c565b6103608401959095525050610380015292915050565b61010081016155758285614fff565b61099d6080830184614fff565b60006101208201905082518252602083015160020b6020830152604083015160020b604083015260608301516155bb6060840182615249565b506080830151608083015260a083015160a083015260c083015160c083015260e083015160e083015261010080840151818401525092915050565b60006020825282516020830152602083015160408301526040830151606083015260608301516080830152608083015160a083015260a083015160c083015260c083015160e0808401526127c1610100840182614d9f565b600060808252615661608083018761505c565b94151560208301525062ffffff9290921660408301526001600160a01b0316606090910152919050565b600060208083526101a083018451828501528185015160406156af81870183614edd565b8087015191506156c260e0870183614edd565b6060878101516101808881015280519485905285019390925085906101c08801905b8083101561573f5785518051151583528781015188840152848101516001600160801b03168584015285810151868401526080808201519084015260a09081015190830152948601946001929092019160c0909101906156e4565b5098975050505050505050565b610200810161575b82856150e2565b61099d6101008301846150e2565b6020808252825182820152828101516040808401919091528084015160608085019190915280850151608080860152805160a08601819052600094939184019285929160c08801905b8085101561573f578551805180518452888101518985015285015185840152878101516157e185850182614fff565b5080850151805160e0850152888101516101008501528086015161012085015284015161014084015283015161581b610160840182614fff565b506101e08201915086860195506001850194506157b2565b6000602080835260a0830184518285015281850151604085015260408501516060850152606085015160808086015281815180845260c08701915084830193508592505b808310156151db5783518252928401926001929092019190840190615877565b60006103a08083526158ab8184018861517c565b9150508460208301528360408301526124326060830184614f14565b600060e082526158da60e083018a61517c565b88602084015287604084015286606084015282810360808401526158fe8187614de3565b60a084019590955250506001600160a01b039190911660c09091015295945050505050565b60006103c08083526159378184018961517c565b9150508560208301528460408301526159536060830185614f14565b6001600160a01b03929092166103a09190910152949350505050565b60006103a0808352615983818401886151e6565b9150508460208301526159996040830185614f14565b8261038083015295945050505050565b600087825286602083015285604083015284606083015260c060808301526159d460c0830185614de3565b82810360a08401528351151581526020840151151560208201526040840151151560408201526060840151615a0c6060830182614e85565b506080840151608082015260a084015160a082015260c084015160e060c0830152612ed260e0830182614e8b565b600086825285602083015260a06040830152615a5960a0830186614de3565b606083019490945250608001529392505050565b600087825286602083015285604083015284606083015260c06080830152615a9860c0830185614de3565b90508260a0830152979650505050505050565b90815260200190565b9182526001600160a01b0316602082015260400190565b9283526020830191909152604082015260600190565b600086825285602083015284604083015260018060a01b038416606083015260a060808301526153c760a0830184614e8b565b93845260208401929092526040830152606082015260800190565b6040518181016001600160401b0381118282101715615b4a57fe5b604052919050565b60006001600160401b03821115615b6557fe5b5060209081020190565b6001600160a01b031690565b6001600160a01b0381168114611b5557600080fd5b8015158114611b5557600080fd5b600d8110611b5557600080fd5b8060020b8114611b5557600080fd5b6001600160801b0381168114611b5557600080fdfe496e697469616c697a61626c653a20636f6e747261637420697320616c726561647920696e697469616c697a6564536166654d6174683a206d756c7469706c69636174696f6e206f766572666c6f77a26469706673582212202b8ae95f6b83cfe1084b073399718b5eb3a89149de328ccf3df501028b94f92564736f6c63430007060033",
  "libraries": {
    "LiquidationLogic": "0xa472E7B6943e652234f1525B134f5f0D6502B6ce",
    "PositionUpdater": "0x83956e250060d50Fa66fb5183E2E4eBc10a50879",
    "VaultLib": "0x07bB00F0EE2a8b883359Ba589FBE0D88c1BFC8c1",
    "PositionLib": "0x76DC6BcF124120d27A105f638D1B1a8CfdBB46dE",
    "InterestCalculator": "0x786Bd1516c9ae5Bf54200f03E2e926f9BdB883B5"
  },
  "devdoc": {
    "kind": "dev",
    "methods": {
      "calculateYearlyPremium(bytes32,uint256)": {
        "params": {
          "_rangeId": "The id of the range",
          "_utilizationRatio": "Utilization ratio of LPT"
        }
      },
      "checkLiquidatable(uint256)": {
        "params": {
          "_vaultId": "vault id"
        },
        "returns": {
          "_0": "isLiquidatable true if the vault is liquidatable, false if the vault is safe."
        }
      },
      "closePosition(uint256,(uint256,uint256,uint256,uint256,uint256,(bool,uint128,int24,int24)[])[],(bool,bool,bool,bool,int256,int256,bytes),(uint256,uint256,uint256,uint256,uint24))": {
        "params": {
          "_closePositionOptions": "Option parameters to close position",
          "_positions": "Positions to close",
          "_tradeOption": "Trade parameters",
          "_vaultId": "The id of the vault"
        }
      },
      "closeSubVault(uint256,uint256,(bool,bool,bool,bool,int256,int256,bytes),(uint256,uint256,uint256,uint256,uint24))": {
        "params": {
          "_closePositionOptions": "Option parameters to close position",
          "_subVaultIndex": "The index of the sub-vault",
          "_tradeOption": "Trade parameters",
          "_vaultId": "The id of the vault"
        }
      },
      "closeVault(uint256,(bool,bool,bool,bool,int256,int256,bytes),(uint256,uint256,uint256,uint256,uint24))": {
        "params": {
          "_closePositionOptions": "Option parameters to close position",
          "_tradeOption": "Trade parameters",
          "_vaultId": "The id of the vault"
        }
      },
      "forceClose(bytes[])": {
        "params": {
          "_data": "Vaults data to close position"
        }
      },
      "getRange(bytes32)": {
        "params": {
          "_rangeId": "The id of the LPT"
        }
      },
      "getSubVault(uint256)": {
        "params": {
          "_subVaultId": "The id of the sub-vault"
        }
      },
      "getVault(uint256)": {
        "params": {
          "_vaultId": "The id of the vault"
        }
      },
      "getVaultStatus(uint256)": {
        "params": {
          "_vaultId": "The id of the vault"
        }
      },
      "liquidate(uint256,(uint256,uint256,uint24))": {
        "params": {
          "_liquidationOption": "option parameters for liquidation call",
          "_vaultId": "The id of the vault"
        }
      },
      "openPosition(uint256,(uint256,uint256,uint256,uint256,uint256,(bool,uint128,int24,int24)[]),(bool,bool,bool,bool,int256,int256,bytes),(uint256,uint256,uint24))": {
        "params": {
          "_openPositionOptions": "Option parameters to open position",
          "_position": "Position to open",
          "_tradeOption": "Trade parameters",
          "_vaultId": "The id of the vault. 0 means that it creates new vault."
        }
      },
      "setOperator(address)": {
        "details": "Only operator can call this function.",
        "params": {
          "_newOperator": "The address of new operator"
        }
      },
      "updateIRMParams((uint256,uint256,uint256,uint256))": {
        "details": "Only operator can call this function.",
        "params": {
          "_irmParams": "New interest rate model parameter"
        }
      },
      "updatePosition(uint256,(uint8,uint256,bool,uint128,int24,int24,uint256,uint256)[],(bool,bool,bool,bool,int256,int256,bytes))": {
        "params": {
          "_positionUpdates": "Operation list to update position",
          "_tradeOption": "trade parameters",
          "_vaultId": "The id of the vault. 0 means that it creates new vault."
        }
      },
      "updateYearlyPremiumParams((uint256,uint256,uint256,uint256),(uint256,uint256,uint256,uint256))": {
        "details": "Only operator can call this function.",
        "params": {
          "_irmParams": "New interest rate model parameter",
          "_premiumParams": "New interest rate model parameter for variance calculation"
        }
      },
      "withdrawProtocolFee(uint256,uint256)": {
        "details": "Only operator can call this function.",
        "params": {
          "_amount0": "amount of token0 to withdraw",
          "_amount1": "amount of token1 to withdraw"
        }
      }
    },
    "version": 1
  },
  "userdoc": {
    "kind": "user",
    "methods": {
      "calculateYearlyPremium(bytes32,uint256)": {
        "notice": "Returns yearly premium to borrow Liquidity Provider Token (LPT). The function can return yearly premium with specific utilization ratio."
      },
      "checkLiquidatable(uint256)": {
        "notice": "Returns the flag whether a vault can be liquidated or not."
      },
      "closePosition(uint256,(uint256,uint256,uint256,uint256,uint256,(bool,uint128,int24,int24)[])[],(bool,bool,bool,bool,int256,int256,bytes),(uint256,uint256,uint256,uint256,uint24))": {
        "notice": "Closes position partially."
      },
      "closeSubVault(uint256,uint256,(bool,bool,bool,bool,int256,int256,bytes),(uint256,uint256,uint256,uint256,uint24))": {
        "notice": "Closes all positions in sub-vault."
      },
      "closeVault(uint256,(bool,bool,bool,bool,int256,int256,bytes),(uint256,uint256,uint256,uint256,uint24))": {
        "notice": "Closes all positions in a vault."
      },
      "forceClose(bytes[])": {
        "notice": "Contract owner can close positions"
      },
      "getRange(bytes32)": {
        "notice": "Returns a Liquidity Provider Token (LPT) data"
      },
      "getSqrtPrice()": {
        "notice": "Gets square root of current underlying token price by quote token."
      },
      "getSubVault(uint256)": {
        "notice": "Returns a sub-vault data"
      },
      "getTokenState()": {
        "notice": "Returns the status of supplied tokens."
      },
      "getVault(uint256)": {
        "notice": "Returns a vault data"
      },
      "getVaultStatus(uint256)": {
        "notice": "Returns values and token amounts of the vault."
      },
      "liquidate(uint256,(uint256,uint256,uint24))": {
        "notice": "Liquidates a vault."
      },
      "openPosition(uint256,(uint256,uint256,uint256,uint256,uint256,(bool,uint128,int24,int24)[]),(bool,bool,bool,bool,int256,int256,bytes),(uint256,uint256,uint24))": {
        "notice": "Opens new position."
      },
      "setOperator(address)": {
        "notice": "Sets new operator"
      },
      "updateIRMParams((uint256,uint256,uint256,uint256))": {
        "notice": "Updates interest rate model parameter."
      },
      "updatePosition(uint256,(uint8,uint256,bool,uint128,int24,int24,uint256,uint256)[],(bool,bool,bool,bool,int256,int256,bytes))": {
        "notice": "Update position in a vault."
      },
      "updateYearlyPremiumParams((uint256,uint256,uint256,uint256),(uint256,uint256,uint256,uint256))": {
        "notice": "Updates interest rate model parameters for premium calculation."
      },
      "withdrawProtocolFee(uint256,uint256)": {
        "notice": "Withdraws accumulated protocol fee."
      }
    },
    "version": 1
  },
  "storageLayout": {
    "storage": [
      {
        "astId": 1070,
        "contract": "src/ControllerHelper.sol:ControllerHelper",
        "label": "_initialized",
        "offset": 0,
        "slot": "0",
        "type": "t_bool"
      },
      {
        "astId": 1073,
        "contract": "src/ControllerHelper.sol:ControllerHelper",
        "label": "_initializing",
        "offset": 1,
        "slot": "0",
        "type": "t_bool"
      },
      {
        "astId": 6623,
        "contract": "src/ControllerHelper.sol:ControllerHelper",
        "label": "lastTouchedTimestamp",
        "offset": 0,
        "slot": "1",
        "type": "t_uint256"
      },
      {
        "astId": 6627,
        "contract": "src/ControllerHelper.sol:ControllerHelper",
        "label": "ranges",
        "offset": 0,
        "slot": "2",
        "type": "t_mapping(t_bytes32,t_struct(PerpStatus)9357_storage)"
      },
      {
        "astId": 6631,
        "contract": "src/ControllerHelper.sol:ControllerHelper",
        "label": "vaults",
        "offset": 0,
        "slot": "3",
        "type": "t_mapping(t_uint256,t_struct(Vault)9390_storage)"
      },
      {
        "astId": 6635,
        "contract": "src/ControllerHelper.sol:ControllerHelper",
        "label": "subVaults",
        "offset": 0,
        "slot": "4",
        "type": "t_mapping(t_uint256,t_struct(SubVault)9380_storage)"
      },
      {
        "astId": 6637,
        "contract": "src/ControllerHelper.sol:ControllerHelper",
        "label": "context",
        "offset": 0,
        "slot": "5",
        "type": "t_struct(Context)9415_storage"
      },
      {
        "astId": 6639,
        "contract": "src/ControllerHelper.sol:ControllerHelper",
        "label": "irmParams",
        "offset": 0,
        "slot": "29",
        "type": "t_struct(IRMParams)9628_storage"
      },
      {
        "astId": 6641,
        "contract": "src/ControllerHelper.sol:ControllerHelper",
        "label": "ypParams",
        "offset": 0,
        "slot": "33",
        "type": "t_struct(YearlyPremiumParams)9619_storage"
      },
      {
        "astId": 6643,
        "contract": "src/ControllerHelper.sol:ControllerHelper",
        "label": "operator",
        "offset": 0,
        "slot": "42",
        "type": "t_address"
      },
      {
        "astId": 6645,
        "contract": "src/ControllerHelper.sol:ControllerHelper",
        "label": "vaultNFT",
        "offset": 0,
        "slot": "43",
        "type": "t_address"
      }
    ],
    "types": {
      "t_address": {
        "encoding": "inplace",
        "label": "address",
        "numberOfBytes": "20"
      },
      "t_array(t_struct(LPTState)9370_storage)dyn_storage": {
        "base": "t_struct(LPTState)9370_storage",
        "encoding": "dynamic_array",
        "label": "struct DataType.LPTState[]",
        "numberOfBytes": "32"
      },
      "t_array(t_uint256)dyn_storage": {
        "base": "t_uint256",
        "encoding": "dynamic_array",
        "label": "uint256[]",
        "numberOfBytes": "32"
      },
      "t_bool": {
        "encoding": "inplace",
        "label": "bool",
        "numberOfBytes": "1"
      },
      "t_bytes32": {
        "encoding": "inplace",
        "label": "bytes32",
        "numberOfBytes": "32"
      },
      "t_enum(InterestType)8341": {
        "encoding": "inplace",
        "label": "enum BaseToken.InterestType",
        "numberOfBytes": "1"
      },
      "t_int24": {
        "encoding": "inplace",
        "label": "int24",
        "numberOfBytes": "3"
      },
      "t_mapping(t_bytes32,t_struct(PerpStatus)9357_storage)": {
        "encoding": "mapping",
        "key": "t_bytes32",
        "label": "mapping(bytes32 => struct DataType.PerpStatus)",
        "numberOfBytes": "32",
        "value": "t_struct(PerpStatus)9357_storage"
      },
      "t_mapping(t_bytes32,t_struct(TickSnapshot)9605_storage)": {
        "encoding": "mapping",
        "key": "t_bytes32",
        "label": "mapping(bytes32 => struct InterestCalculator.TickSnapshot)",
        "numberOfBytes": "32",
        "value": "t_struct(TickSnapshot)9605_storage"
      },
      "t_mapping(t_uint256,t_struct(SubVault)9380_storage)": {
        "encoding": "mapping",
        "key": "t_uint256",
        "label": "mapping(uint256 => struct DataType.SubVault)",
        "numberOfBytes": "32",
        "value": "t_struct(SubVault)9380_storage"
      },
      "t_mapping(t_uint256,t_struct(Vault)9390_storage)": {
        "encoding": "mapping",
        "key": "t_uint256",
        "label": "mapping(uint256 => struct DataType.Vault)",
        "numberOfBytes": "32",
        "value": "t_struct(Vault)9390_storage"
      },
      "t_struct(AccountState)8369_storage": {
        "encoding": "inplace",
        "label": "struct BaseToken.AccountState",
        "members": [
          {
            "astId": 8360,
            "contract": "src/ControllerHelper.sol:ControllerHelper",
            "label": "interestType",
            "offset": 0,
            "slot": "0",
            "type": "t_enum(InterestType)8341"
          },
          {
            "astId": 8362,
            "contract": "src/ControllerHelper.sol:ControllerHelper",
            "label": "assetAmount",
            "offset": 0,
            "slot": "1",
            "type": "t_uint256"
          },
          {
            "astId": 8364,
            "contract": "src/ControllerHelper.sol:ControllerHelper",
            "label": "debtAmount",
            "offset": 0,
            "slot": "2",
            "type": "t_uint256"
          },
          {
            "astId": 8366,
            "contract": "src/ControllerHelper.sol:ControllerHelper",
            "label": "lastAssetGrowth",
            "offset": 0,
            "slot": "3",
            "type": "t_uint256"
          },
          {
            "astId": 8368,
            "contract": "src/ControllerHelper.sol:ControllerHelper",
            "label": "lastDebtGrowth",
            "offset": 0,
            "slot": "4",
            "type": "t_uint256"
          }
        ],
        "numberOfBytes": "160"
      },
      "t_struct(Context)9415_storage": {
        "encoding": "inplace",
        "label": "struct DataType.Context",
        "members": [
          {
            "astId": 9392,
            "contract": "src/ControllerHelper.sol:ControllerHelper",
            "label": "token0",
            "offset": 0,
            "slot": "0",
            "type": "t_address"
          },
          {
            "astId": 9394,
            "contract": "src/ControllerHelper.sol:ControllerHelper",
            "label": "token1",
            "offset": 0,
            "slot": "1",
            "type": "t_address"
          },
          {
            "astId": 9396,
            "contract": "src/ControllerHelper.sol:ControllerHelper",
            "label": "feeTier",
            "offset": 20,
            "slot": "1",
            "type": "t_uint24"
          },
          {
            "astId": 9398,
            "contract": "src/ControllerHelper.sol:ControllerHelper",
            "label": "positionManager",
            "offset": 0,
            "slot": "2",
            "type": "t_address"
          },
          {
            "astId": 9400,
            "contract": "src/ControllerHelper.sol:ControllerHelper",
            "label": "swapRouter",
            "offset": 0,
            "slot": "3",
            "type": "t_address"
          },
          {
            "astId": 9402,
            "contract": "src/ControllerHelper.sol:ControllerHelper",
            "label": "uniswapPool",
            "offset": 0,
            "slot": "4",
            "type": "t_address"
          },
          {
            "astId": 9404,
            "contract": "src/ControllerHelper.sol:ControllerHelper",
            "label": "isMarginZero",
            "offset": 20,
            "slot": "4",
            "type": "t_bool"
          },
          {
            "astId": 9406,
            "contract": "src/ControllerHelper.sol:ControllerHelper",
            "label": "nextSubVaultId",
            "offset": 0,
            "slot": "5",
            "type": "t_uint256"
          },
          {
            "astId": 9408,
            "contract": "src/ControllerHelper.sol:ControllerHelper",
            "label": "tokenState0",
            "offset": 0,
            "slot": "6",
            "type": "t_struct(TokenState)8358_storage"
          },
          {
            "astId": 9410,
            "contract": "src/ControllerHelper.sol:ControllerHelper",
            "label": "tokenState1",
            "offset": 0,
            "slot": "14",
            "type": "t_struct(TokenState)8358_storage"
          },
          {
            "astId": 9412,
            "contract": "src/ControllerHelper.sol:ControllerHelper",
            "label": "accumuratedProtocolFee0",
            "offset": 0,
            "slot": "22",
            "type": "t_uint256"
          },
          {
            "astId": 9414,
            "contract": "src/ControllerHelper.sol:ControllerHelper",
            "label": "accumuratedProtocolFee1",
            "offset": 0,
            "slot": "23",
            "type": "t_uint256"
          }
        ],
        "numberOfBytes": "768"
      },
      "t_struct(IRMParams)9628_storage": {
        "encoding": "inplace",
        "label": "struct InterestCalculator.IRMParams",
        "members": [
          {
            "astId": 9621,
            "contract": "src/ControllerHelper.sol:ControllerHelper",
            "label": "baseRate",
            "offset": 0,
            "slot": "0",
            "type": "t_uint256"
          },
          {
            "astId": 9623,
            "contract": "src/ControllerHelper.sol:ControllerHelper",
            "label": "kinkRate",
            "offset": 0,
            "slot": "1",
            "type": "t_uint256"
          },
          {
            "astId": 9625,
            "contract": "src/ControllerHelper.sol:ControllerHelper",
            "label": "slope1",
            "offset": 0,
            "slot": "2",
            "type": "t_uint256"
          },
          {
            "astId": 9627,
            "contract": "src/ControllerHelper.sol:ControllerHelper",
            "label": "slope2",
            "offset": 0,
            "slot": "3",
            "type": "t_uint256"
          }
        ],
        "numberOfBytes": "128"
      },
      "t_struct(LPTState)9370_storage": {
        "encoding": "inplace",
        "label": "struct DataType.LPTState",
        "members": [
          {
            "astId": 9359,
            "contract": "src/ControllerHelper.sol:ControllerHelper",
            "label": "isCollateral",
            "offset": 0,
            "slot": "0",
            "type": "t_bool"
          },
          {
            "astId": 9361,
            "contract": "src/ControllerHelper.sol:ControllerHelper",
            "label": "rangeId",
            "offset": 0,
            "slot": "1",
            "type": "t_bytes32"
          },
          {
            "astId": 9363,
            "contract": "src/ControllerHelper.sol:ControllerHelper",
            "label": "liquidityAmount",
            "offset": 0,
            "slot": "2",
            "type": "t_uint128"
          },
          {
            "astId": 9365,
            "contract": "src/ControllerHelper.sol:ControllerHelper",
            "label": "premiumGrowthLast",
            "offset": 0,
            "slot": "3",
            "type": "t_uint256"
          },
          {
            "astId": 9367,
            "contract": "src/ControllerHelper.sol:ControllerHelper",
            "label": "fee0Last",
            "offset": 0,
            "slot": "4",
            "type": "t_uint256"
          },
          {
            "astId": 9369,
            "contract": "src/ControllerHelper.sol:ControllerHelper",
            "label": "fee1Last",
            "offset": 0,
            "slot": "5",
            "type": "t_uint256"
          }
        ],
        "numberOfBytes": "192"
      },
      "t_struct(PerpStatus)9357_storage": {
        "encoding": "inplace",
        "label": "struct DataType.PerpStatus",
        "members": [
          {
            "astId": 9340,
            "contract": "src/ControllerHelper.sol:ControllerHelper",
            "label": "tokenId",
            "offset": 0,
            "slot": "0",
            "type": "t_uint256"
          },
          {
            "astId": 9342,
            "contract": "src/ControllerHelper.sol:ControllerHelper",
            "label": "lowerTick",
            "offset": 0,
            "slot": "1",
            "type": "t_int24"
          },
          {
            "astId": 9344,
            "contract": "src/ControllerHelper.sol:ControllerHelper",
            "label": "upperTick",
            "offset": 3,
            "slot": "1",
            "type": "t_int24"
          },
          {
            "astId": 9346,
            "contract": "src/ControllerHelper.sol:ControllerHelper",
            "label": "borrowedLiquidity",
            "offset": 6,
            "slot": "1",
            "type": "t_uint128"
          },
          {
            "astId": 9348,
            "contract": "src/ControllerHelper.sol:ControllerHelper",
            "label": "premiumGrowthForBorrower",
            "offset": 0,
            "slot": "2",
            "type": "t_uint256"
          },
          {
            "astId": 9350,
            "contract": "src/ControllerHelper.sol:ControllerHelper",
            "label": "premiumGrowthForLender",
            "offset": 0,
            "slot": "3",
            "type": "t_uint256"
          },
          {
            "astId": 9352,
            "contract": "src/ControllerHelper.sol:ControllerHelper",
            "label": "fee0Growth",
            "offset": 0,
            "slot": "4",
            "type": "t_uint256"
          },
          {
            "astId": 9354,
            "contract": "src/ControllerHelper.sol:ControllerHelper",
            "label": "fee1Growth",
            "offset": 0,
            "slot": "5",
            "type": "t_uint256"
          },
          {
            "astId": 9356,
            "contract": "src/ControllerHelper.sol:ControllerHelper",
            "label": "lastTouchedTimestamp",
            "offset": 0,
            "slot": "6",
            "type": "t_uint256"
          }
        ],
        "numberOfBytes": "224"
      },
      "t_struct(SubVault)9380_storage": {
        "encoding": "inplace",
        "label": "struct DataType.SubVault",
        "members": [
          {
            "astId": 9372,
            "contract": "src/ControllerHelper.sol:ControllerHelper",
            "label": "id",
            "offset": 0,
            "slot": "0",
            "type": "t_uint256"
          },
          {
            "astId": 9374,
            "contract": "src/ControllerHelper.sol:ControllerHelper",
            "label": "balance0",
            "offset": 0,
            "slot": "1",
            "type": "t_struct(AccountState)8369_storage"
          },
          {
            "astId": 9376,
            "contract": "src/ControllerHelper.sol:ControllerHelper",
            "label": "balance1",
            "offset": 0,
            "slot": "6",
            "type": "t_struct(AccountState)8369_storage"
          },
          {
            "astId": 9379,
            "contract": "src/ControllerHelper.sol:ControllerHelper",
            "label": "lpts",
            "offset": 0,
            "slot": "11",
            "type": "t_array(t_struct(LPTState)9370_storage)dyn_storage"
          }
        ],
        "numberOfBytes": "384"
      },
      "t_struct(TickSnapshot)9605_storage": {
        "encoding": "inplace",
        "label": "struct InterestCalculator.TickSnapshot",
        "members": [
          {
            "astId": 9598,
            "contract": "src/ControllerHelper.sol:ControllerHelper",
            "label": "lastFeeGrowthInside0X128",
            "offset": 0,
            "slot": "0",
            "type": "t_uint256"
          },
          {
            "astId": 9600,
            "contract": "src/ControllerHelper.sol:ControllerHelper",
            "label": "lastFeeGrowthInside1X128",
            "offset": 0,
            "slot": "1",
            "type": "t_uint256"
          },
          {
            "astId": 9602,
            "contract": "src/ControllerHelper.sol:ControllerHelper",
            "label": "lastFeeGrowthGlobal0X128",
            "offset": 0,
            "slot": "2",
            "type": "t_uint256"
          },
          {
            "astId": 9604,
            "contract": "src/ControllerHelper.sol:ControllerHelper",
            "label": "lastFeeGrowthGlobal1X128",
            "offset": 0,
            "slot": "3",
            "type": "t_uint256"
          }
        ],
        "numberOfBytes": "128"
      },
      "t_struct(TokenState)8358_storage": {
        "encoding": "inplace",
        "label": "struct BaseToken.TokenState",
        "members": [
          {
            "astId": 8343,
            "contract": "src/ControllerHelper.sol:ControllerHelper",
            "label": "totalCompoundDeposited",
            "offset": 0,
            "slot": "0",
            "type": "t_uint256"
          },
          {
            "astId": 8345,
            "contract": "src/ControllerHelper.sol:ControllerHelper",
            "label": "totalCompoundBorrowed",
            "offset": 0,
            "slot": "1",
            "type": "t_uint256"
          },
          {
            "astId": 8347,
            "contract": "src/ControllerHelper.sol:ControllerHelper",
            "label": "totalNormalDeposited",
            "offset": 0,
            "slot": "2",
            "type": "t_uint256"
          },
          {
            "astId": 8349,
            "contract": "src/ControllerHelper.sol:ControllerHelper",
            "label": "totalNormalBorrowed",
            "offset": 0,
            "slot": "3",
            "type": "t_uint256"
          },
          {
            "astId": 8351,
            "contract": "src/ControllerHelper.sol:ControllerHelper",
            "label": "assetScaler",
            "offset": 0,
            "slot": "4",
            "type": "t_uint256"
          },
          {
            "astId": 8353,
            "contract": "src/ControllerHelper.sol:ControllerHelper",
            "label": "debtScaler",
            "offset": 0,
            "slot": "5",
            "type": "t_uint256"
          },
          {
            "astId": 8355,
            "contract": "src/ControllerHelper.sol:ControllerHelper",
            "label": "assetGrowth",
            "offset": 0,
            "slot": "6",
            "type": "t_uint256"
          },
          {
            "astId": 8357,
            "contract": "src/ControllerHelper.sol:ControllerHelper",
            "label": "debtGrowth",
            "offset": 0,
            "slot": "7",
            "type": "t_uint256"
          }
        ],
        "numberOfBytes": "256"
      },
      "t_struct(Vault)9390_storage": {
        "encoding": "inplace",
        "label": "struct DataType.Vault",
        "members": [
          {
            "astId": 9382,
            "contract": "src/ControllerHelper.sol:ControllerHelper",
            "label": "vaultId",
            "offset": 0,
            "slot": "0",
            "type": "t_uint256"
          },
          {
            "astId": 9384,
            "contract": "src/ControllerHelper.sol:ControllerHelper",
            "label": "marginAmount0",
            "offset": 0,
            "slot": "1",
            "type": "t_uint256"
          },
          {
            "astId": 9386,
            "contract": "src/ControllerHelper.sol:ControllerHelper",
            "label": "marginAmount1",
            "offset": 0,
            "slot": "2",
            "type": "t_uint256"
          },
          {
            "astId": 9389,
            "contract": "src/ControllerHelper.sol:ControllerHelper",
            "label": "subVaults",
            "offset": 0,
            "slot": "3",
            "type": "t_array(t_uint256)dyn_storage"
          }
        ],
        "numberOfBytes": "128"
      },
      "t_struct(YearlyPremiumParams)9619_storage": {
        "encoding": "inplace",
        "label": "struct InterestCalculator.YearlyPremiumParams",
        "members": [
          {
            "astId": 9612,
            "contract": "src/ControllerHelper.sol:ControllerHelper",
            "label": "premiumParams",
            "offset": 0,
            "slot": "0",
            "type": "t_struct(IRMParams)9628_storage"
          },
          {
            "astId": 9614,
            "contract": "src/ControllerHelper.sol:ControllerHelper",
            "label": "irmParams",
            "offset": 0,
            "slot": "4",
            "type": "t_struct(IRMParams)9628_storage"
          },
          {
            "astId": 9618,
            "contract": "src/ControllerHelper.sol:ControllerHelper",
            "label": "snapshots",
            "offset": 0,
            "slot": "8",
            "type": "t_mapping(t_bytes32,t_struct(TickSnapshot)9605_storage)"
          }
        ],
        "numberOfBytes": "288"
      },
      "t_uint128": {
        "encoding": "inplace",
        "label": "uint128",
        "numberOfBytes": "16"
      },
      "t_uint24": {
        "encoding": "inplace",
        "label": "uint24",
        "numberOfBytes": "3"
      },
      "t_uint256": {
        "encoding": "inplace",
        "label": "uint256",
        "numberOfBytes": "32"
      }
    }
  }
}