{
  "address": "0x927BD5800fc9C4fA5008308396e7633AEA6d1d58",
  "abi": [
    {
      "inputs": [
        {
          "internalType": "address",
          "name": "_controller",
          "type": "address"
        },
        {
          "internalType": "address",
          "name": "_reader",
          "type": "address"
        },
        {
          "internalType": "address",
          "name": "_usdc",
          "type": "address"
        },
        {
          "internalType": "address",
          "name": "_vaultNFT",
          "type": "address"
        }
      ],
      "stateMutability": "nonpayable",
      "type": "constructor"
    },
    {
      "anonymous": false,
      "inputs": [
        {
          "indexed": true,
          "internalType": "address",
          "name": "owner",
          "type": "address"
        },
        {
          "indexed": true,
          "internalType": "address",
          "name": "spender",
          "type": "address"
        },
        {
          "indexed": false,
          "internalType": "uint256",
          "name": "value",
          "type": "uint256"
        }
      ],
      "name": "Approval",
      "type": "event"
    },
    {
      "anonymous": false,
      "inputs": [
        {
          "indexed": true,
          "internalType": "uint256",
          "name": "vaultId",
          "type": "uint256"
        },
        {
          "indexed": false,
          "internalType": "address",
          "name": "liquidator",
          "type": "address"
        },
        {
          "indexed": false,
          "internalType": "int256",
          "name": "tradeAmount",
          "type": "int256"
        },
        {
          "indexed": false,
          "internalType": "uint256",
          "name": "tradePrice",
          "type": "uint256"
        },
        {
          "indexed": false,
          "internalType": "int256",
          "name": "fundingFeePerPosition",
          "type": "int256"
        },
        {
          "indexed": false,
          "internalType": "int256",
          "name": "deltaUsdcPosition",
          "type": "int256"
        },
        {
          "indexed": false,
          "internalType": "uint256",
          "name": "liquidationPenalty",
          "type": "uint256"
        }
      ],
      "name": "Liquidated",
      "type": "event"
    },
    {
      "anonymous": false,
      "inputs": [
        {
          "indexed": true,
          "internalType": "uint256",
          "name": "vaultId",
          "type": "uint256"
        },
        {
          "indexed": false,
          "internalType": "address",
          "name": "trader",
          "type": "address"
        },
        {
          "indexed": false,
          "internalType": "int256",
          "name": "marginAmount",
          "type": "int256"
        }
      ],
      "name": "MarginUpdated",
      "type": "event"
    },
    {
      "anonymous": false,
      "inputs": [
        {
          "indexed": true,
          "internalType": "address",
          "name": "previousOwner",
          "type": "address"
        },
        {
          "indexed": true,
          "internalType": "address",
          "name": "newOwner",
          "type": "address"
        }
      ],
      "name": "OwnershipTransferred",
      "type": "event"
    },
    {
      "anonymous": false,
      "inputs": [
        {
          "indexed": true,
          "internalType": "uint256",
          "name": "vaultId",
          "type": "uint256"
        },
        {
          "indexed": false,
          "internalType": "address",
          "name": "trader",
          "type": "address"
        },
        {
          "indexed": false,
          "internalType": "int256",
          "name": "tradeAmount",
          "type": "int256"
        },
        {
          "indexed": false,
          "internalType": "uint256",
          "name": "tradePrice",
          "type": "uint256"
        },
        {
          "indexed": false,
          "internalType": "int256",
          "name": "fundingFeePerPosition",
          "type": "int256"
        },
        {
          "indexed": false,
          "internalType": "int256",
          "name": "deltaUsdcPosition",
          "type": "int256"
        }
      ],
      "name": "PositionUpdated",
      "type": "event"
    },
    {
      "anonymous": false,
      "inputs": [
        {
          "indexed": true,
          "internalType": "address",
          "name": "from",
          "type": "address"
        },
        {
          "indexed": true,
          "internalType": "address",
          "name": "to",
          "type": "address"
        },
        {
          "indexed": false,
          "internalType": "uint256",
          "name": "value",
          "type": "uint256"
        }
      ],
      "name": "Transfer",
      "type": "event"
    },
    {
      "inputs": [
        {
          "internalType": "address",
          "name": "owner",
          "type": "address"
        },
        {
          "internalType": "address",
          "name": "spender",
          "type": "address"
        }
      ],
      "name": "allowance",
      "outputs": [
        {
          "internalType": "uint256",
          "name": "",
          "type": "uint256"
        }
      ],
      "stateMutability": "view",
      "type": "function"
    },
    {
      "inputs": [
        {
          "internalType": "address",
          "name": "spender",
          "type": "address"
        },
        {
          "internalType": "uint256",
          "name": "amount",
          "type": "uint256"
        }
      ],
      "name": "approve",
      "outputs": [
        {
          "internalType": "bool",
          "name": "",
          "type": "bool"
        }
      ],
      "stateMutability": "nonpayable",
      "type": "function"
    },
    {
      "inputs": [
        {
          "internalType": "address",
          "name": "account",
          "type": "address"
        }
      ],
      "name": "balanceOf",
      "outputs": [
        {
          "internalType": "uint256",
          "name": "",
          "type": "uint256"
        }
      ],
      "stateMutability": "view",
      "type": "function"
    },
    {
      "inputs": [],
      "name": "decimals",
      "outputs": [
        {
          "internalType": "uint8",
          "name": "",
          "type": "uint8"
        }
      ],
      "stateMutability": "view",
      "type": "function"
    },
    {
      "inputs": [
        {
          "internalType": "address",
          "name": "spender",
          "type": "address"
        },
        {
          "internalType": "uint256",
          "name": "subtractedValue",
          "type": "uint256"
        }
      ],
      "name": "decreaseAllowance",
      "outputs": [
        {
          "internalType": "bool",
          "name": "",
          "type": "bool"
        }
      ],
      "stateMutability": "nonpayable",
      "type": "function"
    },
    {
      "inputs": [
        {
          "internalType": "uint256",
          "name": "_amount",
          "type": "uint256"
        }
      ],
      "name": "deposit",
      "outputs": [
        {
          "internalType": "uint256",
          "name": "mintAmount",
          "type": "uint256"
        }
      ],
      "stateMutability": "nonpayable",
      "type": "function"
    },
    {
      "inputs": [],
      "name": "futureVaultCount",
      "outputs": [
        {
          "internalType": "uint256",
          "name": "",
          "type": "uint256"
        }
      ],
      "stateMutability": "view",
      "type": "function"
    },
    {
      "inputs": [],
      "name": "getLPTokenPrice",
      "outputs": [
        {
          "internalType": "uint256",
          "name": "",
          "type": "uint256"
        }
      ],
      "stateMutability": "view",
      "type": "function"
    },
    {
      "inputs": [
        {
          "internalType": "address",
          "name": "spender",
          "type": "address"
        },
        {
          "internalType": "uint256",
          "name": "addedValue",
          "type": "uint256"
        }
      ],
      "name": "increaseAllowance",
      "outputs": [
        {
          "internalType": "bool",
          "name": "",
          "type": "bool"
        }
      ],
      "stateMutability": "nonpayable",
      "type": "function"
    },
    {
      "inputs": [
        {
          "internalType": "uint256",
          "name": "_vaultId",
          "type": "uint256"
        }
      ],
      "name": "liquidationCall",
      "outputs": [],
      "stateMutability": "nonpayable",
      "type": "function"
    },
    {
      "inputs": [],
      "name": "name",
      "outputs": [
        {
          "internalType": "string",
          "name": "",
          "type": "string"
        }
      ],
      "stateMutability": "view",
      "type": "function"
    },
    {
      "inputs": [
        {
          "internalType": "address",
          "name": "operator",
          "type": "address"
        },
        {
          "internalType": "address",
          "name": "from",
          "type": "address"
        },
        {
          "internalType": "uint256",
          "name": "tokenId",
          "type": "uint256"
        },
        {
          "internalType": "bytes",
          "name": "data",
          "type": "bytes"
        }
      ],
      "name": "onERC721Received",
      "outputs": [
        {
          "internalType": "bytes4",
          "name": "",
          "type": "bytes4"
        }
      ],
      "stateMutability": "nonpayable",
      "type": "function"
    },
    {
      "inputs": [],
      "name": "owner",
      "outputs": [
        {
          "internalType": "address",
          "name": "",
          "type": "address"
        }
      ],
      "stateMutability": "view",
      "type": "function"
    },
    {
      "inputs": [],
      "name": "poolPosition",
      "outputs": [
        {
          "internalType": "int256",
          "name": "positionAmount",
          "type": "int256"
        },
        {
          "internalType": "uint256",
          "name": "entryPrice",
          "type": "uint256"
        },
        {
          "internalType": "int256",
          "name": "entryFundingFee",
          "type": "int256"
        },
        {
          "internalType": "uint256",
          "name": "usdcAmount",
          "type": "uint256"
        }
      ],
      "stateMutability": "view",
      "type": "function"
    },
    {
      "inputs": [],
      "name": "rebalance",
      "outputs": [],
      "stateMutability": "nonpayable",
      "type": "function"
    },
    {
      "inputs": [],
      "name": "renounceOwnership",
      "outputs": [],
      "stateMutability": "nonpayable",
      "type": "function"
    },
    {
      "inputs": [
        {
          "internalType": "uint256",
          "name": "_currentRangeId",
          "type": "uint256"
        }
      ],
      "name": "setCurrentRangeId",
      "outputs": [],
      "stateMutability": "nonpayable",
      "type": "function"
    },
    {
      "inputs": [
        {
          "internalType": "uint256",
          "name": "_id",
          "type": "uint256"
        },
        {
          "internalType": "int24",
          "name": "_lowerTick",
          "type": "int24"
        },
        {
          "internalType": "int24",
          "name": "_upperTick",
          "type": "int24"
        }
      ],
      "name": "setRange",
      "outputs": [],
      "stateMutability": "nonpayable",
      "type": "function"
    },
    {
      "inputs": [],
      "name": "symbol",
      "outputs": [
        {
          "internalType": "string",
          "name": "",
          "type": "string"
        }
      ],
      "stateMutability": "view",
      "type": "function"
    },
    {
      "inputs": [],
      "name": "totalSupply",
      "outputs": [
        {
          "internalType": "uint256",
          "name": "",
          "type": "uint256"
        }
      ],
      "stateMutability": "view",
      "type": "function"
    },
    {
      "inputs": [
        {
          "internalType": "uint256",
          "name": "_vaultId",
          "type": "uint256"
        },
        {
          "internalType": "int256",
          "name": "_amount",
          "type": "int256"
        },
        {
          "internalType": "bool",
          "name": "_quoterMode",
          "type": "bool"
        }
      ],
      "name": "trade",
      "outputs": [
        {
          "internalType": "uint256",
          "name": "traderVaultId",
          "type": "uint256"
        }
      ],
      "stateMutability": "nonpayable",
      "type": "function"
    },
    {
      "inputs": [
        {
          "internalType": "address",
          "name": "recipient",
          "type": "address"
        },
        {
          "internalType": "uint256",
          "name": "amount",
          "type": "uint256"
        }
      ],
      "name": "transfer",
      "outputs": [
        {
          "internalType": "bool",
          "name": "",
          "type": "bool"
        }
      ],
      "stateMutability": "nonpayable",
      "type": "function"
    },
    {
      "inputs": [
        {
          "internalType": "address",
          "name": "sender",
          "type": "address"
        },
        {
          "internalType": "address",
          "name": "recipient",
          "type": "address"
        },
        {
          "internalType": "uint256",
          "name": "amount",
          "type": "uint256"
        }
      ],
      "name": "transferFrom",
      "outputs": [
        {
          "internalType": "bool",
          "name": "",
          "type": "bool"
        }
      ],
      "stateMutability": "nonpayable",
      "type": "function"
    },
    {
      "inputs": [
        {
          "internalType": "address",
          "name": "newOwner",
          "type": "address"
        }
      ],
      "name": "transferOwnership",
      "outputs": [],
      "stateMutability": "nonpayable",
      "type": "function"
    },
    {
      "inputs": [
        {
          "internalType": "uint256",
          "name": "_vaultId",
          "type": "uint256"
        },
        {
          "internalType": "int256",
          "name": "_marginAmount",
          "type": "int256"
        }
      ],
      "name": "updateMargin",
      "outputs": [
        {
          "internalType": "uint256",
          "name": "traderVaultId",
          "type": "uint256"
        }
      ],
      "stateMutability": "nonpayable",
      "type": "function"
    },
    {
      "inputs": [],
      "name": "vaultId",
      "outputs": [
        {
          "internalType": "uint256",
          "name": "",
          "type": "uint256"
        }
      ],
      "stateMutability": "view",
      "type": "function"
    },
    {
      "inputs": [
        {
          "internalType": "uint256",
          "name": "_amount",
          "type": "uint256"
        }
      ],
      "name": "withdraw",
      "outputs": [
        {
          "internalType": "uint256",
          "name": "burnAmount",
          "type": "uint256"
        }
      ],
      "stateMutability": "nonpayable",
      "type": "function"
    }
  ],
  "transactionHash": "0x4c4ae8c8dde10f6affbf81942a6f92ed2a6437b6c54657a1a10f7cc143842245",
  "args": [
    "0x51395b4e2b99e92C230Bc3800eF5fCbE4c7316Fd",
    "0x5D7540AB402F37e81f5A1b6e857698b386080f9C",
    "0x603eFB95394c6cf5b6b29B1c813bd1Ee42A07714",
    "0xff6ecE96Ed48Fc19a6f7a30C88733e2A9b05c043"
  ],
  "solcInputHash": "c93df20d9cc685523f44273deafdf578",
  "bytecode": "0x60e06040523480156200001157600080fd5b506040516200488f3803806200488f8339810160408190526200003491620002b3565b604080518082018252600d81526c050726564794675747572654c5609c1b602080830191825283518085019094526004845263050464c560e41b9084015281519192916200008591600391620001ea565b5080516200009b906004906020840190620001ea565b50506005805460ff19166012179055506000620000b7620001e6565b60058054610100600160a81b0319166101006001600160a01b03841690810291909117909155604051919250906000907f8be0079c531659141344cd1fd0a4f28419497f9722a3daafe3b4186f6b6457e0908290a3506001600160601b0319606085811b821660805284811b821660a05283901b1660c052600680546001600160a01b038381166001600160a01b03199092169190911790915560405163095ea7b360e01b81529083169063095ea7b3906200017c9087906000199060040162000338565b602060405180830381600087803b1580156200019757600080fd5b505af1158015620001ac573d6000803e3d6000fd5b505050506040513d601f19601f82011682018060405250810190620001d291906200030f565b50506001600a555050426011555062000351565b3390565b828054600181600116156101000203166002900490600052602060002090601f0160209004810192826200022257600085556200026d565b82601f106200023d57805160ff19168380011785556200026d565b828001600101855582156200026d579182015b828111156200026d57825182559160200191906001019062000250565b506200027b9291506200027f565b5090565b5b808211156200027b576000815560010162000280565b80516001600160a01b0381168114620002ae57600080fd5b919050565b60008060008060808587031215620002c9578384fd5b620002d48562000296565b9350620002e46020860162000296565b9250620002f46040860162000296565b9150620003046060860162000296565b905092959194509250565b60006020828403121562000321578081fd5b8151801515811462000331578182fd5b9392505050565b6001600160a01b03929092168252602082015260400190565b60805160601c60a05160601c60c05160601c6144b3620003dc600039806105d65280610a445280610a7e52806111265250806105145280610707528061091d5280610dd6528061109d52806115775280611ea152806120b552806122b252806129295280613598525080610c445280610d14528061166e528061286452806134e852506144b36000f3fe608060405234801561001057600080fd5b50600436106101a95760003560e01c806351303622116100f957806395d89b4111610097578063a9059cbb11610071578063a9059cbb14610353578063b6b55f2514610366578063dd62ed3e14610379578063f2fde38b1461038c576101a9565b806395d89b4114610325578063a38573101461032d578063a457c2d714610340576101a9565b806370a08231116100d357806370a08231146102ed578063715018a6146103005780637d7c2a1c146103085780638da5cb5b14610310576101a9565b806351303622146102ca5780635393e780146102d257806356da7c28146102e5576101a9565b80632e1a7d4d11610166578063313ce56711610140578063313ce5671461028757806333194c0a1461029c57806339509351146102a45780635090fd52146102b7576101a9565b80632e1a7d4d1461024c5780632fcdd75b1461025f578063307b4ad814610272576101a9565b806302b02c10146101ae57806306fdde03146101cf578063095ea7b3146101e4578063150b7a021461020457806318160ddd1461022457806323b872dd14610239575b600080fd5b6101b661039f565b6040516101c694939291906140ac565b60405180910390f35b6101d76103ae565b6040516101c691906140c7565b6101f76101f2366004613de8565b610445565b6040516101c6919061408c565b610217610212366004613d4e565b610463565b6040516101c69190614097565b61022c610475565b6040516101c69190614131565b6101f7610247366004613d0e565b61047b565b61022c61025a366004613e47565b610503565b61022c61026d366004613ebb565b61060c565b610285610280366004613e5f565b61069e565b005b61028f61084a565b6040516101c69190614211565b61022c610853565b6101f76102b2366004613de8565b610859565b6102856102c5366004613e47565b6108a7565b61022c61090e565b61022c6102e0366004613e9a565b61098b565b61022c610ae8565b61022c6102fb366004613c9e565b610aee565b610285610b0d565b610285610bbf565b610318610e86565b6040516101c69190613ffe565b6101d7610e9a565b61028561033b366004613e47565b610efb565b6101f761034e366004613de8565b611010565b6101f7610361366004613de8565b611078565b61022c610374366004613e47565b61108c565b61022c610387366004613cd6565b611157565b61028561039a366004613c9e565b611182565b600c54600d54600e54600f5484565b60038054604080516020601f600260001961010060018816150201909516949094049384018190048102820181019092528281526060939092909183018282801561043a5780601f1061040f5761010080835404028352916020019161043a565b820191906000526020600020905b81548152906001019060200180831161041d57829003601f168201915b505050505090505b90565b6000610459610452611290565b8484611294565b5060015b92915050565b630a85bd0160e11b5b95945050505050565b60025490565b6000610488848484611380565b6104f884610494611290565b6104f38560405180606001604052806028815260200161435c602891396001600160a01b038a166000908152600160205260408120906104d2611290565b6001600160a01b0316815260208101919091526040016000205491906114db565b611294565b5060015b9392505050565b600061050d611572565b60006105a87f00000000000000000000000000000000000000000000000000000000000000006001600160a01b03166305ecd0036040518163ffffffff1660e01b815260040160206040518083038186803b15801561056b57600080fd5b505afa15801561057f573d6000803e3d6000fd5b505050506040513d601f19601f820116820180604052508101906105a39190613e2f565b611615565b9050806105b3610475565b8402816105bc57fe5b600f5491900492506105ce9084611735565b600f556105fc7f00000000000000000000000000000000000000000000000000000000000000003385611792565b61060633836118e0565b50919050565b6000610616611572565b6000610621846119dc565b905082156106325761063281611ada565b600061063e8685611ae5565b90935090506000610650828785611c3d565b9050837f9b3cc5398b36c186376b2bfaac294ce6a6b9dc790bbf7819f3f9fb613dea70ee3388866010548660405161068c95949392919061402b565b60405180910390a25050509392505050565b6106a6611290565b6001600160a01b03166106b7610e86565b6001600160a01b031614610700576040805162461bcd60e51b81526020600482018190526024820152600080516020614384833981519152604482015290519081900360640190fd5b600061079d7f00000000000000000000000000000000000000000000000000000000000000006001600160a01b031663517ede9d6040518163ffffffff1660e01b815260040160206040518083038186803b15801561075e57600080fd5b505afa158015610772573d6000803e3d6000fd5b505050506040513d601f19601f820116820180604052508101906107969190613e13565b8484611d49565b604080516080810182528681526001600160801b039283166020808301918252600297880b83850190815296880b606084019081526000998a526008909152929097209051815595516001909601805494519151860b62ffffff908116600160981b0262ffffff60981b199390970b16600160801b0262ffffff60801b19979093166fffffffffffffffffffffffffffffffff199095169490941795909516179390931691909117905550565b60055460ff1690565b60075481565b6000610459610866611290565b846104f38560016000610877611290565b6001600160a01b03908116825260208083019390935260409182016000908120918c168152925290205490611d9e565b6108af611290565b6001600160a01b03166108c0610e86565b6001600160a01b031614610909576040805162461bcd60e51b81526020600482018190526024820152600080516020614384833981519152604482015290519081900360640190fd5b600b55565b6000610918610475565b6109747f00000000000000000000000000000000000000000000000000000000000000006001600160a01b03166305ecd0036040518163ffffffff1660e01b815260040160206040518083038186803b15801561056b57600080fd5b670de0b6b3a7640000028161098557fe5b04905090565b60008161099757600080fd5b60006109a4846000611ae5565b600581015491935091506109b89084611df8565b600582018190556040805160c0810182528354815260018401546001600160a01b03166020820152600284015491810191909152600383015460608201526004830154608082015260a0810191909152610a1190611e86565b610a365760405162461bcd60e51b8152600401610a2d906140da565b60405180910390fd5b6000831315610a7057610a6b7f0000000000000000000000000000000000000000000000000000000000000000333086611f58565b610aa7565b6000831215610aa757610aa77f00000000000000000000000000000000000000000000000000000000000000003385600003611792565b817fb405e6c780a7b7908874af8de64f2e43b0c7b0d9fcfc3503c27133082d9b894d3385604051610ad9929190614012565b60405180910390a25092915050565b600a5481565b6001600160a01b0381166000908152602081905260409020545b919050565b610b15611290565b6001600160a01b0316610b26610e86565b6001600160a01b031614610b6f576040805162461bcd60e51b81526020600482018190526024820152600080516020614384833981519152604482015290519081900360640190fd5b60055460405160009161010090046001600160a01b0316907f8be0079c531659141344cd1fd0a4f28419497f9722a3daafe3b4186f6b6457e0908390a360058054610100600160a81b0319169055565b6040805160e0810182526000808252600160208301819052928201819052606082019290925260808101610bf2836120b0565b81526020016000198152602001604051806020016040528060008152508152509050600060405180606001604052806000815260200160001981526020016101f462ffffff1681525090506000610ce47f00000000000000000000000000000000000000000000000000000000000000006001600160a01b03166386e6862d6040518163ffffffff1660e01b815260040160206040518083038186803b158015610c9b57600080fd5b505afa158015610caf573d6000803e3d6000fd5b505050506040513d601f19601f82011682018060405250810190610cd39190613cba565b600c54610cdf9061217a565b612191565b9050610cf4600c60000154612283565b81600183510381518110610d0457fe5b60200260200101819052506000807f00000000000000000000000000000000000000000000000000000000000000006001600160a01b031663453fcdd26007548588886040518563ffffffff1660e01b8152600401610d66949392919061413a565b608060405180830381600087803b158015610d8057600080fd5b505af1158015610d94573d6000803e3d6000fd5b505050506040513d601f19601f82011682018060405250810190610db89190613ef3565b50600760008295508396508491905055505050610e7c600c600301547f00000000000000000000000000000000000000000000000000000000000000006001600160a01b031663517ede9d6040518163ffffffff1660e01b815260040160206040518083038186803b158015610e2d57600080fd5b505afa158015610e41573d6000803e3d6000fd5b505050506040513d601f19601f82011682018060405250810190610e659190613e13565b610e725782600003610e77565b836000035b611df8565b600f555050505050565b60055461010090046001600160a01b031690565b60048054604080516020601f600260001961010060018816150201909516949094049384018190048102820181019092528281526060939092909183018282801561043a5780601f1061040f5761010080835404028352916020019161043a565b610f03611572565b600081815260096020908152604091829020825160c0810184528154815260018201546001600160a01b0316928101929092526002810154928201929092526003820154606082015260048201546080820152600582015460a0820152610f6990611e86565b15610f865760405162461bcd60e51b8152600401610a2d90614114565b600082815260096020526040812060020154810390610fa4826119dc565b90506000610fb3848484611c3d565b90506000610fc2858585612472565b9050857fe456fe400dc609d1dd60685837392e23072eea9490a0ccc2de290fcd742ed4f9338686601054878760405161100096959493929190614059565b60405180910390a2505050505050565b600061045961101d611290565b846104f3856040518060600160405280602581526020016144596025913960016000611047611290565b6001600160a01b03908116825260208083019390935260409182016000908120918d168152925290205491906114db565b6000610459611085611290565b8484611380565b6000611096611572565b60006110f47f00000000000000000000000000000000000000000000000000000000000000006001600160a01b03166305ecd0036040518163ffffffff1660e01b815260040160206040518083038186803b15801561056b57600080fd5b90508061110357829150611119565b8061110c610475565b84028161111557fe5b0491505b600f80548401905561114d7f0000000000000000000000000000000000000000000000000000000000000000333086611f58565b61060633836124b9565b6001600160a01b03918216600090815260016020908152604080832093909416825291909152205490565b61118a611290565b6001600160a01b031661119b610e86565b6001600160a01b0316146111e4576040805162461bcd60e51b81526020600482018190526024820152600080516020614384833981519152604482015290519081900360640190fd5b6001600160a01b0381166112295760405162461bcd60e51b815260040180806020018281038252602681526020018061428b6026913960400191505060405180910390fd5b6005546040516001600160a01b0380841692610100900416907f8be0079c531659141344cd1fd0a4f28419497f9722a3daafe3b4186f6b6457e090600090a3600580546001600160a01b0390921661010002610100600160a81b0319909216919091179055565b3390565b6001600160a01b0383166112d95760405162461bcd60e51b81526004018080602001828103825260248152602001806144116024913960400191505060405180910390fd5b6001600160a01b03821661131e5760405162461bcd60e51b81526004018080602001828103825260228152602001806142b16022913960400191505060405180910390fd5b6001600160a01b03808416600081815260016020908152604080832094871680845294825291829020859055815185815291517f8c5be1e5ebec7d5bd14f71427d1e84f3dd0314c0f7b2291e5b200ac8c7c3b9259281900390910190a3505050565b6001600160a01b0383166113c55760405162461bcd60e51b81526004018080602001828103825260258152602001806143ec6025913960400191505060405180910390fd5b6001600160a01b03821661140a5760405162461bcd60e51b81526004018080602001828103825260238152602001806142466023913960400191505060405180910390fd5b6114158383836125a9565b611452816040518060600160405280602681526020016142d3602691396001600160a01b03861660009081526020819052604090205491906114db565b6001600160a01b0380851660009081526020819052604080822093909355908416815220546114819082611d9e565b6001600160a01b038084166000818152602081815260409182902094909455805185815290519193928716927fddf252ad1be2c89b69c2b068fc378daa952ba7f163c4a11628f55a4df523b3ef92918290030190a3505050565b6000818484111561156a5760405162461bcd60e51b81526004018080602001828103825283818151815260200191508051906020019080838360005b8381101561152f578181015183820152602001611517565b50505050905090810190601f16801561155c5780820380516001836020036101000a031916815260200191505b509250505060405180910390fd5b505050900390565b6116137f00000000000000000000000000000000000000000000000000000000000000006001600160a01b03166305ecd0036040518163ffffffff1660e01b815260040160206040518083038186803b1580156115ce57600080fd5b505afa1580156115e2573d6000803e3d6000fd5b505050506040513d601f19601f820116820180604052508101906116069190613e2f565b61160e6125ae565b6125d8565b565b600080670de0b6b3a7640000611660600c6000015461165a61165361164a600c6002015460105461261c90919063ffffffff16565b600d5490612681565b879061261c565b906126e6565b8161166757fe5b05905060007f00000000000000000000000000000000000000000000000000000000000000006001600160a01b031663c3d2ca2d6007546040518263ffffffff1660e01b81526004016116ba9190614131565b60206040518083038186803b1580156116d257600080fd5b505afa1580156116e6573d6000803e3d6000fd5b505050506040513d601f19601f8201168201806040525081019061170a9190613e2f565b600f5490915061172d90611728906117228585612681565b90612681565b61278f565b949350505050565b60008282111561178c576040805162461bcd60e51b815260206004820152601e60248201527f536166654d6174683a207375627472616374696f6e206f766572666c6f770000604482015290519081900360640190fd5b50900390565b604080516001600160a01b038481166024830152604480830185905283518084039091018152606490920183526020820180516001600160e01b031663a9059cbb60e01b1781529251825160009485949389169392918291908083835b6020831061180e5780518252601f1990920191602091820191016117ef565b6001836020036101000a0380198251168184511680821785525050505050509050019150506000604051808303816000865af19150503d8060008114611870576040519150601f19603f3d011682016040523d82523d6000602084013e611875565b606091505b50915091508180156118a35750805115806118a357508080602001905160208110156118a057600080fd5b50515b6118d9576040805162461bcd60e51b815260206004820152600260248201526114d560f21b604482015290519081900360640190fd5b5050505050565b6001600160a01b0382166119255760405162461bcd60e51b81526004018080602001828103825260218152602001806143cb6021913960400191505060405180910390fd5b611931826000836125a9565b61196e81604051806060016040528060228152602001614269602291396001600160a01b03851660009081526020819052604090205491906114db565b6001600160a01b0383166000908152602081905260409020556002546119949082611735565b6002556040805182815290516000916001600160a01b038516917fddf252ad1be2c89b69c2b068fc378daa952ba7f163c4a11628f55a4df523b3ef9181900360200190a35050565b6040805160e08101825260008082526001602083018190529282018190526060820192909252819060808101611a11856120b0565b81526020016000198152602001604051806020016040528060008152508152509050611a43600c6000015484836127e6565b9150506000806000611a61600c60010154600c60000154868861298f565b91509150611a6e8261278f565b600d55611a7b8382612681565b92505050600080611a9a600c60020154600c600001546010548861298f565b600e8290559092509050611aae8382612681565b92505050611ac1600c6003015482611df8565b600f5550600c54611ad2908361261c565b600c55919050565b602051818152602081fd5b60008083611b76576006546040516354ba0f2760e01b81526001600160a01b03909116906354ba0f2790611b1d903390600401613ffe565b602060405180830381600087803b158015611b3757600080fd5b505af1158015611b4b573d6000803e3d6000fd5b505050506040513d601f19601f82011682018060405250810190611b6f9190613e2f565b9150611c27565b6006546040516331a9108f60e11b815285935033916001600160a01b031690636352211e90611ba9908690600401614131565b60206040518083038186803b158015611bc157600080fd5b505afa158015611bd5573d6000803e3d6000fd5b505050506040513d601f19601f82011682018060405250810190611bf99190613cba565b6001600160a01b03161480611c0b5750825b611c275760405162461bcd60e51b8152600401610a2d906140f7565b5060008181526009602052604090209250929050565b6000806000611c5686600301548760020154868861298f565b91509150611c638261278f565b6003870155611c728382612681565b92505050600080611c8f866004015487600201546010548861298f565b600488018290559092509050611ca58382612681565b92505050611cc083856002015461268190919063ffffffff16565b60028501556005840154611cd49082611df8565b600585018190556040805160c0810182528654815260018701546001600160a01b03166020820152600287015491810191909152600386015460608201526004860154608082015260a0810191909152611d2d90611e86565b6104fc5760405162461bcd60e51b8152600401610a2d906140da565b60008315611d7b57611d74611d5d84612aca565b611d6684612aca565b670de0b6b3a7640000612dfc565b90506104fc565b611d74611d8784612aca565b611d9084612aca565b670de0b6b3a7640000612e3e565b6000828201838110156104fc576040805162461bcd60e51b815260206004820152601b60248201527f536166654d6174683a206164646974696f6e206f766572666c6f770000000000604482015290519081900360640190fd5b600080821215611e48578282600003840391508110611e43576040805162461bcd60e51b81526020600482015260026024820152614c5360f01b604482015290519081900360640190fd5b61045d565b508082018281101561045d576040805162461bcd60e51b81526020600482015260026024820152614c4160f01b604482015290519081900360640190fd5b6000816040015160001415611e9d57506001610b08565b60007f00000000000000000000000000000000000000000000000000000000000000006001600160a01b03166305ecd0036040518163ffffffff1660e01b815260040160206040518083038186803b158015611ef857600080fd5b505afa158015611f0c573d6000803e3d6000fd5b505050506040513d601f19601f82011682018060405250810190611f309190613e2f565b90506000611f3e8483612e9c565b90506000611f4c8584612f1a565b91909113949350505050565b604080516001600160a01b0385811660248301528481166044830152606480830185905283518084039091018152608490920183526020820180516001600160e01b03166323b872dd60e01b178152925182516000948594938a169392918291908083835b60208310611fdc5780518252601f199092019160209182019101611fbd565b6001836020036101000a0380198251168184511680821785525050505050509050019150506000604051808303816000865af19150503d806000811461203e576040519150601f19603f3d011682016040523d82523d6000602084013e612043565b606091505b5091509150818015612071575080511580612071575080806020019051602081101561206e57600080fd5b50515b6120a8576040805162461bcd60e51b815260206004820152600360248201526229aa2360e91b604482015290519081900360640190fd5b505050505050565b6000807f00000000000000000000000000000000000000000000000000000000000000006001600160a01b03166398d5fdca6040518163ffffffff1660e01b815260040160206040518083038186803b15801561210c57600080fd5b505afa158015612120573d6000803e3d6000fd5b505050506040513d601f19601f820116820180604052508101906121449190613e2f565b90506003670de0b6b3a764000061216185600c600001540161217a565b83028161216a57fe5b048161217257fe5b049392505050565b60008082121561218d578160000361045d565b5090565b6060600061219e84612f79565b600b54600090815260086020526040902060010154909150600282810b600160801b909204810b900b1380156121f45750600b54600019016000908152600860205260409020600101546001600160801b031615155b156122135761220b600b546001600b540385613298565b91505061045d565b600b54600090815260086020526040902060010154600282810b600160981b909204810b900b1280156122655750600b546001908101600090815260086020526040902001546001600160801b031615155b1561227c5761220b600b54600b5460010185613298565b5092915050565b61228b613c46565b600061229e6122998461217a565b61346b565b905060006122ac8483612681565b905060007f00000000000000000000000000000000000000000000000000000000000000006001600160a01b031663517ede9d6040518163ffffffff1660e01b815260040160206040518083038186803b15801561230957600080fd5b505afa15801561231d573d6000803e3d6000fd5b505050506040513d601f19601f820116820180604052508101906123419190613e13565b905060008213156123b157604080516101008101909152806003815260006020820181905260408201819052606082018190526080820181905260a082015260c0018261238e5783612391565b60005b8152602001826123a25760006123a4565b835b8152509350505050610b08565b600082121561242457604080516101008101909152806001815260006020820181905260408201819052606082018190526080820181905260a082015260c001826123ff5783600003612402565b60005b8152602001826124135760006123a4565b836000038152509350505050610b08565b604080516101008101909152806000815260006020820181905260408201819052606082018190526080820181905260a0820181905260c0820181905260e0909101529350610b0892505050565b6000681b1ae4d6e2ef500000826124888561217a565b028161249057fe5b0490506124aa81856005015461173590919063ffffffff16565b84600501819055509392505050565b6001600160a01b038216612514576040805162461bcd60e51b815260206004820152601f60248201527f45524332303a206d696e7420746f20746865207a65726f206164647265737300604482015290519081900360640190fd5b612520600083836125a9565b60025461252d9082611d9e565b6002556001600160a01b0382166000908152602081905260409020546125539082611d9e565b6001600160a01b0383166000818152602081815260408083209490945583518581529351929391927fddf252ad1be2c89b69c2b068fc378daa952ba7f163c4a11628f55a4df523b3ef9281900390910190a35050565b505050565b600080600c6000015413156125ca5750655af3107a4000610442565b50655af3107a3fff19610442565b601154670de0b6b3a764000082840205906126109062015180906125fe904203846126e6565b8161260557fe5b601054919005612681565b60105550504260115550565b60008183038183128015906126315750838113155b80612646575060008312801561264657508381135b6104fc5760405162461bcd60e51b81526004018080602001828103825260248152602001806144356024913960400191505060405180910390fd5b60008282018183128015906126965750838112155b806126ab57506000831280156126ab57508381125b6104fc5760405162461bcd60e51b81526004018080602001828103825260218152602001806142f96021913960400191505060405180910390fd5b6000826126f55750600061045d565b826000191480156127095750600160ff1b82145b156127455760405162461bcd60e51b81526004018080602001828103825260278152602001806143a46027913960400191505060405180910390fd5b8282028284828161275257fe5b05146104fc5760405162461bcd60e51b81526004018080602001828103825260278152602001806143a46027913960400191505060405180910390fd5b60008082121561218d576040805162461bcd60e51b815260206004820181905260248201527f53616665436173743a2076616c7565206d75737420626520706f736974697665604482015290519081900360640190fd5b60408051606081018252600080825260001960208301526101f4928201929092528161283461282f6128178861217a565b6128296128248a8a612681565b61217a565b9061261c565b613640565b9050612844600c60000154612283565b8160018351038151811061285457fe5b60200260200101819052506000807f00000000000000000000000000000000000000000000000000000000000000006001600160a01b031663453fcdd26007548589886040518563ffffffff1660e01b81526004016128b6949392919061413a565b608060405180830381600087803b1580156128d057600080fd5b505af11580156128e4573d6000803e3d6000fd5b505050506040513d601f19601f820116820180604052508101906129089190613ef3565b60076000829a50839650849750859190505550505050612980600c600301547f00000000000000000000000000000000000000000000000000000000000000006001600160a01b031663517ede9d6040518163ffffffff1660e01b815260040160206040518083038186803b158015610e2d57600080fd5b600f5550929695505050505050565b6000808061299d8685612681565b90508515806129b757506000861380156129b75750600084135b806129cd57506000861280156129cd5750600084125b15612a1857612a116129e26128248887612681565b612a0b6129f86129f18861217a565b89906126e6565b611722612a048b61217a565b8c906126e6565b90613833565b9250612ac0565b600086138015612a285750600084125b8015612a345750600081135b80612a565750600086128015612a4a5750600084135b8015612a565750600081125b15612a8e57869250670de0b6b3a7640000612a7f612a74878661261c565b6000879003906126e6565b81612a8657fe5b059150612ac0565b8015612a98578492505b670de0b6b3a7640000612ab5612aae878a61261c565b88906126e6565b81612abc57fe5b0591505b5094509492505050565b60008060008360020b12612ae1578260020b612ae9565b8260020b6000035b9050620d89e8811115612b27576040805162461bcd60e51b81526020600482015260016024820152601560fa1b604482015290519081900360640190fd5b600060018216612b3b57600160801b612b4d565b6ffffcb933bd6fad37aa2d162d1a5940015b70ffffffffffffffffffffffffffffffffff1690506002821615612b81576ffff97272373d413259a46990580e213a0260801c5b6004821615612ba0576ffff2e50f5f656932ef12357cf3c7fdcc0260801c5b6008821615612bbf576fffe5caca7e10e4e61c3624eaa0941cd00260801c5b6010821615612bde576fffcb9843d60f6159c9db58835c9266440260801c5b6020821615612bfd576fff973b41fa98c081472e6896dfb254c00260801c5b6040821615612c1c576fff2ea16466c96a3843ec78b326b528610260801c5b6080821615612c3b576ffe5dee046a99a2a811c461f1969c30530260801c5b610100821615612c5b576ffcbe86c7900a88aedcffc83b479aa3a40260801c5b610200821615612c7b576ff987a7253ac413176f2b074cf7815e540260801c5b610400821615612c9b576ff3392b0822b70005940c7a398e4b70f30260801c5b610800821615612cbb576fe7159475a2c29b7443b29c7fa6e889d90260801c5b611000821615612cdb576fd097f3bdfd2022b8845ad8f792aa58250260801c5b612000821615612cfb576fa9f746462d870fdf8a65dc1f90e061e50260801c5b614000821615612d1b576f70d869a156d2a1b890bb3df62baf32f70260801c5b618000821615612d3b576f31be135f97d08fd981231505542fcfa60260801c5b62010000821615612d5c576f09aa508b5b7a84e1c677de54f3e99bc90260801c5b62020000821615612d7c576e5d6af8dedb81196699c329225ee6040260801c5b62040000821615612d9b576d2216e584f5fa1ea926041bedfe980260801c5b62080000821615612db8576b048a170391f7dc42444e8fa20260801c5b60008460020b1315612dd3578060001981612dcf57fe5b0490505b640100000000810615612de7576001612dea565b60005b60ff16602082901c0192505050919050565b6000826001600160a01b0316846001600160a01b03161115612e1c579192915b61172d612e3983600160601b8787036001600160a01b03166138eb565b61399a565b6000826001600160a01b0316846001600160a01b03161115612e5e579192915b6000612e81856001600160a01b0316856001600160a01b0316600160601b6138eb565b905061046c612e3984838888036001600160a01b03166138eb565b600080612eac846040015161217a565b90506000612eff612ef1670de0b6b3a7640000612ed285670de0b6b3a7640000026139b0565b6631bced02db00000281612ee257fe5b0467016345785d8a0000613a54565b6702c68af0bb140000613a6a565b670de0b6b3a764000092909402829004909302049392505050565b600080670de0b6b3a7640000612f58856040015161165a611653612f4d896080015160105461261c90919063ffffffff16565b60608a015190612681565b81612f5f57fe5b05905061172d8460a001518261268190919063ffffffff16565b60006401000276a36001600160a01b03831610801590612fb5575073fffd8963efd1fc6a506488495d951d5263988d266001600160a01b038316105b612fea576040805162461bcd60e51b81526020600482015260016024820152602960f91b604482015290519081900360640190fd5b640100000000600160c01b03602083901b166001600160801b03811160071b81811c67ffffffffffffffff811160061b90811c63ffffffff811160051b90811c61ffff811160041b90811c60ff8111600390811b91821c600f811160021b90811c918211600190811b92831c9790881196179094179092171790911717176080811061307e57607f810383901c9150613088565b80607f0383901b91505b908002607f81811c60ff83811c9190911c800280831c81831c1c800280841c81841c1c800280851c81851c1c800280861c81861c1c800280871c81871c1c800280881c81881c1c800280891c81891c1c8002808a1c818a1c1c8002808b1c818b1c1c8002808c1c818c1c1c8002808d1c818d1c1c8002808e1c9c81901c9c909c1c80029c8d901c9e9d607f198f0160401b60c09190911c678000000000000000161760c19b909b1c674000000000000000169a909a1760c29990991c672000000000000000169890981760c39790971c671000000000000000169690961760c49590951c670800000000000000169490941760c59390931c670400000000000000169290921760c69190911c670200000000000000161760c79190911c670100000000000000161760c89190911c6680000000000000161760c99190911c6640000000000000161760ca9190911c6620000000000000161760cb9190911c6610000000000000161760cc9190911c6608000000000000161760cd9190911c66040000000000001617693627a301d71055774c8581026f028f6481ab7f045a5af012a19d003aa9198101608090811d906fdb2df09e81959a81455e260799a0632f8301901d600281810b9083900b1461328957886001600160a01b031661326d82612aca565b6001600160a01b031611156132825781613284565b805b61328b565b815b9998505050505050505050565b60408051600380825260808201909252606091816020015b6132b8613c46565b8152602001906001900390816132b057505060408051610100810182526006815260006020808301829052828401829052888252600890529190912060010154919250906060820190670de0b6b3a76400009061331f9086906001600160801b0316613a79565b8161332657fe5b046001600160801b03168152600086815260086020818152604080842060010154600160801b8104600290810b810b848801528b865293909252600160981b909104820b90910b90830152606082018190526080909101819052825183919061338b57fe5b602090810291909101810191909152604080516101008101825260058152600081840181905281830181905286815260089093529120600101546060820190670de0b6b3a7640000906133e89086906001600160801b0316613a79565b816133ef57fe5b046001600160801b031681526000858152600860208181526040808420600190810154600160801b8104600290810b810b858901528b875294909352600160981b909204830b90920b91840191909152606083018290526080909201528251839190811061345957fe5b60200260200101819052509392505050565b600b5460009081526008602090815260408083208151608081018352815481526001909101546001600160801b03811682850152600160801b8104600290810b810b810b83850152600160981b909104810b810b900b606082015281516386e6862d60e01b81529151909284928392613592926001600160a01b037f000000000000000000000000000000000000000000000000000000000000000016926386e6862d9260048083019392829003018186803b15801561352a57600080fd5b505afa15801561353e573d6000803e3d6000fd5b505050506040513d601f19601f820116820180604052508101906135629190613cba565b84604001518560600151670de0b6b3a76400008988602001516001600160801b0316028161358c57fe5b04613ad2565b915091507f00000000000000000000000000000000000000000000000000000000000000006001600160a01b031663517ede9d6040518163ffffffff1660e01b815260040160206040518083038186803b1580156135ef57600080fd5b505afa158015613603573d6000803e3d6000fd5b505050506040513d601f19601f820116820180604052508101906136279190613e13565b15613636579250610b08915050565b509150610b089050565b6040805160028082526060828101909352816020015b61365e613c46565b81526020019060019003908161365657905050905060008213156137515760408051610100810182526005815260006020808301829052828401829052600b5482526008905291909120600101546060820190670de0b6b3a7640000906136cf9086906001600160801b0316613a79565b816136d657fe5b046001600160801b03168152600b54600081815260086020818152604080842060010154600160801b8104600290810b810b8489015295855292909152600160981b909104830b90920b91830191909152606082018190526080909101819052825183919061374157fe5b6020026020010181905250610b08565b6000821215610b085760408051610100810182526006815260006020808301829052828401829052600b548252600890529182206001015490916060830191670de0b6b3a7640000916137b19190879003906001600160801b0316613a79565b816137b857fe5b046001600160801b03168152600b54600081815260086020818152604080842060010154600160801b8104600290810b810b8489015295855292909152600160981b909104830b90920b91830191909152606082018190526080909101819052825183919061382357fe5b6020026020010181905250919050565b600081613887576040805162461bcd60e51b815260206004820181905260248201527f5369676e6564536166654d6174683a206469766973696f6e206279207a65726f604482015290519081900360640190fd5b8160001914801561389b5750600160ff1b83145b156138d75760405162461bcd60e51b815260040180806020018281038252602181526020018061431a6021913960400191505060405180910390fd5b60008284816138e257fe5b05949350505050565b6000808060001985870986860292508281109083900303905080613921576000841161391657600080fd5b5082900490506104fc565b80841161392d57600080fd5b6000848688096000868103871696879004966002600389028118808a02820302808a02820302808a02820302808a02820302808a02820302808a02909103029181900381900460010186841190950394909402919094039290920491909117919091029150509392505050565b806001600160801b0381168114610b0857600080fd5b60b581600160881b81106139c95760409190911b9060801c5b690100000000000000000081106139e55760209190911b9060401c5b6501000000000081106139fd5760109190911b9060201c5b63010000008110613a135760089190911b9060101c5b62010000010260121c80820401600190811c80830401811c80830401811c80830401811c80830401811c80830401811c80830401901c908190048111900390565b6000818311613a6357816104fc565b5090919050565b600081831161060657826104fc565b600082613a885750600061045d565b82820282848281613a9557fe5b04146104fc5760405162461bcd60e51b815260040180806020018281038252602181526020018061433b6021913960400191505060405180910390fd5b600080613af186613ae287612aca565b613aeb87612aca565b86613aff565b915091505b94509492505050565b600080836001600160a01b0316856001600160a01b03161115613b20579293925b846001600160a01b0316866001600160a01b031611613b4b57613b44858585613b9a565b9150613af6565b836001600160a01b0316866001600160a01b03161015613b8457613b70868585613b9a565b9150613b7d858785613c03565b9050613af6565b613b8f858585613c03565b905094509492505050565b6000826001600160a01b0316846001600160a01b03161115613bba579192915b836001600160a01b0316613bf3606060ff16846001600160801b0316901b8686036001600160a01b0316866001600160a01b03166138eb565b81613bfa57fe5b04949350505050565b6000826001600160a01b0316846001600160a01b03161115613c23579192915b61172d826001600160801b03168585036001600160a01b0316600160601b6138eb565b604080516101008101909152806000815260006020820181905260408201819052606082018190526080820181905260a0820181905260c0820181905260e09091015290565b8035600281900b8114610b0857600080fd5b600060208284031215613caf578081fd5b81356104fc8161421f565b600060208284031215613ccb578081fd5b81516104fc8161421f565b60008060408385031215613ce8578081fd5b8235613cf38161421f565b91506020830135613d038161421f565b809150509250929050565b600080600060608486031215613d22578081fd5b8335613d2d8161421f565b92506020840135613d3d8161421f565b929592945050506040919091013590565b600080600080600060808688031215613d65578081fd5b8535613d708161421f565b94506020860135613d808161421f565b935060408601359250606086013567ffffffffffffffff80821115613da3578283fd5b818801915088601f830112613db6578283fd5b813581811115613dc4578384fd5b896020828501011115613dd5578384fd5b9699959850939650602001949392505050565b60008060408385031215613dfa578182fd5b8235613e058161421f565b946020939093013593505050565b600060208284031215613e24578081fd5b81516104fc81614237565b600060208284031215613e40578081fd5b5051919050565b600060208284031215613e58578081fd5b5035919050565b600080600060608486031215613e73578283fd5b83359250613e8360208501613c8c565b9150613e9160408501613c8c565b90509250925092565b60008060408385031215613eac578182fd5b50508035926020909101359150565b600080600060608486031215613ecf578081fd5b83359250602084013591506040840135613ee881614237565b809150509250925092565b60008060008060808587031215613f08578182fd5b505082516020840151604085015160609095015191969095509092509050565b60008151808452815b81811015613f4d57602081850181015186830182015201613f31565b81811115613f5e5782602083870101525b50601f01601f19169290920160200192915050565b60020b9052565b805182526020808201519083015260409081015162ffffff16910152565b60008151151583526020820151151560208401526040820151151560408401526060820151151560608401526080820151608084015260a082015160a084015260c082015160e060c085015261172d60e0850182613f28565b6001600160801b03169052565b6001600160a01b0391909116815260200190565b6001600160a01b03929092168252602082015260400190565b6001600160a01b03959095168552602085019390935260408401919091526060830152608082015260a00190565b6001600160a01b03969096168652602086019490945260408501929092526060840152608083015260a082015260c00190565b901515815260200190565b6001600160e01b031991909116815260200190565b93845260208401929092526040830152606082015260800190565b6000602082526104fc6020830184613f28565b602080825260039082015262464d3160e81b604082015260600190565b6020808252600390820152620464d360ec1b604082015260600190565b60208082526003908201526223269960e91b604082015260600190565b90815260200190565b600060c08083018784526020828186015281885180845260e093508387019150828a01865b828110156141e95781518051600d811061417557fe5b8552808601518686015260408082015115159086015260608082015161419d82880182613ff1565b50506080808201516141b182880182613f73565b505060a0808201516141c582880182613f73565b5050808801518589015286015186850152610100909301929084019060010161415f565b50505085810360408701526141fe8189613f98565b94505050505061046c6060830184613f7a565b60ff91909116815260200190565b6001600160a01b038116811461423457600080fd5b50565b801515811461423457600080fdfe45524332303a207472616e7366657220746f20746865207a65726f206164647265737345524332303a206275726e20616d6f756e7420657863656564732062616c616e63654f776e61626c653a206e6577206f776e657220697320746865207a65726f206164647265737345524332303a20617070726f766520746f20746865207a65726f206164647265737345524332303a207472616e7366657220616d6f756e7420657863656564732062616c616e63655369676e6564536166654d6174683a206164646974696f6e206f766572666c6f775369676e6564536166654d6174683a206469766973696f6e206f766572666c6f77536166654d6174683a206d756c7469706c69636174696f6e206f766572666c6f7745524332303a207472616e7366657220616d6f756e74206578636565647320616c6c6f77616e63654f776e61626c653a2063616c6c6572206973206e6f7420746865206f776e65725369676e6564536166654d6174683a206d756c7469706c69636174696f6e206f766572666c6f7745524332303a206275726e2066726f6d20746865207a65726f206164647265737345524332303a207472616e736665722066726f6d20746865207a65726f206164647265737345524332303a20617070726f76652066726f6d20746865207a65726f20616464726573735369676e6564536166654d6174683a207375627472616374696f6e206f766572666c6f7745524332303a2064656372656173656420616c6c6f77616e63652062656c6f77207a65726fa2646970667358221220ba8e3e765d0373ff81312ee3d92225ad5d64a655273b74a66f96e13a2be5f0ad64736f6c63430007060033",
  "devdoc": {
    "kind": "dev",
    "methods": {
      "allowance(address,address)": {
        "details": "See {IERC20-allowance}."
      },
      "approve(address,uint256)": {
        "details": "See {IERC20-approve}. Requirements: - `spender` cannot be the zero address."
      },
      "balanceOf(address)": {
        "details": "See {IERC20-balanceOf}."
      },
      "decimals()": {
        "details": "Returns the number of decimals used to get its user representation. For example, if `decimals` equals `2`, a balance of `505` tokens should be displayed to a user as `5,05` (`505 / 10 ** 2`). Tokens usually opt for a value of 18, imitating the relationship between Ether and Wei. This is the value {ERC20} uses, unless {_setupDecimals} is called. NOTE: This information is only used for _display_ purposes: it in no way affects any of the arithmetic of the contract, including {IERC20-balanceOf} and {IERC20-transfer}."
      },
      "decreaseAllowance(address,uint256)": {
        "details": "Atomically decreases the allowance granted to `spender` by the caller. This is an alternative to {approve} that can be used as a mitigation for problems described in {IERC20-approve}. Emits an {Approval} event indicating the updated allowance. Requirements: - `spender` cannot be the zero address. - `spender` must have allowance for the caller of at least `subtractedValue`."
      },
      "increaseAllowance(address,uint256)": {
        "details": "Atomically increases the allowance granted to `spender` by the caller. This is an alternative to {approve} that can be used as a mitigation for problems described in {IERC20-approve}. Emits an {Approval} event indicating the updated allowance. Requirements: - `spender` cannot be the zero address."
      },
      "name()": {
        "details": "Returns the name of the token."
      },
      "onERC721Received(address,address,uint256,bytes)": {
        "details": "Whenever an {IERC721} `tokenId` token is transferred to this contract via {IERC721-safeTransferFrom} by `operator` from `from`, this function is called. It must return its Solidity selector to confirm the token transfer. If any other value is returned or the interface is not implemented by the recipient, the transfer will be reverted. The selector can be obtained in Solidity with `IERC721.onERC721Received.selector`."
      },
      "owner()": {
        "details": "Returns the address of the current owner."
      },
      "renounceOwnership()": {
        "details": "Leaves the contract without owner. It will not be possible to call `onlyOwner` functions anymore. Can only be called by the current owner. NOTE: Renouncing ownership will leave the contract without an owner, thereby removing any functionality that is only available to the owner."
      },
      "symbol()": {
        "details": "Returns the symbol of the token, usually a shorter version of the name."
      },
      "totalSupply()": {
        "details": "See {IERC20-totalSupply}."
      },
      "transfer(address,uint256)": {
        "details": "See {IERC20-transfer}. Requirements: - `recipient` cannot be the zero address. - the caller must have a balance of at least `amount`."
      },
      "transferFrom(address,address,uint256)": {
        "details": "See {IERC20-transferFrom}. Emits an {Approval} event indicating the updated allowance. This is not required by the EIP. See the note at the beginning of {ERC20}. Requirements: - `sender` and `recipient` cannot be the zero address. - `sender` must have a balance of at least `amount`. - the caller must have allowance for ``sender``'s tokens of at least `amount`."
      },
      "transferOwnership(address)": {
        "details": "Transfers ownership of the contract to a new account (`newOwner`). Can only be called by the current owner."
      }
    },
    "version": 1
  },
  "userdoc": {
    "kind": "user",
    "methods": {},
    "notice": "FM0: caller is not vault owner FM1: vault must be safe FM2: vault must not be safe",
    "version": 1
  },
  "storageLayout": {
    "storage": [
      {
        "astId": 9134,
        "contract": "src/satelite/FutureMarket.sol:FutureMarket",
        "label": "_balances",
        "offset": 0,
        "slot": "0",
        "type": "t_mapping(t_address,t_uint256)"
      },
      {
        "astId": 9140,
        "contract": "src/satelite/FutureMarket.sol:FutureMarket",
        "label": "_allowances",
        "offset": 0,
        "slot": "1",
        "type": "t_mapping(t_address,t_mapping(t_address,t_uint256))"
      },
      {
        "astId": 9142,
        "contract": "src/satelite/FutureMarket.sol:FutureMarket",
        "label": "_totalSupply",
        "offset": 0,
        "slot": "2",
        "type": "t_uint256"
      },
      {
        "astId": 9144,
        "contract": "src/satelite/FutureMarket.sol:FutureMarket",
        "label": "_name",
        "offset": 0,
        "slot": "3",
        "type": "t_string_storage"
      },
      {
        "astId": 9146,
        "contract": "src/satelite/FutureMarket.sol:FutureMarket",
        "label": "_symbol",
        "offset": 0,
        "slot": "4",
        "type": "t_string_storage"
      },
      {
        "astId": 9148,
        "contract": "src/satelite/FutureMarket.sol:FutureMarket",
        "label": "_decimals",
        "offset": 0,
        "slot": "5",
        "type": "t_uint8"
      },
      {
        "astId": 8346,
        "contract": "src/satelite/FutureMarket.sol:FutureMarket",
        "label": "_owner",
        "offset": 1,
        "slot": "5",
        "type": "t_address"
      },
      {
        "astId": 27855,
        "contract": "src/satelite/FutureMarket.sol:FutureMarket",
        "label": "vaultNFT",
        "offset": 0,
        "slot": "6",
        "type": "t_address"
      },
      {
        "astId": 27857,
        "contract": "src/satelite/FutureMarket.sol:FutureMarket",
        "label": "vaultId",
        "offset": 0,
        "slot": "7",
        "type": "t_uint256"
      },
      {
        "astId": 27879,
        "contract": "src/satelite/FutureMarket.sol:FutureMarket",
        "label": "ranges",
        "offset": 0,
        "slot": "8",
        "type": "t_mapping(t_uint256,t_struct(Range)27866_storage)"
      },
      {
        "astId": 27883,
        "contract": "src/satelite/FutureMarket.sol:FutureMarket",
        "label": "futureVaults",
        "offset": 0,
        "slot": "9",
        "type": "t_mapping(t_uint256,t_struct(FutureVault)29714_storage)"
      },
      {
        "astId": 27885,
        "contract": "src/satelite/FutureMarket.sol:FutureMarket",
        "label": "futureVaultCount",
        "offset": 0,
        "slot": "10",
        "type": "t_uint256"
      },
      {
        "astId": 27887,
        "contract": "src/satelite/FutureMarket.sol:FutureMarket",
        "label": "currentRangeId",
        "offset": 0,
        "slot": "11",
        "type": "t_uint256"
      },
      {
        "astId": 27889,
        "contract": "src/satelite/FutureMarket.sol:FutureMarket",
        "label": "poolPosition",
        "offset": 0,
        "slot": "12",
        "type": "t_struct(PoolPosition)27875_storage"
      },
      {
        "astId": 27891,
        "contract": "src/satelite/FutureMarket.sol:FutureMarket",
        "label": "fundingFeePerPosition",
        "offset": 0,
        "slot": "16",
        "type": "t_int256"
      },
      {
        "astId": 27893,
        "contract": "src/satelite/FutureMarket.sol:FutureMarket",
        "label": "lastTradeTimestamp",
        "offset": 0,
        "slot": "17",
        "type": "t_uint256"
      }
    ],
    "types": {
      "t_address": {
        "encoding": "inplace",
        "label": "address",
        "numberOfBytes": "20"
      },
      "t_int24": {
        "encoding": "inplace",
        "label": "int24",
        "numberOfBytes": "3"
      },
      "t_int256": {
        "encoding": "inplace",
        "label": "int256",
        "numberOfBytes": "32"
      },
      "t_mapping(t_address,t_mapping(t_address,t_uint256))": {
        "encoding": "mapping",
        "key": "t_address",
        "label": "mapping(address => mapping(address => uint256))",
        "numberOfBytes": "32",
        "value": "t_mapping(t_address,t_uint256)"
      },
      "t_mapping(t_address,t_uint256)": {
        "encoding": "mapping",
        "key": "t_address",
        "label": "mapping(address => uint256)",
        "numberOfBytes": "32",
        "value": "t_uint256"
      },
      "t_mapping(t_uint256,t_struct(FutureVault)29714_storage)": {
        "encoding": "mapping",
        "key": "t_uint256",
        "label": "mapping(uint256 => struct FutureMarketLib.FutureVault)",
        "numberOfBytes": "32",
        "value": "t_struct(FutureVault)29714_storage"
      },
      "t_mapping(t_uint256,t_struct(Range)27866_storage)": {
        "encoding": "mapping",
        "key": "t_uint256",
        "label": "mapping(uint256 => struct FutureMarket.Range)",
        "numberOfBytes": "32",
        "value": "t_struct(Range)27866_storage"
      },
      "t_string_storage": {
        "encoding": "bytes",
        "label": "string",
        "numberOfBytes": "32"
      },
      "t_struct(FutureVault)29714_storage": {
        "encoding": "inplace",
        "label": "struct FutureMarketLib.FutureVault",
        "members": [
          {
            "astId": 29703,
            "contract": "src/satelite/FutureMarket.sol:FutureMarket",
            "label": "id",
            "offset": 0,
            "slot": "0",
            "type": "t_uint256"
          },
          {
            "astId": 29705,
            "contract": "src/satelite/FutureMarket.sol:FutureMarket",
            "label": "owner",
            "offset": 0,
            "slot": "1",
            "type": "t_address"
          },
          {
            "astId": 29707,
            "contract": "src/satelite/FutureMarket.sol:FutureMarket",
            "label": "positionAmount",
            "offset": 0,
            "slot": "2",
            "type": "t_int256"
          },
          {
            "astId": 29709,
            "contract": "src/satelite/FutureMarket.sol:FutureMarket",
            "label": "entryPrice",
            "offset": 0,
            "slot": "3",
            "type": "t_uint256"
          },
          {
            "astId": 29711,
            "contract": "src/satelite/FutureMarket.sol:FutureMarket",
            "label": "entryFundingFee",
            "offset": 0,
            "slot": "4",
            "type": "t_int256"
          },
          {
            "astId": 29713,
            "contract": "src/satelite/FutureMarket.sol:FutureMarket",
            "label": "marginAmount",
            "offset": 0,
            "slot": "5",
            "type": "t_uint256"
          }
        ],
        "numberOfBytes": "192"
      },
      "t_struct(PoolPosition)27875_storage": {
        "encoding": "inplace",
        "label": "struct FutureMarket.PoolPosition",
        "members": [
          {
            "astId": 27868,
            "contract": "src/satelite/FutureMarket.sol:FutureMarket",
            "label": "positionAmount",
            "offset": 0,
            "slot": "0",
            "type": "t_int256"
          },
          {
            "astId": 27870,
            "contract": "src/satelite/FutureMarket.sol:FutureMarket",
            "label": "entryPrice",
            "offset": 0,
            "slot": "1",
            "type": "t_uint256"
          },
          {
            "astId": 27872,
            "contract": "src/satelite/FutureMarket.sol:FutureMarket",
            "label": "entryFundingFee",
            "offset": 0,
            "slot": "2",
            "type": "t_int256"
          },
          {
            "astId": 27874,
            "contract": "src/satelite/FutureMarket.sol:FutureMarket",
            "label": "usdcAmount",
            "offset": 0,
            "slot": "3",
            "type": "t_uint256"
          }
        ],
        "numberOfBytes": "128"
      },
      "t_struct(Range)27866_storage": {
        "encoding": "inplace",
        "label": "struct FutureMarket.Range",
        "members": [
          {
            "astId": 27859,
            "contract": "src/satelite/FutureMarket.sol:FutureMarket",
            "label": "id",
            "offset": 0,
            "slot": "0",
            "type": "t_uint256"
          },
          {
            "astId": 27861,
            "contract": "src/satelite/FutureMarket.sol:FutureMarket",
            "label": "liquidity",
            "offset": 0,
            "slot": "1",
            "type": "t_uint128"
          },
          {
            "astId": 27863,
            "contract": "src/satelite/FutureMarket.sol:FutureMarket",
            "label": "lowerTick",
            "offset": 16,
            "slot": "1",
            "type": "t_int24"
          },
          {
            "astId": 27865,
            "contract": "src/satelite/FutureMarket.sol:FutureMarket",
            "label": "upperTick",
            "offset": 19,
            "slot": "1",
            "type": "t_int24"
          }
        ],
        "numberOfBytes": "64"
      },
      "t_uint128": {
        "encoding": "inplace",
        "label": "uint128",
        "numberOfBytes": "16"
      },
      "t_uint256": {
        "encoding": "inplace",
        "label": "uint256",
        "numberOfBytes": "32"
      },
      "t_uint8": {
        "encoding": "inplace",
        "label": "uint8",
        "numberOfBytes": "1"
      }
    }
  }
}